{
	"data": {
		"bytecode": {
			"linkReferences": {},
			"object": "608060405260645f553480156012575f5ffd5b50610204806100205f395ff3fe608060405234801561000f575f5ffd5b506004361061003f575f3560e01c80634e70b1dc14610043578063da9a592c14610061578063ed36b3d814610091575b5f5ffd5b61004b6100af565b60405161005891906100e9565b60405180910390f35b61007b60048036038101906100769190610130565b6100b4565b60405161008891906100e9565b60405180910390f35b6100996100c9565b6040516100a691906100e9565b60405180910390f35b5f5481565b5f81836100c1919061019b565b905092915050565b5f5f54905090565b5f819050919050565b6100e3816100d1565b82525050565b5f6020820190506100fc5f8301846100da565b92915050565b5f5ffd5b61010f816100d1565b8114610119575f5ffd5b50565b5f8135905061012a81610106565b92915050565b5f5f6040838503121561014657610145610102565b5b5f6101538582860161011c565b92505060206101648582860161011c565b9150509250929050565b7f4e487b71000000000000000000000000000000000000000000000000000000005f52601160045260245ffd5b5f6101a5826100d1565b91506101b0836100d1565b92508282019050808211156101c8576101c761016e565b5b9291505056fea26469706673582212202ad32dc2b1686e2af201931fc7dff84ba3e6e5ac2b5d8aaad289af2319cacdfe64736f6c634300081e0033",
			"opcodes": "PUSH1 0x80 PUSH1 0x40 MSTORE PUSH1 0x64 PUSH0 SSTORE CALLVALUE DUP1 ISZERO PUSH1 0x12 JUMPI PUSH0 PUSH0 REVERT JUMPDEST POP PUSH2 0x204 DUP1 PUSH2 0x20 PUSH0 CODECOPY PUSH0 RETURN INVALID PUSH1 0x80 PUSH1 0x40 MSTORE CALLVALUE DUP1 ISZERO PUSH2 0xF JUMPI PUSH0 PUSH0 REVERT JUMPDEST POP PUSH1 0x4 CALLDATASIZE LT PUSH2 0x3F JUMPI PUSH0 CALLDATALOAD PUSH1 0xE0 SHR DUP1 PUSH4 0x4E70B1DC EQ PUSH2 0x43 JUMPI DUP1 PUSH4 0xDA9A592C EQ PUSH2 0x61 JUMPI DUP1 PUSH4 0xED36B3D8 EQ PUSH2 0x91 JUMPI JUMPDEST PUSH0 PUSH0 REVERT JUMPDEST PUSH2 0x4B PUSH2 0xAF JUMP JUMPDEST PUSH1 0x40 MLOAD PUSH2 0x58 SWAP2 SWAP1 PUSH2 0xE9 JUMP JUMPDEST PUSH1 0x40 MLOAD DUP1 SWAP2 SUB SWAP1 RETURN JUMPDEST PUSH2 0x7B PUSH1 0x4 DUP1 CALLDATASIZE SUB DUP2 ADD SWAP1 PUSH2 0x76 SWAP2 SWAP1 PUSH2 0x130 JUMP JUMPDEST PUSH2 0xB4 JUMP JUMPDEST PUSH1 0x40 MLOAD PUSH2 0x88 SWAP2 SWAP1 PUSH2 0xE9 JUMP JUMPDEST PUSH1 0x40 MLOAD DUP1 SWAP2 SUB SWAP1 RETURN JUMPDEST PUSH2 0x99 PUSH2 0xC9 JUMP JUMPDEST PUSH1 0x40 MLOAD PUSH2 0xA6 SWAP2 SWAP1 PUSH2 0xE9 JUMP JUMPDEST PUSH1 0x40 MLOAD DUP1 SWAP2 SUB SWAP1 RETURN JUMPDEST PUSH0 SLOAD DUP2 JUMP JUMPDEST PUSH0 DUP2 DUP4 PUSH2 0xC1 SWAP2 SWAP1 PUSH2 0x19B JUMP JUMPDEST SWAP1 POP SWAP3 SWAP2 POP POP JUMP JUMPDEST PUSH0 PUSH0 SLOAD SWAP1 POP SWAP1 JUMP JUMPDEST PUSH0 DUP2 SWAP1 POP SWAP2 SWAP1 POP JUMP JUMPDEST PUSH2 0xE3 DUP2 PUSH2 0xD1 JUMP JUMPDEST DUP3 MSTORE POP POP JUMP JUMPDEST PUSH0 PUSH1 0x20 DUP3 ADD SWAP1 POP PUSH2 0xFC PUSH0 DUP4 ADD DUP5 PUSH2 0xDA JUMP JUMPDEST SWAP3 SWAP2 POP POP JUMP JUMPDEST PUSH0 PUSH0 REVERT JUMPDEST PUSH2 0x10F DUP2 PUSH2 0xD1 JUMP JUMPDEST DUP2 EQ PUSH2 0x119 JUMPI PUSH0 PUSH0 REVERT JUMPDEST POP JUMP JUMPDEST PUSH0 DUP2 CALLDATALOAD SWAP1 POP PUSH2 0x12A DUP2 PUSH2 0x106 JUMP JUMPDEST SWAP3 SWAP2 POP POP JUMP JUMPDEST PUSH0 PUSH0 PUSH1 0x40 DUP4 DUP6 SUB SLT ISZERO PUSH2 0x146 JUMPI PUSH2 0x145 PUSH2 0x102 JUMP JUMPDEST JUMPDEST PUSH0 PUSH2 0x153 DUP6 DUP3 DUP7 ADD PUSH2 0x11C JUMP JUMPDEST SWAP3 POP POP PUSH1 0x20 PUSH2 0x164 DUP6 DUP3 DUP7 ADD PUSH2 0x11C JUMP JUMPDEST SWAP2 POP POP SWAP3 POP SWAP3 SWAP1 POP JUMP JUMPDEST PUSH32 0x4E487B7100000000000000000000000000000000000000000000000000000000 PUSH0 MSTORE PUSH1 0x11 PUSH1 0x4 MSTORE PUSH1 0x24 PUSH0 REVERT JUMPDEST PUSH0 PUSH2 0x1A5 DUP3 PUSH2 0xD1 JUMP JUMPDEST SWAP2 POP PUSH2 0x1B0 DUP4 PUSH2 0xD1 JUMP JUMPDEST SWAP3 POP DUP3 DUP3 ADD SWAP1 POP DUP1 DUP3 GT ISZERO PUSH2 0x1C8 JUMPI PUSH2 0x1C7 PUSH2 0x16E JUMP JUMPDEST JUMPDEST SWAP3 SWAP2 POP POP JUMP INVALID LOG2 PUSH5 0x6970667358 0x22 SLT KECCAK256 0x2A 0xD3 0x2D 0xC2 0xB1 PUSH9 0x6E2AF201931FC7DFF8 0x4B LOG3 DUPN 0xE5 0xAC 0x2B TSTORE DUP11 0xAA 0xD2 DUP10 0xAF 0x23 NOT 0xCA 0xCD INVALID PUSH5 0x736F6C6343 STOP ADDMOD 0x1E STOP CALLER "
		},
		"gasEstimates": {
			"creation": {
				"codeDepositCost": "103200",
				"executionCost": "22256",
				"totalCost": "125456"
			},
			"external": {
				"num()": "2402",
				"pureFunction(uint256,uint256)": "infinite",
				"viewFunction()": "2453"
			}
		},
		"methodIdentifiers": {
			"num()": "4e70b1dc",
			"pureFunction(uint256,uint256)": "da9a592c",
			"viewFunction()": "ed36b3d8"
		}
	},
	"abi": [
		{
			"inputs": [],
			"name": "num",
			"outputs": [
				{
					"internalType": "uint256",
					"name": "",
					"type": "uint256"
				}
			],
			"stateMutability": "view",
			"type": "function"
		},
		{
			"inputs": [
				{
					"internalType": "uint256",
					"name": "x",
					"type": "uint256"
				},
				{
					"internalType": "uint256",
					"name": "y",
					"type": "uint256"
				}
			],
			"name": "pureFunction",
			"outputs": [
				{
					"internalType": "uint256",
					"name": "",
					"type": "uint256"
				}
			],
			"stateMutability": "pure",
			"type": "function"
		},
		{
			"inputs": [],
			"name": "viewFunction",
			"outputs": [
				{
					"internalType": "uint256",
					"name": "",
					"type": "uint256"
				}
			],
			"stateMutability": "view",
			"type": "function"
		}
	]
}