{
	"contracts/Practice.sol": {
		"MyPractice": {
			"abi": [
				{
					"inputs": [
						{
							"internalType": "string",
							"name": "_name",
							"type": "string"
						},
						{
							"internalType": "uint256",
							"name": "_price",
							"type": "uint256"
						}
					],
					"name": "addProduct",
					"outputs": [],
					"stateMutability": "nonpayable",
					"type": "function"
				},
				{
					"inputs": [
						{
							"internalType": "uint256",
							"name": "",
							"type": "uint256"
						}
					],
					"name": "products",
					"outputs": [
						{
							"internalType": "uint256",
							"name": "id",
							"type": "uint256"
						},
						{
							"internalType": "string",
							"name": "name",
							"type": "string"
						},
						{
							"internalType": "uint256",
							"name": "price",
							"type": "uint256"
						},
						{
							"internalType": "address",
							"name": "seller",
							"type": "address"
						},
						{
							"internalType": "bool",
							"name": "inStock",
							"type": "bool"
						}
					],
					"stateMutability": "view",
					"type": "function"
				}
			],
			"devdoc": {
				"kind": "dev",
				"methods": {},
				"version": 1
			},
			"evm": {
				"assembly": "    /* \"contracts/Practice.sol\":60:2042  contract MyPractice {... */\n  mstore(0x40, 0x80)\n  callvalue\n  dup1\n  iszero\n  tag_1\n  jumpi\n  0x00\n  dup1\n  revert\ntag_1:\n  pop\n  dataSize(sub_0)\n  dup1\n  dataOffset(sub_0)\n  0x00\n  codecopy\n  0x00\n  return\nstop\n\nsub_0: assembly {\n        /* \"contracts/Practice.sol\":60:2042  contract MyPractice {... */\n      mstore(0x40, 0x80)\n      callvalue\n      dup1\n      iszero\n      tag_1\n      jumpi\n      0x00\n      dup1\n      revert\n    tag_1:\n      pop\n      jumpi(tag_2, lt(calldatasize, 0x04))\n      shr(0xe0, calldataload(0x00))\n      dup1\n      0x7acc0b20\n      eq\n      tag_3\n      jumpi\n      dup1\n      0xb15247d9\n      eq\n      tag_4\n      jumpi\n    tag_2:\n      0x00\n      dup1\n      revert\n        /* \"contracts/Practice.sol\":1777:1802  Product[] public products */\n    tag_3:\n      tag_5\n      0x04\n      dup1\n      calldatasize\n      sub\n      dup2\n      add\n      swap1\n      tag_6\n      swap2\n      swap1\n      tag_7\n      jump\t// in\n    tag_6:\n      tag_8\n      jump\t// in\n    tag_5:\n      mload(0x40)\n      tag_9\n      swap6\n      swap5\n      swap4\n      swap3\n      swap2\n      swap1\n      tag_10\n      jump\t// in\n    tag_9:\n      mload(0x40)\n      dup1\n      swap2\n      sub\n      swap1\n      return\n        /* \"contracts/Practice.sol\":1807:2039  function addProduct(string memory _name, uint _price) public {... */\n    tag_4:\n      tag_11\n      0x04\n      dup1\n      calldatasize\n      sub\n      dup2\n      add\n      swap1\n      tag_12\n      swap2\n      swap1\n      tag_13\n      jump\t// in\n    tag_12:\n      tag_14\n      jump\t// in\n    tag_11:\n      stop\n        /* \"contracts/Practice.sol\":1777:1802  Product[] public products */\n    tag_8:\n      0x00\n      dup2\n      dup2\n      sload\n      dup2\n      lt\n      tag_15\n      jumpi\n      0x00\n      dup1\n      revert\n    tag_15:\n      swap1\n      0x00\n      mstore\n      keccak256(0x00, 0x20)\n      swap1\n      0x04\n      mul\n      add\n      0x00\n      swap2\n      pop\n      swap1\n      pop\n      dup1\n      0x00\n      add\n      sload\n      swap1\n      dup1\n      0x01\n      add\n      dup1\n      sload\n      tag_17\n      swap1\n      tag_18\n      jump\t// in\n    tag_17:\n      dup1\n      0x1f\n      add\n      0x20\n      dup1\n      swap2\n      div\n      mul\n      0x20\n      add\n      mload(0x40)\n      swap1\n      dup2\n      add\n      0x40\n      mstore\n      dup1\n      swap3\n      swap2\n      swap1\n      dup2\n      dup2\n      mstore\n      0x20\n      add\n      dup3\n      dup1\n      sload\n      tag_19\n      swap1\n      tag_18\n      jump\t// in\n    tag_19:\n      dup1\n      iszero\n      tag_20\n      jumpi\n      dup1\n      0x1f\n      lt\n      tag_21\n      jumpi\n      0x0100\n      dup1\n      dup4\n      sload\n      div\n      mul\n      dup4\n      mstore\n      swap2\n      0x20\n      add\n      swap2\n      jump(tag_20)\n    tag_21:\n      dup3\n      add\n      swap2\n      swap1\n      0x00\n      mstore\n      keccak256(0x00, 0x20)\n      swap1\n    tag_22:\n      dup2\n      sload\n      dup2\n      mstore\n      swap1\n      0x01\n      add\n      swap1\n      0x20\n      add\n      dup1\n      dup4\n      gt\n      tag_22\n      jumpi\n      dup3\n      swap1\n      sub\n      0x1f\n      and\n      dup3\n      add\n      swap2\n    tag_20:\n      pop\n      pop\n      pop\n      pop\n      pop\n      swap1\n      dup1\n      0x02\n      add\n      sload\n      swap1\n      dup1\n      0x03\n      add\n      0x00\n      swap1\n      sload\n      swap1\n      0x0100\n      exp\n      swap1\n      div\n      0xffffffffffffffffffffffffffffffffffffffff\n      and\n      swap1\n      dup1\n      0x03\n      add\n      0x14\n      swap1\n      sload\n      swap1\n      0x0100\n      exp\n      swap1\n      div\n      0xff\n      and\n      swap1\n      pop\n      dup6\n      jump\t// out\n        /* \"contracts/Practice.sol\":1807:2039  function addProduct(string memory _name, uint _price) public {... */\n    tag_14:\n        /* \"contracts/Practice.sol\":1875:1883  products */\n      0x00\n        /* \"contracts/Practice.sol\":1889:2034  Product({... */\n      mload(0x40)\n      dup1\n      0xa0\n      add\n      0x40\n      mstore\n      dup1\n        /* \"contracts/Practice.sol\":1912:1920  products */\n      0x00\n        /* \"contracts/Practice.sol\":1912:1927  products.length */\n      dup1\n      sload\n      swap1\n      pop\n        /* \"contracts/Practice.sol\":1889:2034  Product({... */\n      dup2\n      mstore\n      0x20\n      add\n        /* \"contracts/Practice.sol\":1944:1949  _name */\n      dup5\n        /* \"contracts/Practice.sol\":1889:2034  Product({... */\n      dup2\n      mstore\n      0x20\n      add\n        /* \"contracts/Practice.sol\":1967:1973  _price */\n      dup4\n        /* \"contracts/Practice.sol\":1889:2034  Product({... */\n      dup2\n      mstore\n      0x20\n      add\n        /* \"contracts/Practice.sol\":1992:2002  msg.sender */\n      caller\n        /* \"contracts/Practice.sol\":1889:2034  Product({... */\n      0xffffffffffffffffffffffffffffffffffffffff\n      and\n      dup2\n      mstore\n      0x20\n      add\n        /* \"contracts/Practice.sol\":2022:2026  true */\n      0x01\n        /* \"contracts/Practice.sol\":1889:2034  Product({... */\n      iszero\n      iszero\n      dup2\n      mstore\n      pop\n        /* \"contracts/Practice.sol\":1875:2035  products.push(Product({... */\n      swap1\n      dup1\n      0x01\n      dup2\n      sload\n      add\n      dup1\n      dup3\n      sstore\n      dup1\n      swap2\n      pop\n      pop\n      0x01\n      swap1\n      sub\n      swap1\n      0x00\n      mstore\n      keccak256(0x00, 0x20)\n      swap1\n      0x04\n      mul\n      add\n      0x00\n      swap1\n      swap2\n      swap1\n      swap2\n      swap1\n      swap2\n      pop\n      0x00\n      dup3\n      add\n      mload\n      dup2\n      0x00\n      add\n      sstore\n      0x20\n      dup3\n      add\n      mload\n      dup2\n      0x01\n      add\n      swap1\n      dup2\n      tag_25\n      swap2\n      swap1\n      tag_26\n      jump\t// in\n    tag_25:\n      pop\n      0x40\n      dup3\n      add\n      mload\n      dup2\n      0x02\n      add\n      sstore\n      0x60\n      dup3\n      add\n      mload\n      dup2\n      0x03\n      add\n      exp(0x0100, 0x00)\n      dup2\n      sload\n      dup2\n      0xffffffffffffffffffffffffffffffffffffffff\n      mul\n      not\n      and\n      swap1\n      dup4\n      0xffffffffffffffffffffffffffffffffffffffff\n      and\n      mul\n      or\n      swap1\n      sstore\n      pop\n      0x80\n      dup3\n      add\n      mload\n      dup2\n      0x03\n      add\n      exp(0x0100, 0x14)\n      dup2\n      sload\n      dup2\n      0xff\n      mul\n      not\n      and\n      swap1\n      dup4\n      iszero\n      iszero\n      mul\n      or\n      swap1\n      sstore\n      pop\n      pop\n      pop\n        /* \"contracts/Practice.sol\":1807:2039  function addProduct(string memory _name, uint _price) public {... */\n      pop\n      pop\n      jump\t// out\n        /* \"#utility.yul\":7:82   */\n    tag_27:\n        /* \"#utility.yul\":40:46   */\n      0x00\n        /* \"#utility.yul\":73:75   */\n      0x40\n        /* \"#utility.yul\":67:76   */\n      mload\n        /* \"#utility.yul\":57:76   */\n      swap1\n      pop\n        /* \"#utility.yul\":7:82   */\n      swap1\n      jump\t// out\n        /* \"#utility.yul\":88:205   */\n    tag_28:\n        /* \"#utility.yul\":197:198   */\n      0x00\n        /* \"#utility.yul\":194:195   */\n      dup1\n        /* \"#utility.yul\":187:199   */\n      revert\n        /* \"#utility.yul\":211:328   */\n    tag_29:\n        /* \"#utility.yul\":320:321   */\n      0x00\n        /* \"#utility.yul\":317:318   */\n      dup1\n        /* \"#utility.yul\":310:322   */\n      revert\n        /* \"#utility.yul\":334:411   */\n    tag_30:\n        /* \"#utility.yul\":371:378   */\n      0x00\n        /* \"#utility.yul\":400:405   */\n      dup2\n        /* \"#utility.yul\":389:405   */\n      swap1\n      pop\n        /* \"#utility.yul\":334:411   */\n      swap2\n      swap1\n      pop\n      jump\t// out\n        /* \"#utility.yul\":417:539   */\n    tag_31:\n        /* \"#utility.yul\":490:514   */\n      tag_75\n        /* \"#utility.yul\":508:513   */\n      dup2\n        /* \"#utility.yul\":490:514   */\n      tag_30\n      jump\t// in\n    tag_75:\n        /* \"#utility.yul\":483:488   */\n      dup2\n        /* \"#utility.yul\":480:515   */\n      eq\n        /* \"#utility.yul\":470:533   */\n      tag_76\n      jumpi\n        /* \"#utility.yul\":529:530   */\n      0x00\n        /* \"#utility.yul\":526:527   */\n      dup1\n        /* \"#utility.yul\":519:531   */\n      revert\n        /* \"#utility.yul\":470:533   */\n    tag_76:\n        /* \"#utility.yul\":417:539   */\n      pop\n      jump\t// out\n        /* \"#utility.yul\":545:684   */\n    tag_32:\n        /* \"#utility.yul\":591:596   */\n      0x00\n        /* \"#utility.yul\":629:635   */\n      dup2\n        /* \"#utility.yul\":616:636   */\n      calldataload\n        /* \"#utility.yul\":607:636   */\n      swap1\n      pop\n        /* \"#utility.yul\":645:678   */\n      tag_78\n        /* \"#utility.yul\":672:677   */\n      dup2\n        /* \"#utility.yul\":645:678   */\n      tag_31\n      jump\t// in\n    tag_78:\n        /* \"#utility.yul\":545:684   */\n      swap3\n      swap2\n      pop\n      pop\n      jump\t// out\n        /* \"#utility.yul\":690:1019   */\n    tag_7:\n        /* \"#utility.yul\":749:755   */\n      0x00\n        /* \"#utility.yul\":798:800   */\n      0x20\n        /* \"#utility.yul\":786:795   */\n      dup3\n        /* \"#utility.yul\":777:784   */\n      dup5\n        /* \"#utility.yul\":773:796   */\n      sub\n        /* \"#utility.yul\":769:801   */\n      slt\n        /* \"#utility.yul\":766:885   */\n      iszero\n      tag_80\n      jumpi\n        /* \"#utility.yul\":804:883   */\n      tag_81\n      tag_28\n      jump\t// in\n    tag_81:\n        /* \"#utility.yul\":766:885   */\n    tag_80:\n        /* \"#utility.yul\":924:925   */\n      0x00\n        /* \"#utility.yul\":949:1002   */\n      tag_82\n        /* \"#utility.yul\":994:1001   */\n      dup5\n        /* \"#utility.yul\":985:991   */\n      dup3\n        /* \"#utility.yul\":974:983   */\n      dup6\n        /* \"#utility.yul\":970:992   */\n      add\n        /* \"#utility.yul\":949:1002   */\n      tag_32\n      jump\t// in\n    tag_82:\n        /* \"#utility.yul\":939:1002   */\n      swap2\n      pop\n        /* \"#utility.yul\":895:1012   */\n      pop\n        /* \"#utility.yul\":690:1019   */\n      swap3\n      swap2\n      pop\n      pop\n      jump\t// out\n        /* \"#utility.yul\":1025:1143   */\n    tag_33:\n        /* \"#utility.yul\":1112:1136   */\n      tag_84\n        /* \"#utility.yul\":1130:1135   */\n      dup2\n        /* \"#utility.yul\":1112:1136   */\n      tag_30\n      jump\t// in\n    tag_84:\n        /* \"#utility.yul\":1107:1110   */\n      dup3\n        /* \"#utility.yul\":1100:1137   */\n      mstore\n        /* \"#utility.yul\":1025:1143   */\n      pop\n      pop\n      jump\t// out\n        /* \"#utility.yul\":1149:1248   */\n    tag_34:\n        /* \"#utility.yul\":1201:1207   */\n      0x00\n        /* \"#utility.yul\":1235:1240   */\n      dup2\n        /* \"#utility.yul\":1229:1241   */\n      mload\n        /* \"#utility.yul\":1219:1241   */\n      swap1\n      pop\n        /* \"#utility.yul\":1149:1248   */\n      swap2\n      swap1\n      pop\n      jump\t// out\n        /* \"#utility.yul\":1254:1423   */\n    tag_35:\n        /* \"#utility.yul\":1338:1349   */\n      0x00\n        /* \"#utility.yul\":1372:1378   */\n      dup3\n        /* \"#utility.yul\":1367:1370   */\n      dup3\n        /* \"#utility.yul\":1360:1379   */\n      mstore\n        /* \"#utility.yul\":1412:1416   */\n      0x20\n        /* \"#utility.yul\":1407:1410   */\n      dup3\n        /* \"#utility.yul\":1403:1417   */\n      add\n        /* \"#utility.yul\":1388:1417   */\n      swap1\n      pop\n        /* \"#utility.yul\":1254:1423   */\n      swap3\n      swap2\n      pop\n      pop\n      jump\t// out\n        /* \"#utility.yul\":1429:1568   */\n    tag_36:\n        /* \"#utility.yul\":1518:1524   */\n      dup3\n        /* \"#utility.yul\":1513:1516   */\n      dup2\n        /* \"#utility.yul\":1508:1511   */\n      dup4\n        /* \"#utility.yul\":1502:1525   */\n      mcopy\n        /* \"#utility.yul\":1559:1560   */\n      0x00\n        /* \"#utility.yul\":1550:1556   */\n      dup4\n        /* \"#utility.yul\":1545:1548   */\n      dup4\n        /* \"#utility.yul\":1541:1557   */\n      add\n        /* \"#utility.yul\":1534:1561   */\n      mstore\n        /* \"#utility.yul\":1429:1568   */\n      pop\n      pop\n      pop\n      jump\t// out\n        /* \"#utility.yul\":1574:1676   */\n    tag_37:\n        /* \"#utility.yul\":1615:1621   */\n      0x00\n        /* \"#utility.yul\":1666:1668   */\n      0x1f\n        /* \"#utility.yul\":1662:1669   */\n      not\n        /* \"#utility.yul\":1657:1659   */\n      0x1f\n        /* \"#utility.yul\":1650:1655   */\n      dup4\n        /* \"#utility.yul\":1646:1660   */\n      add\n        /* \"#utility.yul\":1642:1670   */\n      and\n        /* \"#utility.yul\":1632:1670   */\n      swap1\n      pop\n        /* \"#utility.yul\":1574:1676   */\n      swap2\n      swap1\n      pop\n      jump\t// out\n        /* \"#utility.yul\":1682:2059   */\n    tag_38:\n        /* \"#utility.yul\":1770:1773   */\n      0x00\n        /* \"#utility.yul\":1798:1837   */\n      tag_90\n        /* \"#utility.yul\":1831:1836   */\n      dup3\n        /* \"#utility.yul\":1798:1837   */\n      tag_34\n      jump\t// in\n    tag_90:\n        /* \"#utility.yul\":1853:1924   */\n      tag_91\n        /* \"#utility.yul\":1917:1923   */\n      dup2\n        /* \"#utility.yul\":1912:1915   */\n      dup6\n        /* \"#utility.yul\":1853:1924   */\n      tag_35\n      jump\t// in\n    tag_91:\n        /* \"#utility.yul\":1846:1924   */\n      swap4\n      pop\n        /* \"#utility.yul\":1933:1998   */\n      tag_92\n        /* \"#utility.yul\":1991:1997   */\n      dup2\n        /* \"#utility.yul\":1986:1989   */\n      dup6\n        /* \"#utility.yul\":1979:1983   */\n      0x20\n        /* \"#utility.yul\":1972:1977   */\n      dup7\n        /* \"#utility.yul\":1968:1984   */\n      add\n        /* \"#utility.yul\":1933:1998   */\n      tag_36\n      jump\t// in\n    tag_92:\n        /* \"#utility.yul\":2023:2052   */\n      tag_93\n        /* \"#utility.yul\":2045:2051   */\n      dup2\n        /* \"#utility.yul\":2023:2052   */\n      tag_37\n      jump\t// in\n    tag_93:\n        /* \"#utility.yul\":2018:2021   */\n      dup5\n        /* \"#utility.yul\":2014:2053   */\n      add\n        /* \"#utility.yul\":2007:2053   */\n      swap2\n      pop\n        /* \"#utility.yul\":1774:2059   */\n      pop\n        /* \"#utility.yul\":1682:2059   */\n      swap3\n      swap2\n      pop\n      pop\n      jump\t// out\n        /* \"#utility.yul\":2065:2191   */\n    tag_39:\n        /* \"#utility.yul\":2102:2109   */\n      0x00\n        /* \"#utility.yul\":2142:2184   */\n      0xffffffffffffffffffffffffffffffffffffffff\n        /* \"#utility.yul\":2135:2140   */\n      dup3\n        /* \"#utility.yul\":2131:2185   */\n      and\n        /* \"#utility.yul\":2120:2185   */\n      swap1\n      pop\n        /* \"#utility.yul\":2065:2191   */\n      swap2\n      swap1\n      pop\n      jump\t// out\n        /* \"#utility.yul\":2197:2293   */\n    tag_40:\n        /* \"#utility.yul\":2234:2241   */\n      0x00\n        /* \"#utility.yul\":2263:2287   */\n      tag_96\n        /* \"#utility.yul\":2281:2286   */\n      dup3\n        /* \"#utility.yul\":2263:2287   */\n      tag_39\n      jump\t// in\n    tag_96:\n        /* \"#utility.yul\":2252:2287   */\n      swap1\n      pop\n        /* \"#utility.yul\":2197:2293   */\n      swap2\n      swap1\n      pop\n      jump\t// out\n        /* \"#utility.yul\":2299:2417   */\n    tag_41:\n        /* \"#utility.yul\":2386:2410   */\n      tag_98\n        /* \"#utility.yul\":2404:2409   */\n      dup2\n        /* \"#utility.yul\":2386:2410   */\n      tag_40\n      jump\t// in\n    tag_98:\n        /* \"#utility.yul\":2381:2384   */\n      dup3\n        /* \"#utility.yul\":2374:2411   */\n      mstore\n        /* \"#utility.yul\":2299:2417   */\n      pop\n      pop\n      jump\t// out\n        /* \"#utility.yul\":2423:2513   */\n    tag_42:\n        /* \"#utility.yul\":2457:2464   */\n      0x00\n        /* \"#utility.yul\":2500:2505   */\n      dup2\n        /* \"#utility.yul\":2493:2506   */\n      iszero\n        /* \"#utility.yul\":2486:2507   */\n      iszero\n        /* \"#utility.yul\":2475:2507   */\n      swap1\n      pop\n        /* \"#utility.yul\":2423:2513   */\n      swap2\n      swap1\n      pop\n      jump\t// out\n        /* \"#utility.yul\":2519:2628   */\n    tag_43:\n        /* \"#utility.yul\":2600:2621   */\n      tag_101\n        /* \"#utility.yul\":2615:2620   */\n      dup2\n        /* \"#utility.yul\":2600:2621   */\n      tag_42\n      jump\t// in\n    tag_101:\n        /* \"#utility.yul\":2595:2598   */\n      dup3\n        /* \"#utility.yul\":2588:2622   */\n      mstore\n        /* \"#utility.yul\":2519:2628   */\n      pop\n      pop\n      jump\t// out\n        /* \"#utility.yul\":2634:3377   */\n    tag_10:\n        /* \"#utility.yul\":2853:2857   */\n      0x00\n        /* \"#utility.yul\":2891:2894   */\n      0xa0\n        /* \"#utility.yul\":2880:2889   */\n      dup3\n        /* \"#utility.yul\":2876:2895   */\n      add\n        /* \"#utility.yul\":2868:2895   */\n      swap1\n      pop\n        /* \"#utility.yul\":2905:2976   */\n      tag_103\n        /* \"#utility.yul\":2973:2974   */\n      0x00\n        /* \"#utility.yul\":2962:2971   */\n      dup4\n        /* \"#utility.yul\":2958:2975   */\n      add\n        /* \"#utility.yul\":2949:2955   */\n      dup9\n        /* \"#utility.yul\":2905:2976   */\n      tag_33\n      jump\t// in\n    tag_103:\n        /* \"#utility.yul\":3023:3032   */\n      dup2\n        /* \"#utility.yul\":3017:3021   */\n      dup2\n        /* \"#utility.yul\":3013:3033   */\n      sub\n        /* \"#utility.yul\":3008:3010   */\n      0x20\n        /* \"#utility.yul\":2997:3006   */\n      dup4\n        /* \"#utility.yul\":2993:3011   */\n      add\n        /* \"#utility.yul\":2986:3034   */\n      mstore\n        /* \"#utility.yul\":3051:3129   */\n      tag_104\n        /* \"#utility.yul\":3124:3128   */\n      dup2\n        /* \"#utility.yul\":3115:3121   */\n      dup8\n        /* \"#utility.yul\":3051:3129   */\n      tag_38\n      jump\t// in\n    tag_104:\n        /* \"#utility.yul\":3043:3129   */\n      swap1\n      pop\n        /* \"#utility.yul\":3139:3211   */\n      tag_105\n        /* \"#utility.yul\":3207:3209   */\n      0x40\n        /* \"#utility.yul\":3196:3205   */\n      dup4\n        /* \"#utility.yul\":3192:3210   */\n      add\n        /* \"#utility.yul\":3183:3189   */\n      dup7\n        /* \"#utility.yul\":3139:3211   */\n      tag_33\n      jump\t// in\n    tag_105:\n        /* \"#utility.yul\":3221:3293   */\n      tag_106\n        /* \"#utility.yul\":3289:3291   */\n      0x60\n        /* \"#utility.yul\":3278:3287   */\n      dup4\n        /* \"#utility.yul\":3274:3292   */\n      add\n        /* \"#utility.yul\":3265:3271   */\n      dup6\n        /* \"#utility.yul\":3221:3293   */\n      tag_41\n      jump\t// in\n    tag_106:\n        /* \"#utility.yul\":3303:3370   */\n      tag_107\n        /* \"#utility.yul\":3365:3368   */\n      0x80\n        /* \"#utility.yul\":3354:3363   */\n      dup4\n        /* \"#utility.yul\":3350:3369   */\n      add\n        /* \"#utility.yul\":3341:3347   */\n      dup5\n        /* \"#utility.yul\":3303:3370   */\n      tag_43\n      jump\t// in\n    tag_107:\n        /* \"#utility.yul\":2634:3377   */\n      swap7\n      swap6\n      pop\n      pop\n      pop\n      pop\n      pop\n      pop\n      jump\t// out\n        /* \"#utility.yul\":3383:3500   */\n    tag_44:\n        /* \"#utility.yul\":3492:3493   */\n      0x00\n        /* \"#utility.yul\":3489:3490   */\n      dup1\n        /* \"#utility.yul\":3482:3494   */\n      revert\n        /* \"#utility.yul\":3506:3623   */\n    tag_45:\n        /* \"#utility.yul\":3615:3616   */\n      0x00\n        /* \"#utility.yul\":3612:3613   */\n      dup1\n        /* \"#utility.yul\":3605:3617   */\n      revert\n        /* \"#utility.yul\":3629:3809   */\n    tag_46:\n        /* \"#utility.yul\":3677:3754   */\n      0x4e487b7100000000000000000000000000000000000000000000000000000000\n        /* \"#utility.yul\":3674:3675   */\n      0x00\n        /* \"#utility.yul\":3667:3755   */\n      mstore\n        /* \"#utility.yul\":3774:3778   */\n      0x41\n        /* \"#utility.yul\":3771:3772   */\n      0x04\n        /* \"#utility.yul\":3764:3779   */\n      mstore\n        /* \"#utility.yul\":3798:3802   */\n      0x24\n        /* \"#utility.yul\":3795:3796   */\n      0x00\n        /* \"#utility.yul\":3788:3803   */\n      revert\n        /* \"#utility.yul\":3815:4096   */\n    tag_47:\n        /* \"#utility.yul\":3898:3925   */\n      tag_112\n        /* \"#utility.yul\":3920:3924   */\n      dup3\n        /* \"#utility.yul\":3898:3925   */\n      tag_37\n      jump\t// in\n    tag_112:\n        /* \"#utility.yul\":3890:3896   */\n      dup2\n        /* \"#utility.yul\":3886:3926   */\n      add\n        /* \"#utility.yul\":4028:4034   */\n      dup2\n        /* \"#utility.yul\":4016:4026   */\n      dup2\n        /* \"#utility.yul\":4013:4035   */\n      lt\n        /* \"#utility.yul\":3992:4010   */\n      0xffffffffffffffff\n        /* \"#utility.yul\":3980:3990   */\n      dup3\n        /* \"#utility.yul\":3977:4011   */\n      gt\n        /* \"#utility.yul\":3974:4036   */\n      or\n        /* \"#utility.yul\":3971:4059   */\n      iszero\n      tag_113\n      jumpi\n        /* \"#utility.yul\":4039:4057   */\n      tag_114\n      tag_46\n      jump\t// in\n    tag_114:\n        /* \"#utility.yul\":3971:4059   */\n    tag_113:\n        /* \"#utility.yul\":4079:4089   */\n      dup1\n        /* \"#utility.yul\":4075:4077   */\n      0x40\n        /* \"#utility.yul\":4068:4090   */\n      mstore\n        /* \"#utility.yul\":3858:4096   */\n      pop\n        /* \"#utility.yul\":3815:4096   */\n      pop\n      pop\n      jump\t// out\n        /* \"#utility.yul\":4102:4231   */\n    tag_48:\n        /* \"#utility.yul\":4136:4142   */\n      0x00\n        /* \"#utility.yul\":4163:4183   */\n      tag_116\n      tag_27\n      jump\t// in\n    tag_116:\n        /* \"#utility.yul\":4153:4183   */\n      swap1\n      pop\n        /* \"#utility.yul\":4192:4225   */\n      tag_117\n        /* \"#utility.yul\":4220:4224   */\n      dup3\n        /* \"#utility.yul\":4212:4218   */\n      dup3\n        /* \"#utility.yul\":4192:4225   */\n      tag_47\n      jump\t// in\n    tag_117:\n        /* \"#utility.yul\":4102:4231   */\n      swap2\n      swap1\n      pop\n      jump\t// out\n        /* \"#utility.yul\":4237:4545   */\n    tag_49:\n        /* \"#utility.yul\":4299:4303   */\n      0x00\n        /* \"#utility.yul\":4389:4407   */\n      0xffffffffffffffff\n        /* \"#utility.yul\":4381:4387   */\n      dup3\n        /* \"#utility.yul\":4378:4408   */\n      gt\n        /* \"#utility.yul\":4375:4431   */\n      iszero\n      tag_119\n      jumpi\n        /* \"#utility.yul\":4411:4429   */\n      tag_120\n      tag_46\n      jump\t// in\n    tag_120:\n        /* \"#utility.yul\":4375:4431   */\n    tag_119:\n        /* \"#utility.yul\":4449:4478   */\n      tag_121\n        /* \"#utility.yul\":4471:4477   */\n      dup3\n        /* \"#utility.yul\":4449:4478   */\n      tag_37\n      jump\t// in\n    tag_121:\n        /* \"#utility.yul\":4441:4478   */\n      swap1\n      pop\n        /* \"#utility.yul\":4533:4537   */\n      0x20\n        /* \"#utility.yul\":4527:4531   */\n      dup2\n        /* \"#utility.yul\":4523:4538   */\n      add\n        /* \"#utility.yul\":4515:4538   */\n      swap1\n      pop\n        /* \"#utility.yul\":4237:4545   */\n      swap2\n      swap1\n      pop\n      jump\t// out\n        /* \"#utility.yul\":4551:4699   */\n    tag_50:\n        /* \"#utility.yul\":4649:4655   */\n      dup3\n        /* \"#utility.yul\":4644:4647   */\n      dup2\n        /* \"#utility.yul\":4639:4642   */\n      dup4\n        /* \"#utility.yul\":4626:4656   */\n      calldatacopy\n        /* \"#utility.yul\":4690:4691   */\n      0x00\n        /* \"#utility.yul\":4681:4687   */\n      dup4\n        /* \"#utility.yul\":4676:4679   */\n      dup4\n        /* \"#utility.yul\":4672:4688   */\n      add\n        /* \"#utility.yul\":4665:4692   */\n      mstore\n        /* \"#utility.yul\":4551:4699   */\n      pop\n      pop\n      pop\n      jump\t// out\n        /* \"#utility.yul\":4705:5130   */\n    tag_51:\n        /* \"#utility.yul\":4783:4788   */\n      0x00\n        /* \"#utility.yul\":4808:4874   */\n      tag_124\n        /* \"#utility.yul\":4824:4873   */\n      tag_125\n        /* \"#utility.yul\":4866:4872   */\n      dup5\n        /* \"#utility.yul\":4824:4873   */\n      tag_49\n      jump\t// in\n    tag_125:\n        /* \"#utility.yul\":4808:4874   */\n      tag_48\n      jump\t// in\n    tag_124:\n        /* \"#utility.yul\":4799:4874   */\n      swap1\n      pop\n        /* \"#utility.yul\":4897:4903   */\n      dup3\n        /* \"#utility.yul\":4890:4895   */\n      dup2\n        /* \"#utility.yul\":4883:4904   */\n      mstore\n        /* \"#utility.yul\":4935:4939   */\n      0x20\n        /* \"#utility.yul\":4928:4933   */\n      dup2\n        /* \"#utility.yul\":4924:4940   */\n      add\n        /* \"#utility.yul\":4973:4976   */\n      dup5\n        /* \"#utility.yul\":4964:4970   */\n      dup5\n        /* \"#utility.yul\":4959:4962   */\n      dup5\n        /* \"#utility.yul\":4955:4971   */\n      add\n        /* \"#utility.yul\":4952:4977   */\n      gt\n        /* \"#utility.yul\":4949:5061   */\n      iszero\n      tag_126\n      jumpi\n        /* \"#utility.yul\":4980:5059   */\n      tag_127\n      tag_45\n      jump\t// in\n    tag_127:\n        /* \"#utility.yul\":4949:5061   */\n    tag_126:\n        /* \"#utility.yul\":5070:5124   */\n      tag_128\n        /* \"#utility.yul\":5117:5123   */\n      dup5\n        /* \"#utility.yul\":5112:5115   */\n      dup3\n        /* \"#utility.yul\":5107:5110   */\n      dup6\n        /* \"#utility.yul\":5070:5124   */\n      tag_50\n      jump\t// in\n    tag_128:\n        /* \"#utility.yul\":4789:5130   */\n      pop\n        /* \"#utility.yul\":4705:5130   */\n      swap4\n      swap3\n      pop\n      pop\n      pop\n      jump\t// out\n        /* \"#utility.yul\":5150:5490   */\n    tag_52:\n        /* \"#utility.yul\":5206:5211   */\n      0x00\n        /* \"#utility.yul\":5255:5258   */\n      dup3\n        /* \"#utility.yul\":5248:5252   */\n      0x1f\n        /* \"#utility.yul\":5240:5246   */\n      dup4\n        /* \"#utility.yul\":5236:5253   */\n      add\n        /* \"#utility.yul\":5232:5259   */\n      slt\n        /* \"#utility.yul\":5222:5344   */\n      tag_130\n      jumpi\n        /* \"#utility.yul\":5263:5342   */\n      tag_131\n      tag_44\n      jump\t// in\n    tag_131:\n        /* \"#utility.yul\":5222:5344   */\n    tag_130:\n        /* \"#utility.yul\":5380:5386   */\n      dup2\n        /* \"#utility.yul\":5367:5387   */\n      calldataload\n        /* \"#utility.yul\":5405:5484   */\n      tag_132\n        /* \"#utility.yul\":5480:5483   */\n      dup5\n        /* \"#utility.yul\":5472:5478   */\n      dup3\n        /* \"#utility.yul\":5465:5469   */\n      0x20\n        /* \"#utility.yul\":5457:5463   */\n      dup7\n        /* \"#utility.yul\":5453:5470   */\n      add\n        /* \"#utility.yul\":5405:5484   */\n      tag_51\n      jump\t// in\n    tag_132:\n        /* \"#utility.yul\":5396:5484   */\n      swap2\n      pop\n        /* \"#utility.yul\":5212:5490   */\n      pop\n        /* \"#utility.yul\":5150:5490   */\n      swap3\n      swap2\n      pop\n      pop\n      jump\t// out\n        /* \"#utility.yul\":5496:6150   */\n    tag_13:\n        /* \"#utility.yul\":5574:5580   */\n      0x00\n        /* \"#utility.yul\":5582:5588   */\n      dup1\n        /* \"#utility.yul\":5631:5633   */\n      0x40\n        /* \"#utility.yul\":5619:5628   */\n      dup4\n        /* \"#utility.yul\":5610:5617   */\n      dup6\n        /* \"#utility.yul\":5606:5629   */\n      sub\n        /* \"#utility.yul\":5602:5634   */\n      slt\n        /* \"#utility.yul\":5599:5718   */\n      iszero\n      tag_134\n      jumpi\n        /* \"#utility.yul\":5637:5716   */\n      tag_135\n      tag_28\n      jump\t// in\n    tag_135:\n        /* \"#utility.yul\":5599:5718   */\n    tag_134:\n        /* \"#utility.yul\":5785:5786   */\n      0x00\n        /* \"#utility.yul\":5774:5783   */\n      dup4\n        /* \"#utility.yul\":5770:5787   */\n      add\n        /* \"#utility.yul\":5757:5788   */\n      calldataload\n        /* \"#utility.yul\":5815:5833   */\n      0xffffffffffffffff\n        /* \"#utility.yul\":5807:5813   */\n      dup2\n        /* \"#utility.yul\":5804:5834   */\n      gt\n        /* \"#utility.yul\":5801:5918   */\n      iszero\n      tag_136\n      jumpi\n        /* \"#utility.yul\":5837:5916   */\n      tag_137\n      tag_29\n      jump\t// in\n    tag_137:\n        /* \"#utility.yul\":5801:5918   */\n    tag_136:\n        /* \"#utility.yul\":5942:6005   */\n      tag_138\n        /* \"#utility.yul\":5997:6004   */\n      dup6\n        /* \"#utility.yul\":5988:5994   */\n      dup3\n        /* \"#utility.yul\":5977:5986   */\n      dup7\n        /* \"#utility.yul\":5973:5995   */\n      add\n        /* \"#utility.yul\":5942:6005   */\n      tag_52\n      jump\t// in\n    tag_138:\n        /* \"#utility.yul\":5932:6005   */\n      swap3\n      pop\n        /* \"#utility.yul\":5728:6015   */\n      pop\n        /* \"#utility.yul\":6054:6056   */\n      0x20\n        /* \"#utility.yul\":6080:6133   */\n      tag_139\n        /* \"#utility.yul\":6125:6132   */\n      dup6\n        /* \"#utility.yul\":6116:6122   */\n      dup3\n        /* \"#utility.yul\":6105:6114   */\n      dup7\n        /* \"#utility.yul\":6101:6123   */\n      add\n        /* \"#utility.yul\":6080:6133   */\n      tag_32\n      jump\t// in\n    tag_139:\n        /* \"#utility.yul\":6070:6133   */\n      swap2\n      pop\n        /* \"#utility.yul\":6025:6143   */\n      pop\n        /* \"#utility.yul\":5496:6150   */\n      swap3\n      pop\n      swap3\n      swap1\n      pop\n      jump\t// out\n        /* \"#utility.yul\":6156:6336   */\n    tag_53:\n        /* \"#utility.yul\":6204:6281   */\n      0x4e487b7100000000000000000000000000000000000000000000000000000000\n        /* \"#utility.yul\":6201:6202   */\n      0x00\n        /* \"#utility.yul\":6194:6282   */\n      mstore\n        /* \"#utility.yul\":6301:6305   */\n      0x22\n        /* \"#utility.yul\":6298:6299   */\n      0x04\n        /* \"#utility.yul\":6291:6306   */\n      mstore\n        /* \"#utility.yul\":6325:6329   */\n      0x24\n        /* \"#utility.yul\":6322:6323   */\n      0x00\n        /* \"#utility.yul\":6315:6330   */\n      revert\n        /* \"#utility.yul\":6342:6662   */\n    tag_18:\n        /* \"#utility.yul\":6386:6392   */\n      0x00\n        /* \"#utility.yul\":6423:6424   */\n      0x02\n        /* \"#utility.yul\":6417:6421   */\n      dup3\n        /* \"#utility.yul\":6413:6425   */\n      div\n        /* \"#utility.yul\":6403:6425   */\n      swap1\n      pop\n        /* \"#utility.yul\":6470:6471   */\n      0x01\n        /* \"#utility.yul\":6464:6468   */\n      dup3\n        /* \"#utility.yul\":6460:6472   */\n      and\n        /* \"#utility.yul\":6491:6509   */\n      dup1\n        /* \"#utility.yul\":6481:6562   */\n      tag_142\n      jumpi\n        /* \"#utility.yul\":6547:6551   */\n      0x7f\n        /* \"#utility.yul\":6539:6545   */\n      dup3\n        /* \"#utility.yul\":6535:6552   */\n      and\n        /* \"#utility.yul\":6525:6552   */\n      swap2\n      pop\n        /* \"#utility.yul\":6481:6562   */\n    tag_142:\n        /* \"#utility.yul\":6609:6611   */\n      0x20\n        /* \"#utility.yul\":6601:6607   */\n      dup3\n        /* \"#utility.yul\":6598:6612   */\n      lt\n        /* \"#utility.yul\":6578:6596   */\n      dup2\n        /* \"#utility.yul\":6575:6613   */\n      sub\n        /* \"#utility.yul\":6572:6656   */\n      tag_143\n      jumpi\n        /* \"#utility.yul\":6628:6646   */\n      tag_144\n      tag_53\n      jump\t// in\n    tag_144:\n        /* \"#utility.yul\":6572:6656   */\n    tag_143:\n        /* \"#utility.yul\":6393:6662   */\n      pop\n        /* \"#utility.yul\":6342:6662   */\n      swap2\n      swap1\n      pop\n      jump\t// out\n        /* \"#utility.yul\":6668:6809   */\n    tag_54:\n        /* \"#utility.yul\":6717:6721   */\n      0x00\n        /* \"#utility.yul\":6740:6743   */\n      dup2\n        /* \"#utility.yul\":6732:6743   */\n      swap1\n      pop\n        /* \"#utility.yul\":6763:6766   */\n      dup2\n        /* \"#utility.yul\":6760:6761   */\n      0x00\n        /* \"#utility.yul\":6753:6767   */\n      mstore\n        /* \"#utility.yul\":6797:6801   */\n      0x20\n        /* \"#utility.yul\":6794:6795   */\n      0x00\n        /* \"#utility.yul\":6784:6802   */\n      keccak256\n        /* \"#utility.yul\":6776:6802   */\n      swap1\n      pop\n        /* \"#utility.yul\":6668:6809   */\n      swap2\n      swap1\n      pop\n      jump\t// out\n        /* \"#utility.yul\":6815:6908   */\n    tag_55:\n        /* \"#utility.yul\":6852:6858   */\n      0x00\n        /* \"#utility.yul\":6899:6901   */\n      0x20\n        /* \"#utility.yul\":6894:6896   */\n      0x1f\n        /* \"#utility.yul\":6887:6892   */\n      dup4\n        /* \"#utility.yul\":6883:6897   */\n      add\n        /* \"#utility.yul\":6879:6902   */\n      div\n        /* \"#utility.yul\":6869:6902   */\n      swap1\n      pop\n        /* \"#utility.yul\":6815:6908   */\n      swap2\n      swap1\n      pop\n      jump\t// out\n        /* \"#utility.yul\":6914:7021   */\n    tag_56:\n        /* \"#utility.yul\":6958:6966   */\n      0x00\n        /* \"#utility.yul\":7008:7013   */\n      dup3\n        /* \"#utility.yul\":7002:7006   */\n      dup3\n        /* \"#utility.yul\":6998:7014   */\n      shl\n        /* \"#utility.yul\":6977:7014   */\n      swap1\n      pop\n        /* \"#utility.yul\":6914:7021   */\n      swap3\n      swap2\n      pop\n      pop\n      jump\t// out\n        /* \"#utility.yul\":7027:7420   */\n    tag_57:\n        /* \"#utility.yul\":7096:7102   */\n      0x00\n        /* \"#utility.yul\":7146:7147   */\n      0x08\n        /* \"#utility.yul\":7134:7144   */\n      dup4\n        /* \"#utility.yul\":7130:7148   */\n      mul\n        /* \"#utility.yul\":7169:7266   */\n      tag_149\n        /* \"#utility.yul\":7199:7265   */\n      0xffffffffffffffffffffffffffffffffffffffffffffffffffffffffffffffff\n        /* \"#utility.yul\":7188:7197   */\n      dup3\n        /* \"#utility.yul\":7169:7266   */\n      tag_56\n      jump\t// in\n    tag_149:\n        /* \"#utility.yul\":7287:7326   */\n      tag_150\n        /* \"#utility.yul\":7317:7325   */\n      dup7\n        /* \"#utility.yul\":7306:7315   */\n      dup4\n        /* \"#utility.yul\":7287:7326   */\n      tag_56\n      jump\t// in\n    tag_150:\n        /* \"#utility.yul\":7275:7326   */\n      swap6\n      pop\n        /* \"#utility.yul\":7359:7363   */\n      dup1\n        /* \"#utility.yul\":7355:7364   */\n      not\n        /* \"#utility.yul\":7348:7353   */\n      dup5\n        /* \"#utility.yul\":7344:7365   */\n      and\n        /* \"#utility.yul\":7335:7365   */\n      swap4\n      pop\n        /* \"#utility.yul\":7408:7412   */\n      dup1\n        /* \"#utility.yul\":7398:7406   */\n      dup7\n        /* \"#utility.yul\":7394:7413   */\n      and\n        /* \"#utility.yul\":7387:7392   */\n      dup5\n        /* \"#utility.yul\":7384:7414   */\n      or\n        /* \"#utility.yul\":7374:7414   */\n      swap3\n      pop\n        /* \"#utility.yul\":7103:7420   */\n      pop\n      pop\n        /* \"#utility.yul\":7027:7420   */\n      swap4\n      swap3\n      pop\n      pop\n      pop\n      jump\t// out\n        /* \"#utility.yul\":7426:7486   */\n    tag_58:\n        /* \"#utility.yul\":7454:7457   */\n      0x00\n        /* \"#utility.yul\":7475:7480   */\n      dup2\n        /* \"#utility.yul\":7468:7480   */\n      swap1\n      pop\n        /* \"#utility.yul\":7426:7486   */\n      swap2\n      swap1\n      pop\n      jump\t// out\n        /* \"#utility.yul\":7492:7634   */\n    tag_59:\n        /* \"#utility.yul\":7542:7551   */\n      0x00\n        /* \"#utility.yul\":7575:7628   */\n      tag_153\n        /* \"#utility.yul\":7593:7627   */\n      tag_154\n        /* \"#utility.yul\":7602:7626   */\n      tag_155\n        /* \"#utility.yul\":7620:7625   */\n      dup5\n        /* \"#utility.yul\":7602:7626   */\n      tag_30\n      jump\t// in\n    tag_155:\n        /* \"#utility.yul\":7593:7627   */\n      tag_58\n      jump\t// in\n    tag_154:\n        /* \"#utility.yul\":7575:7628   */\n      tag_30\n      jump\t// in\n    tag_153:\n        /* \"#utility.yul\":7562:7628   */\n      swap1\n      pop\n        /* \"#utility.yul\":7492:7634   */\n      swap2\n      swap1\n      pop\n      jump\t// out\n        /* \"#utility.yul\":7640:7715   */\n    tag_60:\n        /* \"#utility.yul\":7683:7686   */\n      0x00\n        /* \"#utility.yul\":7704:7709   */\n      dup2\n        /* \"#utility.yul\":7697:7709   */\n      swap1\n      pop\n        /* \"#utility.yul\":7640:7715   */\n      swap2\n      swap1\n      pop\n      jump\t// out\n        /* \"#utility.yul\":7721:7990   */\n    tag_61:\n        /* \"#utility.yul\":7831:7870   */\n      tag_158\n        /* \"#utility.yul\":7862:7869   */\n      dup4\n        /* \"#utility.yul\":7831:7870   */\n      tag_59\n      jump\t// in\n    tag_158:\n        /* \"#utility.yul\":7892:7983   */\n      tag_159\n        /* \"#utility.yul\":7941:7982   */\n      tag_160\n        /* \"#utility.yul\":7965:7981   */\n      dup3\n        /* \"#utility.yul\":7941:7982   */\n      tag_60\n      jump\t// in\n    tag_160:\n        /* \"#utility.yul\":7933:7939   */\n      dup5\n        /* \"#utility.yul\":7926:7930   */\n      dup5\n        /* \"#utility.yul\":7920:7931   */\n      sload\n        /* \"#utility.yul\":7892:7983   */\n      tag_57\n      jump\t// in\n    tag_159:\n        /* \"#utility.yul\":7886:7890   */\n      dup3\n        /* \"#utility.yul\":7879:7984   */\n      sstore\n        /* \"#utility.yul\":7797:7990   */\n      pop\n        /* \"#utility.yul\":7721:7990   */\n      pop\n      pop\n      pop\n      jump\t// out\n        /* \"#utility.yul\":7996:8069   */\n    tag_62:\n        /* \"#utility.yul\":8041:8044   */\n      0x00\n        /* \"#utility.yul\":7996:8069   */\n      swap1\n      jump\t// out\n        /* \"#utility.yul\":8075:8264   */\n    tag_63:\n        /* \"#utility.yul\":8152:8184   */\n      tag_163\n      tag_62\n      jump\t// in\n    tag_163:\n        /* \"#utility.yul\":8193:8258   */\n      tag_164\n        /* \"#utility.yul\":8251:8257   */\n      dup2\n        /* \"#utility.yul\":8243:8249   */\n      dup5\n        /* \"#utility.yul\":8237:8241   */\n      dup5\n        /* \"#utility.yul\":8193:8258   */\n      tag_61\n      jump\t// in\n    tag_164:\n        /* \"#utility.yul\":8128:8264   */\n      pop\n        /* \"#utility.yul\":8075:8264   */\n      pop\n      pop\n      jump\t// out\n        /* \"#utility.yul\":8270:8456   */\n    tag_64:\n        /* \"#utility.yul\":8330:8450   */\n    tag_166:\n        /* \"#utility.yul\":8347:8350   */\n      dup2\n        /* \"#utility.yul\":8340:8345   */\n      dup2\n        /* \"#utility.yul\":8337:8351   */\n      lt\n        /* \"#utility.yul\":8330:8450   */\n      iszero\n      tag_168\n      jumpi\n        /* \"#utility.yul\":8401:8440   */\n      tag_169\n        /* \"#utility.yul\":8438:8439   */\n      0x00\n        /* \"#utility.yul\":8431:8436   */\n      dup3\n        /* \"#utility.yul\":8401:8440   */\n      tag_63\n      jump\t// in\n    tag_169:\n        /* \"#utility.yul\":8374:8375   */\n      0x01\n        /* \"#utility.yul\":8367:8372   */\n      dup2\n        /* \"#utility.yul\":8363:8376   */\n      add\n        /* \"#utility.yul\":8354:8376   */\n      swap1\n      pop\n        /* \"#utility.yul\":8330:8450   */\n      jump(tag_166)\n    tag_168:\n        /* \"#utility.yul\":8270:8456   */\n      pop\n      pop\n      jump\t// out\n        /* \"#utility.yul\":8462:9005   */\n    tag_65:\n        /* \"#utility.yul\":8563:8565   */\n      0x1f\n        /* \"#utility.yul\":8558:8561   */\n      dup3\n        /* \"#utility.yul\":8555:8566   */\n      gt\n        /* \"#utility.yul\":8552:8998   */\n      iszero\n      tag_171\n      jumpi\n        /* \"#utility.yul\":8597:8635   */\n      tag_172\n        /* \"#utility.yul\":8629:8634   */\n      dup2\n        /* \"#utility.yul\":8597:8635   */\n      tag_54\n      jump\t// in\n    tag_172:\n        /* \"#utility.yul\":8681:8710   */\n      tag_173\n        /* \"#utility.yul\":8699:8709   */\n      dup5\n        /* \"#utility.yul\":8681:8710   */\n      tag_55\n      jump\t// in\n    tag_173:\n        /* \"#utility.yul\":8671:8679   */\n      dup2\n        /* \"#utility.yul\":8667:8711   */\n      add\n        /* \"#utility.yul\":8864:8866   */\n      0x20\n        /* \"#utility.yul\":8852:8862   */\n      dup6\n        /* \"#utility.yul\":8849:8867   */\n      lt\n        /* \"#utility.yul\":8846:8895   */\n      iszero\n      tag_174\n      jumpi\n        /* \"#utility.yul\":8885:8893   */\n      dup2\n        /* \"#utility.yul\":8870:8893   */\n      swap1\n      pop\n        /* \"#utility.yul\":8846:8895   */\n    tag_174:\n        /* \"#utility.yul\":8908:8988   */\n      tag_175\n        /* \"#utility.yul\":8964:8986   */\n      tag_176\n        /* \"#utility.yul\":8982:8985   */\n      dup6\n        /* \"#utility.yul\":8964:8986   */\n      tag_55\n      jump\t// in\n    tag_176:\n        /* \"#utility.yul\":8954:8962   */\n      dup4\n        /* \"#utility.yul\":8950:8987   */\n      add\n        /* \"#utility.yul\":8937:8948   */\n      dup3\n        /* \"#utility.yul\":8908:8988   */\n      tag_64\n      jump\t// in\n    tag_175:\n        /* \"#utility.yul\":8567:8998   */\n      pop\n      pop\n        /* \"#utility.yul\":8552:8998   */\n    tag_171:\n        /* \"#utility.yul\":8462:9005   */\n      pop\n      pop\n      pop\n      jump\t// out\n        /* \"#utility.yul\":9011:9128   */\n    tag_66:\n        /* \"#utility.yul\":9065:9073   */\n      0x00\n        /* \"#utility.yul\":9115:9120   */\n      dup3\n        /* \"#utility.yul\":9109:9113   */\n      dup3\n        /* \"#utility.yul\":9105:9121   */\n      shr\n        /* \"#utility.yul\":9084:9121   */\n      swap1\n      pop\n        /* \"#utility.yul\":9011:9128   */\n      swap3\n      swap2\n      pop\n      pop\n      jump\t// out\n        /* \"#utility.yul\":9134:9303   */\n    tag_67:\n        /* \"#utility.yul\":9178:9184   */\n      0x00\n        /* \"#utility.yul\":9211:9262   */\n      tag_179\n        /* \"#utility.yul\":9259:9260   */\n      0x00\n        /* \"#utility.yul\":9255:9261   */\n      not\n        /* \"#utility.yul\":9247:9252   */\n      dup5\n        /* \"#utility.yul\":9244:9245   */\n      0x08\n        /* \"#utility.yul\":9240:9253   */\n      mul\n        /* \"#utility.yul\":9211:9262   */\n      tag_66\n      jump\t// in\n    tag_179:\n        /* \"#utility.yul\":9207:9263   */\n      not\n        /* \"#utility.yul\":9292:9296   */\n      dup1\n        /* \"#utility.yul\":9286:9290   */\n      dup4\n        /* \"#utility.yul\":9282:9297   */\n      and\n        /* \"#utility.yul\":9272:9297   */\n      swap2\n      pop\n        /* \"#utility.yul\":9185:9303   */\n      pop\n        /* \"#utility.yul\":9134:9303   */\n      swap3\n      swap2\n      pop\n      pop\n      jump\t// out\n        /* \"#utility.yul\":9308:9603   */\n    tag_68:\n        /* \"#utility.yul\":9384:9388   */\n      0x00\n        /* \"#utility.yul\":9530:9559   */\n      tag_181\n        /* \"#utility.yul\":9555:9558   */\n      dup4\n        /* \"#utility.yul\":9549:9553   */\n      dup4\n        /* \"#utility.yul\":9530:9559   */\n      tag_67\n      jump\t// in\n    tag_181:\n        /* \"#utility.yul\":9522:9559   */\n      swap2\n      pop\n        /* \"#utility.yul\":9592:9595   */\n      dup3\n        /* \"#utility.yul\":9589:9590   */\n      0x02\n        /* \"#utility.yul\":9585:9596   */\n      mul\n        /* \"#utility.yul\":9579:9583   */\n      dup3\n        /* \"#utility.yul\":9576:9597   */\n      or\n        /* \"#utility.yul\":9568:9597   */\n      swap1\n      pop\n        /* \"#utility.yul\":9308:9603   */\n      swap3\n      swap2\n      pop\n      pop\n      jump\t// out\n        /* \"#utility.yul\":9608:11003   */\n    tag_26:\n        /* \"#utility.yul\":9725:9762   */\n      tag_183\n        /* \"#utility.yul\":9758:9761   */\n      dup3\n        /* \"#utility.yul\":9725:9762   */\n      tag_34\n      jump\t// in\n    tag_183:\n        /* \"#utility.yul\":9827:9845   */\n      0xffffffffffffffff\n        /* \"#utility.yul\":9819:9825   */\n      dup2\n        /* \"#utility.yul\":9816:9846   */\n      gt\n        /* \"#utility.yul\":9813:9869   */\n      iszero\n      tag_184\n      jumpi\n        /* \"#utility.yul\":9849:9867   */\n      tag_185\n      tag_46\n      jump\t// in\n    tag_185:\n        /* \"#utility.yul\":9813:9869   */\n    tag_184:\n        /* \"#utility.yul\":9893:9931   */\n      tag_186\n        /* \"#utility.yul\":9925:9929   */\n      dup3\n        /* \"#utility.yul\":9919:9930   */\n      sload\n        /* \"#utility.yul\":9893:9931   */\n      tag_18\n      jump\t// in\n    tag_186:\n        /* \"#utility.yul\":9978:10045   */\n      tag_187\n        /* \"#utility.yul\":10038:10044   */\n      dup3\n        /* \"#utility.yul\":10030:10036   */\n      dup3\n        /* \"#utility.yul\":10024:10028   */\n      dup6\n        /* \"#utility.yul\":9978:10045   */\n      tag_65\n      jump\t// in\n    tag_187:\n        /* \"#utility.yul\":10072:10073   */\n      0x00\n        /* \"#utility.yul\":10096:10100   */\n      0x20\n        /* \"#utility.yul\":10083:10100   */\n      swap1\n      pop\n        /* \"#utility.yul\":10128:10130   */\n      0x1f\n        /* \"#utility.yul\":10120:10126   */\n      dup4\n        /* \"#utility.yul\":10117:10131   */\n      gt\n        /* \"#utility.yul\":10145:10146   */\n      0x01\n        /* \"#utility.yul\":10140:10758   */\n      dup2\n      eq\n      tag_189\n      jumpi\n        /* \"#utility.yul\":10802:10803   */\n      0x00\n        /* \"#utility.yul\":10819:10825   */\n      dup5\n        /* \"#utility.yul\":10816:10893   */\n      iszero\n      tag_190\n      jumpi\n        /* \"#utility.yul\":10868:10877   */\n      dup3\n        /* \"#utility.yul\":10863:10866   */\n      dup8\n        /* \"#utility.yul\":10859:10878   */\n      add\n        /* \"#utility.yul\":10853:10879   */\n      mload\n        /* \"#utility.yul\":10844:10879   */\n      swap1\n      pop\n        /* \"#utility.yul\":10816:10893   */\n    tag_190:\n        /* \"#utility.yul\":10919:10986   */\n      tag_191\n        /* \"#utility.yul\":10979:10985   */\n      dup6\n        /* \"#utility.yul\":10972:10977   */\n      dup3\n        /* \"#utility.yul\":10919:10986   */\n      tag_68\n      jump\t// in\n    tag_191:\n        /* \"#utility.yul\":10913:10917   */\n      dup7\n        /* \"#utility.yul\":10906:10987   */\n      sstore\n        /* \"#utility.yul\":10775:10997   */\n      pop\n        /* \"#utility.yul\":10110:10997   */\n      jump(tag_188)\n        /* \"#utility.yul\":10140:10758   */\n    tag_189:\n        /* \"#utility.yul\":10192:10196   */\n      0x1f\n        /* \"#utility.yul\":10188:10197   */\n      not\n        /* \"#utility.yul\":10180:10186   */\n      dup5\n        /* \"#utility.yul\":10176:10198   */\n      and\n        /* \"#utility.yul\":10226:10263   */\n      tag_192\n        /* \"#utility.yul\":10258:10262   */\n      dup7\n        /* \"#utility.yul\":10226:10263   */\n      tag_54\n      jump\t// in\n    tag_192:\n        /* \"#utility.yul\":10285:10286   */\n      0x00\n        /* \"#utility.yul\":10299:10507   */\n    tag_193:\n        /* \"#utility.yul\":10313:10320   */\n      dup3\n        /* \"#utility.yul\":10310:10311   */\n      dup2\n        /* \"#utility.yul\":10307:10321   */\n      lt\n        /* \"#utility.yul\":10299:10507   */\n      iszero\n      tag_195\n      jumpi\n        /* \"#utility.yul\":10392:10401   */\n      dup5\n        /* \"#utility.yul\":10387:10390   */\n      dup10\n        /* \"#utility.yul\":10383:10402   */\n      add\n        /* \"#utility.yul\":10377:10403   */\n      mload\n        /* \"#utility.yul\":10369:10375   */\n      dup3\n        /* \"#utility.yul\":10362:10404   */\n      sstore\n        /* \"#utility.yul\":10443:10444   */\n      0x01\n        /* \"#utility.yul\":10435:10441   */\n      dup3\n        /* \"#utility.yul\":10431:10445   */\n      add\n        /* \"#utility.yul\":10421:10445   */\n      swap2\n      pop\n        /* \"#utility.yul\":10490:10492   */\n      0x20\n        /* \"#utility.yul\":10479:10488   */\n      dup6\n        /* \"#utility.yul\":10475:10493   */\n      add\n        /* \"#utility.yul\":10462:10493   */\n      swap5\n      pop\n        /* \"#utility.yul\":10336:10340   */\n      0x20\n        /* \"#utility.yul\":10333:10334   */\n      dup2\n        /* \"#utility.yul\":10329:10341   */\n      add\n        /* \"#utility.yul\":10324:10341   */\n      swap1\n      pop\n        /* \"#utility.yul\":10299:10507   */\n      jump(tag_193)\n    tag_195:\n        /* \"#utility.yul\":10535:10541   */\n      dup7\n        /* \"#utility.yul\":10526:10533   */\n      dup4\n        /* \"#utility.yul\":10523:10542   */\n      lt\n        /* \"#utility.yul\":10520:10699   */\n      iszero\n      tag_196\n      jumpi\n        /* \"#utility.yul\":10593:10602   */\n      dup5\n        /* \"#utility.yul\":10588:10591   */\n      dup10\n        /* \"#utility.yul\":10584:10603   */\n      add\n        /* \"#utility.yul\":10578:10604   */\n      mload\n        /* \"#utility.yul\":10636:10684   */\n      tag_197\n        /* \"#utility.yul\":10678:10682   */\n      0x1f\n        /* \"#utility.yul\":10670:10676   */\n      dup10\n        /* \"#utility.yul\":10666:10683   */\n      and\n        /* \"#utility.yul\":10655:10664   */\n      dup3\n        /* \"#utility.yul\":10636:10684   */\n      tag_67\n      jump\t// in\n    tag_197:\n        /* \"#utility.yul\":10628:10634   */\n      dup4\n        /* \"#utility.yul\":10621:10685   */\n      sstore\n        /* \"#utility.yul\":10543:10699   */\n      pop\n        /* \"#utility.yul\":10520:10699   */\n    tag_196:\n        /* \"#utility.yul\":10745:10746   */\n      0x01\n        /* \"#utility.yul\":10741:10742   */\n      0x02\n        /* \"#utility.yul\":10733:10739   */\n      dup9\n        /* \"#utility.yul\":10729:10743   */\n      mul\n        /* \"#utility.yul\":10725:10747   */\n      add\n        /* \"#utility.yul\":10719:10723   */\n      dup9\n        /* \"#utility.yul\":10712:10748   */\n      sstore\n        /* \"#utility.yul\":10147:10758   */\n      pop\n      pop\n      pop\n        /* \"#utility.yul\":10110:10997   */\n    tag_188:\n      pop\n        /* \"#utility.yul\":9700:11003   */\n      pop\n      pop\n      pop\n        /* \"#utility.yul\":9608:11003   */\n      pop\n      pop\n      jump\t// out\n\n    auxdata: 0xa2646970667358221220c81cdba54b04e1caf2f923bf3e5281fd843a067b10decb5c1e66c2470b7c9fc164736f6c634300081a0033\n}\n",
				"bytecode": {
					"linkReferences": {},
					"object": "6080604052348015600e575f80fd5b5061089d8061001c5f395ff3fe608060405234801561000f575f80fd5b5060043610610034575f3560e01c80637acc0b2014610038578063b15247d91461006c575b5f80fd5b610052600480360381019061004d91906102bd565b610088565b6040516100639594939291906103c0565b60405180910390f35b61008660048036038101906100819190610544565b61017a565b005b5f8181548110610096575f80fd5b905f5260205f2090600402015f91509050805f0154908060010180546100bb906105cb565b80601f01602080910402602001604051908101604052809291908181526020018280546100e7906105cb565b80156101325780601f1061010957610100808354040283529160200191610132565b820191905f5260205f20905b81548152906001019060200180831161011557829003601f168201915b505050505090806002015490806003015f9054906101000a900473ffffffffffffffffffffffffffffffffffffffff16908060030160149054906101000a900460ff16905085565b5f6040518060a001604052805f8054905081526020018481526020018381526020013373ffffffffffffffffffffffffffffffffffffffff16815260200160011515815250908060018154018082558091505060019003905f5260205f2090600402015f909190919091505f820151815f015560208201518160010190816102029190610798565b50604082015181600201556060820151816003015f6101000a81548173ffffffffffffffffffffffffffffffffffffffff021916908373ffffffffffffffffffffffffffffffffffffffff16021790555060808201518160030160146101000a81548160ff02191690831515021790555050505050565b5f604051905090565b5f80fd5b5f80fd5b5f819050919050565b61029c8161028a565b81146102a6575f80fd5b50565b5f813590506102b781610293565b92915050565b5f602082840312156102d2576102d1610282565b5b5f6102df848285016102a9565b91505092915050565b6102f18161028a565b82525050565b5f81519050919050565b5f82825260208201905092915050565b8281835e5f83830152505050565b5f601f19601f8301169050919050565b5f610339826102f7565b6103438185610301565b9350610353818560208601610311565b61035c8161031f565b840191505092915050565b5f73ffffffffffffffffffffffffffffffffffffffff82169050919050565b5f61039082610367565b9050919050565b6103a081610386565b82525050565b5f8115159050919050565b6103ba816103a6565b82525050565b5f60a0820190506103d35f8301886102e8565b81810360208301526103e5818761032f565b90506103f460408301866102e8565b6104016060830185610397565b61040e60808301846103b1565b9695505050505050565b5f80fd5b5f80fd5b7f4e487b71000000000000000000000000000000000000000000000000000000005f52604160045260245ffd5b6104568261031f565b810181811067ffffffffffffffff8211171561047557610474610420565b5b80604052505050565b5f610487610279565b9050610493828261044d565b919050565b5f67ffffffffffffffff8211156104b2576104b1610420565b5b6104bb8261031f565b9050602081019050919050565b828183375f83830152505050565b5f6104e86104e384610498565b61047e565b9050828152602081018484840111156105045761050361041c565b5b61050f8482856104c8565b509392505050565b5f82601f83011261052b5761052a610418565b5b813561053b8482602086016104d6565b91505092915050565b5f806040838503121561055a57610559610282565b5b5f83013567ffffffffffffffff81111561057757610576610286565b5b61058385828601610517565b9250506020610594858286016102a9565b9150509250929050565b7f4e487b71000000000000000000000000000000000000000000000000000000005f52602260045260245ffd5b5f60028204905060018216806105e257607f821691505b6020821081036105f5576105f461059e565b5b50919050565b5f819050815f5260205f209050919050565b5f6020601f8301049050919050565b5f82821b905092915050565b5f600883026106577fffffffffffffffffffffffffffffffffffffffffffffffffffffffffffffffff8261061c565b610661868361061c565b95508019841693508086168417925050509392505050565b5f819050919050565b5f61069c6106976106928461028a565b610679565b61028a565b9050919050565b5f819050919050565b6106b583610682565b6106c96106c1826106a3565b848454610628565b825550505050565b5f90565b6106dd6106d1565b6106e88184846106ac565b505050565b5b8181101561070b576107005f826106d5565b6001810190506106ee565b5050565b601f82111561075057610721816105fb565b61072a8461060d565b81016020851015610739578190505b61074d6107458561060d565b8301826106ed565b50505b505050565b5f82821c905092915050565b5f6107705f1984600802610755565b1980831691505092915050565b5f6107888383610761565b9150826002028217905092915050565b6107a1826102f7565b67ffffffffffffffff8111156107ba576107b9610420565b5b6107c482546105cb565b6107cf82828561070f565b5f60209050601f831160018114610800575f84156107ee578287015190505b6107f8858261077d565b86555061085f565b601f19841661080e866105fb565b5f5b8281101561083557848901518255600182019150602085019450602081019050610810565b86831015610852578489015161084e601f891682610761565b8355505b6001600288020188555050505b50505050505056fea2646970667358221220c81cdba54b04e1caf2f923bf3e5281fd843a067b10decb5c1e66c2470b7c9fc164736f6c634300081a0033",
					"opcodes": "PUSH1 0x80 PUSH1 0x40 MSTORE CALLVALUE DUP1 ISZERO PUSH1 0xE JUMPI PUSH0 DUP1 REVERT JUMPDEST POP PUSH2 0x89D DUP1 PUSH2 0x1C PUSH0 CODECOPY PUSH0 RETURN INVALID PUSH1 0x80 PUSH1 0x40 MSTORE CALLVALUE DUP1 ISZERO PUSH2 0xF JUMPI PUSH0 DUP1 REVERT JUMPDEST POP PUSH1 0x4 CALLDATASIZE LT PUSH2 0x34 JUMPI PUSH0 CALLDATALOAD PUSH1 0xE0 SHR DUP1 PUSH4 0x7ACC0B20 EQ PUSH2 0x38 JUMPI DUP1 PUSH4 0xB15247D9 EQ PUSH2 0x6C JUMPI JUMPDEST PUSH0 DUP1 REVERT JUMPDEST PUSH2 0x52 PUSH1 0x4 DUP1 CALLDATASIZE SUB DUP2 ADD SWAP1 PUSH2 0x4D SWAP2 SWAP1 PUSH2 0x2BD JUMP JUMPDEST PUSH2 0x88 JUMP JUMPDEST PUSH1 0x40 MLOAD PUSH2 0x63 SWAP6 SWAP5 SWAP4 SWAP3 SWAP2 SWAP1 PUSH2 0x3C0 JUMP JUMPDEST PUSH1 0x40 MLOAD DUP1 SWAP2 SUB SWAP1 RETURN JUMPDEST PUSH2 0x86 PUSH1 0x4 DUP1 CALLDATASIZE SUB DUP2 ADD SWAP1 PUSH2 0x81 SWAP2 SWAP1 PUSH2 0x544 JUMP JUMPDEST PUSH2 0x17A JUMP JUMPDEST STOP JUMPDEST PUSH0 DUP2 DUP2 SLOAD DUP2 LT PUSH2 0x96 JUMPI PUSH0 DUP1 REVERT JUMPDEST SWAP1 PUSH0 MSTORE PUSH1 0x20 PUSH0 KECCAK256 SWAP1 PUSH1 0x4 MUL ADD PUSH0 SWAP2 POP SWAP1 POP DUP1 PUSH0 ADD SLOAD SWAP1 DUP1 PUSH1 0x1 ADD DUP1 SLOAD PUSH2 0xBB SWAP1 PUSH2 0x5CB JUMP JUMPDEST DUP1 PUSH1 0x1F ADD PUSH1 0x20 DUP1 SWAP2 DIV MUL PUSH1 0x20 ADD PUSH1 0x40 MLOAD SWAP1 DUP2 ADD PUSH1 0x40 MSTORE DUP1 SWAP3 SWAP2 SWAP1 DUP2 DUP2 MSTORE PUSH1 0x20 ADD DUP3 DUP1 SLOAD PUSH2 0xE7 SWAP1 PUSH2 0x5CB JUMP JUMPDEST DUP1 ISZERO PUSH2 0x132 JUMPI DUP1 PUSH1 0x1F LT PUSH2 0x109 JUMPI PUSH2 0x100 DUP1 DUP4 SLOAD DIV MUL DUP4 MSTORE SWAP2 PUSH1 0x20 ADD SWAP2 PUSH2 0x132 JUMP JUMPDEST DUP3 ADD SWAP2 SWAP1 PUSH0 MSTORE PUSH1 0x20 PUSH0 KECCAK256 SWAP1 JUMPDEST DUP2 SLOAD DUP2 MSTORE SWAP1 PUSH1 0x1 ADD SWAP1 PUSH1 0x20 ADD DUP1 DUP4 GT PUSH2 0x115 JUMPI DUP3 SWAP1 SUB PUSH1 0x1F AND DUP3 ADD SWAP2 JUMPDEST POP POP POP POP POP SWAP1 DUP1 PUSH1 0x2 ADD SLOAD SWAP1 DUP1 PUSH1 0x3 ADD PUSH0 SWAP1 SLOAD SWAP1 PUSH2 0x100 EXP SWAP1 DIV PUSH20 0xFFFFFFFFFFFFFFFFFFFFFFFFFFFFFFFFFFFFFFFF AND SWAP1 DUP1 PUSH1 0x3 ADD PUSH1 0x14 SWAP1 SLOAD SWAP1 PUSH2 0x100 EXP SWAP1 DIV PUSH1 0xFF AND SWAP1 POP DUP6 JUMP JUMPDEST PUSH0 PUSH1 0x40 MLOAD DUP1 PUSH1 0xA0 ADD PUSH1 0x40 MSTORE DUP1 PUSH0 DUP1 SLOAD SWAP1 POP DUP2 MSTORE PUSH1 0x20 ADD DUP5 DUP2 MSTORE PUSH1 0x20 ADD DUP4 DUP2 MSTORE PUSH1 0x20 ADD CALLER PUSH20 0xFFFFFFFFFFFFFFFFFFFFFFFFFFFFFFFFFFFFFFFF AND DUP2 MSTORE PUSH1 0x20 ADD PUSH1 0x1 ISZERO ISZERO DUP2 MSTORE POP SWAP1 DUP1 PUSH1 0x1 DUP2 SLOAD ADD DUP1 DUP3 SSTORE DUP1 SWAP2 POP POP PUSH1 0x1 SWAP1 SUB SWAP1 PUSH0 MSTORE PUSH1 0x20 PUSH0 KECCAK256 SWAP1 PUSH1 0x4 MUL ADD PUSH0 SWAP1 SWAP2 SWAP1 SWAP2 SWAP1 SWAP2 POP PUSH0 DUP3 ADD MLOAD DUP2 PUSH0 ADD SSTORE PUSH1 0x20 DUP3 ADD MLOAD DUP2 PUSH1 0x1 ADD SWAP1 DUP2 PUSH2 0x202 SWAP2 SWAP1 PUSH2 0x798 JUMP JUMPDEST POP PUSH1 0x40 DUP3 ADD MLOAD DUP2 PUSH1 0x2 ADD SSTORE PUSH1 0x60 DUP3 ADD MLOAD DUP2 PUSH1 0x3 ADD PUSH0 PUSH2 0x100 EXP DUP2 SLOAD DUP2 PUSH20 0xFFFFFFFFFFFFFFFFFFFFFFFFFFFFFFFFFFFFFFFF MUL NOT AND SWAP1 DUP4 PUSH20 0xFFFFFFFFFFFFFFFFFFFFFFFFFFFFFFFFFFFFFFFF AND MUL OR SWAP1 SSTORE POP PUSH1 0x80 DUP3 ADD MLOAD DUP2 PUSH1 0x3 ADD PUSH1 0x14 PUSH2 0x100 EXP DUP2 SLOAD DUP2 PUSH1 0xFF MUL NOT AND SWAP1 DUP4 ISZERO ISZERO MUL OR SWAP1 SSTORE POP POP POP POP POP JUMP JUMPDEST PUSH0 PUSH1 0x40 MLOAD SWAP1 POP SWAP1 JUMP JUMPDEST PUSH0 DUP1 REVERT JUMPDEST PUSH0 DUP1 REVERT JUMPDEST PUSH0 DUP2 SWAP1 POP SWAP2 SWAP1 POP JUMP JUMPDEST PUSH2 0x29C DUP2 PUSH2 0x28A JUMP JUMPDEST DUP2 EQ PUSH2 0x2A6 JUMPI PUSH0 DUP1 REVERT JUMPDEST POP JUMP JUMPDEST PUSH0 DUP2 CALLDATALOAD SWAP1 POP PUSH2 0x2B7 DUP2 PUSH2 0x293 JUMP JUMPDEST SWAP3 SWAP2 POP POP JUMP JUMPDEST PUSH0 PUSH1 0x20 DUP3 DUP5 SUB SLT ISZERO PUSH2 0x2D2 JUMPI PUSH2 0x2D1 PUSH2 0x282 JUMP JUMPDEST JUMPDEST PUSH0 PUSH2 0x2DF DUP5 DUP3 DUP6 ADD PUSH2 0x2A9 JUMP JUMPDEST SWAP2 POP POP SWAP3 SWAP2 POP POP JUMP JUMPDEST PUSH2 0x2F1 DUP2 PUSH2 0x28A JUMP JUMPDEST DUP3 MSTORE POP POP JUMP JUMPDEST PUSH0 DUP2 MLOAD SWAP1 POP SWAP2 SWAP1 POP JUMP JUMPDEST PUSH0 DUP3 DUP3 MSTORE PUSH1 0x20 DUP3 ADD SWAP1 POP SWAP3 SWAP2 POP POP JUMP JUMPDEST DUP3 DUP2 DUP4 MCOPY PUSH0 DUP4 DUP4 ADD MSTORE POP POP POP JUMP JUMPDEST PUSH0 PUSH1 0x1F NOT PUSH1 0x1F DUP4 ADD AND SWAP1 POP SWAP2 SWAP1 POP JUMP JUMPDEST PUSH0 PUSH2 0x339 DUP3 PUSH2 0x2F7 JUMP JUMPDEST PUSH2 0x343 DUP2 DUP6 PUSH2 0x301 JUMP JUMPDEST SWAP4 POP PUSH2 0x353 DUP2 DUP6 PUSH1 0x20 DUP7 ADD PUSH2 0x311 JUMP JUMPDEST PUSH2 0x35C DUP2 PUSH2 0x31F JUMP JUMPDEST DUP5 ADD SWAP2 POP POP SWAP3 SWAP2 POP POP JUMP JUMPDEST PUSH0 PUSH20 0xFFFFFFFFFFFFFFFFFFFFFFFFFFFFFFFFFFFFFFFF DUP3 AND SWAP1 POP SWAP2 SWAP1 POP JUMP JUMPDEST PUSH0 PUSH2 0x390 DUP3 PUSH2 0x367 JUMP JUMPDEST SWAP1 POP SWAP2 SWAP1 POP JUMP JUMPDEST PUSH2 0x3A0 DUP2 PUSH2 0x386 JUMP JUMPDEST DUP3 MSTORE POP POP JUMP JUMPDEST PUSH0 DUP2 ISZERO ISZERO SWAP1 POP SWAP2 SWAP1 POP JUMP JUMPDEST PUSH2 0x3BA DUP2 PUSH2 0x3A6 JUMP JUMPDEST DUP3 MSTORE POP POP JUMP JUMPDEST PUSH0 PUSH1 0xA0 DUP3 ADD SWAP1 POP PUSH2 0x3D3 PUSH0 DUP4 ADD DUP9 PUSH2 0x2E8 JUMP JUMPDEST DUP2 DUP2 SUB PUSH1 0x20 DUP4 ADD MSTORE PUSH2 0x3E5 DUP2 DUP8 PUSH2 0x32F JUMP JUMPDEST SWAP1 POP PUSH2 0x3F4 PUSH1 0x40 DUP4 ADD DUP7 PUSH2 0x2E8 JUMP JUMPDEST PUSH2 0x401 PUSH1 0x60 DUP4 ADD DUP6 PUSH2 0x397 JUMP JUMPDEST PUSH2 0x40E PUSH1 0x80 DUP4 ADD DUP5 PUSH2 0x3B1 JUMP JUMPDEST SWAP7 SWAP6 POP POP POP POP POP POP JUMP JUMPDEST PUSH0 DUP1 REVERT JUMPDEST PUSH0 DUP1 REVERT JUMPDEST PUSH32 0x4E487B7100000000000000000000000000000000000000000000000000000000 PUSH0 MSTORE PUSH1 0x41 PUSH1 0x4 MSTORE PUSH1 0x24 PUSH0 REVERT JUMPDEST PUSH2 0x456 DUP3 PUSH2 0x31F JUMP JUMPDEST DUP2 ADD DUP2 DUP2 LT PUSH8 0xFFFFFFFFFFFFFFFF DUP3 GT OR ISZERO PUSH2 0x475 JUMPI PUSH2 0x474 PUSH2 0x420 JUMP JUMPDEST JUMPDEST DUP1 PUSH1 0x40 MSTORE POP POP POP JUMP JUMPDEST PUSH0 PUSH2 0x487 PUSH2 0x279 JUMP JUMPDEST SWAP1 POP PUSH2 0x493 DUP3 DUP3 PUSH2 0x44D JUMP JUMPDEST SWAP2 SWAP1 POP JUMP JUMPDEST PUSH0 PUSH8 0xFFFFFFFFFFFFFFFF DUP3 GT ISZERO PUSH2 0x4B2 JUMPI PUSH2 0x4B1 PUSH2 0x420 JUMP JUMPDEST JUMPDEST PUSH2 0x4BB DUP3 PUSH2 0x31F JUMP JUMPDEST SWAP1 POP PUSH1 0x20 DUP2 ADD SWAP1 POP SWAP2 SWAP1 POP JUMP JUMPDEST DUP3 DUP2 DUP4 CALLDATACOPY PUSH0 DUP4 DUP4 ADD MSTORE POP POP POP JUMP JUMPDEST PUSH0 PUSH2 0x4E8 PUSH2 0x4E3 DUP5 PUSH2 0x498 JUMP JUMPDEST PUSH2 0x47E JUMP JUMPDEST SWAP1 POP DUP3 DUP2 MSTORE PUSH1 0x20 DUP2 ADD DUP5 DUP5 DUP5 ADD GT ISZERO PUSH2 0x504 JUMPI PUSH2 0x503 PUSH2 0x41C JUMP JUMPDEST JUMPDEST PUSH2 0x50F DUP5 DUP3 DUP6 PUSH2 0x4C8 JUMP JUMPDEST POP SWAP4 SWAP3 POP POP POP JUMP JUMPDEST PUSH0 DUP3 PUSH1 0x1F DUP4 ADD SLT PUSH2 0x52B JUMPI PUSH2 0x52A PUSH2 0x418 JUMP JUMPDEST JUMPDEST DUP2 CALLDATALOAD PUSH2 0x53B DUP5 DUP3 PUSH1 0x20 DUP7 ADD PUSH2 0x4D6 JUMP JUMPDEST SWAP2 POP POP SWAP3 SWAP2 POP POP JUMP JUMPDEST PUSH0 DUP1 PUSH1 0x40 DUP4 DUP6 SUB SLT ISZERO PUSH2 0x55A JUMPI PUSH2 0x559 PUSH2 0x282 JUMP JUMPDEST JUMPDEST PUSH0 DUP4 ADD CALLDATALOAD PUSH8 0xFFFFFFFFFFFFFFFF DUP2 GT ISZERO PUSH2 0x577 JUMPI PUSH2 0x576 PUSH2 0x286 JUMP JUMPDEST JUMPDEST PUSH2 0x583 DUP6 DUP3 DUP7 ADD PUSH2 0x517 JUMP JUMPDEST SWAP3 POP POP PUSH1 0x20 PUSH2 0x594 DUP6 DUP3 DUP7 ADD PUSH2 0x2A9 JUMP JUMPDEST SWAP2 POP POP SWAP3 POP SWAP3 SWAP1 POP JUMP JUMPDEST PUSH32 0x4E487B7100000000000000000000000000000000000000000000000000000000 PUSH0 MSTORE PUSH1 0x22 PUSH1 0x4 MSTORE PUSH1 0x24 PUSH0 REVERT JUMPDEST PUSH0 PUSH1 0x2 DUP3 DIV SWAP1 POP PUSH1 0x1 DUP3 AND DUP1 PUSH2 0x5E2 JUMPI PUSH1 0x7F DUP3 AND SWAP2 POP JUMPDEST PUSH1 0x20 DUP3 LT DUP2 SUB PUSH2 0x5F5 JUMPI PUSH2 0x5F4 PUSH2 0x59E JUMP JUMPDEST JUMPDEST POP SWAP2 SWAP1 POP JUMP JUMPDEST PUSH0 DUP2 SWAP1 POP DUP2 PUSH0 MSTORE PUSH1 0x20 PUSH0 KECCAK256 SWAP1 POP SWAP2 SWAP1 POP JUMP JUMPDEST PUSH0 PUSH1 0x20 PUSH1 0x1F DUP4 ADD DIV SWAP1 POP SWAP2 SWAP1 POP JUMP JUMPDEST PUSH0 DUP3 DUP3 SHL SWAP1 POP SWAP3 SWAP2 POP POP JUMP JUMPDEST PUSH0 PUSH1 0x8 DUP4 MUL PUSH2 0x657 PUSH32 0xFFFFFFFFFFFFFFFFFFFFFFFFFFFFFFFFFFFFFFFFFFFFFFFFFFFFFFFFFFFFFFFF DUP3 PUSH2 0x61C JUMP JUMPDEST PUSH2 0x661 DUP7 DUP4 PUSH2 0x61C JUMP JUMPDEST SWAP6 POP DUP1 NOT DUP5 AND SWAP4 POP DUP1 DUP7 AND DUP5 OR SWAP3 POP POP POP SWAP4 SWAP3 POP POP POP JUMP JUMPDEST PUSH0 DUP2 SWAP1 POP SWAP2 SWAP1 POP JUMP JUMPDEST PUSH0 PUSH2 0x69C PUSH2 0x697 PUSH2 0x692 DUP5 PUSH2 0x28A JUMP JUMPDEST PUSH2 0x679 JUMP JUMPDEST PUSH2 0x28A JUMP JUMPDEST SWAP1 POP SWAP2 SWAP1 POP JUMP JUMPDEST PUSH0 DUP2 SWAP1 POP SWAP2 SWAP1 POP JUMP JUMPDEST PUSH2 0x6B5 DUP4 PUSH2 0x682 JUMP JUMPDEST PUSH2 0x6C9 PUSH2 0x6C1 DUP3 PUSH2 0x6A3 JUMP JUMPDEST DUP5 DUP5 SLOAD PUSH2 0x628 JUMP JUMPDEST DUP3 SSTORE POP POP POP POP JUMP JUMPDEST PUSH0 SWAP1 JUMP JUMPDEST PUSH2 0x6DD PUSH2 0x6D1 JUMP JUMPDEST PUSH2 0x6E8 DUP2 DUP5 DUP5 PUSH2 0x6AC JUMP JUMPDEST POP POP POP JUMP JUMPDEST JUMPDEST DUP2 DUP2 LT ISZERO PUSH2 0x70B JUMPI PUSH2 0x700 PUSH0 DUP3 PUSH2 0x6D5 JUMP JUMPDEST PUSH1 0x1 DUP2 ADD SWAP1 POP PUSH2 0x6EE JUMP JUMPDEST POP POP JUMP JUMPDEST PUSH1 0x1F DUP3 GT ISZERO PUSH2 0x750 JUMPI PUSH2 0x721 DUP2 PUSH2 0x5FB JUMP JUMPDEST PUSH2 0x72A DUP5 PUSH2 0x60D JUMP JUMPDEST DUP2 ADD PUSH1 0x20 DUP6 LT ISZERO PUSH2 0x739 JUMPI DUP2 SWAP1 POP JUMPDEST PUSH2 0x74D PUSH2 0x745 DUP6 PUSH2 0x60D JUMP JUMPDEST DUP4 ADD DUP3 PUSH2 0x6ED JUMP JUMPDEST POP POP JUMPDEST POP POP POP JUMP JUMPDEST PUSH0 DUP3 DUP3 SHR SWAP1 POP SWAP3 SWAP2 POP POP JUMP JUMPDEST PUSH0 PUSH2 0x770 PUSH0 NOT DUP5 PUSH1 0x8 MUL PUSH2 0x755 JUMP JUMPDEST NOT DUP1 DUP4 AND SWAP2 POP POP SWAP3 SWAP2 POP POP JUMP JUMPDEST PUSH0 PUSH2 0x788 DUP4 DUP4 PUSH2 0x761 JUMP JUMPDEST SWAP2 POP DUP3 PUSH1 0x2 MUL DUP3 OR SWAP1 POP SWAP3 SWAP2 POP POP JUMP JUMPDEST PUSH2 0x7A1 DUP3 PUSH2 0x2F7 JUMP JUMPDEST PUSH8 0xFFFFFFFFFFFFFFFF DUP2 GT ISZERO PUSH2 0x7BA JUMPI PUSH2 0x7B9 PUSH2 0x420 JUMP JUMPDEST JUMPDEST PUSH2 0x7C4 DUP3 SLOAD PUSH2 0x5CB JUMP JUMPDEST PUSH2 0x7CF DUP3 DUP3 DUP6 PUSH2 0x70F JUMP JUMPDEST PUSH0 PUSH1 0x20 SWAP1 POP PUSH1 0x1F DUP4 GT PUSH1 0x1 DUP2 EQ PUSH2 0x800 JUMPI PUSH0 DUP5 ISZERO PUSH2 0x7EE JUMPI DUP3 DUP8 ADD MLOAD SWAP1 POP JUMPDEST PUSH2 0x7F8 DUP6 DUP3 PUSH2 0x77D JUMP JUMPDEST DUP7 SSTORE POP PUSH2 0x85F JUMP JUMPDEST PUSH1 0x1F NOT DUP5 AND PUSH2 0x80E DUP7 PUSH2 0x5FB JUMP JUMPDEST PUSH0 JUMPDEST DUP3 DUP2 LT ISZERO PUSH2 0x835 JUMPI DUP5 DUP10 ADD MLOAD DUP3 SSTORE PUSH1 0x1 DUP3 ADD SWAP2 POP PUSH1 0x20 DUP6 ADD SWAP5 POP PUSH1 0x20 DUP2 ADD SWAP1 POP PUSH2 0x810 JUMP JUMPDEST DUP7 DUP4 LT ISZERO PUSH2 0x852 JUMPI DUP5 DUP10 ADD MLOAD PUSH2 0x84E PUSH1 0x1F DUP10 AND DUP3 PUSH2 0x761 JUMP JUMPDEST DUP4 SSTORE POP JUMPDEST PUSH1 0x1 PUSH1 0x2 DUP9 MUL ADD DUP9 SSTORE POP POP POP JUMPDEST POP POP POP POP POP POP JUMP INVALID LOG2 PUSH5 0x6970667358 0x22 SLT KECCAK256 0xC8 SHR 0xDB 0xA5 0x4B DIV 0xE1 0xCA CALLCODE 0xF9 0x23 0xBF RETURNDATACOPY MSTORE DUP2 REVERT DUP5 GASPRICE MOD PUSH28 0x10DECB5C1E66C2470B7C9FC164736F6C634300081A00330000000000 "
				},
				"gasEstimates": {
					"creation": {
						"codeDepositCost": "441000",
						"executionCost": "472",
						"totalCost": "441472"
					},
					"external": {
						"addProduct(string,uint256)": "infinite",
						"products(uint256)": "infinite"
					}
				},
				"methodIdentifiers": {
					"addProduct(string,uint256)": "b15247d9",
					"products(uint256)": "7acc0b20"
				}
			},
			"storageLayout": {
				"storage": [
					{
						"astId": 16,
						"contract": "contracts/Practice.sol:MyPractice",
						"label": "products",
						"offset": 0,
						"slot": "0",
						"type": "t_array(t_struct(Product)12_storage)dyn_storage"
					}
				],
				"types": {
					"t_address": {
						"encoding": "inplace",
						"label": "address",
						"numberOfBytes": "20"
					},
					"t_array(t_struct(Product)12_storage)dyn_storage": {
						"base": "t_struct(Product)12_storage",
						"encoding": "dynamic_array",
						"label": "struct MyPractice.Product[]",
						"numberOfBytes": "32"
					},
					"t_bool": {
						"encoding": "inplace",
						"label": "bool",
						"numberOfBytes": "1"
					},
					"t_string_storage": {
						"encoding": "bytes",
						"label": "string",
						"numberOfBytes": "32"
					},
					"t_struct(Product)12_storage": {
						"encoding": "inplace",
						"label": "struct MyPractice.Product",
						"members": [
							{
								"astId": 3,
								"contract": "contracts/Practice.sol:MyPractice",
								"label": "id",
								"offset": 0,
								"slot": "0",
								"type": "t_uint256"
							},
							{
								"astId": 5,
								"contract": "contracts/Practice.sol:MyPractice",
								"label": "name",
								"offset": 0,
								"slot": "1",
								"type": "t_string_storage"
							},
							{
								"astId": 7,
								"contract": "contracts/Practice.sol:MyPractice",
								"label": "price",
								"offset": 0,
								"slot": "2",
								"type": "t_uint256"
							},
							{
								"astId": 9,
								"contract": "contracts/Practice.sol:MyPractice",
								"label": "seller",
								"offset": 0,
								"slot": "3",
								"type": "t_address"
							},
							{
								"astId": 11,
								"contract": "contracts/Practice.sol:MyPractice",
								"label": "inStock",
								"offset": 20,
								"slot": "3",
								"type": "t_bool"
							}
						],
						"numberOfBytes": "128"
					},
					"t_uint256": {
						"encoding": "inplace",
						"label": "uint256",
						"numberOfBytes": "32"
					}
				}
			},
			"userdoc": {
				"kind": "user",
				"methods": {},
				"version": 1
			}
		}
	}
}