{
	"contracts/charity.sol": {
		"CharityDonation": {
			"abi": [
				{
					"inputs": [],
					"stateMutability": "nonpayable",
					"type": "constructor"
				},
				{
					"anonymous": false,
					"inputs": [
						{
							"indexed": true,
							"internalType": "uint256",
							"name": "charityId",
							"type": "uint256"
						},
						{
							"indexed": true,
							"internalType": "address",
							"name": "receiver",
							"type": "address"
						},
						{
							"indexed": false,
							"internalType": "uint256",
							"name": "maxAmount",
							"type": "uint256"
						}
					],
					"name": "CharityCreated",
					"type": "event"
				},
				{
					"anonymous": false,
					"inputs": [
						{
							"indexed": true,
							"internalType": "uint256",
							"name": "charityId",
							"type": "uint256"
						},
						{
							"indexed": true,
							"internalType": "address",
							"name": "donor",
							"type": "address"
						},
						{
							"indexed": false,
							"internalType": "uint256",
							"name": "amount",
							"type": "uint256"
						}
					],
					"name": "DonationReceived",
					"type": "event"
				},
				{
					"anonymous": false,
					"inputs": [
						{
							"indexed": true,
							"internalType": "uint256",
							"name": "charityId",
							"type": "uint256"
						},
						{
							"indexed": false,
							"internalType": "uint256",
							"name": "amount",
							"type": "uint256"
						}
					],
					"name": "FundsWithdrawn",
					"type": "event"
				},
				{
					"inputs": [],
					"name": "admin",
					"outputs": [
						{
							"internalType": "address",
							"name": "",
							"type": "address"
						}
					],
					"stateMutability": "view",
					"type": "function"
				},
				{
					"inputs": [],
					"name": "charityCount",
					"outputs": [
						{
							"internalType": "uint256",
							"name": "",
							"type": "uint256"
						}
					],
					"stateMutability": "view",
					"type": "function"
				},
				{
					"inputs": [
						{
							"internalType": "uint256",
							"name": "",
							"type": "uint256"
						},
						{
							"internalType": "uint256",
							"name": "",
							"type": "uint256"
						}
					],
					"name": "charityDonations",
					"outputs": [
						{
							"internalType": "address",
							"name": "donor",
							"type": "address"
						},
						{
							"internalType": "uint256",
							"name": "amount",
							"type": "uint256"
						},
						{
							"internalType": "uint256",
							"name": "timestamp",
							"type": "uint256"
						}
					],
					"stateMutability": "view",
					"type": "function"
				},
				{
					"inputs": [
						{
							"internalType": "uint256",
							"name": "",
							"type": "uint256"
						}
					],
					"name": "charityRequests",
					"outputs": [
						{
							"internalType": "uint256",
							"name": "id",
							"type": "uint256"
						},
						{
							"internalType": "address",
							"name": "receiver",
							"type": "address"
						},
						{
							"internalType": "uint256",
							"name": "maxAmount",
							"type": "uint256"
						},
						{
							"internalType": "uint256",
							"name": "collected",
							"type": "uint256"
						},
						{
							"internalType": "uint256",
							"name": "balance",
							"type": "uint256"
						},
						{
							"internalType": "bool",
							"name": "status",
							"type": "bool"
						}
					],
					"stateMutability": "view",
					"type": "function"
				},
				{
					"inputs": [
						{
							"internalType": "uint256",
							"name": "_charityId",
							"type": "uint256"
						},
						{
							"internalType": "address",
							"name": "_receiver",
							"type": "address"
						},
						{
							"internalType": "uint256",
							"name": "_maxAmount",
							"type": "uint256"
						}
					],
					"name": "createCharityRequest",
					"outputs": [],
					"stateMutability": "nonpayable",
					"type": "function"
				},
				{
					"inputs": [
						{
							"internalType": "uint256",
							"name": "_charityId",
							"type": "uint256"
						},
						{
							"internalType": "uint256",
							"name": "_amount",
							"type": "uint256"
						}
					],
					"name": "donate",
					"outputs": [],
					"stateMutability": "payable",
					"type": "function"
				},
				{
					"inputs": [
						{
							"internalType": "uint256",
							"name": "_charityId",
							"type": "uint256"
						}
					],
					"name": "getContractBalance",
					"outputs": [
						{
							"internalType": "uint256",
							"name": "",
							"type": "uint256"
						}
					],
					"stateMutability": "view",
					"type": "function"
				},
				{
					"inputs": [
						{
							"internalType": "uint256",
							"name": "_charityId",
							"type": "uint256"
						}
					],
					"name": "getDonations",
					"outputs": [
						{
							"components": [
								{
									"internalType": "address",
									"name": "donor",
									"type": "address"
								},
								{
									"internalType": "uint256",
									"name": "amount",
									"type": "uint256"
								},
								{
									"internalType": "uint256",
									"name": "timestamp",
									"type": "uint256"
								}
							],
							"internalType": "struct CharityDonation.Donation[]",
							"name": "",
							"type": "tuple[]"
						}
					],
					"stateMutability": "view",
					"type": "function"
				},
				{
					"inputs": [
						{
							"internalType": "uint256",
							"name": "_charityId",
							"type": "uint256"
						},
						{
							"internalType": "uint256",
							"name": "_amount",
							"type": "uint256"
						}
					],
					"name": "withdraw",
					"outputs": [],
					"stateMutability": "payable",
					"type": "function"
				}
			],
			"devdoc": {
				"kind": "dev",
				"methods": {},
				"version": 1
			},
			"evm": {
				"assembly": "    /* \"contracts/charity.sol\":61:5174  contract CharityDonation {... */\n  mstore(0x40, 0x80)\n    /* \"contracts/charity.sol\":1880:1931  constructor() {... */\n  callvalue\n  dup1\n  iszero\n  tag_1\n  jumpi\n  0x00\n  dup1\n  revert\ntag_1:\n  pop\n    /* \"contracts/charity.sol\":1913:1923  msg.sender */\n  caller\n    /* \"contracts/charity.sol\":1905:1910  admin */\n  0x00\n  dup1\n    /* \"contracts/charity.sol\":1905:1923  admin = msg.sender */\n  0x0100\n  exp\n  dup2\n  sload\n  dup2\n  0xffffffffffffffffffffffffffffffffffffffff\n  mul\n  not\n  and\n  swap1\n  dup4\n  0xffffffffffffffffffffffffffffffffffffffff\n  and\n  mul\n  or\n  swap1\n  sstore\n  pop\n    /* \"contracts/charity.sol\":61:5174  contract CharityDonation {... */\n  dataSize(sub_0)\n  dup1\n  dataOffset(sub_0)\n  0x00\n  codecopy\n  0x00\n  return\nstop\n\nsub_0: assembly {\n        /* \"contracts/charity.sol\":61:5174  contract CharityDonation {... */\n      mstore(0x40, 0x80)\n      jumpi(tag_1, lt(calldatasize, 0x04))\n      shr(0xe0, calldataload(0x00))\n      dup1\n      0x5cbbb574\n      gt\n      tag_11\n      jumpi\n      dup1\n      0x5cbbb574\n      eq\n      tag_6\n      jumpi\n      dup1\n      0x5effffa9\n      eq\n      tag_7\n      jumpi\n      dup1\n      0x91329493\n      eq\n      tag_8\n      jumpi\n      dup1\n      0xf851a440\n      eq\n      tag_9\n      jumpi\n      dup1\n      0xffded55d\n      eq\n      tag_10\n      jumpi\n      jump(tag_1)\n    tag_11:\n      dup1\n      0x05d63070\n      eq\n      tag_2\n      jumpi\n      dup1\n      0x0cdd53f6\n      eq\n      tag_3\n      jumpi\n      dup1\n      0x441a3e70\n      eq\n      tag_4\n      jumpi\n      dup1\n      0x596d9ce2\n      eq\n      tag_5\n      jumpi\n    tag_1:\n      0x00\n      dup1\n      revert\n        /* \"contracts/charity.sol\":4580:4847  function getContractBalance(uint256 _charityId) public view onlyAdminOrReceiver(_charityId) returns (uint256) {... */\n    tag_2:\n      callvalue\n      dup1\n      iszero\n      tag_12\n      jumpi\n      0x00\n      dup1\n      revert\n    tag_12:\n      pop\n      tag_13\n      0x04\n      dup1\n      calldatasize\n      sub\n      dup2\n      add\n      swap1\n      tag_14\n      swap2\n      swap1\n      tag_15\n      jump\t// in\n    tag_14:\n      tag_16\n      jump\t// in\n    tag_13:\n      mload(0x40)\n      tag_17\n      swap2\n      swap1\n      tag_18\n      jump\t// in\n    tag_17:\n      mload(0x40)\n      dup1\n      swap2\n      sub\n      swap1\n      return\n        /* \"contracts/charity.sol\":2959:3731  function donate(uint256 _charityId, uint256 _amount) public payable {... */\n    tag_3:\n      tag_19\n      0x04\n      dup1\n      calldatasize\n      sub\n      dup2\n      add\n      swap1\n      tag_20\n      swap2\n      swap1\n      tag_21\n      jump\t// in\n    tag_20:\n      tag_22\n      jump\t// in\n    tag_19:\n      stop\n        /* \"contracts/charity.sol\":3839:4475  function withdraw(uint256 _charityId, uint256 _amount) public onlyReceiver(_charityId) payable {... */\n    tag_4:\n      tag_23\n      0x04\n      dup1\n      calldatasize\n      sub\n      dup2\n      add\n      swap1\n      tag_24\n      swap2\n      swap1\n      tag_21\n      jump\t// in\n    tag_24:\n      tag_25\n      jump\t// in\n    tag_23:\n      stop\n        /* \"contracts/charity.sol\":4929:5171  function getDonations(uint256 _charityId) public view onlyAdmin returns (Donation[] memory) {... */\n    tag_5:\n      callvalue\n      dup1\n      iszero\n      tag_26\n      jumpi\n      0x00\n      dup1\n      revert\n    tag_26:\n      pop\n      tag_27\n      0x04\n      dup1\n      calldatasize\n      sub\n      dup2\n      add\n      swap1\n      tag_28\n      swap2\n      swap1\n      tag_15\n      jump\t// in\n    tag_28:\n      tag_29\n      jump\t// in\n    tag_27:\n      mload(0x40)\n      tag_30\n      swap2\n      swap1\n      tag_31\n      jump\t// in\n    tag_30:\n      mload(0x40)\n      dup1\n      swap2\n      sub\n      swap1\n      return\n        /* \"contracts/charity.sol\":705:759  mapping(uint256 => Donation[]) public charityDonations */\n    tag_6:\n      callvalue\n      dup1\n      iszero\n      tag_32\n      jumpi\n      0x00\n      dup1\n      revert\n    tag_32:\n      pop\n      tag_33\n      0x04\n      dup1\n      calldatasize\n      sub\n      dup2\n      add\n      swap1\n      tag_34\n      swap2\n      swap1\n      tag_21\n      jump\t// in\n    tag_34:\n      tag_35\n      jump\t// in\n    tag_33:\n      mload(0x40)\n      tag_36\n      swap4\n      swap3\n      swap2\n      swap1\n      tag_37\n      jump\t// in\n    tag_36:\n      mload(0x40)\n      dup1\n      swap2\n      sub\n      swap1\n      return\n        /* \"contracts/charity.sol\":611:661  mapping(uint256 => Charity) public charityRequests */\n    tag_7:\n      callvalue\n      dup1\n      iszero\n      tag_38\n      jumpi\n      0x00\n      dup1\n      revert\n    tag_38:\n      pop\n      tag_39\n      0x04\n      dup1\n      calldatasize\n      sub\n      dup2\n      add\n      swap1\n      tag_40\n      swap2\n      swap1\n      tag_15\n      jump\t// in\n    tag_40:\n      tag_41\n      jump\t// in\n    tag_39:\n      mload(0x40)\n      tag_42\n      swap7\n      swap6\n      swap5\n      swap4\n      swap3\n      swap2\n      swap1\n      tag_43\n      jump\t// in\n    tag_42:\n      mload(0x40)\n      dup1\n      swap2\n      sub\n      swap1\n      return\n        /* \"contracts/charity.sol\":800:827  uint256 public charityCount */\n    tag_8:\n      callvalue\n      dup1\n      iszero\n      tag_44\n      jumpi\n      0x00\n      dup1\n      revert\n    tag_44:\n      pop\n      tag_45\n      tag_46\n      jump\t// in\n    tag_45:\n      mload(0x40)\n      tag_47\n      swap2\n      swap1\n      tag_18\n      jump\t// in\n    tag_47:\n      mload(0x40)\n      dup1\n      swap2\n      sub\n      swap1\n      return\n        /* \"contracts/charity.sol\":93:113  address public admin */\n    tag_9:\n      callvalue\n      dup1\n      iszero\n      tag_48\n      jumpi\n      0x00\n      dup1\n      revert\n    tag_48:\n      pop\n      tag_49\n      tag_50\n      jump\t// in\n    tag_49:\n      mload(0x40)\n      tag_51\n      swap2\n      swap1\n      tag_52\n      jump\t// in\n    tag_51:\n      mload(0x40)\n      dup1\n      swap2\n      sub\n      swap1\n      return\n        /* \"contracts/charity.sol\":1988:2823  function createCharityRequest(... */\n    tag_10:\n      callvalue\n      dup1\n      iszero\n      tag_53\n      jumpi\n      0x00\n      dup1\n      revert\n    tag_53:\n      pop\n      tag_54\n      0x04\n      dup1\n      calldatasize\n      sub\n      dup2\n      add\n      swap1\n      tag_55\n      swap2\n      swap1\n      tag_56\n      jump\t// in\n    tag_55:\n      tag_57\n      jump\t// in\n    tag_54:\n      stop\n        /* \"contracts/charity.sol\":4580:4847  function getContractBalance(uint256 _charityId) public view onlyAdminOrReceiver(_charityId) returns (uint256) {... */\n    tag_16:\n        /* \"contracts/charity.sol\":4681:4688  uint256 */\n      0x00\n        /* \"contracts/charity.sol\":4660:4670  _charityId */\n      dup2\n        /* \"contracts/charity.sol\":1506:1511  admin */\n      0x00\n      dup1\n      sload\n      swap1\n      0x0100\n      exp\n      swap1\n      div\n      0xffffffffffffffffffffffffffffffffffffffff\n      and\n        /* \"contracts/charity.sol\":1492:1511  msg.sender == admin */\n      0xffffffffffffffffffffffffffffffffffffffff\n      and\n        /* \"contracts/charity.sol\":1492:1502  msg.sender */\n      caller\n        /* \"contracts/charity.sol\":1492:1511  msg.sender == admin */\n      0xffffffffffffffffffffffffffffffffffffffff\n      and\n      eq\n        /* \"contracts/charity.sol\":1492:1565  msg.sender == admin || msg.sender == charityRequests[_charityId].receiver */\n      dup1\n      tag_59\n      jumpi\n      pop\n        /* \"contracts/charity.sol\":1529:1544  charityRequests */\n      0x01\n        /* \"contracts/charity.sol\":1529:1556  charityRequests[_charityId] */\n      0x00\n        /* \"contracts/charity.sol\":1545:1555  _charityId */\n      dup3\n        /* \"contracts/charity.sol\":1529:1556  charityRequests[_charityId] */\n      dup2\n      mstore\n      0x20\n      add\n      swap1\n      dup2\n      mstore\n      0x20\n      add\n      0x00\n      keccak256\n        /* \"contracts/charity.sol\":1529:1565  charityRequests[_charityId].receiver */\n      0x01\n      add\n      0x00\n      swap1\n      sload\n      swap1\n      0x0100\n      exp\n      swap1\n      div\n      0xffffffffffffffffffffffffffffffffffffffff\n      and\n        /* \"contracts/charity.sol\":1515:1565  msg.sender == charityRequests[_charityId].receiver */\n      0xffffffffffffffffffffffffffffffffffffffff\n      and\n        /* \"contracts/charity.sol\":1515:1525  msg.sender */\n      caller\n        /* \"contracts/charity.sol\":1515:1565  msg.sender == charityRequests[_charityId].receiver */\n      0xffffffffffffffffffffffffffffffffffffffff\n      and\n      eq\n        /* \"contracts/charity.sol\":1492:1565  msg.sender == admin || msg.sender == charityRequests[_charityId].receiver */\n    tag_59:\n        /* \"contracts/charity.sol\":1470:1657  require(... */\n      tag_60\n      jumpi\n      mload(0x40)\n      0x08c379a000000000000000000000000000000000000000000000000000000000\n      dup2\n      mstore\n      0x04\n      add\n      tag_61\n      swap1\n      tag_62\n      jump\t// in\n    tag_61:\n      mload(0x40)\n      dup1\n      swap2\n      sub\n      swap1\n      revert\n    tag_60:\n        /* \"contracts/charity.sol\":4722:4723  0 */\n      0x00\n        /* \"contracts/charity.sol\":4709:4719  _charityId */\n      dup4\n        /* \"contracts/charity.sol\":4709:4723  _charityId > 0 */\n      gt\n        /* \"contracts/charity.sol\":4709:4762  _charityId > 0 && charityRequests[_charityId].id != 0 */\n      dup1\n      iszero\n      tag_64\n      jumpi\n      pop\n        /* \"contracts/charity.sol\":4761:4762  0 */\n      0x00\n        /* \"contracts/charity.sol\":4727:4742  charityRequests */\n      0x01\n        /* \"contracts/charity.sol\":4727:4754  charityRequests[_charityId] */\n      0x00\n        /* \"contracts/charity.sol\":4743:4753  _charityId */\n      dup6\n        /* \"contracts/charity.sol\":4727:4754  charityRequests[_charityId] */\n      dup2\n      mstore\n      0x20\n      add\n      swap1\n      dup2\n      mstore\n      0x20\n      add\n      0x00\n      keccak256\n        /* \"contracts/charity.sol\":4727:4757  charityRequests[_charityId].id */\n      0x00\n      add\n      sload\n        /* \"contracts/charity.sol\":4727:4762  charityRequests[_charityId].id != 0 */\n      eq\n      iszero\n        /* \"contracts/charity.sol\":4709:4762  _charityId > 0 && charityRequests[_charityId].id != 0 */\n    tag_64:\n        /* \"contracts/charity.sol\":4701:4786  require(_charityId > 0 && charityRequests[_charityId].id != 0, \"Invalid charity ID.\") */\n      tag_65\n      jumpi\n      mload(0x40)\n      0x08c379a000000000000000000000000000000000000000000000000000000000\n      dup2\n      mstore\n      0x04\n      add\n      tag_66\n      swap1\n      tag_67\n      jump\t// in\n    tag_66:\n      mload(0x40)\n      dup1\n      swap2\n      sub\n      swap1\n      revert\n    tag_65:\n        /* \"contracts/charity.sol\":4804:4819  charityRequests */\n      0x01\n        /* \"contracts/charity.sol\":4804:4831  charityRequests[_charityId] */\n      0x00\n        /* \"contracts/charity.sol\":4820:4830  _charityId */\n      dup5\n        /* \"contracts/charity.sol\":4804:4831  charityRequests[_charityId] */\n      dup2\n      mstore\n      0x20\n      add\n      swap1\n      dup2\n      mstore\n      0x20\n      add\n      0x00\n      keccak256\n        /* \"contracts/charity.sol\":4804:4839  charityRequests[_charityId].balance */\n      0x04\n      add\n      sload\n        /* \"contracts/charity.sol\":4797:4839  return charityRequests[_charityId].balance */\n      swap2\n      pop\n        /* \"contracts/charity.sol\":4580:4847  function getContractBalance(uint256 _charityId) public view onlyAdminOrReceiver(_charityId) returns (uint256) {... */\n      pop\n      swap2\n      swap1\n      pop\n      jump\t// out\n        /* \"contracts/charity.sol\":2959:3731  function donate(uint256 _charityId, uint256 _amount) public payable {... */\n    tag_22:\n        /* \"contracts/charity.sol\":3055:3056  0 */\n      0x00\n        /* \"contracts/charity.sol\":3042:3052  _charityId */\n      dup3\n        /* \"contracts/charity.sol\":3042:3056  _charityId > 0 */\n      gt\n        /* \"contracts/charity.sol\":3042:3095  _charityId > 0 && charityRequests[_charityId].id != 0 */\n      dup1\n      iszero\n      tag_69\n      jumpi\n      pop\n        /* \"contracts/charity.sol\":3094:3095  0 */\n      0x00\n        /* \"contracts/charity.sol\":3060:3075  charityRequests */\n      0x01\n        /* \"contracts/charity.sol\":3060:3087  charityRequests[_charityId] */\n      0x00\n        /* \"contracts/charity.sol\":3076:3086  _charityId */\n      dup5\n        /* \"contracts/charity.sol\":3060:3087  charityRequests[_charityId] */\n      dup2\n      mstore\n      0x20\n      add\n      swap1\n      dup2\n      mstore\n      0x20\n      add\n      0x00\n      keccak256\n        /* \"contracts/charity.sol\":3060:3090  charityRequests[_charityId].id */\n      0x00\n      add\n      sload\n        /* \"contracts/charity.sol\":3060:3095  charityRequests[_charityId].id != 0 */\n      eq\n      iszero\n        /* \"contracts/charity.sol\":3042:3095  _charityId > 0 && charityRequests[_charityId].id != 0 */\n    tag_69:\n        /* \"contracts/charity.sol\":3034:3119  require(_charityId > 0 && charityRequests[_charityId].id != 0, \"Invalid charity ID.\") */\n      tag_70\n      jumpi\n      mload(0x40)\n      0x08c379a000000000000000000000000000000000000000000000000000000000\n      dup2\n      mstore\n      0x04\n      add\n      tag_71\n      swap1\n      tag_67\n      jump\t// in\n    tag_71:\n      mload(0x40)\n      dup1\n      swap2\n      sub\n      swap1\n      revert\n    tag_70:\n        /* \"contracts/charity.sol\":3126:3149  Charity storage charity */\n      0x00\n        /* \"contracts/charity.sol\":3152:3167  charityRequests */\n      0x01\n        /* \"contracts/charity.sol\":3152:3179  charityRequests[_charityId] */\n      0x00\n        /* \"contracts/charity.sol\":3168:3178  _charityId */\n      dup5\n        /* \"contracts/charity.sol\":3152:3179  charityRequests[_charityId] */\n      dup2\n      mstore\n      0x20\n      add\n      swap1\n      dup2\n      mstore\n      0x20\n      add\n      0x00\n      keccak256\n        /* \"contracts/charity.sol\":3126:3179  Charity storage charity = charityRequests[_charityId] */\n      swap1\n      pop\n        /* \"contracts/charity.sol\":3194:3201  charity */\n      dup1\n        /* \"contracts/charity.sol\":3194:3208  charity.status */\n      0x05\n      add\n      0x00\n      swap1\n      sload\n      swap1\n      0x0100\n      exp\n      swap1\n      div\n      0xff\n      and\n        /* \"contracts/charity.sol\":3186:3243  require(charity.status, \"Charity request is not active.\") */\n      tag_72\n      jumpi\n      mload(0x40)\n      0x08c379a000000000000000000000000000000000000000000000000000000000\n      dup2\n      mstore\n      0x04\n      add\n      tag_73\n      swap1\n      tag_74\n      jump\t// in\n    tag_73:\n      mload(0x40)\n      dup1\n      swap2\n      sub\n      swap1\n      revert\n    tag_72:\n        /* \"contracts/charity.sol\":3268:3269  0 */\n      0x00\n        /* \"contracts/charity.sol\":3258:3265  _amount */\n      dup3\n        /* \"contracts/charity.sol\":3258:3269  _amount > 0 */\n      gt\n        /* \"contracts/charity.sol\":3250:3316  require(_amount > 0, \"Donation amount must be greater than zero.\") */\n      tag_75\n      jumpi\n      mload(0x40)\n      0x08c379a000000000000000000000000000000000000000000000000000000000\n      dup2\n      mstore\n      0x04\n      add\n      tag_76\n      swap1\n      tag_77\n      jump\t// in\n    tag_76:\n      mload(0x40)\n      dup1\n      swap2\n      sub\n      swap1\n      revert\n    tag_75:\n        /* \"contracts/charity.sol\":3362:3369  charity */\n      dup1\n        /* \"contracts/charity.sol\":3362:3379  charity.maxAmount */\n      0x02\n      add\n      sload\n        /* \"contracts/charity.sol\":3351:3358  _amount */\n      dup3\n        /* \"contracts/charity.sol\":3331:3338  charity */\n      dup3\n        /* \"contracts/charity.sol\":3331:3348  charity.collected */\n      0x03\n      add\n      sload\n        /* \"contracts/charity.sol\":3331:3358  charity.collected + _amount */\n      tag_78\n      swap2\n      swap1\n      tag_79\n      jump\t// in\n    tag_78:\n        /* \"contracts/charity.sol\":3331:3379  charity.collected + _amount <= charity.maxAmount */\n      gt\n      iszero\n        /* \"contracts/charity.sol\":3323:3417  require(charity.collected + _amount <= charity.maxAmount, \"Donation exceeds required amount.\") */\n      tag_80\n      jumpi\n      mload(0x40)\n      0x08c379a000000000000000000000000000000000000000000000000000000000\n      dup2\n      mstore\n      0x04\n      add\n      tag_81\n      swap1\n      tag_82\n      jump\t// in\n    tag_81:\n      mload(0x40)\n      dup1\n      swap2\n      sub\n      swap1\n      revert\n    tag_80:\n        /* \"contracts/charity.sol\":3447:3454  _amount */\n      dup2\n        /* \"contracts/charity.sol\":3426:3433  charity */\n      dup2\n        /* \"contracts/charity.sol\":3426:3443  charity.collected */\n      0x03\n      add\n      0x00\n        /* \"contracts/charity.sol\":3426:3454  charity.collected += _amount */\n      dup3\n      dup3\n      sload\n      tag_83\n      swap2\n      swap1\n      tag_79\n      jump\t// in\n    tag_83:\n      swap3\n      pop\n      pop\n      dup2\n      swap1\n      sstore\n      pop\n        /* \"contracts/charity.sol\":3480:3487  _amount */\n      dup2\n        /* \"contracts/charity.sol\":3461:3468  charity */\n      dup2\n        /* \"contracts/charity.sol\":3461:3476  charity.balance */\n      0x04\n      add\n      0x00\n        /* \"contracts/charity.sol\":3461:3487  charity.balance += _amount */\n      dup3\n      dup3\n      sload\n      tag_84\n      swap2\n      swap1\n      tag_79\n      jump\t// in\n    tag_84:\n      swap3\n      pop\n      pop\n      dup2\n      swap1\n      sstore\n      pop\n        /* \"contracts/charity.sol\":3521:3537  charityDonations */\n      0x02\n        /* \"contracts/charity.sol\":3521:3549  charityDonations[_charityId] */\n      0x00\n        /* \"contracts/charity.sol\":3538:3548  _charityId */\n      dup5\n        /* \"contracts/charity.sol\":3521:3549  charityDonations[_charityId] */\n      dup2\n      mstore\n      0x20\n      add\n      swap1\n      dup2\n      mstore\n      0x20\n      add\n      0x00\n      keccak256\n        /* \"contracts/charity.sol\":3555:3663  Donation({... */\n      mload(0x40)\n      dup1\n      0x60\n      add\n      0x40\n      mstore\n      dup1\n        /* \"contracts/charity.sol\":3582:3592  msg.sender */\n      caller\n        /* \"contracts/charity.sol\":3555:3663  Donation({... */\n      0xffffffffffffffffffffffffffffffffffffffff\n      and\n      dup2\n      mstore\n      0x20\n      add\n        /* \"contracts/charity.sol\":3611:3618  _amount */\n      dup5\n        /* \"contracts/charity.sol\":3555:3663  Donation({... */\n      dup2\n      mstore\n      0x20\n      add\n        /* \"contracts/charity.sol\":3640:3655  block.timestamp */\n      timestamp\n        /* \"contracts/charity.sol\":3555:3663  Donation({... */\n      dup2\n      mstore\n      pop\n        /* \"contracts/charity.sol\":3521:3664  charityDonations[_charityId].push(Donation({... */\n      swap1\n      dup1\n      0x01\n      dup2\n      sload\n      add\n      dup1\n      dup3\n      sstore\n      dup1\n      swap2\n      pop\n      pop\n      0x01\n      swap1\n      sub\n      swap1\n      0x00\n      mstore\n      keccak256(0x00, 0x20)\n      swap1\n      0x03\n      mul\n      add\n      0x00\n      swap1\n      swap2\n      swap1\n      swap2\n      swap1\n      swap2\n      pop\n      0x00\n      dup3\n      add\n      mload\n      dup2\n      0x00\n      add\n      exp(0x0100, 0x00)\n      dup2\n      sload\n      dup2\n      0xffffffffffffffffffffffffffffffffffffffff\n      mul\n      not\n      and\n      swap1\n      dup4\n      0xffffffffffffffffffffffffffffffffffffffff\n      and\n      mul\n      or\n      swap1\n      sstore\n      pop\n      0x20\n      dup3\n      add\n      mload\n      dup2\n      0x01\n      add\n      sstore\n      0x40\n      dup3\n      add\n      mload\n      dup2\n      0x02\n      add\n      sstore\n      pop\n      pop\n        /* \"contracts/charity.sol\":3707:3717  msg.sender */\n      caller\n        /* \"contracts/charity.sol\":3678:3727  DonationReceived(_charityId, msg.sender, _amount) */\n      0xffffffffffffffffffffffffffffffffffffffff\n      and\n        /* \"contracts/charity.sol\":3695:3705  _charityId */\n      dup4\n        /* \"contracts/charity.sol\":3678:3727  DonationReceived(_charityId, msg.sender, _amount) */\n      0x0b5b4c52969ff7329ecf7ee536409fda87812b15a8622bc6e8cdeab3aee14a26\n        /* \"contracts/charity.sol\":3719:3726  _amount */\n      dup5\n        /* \"contracts/charity.sol\":3678:3727  DonationReceived(_charityId, msg.sender, _amount) */\n      mload(0x40)\n      tag_86\n      swap2\n      swap1\n      tag_18\n      jump\t// in\n    tag_86:\n      mload(0x40)\n      dup1\n      swap2\n      sub\n      swap1\n      log3\n        /* \"contracts/charity.sol\":3027:3731  {... */\n      pop\n        /* \"contracts/charity.sol\":2959:3731  function donate(uint256 _charityId, uint256 _amount) public payable {... */\n      pop\n      pop\n      jump\t// out\n        /* \"contracts/charity.sol\":3839:4475  function withdraw(uint256 _charityId, uint256 _amount) public onlyReceiver(_charityId) payable {... */\n    tag_25:\n        /* \"contracts/charity.sol\":3914:3924  _charityId */\n      dup2\n        /* \"contracts/charity.sol\":1760:1775  charityRequests */\n      0x01\n        /* \"contracts/charity.sol\":1760:1787  charityRequests[_charityId] */\n      0x00\n        /* \"contracts/charity.sol\":1776:1786  _charityId */\n      dup3\n        /* \"contracts/charity.sol\":1760:1787  charityRequests[_charityId] */\n      dup2\n      mstore\n      0x20\n      add\n      swap1\n      dup2\n      mstore\n      0x20\n      add\n      0x00\n      keccak256\n        /* \"contracts/charity.sol\":1760:1796  charityRequests[_charityId].receiver */\n      0x01\n      add\n      0x00\n      swap1\n      sload\n      swap1\n      0x0100\n      exp\n      swap1\n      div\n      0xffffffffffffffffffffffffffffffffffffffff\n      and\n        /* \"contracts/charity.sol\":1746:1796  msg.sender == charityRequests[_charityId].receiver */\n      0xffffffffffffffffffffffffffffffffffffffff\n      and\n        /* \"contracts/charity.sol\":1746:1756  msg.sender */\n      caller\n        /* \"contracts/charity.sol\":1746:1796  msg.sender == charityRequests[_charityId].receiver */\n      0xffffffffffffffffffffffffffffffffffffffff\n      and\n      eq\n        /* \"contracts/charity.sol\":1738:1852  require(msg.sender == charityRequests[_charityId].receiver, \"Only the assigned receiver can perform this action.\") */\n      tag_88\n      jumpi\n      mload(0x40)\n      0x08c379a000000000000000000000000000000000000000000000000000000000\n      dup2\n      mstore\n      0x04\n      add\n      tag_89\n      swap1\n      tag_90\n      jump\t// in\n    tag_89:\n      mload(0x40)\n      dup1\n      swap2\n      sub\n      swap1\n      revert\n    tag_88:\n        /* \"contracts/charity.sol\":3962:3963  0 */\n      0x00\n        /* \"contracts/charity.sol\":3949:3959  _charityId */\n      dup4\n        /* \"contracts/charity.sol\":3949:3963  _charityId > 0 */\n      gt\n        /* \"contracts/charity.sol\":3949:4002  _charityId > 0 && charityRequests[_charityId].id != 0 */\n      dup1\n      iszero\n      tag_92\n      jumpi\n      pop\n        /* \"contracts/charity.sol\":4001:4002  0 */\n      0x00\n        /* \"contracts/charity.sol\":3967:3982  charityRequests */\n      0x01\n        /* \"contracts/charity.sol\":3967:3994  charityRequests[_charityId] */\n      0x00\n        /* \"contracts/charity.sol\":3983:3993  _charityId */\n      dup6\n        /* \"contracts/charity.sol\":3967:3994  charityRequests[_charityId] */\n      dup2\n      mstore\n      0x20\n      add\n      swap1\n      dup2\n      mstore\n      0x20\n      add\n      0x00\n      keccak256\n        /* \"contracts/charity.sol\":3967:3997  charityRequests[_charityId].id */\n      0x00\n      add\n      sload\n        /* \"contracts/charity.sol\":3967:4002  charityRequests[_charityId].id != 0 */\n      eq\n      iszero\n        /* \"contracts/charity.sol\":3949:4002  _charityId > 0 && charityRequests[_charityId].id != 0 */\n    tag_92:\n        /* \"contracts/charity.sol\":3941:4026  require(_charityId > 0 && charityRequests[_charityId].id != 0, \"Invalid charity ID.\") */\n      tag_93\n      jumpi\n      mload(0x40)\n      0x08c379a000000000000000000000000000000000000000000000000000000000\n      dup2\n      mstore\n      0x04\n      add\n      tag_94\n      swap1\n      tag_67\n      jump\t// in\n    tag_94:\n      mload(0x40)\n      dup1\n      swap2\n      sub\n      swap1\n      revert\n    tag_93:\n        /* \"contracts/charity.sol\":4033:4056  Charity storage charity */\n      0x00\n        /* \"contracts/charity.sol\":4059:4074  charityRequests */\n      0x01\n        /* \"contracts/charity.sol\":4059:4086  charityRequests[_charityId] */\n      0x00\n        /* \"contracts/charity.sol\":4075:4085  _charityId */\n      dup6\n        /* \"contracts/charity.sol\":4059:4086  charityRequests[_charityId] */\n      dup2\n      mstore\n      0x20\n      add\n      swap1\n      dup2\n      mstore\n      0x20\n      add\n      0x00\n      keccak256\n        /* \"contracts/charity.sol\":4033:4086  Charity storage charity = charityRequests[_charityId] */\n      swap1\n      pop\n        /* \"contracts/charity.sol\":4111:4112  0 */\n      0x00\n        /* \"contracts/charity.sol\":4101:4108  _amount */\n      dup4\n        /* \"contracts/charity.sol\":4101:4112  _amount > 0 */\n      gt\n        /* \"contracts/charity.sol\":4093:4161  require(_amount > 0, \"Withdrawal amount must be greater than zero.\") */\n      tag_95\n      jumpi\n      mload(0x40)\n      0x08c379a000000000000000000000000000000000000000000000000000000000\n      dup2\n      mstore\n      0x04\n      add\n      tag_96\n      swap1\n      tag_97\n      jump\t// in\n    tag_96:\n      mload(0x40)\n      dup1\n      swap2\n      sub\n      swap1\n      revert\n    tag_95:\n        /* \"contracts/charity.sol\":4187:4194  charity */\n      dup1\n        /* \"contracts/charity.sol\":4187:4202  charity.balance */\n      0x04\n      add\n      sload\n        /* \"contracts/charity.sol\":4176:4183  _amount */\n      dup4\n        /* \"contracts/charity.sol\":4176:4202  _amount <= charity.balance */\n      gt\n      iszero\n        /* \"contracts/charity.sol\":4168:4228  require(_amount <= charity.balance, \"Insufficient balance.\") */\n      tag_98\n      jumpi\n      mload(0x40)\n      0x08c379a000000000000000000000000000000000000000000000000000000000\n      dup2\n      mstore\n      0x04\n      add\n      tag_99\n      swap1\n      tag_100\n      jump\t// in\n    tag_99:\n      mload(0x40)\n      dup1\n      swap2\n      sub\n      swap1\n      revert\n    tag_98:\n        /* \"contracts/charity.sol\":4256:4263  _amount */\n      dup3\n        /* \"contracts/charity.sol\":4237:4244  charity */\n      dup2\n        /* \"contracts/charity.sol\":4237:4252  charity.balance */\n      0x04\n      add\n      0x00\n        /* \"contracts/charity.sol\":4237:4263  charity.balance -= _amount */\n      dup3\n      dup3\n      sload\n      tag_101\n      swap2\n      swap1\n      tag_102\n      jump\t// in\n    tag_101:\n      swap3\n      pop\n      pop\n      dup2\n      swap1\n      sstore\n      pop\n        /* \"contracts/charity.sol\":4318:4330  bool success */\n      0x00\n        /* \"contracts/charity.sol\":4336:4343  charity */\n      dup2\n        /* \"contracts/charity.sol\":4336:4352  charity.receiver */\n      0x01\n      add\n      0x00\n      swap1\n      sload\n      swap1\n      0x0100\n      exp\n      swap1\n      div\n      0xffffffffffffffffffffffffffffffffffffffff\n      and\n        /* \"contracts/charity.sol\":4336:4357  charity.receiver.call */\n      0xffffffffffffffffffffffffffffffffffffffff\n      and\n        /* \"contracts/charity.sol\":4365:4372  _amount */\n      dup5\n        /* \"contracts/charity.sol\":4336:4377  charity.receiver.call{value: _amount}(\"\") */\n      mload(0x40)\n      tag_103\n      swap1\n      tag_104\n      jump\t// in\n    tag_103:\n      0x00\n      mload(0x40)\n      dup1\n      dup4\n      sub\n      dup2\n      dup6\n      dup8\n      gas\n      call\n      swap3\n      pop\n      pop\n      pop\n      returndatasize\n      dup1\n      0x00\n      dup2\n      eq\n      tag_107\n      jumpi\n      mload(0x40)\n      swap2\n      pop\n      and(add(returndatasize, 0x3f), not(0x1f))\n      dup3\n      add\n      0x40\n      mstore\n      returndatasize\n      dup3\n      mstore\n      returndatasize\n      0x00\n      0x20\n      dup5\n      add\n      returndatacopy\n      jump(tag_106)\n    tag_107:\n      0x60\n      swap2\n      pop\n    tag_106:\n      pop\n        /* \"contracts/charity.sol\":4317:4377  (bool success, ) = charity.receiver.call{value: _amount}(\"\") */\n      pop\n      swap1\n      pop\n        /* \"contracts/charity.sol\":4392:4399  success */\n      dup1\n        /* \"contracts/charity.sol\":4384:4422  require(success, \"Withdrawal failed.\") */\n      tag_108\n      jumpi\n      mload(0x40)\n      0x08c379a000000000000000000000000000000000000000000000000000000000\n      dup2\n      mstore\n      0x04\n      add\n      tag_109\n      swap1\n      tag_110\n      jump\t// in\n    tag_109:\n      mload(0x40)\n      dup1\n      swap2\n      sub\n      swap1\n      revert\n    tag_108:\n        /* \"contracts/charity.sol\":4451:4461  _charityId */\n      dup5\n        /* \"contracts/charity.sol\":4436:4471  FundsWithdrawn(_charityId, _amount) */\n      0xd66662c0ded9e58fd31d5e44944bcfd07ffc15e6927ecc1382e7941cb7bd24c4\n        /* \"contracts/charity.sol\":4463:4470  _amount */\n      dup6\n        /* \"contracts/charity.sol\":4436:4471  FundsWithdrawn(_charityId, _amount) */\n      mload(0x40)\n      tag_111\n      swap2\n      swap1\n      tag_18\n      jump\t// in\n    tag_111:\n      mload(0x40)\n      dup1\n      swap2\n      sub\n      swap1\n      log2\n        /* \"contracts/charity.sol\":3934:4475  {... */\n      pop\n      pop\n        /* \"contracts/charity.sol\":3839:4475  function withdraw(uint256 _charityId, uint256 _amount) public onlyReceiver(_charityId) payable {... */\n      pop\n      pop\n      pop\n      jump\t// out\n        /* \"contracts/charity.sol\":4929:5171  function getDonations(uint256 _charityId) public view onlyAdmin returns (Donation[] memory) {... */\n    tag_29:\n        /* \"contracts/charity.sol\":5002:5019  Donation[] memory */\n      0x60\n        /* \"contracts/charity.sol\":1333:1338  admin */\n      0x00\n      dup1\n      sload\n      swap1\n      0x0100\n      exp\n      swap1\n      div\n      0xffffffffffffffffffffffffffffffffffffffff\n      and\n        /* \"contracts/charity.sol\":1319:1338  msg.sender == admin */\n      0xffffffffffffffffffffffffffffffffffffffff\n      and\n        /* \"contracts/charity.sol\":1319:1329  msg.sender */\n      caller\n        /* \"contracts/charity.sol\":1319:1338  msg.sender == admin */\n      0xffffffffffffffffffffffffffffffffffffffff\n      and\n      eq\n        /* \"contracts/charity.sol\":1311:1382  require(msg.sender == admin, \"Only the admin can perform this action.\") */\n      tag_113\n      jumpi\n      mload(0x40)\n      0x08c379a000000000000000000000000000000000000000000000000000000000\n      dup2\n      mstore\n      0x04\n      add\n      tag_114\n      swap1\n      tag_115\n      jump\t// in\n    tag_114:\n      mload(0x40)\n      dup1\n      swap2\n      sub\n      swap1\n      revert\n    tag_113:\n        /* \"contracts/charity.sol\":5053:5054  0 */\n      0x00\n        /* \"contracts/charity.sol\":5040:5050  _charityId */\n      dup3\n        /* \"contracts/charity.sol\":5040:5054  _charityId > 0 */\n      gt\n        /* \"contracts/charity.sol\":5040:5093  _charityId > 0 && charityRequests[_charityId].id != 0 */\n      dup1\n      iszero\n      tag_117\n      jumpi\n      pop\n        /* \"contracts/charity.sol\":5092:5093  0 */\n      0x00\n        /* \"contracts/charity.sol\":5058:5073  charityRequests */\n      0x01\n        /* \"contracts/charity.sol\":5058:5085  charityRequests[_charityId] */\n      0x00\n        /* \"contracts/charity.sol\":5074:5084  _charityId */\n      dup5\n        /* \"contracts/charity.sol\":5058:5085  charityRequests[_charityId] */\n      dup2\n      mstore\n      0x20\n      add\n      swap1\n      dup2\n      mstore\n      0x20\n      add\n      0x00\n      keccak256\n        /* \"contracts/charity.sol\":5058:5088  charityRequests[_charityId].id */\n      0x00\n      add\n      sload\n        /* \"contracts/charity.sol\":5058:5093  charityRequests[_charityId].id != 0 */\n      eq\n      iszero\n        /* \"contracts/charity.sol\":5040:5093  _charityId > 0 && charityRequests[_charityId].id != 0 */\n    tag_117:\n        /* \"contracts/charity.sol\":5032:5117  require(_charityId > 0 && charityRequests[_charityId].id != 0, \"Invalid charity ID.\") */\n      tag_118\n      jumpi\n      mload(0x40)\n      0x08c379a000000000000000000000000000000000000000000000000000000000\n      dup2\n      mstore\n      0x04\n      add\n      tag_119\n      swap1\n      tag_67\n      jump\t// in\n    tag_119:\n      mload(0x40)\n      dup1\n      swap2\n      sub\n      swap1\n      revert\n    tag_118:\n        /* \"contracts/charity.sol\":5135:5151  charityDonations */\n      0x02\n        /* \"contracts/charity.sol\":5135:5163  charityDonations[_charityId] */\n      0x00\n        /* \"contracts/charity.sol\":5152:5162  _charityId */\n      dup4\n        /* \"contracts/charity.sol\":5135:5163  charityDonations[_charityId] */\n      dup2\n      mstore\n      0x20\n      add\n      swap1\n      dup2\n      mstore\n      0x20\n      add\n      0x00\n      keccak256\n        /* \"contracts/charity.sol\":5128:5163  return charityDonations[_charityId] */\n      dup1\n      sload\n      dup1\n      0x20\n      mul\n      0x20\n      add\n      mload(0x40)\n      swap1\n      dup2\n      add\n      0x40\n      mstore\n      dup1\n      swap3\n      swap2\n      swap1\n      dup2\n      dup2\n      mstore\n      0x20\n      add\n      0x00\n      swap1\n    tag_120:\n      dup3\n      dup3\n      lt\n      iszero\n      tag_121\n      jumpi\n      dup4\n      dup3\n      swap1\n      0x00\n      mstore\n      keccak256(0x00, 0x20)\n      swap1\n      0x03\n      mul\n      add\n      mload(0x40)\n      dup1\n      0x60\n      add\n      0x40\n      mstore\n      swap1\n      dup2\n      0x00\n      dup3\n      add\n      0x00\n      swap1\n      sload\n      swap1\n      0x0100\n      exp\n      swap1\n      div\n      0xffffffffffffffffffffffffffffffffffffffff\n      and\n      0xffffffffffffffffffffffffffffffffffffffff\n      and\n      0xffffffffffffffffffffffffffffffffffffffff\n      and\n      dup2\n      mstore\n      0x20\n      add\n      0x01\n      dup3\n      add\n      sload\n      dup2\n      mstore\n      0x20\n      add\n      0x02\n      dup3\n      add\n      sload\n      dup2\n      mstore\n      pop\n      pop\n      dup2\n      mstore\n      0x20\n      add\n      swap1\n      0x01\n      add\n      swap1\n      jump(tag_120)\n    tag_121:\n      pop\n      pop\n      pop\n      pop\n      swap1\n      pop\n        /* \"contracts/charity.sol\":4929:5171  function getDonations(uint256 _charityId) public view onlyAdmin returns (Donation[] memory) {... */\n      swap2\n      swap1\n      pop\n      jump\t// out\n        /* \"contracts/charity.sol\":705:759  mapping(uint256 => Donation[]) public charityDonations */\n    tag_35:\n      mstore(0x20, 0x02)\n      dup2\n      0x00\n      mstore\n      keccak256(0x00, 0x40)\n      dup2\n      dup2\n      sload\n      dup2\n      lt\n      tag_123\n      jumpi\n      0x00\n      dup1\n      revert\n    tag_123:\n      swap1\n      0x00\n      mstore\n      keccak256(0x00, 0x20)\n      swap1\n      0x03\n      mul\n      add\n      0x00\n      swap2\n      pop\n      swap2\n      pop\n      pop\n      dup1\n      0x00\n      add\n      0x00\n      swap1\n      sload\n      swap1\n      0x0100\n      exp\n      swap1\n      div\n      0xffffffffffffffffffffffffffffffffffffffff\n      and\n      swap1\n      dup1\n      0x01\n      add\n      sload\n      swap1\n      dup1\n      0x02\n      add\n      sload\n      swap1\n      pop\n      dup4\n      jump\t// out\n        /* \"contracts/charity.sol\":611:661  mapping(uint256 => Charity) public charityRequests */\n    tag_41:\n      mstore(0x20, 0x01)\n      dup1\n      0x00\n      mstore\n      keccak256(0x00, 0x40)\n      0x00\n      swap2\n      pop\n      swap1\n      pop\n      dup1\n      0x00\n      add\n      sload\n      swap1\n      dup1\n      0x01\n      add\n      0x00\n      swap1\n      sload\n      swap1\n      0x0100\n      exp\n      swap1\n      div\n      0xffffffffffffffffffffffffffffffffffffffff\n      and\n      swap1\n      dup1\n      0x02\n      add\n      sload\n      swap1\n      dup1\n      0x03\n      add\n      sload\n      swap1\n      dup1\n      0x04\n      add\n      sload\n      swap1\n      dup1\n      0x05\n      add\n      0x00\n      swap1\n      sload\n      swap1\n      0x0100\n      exp\n      swap1\n      div\n      0xff\n      and\n      swap1\n      pop\n      dup7\n      jump\t// out\n        /* \"contracts/charity.sol\":800:827  uint256 public charityCount */\n    tag_46:\n      sload(0x03)\n      dup2\n      jump\t// out\n        /* \"contracts/charity.sol\":93:113  address public admin */\n    tag_50:\n      0x00\n      dup1\n      sload\n      swap1\n      0x0100\n      exp\n      swap1\n      div\n      0xffffffffffffffffffffffffffffffffffffffff\n      and\n      dup2\n      jump\t// out\n        /* \"contracts/charity.sol\":1988:2823  function createCharityRequest(... */\n    tag_57:\n        /* \"contracts/charity.sol\":1333:1338  admin */\n      0x00\n      dup1\n      sload\n      swap1\n      0x0100\n      exp\n      swap1\n      div\n      0xffffffffffffffffffffffffffffffffffffffff\n      and\n        /* \"contracts/charity.sol\":1319:1338  msg.sender == admin */\n      0xffffffffffffffffffffffffffffffffffffffff\n      and\n        /* \"contracts/charity.sol\":1319:1329  msg.sender */\n      caller\n        /* \"contracts/charity.sol\":1319:1338  msg.sender == admin */\n      0xffffffffffffffffffffffffffffffffffffffff\n      and\n      eq\n        /* \"contracts/charity.sol\":1311:1382  require(msg.sender == admin, \"Only the admin can perform this action.\") */\n      tag_126\n      jumpi\n      mload(0x40)\n      0x08c379a000000000000000000000000000000000000000000000000000000000\n      dup2\n      mstore\n      0x04\n      add\n      tag_127\n      swap1\n      tag_115\n      jump\t// in\n    tag_127:\n      mload(0x40)\n      dup1\n      swap2\n      sub\n      swap1\n      revert\n    tag_126:\n        /* \"contracts/charity.sol\":2168:2169  0 */\n      0x00\n        /* \"contracts/charity.sol\":2147:2170  _receiver != address(0) */\n      0xffffffffffffffffffffffffffffffffffffffff\n      and\n        /* \"contracts/charity.sol\":2147:2156  _receiver */\n      dup3\n        /* \"contracts/charity.sol\":2147:2170  _receiver != address(0) */\n      0xffffffffffffffffffffffffffffffffffffffff\n      and\n      sub\n        /* \"contracts/charity.sol\":2139:2207  require(_receiver != address(0), \"Receiver address cannot be zero.\") */\n      tag_129\n      jumpi\n      mload(0x40)\n      0x08c379a000000000000000000000000000000000000000000000000000000000\n      dup2\n      mstore\n      0x04\n      add\n      tag_130\n      swap1\n      tag_131\n      jump\t// in\n    tag_130:\n      mload(0x40)\n      dup1\n      swap2\n      sub\n      swap1\n      revert\n    tag_129:\n        /* \"contracts/charity.sol\":2239:2240  0 */\n      0x00\n        /* \"contracts/charity.sol\":2226:2236  _maxAmount */\n      dup2\n        /* \"contracts/charity.sol\":2226:2240  _maxAmount > 0 */\n      gt\n        /* \"contracts/charity.sol\":2218:2286  require(_maxAmount > 0, \"Maximum amount must be greater than zero.\") */\n      tag_132\n      jumpi\n      mload(0x40)\n      0x08c379a000000000000000000000000000000000000000000000000000000000\n      dup2\n      mstore\n      0x04\n      add\n      tag_133\n      swap1\n      tag_134\n      jump\t// in\n    tag_133:\n      mload(0x40)\n      dup1\n      swap2\n      sub\n      swap1\n      revert\n    tag_132:\n        /* \"contracts/charity.sol\":2339:2340  0 */\n      0x00\n        /* \"contracts/charity.sol\":2305:2320  charityRequests */\n      0x01\n        /* \"contracts/charity.sol\":2305:2332  charityRequests[_charityId] */\n      0x00\n        /* \"contracts/charity.sol\":2321:2331  _charityId */\n      dup6\n        /* \"contracts/charity.sol\":2305:2332  charityRequests[_charityId] */\n      dup2\n      mstore\n      0x20\n      add\n      swap1\n      dup2\n      mstore\n      0x20\n      add\n      0x00\n      keccak256\n        /* \"contracts/charity.sol\":2305:2335  charityRequests[_charityId].id */\n      0x00\n      add\n      sload\n        /* \"contracts/charity.sol\":2305:2340  charityRequests[_charityId].id == 0 */\n      eq\n        /* \"contracts/charity.sol\":2297:2371  require(charityRequests[_charityId].id == 0, \"Charity ID already exists.\") */\n      tag_135\n      jumpi\n      mload(0x40)\n      0x08c379a000000000000000000000000000000000000000000000000000000000\n      dup2\n      mstore\n      0x04\n      add\n      tag_136\n      swap1\n      tag_137\n      jump\t// in\n    tag_136:\n      mload(0x40)\n      dup1\n      swap2\n      sub\n      swap1\n      revert\n    tag_135:\n        /* \"contracts/charity.sol\":2452:2464  charityCount */\n      0x03\n      0x00\n        /* \"contracts/charity.sol\":2452:2466  charityCount++ */\n      dup2\n      sload\n      dup1\n      swap3\n      swap2\n      swap1\n      tag_138\n      swap1\n      tag_139\n      jump\t// in\n    tag_138:\n      swap2\n      swap1\n      pop\n      sstore\n      pop\n        /* \"contracts/charity.sol\":2550:2748  Charity({... */\n      mload(0x40)\n      dup1\n      0xc0\n      add\n      0x40\n      mstore\n      dup1\n        /* \"contracts/charity.sol\":2577:2587  _charityId */\n      dup5\n        /* \"contracts/charity.sol\":2550:2748  Charity({... */\n      dup2\n      mstore\n      0x20\n      add\n        /* \"contracts/charity.sol\":2612:2621  _receiver */\n      dup4\n        /* \"contracts/charity.sol\":2550:2748  Charity({... */\n      0xffffffffffffffffffffffffffffffffffffffff\n      and\n      dup2\n      mstore\n      0x20\n      add\n        /* \"contracts/charity.sol\":2647:2657  _maxAmount */\n      dup3\n        /* \"contracts/charity.sol\":2550:2748  Charity({... */\n      dup2\n      mstore\n      0x20\n      add\n        /* \"contracts/charity.sol\":2683:2684  0 */\n      0x00\n        /* \"contracts/charity.sol\":2550:2748  Charity({... */\n      dup2\n      mstore\n      0x20\n      add\n        /* \"contracts/charity.sol\":2708:2709  0 */\n      0x00\n        /* \"contracts/charity.sol\":2550:2748  Charity({... */\n      dup2\n      mstore\n      0x20\n      add\n        /* \"contracts/charity.sol\":2732:2736  true */\n      0x01\n        /* \"contracts/charity.sol\":2550:2748  Charity({... */\n      iszero\n      iszero\n      dup2\n      mstore\n      pop\n        /* \"contracts/charity.sol\":2520:2535  charityRequests */\n      0x01\n        /* \"contracts/charity.sol\":2520:2547  charityRequests[_charityId] */\n      0x00\n        /* \"contracts/charity.sol\":2536:2546  _charityId */\n      dup6\n        /* \"contracts/charity.sol\":2520:2547  charityRequests[_charityId] */\n      dup2\n      mstore\n      0x20\n      add\n      swap1\n      dup2\n      mstore\n      0x20\n      add\n      0x00\n      keccak256\n        /* \"contracts/charity.sol\":2520:2748  charityRequests[_charityId] = Charity({... */\n      0x00\n      dup3\n      add\n      mload\n      dup2\n      0x00\n      add\n      sstore\n      0x20\n      dup3\n      add\n      mload\n      dup2\n      0x01\n      add\n      exp(0x0100, 0x00)\n      dup2\n      sload\n      dup2\n      0xffffffffffffffffffffffffffffffffffffffff\n      mul\n      not\n      and\n      swap1\n      dup4\n      0xffffffffffffffffffffffffffffffffffffffff\n      and\n      mul\n      or\n      swap1\n      sstore\n      pop\n      0x40\n      dup3\n      add\n      mload\n      dup2\n      0x02\n      add\n      sstore\n      0x60\n      dup3\n      add\n      mload\n      dup2\n      0x03\n      add\n      sstore\n      0x80\n      dup3\n      add\n      mload\n      dup2\n      0x04\n      add\n      sstore\n      0xa0\n      dup3\n      add\n      mload\n      dup2\n      0x05\n      add\n      exp(0x0100, 0x00)\n      dup2\n      sload\n      dup2\n      0xff\n      mul\n      not\n      and\n      swap1\n      dup4\n      iszero\n      iszero\n      mul\n      or\n      swap1\n      sstore\n      pop\n      swap1\n      pop\n      pop\n        /* \"contracts/charity.sol\":2793:2802  _receiver */\n      dup2\n        /* \"contracts/charity.sol\":2766:2815  CharityCreated(_charityId, _receiver, _maxAmount) */\n      0xffffffffffffffffffffffffffffffffffffffff\n      and\n        /* \"contracts/charity.sol\":2781:2791  _charityId */\n      dup4\n        /* \"contracts/charity.sol\":2766:2815  CharityCreated(_charityId, _receiver, _maxAmount) */\n      0x23cfba9a727e6db64da9ef036aa94852b70708eea64c7fe06f7dfd629404fc4f\n        /* \"contracts/charity.sol\":2804:2814  _maxAmount */\n      dup4\n        /* \"contracts/charity.sol\":2766:2815  CharityCreated(_charityId, _receiver, _maxAmount) */\n      mload(0x40)\n      tag_140\n      swap2\n      swap1\n      tag_18\n      jump\t// in\n    tag_140:\n      mload(0x40)\n      dup1\n      swap2\n      sub\n      swap1\n      log3\n        /* \"contracts/charity.sol\":1988:2823  function createCharityRequest(... */\n      pop\n      pop\n      pop\n      jump\t// out\n        /* \"#utility.yul\":88:205   */\n    tag_142:\n        /* \"#utility.yul\":197:198   */\n      0x00\n        /* \"#utility.yul\":194:195   */\n      dup1\n        /* \"#utility.yul\":187:199   */\n      revert\n        /* \"#utility.yul\":334:411   */\n    tag_144:\n        /* \"#utility.yul\":371:378   */\n      0x00\n        /* \"#utility.yul\":400:405   */\n      dup2\n        /* \"#utility.yul\":389:405   */\n      swap1\n      pop\n        /* \"#utility.yul\":334:411   */\n      swap2\n      swap1\n      pop\n      jump\t// out\n        /* \"#utility.yul\":417:539   */\n    tag_145:\n        /* \"#utility.yul\":490:514   */\n      tag_201\n        /* \"#utility.yul\":508:513   */\n      dup2\n        /* \"#utility.yul\":490:514   */\n      tag_144\n      jump\t// in\n    tag_201:\n        /* \"#utility.yul\":483:488   */\n      dup2\n        /* \"#utility.yul\":480:515   */\n      eq\n        /* \"#utility.yul\":470:533   */\n      tag_202\n      jumpi\n        /* \"#utility.yul\":529:530   */\n      0x00\n        /* \"#utility.yul\":526:527   */\n      dup1\n        /* \"#utility.yul\":519:531   */\n      revert\n        /* \"#utility.yul\":470:533   */\n    tag_202:\n        /* \"#utility.yul\":417:539   */\n      pop\n      jump\t// out\n        /* \"#utility.yul\":545:684   */\n    tag_146:\n        /* \"#utility.yul\":591:596   */\n      0x00\n        /* \"#utility.yul\":629:635   */\n      dup2\n        /* \"#utility.yul\":616:636   */\n      calldataload\n        /* \"#utility.yul\":607:636   */\n      swap1\n      pop\n        /* \"#utility.yul\":645:678   */\n      tag_204\n        /* \"#utility.yul\":672:677   */\n      dup2\n        /* \"#utility.yul\":645:678   */\n      tag_145\n      jump\t// in\n    tag_204:\n        /* \"#utility.yul\":545:684   */\n      swap3\n      swap2\n      pop\n      pop\n      jump\t// out\n        /* \"#utility.yul\":690:1019   */\n    tag_15:\n        /* \"#utility.yul\":749:755   */\n      0x00\n        /* \"#utility.yul\":798:800   */\n      0x20\n        /* \"#utility.yul\":786:795   */\n      dup3\n        /* \"#utility.yul\":777:784   */\n      dup5\n        /* \"#utility.yul\":773:796   */\n      sub\n        /* \"#utility.yul\":769:801   */\n      slt\n        /* \"#utility.yul\":766:885   */\n      iszero\n      tag_206\n      jumpi\n        /* \"#utility.yul\":804:883   */\n      tag_207\n      tag_142\n      jump\t// in\n    tag_207:\n        /* \"#utility.yul\":766:885   */\n    tag_206:\n        /* \"#utility.yul\":924:925   */\n      0x00\n        /* \"#utility.yul\":949:1002   */\n      tag_208\n        /* \"#utility.yul\":994:1001   */\n      dup5\n        /* \"#utility.yul\":985:991   */\n      dup3\n        /* \"#utility.yul\":974:983   */\n      dup6\n        /* \"#utility.yul\":970:992   */\n      add\n        /* \"#utility.yul\":949:1002   */\n      tag_146\n      jump\t// in\n    tag_208:\n        /* \"#utility.yul\":939:1002   */\n      swap2\n      pop\n        /* \"#utility.yul\":895:1012   */\n      pop\n        /* \"#utility.yul\":690:1019   */\n      swap3\n      swap2\n      pop\n      pop\n      jump\t// out\n        /* \"#utility.yul\":1025:1143   */\n    tag_147:\n        /* \"#utility.yul\":1112:1136   */\n      tag_210\n        /* \"#utility.yul\":1130:1135   */\n      dup2\n        /* \"#utility.yul\":1112:1136   */\n      tag_144\n      jump\t// in\n    tag_210:\n        /* \"#utility.yul\":1107:1110   */\n      dup3\n        /* \"#utility.yul\":1100:1137   */\n      mstore\n        /* \"#utility.yul\":1025:1143   */\n      pop\n      pop\n      jump\t// out\n        /* \"#utility.yul\":1149:1371   */\n    tag_18:\n        /* \"#utility.yul\":1242:1246   */\n      0x00\n        /* \"#utility.yul\":1280:1282   */\n      0x20\n        /* \"#utility.yul\":1269:1278   */\n      dup3\n        /* \"#utility.yul\":1265:1283   */\n      add\n        /* \"#utility.yul\":1257:1283   */\n      swap1\n      pop\n        /* \"#utility.yul\":1293:1364   */\n      tag_212\n        /* \"#utility.yul\":1361:1362   */\n      0x00\n        /* \"#utility.yul\":1350:1359   */\n      dup4\n        /* \"#utility.yul\":1346:1363   */\n      add\n        /* \"#utility.yul\":1337:1343   */\n      dup5\n        /* \"#utility.yul\":1293:1364   */\n      tag_147\n      jump\t// in\n    tag_212:\n        /* \"#utility.yul\":1149:1371   */\n      swap3\n      swap2\n      pop\n      pop\n      jump\t// out\n        /* \"#utility.yul\":1377:1851   */\n    tag_21:\n        /* \"#utility.yul\":1445:1451   */\n      0x00\n        /* \"#utility.yul\":1453:1459   */\n      dup1\n        /* \"#utility.yul\":1502:1504   */\n      0x40\n        /* \"#utility.yul\":1490:1499   */\n      dup4\n        /* \"#utility.yul\":1481:1488   */\n      dup6\n        /* \"#utility.yul\":1477:1500   */\n      sub\n        /* \"#utility.yul\":1473:1505   */\n      slt\n        /* \"#utility.yul\":1470:1589   */\n      iszero\n      tag_214\n      jumpi\n        /* \"#utility.yul\":1508:1587   */\n      tag_215\n      tag_142\n      jump\t// in\n    tag_215:\n        /* \"#utility.yul\":1470:1589   */\n    tag_214:\n        /* \"#utility.yul\":1628:1629   */\n      0x00\n        /* \"#utility.yul\":1653:1706   */\n      tag_216\n        /* \"#utility.yul\":1698:1705   */\n      dup6\n        /* \"#utility.yul\":1689:1695   */\n      dup3\n        /* \"#utility.yul\":1678:1687   */\n      dup7\n        /* \"#utility.yul\":1674:1696   */\n      add\n        /* \"#utility.yul\":1653:1706   */\n      tag_146\n      jump\t// in\n    tag_216:\n        /* \"#utility.yul\":1643:1706   */\n      swap3\n      pop\n        /* \"#utility.yul\":1599:1716   */\n      pop\n        /* \"#utility.yul\":1755:1757   */\n      0x20\n        /* \"#utility.yul\":1781:1834   */\n      tag_217\n        /* \"#utility.yul\":1826:1833   */\n      dup6\n        /* \"#utility.yul\":1817:1823   */\n      dup3\n        /* \"#utility.yul\":1806:1815   */\n      dup7\n        /* \"#utility.yul\":1802:1824   */\n      add\n        /* \"#utility.yul\":1781:1834   */\n      tag_146\n      jump\t// in\n    tag_217:\n        /* \"#utility.yul\":1771:1834   */\n      swap2\n      pop\n        /* \"#utility.yul\":1726:1844   */\n      pop\n        /* \"#utility.yul\":1377:1851   */\n      swap3\n      pop\n      swap3\n      swap1\n      pop\n      jump\t// out\n        /* \"#utility.yul\":1857:1995   */\n    tag_148:\n        /* \"#utility.yul\":1948:1954   */\n      0x00\n        /* \"#utility.yul\":1982:1987   */\n      dup2\n        /* \"#utility.yul\":1976:1988   */\n      mload\n        /* \"#utility.yul\":1966:1988   */\n      swap1\n      pop\n        /* \"#utility.yul\":1857:1995   */\n      swap2\n      swap1\n      pop\n      jump\t// out\n        /* \"#utility.yul\":2001:2209   */\n    tag_149:\n        /* \"#utility.yul\":2124:2135   */\n      0x00\n        /* \"#utility.yul\":2158:2164   */\n      dup3\n        /* \"#utility.yul\":2153:2156   */\n      dup3\n        /* \"#utility.yul\":2146:2165   */\n      mstore\n        /* \"#utility.yul\":2198:2202   */\n      0x20\n        /* \"#utility.yul\":2193:2196   */\n      dup3\n        /* \"#utility.yul\":2189:2203   */\n      add\n        /* \"#utility.yul\":2174:2203   */\n      swap1\n      pop\n        /* \"#utility.yul\":2001:2209   */\n      swap3\n      swap2\n      pop\n      pop\n      jump\t// out\n        /* \"#utility.yul\":2215:2371   */\n    tag_150:\n        /* \"#utility.yul\":2306:2310   */\n      0x00\n        /* \"#utility.yul\":2329:2332   */\n      dup2\n        /* \"#utility.yul\":2321:2332   */\n      swap1\n      pop\n        /* \"#utility.yul\":2359:2363   */\n      0x20\n        /* \"#utility.yul\":2354:2357   */\n      dup3\n        /* \"#utility.yul\":2350:2364   */\n      add\n        /* \"#utility.yul\":2342:2364   */\n      swap1\n      pop\n        /* \"#utility.yul\":2215:2371   */\n      swap2\n      swap1\n      pop\n      jump\t// out\n        /* \"#utility.yul\":2377:2503   */\n    tag_151:\n        /* \"#utility.yul\":2414:2421   */\n      0x00\n        /* \"#utility.yul\":2454:2496   */\n      0xffffffffffffffffffffffffffffffffffffffff\n        /* \"#utility.yul\":2447:2452   */\n      dup3\n        /* \"#utility.yul\":2443:2497   */\n      and\n        /* \"#utility.yul\":2432:2497   */\n      swap1\n      pop\n        /* \"#utility.yul\":2377:2503   */\n      swap2\n      swap1\n      pop\n      jump\t// out\n        /* \"#utility.yul\":2509:2605   */\n    tag_152:\n        /* \"#utility.yul\":2546:2553   */\n      0x00\n        /* \"#utility.yul\":2575:2599   */\n      tag_223\n        /* \"#utility.yul\":2593:2598   */\n      dup3\n        /* \"#utility.yul\":2575:2599   */\n      tag_151\n      jump\t// in\n    tag_223:\n        /* \"#utility.yul\":2564:2599   */\n      swap1\n      pop\n        /* \"#utility.yul\":2509:2605   */\n      swap2\n      swap1\n      pop\n      jump\t// out\n        /* \"#utility.yul\":2611:2719   */\n    tag_153:\n        /* \"#utility.yul\":2688:2712   */\n      tag_225\n        /* \"#utility.yul\":2706:2711   */\n      dup2\n        /* \"#utility.yul\":2688:2712   */\n      tag_152\n      jump\t// in\n    tag_225:\n        /* \"#utility.yul\":2683:2686   */\n      dup3\n        /* \"#utility.yul\":2676:2713   */\n      mstore\n        /* \"#utility.yul\":2611:2719   */\n      pop\n      pop\n      jump\t// out\n        /* \"#utility.yul\":2725:2833   */\n    tag_154:\n        /* \"#utility.yul\":2802:2826   */\n      tag_227\n        /* \"#utility.yul\":2820:2825   */\n      dup2\n        /* \"#utility.yul\":2802:2826   */\n      tag_144\n      jump\t// in\n    tag_227:\n        /* \"#utility.yul\":2797:2800   */\n      dup3\n        /* \"#utility.yul\":2790:2827   */\n      mstore\n        /* \"#utility.yul\":2725:2833   */\n      pop\n      pop\n      jump\t// out\n        /* \"#utility.yul\":2913:3590   */\n    tag_155:\n        /* \"#utility.yul\":3048:3052   */\n      0x60\n        /* \"#utility.yul\":3043:3046   */\n      dup3\n        /* \"#utility.yul\":3039:3053   */\n      add\n        /* \"#utility.yul\":3136:3140   */\n      0x00\n        /* \"#utility.yul\":3129:3134   */\n      dup3\n        /* \"#utility.yul\":3125:3141   */\n      add\n        /* \"#utility.yul\":3119:3142   */\n      mload\n        /* \"#utility.yul\":3155:3218   */\n      tag_229\n        /* \"#utility.yul\":3212:3216   */\n      0x00\n        /* \"#utility.yul\":3207:3210   */\n      dup6\n        /* \"#utility.yul\":3203:3217   */\n      add\n        /* \"#utility.yul\":3189:3201   */\n      dup3\n        /* \"#utility.yul\":3155:3218   */\n      tag_153\n      jump\t// in\n    tag_229:\n        /* \"#utility.yul\":3063:3228   */\n      pop\n        /* \"#utility.yul\":3312:3316   */\n      0x20\n        /* \"#utility.yul\":3305:3310   */\n      dup3\n        /* \"#utility.yul\":3301:3317   */\n      add\n        /* \"#utility.yul\":3295:3318   */\n      mload\n        /* \"#utility.yul\":3331:3394   */\n      tag_230\n        /* \"#utility.yul\":3388:3392   */\n      0x20\n        /* \"#utility.yul\":3383:3386   */\n      dup6\n        /* \"#utility.yul\":3379:3393   */\n      add\n        /* \"#utility.yul\":3365:3377   */\n      dup3\n        /* \"#utility.yul\":3331:3394   */\n      tag_154\n      jump\t// in\n    tag_230:\n        /* \"#utility.yul\":3238:3404   */\n      pop\n        /* \"#utility.yul\":3491:3495   */\n      0x40\n        /* \"#utility.yul\":3484:3489   */\n      dup3\n        /* \"#utility.yul\":3480:3496   */\n      add\n        /* \"#utility.yul\":3474:3497   */\n      mload\n        /* \"#utility.yul\":3510:3573   */\n      tag_231\n        /* \"#utility.yul\":3567:3571   */\n      0x40\n        /* \"#utility.yul\":3562:3565   */\n      dup6\n        /* \"#utility.yul\":3558:3572   */\n      add\n        /* \"#utility.yul\":3544:3556   */\n      dup3\n        /* \"#utility.yul\":3510:3573   */\n      tag_154\n      jump\t// in\n    tag_231:\n        /* \"#utility.yul\":3414:3583   */\n      pop\n        /* \"#utility.yul\":3017:3590   */\n      pop\n        /* \"#utility.yul\":2913:3590   */\n      pop\n      pop\n      jump\t// out\n        /* \"#utility.yul\":3596:3871   */\n    tag_156:\n        /* \"#utility.yul\":3713:3723   */\n      0x00\n        /* \"#utility.yul\":3734:3828   */\n      tag_233\n        /* \"#utility.yul\":3824:3827   */\n      dup4\n        /* \"#utility.yul\":3816:3822   */\n      dup4\n        /* \"#utility.yul\":3734:3828   */\n      tag_155\n      jump\t// in\n    tag_233:\n        /* \"#utility.yul\":3860:3864   */\n      0x60\n        /* \"#utility.yul\":3855:3858   */\n      dup4\n        /* \"#utility.yul\":3851:3865   */\n      add\n        /* \"#utility.yul\":3837:3865   */\n      swap1\n      pop\n        /* \"#utility.yul\":3596:3871   */\n      swap3\n      swap2\n      pop\n      pop\n      jump\t// out\n        /* \"#utility.yul\":3877:4014   */\n    tag_157:\n        /* \"#utility.yul\":3971:3975   */\n      0x00\n        /* \"#utility.yul\":4003:4007   */\n      0x20\n        /* \"#utility.yul\":3998:4001   */\n      dup3\n        /* \"#utility.yul\":3994:4008   */\n      add\n        /* \"#utility.yul\":3986:4008   */\n      swap1\n      pop\n        /* \"#utility.yul\":3877:4014   */\n      swap2\n      swap1\n      pop\n      jump\t// out\n        /* \"#utility.yul\":4098:5022   */\n    tag_158:\n        /* \"#utility.yul\":4265:4268   */\n      0x00\n        /* \"#utility.yul\":4294:4372   */\n      tag_236\n        /* \"#utility.yul\":4366:4371   */\n      dup3\n        /* \"#utility.yul\":4294:4372   */\n      tag_148\n      jump\t// in\n    tag_236:\n        /* \"#utility.yul\":4388:4498   */\n      tag_237\n        /* \"#utility.yul\":4491:4497   */\n      dup2\n        /* \"#utility.yul\":4486:4489   */\n      dup6\n        /* \"#utility.yul\":4388:4498   */\n      tag_149\n      jump\t// in\n    tag_237:\n        /* \"#utility.yul\":4381:4498   */\n      swap4\n      pop\n        /* \"#utility.yul\":4522:4602   */\n      tag_238\n        /* \"#utility.yul\":4596:4601   */\n      dup4\n        /* \"#utility.yul\":4522:4602   */\n      tag_150\n      jump\t// in\n    tag_238:\n        /* \"#utility.yul\":4625:4632   */\n      dup1\n        /* \"#utility.yul\":4656:4657   */\n      0x00\n        /* \"#utility.yul\":4641:4997   */\n    tag_239:\n        /* \"#utility.yul\":4666:4672   */\n      dup4\n        /* \"#utility.yul\":4663:4664   */\n      dup2\n        /* \"#utility.yul\":4660:4673   */\n      lt\n        /* \"#utility.yul\":4641:4997   */\n      iszero\n      tag_241\n      jumpi\n        /* \"#utility.yul\":4742:4748   */\n      dup2\n        /* \"#utility.yul\":4736:4749   */\n      mload\n        /* \"#utility.yul\":4769:4880   */\n      tag_242\n        /* \"#utility.yul\":4876:4879   */\n      dup9\n        /* \"#utility.yul\":4861:4874   */\n      dup3\n        /* \"#utility.yul\":4769:4880   */\n      tag_156\n      jump\t// in\n    tag_242:\n        /* \"#utility.yul\":4762:4880   */\n      swap8\n      pop\n        /* \"#utility.yul\":4903:4987   */\n      tag_243\n        /* \"#utility.yul\":4980:4986   */\n      dup4\n        /* \"#utility.yul\":4903:4987   */\n      tag_157\n      jump\t// in\n    tag_243:\n        /* \"#utility.yul\":4893:4987   */\n      swap3\n      pop\n        /* \"#utility.yul\":4701:4997   */\n      pop\n        /* \"#utility.yul\":4688:4689   */\n      0x01\n        /* \"#utility.yul\":4685:4686   */\n      dup2\n        /* \"#utility.yul\":4681:4690   */\n      add\n        /* \"#utility.yul\":4676:4690   */\n      swap1\n      pop\n        /* \"#utility.yul\":4641:4997   */\n      jump(tag_239)\n    tag_241:\n        /* \"#utility.yul\":4645:4659   */\n      pop\n        /* \"#utility.yul\":5013:5016   */\n      dup6\n        /* \"#utility.yul\":5006:5016   */\n      swap4\n      pop\n        /* \"#utility.yul\":4270:5022   */\n      pop\n      pop\n      pop\n        /* \"#utility.yul\":4098:5022   */\n      swap3\n      swap2\n      pop\n      pop\n      jump\t// out\n        /* \"#utility.yul\":5028:5497   */\n    tag_31:\n        /* \"#utility.yul\":5219:5223   */\n      0x00\n        /* \"#utility.yul\":5257:5259   */\n      0x20\n        /* \"#utility.yul\":5246:5255   */\n      dup3\n        /* \"#utility.yul\":5242:5260   */\n      add\n        /* \"#utility.yul\":5234:5260   */\n      swap1\n      pop\n        /* \"#utility.yul\":5306:5315   */\n      dup2\n        /* \"#utility.yul\":5300:5304   */\n      dup2\n        /* \"#utility.yul\":5296:5316   */\n      sub\n        /* \"#utility.yul\":5292:5293   */\n      0x00\n        /* \"#utility.yul\":5281:5290   */\n      dup4\n        /* \"#utility.yul\":5277:5294   */\n      add\n        /* \"#utility.yul\":5270:5317   */\n      mstore\n        /* \"#utility.yul\":5334:5490   */\n      tag_245\n        /* \"#utility.yul\":5485:5489   */\n      dup2\n        /* \"#utility.yul\":5476:5482   */\n      dup5\n        /* \"#utility.yul\":5334:5490   */\n      tag_158\n      jump\t// in\n    tag_245:\n        /* \"#utility.yul\":5326:5490   */\n      swap1\n      pop\n        /* \"#utility.yul\":5028:5497   */\n      swap3\n      swap2\n      pop\n      pop\n      jump\t// out\n        /* \"#utility.yul\":5503:5621   */\n    tag_159:\n        /* \"#utility.yul\":5590:5614   */\n      tag_247\n        /* \"#utility.yul\":5608:5613   */\n      dup2\n        /* \"#utility.yul\":5590:5614   */\n      tag_152\n      jump\t// in\n    tag_247:\n        /* \"#utility.yul\":5585:5588   */\n      dup3\n        /* \"#utility.yul\":5578:5615   */\n      mstore\n        /* \"#utility.yul\":5503:5621   */\n      pop\n      pop\n      jump\t// out\n        /* \"#utility.yul\":5627:6069   */\n    tag_37:\n        /* \"#utility.yul\":5776:5780   */\n      0x00\n        /* \"#utility.yul\":5814:5816   */\n      0x60\n        /* \"#utility.yul\":5803:5812   */\n      dup3\n        /* \"#utility.yul\":5799:5817   */\n      add\n        /* \"#utility.yul\":5791:5817   */\n      swap1\n      pop\n        /* \"#utility.yul\":5827:5898   */\n      tag_249\n        /* \"#utility.yul\":5895:5896   */\n      0x00\n        /* \"#utility.yul\":5884:5893   */\n      dup4\n        /* \"#utility.yul\":5880:5897   */\n      add\n        /* \"#utility.yul\":5871:5877   */\n      dup7\n        /* \"#utility.yul\":5827:5898   */\n      tag_159\n      jump\t// in\n    tag_249:\n        /* \"#utility.yul\":5908:5980   */\n      tag_250\n        /* \"#utility.yul\":5976:5978   */\n      0x20\n        /* \"#utility.yul\":5965:5974   */\n      dup4\n        /* \"#utility.yul\":5961:5979   */\n      add\n        /* \"#utility.yul\":5952:5958   */\n      dup6\n        /* \"#utility.yul\":5908:5980   */\n      tag_147\n      jump\t// in\n    tag_250:\n        /* \"#utility.yul\":5990:6062   */\n      tag_251\n        /* \"#utility.yul\":6058:6060   */\n      0x40\n        /* \"#utility.yul\":6047:6056   */\n      dup4\n        /* \"#utility.yul\":6043:6061   */\n      add\n        /* \"#utility.yul\":6034:6040   */\n      dup5\n        /* \"#utility.yul\":5990:6062   */\n      tag_147\n      jump\t// in\n    tag_251:\n        /* \"#utility.yul\":5627:6069   */\n      swap5\n      swap4\n      pop\n      pop\n      pop\n      pop\n      jump\t// out\n        /* \"#utility.yul\":6075:6165   */\n    tag_160:\n        /* \"#utility.yul\":6109:6116   */\n      0x00\n        /* \"#utility.yul\":6152:6157   */\n      dup2\n        /* \"#utility.yul\":6145:6158   */\n      iszero\n        /* \"#utility.yul\":6138:6159   */\n      iszero\n        /* \"#utility.yul\":6127:6159   */\n      swap1\n      pop\n        /* \"#utility.yul\":6075:6165   */\n      swap2\n      swap1\n      pop\n      jump\t// out\n        /* \"#utility.yul\":6171:6280   */\n    tag_161:\n        /* \"#utility.yul\":6252:6273   */\n      tag_254\n        /* \"#utility.yul\":6267:6272   */\n      dup2\n        /* \"#utility.yul\":6252:6273   */\n      tag_160\n      jump\t// in\n    tag_254:\n        /* \"#utility.yul\":6247:6250   */\n      dup3\n        /* \"#utility.yul\":6240:6274   */\n      mstore\n        /* \"#utility.yul\":6171:6280   */\n      pop\n      pop\n      jump\t// out\n        /* \"#utility.yul\":6286:7049   */\n    tag_43:\n        /* \"#utility.yul\":6513:6517   */\n      0x00\n        /* \"#utility.yul\":6551:6554   */\n      0xc0\n        /* \"#utility.yul\":6540:6549   */\n      dup3\n        /* \"#utility.yul\":6536:6555   */\n      add\n        /* \"#utility.yul\":6528:6555   */\n      swap1\n      pop\n        /* \"#utility.yul\":6565:6636   */\n      tag_256\n        /* \"#utility.yul\":6633:6634   */\n      0x00\n        /* \"#utility.yul\":6622:6631   */\n      dup4\n        /* \"#utility.yul\":6618:6635   */\n      add\n        /* \"#utility.yul\":6609:6615   */\n      dup10\n        /* \"#utility.yul\":6565:6636   */\n      tag_147\n      jump\t// in\n    tag_256:\n        /* \"#utility.yul\":6646:6718   */\n      tag_257\n        /* \"#utility.yul\":6714:6716   */\n      0x20\n        /* \"#utility.yul\":6703:6712   */\n      dup4\n        /* \"#utility.yul\":6699:6717   */\n      add\n        /* \"#utility.yul\":6690:6696   */\n      dup9\n        /* \"#utility.yul\":6646:6718   */\n      tag_159\n      jump\t// in\n    tag_257:\n        /* \"#utility.yul\":6728:6800   */\n      tag_258\n        /* \"#utility.yul\":6796:6798   */\n      0x40\n        /* \"#utility.yul\":6785:6794   */\n      dup4\n        /* \"#utility.yul\":6781:6799   */\n      add\n        /* \"#utility.yul\":6772:6778   */\n      dup8\n        /* \"#utility.yul\":6728:6800   */\n      tag_147\n      jump\t// in\n    tag_258:\n        /* \"#utility.yul\":6810:6882   */\n      tag_259\n        /* \"#utility.yul\":6878:6880   */\n      0x60\n        /* \"#utility.yul\":6867:6876   */\n      dup4\n        /* \"#utility.yul\":6863:6881   */\n      add\n        /* \"#utility.yul\":6854:6860   */\n      dup7\n        /* \"#utility.yul\":6810:6882   */\n      tag_147\n      jump\t// in\n    tag_259:\n        /* \"#utility.yul\":6892:6965   */\n      tag_260\n        /* \"#utility.yul\":6960:6963   */\n      0x80\n        /* \"#utility.yul\":6949:6958   */\n      dup4\n        /* \"#utility.yul\":6945:6964   */\n      add\n        /* \"#utility.yul\":6936:6942   */\n      dup6\n        /* \"#utility.yul\":6892:6965   */\n      tag_147\n      jump\t// in\n    tag_260:\n        /* \"#utility.yul\":6975:7042   */\n      tag_261\n        /* \"#utility.yul\":7037:7040   */\n      0xa0\n        /* \"#utility.yul\":7026:7035   */\n      dup4\n        /* \"#utility.yul\":7022:7041   */\n      add\n        /* \"#utility.yul\":7013:7019   */\n      dup5\n        /* \"#utility.yul\":6975:7042   */\n      tag_161\n      jump\t// in\n    tag_261:\n        /* \"#utility.yul\":6286:7049   */\n      swap8\n      swap7\n      pop\n      pop\n      pop\n      pop\n      pop\n      pop\n      pop\n      jump\t// out\n        /* \"#utility.yul\":7055:7277   */\n    tag_52:\n        /* \"#utility.yul\":7148:7152   */\n      0x00\n        /* \"#utility.yul\":7186:7188   */\n      0x20\n        /* \"#utility.yul\":7175:7184   */\n      dup3\n        /* \"#utility.yul\":7171:7189   */\n      add\n        /* \"#utility.yul\":7163:7189   */\n      swap1\n      pop\n        /* \"#utility.yul\":7199:7270   */\n      tag_263\n        /* \"#utility.yul\":7267:7268   */\n      0x00\n        /* \"#utility.yul\":7256:7265   */\n      dup4\n        /* \"#utility.yul\":7252:7269   */\n      add\n        /* \"#utility.yul\":7243:7249   */\n      dup5\n        /* \"#utility.yul\":7199:7270   */\n      tag_159\n      jump\t// in\n    tag_263:\n        /* \"#utility.yul\":7055:7277   */\n      swap3\n      swap2\n      pop\n      pop\n      jump\t// out\n        /* \"#utility.yul\":7283:7405   */\n    tag_162:\n        /* \"#utility.yul\":7356:7380   */\n      tag_265\n        /* \"#utility.yul\":7374:7379   */\n      dup2\n        /* \"#utility.yul\":7356:7380   */\n      tag_152\n      jump\t// in\n    tag_265:\n        /* \"#utility.yul\":7349:7354   */\n      dup2\n        /* \"#utility.yul\":7346:7381   */\n      eq\n        /* \"#utility.yul\":7336:7399   */\n      tag_266\n      jumpi\n        /* \"#utility.yul\":7395:7396   */\n      0x00\n        /* \"#utility.yul\":7392:7393   */\n      dup1\n        /* \"#utility.yul\":7385:7397   */\n      revert\n        /* \"#utility.yul\":7336:7399   */\n    tag_266:\n        /* \"#utility.yul\":7283:7405   */\n      pop\n      jump\t// out\n        /* \"#utility.yul\":7411:7550   */\n    tag_163:\n        /* \"#utility.yul\":7457:7462   */\n      0x00\n        /* \"#utility.yul\":7495:7501   */\n      dup2\n        /* \"#utility.yul\":7482:7502   */\n      calldataload\n        /* \"#utility.yul\":7473:7502   */\n      swap1\n      pop\n        /* \"#utility.yul\":7511:7544   */\n      tag_268\n        /* \"#utility.yul\":7538:7543   */\n      dup2\n        /* \"#utility.yul\":7511:7544   */\n      tag_162\n      jump\t// in\n    tag_268:\n        /* \"#utility.yul\":7411:7550   */\n      swap3\n      swap2\n      pop\n      pop\n      jump\t// out\n        /* \"#utility.yul\":7556:8175   */\n    tag_56:\n        /* \"#utility.yul\":7633:7639   */\n      0x00\n        /* \"#utility.yul\":7641:7647   */\n      dup1\n        /* \"#utility.yul\":7649:7655   */\n      0x00\n        /* \"#utility.yul\":7698:7700   */\n      0x60\n        /* \"#utility.yul\":7686:7695   */\n      dup5\n        /* \"#utility.yul\":7677:7684   */\n      dup7\n        /* \"#utility.yul\":7673:7696   */\n      sub\n        /* \"#utility.yul\":7669:7701   */\n      slt\n        /* \"#utility.yul\":7666:7785   */\n      iszero\n      tag_270\n      jumpi\n        /* \"#utility.yul\":7704:7783   */\n      tag_271\n      tag_142\n      jump\t// in\n    tag_271:\n        /* \"#utility.yul\":7666:7785   */\n    tag_270:\n        /* \"#utility.yul\":7824:7825   */\n      0x00\n        /* \"#utility.yul\":7849:7902   */\n      tag_272\n        /* \"#utility.yul\":7894:7901   */\n      dup7\n        /* \"#utility.yul\":7885:7891   */\n      dup3\n        /* \"#utility.yul\":7874:7883   */\n      dup8\n        /* \"#utility.yul\":7870:7892   */\n      add\n        /* \"#utility.yul\":7849:7902   */\n      tag_146\n      jump\t// in\n    tag_272:\n        /* \"#utility.yul\":7839:7902   */\n      swap4\n      pop\n        /* \"#utility.yul\":7795:7912   */\n      pop\n        /* \"#utility.yul\":7951:7953   */\n      0x20\n        /* \"#utility.yul\":7977:8030   */\n      tag_273\n        /* \"#utility.yul\":8022:8029   */\n      dup7\n        /* \"#utility.yul\":8013:8019   */\n      dup3\n        /* \"#utility.yul\":8002:8011   */\n      dup8\n        /* \"#utility.yul\":7998:8020   */\n      add\n        /* \"#utility.yul\":7977:8030   */\n      tag_163\n      jump\t// in\n    tag_273:\n        /* \"#utility.yul\":7967:8030   */\n      swap3\n      pop\n        /* \"#utility.yul\":7922:8040   */\n      pop\n        /* \"#utility.yul\":8079:8081   */\n      0x40\n        /* \"#utility.yul\":8105:8158   */\n      tag_274\n        /* \"#utility.yul\":8150:8157   */\n      dup7\n        /* \"#utility.yul\":8141:8147   */\n      dup3\n        /* \"#utility.yul\":8130:8139   */\n      dup8\n        /* \"#utility.yul\":8126:8148   */\n      add\n        /* \"#utility.yul\":8105:8158   */\n      tag_146\n      jump\t// in\n    tag_274:\n        /* \"#utility.yul\":8095:8158   */\n      swap2\n      pop\n        /* \"#utility.yul\":8050:8168   */\n      pop\n        /* \"#utility.yul\":7556:8175   */\n      swap3\n      pop\n      swap3\n      pop\n      swap3\n      jump\t// out\n        /* \"#utility.yul\":8181:8350   */\n    tag_164:\n        /* \"#utility.yul\":8265:8276   */\n      0x00\n        /* \"#utility.yul\":8299:8305   */\n      dup3\n        /* \"#utility.yul\":8294:8297   */\n      dup3\n        /* \"#utility.yul\":8287:8306   */\n      mstore\n        /* \"#utility.yul\":8339:8343   */\n      0x20\n        /* \"#utility.yul\":8334:8337   */\n      dup3\n        /* \"#utility.yul\":8330:8344   */\n      add\n        /* \"#utility.yul\":8315:8344   */\n      swap1\n      pop\n        /* \"#utility.yul\":8181:8350   */\n      swap3\n      swap2\n      pop\n      pop\n      jump\t// out\n        /* \"#utility.yul\":8356:8607   */\n    tag_165:\n        /* \"#utility.yul\":8496:8530   */\n      0x4f6e6c79207468652061646d696e206f72207468652061737369676e65642072\n        /* \"#utility.yul\":8492:8493   */\n      0x00\n        /* \"#utility.yul\":8484:8490   */\n      dup3\n        /* \"#utility.yul\":8480:8494   */\n      add\n        /* \"#utility.yul\":8473:8531   */\n      mstore\n        /* \"#utility.yul\":8565:8599   */\n      0x656365697665722063616e20706572666f726d207468697320616374696f6e2e\n        /* \"#utility.yul\":8560:8562   */\n      0x20\n        /* \"#utility.yul\":8552:8558   */\n      dup3\n        /* \"#utility.yul\":8548:8563   */\n      add\n        /* \"#utility.yul\":8541:8600   */\n      mstore\n        /* \"#utility.yul\":8356:8607   */\n      pop\n      jump\t// out\n        /* \"#utility.yul\":8613:8979   */\n    tag_166:\n        /* \"#utility.yul\":8755:8758   */\n      0x00\n        /* \"#utility.yul\":8776:8843   */\n      tag_278\n        /* \"#utility.yul\":8840:8842   */\n      0x40\n        /* \"#utility.yul\":8835:8838   */\n      dup4\n        /* \"#utility.yul\":8776:8843   */\n      tag_164\n      jump\t// in\n    tag_278:\n        /* \"#utility.yul\":8769:8843   */\n      swap2\n      pop\n        /* \"#utility.yul\":8852:8945   */\n      tag_279\n        /* \"#utility.yul\":8941:8944   */\n      dup3\n        /* \"#utility.yul\":8852:8945   */\n      tag_165\n      jump\t// in\n    tag_279:\n        /* \"#utility.yul\":8970:8972   */\n      0x40\n        /* \"#utility.yul\":8965:8968   */\n      dup3\n        /* \"#utility.yul\":8961:8973   */\n      add\n        /* \"#utility.yul\":8954:8973   */\n      swap1\n      pop\n        /* \"#utility.yul\":8613:8979   */\n      swap2\n      swap1\n      pop\n      jump\t// out\n        /* \"#utility.yul\":8985:9404   */\n    tag_62:\n        /* \"#utility.yul\":9151:9155   */\n      0x00\n        /* \"#utility.yul\":9189:9191   */\n      0x20\n        /* \"#utility.yul\":9178:9187   */\n      dup3\n        /* \"#utility.yul\":9174:9192   */\n      add\n        /* \"#utility.yul\":9166:9192   */\n      swap1\n      pop\n        /* \"#utility.yul\":9238:9247   */\n      dup2\n        /* \"#utility.yul\":9232:9236   */\n      dup2\n        /* \"#utility.yul\":9228:9248   */\n      sub\n        /* \"#utility.yul\":9224:9225   */\n      0x00\n        /* \"#utility.yul\":9213:9222   */\n      dup4\n        /* \"#utility.yul\":9209:9226   */\n      add\n        /* \"#utility.yul\":9202:9249   */\n      mstore\n        /* \"#utility.yul\":9266:9397   */\n      tag_281\n        /* \"#utility.yul\":9392:9396   */\n      dup2\n        /* \"#utility.yul\":9266:9397   */\n      tag_166\n      jump\t// in\n    tag_281:\n        /* \"#utility.yul\":9258:9397   */\n      swap1\n      pop\n        /* \"#utility.yul\":8985:9404   */\n      swap2\n      swap1\n      pop\n      jump\t// out\n        /* \"#utility.yul\":9410:9579   */\n    tag_167:\n        /* \"#utility.yul\":9550:9571   */\n      0x496e76616c696420636861726974792049442e00000000000000000000000000\n        /* \"#utility.yul\":9546:9547   */\n      0x00\n        /* \"#utility.yul\":9538:9544   */\n      dup3\n        /* \"#utility.yul\":9534:9548   */\n      add\n        /* \"#utility.yul\":9527:9572   */\n      mstore\n        /* \"#utility.yul\":9410:9579   */\n      pop\n      jump\t// out\n        /* \"#utility.yul\":9585:9951   */\n    tag_168:\n        /* \"#utility.yul\":9727:9730   */\n      0x00\n        /* \"#utility.yul\":9748:9815   */\n      tag_284\n        /* \"#utility.yul\":9812:9814   */\n      0x13\n        /* \"#utility.yul\":9807:9810   */\n      dup4\n        /* \"#utility.yul\":9748:9815   */\n      tag_164\n      jump\t// in\n    tag_284:\n        /* \"#utility.yul\":9741:9815   */\n      swap2\n      pop\n        /* \"#utility.yul\":9824:9917   */\n      tag_285\n        /* \"#utility.yul\":9913:9916   */\n      dup3\n        /* \"#utility.yul\":9824:9917   */\n      tag_167\n      jump\t// in\n    tag_285:\n        /* \"#utility.yul\":9942:9944   */\n      0x20\n        /* \"#utility.yul\":9937:9940   */\n      dup3\n        /* \"#utility.yul\":9933:9945   */\n      add\n        /* \"#utility.yul\":9926:9945   */\n      swap1\n      pop\n        /* \"#utility.yul\":9585:9951   */\n      swap2\n      swap1\n      pop\n      jump\t// out\n        /* \"#utility.yul\":9957:10376   */\n    tag_67:\n        /* \"#utility.yul\":10123:10127   */\n      0x00\n        /* \"#utility.yul\":10161:10163   */\n      0x20\n        /* \"#utility.yul\":10150:10159   */\n      dup3\n        /* \"#utility.yul\":10146:10164   */\n      add\n        /* \"#utility.yul\":10138:10164   */\n      swap1\n      pop\n        /* \"#utility.yul\":10210:10219   */\n      dup2\n        /* \"#utility.yul\":10204:10208   */\n      dup2\n        /* \"#utility.yul\":10200:10220   */\n      sub\n        /* \"#utility.yul\":10196:10197   */\n      0x00\n        /* \"#utility.yul\":10185:10194   */\n      dup4\n        /* \"#utility.yul\":10181:10198   */\n      add\n        /* \"#utility.yul\":10174:10221   */\n      mstore\n        /* \"#utility.yul\":10238:10369   */\n      tag_287\n        /* \"#utility.yul\":10364:10368   */\n      dup2\n        /* \"#utility.yul\":10238:10369   */\n      tag_168\n      jump\t// in\n    tag_287:\n        /* \"#utility.yul\":10230:10369   */\n      swap1\n      pop\n        /* \"#utility.yul\":9957:10376   */\n      swap2\n      swap1\n      pop\n      jump\t// out\n        /* \"#utility.yul\":10382:10562   */\n    tag_169:\n        /* \"#utility.yul\":10522:10554   */\n      0x436861726974792072657175657374206973206e6f74206163746976652e0000\n        /* \"#utility.yul\":10518:10519   */\n      0x00\n        /* \"#utility.yul\":10510:10516   */\n      dup3\n        /* \"#utility.yul\":10506:10520   */\n      add\n        /* \"#utility.yul\":10499:10555   */\n      mstore\n        /* \"#utility.yul\":10382:10562   */\n      pop\n      jump\t// out\n        /* \"#utility.yul\":10568:10934   */\n    tag_170:\n        /* \"#utility.yul\":10710:10713   */\n      0x00\n        /* \"#utility.yul\":10731:10798   */\n      tag_290\n        /* \"#utility.yul\":10795:10797   */\n      0x1e\n        /* \"#utility.yul\":10790:10793   */\n      dup4\n        /* \"#utility.yul\":10731:10798   */\n      tag_164\n      jump\t// in\n    tag_290:\n        /* \"#utility.yul\":10724:10798   */\n      swap2\n      pop\n        /* \"#utility.yul\":10807:10900   */\n      tag_291\n        /* \"#utility.yul\":10896:10899   */\n      dup3\n        /* \"#utility.yul\":10807:10900   */\n      tag_169\n      jump\t// in\n    tag_291:\n        /* \"#utility.yul\":10925:10927   */\n      0x20\n        /* \"#utility.yul\":10920:10923   */\n      dup3\n        /* \"#utility.yul\":10916:10928   */\n      add\n        /* \"#utility.yul\":10909:10928   */\n      swap1\n      pop\n        /* \"#utility.yul\":10568:10934   */\n      swap2\n      swap1\n      pop\n      jump\t// out\n        /* \"#utility.yul\":10940:11359   */\n    tag_74:\n        /* \"#utility.yul\":11106:11110   */\n      0x00\n        /* \"#utility.yul\":11144:11146   */\n      0x20\n        /* \"#utility.yul\":11133:11142   */\n      dup3\n        /* \"#utility.yul\":11129:11147   */\n      add\n        /* \"#utility.yul\":11121:11147   */\n      swap1\n      pop\n        /* \"#utility.yul\":11193:11202   */\n      dup2\n        /* \"#utility.yul\":11187:11191   */\n      dup2\n        /* \"#utility.yul\":11183:11203   */\n      sub\n        /* \"#utility.yul\":11179:11180   */\n      0x00\n        /* \"#utility.yul\":11168:11177   */\n      dup4\n        /* \"#utility.yul\":11164:11181   */\n      add\n        /* \"#utility.yul\":11157:11204   */\n      mstore\n        /* \"#utility.yul\":11221:11352   */\n      tag_293\n        /* \"#utility.yul\":11347:11351   */\n      dup2\n        /* \"#utility.yul\":11221:11352   */\n      tag_170\n      jump\t// in\n    tag_293:\n        /* \"#utility.yul\":11213:11352   */\n      swap1\n      pop\n        /* \"#utility.yul\":10940:11359   */\n      swap2\n      swap1\n      pop\n      jump\t// out\n        /* \"#utility.yul\":11365:11594   */\n    tag_171:\n        /* \"#utility.yul\":11505:11539   */\n      0x446f6e6174696f6e20616d6f756e74206d757374206265206772656174657220\n        /* \"#utility.yul\":11501:11502   */\n      0x00\n        /* \"#utility.yul\":11493:11499   */\n      dup3\n        /* \"#utility.yul\":11489:11503   */\n      add\n        /* \"#utility.yul\":11482:11540   */\n      mstore\n        /* \"#utility.yul\":11574:11586   */\n      0x7468616e207a65726f2e00000000000000000000000000000000000000000000\n        /* \"#utility.yul\":11569:11571   */\n      0x20\n        /* \"#utility.yul\":11561:11567   */\n      dup3\n        /* \"#utility.yul\":11557:11572   */\n      add\n        /* \"#utility.yul\":11550:11587   */\n      mstore\n        /* \"#utility.yul\":11365:11594   */\n      pop\n      jump\t// out\n        /* \"#utility.yul\":11600:11966   */\n    tag_172:\n        /* \"#utility.yul\":11742:11745   */\n      0x00\n        /* \"#utility.yul\":11763:11830   */\n      tag_296\n        /* \"#utility.yul\":11827:11829   */\n      0x2a\n        /* \"#utility.yul\":11822:11825   */\n      dup4\n        /* \"#utility.yul\":11763:11830   */\n      tag_164\n      jump\t// in\n    tag_296:\n        /* \"#utility.yul\":11756:11830   */\n      swap2\n      pop\n        /* \"#utility.yul\":11839:11932   */\n      tag_297\n        /* \"#utility.yul\":11928:11931   */\n      dup3\n        /* \"#utility.yul\":11839:11932   */\n      tag_171\n      jump\t// in\n    tag_297:\n        /* \"#utility.yul\":11957:11959   */\n      0x40\n        /* \"#utility.yul\":11952:11955   */\n      dup3\n        /* \"#utility.yul\":11948:11960   */\n      add\n        /* \"#utility.yul\":11941:11960   */\n      swap1\n      pop\n        /* \"#utility.yul\":11600:11966   */\n      swap2\n      swap1\n      pop\n      jump\t// out\n        /* \"#utility.yul\":11972:12391   */\n    tag_77:\n        /* \"#utility.yul\":12138:12142   */\n      0x00\n        /* \"#utility.yul\":12176:12178   */\n      0x20\n        /* \"#utility.yul\":12165:12174   */\n      dup3\n        /* \"#utility.yul\":12161:12179   */\n      add\n        /* \"#utility.yul\":12153:12179   */\n      swap1\n      pop\n        /* \"#utility.yul\":12225:12234   */\n      dup2\n        /* \"#utility.yul\":12219:12223   */\n      dup2\n        /* \"#utility.yul\":12215:12235   */\n      sub\n        /* \"#utility.yul\":12211:12212   */\n      0x00\n        /* \"#utility.yul\":12200:12209   */\n      dup4\n        /* \"#utility.yul\":12196:12213   */\n      add\n        /* \"#utility.yul\":12189:12236   */\n      mstore\n        /* \"#utility.yul\":12253:12384   */\n      tag_299\n        /* \"#utility.yul\":12379:12383   */\n      dup2\n        /* \"#utility.yul\":12253:12384   */\n      tag_172\n      jump\t// in\n    tag_299:\n        /* \"#utility.yul\":12245:12384   */\n      swap1\n      pop\n        /* \"#utility.yul\":11972:12391   */\n      swap2\n      swap1\n      pop\n      jump\t// out\n        /* \"#utility.yul\":12397:12577   */\n    tag_173:\n        /* \"#utility.yul\":12445:12522   */\n      0x4e487b7100000000000000000000000000000000000000000000000000000000\n        /* \"#utility.yul\":12442:12443   */\n      0x00\n        /* \"#utility.yul\":12435:12523   */\n      mstore\n        /* \"#utility.yul\":12542:12546   */\n      0x11\n        /* \"#utility.yul\":12539:12540   */\n      0x04\n        /* \"#utility.yul\":12532:12547   */\n      mstore\n        /* \"#utility.yul\":12566:12570   */\n      0x24\n        /* \"#utility.yul\":12563:12564   */\n      0x00\n        /* \"#utility.yul\":12556:12571   */\n      revert\n        /* \"#utility.yul\":12583:12774   */\n    tag_79:\n        /* \"#utility.yul\":12623:12626   */\n      0x00\n        /* \"#utility.yul\":12642:12662   */\n      tag_302\n        /* \"#utility.yul\":12660:12661   */\n      dup3\n        /* \"#utility.yul\":12642:12662   */\n      tag_144\n      jump\t// in\n    tag_302:\n        /* \"#utility.yul\":12637:12662   */\n      swap2\n      pop\n        /* \"#utility.yul\":12676:12696   */\n      tag_303\n        /* \"#utility.yul\":12694:12695   */\n      dup4\n        /* \"#utility.yul\":12676:12696   */\n      tag_144\n      jump\t// in\n    tag_303:\n        /* \"#utility.yul\":12671:12696   */\n      swap3\n      pop\n        /* \"#utility.yul\":12719:12720   */\n      dup3\n        /* \"#utility.yul\":12716:12717   */\n      dup3\n        /* \"#utility.yul\":12712:12721   */\n      add\n        /* \"#utility.yul\":12705:12721   */\n      swap1\n      pop\n        /* \"#utility.yul\":12740:12743   */\n      dup1\n        /* \"#utility.yul\":12737:12738   */\n      dup3\n        /* \"#utility.yul\":12734:12744   */\n      gt\n        /* \"#utility.yul\":12731:12767   */\n      iszero\n      tag_304\n      jumpi\n        /* \"#utility.yul\":12747:12765   */\n      tag_305\n      tag_173\n      jump\t// in\n    tag_305:\n        /* \"#utility.yul\":12731:12767   */\n    tag_304:\n        /* \"#utility.yul\":12583:12774   */\n      swap3\n      swap2\n      pop\n      pop\n      jump\t// out\n        /* \"#utility.yul\":12780:13000   */\n    tag_174:\n        /* \"#utility.yul\":12920:12954   */\n      0x446f6e6174696f6e206578636565647320726571756972656420616d6f756e74\n        /* \"#utility.yul\":12916:12917   */\n      0x00\n        /* \"#utility.yul\":12908:12914   */\n      dup3\n        /* \"#utility.yul\":12904:12918   */\n      add\n        /* \"#utility.yul\":12897:12955   */\n      mstore\n        /* \"#utility.yul\":12989:12992   */\n      0x2e00000000000000000000000000000000000000000000000000000000000000\n        /* \"#utility.yul\":12984:12986   */\n      0x20\n        /* \"#utility.yul\":12976:12982   */\n      dup3\n        /* \"#utility.yul\":12972:12987   */\n      add\n        /* \"#utility.yul\":12965:12993   */\n      mstore\n        /* \"#utility.yul\":12780:13000   */\n      pop\n      jump\t// out\n        /* \"#utility.yul\":13006:13372   */\n    tag_175:\n        /* \"#utility.yul\":13148:13151   */\n      0x00\n        /* \"#utility.yul\":13169:13236   */\n      tag_308\n        /* \"#utility.yul\":13233:13235   */\n      0x21\n        /* \"#utility.yul\":13228:13231   */\n      dup4\n        /* \"#utility.yul\":13169:13236   */\n      tag_164\n      jump\t// in\n    tag_308:\n        /* \"#utility.yul\":13162:13236   */\n      swap2\n      pop\n        /* \"#utility.yul\":13245:13338   */\n      tag_309\n        /* \"#utility.yul\":13334:13337   */\n      dup3\n        /* \"#utility.yul\":13245:13338   */\n      tag_174\n      jump\t// in\n    tag_309:\n        /* \"#utility.yul\":13363:13365   */\n      0x40\n        /* \"#utility.yul\":13358:13361   */\n      dup3\n        /* \"#utility.yul\":13354:13366   */\n      add\n        /* \"#utility.yul\":13347:13366   */\n      swap1\n      pop\n        /* \"#utility.yul\":13006:13372   */\n      swap2\n      swap1\n      pop\n      jump\t// out\n        /* \"#utility.yul\":13378:13797   */\n    tag_82:\n        /* \"#utility.yul\":13544:13548   */\n      0x00\n        /* \"#utility.yul\":13582:13584   */\n      0x20\n        /* \"#utility.yul\":13571:13580   */\n      dup3\n        /* \"#utility.yul\":13567:13585   */\n      add\n        /* \"#utility.yul\":13559:13585   */\n      swap1\n      pop\n        /* \"#utility.yul\":13631:13640   */\n      dup2\n        /* \"#utility.yul\":13625:13629   */\n      dup2\n        /* \"#utility.yul\":13621:13641   */\n      sub\n        /* \"#utility.yul\":13617:13618   */\n      0x00\n        /* \"#utility.yul\":13606:13615   */\n      dup4\n        /* \"#utility.yul\":13602:13619   */\n      add\n        /* \"#utility.yul\":13595:13642   */\n      mstore\n        /* \"#utility.yul\":13659:13790   */\n      tag_311\n        /* \"#utility.yul\":13785:13789   */\n      dup2\n        /* \"#utility.yul\":13659:13790   */\n      tag_175\n      jump\t// in\n    tag_311:\n        /* \"#utility.yul\":13651:13790   */\n      swap1\n      pop\n        /* \"#utility.yul\":13378:13797   */\n      swap2\n      swap1\n      pop\n      jump\t// out\n        /* \"#utility.yul\":13803:14041   */\n    tag_176:\n        /* \"#utility.yul\":13943:13977   */\n      0x4f6e6c79207468652061737369676e65642072656365697665722063616e2070\n        /* \"#utility.yul\":13939:13940   */\n      0x00\n        /* \"#utility.yul\":13931:13937   */\n      dup3\n        /* \"#utility.yul\":13927:13941   */\n      add\n        /* \"#utility.yul\":13920:13978   */\n      mstore\n        /* \"#utility.yul\":14012:14033   */\n      0x6572666f726d207468697320616374696f6e2e00000000000000000000000000\n        /* \"#utility.yul\":14007:14009   */\n      0x20\n        /* \"#utility.yul\":13999:14005   */\n      dup3\n        /* \"#utility.yul\":13995:14010   */\n      add\n        /* \"#utility.yul\":13988:14034   */\n      mstore\n        /* \"#utility.yul\":13803:14041   */\n      pop\n      jump\t// out\n        /* \"#utility.yul\":14047:14413   */\n    tag_177:\n        /* \"#utility.yul\":14189:14192   */\n      0x00\n        /* \"#utility.yul\":14210:14277   */\n      tag_314\n        /* \"#utility.yul\":14274:14276   */\n      0x33\n        /* \"#utility.yul\":14269:14272   */\n      dup4\n        /* \"#utility.yul\":14210:14277   */\n      tag_164\n      jump\t// in\n    tag_314:\n        /* \"#utility.yul\":14203:14277   */\n      swap2\n      pop\n        /* \"#utility.yul\":14286:14379   */\n      tag_315\n        /* \"#utility.yul\":14375:14378   */\n      dup3\n        /* \"#utility.yul\":14286:14379   */\n      tag_176\n      jump\t// in\n    tag_315:\n        /* \"#utility.yul\":14404:14406   */\n      0x40\n        /* \"#utility.yul\":14399:14402   */\n      dup3\n        /* \"#utility.yul\":14395:14407   */\n      add\n        /* \"#utility.yul\":14388:14407   */\n      swap1\n      pop\n        /* \"#utility.yul\":14047:14413   */\n      swap2\n      swap1\n      pop\n      jump\t// out\n        /* \"#utility.yul\":14419:14838   */\n    tag_90:\n        /* \"#utility.yul\":14585:14589   */\n      0x00\n        /* \"#utility.yul\":14623:14625   */\n      0x20\n        /* \"#utility.yul\":14612:14621   */\n      dup3\n        /* \"#utility.yul\":14608:14626   */\n      add\n        /* \"#utility.yul\":14600:14626   */\n      swap1\n      pop\n        /* \"#utility.yul\":14672:14681   */\n      dup2\n        /* \"#utility.yul\":14666:14670   */\n      dup2\n        /* \"#utility.yul\":14662:14682   */\n      sub\n        /* \"#utility.yul\":14658:14659   */\n      0x00\n        /* \"#utility.yul\":14647:14656   */\n      dup4\n        /* \"#utility.yul\":14643:14660   */\n      add\n        /* \"#utility.yul\":14636:14683   */\n      mstore\n        /* \"#utility.yul\":14700:14831   */\n      tag_317\n        /* \"#utility.yul\":14826:14830   */\n      dup2\n        /* \"#utility.yul\":14700:14831   */\n      tag_177\n      jump\t// in\n    tag_317:\n        /* \"#utility.yul\":14692:14831   */\n      swap1\n      pop\n        /* \"#utility.yul\":14419:14838   */\n      swap2\n      swap1\n      pop\n      jump\t// out\n        /* \"#utility.yul\":14844:15075   */\n    tag_178:\n        /* \"#utility.yul\":14984:15018   */\n      0x5769746864726177616c20616d6f756e74206d75737420626520677265617465\n        /* \"#utility.yul\":14980:14981   */\n      0x00\n        /* \"#utility.yul\":14972:14978   */\n      dup3\n        /* \"#utility.yul\":14968:14982   */\n      add\n        /* \"#utility.yul\":14961:15019   */\n      mstore\n        /* \"#utility.yul\":15053:15067   */\n      0x72207468616e207a65726f2e0000000000000000000000000000000000000000\n        /* \"#utility.yul\":15048:15050   */\n      0x20\n        /* \"#utility.yul\":15040:15046   */\n      dup3\n        /* \"#utility.yul\":15036:15051   */\n      add\n        /* \"#utility.yul\":15029:15068   */\n      mstore\n        /* \"#utility.yul\":14844:15075   */\n      pop\n      jump\t// out\n        /* \"#utility.yul\":15081:15447   */\n    tag_179:\n        /* \"#utility.yul\":15223:15226   */\n      0x00\n        /* \"#utility.yul\":15244:15311   */\n      tag_320\n        /* \"#utility.yul\":15308:15310   */\n      0x2c\n        /* \"#utility.yul\":15303:15306   */\n      dup4\n        /* \"#utility.yul\":15244:15311   */\n      tag_164\n      jump\t// in\n    tag_320:\n        /* \"#utility.yul\":15237:15311   */\n      swap2\n      pop\n        /* \"#utility.yul\":15320:15413   */\n      tag_321\n        /* \"#utility.yul\":15409:15412   */\n      dup3\n        /* \"#utility.yul\":15320:15413   */\n      tag_178\n      jump\t// in\n    tag_321:\n        /* \"#utility.yul\":15438:15440   */\n      0x40\n        /* \"#utility.yul\":15433:15436   */\n      dup3\n        /* \"#utility.yul\":15429:15441   */\n      add\n        /* \"#utility.yul\":15422:15441   */\n      swap1\n      pop\n        /* \"#utility.yul\":15081:15447   */\n      swap2\n      swap1\n      pop\n      jump\t// out\n        /* \"#utility.yul\":15453:15872   */\n    tag_97:\n        /* \"#utility.yul\":15619:15623   */\n      0x00\n        /* \"#utility.yul\":15657:15659   */\n      0x20\n        /* \"#utility.yul\":15646:15655   */\n      dup3\n        /* \"#utility.yul\":15642:15660   */\n      add\n        /* \"#utility.yul\":15634:15660   */\n      swap1\n      pop\n        /* \"#utility.yul\":15706:15715   */\n      dup2\n        /* \"#utility.yul\":15700:15704   */\n      dup2\n        /* \"#utility.yul\":15696:15716   */\n      sub\n        /* \"#utility.yul\":15692:15693   */\n      0x00\n        /* \"#utility.yul\":15681:15690   */\n      dup4\n        /* \"#utility.yul\":15677:15694   */\n      add\n        /* \"#utility.yul\":15670:15717   */\n      mstore\n        /* \"#utility.yul\":15734:15865   */\n      tag_323\n        /* \"#utility.yul\":15860:15864   */\n      dup2\n        /* \"#utility.yul\":15734:15865   */\n      tag_179\n      jump\t// in\n    tag_323:\n        /* \"#utility.yul\":15726:15865   */\n      swap1\n      pop\n        /* \"#utility.yul\":15453:15872   */\n      swap2\n      swap1\n      pop\n      jump\t// out\n        /* \"#utility.yul\":15878:16049   */\n    tag_180:\n        /* \"#utility.yul\":16018:16041   */\n      0x496e73756666696369656e742062616c616e63652e0000000000000000000000\n        /* \"#utility.yul\":16014:16015   */\n      0x00\n        /* \"#utility.yul\":16006:16012   */\n      dup3\n        /* \"#utility.yul\":16002:16016   */\n      add\n        /* \"#utility.yul\":15995:16042   */\n      mstore\n        /* \"#utility.yul\":15878:16049   */\n      pop\n      jump\t// out\n        /* \"#utility.yul\":16055:16421   */\n    tag_181:\n        /* \"#utility.yul\":16197:16200   */\n      0x00\n        /* \"#utility.yul\":16218:16285   */\n      tag_326\n        /* \"#utility.yul\":16282:16284   */\n      0x15\n        /* \"#utility.yul\":16277:16280   */\n      dup4\n        /* \"#utility.yul\":16218:16285   */\n      tag_164\n      jump\t// in\n    tag_326:\n        /* \"#utility.yul\":16211:16285   */\n      swap2\n      pop\n        /* \"#utility.yul\":16294:16387   */\n      tag_327\n        /* \"#utility.yul\":16383:16386   */\n      dup3\n        /* \"#utility.yul\":16294:16387   */\n      tag_180\n      jump\t// in\n    tag_327:\n        /* \"#utility.yul\":16412:16414   */\n      0x20\n        /* \"#utility.yul\":16407:16410   */\n      dup3\n        /* \"#utility.yul\":16403:16415   */\n      add\n        /* \"#utility.yul\":16396:16415   */\n      swap1\n      pop\n        /* \"#utility.yul\":16055:16421   */\n      swap2\n      swap1\n      pop\n      jump\t// out\n        /* \"#utility.yul\":16427:16846   */\n    tag_100:\n        /* \"#utility.yul\":16593:16597   */\n      0x00\n        /* \"#utility.yul\":16631:16633   */\n      0x20\n        /* \"#utility.yul\":16620:16629   */\n      dup3\n        /* \"#utility.yul\":16616:16634   */\n      add\n        /* \"#utility.yul\":16608:16634   */\n      swap1\n      pop\n        /* \"#utility.yul\":16680:16689   */\n      dup2\n        /* \"#utility.yul\":16674:16678   */\n      dup2\n        /* \"#utility.yul\":16670:16690   */\n      sub\n        /* \"#utility.yul\":16666:16667   */\n      0x00\n        /* \"#utility.yul\":16655:16664   */\n      dup4\n        /* \"#utility.yul\":16651:16668   */\n      add\n        /* \"#utility.yul\":16644:16691   */\n      mstore\n        /* \"#utility.yul\":16708:16839   */\n      tag_329\n        /* \"#utility.yul\":16834:16838   */\n      dup2\n        /* \"#utility.yul\":16708:16839   */\n      tag_181\n      jump\t// in\n    tag_329:\n        /* \"#utility.yul\":16700:16839   */\n      swap1\n      pop\n        /* \"#utility.yul\":16427:16846   */\n      swap2\n      swap1\n      pop\n      jump\t// out\n        /* \"#utility.yul\":16852:17046   */\n    tag_102:\n        /* \"#utility.yul\":16892:16896   */\n      0x00\n        /* \"#utility.yul\":16912:16932   */\n      tag_331\n        /* \"#utility.yul\":16930:16931   */\n      dup3\n        /* \"#utility.yul\":16912:16932   */\n      tag_144\n      jump\t// in\n    tag_331:\n        /* \"#utility.yul\":16907:16932   */\n      swap2\n      pop\n        /* \"#utility.yul\":16946:16966   */\n      tag_332\n        /* \"#utility.yul\":16964:16965   */\n      dup4\n        /* \"#utility.yul\":16946:16966   */\n      tag_144\n      jump\t// in\n    tag_332:\n        /* \"#utility.yul\":16941:16966   */\n      swap3\n      pop\n        /* \"#utility.yul\":16990:16991   */\n      dup3\n        /* \"#utility.yul\":16987:16988   */\n      dup3\n        /* \"#utility.yul\":16983:16992   */\n      sub\n        /* \"#utility.yul\":16975:16992   */\n      swap1\n      pop\n        /* \"#utility.yul\":17014:17015   */\n      dup2\n        /* \"#utility.yul\":17008:17012   */\n      dup2\n        /* \"#utility.yul\":17005:17016   */\n      gt\n        /* \"#utility.yul\":17002:17039   */\n      iszero\n      tag_333\n      jumpi\n        /* \"#utility.yul\":17019:17037   */\n      tag_334\n      tag_173\n      jump\t// in\n    tag_334:\n        /* \"#utility.yul\":17002:17039   */\n    tag_333:\n        /* \"#utility.yul\":16852:17046   */\n      swap3\n      swap2\n      pop\n      pop\n      jump\t// out\n        /* \"#utility.yul\":17052:17199   */\n    tag_182:\n        /* \"#utility.yul\":17153:17164   */\n      0x00\n        /* \"#utility.yul\":17190:17193   */\n      dup2\n        /* \"#utility.yul\":17175:17193   */\n      swap1\n      pop\n        /* \"#utility.yul\":17052:17199   */\n      swap3\n      swap2\n      pop\n      pop\n      jump\t// out\n        /* \"#utility.yul\":17205:17319   */\n    tag_183:\n      pop\n      jump\t// out\n        /* \"#utility.yul\":17325:17723   */\n    tag_184:\n        /* \"#utility.yul\":17484:17487   */\n      0x00\n        /* \"#utility.yul\":17505:17588   */\n      tag_338\n        /* \"#utility.yul\":17586:17587   */\n      0x00\n        /* \"#utility.yul\":17581:17584   */\n      dup4\n        /* \"#utility.yul\":17505:17588   */\n      tag_182\n      jump\t// in\n    tag_338:\n        /* \"#utility.yul\":17498:17588   */\n      swap2\n      pop\n        /* \"#utility.yul\":17597:17690   */\n      tag_339\n        /* \"#utility.yul\":17686:17689   */\n      dup3\n        /* \"#utility.yul\":17597:17690   */\n      tag_183\n      jump\t// in\n    tag_339:\n        /* \"#utility.yul\":17715:17716   */\n      0x00\n        /* \"#utility.yul\":17710:17713   */\n      dup3\n        /* \"#utility.yul\":17706:17717   */\n      add\n        /* \"#utility.yul\":17699:17717   */\n      swap1\n      pop\n        /* \"#utility.yul\":17325:17723   */\n      swap2\n      swap1\n      pop\n      jump\t// out\n        /* \"#utility.yul\":17729:18108   */\n    tag_104:\n        /* \"#utility.yul\":17913:17916   */\n      0x00\n        /* \"#utility.yul\":17935:18082   */\n      tag_341\n        /* \"#utility.yul\":18078:18081   */\n      dup3\n        /* \"#utility.yul\":17935:18082   */\n      tag_184\n      jump\t// in\n    tag_341:\n        /* \"#utility.yul\":17928:18082   */\n      swap2\n      pop\n        /* \"#utility.yul\":18099:18102   */\n      dup2\n        /* \"#utility.yul\":18092:18102   */\n      swap1\n      pop\n        /* \"#utility.yul\":17729:18108   */\n      swap2\n      swap1\n      pop\n      jump\t// out\n        /* \"#utility.yul\":18114:18282   */\n    tag_185:\n        /* \"#utility.yul\":18254:18274   */\n      0x5769746864726177616c206661696c65642e0000000000000000000000000000\n        /* \"#utility.yul\":18250:18251   */\n      0x00\n        /* \"#utility.yul\":18242:18248   */\n      dup3\n        /* \"#utility.yul\":18238:18252   */\n      add\n        /* \"#utility.yul\":18231:18275   */\n      mstore\n        /* \"#utility.yul\":18114:18282   */\n      pop\n      jump\t// out\n        /* \"#utility.yul\":18288:18654   */\n    tag_186:\n        /* \"#utility.yul\":18430:18433   */\n      0x00\n        /* \"#utility.yul\":18451:18518   */\n      tag_344\n        /* \"#utility.yul\":18515:18517   */\n      0x12\n        /* \"#utility.yul\":18510:18513   */\n      dup4\n        /* \"#utility.yul\":18451:18518   */\n      tag_164\n      jump\t// in\n    tag_344:\n        /* \"#utility.yul\":18444:18518   */\n      swap2\n      pop\n        /* \"#utility.yul\":18527:18620   */\n      tag_345\n        /* \"#utility.yul\":18616:18619   */\n      dup3\n        /* \"#utility.yul\":18527:18620   */\n      tag_185\n      jump\t// in\n    tag_345:\n        /* \"#utility.yul\":18645:18647   */\n      0x20\n        /* \"#utility.yul\":18640:18643   */\n      dup3\n        /* \"#utility.yul\":18636:18648   */\n      add\n        /* \"#utility.yul\":18629:18648   */\n      swap1\n      pop\n        /* \"#utility.yul\":18288:18654   */\n      swap2\n      swap1\n      pop\n      jump\t// out\n        /* \"#utility.yul\":18660:19079   */\n    tag_110:\n        /* \"#utility.yul\":18826:18830   */\n      0x00\n        /* \"#utility.yul\":18864:18866   */\n      0x20\n        /* \"#utility.yul\":18853:18862   */\n      dup3\n        /* \"#utility.yul\":18849:18867   */\n      add\n        /* \"#utility.yul\":18841:18867   */\n      swap1\n      pop\n        /* \"#utility.yul\":18913:18922   */\n      dup2\n        /* \"#utility.yul\":18907:18911   */\n      dup2\n        /* \"#utility.yul\":18903:18923   */\n      sub\n        /* \"#utility.yul\":18899:18900   */\n      0x00\n        /* \"#utility.yul\":18888:18897   */\n      dup4\n        /* \"#utility.yul\":18884:18901   */\n      add\n        /* \"#utility.yul\":18877:18924   */\n      mstore\n        /* \"#utility.yul\":18941:19072   */\n      tag_347\n        /* \"#utility.yul\":19067:19071   */\n      dup2\n        /* \"#utility.yul\":18941:19072   */\n      tag_186\n      jump\t// in\n    tag_347:\n        /* \"#utility.yul\":18933:19072   */\n      swap1\n      pop\n        /* \"#utility.yul\":18660:19079   */\n      swap2\n      swap1\n      pop\n      jump\t// out\n        /* \"#utility.yul\":19085:19311   */\n    tag_187:\n        /* \"#utility.yul\":19225:19259   */\n      0x4f6e6c79207468652061646d696e2063616e20706572666f726d207468697320\n        /* \"#utility.yul\":19221:19222   */\n      0x00\n        /* \"#utility.yul\":19213:19219   */\n      dup3\n        /* \"#utility.yul\":19209:19223   */\n      add\n        /* \"#utility.yul\":19202:19260   */\n      mstore\n        /* \"#utility.yul\":19294:19303   */\n      0x616374696f6e2e00000000000000000000000000000000000000000000000000\n        /* \"#utility.yul\":19289:19291   */\n      0x20\n        /* \"#utility.yul\":19281:19287   */\n      dup3\n        /* \"#utility.yul\":19277:19292   */\n      add\n        /* \"#utility.yul\":19270:19304   */\n      mstore\n        /* \"#utility.yul\":19085:19311   */\n      pop\n      jump\t// out\n        /* \"#utility.yul\":19317:19683   */\n    tag_188:\n        /* \"#utility.yul\":19459:19462   */\n      0x00\n        /* \"#utility.yul\":19480:19547   */\n      tag_350\n        /* \"#utility.yul\":19544:19546   */\n      0x27\n        /* \"#utility.yul\":19539:19542   */\n      dup4\n        /* \"#utility.yul\":19480:19547   */\n      tag_164\n      jump\t// in\n    tag_350:\n        /* \"#utility.yul\":19473:19547   */\n      swap2\n      pop\n        /* \"#utility.yul\":19556:19649   */\n      tag_351\n        /* \"#utility.yul\":19645:19648   */\n      dup3\n        /* \"#utility.yul\":19556:19649   */\n      tag_187\n      jump\t// in\n    tag_351:\n        /* \"#utility.yul\":19674:19676   */\n      0x40\n        /* \"#utility.yul\":19669:19672   */\n      dup3\n        /* \"#utility.yul\":19665:19677   */\n      add\n        /* \"#utility.yul\":19658:19677   */\n      swap1\n      pop\n        /* \"#utility.yul\":19317:19683   */\n      swap2\n      swap1\n      pop\n      jump\t// out\n        /* \"#utility.yul\":19689:20108   */\n    tag_115:\n        /* \"#utility.yul\":19855:19859   */\n      0x00\n        /* \"#utility.yul\":19893:19895   */\n      0x20\n        /* \"#utility.yul\":19882:19891   */\n      dup3\n        /* \"#utility.yul\":19878:19896   */\n      add\n        /* \"#utility.yul\":19870:19896   */\n      swap1\n      pop\n        /* \"#utility.yul\":19942:19951   */\n      dup2\n        /* \"#utility.yul\":19936:19940   */\n      dup2\n        /* \"#utility.yul\":19932:19952   */\n      sub\n        /* \"#utility.yul\":19928:19929   */\n      0x00\n        /* \"#utility.yul\":19917:19926   */\n      dup4\n        /* \"#utility.yul\":19913:19930   */\n      add\n        /* \"#utility.yul\":19906:19953   */\n      mstore\n        /* \"#utility.yul\":19970:20101   */\n      tag_353\n        /* \"#utility.yul\":20096:20100   */\n      dup2\n        /* \"#utility.yul\":19970:20101   */\n      tag_188\n      jump\t// in\n    tag_353:\n        /* \"#utility.yul\":19962:20101   */\n      swap1\n      pop\n        /* \"#utility.yul\":19689:20108   */\n      swap2\n      swap1\n      pop\n      jump\t// out\n        /* \"#utility.yul\":20114:20296   */\n    tag_189:\n        /* \"#utility.yul\":20254:20288   */\n      0x526563656976657220616464726573732063616e6e6f74206265207a65726f2e\n        /* \"#utility.yul\":20250:20251   */\n      0x00\n        /* \"#utility.yul\":20242:20248   */\n      dup3\n        /* \"#utility.yul\":20238:20252   */\n      add\n        /* \"#utility.yul\":20231:20289   */\n      mstore\n        /* \"#utility.yul\":20114:20296   */\n      pop\n      jump\t// out\n        /* \"#utility.yul\":20302:20668   */\n    tag_190:\n        /* \"#utility.yul\":20444:20447   */\n      0x00\n        /* \"#utility.yul\":20465:20532   */\n      tag_356\n        /* \"#utility.yul\":20529:20531   */\n      0x20\n        /* \"#utility.yul\":20524:20527   */\n      dup4\n        /* \"#utility.yul\":20465:20532   */\n      tag_164\n      jump\t// in\n    tag_356:\n        /* \"#utility.yul\":20458:20532   */\n      swap2\n      pop\n        /* \"#utility.yul\":20541:20634   */\n      tag_357\n        /* \"#utility.yul\":20630:20633   */\n      dup3\n        /* \"#utility.yul\":20541:20634   */\n      tag_189\n      jump\t// in\n    tag_357:\n        /* \"#utility.yul\":20659:20661   */\n      0x20\n        /* \"#utility.yul\":20654:20657   */\n      dup3\n        /* \"#utility.yul\":20650:20662   */\n      add\n        /* \"#utility.yul\":20643:20662   */\n      swap1\n      pop\n        /* \"#utility.yul\":20302:20668   */\n      swap2\n      swap1\n      pop\n      jump\t// out\n        /* \"#utility.yul\":20674:21093   */\n    tag_131:\n        /* \"#utility.yul\":20840:20844   */\n      0x00\n        /* \"#utility.yul\":20878:20880   */\n      0x20\n        /* \"#utility.yul\":20867:20876   */\n      dup3\n        /* \"#utility.yul\":20863:20881   */\n      add\n        /* \"#utility.yul\":20855:20881   */\n      swap1\n      pop\n        /* \"#utility.yul\":20927:20936   */\n      dup2\n        /* \"#utility.yul\":20921:20925   */\n      dup2\n        /* \"#utility.yul\":20917:20937   */\n      sub\n        /* \"#utility.yul\":20913:20914   */\n      0x00\n        /* \"#utility.yul\":20902:20911   */\n      dup4\n        /* \"#utility.yul\":20898:20915   */\n      add\n        /* \"#utility.yul\":20891:20938   */\n      mstore\n        /* \"#utility.yul\":20955:21086   */\n      tag_359\n        /* \"#utility.yul\":21081:21085   */\n      dup2\n        /* \"#utility.yul\":20955:21086   */\n      tag_190\n      jump\t// in\n    tag_359:\n        /* \"#utility.yul\":20947:21086   */\n      swap1\n      pop\n        /* \"#utility.yul\":20674:21093   */\n      swap2\n      swap1\n      pop\n      jump\t// out\n        /* \"#utility.yul\":21099:21327   */\n    tag_191:\n        /* \"#utility.yul\":21239:21273   */\n      0x4d6178696d756d20616d6f756e74206d75737420626520677265617465722074\n        /* \"#utility.yul\":21235:21236   */\n      0x00\n        /* \"#utility.yul\":21227:21233   */\n      dup3\n        /* \"#utility.yul\":21223:21237   */\n      add\n        /* \"#utility.yul\":21216:21274   */\n      mstore\n        /* \"#utility.yul\":21308:21319   */\n      0x68616e207a65726f2e0000000000000000000000000000000000000000000000\n        /* \"#utility.yul\":21303:21305   */\n      0x20\n        /* \"#utility.yul\":21295:21301   */\n      dup3\n        /* \"#utility.yul\":21291:21306   */\n      add\n        /* \"#utility.yul\":21284:21320   */\n      mstore\n        /* \"#utility.yul\":21099:21327   */\n      pop\n      jump\t// out\n        /* \"#utility.yul\":21333:21699   */\n    tag_192:\n        /* \"#utility.yul\":21475:21478   */\n      0x00\n        /* \"#utility.yul\":21496:21563   */\n      tag_362\n        /* \"#utility.yul\":21560:21562   */\n      0x29\n        /* \"#utility.yul\":21555:21558   */\n      dup4\n        /* \"#utility.yul\":21496:21563   */\n      tag_164\n      jump\t// in\n    tag_362:\n        /* \"#utility.yul\":21489:21563   */\n      swap2\n      pop\n        /* \"#utility.yul\":21572:21665   */\n      tag_363\n        /* \"#utility.yul\":21661:21664   */\n      dup3\n        /* \"#utility.yul\":21572:21665   */\n      tag_191\n      jump\t// in\n    tag_363:\n        /* \"#utility.yul\":21690:21692   */\n      0x40\n        /* \"#utility.yul\":21685:21688   */\n      dup3\n        /* \"#utility.yul\":21681:21693   */\n      add\n        /* \"#utility.yul\":21674:21693   */\n      swap1\n      pop\n        /* \"#utility.yul\":21333:21699   */\n      swap2\n      swap1\n      pop\n      jump\t// out\n        /* \"#utility.yul\":21705:22124   */\n    tag_134:\n        /* \"#utility.yul\":21871:21875   */\n      0x00\n        /* \"#utility.yul\":21909:21911   */\n      0x20\n        /* \"#utility.yul\":21898:21907   */\n      dup3\n        /* \"#utility.yul\":21894:21912   */\n      add\n        /* \"#utility.yul\":21886:21912   */\n      swap1\n      pop\n        /* \"#utility.yul\":21958:21967   */\n      dup2\n        /* \"#utility.yul\":21952:21956   */\n      dup2\n        /* \"#utility.yul\":21948:21968   */\n      sub\n        /* \"#utility.yul\":21944:21945   */\n      0x00\n        /* \"#utility.yul\":21933:21942   */\n      dup4\n        /* \"#utility.yul\":21929:21946   */\n      add\n        /* \"#utility.yul\":21922:21969   */\n      mstore\n        /* \"#utility.yul\":21986:22117   */\n      tag_365\n        /* \"#utility.yul\":22112:22116   */\n      dup2\n        /* \"#utility.yul\":21986:22117   */\n      tag_192\n      jump\t// in\n    tag_365:\n        /* \"#utility.yul\":21978:22117   */\n      swap1\n      pop\n        /* \"#utility.yul\":21705:22124   */\n      swap2\n      swap1\n      pop\n      jump\t// out\n        /* \"#utility.yul\":22130:22306   */\n    tag_193:\n        /* \"#utility.yul\":22270:22298   */\n      0x4368617269747920494420616c7265616479206578697374732e000000000000\n        /* \"#utility.yul\":22266:22267   */\n      0x00\n        /* \"#utility.yul\":22258:22264   */\n      dup3\n        /* \"#utility.yul\":22254:22268   */\n      add\n        /* \"#utility.yul\":22247:22299   */\n      mstore\n        /* \"#utility.yul\":22130:22306   */\n      pop\n      jump\t// out\n        /* \"#utility.yul\":22312:22678   */\n    tag_194:\n        /* \"#utility.yul\":22454:22457   */\n      0x00\n        /* \"#utility.yul\":22475:22542   */\n      tag_368\n        /* \"#utility.yul\":22539:22541   */\n      0x1a\n        /* \"#utility.yul\":22534:22537   */\n      dup4\n        /* \"#utility.yul\":22475:22542   */\n      tag_164\n      jump\t// in\n    tag_368:\n        /* \"#utility.yul\":22468:22542   */\n      swap2\n      pop\n        /* \"#utility.yul\":22551:22644   */\n      tag_369\n        /* \"#utility.yul\":22640:22643   */\n      dup3\n        /* \"#utility.yul\":22551:22644   */\n      tag_193\n      jump\t// in\n    tag_369:\n        /* \"#utility.yul\":22669:22671   */\n      0x20\n        /* \"#utility.yul\":22664:22667   */\n      dup3\n        /* \"#utility.yul\":22660:22672   */\n      add\n        /* \"#utility.yul\":22653:22672   */\n      swap1\n      pop\n        /* \"#utility.yul\":22312:22678   */\n      swap2\n      swap1\n      pop\n      jump\t// out\n        /* \"#utility.yul\":22684:23103   */\n    tag_137:\n        /* \"#utility.yul\":22850:22854   */\n      0x00\n        /* \"#utility.yul\":22888:22890   */\n      0x20\n        /* \"#utility.yul\":22877:22886   */\n      dup3\n        /* \"#utility.yul\":22873:22891   */\n      add\n        /* \"#utility.yul\":22865:22891   */\n      swap1\n      pop\n        /* \"#utility.yul\":22937:22946   */\n      dup2\n        /* \"#utility.yul\":22931:22935   */\n      dup2\n        /* \"#utility.yul\":22927:22947   */\n      sub\n        /* \"#utility.yul\":22923:22924   */\n      0x00\n        /* \"#utility.yul\":22912:22921   */\n      dup4\n        /* \"#utility.yul\":22908:22925   */\n      add\n        /* \"#utility.yul\":22901:22948   */\n      mstore\n        /* \"#utility.yul\":22965:23096   */\n      tag_371\n        /* \"#utility.yul\":23091:23095   */\n      dup2\n        /* \"#utility.yul\":22965:23096   */\n      tag_194\n      jump\t// in\n    tag_371:\n        /* \"#utility.yul\":22957:23096   */\n      swap1\n      pop\n        /* \"#utility.yul\":22684:23103   */\n      swap2\n      swap1\n      pop\n      jump\t// out\n        /* \"#utility.yul\":23109:23342   */\n    tag_139:\n        /* \"#utility.yul\":23148:23151   */\n      0x00\n        /* \"#utility.yul\":23171:23195   */\n      tag_373\n        /* \"#utility.yul\":23189:23194   */\n      dup3\n        /* \"#utility.yul\":23171:23195   */\n      tag_144\n      jump\t// in\n    tag_373:\n        /* \"#utility.yul\":23162:23195   */\n      swap2\n      pop\n        /* \"#utility.yul\":23217:23283   */\n      0xffffffffffffffffffffffffffffffffffffffffffffffffffffffffffffffff\n        /* \"#utility.yul\":23210:23215   */\n      dup3\n        /* \"#utility.yul\":23207:23284   */\n      sub\n        /* \"#utility.yul\":23204:23307   */\n      tag_374\n      jumpi\n        /* \"#utility.yul\":23287:23305   */\n      tag_375\n      tag_173\n      jump\t// in\n    tag_375:\n        /* \"#utility.yul\":23204:23307   */\n    tag_374:\n        /* \"#utility.yul\":23334:23335   */\n      0x01\n        /* \"#utility.yul\":23327:23332   */\n      dup3\n        /* \"#utility.yul\":23323:23336   */\n      add\n        /* \"#utility.yul\":23316:23336   */\n      swap1\n      pop\n        /* \"#utility.yul\":23109:23342   */\n      swap2\n      swap1\n      pop\n      jump\t// out\n\n    auxdata: 0xa26469706673582212205cdd80e41264c392f92347ec5ca37935d4f20fe6da7e943b175b7ca24fed3a1664736f6c634300081a0033\n}\n",
				"bytecode": {
					"linkReferences": {},
					"object": "6080604052348015600e575f80fd5b50335f806101000a81548173ffffffffffffffffffffffffffffffffffffffff021916908373ffffffffffffffffffffffffffffffffffffffff1602179055506119c68061005b5f395ff3fe608060405260043610610085575f3560e01c80635cbbb574116100585780635cbbb574146101395780635effffa91461017757806391329493146101b8578063f851a440146101e2578063ffded55d1461020c57610085565b806305d63070146100895780630cdd53f6146100c5578063441a3e70146100e1578063596d9ce2146100fd575b5f80fd5b348015610094575f80fd5b506100af60048036038101906100aa9190610edc565b610234565b6040516100bc9190610f16565b60405180910390f35b6100df60048036038101906100da9190610f2f565b6103aa565b005b6100fb60048036038101906100f69190610f2f565b610651565b005b348015610108575f80fd5b50610123600480360381019061011e9190610edc565b610915565b60405161013091906110a3565b60405180910390f35b348015610144575f80fd5b5061015f600480360381019061015a9190610f2f565b610ad8565b60405161016e939291906110d2565b60405180910390f35b348015610182575f80fd5b5061019d60048036038101906101989190610edc565b610b37565b6040516101af96959493929190611121565b60405180910390f35b3480156101c3575f80fd5b506101cc610b9a565b6040516101d99190610f16565b60405180910390f35b3480156101ed575f80fd5b506101f6610ba0565b6040516102039190611180565b60405180910390f35b348015610217575f80fd5b50610232600480360381019061022d91906111c3565b610bc3565b005b5f815f8054906101000a900473ffffffffffffffffffffffffffffffffffffffff1673ffffffffffffffffffffffffffffffffffffffff163373ffffffffffffffffffffffffffffffffffffffff1614806102ed575060015f8281526020019081526020015f206001015f9054906101000a900473ffffffffffffffffffffffffffffffffffffffff1673ffffffffffffffffffffffffffffffffffffffff163373ffffffffffffffffffffffffffffffffffffffff16145b61032c576040517f08c379a000000000000000000000000000000000000000000000000000000000815260040161032390611293565b60405180910390fd5b5f8311801561034e57505f60015f8581526020019081526020015f205f015414155b61038d576040517f08c379a0000000000000000000000000000000000000000000000000000000008152600401610384906112fb565b60405180910390fd5b60015f8481526020019081526020015f2060040154915050919050565b5f821180156103cc57505f60015f8481526020019081526020015f205f015414155b61040b576040517f08c379a0000000000000000000000000000000000000000000000000000000008152600401610402906112fb565b60405180910390fd5b5f60015f8481526020019081526020015f209050806005015f9054906101000a900460ff1661046f576040517f08c379a000000000000000000000000000000000000000000000000000000000815260040161046690611363565b60405180910390fd5b5f82116104b1576040517f08c379a00000000000000000000000000000000000000000000000000000000081526004016104a8906113f1565b60405180910390fd5b80600201548282600301546104c6919061143c565b1115610507576040517f08c379a00000000000000000000000000000000000000000000000000000000081526004016104fe906114df565b60405180910390fd5b81816003015f82825461051a919061143c565b9250508190555081816004015f828254610534919061143c565b9250508190555060025f8481526020019081526020015f2060405180606001604052803373ffffffffffffffffffffffffffffffffffffffff16815260200184815260200142815250908060018154018082558091505060019003905f5260205f2090600302015f909190919091505f820151815f015f6101000a81548173ffffffffffffffffffffffffffffffffffffffff021916908373ffffffffffffffffffffffffffffffffffffffff160217905550602082015181600101556040820151816002015550503373ffffffffffffffffffffffffffffffffffffffff16837f0b5b4c52969ff7329ecf7ee536409fda87812b15a8622bc6e8cdeab3aee14a26846040516106449190610f16565b60405180910390a3505050565b8160015f8281526020019081526020015f206001015f9054906101000a900473ffffffffffffffffffffffffffffffffffffffff1673ffffffffffffffffffffffffffffffffffffffff163373ffffffffffffffffffffffffffffffffffffffff16146106f3576040517f08c379a00000000000000000000000000000000000000000000000000000000081526004016106ea9061156d565b60405180910390fd5b5f8311801561071557505f60015f8581526020019081526020015f205f015414155b610754576040517f08c379a000000000000000000000000000000000000000000000000000000000815260040161074b906112fb565b60405180910390fd5b5f60015f8581526020019081526020015f2090505f83116107aa576040517f08c379a00000000000000000000000000000000000000000000000000000000081526004016107a1906115fb565b60405180910390fd5b80600401548311156107f1576040517f08c379a00000000000000000000000000000000000000000000000000000000081526004016107e890611663565b60405180910390fd5b82816004015f8282546108049190611681565b925050819055505f816001015f9054906101000a900473ffffffffffffffffffffffffffffffffffffffff1673ffffffffffffffffffffffffffffffffffffffff1684604051610853906116e1565b5f6040518083038185875af1925050503d805f811461088d576040519150601f19603f3d011682016040523d82523d5f602084013e610892565b606091505b50509050806108d6576040517f08c379a00000000000000000000000000000000000000000000000000000000081526004016108cd9061173f565b60405180910390fd5b847fd66662c0ded9e58fd31d5e44944bcfd07ffc15e6927ecc1382e7941cb7bd24c4856040516109069190610f16565b60405180910390a25050505050565b60605f8054906101000a900473ffffffffffffffffffffffffffffffffffffffff1673ffffffffffffffffffffffffffffffffffffffff163373ffffffffffffffffffffffffffffffffffffffff16146109a4576040517f08c379a000000000000000000000000000000000000000000000000000000000815260040161099b906117cd565b60405180910390fd5b5f821180156109c657505f60015f8481526020019081526020015f205f015414155b610a05576040517f08c379a00000000000000000000000000000000000000000000000000000000081526004016109fc906112fb565b60405180910390fd5b60025f8381526020019081526020015f20805480602002602001604051908101604052809291908181526020015f905b82821015610acd578382905f5260205f2090600302016040518060600160405290815f82015f9054906101000a900473ffffffffffffffffffffffffffffffffffffffff1673ffffffffffffffffffffffffffffffffffffffff1673ffffffffffffffffffffffffffffffffffffffff1681526020016001820154815260200160028201548152505081526020019060010190610a35565b505050509050919050565b6002602052815f5260405f208181548110610af1575f80fd5b905f5260205f2090600302015f9150915050805f015f9054906101000a900473ffffffffffffffffffffffffffffffffffffffff16908060010154908060020154905083565b6001602052805f5260405f205f91509050805f015490806001015f9054906101000a900473ffffffffffffffffffffffffffffffffffffffff1690806002015490806003015490806004015490806005015f9054906101000a900460ff16905086565b60035481565b5f8054906101000a900473ffffffffffffffffffffffffffffffffffffffff1681565b5f8054906101000a900473ffffffffffffffffffffffffffffffffffffffff1673ffffffffffffffffffffffffffffffffffffffff163373ffffffffffffffffffffffffffffffffffffffff1614610c50576040517f08c379a0000000000000000000000000000000000000000000000000000000008152600401610c47906117cd565b60405180910390fd5b5f73ffffffffffffffffffffffffffffffffffffffff168273ffffffffffffffffffffffffffffffffffffffff1603610cbe576040517f08c379a0000000000000000000000000000000000000000000000000000000008152600401610cb590611835565b60405180910390fd5b5f8111610d00576040517f08c379a0000000000000000000000000000000000000000000000000000000008152600401610cf7906118c3565b60405180910390fd5b5f60015f8581526020019081526020015f205f015414610d55576040517f08c379a0000000000000000000000000000000000000000000000000000000008152600401610d4c9061192b565b60405180910390fd5b60035f815480929190610d6790611949565b91905055506040518060c001604052808481526020018373ffffffffffffffffffffffffffffffffffffffff1681526020018281526020015f81526020015f81526020016001151581525060015f8581526020019081526020015f205f820151815f01556020820151816001015f6101000a81548173ffffffffffffffffffffffffffffffffffffffff021916908373ffffffffffffffffffffffffffffffffffffffff16021790555060408201518160020155606082015181600301556080820151816004015560a0820151816005015f6101000a81548160ff0219169083151502179055509050508173ffffffffffffffffffffffffffffffffffffffff16837f23cfba9a727e6db64da9ef036aa94852b70708eea64c7fe06f7dfd629404fc4f83604051610e989190610f16565b60405180910390a3505050565b5f80fd5b5f819050919050565b610ebb81610ea9565b8114610ec5575f80fd5b50565b5f81359050610ed681610eb2565b92915050565b5f60208284031215610ef157610ef0610ea5565b5b5f610efe84828501610ec8565b91505092915050565b610f1081610ea9565b82525050565b5f602082019050610f295f830184610f07565b92915050565b5f8060408385031215610f4557610f44610ea5565b5b5f610f5285828601610ec8565b9250506020610f6385828601610ec8565b9150509250929050565b5f81519050919050565b5f82825260208201905092915050565b5f819050602082019050919050565b5f73ffffffffffffffffffffffffffffffffffffffff82169050919050565b5f610fbf82610f96565b9050919050565b610fcf81610fb5565b82525050565b610fde81610ea9565b82525050565b606082015f820151610ff85f850182610fc6565b50602082015161100b6020850182610fd5565b50604082015161101e6040850182610fd5565b50505050565b5f61102f8383610fe4565b60608301905092915050565b5f602082019050919050565b5f61105182610f6d565b61105b8185610f77565b935061106683610f87565b805f5b8381101561109657815161107d8882611024565b97506110888361103b565b925050600181019050611069565b5085935050505092915050565b5f6020820190508181035f8301526110bb8184611047565b905092915050565b6110cc81610fb5565b82525050565b5f6060820190506110e55f8301866110c3565b6110f26020830185610f07565b6110ff6040830184610f07565b949350505050565b5f8115159050919050565b61111b81611107565b82525050565b5f60c0820190506111345f830189610f07565b61114160208301886110c3565b61114e6040830187610f07565b61115b6060830186610f07565b6111686080830185610f07565b61117560a0830184611112565b979650505050505050565b5f6020820190506111935f8301846110c3565b92915050565b6111a281610fb5565b81146111ac575f80fd5b50565b5f813590506111bd81611199565b92915050565b5f805f606084860312156111da576111d9610ea5565b5b5f6111e786828701610ec8565b93505060206111f8868287016111af565b925050604061120986828701610ec8565b9150509250925092565b5f82825260208201905092915050565b7f4f6e6c79207468652061646d696e206f72207468652061737369676e656420725f8201527f656365697665722063616e20706572666f726d207468697320616374696f6e2e602082015250565b5f61127d604083611213565b915061128882611223565b604082019050919050565b5f6020820190508181035f8301526112aa81611271565b9050919050565b7f496e76616c696420636861726974792049442e000000000000000000000000005f82015250565b5f6112e5601383611213565b91506112f0826112b1565b602082019050919050565b5f6020820190508181035f830152611312816112d9565b9050919050565b7f436861726974792072657175657374206973206e6f74206163746976652e00005f82015250565b5f61134d601e83611213565b915061135882611319565b602082019050919050565b5f6020820190508181035f83015261137a81611341565b9050919050565b7f446f6e6174696f6e20616d6f756e74206d7573742062652067726561746572205f8201527f7468616e207a65726f2e00000000000000000000000000000000000000000000602082015250565b5f6113db602a83611213565b91506113e682611381565b604082019050919050565b5f6020820190508181035f830152611408816113cf565b9050919050565b7f4e487b71000000000000000000000000000000000000000000000000000000005f52601160045260245ffd5b5f61144682610ea9565b915061145183610ea9565b92508282019050808211156114695761146861140f565b5b92915050565b7f446f6e6174696f6e206578636565647320726571756972656420616d6f756e745f8201527f2e00000000000000000000000000000000000000000000000000000000000000602082015250565b5f6114c9602183611213565b91506114d48261146f565b604082019050919050565b5f6020820190508181035f8301526114f6816114bd565b9050919050565b7f4f6e6c79207468652061737369676e65642072656365697665722063616e20705f8201527f6572666f726d207468697320616374696f6e2e00000000000000000000000000602082015250565b5f611557603383611213565b9150611562826114fd565b604082019050919050565b5f6020820190508181035f8301526115848161154b565b9050919050565b7f5769746864726177616c20616d6f756e74206d757374206265206772656174655f8201527f72207468616e207a65726f2e0000000000000000000000000000000000000000602082015250565b5f6115e5602c83611213565b91506115f08261158b565b604082019050919050565b5f6020820190508181035f830152611612816115d9565b9050919050565b7f496e73756666696369656e742062616c616e63652e00000000000000000000005f82015250565b5f61164d601583611213565b915061165882611619565b602082019050919050565b5f6020820190508181035f83015261167a81611641565b9050919050565b5f61168b82610ea9565b915061169683610ea9565b92508282039050818111156116ae576116ad61140f565b5b92915050565b5f81905092915050565b50565b5f6116cc5f836116b4565b91506116d7826116be565b5f82019050919050565b5f6116eb826116c1565b9150819050919050565b7f5769746864726177616c206661696c65642e00000000000000000000000000005f82015250565b5f611729601283611213565b9150611734826116f5565b602082019050919050565b5f6020820190508181035f8301526117568161171d565b9050919050565b7f4f6e6c79207468652061646d696e2063616e20706572666f726d2074686973205f8201527f616374696f6e2e00000000000000000000000000000000000000000000000000602082015250565b5f6117b7602783611213565b91506117c28261175d565b604082019050919050565b5f6020820190508181035f8301526117e4816117ab565b9050919050565b7f526563656976657220616464726573732063616e6e6f74206265207a65726f2e5f82015250565b5f61181f602083611213565b915061182a826117eb565b602082019050919050565b5f6020820190508181035f83015261184c81611813565b9050919050565b7f4d6178696d756d20616d6f756e74206d757374206265206772656174657220745f8201527f68616e207a65726f2e0000000000000000000000000000000000000000000000602082015250565b5f6118ad602983611213565b91506118b882611853565b604082019050919050565b5f6020820190508181035f8301526118da816118a1565b9050919050565b7f4368617269747920494420616c7265616479206578697374732e0000000000005f82015250565b5f611915601a83611213565b9150611920826118e1565b602082019050919050565b5f6020820190508181035f83015261194281611909565b9050919050565b5f61195382610ea9565b91507fffffffffffffffffffffffffffffffffffffffffffffffffffffffffffffffff82036119855761198461140f565b5b60018201905091905056fea26469706673582212205cdd80e41264c392f92347ec5ca37935d4f20fe6da7e943b175b7ca24fed3a1664736f6c634300081a0033",
					"opcodes": "PUSH1 0x80 PUSH1 0x40 MSTORE CALLVALUE DUP1 ISZERO PUSH1 0xE JUMPI PUSH0 DUP1 REVERT JUMPDEST POP CALLER PUSH0 DUP1 PUSH2 0x100 EXP DUP2 SLOAD DUP2 PUSH20 0xFFFFFFFFFFFFFFFFFFFFFFFFFFFFFFFFFFFFFFFF MUL NOT AND SWAP1 DUP4 PUSH20 0xFFFFFFFFFFFFFFFFFFFFFFFFFFFFFFFFFFFFFFFF AND MUL OR SWAP1 SSTORE POP PUSH2 0x19C6 DUP1 PUSH2 0x5B PUSH0 CODECOPY PUSH0 RETURN INVALID PUSH1 0x80 PUSH1 0x40 MSTORE PUSH1 0x4 CALLDATASIZE LT PUSH2 0x85 JUMPI PUSH0 CALLDATALOAD PUSH1 0xE0 SHR DUP1 PUSH4 0x5CBBB574 GT PUSH2 0x58 JUMPI DUP1 PUSH4 0x5CBBB574 EQ PUSH2 0x139 JUMPI DUP1 PUSH4 0x5EFFFFA9 EQ PUSH2 0x177 JUMPI DUP1 PUSH4 0x91329493 EQ PUSH2 0x1B8 JUMPI DUP1 PUSH4 0xF851A440 EQ PUSH2 0x1E2 JUMPI DUP1 PUSH4 0xFFDED55D EQ PUSH2 0x20C JUMPI PUSH2 0x85 JUMP JUMPDEST DUP1 PUSH4 0x5D63070 EQ PUSH2 0x89 JUMPI DUP1 PUSH4 0xCDD53F6 EQ PUSH2 0xC5 JUMPI DUP1 PUSH4 0x441A3E70 EQ PUSH2 0xE1 JUMPI DUP1 PUSH4 0x596D9CE2 EQ PUSH2 0xFD JUMPI JUMPDEST PUSH0 DUP1 REVERT JUMPDEST CALLVALUE DUP1 ISZERO PUSH2 0x94 JUMPI PUSH0 DUP1 REVERT JUMPDEST POP PUSH2 0xAF PUSH1 0x4 DUP1 CALLDATASIZE SUB DUP2 ADD SWAP1 PUSH2 0xAA SWAP2 SWAP1 PUSH2 0xEDC JUMP JUMPDEST PUSH2 0x234 JUMP JUMPDEST PUSH1 0x40 MLOAD PUSH2 0xBC SWAP2 SWAP1 PUSH2 0xF16 JUMP JUMPDEST PUSH1 0x40 MLOAD DUP1 SWAP2 SUB SWAP1 RETURN JUMPDEST PUSH2 0xDF PUSH1 0x4 DUP1 CALLDATASIZE SUB DUP2 ADD SWAP1 PUSH2 0xDA SWAP2 SWAP1 PUSH2 0xF2F JUMP JUMPDEST PUSH2 0x3AA JUMP JUMPDEST STOP JUMPDEST PUSH2 0xFB PUSH1 0x4 DUP1 CALLDATASIZE SUB DUP2 ADD SWAP1 PUSH2 0xF6 SWAP2 SWAP1 PUSH2 0xF2F JUMP JUMPDEST PUSH2 0x651 JUMP JUMPDEST STOP JUMPDEST CALLVALUE DUP1 ISZERO PUSH2 0x108 JUMPI PUSH0 DUP1 REVERT JUMPDEST POP PUSH2 0x123 PUSH1 0x4 DUP1 CALLDATASIZE SUB DUP2 ADD SWAP1 PUSH2 0x11E SWAP2 SWAP1 PUSH2 0xEDC JUMP JUMPDEST PUSH2 0x915 JUMP JUMPDEST PUSH1 0x40 MLOAD PUSH2 0x130 SWAP2 SWAP1 PUSH2 0x10A3 JUMP JUMPDEST PUSH1 0x40 MLOAD DUP1 SWAP2 SUB SWAP1 RETURN JUMPDEST CALLVALUE DUP1 ISZERO PUSH2 0x144 JUMPI PUSH0 DUP1 REVERT JUMPDEST POP PUSH2 0x15F PUSH1 0x4 DUP1 CALLDATASIZE SUB DUP2 ADD SWAP1 PUSH2 0x15A SWAP2 SWAP1 PUSH2 0xF2F JUMP JUMPDEST PUSH2 0xAD8 JUMP JUMPDEST PUSH1 0x40 MLOAD PUSH2 0x16E SWAP4 SWAP3 SWAP2 SWAP1 PUSH2 0x10D2 JUMP JUMPDEST PUSH1 0x40 MLOAD DUP1 SWAP2 SUB SWAP1 RETURN JUMPDEST CALLVALUE DUP1 ISZERO PUSH2 0x182 JUMPI PUSH0 DUP1 REVERT JUMPDEST POP PUSH2 0x19D PUSH1 0x4 DUP1 CALLDATASIZE SUB DUP2 ADD SWAP1 PUSH2 0x198 SWAP2 SWAP1 PUSH2 0xEDC JUMP JUMPDEST PUSH2 0xB37 JUMP JUMPDEST PUSH1 0x40 MLOAD PUSH2 0x1AF SWAP7 SWAP6 SWAP5 SWAP4 SWAP3 SWAP2 SWAP1 PUSH2 0x1121 JUMP JUMPDEST PUSH1 0x40 MLOAD DUP1 SWAP2 SUB SWAP1 RETURN JUMPDEST CALLVALUE DUP1 ISZERO PUSH2 0x1C3 JUMPI PUSH0 DUP1 REVERT JUMPDEST POP PUSH2 0x1CC PUSH2 0xB9A JUMP JUMPDEST PUSH1 0x40 MLOAD PUSH2 0x1D9 SWAP2 SWAP1 PUSH2 0xF16 JUMP JUMPDEST PUSH1 0x40 MLOAD DUP1 SWAP2 SUB SWAP1 RETURN JUMPDEST CALLVALUE DUP1 ISZERO PUSH2 0x1ED JUMPI PUSH0 DUP1 REVERT JUMPDEST POP PUSH2 0x1F6 PUSH2 0xBA0 JUMP JUMPDEST PUSH1 0x40 MLOAD PUSH2 0x203 SWAP2 SWAP1 PUSH2 0x1180 JUMP JUMPDEST PUSH1 0x40 MLOAD DUP1 SWAP2 SUB SWAP1 RETURN JUMPDEST CALLVALUE DUP1 ISZERO PUSH2 0x217 JUMPI PUSH0 DUP1 REVERT JUMPDEST POP PUSH2 0x232 PUSH1 0x4 DUP1 CALLDATASIZE SUB DUP2 ADD SWAP1 PUSH2 0x22D SWAP2 SWAP1 PUSH2 0x11C3 JUMP JUMPDEST PUSH2 0xBC3 JUMP JUMPDEST STOP JUMPDEST PUSH0 DUP2 PUSH0 DUP1 SLOAD SWAP1 PUSH2 0x100 EXP SWAP1 DIV PUSH20 0xFFFFFFFFFFFFFFFFFFFFFFFFFFFFFFFFFFFFFFFF AND PUSH20 0xFFFFFFFFFFFFFFFFFFFFFFFFFFFFFFFFFFFFFFFF AND CALLER PUSH20 0xFFFFFFFFFFFFFFFFFFFFFFFFFFFFFFFFFFFFFFFF AND EQ DUP1 PUSH2 0x2ED JUMPI POP PUSH1 0x1 PUSH0 DUP3 DUP2 MSTORE PUSH1 0x20 ADD SWAP1 DUP2 MSTORE PUSH1 0x20 ADD PUSH0 KECCAK256 PUSH1 0x1 ADD PUSH0 SWAP1 SLOAD SWAP1 PUSH2 0x100 EXP SWAP1 DIV PUSH20 0xFFFFFFFFFFFFFFFFFFFFFFFFFFFFFFFFFFFFFFFF AND PUSH20 0xFFFFFFFFFFFFFFFFFFFFFFFFFFFFFFFFFFFFFFFF AND CALLER PUSH20 0xFFFFFFFFFFFFFFFFFFFFFFFFFFFFFFFFFFFFFFFF AND EQ JUMPDEST PUSH2 0x32C JUMPI PUSH1 0x40 MLOAD PUSH32 0x8C379A000000000000000000000000000000000000000000000000000000000 DUP2 MSTORE PUSH1 0x4 ADD PUSH2 0x323 SWAP1 PUSH2 0x1293 JUMP JUMPDEST PUSH1 0x40 MLOAD DUP1 SWAP2 SUB SWAP1 REVERT JUMPDEST PUSH0 DUP4 GT DUP1 ISZERO PUSH2 0x34E JUMPI POP PUSH0 PUSH1 0x1 PUSH0 DUP6 DUP2 MSTORE PUSH1 0x20 ADD SWAP1 DUP2 MSTORE PUSH1 0x20 ADD PUSH0 KECCAK256 PUSH0 ADD SLOAD EQ ISZERO JUMPDEST PUSH2 0x38D JUMPI PUSH1 0x40 MLOAD PUSH32 0x8C379A000000000000000000000000000000000000000000000000000000000 DUP2 MSTORE PUSH1 0x4 ADD PUSH2 0x384 SWAP1 PUSH2 0x12FB JUMP JUMPDEST PUSH1 0x40 MLOAD DUP1 SWAP2 SUB SWAP1 REVERT JUMPDEST PUSH1 0x1 PUSH0 DUP5 DUP2 MSTORE PUSH1 0x20 ADD SWAP1 DUP2 MSTORE PUSH1 0x20 ADD PUSH0 KECCAK256 PUSH1 0x4 ADD SLOAD SWAP2 POP POP SWAP2 SWAP1 POP JUMP JUMPDEST PUSH0 DUP3 GT DUP1 ISZERO PUSH2 0x3CC JUMPI POP PUSH0 PUSH1 0x1 PUSH0 DUP5 DUP2 MSTORE PUSH1 0x20 ADD SWAP1 DUP2 MSTORE PUSH1 0x20 ADD PUSH0 KECCAK256 PUSH0 ADD SLOAD EQ ISZERO JUMPDEST PUSH2 0x40B JUMPI PUSH1 0x40 MLOAD PUSH32 0x8C379A000000000000000000000000000000000000000000000000000000000 DUP2 MSTORE PUSH1 0x4 ADD PUSH2 0x402 SWAP1 PUSH2 0x12FB JUMP JUMPDEST PUSH1 0x40 MLOAD DUP1 SWAP2 SUB SWAP1 REVERT JUMPDEST PUSH0 PUSH1 0x1 PUSH0 DUP5 DUP2 MSTORE PUSH1 0x20 ADD SWAP1 DUP2 MSTORE PUSH1 0x20 ADD PUSH0 KECCAK256 SWAP1 POP DUP1 PUSH1 0x5 ADD PUSH0 SWAP1 SLOAD SWAP1 PUSH2 0x100 EXP SWAP1 DIV PUSH1 0xFF AND PUSH2 0x46F JUMPI PUSH1 0x40 MLOAD PUSH32 0x8C379A000000000000000000000000000000000000000000000000000000000 DUP2 MSTORE PUSH1 0x4 ADD PUSH2 0x466 SWAP1 PUSH2 0x1363 JUMP JUMPDEST PUSH1 0x40 MLOAD DUP1 SWAP2 SUB SWAP1 REVERT JUMPDEST PUSH0 DUP3 GT PUSH2 0x4B1 JUMPI PUSH1 0x40 MLOAD PUSH32 0x8C379A000000000000000000000000000000000000000000000000000000000 DUP2 MSTORE PUSH1 0x4 ADD PUSH2 0x4A8 SWAP1 PUSH2 0x13F1 JUMP JUMPDEST PUSH1 0x40 MLOAD DUP1 SWAP2 SUB SWAP1 REVERT JUMPDEST DUP1 PUSH1 0x2 ADD SLOAD DUP3 DUP3 PUSH1 0x3 ADD SLOAD PUSH2 0x4C6 SWAP2 SWAP1 PUSH2 0x143C JUMP JUMPDEST GT ISZERO PUSH2 0x507 JUMPI PUSH1 0x40 MLOAD PUSH32 0x8C379A000000000000000000000000000000000000000000000000000000000 DUP2 MSTORE PUSH1 0x4 ADD PUSH2 0x4FE SWAP1 PUSH2 0x14DF JUMP JUMPDEST PUSH1 0x40 MLOAD DUP1 SWAP2 SUB SWAP1 REVERT JUMPDEST DUP2 DUP2 PUSH1 0x3 ADD PUSH0 DUP3 DUP3 SLOAD PUSH2 0x51A SWAP2 SWAP1 PUSH2 0x143C JUMP JUMPDEST SWAP3 POP POP DUP2 SWAP1 SSTORE POP DUP2 DUP2 PUSH1 0x4 ADD PUSH0 DUP3 DUP3 SLOAD PUSH2 0x534 SWAP2 SWAP1 PUSH2 0x143C JUMP JUMPDEST SWAP3 POP POP DUP2 SWAP1 SSTORE POP PUSH1 0x2 PUSH0 DUP5 DUP2 MSTORE PUSH1 0x20 ADD SWAP1 DUP2 MSTORE PUSH1 0x20 ADD PUSH0 KECCAK256 PUSH1 0x40 MLOAD DUP1 PUSH1 0x60 ADD PUSH1 0x40 MSTORE DUP1 CALLER PUSH20 0xFFFFFFFFFFFFFFFFFFFFFFFFFFFFFFFFFFFFFFFF AND DUP2 MSTORE PUSH1 0x20 ADD DUP5 DUP2 MSTORE PUSH1 0x20 ADD TIMESTAMP DUP2 MSTORE POP SWAP1 DUP1 PUSH1 0x1 DUP2 SLOAD ADD DUP1 DUP3 SSTORE DUP1 SWAP2 POP POP PUSH1 0x1 SWAP1 SUB SWAP1 PUSH0 MSTORE PUSH1 0x20 PUSH0 KECCAK256 SWAP1 PUSH1 0x3 MUL ADD PUSH0 SWAP1 SWAP2 SWAP1 SWAP2 SWAP1 SWAP2 POP PUSH0 DUP3 ADD MLOAD DUP2 PUSH0 ADD PUSH0 PUSH2 0x100 EXP DUP2 SLOAD DUP2 PUSH20 0xFFFFFFFFFFFFFFFFFFFFFFFFFFFFFFFFFFFFFFFF MUL NOT AND SWAP1 DUP4 PUSH20 0xFFFFFFFFFFFFFFFFFFFFFFFFFFFFFFFFFFFFFFFF AND MUL OR SWAP1 SSTORE POP PUSH1 0x20 DUP3 ADD MLOAD DUP2 PUSH1 0x1 ADD SSTORE PUSH1 0x40 DUP3 ADD MLOAD DUP2 PUSH1 0x2 ADD SSTORE POP POP CALLER PUSH20 0xFFFFFFFFFFFFFFFFFFFFFFFFFFFFFFFFFFFFFFFF AND DUP4 PUSH32 0xB5B4C52969FF7329ECF7EE536409FDA87812B15A8622BC6E8CDEAB3AEE14A26 DUP5 PUSH1 0x40 MLOAD PUSH2 0x644 SWAP2 SWAP1 PUSH2 0xF16 JUMP JUMPDEST PUSH1 0x40 MLOAD DUP1 SWAP2 SUB SWAP1 LOG3 POP POP POP JUMP JUMPDEST DUP2 PUSH1 0x1 PUSH0 DUP3 DUP2 MSTORE PUSH1 0x20 ADD SWAP1 DUP2 MSTORE PUSH1 0x20 ADD PUSH0 KECCAK256 PUSH1 0x1 ADD PUSH0 SWAP1 SLOAD SWAP1 PUSH2 0x100 EXP SWAP1 DIV PUSH20 0xFFFFFFFFFFFFFFFFFFFFFFFFFFFFFFFFFFFFFFFF AND PUSH20 0xFFFFFFFFFFFFFFFFFFFFFFFFFFFFFFFFFFFFFFFF AND CALLER PUSH20 0xFFFFFFFFFFFFFFFFFFFFFFFFFFFFFFFFFFFFFFFF AND EQ PUSH2 0x6F3 JUMPI PUSH1 0x40 MLOAD PUSH32 0x8C379A000000000000000000000000000000000000000000000000000000000 DUP2 MSTORE PUSH1 0x4 ADD PUSH2 0x6EA SWAP1 PUSH2 0x156D JUMP JUMPDEST PUSH1 0x40 MLOAD DUP1 SWAP2 SUB SWAP1 REVERT JUMPDEST PUSH0 DUP4 GT DUP1 ISZERO PUSH2 0x715 JUMPI POP PUSH0 PUSH1 0x1 PUSH0 DUP6 DUP2 MSTORE PUSH1 0x20 ADD SWAP1 DUP2 MSTORE PUSH1 0x20 ADD PUSH0 KECCAK256 PUSH0 ADD SLOAD EQ ISZERO JUMPDEST PUSH2 0x754 JUMPI PUSH1 0x40 MLOAD PUSH32 0x8C379A000000000000000000000000000000000000000000000000000000000 DUP2 MSTORE PUSH1 0x4 ADD PUSH2 0x74B SWAP1 PUSH2 0x12FB JUMP JUMPDEST PUSH1 0x40 MLOAD DUP1 SWAP2 SUB SWAP1 REVERT JUMPDEST PUSH0 PUSH1 0x1 PUSH0 DUP6 DUP2 MSTORE PUSH1 0x20 ADD SWAP1 DUP2 MSTORE PUSH1 0x20 ADD PUSH0 KECCAK256 SWAP1 POP PUSH0 DUP4 GT PUSH2 0x7AA JUMPI PUSH1 0x40 MLOAD PUSH32 0x8C379A000000000000000000000000000000000000000000000000000000000 DUP2 MSTORE PUSH1 0x4 ADD PUSH2 0x7A1 SWAP1 PUSH2 0x15FB JUMP JUMPDEST PUSH1 0x40 MLOAD DUP1 SWAP2 SUB SWAP1 REVERT JUMPDEST DUP1 PUSH1 0x4 ADD SLOAD DUP4 GT ISZERO PUSH2 0x7F1 JUMPI PUSH1 0x40 MLOAD PUSH32 0x8C379A000000000000000000000000000000000000000000000000000000000 DUP2 MSTORE PUSH1 0x4 ADD PUSH2 0x7E8 SWAP1 PUSH2 0x1663 JUMP JUMPDEST PUSH1 0x40 MLOAD DUP1 SWAP2 SUB SWAP1 REVERT JUMPDEST DUP3 DUP2 PUSH1 0x4 ADD PUSH0 DUP3 DUP3 SLOAD PUSH2 0x804 SWAP2 SWAP1 PUSH2 0x1681 JUMP JUMPDEST SWAP3 POP POP DUP2 SWAP1 SSTORE POP PUSH0 DUP2 PUSH1 0x1 ADD PUSH0 SWAP1 SLOAD SWAP1 PUSH2 0x100 EXP SWAP1 DIV PUSH20 0xFFFFFFFFFFFFFFFFFFFFFFFFFFFFFFFFFFFFFFFF AND PUSH20 0xFFFFFFFFFFFFFFFFFFFFFFFFFFFFFFFFFFFFFFFF AND DUP5 PUSH1 0x40 MLOAD PUSH2 0x853 SWAP1 PUSH2 0x16E1 JUMP JUMPDEST PUSH0 PUSH1 0x40 MLOAD DUP1 DUP4 SUB DUP2 DUP6 DUP8 GAS CALL SWAP3 POP POP POP RETURNDATASIZE DUP1 PUSH0 DUP2 EQ PUSH2 0x88D JUMPI PUSH1 0x40 MLOAD SWAP2 POP PUSH1 0x1F NOT PUSH1 0x3F RETURNDATASIZE ADD AND DUP3 ADD PUSH1 0x40 MSTORE RETURNDATASIZE DUP3 MSTORE RETURNDATASIZE PUSH0 PUSH1 0x20 DUP5 ADD RETURNDATACOPY PUSH2 0x892 JUMP JUMPDEST PUSH1 0x60 SWAP2 POP JUMPDEST POP POP SWAP1 POP DUP1 PUSH2 0x8D6 JUMPI PUSH1 0x40 MLOAD PUSH32 0x8C379A000000000000000000000000000000000000000000000000000000000 DUP2 MSTORE PUSH1 0x4 ADD PUSH2 0x8CD SWAP1 PUSH2 0x173F JUMP JUMPDEST PUSH1 0x40 MLOAD DUP1 SWAP2 SUB SWAP1 REVERT JUMPDEST DUP5 PUSH32 0xD66662C0DED9E58FD31D5E44944BCFD07FFC15E6927ECC1382E7941CB7BD24C4 DUP6 PUSH1 0x40 MLOAD PUSH2 0x906 SWAP2 SWAP1 PUSH2 0xF16 JUMP JUMPDEST PUSH1 0x40 MLOAD DUP1 SWAP2 SUB SWAP1 LOG2 POP POP POP POP POP JUMP JUMPDEST PUSH1 0x60 PUSH0 DUP1 SLOAD SWAP1 PUSH2 0x100 EXP SWAP1 DIV PUSH20 0xFFFFFFFFFFFFFFFFFFFFFFFFFFFFFFFFFFFFFFFF AND PUSH20 0xFFFFFFFFFFFFFFFFFFFFFFFFFFFFFFFFFFFFFFFF AND CALLER PUSH20 0xFFFFFFFFFFFFFFFFFFFFFFFFFFFFFFFFFFFFFFFF AND EQ PUSH2 0x9A4 JUMPI PUSH1 0x40 MLOAD PUSH32 0x8C379A000000000000000000000000000000000000000000000000000000000 DUP2 MSTORE PUSH1 0x4 ADD PUSH2 0x99B SWAP1 PUSH2 0x17CD JUMP JUMPDEST PUSH1 0x40 MLOAD DUP1 SWAP2 SUB SWAP1 REVERT JUMPDEST PUSH0 DUP3 GT DUP1 ISZERO PUSH2 0x9C6 JUMPI POP PUSH0 PUSH1 0x1 PUSH0 DUP5 DUP2 MSTORE PUSH1 0x20 ADD SWAP1 DUP2 MSTORE PUSH1 0x20 ADD PUSH0 KECCAK256 PUSH0 ADD SLOAD EQ ISZERO JUMPDEST PUSH2 0xA05 JUMPI PUSH1 0x40 MLOAD PUSH32 0x8C379A000000000000000000000000000000000000000000000000000000000 DUP2 MSTORE PUSH1 0x4 ADD PUSH2 0x9FC SWAP1 PUSH2 0x12FB JUMP JUMPDEST PUSH1 0x40 MLOAD DUP1 SWAP2 SUB SWAP1 REVERT JUMPDEST PUSH1 0x2 PUSH0 DUP4 DUP2 MSTORE PUSH1 0x20 ADD SWAP1 DUP2 MSTORE PUSH1 0x20 ADD PUSH0 KECCAK256 DUP1 SLOAD DUP1 PUSH1 0x20 MUL PUSH1 0x20 ADD PUSH1 0x40 MLOAD SWAP1 DUP2 ADD PUSH1 0x40 MSTORE DUP1 SWAP3 SWAP2 SWAP1 DUP2 DUP2 MSTORE PUSH1 0x20 ADD PUSH0 SWAP1 JUMPDEST DUP3 DUP3 LT ISZERO PUSH2 0xACD JUMPI DUP4 DUP3 SWAP1 PUSH0 MSTORE PUSH1 0x20 PUSH0 KECCAK256 SWAP1 PUSH1 0x3 MUL ADD PUSH1 0x40 MLOAD DUP1 PUSH1 0x60 ADD PUSH1 0x40 MSTORE SWAP1 DUP2 PUSH0 DUP3 ADD PUSH0 SWAP1 SLOAD SWAP1 PUSH2 0x100 EXP SWAP1 DIV PUSH20 0xFFFFFFFFFFFFFFFFFFFFFFFFFFFFFFFFFFFFFFFF AND PUSH20 0xFFFFFFFFFFFFFFFFFFFFFFFFFFFFFFFFFFFFFFFF AND PUSH20 0xFFFFFFFFFFFFFFFFFFFFFFFFFFFFFFFFFFFFFFFF AND DUP2 MSTORE PUSH1 0x20 ADD PUSH1 0x1 DUP3 ADD SLOAD DUP2 MSTORE PUSH1 0x20 ADD PUSH1 0x2 DUP3 ADD SLOAD DUP2 MSTORE POP POP DUP2 MSTORE PUSH1 0x20 ADD SWAP1 PUSH1 0x1 ADD SWAP1 PUSH2 0xA35 JUMP JUMPDEST POP POP POP POP SWAP1 POP SWAP2 SWAP1 POP JUMP JUMPDEST PUSH1 0x2 PUSH1 0x20 MSTORE DUP2 PUSH0 MSTORE PUSH1 0x40 PUSH0 KECCAK256 DUP2 DUP2 SLOAD DUP2 LT PUSH2 0xAF1 JUMPI PUSH0 DUP1 REVERT JUMPDEST SWAP1 PUSH0 MSTORE PUSH1 0x20 PUSH0 KECCAK256 SWAP1 PUSH1 0x3 MUL ADD PUSH0 SWAP2 POP SWAP2 POP POP DUP1 PUSH0 ADD PUSH0 SWAP1 SLOAD SWAP1 PUSH2 0x100 EXP SWAP1 DIV PUSH20 0xFFFFFFFFFFFFFFFFFFFFFFFFFFFFFFFFFFFFFFFF AND SWAP1 DUP1 PUSH1 0x1 ADD SLOAD SWAP1 DUP1 PUSH1 0x2 ADD SLOAD SWAP1 POP DUP4 JUMP JUMPDEST PUSH1 0x1 PUSH1 0x20 MSTORE DUP1 PUSH0 MSTORE PUSH1 0x40 PUSH0 KECCAK256 PUSH0 SWAP2 POP SWAP1 POP DUP1 PUSH0 ADD SLOAD SWAP1 DUP1 PUSH1 0x1 ADD PUSH0 SWAP1 SLOAD SWAP1 PUSH2 0x100 EXP SWAP1 DIV PUSH20 0xFFFFFFFFFFFFFFFFFFFFFFFFFFFFFFFFFFFFFFFF AND SWAP1 DUP1 PUSH1 0x2 ADD SLOAD SWAP1 DUP1 PUSH1 0x3 ADD SLOAD SWAP1 DUP1 PUSH1 0x4 ADD SLOAD SWAP1 DUP1 PUSH1 0x5 ADD PUSH0 SWAP1 SLOAD SWAP1 PUSH2 0x100 EXP SWAP1 DIV PUSH1 0xFF AND SWAP1 POP DUP7 JUMP JUMPDEST PUSH1 0x3 SLOAD DUP2 JUMP JUMPDEST PUSH0 DUP1 SLOAD SWAP1 PUSH2 0x100 EXP SWAP1 DIV PUSH20 0xFFFFFFFFFFFFFFFFFFFFFFFFFFFFFFFFFFFFFFFF AND DUP2 JUMP JUMPDEST PUSH0 DUP1 SLOAD SWAP1 PUSH2 0x100 EXP SWAP1 DIV PUSH20 0xFFFFFFFFFFFFFFFFFFFFFFFFFFFFFFFFFFFFFFFF AND PUSH20 0xFFFFFFFFFFFFFFFFFFFFFFFFFFFFFFFFFFFFFFFF AND CALLER PUSH20 0xFFFFFFFFFFFFFFFFFFFFFFFFFFFFFFFFFFFFFFFF AND EQ PUSH2 0xC50 JUMPI PUSH1 0x40 MLOAD PUSH32 0x8C379A000000000000000000000000000000000000000000000000000000000 DUP2 MSTORE PUSH1 0x4 ADD PUSH2 0xC47 SWAP1 PUSH2 0x17CD JUMP JUMPDEST PUSH1 0x40 MLOAD DUP1 SWAP2 SUB SWAP1 REVERT JUMPDEST PUSH0 PUSH20 0xFFFFFFFFFFFFFFFFFFFFFFFFFFFFFFFFFFFFFFFF AND DUP3 PUSH20 0xFFFFFFFFFFFFFFFFFFFFFFFFFFFFFFFFFFFFFFFF AND SUB PUSH2 0xCBE JUMPI PUSH1 0x40 MLOAD PUSH32 0x8C379A000000000000000000000000000000000000000000000000000000000 DUP2 MSTORE PUSH1 0x4 ADD PUSH2 0xCB5 SWAP1 PUSH2 0x1835 JUMP JUMPDEST PUSH1 0x40 MLOAD DUP1 SWAP2 SUB SWAP1 REVERT JUMPDEST PUSH0 DUP2 GT PUSH2 0xD00 JUMPI PUSH1 0x40 MLOAD PUSH32 0x8C379A000000000000000000000000000000000000000000000000000000000 DUP2 MSTORE PUSH1 0x4 ADD PUSH2 0xCF7 SWAP1 PUSH2 0x18C3 JUMP JUMPDEST PUSH1 0x40 MLOAD DUP1 SWAP2 SUB SWAP1 REVERT JUMPDEST PUSH0 PUSH1 0x1 PUSH0 DUP6 DUP2 MSTORE PUSH1 0x20 ADD SWAP1 DUP2 MSTORE PUSH1 0x20 ADD PUSH0 KECCAK256 PUSH0 ADD SLOAD EQ PUSH2 0xD55 JUMPI PUSH1 0x40 MLOAD PUSH32 0x8C379A000000000000000000000000000000000000000000000000000000000 DUP2 MSTORE PUSH1 0x4 ADD PUSH2 0xD4C SWAP1 PUSH2 0x192B JUMP JUMPDEST PUSH1 0x40 MLOAD DUP1 SWAP2 SUB SWAP1 REVERT JUMPDEST PUSH1 0x3 PUSH0 DUP2 SLOAD DUP1 SWAP3 SWAP2 SWAP1 PUSH2 0xD67 SWAP1 PUSH2 0x1949 JUMP JUMPDEST SWAP2 SWAP1 POP SSTORE POP PUSH1 0x40 MLOAD DUP1 PUSH1 0xC0 ADD PUSH1 0x40 MSTORE DUP1 DUP5 DUP2 MSTORE PUSH1 0x20 ADD DUP4 PUSH20 0xFFFFFFFFFFFFFFFFFFFFFFFFFFFFFFFFFFFFFFFF AND DUP2 MSTORE PUSH1 0x20 ADD DUP3 DUP2 MSTORE PUSH1 0x20 ADD PUSH0 DUP2 MSTORE PUSH1 0x20 ADD PUSH0 DUP2 MSTORE PUSH1 0x20 ADD PUSH1 0x1 ISZERO ISZERO DUP2 MSTORE POP PUSH1 0x1 PUSH0 DUP6 DUP2 MSTORE PUSH1 0x20 ADD SWAP1 DUP2 MSTORE PUSH1 0x20 ADD PUSH0 KECCAK256 PUSH0 DUP3 ADD MLOAD DUP2 PUSH0 ADD SSTORE PUSH1 0x20 DUP3 ADD MLOAD DUP2 PUSH1 0x1 ADD PUSH0 PUSH2 0x100 EXP DUP2 SLOAD DUP2 PUSH20 0xFFFFFFFFFFFFFFFFFFFFFFFFFFFFFFFFFFFFFFFF MUL NOT AND SWAP1 DUP4 PUSH20 0xFFFFFFFFFFFFFFFFFFFFFFFFFFFFFFFFFFFFFFFF AND MUL OR SWAP1 SSTORE POP PUSH1 0x40 DUP3 ADD MLOAD DUP2 PUSH1 0x2 ADD SSTORE PUSH1 0x60 DUP3 ADD MLOAD DUP2 PUSH1 0x3 ADD SSTORE PUSH1 0x80 DUP3 ADD MLOAD DUP2 PUSH1 0x4 ADD SSTORE PUSH1 0xA0 DUP3 ADD MLOAD DUP2 PUSH1 0x5 ADD PUSH0 PUSH2 0x100 EXP DUP2 SLOAD DUP2 PUSH1 0xFF MUL NOT AND SWAP1 DUP4 ISZERO ISZERO MUL OR SWAP1 SSTORE POP SWAP1 POP POP DUP2 PUSH20 0xFFFFFFFFFFFFFFFFFFFFFFFFFFFFFFFFFFFFFFFF AND DUP4 PUSH32 0x23CFBA9A727E6DB64DA9EF036AA94852B70708EEA64C7FE06F7DFD629404FC4F DUP4 PUSH1 0x40 MLOAD PUSH2 0xE98 SWAP2 SWAP1 PUSH2 0xF16 JUMP JUMPDEST PUSH1 0x40 MLOAD DUP1 SWAP2 SUB SWAP1 LOG3 POP POP POP JUMP JUMPDEST PUSH0 DUP1 REVERT JUMPDEST PUSH0 DUP2 SWAP1 POP SWAP2 SWAP1 POP JUMP JUMPDEST PUSH2 0xEBB DUP2 PUSH2 0xEA9 JUMP JUMPDEST DUP2 EQ PUSH2 0xEC5 JUMPI PUSH0 DUP1 REVERT JUMPDEST POP JUMP JUMPDEST PUSH0 DUP2 CALLDATALOAD SWAP1 POP PUSH2 0xED6 DUP2 PUSH2 0xEB2 JUMP JUMPDEST SWAP3 SWAP2 POP POP JUMP JUMPDEST PUSH0 PUSH1 0x20 DUP3 DUP5 SUB SLT ISZERO PUSH2 0xEF1 JUMPI PUSH2 0xEF0 PUSH2 0xEA5 JUMP JUMPDEST JUMPDEST PUSH0 PUSH2 0xEFE DUP5 DUP3 DUP6 ADD PUSH2 0xEC8 JUMP JUMPDEST SWAP2 POP POP SWAP3 SWAP2 POP POP JUMP JUMPDEST PUSH2 0xF10 DUP2 PUSH2 0xEA9 JUMP JUMPDEST DUP3 MSTORE POP POP JUMP JUMPDEST PUSH0 PUSH1 0x20 DUP3 ADD SWAP1 POP PUSH2 0xF29 PUSH0 DUP4 ADD DUP5 PUSH2 0xF07 JUMP JUMPDEST SWAP3 SWAP2 POP POP JUMP JUMPDEST PUSH0 DUP1 PUSH1 0x40 DUP4 DUP6 SUB SLT ISZERO PUSH2 0xF45 JUMPI PUSH2 0xF44 PUSH2 0xEA5 JUMP JUMPDEST JUMPDEST PUSH0 PUSH2 0xF52 DUP6 DUP3 DUP7 ADD PUSH2 0xEC8 JUMP JUMPDEST SWAP3 POP POP PUSH1 0x20 PUSH2 0xF63 DUP6 DUP3 DUP7 ADD PUSH2 0xEC8 JUMP JUMPDEST SWAP2 POP POP SWAP3 POP SWAP3 SWAP1 POP JUMP JUMPDEST PUSH0 DUP2 MLOAD SWAP1 POP SWAP2 SWAP1 POP JUMP JUMPDEST PUSH0 DUP3 DUP3 MSTORE PUSH1 0x20 DUP3 ADD SWAP1 POP SWAP3 SWAP2 POP POP JUMP JUMPDEST PUSH0 DUP2 SWAP1 POP PUSH1 0x20 DUP3 ADD SWAP1 POP SWAP2 SWAP1 POP JUMP JUMPDEST PUSH0 PUSH20 0xFFFFFFFFFFFFFFFFFFFFFFFFFFFFFFFFFFFFFFFF DUP3 AND SWAP1 POP SWAP2 SWAP1 POP JUMP JUMPDEST PUSH0 PUSH2 0xFBF DUP3 PUSH2 0xF96 JUMP JUMPDEST SWAP1 POP SWAP2 SWAP1 POP JUMP JUMPDEST PUSH2 0xFCF DUP2 PUSH2 0xFB5 JUMP JUMPDEST DUP3 MSTORE POP POP JUMP JUMPDEST PUSH2 0xFDE DUP2 PUSH2 0xEA9 JUMP JUMPDEST DUP3 MSTORE POP POP JUMP JUMPDEST PUSH1 0x60 DUP3 ADD PUSH0 DUP3 ADD MLOAD PUSH2 0xFF8 PUSH0 DUP6 ADD DUP3 PUSH2 0xFC6 JUMP JUMPDEST POP PUSH1 0x20 DUP3 ADD MLOAD PUSH2 0x100B PUSH1 0x20 DUP6 ADD DUP3 PUSH2 0xFD5 JUMP JUMPDEST POP PUSH1 0x40 DUP3 ADD MLOAD PUSH2 0x101E PUSH1 0x40 DUP6 ADD DUP3 PUSH2 0xFD5 JUMP JUMPDEST POP POP POP POP JUMP JUMPDEST PUSH0 PUSH2 0x102F DUP4 DUP4 PUSH2 0xFE4 JUMP JUMPDEST PUSH1 0x60 DUP4 ADD SWAP1 POP SWAP3 SWAP2 POP POP JUMP JUMPDEST PUSH0 PUSH1 0x20 DUP3 ADD SWAP1 POP SWAP2 SWAP1 POP JUMP JUMPDEST PUSH0 PUSH2 0x1051 DUP3 PUSH2 0xF6D JUMP JUMPDEST PUSH2 0x105B DUP2 DUP6 PUSH2 0xF77 JUMP JUMPDEST SWAP4 POP PUSH2 0x1066 DUP4 PUSH2 0xF87 JUMP JUMPDEST DUP1 PUSH0 JUMPDEST DUP4 DUP2 LT ISZERO PUSH2 0x1096 JUMPI DUP2 MLOAD PUSH2 0x107D DUP9 DUP3 PUSH2 0x1024 JUMP JUMPDEST SWAP8 POP PUSH2 0x1088 DUP4 PUSH2 0x103B JUMP JUMPDEST SWAP3 POP POP PUSH1 0x1 DUP2 ADD SWAP1 POP PUSH2 0x1069 JUMP JUMPDEST POP DUP6 SWAP4 POP POP POP POP SWAP3 SWAP2 POP POP JUMP JUMPDEST PUSH0 PUSH1 0x20 DUP3 ADD SWAP1 POP DUP2 DUP2 SUB PUSH0 DUP4 ADD MSTORE PUSH2 0x10BB DUP2 DUP5 PUSH2 0x1047 JUMP JUMPDEST SWAP1 POP SWAP3 SWAP2 POP POP JUMP JUMPDEST PUSH2 0x10CC DUP2 PUSH2 0xFB5 JUMP JUMPDEST DUP3 MSTORE POP POP JUMP JUMPDEST PUSH0 PUSH1 0x60 DUP3 ADD SWAP1 POP PUSH2 0x10E5 PUSH0 DUP4 ADD DUP7 PUSH2 0x10C3 JUMP JUMPDEST PUSH2 0x10F2 PUSH1 0x20 DUP4 ADD DUP6 PUSH2 0xF07 JUMP JUMPDEST PUSH2 0x10FF PUSH1 0x40 DUP4 ADD DUP5 PUSH2 0xF07 JUMP JUMPDEST SWAP5 SWAP4 POP POP POP POP JUMP JUMPDEST PUSH0 DUP2 ISZERO ISZERO SWAP1 POP SWAP2 SWAP1 POP JUMP JUMPDEST PUSH2 0x111B DUP2 PUSH2 0x1107 JUMP JUMPDEST DUP3 MSTORE POP POP JUMP JUMPDEST PUSH0 PUSH1 0xC0 DUP3 ADD SWAP1 POP PUSH2 0x1134 PUSH0 DUP4 ADD DUP10 PUSH2 0xF07 JUMP JUMPDEST PUSH2 0x1141 PUSH1 0x20 DUP4 ADD DUP9 PUSH2 0x10C3 JUMP JUMPDEST PUSH2 0x114E PUSH1 0x40 DUP4 ADD DUP8 PUSH2 0xF07 JUMP JUMPDEST PUSH2 0x115B PUSH1 0x60 DUP4 ADD DUP7 PUSH2 0xF07 JUMP JUMPDEST PUSH2 0x1168 PUSH1 0x80 DUP4 ADD DUP6 PUSH2 0xF07 JUMP JUMPDEST PUSH2 0x1175 PUSH1 0xA0 DUP4 ADD DUP5 PUSH2 0x1112 JUMP JUMPDEST SWAP8 SWAP7 POP POP POP POP POP POP POP JUMP JUMPDEST PUSH0 PUSH1 0x20 DUP3 ADD SWAP1 POP PUSH2 0x1193 PUSH0 DUP4 ADD DUP5 PUSH2 0x10C3 JUMP JUMPDEST SWAP3 SWAP2 POP POP JUMP JUMPDEST PUSH2 0x11A2 DUP2 PUSH2 0xFB5 JUMP JUMPDEST DUP2 EQ PUSH2 0x11AC JUMPI PUSH0 DUP1 REVERT JUMPDEST POP JUMP JUMPDEST PUSH0 DUP2 CALLDATALOAD SWAP1 POP PUSH2 0x11BD DUP2 PUSH2 0x1199 JUMP JUMPDEST SWAP3 SWAP2 POP POP JUMP JUMPDEST PUSH0 DUP1 PUSH0 PUSH1 0x60 DUP5 DUP7 SUB SLT ISZERO PUSH2 0x11DA JUMPI PUSH2 0x11D9 PUSH2 0xEA5 JUMP JUMPDEST JUMPDEST PUSH0 PUSH2 0x11E7 DUP7 DUP3 DUP8 ADD PUSH2 0xEC8 JUMP JUMPDEST SWAP4 POP POP PUSH1 0x20 PUSH2 0x11F8 DUP7 DUP3 DUP8 ADD PUSH2 0x11AF JUMP JUMPDEST SWAP3 POP POP PUSH1 0x40 PUSH2 0x1209 DUP7 DUP3 DUP8 ADD PUSH2 0xEC8 JUMP JUMPDEST SWAP2 POP POP SWAP3 POP SWAP3 POP SWAP3 JUMP JUMPDEST PUSH0 DUP3 DUP3 MSTORE PUSH1 0x20 DUP3 ADD SWAP1 POP SWAP3 SWAP2 POP POP JUMP JUMPDEST PUSH32 0x4F6E6C79207468652061646D696E206F72207468652061737369676E65642072 PUSH0 DUP3 ADD MSTORE PUSH32 0x656365697665722063616E20706572666F726D207468697320616374696F6E2E PUSH1 0x20 DUP3 ADD MSTORE POP JUMP JUMPDEST PUSH0 PUSH2 0x127D PUSH1 0x40 DUP4 PUSH2 0x1213 JUMP JUMPDEST SWAP2 POP PUSH2 0x1288 DUP3 PUSH2 0x1223 JUMP JUMPDEST PUSH1 0x40 DUP3 ADD SWAP1 POP SWAP2 SWAP1 POP JUMP JUMPDEST PUSH0 PUSH1 0x20 DUP3 ADD SWAP1 POP DUP2 DUP2 SUB PUSH0 DUP4 ADD MSTORE PUSH2 0x12AA DUP2 PUSH2 0x1271 JUMP JUMPDEST SWAP1 POP SWAP2 SWAP1 POP JUMP JUMPDEST PUSH32 0x496E76616C696420636861726974792049442E00000000000000000000000000 PUSH0 DUP3 ADD MSTORE POP JUMP JUMPDEST PUSH0 PUSH2 0x12E5 PUSH1 0x13 DUP4 PUSH2 0x1213 JUMP JUMPDEST SWAP2 POP PUSH2 0x12F0 DUP3 PUSH2 0x12B1 JUMP JUMPDEST PUSH1 0x20 DUP3 ADD SWAP1 POP SWAP2 SWAP1 POP JUMP JUMPDEST PUSH0 PUSH1 0x20 DUP3 ADD SWAP1 POP DUP2 DUP2 SUB PUSH0 DUP4 ADD MSTORE PUSH2 0x1312 DUP2 PUSH2 0x12D9 JUMP JUMPDEST SWAP1 POP SWAP2 SWAP1 POP JUMP JUMPDEST PUSH32 0x436861726974792072657175657374206973206E6F74206163746976652E0000 PUSH0 DUP3 ADD MSTORE POP JUMP JUMPDEST PUSH0 PUSH2 0x134D PUSH1 0x1E DUP4 PUSH2 0x1213 JUMP JUMPDEST SWAP2 POP PUSH2 0x1358 DUP3 PUSH2 0x1319 JUMP JUMPDEST PUSH1 0x20 DUP3 ADD SWAP1 POP SWAP2 SWAP1 POP JUMP JUMPDEST PUSH0 PUSH1 0x20 DUP3 ADD SWAP1 POP DUP2 DUP2 SUB PUSH0 DUP4 ADD MSTORE PUSH2 0x137A DUP2 PUSH2 0x1341 JUMP JUMPDEST SWAP1 POP SWAP2 SWAP1 POP JUMP JUMPDEST PUSH32 0x446F6E6174696F6E20616D6F756E74206D757374206265206772656174657220 PUSH0 DUP3 ADD MSTORE PUSH32 0x7468616E207A65726F2E00000000000000000000000000000000000000000000 PUSH1 0x20 DUP3 ADD MSTORE POP JUMP JUMPDEST PUSH0 PUSH2 0x13DB PUSH1 0x2A DUP4 PUSH2 0x1213 JUMP JUMPDEST SWAP2 POP PUSH2 0x13E6 DUP3 PUSH2 0x1381 JUMP JUMPDEST PUSH1 0x40 DUP3 ADD SWAP1 POP SWAP2 SWAP1 POP JUMP JUMPDEST PUSH0 PUSH1 0x20 DUP3 ADD SWAP1 POP DUP2 DUP2 SUB PUSH0 DUP4 ADD MSTORE PUSH2 0x1408 DUP2 PUSH2 0x13CF JUMP JUMPDEST SWAP1 POP SWAP2 SWAP1 POP JUMP JUMPDEST PUSH32 0x4E487B7100000000000000000000000000000000000000000000000000000000 PUSH0 MSTORE PUSH1 0x11 PUSH1 0x4 MSTORE PUSH1 0x24 PUSH0 REVERT JUMPDEST PUSH0 PUSH2 0x1446 DUP3 PUSH2 0xEA9 JUMP JUMPDEST SWAP2 POP PUSH2 0x1451 DUP4 PUSH2 0xEA9 JUMP JUMPDEST SWAP3 POP DUP3 DUP3 ADD SWAP1 POP DUP1 DUP3 GT ISZERO PUSH2 0x1469 JUMPI PUSH2 0x1468 PUSH2 0x140F JUMP JUMPDEST JUMPDEST SWAP3 SWAP2 POP POP JUMP JUMPDEST PUSH32 0x446F6E6174696F6E206578636565647320726571756972656420616D6F756E74 PUSH0 DUP3 ADD MSTORE PUSH32 0x2E00000000000000000000000000000000000000000000000000000000000000 PUSH1 0x20 DUP3 ADD MSTORE POP JUMP JUMPDEST PUSH0 PUSH2 0x14C9 PUSH1 0x21 DUP4 PUSH2 0x1213 JUMP JUMPDEST SWAP2 POP PUSH2 0x14D4 DUP3 PUSH2 0x146F JUMP JUMPDEST PUSH1 0x40 DUP3 ADD SWAP1 POP SWAP2 SWAP1 POP JUMP JUMPDEST PUSH0 PUSH1 0x20 DUP3 ADD SWAP1 POP DUP2 DUP2 SUB PUSH0 DUP4 ADD MSTORE PUSH2 0x14F6 DUP2 PUSH2 0x14BD JUMP JUMPDEST SWAP1 POP SWAP2 SWAP1 POP JUMP JUMPDEST PUSH32 0x4F6E6C79207468652061737369676E65642072656365697665722063616E2070 PUSH0 DUP3 ADD MSTORE PUSH32 0x6572666F726D207468697320616374696F6E2E00000000000000000000000000 PUSH1 0x20 DUP3 ADD MSTORE POP JUMP JUMPDEST PUSH0 PUSH2 0x1557 PUSH1 0x33 DUP4 PUSH2 0x1213 JUMP JUMPDEST SWAP2 POP PUSH2 0x1562 DUP3 PUSH2 0x14FD JUMP JUMPDEST PUSH1 0x40 DUP3 ADD SWAP1 POP SWAP2 SWAP1 POP JUMP JUMPDEST PUSH0 PUSH1 0x20 DUP3 ADD SWAP1 POP DUP2 DUP2 SUB PUSH0 DUP4 ADD MSTORE PUSH2 0x1584 DUP2 PUSH2 0x154B JUMP JUMPDEST SWAP1 POP SWAP2 SWAP1 POP JUMP JUMPDEST PUSH32 0x5769746864726177616C20616D6F756E74206D75737420626520677265617465 PUSH0 DUP3 ADD MSTORE PUSH32 0x72207468616E207A65726F2E0000000000000000000000000000000000000000 PUSH1 0x20 DUP3 ADD MSTORE POP JUMP JUMPDEST PUSH0 PUSH2 0x15E5 PUSH1 0x2C DUP4 PUSH2 0x1213 JUMP JUMPDEST SWAP2 POP PUSH2 0x15F0 DUP3 PUSH2 0x158B JUMP JUMPDEST PUSH1 0x40 DUP3 ADD SWAP1 POP SWAP2 SWAP1 POP JUMP JUMPDEST PUSH0 PUSH1 0x20 DUP3 ADD SWAP1 POP DUP2 DUP2 SUB PUSH0 DUP4 ADD MSTORE PUSH2 0x1612 DUP2 PUSH2 0x15D9 JUMP JUMPDEST SWAP1 POP SWAP2 SWAP1 POP JUMP JUMPDEST PUSH32 0x496E73756666696369656E742062616C616E63652E0000000000000000000000 PUSH0 DUP3 ADD MSTORE POP JUMP JUMPDEST PUSH0 PUSH2 0x164D PUSH1 0x15 DUP4 PUSH2 0x1213 JUMP JUMPDEST SWAP2 POP PUSH2 0x1658 DUP3 PUSH2 0x1619 JUMP JUMPDEST PUSH1 0x20 DUP3 ADD SWAP1 POP SWAP2 SWAP1 POP JUMP JUMPDEST PUSH0 PUSH1 0x20 DUP3 ADD SWAP1 POP DUP2 DUP2 SUB PUSH0 DUP4 ADD MSTORE PUSH2 0x167A DUP2 PUSH2 0x1641 JUMP JUMPDEST SWAP1 POP SWAP2 SWAP1 POP JUMP JUMPDEST PUSH0 PUSH2 0x168B DUP3 PUSH2 0xEA9 JUMP JUMPDEST SWAP2 POP PUSH2 0x1696 DUP4 PUSH2 0xEA9 JUMP JUMPDEST SWAP3 POP DUP3 DUP3 SUB SWAP1 POP DUP2 DUP2 GT ISZERO PUSH2 0x16AE JUMPI PUSH2 0x16AD PUSH2 0x140F JUMP JUMPDEST JUMPDEST SWAP3 SWAP2 POP POP JUMP JUMPDEST PUSH0 DUP2 SWAP1 POP SWAP3 SWAP2 POP POP JUMP JUMPDEST POP JUMP JUMPDEST PUSH0 PUSH2 0x16CC PUSH0 DUP4 PUSH2 0x16B4 JUMP JUMPDEST SWAP2 POP PUSH2 0x16D7 DUP3 PUSH2 0x16BE JUMP JUMPDEST PUSH0 DUP3 ADD SWAP1 POP SWAP2 SWAP1 POP JUMP JUMPDEST PUSH0 PUSH2 0x16EB DUP3 PUSH2 0x16C1 JUMP JUMPDEST SWAP2 POP DUP2 SWAP1 POP SWAP2 SWAP1 POP JUMP JUMPDEST PUSH32 0x5769746864726177616C206661696C65642E0000000000000000000000000000 PUSH0 DUP3 ADD MSTORE POP JUMP JUMPDEST PUSH0 PUSH2 0x1729 PUSH1 0x12 DUP4 PUSH2 0x1213 JUMP JUMPDEST SWAP2 POP PUSH2 0x1734 DUP3 PUSH2 0x16F5 JUMP JUMPDEST PUSH1 0x20 DUP3 ADD SWAP1 POP SWAP2 SWAP1 POP JUMP JUMPDEST PUSH0 PUSH1 0x20 DUP3 ADD SWAP1 POP DUP2 DUP2 SUB PUSH0 DUP4 ADD MSTORE PUSH2 0x1756 DUP2 PUSH2 0x171D JUMP JUMPDEST SWAP1 POP SWAP2 SWAP1 POP JUMP JUMPDEST PUSH32 0x4F6E6C79207468652061646D696E2063616E20706572666F726D207468697320 PUSH0 DUP3 ADD MSTORE PUSH32 0x616374696F6E2E00000000000000000000000000000000000000000000000000 PUSH1 0x20 DUP3 ADD MSTORE POP JUMP JUMPDEST PUSH0 PUSH2 0x17B7 PUSH1 0x27 DUP4 PUSH2 0x1213 JUMP JUMPDEST SWAP2 POP PUSH2 0x17C2 DUP3 PUSH2 0x175D JUMP JUMPDEST PUSH1 0x40 DUP3 ADD SWAP1 POP SWAP2 SWAP1 POP JUMP JUMPDEST PUSH0 PUSH1 0x20 DUP3 ADD SWAP1 POP DUP2 DUP2 SUB PUSH0 DUP4 ADD MSTORE PUSH2 0x17E4 DUP2 PUSH2 0x17AB JUMP JUMPDEST SWAP1 POP SWAP2 SWAP1 POP JUMP JUMPDEST PUSH32 0x526563656976657220616464726573732063616E6E6F74206265207A65726F2E PUSH0 DUP3 ADD MSTORE POP JUMP JUMPDEST PUSH0 PUSH2 0x181F PUSH1 0x20 DUP4 PUSH2 0x1213 JUMP JUMPDEST SWAP2 POP PUSH2 0x182A DUP3 PUSH2 0x17EB JUMP JUMPDEST PUSH1 0x20 DUP3 ADD SWAP1 POP SWAP2 SWAP1 POP JUMP JUMPDEST PUSH0 PUSH1 0x20 DUP3 ADD SWAP1 POP DUP2 DUP2 SUB PUSH0 DUP4 ADD MSTORE PUSH2 0x184C DUP2 PUSH2 0x1813 JUMP JUMPDEST SWAP1 POP SWAP2 SWAP1 POP JUMP JUMPDEST PUSH32 0x4D6178696D756D20616D6F756E74206D75737420626520677265617465722074 PUSH0 DUP3 ADD MSTORE PUSH32 0x68616E207A65726F2E0000000000000000000000000000000000000000000000 PUSH1 0x20 DUP3 ADD MSTORE POP JUMP JUMPDEST PUSH0 PUSH2 0x18AD PUSH1 0x29 DUP4 PUSH2 0x1213 JUMP JUMPDEST SWAP2 POP PUSH2 0x18B8 DUP3 PUSH2 0x1853 JUMP JUMPDEST PUSH1 0x40 DUP3 ADD SWAP1 POP SWAP2 SWAP1 POP JUMP JUMPDEST PUSH0 PUSH1 0x20 DUP3 ADD SWAP1 POP DUP2 DUP2 SUB PUSH0 DUP4 ADD MSTORE PUSH2 0x18DA DUP2 PUSH2 0x18A1 JUMP JUMPDEST SWAP1 POP SWAP2 SWAP1 POP JUMP JUMPDEST PUSH32 0x4368617269747920494420616C7265616479206578697374732E000000000000 PUSH0 DUP3 ADD MSTORE POP JUMP JUMPDEST PUSH0 PUSH2 0x1915 PUSH1 0x1A DUP4 PUSH2 0x1213 JUMP JUMPDEST SWAP2 POP PUSH2 0x1920 DUP3 PUSH2 0x18E1 JUMP JUMPDEST PUSH1 0x20 DUP3 ADD SWAP1 POP SWAP2 SWAP1 POP JUMP JUMPDEST PUSH0 PUSH1 0x20 DUP3 ADD SWAP1 POP DUP2 DUP2 SUB PUSH0 DUP4 ADD MSTORE PUSH2 0x1942 DUP2 PUSH2 0x1909 JUMP JUMPDEST SWAP1 POP SWAP2 SWAP1 POP JUMP JUMPDEST PUSH0 PUSH2 0x1953 DUP3 PUSH2 0xEA9 JUMP JUMPDEST SWAP2 POP PUSH32 0xFFFFFFFFFFFFFFFFFFFFFFFFFFFFFFFFFFFFFFFFFFFFFFFFFFFFFFFFFFFFFFFF DUP3 SUB PUSH2 0x1985 JUMPI PUSH2 0x1984 PUSH2 0x140F JUMP JUMPDEST JUMPDEST PUSH1 0x1 DUP3 ADD SWAP1 POP SWAP2 SWAP1 POP JUMP INVALID LOG2 PUSH5 0x6970667358 0x22 SLT KECCAK256 TLOAD 0xDD DUP1 0xE4 SLT PUSH5 0xC392F92347 0xEC TLOAD LOG3 PUSH26 0x35D4F20FE6DA7E943B175B7CA24FED3A1664736F6C634300081A STOP CALLER "
				},
				"gasEstimates": {
					"creation": {
						"codeDepositCost": "1319600",
						"executionCost": "25639",
						"totalCost": "1345239"
					},
					"external": {
						"admin()": "2571",
						"charityCount()": "2469",
						"charityDonations(uint256,uint256)": "infinite",
						"charityRequests(uint256)": "infinite",
						"createCharityRequest(uint256,address,uint256)": "infinite",
						"donate(uint256,uint256)": "infinite",
						"getContractBalance(uint256)": "infinite",
						"getDonations(uint256)": "infinite",
						"withdraw(uint256,uint256)": "infinite"
					}
				},
				"methodIdentifiers": {
					"admin()": "f851a440",
					"charityCount()": "91329493",
					"charityDonations(uint256,uint256)": "5cbbb574",
					"charityRequests(uint256)": "5effffa9",
					"createCharityRequest(uint256,address,uint256)": "ffded55d",
					"donate(uint256,uint256)": "0cdd53f6",
					"getContractBalance(uint256)": "05d63070",
					"getDonations(uint256)": "596d9ce2",
					"withdraw(uint256,uint256)": "441a3e70"
				}
			},
			"storageLayout": {
				"storage": [
					{
						"astId": 3,
						"contract": "contracts/charity.sol:CharityDonation",
						"label": "admin",
						"offset": 0,
						"slot": "0",
						"type": "t_address"
					},
					{
						"astId": 21,
						"contract": "contracts/charity.sol:CharityDonation",
						"label": "charityRequests",
						"offset": 0,
						"slot": "1",
						"type": "t_mapping(t_uint256,t_struct(Charity)16_storage)"
					},
					{
						"astId": 27,
						"contract": "contracts/charity.sol:CharityDonation",
						"label": "charityDonations",
						"offset": 0,
						"slot": "2",
						"type": "t_mapping(t_uint256,t_array(t_struct(Donation)36_storage)dyn_storage)"
					},
					{
						"astId": 29,
						"contract": "contracts/charity.sol:CharityDonation",
						"label": "charityCount",
						"offset": 0,
						"slot": "3",
						"type": "t_uint256"
					}
				],
				"types": {
					"t_address": {
						"encoding": "inplace",
						"label": "address",
						"numberOfBytes": "20"
					},
					"t_array(t_struct(Donation)36_storage)dyn_storage": {
						"base": "t_struct(Donation)36_storage",
						"encoding": "dynamic_array",
						"label": "struct CharityDonation.Donation[]",
						"numberOfBytes": "32"
					},
					"t_bool": {
						"encoding": "inplace",
						"label": "bool",
						"numberOfBytes": "1"
					},
					"t_mapping(t_uint256,t_array(t_struct(Donation)36_storage)dyn_storage)": {
						"encoding": "mapping",
						"key": "t_uint256",
						"label": "mapping(uint256 => struct CharityDonation.Donation[])",
						"numberOfBytes": "32",
						"value": "t_array(t_struct(Donation)36_storage)dyn_storage"
					},
					"t_mapping(t_uint256,t_struct(Charity)16_storage)": {
						"encoding": "mapping",
						"key": "t_uint256",
						"label": "mapping(uint256 => struct CharityDonation.Charity)",
						"numberOfBytes": "32",
						"value": "t_struct(Charity)16_storage"
					},
					"t_struct(Charity)16_storage": {
						"encoding": "inplace",
						"label": "struct CharityDonation.Charity",
						"members": [
							{
								"astId": 5,
								"contract": "contracts/charity.sol:CharityDonation",
								"label": "id",
								"offset": 0,
								"slot": "0",
								"type": "t_uint256"
							},
							{
								"astId": 7,
								"contract": "contracts/charity.sol:CharityDonation",
								"label": "receiver",
								"offset": 0,
								"slot": "1",
								"type": "t_address"
							},
							{
								"astId": 9,
								"contract": "contracts/charity.sol:CharityDonation",
								"label": "maxAmount",
								"offset": 0,
								"slot": "2",
								"type": "t_uint256"
							},
							{
								"astId": 11,
								"contract": "contracts/charity.sol:CharityDonation",
								"label": "collected",
								"offset": 0,
								"slot": "3",
								"type": "t_uint256"
							},
							{
								"astId": 13,
								"contract": "contracts/charity.sol:CharityDonation",
								"label": "balance",
								"offset": 0,
								"slot": "4",
								"type": "t_uint256"
							},
							{
								"astId": 15,
								"contract": "contracts/charity.sol:CharityDonation",
								"label": "status",
								"offset": 0,
								"slot": "5",
								"type": "t_bool"
							}
						],
						"numberOfBytes": "192"
					},
					"t_struct(Donation)36_storage": {
						"encoding": "inplace",
						"label": "struct CharityDonation.Donation",
						"members": [
							{
								"astId": 31,
								"contract": "contracts/charity.sol:CharityDonation",
								"label": "donor",
								"offset": 0,
								"slot": "0",
								"type": "t_address"
							},
							{
								"astId": 33,
								"contract": "contracts/charity.sol:CharityDonation",
								"label": "amount",
								"offset": 0,
								"slot": "1",
								"type": "t_uint256"
							},
							{
								"astId": 35,
								"contract": "contracts/charity.sol:CharityDonation",
								"label": "timestamp",
								"offset": 0,
								"slot": "2",
								"type": "t_uint256"
							}
						],
						"numberOfBytes": "96"
					},
					"t_uint256": {
						"encoding": "inplace",
						"label": "uint256",
						"numberOfBytes": "32"
					}
				}
			},
			"userdoc": {
				"kind": "user",
				"methods": {},
				"version": 1
			}
		}
	}
}