{
	"contracts/LogicContract.sol": {
		"ProxyContract": {
			"abi": [
				{
					"inputs": [
						{
							"internalType": "address",
							"name": "_logicContract",
							"type": "address"
						}
					],
					"stateMutability": "nonpayable",
					"type": "constructor"
				},
				{
					"stateMutability": "payable",
					"type": "fallback"
				},
				{
					"inputs": [],
					"name": "logicContract",
					"outputs": [
						{
							"internalType": "address",
							"name": "",
							"type": "address"
						}
					],
					"stateMutability": "view",
					"type": "function"
				},
				{
					"inputs": [
						{
							"internalType": "address",
							"name": "_newLogicContract",
							"type": "address"
						}
					],
					"name": "upgrade",
					"outputs": [],
					"stateMutability": "nonpayable",
					"type": "function"
				}
			],
			"devdoc": {
				"kind": "dev",
				"methods": {},
				"version": 1
			},
			"evm": {
				"assembly": "    /* \"contracts/LogicContract.sol\":201:1004  contract ProxyContract {... */\n  mstore(0x40, 0x80)\n    /* \"contracts/LogicContract.sol\":268:353  constructor(address _logicContract) {... */\n  callvalue\n  dup1\n  iszero\n  tag_1\n  jumpi\n  revert(0x00, 0x00)\ntag_1:\n  pop\n  mload(0x40)\n  sub(codesize, bytecodeSize)\n  dup1\n  bytecodeSize\n  dup4\n  codecopy\n  dup2\n  dup2\n  add\n  0x40\n  mstore\n  dup2\n  add\n  swap1\n  tag_2\n  swap2\n  swap1\n  tag_3\n  jump\t// in\ntag_2:\n    /* \"contracts/LogicContract.sol\":331:345  _logicContract */\n  dup1\n    /* \"contracts/LogicContract.sol\":315:328  logicContract */\n  0x00\n  0x00\n    /* \"contracts/LogicContract.sol\":315:345  logicContract = _logicContract */\n  0x0100\n  exp\n  dup2\n  sload\n  dup2\n  0xffffffffffffffffffffffffffffffffffffffff\n  mul\n  not\n  and\n  swap1\n  dup4\n  0xffffffffffffffffffffffffffffffffffffffff\n  and\n  mul\n  or\n  swap1\n  sstore\n  pop\n    /* \"contracts/LogicContract.sol\":268:353  constructor(address _logicContract) {... */\n  pop\n    /* \"contracts/LogicContract.sol\":201:1004  contract ProxyContract {... */\n  jump(tag_6)\n    /* \"#utility.yul\":88:205   */\ntag_8:\n    /* \"#utility.yul\":197:198   */\n  0x00\n    /* \"#utility.yul\":194:195   */\n  0x00\n    /* \"#utility.yul\":187:199   */\n  revert\n    /* \"#utility.yul\":334:460   */\ntag_10:\n    /* \"#utility.yul\":371:378   */\n  0x00\n    /* \"#utility.yul\":411:453   */\n  0xffffffffffffffffffffffffffffffffffffffff\n    /* \"#utility.yul\":404:409   */\n  dup3\n    /* \"#utility.yul\":400:454   */\n  and\n    /* \"#utility.yul\":389:454   */\n  swap1\n  pop\n    /* \"#utility.yul\":334:460   */\n  swap2\n  swap1\n  pop\n  jump\t// out\n    /* \"#utility.yul\":466:562   */\ntag_11:\n    /* \"#utility.yul\":503:510   */\n  0x00\n    /* \"#utility.yul\":532:556   */\n  tag_20\n    /* \"#utility.yul\":550:555   */\n  dup3\n    /* \"#utility.yul\":532:556   */\n  tag_10\n  jump\t// in\ntag_20:\n    /* \"#utility.yul\":521:556   */\n  swap1\n  pop\n    /* \"#utility.yul\":466:562   */\n  swap2\n  swap1\n  pop\n  jump\t// out\n    /* \"#utility.yul\":568:690   */\ntag_12:\n    /* \"#utility.yul\":641:665   */\n  tag_22\n    /* \"#utility.yul\":659:664   */\n  dup2\n    /* \"#utility.yul\":641:665   */\n  tag_11\n  jump\t// in\ntag_22:\n    /* \"#utility.yul\":634:639   */\n  dup2\n    /* \"#utility.yul\":631:666   */\n  eq\n    /* \"#utility.yul\":621:684   */\n  tag_23\n  jumpi\n    /* \"#utility.yul\":680:681   */\n  0x00\n    /* \"#utility.yul\":677:678   */\n  0x00\n    /* \"#utility.yul\":670:682   */\n  revert\n    /* \"#utility.yul\":621:684   */\ntag_23:\n    /* \"#utility.yul\":568:690   */\n  pop\n  jump\t// out\n    /* \"#utility.yul\":696:839   */\ntag_13:\n    /* \"#utility.yul\":753:758   */\n  0x00\n    /* \"#utility.yul\":784:790   */\n  dup2\n    /* \"#utility.yul\":778:791   */\n  mload\n    /* \"#utility.yul\":769:791   */\n  swap1\n  pop\n    /* \"#utility.yul\":800:833   */\n  tag_25\n    /* \"#utility.yul\":827:832   */\n  dup2\n    /* \"#utility.yul\":800:833   */\n  tag_12\n  jump\t// in\ntag_25:\n    /* \"#utility.yul\":696:839   */\n  swap3\n  swap2\n  pop\n  pop\n  jump\t// out\n    /* \"#utility.yul\":845:1196   */\ntag_3:\n    /* \"#utility.yul\":915:921   */\n  0x00\n    /* \"#utility.yul\":964:966   */\n  0x20\n    /* \"#utility.yul\":952:961   */\n  dup3\n    /* \"#utility.yul\":943:950   */\n  dup5\n    /* \"#utility.yul\":939:962   */\n  sub\n    /* \"#utility.yul\":935:967   */\n  slt\n    /* \"#utility.yul\":932:1051   */\n  iszero\n  tag_27\n  jumpi\n    /* \"#utility.yul\":970:1049   */\n  tag_28\n  tag_8\n  jump\t// in\ntag_28:\n    /* \"#utility.yul\":932:1051   */\ntag_27:\n    /* \"#utility.yul\":1090:1091   */\n  0x00\n    /* \"#utility.yul\":1115:1179   */\n  tag_29\n    /* \"#utility.yul\":1171:1178   */\n  dup5\n    /* \"#utility.yul\":1162:1168   */\n  dup3\n    /* \"#utility.yul\":1151:1160   */\n  dup6\n    /* \"#utility.yul\":1147:1169   */\n  add\n    /* \"#utility.yul\":1115:1179   */\n  tag_13\n  jump\t// in\ntag_29:\n    /* \"#utility.yul\":1105:1179   */\n  swap2\n  pop\n    /* \"#utility.yul\":1061:1189   */\n  pop\n    /* \"#utility.yul\":845:1196   */\n  swap3\n  swap2\n  pop\n  pop\n  jump\t// out\n    /* \"contracts/LogicContract.sol\":201:1004  contract ProxyContract {... */\ntag_6:\n  dataSize(sub_0)\n  dup1\n  dataOffset(sub_0)\n  0x00\n  codecopy\n  0x00\n  return\nstop\n\nsub_0: assembly {\n        /* \"contracts/LogicContract.sol\":201:1004  contract ProxyContract {... */\n      mstore(0x40, 0x80)\n      jumpi(tag_1, lt(calldatasize, 0x04))\n      shr(0xe0, calldataload(0x00))\n      dup1\n      0x0900f010\n      eq\n      tag_3\n      jumpi\n      dup1\n      0xcc0e97c9\n      eq\n      tag_4\n      jumpi\n      jump(tag_2)\n    tag_1:\n    tag_2:\n        /* \"contracts/LogicContract.sol\":511:524  address _impl */\n      0x00\n        /* \"contracts/LogicContract.sol\":527:540  logicContract */\n      0x00\n      0x00\n      swap1\n      sload\n      swap1\n      0x0100\n      exp\n      swap1\n      div\n      0xffffffffffffffffffffffffffffffffffffffff\n      and\n        /* \"contracts/LogicContract.sol\":511:540  address _impl = logicContract */\n      swap1\n      pop\n        /* \"contracts/LogicContract.sol\":576:577  0 */\n      0x00\n        /* \"contracts/LogicContract.sol\":559:578  _impl != address(0) */\n      0xffffffffffffffffffffffffffffffffffffffff\n      and\n        /* \"contracts/LogicContract.sol\":559:564  _impl */\n      dup2\n        /* \"contracts/LogicContract.sol\":559:578  _impl != address(0) */\n      0xffffffffffffffffffffffffffffffffffffffff\n      and\n      sub\n        /* \"contracts/LogicContract.sol\":551:605  require(_impl != address(0), \"Logic contract not set\") */\n      tag_7\n      jumpi\n      mload(0x40)\n      0x08c379a000000000000000000000000000000000000000000000000000000000\n      dup2\n      mstore\n      0x04\n      add\n      tag_8\n      swap1\n      tag_9\n      jump\t// in\n    tag_8:\n      mload(0x40)\n      dup1\n      swap2\n      sub\n      swap1\n      revert\n    tag_7:\n        /* \"contracts/LogicContract.sol\":657:661  0x40 */\n      0x40\n        /* \"contracts/LogicContract.sol\":651:662  mload(0x40) */\n      mload\n        /* \"contracts/LogicContract.sol\":697:711  calldatasize() */\n      calldatasize\n        /* \"contracts/LogicContract.sol\":694:695  0 */\n      0x00\n        /* \"contracts/LogicContract.sol\":689:692  ptr */\n      dup3\n        /* \"contracts/LogicContract.sol\":676:712  calldatacopy(ptr, 0, calldatasize()) */\n      calldatacopy\n        /* \"contracts/LogicContract.sol\":791:792  0 */\n      0x00\n        /* \"contracts/LogicContract.sol\":788:789  0 */\n      0x00\n        /* \"contracts/LogicContract.sol\":772:786  calldatasize() */\n      calldatasize\n        /* \"contracts/LogicContract.sol\":767:770  ptr */\n      dup4\n        /* \"contracts/LogicContract.sol\":760:765  _impl */\n      dup6\n        /* \"contracts/LogicContract.sol\":753:758  gas() */\n      gas\n        /* \"contracts/LogicContract.sol\":740:793  delegatecall(gas(), _impl, ptr, calldatasize(), 0, 0) */\n      delegatecall\n        /* \"contracts/LogicContract.sol\":830:846  returndatasize() */\n      returndatasize\n        /* \"contracts/LogicContract.sol\":827:828  0 */\n      0x00\n        /* \"contracts/LogicContract.sol\":822:825  ptr */\n      dup4\n        /* \"contracts/LogicContract.sol\":807:847  returndatacopy(ptr, 0, returndatasize()) */\n      returndatacopy\n        /* \"contracts/LogicContract.sol\":868:874  result */\n      dup1\n        /* \"contracts/LogicContract.sol\":893:894  0 */\n      0x00\n        /* \"contracts/LogicContract.sol\":888:928  case 0 { revert(ptr, returndatasize()) } */\n      dup2\n      eq\n      tag_11\n      jumpi\n        /* \"contracts/LogicContract.sol\":964:980  returndatasize() */\n      returndatasize\n        /* \"contracts/LogicContract.sol\":959:962  ptr */\n      dup4\n        /* \"contracts/LogicContract.sol\":952:981  return(ptr, returndatasize()) */\n      return\n        /* \"contracts/LogicContract.sol\":888:928  case 0 { revert(ptr, returndatasize()) } */\n    tag_11:\n        /* \"contracts/LogicContract.sol\":909:925  returndatasize() */\n      returndatasize\n        /* \"contracts/LogicContract.sol\":904:907  ptr */\n      dup4\n        /* \"contracts/LogicContract.sol\":897:926  revert(ptr, returndatasize()) */\n      revert\n        /* \"contracts/LogicContract.sol\":361:464  function upgrade(address _newLogicContract) public {... */\n    tag_3:\n      callvalue\n      dup1\n      iszero\n      tag_12\n      jumpi\n      revert(0x00, 0x00)\n    tag_12:\n      pop\n      tag_13\n      0x04\n      dup1\n      calldatasize\n      sub\n      dup2\n      add\n      swap1\n      tag_14\n      swap2\n      swap1\n      tag_15\n      jump\t// in\n    tag_14:\n      tag_16\n      jump\t// in\n    tag_13:\n      stop\n        /* \"contracts/LogicContract.sol\":231:259  address public logicContract */\n    tag_4:\n      callvalue\n      dup1\n      iszero\n      tag_17\n      jumpi\n      revert(0x00, 0x00)\n    tag_17:\n      pop\n      tag_18\n      tag_19\n      jump\t// in\n    tag_18:\n      mload(0x40)\n      tag_20\n      swap2\n      swap1\n      tag_21\n      jump\t// in\n    tag_20:\n      mload(0x40)\n      dup1\n      swap2\n      sub\n      swap1\n      return\n        /* \"contracts/LogicContract.sol\":361:464  function upgrade(address _newLogicContract) public {... */\n    tag_16:\n        /* \"contracts/LogicContract.sol\":439:456  _newLogicContract */\n      dup1\n        /* \"contracts/LogicContract.sol\":423:436  logicContract */\n      0x00\n      0x00\n        /* \"contracts/LogicContract.sol\":423:456  logicContract = _newLogicContract */\n      0x0100\n      exp\n      dup2\n      sload\n      dup2\n      0xffffffffffffffffffffffffffffffffffffffff\n      mul\n      not\n      and\n      swap1\n      dup4\n      0xffffffffffffffffffffffffffffffffffffffff\n      and\n      mul\n      or\n      swap1\n      sstore\n      pop\n        /* \"contracts/LogicContract.sol\":361:464  function upgrade(address _newLogicContract) public {... */\n      pop\n      jump\t// out\n        /* \"contracts/LogicContract.sol\":231:259  address public logicContract */\n    tag_19:\n      0x00\n      0x00\n      swap1\n      sload\n      swap1\n      0x0100\n      exp\n      swap1\n      div\n      0xffffffffffffffffffffffffffffffffffffffff\n      and\n      dup2\n      jump\t// out\n        /* \"#utility.yul\":7:176   */\n    tag_23:\n        /* \"#utility.yul\":91:102   */\n      0x00\n        /* \"#utility.yul\":125:131   */\n      dup3\n        /* \"#utility.yul\":120:123   */\n      dup3\n        /* \"#utility.yul\":113:132   */\n      mstore\n        /* \"#utility.yul\":165:169   */\n      0x20\n        /* \"#utility.yul\":160:163   */\n      dup3\n        /* \"#utility.yul\":156:170   */\n      add\n        /* \"#utility.yul\":141:170   */\n      swap1\n      pop\n        /* \"#utility.yul\":7:176   */\n      swap3\n      swap2\n      pop\n      pop\n      jump\t// out\n        /* \"#utility.yul\":182:354   */\n    tag_24:\n        /* \"#utility.yul\":322:346   */\n      0x4c6f67696320636f6e7472616374206e6f742073657400000000000000000000\n        /* \"#utility.yul\":318:319   */\n      0x00\n        /* \"#utility.yul\":310:316   */\n      dup3\n        /* \"#utility.yul\":306:320   */\n      add\n        /* \"#utility.yul\":299:347   */\n      mstore\n        /* \"#utility.yul\":182:354   */\n      pop\n      jump\t// out\n        /* \"#utility.yul\":360:726   */\n    tag_25:\n        /* \"#utility.yul\":502:505   */\n      0x00\n        /* \"#utility.yul\":523:590   */\n      tag_38\n        /* \"#utility.yul\":587:589   */\n      0x16\n        /* \"#utility.yul\":582:585   */\n      dup4\n        /* \"#utility.yul\":523:590   */\n      tag_23\n      jump\t// in\n    tag_38:\n        /* \"#utility.yul\":516:590   */\n      swap2\n      pop\n        /* \"#utility.yul\":599:692   */\n      tag_39\n        /* \"#utility.yul\":688:691   */\n      dup3\n        /* \"#utility.yul\":599:692   */\n      tag_24\n      jump\t// in\n    tag_39:\n        /* \"#utility.yul\":717:719   */\n      0x20\n        /* \"#utility.yul\":712:715   */\n      dup3\n        /* \"#utility.yul\":708:720   */\n      add\n        /* \"#utility.yul\":701:720   */\n      swap1\n      pop\n        /* \"#utility.yul\":360:726   */\n      swap2\n      swap1\n      pop\n      jump\t// out\n        /* \"#utility.yul\":732:1151   */\n    tag_9:\n        /* \"#utility.yul\":898:902   */\n      0x00\n        /* \"#utility.yul\":936:938   */\n      0x20\n        /* \"#utility.yul\":925:934   */\n      dup3\n        /* \"#utility.yul\":921:939   */\n      add\n        /* \"#utility.yul\":913:939   */\n      swap1\n      pop\n        /* \"#utility.yul\":985:994   */\n      dup2\n        /* \"#utility.yul\":979:983   */\n      dup2\n        /* \"#utility.yul\":975:995   */\n      sub\n        /* \"#utility.yul\":971:972   */\n      0x00\n        /* \"#utility.yul\":960:969   */\n      dup4\n        /* \"#utility.yul\":956:973   */\n      add\n        /* \"#utility.yul\":949:996   */\n      mstore\n        /* \"#utility.yul\":1013:1144   */\n      tag_41\n        /* \"#utility.yul\":1139:1143   */\n      dup2\n        /* \"#utility.yul\":1013:1144   */\n      tag_25\n      jump\t// in\n    tag_41:\n        /* \"#utility.yul\":1005:1144   */\n      swap1\n      pop\n        /* \"#utility.yul\":732:1151   */\n      swap2\n      swap1\n      pop\n      jump\t// out\n        /* \"#utility.yul\":1238:1355   */\n    tag_27:\n        /* \"#utility.yul\":1347:1348   */\n      0x00\n        /* \"#utility.yul\":1344:1345   */\n      0x00\n        /* \"#utility.yul\":1337:1349   */\n      revert\n        /* \"#utility.yul\":1484:1610   */\n    tag_29:\n        /* \"#utility.yul\":1521:1528   */\n      0x00\n        /* \"#utility.yul\":1561:1603   */\n      0xffffffffffffffffffffffffffffffffffffffff\n        /* \"#utility.yul\":1554:1559   */\n      dup3\n        /* \"#utility.yul\":1550:1604   */\n      and\n        /* \"#utility.yul\":1539:1604   */\n      swap1\n      pop\n        /* \"#utility.yul\":1484:1610   */\n      swap2\n      swap1\n      pop\n      jump\t// out\n        /* \"#utility.yul\":1616:1712   */\n    tag_30:\n        /* \"#utility.yul\":1653:1660   */\n      0x00\n        /* \"#utility.yul\":1682:1706   */\n      tag_47\n        /* \"#utility.yul\":1700:1705   */\n      dup3\n        /* \"#utility.yul\":1682:1706   */\n      tag_29\n      jump\t// in\n    tag_47:\n        /* \"#utility.yul\":1671:1706   */\n      swap1\n      pop\n        /* \"#utility.yul\":1616:1712   */\n      swap2\n      swap1\n      pop\n      jump\t// out\n        /* \"#utility.yul\":1718:1840   */\n    tag_31:\n        /* \"#utility.yul\":1791:1815   */\n      tag_49\n        /* \"#utility.yul\":1809:1814   */\n      dup2\n        /* \"#utility.yul\":1791:1815   */\n      tag_30\n      jump\t// in\n    tag_49:\n        /* \"#utility.yul\":1784:1789   */\n      dup2\n        /* \"#utility.yul\":1781:1816   */\n      eq\n        /* \"#utility.yul\":1771:1834   */\n      tag_50\n      jumpi\n        /* \"#utility.yul\":1830:1831   */\n      0x00\n        /* \"#utility.yul\":1827:1828   */\n      0x00\n        /* \"#utility.yul\":1820:1832   */\n      revert\n        /* \"#utility.yul\":1771:1834   */\n    tag_50:\n        /* \"#utility.yul\":1718:1840   */\n      pop\n      jump\t// out\n        /* \"#utility.yul\":1846:1985   */\n    tag_32:\n        /* \"#utility.yul\":1892:1897   */\n      0x00\n        /* \"#utility.yul\":1930:1936   */\n      dup2\n        /* \"#utility.yul\":1917:1937   */\n      calldataload\n        /* \"#utility.yul\":1908:1937   */\n      swap1\n      pop\n        /* \"#utility.yul\":1946:1979   */\n      tag_52\n        /* \"#utility.yul\":1973:1978   */\n      dup2\n        /* \"#utility.yul\":1946:1979   */\n      tag_31\n      jump\t// in\n    tag_52:\n        /* \"#utility.yul\":1846:1985   */\n      swap3\n      swap2\n      pop\n      pop\n      jump\t// out\n        /* \"#utility.yul\":1991:2320   */\n    tag_15:\n        /* \"#utility.yul\":2050:2056   */\n      0x00\n        /* \"#utility.yul\":2099:2101   */\n      0x20\n        /* \"#utility.yul\":2087:2096   */\n      dup3\n        /* \"#utility.yul\":2078:2085   */\n      dup5\n        /* \"#utility.yul\":2074:2097   */\n      sub\n        /* \"#utility.yul\":2070:2102   */\n      slt\n        /* \"#utility.yul\":2067:2186   */\n      iszero\n      tag_54\n      jumpi\n        /* \"#utility.yul\":2105:2184   */\n      tag_55\n      tag_27\n      jump\t// in\n    tag_55:\n        /* \"#utility.yul\":2067:2186   */\n    tag_54:\n        /* \"#utility.yul\":2225:2226   */\n      0x00\n        /* \"#utility.yul\":2250:2303   */\n      tag_56\n        /* \"#utility.yul\":2295:2302   */\n      dup5\n        /* \"#utility.yul\":2286:2292   */\n      dup3\n        /* \"#utility.yul\":2275:2284   */\n      dup6\n        /* \"#utility.yul\":2271:2293   */\n      add\n        /* \"#utility.yul\":2250:2303   */\n      tag_32\n      jump\t// in\n    tag_56:\n        /* \"#utility.yul\":2240:2303   */\n      swap2\n      pop\n        /* \"#utility.yul\":2196:2313   */\n      pop\n        /* \"#utility.yul\":1991:2320   */\n      swap3\n      swap2\n      pop\n      pop\n      jump\t// out\n        /* \"#utility.yul\":2326:2444   */\n    tag_33:\n        /* \"#utility.yul\":2413:2437   */\n      tag_58\n        /* \"#utility.yul\":2431:2436   */\n      dup2\n        /* \"#utility.yul\":2413:2437   */\n      tag_30\n      jump\t// in\n    tag_58:\n        /* \"#utility.yul\":2408:2411   */\n      dup3\n        /* \"#utility.yul\":2401:2438   */\n      mstore\n        /* \"#utility.yul\":2326:2444   */\n      pop\n      pop\n      jump\t// out\n        /* \"#utility.yul\":2450:2672   */\n    tag_21:\n        /* \"#utility.yul\":2543:2547   */\n      0x00\n        /* \"#utility.yul\":2581:2583   */\n      0x20\n        /* \"#utility.yul\":2570:2579   */\n      dup3\n        /* \"#utility.yul\":2566:2584   */\n      add\n        /* \"#utility.yul\":2558:2584   */\n      swap1\n      pop\n        /* \"#utility.yul\":2594:2665   */\n      tag_60\n        /* \"#utility.yul\":2662:2663   */\n      0x00\n        /* \"#utility.yul\":2651:2660   */\n      dup4\n        /* \"#utility.yul\":2647:2664   */\n      add\n        /* \"#utility.yul\":2638:2644   */\n      dup5\n        /* \"#utility.yul\":2594:2665   */\n      tag_33\n      jump\t// in\n    tag_60:\n        /* \"#utility.yul\":2450:2672   */\n      swap3\n      swap2\n      pop\n      pop\n      jump\t// out\n\n    auxdata: 0xa2646970667358221220189337e5bd86ec39aa979ca17640c95ff5989a471835407bcc6161208c1f793364736f6c634300081e0033\n}\n",
				"bytecode": {
					"linkReferences": {},
					"object": "608060405234801561000f575f5ffd5b50604051610404380380610404833981810160405281019061003191906100d4565b805f5f6101000a81548173ffffffffffffffffffffffffffffffffffffffff021916908373ffffffffffffffffffffffffffffffffffffffff160217905550506100ff565b5f5ffd5b5f73ffffffffffffffffffffffffffffffffffffffff82169050919050565b5f6100a38261007a565b9050919050565b6100b381610099565b81146100bd575f5ffd5b50565b5f815190506100ce816100aa565b92915050565b5f602082840312156100e9576100e8610076565b5b5f6100f6848285016100c0565b91505092915050565b6102f88061010c5f395ff3fe60806040526004361061002c575f3560e01c80630900f010146100e1578063cc0e97c9146101095761002d565b5b5f5f5f9054906101000a900473ffffffffffffffffffffffffffffffffffffffff1690505f73ffffffffffffffffffffffffffffffffffffffff168173ffffffffffffffffffffffffffffffffffffffff16036100bf576040517f08c379a00000000000000000000000000000000000000000000000000000000081526004016100b6906101f3565b60405180910390fd5b604051365f82375f5f3683855af43d5f833e805f81146100dd573d83f35b3d83fd5b3480156100ec575f5ffd5b506101076004803603810190610102919061026f565b610133565b005b348015610114575f5ffd5b5061011d610175565b60405161012a91906102a9565b60405180910390f35b805f5f6101000a81548173ffffffffffffffffffffffffffffffffffffffff021916908373ffffffffffffffffffffffffffffffffffffffff16021790555050565b5f5f9054906101000a900473ffffffffffffffffffffffffffffffffffffffff1681565b5f82825260208201905092915050565b7f4c6f67696320636f6e7472616374206e6f7420736574000000000000000000005f82015250565b5f6101dd601683610199565b91506101e8826101a9565b602082019050919050565b5f6020820190508181035f83015261020a816101d1565b9050919050565b5f5ffd5b5f73ffffffffffffffffffffffffffffffffffffffff82169050919050565b5f61023e82610215565b9050919050565b61024e81610234565b8114610258575f5ffd5b50565b5f8135905061026981610245565b92915050565b5f6020828403121561028457610283610211565b5b5f6102918482850161025b565b91505092915050565b6102a381610234565b82525050565b5f6020820190506102bc5f83018461029a565b9291505056fea2646970667358221220189337e5bd86ec39aa979ca17640c95ff5989a471835407bcc6161208c1f793364736f6c634300081e0033",
					"opcodes": "PUSH1 0x80 PUSH1 0x40 MSTORE CALLVALUE DUP1 ISZERO PUSH2 0xF JUMPI PUSH0 PUSH0 REVERT JUMPDEST POP PUSH1 0x40 MLOAD PUSH2 0x404 CODESIZE SUB DUP1 PUSH2 0x404 DUP4 CODECOPY DUP2 DUP2 ADD PUSH1 0x40 MSTORE DUP2 ADD SWAP1 PUSH2 0x31 SWAP2 SWAP1 PUSH2 0xD4 JUMP JUMPDEST DUP1 PUSH0 PUSH0 PUSH2 0x100 EXP DUP2 SLOAD DUP2 PUSH20 0xFFFFFFFFFFFFFFFFFFFFFFFFFFFFFFFFFFFFFFFF MUL NOT AND SWAP1 DUP4 PUSH20 0xFFFFFFFFFFFFFFFFFFFFFFFFFFFFFFFFFFFFFFFF AND MUL OR SWAP1 SSTORE POP POP PUSH2 0xFF JUMP JUMPDEST PUSH0 PUSH0 REVERT JUMPDEST PUSH0 PUSH20 0xFFFFFFFFFFFFFFFFFFFFFFFFFFFFFFFFFFFFFFFF DUP3 AND SWAP1 POP SWAP2 SWAP1 POP JUMP JUMPDEST PUSH0 PUSH2 0xA3 DUP3 PUSH2 0x7A JUMP JUMPDEST SWAP1 POP SWAP2 SWAP1 POP JUMP JUMPDEST PUSH2 0xB3 DUP2 PUSH2 0x99 JUMP JUMPDEST DUP2 EQ PUSH2 0xBD JUMPI PUSH0 PUSH0 REVERT JUMPDEST POP JUMP JUMPDEST PUSH0 DUP2 MLOAD SWAP1 POP PUSH2 0xCE DUP2 PUSH2 0xAA JUMP JUMPDEST SWAP3 SWAP2 POP POP JUMP JUMPDEST PUSH0 PUSH1 0x20 DUP3 DUP5 SUB SLT ISZERO PUSH2 0xE9 JUMPI PUSH2 0xE8 PUSH2 0x76 JUMP JUMPDEST JUMPDEST PUSH0 PUSH2 0xF6 DUP5 DUP3 DUP6 ADD PUSH2 0xC0 JUMP JUMPDEST SWAP2 POP POP SWAP3 SWAP2 POP POP JUMP JUMPDEST PUSH2 0x2F8 DUP1 PUSH2 0x10C PUSH0 CODECOPY PUSH0 RETURN INVALID PUSH1 0x80 PUSH1 0x40 MSTORE PUSH1 0x4 CALLDATASIZE LT PUSH2 0x2C JUMPI PUSH0 CALLDATALOAD PUSH1 0xE0 SHR DUP1 PUSH4 0x900F010 EQ PUSH2 0xE1 JUMPI DUP1 PUSH4 0xCC0E97C9 EQ PUSH2 0x109 JUMPI PUSH2 0x2D JUMP JUMPDEST JUMPDEST PUSH0 PUSH0 PUSH0 SWAP1 SLOAD SWAP1 PUSH2 0x100 EXP SWAP1 DIV PUSH20 0xFFFFFFFFFFFFFFFFFFFFFFFFFFFFFFFFFFFFFFFF AND SWAP1 POP PUSH0 PUSH20 0xFFFFFFFFFFFFFFFFFFFFFFFFFFFFFFFFFFFFFFFF AND DUP2 PUSH20 0xFFFFFFFFFFFFFFFFFFFFFFFFFFFFFFFFFFFFFFFF AND SUB PUSH2 0xBF JUMPI PUSH1 0x40 MLOAD PUSH32 0x8C379A000000000000000000000000000000000000000000000000000000000 DUP2 MSTORE PUSH1 0x4 ADD PUSH2 0xB6 SWAP1 PUSH2 0x1F3 JUMP JUMPDEST PUSH1 0x40 MLOAD DUP1 SWAP2 SUB SWAP1 REVERT JUMPDEST PUSH1 0x40 MLOAD CALLDATASIZE PUSH0 DUP3 CALLDATACOPY PUSH0 PUSH0 CALLDATASIZE DUP4 DUP6 GAS DELEGATECALL RETURNDATASIZE PUSH0 DUP4 RETURNDATACOPY DUP1 PUSH0 DUP2 EQ PUSH2 0xDD JUMPI RETURNDATASIZE DUP4 RETURN JUMPDEST RETURNDATASIZE DUP4 REVERT JUMPDEST CALLVALUE DUP1 ISZERO PUSH2 0xEC JUMPI PUSH0 PUSH0 REVERT JUMPDEST POP PUSH2 0x107 PUSH1 0x4 DUP1 CALLDATASIZE SUB DUP2 ADD SWAP1 PUSH2 0x102 SWAP2 SWAP1 PUSH2 0x26F JUMP JUMPDEST PUSH2 0x133 JUMP JUMPDEST STOP JUMPDEST CALLVALUE DUP1 ISZERO PUSH2 0x114 JUMPI PUSH0 PUSH0 REVERT JUMPDEST POP PUSH2 0x11D PUSH2 0x175 JUMP JUMPDEST PUSH1 0x40 MLOAD PUSH2 0x12A SWAP2 SWAP1 PUSH2 0x2A9 JUMP JUMPDEST PUSH1 0x40 MLOAD DUP1 SWAP2 SUB SWAP1 RETURN JUMPDEST DUP1 PUSH0 PUSH0 PUSH2 0x100 EXP DUP2 SLOAD DUP2 PUSH20 0xFFFFFFFFFFFFFFFFFFFFFFFFFFFFFFFFFFFFFFFF MUL NOT AND SWAP1 DUP4 PUSH20 0xFFFFFFFFFFFFFFFFFFFFFFFFFFFFFFFFFFFFFFFF AND MUL OR SWAP1 SSTORE POP POP JUMP JUMPDEST PUSH0 PUSH0 SWAP1 SLOAD SWAP1 PUSH2 0x100 EXP SWAP1 DIV PUSH20 0xFFFFFFFFFFFFFFFFFFFFFFFFFFFFFFFFFFFFFFFF AND DUP2 JUMP JUMPDEST PUSH0 DUP3 DUP3 MSTORE PUSH1 0x20 DUP3 ADD SWAP1 POP SWAP3 SWAP2 POP POP JUMP JUMPDEST PUSH32 0x4C6F67696320636F6E7472616374206E6F742073657400000000000000000000 PUSH0 DUP3 ADD MSTORE POP JUMP JUMPDEST PUSH0 PUSH2 0x1DD PUSH1 0x16 DUP4 PUSH2 0x199 JUMP JUMPDEST SWAP2 POP PUSH2 0x1E8 DUP3 PUSH2 0x1A9 JUMP JUMPDEST PUSH1 0x20 DUP3 ADD SWAP1 POP SWAP2 SWAP1 POP JUMP JUMPDEST PUSH0 PUSH1 0x20 DUP3 ADD SWAP1 POP DUP2 DUP2 SUB PUSH0 DUP4 ADD MSTORE PUSH2 0x20A DUP2 PUSH2 0x1D1 JUMP JUMPDEST SWAP1 POP SWAP2 SWAP1 POP JUMP JUMPDEST PUSH0 PUSH0 REVERT JUMPDEST PUSH0 PUSH20 0xFFFFFFFFFFFFFFFFFFFFFFFFFFFFFFFFFFFFFFFF DUP3 AND SWAP1 POP SWAP2 SWAP1 POP JUMP JUMPDEST PUSH0 PUSH2 0x23E DUP3 PUSH2 0x215 JUMP JUMPDEST SWAP1 POP SWAP2 SWAP1 POP JUMP JUMPDEST PUSH2 0x24E DUP2 PUSH2 0x234 JUMP JUMPDEST DUP2 EQ PUSH2 0x258 JUMPI PUSH0 PUSH0 REVERT JUMPDEST POP JUMP JUMPDEST PUSH0 DUP2 CALLDATALOAD SWAP1 POP PUSH2 0x269 DUP2 PUSH2 0x245 JUMP JUMPDEST SWAP3 SWAP2 POP POP JUMP JUMPDEST PUSH0 PUSH1 0x20 DUP3 DUP5 SUB SLT ISZERO PUSH2 0x284 JUMPI PUSH2 0x283 PUSH2 0x211 JUMP JUMPDEST JUMPDEST PUSH0 PUSH2 0x291 DUP5 DUP3 DUP6 ADD PUSH2 0x25B JUMP JUMPDEST SWAP2 POP POP SWAP3 SWAP2 POP POP JUMP JUMPDEST PUSH2 0x2A3 DUP2 PUSH2 0x234 JUMP JUMPDEST DUP3 MSTORE POP POP JUMP JUMPDEST PUSH0 PUSH1 0x20 DUP3 ADD SWAP1 POP PUSH2 0x2BC PUSH0 DUP4 ADD DUP5 PUSH2 0x29A JUMP JUMPDEST SWAP3 SWAP2 POP POP JUMP INVALID LOG2 PUSH5 0x6970667358 0x22 SLT KECCAK256 XOR SWAP4 CALLDATACOPY JUMPF 0xBD86 EOFCREATE 0x39 0xAA SWAP8 SWAP13 LOG1 PUSH23 0x40C95FF5989A471835407BCC6161208C1F793364736F6C PUSH4 0x4300081E STOP CALLER "
				},
				"gasEstimates": {
					"creation": {
						"codeDepositCost": "152000",
						"executionCost": "infinite",
						"totalCost": "infinite"
					},
					"external": {
						"": "infinite",
						"logicContract()": "2507",
						"upgrade(address)": "24692"
					}
				},
				"methodIdentifiers": {
					"logicContract()": "cc0e97c9",
					"upgrade(address)": "0900f010"
				}
			},
			"storageLayout": {
				"storage": [
					{
						"astId": 16,
						"contract": "contracts/LogicContract.sol:ProxyContract",
						"label": "logicContract",
						"offset": 0,
						"slot": "0",
						"type": "t_address"
					}
				],
				"types": {
					"t_address": {
						"encoding": "inplace",
						"label": "address",
						"numberOfBytes": "20"
					}
				}
			},
			"userdoc": {
				"kind": "user",
				"methods": {},
				"version": 1
			}
		}
	}
}