{
	"contracts/donationCharity.sol": {
		"Charity": {
			"abi": [
				{
					"inputs": [],
					"stateMutability": "nonpayable",
					"type": "constructor"
				},
				{
					"anonymous": false,
					"inputs": [
						{
							"indexed": true,
							"internalType": "address",
							"name": "donor",
							"type": "address"
						},
						{
							"indexed": false,
							"internalType": "uint256",
							"name": "amount",
							"type": "uint256"
						}
					],
					"name": "DonationMade",
					"type": "event"
				},
				{
					"anonymous": false,
					"inputs": [
						{
							"indexed": true,
							"internalType": "address",
							"name": "donor",
							"type": "address"
						}
					],
					"name": "DonationVerified",
					"type": "event"
				},
				{
					"inputs": [],
					"name": "charity",
					"outputs": [
						{
							"internalType": "address",
							"name": "",
							"type": "address"
						}
					],
					"stateMutability": "view",
					"type": "function"
				},
				{
					"inputs": [
						{
							"internalType": "address",
							"name": "",
							"type": "address"
						}
					],
					"name": "donations",
					"outputs": [
						{
							"internalType": "address",
							"name": "donor",
							"type": "address"
						},
						{
							"internalType": "uint256",
							"name": "amount",
							"type": "uint256"
						},
						{
							"internalType": "bool",
							"name": "isVerified",
							"type": "bool"
						}
					],
					"stateMutability": "view",
					"type": "function"
				},
				{
					"inputs": [
						{
							"internalType": "address",
							"name": "_donor",
							"type": "address"
						}
					],
					"name": "getDonation",
					"outputs": [
						{
							"internalType": "uint256",
							"name": "",
							"type": "uint256"
						},
						{
							"internalType": "bool",
							"name": "",
							"type": "bool"
						}
					],
					"stateMutability": "view",
					"type": "function"
				},
				{
					"inputs": [],
					"name": "makeDonation",
					"outputs": [],
					"stateMutability": "payable",
					"type": "function"
				},
				{
					"inputs": [],
					"name": "totalDonations",
					"outputs": [
						{
							"internalType": "uint256",
							"name": "",
							"type": "uint256"
						}
					],
					"stateMutability": "view",
					"type": "function"
				},
				{
					"inputs": [
						{
							"internalType": "address",
							"name": "_donor",
							"type": "address"
						}
					],
					"name": "verifyDonation",
					"outputs": [],
					"stateMutability": "nonpayable",
					"type": "function"
				}
			],
			"devdoc": {
				"kind": "dev",
				"methods": {},
				"version": 1
			},
			"evm": {
				"assembly": "    /* \"contracts/donationCharity.sol\":80:1581  contract Charity {... */\n  mstore(0x40, 0x80)\n    /* \"contracts/donationCharity.sol\":448:530  constructor() {... */\n  callvalue\n  dup1\n  iszero\n  tag_1\n  jumpi\n  0x00\n  dup1\n  revert\ntag_1:\n  pop\n    /* \"contracts/donationCharity.sol\":483:493  msg.sender */\n  caller\n    /* \"contracts/donationCharity.sol\":473:480  charity */\n  0x01\n  0x00\n    /* \"contracts/donationCharity.sol\":473:493  charity = msg.sender */\n  0x0100\n  exp\n  dup2\n  sload\n  dup2\n  0xffffffffffffffffffffffffffffffffffffffff\n  mul\n  not\n  and\n  swap1\n  dup4\n  0xffffffffffffffffffffffffffffffffffffffff\n  and\n  mul\n  or\n  swap1\n  sstore\n  pop\n    /* \"contracts/donationCharity.sol\":521:522  0 */\n  0x00\n    /* \"contracts/donationCharity.sol\":504:518  totalDonations */\n  0x02\n    /* \"contracts/donationCharity.sol\":504:522  totalDonations = 0 */\n  dup2\n  swap1\n  sstore\n  pop\n    /* \"contracts/donationCharity.sol\":80:1581  contract Charity {... */\n  dataSize(sub_0)\n  dup1\n  dataOffset(sub_0)\n  0x00\n  codecopy\n  0x00\n  return\nstop\n\nsub_0: assembly {\n        /* \"contracts/donationCharity.sol\":80:1581  contract Charity {... */\n      mstore(0x40, 0x80)\n      jumpi(tag_1, lt(calldatasize, 0x04))\n      shr(0xe0, calldataload(0x00))\n      dup1\n      0x40ea0a94\n      eq\n      tag_2\n      jumpi\n      dup1\n      0x410a1d32\n      eq\n      tag_3\n      jumpi\n      dup1\n      0x4cf43645\n      eq\n      tag_4\n      jumpi\n      dup1\n      0x934aa023\n      eq\n      tag_5\n      jumpi\n      dup1\n      0xcc6cb19a\n      eq\n      tag_6\n      jumpi\n      dup1\n      0xde2ed893\n      eq\n      tag_7\n      jumpi\n    tag_1:\n      0x00\n      dup1\n      revert\n        /* \"contracts/donationCharity.sol\":674:1014  function makeDonation() public payable {... */\n    tag_2:\n      tag_8\n      tag_9\n      jump\t// in\n    tag_8:\n      stop\n        /* \"contracts/donationCharity.sol\":1386:1578  function getDonation(address _donor) public view returns (uint256, bool) {... */\n    tag_3:\n      callvalue\n      dup1\n      iszero\n      tag_10\n      jumpi\n      0x00\n      dup1\n      revert\n    tag_10:\n      pop\n      tag_11\n      0x04\n      dup1\n      calldatasize\n      sub\n      dup2\n      add\n      swap1\n      tag_12\n      swap2\n      swap1\n      tag_13\n      jump\t// in\n    tag_12:\n      tag_14\n      jump\t// in\n    tag_11:\n      mload(0x40)\n      tag_15\n      swap3\n      swap2\n      swap1\n      tag_16\n      jump\t// in\n    tag_15:\n      mload(0x40)\n      dup1\n      swap2\n      sub\n      swap1\n      return\n        /* \"contracts/donationCharity.sol\":1022:1378  function verifyDonation(address _donor) public onlyCharity {... */\n    tag_4:\n      callvalue\n      dup1\n      iszero\n      tag_17\n      jumpi\n      0x00\n      dup1\n      revert\n    tag_17:\n      pop\n      tag_18\n      0x04\n      dup1\n      calldatasize\n      sub\n      dup2\n      add\n      swap1\n      tag_19\n      swap2\n      swap1\n      tag_13\n      jump\t// in\n    tag_19:\n      tag_20\n      jump\t// in\n    tag_18:\n      stop\n        /* \"contracts/donationCharity.sol\":263:285  address public charity */\n    tag_5:\n      callvalue\n      dup1\n      iszero\n      tag_21\n      jumpi\n      0x00\n      dup1\n      revert\n    tag_21:\n      pop\n      tag_22\n      tag_23\n      jump\t// in\n    tag_22:\n      mload(0x40)\n      tag_24\n      swap2\n      swap1\n      tag_25\n      jump\t// in\n    tag_24:\n      mload(0x40)\n      dup1\n      swap2\n      sub\n      swap1\n      return\n        /* \"contracts/donationCharity.sol\":211:256  mapping(address => Donation) public donations */\n    tag_6:\n      callvalue\n      dup1\n      iszero\n      tag_26\n      jumpi\n      0x00\n      dup1\n      revert\n    tag_26:\n      pop\n      tag_27\n      0x04\n      dup1\n      calldatasize\n      sub\n      dup2\n      add\n      swap1\n      tag_28\n      swap2\n      swap1\n      tag_13\n      jump\t// in\n    tag_28:\n      tag_29\n      jump\t// in\n    tag_27:\n      mload(0x40)\n      tag_30\n      swap4\n      swap3\n      swap2\n      swap1\n      tag_31\n      jump\t// in\n    tag_30:\n      mload(0x40)\n      dup1\n      swap2\n      sub\n      swap1\n      return\n        /* \"contracts/donationCharity.sol\":292:321  uint256 public totalDonations */\n    tag_7:\n      callvalue\n      dup1\n      iszero\n      tag_32\n      jumpi\n      0x00\n      dup1\n      revert\n    tag_32:\n      pop\n      tag_33\n      tag_34\n      jump\t// in\n    tag_33:\n      mload(0x40)\n      tag_35\n      swap2\n      swap1\n      tag_36\n      jump\t// in\n    tag_35:\n      mload(0x40)\n      dup1\n      swap2\n      sub\n      swap1\n      return\n        /* \"contracts/donationCharity.sol\":674:1014  function makeDonation() public payable {... */\n    tag_9:\n        /* \"contracts/donationCharity.sol\":744:745  0 */\n      0x00\n        /* \"contracts/donationCharity.sol\":732:741  msg.value */\n      callvalue\n        /* \"contracts/donationCharity.sol\":732:745  msg.value > 0 */\n      gt\n        /* \"contracts/donationCharity.sol\":724:792  require(msg.value > 0, \"Donation amount must be greater than zero.\") */\n      tag_38\n      jumpi\n      mload(0x40)\n      0x08c379a000000000000000000000000000000000000000000000000000000000\n      dup2\n      mstore\n      0x04\n      add\n      tag_39\n      swap1\n      tag_40\n      jump\t// in\n    tag_39:\n      mload(0x40)\n      dup1\n      swap2\n      sub\n      swap1\n      revert\n    tag_38:\n        /* \"contracts/donationCharity.sol\":805:829  Donation memory donation */\n      0x00\n        /* \"contracts/donationCharity.sol\":832:870  Donation(msg.sender, msg.value, false) */\n      mload(0x40)\n      dup1\n      0x60\n      add\n      0x40\n      mstore\n      dup1\n        /* \"contracts/donationCharity.sol\":841:851  msg.sender */\n      caller\n        /* \"contracts/donationCharity.sol\":832:870  Donation(msg.sender, msg.value, false) */\n      0xffffffffffffffffffffffffffffffffffffffff\n      and\n      dup2\n      mstore\n      0x20\n      add\n        /* \"contracts/donationCharity.sol\":853:862  msg.value */\n      callvalue\n        /* \"contracts/donationCharity.sol\":832:870  Donation(msg.sender, msg.value, false) */\n      dup2\n      mstore\n      0x20\n      add\n        /* \"contracts/donationCharity.sol\":864:869  false */\n      0x00\n        /* \"contracts/donationCharity.sol\":832:870  Donation(msg.sender, msg.value, false) */\n      iszero\n      iszero\n      dup2\n      mstore\n      pop\n        /* \"contracts/donationCharity.sol\":805:870  Donation memory donation = Donation(msg.sender, msg.value, false) */\n      swap1\n      pop\n        /* \"contracts/donationCharity.sol\":907:915  donation */\n      dup1\n        /* \"contracts/donationCharity.sol\":883:892  donations */\n      0x00\n        /* \"contracts/donationCharity.sol\":883:904  donations[msg.sender] */\n      dup1\n        /* \"contracts/donationCharity.sol\":893:903  msg.sender */\n      caller\n        /* \"contracts/donationCharity.sol\":883:904  donations[msg.sender] */\n      0xffffffffffffffffffffffffffffffffffffffff\n      and\n      0xffffffffffffffffffffffffffffffffffffffff\n      and\n      dup2\n      mstore\n      0x20\n      add\n      swap1\n      dup2\n      mstore\n      0x20\n      add\n      0x00\n      keccak256\n        /* \"contracts/donationCharity.sol\":883:915  donations[msg.sender] = donation */\n      0x00\n      dup3\n      add\n      mload\n      dup2\n      0x00\n      add\n      exp(0x0100, 0x00)\n      dup2\n      sload\n      dup2\n      0xffffffffffffffffffffffffffffffffffffffff\n      mul\n      not\n      and\n      swap1\n      dup4\n      0xffffffffffffffffffffffffffffffffffffffff\n      and\n      mul\n      or\n      swap1\n      sstore\n      pop\n      0x20\n      dup3\n      add\n      mload\n      dup2\n      0x01\n      add\n      sstore\n      0x40\n      dup3\n      add\n      mload\n      dup2\n      0x02\n      add\n      exp(0x0100, 0x00)\n      dup2\n      sload\n      dup2\n      0xff\n      mul\n      not\n      and\n      swap1\n      dup4\n      iszero\n      iszero\n      mul\n      or\n      swap1\n      sstore\n      pop\n      swap1\n      pop\n      pop\n        /* \"contracts/donationCharity.sol\":944:953  msg.value */\n      callvalue\n        /* \"contracts/donationCharity.sol\":926:940  totalDonations */\n      0x02\n      0x00\n        /* \"contracts/donationCharity.sol\":926:953  totalDonations += msg.value */\n      dup3\n      dup3\n      sload\n      tag_41\n      swap2\n      swap1\n      tag_42\n      jump\t// in\n    tag_41:\n      swap3\n      pop\n      pop\n      dup2\n      swap1\n      sstore\n      pop\n        /* \"contracts/donationCharity.sol\":984:994  msg.sender */\n      caller\n        /* \"contracts/donationCharity.sol\":971:1006  DonationMade(msg.sender, msg.value) */\n      0xffffffffffffffffffffffffffffffffffffffff\n      and\n      0xaa13962bc79c7a0bc42cb8169b1705f0a6b55cc404ffb8a589d771ca78675978\n        /* \"contracts/donationCharity.sol\":996:1005  msg.value */\n      callvalue\n        /* \"contracts/donationCharity.sol\":971:1006  DonationMade(msg.sender, msg.value) */\n      mload(0x40)\n      tag_43\n      swap2\n      swap1\n      tag_36\n      jump\t// in\n    tag_43:\n      mload(0x40)\n      dup1\n      swap2\n      sub\n      swap1\n      log2\n        /* \"contracts/donationCharity.sol\":713:1014  {... */\n      pop\n        /* \"contracts/donationCharity.sol\":674:1014  function makeDonation() public payable {... */\n      jump\t// out\n        /* \"contracts/donationCharity.sol\":1386:1578  function getDonation(address _donor) public view returns (uint256, bool) {... */\n    tag_14:\n        /* \"contracts/donationCharity.sol\":1444:1451  uint256 */\n      0x00\n        /* \"contracts/donationCharity.sol\":1453:1457  bool */\n      dup1\n        /* \"contracts/donationCharity.sol\":1470:1494  Donation memory donation */\n      0x00\n        /* \"contracts/donationCharity.sol\":1497:1506  donations */\n      dup1\n        /* \"contracts/donationCharity.sol\":1497:1514  donations[_donor] */\n      0x00\n        /* \"contracts/donationCharity.sol\":1507:1513  _donor */\n      dup6\n        /* \"contracts/donationCharity.sol\":1497:1514  donations[_donor] */\n      0xffffffffffffffffffffffffffffffffffffffff\n      and\n      0xffffffffffffffffffffffffffffffffffffffff\n      and\n      dup2\n      mstore\n      0x20\n      add\n      swap1\n      dup2\n      mstore\n      0x20\n      add\n      0x00\n      keccak256\n        /* \"contracts/donationCharity.sol\":1470:1514  Donation memory donation = donations[_donor] */\n      mload(0x40)\n      dup1\n      0x60\n      add\n      0x40\n      mstore\n      swap1\n      dup2\n      0x00\n      dup3\n      add\n      0x00\n      swap1\n      sload\n      swap1\n      0x0100\n      exp\n      swap1\n      div\n      0xffffffffffffffffffffffffffffffffffffffff\n      and\n      0xffffffffffffffffffffffffffffffffffffffff\n      and\n      0xffffffffffffffffffffffffffffffffffffffff\n      and\n      dup2\n      mstore\n      0x20\n      add\n      0x01\n      dup3\n      add\n      sload\n      dup2\n      mstore\n      0x20\n      add\n      0x02\n      dup3\n      add\n      0x00\n      swap1\n      sload\n      swap1\n      0x0100\n      exp\n      swap1\n      div\n      0xff\n      and\n      iszero\n      iszero\n      iszero\n      iszero\n      dup2\n      mstore\n      pop\n      pop\n      swap1\n      pop\n        /* \"contracts/donationCharity.sol\":1533:1541  donation */\n      dup1\n        /* \"contracts/donationCharity.sol\":1533:1548  donation.amount */\n      0x20\n      add\n      mload\n        /* \"contracts/donationCharity.sol\":1550:1558  donation */\n      dup2\n        /* \"contracts/donationCharity.sol\":1550:1569  donation.isVerified */\n      0x40\n      add\n      mload\n        /* \"contracts/donationCharity.sol\":1525:1570  return (donation.amount, donation.isVerified) */\n      swap3\n      pop\n      swap3\n      pop\n      pop\n        /* \"contracts/donationCharity.sol\":1386:1578  function getDonation(address _donor) public view returns (uint256, bool) {... */\n      swap2\n      pop\n      swap2\n      jump\t// out\n        /* \"contracts/donationCharity.sol\":1022:1378  function verifyDonation(address _donor) public onlyCharity {... */\n    tag_20:\n        /* \"contracts/donationCharity.sol\":594:601  charity */\n      0x01\n      0x00\n      swap1\n      sload\n      swap1\n      0x0100\n      exp\n      swap1\n      div\n      0xffffffffffffffffffffffffffffffffffffffff\n      and\n        /* \"contracts/donationCharity.sol\":580:601  msg.sender == charity */\n      0xffffffffffffffffffffffffffffffffffffffff\n      and\n        /* \"contracts/donationCharity.sol\":580:590  msg.sender */\n      caller\n        /* \"contracts/donationCharity.sol\":580:601  msg.sender == charity */\n      0xffffffffffffffffffffffffffffffffffffffff\n      and\n      eq\n        /* \"contracts/donationCharity.sol\":572:646  require(msg.sender == charity, \"Only the charity can call this function.\") */\n      tag_46\n      jumpi\n      mload(0x40)\n      0x08c379a000000000000000000000000000000000000000000000000000000000\n      dup2\n      mstore\n      0x04\n      add\n      tag_47\n      swap1\n      tag_48\n      jump\t// in\n    tag_47:\n      mload(0x40)\n      dup1\n      swap2\n      sub\n      swap1\n      revert\n    tag_46:\n        /* \"contracts/donationCharity.sol\":1092:1117  Donation storage donation */\n      0x00\n        /* \"contracts/donationCharity.sol\":1120:1129  donations */\n      dup1\n        /* \"contracts/donationCharity.sol\":1120:1137  donations[_donor] */\n      0x00\n        /* \"contracts/donationCharity.sol\":1130:1136  _donor */\n      dup4\n        /* \"contracts/donationCharity.sol\":1120:1137  donations[_donor] */\n      0xffffffffffffffffffffffffffffffffffffffff\n      and\n      0xffffffffffffffffffffffffffffffffffffffff\n      and\n      dup2\n      mstore\n      0x20\n      add\n      swap1\n      dup2\n      mstore\n      0x20\n      add\n      0x00\n      keccak256\n        /* \"contracts/donationCharity.sol\":1092:1137  Donation storage donation = donations[_donor] */\n      swap1\n      pop\n        /* \"contracts/donationCharity.sol\":1184:1185  0 */\n      0x00\n        /* \"contracts/donationCharity.sol\":1158:1186  donation.donor != address(0) */\n      0xffffffffffffffffffffffffffffffffffffffff\n      and\n        /* \"contracts/donationCharity.sol\":1158:1166  donation */\n      dup2\n        /* \"contracts/donationCharity.sol\":1158:1172  donation.donor */\n      0x00\n      add\n      0x00\n      swap1\n      sload\n      swap1\n      0x0100\n      exp\n      swap1\n      div\n      0xffffffffffffffffffffffffffffffffffffffff\n      and\n        /* \"contracts/donationCharity.sol\":1158:1186  donation.donor != address(0) */\n      0xffffffffffffffffffffffffffffffffffffffff\n      and\n      sub\n        /* \"contracts/donationCharity.sol\":1150:1210  require(donation.donor != address(0), \"Donation not found.\") */\n      tag_50\n      jumpi\n      mload(0x40)\n      0x08c379a000000000000000000000000000000000000000000000000000000000\n      dup2\n      mstore\n      0x04\n      add\n      tag_51\n      swap1\n      tag_52\n      jump\t// in\n    tag_51:\n      mload(0x40)\n      dup1\n      swap2\n      sub\n      swap1\n      revert\n    tag_50:\n        /* \"contracts/donationCharity.sol\":1230:1238  donation */\n      dup1\n        /* \"contracts/donationCharity.sol\":1230:1249  donation.isVerified */\n      0x02\n      add\n      0x00\n      swap1\n      sload\n      swap1\n      0x0100\n      exp\n      swap1\n      div\n      0xff\n      and\n        /* \"contracts/donationCharity.sol\":1229:1249  !donation.isVerified */\n      iszero\n        /* \"contracts/donationCharity.sol\":1221:1289  require(!donation.isVerified, \"Donation has already been verified.\") */\n      tag_53\n      jumpi\n      mload(0x40)\n      0x08c379a000000000000000000000000000000000000000000000000000000000\n      dup2\n      mstore\n      0x04\n      add\n      tag_54\n      swap1\n      tag_55\n      jump\t// in\n    tag_54:\n      mload(0x40)\n      dup1\n      swap2\n      sub\n      swap1\n      revert\n    tag_53:\n        /* \"contracts/donationCharity.sol\":1324:1328  true */\n      0x01\n        /* \"contracts/donationCharity.sol\":1302:1310  donation */\n      dup2\n        /* \"contracts/donationCharity.sol\":1302:1321  donation.isVerified */\n      0x02\n      add\n      0x00\n        /* \"contracts/donationCharity.sol\":1302:1328  donation.isVerified = true */\n      0x0100\n      exp\n      dup2\n      sload\n      dup2\n      0xff\n      mul\n      not\n      and\n      swap1\n      dup4\n      iszero\n      iszero\n      mul\n      or\n      swap1\n      sstore\n      pop\n        /* \"contracts/donationCharity.sol\":1363:1369  _donor */\n      dup2\n        /* \"contracts/donationCharity.sol\":1346:1370  DonationVerified(_donor) */\n      0xffffffffffffffffffffffffffffffffffffffff\n      and\n      0xa7e2dd3198a1b6f86fc842e8c72182617c592b6663d68516bf1a31a0f72e6e8e\n      mload(0x40)\n      mload(0x40)\n      dup1\n      swap2\n      sub\n      swap1\n      log2\n        /* \"contracts/donationCharity.sol\":1081:1378  {... */\n      pop\n        /* \"contracts/donationCharity.sol\":1022:1378  function verifyDonation(address _donor) public onlyCharity {... */\n      pop\n      jump\t// out\n        /* \"contracts/donationCharity.sol\":263:285  address public charity */\n    tag_23:\n      0x01\n      0x00\n      swap1\n      sload\n      swap1\n      0x0100\n      exp\n      swap1\n      div\n      0xffffffffffffffffffffffffffffffffffffffff\n      and\n      dup2\n      jump\t// out\n        /* \"contracts/donationCharity.sol\":211:256  mapping(address => Donation) public donations */\n    tag_29:\n      mstore(0x20, 0x00)\n      dup1\n      0x00\n      mstore\n      keccak256(0x00, 0x40)\n      0x00\n      swap2\n      pop\n      swap1\n      pop\n      dup1\n      0x00\n      add\n      0x00\n      swap1\n      sload\n      swap1\n      0x0100\n      exp\n      swap1\n      div\n      0xffffffffffffffffffffffffffffffffffffffff\n      and\n      swap1\n      dup1\n      0x01\n      add\n      sload\n      swap1\n      dup1\n      0x02\n      add\n      0x00\n      swap1\n      sload\n      swap1\n      0x0100\n      exp\n      swap1\n      div\n      0xff\n      and\n      swap1\n      pop\n      dup4\n      jump\t// out\n        /* \"contracts/donationCharity.sol\":292:321  uint256 public totalDonations */\n    tag_34:\n      sload(0x02)\n      dup2\n      jump\t// out\n        /* \"#utility.yul\":88:205   */\n    tag_57:\n        /* \"#utility.yul\":197:198   */\n      0x00\n        /* \"#utility.yul\":194:195   */\n      dup1\n        /* \"#utility.yul\":187:199   */\n      revert\n        /* \"#utility.yul\":334:460   */\n    tag_59:\n        /* \"#utility.yul\":371:378   */\n      0x00\n        /* \"#utility.yul\":411:453   */\n      0xffffffffffffffffffffffffffffffffffffffff\n        /* \"#utility.yul\":404:409   */\n      dup3\n        /* \"#utility.yul\":400:454   */\n      and\n        /* \"#utility.yul\":389:454   */\n      swap1\n      pop\n        /* \"#utility.yul\":334:460   */\n      swap2\n      swap1\n      pop\n      jump\t// out\n        /* \"#utility.yul\":466:562   */\n    tag_60:\n        /* \"#utility.yul\":503:510   */\n      0x00\n        /* \"#utility.yul\":532:556   */\n      tag_84\n        /* \"#utility.yul\":550:555   */\n      dup3\n        /* \"#utility.yul\":532:556   */\n      tag_59\n      jump\t// in\n    tag_84:\n        /* \"#utility.yul\":521:556   */\n      swap1\n      pop\n        /* \"#utility.yul\":466:562   */\n      swap2\n      swap1\n      pop\n      jump\t// out\n        /* \"#utility.yul\":568:690   */\n    tag_61:\n        /* \"#utility.yul\":641:665   */\n      tag_86\n        /* \"#utility.yul\":659:664   */\n      dup2\n        /* \"#utility.yul\":641:665   */\n      tag_60\n      jump\t// in\n    tag_86:\n        /* \"#utility.yul\":634:639   */\n      dup2\n        /* \"#utility.yul\":631:666   */\n      eq\n        /* \"#utility.yul\":621:684   */\n      tag_87\n      jumpi\n        /* \"#utility.yul\":680:681   */\n      0x00\n        /* \"#utility.yul\":677:678   */\n      dup1\n        /* \"#utility.yul\":670:682   */\n      revert\n        /* \"#utility.yul\":621:684   */\n    tag_87:\n        /* \"#utility.yul\":568:690   */\n      pop\n      jump\t// out\n        /* \"#utility.yul\":696:835   */\n    tag_62:\n        /* \"#utility.yul\":742:747   */\n      0x00\n        /* \"#utility.yul\":780:786   */\n      dup2\n        /* \"#utility.yul\":767:787   */\n      calldataload\n        /* \"#utility.yul\":758:787   */\n      swap1\n      pop\n        /* \"#utility.yul\":796:829   */\n      tag_89\n        /* \"#utility.yul\":823:828   */\n      dup2\n        /* \"#utility.yul\":796:829   */\n      tag_61\n      jump\t// in\n    tag_89:\n        /* \"#utility.yul\":696:835   */\n      swap3\n      swap2\n      pop\n      pop\n      jump\t// out\n        /* \"#utility.yul\":841:1170   */\n    tag_13:\n        /* \"#utility.yul\":900:906   */\n      0x00\n        /* \"#utility.yul\":949:951   */\n      0x20\n        /* \"#utility.yul\":937:946   */\n      dup3\n        /* \"#utility.yul\":928:935   */\n      dup5\n        /* \"#utility.yul\":924:947   */\n      sub\n        /* \"#utility.yul\":920:952   */\n      slt\n        /* \"#utility.yul\":917:1036   */\n      iszero\n      tag_91\n      jumpi\n        /* \"#utility.yul\":955:1034   */\n      tag_92\n      tag_57\n      jump\t// in\n    tag_92:\n        /* \"#utility.yul\":917:1036   */\n    tag_91:\n        /* \"#utility.yul\":1075:1076   */\n      0x00\n        /* \"#utility.yul\":1100:1153   */\n      tag_93\n        /* \"#utility.yul\":1145:1152   */\n      dup5\n        /* \"#utility.yul\":1136:1142   */\n      dup3\n        /* \"#utility.yul\":1125:1134   */\n      dup6\n        /* \"#utility.yul\":1121:1143   */\n      add\n        /* \"#utility.yul\":1100:1153   */\n      tag_62\n      jump\t// in\n    tag_93:\n        /* \"#utility.yul\":1090:1153   */\n      swap2\n      pop\n        /* \"#utility.yul\":1046:1163   */\n      pop\n        /* \"#utility.yul\":841:1170   */\n      swap3\n      swap2\n      pop\n      pop\n      jump\t// out\n        /* \"#utility.yul\":1176:1253   */\n    tag_63:\n        /* \"#utility.yul\":1213:1220   */\n      0x00\n        /* \"#utility.yul\":1242:1247   */\n      dup2\n        /* \"#utility.yul\":1231:1247   */\n      swap1\n      pop\n        /* \"#utility.yul\":1176:1253   */\n      swap2\n      swap1\n      pop\n      jump\t// out\n        /* \"#utility.yul\":1259:1377   */\n    tag_64:\n        /* \"#utility.yul\":1346:1370   */\n      tag_96\n        /* \"#utility.yul\":1364:1369   */\n      dup2\n        /* \"#utility.yul\":1346:1370   */\n      tag_63\n      jump\t// in\n    tag_96:\n        /* \"#utility.yul\":1341:1344   */\n      dup3\n        /* \"#utility.yul\":1334:1371   */\n      mstore\n        /* \"#utility.yul\":1259:1377   */\n      pop\n      pop\n      jump\t// out\n        /* \"#utility.yul\":1383:1473   */\n    tag_65:\n        /* \"#utility.yul\":1417:1424   */\n      0x00\n        /* \"#utility.yul\":1460:1465   */\n      dup2\n        /* \"#utility.yul\":1453:1466   */\n      iszero\n        /* \"#utility.yul\":1446:1467   */\n      iszero\n        /* \"#utility.yul\":1435:1467   */\n      swap1\n      pop\n        /* \"#utility.yul\":1383:1473   */\n      swap2\n      swap1\n      pop\n      jump\t// out\n        /* \"#utility.yul\":1479:1588   */\n    tag_66:\n        /* \"#utility.yul\":1560:1581   */\n      tag_99\n        /* \"#utility.yul\":1575:1580   */\n      dup2\n        /* \"#utility.yul\":1560:1581   */\n      tag_65\n      jump\t// in\n    tag_99:\n        /* \"#utility.yul\":1555:1558   */\n      dup3\n        /* \"#utility.yul\":1548:1582   */\n      mstore\n        /* \"#utility.yul\":1479:1588   */\n      pop\n      pop\n      jump\t// out\n        /* \"#utility.yul\":1594:1914   */\n    tag_16:\n        /* \"#utility.yul\":1709:1713   */\n      0x00\n        /* \"#utility.yul\":1747:1749   */\n      0x40\n        /* \"#utility.yul\":1736:1745   */\n      dup3\n        /* \"#utility.yul\":1732:1750   */\n      add\n        /* \"#utility.yul\":1724:1750   */\n      swap1\n      pop\n        /* \"#utility.yul\":1760:1831   */\n      tag_101\n        /* \"#utility.yul\":1828:1829   */\n      0x00\n        /* \"#utility.yul\":1817:1826   */\n      dup4\n        /* \"#utility.yul\":1813:1830   */\n      add\n        /* \"#utility.yul\":1804:1810   */\n      dup6\n        /* \"#utility.yul\":1760:1831   */\n      tag_64\n      jump\t// in\n    tag_101:\n        /* \"#utility.yul\":1841:1907   */\n      tag_102\n        /* \"#utility.yul\":1903:1905   */\n      0x20\n        /* \"#utility.yul\":1892:1901   */\n      dup4\n        /* \"#utility.yul\":1888:1906   */\n      add\n        /* \"#utility.yul\":1879:1885   */\n      dup5\n        /* \"#utility.yul\":1841:1907   */\n      tag_66\n      jump\t// in\n    tag_102:\n        /* \"#utility.yul\":1594:1914   */\n      swap4\n      swap3\n      pop\n      pop\n      pop\n      jump\t// out\n        /* \"#utility.yul\":1920:2038   */\n    tag_67:\n        /* \"#utility.yul\":2007:2031   */\n      tag_104\n        /* \"#utility.yul\":2025:2030   */\n      dup2\n        /* \"#utility.yul\":2007:2031   */\n      tag_60\n      jump\t// in\n    tag_104:\n        /* \"#utility.yul\":2002:2005   */\n      dup3\n        /* \"#utility.yul\":1995:2032   */\n      mstore\n        /* \"#utility.yul\":1920:2038   */\n      pop\n      pop\n      jump\t// out\n        /* \"#utility.yul\":2044:2266   */\n    tag_25:\n        /* \"#utility.yul\":2137:2141   */\n      0x00\n        /* \"#utility.yul\":2175:2177   */\n      0x20\n        /* \"#utility.yul\":2164:2173   */\n      dup3\n        /* \"#utility.yul\":2160:2178   */\n      add\n        /* \"#utility.yul\":2152:2178   */\n      swap1\n      pop\n        /* \"#utility.yul\":2188:2259   */\n      tag_106\n        /* \"#utility.yul\":2256:2257   */\n      0x00\n        /* \"#utility.yul\":2245:2254   */\n      dup4\n        /* \"#utility.yul\":2241:2258   */\n      add\n        /* \"#utility.yul\":2232:2238   */\n      dup5\n        /* \"#utility.yul\":2188:2259   */\n      tag_67\n      jump\t// in\n    tag_106:\n        /* \"#utility.yul\":2044:2266   */\n      swap3\n      swap2\n      pop\n      pop\n      jump\t// out\n        /* \"#utility.yul\":2272:2702   */\n    tag_31:\n        /* \"#utility.yul\":2415:2419   */\n      0x00\n        /* \"#utility.yul\":2453:2455   */\n      0x60\n        /* \"#utility.yul\":2442:2451   */\n      dup3\n        /* \"#utility.yul\":2438:2456   */\n      add\n        /* \"#utility.yul\":2430:2456   */\n      swap1\n      pop\n        /* \"#utility.yul\":2466:2537   */\n      tag_108\n        /* \"#utility.yul\":2534:2535   */\n      0x00\n        /* \"#utility.yul\":2523:2532   */\n      dup4\n        /* \"#utility.yul\":2519:2536   */\n      add\n        /* \"#utility.yul\":2510:2516   */\n      dup7\n        /* \"#utility.yul\":2466:2537   */\n      tag_67\n      jump\t// in\n    tag_108:\n        /* \"#utility.yul\":2547:2619   */\n      tag_109\n        /* \"#utility.yul\":2615:2617   */\n      0x20\n        /* \"#utility.yul\":2604:2613   */\n      dup4\n        /* \"#utility.yul\":2600:2618   */\n      add\n        /* \"#utility.yul\":2591:2597   */\n      dup6\n        /* \"#utility.yul\":2547:2619   */\n      tag_64\n      jump\t// in\n    tag_109:\n        /* \"#utility.yul\":2629:2695   */\n      tag_110\n        /* \"#utility.yul\":2691:2693   */\n      0x40\n        /* \"#utility.yul\":2680:2689   */\n      dup4\n        /* \"#utility.yul\":2676:2694   */\n      add\n        /* \"#utility.yul\":2667:2673   */\n      dup5\n        /* \"#utility.yul\":2629:2695   */\n      tag_66\n      jump\t// in\n    tag_110:\n        /* \"#utility.yul\":2272:2702   */\n      swap5\n      swap4\n      pop\n      pop\n      pop\n      pop\n      jump\t// out\n        /* \"#utility.yul\":2708:2930   */\n    tag_36:\n        /* \"#utility.yul\":2801:2805   */\n      0x00\n        /* \"#utility.yul\":2839:2841   */\n      0x20\n        /* \"#utility.yul\":2828:2837   */\n      dup3\n        /* \"#utility.yul\":2824:2842   */\n      add\n        /* \"#utility.yul\":2816:2842   */\n      swap1\n      pop\n        /* \"#utility.yul\":2852:2923   */\n      tag_112\n        /* \"#utility.yul\":2920:2921   */\n      0x00\n        /* \"#utility.yul\":2909:2918   */\n      dup4\n        /* \"#utility.yul\":2905:2922   */\n      add\n        /* \"#utility.yul\":2896:2902   */\n      dup5\n        /* \"#utility.yul\":2852:2923   */\n      tag_64\n      jump\t// in\n    tag_112:\n        /* \"#utility.yul\":2708:2930   */\n      swap3\n      swap2\n      pop\n      pop\n      jump\t// out\n        /* \"#utility.yul\":2936:3105   */\n    tag_68:\n        /* \"#utility.yul\":3020:3031   */\n      0x00\n        /* \"#utility.yul\":3054:3060   */\n      dup3\n        /* \"#utility.yul\":3049:3052   */\n      dup3\n        /* \"#utility.yul\":3042:3061   */\n      mstore\n        /* \"#utility.yul\":3094:3098   */\n      0x20\n        /* \"#utility.yul\":3089:3092   */\n      dup3\n        /* \"#utility.yul\":3085:3099   */\n      add\n        /* \"#utility.yul\":3070:3099   */\n      swap1\n      pop\n        /* \"#utility.yul\":2936:3105   */\n      swap3\n      swap2\n      pop\n      pop\n      jump\t// out\n        /* \"#utility.yul\":3111:3340   */\n    tag_69:\n        /* \"#utility.yul\":3251:3285   */\n      0x446f6e6174696f6e20616d6f756e74206d757374206265206772656174657220\n        /* \"#utility.yul\":3247:3248   */\n      0x00\n        /* \"#utility.yul\":3239:3245   */\n      dup3\n        /* \"#utility.yul\":3235:3249   */\n      add\n        /* \"#utility.yul\":3228:3286   */\n      mstore\n        /* \"#utility.yul\":3320:3332   */\n      0x7468616e207a65726f2e00000000000000000000000000000000000000000000\n        /* \"#utility.yul\":3315:3317   */\n      0x20\n        /* \"#utility.yul\":3307:3313   */\n      dup3\n        /* \"#utility.yul\":3303:3318   */\n      add\n        /* \"#utility.yul\":3296:3333   */\n      mstore\n        /* \"#utility.yul\":3111:3340   */\n      pop\n      jump\t// out\n        /* \"#utility.yul\":3346:3712   */\n    tag_70:\n        /* \"#utility.yul\":3488:3491   */\n      0x00\n        /* \"#utility.yul\":3509:3576   */\n      tag_116\n        /* \"#utility.yul\":3573:3575   */\n      0x2a\n        /* \"#utility.yul\":3568:3571   */\n      dup4\n        /* \"#utility.yul\":3509:3576   */\n      tag_68\n      jump\t// in\n    tag_116:\n        /* \"#utility.yul\":3502:3576   */\n      swap2\n      pop\n        /* \"#utility.yul\":3585:3678   */\n      tag_117\n        /* \"#utility.yul\":3674:3677   */\n      dup3\n        /* \"#utility.yul\":3585:3678   */\n      tag_69\n      jump\t// in\n    tag_117:\n        /* \"#utility.yul\":3703:3705   */\n      0x40\n        /* \"#utility.yul\":3698:3701   */\n      dup3\n        /* \"#utility.yul\":3694:3706   */\n      add\n        /* \"#utility.yul\":3687:3706   */\n      swap1\n      pop\n        /* \"#utility.yul\":3346:3712   */\n      swap2\n      swap1\n      pop\n      jump\t// out\n        /* \"#utility.yul\":3718:4137   */\n    tag_40:\n        /* \"#utility.yul\":3884:3888   */\n      0x00\n        /* \"#utility.yul\":3922:3924   */\n      0x20\n        /* \"#utility.yul\":3911:3920   */\n      dup3\n        /* \"#utility.yul\":3907:3925   */\n      add\n        /* \"#utility.yul\":3899:3925   */\n      swap1\n      pop\n        /* \"#utility.yul\":3971:3980   */\n      dup2\n        /* \"#utility.yul\":3965:3969   */\n      dup2\n        /* \"#utility.yul\":3961:3981   */\n      sub\n        /* \"#utility.yul\":3957:3958   */\n      0x00\n        /* \"#utility.yul\":3946:3955   */\n      dup4\n        /* \"#utility.yul\":3942:3959   */\n      add\n        /* \"#utility.yul\":3935:3982   */\n      mstore\n        /* \"#utility.yul\":3999:4130   */\n      tag_119\n        /* \"#utility.yul\":4125:4129   */\n      dup2\n        /* \"#utility.yul\":3999:4130   */\n      tag_70\n      jump\t// in\n    tag_119:\n        /* \"#utility.yul\":3991:4130   */\n      swap1\n      pop\n        /* \"#utility.yul\":3718:4137   */\n      swap2\n      swap1\n      pop\n      jump\t// out\n        /* \"#utility.yul\":4143:4323   */\n    tag_71:\n        /* \"#utility.yul\":4191:4268   */\n      0x4e487b7100000000000000000000000000000000000000000000000000000000\n        /* \"#utility.yul\":4188:4189   */\n      0x00\n        /* \"#utility.yul\":4181:4269   */\n      mstore\n        /* \"#utility.yul\":4288:4292   */\n      0x11\n        /* \"#utility.yul\":4285:4286   */\n      0x04\n        /* \"#utility.yul\":4278:4293   */\n      mstore\n        /* \"#utility.yul\":4312:4316   */\n      0x24\n        /* \"#utility.yul\":4309:4310   */\n      0x00\n        /* \"#utility.yul\":4302:4317   */\n      revert\n        /* \"#utility.yul\":4329:4520   */\n    tag_42:\n        /* \"#utility.yul\":4369:4372   */\n      0x00\n        /* \"#utility.yul\":4388:4408   */\n      tag_122\n        /* \"#utility.yul\":4406:4407   */\n      dup3\n        /* \"#utility.yul\":4388:4408   */\n      tag_63\n      jump\t// in\n    tag_122:\n        /* \"#utility.yul\":4383:4408   */\n      swap2\n      pop\n        /* \"#utility.yul\":4422:4442   */\n      tag_123\n        /* \"#utility.yul\":4440:4441   */\n      dup4\n        /* \"#utility.yul\":4422:4442   */\n      tag_63\n      jump\t// in\n    tag_123:\n        /* \"#utility.yul\":4417:4442   */\n      swap3\n      pop\n        /* \"#utility.yul\":4465:4466   */\n      dup3\n        /* \"#utility.yul\":4462:4463   */\n      dup3\n        /* \"#utility.yul\":4458:4467   */\n      add\n        /* \"#utility.yul\":4451:4467   */\n      swap1\n      pop\n        /* \"#utility.yul\":4486:4489   */\n      dup1\n        /* \"#utility.yul\":4483:4484   */\n      dup3\n        /* \"#utility.yul\":4480:4490   */\n      gt\n        /* \"#utility.yul\":4477:4513   */\n      iszero\n      tag_124\n      jumpi\n        /* \"#utility.yul\":4493:4511   */\n      tag_125\n      tag_71\n      jump\t// in\n    tag_125:\n        /* \"#utility.yul\":4477:4513   */\n    tag_124:\n        /* \"#utility.yul\":4329:4520   */\n      swap3\n      swap2\n      pop\n      pop\n      jump\t// out\n        /* \"#utility.yul\":4526:4753   */\n    tag_72:\n        /* \"#utility.yul\":4666:4700   */\n      0x4f6e6c792074686520636861726974792063616e2063616c6c20746869732066\n        /* \"#utility.yul\":4662:4663   */\n      0x00\n        /* \"#utility.yul\":4654:4660   */\n      dup3\n        /* \"#utility.yul\":4650:4664   */\n      add\n        /* \"#utility.yul\":4643:4701   */\n      mstore\n        /* \"#utility.yul\":4735:4745   */\n      0x756e6374696f6e2e000000000000000000000000000000000000000000000000\n        /* \"#utility.yul\":4730:4732   */\n      0x20\n        /* \"#utility.yul\":4722:4728   */\n      dup3\n        /* \"#utility.yul\":4718:4733   */\n      add\n        /* \"#utility.yul\":4711:4746   */\n      mstore\n        /* \"#utility.yul\":4526:4753   */\n      pop\n      jump\t// out\n        /* \"#utility.yul\":4759:5125   */\n    tag_73:\n        /* \"#utility.yul\":4901:4904   */\n      0x00\n        /* \"#utility.yul\":4922:4989   */\n      tag_128\n        /* \"#utility.yul\":4986:4988   */\n      0x28\n        /* \"#utility.yul\":4981:4984   */\n      dup4\n        /* \"#utility.yul\":4922:4989   */\n      tag_68\n      jump\t// in\n    tag_128:\n        /* \"#utility.yul\":4915:4989   */\n      swap2\n      pop\n        /* \"#utility.yul\":4998:5091   */\n      tag_129\n        /* \"#utility.yul\":5087:5090   */\n      dup3\n        /* \"#utility.yul\":4998:5091   */\n      tag_72\n      jump\t// in\n    tag_129:\n        /* \"#utility.yul\":5116:5118   */\n      0x40\n        /* \"#utility.yul\":5111:5114   */\n      dup3\n        /* \"#utility.yul\":5107:5119   */\n      add\n        /* \"#utility.yul\":5100:5119   */\n      swap1\n      pop\n        /* \"#utility.yul\":4759:5125   */\n      swap2\n      swap1\n      pop\n      jump\t// out\n        /* \"#utility.yul\":5131:5550   */\n    tag_48:\n        /* \"#utility.yul\":5297:5301   */\n      0x00\n        /* \"#utility.yul\":5335:5337   */\n      0x20\n        /* \"#utility.yul\":5324:5333   */\n      dup3\n        /* \"#utility.yul\":5320:5338   */\n      add\n        /* \"#utility.yul\":5312:5338   */\n      swap1\n      pop\n        /* \"#utility.yul\":5384:5393   */\n      dup2\n        /* \"#utility.yul\":5378:5382   */\n      dup2\n        /* \"#utility.yul\":5374:5394   */\n      sub\n        /* \"#utility.yul\":5370:5371   */\n      0x00\n        /* \"#utility.yul\":5359:5368   */\n      dup4\n        /* \"#utility.yul\":5355:5372   */\n      add\n        /* \"#utility.yul\":5348:5395   */\n      mstore\n        /* \"#utility.yul\":5412:5543   */\n      tag_131\n        /* \"#utility.yul\":5538:5542   */\n      dup2\n        /* \"#utility.yul\":5412:5543   */\n      tag_73\n      jump\t// in\n    tag_131:\n        /* \"#utility.yul\":5404:5543   */\n      swap1\n      pop\n        /* \"#utility.yul\":5131:5550   */\n      swap2\n      swap1\n      pop\n      jump\t// out\n        /* \"#utility.yul\":5556:5725   */\n    tag_74:\n        /* \"#utility.yul\":5696:5717   */\n      0x446f6e6174696f6e206e6f7420666f756e642e00000000000000000000000000\n        /* \"#utility.yul\":5692:5693   */\n      0x00\n        /* \"#utility.yul\":5684:5690   */\n      dup3\n        /* \"#utility.yul\":5680:5694   */\n      add\n        /* \"#utility.yul\":5673:5718   */\n      mstore\n        /* \"#utility.yul\":5556:5725   */\n      pop\n      jump\t// out\n        /* \"#utility.yul\":5731:6097   */\n    tag_75:\n        /* \"#utility.yul\":5873:5876   */\n      0x00\n        /* \"#utility.yul\":5894:5961   */\n      tag_134\n        /* \"#utility.yul\":5958:5960   */\n      0x13\n        /* \"#utility.yul\":5953:5956   */\n      dup4\n        /* \"#utility.yul\":5894:5961   */\n      tag_68\n      jump\t// in\n    tag_134:\n        /* \"#utility.yul\":5887:5961   */\n      swap2\n      pop\n        /* \"#utility.yul\":5970:6063   */\n      tag_135\n        /* \"#utility.yul\":6059:6062   */\n      dup3\n        /* \"#utility.yul\":5970:6063   */\n      tag_74\n      jump\t// in\n    tag_135:\n        /* \"#utility.yul\":6088:6090   */\n      0x20\n        /* \"#utility.yul\":6083:6086   */\n      dup3\n        /* \"#utility.yul\":6079:6091   */\n      add\n        /* \"#utility.yul\":6072:6091   */\n      swap1\n      pop\n        /* \"#utility.yul\":5731:6097   */\n      swap2\n      swap1\n      pop\n      jump\t// out\n        /* \"#utility.yul\":6103:6522   */\n    tag_52:\n        /* \"#utility.yul\":6269:6273   */\n      0x00\n        /* \"#utility.yul\":6307:6309   */\n      0x20\n        /* \"#utility.yul\":6296:6305   */\n      dup3\n        /* \"#utility.yul\":6292:6310   */\n      add\n        /* \"#utility.yul\":6284:6310   */\n      swap1\n      pop\n        /* \"#utility.yul\":6356:6365   */\n      dup2\n        /* \"#utility.yul\":6350:6354   */\n      dup2\n        /* \"#utility.yul\":6346:6366   */\n      sub\n        /* \"#utility.yul\":6342:6343   */\n      0x00\n        /* \"#utility.yul\":6331:6340   */\n      dup4\n        /* \"#utility.yul\":6327:6344   */\n      add\n        /* \"#utility.yul\":6320:6367   */\n      mstore\n        /* \"#utility.yul\":6384:6515   */\n      tag_137\n        /* \"#utility.yul\":6510:6514   */\n      dup2\n        /* \"#utility.yul\":6384:6515   */\n      tag_75\n      jump\t// in\n    tag_137:\n        /* \"#utility.yul\":6376:6515   */\n      swap1\n      pop\n        /* \"#utility.yul\":6103:6522   */\n      swap2\n      swap1\n      pop\n      jump\t// out\n        /* \"#utility.yul\":6528:6750   */\n    tag_76:\n        /* \"#utility.yul\":6668:6702   */\n      0x446f6e6174696f6e2068617320616c7265616479206265656e20766572696669\n        /* \"#utility.yul\":6664:6665   */\n      0x00\n        /* \"#utility.yul\":6656:6662   */\n      dup3\n        /* \"#utility.yul\":6652:6666   */\n      add\n        /* \"#utility.yul\":6645:6703   */\n      mstore\n        /* \"#utility.yul\":6737:6742   */\n      0x65642e0000000000000000000000000000000000000000000000000000000000\n        /* \"#utility.yul\":6732:6734   */\n      0x20\n        /* \"#utility.yul\":6724:6730   */\n      dup3\n        /* \"#utility.yul\":6720:6735   */\n      add\n        /* \"#utility.yul\":6713:6743   */\n      mstore\n        /* \"#utility.yul\":6528:6750   */\n      pop\n      jump\t// out\n        /* \"#utility.yul\":6756:7122   */\n    tag_77:\n        /* \"#utility.yul\":6898:6901   */\n      0x00\n        /* \"#utility.yul\":6919:6986   */\n      tag_140\n        /* \"#utility.yul\":6983:6985   */\n      0x23\n        /* \"#utility.yul\":6978:6981   */\n      dup4\n        /* \"#utility.yul\":6919:6986   */\n      tag_68\n      jump\t// in\n    tag_140:\n        /* \"#utility.yul\":6912:6986   */\n      swap2\n      pop\n        /* \"#utility.yul\":6995:7088   */\n      tag_141\n        /* \"#utility.yul\":7084:7087   */\n      dup3\n        /* \"#utility.yul\":6995:7088   */\n      tag_76\n      jump\t// in\n    tag_141:\n        /* \"#utility.yul\":7113:7115   */\n      0x40\n        /* \"#utility.yul\":7108:7111   */\n      dup3\n        /* \"#utility.yul\":7104:7116   */\n      add\n        /* \"#utility.yul\":7097:7116   */\n      swap1\n      pop\n        /* \"#utility.yul\":6756:7122   */\n      swap2\n      swap1\n      pop\n      jump\t// out\n        /* \"#utility.yul\":7128:7547   */\n    tag_55:\n        /* \"#utility.yul\":7294:7298   */\n      0x00\n        /* \"#utility.yul\":7332:7334   */\n      0x20\n        /* \"#utility.yul\":7321:7330   */\n      dup3\n        /* \"#utility.yul\":7317:7335   */\n      add\n        /* \"#utility.yul\":7309:7335   */\n      swap1\n      pop\n        /* \"#utility.yul\":7381:7390   */\n      dup2\n        /* \"#utility.yul\":7375:7379   */\n      dup2\n        /* \"#utility.yul\":7371:7391   */\n      sub\n        /* \"#utility.yul\":7367:7368   */\n      0x00\n        /* \"#utility.yul\":7356:7365   */\n      dup4\n        /* \"#utility.yul\":7352:7369   */\n      add\n        /* \"#utility.yul\":7345:7392   */\n      mstore\n        /* \"#utility.yul\":7409:7540   */\n      tag_143\n        /* \"#utility.yul\":7535:7539   */\n      dup2\n        /* \"#utility.yul\":7409:7540   */\n      tag_77\n      jump\t// in\n    tag_143:\n        /* \"#utility.yul\":7401:7540   */\n      swap1\n      pop\n        /* \"#utility.yul\":7128:7547   */\n      swap2\n      swap1\n      pop\n      jump\t// out\n\n    auxdata: 0xa2646970667358221220af71c677a7ae295f83e8a6610747c9685c34687297d1dc3d4e5d1052c915bb9564736f6c634300081a0033\n}\n",
				"bytecode": {
					"linkReferences": {},
					"object": "6080604052348015600e575f80fd5b503360015f6101000a81548173ffffffffffffffffffffffffffffffffffffffff021916908373ffffffffffffffffffffffffffffffffffffffff1602179055505f600281905550610a5c806100635f395ff3fe608060405260043610610054575f3560e01c806340ea0a9414610058578063410a1d32146100625780634cf436451461009f578063934aa023146100c7578063cc6cb19a146100f1578063de2ed8931461012f575b5f80fd5b610060610159565b005b34801561006d575f80fd5b50610088600480360381019061008391906106aa565b6102e7565b604051610096929190610707565b60405180910390f35b3480156100aa575f80fd5b506100c560048036038101906100c091906106aa565b6103bf565b005b3480156100d2575f80fd5b506100db6105d1565b6040516100e8919061073d565b60405180910390f35b3480156100fc575f80fd5b50610117600480360381019061011291906106aa565b6105f6565b60405161012693929190610756565b60405180910390f35b34801561013a575f80fd5b50610143610646565b604051610150919061078b565b60405180910390f35b5f341161019b576040517f08c379a000000000000000000000000000000000000000000000000000000000815260040161019290610824565b60405180910390fd5b5f60405180606001604052803373ffffffffffffffffffffffffffffffffffffffff1681526020013481526020015f15158152509050805f803373ffffffffffffffffffffffffffffffffffffffff1673ffffffffffffffffffffffffffffffffffffffff1681526020019081526020015f205f820151815f015f6101000a81548173ffffffffffffffffffffffffffffffffffffffff021916908373ffffffffffffffffffffffffffffffffffffffff160217905550602082015181600101556040820151816002015f6101000a81548160ff0219169083151502179055509050503460025f82825461028f919061086f565b925050819055503373ffffffffffffffffffffffffffffffffffffffff167faa13962bc79c7a0bc42cb8169b1705f0a6b55cc404ffb8a589d771ca78675978346040516102dc919061078b565b60405180910390a250565b5f805f805f8573ffffffffffffffffffffffffffffffffffffffff1673ffffffffffffffffffffffffffffffffffffffff1681526020019081526020015f206040518060600160405290815f82015f9054906101000a900473ffffffffffffffffffffffffffffffffffffffff1673ffffffffffffffffffffffffffffffffffffffff1673ffffffffffffffffffffffffffffffffffffffff16815260200160018201548152602001600282015f9054906101000a900460ff1615151515815250509050806020015181604001519250925050915091565b60015f9054906101000a900473ffffffffffffffffffffffffffffffffffffffff1673ffffffffffffffffffffffffffffffffffffffff163373ffffffffffffffffffffffffffffffffffffffff161461044e576040517f08c379a000000000000000000000000000000000000000000000000000000000815260040161044590610912565b60405180910390fd5b5f805f8373ffffffffffffffffffffffffffffffffffffffff1673ffffffffffffffffffffffffffffffffffffffff1681526020019081526020015f2090505f73ffffffffffffffffffffffffffffffffffffffff16815f015f9054906101000a900473ffffffffffffffffffffffffffffffffffffffff1673ffffffffffffffffffffffffffffffffffffffff160361051d576040517f08c379a00000000000000000000000000000000000000000000000000000000081526004016105149061097a565b60405180910390fd5b806002015f9054906101000a900460ff161561056e576040517f08c379a000000000000000000000000000000000000000000000000000000000815260040161056590610a08565b60405180910390fd5b6001816002015f6101000a81548160ff0219169083151502179055508173ffffffffffffffffffffffffffffffffffffffff167fa7e2dd3198a1b6f86fc842e8c72182617c592b6663d68516bf1a31a0f72e6e8e60405160405180910390a25050565b60015f9054906101000a900473ffffffffffffffffffffffffffffffffffffffff1681565b5f602052805f5260405f205f91509050805f015f9054906101000a900473ffffffffffffffffffffffffffffffffffffffff1690806001015490806002015f9054906101000a900460ff16905083565b60025481565b5f80fd5b5f73ffffffffffffffffffffffffffffffffffffffff82169050919050565b5f61067982610650565b9050919050565b6106898161066f565b8114610693575f80fd5b50565b5f813590506106a481610680565b92915050565b5f602082840312156106bf576106be61064c565b5b5f6106cc84828501610696565b91505092915050565b5f819050919050565b6106e7816106d5565b82525050565b5f8115159050919050565b610701816106ed565b82525050565b5f60408201905061071a5f8301856106de565b61072760208301846106f8565b9392505050565b6107378161066f565b82525050565b5f6020820190506107505f83018461072e565b92915050565b5f6060820190506107695f83018661072e565b61077660208301856106de565b61078360408301846106f8565b949350505050565b5f60208201905061079e5f8301846106de565b92915050565b5f82825260208201905092915050565b7f446f6e6174696f6e20616d6f756e74206d7573742062652067726561746572205f8201527f7468616e207a65726f2e00000000000000000000000000000000000000000000602082015250565b5f61080e602a836107a4565b9150610819826107b4565b604082019050919050565b5f6020820190508181035f83015261083b81610802565b9050919050565b7f4e487b71000000000000000000000000000000000000000000000000000000005f52601160045260245ffd5b5f610879826106d5565b9150610884836106d5565b925082820190508082111561089c5761089b610842565b5b92915050565b7f4f6e6c792074686520636861726974792063616e2063616c6c207468697320665f8201527f756e6374696f6e2e000000000000000000000000000000000000000000000000602082015250565b5f6108fc6028836107a4565b9150610907826108a2565b604082019050919050565b5f6020820190508181035f830152610929816108f0565b9050919050565b7f446f6e6174696f6e206e6f7420666f756e642e000000000000000000000000005f82015250565b5f6109646013836107a4565b915061096f82610930565b602082019050919050565b5f6020820190508181035f83015261099181610958565b9050919050565b7f446f6e6174696f6e2068617320616c7265616479206265656e207665726966695f8201527f65642e0000000000000000000000000000000000000000000000000000000000602082015250565b5f6109f26023836107a4565b91506109fd82610998565b604082019050919050565b5f6020820190508181035f830152610a1f816109e6565b905091905056fea2646970667358221220af71c677a7ae295f83e8a6610747c9685c34687297d1dc3d4e5d1052c915bb9564736f6c634300081a0033",
					"opcodes": "PUSH1 0x80 PUSH1 0x40 MSTORE CALLVALUE DUP1 ISZERO PUSH1 0xE JUMPI PUSH0 DUP1 REVERT JUMPDEST POP CALLER PUSH1 0x1 PUSH0 PUSH2 0x100 EXP DUP2 SLOAD DUP2 PUSH20 0xFFFFFFFFFFFFFFFFFFFFFFFFFFFFFFFFFFFFFFFF MUL NOT AND SWAP1 DUP4 PUSH20 0xFFFFFFFFFFFFFFFFFFFFFFFFFFFFFFFFFFFFFFFF AND MUL OR SWAP1 SSTORE POP PUSH0 PUSH1 0x2 DUP2 SWAP1 SSTORE POP PUSH2 0xA5C DUP1 PUSH2 0x63 PUSH0 CODECOPY PUSH0 RETURN INVALID PUSH1 0x80 PUSH1 0x40 MSTORE PUSH1 0x4 CALLDATASIZE LT PUSH2 0x54 JUMPI PUSH0 CALLDATALOAD PUSH1 0xE0 SHR DUP1 PUSH4 0x40EA0A94 EQ PUSH2 0x58 JUMPI DUP1 PUSH4 0x410A1D32 EQ PUSH2 0x62 JUMPI DUP1 PUSH4 0x4CF43645 EQ PUSH2 0x9F JUMPI DUP1 PUSH4 0x934AA023 EQ PUSH2 0xC7 JUMPI DUP1 PUSH4 0xCC6CB19A EQ PUSH2 0xF1 JUMPI DUP1 PUSH4 0xDE2ED893 EQ PUSH2 0x12F JUMPI JUMPDEST PUSH0 DUP1 REVERT JUMPDEST PUSH2 0x60 PUSH2 0x159 JUMP JUMPDEST STOP JUMPDEST CALLVALUE DUP1 ISZERO PUSH2 0x6D JUMPI PUSH0 DUP1 REVERT JUMPDEST POP PUSH2 0x88 PUSH1 0x4 DUP1 CALLDATASIZE SUB DUP2 ADD SWAP1 PUSH2 0x83 SWAP2 SWAP1 PUSH2 0x6AA JUMP JUMPDEST PUSH2 0x2E7 JUMP JUMPDEST PUSH1 0x40 MLOAD PUSH2 0x96 SWAP3 SWAP2 SWAP1 PUSH2 0x707 JUMP JUMPDEST PUSH1 0x40 MLOAD DUP1 SWAP2 SUB SWAP1 RETURN JUMPDEST CALLVALUE DUP1 ISZERO PUSH2 0xAA JUMPI PUSH0 DUP1 REVERT JUMPDEST POP PUSH2 0xC5 PUSH1 0x4 DUP1 CALLDATASIZE SUB DUP2 ADD SWAP1 PUSH2 0xC0 SWAP2 SWAP1 PUSH2 0x6AA JUMP JUMPDEST PUSH2 0x3BF JUMP JUMPDEST STOP JUMPDEST CALLVALUE DUP1 ISZERO PUSH2 0xD2 JUMPI PUSH0 DUP1 REVERT JUMPDEST POP PUSH2 0xDB PUSH2 0x5D1 JUMP JUMPDEST PUSH1 0x40 MLOAD PUSH2 0xE8 SWAP2 SWAP1 PUSH2 0x73D JUMP JUMPDEST PUSH1 0x40 MLOAD DUP1 SWAP2 SUB SWAP1 RETURN JUMPDEST CALLVALUE DUP1 ISZERO PUSH2 0xFC JUMPI PUSH0 DUP1 REVERT JUMPDEST POP PUSH2 0x117 PUSH1 0x4 DUP1 CALLDATASIZE SUB DUP2 ADD SWAP1 PUSH2 0x112 SWAP2 SWAP1 PUSH2 0x6AA JUMP JUMPDEST PUSH2 0x5F6 JUMP JUMPDEST PUSH1 0x40 MLOAD PUSH2 0x126 SWAP4 SWAP3 SWAP2 SWAP1 PUSH2 0x756 JUMP JUMPDEST PUSH1 0x40 MLOAD DUP1 SWAP2 SUB SWAP1 RETURN JUMPDEST CALLVALUE DUP1 ISZERO PUSH2 0x13A JUMPI PUSH0 DUP1 REVERT JUMPDEST POP PUSH2 0x143 PUSH2 0x646 JUMP JUMPDEST PUSH1 0x40 MLOAD PUSH2 0x150 SWAP2 SWAP1 PUSH2 0x78B JUMP JUMPDEST PUSH1 0x40 MLOAD DUP1 SWAP2 SUB SWAP1 RETURN JUMPDEST PUSH0 CALLVALUE GT PUSH2 0x19B JUMPI PUSH1 0x40 MLOAD PUSH32 0x8C379A000000000000000000000000000000000000000000000000000000000 DUP2 MSTORE PUSH1 0x4 ADD PUSH2 0x192 SWAP1 PUSH2 0x824 JUMP JUMPDEST PUSH1 0x40 MLOAD DUP1 SWAP2 SUB SWAP1 REVERT JUMPDEST PUSH0 PUSH1 0x40 MLOAD DUP1 PUSH1 0x60 ADD PUSH1 0x40 MSTORE DUP1 CALLER PUSH20 0xFFFFFFFFFFFFFFFFFFFFFFFFFFFFFFFFFFFFFFFF AND DUP2 MSTORE PUSH1 0x20 ADD CALLVALUE DUP2 MSTORE PUSH1 0x20 ADD PUSH0 ISZERO ISZERO DUP2 MSTORE POP SWAP1 POP DUP1 PUSH0 DUP1 CALLER PUSH20 0xFFFFFFFFFFFFFFFFFFFFFFFFFFFFFFFFFFFFFFFF AND PUSH20 0xFFFFFFFFFFFFFFFFFFFFFFFFFFFFFFFFFFFFFFFF AND DUP2 MSTORE PUSH1 0x20 ADD SWAP1 DUP2 MSTORE PUSH1 0x20 ADD PUSH0 KECCAK256 PUSH0 DUP3 ADD MLOAD DUP2 PUSH0 ADD PUSH0 PUSH2 0x100 EXP DUP2 SLOAD DUP2 PUSH20 0xFFFFFFFFFFFFFFFFFFFFFFFFFFFFFFFFFFFFFFFF MUL NOT AND SWAP1 DUP4 PUSH20 0xFFFFFFFFFFFFFFFFFFFFFFFFFFFFFFFFFFFFFFFF AND MUL OR SWAP1 SSTORE POP PUSH1 0x20 DUP3 ADD MLOAD DUP2 PUSH1 0x1 ADD SSTORE PUSH1 0x40 DUP3 ADD MLOAD DUP2 PUSH1 0x2 ADD PUSH0 PUSH2 0x100 EXP DUP2 SLOAD DUP2 PUSH1 0xFF MUL NOT AND SWAP1 DUP4 ISZERO ISZERO MUL OR SWAP1 SSTORE POP SWAP1 POP POP CALLVALUE PUSH1 0x2 PUSH0 DUP3 DUP3 SLOAD PUSH2 0x28F SWAP2 SWAP1 PUSH2 0x86F JUMP JUMPDEST SWAP3 POP POP DUP2 SWAP1 SSTORE POP CALLER PUSH20 0xFFFFFFFFFFFFFFFFFFFFFFFFFFFFFFFFFFFFFFFF AND PUSH32 0xAA13962BC79C7A0BC42CB8169B1705F0A6B55CC404FFB8A589D771CA78675978 CALLVALUE PUSH1 0x40 MLOAD PUSH2 0x2DC SWAP2 SWAP1 PUSH2 0x78B JUMP JUMPDEST PUSH1 0x40 MLOAD DUP1 SWAP2 SUB SWAP1 LOG2 POP JUMP JUMPDEST PUSH0 DUP1 PUSH0 DUP1 PUSH0 DUP6 PUSH20 0xFFFFFFFFFFFFFFFFFFFFFFFFFFFFFFFFFFFFFFFF AND PUSH20 0xFFFFFFFFFFFFFFFFFFFFFFFFFFFFFFFFFFFFFFFF AND DUP2 MSTORE PUSH1 0x20 ADD SWAP1 DUP2 MSTORE PUSH1 0x20 ADD PUSH0 KECCAK256 PUSH1 0x40 MLOAD DUP1 PUSH1 0x60 ADD PUSH1 0x40 MSTORE SWAP1 DUP2 PUSH0 DUP3 ADD PUSH0 SWAP1 SLOAD SWAP1 PUSH2 0x100 EXP SWAP1 DIV PUSH20 0xFFFFFFFFFFFFFFFFFFFFFFFFFFFFFFFFFFFFFFFF AND PUSH20 0xFFFFFFFFFFFFFFFFFFFFFFFFFFFFFFFFFFFFFFFF AND PUSH20 0xFFFFFFFFFFFFFFFFFFFFFFFFFFFFFFFFFFFFFFFF AND DUP2 MSTORE PUSH1 0x20 ADD PUSH1 0x1 DUP3 ADD SLOAD DUP2 MSTORE PUSH1 0x20 ADD PUSH1 0x2 DUP3 ADD PUSH0 SWAP1 SLOAD SWAP1 PUSH2 0x100 EXP SWAP1 DIV PUSH1 0xFF AND ISZERO ISZERO ISZERO ISZERO DUP2 MSTORE POP POP SWAP1 POP DUP1 PUSH1 0x20 ADD MLOAD DUP2 PUSH1 0x40 ADD MLOAD SWAP3 POP SWAP3 POP POP SWAP2 POP SWAP2 JUMP JUMPDEST PUSH1 0x1 PUSH0 SWAP1 SLOAD SWAP1 PUSH2 0x100 EXP SWAP1 DIV PUSH20 0xFFFFFFFFFFFFFFFFFFFFFFFFFFFFFFFFFFFFFFFF AND PUSH20 0xFFFFFFFFFFFFFFFFFFFFFFFFFFFFFFFFFFFFFFFF AND CALLER PUSH20 0xFFFFFFFFFFFFFFFFFFFFFFFFFFFFFFFFFFFFFFFF AND EQ PUSH2 0x44E JUMPI PUSH1 0x40 MLOAD PUSH32 0x8C379A000000000000000000000000000000000000000000000000000000000 DUP2 MSTORE PUSH1 0x4 ADD PUSH2 0x445 SWAP1 PUSH2 0x912 JUMP JUMPDEST PUSH1 0x40 MLOAD DUP1 SWAP2 SUB SWAP1 REVERT JUMPDEST PUSH0 DUP1 PUSH0 DUP4 PUSH20 0xFFFFFFFFFFFFFFFFFFFFFFFFFFFFFFFFFFFFFFFF AND PUSH20 0xFFFFFFFFFFFFFFFFFFFFFFFFFFFFFFFFFFFFFFFF AND DUP2 MSTORE PUSH1 0x20 ADD SWAP1 DUP2 MSTORE PUSH1 0x20 ADD PUSH0 KECCAK256 SWAP1 POP PUSH0 PUSH20 0xFFFFFFFFFFFFFFFFFFFFFFFFFFFFFFFFFFFFFFFF AND DUP2 PUSH0 ADD PUSH0 SWAP1 SLOAD SWAP1 PUSH2 0x100 EXP SWAP1 DIV PUSH20 0xFFFFFFFFFFFFFFFFFFFFFFFFFFFFFFFFFFFFFFFF AND PUSH20 0xFFFFFFFFFFFFFFFFFFFFFFFFFFFFFFFFFFFFFFFF AND SUB PUSH2 0x51D JUMPI PUSH1 0x40 MLOAD PUSH32 0x8C379A000000000000000000000000000000000000000000000000000000000 DUP2 MSTORE PUSH1 0x4 ADD PUSH2 0x514 SWAP1 PUSH2 0x97A JUMP JUMPDEST PUSH1 0x40 MLOAD DUP1 SWAP2 SUB SWAP1 REVERT JUMPDEST DUP1 PUSH1 0x2 ADD PUSH0 SWAP1 SLOAD SWAP1 PUSH2 0x100 EXP SWAP1 DIV PUSH1 0xFF AND ISZERO PUSH2 0x56E JUMPI PUSH1 0x40 MLOAD PUSH32 0x8C379A000000000000000000000000000000000000000000000000000000000 DUP2 MSTORE PUSH1 0x4 ADD PUSH2 0x565 SWAP1 PUSH2 0xA08 JUMP JUMPDEST PUSH1 0x40 MLOAD DUP1 SWAP2 SUB SWAP1 REVERT JUMPDEST PUSH1 0x1 DUP2 PUSH1 0x2 ADD PUSH0 PUSH2 0x100 EXP DUP2 SLOAD DUP2 PUSH1 0xFF MUL NOT AND SWAP1 DUP4 ISZERO ISZERO MUL OR SWAP1 SSTORE POP DUP2 PUSH20 0xFFFFFFFFFFFFFFFFFFFFFFFFFFFFFFFFFFFFFFFF AND PUSH32 0xA7E2DD3198A1B6F86FC842E8C72182617C592B6663D68516BF1A31A0F72E6E8E PUSH1 0x40 MLOAD PUSH1 0x40 MLOAD DUP1 SWAP2 SUB SWAP1 LOG2 POP POP JUMP JUMPDEST PUSH1 0x1 PUSH0 SWAP1 SLOAD SWAP1 PUSH2 0x100 EXP SWAP1 DIV PUSH20 0xFFFFFFFFFFFFFFFFFFFFFFFFFFFFFFFFFFFFFFFF AND DUP2 JUMP JUMPDEST PUSH0 PUSH1 0x20 MSTORE DUP1 PUSH0 MSTORE PUSH1 0x40 PUSH0 KECCAK256 PUSH0 SWAP2 POP SWAP1 POP DUP1 PUSH0 ADD PUSH0 SWAP1 SLOAD SWAP1 PUSH2 0x100 EXP SWAP1 DIV PUSH20 0xFFFFFFFFFFFFFFFFFFFFFFFFFFFFFFFFFFFFFFFF AND SWAP1 DUP1 PUSH1 0x1 ADD SLOAD SWAP1 DUP1 PUSH1 0x2 ADD PUSH0 SWAP1 SLOAD SWAP1 PUSH2 0x100 EXP SWAP1 DIV PUSH1 0xFF AND SWAP1 POP DUP4 JUMP JUMPDEST PUSH1 0x2 SLOAD DUP2 JUMP JUMPDEST PUSH0 DUP1 REVERT JUMPDEST PUSH0 PUSH20 0xFFFFFFFFFFFFFFFFFFFFFFFFFFFFFFFFFFFFFFFF DUP3 AND SWAP1 POP SWAP2 SWAP1 POP JUMP JUMPDEST PUSH0 PUSH2 0x679 DUP3 PUSH2 0x650 JUMP JUMPDEST SWAP1 POP SWAP2 SWAP1 POP JUMP JUMPDEST PUSH2 0x689 DUP2 PUSH2 0x66F JUMP JUMPDEST DUP2 EQ PUSH2 0x693 JUMPI PUSH0 DUP1 REVERT JUMPDEST POP JUMP JUMPDEST PUSH0 DUP2 CALLDATALOAD SWAP1 POP PUSH2 0x6A4 DUP2 PUSH2 0x680 JUMP JUMPDEST SWAP3 SWAP2 POP POP JUMP JUMPDEST PUSH0 PUSH1 0x20 DUP3 DUP5 SUB SLT ISZERO PUSH2 0x6BF JUMPI PUSH2 0x6BE PUSH2 0x64C JUMP JUMPDEST JUMPDEST PUSH0 PUSH2 0x6CC DUP5 DUP3 DUP6 ADD PUSH2 0x696 JUMP JUMPDEST SWAP2 POP POP SWAP3 SWAP2 POP POP JUMP JUMPDEST PUSH0 DUP2 SWAP1 POP SWAP2 SWAP1 POP JUMP JUMPDEST PUSH2 0x6E7 DUP2 PUSH2 0x6D5 JUMP JUMPDEST DUP3 MSTORE POP POP JUMP JUMPDEST PUSH0 DUP2 ISZERO ISZERO SWAP1 POP SWAP2 SWAP1 POP JUMP JUMPDEST PUSH2 0x701 DUP2 PUSH2 0x6ED JUMP JUMPDEST DUP3 MSTORE POP POP JUMP JUMPDEST PUSH0 PUSH1 0x40 DUP3 ADD SWAP1 POP PUSH2 0x71A PUSH0 DUP4 ADD DUP6 PUSH2 0x6DE JUMP JUMPDEST PUSH2 0x727 PUSH1 0x20 DUP4 ADD DUP5 PUSH2 0x6F8 JUMP JUMPDEST SWAP4 SWAP3 POP POP POP JUMP JUMPDEST PUSH2 0x737 DUP2 PUSH2 0x66F JUMP JUMPDEST DUP3 MSTORE POP POP JUMP JUMPDEST PUSH0 PUSH1 0x20 DUP3 ADD SWAP1 POP PUSH2 0x750 PUSH0 DUP4 ADD DUP5 PUSH2 0x72E JUMP JUMPDEST SWAP3 SWAP2 POP POP JUMP JUMPDEST PUSH0 PUSH1 0x60 DUP3 ADD SWAP1 POP PUSH2 0x769 PUSH0 DUP4 ADD DUP7 PUSH2 0x72E JUMP JUMPDEST PUSH2 0x776 PUSH1 0x20 DUP4 ADD DUP6 PUSH2 0x6DE JUMP JUMPDEST PUSH2 0x783 PUSH1 0x40 DUP4 ADD DUP5 PUSH2 0x6F8 JUMP JUMPDEST SWAP5 SWAP4 POP POP POP POP JUMP JUMPDEST PUSH0 PUSH1 0x20 DUP3 ADD SWAP1 POP PUSH2 0x79E PUSH0 DUP4 ADD DUP5 PUSH2 0x6DE JUMP JUMPDEST SWAP3 SWAP2 POP POP JUMP JUMPDEST PUSH0 DUP3 DUP3 MSTORE PUSH1 0x20 DUP3 ADD SWAP1 POP SWAP3 SWAP2 POP POP JUMP JUMPDEST PUSH32 0x446F6E6174696F6E20616D6F756E74206D757374206265206772656174657220 PUSH0 DUP3 ADD MSTORE PUSH32 0x7468616E207A65726F2E00000000000000000000000000000000000000000000 PUSH1 0x20 DUP3 ADD MSTORE POP JUMP JUMPDEST PUSH0 PUSH2 0x80E PUSH1 0x2A DUP4 PUSH2 0x7A4 JUMP JUMPDEST SWAP2 POP PUSH2 0x819 DUP3 PUSH2 0x7B4 JUMP JUMPDEST PUSH1 0x40 DUP3 ADD SWAP1 POP SWAP2 SWAP1 POP JUMP JUMPDEST PUSH0 PUSH1 0x20 DUP3 ADD SWAP1 POP DUP2 DUP2 SUB PUSH0 DUP4 ADD MSTORE PUSH2 0x83B DUP2 PUSH2 0x802 JUMP JUMPDEST SWAP1 POP SWAP2 SWAP1 POP JUMP JUMPDEST PUSH32 0x4E487B7100000000000000000000000000000000000000000000000000000000 PUSH0 MSTORE PUSH1 0x11 PUSH1 0x4 MSTORE PUSH1 0x24 PUSH0 REVERT JUMPDEST PUSH0 PUSH2 0x879 DUP3 PUSH2 0x6D5 JUMP JUMPDEST SWAP2 POP PUSH2 0x884 DUP4 PUSH2 0x6D5 JUMP JUMPDEST SWAP3 POP DUP3 DUP3 ADD SWAP1 POP DUP1 DUP3 GT ISZERO PUSH2 0x89C JUMPI PUSH2 0x89B PUSH2 0x842 JUMP JUMPDEST JUMPDEST SWAP3 SWAP2 POP POP JUMP JUMPDEST PUSH32 0x4F6E6C792074686520636861726974792063616E2063616C6C20746869732066 PUSH0 DUP3 ADD MSTORE PUSH32 0x756E6374696F6E2E000000000000000000000000000000000000000000000000 PUSH1 0x20 DUP3 ADD MSTORE POP JUMP JUMPDEST PUSH0 PUSH2 0x8FC PUSH1 0x28 DUP4 PUSH2 0x7A4 JUMP JUMPDEST SWAP2 POP PUSH2 0x907 DUP3 PUSH2 0x8A2 JUMP JUMPDEST PUSH1 0x40 DUP3 ADD SWAP1 POP SWAP2 SWAP1 POP JUMP JUMPDEST PUSH0 PUSH1 0x20 DUP3 ADD SWAP1 POP DUP2 DUP2 SUB PUSH0 DUP4 ADD MSTORE PUSH2 0x929 DUP2 PUSH2 0x8F0 JUMP JUMPDEST SWAP1 POP SWAP2 SWAP1 POP JUMP JUMPDEST PUSH32 0x446F6E6174696F6E206E6F7420666F756E642E00000000000000000000000000 PUSH0 DUP3 ADD MSTORE POP JUMP JUMPDEST PUSH0 PUSH2 0x964 PUSH1 0x13 DUP4 PUSH2 0x7A4 JUMP JUMPDEST SWAP2 POP PUSH2 0x96F DUP3 PUSH2 0x930 JUMP JUMPDEST PUSH1 0x20 DUP3 ADD SWAP1 POP SWAP2 SWAP1 POP JUMP JUMPDEST PUSH0 PUSH1 0x20 DUP3 ADD SWAP1 POP DUP2 DUP2 SUB PUSH0 DUP4 ADD MSTORE PUSH2 0x991 DUP2 PUSH2 0x958 JUMP JUMPDEST SWAP1 POP SWAP2 SWAP1 POP JUMP JUMPDEST PUSH32 0x446F6E6174696F6E2068617320616C7265616479206265656E20766572696669 PUSH0 DUP3 ADD MSTORE PUSH32 0x65642E0000000000000000000000000000000000000000000000000000000000 PUSH1 0x20 DUP3 ADD MSTORE POP JUMP JUMPDEST PUSH0 PUSH2 0x9F2 PUSH1 0x23 DUP4 PUSH2 0x7A4 JUMP JUMPDEST SWAP2 POP PUSH2 0x9FD DUP3 PUSH2 0x998 JUMP JUMPDEST PUSH1 0x40 DUP3 ADD SWAP1 POP SWAP2 SWAP1 POP JUMP JUMPDEST PUSH0 PUSH1 0x20 DUP3 ADD SWAP1 POP DUP2 DUP2 SUB PUSH0 DUP4 ADD MSTORE PUSH2 0xA1F DUP2 PUSH2 0x9E6 JUMP JUMPDEST SWAP1 POP SWAP2 SWAP1 POP JUMP INVALID LOG2 PUSH5 0x6970667358 0x22 SLT KECCAK256 0xAF PUSH18 0xC677A7AE295F83E8A6610747C9685C346872 SWAP8 0xD1 0xDC RETURNDATASIZE 0x4E TSTORE LT MSTORE 0xC9 ISZERO 0xBB SWAP6 PUSH5 0x736F6C6343 STOP ADDMOD BYTE STOP CALLER "
				},
				"gasEstimates": {
					"creation": {
						"codeDepositCost": "530400",
						"executionCost": "29838",
						"totalCost": "560238"
					},
					"external": {
						"charity()": "2552",
						"donations(address)": "infinite",
						"getDonation(address)": "7365",
						"makeDonation()": "infinite",
						"totalDonations()": "2513",
						"verifyDonation(address)": "32508"
					}
				},
				"methodIdentifiers": {
					"charity()": "934aa023",
					"donations(address)": "cc6cb19a",
					"getDonation(address)": "410a1d32",
					"makeDonation()": "40ea0a94",
					"totalDonations()": "de2ed893",
					"verifyDonation(address)": "4cf43645"
				}
			},
			"storageLayout": {
				"storage": [
					{
						"astId": 13,
						"contract": "contracts/donationCharity.sol:Charity",
						"label": "donations",
						"offset": 0,
						"slot": "0",
						"type": "t_mapping(t_address,t_struct(Donation)8_storage)"
					},
					{
						"astId": 15,
						"contract": "contracts/donationCharity.sol:Charity",
						"label": "charity",
						"offset": 0,
						"slot": "1",
						"type": "t_address"
					},
					{
						"astId": 17,
						"contract": "contracts/donationCharity.sol:Charity",
						"label": "totalDonations",
						"offset": 0,
						"slot": "2",
						"type": "t_uint256"
					}
				],
				"types": {
					"t_address": {
						"encoding": "inplace",
						"label": "address",
						"numberOfBytes": "20"
					},
					"t_bool": {
						"encoding": "inplace",
						"label": "bool",
						"numberOfBytes": "1"
					},
					"t_mapping(t_address,t_struct(Donation)8_storage)": {
						"encoding": "mapping",
						"key": "t_address",
						"label": "mapping(address => struct Charity.Donation)",
						"numberOfBytes": "32",
						"value": "t_struct(Donation)8_storage"
					},
					"t_struct(Donation)8_storage": {
						"encoding": "inplace",
						"label": "struct Charity.Donation",
						"members": [
							{
								"astId": 3,
								"contract": "contracts/donationCharity.sol:Charity",
								"label": "donor",
								"offset": 0,
								"slot": "0",
								"type": "t_address"
							},
							{
								"astId": 5,
								"contract": "contracts/donationCharity.sol:Charity",
								"label": "amount",
								"offset": 0,
								"slot": "1",
								"type": "t_uint256"
							},
							{
								"astId": 7,
								"contract": "contracts/donationCharity.sol:Charity",
								"label": "isVerified",
								"offset": 0,
								"slot": "2",
								"type": "t_bool"
							}
						],
						"numberOfBytes": "96"
					},
					"t_uint256": {
						"encoding": "inplace",
						"label": "uint256",
						"numberOfBytes": "32"
					}
				}
			},
			"userdoc": {
				"kind": "user",
				"methods": {},
				"version": 1
			}
		}
	}
}