{
	"contracts/Vote.sol": {
		"Vote": {
			"abi": [
				{
					"anonymous": false,
					"inputs": [
						{
							"indexed": false,
							"internalType": "uint256",
							"name": "id",
							"type": "uint256"
						},
						{
							"indexed": false,
							"internalType": "string",
							"name": "name",
							"type": "string"
						},
						{
							"indexed": false,
							"internalType": "string",
							"name": "group",
							"type": "string"
						}
					],
					"name": "NomineeAdded",
					"type": "event"
				},
				{
					"anonymous": false,
					"inputs": [
						{
							"indexed": true,
							"internalType": "address",
							"name": "voter",
							"type": "address"
						},
						{
							"indexed": false,
							"internalType": "uint256",
							"name": "nomineeId",
							"type": "uint256"
						}
					],
					"name": "VoteCast",
					"type": "event"
				},
				{
					"inputs": [
						{
							"internalType": "string",
							"name": "_name",
							"type": "string"
						},
						{
							"internalType": "string",
							"name": "_group",
							"type": "string"
						}
					],
					"name": "addNominee",
					"outputs": [
						{
							"internalType": "uint256",
							"name": "",
							"type": "uint256"
						}
					],
					"stateMutability": "nonpayable",
					"type": "function"
				},
				{
					"inputs": [],
					"name": "countNominees",
					"outputs": [
						{
							"internalType": "uint256",
							"name": "",
							"type": "uint256"
						}
					],
					"stateMutability": "view",
					"type": "function"
				},
				{
					"inputs": [
						{
							"internalType": "uint256",
							"name": "",
							"type": "uint256"
						}
					],
					"name": "nominees",
					"outputs": [
						{
							"internalType": "uint256",
							"name": "id",
							"type": "uint256"
						},
						{
							"internalType": "string",
							"name": "name",
							"type": "string"
						},
						{
							"internalType": "string",
							"name": "group",
							"type": "string"
						},
						{
							"internalType": "uint256",
							"name": "voteCount",
							"type": "uint256"
						}
					],
					"stateMutability": "view",
					"type": "function"
				},
				{
					"inputs": [
						{
							"internalType": "uint256",
							"name": "_votingBegin",
							"type": "uint256"
						},
						{
							"internalType": "uint256",
							"name": "_votingClose",
							"type": "uint256"
						}
					],
					"name": "setVotingPeriod",
					"outputs": [],
					"stateMutability": "nonpayable",
					"type": "function"
				},
				{
					"inputs": [
						{
							"internalType": "uint256",
							"name": "nomineeId",
							"type": "uint256"
						}
					],
					"name": "vote",
					"outputs": [],
					"stateMutability": "nonpayable",
					"type": "function"
				},
				{
					"inputs": [
						{
							"internalType": "address",
							"name": "",
							"type": "address"
						}
					],
					"name": "voters",
					"outputs": [
						{
							"internalType": "bool",
							"name": "",
							"type": "bool"
						}
					],
					"stateMutability": "view",
					"type": "function"
				},
				{
					"inputs": [],
					"name": "votingBegin",
					"outputs": [
						{
							"internalType": "uint256",
							"name": "",
							"type": "uint256"
						}
					],
					"stateMutability": "view",
					"type": "function"
				},
				{
					"inputs": [],
					"name": "votingClose",
					"outputs": [
						{
							"internalType": "uint256",
							"name": "",
							"type": "uint256"
						}
					],
					"stateMutability": "view",
					"type": "function"
				}
			],
			"devdoc": {
				"kind": "dev",
				"methods": {},
				"version": 1
			},
			"evm": {
				"assembly": "    /* \"contracts/Vote.sol\":60:1822  contract Vote {... */\n  mstore(0x40, 0x80)\n  callvalue\n  dup1\n  iszero\n  tag_1\n  jumpi\n  0x00\n  dup1\n  revert\ntag_1:\n  pop\n  dataSize(sub_0)\n  dup1\n  dataOffset(sub_0)\n  0x00\n  codecopy\n  0x00\n  return\nstop\n\nsub_0: assembly {\n        /* \"contracts/Vote.sol\":60:1822  contract Vote {... */\n      mstore(0x40, 0x80)\n      callvalue\n      dup1\n      iszero\n      tag_1\n      jumpi\n      0x00\n      dup1\n      revert\n    tag_1:\n      pop\n      jumpi(tag_2, lt(calldatasize, 0x04))\n      shr(0xe0, calldataload(0x00))\n      dup1\n      0xa3ec138d\n      gt\n      tag_11\n      jumpi\n      dup1\n      0xa3ec138d\n      eq\n      tag_7\n      jumpi\n      dup1\n      0xb04e55ed\n      eq\n      tag_8\n      jumpi\n      dup1\n      0xc5e7e32b\n      eq\n      tag_9\n      jumpi\n      dup1\n      0xeec6b91e\n      eq\n      tag_10\n      jumpi\n      jump(tag_2)\n    tag_11:\n      dup1\n      0x0121b93f\n      eq\n      tag_3\n      jumpi\n      dup1\n      0x3554fd8f\n      eq\n      tag_4\n      jumpi\n      dup1\n      0x36b8ddd3\n      eq\n      tag_5\n      jumpi\n      dup1\n      0xa15a36c7\n      eq\n      tag_6\n      jumpi\n    tag_2:\n      0x00\n      dup1\n      revert\n        /* \"contracts/Vote.sol\":1210:1819  function vote(uint256 nomineeId) public {... */\n    tag_3:\n      tag_12\n      0x04\n      dup1\n      calldatasize\n      sub\n      dup2\n      add\n      swap1\n      tag_13\n      swap2\n      swap1\n      tag_14\n      jump\t// in\n    tag_13:\n      tag_15\n      jump\t// in\n    tag_12:\n      stop\n        /* \"contracts/Vote.sol\":381:407  uint256 public votingBegin */\n    tag_4:\n      tag_16\n      tag_17\n      jump\t// in\n    tag_16:\n      mload(0x40)\n      tag_18\n      swap2\n      swap1\n      tag_19\n      jump\t// in\n    tag_18:\n      mload(0x40)\n      dup1\n      swap2\n      sub\n      swap1\n      return\n        /* \"contracts/Vote.sol\":348:374  uint256 public votingClose */\n    tag_5:\n      tag_20\n      tag_21\n      jump\t// in\n    tag_20:\n      mload(0x40)\n      tag_22\n      swap2\n      swap1\n      tag_19\n      jump\t// in\n    tag_22:\n      mload(0x40)\n      dup1\n      swap2\n      sub\n      swap1\n      return\n        /* \"contracts/Vote.sol\":587:793  function setVotingPeriod(uint256 _votingBegin, uint256 _votingClose) public {... */\n    tag_6:\n      tag_23\n      0x04\n      dup1\n      calldatasize\n      sub\n      dup2\n      add\n      swap1\n      tag_24\n      swap2\n      swap1\n      tag_25\n      jump\t// in\n    tag_24:\n      tag_26\n      jump\t// in\n    tag_23:\n      stop\n        /* \"contracts/Vote.sol\":261:299  mapping(address => bool) public voters */\n    tag_7:\n      tag_27\n      0x04\n      dup1\n      calldatasize\n      sub\n      dup2\n      add\n      swap1\n      tag_28\n      swap2\n      swap1\n      tag_29\n      jump\t// in\n    tag_28:\n      tag_30\n      jump\t// in\n    tag_27:\n      mload(0x40)\n      tag_31\n      swap2\n      swap1\n      tag_32\n      jump\t// in\n    tag_31:\n      mload(0x40)\n      dup1\n      swap2\n      sub\n      swap1\n      return\n        /* \"contracts/Vote.sol\":313:341  uint256 public countNominees */\n    tag_8:\n      tag_33\n      tag_34\n      jump\t// in\n    tag_33:\n      mload(0x40)\n      tag_35\n      swap2\n      swap1\n      tag_19\n      jump\t// in\n    tag_35:\n      mload(0x40)\n      dup1\n      swap2\n      sub\n      swap1\n      return\n        /* \"contracts/Vote.sol\":801:1202  function addNominee(string memory _name, string memory _group) ... */\n    tag_9:\n      tag_36\n      0x04\n      dup1\n      calldatasize\n      sub\n      dup2\n      add\n      swap1\n      tag_37\n      swap2\n      swap1\n      tag_38\n      jump\t// in\n    tag_37:\n      tag_39\n      jump\t// in\n    tag_36:\n      mload(0x40)\n      tag_40\n      swap2\n      swap1\n      tag_19\n      jump\t// in\n    tag_40:\n      mload(0x40)\n      dup1\n      swap2\n      sub\n      swap1\n      return\n        /* \"contracts/Vote.sol\":210:254  mapping (uint256 => Nominee) public nominees */\n    tag_10:\n      tag_41\n      0x04\n      dup1\n      calldatasize\n      sub\n      dup2\n      add\n      swap1\n      tag_42\n      swap2\n      swap1\n      tag_14\n      jump\t// in\n    tag_42:\n      tag_43\n      jump\t// in\n    tag_41:\n      mload(0x40)\n      tag_44\n      swap5\n      swap4\n      swap3\n      swap2\n      swap1\n      tag_45\n      jump\t// in\n    tag_44:\n      mload(0x40)\n      dup1\n      swap2\n      sub\n      swap1\n      return\n        /* \"contracts/Vote.sol\":1210:1819  function vote(uint256 nomineeId) public {... */\n    tag_15:\n        /* \"contracts/Vote.sol\":1288:1299  votingBegin */\n      sload(0x04)\n        /* \"contracts/Vote.sol\":1269:1284  block.timestamp */\n      timestamp\n        /* \"contracts/Vote.sol\":1269:1299  block.timestamp >= votingBegin */\n      lt\n      iszero\n        /* \"contracts/Vote.sol\":1261:1330  require(block.timestamp >= votingBegin, \"Voting has not started yet\") */\n      tag_47\n      jumpi\n      mload(0x40)\n      0x08c379a000000000000000000000000000000000000000000000000000000000\n      dup2\n      mstore\n      0x04\n      add\n      tag_48\n      swap1\n      tag_49\n      jump\t// in\n    tag_48:\n      mload(0x40)\n      dup1\n      swap2\n      sub\n      swap1\n      revert\n    tag_47:\n        /* \"contracts/Vote.sol\":1368:1379  votingClose */\n      sload(0x03)\n        /* \"contracts/Vote.sol\":1349:1364  block.timestamp */\n      timestamp\n        /* \"contracts/Vote.sol\":1349:1379  block.timestamp <= votingClose */\n      gt\n      iszero\n        /* \"contracts/Vote.sol\":1341:1395  require(block.timestamp <= votingClose, \"Vote Closed\") */\n      tag_50\n      jumpi\n      mload(0x40)\n      0x08c379a000000000000000000000000000000000000000000000000000000000\n      dup2\n      mstore\n      0x04\n      add\n      tag_51\n      swap1\n      tag_52\n      jump\t// in\n    tag_51:\n      mload(0x40)\n      dup1\n      swap2\n      sub\n      swap1\n      revert\n    tag_50:\n        /* \"contracts/Vote.sol\":1426:1427  0 */\n      0x00\n        /* \"contracts/Vote.sol\":1414:1423  nomineeId */\n      dup2\n        /* \"contracts/Vote.sol\":1414:1427  nomineeId > 0 */\n      gt\n        /* \"contracts/Vote.sol\":1414:1457  nomineeId > 0 && nomineeId <= countNominees */\n      dup1\n      iszero\n      tag_53\n      jumpi\n      pop\n        /* \"contracts/Vote.sol\":1444:1457  countNominees */\n      sload(0x02)\n        /* \"contracts/Vote.sol\":1431:1440  nomineeId */\n      dup2\n        /* \"contracts/Vote.sol\":1431:1457  nomineeId <= countNominees */\n      gt\n      iszero\n        /* \"contracts/Vote.sol\":1414:1457  nomineeId > 0 && nomineeId <= countNominees */\n    tag_53:\n        /* \"contracts/Vote.sol\":1406:1480  require(nomineeId > 0 && nomineeId <= countNominees, \"Invalid nominee ID\") */\n      tag_54\n      jumpi\n      mload(0x40)\n      0x08c379a000000000000000000000000000000000000000000000000000000000\n      dup2\n      mstore\n      0x04\n      add\n      tag_55\n      swap1\n      tag_56\n      jump\t// in\n    tag_55:\n      mload(0x40)\n      dup1\n      swap2\n      sub\n      swap1\n      revert\n    tag_54:\n        /* \"contracts/Vote.sol\":1500:1506  voters */\n      0x01\n        /* \"contracts/Vote.sol\":1500:1518  voters[msg.sender] */\n      0x00\n        /* \"contracts/Vote.sol\":1507:1517  msg.sender */\n      caller\n        /* \"contracts/Vote.sol\":1500:1518  voters[msg.sender] */\n      0xffffffffffffffffffffffffffffffffffffffff\n      and\n      0xffffffffffffffffffffffffffffffffffffffff\n      and\n      dup2\n      mstore\n      0x20\n      add\n      swap1\n      dup2\n      mstore\n      0x20\n      add\n      0x00\n      keccak256\n      0x00\n      swap1\n      sload\n      swap1\n      0x0100\n      exp\n      swap1\n      div\n      0xff\n      and\n        /* \"contracts/Vote.sol\":1499:1518  !voters[msg.sender] */\n      iszero\n        /* \"contracts/Vote.sol\":1491:1545  require(!voters[msg.sender], \"You have already voted\") */\n      tag_57\n      jumpi\n      mload(0x40)\n      0x08c379a000000000000000000000000000000000000000000000000000000000\n      dup2\n      mstore\n      0x04\n      add\n      tag_58\n      swap1\n      tag_59\n      jump\t// in\n    tag_58:\n      mload(0x40)\n      dup1\n      swap2\n      sub\n      swap1\n      revert\n    tag_57:\n        /* \"contracts/Vote.sol\":1622:1626  true */\n      0x01\n        /* \"contracts/Vote.sol\":1601:1607  voters */\n      dup1\n        /* \"contracts/Vote.sol\":1601:1619  voters[msg.sender] */\n      0x00\n        /* \"contracts/Vote.sol\":1608:1618  msg.sender */\n      caller\n        /* \"contracts/Vote.sol\":1601:1619  voters[msg.sender] */\n      0xffffffffffffffffffffffffffffffffffffffff\n      and\n      0xffffffffffffffffffffffffffffffffffffffff\n      and\n      dup2\n      mstore\n      0x20\n      add\n      swap1\n      dup2\n      mstore\n      0x20\n      add\n      0x00\n      keccak256\n      0x00\n        /* \"contracts/Vote.sol\":1601:1626  voters[msg.sender] = true */\n      0x0100\n      exp\n      dup2\n      sload\n      dup2\n      0xff\n      mul\n      not\n      and\n      swap1\n      dup4\n      iszero\n      iszero\n      mul\n      or\n      swap1\n      sstore\n      pop\n        /* \"contracts/Vote.sol\":1692:1700  nominees */\n      0x00\n        /* \"contracts/Vote.sol\":1692:1711  nominees[nomineeId] */\n      dup1\n        /* \"contracts/Vote.sol\":1701:1710  nomineeId */\n      dup3\n        /* \"contracts/Vote.sol\":1692:1711  nominees[nomineeId] */\n      dup2\n      mstore\n      0x20\n      add\n      swap1\n      dup2\n      mstore\n      0x20\n      add\n      0x00\n      keccak256\n        /* \"contracts/Vote.sol\":1692:1721  nominees[nomineeId].voteCount */\n      0x03\n      add\n      0x00\n        /* \"contracts/Vote.sol\":1692:1723  nominees[nomineeId].voteCount++ */\n      dup2\n      sload\n      dup1\n      swap3\n      swap2\n      swap1\n      tag_60\n      swap1\n      tag_61\n      jump\t// in\n    tag_60:\n      swap2\n      swap1\n      pop\n      sstore\n      pop\n        /* \"contracts/Vote.sol\":1789:1799  msg.sender */\n      caller\n        /* \"contracts/Vote.sol\":1780:1811  VoteCast(msg.sender, nomineeId) */\n      0xffffffffffffffffffffffffffffffffffffffff\n      and\n      0xa36cc2bebb74db33e9f88110a07ef56e1b31b24b4c4f51b54b1664266e29f45b\n        /* \"contracts/Vote.sol\":1801:1810  nomineeId */\n      dup3\n        /* \"contracts/Vote.sol\":1780:1811  VoteCast(msg.sender, nomineeId) */\n      mload(0x40)\n      tag_62\n      swap2\n      swap1\n      tag_19\n      jump\t// in\n    tag_62:\n      mload(0x40)\n      dup1\n      swap2\n      sub\n      swap1\n      log2\n        /* \"contracts/Vote.sol\":1210:1819  function vote(uint256 nomineeId) public {... */\n      pop\n      jump\t// out\n        /* \"contracts/Vote.sol\":381:407  uint256 public votingBegin */\n    tag_17:\n      sload(0x04)\n      dup2\n      jump\t// out\n        /* \"contracts/Vote.sol\":348:374  uint256 public votingClose */\n    tag_21:\n      sload(0x03)\n      dup2\n      jump\t// out\n        /* \"contracts/Vote.sol\":587:793  function setVotingPeriod(uint256 _votingBegin, uint256 _votingClose) public {... */\n    tag_26:\n        /* \"contracts/Vote.sol\":736:748  _votingBegin */\n      dup2\n        /* \"contracts/Vote.sol\":722:733  votingBegin */\n      0x04\n        /* \"contracts/Vote.sol\":722:748  votingBegin = _votingBegin */\n      dup2\n      swap1\n      sstore\n      pop\n        /* \"contracts/Vote.sol\":773:785  _votingClose */\n      dup1\n        /* \"contracts/Vote.sol\":759:770  votingClose */\n      0x03\n        /* \"contracts/Vote.sol\":759:785  votingClose = _votingClose */\n      dup2\n      swap1\n      sstore\n      pop\n        /* \"contracts/Vote.sol\":587:793  function setVotingPeriod(uint256 _votingBegin, uint256 _votingClose) public {... */\n      pop\n      pop\n      jump\t// out\n        /* \"contracts/Vote.sol\":261:299  mapping(address => bool) public voters */\n    tag_30:\n      mstore(0x20, 0x01)\n      dup1\n      0x00\n      mstore\n      keccak256(0x00, 0x40)\n      0x00\n      swap2\n      pop\n      sload\n      swap1\n      0x0100\n      exp\n      swap1\n      div\n      0xff\n      and\n      dup2\n      jump\t// out\n        /* \"contracts/Vote.sol\":313:341  uint256 public countNominees */\n    tag_34:\n      sload(0x02)\n      dup2\n      jump\t// out\n        /* \"contracts/Vote.sol\":801:1202  function addNominee(string memory _name, string memory _group) ... */\n    tag_39:\n        /* \"contracts/Vote.sol\":890:897  uint256 */\n      0x00\n        /* \"contracts/Vote.sol\":916:929  countNominees */\n      0x02\n      0x00\n        /* \"contracts/Vote.sol\":916:931  countNominees++ */\n      dup2\n      sload\n      dup1\n      swap3\n      swap2\n      swap1\n      tag_65\n      swap1\n      tag_61\n      jump\t// in\n    tag_65:\n      swap2\n      swap1\n      pop\n      sstore\n      pop\n        /* \"contracts/Vote.sol\":968:1103  Nominee({... */\n      mload(0x40)\n      dup1\n      0x80\n      add\n      0x40\n      mstore\n      dup1\n        /* \"contracts/Vote.sol\":995:1008  countNominees */\n      sload(0x02)\n        /* \"contracts/Vote.sol\":968:1103  Nominee({... */\n      dup2\n      mstore\n      0x20\n      add\n        /* \"contracts/Vote.sol\":1029:1034  _name */\n      dup5\n        /* \"contracts/Vote.sol\":968:1103  Nominee({... */\n      dup2\n      mstore\n      0x20\n      add\n        /* \"contracts/Vote.sol\":1057:1063  _group */\n      dup4\n        /* \"contracts/Vote.sol\":968:1103  Nominee({... */\n      dup2\n      mstore\n      0x20\n      add\n        /* \"contracts/Vote.sol\":1089:1090  0 */\n      0x00\n        /* \"contracts/Vote.sol\":968:1103  Nominee({... */\n      dup2\n      mstore\n      pop\n        /* \"contracts/Vote.sol\":942:950  nominees */\n      0x00\n        /* \"contracts/Vote.sol\":942:965  nominees[countNominees] */\n      dup1\n        /* \"contracts/Vote.sol\":951:964  countNominees */\n      sload(0x02)\n        /* \"contracts/Vote.sol\":942:965  nominees[countNominees] */\n      dup2\n      mstore\n      0x20\n      add\n      swap1\n      dup2\n      mstore\n      0x20\n      add\n      0x00\n      keccak256\n        /* \"contracts/Vote.sol\":942:1103  nominees[countNominees] = Nominee({... */\n      0x00\n      dup3\n      add\n      mload\n      dup2\n      0x00\n      add\n      sstore\n      0x20\n      dup3\n      add\n      mload\n      dup2\n      0x01\n      add\n      swap1\n      dup2\n      tag_66\n      swap2\n      swap1\n      tag_67\n      jump\t// in\n    tag_66:\n      pop\n      0x40\n      dup3\n      add\n      mload\n      dup2\n      0x02\n      add\n      swap1\n      dup2\n      tag_68\n      swap2\n      swap1\n      tag_67\n      jump\t// in\n    tag_68:\n      pop\n      0x60\n      dup3\n      add\n      mload\n      dup2\n      0x03\n      add\n      sstore\n      swap1\n      pop\n      pop\n        /* \"contracts/Vote.sol\":1121:1163  NomineeAdded(countNominees, _name, _group) */\n      0x77b4dcb988abb2c1590106152ea1343570a0dc2311b55af21e6a5eb6bd02278a\n        /* \"contracts/Vote.sol\":1134:1147  countNominees */\n      sload(0x02)\n        /* \"contracts/Vote.sol\":1149:1154  _name */\n      dup5\n        /* \"contracts/Vote.sol\":1156:1162  _group */\n      dup5\n        /* \"contracts/Vote.sol\":1121:1163  NomineeAdded(countNominees, _name, _group) */\n      mload(0x40)\n      tag_69\n      swap4\n      swap3\n      swap2\n      swap1\n      tag_70\n      jump\t// in\n    tag_69:\n      mload(0x40)\n      dup1\n      swap2\n      sub\n      swap1\n      log1\n        /* \"contracts/Vote.sol\":1181:1194  countNominees */\n      sload(0x02)\n        /* \"contracts/Vote.sol\":1174:1194  return countNominees */\n      swap1\n      pop\n        /* \"contracts/Vote.sol\":801:1202  function addNominee(string memory _name, string memory _group) ... */\n      swap3\n      swap2\n      pop\n      pop\n      jump\t// out\n        /* \"contracts/Vote.sol\":210:254  mapping (uint256 => Nominee) public nominees */\n    tag_43:\n      mstore(0x20, 0x00)\n      dup1\n      0x00\n      mstore\n      keccak256(0x00, 0x40)\n      0x00\n      swap2\n      pop\n      swap1\n      pop\n      dup1\n      0x00\n      add\n      sload\n      swap1\n      dup1\n      0x01\n      add\n      dup1\n      sload\n      tag_71\n      swap1\n      tag_72\n      jump\t// in\n    tag_71:\n      dup1\n      0x1f\n      add\n      0x20\n      dup1\n      swap2\n      div\n      mul\n      0x20\n      add\n      mload(0x40)\n      swap1\n      dup2\n      add\n      0x40\n      mstore\n      dup1\n      swap3\n      swap2\n      swap1\n      dup2\n      dup2\n      mstore\n      0x20\n      add\n      dup3\n      dup1\n      sload\n      tag_73\n      swap1\n      tag_72\n      jump\t// in\n    tag_73:\n      dup1\n      iszero\n      tag_74\n      jumpi\n      dup1\n      0x1f\n      lt\n      tag_75\n      jumpi\n      0x0100\n      dup1\n      dup4\n      sload\n      div\n      mul\n      dup4\n      mstore\n      swap2\n      0x20\n      add\n      swap2\n      jump(tag_74)\n    tag_75:\n      dup3\n      add\n      swap2\n      swap1\n      0x00\n      mstore\n      keccak256(0x00, 0x20)\n      swap1\n    tag_76:\n      dup2\n      sload\n      dup2\n      mstore\n      swap1\n      0x01\n      add\n      swap1\n      0x20\n      add\n      dup1\n      dup4\n      gt\n      tag_76\n      jumpi\n      dup3\n      swap1\n      sub\n      0x1f\n      and\n      dup3\n      add\n      swap2\n    tag_74:\n      pop\n      pop\n      pop\n      pop\n      pop\n      swap1\n      dup1\n      0x02\n      add\n      dup1\n      sload\n      tag_77\n      swap1\n      tag_72\n      jump\t// in\n    tag_77:\n      dup1\n      0x1f\n      add\n      0x20\n      dup1\n      swap2\n      div\n      mul\n      0x20\n      add\n      mload(0x40)\n      swap1\n      dup2\n      add\n      0x40\n      mstore\n      dup1\n      swap3\n      swap2\n      swap1\n      dup2\n      dup2\n      mstore\n      0x20\n      add\n      dup3\n      dup1\n      sload\n      tag_78\n      swap1\n      tag_72\n      jump\t// in\n    tag_78:\n      dup1\n      iszero\n      tag_79\n      jumpi\n      dup1\n      0x1f\n      lt\n      tag_80\n      jumpi\n      0x0100\n      dup1\n      dup4\n      sload\n      div\n      mul\n      dup4\n      mstore\n      swap2\n      0x20\n      add\n      swap2\n      jump(tag_79)\n    tag_80:\n      dup3\n      add\n      swap2\n      swap1\n      0x00\n      mstore\n      keccak256(0x00, 0x20)\n      swap1\n    tag_81:\n      dup2\n      sload\n      dup2\n      mstore\n      swap1\n      0x01\n      add\n      swap1\n      0x20\n      add\n      dup1\n      dup4\n      gt\n      tag_81\n      jumpi\n      dup3\n      swap1\n      sub\n      0x1f\n      and\n      dup3\n      add\n      swap2\n    tag_79:\n      pop\n      pop\n      pop\n      pop\n      pop\n      swap1\n      dup1\n      0x03\n      add\n      sload\n      swap1\n      pop\n      dup5\n      jump\t// out\n        /* \"#utility.yul\":7:82   */\n    tag_82:\n        /* \"#utility.yul\":40:46   */\n      0x00\n        /* \"#utility.yul\":73:75   */\n      0x40\n        /* \"#utility.yul\":67:76   */\n      mload\n        /* \"#utility.yul\":57:76   */\n      swap1\n      pop\n        /* \"#utility.yul\":7:82   */\n      swap1\n      jump\t// out\n        /* \"#utility.yul\":88:205   */\n    tag_83:\n        /* \"#utility.yul\":197:198   */\n      0x00\n        /* \"#utility.yul\":194:195   */\n      dup1\n        /* \"#utility.yul\":187:199   */\n      revert\n        /* \"#utility.yul\":211:328   */\n    tag_84:\n        /* \"#utility.yul\":320:321   */\n      0x00\n        /* \"#utility.yul\":317:318   */\n      dup1\n        /* \"#utility.yul\":310:322   */\n      revert\n        /* \"#utility.yul\":334:411   */\n    tag_85:\n        /* \"#utility.yul\":371:378   */\n      0x00\n        /* \"#utility.yul\":400:405   */\n      dup2\n        /* \"#utility.yul\":389:405   */\n      swap1\n      pop\n        /* \"#utility.yul\":334:411   */\n      swap2\n      swap1\n      pop\n      jump\t// out\n        /* \"#utility.yul\":417:539   */\n    tag_86:\n        /* \"#utility.yul\":490:514   */\n      tag_140\n        /* \"#utility.yul\":508:513   */\n      dup2\n        /* \"#utility.yul\":490:514   */\n      tag_85\n      jump\t// in\n    tag_140:\n        /* \"#utility.yul\":483:488   */\n      dup2\n        /* \"#utility.yul\":480:515   */\n      eq\n        /* \"#utility.yul\":470:533   */\n      tag_141\n      jumpi\n        /* \"#utility.yul\":529:530   */\n      0x00\n        /* \"#utility.yul\":526:527   */\n      dup1\n        /* \"#utility.yul\":519:531   */\n      revert\n        /* \"#utility.yul\":470:533   */\n    tag_141:\n        /* \"#utility.yul\":417:539   */\n      pop\n      jump\t// out\n        /* \"#utility.yul\":545:684   */\n    tag_87:\n        /* \"#utility.yul\":591:596   */\n      0x00\n        /* \"#utility.yul\":629:635   */\n      dup2\n        /* \"#utility.yul\":616:636   */\n      calldataload\n        /* \"#utility.yul\":607:636   */\n      swap1\n      pop\n        /* \"#utility.yul\":645:678   */\n      tag_143\n        /* \"#utility.yul\":672:677   */\n      dup2\n        /* \"#utility.yul\":645:678   */\n      tag_86\n      jump\t// in\n    tag_143:\n        /* \"#utility.yul\":545:684   */\n      swap3\n      swap2\n      pop\n      pop\n      jump\t// out\n        /* \"#utility.yul\":690:1019   */\n    tag_14:\n        /* \"#utility.yul\":749:755   */\n      0x00\n        /* \"#utility.yul\":798:800   */\n      0x20\n        /* \"#utility.yul\":786:795   */\n      dup3\n        /* \"#utility.yul\":777:784   */\n      dup5\n        /* \"#utility.yul\":773:796   */\n      sub\n        /* \"#utility.yul\":769:801   */\n      slt\n        /* \"#utility.yul\":766:885   */\n      iszero\n      tag_145\n      jumpi\n        /* \"#utility.yul\":804:883   */\n      tag_146\n      tag_83\n      jump\t// in\n    tag_146:\n        /* \"#utility.yul\":766:885   */\n    tag_145:\n        /* \"#utility.yul\":924:925   */\n      0x00\n        /* \"#utility.yul\":949:1002   */\n      tag_147\n        /* \"#utility.yul\":994:1001   */\n      dup5\n        /* \"#utility.yul\":985:991   */\n      dup3\n        /* \"#utility.yul\":974:983   */\n      dup6\n        /* \"#utility.yul\":970:992   */\n      add\n        /* \"#utility.yul\":949:1002   */\n      tag_87\n      jump\t// in\n    tag_147:\n        /* \"#utility.yul\":939:1002   */\n      swap2\n      pop\n        /* \"#utility.yul\":895:1012   */\n      pop\n        /* \"#utility.yul\":690:1019   */\n      swap3\n      swap2\n      pop\n      pop\n      jump\t// out\n        /* \"#utility.yul\":1025:1143   */\n    tag_88:\n        /* \"#utility.yul\":1112:1136   */\n      tag_149\n        /* \"#utility.yul\":1130:1135   */\n      dup2\n        /* \"#utility.yul\":1112:1136   */\n      tag_85\n      jump\t// in\n    tag_149:\n        /* \"#utility.yul\":1107:1110   */\n      dup3\n        /* \"#utility.yul\":1100:1137   */\n      mstore\n        /* \"#utility.yul\":1025:1143   */\n      pop\n      pop\n      jump\t// out\n        /* \"#utility.yul\":1149:1371   */\n    tag_19:\n        /* \"#utility.yul\":1242:1246   */\n      0x00\n        /* \"#utility.yul\":1280:1282   */\n      0x20\n        /* \"#utility.yul\":1269:1278   */\n      dup3\n        /* \"#utility.yul\":1265:1283   */\n      add\n        /* \"#utility.yul\":1257:1283   */\n      swap1\n      pop\n        /* \"#utility.yul\":1293:1364   */\n      tag_151\n        /* \"#utility.yul\":1361:1362   */\n      0x00\n        /* \"#utility.yul\":1350:1359   */\n      dup4\n        /* \"#utility.yul\":1346:1363   */\n      add\n        /* \"#utility.yul\":1337:1343   */\n      dup5\n        /* \"#utility.yul\":1293:1364   */\n      tag_88\n      jump\t// in\n    tag_151:\n        /* \"#utility.yul\":1149:1371   */\n      swap3\n      swap2\n      pop\n      pop\n      jump\t// out\n        /* \"#utility.yul\":1377:1851   */\n    tag_25:\n        /* \"#utility.yul\":1445:1451   */\n      0x00\n        /* \"#utility.yul\":1453:1459   */\n      dup1\n        /* \"#utility.yul\":1502:1504   */\n      0x40\n        /* \"#utility.yul\":1490:1499   */\n      dup4\n        /* \"#utility.yul\":1481:1488   */\n      dup6\n        /* \"#utility.yul\":1477:1500   */\n      sub\n        /* \"#utility.yul\":1473:1505   */\n      slt\n        /* \"#utility.yul\":1470:1589   */\n      iszero\n      tag_153\n      jumpi\n        /* \"#utility.yul\":1508:1587   */\n      tag_154\n      tag_83\n      jump\t// in\n    tag_154:\n        /* \"#utility.yul\":1470:1589   */\n    tag_153:\n        /* \"#utility.yul\":1628:1629   */\n      0x00\n        /* \"#utility.yul\":1653:1706   */\n      tag_155\n        /* \"#utility.yul\":1698:1705   */\n      dup6\n        /* \"#utility.yul\":1689:1695   */\n      dup3\n        /* \"#utility.yul\":1678:1687   */\n      dup7\n        /* \"#utility.yul\":1674:1696   */\n      add\n        /* \"#utility.yul\":1653:1706   */\n      tag_87\n      jump\t// in\n    tag_155:\n        /* \"#utility.yul\":1643:1706   */\n      swap3\n      pop\n        /* \"#utility.yul\":1599:1716   */\n      pop\n        /* \"#utility.yul\":1755:1757   */\n      0x20\n        /* \"#utility.yul\":1781:1834   */\n      tag_156\n        /* \"#utility.yul\":1826:1833   */\n      dup6\n        /* \"#utility.yul\":1817:1823   */\n      dup3\n        /* \"#utility.yul\":1806:1815   */\n      dup7\n        /* \"#utility.yul\":1802:1824   */\n      add\n        /* \"#utility.yul\":1781:1834   */\n      tag_87\n      jump\t// in\n    tag_156:\n        /* \"#utility.yul\":1771:1834   */\n      swap2\n      pop\n        /* \"#utility.yul\":1726:1844   */\n      pop\n        /* \"#utility.yul\":1377:1851   */\n      swap3\n      pop\n      swap3\n      swap1\n      pop\n      jump\t// out\n        /* \"#utility.yul\":1857:1983   */\n    tag_89:\n        /* \"#utility.yul\":1894:1901   */\n      0x00\n        /* \"#utility.yul\":1934:1976   */\n      0xffffffffffffffffffffffffffffffffffffffff\n        /* \"#utility.yul\":1927:1932   */\n      dup3\n        /* \"#utility.yul\":1923:1977   */\n      and\n        /* \"#utility.yul\":1912:1977   */\n      swap1\n      pop\n        /* \"#utility.yul\":1857:1983   */\n      swap2\n      swap1\n      pop\n      jump\t// out\n        /* \"#utility.yul\":1989:2085   */\n    tag_90:\n        /* \"#utility.yul\":2026:2033   */\n      0x00\n        /* \"#utility.yul\":2055:2079   */\n      tag_159\n        /* \"#utility.yul\":2073:2078   */\n      dup3\n        /* \"#utility.yul\":2055:2079   */\n      tag_89\n      jump\t// in\n    tag_159:\n        /* \"#utility.yul\":2044:2079   */\n      swap1\n      pop\n        /* \"#utility.yul\":1989:2085   */\n      swap2\n      swap1\n      pop\n      jump\t// out\n        /* \"#utility.yul\":2091:2213   */\n    tag_91:\n        /* \"#utility.yul\":2164:2188   */\n      tag_161\n        /* \"#utility.yul\":2182:2187   */\n      dup2\n        /* \"#utility.yul\":2164:2188   */\n      tag_90\n      jump\t// in\n    tag_161:\n        /* \"#utility.yul\":2157:2162   */\n      dup2\n        /* \"#utility.yul\":2154:2189   */\n      eq\n        /* \"#utility.yul\":2144:2207   */\n      tag_162\n      jumpi\n        /* \"#utility.yul\":2203:2204   */\n      0x00\n        /* \"#utility.yul\":2200:2201   */\n      dup1\n        /* \"#utility.yul\":2193:2205   */\n      revert\n        /* \"#utility.yul\":2144:2207   */\n    tag_162:\n        /* \"#utility.yul\":2091:2213   */\n      pop\n      jump\t// out\n        /* \"#utility.yul\":2219:2358   */\n    tag_92:\n        /* \"#utility.yul\":2265:2270   */\n      0x00\n        /* \"#utility.yul\":2303:2309   */\n      dup2\n        /* \"#utility.yul\":2290:2310   */\n      calldataload\n        /* \"#utility.yul\":2281:2310   */\n      swap1\n      pop\n        /* \"#utility.yul\":2319:2352   */\n      tag_164\n        /* \"#utility.yul\":2346:2351   */\n      dup2\n        /* \"#utility.yul\":2319:2352   */\n      tag_91\n      jump\t// in\n    tag_164:\n        /* \"#utility.yul\":2219:2358   */\n      swap3\n      swap2\n      pop\n      pop\n      jump\t// out\n        /* \"#utility.yul\":2364:2693   */\n    tag_29:\n        /* \"#utility.yul\":2423:2429   */\n      0x00\n        /* \"#utility.yul\":2472:2474   */\n      0x20\n        /* \"#utility.yul\":2460:2469   */\n      dup3\n        /* \"#utility.yul\":2451:2458   */\n      dup5\n        /* \"#utility.yul\":2447:2470   */\n      sub\n        /* \"#utility.yul\":2443:2475   */\n      slt\n        /* \"#utility.yul\":2440:2559   */\n      iszero\n      tag_166\n      jumpi\n        /* \"#utility.yul\":2478:2557   */\n      tag_167\n      tag_83\n      jump\t// in\n    tag_167:\n        /* \"#utility.yul\":2440:2559   */\n    tag_166:\n        /* \"#utility.yul\":2598:2599   */\n      0x00\n        /* \"#utility.yul\":2623:2676   */\n      tag_168\n        /* \"#utility.yul\":2668:2675   */\n      dup5\n        /* \"#utility.yul\":2659:2665   */\n      dup3\n        /* \"#utility.yul\":2648:2657   */\n      dup6\n        /* \"#utility.yul\":2644:2666   */\n      add\n        /* \"#utility.yul\":2623:2676   */\n      tag_92\n      jump\t// in\n    tag_168:\n        /* \"#utility.yul\":2613:2676   */\n      swap2\n      pop\n        /* \"#utility.yul\":2569:2686   */\n      pop\n        /* \"#utility.yul\":2364:2693   */\n      swap3\n      swap2\n      pop\n      pop\n      jump\t// out\n        /* \"#utility.yul\":2699:2789   */\n    tag_93:\n        /* \"#utility.yul\":2733:2740   */\n      0x00\n        /* \"#utility.yul\":2776:2781   */\n      dup2\n        /* \"#utility.yul\":2769:2782   */\n      iszero\n        /* \"#utility.yul\":2762:2783   */\n      iszero\n        /* \"#utility.yul\":2751:2783   */\n      swap1\n      pop\n        /* \"#utility.yul\":2699:2789   */\n      swap2\n      swap1\n      pop\n      jump\t// out\n        /* \"#utility.yul\":2795:2904   */\n    tag_94:\n        /* \"#utility.yul\":2876:2897   */\n      tag_171\n        /* \"#utility.yul\":2891:2896   */\n      dup2\n        /* \"#utility.yul\":2876:2897   */\n      tag_93\n      jump\t// in\n    tag_171:\n        /* \"#utility.yul\":2871:2874   */\n      dup3\n        /* \"#utility.yul\":2864:2898   */\n      mstore\n        /* \"#utility.yul\":2795:2904   */\n      pop\n      pop\n      jump\t// out\n        /* \"#utility.yul\":2910:3120   */\n    tag_32:\n        /* \"#utility.yul\":2997:3001   */\n      0x00\n        /* \"#utility.yul\":3035:3037   */\n      0x20\n        /* \"#utility.yul\":3024:3033   */\n      dup3\n        /* \"#utility.yul\":3020:3038   */\n      add\n        /* \"#utility.yul\":3012:3038   */\n      swap1\n      pop\n        /* \"#utility.yul\":3048:3113   */\n      tag_173\n        /* \"#utility.yul\":3110:3111   */\n      0x00\n        /* \"#utility.yul\":3099:3108   */\n      dup4\n        /* \"#utility.yul\":3095:3112   */\n      add\n        /* \"#utility.yul\":3086:3092   */\n      dup5\n        /* \"#utility.yul\":3048:3113   */\n      tag_94\n      jump\t// in\n    tag_173:\n        /* \"#utility.yul\":2910:3120   */\n      swap3\n      swap2\n      pop\n      pop\n      jump\t// out\n        /* \"#utility.yul\":3126:3243   */\n    tag_95:\n        /* \"#utility.yul\":3235:3236   */\n      0x00\n        /* \"#utility.yul\":3232:3233   */\n      dup1\n        /* \"#utility.yul\":3225:3237   */\n      revert\n        /* \"#utility.yul\":3249:3366   */\n    tag_96:\n        /* \"#utility.yul\":3358:3359   */\n      0x00\n        /* \"#utility.yul\":3355:3356   */\n      dup1\n        /* \"#utility.yul\":3348:3360   */\n      revert\n        /* \"#utility.yul\":3372:3474   */\n    tag_97:\n        /* \"#utility.yul\":3413:3419   */\n      0x00\n        /* \"#utility.yul\":3464:3466   */\n      0x1f\n        /* \"#utility.yul\":3460:3467   */\n      not\n        /* \"#utility.yul\":3455:3457   */\n      0x1f\n        /* \"#utility.yul\":3448:3453   */\n      dup4\n        /* \"#utility.yul\":3444:3458   */\n      add\n        /* \"#utility.yul\":3440:3468   */\n      and\n        /* \"#utility.yul\":3430:3468   */\n      swap1\n      pop\n        /* \"#utility.yul\":3372:3474   */\n      swap2\n      swap1\n      pop\n      jump\t// out\n        /* \"#utility.yul\":3480:3660   */\n    tag_98:\n        /* \"#utility.yul\":3528:3605   */\n      0x4e487b7100000000000000000000000000000000000000000000000000000000\n        /* \"#utility.yul\":3525:3526   */\n      0x00\n        /* \"#utility.yul\":3518:3606   */\n      mstore\n        /* \"#utility.yul\":3625:3629   */\n      0x41\n        /* \"#utility.yul\":3622:3623   */\n      0x04\n        /* \"#utility.yul\":3615:3630   */\n      mstore\n        /* \"#utility.yul\":3649:3653   */\n      0x24\n        /* \"#utility.yul\":3646:3647   */\n      0x00\n        /* \"#utility.yul\":3639:3654   */\n      revert\n        /* \"#utility.yul\":3666:3947   */\n    tag_99:\n        /* \"#utility.yul\":3749:3776   */\n      tag_179\n        /* \"#utility.yul\":3771:3775   */\n      dup3\n        /* \"#utility.yul\":3749:3776   */\n      tag_97\n      jump\t// in\n    tag_179:\n        /* \"#utility.yul\":3741:3747   */\n      dup2\n        /* \"#utility.yul\":3737:3777   */\n      add\n        /* \"#utility.yul\":3879:3885   */\n      dup2\n        /* \"#utility.yul\":3867:3877   */\n      dup2\n        /* \"#utility.yul\":3864:3886   */\n      lt\n        /* \"#utility.yul\":3843:3861   */\n      0xffffffffffffffff\n        /* \"#utility.yul\":3831:3841   */\n      dup3\n        /* \"#utility.yul\":3828:3862   */\n      gt\n        /* \"#utility.yul\":3825:3887   */\n      or\n        /* \"#utility.yul\":3822:3910   */\n      iszero\n      tag_180\n      jumpi\n        /* \"#utility.yul\":3890:3908   */\n      tag_181\n      tag_98\n      jump\t// in\n    tag_181:\n        /* \"#utility.yul\":3822:3910   */\n    tag_180:\n        /* \"#utility.yul\":3930:3940   */\n      dup1\n        /* \"#utility.yul\":3926:3928   */\n      0x40\n        /* \"#utility.yul\":3919:3941   */\n      mstore\n        /* \"#utility.yul\":3709:3947   */\n      pop\n        /* \"#utility.yul\":3666:3947   */\n      pop\n      pop\n      jump\t// out\n        /* \"#utility.yul\":3953:4082   */\n    tag_100:\n        /* \"#utility.yul\":3987:3993   */\n      0x00\n        /* \"#utility.yul\":4014:4034   */\n      tag_183\n      tag_82\n      jump\t// in\n    tag_183:\n        /* \"#utility.yul\":4004:4034   */\n      swap1\n      pop\n        /* \"#utility.yul\":4043:4076   */\n      tag_184\n        /* \"#utility.yul\":4071:4075   */\n      dup3\n        /* \"#utility.yul\":4063:4069   */\n      dup3\n        /* \"#utility.yul\":4043:4076   */\n      tag_99\n      jump\t// in\n    tag_184:\n        /* \"#utility.yul\":3953:4082   */\n      swap2\n      swap1\n      pop\n      jump\t// out\n        /* \"#utility.yul\":4088:4396   */\n    tag_101:\n        /* \"#utility.yul\":4150:4154   */\n      0x00\n        /* \"#utility.yul\":4240:4258   */\n      0xffffffffffffffff\n        /* \"#utility.yul\":4232:4238   */\n      dup3\n        /* \"#utility.yul\":4229:4259   */\n      gt\n        /* \"#utility.yul\":4226:4282   */\n      iszero\n      tag_186\n      jumpi\n        /* \"#utility.yul\":4262:4280   */\n      tag_187\n      tag_98\n      jump\t// in\n    tag_187:\n        /* \"#utility.yul\":4226:4282   */\n    tag_186:\n        /* \"#utility.yul\":4300:4329   */\n      tag_188\n        /* \"#utility.yul\":4322:4328   */\n      dup3\n        /* \"#utility.yul\":4300:4329   */\n      tag_97\n      jump\t// in\n    tag_188:\n        /* \"#utility.yul\":4292:4329   */\n      swap1\n      pop\n        /* \"#utility.yul\":4384:4388   */\n      0x20\n        /* \"#utility.yul\":4378:4382   */\n      dup2\n        /* \"#utility.yul\":4374:4389   */\n      add\n        /* \"#utility.yul\":4366:4389   */\n      swap1\n      pop\n        /* \"#utility.yul\":4088:4396   */\n      swap2\n      swap1\n      pop\n      jump\t// out\n        /* \"#utility.yul\":4402:4550   */\n    tag_102:\n        /* \"#utility.yul\":4500:4506   */\n      dup3\n        /* \"#utility.yul\":4495:4498   */\n      dup2\n        /* \"#utility.yul\":4490:4493   */\n      dup4\n        /* \"#utility.yul\":4477:4507   */\n      calldatacopy\n        /* \"#utility.yul\":4541:4542   */\n      0x00\n        /* \"#utility.yul\":4532:4538   */\n      dup4\n        /* \"#utility.yul\":4527:4530   */\n      dup4\n        /* \"#utility.yul\":4523:4539   */\n      add\n        /* \"#utility.yul\":4516:4543   */\n      mstore\n        /* \"#utility.yul\":4402:4550   */\n      pop\n      pop\n      pop\n      jump\t// out\n        /* \"#utility.yul\":4556:4981   */\n    tag_103:\n        /* \"#utility.yul\":4634:4639   */\n      0x00\n        /* \"#utility.yul\":4659:4725   */\n      tag_191\n        /* \"#utility.yul\":4675:4724   */\n      tag_192\n        /* \"#utility.yul\":4717:4723   */\n      dup5\n        /* \"#utility.yul\":4675:4724   */\n      tag_101\n      jump\t// in\n    tag_192:\n        /* \"#utility.yul\":4659:4725   */\n      tag_100\n      jump\t// in\n    tag_191:\n        /* \"#utility.yul\":4650:4725   */\n      swap1\n      pop\n        /* \"#utility.yul\":4748:4754   */\n      dup3\n        /* \"#utility.yul\":4741:4746   */\n      dup2\n        /* \"#utility.yul\":4734:4755   */\n      mstore\n        /* \"#utility.yul\":4786:4790   */\n      0x20\n        /* \"#utility.yul\":4779:4784   */\n      dup2\n        /* \"#utility.yul\":4775:4791   */\n      add\n        /* \"#utility.yul\":4824:4827   */\n      dup5\n        /* \"#utility.yul\":4815:4821   */\n      dup5\n        /* \"#utility.yul\":4810:4813   */\n      dup5\n        /* \"#utility.yul\":4806:4822   */\n      add\n        /* \"#utility.yul\":4803:4828   */\n      gt\n        /* \"#utility.yul\":4800:4912   */\n      iszero\n      tag_193\n      jumpi\n        /* \"#utility.yul\":4831:4910   */\n      tag_194\n      tag_96\n      jump\t// in\n    tag_194:\n        /* \"#utility.yul\":4800:4912   */\n    tag_193:\n        /* \"#utility.yul\":4921:4975   */\n      tag_195\n        /* \"#utility.yul\":4968:4974   */\n      dup5\n        /* \"#utility.yul\":4963:4966   */\n      dup3\n        /* \"#utility.yul\":4958:4961   */\n      dup6\n        /* \"#utility.yul\":4921:4975   */\n      tag_102\n      jump\t// in\n    tag_195:\n        /* \"#utility.yul\":4640:4981   */\n      pop\n        /* \"#utility.yul\":4556:4981   */\n      swap4\n      swap3\n      pop\n      pop\n      pop\n      jump\t// out\n        /* \"#utility.yul\":5001:5341   */\n    tag_104:\n        /* \"#utility.yul\":5057:5062   */\n      0x00\n        /* \"#utility.yul\":5106:5109   */\n      dup3\n        /* \"#utility.yul\":5099:5103   */\n      0x1f\n        /* \"#utility.yul\":5091:5097   */\n      dup4\n        /* \"#utility.yul\":5087:5104   */\n      add\n        /* \"#utility.yul\":5083:5110   */\n      slt\n        /* \"#utility.yul\":5073:5195   */\n      tag_197\n      jumpi\n        /* \"#utility.yul\":5114:5193   */\n      tag_198\n      tag_95\n      jump\t// in\n    tag_198:\n        /* \"#utility.yul\":5073:5195   */\n    tag_197:\n        /* \"#utility.yul\":5231:5237   */\n      dup2\n        /* \"#utility.yul\":5218:5238   */\n      calldataload\n        /* \"#utility.yul\":5256:5335   */\n      tag_199\n        /* \"#utility.yul\":5331:5334   */\n      dup5\n        /* \"#utility.yul\":5323:5329   */\n      dup3\n        /* \"#utility.yul\":5316:5320   */\n      0x20\n        /* \"#utility.yul\":5308:5314   */\n      dup7\n        /* \"#utility.yul\":5304:5321   */\n      add\n        /* \"#utility.yul\":5256:5335   */\n      tag_103\n      jump\t// in\n    tag_199:\n        /* \"#utility.yul\":5247:5335   */\n      swap2\n      pop\n        /* \"#utility.yul\":5063:5341   */\n      pop\n        /* \"#utility.yul\":5001:5341   */\n      swap3\n      swap2\n      pop\n      pop\n      jump\t// out\n        /* \"#utility.yul\":5347:6181   */\n    tag_38:\n        /* \"#utility.yul\":5435:5441   */\n      0x00\n        /* \"#utility.yul\":5443:5449   */\n      dup1\n        /* \"#utility.yul\":5492:5494   */\n      0x40\n        /* \"#utility.yul\":5480:5489   */\n      dup4\n        /* \"#utility.yul\":5471:5478   */\n      dup6\n        /* \"#utility.yul\":5467:5490   */\n      sub\n        /* \"#utility.yul\":5463:5495   */\n      slt\n        /* \"#utility.yul\":5460:5579   */\n      iszero\n      tag_201\n      jumpi\n        /* \"#utility.yul\":5498:5577   */\n      tag_202\n      tag_83\n      jump\t// in\n    tag_202:\n        /* \"#utility.yul\":5460:5579   */\n    tag_201:\n        /* \"#utility.yul\":5646:5647   */\n      0x00\n        /* \"#utility.yul\":5635:5644   */\n      dup4\n        /* \"#utility.yul\":5631:5648   */\n      add\n        /* \"#utility.yul\":5618:5649   */\n      calldataload\n        /* \"#utility.yul\":5676:5694   */\n      0xffffffffffffffff\n        /* \"#utility.yul\":5668:5674   */\n      dup2\n        /* \"#utility.yul\":5665:5695   */\n      gt\n        /* \"#utility.yul\":5662:5779   */\n      iszero\n      tag_203\n      jumpi\n        /* \"#utility.yul\":5698:5777   */\n      tag_204\n      tag_84\n      jump\t// in\n    tag_204:\n        /* \"#utility.yul\":5662:5779   */\n    tag_203:\n        /* \"#utility.yul\":5803:5866   */\n      tag_205\n        /* \"#utility.yul\":5858:5865   */\n      dup6\n        /* \"#utility.yul\":5849:5855   */\n      dup3\n        /* \"#utility.yul\":5838:5847   */\n      dup7\n        /* \"#utility.yul\":5834:5856   */\n      add\n        /* \"#utility.yul\":5803:5866   */\n      tag_104\n      jump\t// in\n    tag_205:\n        /* \"#utility.yul\":5793:5866   */\n      swap3\n      pop\n        /* \"#utility.yul\":5589:5876   */\n      pop\n        /* \"#utility.yul\":5943:5945   */\n      0x20\n        /* \"#utility.yul\":5932:5941   */\n      dup4\n        /* \"#utility.yul\":5928:5946   */\n      add\n        /* \"#utility.yul\":5915:5947   */\n      calldataload\n        /* \"#utility.yul\":5974:5992   */\n      0xffffffffffffffff\n        /* \"#utility.yul\":5966:5972   */\n      dup2\n        /* \"#utility.yul\":5963:5993   */\n      gt\n        /* \"#utility.yul\":5960:6077   */\n      iszero\n      tag_206\n      jumpi\n        /* \"#utility.yul\":5996:6075   */\n      tag_207\n      tag_84\n      jump\t// in\n    tag_207:\n        /* \"#utility.yul\":5960:6077   */\n    tag_206:\n        /* \"#utility.yul\":6101:6164   */\n      tag_208\n        /* \"#utility.yul\":6156:6163   */\n      dup6\n        /* \"#utility.yul\":6147:6153   */\n      dup3\n        /* \"#utility.yul\":6136:6145   */\n      dup7\n        /* \"#utility.yul\":6132:6154   */\n      add\n        /* \"#utility.yul\":6101:6164   */\n      tag_104\n      jump\t// in\n    tag_208:\n        /* \"#utility.yul\":6091:6164   */\n      swap2\n      pop\n        /* \"#utility.yul\":5886:6174   */\n      pop\n        /* \"#utility.yul\":5347:6181   */\n      swap3\n      pop\n      swap3\n      swap1\n      pop\n      jump\t// out\n        /* \"#utility.yul\":6187:6286   */\n    tag_105:\n        /* \"#utility.yul\":6239:6245   */\n      0x00\n        /* \"#utility.yul\":6273:6278   */\n      dup2\n        /* \"#utility.yul\":6267:6279   */\n      mload\n        /* \"#utility.yul\":6257:6279   */\n      swap1\n      pop\n        /* \"#utility.yul\":6187:6286   */\n      swap2\n      swap1\n      pop\n      jump\t// out\n        /* \"#utility.yul\":6292:6461   */\n    tag_106:\n        /* \"#utility.yul\":6376:6387   */\n      0x00\n        /* \"#utility.yul\":6410:6416   */\n      dup3\n        /* \"#utility.yul\":6405:6408   */\n      dup3\n        /* \"#utility.yul\":6398:6417   */\n      mstore\n        /* \"#utility.yul\":6450:6454   */\n      0x20\n        /* \"#utility.yul\":6445:6448   */\n      dup3\n        /* \"#utility.yul\":6441:6455   */\n      add\n        /* \"#utility.yul\":6426:6455   */\n      swap1\n      pop\n        /* \"#utility.yul\":6292:6461   */\n      swap3\n      swap2\n      pop\n      pop\n      jump\t// out\n        /* \"#utility.yul\":6467:6606   */\n    tag_107:\n        /* \"#utility.yul\":6556:6562   */\n      dup3\n        /* \"#utility.yul\":6551:6554   */\n      dup2\n        /* \"#utility.yul\":6546:6549   */\n      dup4\n        /* \"#utility.yul\":6540:6563   */\n      mcopy\n        /* \"#utility.yul\":6597:6598   */\n      0x00\n        /* \"#utility.yul\":6588:6594   */\n      dup4\n        /* \"#utility.yul\":6583:6586   */\n      dup4\n        /* \"#utility.yul\":6579:6595   */\n      add\n        /* \"#utility.yul\":6572:6599   */\n      mstore\n        /* \"#utility.yul\":6467:6606   */\n      pop\n      pop\n      pop\n      jump\t// out\n        /* \"#utility.yul\":6612:6989   */\n    tag_108:\n        /* \"#utility.yul\":6700:6703   */\n      0x00\n        /* \"#utility.yul\":6728:6767   */\n      tag_213\n        /* \"#utility.yul\":6761:6766   */\n      dup3\n        /* \"#utility.yul\":6728:6767   */\n      tag_105\n      jump\t// in\n    tag_213:\n        /* \"#utility.yul\":6783:6854   */\n      tag_214\n        /* \"#utility.yul\":6847:6853   */\n      dup2\n        /* \"#utility.yul\":6842:6845   */\n      dup6\n        /* \"#utility.yul\":6783:6854   */\n      tag_106\n      jump\t// in\n    tag_214:\n        /* \"#utility.yul\":6776:6854   */\n      swap4\n      pop\n        /* \"#utility.yul\":6863:6928   */\n      tag_215\n        /* \"#utility.yul\":6921:6927   */\n      dup2\n        /* \"#utility.yul\":6916:6919   */\n      dup6\n        /* \"#utility.yul\":6909:6913   */\n      0x20\n        /* \"#utility.yul\":6902:6907   */\n      dup7\n        /* \"#utility.yul\":6898:6914   */\n      add\n        /* \"#utility.yul\":6863:6928   */\n      tag_107\n      jump\t// in\n    tag_215:\n        /* \"#utility.yul\":6953:6982   */\n      tag_216\n        /* \"#utility.yul\":6975:6981   */\n      dup2\n        /* \"#utility.yul\":6953:6982   */\n      tag_97\n      jump\t// in\n    tag_216:\n        /* \"#utility.yul\":6948:6951   */\n      dup5\n        /* \"#utility.yul\":6944:6983   */\n      add\n        /* \"#utility.yul\":6937:6983   */\n      swap2\n      pop\n        /* \"#utility.yul\":6704:6989   */\n      pop\n        /* \"#utility.yul\":6612:6989   */\n      swap3\n      swap2\n      pop\n      pop\n      jump\t// out\n        /* \"#utility.yul\":6995:7730   */\n    tag_45:\n        /* \"#utility.yul\":7212:7216   */\n      0x00\n        /* \"#utility.yul\":7250:7253   */\n      0x80\n        /* \"#utility.yul\":7239:7248   */\n      dup3\n        /* \"#utility.yul\":7235:7254   */\n      add\n        /* \"#utility.yul\":7227:7254   */\n      swap1\n      pop\n        /* \"#utility.yul\":7264:7335   */\n      tag_218\n        /* \"#utility.yul\":7332:7333   */\n      0x00\n        /* \"#utility.yul\":7321:7330   */\n      dup4\n        /* \"#utility.yul\":7317:7334   */\n      add\n        /* \"#utility.yul\":7308:7314   */\n      dup8\n        /* \"#utility.yul\":7264:7335   */\n      tag_88\n      jump\t// in\n    tag_218:\n        /* \"#utility.yul\":7382:7391   */\n      dup2\n        /* \"#utility.yul\":7376:7380   */\n      dup2\n        /* \"#utility.yul\":7372:7392   */\n      sub\n        /* \"#utility.yul\":7367:7369   */\n      0x20\n        /* \"#utility.yul\":7356:7365   */\n      dup4\n        /* \"#utility.yul\":7352:7370   */\n      add\n        /* \"#utility.yul\":7345:7393   */\n      mstore\n        /* \"#utility.yul\":7410:7488   */\n      tag_219\n        /* \"#utility.yul\":7483:7487   */\n      dup2\n        /* \"#utility.yul\":7474:7480   */\n      dup7\n        /* \"#utility.yul\":7410:7488   */\n      tag_108\n      jump\t// in\n    tag_219:\n        /* \"#utility.yul\":7402:7488   */\n      swap1\n      pop\n        /* \"#utility.yul\":7535:7544   */\n      dup2\n        /* \"#utility.yul\":7529:7533   */\n      dup2\n        /* \"#utility.yul\":7525:7545   */\n      sub\n        /* \"#utility.yul\":7520:7522   */\n      0x40\n        /* \"#utility.yul\":7509:7518   */\n      dup4\n        /* \"#utility.yul\":7505:7523   */\n      add\n        /* \"#utility.yul\":7498:7546   */\n      mstore\n        /* \"#utility.yul\":7563:7641   */\n      tag_220\n        /* \"#utility.yul\":7636:7640   */\n      dup2\n        /* \"#utility.yul\":7627:7633   */\n      dup6\n        /* \"#utility.yul\":7563:7641   */\n      tag_108\n      jump\t// in\n    tag_220:\n        /* \"#utility.yul\":7555:7641   */\n      swap1\n      pop\n        /* \"#utility.yul\":7651:7723   */\n      tag_221\n        /* \"#utility.yul\":7719:7721   */\n      0x60\n        /* \"#utility.yul\":7708:7717   */\n      dup4\n        /* \"#utility.yul\":7704:7722   */\n      add\n        /* \"#utility.yul\":7695:7701   */\n      dup5\n        /* \"#utility.yul\":7651:7723   */\n      tag_88\n      jump\t// in\n    tag_221:\n        /* \"#utility.yul\":6995:7730   */\n      swap6\n      swap5\n      pop\n      pop\n      pop\n      pop\n      pop\n      jump\t// out\n        /* \"#utility.yul\":7736:7912   */\n    tag_109:\n        /* \"#utility.yul\":7876:7904   */\n      0x566f74696e6720686173206e6f74207374617274656420796574000000000000\n        /* \"#utility.yul\":7872:7873   */\n      0x00\n        /* \"#utility.yul\":7864:7870   */\n      dup3\n        /* \"#utility.yul\":7860:7874   */\n      add\n        /* \"#utility.yul\":7853:7905   */\n      mstore\n        /* \"#utility.yul\":7736:7912   */\n      pop\n      jump\t// out\n        /* \"#utility.yul\":7918:8284   */\n    tag_110:\n        /* \"#utility.yul\":8060:8063   */\n      0x00\n        /* \"#utility.yul\":8081:8148   */\n      tag_224\n        /* \"#utility.yul\":8145:8147   */\n      0x1a\n        /* \"#utility.yul\":8140:8143   */\n      dup4\n        /* \"#utility.yul\":8081:8148   */\n      tag_106\n      jump\t// in\n    tag_224:\n        /* \"#utility.yul\":8074:8148   */\n      swap2\n      pop\n        /* \"#utility.yul\":8157:8250   */\n      tag_225\n        /* \"#utility.yul\":8246:8249   */\n      dup3\n        /* \"#utility.yul\":8157:8250   */\n      tag_109\n      jump\t// in\n    tag_225:\n        /* \"#utility.yul\":8275:8277   */\n      0x20\n        /* \"#utility.yul\":8270:8273   */\n      dup3\n        /* \"#utility.yul\":8266:8278   */\n      add\n        /* \"#utility.yul\":8259:8278   */\n      swap1\n      pop\n        /* \"#utility.yul\":7918:8284   */\n      swap2\n      swap1\n      pop\n      jump\t// out\n        /* \"#utility.yul\":8290:8709   */\n    tag_49:\n        /* \"#utility.yul\":8456:8460   */\n      0x00\n        /* \"#utility.yul\":8494:8496   */\n      0x20\n        /* \"#utility.yul\":8483:8492   */\n      dup3\n        /* \"#utility.yul\":8479:8497   */\n      add\n        /* \"#utility.yul\":8471:8497   */\n      swap1\n      pop\n        /* \"#utility.yul\":8543:8552   */\n      dup2\n        /* \"#utility.yul\":8537:8541   */\n      dup2\n        /* \"#utility.yul\":8533:8553   */\n      sub\n        /* \"#utility.yul\":8529:8530   */\n      0x00\n        /* \"#utility.yul\":8518:8527   */\n      dup4\n        /* \"#utility.yul\":8514:8531   */\n      add\n        /* \"#utility.yul\":8507:8554   */\n      mstore\n        /* \"#utility.yul\":8571:8702   */\n      tag_227\n        /* \"#utility.yul\":8697:8701   */\n      dup2\n        /* \"#utility.yul\":8571:8702   */\n      tag_110\n      jump\t// in\n    tag_227:\n        /* \"#utility.yul\":8563:8702   */\n      swap1\n      pop\n        /* \"#utility.yul\":8290:8709   */\n      swap2\n      swap1\n      pop\n      jump\t// out\n        /* \"#utility.yul\":8715:8876   */\n    tag_111:\n        /* \"#utility.yul\":8855:8868   */\n      0x566f746520436c6f736564000000000000000000000000000000000000000000\n        /* \"#utility.yul\":8851:8852   */\n      0x00\n        /* \"#utility.yul\":8843:8849   */\n      dup3\n        /* \"#utility.yul\":8839:8853   */\n      add\n        /* \"#utility.yul\":8832:8869   */\n      mstore\n        /* \"#utility.yul\":8715:8876   */\n      pop\n      jump\t// out\n        /* \"#utility.yul\":8882:9248   */\n    tag_112:\n        /* \"#utility.yul\":9024:9027   */\n      0x00\n        /* \"#utility.yul\":9045:9112   */\n      tag_230\n        /* \"#utility.yul\":9109:9111   */\n      0x0b\n        /* \"#utility.yul\":9104:9107   */\n      dup4\n        /* \"#utility.yul\":9045:9112   */\n      tag_106\n      jump\t// in\n    tag_230:\n        /* \"#utility.yul\":9038:9112   */\n      swap2\n      pop\n        /* \"#utility.yul\":9121:9214   */\n      tag_231\n        /* \"#utility.yul\":9210:9213   */\n      dup3\n        /* \"#utility.yul\":9121:9214   */\n      tag_111\n      jump\t// in\n    tag_231:\n        /* \"#utility.yul\":9239:9241   */\n      0x20\n        /* \"#utility.yul\":9234:9237   */\n      dup3\n        /* \"#utility.yul\":9230:9242   */\n      add\n        /* \"#utility.yul\":9223:9242   */\n      swap1\n      pop\n        /* \"#utility.yul\":8882:9248   */\n      swap2\n      swap1\n      pop\n      jump\t// out\n        /* \"#utility.yul\":9254:9673   */\n    tag_52:\n        /* \"#utility.yul\":9420:9424   */\n      0x00\n        /* \"#utility.yul\":9458:9460   */\n      0x20\n        /* \"#utility.yul\":9447:9456   */\n      dup3\n        /* \"#utility.yul\":9443:9461   */\n      add\n        /* \"#utility.yul\":9435:9461   */\n      swap1\n      pop\n        /* \"#utility.yul\":9507:9516   */\n      dup2\n        /* \"#utility.yul\":9501:9505   */\n      dup2\n        /* \"#utility.yul\":9497:9517   */\n      sub\n        /* \"#utility.yul\":9493:9494   */\n      0x00\n        /* \"#utility.yul\":9482:9491   */\n      dup4\n        /* \"#utility.yul\":9478:9495   */\n      add\n        /* \"#utility.yul\":9471:9518   */\n      mstore\n        /* \"#utility.yul\":9535:9666   */\n      tag_233\n        /* \"#utility.yul\":9661:9665   */\n      dup2\n        /* \"#utility.yul\":9535:9666   */\n      tag_112\n      jump\t// in\n    tag_233:\n        /* \"#utility.yul\":9527:9666   */\n      swap1\n      pop\n        /* \"#utility.yul\":9254:9673   */\n      swap2\n      swap1\n      pop\n      jump\t// out\n        /* \"#utility.yul\":9679:9847   */\n    tag_113:\n        /* \"#utility.yul\":9819:9839   */\n      0x496e76616c6964206e6f6d696e65652049440000000000000000000000000000\n        /* \"#utility.yul\":9815:9816   */\n      0x00\n        /* \"#utility.yul\":9807:9813   */\n      dup3\n        /* \"#utility.yul\":9803:9817   */\n      add\n        /* \"#utility.yul\":9796:9840   */\n      mstore\n        /* \"#utility.yul\":9679:9847   */\n      pop\n      jump\t// out\n        /* \"#utility.yul\":9853:10219   */\n    tag_114:\n        /* \"#utility.yul\":9995:9998   */\n      0x00\n        /* \"#utility.yul\":10016:10083   */\n      tag_236\n        /* \"#utility.yul\":10080:10082   */\n      0x12\n        /* \"#utility.yul\":10075:10078   */\n      dup4\n        /* \"#utility.yul\":10016:10083   */\n      tag_106\n      jump\t// in\n    tag_236:\n        /* \"#utility.yul\":10009:10083   */\n      swap2\n      pop\n        /* \"#utility.yul\":10092:10185   */\n      tag_237\n        /* \"#utility.yul\":10181:10184   */\n      dup3\n        /* \"#utility.yul\":10092:10185   */\n      tag_113\n      jump\t// in\n    tag_237:\n        /* \"#utility.yul\":10210:10212   */\n      0x20\n        /* \"#utility.yul\":10205:10208   */\n      dup3\n        /* \"#utility.yul\":10201:10213   */\n      add\n        /* \"#utility.yul\":10194:10213   */\n      swap1\n      pop\n        /* \"#utility.yul\":9853:10219   */\n      swap2\n      swap1\n      pop\n      jump\t// out\n        /* \"#utility.yul\":10225:10644   */\n    tag_56:\n        /* \"#utility.yul\":10391:10395   */\n      0x00\n        /* \"#utility.yul\":10429:10431   */\n      0x20\n        /* \"#utility.yul\":10418:10427   */\n      dup3\n        /* \"#utility.yul\":10414:10432   */\n      add\n        /* \"#utility.yul\":10406:10432   */\n      swap1\n      pop\n        /* \"#utility.yul\":10478:10487   */\n      dup2\n        /* \"#utility.yul\":10472:10476   */\n      dup2\n        /* \"#utility.yul\":10468:10488   */\n      sub\n        /* \"#utility.yul\":10464:10465   */\n      0x00\n        /* \"#utility.yul\":10453:10462   */\n      dup4\n        /* \"#utility.yul\":10449:10466   */\n      add\n        /* \"#utility.yul\":10442:10489   */\n      mstore\n        /* \"#utility.yul\":10506:10637   */\n      tag_239\n        /* \"#utility.yul\":10632:10636   */\n      dup2\n        /* \"#utility.yul\":10506:10637   */\n      tag_114\n      jump\t// in\n    tag_239:\n        /* \"#utility.yul\":10498:10637   */\n      swap1\n      pop\n        /* \"#utility.yul\":10225:10644   */\n      swap2\n      swap1\n      pop\n      jump\t// out\n        /* \"#utility.yul\":10650:10822   */\n    tag_115:\n        /* \"#utility.yul\":10790:10814   */\n      0x596f75206861766520616c726561647920766f74656400000000000000000000\n        /* \"#utility.yul\":10786:10787   */\n      0x00\n        /* \"#utility.yul\":10778:10784   */\n      dup3\n        /* \"#utility.yul\":10774:10788   */\n      add\n        /* \"#utility.yul\":10767:10815   */\n      mstore\n        /* \"#utility.yul\":10650:10822   */\n      pop\n      jump\t// out\n        /* \"#utility.yul\":10828:11194   */\n    tag_116:\n        /* \"#utility.yul\":10970:10973   */\n      0x00\n        /* \"#utility.yul\":10991:11058   */\n      tag_242\n        /* \"#utility.yul\":11055:11057   */\n      0x16\n        /* \"#utility.yul\":11050:11053   */\n      dup4\n        /* \"#utility.yul\":10991:11058   */\n      tag_106\n      jump\t// in\n    tag_242:\n        /* \"#utility.yul\":10984:11058   */\n      swap2\n      pop\n        /* \"#utility.yul\":11067:11160   */\n      tag_243\n        /* \"#utility.yul\":11156:11159   */\n      dup3\n        /* \"#utility.yul\":11067:11160   */\n      tag_115\n      jump\t// in\n    tag_243:\n        /* \"#utility.yul\":11185:11187   */\n      0x20\n        /* \"#utility.yul\":11180:11183   */\n      dup3\n        /* \"#utility.yul\":11176:11188   */\n      add\n        /* \"#utility.yul\":11169:11188   */\n      swap1\n      pop\n        /* \"#utility.yul\":10828:11194   */\n      swap2\n      swap1\n      pop\n      jump\t// out\n        /* \"#utility.yul\":11200:11619   */\n    tag_59:\n        /* \"#utility.yul\":11366:11370   */\n      0x00\n        /* \"#utility.yul\":11404:11406   */\n      0x20\n        /* \"#utility.yul\":11393:11402   */\n      dup3\n        /* \"#utility.yul\":11389:11407   */\n      add\n        /* \"#utility.yul\":11381:11407   */\n      swap1\n      pop\n        /* \"#utility.yul\":11453:11462   */\n      dup2\n        /* \"#utility.yul\":11447:11451   */\n      dup2\n        /* \"#utility.yul\":11443:11463   */\n      sub\n        /* \"#utility.yul\":11439:11440   */\n      0x00\n        /* \"#utility.yul\":11428:11437   */\n      dup4\n        /* \"#utility.yul\":11424:11441   */\n      add\n        /* \"#utility.yul\":11417:11464   */\n      mstore\n        /* \"#utility.yul\":11481:11612   */\n      tag_245\n        /* \"#utility.yul\":11607:11611   */\n      dup2\n        /* \"#utility.yul\":11481:11612   */\n      tag_116\n      jump\t// in\n    tag_245:\n        /* \"#utility.yul\":11473:11612   */\n      swap1\n      pop\n        /* \"#utility.yul\":11200:11619   */\n      swap2\n      swap1\n      pop\n      jump\t// out\n        /* \"#utility.yul\":11625:11805   */\n    tag_117:\n        /* \"#utility.yul\":11673:11750   */\n      0x4e487b7100000000000000000000000000000000000000000000000000000000\n        /* \"#utility.yul\":11670:11671   */\n      0x00\n        /* \"#utility.yul\":11663:11751   */\n      mstore\n        /* \"#utility.yul\":11770:11774   */\n      0x11\n        /* \"#utility.yul\":11767:11768   */\n      0x04\n        /* \"#utility.yul\":11760:11775   */\n      mstore\n        /* \"#utility.yul\":11794:11798   */\n      0x24\n        /* \"#utility.yul\":11791:11792   */\n      0x00\n        /* \"#utility.yul\":11784:11799   */\n      revert\n        /* \"#utility.yul\":11811:12044   */\n    tag_61:\n        /* \"#utility.yul\":11850:11853   */\n      0x00\n        /* \"#utility.yul\":11873:11897   */\n      tag_248\n        /* \"#utility.yul\":11891:11896   */\n      dup3\n        /* \"#utility.yul\":11873:11897   */\n      tag_85\n      jump\t// in\n    tag_248:\n        /* \"#utility.yul\":11864:11897   */\n      swap2\n      pop\n        /* \"#utility.yul\":11919:11985   */\n      0xffffffffffffffffffffffffffffffffffffffffffffffffffffffffffffffff\n        /* \"#utility.yul\":11912:11917   */\n      dup3\n        /* \"#utility.yul\":11909:11986   */\n      sub\n        /* \"#utility.yul\":11906:12009   */\n      tag_249\n      jumpi\n        /* \"#utility.yul\":11989:12007   */\n      tag_250\n      tag_117\n      jump\t// in\n    tag_250:\n        /* \"#utility.yul\":11906:12009   */\n    tag_249:\n        /* \"#utility.yul\":12036:12037   */\n      0x01\n        /* \"#utility.yul\":12029:12034   */\n      dup3\n        /* \"#utility.yul\":12025:12038   */\n      add\n        /* \"#utility.yul\":12018:12038   */\n      swap1\n      pop\n        /* \"#utility.yul\":11811:12044   */\n      swap2\n      swap1\n      pop\n      jump\t// out\n        /* \"#utility.yul\":12050:12230   */\n    tag_118:\n        /* \"#utility.yul\":12098:12175   */\n      0x4e487b7100000000000000000000000000000000000000000000000000000000\n        /* \"#utility.yul\":12095:12096   */\n      0x00\n        /* \"#utility.yul\":12088:12176   */\n      mstore\n        /* \"#utility.yul\":12195:12199   */\n      0x22\n        /* \"#utility.yul\":12192:12193   */\n      0x04\n        /* \"#utility.yul\":12185:12200   */\n      mstore\n        /* \"#utility.yul\":12219:12223   */\n      0x24\n        /* \"#utility.yul\":12216:12217   */\n      0x00\n        /* \"#utility.yul\":12209:12224   */\n      revert\n        /* \"#utility.yul\":12236:12556   */\n    tag_72:\n        /* \"#utility.yul\":12280:12286   */\n      0x00\n        /* \"#utility.yul\":12317:12318   */\n      0x02\n        /* \"#utility.yul\":12311:12315   */\n      dup3\n        /* \"#utility.yul\":12307:12319   */\n      div\n        /* \"#utility.yul\":12297:12319   */\n      swap1\n      pop\n        /* \"#utility.yul\":12364:12365   */\n      0x01\n        /* \"#utility.yul\":12358:12362   */\n      dup3\n        /* \"#utility.yul\":12354:12366   */\n      and\n        /* \"#utility.yul\":12385:12403   */\n      dup1\n        /* \"#utility.yul\":12375:12456   */\n      tag_253\n      jumpi\n        /* \"#utility.yul\":12441:12445   */\n      0x7f\n        /* \"#utility.yul\":12433:12439   */\n      dup3\n        /* \"#utility.yul\":12429:12446   */\n      and\n        /* \"#utility.yul\":12419:12446   */\n      swap2\n      pop\n        /* \"#utility.yul\":12375:12456   */\n    tag_253:\n        /* \"#utility.yul\":12503:12505   */\n      0x20\n        /* \"#utility.yul\":12495:12501   */\n      dup3\n        /* \"#utility.yul\":12492:12506   */\n      lt\n        /* \"#utility.yul\":12472:12490   */\n      dup2\n        /* \"#utility.yul\":12469:12507   */\n      sub\n        /* \"#utility.yul\":12466:12550   */\n      tag_254\n      jumpi\n        /* \"#utility.yul\":12522:12540   */\n      tag_255\n      tag_118\n      jump\t// in\n    tag_255:\n        /* \"#utility.yul\":12466:12550   */\n    tag_254:\n        /* \"#utility.yul\":12287:12556   */\n      pop\n        /* \"#utility.yul\":12236:12556   */\n      swap2\n      swap1\n      pop\n      jump\t// out\n        /* \"#utility.yul\":12562:12703   */\n    tag_119:\n        /* \"#utility.yul\":12611:12615   */\n      0x00\n        /* \"#utility.yul\":12634:12637   */\n      dup2\n        /* \"#utility.yul\":12626:12637   */\n      swap1\n      pop\n        /* \"#utility.yul\":12657:12660   */\n      dup2\n        /* \"#utility.yul\":12654:12655   */\n      0x00\n        /* \"#utility.yul\":12647:12661   */\n      mstore\n        /* \"#utility.yul\":12691:12695   */\n      0x20\n        /* \"#utility.yul\":12688:12689   */\n      0x00\n        /* \"#utility.yul\":12678:12696   */\n      keccak256\n        /* \"#utility.yul\":12670:12696   */\n      swap1\n      pop\n        /* \"#utility.yul\":12562:12703   */\n      swap2\n      swap1\n      pop\n      jump\t// out\n        /* \"#utility.yul\":12709:12802   */\n    tag_120:\n        /* \"#utility.yul\":12746:12752   */\n      0x00\n        /* \"#utility.yul\":12793:12795   */\n      0x20\n        /* \"#utility.yul\":12788:12790   */\n      0x1f\n        /* \"#utility.yul\":12781:12786   */\n      dup4\n        /* \"#utility.yul\":12777:12791   */\n      add\n        /* \"#utility.yul\":12773:12796   */\n      div\n        /* \"#utility.yul\":12763:12796   */\n      swap1\n      pop\n        /* \"#utility.yul\":12709:12802   */\n      swap2\n      swap1\n      pop\n      jump\t// out\n        /* \"#utility.yul\":12808:12915   */\n    tag_121:\n        /* \"#utility.yul\":12852:12860   */\n      0x00\n        /* \"#utility.yul\":12902:12907   */\n      dup3\n        /* \"#utility.yul\":12896:12900   */\n      dup3\n        /* \"#utility.yul\":12892:12908   */\n      shl\n        /* \"#utility.yul\":12871:12908   */\n      swap1\n      pop\n        /* \"#utility.yul\":12808:12915   */\n      swap3\n      swap2\n      pop\n      pop\n      jump\t// out\n        /* \"#utility.yul\":12921:13314   */\n    tag_122:\n        /* \"#utility.yul\":12990:12996   */\n      0x00\n        /* \"#utility.yul\":13040:13041   */\n      0x08\n        /* \"#utility.yul\":13028:13038   */\n      dup4\n        /* \"#utility.yul\":13024:13042   */\n      mul\n        /* \"#utility.yul\":13063:13160   */\n      tag_260\n        /* \"#utility.yul\":13093:13159   */\n      0xffffffffffffffffffffffffffffffffffffffffffffffffffffffffffffffff\n        /* \"#utility.yul\":13082:13091   */\n      dup3\n        /* \"#utility.yul\":13063:13160   */\n      tag_121\n      jump\t// in\n    tag_260:\n        /* \"#utility.yul\":13181:13220   */\n      tag_261\n        /* \"#utility.yul\":13211:13219   */\n      dup7\n        /* \"#utility.yul\":13200:13209   */\n      dup4\n        /* \"#utility.yul\":13181:13220   */\n      tag_121\n      jump\t// in\n    tag_261:\n        /* \"#utility.yul\":13169:13220   */\n      swap6\n      pop\n        /* \"#utility.yul\":13253:13257   */\n      dup1\n        /* \"#utility.yul\":13249:13258   */\n      not\n        /* \"#utility.yul\":13242:13247   */\n      dup5\n        /* \"#utility.yul\":13238:13259   */\n      and\n        /* \"#utility.yul\":13229:13259   */\n      swap4\n      pop\n        /* \"#utility.yul\":13302:13306   */\n      dup1\n        /* \"#utility.yul\":13292:13300   */\n      dup7\n        /* \"#utility.yul\":13288:13307   */\n      and\n        /* \"#utility.yul\":13281:13286   */\n      dup5\n        /* \"#utility.yul\":13278:13308   */\n      or\n        /* \"#utility.yul\":13268:13308   */\n      swap3\n      pop\n        /* \"#utility.yul\":12997:13314   */\n      pop\n      pop\n        /* \"#utility.yul\":12921:13314   */\n      swap4\n      swap3\n      pop\n      pop\n      pop\n      jump\t// out\n        /* \"#utility.yul\":13320:13380   */\n    tag_123:\n        /* \"#utility.yul\":13348:13351   */\n      0x00\n        /* \"#utility.yul\":13369:13374   */\n      dup2\n        /* \"#utility.yul\":13362:13374   */\n      swap1\n      pop\n        /* \"#utility.yul\":13320:13380   */\n      swap2\n      swap1\n      pop\n      jump\t// out\n        /* \"#utility.yul\":13386:13528   */\n    tag_124:\n        /* \"#utility.yul\":13436:13445   */\n      0x00\n        /* \"#utility.yul\":13469:13522   */\n      tag_264\n        /* \"#utility.yul\":13487:13521   */\n      tag_265\n        /* \"#utility.yul\":13496:13520   */\n      tag_266\n        /* \"#utility.yul\":13514:13519   */\n      dup5\n        /* \"#utility.yul\":13496:13520   */\n      tag_85\n      jump\t// in\n    tag_266:\n        /* \"#utility.yul\":13487:13521   */\n      tag_123\n      jump\t// in\n    tag_265:\n        /* \"#utility.yul\":13469:13522   */\n      tag_85\n      jump\t// in\n    tag_264:\n        /* \"#utility.yul\":13456:13522   */\n      swap1\n      pop\n        /* \"#utility.yul\":13386:13528   */\n      swap2\n      swap1\n      pop\n      jump\t// out\n        /* \"#utility.yul\":13534:13609   */\n    tag_125:\n        /* \"#utility.yul\":13577:13580   */\n      0x00\n        /* \"#utility.yul\":13598:13603   */\n      dup2\n        /* \"#utility.yul\":13591:13603   */\n      swap1\n      pop\n        /* \"#utility.yul\":13534:13609   */\n      swap2\n      swap1\n      pop\n      jump\t// out\n        /* \"#utility.yul\":13615:13884   */\n    tag_126:\n        /* \"#utility.yul\":13725:13764   */\n      tag_269\n        /* \"#utility.yul\":13756:13763   */\n      dup4\n        /* \"#utility.yul\":13725:13764   */\n      tag_124\n      jump\t// in\n    tag_269:\n        /* \"#utility.yul\":13786:13877   */\n      tag_270\n        /* \"#utility.yul\":13835:13876   */\n      tag_271\n        /* \"#utility.yul\":13859:13875   */\n      dup3\n        /* \"#utility.yul\":13835:13876   */\n      tag_125\n      jump\t// in\n    tag_271:\n        /* \"#utility.yul\":13827:13833   */\n      dup5\n        /* \"#utility.yul\":13820:13824   */\n      dup5\n        /* \"#utility.yul\":13814:13825   */\n      sload\n        /* \"#utility.yul\":13786:13877   */\n      tag_122\n      jump\t// in\n    tag_270:\n        /* \"#utility.yul\":13780:13784   */\n      dup3\n        /* \"#utility.yul\":13773:13878   */\n      sstore\n        /* \"#utility.yul\":13691:13884   */\n      pop\n        /* \"#utility.yul\":13615:13884   */\n      pop\n      pop\n      pop\n      jump\t// out\n        /* \"#utility.yul\":13890:13963   */\n    tag_127:\n        /* \"#utility.yul\":13935:13938   */\n      0x00\n        /* \"#utility.yul\":13890:13963   */\n      swap1\n      jump\t// out\n        /* \"#utility.yul\":13969:14158   */\n    tag_128:\n        /* \"#utility.yul\":14046:14078   */\n      tag_274\n      tag_127\n      jump\t// in\n    tag_274:\n        /* \"#utility.yul\":14087:14152   */\n      tag_275\n        /* \"#utility.yul\":14145:14151   */\n      dup2\n        /* \"#utility.yul\":14137:14143   */\n      dup5\n        /* \"#utility.yul\":14131:14135   */\n      dup5\n        /* \"#utility.yul\":14087:14152   */\n      tag_126\n      jump\t// in\n    tag_275:\n        /* \"#utility.yul\":14022:14158   */\n      pop\n        /* \"#utility.yul\":13969:14158   */\n      pop\n      pop\n      jump\t// out\n        /* \"#utility.yul\":14164:14350   */\n    tag_129:\n        /* \"#utility.yul\":14224:14344   */\n    tag_277:\n        /* \"#utility.yul\":14241:14244   */\n      dup2\n        /* \"#utility.yul\":14234:14239   */\n      dup2\n        /* \"#utility.yul\":14231:14245   */\n      lt\n        /* \"#utility.yul\":14224:14344   */\n      iszero\n      tag_279\n      jumpi\n        /* \"#utility.yul\":14295:14334   */\n      tag_280\n        /* \"#utility.yul\":14332:14333   */\n      0x00\n        /* \"#utility.yul\":14325:14330   */\n      dup3\n        /* \"#utility.yul\":14295:14334   */\n      tag_128\n      jump\t// in\n    tag_280:\n        /* \"#utility.yul\":14268:14269   */\n      0x01\n        /* \"#utility.yul\":14261:14266   */\n      dup2\n        /* \"#utility.yul\":14257:14270   */\n      add\n        /* \"#utility.yul\":14248:14270   */\n      swap1\n      pop\n        /* \"#utility.yul\":14224:14344   */\n      jump(tag_277)\n    tag_279:\n        /* \"#utility.yul\":14164:14350   */\n      pop\n      pop\n      jump\t// out\n        /* \"#utility.yul\":14356:14899   */\n    tag_130:\n        /* \"#utility.yul\":14457:14459   */\n      0x1f\n        /* \"#utility.yul\":14452:14455   */\n      dup3\n        /* \"#utility.yul\":14449:14460   */\n      gt\n        /* \"#utility.yul\":14446:14892   */\n      iszero\n      tag_282\n      jumpi\n        /* \"#utility.yul\":14491:14529   */\n      tag_283\n        /* \"#utility.yul\":14523:14528   */\n      dup2\n        /* \"#utility.yul\":14491:14529   */\n      tag_119\n      jump\t// in\n    tag_283:\n        /* \"#utility.yul\":14575:14604   */\n      tag_284\n        /* \"#utility.yul\":14593:14603   */\n      dup5\n        /* \"#utility.yul\":14575:14604   */\n      tag_120\n      jump\t// in\n    tag_284:\n        /* \"#utility.yul\":14565:14573   */\n      dup2\n        /* \"#utility.yul\":14561:14605   */\n      add\n        /* \"#utility.yul\":14758:14760   */\n      0x20\n        /* \"#utility.yul\":14746:14756   */\n      dup6\n        /* \"#utility.yul\":14743:14761   */\n      lt\n        /* \"#utility.yul\":14740:14789   */\n      iszero\n      tag_285\n      jumpi\n        /* \"#utility.yul\":14779:14787   */\n      dup2\n        /* \"#utility.yul\":14764:14787   */\n      swap1\n      pop\n        /* \"#utility.yul\":14740:14789   */\n    tag_285:\n        /* \"#utility.yul\":14802:14882   */\n      tag_286\n        /* \"#utility.yul\":14858:14880   */\n      tag_287\n        /* \"#utility.yul\":14876:14879   */\n      dup6\n        /* \"#utility.yul\":14858:14880   */\n      tag_120\n      jump\t// in\n    tag_287:\n        /* \"#utility.yul\":14848:14856   */\n      dup4\n        /* \"#utility.yul\":14844:14881   */\n      add\n        /* \"#utility.yul\":14831:14842   */\n      dup3\n        /* \"#utility.yul\":14802:14882   */\n      tag_129\n      jump\t// in\n    tag_286:\n        /* \"#utility.yul\":14461:14892   */\n      pop\n      pop\n        /* \"#utility.yul\":14446:14892   */\n    tag_282:\n        /* \"#utility.yul\":14356:14899   */\n      pop\n      pop\n      pop\n      jump\t// out\n        /* \"#utility.yul\":14905:15022   */\n    tag_131:\n        /* \"#utility.yul\":14959:14967   */\n      0x00\n        /* \"#utility.yul\":15009:15014   */\n      dup3\n        /* \"#utility.yul\":15003:15007   */\n      dup3\n        /* \"#utility.yul\":14999:15015   */\n      shr\n        /* \"#utility.yul\":14978:15015   */\n      swap1\n      pop\n        /* \"#utility.yul\":14905:15022   */\n      swap3\n      swap2\n      pop\n      pop\n      jump\t// out\n        /* \"#utility.yul\":15028:15197   */\n    tag_132:\n        /* \"#utility.yul\":15072:15078   */\n      0x00\n        /* \"#utility.yul\":15105:15156   */\n      tag_290\n        /* \"#utility.yul\":15153:15154   */\n      0x00\n        /* \"#utility.yul\":15149:15155   */\n      not\n        /* \"#utility.yul\":15141:15146   */\n      dup5\n        /* \"#utility.yul\":15138:15139   */\n      0x08\n        /* \"#utility.yul\":15134:15147   */\n      mul\n        /* \"#utility.yul\":15105:15156   */\n      tag_131\n      jump\t// in\n    tag_290:\n        /* \"#utility.yul\":15101:15157   */\n      not\n        /* \"#utility.yul\":15186:15190   */\n      dup1\n        /* \"#utility.yul\":15180:15184   */\n      dup4\n        /* \"#utility.yul\":15176:15191   */\n      and\n        /* \"#utility.yul\":15166:15191   */\n      swap2\n      pop\n        /* \"#utility.yul\":15079:15197   */\n      pop\n        /* \"#utility.yul\":15028:15197   */\n      swap3\n      swap2\n      pop\n      pop\n      jump\t// out\n        /* \"#utility.yul\":15202:15497   */\n    tag_133:\n        /* \"#utility.yul\":15278:15282   */\n      0x00\n        /* \"#utility.yul\":15424:15453   */\n      tag_292\n        /* \"#utility.yul\":15449:15452   */\n      dup4\n        /* \"#utility.yul\":15443:15447   */\n      dup4\n        /* \"#utility.yul\":15424:15453   */\n      tag_132\n      jump\t// in\n    tag_292:\n        /* \"#utility.yul\":15416:15453   */\n      swap2\n      pop\n        /* \"#utility.yul\":15486:15489   */\n      dup3\n        /* \"#utility.yul\":15483:15484   */\n      0x02\n        /* \"#utility.yul\":15479:15490   */\n      mul\n        /* \"#utility.yul\":15473:15477   */\n      dup3\n        /* \"#utility.yul\":15470:15491   */\n      or\n        /* \"#utility.yul\":15462:15491   */\n      swap1\n      pop\n        /* \"#utility.yul\":15202:15497   */\n      swap3\n      swap2\n      pop\n      pop\n      jump\t// out\n        /* \"#utility.yul\":15502:16897   */\n    tag_67:\n        /* \"#utility.yul\":15619:15656   */\n      tag_294\n        /* \"#utility.yul\":15652:15655   */\n      dup3\n        /* \"#utility.yul\":15619:15656   */\n      tag_105\n      jump\t// in\n    tag_294:\n        /* \"#utility.yul\":15721:15739   */\n      0xffffffffffffffff\n        /* \"#utility.yul\":15713:15719   */\n      dup2\n        /* \"#utility.yul\":15710:15740   */\n      gt\n        /* \"#utility.yul\":15707:15763   */\n      iszero\n      tag_295\n      jumpi\n        /* \"#utility.yul\":15743:15761   */\n      tag_296\n      tag_98\n      jump\t// in\n    tag_296:\n        /* \"#utility.yul\":15707:15763   */\n    tag_295:\n        /* \"#utility.yul\":15787:15825   */\n      tag_297\n        /* \"#utility.yul\":15819:15823   */\n      dup3\n        /* \"#utility.yul\":15813:15824   */\n      sload\n        /* \"#utility.yul\":15787:15825   */\n      tag_72\n      jump\t// in\n    tag_297:\n        /* \"#utility.yul\":15872:15939   */\n      tag_298\n        /* \"#utility.yul\":15932:15938   */\n      dup3\n        /* \"#utility.yul\":15924:15930   */\n      dup3\n        /* \"#utility.yul\":15918:15922   */\n      dup6\n        /* \"#utility.yul\":15872:15939   */\n      tag_130\n      jump\t// in\n    tag_298:\n        /* \"#utility.yul\":15966:15967   */\n      0x00\n        /* \"#utility.yul\":15990:15994   */\n      0x20\n        /* \"#utility.yul\":15977:15994   */\n      swap1\n      pop\n        /* \"#utility.yul\":16022:16024   */\n      0x1f\n        /* \"#utility.yul\":16014:16020   */\n      dup4\n        /* \"#utility.yul\":16011:16025   */\n      gt\n        /* \"#utility.yul\":16039:16040   */\n      0x01\n        /* \"#utility.yul\":16034:16652   */\n      dup2\n      eq\n      tag_300\n      jumpi\n        /* \"#utility.yul\":16696:16697   */\n      0x00\n        /* \"#utility.yul\":16713:16719   */\n      dup5\n        /* \"#utility.yul\":16710:16787   */\n      iszero\n      tag_301\n      jumpi\n        /* \"#utility.yul\":16762:16771   */\n      dup3\n        /* \"#utility.yul\":16757:16760   */\n      dup8\n        /* \"#utility.yul\":16753:16772   */\n      add\n        /* \"#utility.yul\":16747:16773   */\n      mload\n        /* \"#utility.yul\":16738:16773   */\n      swap1\n      pop\n        /* \"#utility.yul\":16710:16787   */\n    tag_301:\n        /* \"#utility.yul\":16813:16880   */\n      tag_302\n        /* \"#utility.yul\":16873:16879   */\n      dup6\n        /* \"#utility.yul\":16866:16871   */\n      dup3\n        /* \"#utility.yul\":16813:16880   */\n      tag_133\n      jump\t// in\n    tag_302:\n        /* \"#utility.yul\":16807:16811   */\n      dup7\n        /* \"#utility.yul\":16800:16881   */\n      sstore\n        /* \"#utility.yul\":16669:16891   */\n      pop\n        /* \"#utility.yul\":16004:16891   */\n      jump(tag_299)\n        /* \"#utility.yul\":16034:16652   */\n    tag_300:\n        /* \"#utility.yul\":16086:16090   */\n      0x1f\n        /* \"#utility.yul\":16082:16091   */\n      not\n        /* \"#utility.yul\":16074:16080   */\n      dup5\n        /* \"#utility.yul\":16070:16092   */\n      and\n        /* \"#utility.yul\":16120:16157   */\n      tag_303\n        /* \"#utility.yul\":16152:16156   */\n      dup7\n        /* \"#utility.yul\":16120:16157   */\n      tag_119\n      jump\t// in\n    tag_303:\n        /* \"#utility.yul\":16179:16180   */\n      0x00\n        /* \"#utility.yul\":16193:16401   */\n    tag_304:\n        /* \"#utility.yul\":16207:16214   */\n      dup3\n        /* \"#utility.yul\":16204:16205   */\n      dup2\n        /* \"#utility.yul\":16201:16215   */\n      lt\n        /* \"#utility.yul\":16193:16401   */\n      iszero\n      tag_306\n      jumpi\n        /* \"#utility.yul\":16286:16295   */\n      dup5\n        /* \"#utility.yul\":16281:16284   */\n      dup10\n        /* \"#utility.yul\":16277:16296   */\n      add\n        /* \"#utility.yul\":16271:16297   */\n      mload\n        /* \"#utility.yul\":16263:16269   */\n      dup3\n        /* \"#utility.yul\":16256:16298   */\n      sstore\n        /* \"#utility.yul\":16337:16338   */\n      0x01\n        /* \"#utility.yul\":16329:16335   */\n      dup3\n        /* \"#utility.yul\":16325:16339   */\n      add\n        /* \"#utility.yul\":16315:16339   */\n      swap2\n      pop\n        /* \"#utility.yul\":16384:16386   */\n      0x20\n        /* \"#utility.yul\":16373:16382   */\n      dup6\n        /* \"#utility.yul\":16369:16387   */\n      add\n        /* \"#utility.yul\":16356:16387   */\n      swap5\n      pop\n        /* \"#utility.yul\":16230:16234   */\n      0x20\n        /* \"#utility.yul\":16227:16228   */\n      dup2\n        /* \"#utility.yul\":16223:16235   */\n      add\n        /* \"#utility.yul\":16218:16235   */\n      swap1\n      pop\n        /* \"#utility.yul\":16193:16401   */\n      jump(tag_304)\n    tag_306:\n        /* \"#utility.yul\":16429:16435   */\n      dup7\n        /* \"#utility.yul\":16420:16427   */\n      dup4\n        /* \"#utility.yul\":16417:16436   */\n      lt\n        /* \"#utility.yul\":16414:16593   */\n      iszero\n      tag_307\n      jumpi\n        /* \"#utility.yul\":16487:16496   */\n      dup5\n        /* \"#utility.yul\":16482:16485   */\n      dup10\n        /* \"#utility.yul\":16478:16497   */\n      add\n        /* \"#utility.yul\":16472:16498   */\n      mload\n        /* \"#utility.yul\":16530:16578   */\n      tag_308\n        /* \"#utility.yul\":16572:16576   */\n      0x1f\n        /* \"#utility.yul\":16564:16570   */\n      dup10\n        /* \"#utility.yul\":16560:16577   */\n      and\n        /* \"#utility.yul\":16549:16558   */\n      dup3\n        /* \"#utility.yul\":16530:16578   */\n      tag_132\n      jump\t// in\n    tag_308:\n        /* \"#utility.yul\":16522:16528   */\n      dup4\n        /* \"#utility.yul\":16515:16579   */\n      sstore\n        /* \"#utility.yul\":16437:16593   */\n      pop\n        /* \"#utility.yul\":16414:16593   */\n    tag_307:\n        /* \"#utility.yul\":16639:16640   */\n      0x01\n        /* \"#utility.yul\":16635:16636   */\n      0x02\n        /* \"#utility.yul\":16627:16633   */\n      dup9\n        /* \"#utility.yul\":16623:16637   */\n      mul\n        /* \"#utility.yul\":16619:16641   */\n      add\n        /* \"#utility.yul\":16613:16617   */\n      dup9\n        /* \"#utility.yul\":16606:16642   */\n      sstore\n        /* \"#utility.yul\":16041:16652   */\n      pop\n      pop\n      pop\n        /* \"#utility.yul\":16004:16891   */\n    tag_299:\n      pop\n        /* \"#utility.yul\":15594:16897   */\n      pop\n      pop\n      pop\n        /* \"#utility.yul\":15502:16897   */\n      pop\n      pop\n      jump\t// out\n        /* \"#utility.yul\":16903:17527   */\n    tag_70:\n        /* \"#utility.yul\":17092:17096   */\n      0x00\n        /* \"#utility.yul\":17130:17132   */\n      0x60\n        /* \"#utility.yul\":17119:17128   */\n      dup3\n        /* \"#utility.yul\":17115:17133   */\n      add\n        /* \"#utility.yul\":17107:17133   */\n      swap1\n      pop\n        /* \"#utility.yul\":17143:17214   */\n      tag_310\n        /* \"#utility.yul\":17211:17212   */\n      0x00\n        /* \"#utility.yul\":17200:17209   */\n      dup4\n        /* \"#utility.yul\":17196:17213   */\n      add\n        /* \"#utility.yul\":17187:17193   */\n      dup7\n        /* \"#utility.yul\":17143:17214   */\n      tag_88\n      jump\t// in\n    tag_310:\n        /* \"#utility.yul\":17261:17270   */\n      dup2\n        /* \"#utility.yul\":17255:17259   */\n      dup2\n        /* \"#utility.yul\":17251:17271   */\n      sub\n        /* \"#utility.yul\":17246:17248   */\n      0x20\n        /* \"#utility.yul\":17235:17244   */\n      dup4\n        /* \"#utility.yul\":17231:17249   */\n      add\n        /* \"#utility.yul\":17224:17272   */\n      mstore\n        /* \"#utility.yul\":17289:17367   */\n      tag_311\n        /* \"#utility.yul\":17362:17366   */\n      dup2\n        /* \"#utility.yul\":17353:17359   */\n      dup6\n        /* \"#utility.yul\":17289:17367   */\n      tag_108\n      jump\t// in\n    tag_311:\n        /* \"#utility.yul\":17281:17367   */\n      swap1\n      pop\n        /* \"#utility.yul\":17414:17423   */\n      dup2\n        /* \"#utility.yul\":17408:17412   */\n      dup2\n        /* \"#utility.yul\":17404:17424   */\n      sub\n        /* \"#utility.yul\":17399:17401   */\n      0x40\n        /* \"#utility.yul\":17388:17397   */\n      dup4\n        /* \"#utility.yul\":17384:17402   */\n      add\n        /* \"#utility.yul\":17377:17425   */\n      mstore\n        /* \"#utility.yul\":17442:17520   */\n      tag_312\n        /* \"#utility.yul\":17515:17519   */\n      dup2\n        /* \"#utility.yul\":17506:17512   */\n      dup5\n        /* \"#utility.yul\":17442:17520   */\n      tag_108\n      jump\t// in\n    tag_312:\n        /* \"#utility.yul\":17434:17520   */\n      swap1\n      pop\n        /* \"#utility.yul\":16903:17527   */\n      swap5\n      swap4\n      pop\n      pop\n      pop\n      pop\n      jump\t// out\n\n    auxdata: 0xa26469706673582212201189c2f483a54ca82c6bdcc22854fb072254ed3c6a8a2766548d8eac9d4d9cbb64736f6c634300081a0033\n}\n",
				"bytecode": {
					"linkReferences": {},
					"object": "6080604052348015600e575f80fd5b50610f748061001c5f395ff3fe608060405234801561000f575f80fd5b5060043610610086575f3560e01c8063a3ec138d11610059578063a3ec138d146100fe578063b04e55ed1461012e578063c5e7e32b1461014c578063eec6b91e1461017c57610086565b80630121b93f1461008a5780633554fd8f146100a657806336b8ddd3146100c4578063a15a36c7146100e2575b5f80fd5b6100a4600480360381019061009f9190610672565b6101af565b005b6100ae6103e0565b6040516100bb91906106ac565b60405180910390f35b6100cc6103e6565b6040516100d991906106ac565b60405180910390f35b6100fc60048036038101906100f791906106c5565b6103ec565b005b6101186004803603810190610113919061075d565b6103fe565b60405161012591906107a2565b60405180910390f35b61013661041b565b60405161014391906106ac565b60405180910390f35b610166600480360381019061016191906108f7565b610421565b60405161017391906106ac565b60405180910390f35b61019660048036038101906101919190610672565b6104f7565b6040516101a694939291906109cd565b60405180910390f35b6004544210156101f4576040517f08c379a00000000000000000000000000000000000000000000000000000000081526004016101eb90610a68565b60405180910390fd5b600354421115610239576040517f08c379a000000000000000000000000000000000000000000000000000000000815260040161023090610ad0565b60405180910390fd5b5f8111801561024a57506002548111155b610289576040517f08c379a000000000000000000000000000000000000000000000000000000000815260040161028090610b38565b60405180910390fd5b60015f3373ffffffffffffffffffffffffffffffffffffffff1673ffffffffffffffffffffffffffffffffffffffff1681526020019081526020015f205f9054906101000a900460ff1615610313576040517f08c379a000000000000000000000000000000000000000000000000000000000815260040161030a90610ba0565b60405180910390fd5b6001805f3373ffffffffffffffffffffffffffffffffffffffff1673ffffffffffffffffffffffffffffffffffffffff1681526020019081526020015f205f6101000a81548160ff0219169083151502179055505f808281526020019081526020015f206003015f81548092919061038a90610beb565b91905055503373ffffffffffffffffffffffffffffffffffffffff167fa36cc2bebb74db33e9f88110a07ef56e1b31b24b4c4f51b54b1664266e29f45b826040516103d591906106ac565b60405180910390a250565b60045481565b60035481565b81600481905550806003819055505050565b6001602052805f5260405f205f915054906101000a900460ff1681565b60025481565b5f60025f81548092919061043490610beb565b9190505550604051806080016040528060025481526020018481526020018381526020015f8152505f8060025481526020019081526020015f205f820151815f0155602082015181600101908161048b9190610e2c565b5060408201518160020190816104a19190610e2c565b50606082015181600301559050507f77b4dcb988abb2c1590106152ea1343570a0dc2311b55af21e6a5eb6bd02278a60025484846040516104e493929190610efb565b60405180910390a1600254905092915050565b5f602052805f5260405f205f91509050805f01549080600101805461051b90610c5f565b80601f016020809104026020016040519081016040528092919081815260200182805461054790610c5f565b80156105925780601f1061056957610100808354040283529160200191610592565b820191905f5260205f20905b81548152906001019060200180831161057557829003601f168201915b5050505050908060020180546105a790610c5f565b80601f01602080910402602001604051908101604052809291908181526020018280546105d390610c5f565b801561061e5780601f106105f55761010080835404028352916020019161061e565b820191905f5260205f20905b81548152906001019060200180831161060157829003601f168201915b5050505050908060030154905084565b5f604051905090565b5f80fd5b5f80fd5b5f819050919050565b6106518161063f565b811461065b575f80fd5b50565b5f8135905061066c81610648565b92915050565b5f6020828403121561068757610686610637565b5b5f6106948482850161065e565b91505092915050565b6106a68161063f565b82525050565b5f6020820190506106bf5f83018461069d565b92915050565b5f80604083850312156106db576106da610637565b5b5f6106e88582860161065e565b92505060206106f98582860161065e565b9150509250929050565b5f73ffffffffffffffffffffffffffffffffffffffff82169050919050565b5f61072c82610703565b9050919050565b61073c81610722565b8114610746575f80fd5b50565b5f8135905061075781610733565b92915050565b5f6020828403121561077257610771610637565b5b5f61077f84828501610749565b91505092915050565b5f8115159050919050565b61079c81610788565b82525050565b5f6020820190506107b55f830184610793565b92915050565b5f80fd5b5f80fd5b5f601f19601f8301169050919050565b7f4e487b71000000000000000000000000000000000000000000000000000000005f52604160045260245ffd5b610809826107c3565b810181811067ffffffffffffffff82111715610828576108276107d3565b5b80604052505050565b5f61083a61062e565b90506108468282610800565b919050565b5f67ffffffffffffffff821115610865576108646107d3565b5b61086e826107c3565b9050602081019050919050565b828183375f83830152505050565b5f61089b6108968461084b565b610831565b9050828152602081018484840111156108b7576108b66107bf565b5b6108c284828561087b565b509392505050565b5f82601f8301126108de576108dd6107bb565b5b81356108ee848260208601610889565b91505092915050565b5f806040838503121561090d5761090c610637565b5b5f83013567ffffffffffffffff81111561092a5761092961063b565b5b610936858286016108ca565b925050602083013567ffffffffffffffff8111156109575761095661063b565b5b610963858286016108ca565b9150509250929050565b5f81519050919050565b5f82825260208201905092915050565b8281835e5f83830152505050565b5f61099f8261096d565b6109a98185610977565b93506109b9818560208601610987565b6109c2816107c3565b840191505092915050565b5f6080820190506109e05f83018761069d565b81810360208301526109f28186610995565b90508181036040830152610a068185610995565b9050610a15606083018461069d565b95945050505050565b7f566f74696e6720686173206e6f742073746172746564207965740000000000005f82015250565b5f610a52601a83610977565b9150610a5d82610a1e565b602082019050919050565b5f6020820190508181035f830152610a7f81610a46565b9050919050565b7f566f746520436c6f7365640000000000000000000000000000000000000000005f82015250565b5f610aba600b83610977565b9150610ac582610a86565b602082019050919050565b5f6020820190508181035f830152610ae781610aae565b9050919050565b7f496e76616c6964206e6f6d696e656520494400000000000000000000000000005f82015250565b5f610b22601283610977565b9150610b2d82610aee565b602082019050919050565b5f6020820190508181035f830152610b4f81610b16565b9050919050565b7f596f75206861766520616c726561647920766f746564000000000000000000005f82015250565b5f610b8a601683610977565b9150610b9582610b56565b602082019050919050565b5f6020820190508181035f830152610bb781610b7e565b9050919050565b7f4e487b71000000000000000000000000000000000000000000000000000000005f52601160045260245ffd5b5f610bf58261063f565b91507fffffffffffffffffffffffffffffffffffffffffffffffffffffffffffffffff8203610c2757610c26610bbe565b5b600182019050919050565b7f4e487b71000000000000000000000000000000000000000000000000000000005f52602260045260245ffd5b5f6002820490506001821680610c7657607f821691505b602082108103610c8957610c88610c32565b5b50919050565b5f819050815f5260205f209050919050565b5f6020601f8301049050919050565b5f82821b905092915050565b5f60088302610ceb7fffffffffffffffffffffffffffffffffffffffffffffffffffffffffffffffff82610cb0565b610cf58683610cb0565b95508019841693508086168417925050509392505050565b5f819050919050565b5f610d30610d2b610d268461063f565b610d0d565b61063f565b9050919050565b5f819050919050565b610d4983610d16565b610d5d610d5582610d37565b848454610cbc565b825550505050565b5f90565b610d71610d65565b610d7c818484610d40565b505050565b5b81811015610d9f57610d945f82610d69565b600181019050610d82565b5050565b601f821115610de457610db581610c8f565b610dbe84610ca1565b81016020851015610dcd578190505b610de1610dd985610ca1565b830182610d81565b50505b505050565b5f82821c905092915050565b5f610e045f1984600802610de9565b1980831691505092915050565b5f610e1c8383610df5565b9150826002028217905092915050565b610e358261096d565b67ffffffffffffffff811115610e4e57610e4d6107d3565b5b610e588254610c5f565b610e63828285610da3565b5f60209050601f831160018114610e94575f8415610e82578287015190505b610e8c8582610e11565b865550610ef3565b601f198416610ea286610c8f565b5f5b82811015610ec957848901518255600182019150602085019450602081019050610ea4565b86831015610ee65784890151610ee2601f891682610df5565b8355505b6001600288020188555050505b505050505050565b5f606082019050610f0e5f83018661069d565b8181036020830152610f208185610995565b90508181036040830152610f348184610995565b905094935050505056fea26469706673582212201189c2f483a54ca82c6bdcc22854fb072254ed3c6a8a2766548d8eac9d4d9cbb64736f6c634300081a0033",
					"opcodes": "PUSH1 0x80 PUSH1 0x40 MSTORE CALLVALUE DUP1 ISZERO PUSH1 0xE JUMPI PUSH0 DUP1 REVERT JUMPDEST POP PUSH2 0xF74 DUP1 PUSH2 0x1C PUSH0 CODECOPY PUSH0 RETURN INVALID PUSH1 0x80 PUSH1 0x40 MSTORE CALLVALUE DUP1 ISZERO PUSH2 0xF JUMPI PUSH0 DUP1 REVERT JUMPDEST POP PUSH1 0x4 CALLDATASIZE LT PUSH2 0x86 JUMPI PUSH0 CALLDATALOAD PUSH1 0xE0 SHR DUP1 PUSH4 0xA3EC138D GT PUSH2 0x59 JUMPI DUP1 PUSH4 0xA3EC138D EQ PUSH2 0xFE JUMPI DUP1 PUSH4 0xB04E55ED EQ PUSH2 0x12E JUMPI DUP1 PUSH4 0xC5E7E32B EQ PUSH2 0x14C JUMPI DUP1 PUSH4 0xEEC6B91E EQ PUSH2 0x17C JUMPI PUSH2 0x86 JUMP JUMPDEST DUP1 PUSH4 0x121B93F EQ PUSH2 0x8A JUMPI DUP1 PUSH4 0x3554FD8F EQ PUSH2 0xA6 JUMPI DUP1 PUSH4 0x36B8DDD3 EQ PUSH2 0xC4 JUMPI DUP1 PUSH4 0xA15A36C7 EQ PUSH2 0xE2 JUMPI JUMPDEST PUSH0 DUP1 REVERT JUMPDEST PUSH2 0xA4 PUSH1 0x4 DUP1 CALLDATASIZE SUB DUP2 ADD SWAP1 PUSH2 0x9F SWAP2 SWAP1 PUSH2 0x672 JUMP JUMPDEST PUSH2 0x1AF JUMP JUMPDEST STOP JUMPDEST PUSH2 0xAE PUSH2 0x3E0 JUMP JUMPDEST PUSH1 0x40 MLOAD PUSH2 0xBB SWAP2 SWAP1 PUSH2 0x6AC JUMP JUMPDEST PUSH1 0x40 MLOAD DUP1 SWAP2 SUB SWAP1 RETURN JUMPDEST PUSH2 0xCC PUSH2 0x3E6 JUMP JUMPDEST PUSH1 0x40 MLOAD PUSH2 0xD9 SWAP2 SWAP1 PUSH2 0x6AC JUMP JUMPDEST PUSH1 0x40 MLOAD DUP1 SWAP2 SUB SWAP1 RETURN JUMPDEST PUSH2 0xFC PUSH1 0x4 DUP1 CALLDATASIZE SUB DUP2 ADD SWAP1 PUSH2 0xF7 SWAP2 SWAP1 PUSH2 0x6C5 JUMP JUMPDEST PUSH2 0x3EC JUMP JUMPDEST STOP JUMPDEST PUSH2 0x118 PUSH1 0x4 DUP1 CALLDATASIZE SUB DUP2 ADD SWAP1 PUSH2 0x113 SWAP2 SWAP1 PUSH2 0x75D JUMP JUMPDEST PUSH2 0x3FE JUMP JUMPDEST PUSH1 0x40 MLOAD PUSH2 0x125 SWAP2 SWAP1 PUSH2 0x7A2 JUMP JUMPDEST PUSH1 0x40 MLOAD DUP1 SWAP2 SUB SWAP1 RETURN JUMPDEST PUSH2 0x136 PUSH2 0x41B JUMP JUMPDEST PUSH1 0x40 MLOAD PUSH2 0x143 SWAP2 SWAP1 PUSH2 0x6AC JUMP JUMPDEST PUSH1 0x40 MLOAD DUP1 SWAP2 SUB SWAP1 RETURN JUMPDEST PUSH2 0x166 PUSH1 0x4 DUP1 CALLDATASIZE SUB DUP2 ADD SWAP1 PUSH2 0x161 SWAP2 SWAP1 PUSH2 0x8F7 JUMP JUMPDEST PUSH2 0x421 JUMP JUMPDEST PUSH1 0x40 MLOAD PUSH2 0x173 SWAP2 SWAP1 PUSH2 0x6AC JUMP JUMPDEST PUSH1 0x40 MLOAD DUP1 SWAP2 SUB SWAP1 RETURN JUMPDEST PUSH2 0x196 PUSH1 0x4 DUP1 CALLDATASIZE SUB DUP2 ADD SWAP1 PUSH2 0x191 SWAP2 SWAP1 PUSH2 0x672 JUMP JUMPDEST PUSH2 0x4F7 JUMP JUMPDEST PUSH1 0x40 MLOAD PUSH2 0x1A6 SWAP5 SWAP4 SWAP3 SWAP2 SWAP1 PUSH2 0x9CD JUMP JUMPDEST PUSH1 0x40 MLOAD DUP1 SWAP2 SUB SWAP1 RETURN JUMPDEST PUSH1 0x4 SLOAD TIMESTAMP LT ISZERO PUSH2 0x1F4 JUMPI PUSH1 0x40 MLOAD PUSH32 0x8C379A000000000000000000000000000000000000000000000000000000000 DUP2 MSTORE PUSH1 0x4 ADD PUSH2 0x1EB SWAP1 PUSH2 0xA68 JUMP JUMPDEST PUSH1 0x40 MLOAD DUP1 SWAP2 SUB SWAP1 REVERT JUMPDEST PUSH1 0x3 SLOAD TIMESTAMP GT ISZERO PUSH2 0x239 JUMPI PUSH1 0x40 MLOAD PUSH32 0x8C379A000000000000000000000000000000000000000000000000000000000 DUP2 MSTORE PUSH1 0x4 ADD PUSH2 0x230 SWAP1 PUSH2 0xAD0 JUMP JUMPDEST PUSH1 0x40 MLOAD DUP1 SWAP2 SUB SWAP1 REVERT JUMPDEST PUSH0 DUP2 GT DUP1 ISZERO PUSH2 0x24A JUMPI POP PUSH1 0x2 SLOAD DUP2 GT ISZERO JUMPDEST PUSH2 0x289 JUMPI PUSH1 0x40 MLOAD PUSH32 0x8C379A000000000000000000000000000000000000000000000000000000000 DUP2 MSTORE PUSH1 0x4 ADD PUSH2 0x280 SWAP1 PUSH2 0xB38 JUMP JUMPDEST PUSH1 0x40 MLOAD DUP1 SWAP2 SUB SWAP1 REVERT JUMPDEST PUSH1 0x1 PUSH0 CALLER PUSH20 0xFFFFFFFFFFFFFFFFFFFFFFFFFFFFFFFFFFFFFFFF AND PUSH20 0xFFFFFFFFFFFFFFFFFFFFFFFFFFFFFFFFFFFFFFFF AND DUP2 MSTORE PUSH1 0x20 ADD SWAP1 DUP2 MSTORE PUSH1 0x20 ADD PUSH0 KECCAK256 PUSH0 SWAP1 SLOAD SWAP1 PUSH2 0x100 EXP SWAP1 DIV PUSH1 0xFF AND ISZERO PUSH2 0x313 JUMPI PUSH1 0x40 MLOAD PUSH32 0x8C379A000000000000000000000000000000000000000000000000000000000 DUP2 MSTORE PUSH1 0x4 ADD PUSH2 0x30A SWAP1 PUSH2 0xBA0 JUMP JUMPDEST PUSH1 0x40 MLOAD DUP1 SWAP2 SUB SWAP1 REVERT JUMPDEST PUSH1 0x1 DUP1 PUSH0 CALLER PUSH20 0xFFFFFFFFFFFFFFFFFFFFFFFFFFFFFFFFFFFFFFFF AND PUSH20 0xFFFFFFFFFFFFFFFFFFFFFFFFFFFFFFFFFFFFFFFF AND DUP2 MSTORE PUSH1 0x20 ADD SWAP1 DUP2 MSTORE PUSH1 0x20 ADD PUSH0 KECCAK256 PUSH0 PUSH2 0x100 EXP DUP2 SLOAD DUP2 PUSH1 0xFF MUL NOT AND SWAP1 DUP4 ISZERO ISZERO MUL OR SWAP1 SSTORE POP PUSH0 DUP1 DUP3 DUP2 MSTORE PUSH1 0x20 ADD SWAP1 DUP2 MSTORE PUSH1 0x20 ADD PUSH0 KECCAK256 PUSH1 0x3 ADD PUSH0 DUP2 SLOAD DUP1 SWAP3 SWAP2 SWAP1 PUSH2 0x38A SWAP1 PUSH2 0xBEB JUMP JUMPDEST SWAP2 SWAP1 POP SSTORE POP CALLER PUSH20 0xFFFFFFFFFFFFFFFFFFFFFFFFFFFFFFFFFFFFFFFF AND PUSH32 0xA36CC2BEBB74DB33E9F88110A07EF56E1B31B24B4C4F51B54B1664266E29F45B DUP3 PUSH1 0x40 MLOAD PUSH2 0x3D5 SWAP2 SWAP1 PUSH2 0x6AC JUMP JUMPDEST PUSH1 0x40 MLOAD DUP1 SWAP2 SUB SWAP1 LOG2 POP JUMP JUMPDEST PUSH1 0x4 SLOAD DUP2 JUMP JUMPDEST PUSH1 0x3 SLOAD DUP2 JUMP JUMPDEST DUP2 PUSH1 0x4 DUP2 SWAP1 SSTORE POP DUP1 PUSH1 0x3 DUP2 SWAP1 SSTORE POP POP POP JUMP JUMPDEST PUSH1 0x1 PUSH1 0x20 MSTORE DUP1 PUSH0 MSTORE PUSH1 0x40 PUSH0 KECCAK256 PUSH0 SWAP2 POP SLOAD SWAP1 PUSH2 0x100 EXP SWAP1 DIV PUSH1 0xFF AND DUP2 JUMP JUMPDEST PUSH1 0x2 SLOAD DUP2 JUMP JUMPDEST PUSH0 PUSH1 0x2 PUSH0 DUP2 SLOAD DUP1 SWAP3 SWAP2 SWAP1 PUSH2 0x434 SWAP1 PUSH2 0xBEB JUMP JUMPDEST SWAP2 SWAP1 POP SSTORE POP PUSH1 0x40 MLOAD DUP1 PUSH1 0x80 ADD PUSH1 0x40 MSTORE DUP1 PUSH1 0x2 SLOAD DUP2 MSTORE PUSH1 0x20 ADD DUP5 DUP2 MSTORE PUSH1 0x20 ADD DUP4 DUP2 MSTORE PUSH1 0x20 ADD PUSH0 DUP2 MSTORE POP PUSH0 DUP1 PUSH1 0x2 SLOAD DUP2 MSTORE PUSH1 0x20 ADD SWAP1 DUP2 MSTORE PUSH1 0x20 ADD PUSH0 KECCAK256 PUSH0 DUP3 ADD MLOAD DUP2 PUSH0 ADD SSTORE PUSH1 0x20 DUP3 ADD MLOAD DUP2 PUSH1 0x1 ADD SWAP1 DUP2 PUSH2 0x48B SWAP2 SWAP1 PUSH2 0xE2C JUMP JUMPDEST POP PUSH1 0x40 DUP3 ADD MLOAD DUP2 PUSH1 0x2 ADD SWAP1 DUP2 PUSH2 0x4A1 SWAP2 SWAP1 PUSH2 0xE2C JUMP JUMPDEST POP PUSH1 0x60 DUP3 ADD MLOAD DUP2 PUSH1 0x3 ADD SSTORE SWAP1 POP POP PUSH32 0x77B4DCB988ABB2C1590106152EA1343570A0DC2311B55AF21E6A5EB6BD02278A PUSH1 0x2 SLOAD DUP5 DUP5 PUSH1 0x40 MLOAD PUSH2 0x4E4 SWAP4 SWAP3 SWAP2 SWAP1 PUSH2 0xEFB JUMP JUMPDEST PUSH1 0x40 MLOAD DUP1 SWAP2 SUB SWAP1 LOG1 PUSH1 0x2 SLOAD SWAP1 POP SWAP3 SWAP2 POP POP JUMP JUMPDEST PUSH0 PUSH1 0x20 MSTORE DUP1 PUSH0 MSTORE PUSH1 0x40 PUSH0 KECCAK256 PUSH0 SWAP2 POP SWAP1 POP DUP1 PUSH0 ADD SLOAD SWAP1 DUP1 PUSH1 0x1 ADD DUP1 SLOAD PUSH2 0x51B SWAP1 PUSH2 0xC5F JUMP JUMPDEST DUP1 PUSH1 0x1F ADD PUSH1 0x20 DUP1 SWAP2 DIV MUL PUSH1 0x20 ADD PUSH1 0x40 MLOAD SWAP1 DUP2 ADD PUSH1 0x40 MSTORE DUP1 SWAP3 SWAP2 SWAP1 DUP2 DUP2 MSTORE PUSH1 0x20 ADD DUP3 DUP1 SLOAD PUSH2 0x547 SWAP1 PUSH2 0xC5F JUMP JUMPDEST DUP1 ISZERO PUSH2 0x592 JUMPI DUP1 PUSH1 0x1F LT PUSH2 0x569 JUMPI PUSH2 0x100 DUP1 DUP4 SLOAD DIV MUL DUP4 MSTORE SWAP2 PUSH1 0x20 ADD SWAP2 PUSH2 0x592 JUMP JUMPDEST DUP3 ADD SWAP2 SWAP1 PUSH0 MSTORE PUSH1 0x20 PUSH0 KECCAK256 SWAP1 JUMPDEST DUP2 SLOAD DUP2 MSTORE SWAP1 PUSH1 0x1 ADD SWAP1 PUSH1 0x20 ADD DUP1 DUP4 GT PUSH2 0x575 JUMPI DUP3 SWAP1 SUB PUSH1 0x1F AND DUP3 ADD SWAP2 JUMPDEST POP POP POP POP POP SWAP1 DUP1 PUSH1 0x2 ADD DUP1 SLOAD PUSH2 0x5A7 SWAP1 PUSH2 0xC5F JUMP JUMPDEST DUP1 PUSH1 0x1F ADD PUSH1 0x20 DUP1 SWAP2 DIV MUL PUSH1 0x20 ADD PUSH1 0x40 MLOAD SWAP1 DUP2 ADD PUSH1 0x40 MSTORE DUP1 SWAP3 SWAP2 SWAP1 DUP2 DUP2 MSTORE PUSH1 0x20 ADD DUP3 DUP1 SLOAD PUSH2 0x5D3 SWAP1 PUSH2 0xC5F JUMP JUMPDEST DUP1 ISZERO PUSH2 0x61E JUMPI DUP1 PUSH1 0x1F LT PUSH2 0x5F5 JUMPI PUSH2 0x100 DUP1 DUP4 SLOAD DIV MUL DUP4 MSTORE SWAP2 PUSH1 0x20 ADD SWAP2 PUSH2 0x61E JUMP JUMPDEST DUP3 ADD SWAP2 SWAP1 PUSH0 MSTORE PUSH1 0x20 PUSH0 KECCAK256 SWAP1 JUMPDEST DUP2 SLOAD DUP2 MSTORE SWAP1 PUSH1 0x1 ADD SWAP1 PUSH1 0x20 ADD DUP1 DUP4 GT PUSH2 0x601 JUMPI DUP3 SWAP1 SUB PUSH1 0x1F AND DUP3 ADD SWAP2 JUMPDEST POP POP POP POP POP SWAP1 DUP1 PUSH1 0x3 ADD SLOAD SWAP1 POP DUP5 JUMP JUMPDEST PUSH0 PUSH1 0x40 MLOAD SWAP1 POP SWAP1 JUMP JUMPDEST PUSH0 DUP1 REVERT JUMPDEST PUSH0 DUP1 REVERT JUMPDEST PUSH0 DUP2 SWAP1 POP SWAP2 SWAP1 POP JUMP JUMPDEST PUSH2 0x651 DUP2 PUSH2 0x63F JUMP JUMPDEST DUP2 EQ PUSH2 0x65B JUMPI PUSH0 DUP1 REVERT JUMPDEST POP JUMP JUMPDEST PUSH0 DUP2 CALLDATALOAD SWAP1 POP PUSH2 0x66C DUP2 PUSH2 0x648 JUMP JUMPDEST SWAP3 SWAP2 POP POP JUMP JUMPDEST PUSH0 PUSH1 0x20 DUP3 DUP5 SUB SLT ISZERO PUSH2 0x687 JUMPI PUSH2 0x686 PUSH2 0x637 JUMP JUMPDEST JUMPDEST PUSH0 PUSH2 0x694 DUP5 DUP3 DUP6 ADD PUSH2 0x65E JUMP JUMPDEST SWAP2 POP POP SWAP3 SWAP2 POP POP JUMP JUMPDEST PUSH2 0x6A6 DUP2 PUSH2 0x63F JUMP JUMPDEST DUP3 MSTORE POP POP JUMP JUMPDEST PUSH0 PUSH1 0x20 DUP3 ADD SWAP1 POP PUSH2 0x6BF PUSH0 DUP4 ADD DUP5 PUSH2 0x69D JUMP JUMPDEST SWAP3 SWAP2 POP POP JUMP JUMPDEST PUSH0 DUP1 PUSH1 0x40 DUP4 DUP6 SUB SLT ISZERO PUSH2 0x6DB JUMPI PUSH2 0x6DA PUSH2 0x637 JUMP JUMPDEST JUMPDEST PUSH0 PUSH2 0x6E8 DUP6 DUP3 DUP7 ADD PUSH2 0x65E JUMP JUMPDEST SWAP3 POP POP PUSH1 0x20 PUSH2 0x6F9 DUP6 DUP3 DUP7 ADD PUSH2 0x65E JUMP JUMPDEST SWAP2 POP POP SWAP3 POP SWAP3 SWAP1 POP JUMP JUMPDEST PUSH0 PUSH20 0xFFFFFFFFFFFFFFFFFFFFFFFFFFFFFFFFFFFFFFFF DUP3 AND SWAP1 POP SWAP2 SWAP1 POP JUMP JUMPDEST PUSH0 PUSH2 0x72C DUP3 PUSH2 0x703 JUMP JUMPDEST SWAP1 POP SWAP2 SWAP1 POP JUMP JUMPDEST PUSH2 0x73C DUP2 PUSH2 0x722 JUMP JUMPDEST DUP2 EQ PUSH2 0x746 JUMPI PUSH0 DUP1 REVERT JUMPDEST POP JUMP JUMPDEST PUSH0 DUP2 CALLDATALOAD SWAP1 POP PUSH2 0x757 DUP2 PUSH2 0x733 JUMP JUMPDEST SWAP3 SWAP2 POP POP JUMP JUMPDEST PUSH0 PUSH1 0x20 DUP3 DUP5 SUB SLT ISZERO PUSH2 0x772 JUMPI PUSH2 0x771 PUSH2 0x637 JUMP JUMPDEST JUMPDEST PUSH0 PUSH2 0x77F DUP5 DUP3 DUP6 ADD PUSH2 0x749 JUMP JUMPDEST SWAP2 POP POP SWAP3 SWAP2 POP POP JUMP JUMPDEST PUSH0 DUP2 ISZERO ISZERO SWAP1 POP SWAP2 SWAP1 POP JUMP JUMPDEST PUSH2 0x79C DUP2 PUSH2 0x788 JUMP JUMPDEST DUP3 MSTORE POP POP JUMP JUMPDEST PUSH0 PUSH1 0x20 DUP3 ADD SWAP1 POP PUSH2 0x7B5 PUSH0 DUP4 ADD DUP5 PUSH2 0x793 JUMP JUMPDEST SWAP3 SWAP2 POP POP JUMP JUMPDEST PUSH0 DUP1 REVERT JUMPDEST PUSH0 DUP1 REVERT JUMPDEST PUSH0 PUSH1 0x1F NOT PUSH1 0x1F DUP4 ADD AND SWAP1 POP SWAP2 SWAP1 POP JUMP JUMPDEST PUSH32 0x4E487B7100000000000000000000000000000000000000000000000000000000 PUSH0 MSTORE PUSH1 0x41 PUSH1 0x4 MSTORE PUSH1 0x24 PUSH0 REVERT JUMPDEST PUSH2 0x809 DUP3 PUSH2 0x7C3 JUMP JUMPDEST DUP2 ADD DUP2 DUP2 LT PUSH8 0xFFFFFFFFFFFFFFFF DUP3 GT OR ISZERO PUSH2 0x828 JUMPI PUSH2 0x827 PUSH2 0x7D3 JUMP JUMPDEST JUMPDEST DUP1 PUSH1 0x40 MSTORE POP POP POP JUMP JUMPDEST PUSH0 PUSH2 0x83A PUSH2 0x62E JUMP JUMPDEST SWAP1 POP PUSH2 0x846 DUP3 DUP3 PUSH2 0x800 JUMP JUMPDEST SWAP2 SWAP1 POP JUMP JUMPDEST PUSH0 PUSH8 0xFFFFFFFFFFFFFFFF DUP3 GT ISZERO PUSH2 0x865 JUMPI PUSH2 0x864 PUSH2 0x7D3 JUMP JUMPDEST JUMPDEST PUSH2 0x86E DUP3 PUSH2 0x7C3 JUMP JUMPDEST SWAP1 POP PUSH1 0x20 DUP2 ADD SWAP1 POP SWAP2 SWAP1 POP JUMP JUMPDEST DUP3 DUP2 DUP4 CALLDATACOPY PUSH0 DUP4 DUP4 ADD MSTORE POP POP POP JUMP JUMPDEST PUSH0 PUSH2 0x89B PUSH2 0x896 DUP5 PUSH2 0x84B JUMP JUMPDEST PUSH2 0x831 JUMP JUMPDEST SWAP1 POP DUP3 DUP2 MSTORE PUSH1 0x20 DUP2 ADD DUP5 DUP5 DUP5 ADD GT ISZERO PUSH2 0x8B7 JUMPI PUSH2 0x8B6 PUSH2 0x7BF JUMP JUMPDEST JUMPDEST PUSH2 0x8C2 DUP5 DUP3 DUP6 PUSH2 0x87B JUMP JUMPDEST POP SWAP4 SWAP3 POP POP POP JUMP JUMPDEST PUSH0 DUP3 PUSH1 0x1F DUP4 ADD SLT PUSH2 0x8DE JUMPI PUSH2 0x8DD PUSH2 0x7BB JUMP JUMPDEST JUMPDEST DUP2 CALLDATALOAD PUSH2 0x8EE DUP5 DUP3 PUSH1 0x20 DUP7 ADD PUSH2 0x889 JUMP JUMPDEST SWAP2 POP POP SWAP3 SWAP2 POP POP JUMP JUMPDEST PUSH0 DUP1 PUSH1 0x40 DUP4 DUP6 SUB SLT ISZERO PUSH2 0x90D JUMPI PUSH2 0x90C PUSH2 0x637 JUMP JUMPDEST JUMPDEST PUSH0 DUP4 ADD CALLDATALOAD PUSH8 0xFFFFFFFFFFFFFFFF DUP2 GT ISZERO PUSH2 0x92A JUMPI PUSH2 0x929 PUSH2 0x63B JUMP JUMPDEST JUMPDEST PUSH2 0x936 DUP6 DUP3 DUP7 ADD PUSH2 0x8CA JUMP JUMPDEST SWAP3 POP POP PUSH1 0x20 DUP4 ADD CALLDATALOAD PUSH8 0xFFFFFFFFFFFFFFFF DUP2 GT ISZERO PUSH2 0x957 JUMPI PUSH2 0x956 PUSH2 0x63B JUMP JUMPDEST JUMPDEST PUSH2 0x963 DUP6 DUP3 DUP7 ADD PUSH2 0x8CA JUMP JUMPDEST SWAP2 POP POP SWAP3 POP SWAP3 SWAP1 POP JUMP JUMPDEST PUSH0 DUP2 MLOAD SWAP1 POP SWAP2 SWAP1 POP JUMP JUMPDEST PUSH0 DUP3 DUP3 MSTORE PUSH1 0x20 DUP3 ADD SWAP1 POP SWAP3 SWAP2 POP POP JUMP JUMPDEST DUP3 DUP2 DUP4 MCOPY PUSH0 DUP4 DUP4 ADD MSTORE POP POP POP JUMP JUMPDEST PUSH0 PUSH2 0x99F DUP3 PUSH2 0x96D JUMP JUMPDEST PUSH2 0x9A9 DUP2 DUP6 PUSH2 0x977 JUMP JUMPDEST SWAP4 POP PUSH2 0x9B9 DUP2 DUP6 PUSH1 0x20 DUP7 ADD PUSH2 0x987 JUMP JUMPDEST PUSH2 0x9C2 DUP2 PUSH2 0x7C3 JUMP JUMPDEST DUP5 ADD SWAP2 POP POP SWAP3 SWAP2 POP POP JUMP JUMPDEST PUSH0 PUSH1 0x80 DUP3 ADD SWAP1 POP PUSH2 0x9E0 PUSH0 DUP4 ADD DUP8 PUSH2 0x69D JUMP JUMPDEST DUP2 DUP2 SUB PUSH1 0x20 DUP4 ADD MSTORE PUSH2 0x9F2 DUP2 DUP7 PUSH2 0x995 JUMP JUMPDEST SWAP1 POP DUP2 DUP2 SUB PUSH1 0x40 DUP4 ADD MSTORE PUSH2 0xA06 DUP2 DUP6 PUSH2 0x995 JUMP JUMPDEST SWAP1 POP PUSH2 0xA15 PUSH1 0x60 DUP4 ADD DUP5 PUSH2 0x69D JUMP JUMPDEST SWAP6 SWAP5 POP POP POP POP POP JUMP JUMPDEST PUSH32 0x566F74696E6720686173206E6F74207374617274656420796574000000000000 PUSH0 DUP3 ADD MSTORE POP JUMP JUMPDEST PUSH0 PUSH2 0xA52 PUSH1 0x1A DUP4 PUSH2 0x977 JUMP JUMPDEST SWAP2 POP PUSH2 0xA5D DUP3 PUSH2 0xA1E JUMP JUMPDEST PUSH1 0x20 DUP3 ADD SWAP1 POP SWAP2 SWAP1 POP JUMP JUMPDEST PUSH0 PUSH1 0x20 DUP3 ADD SWAP1 POP DUP2 DUP2 SUB PUSH0 DUP4 ADD MSTORE PUSH2 0xA7F DUP2 PUSH2 0xA46 JUMP JUMPDEST SWAP1 POP SWAP2 SWAP1 POP JUMP JUMPDEST PUSH32 0x566F746520436C6F736564000000000000000000000000000000000000000000 PUSH0 DUP3 ADD MSTORE POP JUMP JUMPDEST PUSH0 PUSH2 0xABA PUSH1 0xB DUP4 PUSH2 0x977 JUMP JUMPDEST SWAP2 POP PUSH2 0xAC5 DUP3 PUSH2 0xA86 JUMP JUMPDEST PUSH1 0x20 DUP3 ADD SWAP1 POP SWAP2 SWAP1 POP JUMP JUMPDEST PUSH0 PUSH1 0x20 DUP3 ADD SWAP1 POP DUP2 DUP2 SUB PUSH0 DUP4 ADD MSTORE PUSH2 0xAE7 DUP2 PUSH2 0xAAE JUMP JUMPDEST SWAP1 POP SWAP2 SWAP1 POP JUMP JUMPDEST PUSH32 0x496E76616C6964206E6F6D696E65652049440000000000000000000000000000 PUSH0 DUP3 ADD MSTORE POP JUMP JUMPDEST PUSH0 PUSH2 0xB22 PUSH1 0x12 DUP4 PUSH2 0x977 JUMP JUMPDEST SWAP2 POP PUSH2 0xB2D DUP3 PUSH2 0xAEE JUMP JUMPDEST PUSH1 0x20 DUP3 ADD SWAP1 POP SWAP2 SWAP1 POP JUMP JUMPDEST PUSH0 PUSH1 0x20 DUP3 ADD SWAP1 POP DUP2 DUP2 SUB PUSH0 DUP4 ADD MSTORE PUSH2 0xB4F DUP2 PUSH2 0xB16 JUMP JUMPDEST SWAP1 POP SWAP2 SWAP1 POP JUMP JUMPDEST PUSH32 0x596F75206861766520616C726561647920766F74656400000000000000000000 PUSH0 DUP3 ADD MSTORE POP JUMP JUMPDEST PUSH0 PUSH2 0xB8A PUSH1 0x16 DUP4 PUSH2 0x977 JUMP JUMPDEST SWAP2 POP PUSH2 0xB95 DUP3 PUSH2 0xB56 JUMP JUMPDEST PUSH1 0x20 DUP3 ADD SWAP1 POP SWAP2 SWAP1 POP JUMP JUMPDEST PUSH0 PUSH1 0x20 DUP3 ADD SWAP1 POP DUP2 DUP2 SUB PUSH0 DUP4 ADD MSTORE PUSH2 0xBB7 DUP2 PUSH2 0xB7E JUMP JUMPDEST SWAP1 POP SWAP2 SWAP1 POP JUMP JUMPDEST PUSH32 0x4E487B7100000000000000000000000000000000000000000000000000000000 PUSH0 MSTORE PUSH1 0x11 PUSH1 0x4 MSTORE PUSH1 0x24 PUSH0 REVERT JUMPDEST PUSH0 PUSH2 0xBF5 DUP3 PUSH2 0x63F JUMP JUMPDEST SWAP2 POP PUSH32 0xFFFFFFFFFFFFFFFFFFFFFFFFFFFFFFFFFFFFFFFFFFFFFFFFFFFFFFFFFFFFFFFF DUP3 SUB PUSH2 0xC27 JUMPI PUSH2 0xC26 PUSH2 0xBBE JUMP JUMPDEST JUMPDEST PUSH1 0x1 DUP3 ADD SWAP1 POP SWAP2 SWAP1 POP JUMP JUMPDEST PUSH32 0x4E487B7100000000000000000000000000000000000000000000000000000000 PUSH0 MSTORE PUSH1 0x22 PUSH1 0x4 MSTORE PUSH1 0x24 PUSH0 REVERT JUMPDEST PUSH0 PUSH1 0x2 DUP3 DIV SWAP1 POP PUSH1 0x1 DUP3 AND DUP1 PUSH2 0xC76 JUMPI PUSH1 0x7F DUP3 AND SWAP2 POP JUMPDEST PUSH1 0x20 DUP3 LT DUP2 SUB PUSH2 0xC89 JUMPI PUSH2 0xC88 PUSH2 0xC32 JUMP JUMPDEST JUMPDEST POP SWAP2 SWAP1 POP JUMP JUMPDEST PUSH0 DUP2 SWAP1 POP DUP2 PUSH0 MSTORE PUSH1 0x20 PUSH0 KECCAK256 SWAP1 POP SWAP2 SWAP1 POP JUMP JUMPDEST PUSH0 PUSH1 0x20 PUSH1 0x1F DUP4 ADD DIV SWAP1 POP SWAP2 SWAP1 POP JUMP JUMPDEST PUSH0 DUP3 DUP3 SHL SWAP1 POP SWAP3 SWAP2 POP POP JUMP JUMPDEST PUSH0 PUSH1 0x8 DUP4 MUL PUSH2 0xCEB PUSH32 0xFFFFFFFFFFFFFFFFFFFFFFFFFFFFFFFFFFFFFFFFFFFFFFFFFFFFFFFFFFFFFFFF DUP3 PUSH2 0xCB0 JUMP JUMPDEST PUSH2 0xCF5 DUP7 DUP4 PUSH2 0xCB0 JUMP JUMPDEST SWAP6 POP DUP1 NOT DUP5 AND SWAP4 POP DUP1 DUP7 AND DUP5 OR SWAP3 POP POP POP SWAP4 SWAP3 POP POP POP JUMP JUMPDEST PUSH0 DUP2 SWAP1 POP SWAP2 SWAP1 POP JUMP JUMPDEST PUSH0 PUSH2 0xD30 PUSH2 0xD2B PUSH2 0xD26 DUP5 PUSH2 0x63F JUMP JUMPDEST PUSH2 0xD0D JUMP JUMPDEST PUSH2 0x63F JUMP JUMPDEST SWAP1 POP SWAP2 SWAP1 POP JUMP JUMPDEST PUSH0 DUP2 SWAP1 POP SWAP2 SWAP1 POP JUMP JUMPDEST PUSH2 0xD49 DUP4 PUSH2 0xD16 JUMP JUMPDEST PUSH2 0xD5D PUSH2 0xD55 DUP3 PUSH2 0xD37 JUMP JUMPDEST DUP5 DUP5 SLOAD PUSH2 0xCBC JUMP JUMPDEST DUP3 SSTORE POP POP POP POP JUMP JUMPDEST PUSH0 SWAP1 JUMP JUMPDEST PUSH2 0xD71 PUSH2 0xD65 JUMP JUMPDEST PUSH2 0xD7C DUP2 DUP5 DUP5 PUSH2 0xD40 JUMP JUMPDEST POP POP POP JUMP JUMPDEST JUMPDEST DUP2 DUP2 LT ISZERO PUSH2 0xD9F JUMPI PUSH2 0xD94 PUSH0 DUP3 PUSH2 0xD69 JUMP JUMPDEST PUSH1 0x1 DUP2 ADD SWAP1 POP PUSH2 0xD82 JUMP JUMPDEST POP POP JUMP JUMPDEST PUSH1 0x1F DUP3 GT ISZERO PUSH2 0xDE4 JUMPI PUSH2 0xDB5 DUP2 PUSH2 0xC8F JUMP JUMPDEST PUSH2 0xDBE DUP5 PUSH2 0xCA1 JUMP JUMPDEST DUP2 ADD PUSH1 0x20 DUP6 LT ISZERO PUSH2 0xDCD JUMPI DUP2 SWAP1 POP JUMPDEST PUSH2 0xDE1 PUSH2 0xDD9 DUP6 PUSH2 0xCA1 JUMP JUMPDEST DUP4 ADD DUP3 PUSH2 0xD81 JUMP JUMPDEST POP POP JUMPDEST POP POP POP JUMP JUMPDEST PUSH0 DUP3 DUP3 SHR SWAP1 POP SWAP3 SWAP2 POP POP JUMP JUMPDEST PUSH0 PUSH2 0xE04 PUSH0 NOT DUP5 PUSH1 0x8 MUL PUSH2 0xDE9 JUMP JUMPDEST NOT DUP1 DUP4 AND SWAP2 POP POP SWAP3 SWAP2 POP POP JUMP JUMPDEST PUSH0 PUSH2 0xE1C DUP4 DUP4 PUSH2 0xDF5 JUMP JUMPDEST SWAP2 POP DUP3 PUSH1 0x2 MUL DUP3 OR SWAP1 POP SWAP3 SWAP2 POP POP JUMP JUMPDEST PUSH2 0xE35 DUP3 PUSH2 0x96D JUMP JUMPDEST PUSH8 0xFFFFFFFFFFFFFFFF DUP2 GT ISZERO PUSH2 0xE4E JUMPI PUSH2 0xE4D PUSH2 0x7D3 JUMP JUMPDEST JUMPDEST PUSH2 0xE58 DUP3 SLOAD PUSH2 0xC5F JUMP JUMPDEST PUSH2 0xE63 DUP3 DUP3 DUP6 PUSH2 0xDA3 JUMP JUMPDEST PUSH0 PUSH1 0x20 SWAP1 POP PUSH1 0x1F DUP4 GT PUSH1 0x1 DUP2 EQ PUSH2 0xE94 JUMPI PUSH0 DUP5 ISZERO PUSH2 0xE82 JUMPI DUP3 DUP8 ADD MLOAD SWAP1 POP JUMPDEST PUSH2 0xE8C DUP6 DUP3 PUSH2 0xE11 JUMP JUMPDEST DUP7 SSTORE POP PUSH2 0xEF3 JUMP JUMPDEST PUSH1 0x1F NOT DUP5 AND PUSH2 0xEA2 DUP7 PUSH2 0xC8F JUMP JUMPDEST PUSH0 JUMPDEST DUP3 DUP2 LT ISZERO PUSH2 0xEC9 JUMPI DUP5 DUP10 ADD MLOAD DUP3 SSTORE PUSH1 0x1 DUP3 ADD SWAP2 POP PUSH1 0x20 DUP6 ADD SWAP5 POP PUSH1 0x20 DUP2 ADD SWAP1 POP PUSH2 0xEA4 JUMP JUMPDEST DUP7 DUP4 LT ISZERO PUSH2 0xEE6 JUMPI DUP5 DUP10 ADD MLOAD PUSH2 0xEE2 PUSH1 0x1F DUP10 AND DUP3 PUSH2 0xDF5 JUMP JUMPDEST DUP4 SSTORE POP JUMPDEST PUSH1 0x1 PUSH1 0x2 DUP9 MUL ADD DUP9 SSTORE POP POP POP JUMPDEST POP POP POP POP POP POP JUMP JUMPDEST PUSH0 PUSH1 0x60 DUP3 ADD SWAP1 POP PUSH2 0xF0E PUSH0 DUP4 ADD DUP7 PUSH2 0x69D JUMP JUMPDEST DUP2 DUP2 SUB PUSH1 0x20 DUP4 ADD MSTORE PUSH2 0xF20 DUP2 DUP6 PUSH2 0x995 JUMP JUMPDEST SWAP1 POP DUP2 DUP2 SUB PUSH1 0x40 DUP4 ADD MSTORE PUSH2 0xF34 DUP2 DUP5 PUSH2 0x995 JUMP JUMPDEST SWAP1 POP SWAP5 SWAP4 POP POP POP POP JUMP INVALID LOG2 PUSH5 0x6970667358 0x22 SLT KECCAK256 GT DUP10 0xC2 DELEGATECALL DUP4 0xA5 0x4C 0xA8 0x2C PUSH12 0xDCC22854FB072254ED3C6A8A 0x27 PUSH7 0x548D8EAC9D4D9C 0xBB PUSH5 0x736F6C6343 STOP ADDMOD BYTE STOP CALLER "
				},
				"gasEstimates": {
					"creation": {
						"codeDepositCost": "791200",
						"executionCost": "823",
						"totalCost": "792023"
					},
					"external": {
						"addNominee(string,string)": "infinite",
						"countNominees()": "2447",
						"nominees(uint256)": "infinite",
						"setVotingPeriod(uint256,uint256)": "infinite",
						"vote(uint256)": "infinite",
						"voters(address)": "2833",
						"votingBegin()": "2448",
						"votingClose()": "2470"
					}
				},
				"methodIdentifiers": {
					"addNominee(string,string)": "c5e7e32b",
					"countNominees()": "b04e55ed",
					"nominees(uint256)": "eec6b91e",
					"setVotingPeriod(uint256,uint256)": "a15a36c7",
					"vote(uint256)": "0121b93f",
					"voters(address)": "a3ec138d",
					"votingBegin()": "3554fd8f",
					"votingClose()": "36b8ddd3"
				}
			},
			"storageLayout": {
				"storage": [
					{
						"astId": 15,
						"contract": "contracts/Vote.sol:Vote",
						"label": "nominees",
						"offset": 0,
						"slot": "0",
						"type": "t_mapping(t_uint256,t_struct(Nominee)10_storage)"
					},
					{
						"astId": 19,
						"contract": "contracts/Vote.sol:Vote",
						"label": "voters",
						"offset": 0,
						"slot": "1",
						"type": "t_mapping(t_address,t_bool)"
					},
					{
						"astId": 21,
						"contract": "contracts/Vote.sol:Vote",
						"label": "countNominees",
						"offset": 0,
						"slot": "2",
						"type": "t_uint256"
					},
					{
						"astId": 23,
						"contract": "contracts/Vote.sol:Vote",
						"label": "votingClose",
						"offset": 0,
						"slot": "3",
						"type": "t_uint256"
					},
					{
						"astId": 25,
						"contract": "contracts/Vote.sol:Vote",
						"label": "votingBegin",
						"offset": 0,
						"slot": "4",
						"type": "t_uint256"
					}
				],
				"types": {
					"t_address": {
						"encoding": "inplace",
						"label": "address",
						"numberOfBytes": "20"
					},
					"t_bool": {
						"encoding": "inplace",
						"label": "bool",
						"numberOfBytes": "1"
					},
					"t_mapping(t_address,t_bool)": {
						"encoding": "mapping",
						"key": "t_address",
						"label": "mapping(address => bool)",
						"numberOfBytes": "32",
						"value": "t_bool"
					},
					"t_mapping(t_uint256,t_struct(Nominee)10_storage)": {
						"encoding": "mapping",
						"key": "t_uint256",
						"label": "mapping(uint256 => struct Vote.Nominee)",
						"numberOfBytes": "32",
						"value": "t_struct(Nominee)10_storage"
					},
					"t_string_storage": {
						"encoding": "bytes",
						"label": "string",
						"numberOfBytes": "32"
					},
					"t_struct(Nominee)10_storage": {
						"encoding": "inplace",
						"label": "struct Vote.Nominee",
						"members": [
							{
								"astId": 3,
								"contract": "contracts/Vote.sol:Vote",
								"label": "id",
								"offset": 0,
								"slot": "0",
								"type": "t_uint256"
							},
							{
								"astId": 5,
								"contract": "contracts/Vote.sol:Vote",
								"label": "name",
								"offset": 0,
								"slot": "1",
								"type": "t_string_storage"
							},
							{
								"astId": 7,
								"contract": "contracts/Vote.sol:Vote",
								"label": "group",
								"offset": 0,
								"slot": "2",
								"type": "t_string_storage"
							},
							{
								"astId": 9,
								"contract": "contracts/Vote.sol:Vote",
								"label": "voteCount",
								"offset": 0,
								"slot": "3",
								"type": "t_uint256"
							}
						],
						"numberOfBytes": "128"
					},
					"t_uint256": {
						"encoding": "inplace",
						"label": "uint256",
						"numberOfBytes": "32"
					}
				}
			},
			"userdoc": {
				"kind": "user",
				"methods": {},
				"version": 1
			}
		}
	}
}