{
	"contracts/TodoCRUD.sol": {
		"TodoCRUD": {
			"abi": [
				{
					"anonymous": false,
					"inputs": [
						{
							"indexed": false,
							"internalType": "uint256",
							"name": "id",
							"type": "uint256"
						},
						{
							"indexed": false,
							"internalType": "string",
							"name": "content",
							"type": "string"
						}
					],
					"name": "TaskCreated",
					"type": "event"
				},
				{
					"anonymous": false,
					"inputs": [
						{
							"indexed": false,
							"internalType": "uint256",
							"name": "id",
							"type": "uint256"
						}
					],
					"name": "TaskDeleted",
					"type": "event"
				},
				{
					"anonymous": false,
					"inputs": [
						{
							"indexed": false,
							"internalType": "uint256",
							"name": "id",
							"type": "uint256"
						},
						{
							"indexed": false,
							"internalType": "string",
							"name": "content",
							"type": "string"
						},
						{
							"indexed": false,
							"internalType": "bool",
							"name": "completed",
							"type": "bool"
						}
					],
					"name": "TaskUpdated",
					"type": "event"
				},
				{
					"inputs": [
						{
							"internalType": "string",
							"name": "_content",
							"type": "string"
						}
					],
					"name": "createTask",
					"outputs": [],
					"stateMutability": "nonpayable",
					"type": "function"
				},
				{
					"inputs": [
						{
							"internalType": "uint256",
							"name": "_id",
							"type": "uint256"
						}
					],
					"name": "getTask",
					"outputs": [
						{
							"internalType": "uint256",
							"name": "",
							"type": "uint256"
						},
						{
							"internalType": "string",
							"name": "",
							"type": "string"
						},
						{
							"internalType": "bool",
							"name": "",
							"type": "bool"
						}
					],
					"stateMutability": "view",
					"type": "function"
				},
				{
					"inputs": [],
					"name": "nextId",
					"outputs": [
						{
							"internalType": "uint256",
							"name": "",
							"type": "uint256"
						}
					],
					"stateMutability": "view",
					"type": "function"
				},
				{
					"inputs": [
						{
							"internalType": "uint256",
							"name": "",
							"type": "uint256"
						}
					],
					"name": "tasks",
					"outputs": [
						{
							"internalType": "uint256",
							"name": "id",
							"type": "uint256"
						},
						{
							"internalType": "string",
							"name": "content",
							"type": "string"
						},
						{
							"internalType": "bool",
							"name": "completed",
							"type": "bool"
						}
					],
					"stateMutability": "view",
					"type": "function"
				}
			],
			"devdoc": {
				"kind": "dev",
				"methods": {},
				"version": 1
			},
			"evm": {
				"assembly": "    /* \"contracts/TodoCRUD.sol\":60:885  contract TodoCRUD {... */\n  mstore(0x40, 0x80)\n    /* \"contracts/TodoCRUD.sol\":106:107  1 */\n  0x01\n    /* \"contracts/TodoCRUD.sol\":85:107  uint public nextId = 1 */\n  0x00\n  sstore\n    /* \"contracts/TodoCRUD.sol\":60:885  contract TodoCRUD {... */\n  callvalue\n  dup1\n  iszero\n  tag_1\n  jumpi\n  0x00\n  dup1\n  revert\ntag_1:\n  pop\n  dataSize(sub_0)\n  dup1\n  dataOffset(sub_0)\n  0x00\n  codecopy\n  0x00\n  return\nstop\n\nsub_0: assembly {\n        /* \"contracts/TodoCRUD.sol\":60:885  contract TodoCRUD {... */\n      mstore(0x40, 0x80)\n      callvalue\n      dup1\n      iszero\n      tag_1\n      jumpi\n      0x00\n      dup1\n      revert\n    tag_1:\n      pop\n      jumpi(tag_2, lt(calldatasize, 0x04))\n      shr(0xe0, calldataload(0x00))\n      dup1\n      0x111002aa\n      eq\n      tag_3\n      jumpi\n      dup1\n      0x1d65e77e\n      eq\n      tag_4\n      jumpi\n      dup1\n      0x61b8ce8c\n      eq\n      tag_5\n      jumpi\n      dup1\n      0x8d977672\n      eq\n      tag_6\n      jumpi\n    tag_2:\n      0x00\n      dup1\n      revert\n        /* \"contracts/TodoCRUD.sol\":430:609  function createTask(string memory _content) public {... */\n    tag_3:\n      tag_7\n      0x04\n      dup1\n      calldatasize\n      sub\n      dup2\n      add\n      swap1\n      tag_8\n      swap2\n      swap1\n      tag_9\n      jump\t// in\n    tag_8:\n      tag_10\n      jump\t// in\n    tag_7:\n      stop\n        /* \"contracts/TodoCRUD.sol\":643:880  function getTask(uint _id) public view returns (uint, string memory, bool) {... */\n    tag_4:\n      tag_11\n      0x04\n      dup1\n      calldatasize\n      sub\n      dup2\n      add\n      swap1\n      tag_12\n      swap2\n      swap1\n      tag_13\n      jump\t// in\n    tag_12:\n      tag_14\n      jump\t// in\n    tag_11:\n      mload(0x40)\n      tag_15\n      swap4\n      swap3\n      swap2\n      swap1\n      tag_16\n      jump\t// in\n    tag_15:\n      mload(0x40)\n      dup1\n      swap2\n      sub\n      swap1\n      return\n        /* \"contracts/TodoCRUD.sol\":85:107  uint public nextId = 1 */\n    tag_5:\n      tag_17\n      tag_18\n      jump\t// in\n    tag_17:\n      mload(0x40)\n      tag_19\n      swap2\n      swap1\n      tag_20\n      jump\t// in\n    tag_19:\n      mload(0x40)\n      dup1\n      swap2\n      sub\n      swap1\n      return\n        /* \"contracts/TodoCRUD.sol\":212:246  mapping(uint => Task) public tasks */\n    tag_6:\n      tag_21\n      0x04\n      dup1\n      calldatasize\n      sub\n      dup2\n      add\n      swap1\n      tag_22\n      swap2\n      swap1\n      tag_13\n      jump\t// in\n    tag_22:\n      tag_23\n      jump\t// in\n    tag_21:\n      mload(0x40)\n      tag_24\n      swap4\n      swap3\n      swap2\n      swap1\n      tag_16\n      jump\t// in\n    tag_24:\n      mload(0x40)\n      dup1\n      swap2\n      sub\n      swap1\n      return\n        /* \"contracts/TodoCRUD.sol\":430:609  function createTask(string memory _content) public {... */\n    tag_10:\n        /* \"contracts/TodoCRUD.sol\":508:537  Task(nextId, _content, false) */\n      mload(0x40)\n      dup1\n      0x60\n      add\n      0x40\n      mstore\n      dup1\n        /* \"contracts/TodoCRUD.sol\":513:519  nextId */\n      sload(0x00)\n        /* \"contracts/TodoCRUD.sol\":508:537  Task(nextId, _content, false) */\n      dup2\n      mstore\n      0x20\n      add\n        /* \"contracts/TodoCRUD.sol\":521:529  _content */\n      dup3\n        /* \"contracts/TodoCRUD.sol\":508:537  Task(nextId, _content, false) */\n      dup2\n      mstore\n      0x20\n      add\n        /* \"contracts/TodoCRUD.sol\":531:536  false */\n      0x00\n        /* \"contracts/TodoCRUD.sol\":508:537  Task(nextId, _content, false) */\n      iszero\n      iszero\n      dup2\n      mstore\n      pop\n        /* \"contracts/TodoCRUD.sol\":492:497  tasks */\n      0x01\n        /* \"contracts/TodoCRUD.sol\":492:505  tasks[nextId] */\n      0x00\n        /* \"contracts/TodoCRUD.sol\":498:504  nextId */\n      dup1\n      sload\n        /* \"contracts/TodoCRUD.sol\":492:505  tasks[nextId] */\n      dup2\n      mstore\n      0x20\n      add\n      swap1\n      dup2\n      mstore\n      0x20\n      add\n      0x00\n      keccak256\n        /* \"contracts/TodoCRUD.sol\":492:537  tasks[nextId] = Task(nextId, _content, false) */\n      0x00\n      dup3\n      add\n      mload\n      dup2\n      0x00\n      add\n      sstore\n      0x20\n      dup3\n      add\n      mload\n      dup2\n      0x01\n      add\n      swap1\n      dup2\n      tag_26\n      swap2\n      swap1\n      tag_27\n      jump\t// in\n    tag_26:\n      pop\n      0x40\n      dup3\n      add\n      mload\n      dup2\n      0x02\n      add\n      exp(0x0100, 0x00)\n      dup2\n      sload\n      dup2\n      0xff\n      mul\n      not\n      and\n      swap1\n      dup4\n      iszero\n      iszero\n      mul\n      or\n      swap1\n      sstore\n      pop\n      swap1\n      pop\n      pop\n        /* \"contracts/TodoCRUD.sol\":553:582  TaskCreated(nextId, _content) */\n      0xa5ed9e6226c584326505694539c95cb0e3238ae09bcda5a65c00bbfdab1c6662\n        /* \"contracts/TodoCRUD.sol\":565:571  nextId */\n      sload(0x00)\n        /* \"contracts/TodoCRUD.sol\":573:581  _content */\n      dup3\n        /* \"contracts/TodoCRUD.sol\":553:582  TaskCreated(nextId, _content) */\n      mload(0x40)\n      tag_28\n      swap3\n      swap2\n      swap1\n      tag_29\n      jump\t// in\n    tag_28:\n      mload(0x40)\n      dup1\n      swap2\n      sub\n      swap1\n      log1\n        /* \"contracts/TodoCRUD.sol\":593:599  nextId */\n      0x00\n      dup1\n        /* \"contracts/TodoCRUD.sol\":593:601  nextId++ */\n      dup2\n      sload\n      dup1\n      swap3\n      swap2\n      swap1\n      tag_30\n      swap1\n      tag_31\n      jump\t// in\n    tag_30:\n      swap2\n      swap1\n      pop\n      sstore\n      pop\n        /* \"contracts/TodoCRUD.sol\":430:609  function createTask(string memory _content) public {... */\n      pop\n      jump\t// out\n        /* \"contracts/TodoCRUD.sol\":643:880  function getTask(uint _id) public view returns (uint, string memory, bool) {... */\n    tag_14:\n        /* \"contracts/TodoCRUD.sol\":691:695  uint */\n      0x00\n        /* \"contracts/TodoCRUD.sol\":697:710  string memory */\n      0x60\n        /* \"contracts/TodoCRUD.sol\":712:716  bool */\n      0x00\n        /* \"contracts/TodoCRUD.sol\":754:755  0 */\n      dup1\n        /* \"contracts/TodoCRUD.sol\":737:742  tasks */\n      0x01\n        /* \"contracts/TodoCRUD.sol\":737:747  tasks[_id] */\n      0x00\n        /* \"contracts/TodoCRUD.sol\":743:746  _id */\n      dup7\n        /* \"contracts/TodoCRUD.sol\":737:747  tasks[_id] */\n      dup2\n      mstore\n      0x20\n      add\n      swap1\n      dup2\n      mstore\n      0x20\n      add\n      0x00\n      keccak256\n        /* \"contracts/TodoCRUD.sol\":737:750  tasks[_id].id */\n      0x00\n      add\n      sload\n        /* \"contracts/TodoCRUD.sol\":737:755  tasks[_id].id != 0 */\n      sub\n        /* \"contracts/TodoCRUD.sol\":729:774  require(tasks[_id].id != 0, \"Task not found\") */\n      tag_33\n      jumpi\n      mload(0x40)\n      0x08c379a000000000000000000000000000000000000000000000000000000000\n      dup2\n      mstore\n      0x04\n      add\n      tag_34\n      swap1\n      tag_35\n      jump\t// in\n    tag_34:\n      mload(0x40)\n      dup1\n      swap2\n      sub\n      swap1\n      revert\n    tag_33:\n        /* \"contracts/TodoCRUD.sol\":785:802  Task storage task */\n      0x00\n        /* \"contracts/TodoCRUD.sol\":805:810  tasks */\n      0x01\n        /* \"contracts/TodoCRUD.sol\":805:815  tasks[_id] */\n      0x00\n        /* \"contracts/TodoCRUD.sol\":811:814  _id */\n      dup7\n        /* \"contracts/TodoCRUD.sol\":805:815  tasks[_id] */\n      dup2\n      mstore\n      0x20\n      add\n      swap1\n      dup2\n      mstore\n      0x20\n      add\n      0x00\n      keccak256\n        /* \"contracts/TodoCRUD.sol\":785:815  Task storage task = tasks[_id] */\n      swap1\n      pop\n        /* \"contracts/TodoCRUD.sol\":834:838  task */\n      dup1\n        /* \"contracts/TodoCRUD.sol\":834:841  task.id */\n      0x00\n      add\n      sload\n        /* \"contracts/TodoCRUD.sol\":843:847  task */\n      dup2\n        /* \"contracts/TodoCRUD.sol\":843:855  task.content */\n      0x01\n      add\n        /* \"contracts/TodoCRUD.sol\":857:861  task */\n      dup3\n        /* \"contracts/TodoCRUD.sol\":857:871  task.completed */\n      0x02\n      add\n      0x00\n      swap1\n      sload\n      swap1\n      0x0100\n      exp\n      swap1\n      div\n      0xff\n      and\n        /* \"contracts/TodoCRUD.sol\":826:872  return (task.id, task.content, task.completed) */\n      dup2\n      dup1\n      sload\n      tag_36\n      swap1\n      tag_37\n      jump\t// in\n    tag_36:\n      dup1\n      0x1f\n      add\n      0x20\n      dup1\n      swap2\n      div\n      mul\n      0x20\n      add\n      mload(0x40)\n      swap1\n      dup2\n      add\n      0x40\n      mstore\n      dup1\n      swap3\n      swap2\n      swap1\n      dup2\n      dup2\n      mstore\n      0x20\n      add\n      dup3\n      dup1\n      sload\n      tag_38\n      swap1\n      tag_37\n      jump\t// in\n    tag_38:\n      dup1\n      iszero\n      tag_39\n      jumpi\n      dup1\n      0x1f\n      lt\n      tag_40\n      jumpi\n      0x0100\n      dup1\n      dup4\n      sload\n      div\n      mul\n      dup4\n      mstore\n      swap2\n      0x20\n      add\n      swap2\n      jump(tag_39)\n    tag_40:\n      dup3\n      add\n      swap2\n      swap1\n      0x00\n      mstore\n      keccak256(0x00, 0x20)\n      swap1\n    tag_41:\n      dup2\n      sload\n      dup2\n      mstore\n      swap1\n      0x01\n      add\n      swap1\n      0x20\n      add\n      dup1\n      dup4\n      gt\n      tag_41\n      jumpi\n      dup3\n      swap1\n      sub\n      0x1f\n      and\n      dup3\n      add\n      swap2\n    tag_39:\n      pop\n      pop\n      pop\n      pop\n      pop\n      swap2\n      pop\n      swap4\n      pop\n      swap4\n      pop\n      swap4\n      pop\n      pop\n        /* \"contracts/TodoCRUD.sol\":643:880  function getTask(uint _id) public view returns (uint, string memory, bool) {... */\n      swap2\n      swap4\n      swap1\n      swap3\n      pop\n      jump\t// out\n        /* \"contracts/TodoCRUD.sol\":85:107  uint public nextId = 1 */\n    tag_18:\n      sload(0x00)\n      dup2\n      jump\t// out\n        /* \"contracts/TodoCRUD.sol\":212:246  mapping(uint => Task) public tasks */\n    tag_23:\n      mstore(0x20, 0x01)\n      dup1\n      0x00\n      mstore\n      keccak256(0x00, 0x40)\n      0x00\n      swap2\n      pop\n      swap1\n      pop\n      dup1\n      0x00\n      add\n      sload\n      swap1\n      dup1\n      0x01\n      add\n      dup1\n      sload\n      tag_42\n      swap1\n      tag_37\n      jump\t// in\n    tag_42:\n      dup1\n      0x1f\n      add\n      0x20\n      dup1\n      swap2\n      div\n      mul\n      0x20\n      add\n      mload(0x40)\n      swap1\n      dup2\n      add\n      0x40\n      mstore\n      dup1\n      swap3\n      swap2\n      swap1\n      dup2\n      dup2\n      mstore\n      0x20\n      add\n      dup3\n      dup1\n      sload\n      tag_43\n      swap1\n      tag_37\n      jump\t// in\n    tag_43:\n      dup1\n      iszero\n      tag_44\n      jumpi\n      dup1\n      0x1f\n      lt\n      tag_45\n      jumpi\n      0x0100\n      dup1\n      dup4\n      sload\n      div\n      mul\n      dup4\n      mstore\n      swap2\n      0x20\n      add\n      swap2\n      jump(tag_44)\n    tag_45:\n      dup3\n      add\n      swap2\n      swap1\n      0x00\n      mstore\n      keccak256(0x00, 0x20)\n      swap1\n    tag_46:\n      dup2\n      sload\n      dup2\n      mstore\n      swap1\n      0x01\n      add\n      swap1\n      0x20\n      add\n      dup1\n      dup4\n      gt\n      tag_46\n      jumpi\n      dup3\n      swap1\n      sub\n      0x1f\n      and\n      dup3\n      add\n      swap2\n    tag_44:\n      pop\n      pop\n      pop\n      pop\n      pop\n      swap1\n      dup1\n      0x02\n      add\n      0x00\n      swap1\n      sload\n      swap1\n      0x0100\n      exp\n      swap1\n      div\n      0xff\n      and\n      swap1\n      pop\n      dup4\n      jump\t// out\n        /* \"#utility.yul\":7:82   */\n    tag_47:\n        /* \"#utility.yul\":40:46   */\n      0x00\n        /* \"#utility.yul\":73:75   */\n      0x40\n        /* \"#utility.yul\":67:76   */\n      mload\n        /* \"#utility.yul\":57:76   */\n      swap1\n      pop\n        /* \"#utility.yul\":7:82   */\n      swap1\n      jump\t// out\n        /* \"#utility.yul\":88:205   */\n    tag_48:\n        /* \"#utility.yul\":197:198   */\n      0x00\n        /* \"#utility.yul\":194:195   */\n      dup1\n        /* \"#utility.yul\":187:199   */\n      revert\n        /* \"#utility.yul\":211:328   */\n    tag_49:\n        /* \"#utility.yul\":320:321   */\n      0x00\n        /* \"#utility.yul\":317:318   */\n      dup1\n        /* \"#utility.yul\":310:322   */\n      revert\n        /* \"#utility.yul\":334:451   */\n    tag_50:\n        /* \"#utility.yul\":443:444   */\n      0x00\n        /* \"#utility.yul\":440:441   */\n      dup1\n        /* \"#utility.yul\":433:445   */\n      revert\n        /* \"#utility.yul\":457:574   */\n    tag_51:\n        /* \"#utility.yul\":566:567   */\n      0x00\n        /* \"#utility.yul\":563:564   */\n      dup1\n        /* \"#utility.yul\":556:568   */\n      revert\n        /* \"#utility.yul\":580:682   */\n    tag_52:\n        /* \"#utility.yul\":621:627   */\n      0x00\n        /* \"#utility.yul\":672:674   */\n      0x1f\n        /* \"#utility.yul\":668:675   */\n      not\n        /* \"#utility.yul\":663:665   */\n      0x1f\n        /* \"#utility.yul\":656:661   */\n      dup4\n        /* \"#utility.yul\":652:666   */\n      add\n        /* \"#utility.yul\":648:676   */\n      and\n        /* \"#utility.yul\":638:676   */\n      swap1\n      pop\n        /* \"#utility.yul\":580:682   */\n      swap2\n      swap1\n      pop\n      jump\t// out\n        /* \"#utility.yul\":688:868   */\n    tag_53:\n        /* \"#utility.yul\":736:813   */\n      0x4e487b7100000000000000000000000000000000000000000000000000000000\n        /* \"#utility.yul\":733:734   */\n      0x00\n        /* \"#utility.yul\":726:814   */\n      mstore\n        /* \"#utility.yul\":833:837   */\n      0x41\n        /* \"#utility.yul\":830:831   */\n      0x04\n        /* \"#utility.yul\":823:838   */\n      mstore\n        /* \"#utility.yul\":857:861   */\n      0x24\n        /* \"#utility.yul\":854:855   */\n      0x00\n        /* \"#utility.yul\":847:862   */\n      revert\n        /* \"#utility.yul\":874:1155   */\n    tag_54:\n        /* \"#utility.yul\":957:984   */\n      tag_98\n        /* \"#utility.yul\":979:983   */\n      dup3\n        /* \"#utility.yul\":957:984   */\n      tag_52\n      jump\t// in\n    tag_98:\n        /* \"#utility.yul\":949:955   */\n      dup2\n        /* \"#utility.yul\":945:985   */\n      add\n        /* \"#utility.yul\":1087:1093   */\n      dup2\n        /* \"#utility.yul\":1075:1085   */\n      dup2\n        /* \"#utility.yul\":1072:1094   */\n      lt\n        /* \"#utility.yul\":1051:1069   */\n      0xffffffffffffffff\n        /* \"#utility.yul\":1039:1049   */\n      dup3\n        /* \"#utility.yul\":1036:1070   */\n      gt\n        /* \"#utility.yul\":1033:1095   */\n      or\n        /* \"#utility.yul\":1030:1118   */\n      iszero\n      tag_99\n      jumpi\n        /* \"#utility.yul\":1098:1116   */\n      tag_100\n      tag_53\n      jump\t// in\n    tag_100:\n        /* \"#utility.yul\":1030:1118   */\n    tag_99:\n        /* \"#utility.yul\":1138:1148   */\n      dup1\n        /* \"#utility.yul\":1134:1136   */\n      0x40\n        /* \"#utility.yul\":1127:1149   */\n      mstore\n        /* \"#utility.yul\":917:1155   */\n      pop\n        /* \"#utility.yul\":874:1155   */\n      pop\n      pop\n      jump\t// out\n        /* \"#utility.yul\":1161:1290   */\n    tag_55:\n        /* \"#utility.yul\":1195:1201   */\n      0x00\n        /* \"#utility.yul\":1222:1242   */\n      tag_102\n      tag_47\n      jump\t// in\n    tag_102:\n        /* \"#utility.yul\":1212:1242   */\n      swap1\n      pop\n        /* \"#utility.yul\":1251:1284   */\n      tag_103\n        /* \"#utility.yul\":1279:1283   */\n      dup3\n        /* \"#utility.yul\":1271:1277   */\n      dup3\n        /* \"#utility.yul\":1251:1284   */\n      tag_54\n      jump\t// in\n    tag_103:\n        /* \"#utility.yul\":1161:1290   */\n      swap2\n      swap1\n      pop\n      jump\t// out\n        /* \"#utility.yul\":1296:1604   */\n    tag_56:\n        /* \"#utility.yul\":1358:1362   */\n      0x00\n        /* \"#utility.yul\":1448:1466   */\n      0xffffffffffffffff\n        /* \"#utility.yul\":1440:1446   */\n      dup3\n        /* \"#utility.yul\":1437:1467   */\n      gt\n        /* \"#utility.yul\":1434:1490   */\n      iszero\n      tag_105\n      jumpi\n        /* \"#utility.yul\":1470:1488   */\n      tag_106\n      tag_53\n      jump\t// in\n    tag_106:\n        /* \"#utility.yul\":1434:1490   */\n    tag_105:\n        /* \"#utility.yul\":1508:1537   */\n      tag_107\n        /* \"#utility.yul\":1530:1536   */\n      dup3\n        /* \"#utility.yul\":1508:1537   */\n      tag_52\n      jump\t// in\n    tag_107:\n        /* \"#utility.yul\":1500:1537   */\n      swap1\n      pop\n        /* \"#utility.yul\":1592:1596   */\n      0x20\n        /* \"#utility.yul\":1586:1590   */\n      dup2\n        /* \"#utility.yul\":1582:1597   */\n      add\n        /* \"#utility.yul\":1574:1597   */\n      swap1\n      pop\n        /* \"#utility.yul\":1296:1604   */\n      swap2\n      swap1\n      pop\n      jump\t// out\n        /* \"#utility.yul\":1610:1758   */\n    tag_57:\n        /* \"#utility.yul\":1708:1714   */\n      dup3\n        /* \"#utility.yul\":1703:1706   */\n      dup2\n        /* \"#utility.yul\":1698:1701   */\n      dup4\n        /* \"#utility.yul\":1685:1715   */\n      calldatacopy\n        /* \"#utility.yul\":1749:1750   */\n      0x00\n        /* \"#utility.yul\":1740:1746   */\n      dup4\n        /* \"#utility.yul\":1735:1738   */\n      dup4\n        /* \"#utility.yul\":1731:1747   */\n      add\n        /* \"#utility.yul\":1724:1751   */\n      mstore\n        /* \"#utility.yul\":1610:1758   */\n      pop\n      pop\n      pop\n      jump\t// out\n        /* \"#utility.yul\":1764:2189   */\n    tag_58:\n        /* \"#utility.yul\":1842:1847   */\n      0x00\n        /* \"#utility.yul\":1867:1933   */\n      tag_110\n        /* \"#utility.yul\":1883:1932   */\n      tag_111\n        /* \"#utility.yul\":1925:1931   */\n      dup5\n        /* \"#utility.yul\":1883:1932   */\n      tag_56\n      jump\t// in\n    tag_111:\n        /* \"#utility.yul\":1867:1933   */\n      tag_55\n      jump\t// in\n    tag_110:\n        /* \"#utility.yul\":1858:1933   */\n      swap1\n      pop\n        /* \"#utility.yul\":1956:1962   */\n      dup3\n        /* \"#utility.yul\":1949:1954   */\n      dup2\n        /* \"#utility.yul\":1942:1963   */\n      mstore\n        /* \"#utility.yul\":1994:1998   */\n      0x20\n        /* \"#utility.yul\":1987:1992   */\n      dup2\n        /* \"#utility.yul\":1983:1999   */\n      add\n        /* \"#utility.yul\":2032:2035   */\n      dup5\n        /* \"#utility.yul\":2023:2029   */\n      dup5\n        /* \"#utility.yul\":2018:2021   */\n      dup5\n        /* \"#utility.yul\":2014:2030   */\n      add\n        /* \"#utility.yul\":2011:2036   */\n      gt\n        /* \"#utility.yul\":2008:2120   */\n      iszero\n      tag_112\n      jumpi\n        /* \"#utility.yul\":2039:2118   */\n      tag_113\n      tag_51\n      jump\t// in\n    tag_113:\n        /* \"#utility.yul\":2008:2120   */\n    tag_112:\n        /* \"#utility.yul\":2129:2183   */\n      tag_114\n        /* \"#utility.yul\":2176:2182   */\n      dup5\n        /* \"#utility.yul\":2171:2174   */\n      dup3\n        /* \"#utility.yul\":2166:2169   */\n      dup6\n        /* \"#utility.yul\":2129:2183   */\n      tag_57\n      jump\t// in\n    tag_114:\n        /* \"#utility.yul\":1848:2189   */\n      pop\n        /* \"#utility.yul\":1764:2189   */\n      swap4\n      swap3\n      pop\n      pop\n      pop\n      jump\t// out\n        /* \"#utility.yul\":2209:2549   */\n    tag_59:\n        /* \"#utility.yul\":2265:2270   */\n      0x00\n        /* \"#utility.yul\":2314:2317   */\n      dup3\n        /* \"#utility.yul\":2307:2311   */\n      0x1f\n        /* \"#utility.yul\":2299:2305   */\n      dup4\n        /* \"#utility.yul\":2295:2312   */\n      add\n        /* \"#utility.yul\":2291:2318   */\n      slt\n        /* \"#utility.yul\":2281:2403   */\n      tag_116\n      jumpi\n        /* \"#utility.yul\":2322:2401   */\n      tag_117\n      tag_50\n      jump\t// in\n    tag_117:\n        /* \"#utility.yul\":2281:2403   */\n    tag_116:\n        /* \"#utility.yul\":2439:2445   */\n      dup2\n        /* \"#utility.yul\":2426:2446   */\n      calldataload\n        /* \"#utility.yul\":2464:2543   */\n      tag_118\n        /* \"#utility.yul\":2539:2542   */\n      dup5\n        /* \"#utility.yul\":2531:2537   */\n      dup3\n        /* \"#utility.yul\":2524:2528   */\n      0x20\n        /* \"#utility.yul\":2516:2522   */\n      dup7\n        /* \"#utility.yul\":2512:2529   */\n      add\n        /* \"#utility.yul\":2464:2543   */\n      tag_58\n      jump\t// in\n    tag_118:\n        /* \"#utility.yul\":2455:2543   */\n      swap2\n      pop\n        /* \"#utility.yul\":2271:2549   */\n      pop\n        /* \"#utility.yul\":2209:2549   */\n      swap3\n      swap2\n      pop\n      pop\n      jump\t// out\n        /* \"#utility.yul\":2555:3064   */\n    tag_9:\n        /* \"#utility.yul\":2624:2630   */\n      0x00\n        /* \"#utility.yul\":2673:2675   */\n      0x20\n        /* \"#utility.yul\":2661:2670   */\n      dup3\n        /* \"#utility.yul\":2652:2659   */\n      dup5\n        /* \"#utility.yul\":2648:2671   */\n      sub\n        /* \"#utility.yul\":2644:2676   */\n      slt\n        /* \"#utility.yul\":2641:2760   */\n      iszero\n      tag_120\n      jumpi\n        /* \"#utility.yul\":2679:2758   */\n      tag_121\n      tag_48\n      jump\t// in\n    tag_121:\n        /* \"#utility.yul\":2641:2760   */\n    tag_120:\n        /* \"#utility.yul\":2827:2828   */\n      0x00\n        /* \"#utility.yul\":2816:2825   */\n      dup3\n        /* \"#utility.yul\":2812:2829   */\n      add\n        /* \"#utility.yul\":2799:2830   */\n      calldataload\n        /* \"#utility.yul\":2857:2875   */\n      0xffffffffffffffff\n        /* \"#utility.yul\":2849:2855   */\n      dup2\n        /* \"#utility.yul\":2846:2876   */\n      gt\n        /* \"#utility.yul\":2843:2960   */\n      iszero\n      tag_122\n      jumpi\n        /* \"#utility.yul\":2879:2958   */\n      tag_123\n      tag_49\n      jump\t// in\n    tag_123:\n        /* \"#utility.yul\":2843:2960   */\n    tag_122:\n        /* \"#utility.yul\":2984:3047   */\n      tag_124\n        /* \"#utility.yul\":3039:3046   */\n      dup5\n        /* \"#utility.yul\":3030:3036   */\n      dup3\n        /* \"#utility.yul\":3019:3028   */\n      dup6\n        /* \"#utility.yul\":3015:3037   */\n      add\n        /* \"#utility.yul\":2984:3047   */\n      tag_59\n      jump\t// in\n    tag_124:\n        /* \"#utility.yul\":2974:3047   */\n      swap2\n      pop\n        /* \"#utility.yul\":2770:3057   */\n      pop\n        /* \"#utility.yul\":2555:3064   */\n      swap3\n      swap2\n      pop\n      pop\n      jump\t// out\n        /* \"#utility.yul\":3070:3147   */\n    tag_60:\n        /* \"#utility.yul\":3107:3114   */\n      0x00\n        /* \"#utility.yul\":3136:3141   */\n      dup2\n        /* \"#utility.yul\":3125:3141   */\n      swap1\n      pop\n        /* \"#utility.yul\":3070:3147   */\n      swap2\n      swap1\n      pop\n      jump\t// out\n        /* \"#utility.yul\":3153:3275   */\n    tag_61:\n        /* \"#utility.yul\":3226:3250   */\n      tag_127\n        /* \"#utility.yul\":3244:3249   */\n      dup2\n        /* \"#utility.yul\":3226:3250   */\n      tag_60\n      jump\t// in\n    tag_127:\n        /* \"#utility.yul\":3219:3224   */\n      dup2\n        /* \"#utility.yul\":3216:3251   */\n      eq\n        /* \"#utility.yul\":3206:3269   */\n      tag_128\n      jumpi\n        /* \"#utility.yul\":3265:3266   */\n      0x00\n        /* \"#utility.yul\":3262:3263   */\n      dup1\n        /* \"#utility.yul\":3255:3267   */\n      revert\n        /* \"#utility.yul\":3206:3269   */\n    tag_128:\n        /* \"#utility.yul\":3153:3275   */\n      pop\n      jump\t// out\n        /* \"#utility.yul\":3281:3420   */\n    tag_62:\n        /* \"#utility.yul\":3327:3332   */\n      0x00\n        /* \"#utility.yul\":3365:3371   */\n      dup2\n        /* \"#utility.yul\":3352:3372   */\n      calldataload\n        /* \"#utility.yul\":3343:3372   */\n      swap1\n      pop\n        /* \"#utility.yul\":3381:3414   */\n      tag_130\n        /* \"#utility.yul\":3408:3413   */\n      dup2\n        /* \"#utility.yul\":3381:3414   */\n      tag_61\n      jump\t// in\n    tag_130:\n        /* \"#utility.yul\":3281:3420   */\n      swap3\n      swap2\n      pop\n      pop\n      jump\t// out\n        /* \"#utility.yul\":3426:3755   */\n    tag_13:\n        /* \"#utility.yul\":3485:3491   */\n      0x00\n        /* \"#utility.yul\":3534:3536   */\n      0x20\n        /* \"#utility.yul\":3522:3531   */\n      dup3\n        /* \"#utility.yul\":3513:3520   */\n      dup5\n        /* \"#utility.yul\":3509:3532   */\n      sub\n        /* \"#utility.yul\":3505:3537   */\n      slt\n        /* \"#utility.yul\":3502:3621   */\n      iszero\n      tag_132\n      jumpi\n        /* \"#utility.yul\":3540:3619   */\n      tag_133\n      tag_48\n      jump\t// in\n    tag_133:\n        /* \"#utility.yul\":3502:3621   */\n    tag_132:\n        /* \"#utility.yul\":3660:3661   */\n      0x00\n        /* \"#utility.yul\":3685:3738   */\n      tag_134\n        /* \"#utility.yul\":3730:3737   */\n      dup5\n        /* \"#utility.yul\":3721:3727   */\n      dup3\n        /* \"#utility.yul\":3710:3719   */\n      dup6\n        /* \"#utility.yul\":3706:3728   */\n      add\n        /* \"#utility.yul\":3685:3738   */\n      tag_62\n      jump\t// in\n    tag_134:\n        /* \"#utility.yul\":3675:3738   */\n      swap2\n      pop\n        /* \"#utility.yul\":3631:3748   */\n      pop\n        /* \"#utility.yul\":3426:3755   */\n      swap3\n      swap2\n      pop\n      pop\n      jump\t// out\n        /* \"#utility.yul\":3761:3879   */\n    tag_63:\n        /* \"#utility.yul\":3848:3872   */\n      tag_136\n        /* \"#utility.yul\":3866:3871   */\n      dup2\n        /* \"#utility.yul\":3848:3872   */\n      tag_60\n      jump\t// in\n    tag_136:\n        /* \"#utility.yul\":3843:3846   */\n      dup3\n        /* \"#utility.yul\":3836:3873   */\n      mstore\n        /* \"#utility.yul\":3761:3879   */\n      pop\n      pop\n      jump\t// out\n        /* \"#utility.yul\":3885:3984   */\n    tag_64:\n        /* \"#utility.yul\":3937:3943   */\n      0x00\n        /* \"#utility.yul\":3971:3976   */\n      dup2\n        /* \"#utility.yul\":3965:3977   */\n      mload\n        /* \"#utility.yul\":3955:3977   */\n      swap1\n      pop\n        /* \"#utility.yul\":3885:3984   */\n      swap2\n      swap1\n      pop\n      jump\t// out\n        /* \"#utility.yul\":3990:4159   */\n    tag_65:\n        /* \"#utility.yul\":4074:4085   */\n      0x00\n        /* \"#utility.yul\":4108:4114   */\n      dup3\n        /* \"#utility.yul\":4103:4106   */\n      dup3\n        /* \"#utility.yul\":4096:4115   */\n      mstore\n        /* \"#utility.yul\":4148:4152   */\n      0x20\n        /* \"#utility.yul\":4143:4146   */\n      dup3\n        /* \"#utility.yul\":4139:4153   */\n      add\n        /* \"#utility.yul\":4124:4153   */\n      swap1\n      pop\n        /* \"#utility.yul\":3990:4159   */\n      swap3\n      swap2\n      pop\n      pop\n      jump\t// out\n        /* \"#utility.yul\":4165:4304   */\n    tag_66:\n        /* \"#utility.yul\":4254:4260   */\n      dup3\n        /* \"#utility.yul\":4249:4252   */\n      dup2\n        /* \"#utility.yul\":4244:4247   */\n      dup4\n        /* \"#utility.yul\":4238:4261   */\n      mcopy\n        /* \"#utility.yul\":4295:4296   */\n      0x00\n        /* \"#utility.yul\":4286:4292   */\n      dup4\n        /* \"#utility.yul\":4281:4284   */\n      dup4\n        /* \"#utility.yul\":4277:4293   */\n      add\n        /* \"#utility.yul\":4270:4297   */\n      mstore\n        /* \"#utility.yul\":4165:4304   */\n      pop\n      pop\n      pop\n      jump\t// out\n        /* \"#utility.yul\":4310:4687   */\n    tag_67:\n        /* \"#utility.yul\":4398:4401   */\n      0x00\n        /* \"#utility.yul\":4426:4465   */\n      tag_141\n        /* \"#utility.yul\":4459:4464   */\n      dup3\n        /* \"#utility.yul\":4426:4465   */\n      tag_64\n      jump\t// in\n    tag_141:\n        /* \"#utility.yul\":4481:4552   */\n      tag_142\n        /* \"#utility.yul\":4545:4551   */\n      dup2\n        /* \"#utility.yul\":4540:4543   */\n      dup6\n        /* \"#utility.yul\":4481:4552   */\n      tag_65\n      jump\t// in\n    tag_142:\n        /* \"#utility.yul\":4474:4552   */\n      swap4\n      pop\n        /* \"#utility.yul\":4561:4626   */\n      tag_143\n        /* \"#utility.yul\":4619:4625   */\n      dup2\n        /* \"#utility.yul\":4614:4617   */\n      dup6\n        /* \"#utility.yul\":4607:4611   */\n      0x20\n        /* \"#utility.yul\":4600:4605   */\n      dup7\n        /* \"#utility.yul\":4596:4612   */\n      add\n        /* \"#utility.yul\":4561:4626   */\n      tag_66\n      jump\t// in\n    tag_143:\n        /* \"#utility.yul\":4651:4680   */\n      tag_144\n        /* \"#utility.yul\":4673:4679   */\n      dup2\n        /* \"#utility.yul\":4651:4680   */\n      tag_52\n      jump\t// in\n    tag_144:\n        /* \"#utility.yul\":4646:4649   */\n      dup5\n        /* \"#utility.yul\":4642:4681   */\n      add\n        /* \"#utility.yul\":4635:4681   */\n      swap2\n      pop\n        /* \"#utility.yul\":4402:4687   */\n      pop\n        /* \"#utility.yul\":4310:4687   */\n      swap3\n      swap2\n      pop\n      pop\n      jump\t// out\n        /* \"#utility.yul\":4693:4783   */\n    tag_68:\n        /* \"#utility.yul\":4727:4734   */\n      0x00\n        /* \"#utility.yul\":4770:4775   */\n      dup2\n        /* \"#utility.yul\":4763:4776   */\n      iszero\n        /* \"#utility.yul\":4756:4777   */\n      iszero\n        /* \"#utility.yul\":4745:4777   */\n      swap1\n      pop\n        /* \"#utility.yul\":4693:4783   */\n      swap2\n      swap1\n      pop\n      jump\t// out\n        /* \"#utility.yul\":4789:4898   */\n    tag_69:\n        /* \"#utility.yul\":4870:4891   */\n      tag_147\n        /* \"#utility.yul\":4885:4890   */\n      dup2\n        /* \"#utility.yul\":4870:4891   */\n      tag_68\n      jump\t// in\n    tag_147:\n        /* \"#utility.yul\":4865:4868   */\n      dup3\n        /* \"#utility.yul\":4858:4892   */\n      mstore\n        /* \"#utility.yul\":4789:4898   */\n      pop\n      pop\n      jump\t// out\n        /* \"#utility.yul\":4904:5425   */\n    tag_16:\n        /* \"#utility.yul\":5067:5071   */\n      0x00\n        /* \"#utility.yul\":5105:5107   */\n      0x60\n        /* \"#utility.yul\":5094:5103   */\n      dup3\n        /* \"#utility.yul\":5090:5108   */\n      add\n        /* \"#utility.yul\":5082:5108   */\n      swap1\n      pop\n        /* \"#utility.yul\":5118:5189   */\n      tag_149\n        /* \"#utility.yul\":5186:5187   */\n      0x00\n        /* \"#utility.yul\":5175:5184   */\n      dup4\n        /* \"#utility.yul\":5171:5188   */\n      add\n        /* \"#utility.yul\":5162:5168   */\n      dup7\n        /* \"#utility.yul\":5118:5189   */\n      tag_63\n      jump\t// in\n    tag_149:\n        /* \"#utility.yul\":5236:5245   */\n      dup2\n        /* \"#utility.yul\":5230:5234   */\n      dup2\n        /* \"#utility.yul\":5226:5246   */\n      sub\n        /* \"#utility.yul\":5221:5223   */\n      0x20\n        /* \"#utility.yul\":5210:5219   */\n      dup4\n        /* \"#utility.yul\":5206:5224   */\n      add\n        /* \"#utility.yul\":5199:5247   */\n      mstore\n        /* \"#utility.yul\":5264:5342   */\n      tag_150\n        /* \"#utility.yul\":5337:5341   */\n      dup2\n        /* \"#utility.yul\":5328:5334   */\n      dup6\n        /* \"#utility.yul\":5264:5342   */\n      tag_67\n      jump\t// in\n    tag_150:\n        /* \"#utility.yul\":5256:5342   */\n      swap1\n      pop\n        /* \"#utility.yul\":5352:5418   */\n      tag_151\n        /* \"#utility.yul\":5414:5416   */\n      0x40\n        /* \"#utility.yul\":5403:5412   */\n      dup4\n        /* \"#utility.yul\":5399:5417   */\n      add\n        /* \"#utility.yul\":5390:5396   */\n      dup5\n        /* \"#utility.yul\":5352:5418   */\n      tag_69\n      jump\t// in\n    tag_151:\n        /* \"#utility.yul\":4904:5425   */\n      swap5\n      swap4\n      pop\n      pop\n      pop\n      pop\n      jump\t// out\n        /* \"#utility.yul\":5431:5653   */\n    tag_20:\n        /* \"#utility.yul\":5524:5528   */\n      0x00\n        /* \"#utility.yul\":5562:5564   */\n      0x20\n        /* \"#utility.yul\":5551:5560   */\n      dup3\n        /* \"#utility.yul\":5547:5565   */\n      add\n        /* \"#utility.yul\":5539:5565   */\n      swap1\n      pop\n        /* \"#utility.yul\":5575:5646   */\n      tag_153\n        /* \"#utility.yul\":5643:5644   */\n      0x00\n        /* \"#utility.yul\":5632:5641   */\n      dup4\n        /* \"#utility.yul\":5628:5645   */\n      add\n        /* \"#utility.yul\":5619:5625   */\n      dup5\n        /* \"#utility.yul\":5575:5646   */\n      tag_63\n      jump\t// in\n    tag_153:\n        /* \"#utility.yul\":5431:5653   */\n      swap3\n      swap2\n      pop\n      pop\n      jump\t// out\n        /* \"#utility.yul\":5659:5839   */\n    tag_70:\n        /* \"#utility.yul\":5707:5784   */\n      0x4e487b7100000000000000000000000000000000000000000000000000000000\n        /* \"#utility.yul\":5704:5705   */\n      0x00\n        /* \"#utility.yul\":5697:5785   */\n      mstore\n        /* \"#utility.yul\":5804:5808   */\n      0x22\n        /* \"#utility.yul\":5801:5802   */\n      0x04\n        /* \"#utility.yul\":5794:5809   */\n      mstore\n        /* \"#utility.yul\":5828:5832   */\n      0x24\n        /* \"#utility.yul\":5825:5826   */\n      0x00\n        /* \"#utility.yul\":5818:5833   */\n      revert\n        /* \"#utility.yul\":5845:6165   */\n    tag_37:\n        /* \"#utility.yul\":5889:5895   */\n      0x00\n        /* \"#utility.yul\":5926:5927   */\n      0x02\n        /* \"#utility.yul\":5920:5924   */\n      dup3\n        /* \"#utility.yul\":5916:5928   */\n      div\n        /* \"#utility.yul\":5906:5928   */\n      swap1\n      pop\n        /* \"#utility.yul\":5973:5974   */\n      0x01\n        /* \"#utility.yul\":5967:5971   */\n      dup3\n        /* \"#utility.yul\":5963:5975   */\n      and\n        /* \"#utility.yul\":5994:6012   */\n      dup1\n        /* \"#utility.yul\":5984:6065   */\n      tag_156\n      jumpi\n        /* \"#utility.yul\":6050:6054   */\n      0x7f\n        /* \"#utility.yul\":6042:6048   */\n      dup3\n        /* \"#utility.yul\":6038:6055   */\n      and\n        /* \"#utility.yul\":6028:6055   */\n      swap2\n      pop\n        /* \"#utility.yul\":5984:6065   */\n    tag_156:\n        /* \"#utility.yul\":6112:6114   */\n      0x20\n        /* \"#utility.yul\":6104:6110   */\n      dup3\n        /* \"#utility.yul\":6101:6115   */\n      lt\n        /* \"#utility.yul\":6081:6099   */\n      dup2\n        /* \"#utility.yul\":6078:6116   */\n      sub\n        /* \"#utility.yul\":6075:6159   */\n      tag_157\n      jumpi\n        /* \"#utility.yul\":6131:6149   */\n      tag_158\n      tag_70\n      jump\t// in\n    tag_158:\n        /* \"#utility.yul\":6075:6159   */\n    tag_157:\n        /* \"#utility.yul\":5896:6165   */\n      pop\n        /* \"#utility.yul\":5845:6165   */\n      swap2\n      swap1\n      pop\n      jump\t// out\n        /* \"#utility.yul\":6171:6312   */\n    tag_71:\n        /* \"#utility.yul\":6220:6224   */\n      0x00\n        /* \"#utility.yul\":6243:6246   */\n      dup2\n        /* \"#utility.yul\":6235:6246   */\n      swap1\n      pop\n        /* \"#utility.yul\":6266:6269   */\n      dup2\n        /* \"#utility.yul\":6263:6264   */\n      0x00\n        /* \"#utility.yul\":6256:6270   */\n      mstore\n        /* \"#utility.yul\":6300:6304   */\n      0x20\n        /* \"#utility.yul\":6297:6298   */\n      0x00\n        /* \"#utility.yul\":6287:6305   */\n      keccak256\n        /* \"#utility.yul\":6279:6305   */\n      swap1\n      pop\n        /* \"#utility.yul\":6171:6312   */\n      swap2\n      swap1\n      pop\n      jump\t// out\n        /* \"#utility.yul\":6318:6411   */\n    tag_72:\n        /* \"#utility.yul\":6355:6361   */\n      0x00\n        /* \"#utility.yul\":6402:6404   */\n      0x20\n        /* \"#utility.yul\":6397:6399   */\n      0x1f\n        /* \"#utility.yul\":6390:6395   */\n      dup4\n        /* \"#utility.yul\":6386:6400   */\n      add\n        /* \"#utility.yul\":6382:6405   */\n      div\n        /* \"#utility.yul\":6372:6405   */\n      swap1\n      pop\n        /* \"#utility.yul\":6318:6411   */\n      swap2\n      swap1\n      pop\n      jump\t// out\n        /* \"#utility.yul\":6417:6524   */\n    tag_73:\n        /* \"#utility.yul\":6461:6469   */\n      0x00\n        /* \"#utility.yul\":6511:6516   */\n      dup3\n        /* \"#utility.yul\":6505:6509   */\n      dup3\n        /* \"#utility.yul\":6501:6517   */\n      shl\n        /* \"#utility.yul\":6480:6517   */\n      swap1\n      pop\n        /* \"#utility.yul\":6417:6524   */\n      swap3\n      swap2\n      pop\n      pop\n      jump\t// out\n        /* \"#utility.yul\":6530:6923   */\n    tag_74:\n        /* \"#utility.yul\":6599:6605   */\n      0x00\n        /* \"#utility.yul\":6649:6650   */\n      0x08\n        /* \"#utility.yul\":6637:6647   */\n      dup4\n        /* \"#utility.yul\":6633:6651   */\n      mul\n        /* \"#utility.yul\":6672:6769   */\n      tag_163\n        /* \"#utility.yul\":6702:6768   */\n      0xffffffffffffffffffffffffffffffffffffffffffffffffffffffffffffffff\n        /* \"#utility.yul\":6691:6700   */\n      dup3\n        /* \"#utility.yul\":6672:6769   */\n      tag_73\n      jump\t// in\n    tag_163:\n        /* \"#utility.yul\":6790:6829   */\n      tag_164\n        /* \"#utility.yul\":6820:6828   */\n      dup7\n        /* \"#utility.yul\":6809:6818   */\n      dup4\n        /* \"#utility.yul\":6790:6829   */\n      tag_73\n      jump\t// in\n    tag_164:\n        /* \"#utility.yul\":6778:6829   */\n      swap6\n      pop\n        /* \"#utility.yul\":6862:6866   */\n      dup1\n        /* \"#utility.yul\":6858:6867   */\n      not\n        /* \"#utility.yul\":6851:6856   */\n      dup5\n        /* \"#utility.yul\":6847:6868   */\n      and\n        /* \"#utility.yul\":6838:6868   */\n      swap4\n      pop\n        /* \"#utility.yul\":6911:6915   */\n      dup1\n        /* \"#utility.yul\":6901:6909   */\n      dup7\n        /* \"#utility.yul\":6897:6916   */\n      and\n        /* \"#utility.yul\":6890:6895   */\n      dup5\n        /* \"#utility.yul\":6887:6917   */\n      or\n        /* \"#utility.yul\":6877:6917   */\n      swap3\n      pop\n        /* \"#utility.yul\":6606:6923   */\n      pop\n      pop\n        /* \"#utility.yul\":6530:6923   */\n      swap4\n      swap3\n      pop\n      pop\n      pop\n      jump\t// out\n        /* \"#utility.yul\":6929:6989   */\n    tag_75:\n        /* \"#utility.yul\":6957:6960   */\n      0x00\n        /* \"#utility.yul\":6978:6983   */\n      dup2\n        /* \"#utility.yul\":6971:6983   */\n      swap1\n      pop\n        /* \"#utility.yul\":6929:6989   */\n      swap2\n      swap1\n      pop\n      jump\t// out\n        /* \"#utility.yul\":6995:7137   */\n    tag_76:\n        /* \"#utility.yul\":7045:7054   */\n      0x00\n        /* \"#utility.yul\":7078:7131   */\n      tag_167\n        /* \"#utility.yul\":7096:7130   */\n      tag_168\n        /* \"#utility.yul\":7105:7129   */\n      tag_169\n        /* \"#utility.yul\":7123:7128   */\n      dup5\n        /* \"#utility.yul\":7105:7129   */\n      tag_60\n      jump\t// in\n    tag_169:\n        /* \"#utility.yul\":7096:7130   */\n      tag_75\n      jump\t// in\n    tag_168:\n        /* \"#utility.yul\":7078:7131   */\n      tag_60\n      jump\t// in\n    tag_167:\n        /* \"#utility.yul\":7065:7131   */\n      swap1\n      pop\n        /* \"#utility.yul\":6995:7137   */\n      swap2\n      swap1\n      pop\n      jump\t// out\n        /* \"#utility.yul\":7143:7218   */\n    tag_77:\n        /* \"#utility.yul\":7186:7189   */\n      0x00\n        /* \"#utility.yul\":7207:7212   */\n      dup2\n        /* \"#utility.yul\":7200:7212   */\n      swap1\n      pop\n        /* \"#utility.yul\":7143:7218   */\n      swap2\n      swap1\n      pop\n      jump\t// out\n        /* \"#utility.yul\":7224:7493   */\n    tag_78:\n        /* \"#utility.yul\":7334:7373   */\n      tag_172\n        /* \"#utility.yul\":7365:7372   */\n      dup4\n        /* \"#utility.yul\":7334:7373   */\n      tag_76\n      jump\t// in\n    tag_172:\n        /* \"#utility.yul\":7395:7486   */\n      tag_173\n        /* \"#utility.yul\":7444:7485   */\n      tag_174\n        /* \"#utility.yul\":7468:7484   */\n      dup3\n        /* \"#utility.yul\":7444:7485   */\n      tag_77\n      jump\t// in\n    tag_174:\n        /* \"#utility.yul\":7436:7442   */\n      dup5\n        /* \"#utility.yul\":7429:7433   */\n      dup5\n        /* \"#utility.yul\":7423:7434   */\n      sload\n        /* \"#utility.yul\":7395:7486   */\n      tag_74\n      jump\t// in\n    tag_173:\n        /* \"#utility.yul\":7389:7393   */\n      dup3\n        /* \"#utility.yul\":7382:7487   */\n      sstore\n        /* \"#utility.yul\":7300:7493   */\n      pop\n        /* \"#utility.yul\":7224:7493   */\n      pop\n      pop\n      pop\n      jump\t// out\n        /* \"#utility.yul\":7499:7572   */\n    tag_79:\n        /* \"#utility.yul\":7544:7547   */\n      0x00\n        /* \"#utility.yul\":7499:7572   */\n      swap1\n      jump\t// out\n        /* \"#utility.yul\":7578:7767   */\n    tag_80:\n        /* \"#utility.yul\":7655:7687   */\n      tag_177\n      tag_79\n      jump\t// in\n    tag_177:\n        /* \"#utility.yul\":7696:7761   */\n      tag_178\n        /* \"#utility.yul\":7754:7760   */\n      dup2\n        /* \"#utility.yul\":7746:7752   */\n      dup5\n        /* \"#utility.yul\":7740:7744   */\n      dup5\n        /* \"#utility.yul\":7696:7761   */\n      tag_78\n      jump\t// in\n    tag_178:\n        /* \"#utility.yul\":7631:7767   */\n      pop\n        /* \"#utility.yul\":7578:7767   */\n      pop\n      pop\n      jump\t// out\n        /* \"#utility.yul\":7773:7959   */\n    tag_81:\n        /* \"#utility.yul\":7833:7953   */\n    tag_180:\n        /* \"#utility.yul\":7850:7853   */\n      dup2\n        /* \"#utility.yul\":7843:7848   */\n      dup2\n        /* \"#utility.yul\":7840:7854   */\n      lt\n        /* \"#utility.yul\":7833:7953   */\n      iszero\n      tag_182\n      jumpi\n        /* \"#utility.yul\":7904:7943   */\n      tag_183\n        /* \"#utility.yul\":7941:7942   */\n      0x00\n        /* \"#utility.yul\":7934:7939   */\n      dup3\n        /* \"#utility.yul\":7904:7943   */\n      tag_80\n      jump\t// in\n    tag_183:\n        /* \"#utility.yul\":7877:7878   */\n      0x01\n        /* \"#utility.yul\":7870:7875   */\n      dup2\n        /* \"#utility.yul\":7866:7879   */\n      add\n        /* \"#utility.yul\":7857:7879   */\n      swap1\n      pop\n        /* \"#utility.yul\":7833:7953   */\n      jump(tag_180)\n    tag_182:\n        /* \"#utility.yul\":7773:7959   */\n      pop\n      pop\n      jump\t// out\n        /* \"#utility.yul\":7965:8508   */\n    tag_82:\n        /* \"#utility.yul\":8066:8068   */\n      0x1f\n        /* \"#utility.yul\":8061:8064   */\n      dup3\n        /* \"#utility.yul\":8058:8069   */\n      gt\n        /* \"#utility.yul\":8055:8501   */\n      iszero\n      tag_185\n      jumpi\n        /* \"#utility.yul\":8100:8138   */\n      tag_186\n        /* \"#utility.yul\":8132:8137   */\n      dup2\n        /* \"#utility.yul\":8100:8138   */\n      tag_71\n      jump\t// in\n    tag_186:\n        /* \"#utility.yul\":8184:8213   */\n      tag_187\n        /* \"#utility.yul\":8202:8212   */\n      dup5\n        /* \"#utility.yul\":8184:8213   */\n      tag_72\n      jump\t// in\n    tag_187:\n        /* \"#utility.yul\":8174:8182   */\n      dup2\n        /* \"#utility.yul\":8170:8214   */\n      add\n        /* \"#utility.yul\":8367:8369   */\n      0x20\n        /* \"#utility.yul\":8355:8365   */\n      dup6\n        /* \"#utility.yul\":8352:8370   */\n      lt\n        /* \"#utility.yul\":8349:8398   */\n      iszero\n      tag_188\n      jumpi\n        /* \"#utility.yul\":8388:8396   */\n      dup2\n        /* \"#utility.yul\":8373:8396   */\n      swap1\n      pop\n        /* \"#utility.yul\":8349:8398   */\n    tag_188:\n        /* \"#utility.yul\":8411:8491   */\n      tag_189\n        /* \"#utility.yul\":8467:8489   */\n      tag_190\n        /* \"#utility.yul\":8485:8488   */\n      dup6\n        /* \"#utility.yul\":8467:8489   */\n      tag_72\n      jump\t// in\n    tag_190:\n        /* \"#utility.yul\":8457:8465   */\n      dup4\n        /* \"#utility.yul\":8453:8490   */\n      add\n        /* \"#utility.yul\":8440:8451   */\n      dup3\n        /* \"#utility.yul\":8411:8491   */\n      tag_81\n      jump\t// in\n    tag_189:\n        /* \"#utility.yul\":8070:8501   */\n      pop\n      pop\n        /* \"#utility.yul\":8055:8501   */\n    tag_185:\n        /* \"#utility.yul\":7965:8508   */\n      pop\n      pop\n      pop\n      jump\t// out\n        /* \"#utility.yul\":8514:8631   */\n    tag_83:\n        /* \"#utility.yul\":8568:8576   */\n      0x00\n        /* \"#utility.yul\":8618:8623   */\n      dup3\n        /* \"#utility.yul\":8612:8616   */\n      dup3\n        /* \"#utility.yul\":8608:8624   */\n      shr\n        /* \"#utility.yul\":8587:8624   */\n      swap1\n      pop\n        /* \"#utility.yul\":8514:8631   */\n      swap3\n      swap2\n      pop\n      pop\n      jump\t// out\n        /* \"#utility.yul\":8637:8806   */\n    tag_84:\n        /* \"#utility.yul\":8681:8687   */\n      0x00\n        /* \"#utility.yul\":8714:8765   */\n      tag_193\n        /* \"#utility.yul\":8762:8763   */\n      0x00\n        /* \"#utility.yul\":8758:8764   */\n      not\n        /* \"#utility.yul\":8750:8755   */\n      dup5\n        /* \"#utility.yul\":8747:8748   */\n      0x08\n        /* \"#utility.yul\":8743:8756   */\n      mul\n        /* \"#utility.yul\":8714:8765   */\n      tag_83\n      jump\t// in\n    tag_193:\n        /* \"#utility.yul\":8710:8766   */\n      not\n        /* \"#utility.yul\":8795:8799   */\n      dup1\n        /* \"#utility.yul\":8789:8793   */\n      dup4\n        /* \"#utility.yul\":8785:8800   */\n      and\n        /* \"#utility.yul\":8775:8800   */\n      swap2\n      pop\n        /* \"#utility.yul\":8688:8806   */\n      pop\n        /* \"#utility.yul\":8637:8806   */\n      swap3\n      swap2\n      pop\n      pop\n      jump\t// out\n        /* \"#utility.yul\":8811:9106   */\n    tag_85:\n        /* \"#utility.yul\":8887:8891   */\n      0x00\n        /* \"#utility.yul\":9033:9062   */\n      tag_195\n        /* \"#utility.yul\":9058:9061   */\n      dup4\n        /* \"#utility.yul\":9052:9056   */\n      dup4\n        /* \"#utility.yul\":9033:9062   */\n      tag_84\n      jump\t// in\n    tag_195:\n        /* \"#utility.yul\":9025:9062   */\n      swap2\n      pop\n        /* \"#utility.yul\":9095:9098   */\n      dup3\n        /* \"#utility.yul\":9092:9093   */\n      0x02\n        /* \"#utility.yul\":9088:9099   */\n      mul\n        /* \"#utility.yul\":9082:9086   */\n      dup3\n        /* \"#utility.yul\":9079:9100   */\n      or\n        /* \"#utility.yul\":9071:9100   */\n      swap1\n      pop\n        /* \"#utility.yul\":8811:9106   */\n      swap3\n      swap2\n      pop\n      pop\n      jump\t// out\n        /* \"#utility.yul\":9111:10506   */\n    tag_27:\n        /* \"#utility.yul\":9228:9265   */\n      tag_197\n        /* \"#utility.yul\":9261:9264   */\n      dup3\n        /* \"#utility.yul\":9228:9265   */\n      tag_64\n      jump\t// in\n    tag_197:\n        /* \"#utility.yul\":9330:9348   */\n      0xffffffffffffffff\n        /* \"#utility.yul\":9322:9328   */\n      dup2\n        /* \"#utility.yul\":9319:9349   */\n      gt\n        /* \"#utility.yul\":9316:9372   */\n      iszero\n      tag_198\n      jumpi\n        /* \"#utility.yul\":9352:9370   */\n      tag_199\n      tag_53\n      jump\t// in\n    tag_199:\n        /* \"#utility.yul\":9316:9372   */\n    tag_198:\n        /* \"#utility.yul\":9396:9434   */\n      tag_200\n        /* \"#utility.yul\":9428:9432   */\n      dup3\n        /* \"#utility.yul\":9422:9433   */\n      sload\n        /* \"#utility.yul\":9396:9434   */\n      tag_37\n      jump\t// in\n    tag_200:\n        /* \"#utility.yul\":9481:9548   */\n      tag_201\n        /* \"#utility.yul\":9541:9547   */\n      dup3\n        /* \"#utility.yul\":9533:9539   */\n      dup3\n        /* \"#utility.yul\":9527:9531   */\n      dup6\n        /* \"#utility.yul\":9481:9548   */\n      tag_82\n      jump\t// in\n    tag_201:\n        /* \"#utility.yul\":9575:9576   */\n      0x00\n        /* \"#utility.yul\":9599:9603   */\n      0x20\n        /* \"#utility.yul\":9586:9603   */\n      swap1\n      pop\n        /* \"#utility.yul\":9631:9633   */\n      0x1f\n        /* \"#utility.yul\":9623:9629   */\n      dup4\n        /* \"#utility.yul\":9620:9634   */\n      gt\n        /* \"#utility.yul\":9648:9649   */\n      0x01\n        /* \"#utility.yul\":9643:10261   */\n      dup2\n      eq\n      tag_203\n      jumpi\n        /* \"#utility.yul\":10305:10306   */\n      0x00\n        /* \"#utility.yul\":10322:10328   */\n      dup5\n        /* \"#utility.yul\":10319:10396   */\n      iszero\n      tag_204\n      jumpi\n        /* \"#utility.yul\":10371:10380   */\n      dup3\n        /* \"#utility.yul\":10366:10369   */\n      dup8\n        /* \"#utility.yul\":10362:10381   */\n      add\n        /* \"#utility.yul\":10356:10382   */\n      mload\n        /* \"#utility.yul\":10347:10382   */\n      swap1\n      pop\n        /* \"#utility.yul\":10319:10396   */\n    tag_204:\n        /* \"#utility.yul\":10422:10489   */\n      tag_205\n        /* \"#utility.yul\":10482:10488   */\n      dup6\n        /* \"#utility.yul\":10475:10480   */\n      dup3\n        /* \"#utility.yul\":10422:10489   */\n      tag_85\n      jump\t// in\n    tag_205:\n        /* \"#utility.yul\":10416:10420   */\n      dup7\n        /* \"#utility.yul\":10409:10490   */\n      sstore\n        /* \"#utility.yul\":10278:10500   */\n      pop\n        /* \"#utility.yul\":9613:10500   */\n      jump(tag_202)\n        /* \"#utility.yul\":9643:10261   */\n    tag_203:\n        /* \"#utility.yul\":9695:9699   */\n      0x1f\n        /* \"#utility.yul\":9691:9700   */\n      not\n        /* \"#utility.yul\":9683:9689   */\n      dup5\n        /* \"#utility.yul\":9679:9701   */\n      and\n        /* \"#utility.yul\":9729:9766   */\n      tag_206\n        /* \"#utility.yul\":9761:9765   */\n      dup7\n        /* \"#utility.yul\":9729:9766   */\n      tag_71\n      jump\t// in\n    tag_206:\n        /* \"#utility.yul\":9788:9789   */\n      0x00\n        /* \"#utility.yul\":9802:10010   */\n    tag_207:\n        /* \"#utility.yul\":9816:9823   */\n      dup3\n        /* \"#utility.yul\":9813:9814   */\n      dup2\n        /* \"#utility.yul\":9810:9824   */\n      lt\n        /* \"#utility.yul\":9802:10010   */\n      iszero\n      tag_209\n      jumpi\n        /* \"#utility.yul\":9895:9904   */\n      dup5\n        /* \"#utility.yul\":9890:9893   */\n      dup10\n        /* \"#utility.yul\":9886:9905   */\n      add\n        /* \"#utility.yul\":9880:9906   */\n      mload\n        /* \"#utility.yul\":9872:9878   */\n      dup3\n        /* \"#utility.yul\":9865:9907   */\n      sstore\n        /* \"#utility.yul\":9946:9947   */\n      0x01\n        /* \"#utility.yul\":9938:9944   */\n      dup3\n        /* \"#utility.yul\":9934:9948   */\n      add\n        /* \"#utility.yul\":9924:9948   */\n      swap2\n      pop\n        /* \"#utility.yul\":9993:9995   */\n      0x20\n        /* \"#utility.yul\":9982:9991   */\n      dup6\n        /* \"#utility.yul\":9978:9996   */\n      add\n        /* \"#utility.yul\":9965:9996   */\n      swap5\n      pop\n        /* \"#utility.yul\":9839:9843   */\n      0x20\n        /* \"#utility.yul\":9836:9837   */\n      dup2\n        /* \"#utility.yul\":9832:9844   */\n      add\n        /* \"#utility.yul\":9827:9844   */\n      swap1\n      pop\n        /* \"#utility.yul\":9802:10010   */\n      jump(tag_207)\n    tag_209:\n        /* \"#utility.yul\":10038:10044   */\n      dup7\n        /* \"#utility.yul\":10029:10036   */\n      dup4\n        /* \"#utility.yul\":10026:10045   */\n      lt\n        /* \"#utility.yul\":10023:10202   */\n      iszero\n      tag_210\n      jumpi\n        /* \"#utility.yul\":10096:10105   */\n      dup5\n        /* \"#utility.yul\":10091:10094   */\n      dup10\n        /* \"#utility.yul\":10087:10106   */\n      add\n        /* \"#utility.yul\":10081:10107   */\n      mload\n        /* \"#utility.yul\":10139:10187   */\n      tag_211\n        /* \"#utility.yul\":10181:10185   */\n      0x1f\n        /* \"#utility.yul\":10173:10179   */\n      dup10\n        /* \"#utility.yul\":10169:10186   */\n      and\n        /* \"#utility.yul\":10158:10167   */\n      dup3\n        /* \"#utility.yul\":10139:10187   */\n      tag_84\n      jump\t// in\n    tag_211:\n        /* \"#utility.yul\":10131:10137   */\n      dup4\n        /* \"#utility.yul\":10124:10188   */\n      sstore\n        /* \"#utility.yul\":10046:10202   */\n      pop\n        /* \"#utility.yul\":10023:10202   */\n    tag_210:\n        /* \"#utility.yul\":10248:10249   */\n      0x01\n        /* \"#utility.yul\":10244:10245   */\n      0x02\n        /* \"#utility.yul\":10236:10242   */\n      dup9\n        /* \"#utility.yul\":10232:10246   */\n      mul\n        /* \"#utility.yul\":10228:10250   */\n      add\n        /* \"#utility.yul\":10222:10226   */\n      dup9\n        /* \"#utility.yul\":10215:10251   */\n      sstore\n        /* \"#utility.yul\":9650:10261   */\n      pop\n      pop\n      pop\n        /* \"#utility.yul\":9613:10500   */\n    tag_202:\n      pop\n        /* \"#utility.yul\":9203:10506   */\n      pop\n      pop\n      pop\n        /* \"#utility.yul\":9111:10506   */\n      pop\n      pop\n      jump\t// out\n        /* \"#utility.yul\":10512:10935   */\n    tag_29:\n        /* \"#utility.yul\":10653:10657   */\n      0x00\n        /* \"#utility.yul\":10691:10693   */\n      0x40\n        /* \"#utility.yul\":10680:10689   */\n      dup3\n        /* \"#utility.yul\":10676:10694   */\n      add\n        /* \"#utility.yul\":10668:10694   */\n      swap1\n      pop\n        /* \"#utility.yul\":10704:10775   */\n      tag_213\n        /* \"#utility.yul\":10772:10773   */\n      0x00\n        /* \"#utility.yul\":10761:10770   */\n      dup4\n        /* \"#utility.yul\":10757:10774   */\n      add\n        /* \"#utility.yul\":10748:10754   */\n      dup6\n        /* \"#utility.yul\":10704:10775   */\n      tag_63\n      jump\t// in\n    tag_213:\n        /* \"#utility.yul\":10822:10831   */\n      dup2\n        /* \"#utility.yul\":10816:10820   */\n      dup2\n        /* \"#utility.yul\":10812:10832   */\n      sub\n        /* \"#utility.yul\":10807:10809   */\n      0x20\n        /* \"#utility.yul\":10796:10805   */\n      dup4\n        /* \"#utility.yul\":10792:10810   */\n      add\n        /* \"#utility.yul\":10785:10833   */\n      mstore\n        /* \"#utility.yul\":10850:10928   */\n      tag_214\n        /* \"#utility.yul\":10923:10927   */\n      dup2\n        /* \"#utility.yul\":10914:10920   */\n      dup5\n        /* \"#utility.yul\":10850:10928   */\n      tag_67\n      jump\t// in\n    tag_214:\n        /* \"#utility.yul\":10842:10928   */\n      swap1\n      pop\n        /* \"#utility.yul\":10512:10935   */\n      swap4\n      swap3\n      pop\n      pop\n      pop\n      jump\t// out\n        /* \"#utility.yul\":10941:11121   */\n    tag_86:\n        /* \"#utility.yul\":10989:11066   */\n      0x4e487b7100000000000000000000000000000000000000000000000000000000\n        /* \"#utility.yul\":10986:10987   */\n      0x00\n        /* \"#utility.yul\":10979:11067   */\n      mstore\n        /* \"#utility.yul\":11086:11090   */\n      0x11\n        /* \"#utility.yul\":11083:11084   */\n      0x04\n        /* \"#utility.yul\":11076:11091   */\n      mstore\n        /* \"#utility.yul\":11110:11114   */\n      0x24\n        /* \"#utility.yul\":11107:11108   */\n      0x00\n        /* \"#utility.yul\":11100:11115   */\n      revert\n        /* \"#utility.yul\":11127:11360   */\n    tag_31:\n        /* \"#utility.yul\":11166:11169   */\n      0x00\n        /* \"#utility.yul\":11189:11213   */\n      tag_217\n        /* \"#utility.yul\":11207:11212   */\n      dup3\n        /* \"#utility.yul\":11189:11213   */\n      tag_60\n      jump\t// in\n    tag_217:\n        /* \"#utility.yul\":11180:11213   */\n      swap2\n      pop\n        /* \"#utility.yul\":11235:11301   */\n      0xffffffffffffffffffffffffffffffffffffffffffffffffffffffffffffffff\n        /* \"#utility.yul\":11228:11233   */\n      dup3\n        /* \"#utility.yul\":11225:11302   */\n      sub\n        /* \"#utility.yul\":11222:11325   */\n      tag_218\n      jumpi\n        /* \"#utility.yul\":11305:11323   */\n      tag_219\n      tag_86\n      jump\t// in\n    tag_219:\n        /* \"#utility.yul\":11222:11325   */\n    tag_218:\n        /* \"#utility.yul\":11352:11353   */\n      0x01\n        /* \"#utility.yul\":11345:11350   */\n      dup3\n        /* \"#utility.yul\":11341:11354   */\n      add\n        /* \"#utility.yul\":11334:11354   */\n      swap1\n      pop\n        /* \"#utility.yul\":11127:11360   */\n      swap2\n      swap1\n      pop\n      jump\t// out\n        /* \"#utility.yul\":11366:11530   */\n    tag_87:\n        /* \"#utility.yul\":11506:11522   */\n      0x5461736b206e6f7420666f756e64000000000000000000000000000000000000\n        /* \"#utility.yul\":11502:11503   */\n      0x00\n        /* \"#utility.yul\":11494:11500   */\n      dup3\n        /* \"#utility.yul\":11490:11504   */\n      add\n        /* \"#utility.yul\":11483:11523   */\n      mstore\n        /* \"#utility.yul\":11366:11530   */\n      pop\n      jump\t// out\n        /* \"#utility.yul\":11536:11902   */\n    tag_88:\n        /* \"#utility.yul\":11678:11681   */\n      0x00\n        /* \"#utility.yul\":11699:11766   */\n      tag_222\n        /* \"#utility.yul\":11763:11765   */\n      0x0e\n        /* \"#utility.yul\":11758:11761   */\n      dup4\n        /* \"#utility.yul\":11699:11766   */\n      tag_65\n      jump\t// in\n    tag_222:\n        /* \"#utility.yul\":11692:11766   */\n      swap2\n      pop\n        /* \"#utility.yul\":11775:11868   */\n      tag_223\n        /* \"#utility.yul\":11864:11867   */\n      dup3\n        /* \"#utility.yul\":11775:11868   */\n      tag_87\n      jump\t// in\n    tag_223:\n        /* \"#utility.yul\":11893:11895   */\n      0x20\n        /* \"#utility.yul\":11888:11891   */\n      dup3\n        /* \"#utility.yul\":11884:11896   */\n      add\n        /* \"#utility.yul\":11877:11896   */\n      swap1\n      pop\n        /* \"#utility.yul\":11536:11902   */\n      swap2\n      swap1\n      pop\n      jump\t// out\n        /* \"#utility.yul\":11908:12327   */\n    tag_35:\n        /* \"#utility.yul\":12074:12078   */\n      0x00\n        /* \"#utility.yul\":12112:12114   */\n      0x20\n        /* \"#utility.yul\":12101:12110   */\n      dup3\n        /* \"#utility.yul\":12097:12115   */\n      add\n        /* \"#utility.yul\":12089:12115   */\n      swap1\n      pop\n        /* \"#utility.yul\":12161:12170   */\n      dup2\n        /* \"#utility.yul\":12155:12159   */\n      dup2\n        /* \"#utility.yul\":12151:12171   */\n      sub\n        /* \"#utility.yul\":12147:12148   */\n      0x00\n        /* \"#utility.yul\":12136:12145   */\n      dup4\n        /* \"#utility.yul\":12132:12149   */\n      add\n        /* \"#utility.yul\":12125:12172   */\n      mstore\n        /* \"#utility.yul\":12189:12320   */\n      tag_225\n        /* \"#utility.yul\":12315:12319   */\n      dup2\n        /* \"#utility.yul\":12189:12320   */\n      tag_88\n      jump\t// in\n    tag_225:\n        /* \"#utility.yul\":12181:12320   */\n      swap1\n      pop\n        /* \"#utility.yul\":11908:12327   */\n      swap2\n      swap1\n      pop\n      jump\t// out\n\n    auxdata: 0xa26469706673582212208946a975dc9395a5e1c51f2cdf60be84dc89c05c5f3138440be58d12bf765b6a64736f6c634300081a0033\n}\n",
				"bytecode": {
					"linkReferences": {},
					"object": "608060405260015f553480156012575f80fd5b50610a63806100205f395ff3fe608060405234801561000f575f80fd5b506004361061004a575f3560e01c8063111002aa1461004e5780631d65e77e1461006a57806361b8ce8c1461009c5780638d977672146100ba575b5f80fd5b610068600480360381019061006391906104d7565b6100ec565b005b610084600480360381019061007f9190610551565b6101af565b60405161009393929190610605565b60405180910390f35b6100a46102cd565b6040516100b19190610641565b60405180910390f35b6100d460048036038101906100cf9190610551565b6102d2565b6040516100e393929190610605565b60405180910390f35b60405180606001604052805f5481526020018281526020015f151581525060015f805481526020019081526020015f205f820151815f015560208201518160010190816101399190610854565b506040820151816002015f6101000a81548160ff0219169083151502179055509050507fa5ed9e6226c584326505694539c95cb0e3238ae09bcda5a65c00bbfdab1c66625f548260405161018e929190610923565b60405180910390a15f808154809291906101a79061097e565b919050555050565b5f60605f8060015f8681526020019081526020015f205f015403610208576040517f08c379a00000000000000000000000000000000000000000000000000000000081526004016101ff90610a0f565b60405180910390fd5b5f60015f8681526020019081526020015f209050805f015481600101826002015f9054906101000a900460ff1681805461024190610687565b80601f016020809104026020016040519081016040528092919081815260200182805461026d90610687565b80156102b85780601f1061028f576101008083540402835291602001916102b8565b820191905f5260205f20905b81548152906001019060200180831161029b57829003601f168201915b50505050509150935093509350509193909250565b5f5481565b6001602052805f5260405f205f91509050805f0154908060010180546102f790610687565b80601f016020809104026020016040519081016040528092919081815260200182805461032390610687565b801561036e5780601f106103455761010080835404028352916020019161036e565b820191905f5260205f20905b81548152906001019060200180831161035157829003601f168201915b505050505090806002015f9054906101000a900460ff16905083565b5f604051905090565b5f80fd5b5f80fd5b5f80fd5b5f80fd5b5f601f19601f8301169050919050565b7f4e487b71000000000000000000000000000000000000000000000000000000005f52604160045260245ffd5b6103e9826103a3565b810181811067ffffffffffffffff82111715610408576104076103b3565b5b80604052505050565b5f61041a61038a565b905061042682826103e0565b919050565b5f67ffffffffffffffff821115610445576104446103b3565b5b61044e826103a3565b9050602081019050919050565b828183375f83830152505050565b5f61047b6104768461042b565b610411565b9050828152602081018484840111156104975761049661039f565b5b6104a284828561045b565b509392505050565b5f82601f8301126104be576104bd61039b565b5b81356104ce848260208601610469565b91505092915050565b5f602082840312156104ec576104eb610393565b5b5f82013567ffffffffffffffff81111561050957610508610397565b5b610515848285016104aa565b91505092915050565b5f819050919050565b6105308161051e565b811461053a575f80fd5b50565b5f8135905061054b81610527565b92915050565b5f6020828403121561056657610565610393565b5b5f6105738482850161053d565b91505092915050565b6105858161051e565b82525050565b5f81519050919050565b5f82825260208201905092915050565b8281835e5f83830152505050565b5f6105bd8261058b565b6105c78185610595565b93506105d78185602086016105a5565b6105e0816103a3565b840191505092915050565b5f8115159050919050565b6105ff816105eb565b82525050565b5f6060820190506106185f83018661057c565b818103602083015261062a81856105b3565b905061063960408301846105f6565b949350505050565b5f6020820190506106545f83018461057c565b92915050565b7f4e487b71000000000000000000000000000000000000000000000000000000005f52602260045260245ffd5b5f600282049050600182168061069e57607f821691505b6020821081036106b1576106b061065a565b5b50919050565b5f819050815f5260205f209050919050565b5f6020601f8301049050919050565b5f82821b905092915050565b5f600883026107137fffffffffffffffffffffffffffffffffffffffffffffffffffffffffffffffff826106d8565b61071d86836106d8565b95508019841693508086168417925050509392505050565b5f819050919050565b5f61075861075361074e8461051e565b610735565b61051e565b9050919050565b5f819050919050565b6107718361073e565b61078561077d8261075f565b8484546106e4565b825550505050565b5f90565b61079961078d565b6107a4818484610768565b505050565b5b818110156107c7576107bc5f82610791565b6001810190506107aa565b5050565b601f82111561080c576107dd816106b7565b6107e6846106c9565b810160208510156107f5578190505b610809610801856106c9565b8301826107a9565b50505b505050565b5f82821c905092915050565b5f61082c5f1984600802610811565b1980831691505092915050565b5f610844838361081d565b9150826002028217905092915050565b61085d8261058b565b67ffffffffffffffff811115610876576108756103b3565b5b6108808254610687565b61088b8282856107cb565b5f60209050601f8311600181146108bc575f84156108aa578287015190505b6108b48582610839565b86555061091b565b601f1984166108ca866106b7565b5f5b828110156108f1578489015182556001820191506020850194506020810190506108cc565b8683101561090e578489015161090a601f89168261081d565b8355505b6001600288020188555050505b505050505050565b5f6040820190506109365f83018561057c565b818103602083015261094881846105b3565b90509392505050565b7f4e487b71000000000000000000000000000000000000000000000000000000005f52601160045260245ffd5b5f6109888261051e565b91507fffffffffffffffffffffffffffffffffffffffffffffffffffffffffffffffff82036109ba576109b9610951565b5b600182019050919050565b7f5461736b206e6f7420666f756e640000000000000000000000000000000000005f82015250565b5f6109f9600e83610595565b9150610a04826109c5565b602082019050919050565b5f6020820190508181035f830152610a26816109ed565b905091905056fea26469706673582212208946a975dc9395a5e1c51f2cdf60be84dc89c05c5f3138440be58d12bf765b6a64736f6c634300081a0033",
					"opcodes": "PUSH1 0x80 PUSH1 0x40 MSTORE PUSH1 0x1 PUSH0 SSTORE CALLVALUE DUP1 ISZERO PUSH1 0x12 JUMPI PUSH0 DUP1 REVERT JUMPDEST POP PUSH2 0xA63 DUP1 PUSH2 0x20 PUSH0 CODECOPY PUSH0 RETURN INVALID PUSH1 0x80 PUSH1 0x40 MSTORE CALLVALUE DUP1 ISZERO PUSH2 0xF JUMPI PUSH0 DUP1 REVERT JUMPDEST POP PUSH1 0x4 CALLDATASIZE LT PUSH2 0x4A JUMPI PUSH0 CALLDATALOAD PUSH1 0xE0 SHR DUP1 PUSH4 0x111002AA EQ PUSH2 0x4E JUMPI DUP1 PUSH4 0x1D65E77E EQ PUSH2 0x6A JUMPI DUP1 PUSH4 0x61B8CE8C EQ PUSH2 0x9C JUMPI DUP1 PUSH4 0x8D977672 EQ PUSH2 0xBA JUMPI JUMPDEST PUSH0 DUP1 REVERT JUMPDEST PUSH2 0x68 PUSH1 0x4 DUP1 CALLDATASIZE SUB DUP2 ADD SWAP1 PUSH2 0x63 SWAP2 SWAP1 PUSH2 0x4D7 JUMP JUMPDEST PUSH2 0xEC JUMP JUMPDEST STOP JUMPDEST PUSH2 0x84 PUSH1 0x4 DUP1 CALLDATASIZE SUB DUP2 ADD SWAP1 PUSH2 0x7F SWAP2 SWAP1 PUSH2 0x551 JUMP JUMPDEST PUSH2 0x1AF JUMP JUMPDEST PUSH1 0x40 MLOAD PUSH2 0x93 SWAP4 SWAP3 SWAP2 SWAP1 PUSH2 0x605 JUMP JUMPDEST PUSH1 0x40 MLOAD DUP1 SWAP2 SUB SWAP1 RETURN JUMPDEST PUSH2 0xA4 PUSH2 0x2CD JUMP JUMPDEST PUSH1 0x40 MLOAD PUSH2 0xB1 SWAP2 SWAP1 PUSH2 0x641 JUMP JUMPDEST PUSH1 0x40 MLOAD DUP1 SWAP2 SUB SWAP1 RETURN JUMPDEST PUSH2 0xD4 PUSH1 0x4 DUP1 CALLDATASIZE SUB DUP2 ADD SWAP1 PUSH2 0xCF SWAP2 SWAP1 PUSH2 0x551 JUMP JUMPDEST PUSH2 0x2D2 JUMP JUMPDEST PUSH1 0x40 MLOAD PUSH2 0xE3 SWAP4 SWAP3 SWAP2 SWAP1 PUSH2 0x605 JUMP JUMPDEST PUSH1 0x40 MLOAD DUP1 SWAP2 SUB SWAP1 RETURN JUMPDEST PUSH1 0x40 MLOAD DUP1 PUSH1 0x60 ADD PUSH1 0x40 MSTORE DUP1 PUSH0 SLOAD DUP2 MSTORE PUSH1 0x20 ADD DUP3 DUP2 MSTORE PUSH1 0x20 ADD PUSH0 ISZERO ISZERO DUP2 MSTORE POP PUSH1 0x1 PUSH0 DUP1 SLOAD DUP2 MSTORE PUSH1 0x20 ADD SWAP1 DUP2 MSTORE PUSH1 0x20 ADD PUSH0 KECCAK256 PUSH0 DUP3 ADD MLOAD DUP2 PUSH0 ADD SSTORE PUSH1 0x20 DUP3 ADD MLOAD DUP2 PUSH1 0x1 ADD SWAP1 DUP2 PUSH2 0x139 SWAP2 SWAP1 PUSH2 0x854 JUMP JUMPDEST POP PUSH1 0x40 DUP3 ADD MLOAD DUP2 PUSH1 0x2 ADD PUSH0 PUSH2 0x100 EXP DUP2 SLOAD DUP2 PUSH1 0xFF MUL NOT AND SWAP1 DUP4 ISZERO ISZERO MUL OR SWAP1 SSTORE POP SWAP1 POP POP PUSH32 0xA5ED9E6226C584326505694539C95CB0E3238AE09BCDA5A65C00BBFDAB1C6662 PUSH0 SLOAD DUP3 PUSH1 0x40 MLOAD PUSH2 0x18E SWAP3 SWAP2 SWAP1 PUSH2 0x923 JUMP JUMPDEST PUSH1 0x40 MLOAD DUP1 SWAP2 SUB SWAP1 LOG1 PUSH0 DUP1 DUP2 SLOAD DUP1 SWAP3 SWAP2 SWAP1 PUSH2 0x1A7 SWAP1 PUSH2 0x97E JUMP JUMPDEST SWAP2 SWAP1 POP SSTORE POP POP JUMP JUMPDEST PUSH0 PUSH1 0x60 PUSH0 DUP1 PUSH1 0x1 PUSH0 DUP7 DUP2 MSTORE PUSH1 0x20 ADD SWAP1 DUP2 MSTORE PUSH1 0x20 ADD PUSH0 KECCAK256 PUSH0 ADD SLOAD SUB PUSH2 0x208 JUMPI PUSH1 0x40 MLOAD PUSH32 0x8C379A000000000000000000000000000000000000000000000000000000000 DUP2 MSTORE PUSH1 0x4 ADD PUSH2 0x1FF SWAP1 PUSH2 0xA0F JUMP JUMPDEST PUSH1 0x40 MLOAD DUP1 SWAP2 SUB SWAP1 REVERT JUMPDEST PUSH0 PUSH1 0x1 PUSH0 DUP7 DUP2 MSTORE PUSH1 0x20 ADD SWAP1 DUP2 MSTORE PUSH1 0x20 ADD PUSH0 KECCAK256 SWAP1 POP DUP1 PUSH0 ADD SLOAD DUP2 PUSH1 0x1 ADD DUP3 PUSH1 0x2 ADD PUSH0 SWAP1 SLOAD SWAP1 PUSH2 0x100 EXP SWAP1 DIV PUSH1 0xFF AND DUP2 DUP1 SLOAD PUSH2 0x241 SWAP1 PUSH2 0x687 JUMP JUMPDEST DUP1 PUSH1 0x1F ADD PUSH1 0x20 DUP1 SWAP2 DIV MUL PUSH1 0x20 ADD PUSH1 0x40 MLOAD SWAP1 DUP2 ADD PUSH1 0x40 MSTORE DUP1 SWAP3 SWAP2 SWAP1 DUP2 DUP2 MSTORE PUSH1 0x20 ADD DUP3 DUP1 SLOAD PUSH2 0x26D SWAP1 PUSH2 0x687 JUMP JUMPDEST DUP1 ISZERO PUSH2 0x2B8 JUMPI DUP1 PUSH1 0x1F LT PUSH2 0x28F JUMPI PUSH2 0x100 DUP1 DUP4 SLOAD DIV MUL DUP4 MSTORE SWAP2 PUSH1 0x20 ADD SWAP2 PUSH2 0x2B8 JUMP JUMPDEST DUP3 ADD SWAP2 SWAP1 PUSH0 MSTORE PUSH1 0x20 PUSH0 KECCAK256 SWAP1 JUMPDEST DUP2 SLOAD DUP2 MSTORE SWAP1 PUSH1 0x1 ADD SWAP1 PUSH1 0x20 ADD DUP1 DUP4 GT PUSH2 0x29B JUMPI DUP3 SWAP1 SUB PUSH1 0x1F AND DUP3 ADD SWAP2 JUMPDEST POP POP POP POP POP SWAP2 POP SWAP4 POP SWAP4 POP SWAP4 POP POP SWAP2 SWAP4 SWAP1 SWAP3 POP JUMP JUMPDEST PUSH0 SLOAD DUP2 JUMP JUMPDEST PUSH1 0x1 PUSH1 0x20 MSTORE DUP1 PUSH0 MSTORE PUSH1 0x40 PUSH0 KECCAK256 PUSH0 SWAP2 POP SWAP1 POP DUP1 PUSH0 ADD SLOAD SWAP1 DUP1 PUSH1 0x1 ADD DUP1 SLOAD PUSH2 0x2F7 SWAP1 PUSH2 0x687 JUMP JUMPDEST DUP1 PUSH1 0x1F ADD PUSH1 0x20 DUP1 SWAP2 DIV MUL PUSH1 0x20 ADD PUSH1 0x40 MLOAD SWAP1 DUP2 ADD PUSH1 0x40 MSTORE DUP1 SWAP3 SWAP2 SWAP1 DUP2 DUP2 MSTORE PUSH1 0x20 ADD DUP3 DUP1 SLOAD PUSH2 0x323 SWAP1 PUSH2 0x687 JUMP JUMPDEST DUP1 ISZERO PUSH2 0x36E JUMPI DUP1 PUSH1 0x1F LT PUSH2 0x345 JUMPI PUSH2 0x100 DUP1 DUP4 SLOAD DIV MUL DUP4 MSTORE SWAP2 PUSH1 0x20 ADD SWAP2 PUSH2 0x36E JUMP JUMPDEST DUP3 ADD SWAP2 SWAP1 PUSH0 MSTORE PUSH1 0x20 PUSH0 KECCAK256 SWAP1 JUMPDEST DUP2 SLOAD DUP2 MSTORE SWAP1 PUSH1 0x1 ADD SWAP1 PUSH1 0x20 ADD DUP1 DUP4 GT PUSH2 0x351 JUMPI DUP3 SWAP1 SUB PUSH1 0x1F AND DUP3 ADD SWAP2 JUMPDEST POP POP POP POP POP SWAP1 DUP1 PUSH1 0x2 ADD PUSH0 SWAP1 SLOAD SWAP1 PUSH2 0x100 EXP SWAP1 DIV PUSH1 0xFF AND SWAP1 POP DUP4 JUMP JUMPDEST PUSH0 PUSH1 0x40 MLOAD SWAP1 POP SWAP1 JUMP JUMPDEST PUSH0 DUP1 REVERT JUMPDEST PUSH0 DUP1 REVERT JUMPDEST PUSH0 DUP1 REVERT JUMPDEST PUSH0 DUP1 REVERT JUMPDEST PUSH0 PUSH1 0x1F NOT PUSH1 0x1F DUP4 ADD AND SWAP1 POP SWAP2 SWAP1 POP JUMP JUMPDEST PUSH32 0x4E487B7100000000000000000000000000000000000000000000000000000000 PUSH0 MSTORE PUSH1 0x41 PUSH1 0x4 MSTORE PUSH1 0x24 PUSH0 REVERT JUMPDEST PUSH2 0x3E9 DUP3 PUSH2 0x3A3 JUMP JUMPDEST DUP2 ADD DUP2 DUP2 LT PUSH8 0xFFFFFFFFFFFFFFFF DUP3 GT OR ISZERO PUSH2 0x408 JUMPI PUSH2 0x407 PUSH2 0x3B3 JUMP JUMPDEST JUMPDEST DUP1 PUSH1 0x40 MSTORE POP POP POP JUMP JUMPDEST PUSH0 PUSH2 0x41A PUSH2 0x38A JUMP JUMPDEST SWAP1 POP PUSH2 0x426 DUP3 DUP3 PUSH2 0x3E0 JUMP JUMPDEST SWAP2 SWAP1 POP JUMP JUMPDEST PUSH0 PUSH8 0xFFFFFFFFFFFFFFFF DUP3 GT ISZERO PUSH2 0x445 JUMPI PUSH2 0x444 PUSH2 0x3B3 JUMP JUMPDEST JUMPDEST PUSH2 0x44E DUP3 PUSH2 0x3A3 JUMP JUMPDEST SWAP1 POP PUSH1 0x20 DUP2 ADD SWAP1 POP SWAP2 SWAP1 POP JUMP JUMPDEST DUP3 DUP2 DUP4 CALLDATACOPY PUSH0 DUP4 DUP4 ADD MSTORE POP POP POP JUMP JUMPDEST PUSH0 PUSH2 0x47B PUSH2 0x476 DUP5 PUSH2 0x42B JUMP JUMPDEST PUSH2 0x411 JUMP JUMPDEST SWAP1 POP DUP3 DUP2 MSTORE PUSH1 0x20 DUP2 ADD DUP5 DUP5 DUP5 ADD GT ISZERO PUSH2 0x497 JUMPI PUSH2 0x496 PUSH2 0x39F JUMP JUMPDEST JUMPDEST PUSH2 0x4A2 DUP5 DUP3 DUP6 PUSH2 0x45B JUMP JUMPDEST POP SWAP4 SWAP3 POP POP POP JUMP JUMPDEST PUSH0 DUP3 PUSH1 0x1F DUP4 ADD SLT PUSH2 0x4BE JUMPI PUSH2 0x4BD PUSH2 0x39B JUMP JUMPDEST JUMPDEST DUP2 CALLDATALOAD PUSH2 0x4CE DUP5 DUP3 PUSH1 0x20 DUP7 ADD PUSH2 0x469 JUMP JUMPDEST SWAP2 POP POP SWAP3 SWAP2 POP POP JUMP JUMPDEST PUSH0 PUSH1 0x20 DUP3 DUP5 SUB SLT ISZERO PUSH2 0x4EC JUMPI PUSH2 0x4EB PUSH2 0x393 JUMP JUMPDEST JUMPDEST PUSH0 DUP3 ADD CALLDATALOAD PUSH8 0xFFFFFFFFFFFFFFFF DUP2 GT ISZERO PUSH2 0x509 JUMPI PUSH2 0x508 PUSH2 0x397 JUMP JUMPDEST JUMPDEST PUSH2 0x515 DUP5 DUP3 DUP6 ADD PUSH2 0x4AA JUMP JUMPDEST SWAP2 POP POP SWAP3 SWAP2 POP POP JUMP JUMPDEST PUSH0 DUP2 SWAP1 POP SWAP2 SWAP1 POP JUMP JUMPDEST PUSH2 0x530 DUP2 PUSH2 0x51E JUMP JUMPDEST DUP2 EQ PUSH2 0x53A JUMPI PUSH0 DUP1 REVERT JUMPDEST POP JUMP JUMPDEST PUSH0 DUP2 CALLDATALOAD SWAP1 POP PUSH2 0x54B DUP2 PUSH2 0x527 JUMP JUMPDEST SWAP3 SWAP2 POP POP JUMP JUMPDEST PUSH0 PUSH1 0x20 DUP3 DUP5 SUB SLT ISZERO PUSH2 0x566 JUMPI PUSH2 0x565 PUSH2 0x393 JUMP JUMPDEST JUMPDEST PUSH0 PUSH2 0x573 DUP5 DUP3 DUP6 ADD PUSH2 0x53D JUMP JUMPDEST SWAP2 POP POP SWAP3 SWAP2 POP POP JUMP JUMPDEST PUSH2 0x585 DUP2 PUSH2 0x51E JUMP JUMPDEST DUP3 MSTORE POP POP JUMP JUMPDEST PUSH0 DUP2 MLOAD SWAP1 POP SWAP2 SWAP1 POP JUMP JUMPDEST PUSH0 DUP3 DUP3 MSTORE PUSH1 0x20 DUP3 ADD SWAP1 POP SWAP3 SWAP2 POP POP JUMP JUMPDEST DUP3 DUP2 DUP4 MCOPY PUSH0 DUP4 DUP4 ADD MSTORE POP POP POP JUMP JUMPDEST PUSH0 PUSH2 0x5BD DUP3 PUSH2 0x58B JUMP JUMPDEST PUSH2 0x5C7 DUP2 DUP6 PUSH2 0x595 JUMP JUMPDEST SWAP4 POP PUSH2 0x5D7 DUP2 DUP6 PUSH1 0x20 DUP7 ADD PUSH2 0x5A5 JUMP JUMPDEST PUSH2 0x5E0 DUP2 PUSH2 0x3A3 JUMP JUMPDEST DUP5 ADD SWAP2 POP POP SWAP3 SWAP2 POP POP JUMP JUMPDEST PUSH0 DUP2 ISZERO ISZERO SWAP1 POP SWAP2 SWAP1 POP JUMP JUMPDEST PUSH2 0x5FF DUP2 PUSH2 0x5EB JUMP JUMPDEST DUP3 MSTORE POP POP JUMP JUMPDEST PUSH0 PUSH1 0x60 DUP3 ADD SWAP1 POP PUSH2 0x618 PUSH0 DUP4 ADD DUP7 PUSH2 0x57C JUMP JUMPDEST DUP2 DUP2 SUB PUSH1 0x20 DUP4 ADD MSTORE PUSH2 0x62A DUP2 DUP6 PUSH2 0x5B3 JUMP JUMPDEST SWAP1 POP PUSH2 0x639 PUSH1 0x40 DUP4 ADD DUP5 PUSH2 0x5F6 JUMP JUMPDEST SWAP5 SWAP4 POP POP POP POP JUMP JUMPDEST PUSH0 PUSH1 0x20 DUP3 ADD SWAP1 POP PUSH2 0x654 PUSH0 DUP4 ADD DUP5 PUSH2 0x57C JUMP JUMPDEST SWAP3 SWAP2 POP POP JUMP JUMPDEST PUSH32 0x4E487B7100000000000000000000000000000000000000000000000000000000 PUSH0 MSTORE PUSH1 0x22 PUSH1 0x4 MSTORE PUSH1 0x24 PUSH0 REVERT JUMPDEST PUSH0 PUSH1 0x2 DUP3 DIV SWAP1 POP PUSH1 0x1 DUP3 AND DUP1 PUSH2 0x69E JUMPI PUSH1 0x7F DUP3 AND SWAP2 POP JUMPDEST PUSH1 0x20 DUP3 LT DUP2 SUB PUSH2 0x6B1 JUMPI PUSH2 0x6B0 PUSH2 0x65A JUMP JUMPDEST JUMPDEST POP SWAP2 SWAP1 POP JUMP JUMPDEST PUSH0 DUP2 SWAP1 POP DUP2 PUSH0 MSTORE PUSH1 0x20 PUSH0 KECCAK256 SWAP1 POP SWAP2 SWAP1 POP JUMP JUMPDEST PUSH0 PUSH1 0x20 PUSH1 0x1F DUP4 ADD DIV SWAP1 POP SWAP2 SWAP1 POP JUMP JUMPDEST PUSH0 DUP3 DUP3 SHL SWAP1 POP SWAP3 SWAP2 POP POP JUMP JUMPDEST PUSH0 PUSH1 0x8 DUP4 MUL PUSH2 0x713 PUSH32 0xFFFFFFFFFFFFFFFFFFFFFFFFFFFFFFFFFFFFFFFFFFFFFFFFFFFFFFFFFFFFFFFF DUP3 PUSH2 0x6D8 JUMP JUMPDEST PUSH2 0x71D DUP7 DUP4 PUSH2 0x6D8 JUMP JUMPDEST SWAP6 POP DUP1 NOT DUP5 AND SWAP4 POP DUP1 DUP7 AND DUP5 OR SWAP3 POP POP POP SWAP4 SWAP3 POP POP POP JUMP JUMPDEST PUSH0 DUP2 SWAP1 POP SWAP2 SWAP1 POP JUMP JUMPDEST PUSH0 PUSH2 0x758 PUSH2 0x753 PUSH2 0x74E DUP5 PUSH2 0x51E JUMP JUMPDEST PUSH2 0x735 JUMP JUMPDEST PUSH2 0x51E JUMP JUMPDEST SWAP1 POP SWAP2 SWAP1 POP JUMP JUMPDEST PUSH0 DUP2 SWAP1 POP SWAP2 SWAP1 POP JUMP JUMPDEST PUSH2 0x771 DUP4 PUSH2 0x73E JUMP JUMPDEST PUSH2 0x785 PUSH2 0x77D DUP3 PUSH2 0x75F JUMP JUMPDEST DUP5 DUP5 SLOAD PUSH2 0x6E4 JUMP JUMPDEST DUP3 SSTORE POP POP POP POP JUMP JUMPDEST PUSH0 SWAP1 JUMP JUMPDEST PUSH2 0x799 PUSH2 0x78D JUMP JUMPDEST PUSH2 0x7A4 DUP2 DUP5 DUP5 PUSH2 0x768 JUMP JUMPDEST POP POP POP JUMP JUMPDEST JUMPDEST DUP2 DUP2 LT ISZERO PUSH2 0x7C7 JUMPI PUSH2 0x7BC PUSH0 DUP3 PUSH2 0x791 JUMP JUMPDEST PUSH1 0x1 DUP2 ADD SWAP1 POP PUSH2 0x7AA JUMP JUMPDEST POP POP JUMP JUMPDEST PUSH1 0x1F DUP3 GT ISZERO PUSH2 0x80C JUMPI PUSH2 0x7DD DUP2 PUSH2 0x6B7 JUMP JUMPDEST PUSH2 0x7E6 DUP5 PUSH2 0x6C9 JUMP JUMPDEST DUP2 ADD PUSH1 0x20 DUP6 LT ISZERO PUSH2 0x7F5 JUMPI DUP2 SWAP1 POP JUMPDEST PUSH2 0x809 PUSH2 0x801 DUP6 PUSH2 0x6C9 JUMP JUMPDEST DUP4 ADD DUP3 PUSH2 0x7A9 JUMP JUMPDEST POP POP JUMPDEST POP POP POP JUMP JUMPDEST PUSH0 DUP3 DUP3 SHR SWAP1 POP SWAP3 SWAP2 POP POP JUMP JUMPDEST PUSH0 PUSH2 0x82C PUSH0 NOT DUP5 PUSH1 0x8 MUL PUSH2 0x811 JUMP JUMPDEST NOT DUP1 DUP4 AND SWAP2 POP POP SWAP3 SWAP2 POP POP JUMP JUMPDEST PUSH0 PUSH2 0x844 DUP4 DUP4 PUSH2 0x81D JUMP JUMPDEST SWAP2 POP DUP3 PUSH1 0x2 MUL DUP3 OR SWAP1 POP SWAP3 SWAP2 POP POP JUMP JUMPDEST PUSH2 0x85D DUP3 PUSH2 0x58B JUMP JUMPDEST PUSH8 0xFFFFFFFFFFFFFFFF DUP2 GT ISZERO PUSH2 0x876 JUMPI PUSH2 0x875 PUSH2 0x3B3 JUMP JUMPDEST JUMPDEST PUSH2 0x880 DUP3 SLOAD PUSH2 0x687 JUMP JUMPDEST PUSH2 0x88B DUP3 DUP3 DUP6 PUSH2 0x7CB JUMP JUMPDEST PUSH0 PUSH1 0x20 SWAP1 POP PUSH1 0x1F DUP4 GT PUSH1 0x1 DUP2 EQ PUSH2 0x8BC JUMPI PUSH0 DUP5 ISZERO PUSH2 0x8AA JUMPI DUP3 DUP8 ADD MLOAD SWAP1 POP JUMPDEST PUSH2 0x8B4 DUP6 DUP3 PUSH2 0x839 JUMP JUMPDEST DUP7 SSTORE POP PUSH2 0x91B JUMP JUMPDEST PUSH1 0x1F NOT DUP5 AND PUSH2 0x8CA DUP7 PUSH2 0x6B7 JUMP JUMPDEST PUSH0 JUMPDEST DUP3 DUP2 LT ISZERO PUSH2 0x8F1 JUMPI DUP5 DUP10 ADD MLOAD DUP3 SSTORE PUSH1 0x1 DUP3 ADD SWAP2 POP PUSH1 0x20 DUP6 ADD SWAP5 POP PUSH1 0x20 DUP2 ADD SWAP1 POP PUSH2 0x8CC JUMP JUMPDEST DUP7 DUP4 LT ISZERO PUSH2 0x90E JUMPI DUP5 DUP10 ADD MLOAD PUSH2 0x90A PUSH1 0x1F DUP10 AND DUP3 PUSH2 0x81D JUMP JUMPDEST DUP4 SSTORE POP JUMPDEST PUSH1 0x1 PUSH1 0x2 DUP9 MUL ADD DUP9 SSTORE POP POP POP JUMPDEST POP POP POP POP POP POP JUMP JUMPDEST PUSH0 PUSH1 0x40 DUP3 ADD SWAP1 POP PUSH2 0x936 PUSH0 DUP4 ADD DUP6 PUSH2 0x57C JUMP JUMPDEST DUP2 DUP2 SUB PUSH1 0x20 DUP4 ADD MSTORE PUSH2 0x948 DUP2 DUP5 PUSH2 0x5B3 JUMP JUMPDEST SWAP1 POP SWAP4 SWAP3 POP POP POP JUMP JUMPDEST PUSH32 0x4E487B7100000000000000000000000000000000000000000000000000000000 PUSH0 MSTORE PUSH1 0x11 PUSH1 0x4 MSTORE PUSH1 0x24 PUSH0 REVERT JUMPDEST PUSH0 PUSH2 0x988 DUP3 PUSH2 0x51E JUMP JUMPDEST SWAP2 POP PUSH32 0xFFFFFFFFFFFFFFFFFFFFFFFFFFFFFFFFFFFFFFFFFFFFFFFFFFFFFFFFFFFFFFFF DUP3 SUB PUSH2 0x9BA JUMPI PUSH2 0x9B9 PUSH2 0x951 JUMP JUMPDEST JUMPDEST PUSH1 0x1 DUP3 ADD SWAP1 POP SWAP2 SWAP1 POP JUMP JUMPDEST PUSH32 0x5461736B206E6F7420666F756E64000000000000000000000000000000000000 PUSH0 DUP3 ADD MSTORE POP JUMP JUMPDEST PUSH0 PUSH2 0x9F9 PUSH1 0xE DUP4 PUSH2 0x595 JUMP JUMPDEST SWAP2 POP PUSH2 0xA04 DUP3 PUSH2 0x9C5 JUMP JUMPDEST PUSH1 0x20 DUP3 ADD SWAP1 POP SWAP2 SWAP1 POP JUMP JUMPDEST PUSH0 PUSH1 0x20 DUP3 ADD SWAP1 POP DUP2 DUP2 SUB PUSH0 DUP4 ADD MSTORE PUSH2 0xA26 DUP2 PUSH2 0x9ED JUMP JUMPDEST SWAP1 POP SWAP2 SWAP1 POP JUMP INVALID LOG2 PUSH5 0x6970667358 0x22 SLT KECCAK256 DUP10 CHAINID 0xA9 PUSH22 0xDC9395A5E1C51F2CDF60BE84DC89C05C5F3138440BE5 DUP14 SLT 0xBF PUSH23 0x5B6A64736F6C634300081A003300000000000000000000 "
				},
				"gasEstimates": {
					"creation": {
						"codeDepositCost": "531800",
						"executionCost": "22671",
						"totalCost": "554471"
					},
					"external": {
						"createTask(string)": "infinite",
						"getTask(uint256)": "infinite",
						"nextId()": "2446",
						"tasks(uint256)": "infinite"
					}
				},
				"methodIdentifiers": {
					"createTask(string)": "111002aa",
					"getTask(uint256)": "1d65e77e",
					"nextId()": "61b8ce8c",
					"tasks(uint256)": "8d977672"
				}
			},
			"storageLayout": {
				"storage": [
					{
						"astId": 4,
						"contract": "contracts/TodoCRUD.sol:TodoCRUD",
						"label": "nextId",
						"offset": 0,
						"slot": "0",
						"type": "t_uint256"
					},
					{
						"astId": 16,
						"contract": "contracts/TodoCRUD.sol:TodoCRUD",
						"label": "tasks",
						"offset": 0,
						"slot": "1",
						"type": "t_mapping(t_uint256,t_struct(Task)11_storage)"
					}
				],
				"types": {
					"t_bool": {
						"encoding": "inplace",
						"label": "bool",
						"numberOfBytes": "1"
					},
					"t_mapping(t_uint256,t_struct(Task)11_storage)": {
						"encoding": "mapping",
						"key": "t_uint256",
						"label": "mapping(uint256 => struct TodoCRUD.Task)",
						"numberOfBytes": "32",
						"value": "t_struct(Task)11_storage"
					},
					"t_string_storage": {
						"encoding": "bytes",
						"label": "string",
						"numberOfBytes": "32"
					},
					"t_struct(Task)11_storage": {
						"encoding": "inplace",
						"label": "struct TodoCRUD.Task",
						"members": [
							{
								"astId": 6,
								"contract": "contracts/TodoCRUD.sol:TodoCRUD",
								"label": "id",
								"offset": 0,
								"slot": "0",
								"type": "t_uint256"
							},
							{
								"astId": 8,
								"contract": "contracts/TodoCRUD.sol:TodoCRUD",
								"label": "content",
								"offset": 0,
								"slot": "1",
								"type": "t_string_storage"
							},
							{
								"astId": 10,
								"contract": "contracts/TodoCRUD.sol:TodoCRUD",
								"label": "completed",
								"offset": 0,
								"slot": "2",
								"type": "t_bool"
							}
						],
						"numberOfBytes": "96"
					},
					"t_uint256": {
						"encoding": "inplace",
						"label": "uint256",
						"numberOfBytes": "32"
					}
				}
			},
			"userdoc": {
				"kind": "user",
				"methods": {},
				"version": 1
			}
		}
	}
}