{
	"contracts/FoodDelivery_2.sol": {
		"FoodDelivery": {
			"abi": [
				{
					"anonymous": false,
					"inputs": [
						{
							"indexed": true,
							"internalType": "address",
							"name": "restaurant",
							"type": "address"
						},
						{
							"indexed": false,
							"internalType": "uint256",
							"name": "itemId",
							"type": "uint256"
						},
						{
							"indexed": false,
							"internalType": "string",
							"name": "itemName",
							"type": "string"
						},
						{
							"indexed": false,
							"internalType": "uint256",
							"name": "price",
							"type": "uint256"
						}
					],
					"name": "MenuItemAdded",
					"type": "event"
				},
				{
					"anonymous": false,
					"inputs": [
						{
							"indexed": true,
							"internalType": "uint256",
							"name": "orderId",
							"type": "uint256"
						},
						{
							"indexed": true,
							"internalType": "address",
							"name": "customer",
							"type": "address"
						},
						{
							"indexed": true,
							"internalType": "address",
							"name": "restaurant",
							"type": "address"
						},
						{
							"indexed": false,
							"internalType": "uint256",
							"name": "totalAmount",
							"type": "uint256"
						}
					],
					"name": "OrderPlaced",
					"type": "event"
				},
				{
					"anonymous": false,
					"inputs": [
						{
							"indexed": true,
							"internalType": "uint256",
							"name": "orderId",
							"type": "uint256"
						},
						{
							"indexed": false,
							"internalType": "enum FoodDelivery.OrderStatus",
							"name": "newStatus",
							"type": "uint8"
						}
					],
					"name": "OrderStatusUpdated",
					"type": "event"
				},
				{
					"anonymous": false,
					"inputs": [
						{
							"indexed": true,
							"internalType": "address",
							"name": "restaurant",
							"type": "address"
						},
						{
							"indexed": false,
							"internalType": "string",
							"name": "name",
							"type": "string"
						}
					],
					"name": "RestaurantRegistered",
					"type": "event"
				},
				{
					"inputs": [
						{
							"internalType": "uint256",
							"name": "_itemId",
							"type": "uint256"
						},
						{
							"internalType": "string",
							"name": "_itemName",
							"type": "string"
						},
						{
							"internalType": "uint256",
							"name": "_price",
							"type": "uint256"
						}
					],
					"name": "addMenuItem",
					"outputs": [],
					"stateMutability": "nonpayable",
					"type": "function"
				},
				{
					"inputs": [
						{
							"internalType": "address",
							"name": "",
							"type": "address"
						},
						{
							"internalType": "uint256",
							"name": "",
							"type": "uint256"
						}
					],
					"name": "customerOrders",
					"outputs": [
						{
							"internalType": "uint256",
							"name": "",
							"type": "uint256"
						}
					],
					"stateMutability": "view",
					"type": "function"
				},
				{
					"inputs": [
						{
							"internalType": "address",
							"name": "_customer",
							"type": "address"
						}
					],
					"name": "getCustomerOrder",
					"outputs": [
						{
							"internalType": "uint256[]",
							"name": "",
							"type": "uint256[]"
						}
					],
					"stateMutability": "view",
					"type": "function"
				},
				{
					"inputs": [
						{
							"internalType": "uint256",
							"name": "_orderId",
							"type": "uint256"
						}
					],
					"name": "getOrderDetails",
					"outputs": [
						{
							"components": [
								{
									"internalType": "uint256",
									"name": "OrderId",
									"type": "uint256"
								},
								{
									"internalType": "address",
									"name": "customer",
									"type": "address"
								},
								{
									"internalType": "uint256",
									"name": "totalAmount",
									"type": "uint256"
								},
								{
									"internalType": "uint256[]",
									"name": "itemsIds",
									"type": "uint256[]"
								},
								{
									"internalType": "enum FoodDelivery.OrderStatus",
									"name": "status",
									"type": "uint8"
								},
								{
									"internalType": "address",
									"name": "restaurant",
									"type": "address"
								},
								{
									"internalType": "uint256",
									"name": "timestamp",
									"type": "uint256"
								}
							],
							"internalType": "struct FoodDelivery.Order",
							"name": "",
							"type": "tuple"
						}
					],
					"stateMutability": "view",
					"type": "function"
				},
				{
					"inputs": [
						{
							"internalType": "address",
							"name": "_restaurant",
							"type": "address"
						}
					],
					"name": "getRestaurantDetails",
					"outputs": [
						{
							"internalType": "string",
							"name": "",
							"type": "string"
						},
						{
							"internalType": "string",
							"name": "",
							"type": "string"
						},
						{
							"internalType": "uint256",
							"name": "",
							"type": "uint256"
						},
						{
							"internalType": "bool",
							"name": "",
							"type": "bool"
						}
					],
					"stateMutability": "view",
					"type": "function"
				},
				{
					"inputs": [
						{
							"internalType": "address",
							"name": "",
							"type": "address"
						},
						{
							"internalType": "uint256",
							"name": "",
							"type": "uint256"
						}
					],
					"name": "menus",
					"outputs": [
						{
							"internalType": "string",
							"name": "name",
							"type": "string"
						},
						{
							"internalType": "uint256",
							"name": "price",
							"type": "uint256"
						},
						{
							"internalType": "bool",
							"name": "isAvailable",
							"type": "bool"
						}
					],
					"stateMutability": "view",
					"type": "function"
				},
				{
					"inputs": [],
					"name": "nextOrderId",
					"outputs": [
						{
							"internalType": "uint256",
							"name": "",
							"type": "uint256"
						}
					],
					"stateMutability": "view",
					"type": "function"
				},
				{
					"inputs": [
						{
							"internalType": "uint256",
							"name": "",
							"type": "uint256"
						}
					],
					"name": "orders",
					"outputs": [
						{
							"internalType": "uint256",
							"name": "OrderId",
							"type": "uint256"
						},
						{
							"internalType": "address",
							"name": "customer",
							"type": "address"
						},
						{
							"internalType": "uint256",
							"name": "totalAmount",
							"type": "uint256"
						},
						{
							"internalType": "enum FoodDelivery.OrderStatus",
							"name": "status",
							"type": "uint8"
						},
						{
							"internalType": "address",
							"name": "restaurant",
							"type": "address"
						},
						{
							"internalType": "uint256",
							"name": "timestamp",
							"type": "uint256"
						}
					],
					"stateMutability": "view",
					"type": "function"
				},
				{
					"inputs": [
						{
							"internalType": "address",
							"name": "_restaurant",
							"type": "address"
						},
						{
							"internalType": "uint256[]",
							"name": "_itemIds",
							"type": "uint256[]"
						}
					],
					"name": "placeOrder",
					"outputs": [],
					"stateMutability": "payable",
					"type": "function"
				},
				{
					"inputs": [
						{
							"internalType": "string",
							"name": "_name",
							"type": "string"
						},
						{
							"internalType": "string",
							"name": "_location",
							"type": "string"
						}
					],
					"name": "registerRestaurant",
					"outputs": [],
					"stateMutability": "nonpayable",
					"type": "function"
				},
				{
					"inputs": [
						{
							"internalType": "address",
							"name": "",
							"type": "address"
						}
					],
					"name": "restaurants",
					"outputs": [
						{
							"internalType": "string",
							"name": "name",
							"type": "string"
						},
						{
							"internalType": "string",
							"name": "location",
							"type": "string"
						},
						{
							"internalType": "uint256",
							"name": "registrationTime",
							"type": "uint256"
						},
						{
							"internalType": "bool",
							"name": "isRegistered",
							"type": "bool"
						}
					],
					"stateMutability": "view",
					"type": "function"
				},
				{
					"inputs": [
						{
							"internalType": "uint256",
							"name": "_itemId",
							"type": "uint256"
						},
						{
							"internalType": "bool",
							"name": "_isAvailable",
							"type": "bool"
						}
					],
					"name": "updateMenuItemAvailability",
					"outputs": [],
					"stateMutability": "nonpayable",
					"type": "function"
				},
				{
					"inputs": [
						{
							"internalType": "uint256",
							"name": "_orderId",
							"type": "uint256"
						},
						{
							"internalType": "enum FoodDelivery.OrderStatus",
							"name": "_newStatus",
							"type": "uint8"
						}
					],
					"name": "updateOrderStatus",
					"outputs": [],
					"stateMutability": "nonpayable",
					"type": "function"
				},
				{
					"inputs": [],
					"name": "withdrawFunds",
					"outputs": [],
					"stateMutability": "nonpayable",
					"type": "function"
				}
			],
			"devdoc": {
				"kind": "dev",
				"methods": {},
				"version": 1
			},
			"evm": {
				"assembly": "    /* \"contracts/FoodDelivery_2.sol\":60:5260  contract FoodDelivery {... */\n  mstore(0x40, 0x80)\n    /* \"contracts/FoodDelivery_2.sol\":814:815  1 */\n  0x01\n    /* \"contracts/FoodDelivery_2.sol\":784:815  uint256 public  nextOrderId = 1 */\n  0x00\n  sstore\n    /* \"contracts/FoodDelivery_2.sol\":60:5260  contract FoodDelivery {... */\n  callvalue\n  dup1\n  iszero\n  tag_1\n  jumpi\n  0x00\n  dup1\n  revert\ntag_1:\n  pop\n  dataSize(sub_0)\n  dup1\n  dataOffset(sub_0)\n  0x00\n  codecopy\n  0x00\n  return\nstop\n\nsub_0: assembly {\n        /* \"contracts/FoodDelivery_2.sol\":60:5260  contract FoodDelivery {... */\n      mstore(0x40, 0x80)\n      jumpi(tag_1, lt(calldatasize, 0x04))\n      shr(0xe0, calldataload(0x00))\n      dup1\n      0x641c07a3\n      gt\n      tag_16\n      jumpi\n      dup1\n      0xa85c38ef\n      gt\n      tag_17\n      jumpi\n      dup1\n      0xa85c38ef\n      eq\n      tag_12\n      jumpi\n      dup1\n      0xaab3196d\n      eq\n      tag_13\n      jumpi\n      dup1\n      0xc2505ac4\n      eq\n      tag_14\n      jumpi\n      dup1\n      0xec7dd7bb\n      eq\n      tag_15\n      jumpi\n      jump(tag_1)\n    tag_17:\n      dup1\n      0x641c07a3\n      eq\n      tag_9\n      jumpi\n      dup1\n      0x880d4ee8\n      eq\n      tag_10\n      jumpi\n      dup1\n      0x947ca0d2\n      eq\n      tag_11\n      jumpi\n      jump(tag_1)\n    tag_16:\n      dup1\n      0x236cd7dc\n      gt\n      tag_18\n      jumpi\n      dup1\n      0x236cd7dc\n      eq\n      tag_5\n      jumpi\n      dup1\n      0x24600fc3\n      eq\n      tag_6\n      jumpi\n      dup1\n      0x2a58b330\n      eq\n      tag_7\n      jumpi\n      dup1\n      0x3c0c5e64\n      eq\n      tag_8\n      jumpi\n      jump(tag_1)\n    tag_18:\n      dup1\n      0x08677ee7\n      eq\n      tag_2\n      jumpi\n      dup1\n      0x0ed128a8\n      eq\n      tag_3\n      jumpi\n      dup1\n      0x1600c6cd\n      eq\n      tag_4\n      jumpi\n    tag_1:\n      0x00\n      dup1\n      revert\n        /* \"contracts/FoodDelivery_2.sol\":878:939  mapping(address => mapping(uint256 => MenuItem)) public menus */\n    tag_2:\n      callvalue\n      dup1\n      iszero\n      tag_19\n      jumpi\n      0x00\n      dup1\n      revert\n    tag_19:\n      pop\n      tag_20\n      0x04\n      dup1\n      calldatasize\n      sub\n      dup2\n      add\n      swap1\n      tag_21\n      swap2\n      swap1\n      tag_22\n      jump\t// in\n    tag_21:\n      tag_23\n      jump\t// in\n    tag_20:\n      mload(0x40)\n      tag_24\n      swap4\n      swap3\n      swap2\n      swap1\n      tag_25\n      jump\t// in\n    tag_24:\n      mload(0x40)\n      dup1\n      swap2\n      sub\n      swap1\n      return\n        /* \"contracts/FoodDelivery_2.sol\":5120:5257  function getCustomerOrder(address _customer) external view returns (uint256[] memory) {... */\n    tag_3:\n      callvalue\n      dup1\n      iszero\n      tag_26\n      jumpi\n      0x00\n      dup1\n      revert\n    tag_26:\n      pop\n      tag_27\n      0x04\n      dup1\n      calldatasize\n      sub\n      dup2\n      add\n      swap1\n      tag_28\n      swap2\n      swap1\n      tag_29\n      jump\t// in\n    tag_28:\n      tag_30\n      jump\t// in\n    tag_27:\n      mload(0x40)\n      tag_31\n      swap2\n      swap1\n      tag_32\n      jump\t// in\n    tag_31:\n      mload(0x40)\n      dup1\n      swap2\n      sub\n      swap1\n      return\n        /* \"contracts/FoodDelivery_2.sol\":992:1043  mapping(address => uint256[]) public customerOrders */\n    tag_4:\n      callvalue\n      dup1\n      iszero\n      tag_33\n      jumpi\n      0x00\n      dup1\n      revert\n    tag_33:\n      pop\n      tag_34\n      0x04\n      dup1\n      calldatasize\n      sub\n      dup2\n      add\n      swap1\n      tag_35\n      swap2\n      swap1\n      tag_22\n      jump\t// in\n    tag_35:\n      tag_36\n      jump\t// in\n    tag_34:\n      mload(0x40)\n      tag_37\n      swap2\n      swap1\n      tag_38\n      jump\t// in\n    tag_37:\n      mload(0x40)\n      dup1\n      swap2\n      sub\n      swap1\n      return\n        /* \"contracts/FoodDelivery_2.sol\":822:871  mapping(address => Restaurant) public restaurants */\n    tag_5:\n      callvalue\n      dup1\n      iszero\n      tag_39\n      jumpi\n      0x00\n      dup1\n      revert\n    tag_39:\n      pop\n      tag_40\n      0x04\n      dup1\n      calldatasize\n      sub\n      dup2\n      add\n      swap1\n      tag_41\n      swap2\n      swap1\n      tag_29\n      jump\t// in\n    tag_41:\n      tag_42\n      jump\t// in\n    tag_40:\n      mload(0x40)\n      tag_43\n      swap5\n      swap4\n      swap3\n      swap2\n      swap1\n      tag_44\n      jump\t// in\n    tag_43:\n      mload(0x40)\n      dup1\n      swap2\n      sub\n      swap1\n      return\n        /* \"contracts/FoodDelivery_2.sol\":4395:4615  function withdrawFunds() external onlyRegisteredRestaurant {... */\n    tag_6:\n      callvalue\n      dup1\n      iszero\n      tag_45\n      jumpi\n      0x00\n      dup1\n      revert\n    tag_45:\n      pop\n      tag_46\n      tag_47\n      jump\t// in\n    tag_46:\n      stop\n        /* \"contracts/FoodDelivery_2.sol\":784:815  uint256 public  nextOrderId = 1 */\n    tag_7:\n      callvalue\n      dup1\n      iszero\n      tag_48\n      jumpi\n      0x00\n      dup1\n      revert\n    tag_48:\n      pop\n      tag_49\n      tag_50\n      jump\t// in\n    tag_49:\n      mload(0x40)\n      tag_51\n      swap2\n      swap1\n      tag_38\n      jump\t// in\n    tag_51:\n      mload(0x40)\n      dup1\n      swap2\n      sub\n      swap1\n      return\n        /* \"contracts/FoodDelivery_2.sol\":2998:3993  function placeOrder(address _restaurant, uint256[] memory _itemIds) external payable onlyCustomer {... */\n    tag_8:\n      tag_52\n      0x04\n      dup1\n      calldatasize\n      sub\n      dup2\n      add\n      swap1\n      tag_53\n      swap2\n      swap1\n      tag_54\n      jump\t// in\n    tag_53:\n      tag_55\n      jump\t// in\n    tag_52:\n      stop\n        /* \"contracts/FoodDelivery_2.sol\":2708:2966  function updateMenuItemAvailability(uint256 _itemId, bool _isAvailable) external onlyRegisteredRestaurant {... */\n    tag_9:\n      callvalue\n      dup1\n      iszero\n      tag_56\n      jumpi\n      0x00\n      dup1\n      revert\n    tag_56:\n      pop\n      tag_57\n      0x04\n      dup1\n      calldatasize\n      sub\n      dup2\n      add\n      swap1\n      tag_58\n      swap2\n      swap1\n      tag_59\n      jump\t// in\n    tag_58:\n      tag_60\n      jump\t// in\n    tag_57:\n      stop\n        /* \"contracts/FoodDelivery_2.sol\":1822:2263  function registerRestaurant(string memory _name, string memory _location) external {... */\n    tag_10:\n      callvalue\n      dup1\n      iszero\n      tag_61\n      jumpi\n      0x00\n      dup1\n      revert\n    tag_61:\n      pop\n      tag_62\n      0x04\n      dup1\n      calldatasize\n      sub\n      dup2\n      add\n      swap1\n      tag_63\n      swap2\n      swap1\n      tag_64\n      jump\t// in\n    tag_63:\n      tag_65\n      jump\t// in\n    tag_62:\n      stop\n        /* \"contracts/FoodDelivery_2.sol\":2295:2702  function addMenuItem(uint256 _itemId, string memory _itemName, uint256 _price) external onlyRegisteredRestaurant {... */\n    tag_11:\n      callvalue\n      dup1\n      iszero\n      tag_66\n      jumpi\n      0x00\n      dup1\n      revert\n    tag_66:\n      pop\n      tag_67\n      0x04\n      dup1\n      calldatasize\n      sub\n      dup2\n      add\n      swap1\n      tag_68\n      swap2\n      swap1\n      tag_69\n      jump\t// in\n    tag_68:\n      tag_70\n      jump\t// in\n    tag_67:\n      stop\n        /* \"contracts/FoodDelivery_2.sol\":946:985  mapping(uint256 => Order) public orders */\n    tag_12:\n      callvalue\n      dup1\n      iszero\n      tag_71\n      jumpi\n      0x00\n      dup1\n      revert\n    tag_71:\n      pop\n      tag_72\n      0x04\n      dup1\n      calldatasize\n      sub\n      dup2\n      add\n      swap1\n      tag_73\n      swap2\n      swap1\n      tag_74\n      jump\t// in\n    tag_73:\n      tag_75\n      jump\t// in\n    tag_72:\n      mload(0x40)\n      tag_76\n      swap7\n      swap6\n      swap5\n      swap4\n      swap3\n      swap2\n      swap1\n      tag_77\n      jump\t// in\n    tag_76:\n      mload(0x40)\n      dup1\n      swap2\n      sub\n      swap1\n      return\n        /* \"contracts/FoodDelivery_2.sol\":4020:4365  function updateOrderStatus(uint256 _orderId, OrderStatus _newStatus) external onlyRegisteredRestaurant {... */\n    tag_13:\n      callvalue\n      dup1\n      iszero\n      tag_78\n      jumpi\n      0x00\n      dup1\n      revert\n    tag_78:\n      pop\n      tag_79\n      0x04\n      dup1\n      calldatasize\n      sub\n      dup2\n      add\n      swap1\n      tag_80\n      swap2\n      swap1\n      tag_81\n      jump\t// in\n    tag_80:\n      tag_82\n      jump\t// in\n    tag_79:\n      stop\n        /* \"contracts/FoodDelivery_2.sol\":4676:4980  function getRestaurantDetails(address _restaurant) external view returns (string memory, string memory, uint256, bool) {... */\n    tag_14:\n      callvalue\n      dup1\n      iszero\n      tag_83\n      jumpi\n      0x00\n      dup1\n      revert\n    tag_83:\n      pop\n      tag_84\n      0x04\n      dup1\n      calldatasize\n      sub\n      dup2\n      add\n      swap1\n      tag_85\n      swap2\n      swap1\n      tag_29\n      jump\t// in\n    tag_85:\n      tag_86\n      jump\t// in\n    tag_84:\n      mload(0x40)\n      tag_87\n      swap5\n      swap4\n      swap3\n      swap2\n      swap1\n      tag_44\n      jump\t// in\n    tag_87:\n      mload(0x40)\n      dup1\n      swap2\n      sub\n      swap1\n      return\n        /* \"contracts/FoodDelivery_2.sol\":4988:5112  function getOrderDetails(uint256 _orderId) external view returns ( Order memory ) {... */\n    tag_15:\n      callvalue\n      dup1\n      iszero\n      tag_88\n      jumpi\n      0x00\n      dup1\n      revert\n    tag_88:\n      pop\n      tag_89\n      0x04\n      dup1\n      calldatasize\n      sub\n      dup2\n      add\n      swap1\n      tag_90\n      swap2\n      swap1\n      tag_74\n      jump\t// in\n    tag_90:\n      tag_91\n      jump\t// in\n    tag_89:\n      mload(0x40)\n      tag_92\n      swap2\n      swap1\n      tag_93\n      jump\t// in\n    tag_92:\n      mload(0x40)\n      dup1\n      swap2\n      sub\n      swap1\n      return\n        /* \"contracts/FoodDelivery_2.sol\":878:939  mapping(address => mapping(uint256 => MenuItem)) public menus */\n    tag_23:\n      mstore(0x20, 0x02)\n      dup2\n      0x00\n      mstore\n      mstore(0x20, keccak256(0x00, 0x40))\n      dup1\n      0x00\n      mstore\n      keccak256(0x00, 0x40)\n      0x00\n      swap2\n      pop\n      swap2\n      pop\n      pop\n      dup1\n      0x00\n      add\n      dup1\n      sload\n      tag_94\n      swap1\n      tag_95\n      jump\t// in\n    tag_94:\n      dup1\n      0x1f\n      add\n      0x20\n      dup1\n      swap2\n      div\n      mul\n      0x20\n      add\n      mload(0x40)\n      swap1\n      dup2\n      add\n      0x40\n      mstore\n      dup1\n      swap3\n      swap2\n      swap1\n      dup2\n      dup2\n      mstore\n      0x20\n      add\n      dup3\n      dup1\n      sload\n      tag_96\n      swap1\n      tag_95\n      jump\t// in\n    tag_96:\n      dup1\n      iszero\n      tag_97\n      jumpi\n      dup1\n      0x1f\n      lt\n      tag_98\n      jumpi\n      0x0100\n      dup1\n      dup4\n      sload\n      div\n      mul\n      dup4\n      mstore\n      swap2\n      0x20\n      add\n      swap2\n      jump(tag_97)\n    tag_98:\n      dup3\n      add\n      swap2\n      swap1\n      0x00\n      mstore\n      keccak256(0x00, 0x20)\n      swap1\n    tag_99:\n      dup2\n      sload\n      dup2\n      mstore\n      swap1\n      0x01\n      add\n      swap1\n      0x20\n      add\n      dup1\n      dup4\n      gt\n      tag_99\n      jumpi\n      dup3\n      swap1\n      sub\n      0x1f\n      and\n      dup3\n      add\n      swap2\n    tag_97:\n      pop\n      pop\n      pop\n      pop\n      pop\n      swap1\n      dup1\n      0x01\n      add\n      sload\n      swap1\n      dup1\n      0x02\n      add\n      0x00\n      swap1\n      sload\n      swap1\n      0x0100\n      exp\n      swap1\n      div\n      0xff\n      and\n      swap1\n      pop\n      dup4\n      jump\t// out\n        /* \"contracts/FoodDelivery_2.sol\":5120:5257  function getCustomerOrder(address _customer) external view returns (uint256[] memory) {... */\n    tag_30:\n        /* \"contracts/FoodDelivery_2.sol\":5188:5204  uint256[] memory */\n      0x60\n        /* \"contracts/FoodDelivery_2.sol\":5224:5238  customerOrders */\n      0x04\n        /* \"contracts/FoodDelivery_2.sol\":5224:5249  customerOrders[_customer] */\n      0x00\n        /* \"contracts/FoodDelivery_2.sol\":5239:5248  _customer */\n      dup4\n        /* \"contracts/FoodDelivery_2.sol\":5224:5249  customerOrders[_customer] */\n      0xffffffffffffffffffffffffffffffffffffffff\n      and\n      0xffffffffffffffffffffffffffffffffffffffff\n      and\n      dup2\n      mstore\n      0x20\n      add\n      swap1\n      dup2\n      mstore\n      0x20\n      add\n      0x00\n      keccak256\n        /* \"contracts/FoodDelivery_2.sol\":5217:5249  return customerOrders[_customer] */\n      dup1\n      sload\n      dup1\n      0x20\n      mul\n      0x20\n      add\n      mload(0x40)\n      swap1\n      dup2\n      add\n      0x40\n      mstore\n      dup1\n      swap3\n      swap2\n      swap1\n      dup2\n      dup2\n      mstore\n      0x20\n      add\n      dup3\n      dup1\n      sload\n      dup1\n      iszero\n      tag_101\n      jumpi\n      0x20\n      mul\n      dup3\n      add\n      swap2\n      swap1\n      0x00\n      mstore\n      keccak256(0x00, 0x20)\n      swap1\n    tag_102:\n      dup2\n      sload\n      dup2\n      mstore\n      0x20\n      add\n      swap1\n      0x01\n      add\n      swap1\n      dup1\n      dup4\n      gt\n      tag_102\n      jumpi\n    tag_101:\n      pop\n      pop\n      pop\n      pop\n      pop\n      swap1\n      pop\n        /* \"contracts/FoodDelivery_2.sol\":5120:5257  function getCustomerOrder(address _customer) external view returns (uint256[] memory) {... */\n      swap2\n      swap1\n      pop\n      jump\t// out\n        /* \"contracts/FoodDelivery_2.sol\":992:1043  mapping(address => uint256[]) public customerOrders */\n    tag_36:\n      mstore(0x20, 0x04)\n      dup2\n      0x00\n      mstore\n      keccak256(0x00, 0x40)\n      dup2\n      dup2\n      sload\n      dup2\n      lt\n      tag_103\n      jumpi\n      0x00\n      dup1\n      revert\n    tag_103:\n      swap1\n      0x00\n      mstore\n      keccak256(0x00, 0x20)\n      add\n      0x00\n      swap2\n      pop\n      swap2\n      pop\n      pop\n      sload\n      dup2\n      jump\t// out\n        /* \"contracts/FoodDelivery_2.sol\":822:871  mapping(address => Restaurant) public restaurants */\n    tag_42:\n      mstore(0x20, 0x01)\n      dup1\n      0x00\n      mstore\n      keccak256(0x00, 0x40)\n      0x00\n      swap2\n      pop\n      swap1\n      pop\n      dup1\n      0x00\n      add\n      dup1\n      sload\n      tag_105\n      swap1\n      tag_95\n      jump\t// in\n    tag_105:\n      dup1\n      0x1f\n      add\n      0x20\n      dup1\n      swap2\n      div\n      mul\n      0x20\n      add\n      mload(0x40)\n      swap1\n      dup2\n      add\n      0x40\n      mstore\n      dup1\n      swap3\n      swap2\n      swap1\n      dup2\n      dup2\n      mstore\n      0x20\n      add\n      dup3\n      dup1\n      sload\n      tag_106\n      swap1\n      tag_95\n      jump\t// in\n    tag_106:\n      dup1\n      iszero\n      tag_107\n      jumpi\n      dup1\n      0x1f\n      lt\n      tag_108\n      jumpi\n      0x0100\n      dup1\n      dup4\n      sload\n      div\n      mul\n      dup4\n      mstore\n      swap2\n      0x20\n      add\n      swap2\n      jump(tag_107)\n    tag_108:\n      dup3\n      add\n      swap2\n      swap1\n      0x00\n      mstore\n      keccak256(0x00, 0x20)\n      swap1\n    tag_109:\n      dup2\n      sload\n      dup2\n      mstore\n      swap1\n      0x01\n      add\n      swap1\n      0x20\n      add\n      dup1\n      dup4\n      gt\n      tag_109\n      jumpi\n      dup3\n      swap1\n      sub\n      0x1f\n      and\n      dup3\n      add\n      swap2\n    tag_107:\n      pop\n      pop\n      pop\n      pop\n      pop\n      swap1\n      dup1\n      0x01\n      add\n      dup1\n      sload\n      tag_110\n      swap1\n      tag_95\n      jump\t// in\n    tag_110:\n      dup1\n      0x1f\n      add\n      0x20\n      dup1\n      swap2\n      div\n      mul\n      0x20\n      add\n      mload(0x40)\n      swap1\n      dup2\n      add\n      0x40\n      mstore\n      dup1\n      swap3\n      swap2\n      swap1\n      dup2\n      dup2\n      mstore\n      0x20\n      add\n      dup3\n      dup1\n      sload\n      tag_111\n      swap1\n      tag_95\n      jump\t// in\n    tag_111:\n      dup1\n      iszero\n      tag_112\n      jumpi\n      dup1\n      0x1f\n      lt\n      tag_113\n      jumpi\n      0x0100\n      dup1\n      dup4\n      sload\n      div\n      mul\n      dup4\n      mstore\n      swap2\n      0x20\n      add\n      swap2\n      jump(tag_112)\n    tag_113:\n      dup3\n      add\n      swap2\n      swap1\n      0x00\n      mstore\n      keccak256(0x00, 0x20)\n      swap1\n    tag_114:\n      dup2\n      sload\n      dup2\n      mstore\n      swap1\n      0x01\n      add\n      swap1\n      0x20\n      add\n      dup1\n      dup4\n      gt\n      tag_114\n      jumpi\n      dup3\n      swap1\n      sub\n      0x1f\n      and\n      dup3\n      add\n      swap2\n    tag_112:\n      pop\n      pop\n      pop\n      pop\n      pop\n      swap1\n      dup1\n      0x02\n      add\n      sload\n      swap1\n      dup1\n      0x03\n      add\n      0x00\n      swap1\n      sload\n      swap1\n      0x0100\n      exp\n      swap1\n      div\n      0xff\n      and\n      swap1\n      pop\n      dup5\n      jump\t// out\n        /* \"contracts/FoodDelivery_2.sol\":4395:4615  function withdrawFunds() external onlyRegisteredRestaurant {... */\n    tag_47:\n        /* \"contracts/FoodDelivery_2.sol\":1524:1535  restaurants */\n      0x01\n        /* \"contracts/FoodDelivery_2.sol\":1524:1547  restaurants[msg.sender] */\n      0x00\n        /* \"contracts/FoodDelivery_2.sol\":1536:1546  msg.sender */\n      caller\n        /* \"contracts/FoodDelivery_2.sol\":1524:1547  restaurants[msg.sender] */\n      0xffffffffffffffffffffffffffffffffffffffff\n      and\n      0xffffffffffffffffffffffffffffffffffffffff\n      and\n      dup2\n      mstore\n      0x20\n      add\n      swap1\n      dup2\n      mstore\n      0x20\n      add\n      0x00\n      keccak256\n        /* \"contracts/FoodDelivery_2.sol\":1524:1560  restaurants[msg.sender].isRegistered */\n      0x03\n      add\n      0x00\n      swap1\n      sload\n      swap1\n      0x0100\n      exp\n      swap1\n      div\n      0xff\n      and\n        /* \"contracts/FoodDelivery_2.sol\":1516:1617  require(restaurants[msg.sender].isRegistered, \"Only registered restaurants can perform this action.\") */\n      tag_116\n      jumpi\n      mload(0x40)\n      0x08c379a000000000000000000000000000000000000000000000000000000000\n      dup2\n      mstore\n      0x04\n      add\n      tag_117\n      swap1\n      tag_118\n      jump\t// in\n    tag_117:\n      mload(0x40)\n      dup1\n      swap2\n      sub\n      swap1\n      revert\n    tag_116:\n        /* \"contracts/FoodDelivery_2.sol\":4465:4480  uint256 balance */\n      0x00\n        /* \"contracts/FoodDelivery_2.sol\":4483:4504  address(this).balance */\n      selfbalance\n        /* \"contracts/FoodDelivery_2.sol\":4465:4504  uint256 balance = address(this).balance */\n      swap1\n      pop\n        /* \"contracts/FoodDelivery_2.sol\":4533:4534  0 */\n      0x00\n        /* \"contracts/FoodDelivery_2.sol\":4523:4530  balance */\n      dup2\n        /* \"contracts/FoodDelivery_2.sol\":4523:4534  balance > 0 */\n      gt\n        /* \"contracts/FoodDelivery_2.sol\":4515:4559  require(balance > 0, \"No funds to withdraw\") */\n      tag_120\n      jumpi\n      mload(0x40)\n      0x08c379a000000000000000000000000000000000000000000000000000000000\n      dup2\n      mstore\n      0x04\n      add\n      tag_121\n      swap1\n      tag_122\n      jump\t// in\n    tag_121:\n      mload(0x40)\n      dup1\n      swap2\n      sub\n      swap1\n      revert\n    tag_120:\n        /* \"contracts/FoodDelivery_2.sol\":4578:4588  msg.sender */\n      caller\n        /* \"contracts/FoodDelivery_2.sol\":4570:4598  payable(msg.sender).transfer */\n      0xffffffffffffffffffffffffffffffffffffffff\n      and\n        /* \"contracts/FoodDelivery_2.sol\":4570:4607  payable(msg.sender).transfer(balance) */\n      0x08fc\n        /* \"contracts/FoodDelivery_2.sol\":4599:4606  balance */\n      dup3\n        /* \"contracts/FoodDelivery_2.sol\":4570:4607  payable(msg.sender).transfer(balance) */\n      swap1\n      dup2\n      iszero\n      mul\n      swap1\n      mload(0x40)\n      0x00\n      mload(0x40)\n      dup1\n      dup4\n      sub\n      dup2\n      dup6\n      dup9\n      dup9\n      call\n      swap4\n      pop\n      pop\n      pop\n      pop\n      iszero\n      dup1\n      iszero\n      tag_124\n      jumpi\n      returndatasize\n      0x00\n      dup1\n      returndatacopy\n      revert(0x00, returndatasize)\n    tag_124:\n      pop\n        /* \"contracts/FoodDelivery_2.sol\":4454:4615  {... */\n      pop\n        /* \"contracts/FoodDelivery_2.sol\":4395:4615  function withdrawFunds() external onlyRegisteredRestaurant {... */\n      jump\t// out\n        /* \"contracts/FoodDelivery_2.sol\":784:815  uint256 public  nextOrderId = 1 */\n    tag_50:\n      sload(0x00)\n      dup2\n      jump\t// out\n        /* \"contracts/FoodDelivery_2.sol\":2998:3993  function placeOrder(address _restaurant, uint256[] memory _itemIds) external payable onlyCustomer {... */\n    tag_55:\n        /* \"contracts/FoodDelivery_2.sol\":1689:1700  restaurants */\n      0x01\n        /* \"contracts/FoodDelivery_2.sol\":1689:1712  restaurants[msg.sender] */\n      0x00\n        /* \"contracts/FoodDelivery_2.sol\":1701:1711  msg.sender */\n      caller\n        /* \"contracts/FoodDelivery_2.sol\":1689:1712  restaurants[msg.sender] */\n      0xffffffffffffffffffffffffffffffffffffffff\n      and\n      0xffffffffffffffffffffffffffffffffffffffff\n      and\n      dup2\n      mstore\n      0x20\n      add\n      swap1\n      dup2\n      mstore\n      0x20\n      add\n      0x00\n      keccak256\n        /* \"contracts/FoodDelivery_2.sol\":1689:1725  restaurants[msg.sender].isRegistered */\n      0x03\n      add\n      0x00\n      swap1\n      sload\n      swap1\n      0x0100\n      exp\n      swap1\n      div\n      0xff\n      and\n        /* \"contracts/FoodDelivery_2.sol\":1688:1725  !restaurants[msg.sender].isRegistered */\n      iszero\n        /* \"contracts/FoodDelivery_2.sol\":1680:1762  require(!restaurants[msg.sender].isRegistered, \"Restaurants cannot place orders.\") */\n      tag_126\n      jumpi\n      mload(0x40)\n      0x08c379a000000000000000000000000000000000000000000000000000000000\n      dup2\n      mstore\n      0x04\n      add\n      tag_127\n      swap1\n      tag_128\n      jump\t// in\n    tag_127:\n      mload(0x40)\n      dup1\n      swap2\n      sub\n      swap1\n      revert\n    tag_126:\n        /* \"contracts/FoodDelivery_2.sol\":3115:3126  restaurants */\n      0x01\n        /* \"contracts/FoodDelivery_2.sol\":3115:3139  restaurants[_restaurant] */\n      0x00\n        /* \"contracts/FoodDelivery_2.sol\":3127:3138  _restaurant */\n      dup4\n        /* \"contracts/FoodDelivery_2.sol\":3115:3139  restaurants[_restaurant] */\n      0xffffffffffffffffffffffffffffffffffffffff\n      and\n      0xffffffffffffffffffffffffffffffffffffffff\n      and\n      dup2\n      mstore\n      0x20\n      add\n      swap1\n      dup2\n      mstore\n      0x20\n      add\n      0x00\n      keccak256\n        /* \"contracts/FoodDelivery_2.sol\":3115:3152  restaurants[_restaurant].isRegistered */\n      0x03\n      add\n      0x00\n      swap1\n      sload\n      swap1\n      0x0100\n      exp\n      swap1\n      div\n      0xff\n      and\n        /* \"contracts/FoodDelivery_2.sol\":3107:3176  require(restaurants[_restaurant].isRegistered, \"Invalid restaurant.\") */\n      tag_130\n      jumpi\n      mload(0x40)\n      0x08c379a000000000000000000000000000000000000000000000000000000000\n      dup2\n      mstore\n      0x04\n      add\n      tag_131\n      swap1\n      tag_132\n      jump\t// in\n    tag_131:\n      mload(0x40)\n      dup1\n      swap2\n      sub\n      swap1\n      revert\n    tag_130:\n        /* \"contracts/FoodDelivery_2.sol\":3187:3206  uint256 totalAmount */\n      0x00\n        /* \"contracts/FoodDelivery_2.sol\":3228:3237  uint256 i */\n      dup1\n        /* \"contracts/FoodDelivery_2.sol\":3223:3468  for (uint256 i = 0; i < _itemIds.length; i++) {... */\n    tag_133:\n        /* \"contracts/FoodDelivery_2.sol\":3247:3255  _itemIds */\n      dup3\n        /* \"contracts/FoodDelivery_2.sol\":3247:3262  _itemIds.length */\n      mload\n        /* \"contracts/FoodDelivery_2.sol\":3243:3244  i */\n      dup2\n        /* \"contracts/FoodDelivery_2.sol\":3243:3262  i < _itemIds.length */\n      lt\n        /* \"contracts/FoodDelivery_2.sol\":3223:3468  for (uint256 i = 0; i < _itemIds.length; i++) {... */\n      iszero\n      tag_134\n      jumpi\n        /* \"contracts/FoodDelivery_2.sol\":3284:3304  MenuItem memory item */\n      0x00\n        /* \"contracts/FoodDelivery_2.sol\":3307:3312  menus */\n      0x02\n        /* \"contracts/FoodDelivery_2.sol\":3307:3325  menus[_restaurant] */\n      0x00\n        /* \"contracts/FoodDelivery_2.sol\":3313:3324  _restaurant */\n      dup7\n        /* \"contracts/FoodDelivery_2.sol\":3307:3325  menus[_restaurant] */\n      0xffffffffffffffffffffffffffffffffffffffff\n      and\n      0xffffffffffffffffffffffffffffffffffffffff\n      and\n      dup2\n      mstore\n      0x20\n      add\n      swap1\n      dup2\n      mstore\n      0x20\n      add\n      0x00\n      keccak256\n        /* \"contracts/FoodDelivery_2.sol\":3307:3338  menus[_restaurant][_itemIds[i]] */\n      0x00\n        /* \"contracts/FoodDelivery_2.sol\":3326:3334  _itemIds */\n      dup6\n        /* \"contracts/FoodDelivery_2.sol\":3335:3336  i */\n      dup5\n        /* \"contracts/FoodDelivery_2.sol\":3326:3337  _itemIds[i] */\n      dup2\n      mload\n      dup2\n      lt\n      tag_136\n      jumpi\n      tag_137\n      tag_138\n      jump\t// in\n    tag_137:\n    tag_136:\n      0x20\n      mul\n      0x20\n      add\n      add\n      mload\n        /* \"contracts/FoodDelivery_2.sol\":3307:3338  menus[_restaurant][_itemIds[i]] */\n      dup2\n      mstore\n      0x20\n      add\n      swap1\n      dup2\n      mstore\n      0x20\n      add\n      0x00\n      keccak256\n        /* \"contracts/FoodDelivery_2.sol\":3284:3338  MenuItem memory item = menus[_restaurant][_itemIds[i]] */\n      mload(0x40)\n      dup1\n      0x60\n      add\n      0x40\n      mstore\n      swap1\n      dup2\n      0x00\n      dup3\n      add\n      dup1\n      sload\n      tag_139\n      swap1\n      tag_95\n      jump\t// in\n    tag_139:\n      dup1\n      0x1f\n      add\n      0x20\n      dup1\n      swap2\n      div\n      mul\n      0x20\n      add\n      mload(0x40)\n      swap1\n      dup2\n      add\n      0x40\n      mstore\n      dup1\n      swap3\n      swap2\n      swap1\n      dup2\n      dup2\n      mstore\n      0x20\n      add\n      dup3\n      dup1\n      sload\n      tag_140\n      swap1\n      tag_95\n      jump\t// in\n    tag_140:\n      dup1\n      iszero\n      tag_141\n      jumpi\n      dup1\n      0x1f\n      lt\n      tag_142\n      jumpi\n      0x0100\n      dup1\n      dup4\n      sload\n      div\n      mul\n      dup4\n      mstore\n      swap2\n      0x20\n      add\n      swap2\n      jump(tag_141)\n    tag_142:\n      dup3\n      add\n      swap2\n      swap1\n      0x00\n      mstore\n      keccak256(0x00, 0x20)\n      swap1\n    tag_143:\n      dup2\n      sload\n      dup2\n      mstore\n      swap1\n      0x01\n      add\n      swap1\n      0x20\n      add\n      dup1\n      dup4\n      gt\n      tag_143\n      jumpi\n      dup3\n      swap1\n      sub\n      0x1f\n      and\n      dup3\n      add\n      swap2\n    tag_141:\n      pop\n      pop\n      pop\n      pop\n      pop\n      dup2\n      mstore\n      0x20\n      add\n      0x01\n      dup3\n      add\n      sload\n      dup2\n      mstore\n      0x20\n      add\n      0x02\n      dup3\n      add\n      0x00\n      swap1\n      sload\n      swap1\n      0x0100\n      exp\n      swap1\n      div\n      0xff\n      and\n      iszero\n      iszero\n      iszero\n      iszero\n      dup2\n      mstore\n      pop\n      pop\n      swap1\n      pop\n        /* \"contracts/FoodDelivery_2.sol\":3361:3365  item */\n      dup1\n        /* \"contracts/FoodDelivery_2.sol\":3361:3377  item.isAvailable */\n      0x40\n      add\n      mload\n        /* \"contracts/FoodDelivery_2.sol\":3353:3416  require(item.isAvailable, \"One or more items are unavailable.\") */\n      tag_144\n      jumpi\n      mload(0x40)\n      0x08c379a000000000000000000000000000000000000000000000000000000000\n      dup2\n      mstore\n      0x04\n      add\n      tag_145\n      swap1\n      tag_146\n      jump\t// in\n    tag_145:\n      mload(0x40)\n      dup1\n      swap2\n      sub\n      swap1\n      revert\n    tag_144:\n        /* \"contracts/FoodDelivery_2.sol\":3446:3450  item */\n      dup1\n        /* \"contracts/FoodDelivery_2.sol\":3446:3456  item.price */\n      0x20\n      add\n      mload\n        /* \"contracts/FoodDelivery_2.sol\":3431:3456  totalAmount += item.price */\n      dup4\n      tag_147\n      swap2\n      swap1\n      tag_148\n      jump\t// in\n    tag_147:\n      swap3\n      pop\n        /* \"contracts/FoodDelivery_2.sol\":3269:3468  {... */\n      pop\n        /* \"contracts/FoodDelivery_2.sol\":3264:3267  i++ */\n      dup1\n      dup1\n      0x01\n      add\n      swap2\n      pop\n      pop\n        /* \"contracts/FoodDelivery_2.sol\":3223:3468  for (uint256 i = 0; i < _itemIds.length; i++) {... */\n      jump(tag_133)\n    tag_134:\n      pop\n        /* \"contracts/FoodDelivery_2.sol\":3501:3512  totalAmount */\n      dup1\n        /* \"contracts/FoodDelivery_2.sol\":3488:3497  msg.value */\n      callvalue\n        /* \"contracts/FoodDelivery_2.sol\":3488:3512  msg.value == totalAmount */\n      eq\n        /* \"contracts/FoodDelivery_2.sol\":3480:3542  require(msg.value == totalAmount, \"Incorrect payment amount.\") */\n      tag_149\n      jumpi\n      mload(0x40)\n      0x08c379a000000000000000000000000000000000000000000000000000000000\n      dup2\n      mstore\n      0x04\n      add\n      tag_150\n      swap1\n      tag_151\n      jump\t// in\n    tag_150:\n      mload(0x40)\n      dup1\n      swap2\n      sub\n      swap1\n      revert\n    tag_149:\n        /* \"contracts/FoodDelivery_2.sol\":3555:3570  uint256 orderId */\n      0x00\n        /* \"contracts/FoodDelivery_2.sol\":3573:3584  nextOrderId */\n      dup1\n      0x00\n        /* \"contracts/FoodDelivery_2.sol\":3573:3586  nextOrderId++ */\n      dup2\n      sload\n      dup1\n      swap3\n      swap2\n      swap1\n      tag_152\n      swap1\n      tag_153\n      jump\t// in\n    tag_152:\n      swap2\n      swap1\n      pop\n      sstore\n        /* \"contracts/FoodDelivery_2.sol\":3555:3586  uint256 orderId = nextOrderId++ */\n      swap1\n      pop\n        /* \"contracts/FoodDelivery_2.sol\":3653:3858  Order(... */\n      mload(0x40)\n      dup1\n      0xe0\n      add\n      0x40\n      mstore\n      dup1\n        /* \"contracts/FoodDelivery_2.sol\":3673:3680  orderId */\n      dup3\n        /* \"contracts/FoodDelivery_2.sol\":3653:3858  Order(... */\n      dup2\n      mstore\n      0x20\n      add\n        /* \"contracts/FoodDelivery_2.sol\":3695:3705  msg.sender */\n      caller\n        /* \"contracts/FoodDelivery_2.sol\":3653:3858  Order(... */\n      0xffffffffffffffffffffffffffffffffffffffff\n      and\n      dup2\n      mstore\n      0x20\n      add\n        /* \"contracts/FoodDelivery_2.sol\":3721:3732  totalAmount */\n      dup4\n        /* \"contracts/FoodDelivery_2.sol\":3653:3858  Order(... */\n      dup2\n      mstore\n      0x20\n      add\n        /* \"contracts/FoodDelivery_2.sol\":3748:3756  _itemIds */\n      dup5\n        /* \"contracts/FoodDelivery_2.sol\":3653:3858  Order(... */\n      dup2\n      mstore\n      0x20\n      add\n        /* \"contracts/FoodDelivery_2.sol\":3772:3790  OrderStatus.Placed */\n      0x00\n        /* \"contracts/FoodDelivery_2.sol\":3653:3858  Order(... */\n      0x03\n      dup2\n      gt\n      iszero\n      tag_154\n      jumpi\n      tag_155\n      tag_156\n      jump\t// in\n    tag_155:\n    tag_154:\n      dup2\n      mstore\n      0x20\n      add\n        /* \"contracts/FoodDelivery_2.sol\":3806:3817  _restaurant */\n      dup6\n        /* \"contracts/FoodDelivery_2.sol\":3653:3858  Order(... */\n      0xffffffffffffffffffffffffffffffffffffffff\n      and\n      dup2\n      mstore\n      0x20\n      add\n        /* \"contracts/FoodDelivery_2.sol\":3832:3847  block.timestamp */\n      timestamp\n        /* \"contracts/FoodDelivery_2.sol\":3653:3858  Order(... */\n      dup2\n      mstore\n      pop\n        /* \"contracts/FoodDelivery_2.sol\":3635:3641  orders */\n      0x03\n        /* \"contracts/FoodDelivery_2.sol\":3635:3650  orders[orderId] */\n      0x00\n        /* \"contracts/FoodDelivery_2.sol\":3642:3649  orderId */\n      dup4\n        /* \"contracts/FoodDelivery_2.sol\":3635:3650  orders[orderId] */\n      dup2\n      mstore\n      0x20\n      add\n      swap1\n      dup2\n      mstore\n      0x20\n      add\n      0x00\n      keccak256\n        /* \"contracts/FoodDelivery_2.sol\":3635:3858  orders[orderId] = Order(... */\n      0x00\n      dup3\n      add\n      mload\n      dup2\n      0x00\n      add\n      sstore\n      0x20\n      dup3\n      add\n      mload\n      dup2\n      0x01\n      add\n      exp(0x0100, 0x00)\n      dup2\n      sload\n      dup2\n      0xffffffffffffffffffffffffffffffffffffffff\n      mul\n      not\n      and\n      swap1\n      dup4\n      0xffffffffffffffffffffffffffffffffffffffff\n      and\n      mul\n      or\n      swap1\n      sstore\n      pop\n      0x40\n      dup3\n      add\n      mload\n      dup2\n      0x02\n      add\n      sstore\n      0x60\n      dup3\n      add\n      mload\n      dup2\n      0x03\n      add\n      swap1\n      dup1\n      mload\n      swap1\n      0x20\n      add\n      swap1\n      tag_157\n      swap3\n      swap2\n      swap1\n      tag_158\n      jump\t// in\n    tag_157:\n      pop\n      0x80\n      dup3\n      add\n      mload\n      dup2\n      0x04\n      add\n      exp(0x0100, 0x00)\n      dup2\n      sload\n      dup2\n      0xff\n      mul\n      not\n      and\n      swap1\n      dup4\n      0x03\n      dup2\n      gt\n      iszero\n      tag_159\n      jumpi\n      tag_160\n      tag_156\n      jump\t// in\n    tag_160:\n    tag_159:\n      mul\n      or\n      swap1\n      sstore\n      pop\n      0xa0\n      dup3\n      add\n      mload\n      dup2\n      0x04\n      add\n      exp(0x0100, 0x01)\n      dup2\n      sload\n      dup2\n      0xffffffffffffffffffffffffffffffffffffffff\n      mul\n      not\n      and\n      swap1\n      dup4\n      0xffffffffffffffffffffffffffffffffffffffff\n      and\n      mul\n      or\n      swap1\n      sstore\n      pop\n      0xc0\n      dup3\n      add\n      mload\n      dup2\n      0x05\n      add\n      sstore\n      swap1\n      pop\n      pop\n        /* \"contracts/FoodDelivery_2.sol\":3871:3885  customerOrders */\n      0x04\n        /* \"contracts/FoodDelivery_2.sol\":3871:3897  customerOrders[msg.sender] */\n      0x00\n        /* \"contracts/FoodDelivery_2.sol\":3886:3896  msg.sender */\n      caller\n        /* \"contracts/FoodDelivery_2.sol\":3871:3897  customerOrders[msg.sender] */\n      0xffffffffffffffffffffffffffffffffffffffff\n      and\n      0xffffffffffffffffffffffffffffffffffffffff\n      and\n      dup2\n      mstore\n      0x20\n      add\n      swap1\n      dup2\n      mstore\n      0x20\n      add\n      0x00\n      keccak256\n        /* \"contracts/FoodDelivery_2.sol\":3903:3910  orderId */\n      dup2\n        /* \"contracts/FoodDelivery_2.sol\":3871:3911  customerOrders[msg.sender].push(orderId) */\n      swap1\n      dup1\n      0x01\n      dup2\n      sload\n      add\n      dup1\n      dup3\n      sstore\n      dup1\n      swap2\n      pop\n      pop\n      0x01\n      swap1\n      sub\n      swap1\n      0x00\n      mstore\n      keccak256(0x00, 0x20)\n      add\n      0x00\n      swap1\n      swap2\n      swap1\n      swap2\n      swap1\n      swap2\n      pop\n      sstore\n        /* \"contracts/FoodDelivery_2.sol\":3960:3971  _restaurant */\n      dup4\n        /* \"contracts/FoodDelivery_2.sol\":3927:3985  OrderPlaced(orderId, msg.sender, _restaurant, totalAmount) */\n      0xffffffffffffffffffffffffffffffffffffffff\n      and\n        /* \"contracts/FoodDelivery_2.sol\":3948:3958  msg.sender */\n      caller\n        /* \"contracts/FoodDelivery_2.sol\":3927:3985  OrderPlaced(orderId, msg.sender, _restaurant, totalAmount) */\n      0xffffffffffffffffffffffffffffffffffffffff\n      and\n        /* \"contracts/FoodDelivery_2.sol\":3939:3946  orderId */\n      dup3\n        /* \"contracts/FoodDelivery_2.sol\":3927:3985  OrderPlaced(orderId, msg.sender, _restaurant, totalAmount) */\n      0xaf03488da094bc08f76858b3b2a0c36a13217c95790c77139137fc6e062ba9cd\n        /* \"contracts/FoodDelivery_2.sol\":3973:3984  totalAmount */\n      dup6\n        /* \"contracts/FoodDelivery_2.sol\":3927:3985  OrderPlaced(orderId, msg.sender, _restaurant, totalAmount) */\n      mload(0x40)\n      tag_162\n      swap2\n      swap1\n      tag_38\n      jump\t// in\n    tag_162:\n      mload(0x40)\n      dup1\n      swap2\n      sub\n      swap1\n      log4\n        /* \"contracts/FoodDelivery_2.sol\":3096:3993  {... */\n      pop\n      pop\n        /* \"contracts/FoodDelivery_2.sol\":2998:3993  function placeOrder(address _restaurant, uint256[] memory _itemIds) external payable onlyCustomer {... */\n      pop\n      pop\n      jump\t// out\n        /* \"contracts/FoodDelivery_2.sol\":2708:2966  function updateMenuItemAvailability(uint256 _itemId, bool _isAvailable) external onlyRegisteredRestaurant {... */\n    tag_60:\n        /* \"contracts/FoodDelivery_2.sol\":1524:1535  restaurants */\n      0x01\n        /* \"contracts/FoodDelivery_2.sol\":1524:1547  restaurants[msg.sender] */\n      0x00\n        /* \"contracts/FoodDelivery_2.sol\":1536:1546  msg.sender */\n      caller\n        /* \"contracts/FoodDelivery_2.sol\":1524:1547  restaurants[msg.sender] */\n      0xffffffffffffffffffffffffffffffffffffffff\n      and\n      0xffffffffffffffffffffffffffffffffffffffff\n      and\n      dup2\n      mstore\n      0x20\n      add\n      swap1\n      dup2\n      mstore\n      0x20\n      add\n      0x00\n      keccak256\n        /* \"contracts/FoodDelivery_2.sol\":1524:1560  restaurants[msg.sender].isRegistered */\n      0x03\n      add\n      0x00\n      swap1\n      sload\n      swap1\n      0x0100\n      exp\n      swap1\n      div\n      0xff\n      and\n        /* \"contracts/FoodDelivery_2.sol\":1516:1617  require(restaurants[msg.sender].isRegistered, \"Only registered restaurants can perform this action.\") */\n      tag_164\n      jumpi\n      mload(0x40)\n      0x08c379a000000000000000000000000000000000000000000000000000000000\n      dup2\n      mstore\n      0x04\n      add\n      tag_165\n      swap1\n      tag_118\n      jump\t// in\n    tag_165:\n      mload(0x40)\n      dup1\n      swap2\n      sub\n      swap1\n      revert\n    tag_164:\n        /* \"contracts/FoodDelivery_2.sol\":2868:2869  0 */\n      0x00\n        /* \"contracts/FoodDelivery_2.sol\":2833:2838  menus */\n      0x02\n        /* \"contracts/FoodDelivery_2.sol\":2833:2850  menus[msg.sender] */\n      0x00\n        /* \"contracts/FoodDelivery_2.sol\":2839:2849  msg.sender */\n      caller\n        /* \"contracts/FoodDelivery_2.sol\":2833:2850  menus[msg.sender] */\n      0xffffffffffffffffffffffffffffffffffffffff\n      and\n      0xffffffffffffffffffffffffffffffffffffffff\n      and\n      dup2\n      mstore\n      0x20\n      add\n      swap1\n      dup2\n      mstore\n      0x20\n      add\n      0x00\n      keccak256\n        /* \"contracts/FoodDelivery_2.sol\":2833:2859  menus[msg.sender][_itemId] */\n      0x00\n        /* \"contracts/FoodDelivery_2.sol\":2851:2858  _itemId */\n      dup5\n        /* \"contracts/FoodDelivery_2.sol\":2833:2859  menus[msg.sender][_itemId] */\n      dup2\n      mstore\n      0x20\n      add\n      swap1\n      dup2\n      mstore\n      0x20\n      add\n      0x00\n      keccak256\n        /* \"contracts/FoodDelivery_2.sol\":2833:2865  menus[msg.sender][_itemId].price */\n      0x01\n      add\n      sload\n        /* \"contracts/FoodDelivery_2.sol\":2833:2869  menus[msg.sender][_itemId].price > 0 */\n      gt\n        /* \"contracts/FoodDelivery_2.sol\":2825:2894  require(menus[msg.sender][_itemId].price > 0, \"Item does not exist.\") */\n      tag_167\n      jumpi\n      mload(0x40)\n      0x08c379a000000000000000000000000000000000000000000000000000000000\n      dup2\n      mstore\n      0x04\n      add\n      tag_168\n      swap1\n      tag_169\n      jump\t// in\n    tag_168:\n      mload(0x40)\n      dup1\n      swap2\n      sub\n      swap1\n      revert\n    tag_167:\n        /* \"contracts/FoodDelivery_2.sol\":2946:2958  _isAvailable */\n      dup1\n        /* \"contracts/FoodDelivery_2.sol\":2905:2910  menus */\n      0x02\n        /* \"contracts/FoodDelivery_2.sol\":2905:2922  menus[msg.sender] */\n      0x00\n        /* \"contracts/FoodDelivery_2.sol\":2911:2921  msg.sender */\n      caller\n        /* \"contracts/FoodDelivery_2.sol\":2905:2922  menus[msg.sender] */\n      0xffffffffffffffffffffffffffffffffffffffff\n      and\n      0xffffffffffffffffffffffffffffffffffffffff\n      and\n      dup2\n      mstore\n      0x20\n      add\n      swap1\n      dup2\n      mstore\n      0x20\n      add\n      0x00\n      keccak256\n        /* \"contracts/FoodDelivery_2.sol\":2905:2931  menus[msg.sender][_itemId] */\n      0x00\n        /* \"contracts/FoodDelivery_2.sol\":2923:2930  _itemId */\n      dup5\n        /* \"contracts/FoodDelivery_2.sol\":2905:2931  menus[msg.sender][_itemId] */\n      dup2\n      mstore\n      0x20\n      add\n      swap1\n      dup2\n      mstore\n      0x20\n      add\n      0x00\n      keccak256\n        /* \"contracts/FoodDelivery_2.sol\":2905:2943  menus[msg.sender][_itemId].isAvailable */\n      0x02\n      add\n      0x00\n        /* \"contracts/FoodDelivery_2.sol\":2905:2958  menus[msg.sender][_itemId].isAvailable = _isAvailable */\n      0x0100\n      exp\n      dup2\n      sload\n      dup2\n      0xff\n      mul\n      not\n      and\n      swap1\n      dup4\n      iszero\n      iszero\n      mul\n      or\n      swap1\n      sstore\n      pop\n        /* \"contracts/FoodDelivery_2.sol\":2708:2966  function updateMenuItemAvailability(uint256 _itemId, bool _isAvailable) external onlyRegisteredRestaurant {... */\n      pop\n      pop\n      jump\t// out\n        /* \"contracts/FoodDelivery_2.sol\":1822:2263  function registerRestaurant(string memory _name, string memory _location) external {... */\n    tag_65:\n        /* \"contracts/FoodDelivery_2.sol\":1925:1936  restaurants */\n      0x01\n        /* \"contracts/FoodDelivery_2.sol\":1925:1948  restaurants[msg.sender] */\n      0x00\n        /* \"contracts/FoodDelivery_2.sol\":1937:1947  msg.sender */\n      caller\n        /* \"contracts/FoodDelivery_2.sol\":1925:1948  restaurants[msg.sender] */\n      0xffffffffffffffffffffffffffffffffffffffff\n      and\n      0xffffffffffffffffffffffffffffffffffffffff\n      and\n      dup2\n      mstore\n      0x20\n      add\n      swap1\n      dup2\n      mstore\n      0x20\n      add\n      0x00\n      keccak256\n        /* \"contracts/FoodDelivery_2.sol\":1925:1961  restaurants[msg.sender].isRegistered */\n      0x03\n      add\n      0x00\n      swap1\n      sload\n      swap1\n      0x0100\n      exp\n      swap1\n      div\n      0xff\n      and\n        /* \"contracts/FoodDelivery_2.sol\":1924:1961  !restaurants[msg.sender].isRegistered */\n      iszero\n        /* \"contracts/FoodDelivery_2.sol\":1916:1999  require(!restaurants[msg.sender].isRegistered, \"Restaurant is already registered.\") */\n      tag_171\n      jumpi\n      mload(0x40)\n      0x08c379a000000000000000000000000000000000000000000000000000000000\n      dup2\n      mstore\n      0x04\n      add\n      tag_172\n      swap1\n      tag_173\n      jump\t// in\n    tag_172:\n      mload(0x40)\n      dup1\n      swap2\n      sub\n      swap1\n      revert\n    tag_171:\n        /* \"contracts/FoodDelivery_2.sol\":2036:2200  Restaurant({... */\n      mload(0x40)\n      dup1\n      0x80\n      add\n      0x40\n      mstore\n      dup1\n        /* \"contracts/FoodDelivery_2.sol\":2068:2073  _name */\n      dup4\n        /* \"contracts/FoodDelivery_2.sol\":2036:2200  Restaurant({... */\n      dup2\n      mstore\n      0x20\n      add\n        /* \"contracts/FoodDelivery_2.sol\":2098:2107  _location */\n      dup3\n        /* \"contracts/FoodDelivery_2.sol\":2036:2200  Restaurant({... */\n      dup2\n      mstore\n      0x20\n      add\n        /* \"contracts/FoodDelivery_2.sol\":2140:2155  block.timestamp */\n      timestamp\n        /* \"contracts/FoodDelivery_2.sol\":2036:2200  Restaurant({... */\n      dup2\n      mstore\n      0x20\n      add\n        /* \"contracts/FoodDelivery_2.sol\":2184:2188  true */\n      0x01\n        /* \"contracts/FoodDelivery_2.sol\":2036:2200  Restaurant({... */\n      iszero\n      iszero\n      dup2\n      mstore\n      pop\n        /* \"contracts/FoodDelivery_2.sol\":2010:2021  restaurants */\n      0x01\n        /* \"contracts/FoodDelivery_2.sol\":2010:2033  restaurants[msg.sender] */\n      0x00\n        /* \"contracts/FoodDelivery_2.sol\":2022:2032  msg.sender */\n      caller\n        /* \"contracts/FoodDelivery_2.sol\":2010:2033  restaurants[msg.sender] */\n      0xffffffffffffffffffffffffffffffffffffffff\n      and\n      0xffffffffffffffffffffffffffffffffffffffff\n      and\n      dup2\n      mstore\n      0x20\n      add\n      swap1\n      dup2\n      mstore\n      0x20\n      add\n      0x00\n      keccak256\n        /* \"contracts/FoodDelivery_2.sol\":2010:2200  restaurants[msg.sender] = Restaurant({... */\n      0x00\n      dup3\n      add\n      mload\n      dup2\n      0x00\n      add\n      swap1\n      dup2\n      tag_174\n      swap2\n      swap1\n      tag_175\n      jump\t// in\n    tag_174:\n      pop\n      0x20\n      dup3\n      add\n      mload\n      dup2\n      0x01\n      add\n      swap1\n      dup2\n      tag_176\n      swap2\n      swap1\n      tag_175\n      jump\t// in\n    tag_176:\n      pop\n      0x40\n      dup3\n      add\n      mload\n      dup2\n      0x02\n      add\n      sstore\n      0x60\n      dup3\n      add\n      mload\n      dup2\n      0x03\n      add\n      exp(0x0100, 0x00)\n      dup2\n      sload\n      dup2\n      0xff\n      mul\n      not\n      and\n      swap1\n      dup4\n      iszero\n      iszero\n      mul\n      or\n      swap1\n      sstore\n      pop\n      swap1\n      pop\n      pop\n        /* \"contracts/FoodDelivery_2.sol\":2237:2247  msg.sender */\n      caller\n        /* \"contracts/FoodDelivery_2.sol\":2216:2255  RestaurantRegistered(msg.sender, _name) */\n      0xffffffffffffffffffffffffffffffffffffffff\n      and\n      0xb56b53292c5dd9885c6378743872b8126c9486b0bd1f95fe4cbc4b8842340e6f\n        /* \"contracts/FoodDelivery_2.sol\":2249:2254  _name */\n      dup4\n        /* \"contracts/FoodDelivery_2.sol\":2216:2255  RestaurantRegistered(msg.sender, _name) */\n      mload(0x40)\n      tag_177\n      swap2\n      swap1\n      tag_178\n      jump\t// in\n    tag_177:\n      mload(0x40)\n      dup1\n      swap2\n      sub\n      swap1\n      log2\n        /* \"contracts/FoodDelivery_2.sol\":1822:2263  function registerRestaurant(string memory _name, string memory _location) external {... */\n      pop\n      pop\n      jump\t// out\n        /* \"contracts/FoodDelivery_2.sol\":2295:2702  function addMenuItem(uint256 _itemId, string memory _itemName, uint256 _price) external onlyRegisteredRestaurant {... */\n    tag_70:\n        /* \"contracts/FoodDelivery_2.sol\":1524:1535  restaurants */\n      0x01\n        /* \"contracts/FoodDelivery_2.sol\":1524:1547  restaurants[msg.sender] */\n      0x00\n        /* \"contracts/FoodDelivery_2.sol\":1536:1546  msg.sender */\n      caller\n        /* \"contracts/FoodDelivery_2.sol\":1524:1547  restaurants[msg.sender] */\n      0xffffffffffffffffffffffffffffffffffffffff\n      and\n      0xffffffffffffffffffffffffffffffffffffffff\n      and\n      dup2\n      mstore\n      0x20\n      add\n      swap1\n      dup2\n      mstore\n      0x20\n      add\n      0x00\n      keccak256\n        /* \"contracts/FoodDelivery_2.sol\":1524:1560  restaurants[msg.sender].isRegistered */\n      0x03\n      add\n      0x00\n      swap1\n      sload\n      swap1\n      0x0100\n      exp\n      swap1\n      div\n      0xff\n      and\n        /* \"contracts/FoodDelivery_2.sol\":1516:1617  require(restaurants[msg.sender].isRegistered, \"Only registered restaurants can perform this action.\") */\n      tag_180\n      jumpi\n      mload(0x40)\n      0x08c379a000000000000000000000000000000000000000000000000000000000\n      dup2\n      mstore\n      0x04\n      add\n      tag_181\n      swap1\n      tag_118\n      jump\t// in\n    tag_181:\n      mload(0x40)\n      dup1\n      swap2\n      sub\n      swap1\n      revert\n    tag_180:\n        /* \"contracts/FoodDelivery_2.sol\":2436:2437  0 */\n      0x00\n        /* \"contracts/FoodDelivery_2.sol\":2427:2433  _price */\n      dup2\n        /* \"contracts/FoodDelivery_2.sol\":2427:2437  _price > 0 */\n      gt\n        /* \"contracts/FoodDelivery_2.sol\":2419:2474  require(_price > 0, \"Price must be greater than zero.\") */\n      tag_183\n      jumpi\n      mload(0x40)\n      0x08c379a000000000000000000000000000000000000000000000000000000000\n      dup2\n      mstore\n      0x04\n      add\n      tag_184\n      swap1\n      tag_185\n      jump\t// in\n    tag_184:\n      mload(0x40)\n      dup1\n      swap2\n      sub\n      swap1\n      revert\n    tag_183:\n        /* \"contracts/FoodDelivery_2.sol\":2514:2625  MenuItem({... */\n      mload(0x40)\n      dup1\n      0x60\n      add\n      0x40\n      mstore\n      dup1\n        /* \"contracts/FoodDelivery_2.sol\":2544:2553  _itemName */\n      dup4\n        /* \"contracts/FoodDelivery_2.sol\":2514:2625  MenuItem({... */\n      dup2\n      mstore\n      0x20\n      add\n        /* \"contracts/FoodDelivery_2.sol\":2575:2581  _price */\n      dup3\n        /* \"contracts/FoodDelivery_2.sol\":2514:2625  MenuItem({... */\n      dup2\n      mstore\n      0x20\n      add\n        /* \"contracts/FoodDelivery_2.sol\":2609:2613  true */\n      0x01\n        /* \"contracts/FoodDelivery_2.sol\":2514:2625  MenuItem({... */\n      iszero\n      iszero\n      dup2\n      mstore\n      pop\n        /* \"contracts/FoodDelivery_2.sol\":2485:2490  menus */\n      0x02\n        /* \"contracts/FoodDelivery_2.sol\":2485:2502  menus[msg.sender] */\n      0x00\n        /* \"contracts/FoodDelivery_2.sol\":2491:2501  msg.sender */\n      caller\n        /* \"contracts/FoodDelivery_2.sol\":2485:2502  menus[msg.sender] */\n      0xffffffffffffffffffffffffffffffffffffffff\n      and\n      0xffffffffffffffffffffffffffffffffffffffff\n      and\n      dup2\n      mstore\n      0x20\n      add\n      swap1\n      dup2\n      mstore\n      0x20\n      add\n      0x00\n      keccak256\n        /* \"contracts/FoodDelivery_2.sol\":2485:2511  menus[msg.sender][_itemId] */\n      0x00\n        /* \"contracts/FoodDelivery_2.sol\":2503:2510  _itemId */\n      dup6\n        /* \"contracts/FoodDelivery_2.sol\":2485:2511  menus[msg.sender][_itemId] */\n      dup2\n      mstore\n      0x20\n      add\n      swap1\n      dup2\n      mstore\n      0x20\n      add\n      0x00\n      keccak256\n        /* \"contracts/FoodDelivery_2.sol\":2485:2625  menus[msg.sender][_itemId] = MenuItem({... */\n      0x00\n      dup3\n      add\n      mload\n      dup2\n      0x00\n      add\n      swap1\n      dup2\n      tag_186\n      swap2\n      swap1\n      tag_175\n      jump\t// in\n    tag_186:\n      pop\n      0x20\n      dup3\n      add\n      mload\n      dup2\n      0x01\n      add\n      sstore\n      0x40\n      dup3\n      add\n      mload\n      dup2\n      0x02\n      add\n      exp(0x0100, 0x00)\n      dup2\n      sload\n      dup2\n      0xff\n      mul\n      not\n      and\n      swap1\n      dup4\n      iszero\n      iszero\n      mul\n      or\n      swap1\n      sstore\n      pop\n      swap1\n      pop\n      pop\n        /* \"contracts/FoodDelivery_2.sol\":2655:2665  msg.sender */\n      caller\n        /* \"contracts/FoodDelivery_2.sol\":2641:2694  MenuItemAdded(msg.sender, _itemId, _itemName, _price) */\n      0xffffffffffffffffffffffffffffffffffffffff\n      and\n      0x822563858b337586f3cfa8a87a287be8bb4e789fda4d4a6dfbc3d6a748a666ab\n        /* \"contracts/FoodDelivery_2.sol\":2667:2674  _itemId */\n      dup5\n        /* \"contracts/FoodDelivery_2.sol\":2676:2685  _itemName */\n      dup5\n        /* \"contracts/FoodDelivery_2.sol\":2687:2693  _price */\n      dup5\n        /* \"contracts/FoodDelivery_2.sol\":2641:2694  MenuItemAdded(msg.sender, _itemId, _itemName, _price) */\n      mload(0x40)\n      tag_187\n      swap4\n      swap3\n      swap2\n      swap1\n      tag_188\n      jump\t// in\n    tag_187:\n      mload(0x40)\n      dup1\n      swap2\n      sub\n      swap1\n      log2\n        /* \"contracts/FoodDelivery_2.sol\":2295:2702  function addMenuItem(uint256 _itemId, string memory _itemName, uint256 _price) external onlyRegisteredRestaurant {... */\n      pop\n      pop\n      pop\n      jump\t// out\n        /* \"contracts/FoodDelivery_2.sol\":946:985  mapping(uint256 => Order) public orders */\n    tag_75:\n      mstore(0x20, 0x03)\n      dup1\n      0x00\n      mstore\n      keccak256(0x00, 0x40)\n      0x00\n      swap2\n      pop\n      swap1\n      pop\n      dup1\n      0x00\n      add\n      sload\n      swap1\n      dup1\n      0x01\n      add\n      0x00\n      swap1\n      sload\n      swap1\n      0x0100\n      exp\n      swap1\n      div\n      0xffffffffffffffffffffffffffffffffffffffff\n      and\n      swap1\n      dup1\n      0x02\n      add\n      sload\n      swap1\n      dup1\n      0x04\n      add\n      0x00\n      swap1\n      sload\n      swap1\n      0x0100\n      exp\n      swap1\n      div\n      0xff\n      and\n      swap1\n      dup1\n      0x04\n      add\n      0x01\n      swap1\n      sload\n      swap1\n      0x0100\n      exp\n      swap1\n      div\n      0xffffffffffffffffffffffffffffffffffffffff\n      and\n      swap1\n      dup1\n      0x05\n      add\n      sload\n      swap1\n      pop\n      dup7\n      jump\t// out\n        /* \"contracts/FoodDelivery_2.sol\":4020:4365  function updateOrderStatus(uint256 _orderId, OrderStatus _newStatus) external onlyRegisteredRestaurant {... */\n    tag_82:\n        /* \"contracts/FoodDelivery_2.sol\":1524:1535  restaurants */\n      0x01\n        /* \"contracts/FoodDelivery_2.sol\":1524:1547  restaurants[msg.sender] */\n      0x00\n        /* \"contracts/FoodDelivery_2.sol\":1536:1546  msg.sender */\n      caller\n        /* \"contracts/FoodDelivery_2.sol\":1524:1547  restaurants[msg.sender] */\n      0xffffffffffffffffffffffffffffffffffffffff\n      and\n      0xffffffffffffffffffffffffffffffffffffffff\n      and\n      dup2\n      mstore\n      0x20\n      add\n      swap1\n      dup2\n      mstore\n      0x20\n      add\n      0x00\n      keccak256\n        /* \"contracts/FoodDelivery_2.sol\":1524:1560  restaurants[msg.sender].isRegistered */\n      0x03\n      add\n      0x00\n      swap1\n      sload\n      swap1\n      0x0100\n      exp\n      swap1\n      div\n      0xff\n      and\n        /* \"contracts/FoodDelivery_2.sol\":1516:1617  require(restaurants[msg.sender].isRegistered, \"Only registered restaurants can perform this action.\") */\n      tag_190\n      jumpi\n      mload(0x40)\n      0x08c379a000000000000000000000000000000000000000000000000000000000\n      dup2\n      mstore\n      0x04\n      add\n      tag_191\n      swap1\n      tag_118\n      jump\t// in\n    tag_191:\n      mload(0x40)\n      dup1\n      swap2\n      sub\n      swap1\n      revert\n    tag_190:\n        /* \"contracts/FoodDelivery_2.sol\":4134:4153  Order storage order */\n      0x00\n        /* \"contracts/FoodDelivery_2.sol\":4156:4162  orders */\n      0x03\n        /* \"contracts/FoodDelivery_2.sol\":4156:4172  orders[_orderId] */\n      0x00\n        /* \"contracts/FoodDelivery_2.sol\":4163:4171  _orderId */\n      dup5\n        /* \"contracts/FoodDelivery_2.sol\":4156:4172  orders[_orderId] */\n      dup2\n      mstore\n      0x20\n      add\n      swap1\n      dup2\n      mstore\n      0x20\n      add\n      0x00\n      keccak256\n        /* \"contracts/FoodDelivery_2.sol\":4134:4172  Order storage order = orders[_orderId] */\n      swap1\n      pop\n        /* \"contracts/FoodDelivery_2.sol\":4211:4221  msg.sender */\n      caller\n        /* \"contracts/FoodDelivery_2.sol\":4191:4221  order.restaurant == msg.sender */\n      0xffffffffffffffffffffffffffffffffffffffff\n      and\n        /* \"contracts/FoodDelivery_2.sol\":4191:4196  order */\n      dup2\n        /* \"contracts/FoodDelivery_2.sol\":4191:4207  order.restaurant */\n      0x04\n      add\n      0x01\n      swap1\n      sload\n      swap1\n      0x0100\n      exp\n      swap1\n      div\n      0xffffffffffffffffffffffffffffffffffffffff\n      and\n        /* \"contracts/FoodDelivery_2.sol\":4191:4221  order.restaurant == msg.sender */\n      0xffffffffffffffffffffffffffffffffffffffff\n      and\n      eq\n        /* \"contracts/FoodDelivery_2.sol\":4183:4265  require(order.restaurant == msg.sender, \"Only restaurant can update order status\") */\n      tag_193\n      jumpi\n      mload(0x40)\n      0x08c379a000000000000000000000000000000000000000000000000000000000\n      dup2\n      mstore\n      0x04\n      add\n      tag_194\n      swap1\n      tag_195\n      jump\t// in\n    tag_194:\n      mload(0x40)\n      dup1\n      swap2\n      sub\n      swap1\n      revert\n    tag_193:\n        /* \"contracts/FoodDelivery_2.sol\":4291:4301  _newStatus */\n      dup2\n        /* \"contracts/FoodDelivery_2.sol\":4276:4281  order */\n      dup2\n        /* \"contracts/FoodDelivery_2.sol\":4276:4288  order.status */\n      0x04\n      add\n      0x00\n        /* \"contracts/FoodDelivery_2.sol\":4276:4301  order.status = _newStatus */\n      0x0100\n      exp\n      dup2\n      sload\n      dup2\n      0xff\n      mul\n      not\n      and\n      swap1\n      dup4\n      0x03\n      dup2\n      gt\n      iszero\n      tag_196\n      jumpi\n      tag_197\n      tag_156\n      jump\t// in\n    tag_197:\n    tag_196:\n      mul\n      or\n      swap1\n      sstore\n      pop\n        /* \"contracts/FoodDelivery_2.sol\":4336:4344  _orderId */\n      dup3\n        /* \"contracts/FoodDelivery_2.sol\":4317:4357  OrderStatusUpdated(_orderId, _newStatus) */\n      0xd9a86b644eb5f5b43cc8a700849852481080361c7a4b00ba646d1b46c5585f95\n        /* \"contracts/FoodDelivery_2.sol\":4346:4356  _newStatus */\n      dup4\n        /* \"contracts/FoodDelivery_2.sol\":4317:4357  OrderStatusUpdated(_orderId, _newStatus) */\n      mload(0x40)\n      tag_198\n      swap2\n      swap1\n      tag_199\n      jump\t// in\n    tag_198:\n      mload(0x40)\n      dup1\n      swap2\n      sub\n      swap1\n      log2\n        /* \"contracts/FoodDelivery_2.sol\":4123:4365  {... */\n      pop\n        /* \"contracts/FoodDelivery_2.sol\":4020:4365  function updateOrderStatus(uint256 _orderId, OrderStatus _newStatus) external onlyRegisteredRestaurant {... */\n      pop\n      pop\n      jump\t// out\n        /* \"contracts/FoodDelivery_2.sol\":4676:4980  function getRestaurantDetails(address _restaurant) external view returns (string memory, string memory, uint256, bool) {... */\n    tag_86:\n        /* \"contracts/FoodDelivery_2.sol\":4750:4763  string memory */\n      0x60\n        /* \"contracts/FoodDelivery_2.sol\":4765:4778  string memory */\n      dup1\n        /* \"contracts/FoodDelivery_2.sol\":4780:4787  uint256 */\n      0x00\n        /* \"contracts/FoodDelivery_2.sol\":4789:4793  bool */\n      dup1\n        /* \"contracts/FoodDelivery_2.sol\":4806:4834  Restaurant memory restaurant */\n      0x00\n        /* \"contracts/FoodDelivery_2.sol\":4837:4848  restaurants */\n      0x01\n        /* \"contracts/FoodDelivery_2.sol\":4837:4861  restaurants[_restaurant] */\n      0x00\n        /* \"contracts/FoodDelivery_2.sol\":4849:4860  _restaurant */\n      dup8\n        /* \"contracts/FoodDelivery_2.sol\":4837:4861  restaurants[_restaurant] */\n      0xffffffffffffffffffffffffffffffffffffffff\n      and\n      0xffffffffffffffffffffffffffffffffffffffff\n      and\n      dup2\n      mstore\n      0x20\n      add\n      swap1\n      dup2\n      mstore\n      0x20\n      add\n      0x00\n      keccak256\n        /* \"contracts/FoodDelivery_2.sol\":4806:4861  Restaurant memory restaurant = restaurants[_restaurant] */\n      mload(0x40)\n      dup1\n      0x80\n      add\n      0x40\n      mstore\n      swap1\n      dup2\n      0x00\n      dup3\n      add\n      dup1\n      sload\n      tag_201\n      swap1\n      tag_95\n      jump\t// in\n    tag_201:\n      dup1\n      0x1f\n      add\n      0x20\n      dup1\n      swap2\n      div\n      mul\n      0x20\n      add\n      mload(0x40)\n      swap1\n      dup2\n      add\n      0x40\n      mstore\n      dup1\n      swap3\n      swap2\n      swap1\n      dup2\n      dup2\n      mstore\n      0x20\n      add\n      dup3\n      dup1\n      sload\n      tag_202\n      swap1\n      tag_95\n      jump\t// in\n    tag_202:\n      dup1\n      iszero\n      tag_203\n      jumpi\n      dup1\n      0x1f\n      lt\n      tag_204\n      jumpi\n      0x0100\n      dup1\n      dup4\n      sload\n      div\n      mul\n      dup4\n      mstore\n      swap2\n      0x20\n      add\n      swap2\n      jump(tag_203)\n    tag_204:\n      dup3\n      add\n      swap2\n      swap1\n      0x00\n      mstore\n      keccak256(0x00, 0x20)\n      swap1\n    tag_205:\n      dup2\n      sload\n      dup2\n      mstore\n      swap1\n      0x01\n      add\n      swap1\n      0x20\n      add\n      dup1\n      dup4\n      gt\n      tag_205\n      jumpi\n      dup3\n      swap1\n      sub\n      0x1f\n      and\n      dup3\n      add\n      swap2\n    tag_203:\n      pop\n      pop\n      pop\n      pop\n      pop\n      dup2\n      mstore\n      0x20\n      add\n      0x01\n      dup3\n      add\n      dup1\n      sload\n      tag_206\n      swap1\n      tag_95\n      jump\t// in\n    tag_206:\n      dup1\n      0x1f\n      add\n      0x20\n      dup1\n      swap2\n      div\n      mul\n      0x20\n      add\n      mload(0x40)\n      swap1\n      dup2\n      add\n      0x40\n      mstore\n      dup1\n      swap3\n      swap2\n      swap1\n      dup2\n      dup2\n      mstore\n      0x20\n      add\n      dup3\n      dup1\n      sload\n      tag_207\n      swap1\n      tag_95\n      jump\t// in\n    tag_207:\n      dup1\n      iszero\n      tag_208\n      jumpi\n      dup1\n      0x1f\n      lt\n      tag_209\n      jumpi\n      0x0100\n      dup1\n      dup4\n      sload\n      div\n      mul\n      dup4\n      mstore\n      swap2\n      0x20\n      add\n      swap2\n      jump(tag_208)\n    tag_209:\n      dup3\n      add\n      swap2\n      swap1\n      0x00\n      mstore\n      keccak256(0x00, 0x20)\n      swap1\n    tag_210:\n      dup2\n      sload\n      dup2\n      mstore\n      swap1\n      0x01\n      add\n      swap1\n      0x20\n      add\n      dup1\n      dup4\n      gt\n      tag_210\n      jumpi\n      dup3\n      swap1\n      sub\n      0x1f\n      and\n      dup3\n      add\n      swap2\n    tag_208:\n      pop\n      pop\n      pop\n      pop\n      pop\n      dup2\n      mstore\n      0x20\n      add\n      0x02\n      dup3\n      add\n      sload\n      dup2\n      mstore\n      0x20\n      add\n      0x03\n      dup3\n      add\n      0x00\n      swap1\n      sload\n      swap1\n      0x0100\n      exp\n      swap1\n      div\n      0xff\n      and\n      iszero\n      iszero\n      iszero\n      iszero\n      dup2\n      mstore\n      pop\n      pop\n      swap1\n      pop\n        /* \"contracts/FoodDelivery_2.sol\":4881:4891  restaurant */\n      dup1\n        /* \"contracts/FoodDelivery_2.sol\":4881:4896  restaurant.name */\n      0x00\n      add\n      mload\n        /* \"contracts/FoodDelivery_2.sol\":4898:4908  restaurant */\n      dup2\n        /* \"contracts/FoodDelivery_2.sol\":4898:4917  restaurant.location */\n      0x20\n      add\n      mload\n        /* \"contracts/FoodDelivery_2.sol\":4919:4929  restaurant */\n      dup3\n        /* \"contracts/FoodDelivery_2.sol\":4919:4946  restaurant.registrationTime */\n      0x40\n      add\n      mload\n        /* \"contracts/FoodDelivery_2.sol\":4948:4958  restaurant */\n      dup4\n        /* \"contracts/FoodDelivery_2.sol\":4948:4971  restaurant.isRegistered */\n      0x60\n      add\n      mload\n        /* \"contracts/FoodDelivery_2.sol\":4872:4972  return ( restaurant.name, restaurant.location, restaurant.registrationTime, restaurant.isRegistered) */\n      swap5\n      pop\n      swap5\n      pop\n      swap5\n      pop\n      swap5\n      pop\n      pop\n        /* \"contracts/FoodDelivery_2.sol\":4676:4980  function getRestaurantDetails(address _restaurant) external view returns (string memory, string memory, uint256, bool) {... */\n      swap2\n      swap4\n      pop\n      swap2\n      swap4\n      jump\t// out\n        /* \"contracts/FoodDelivery_2.sol\":4988:5112  function getOrderDetails(uint256 _orderId) external view returns ( Order memory ) {... */\n    tag_91:\n        /* \"contracts/FoodDelivery_2.sol\":5055:5067  Order memory */\n      tag_211\n      tag_212\n      jump\t// in\n    tag_211:\n        /* \"contracts/FoodDelivery_2.sol\":5088:5094  orders */\n      0x03\n        /* \"contracts/FoodDelivery_2.sol\":5088:5104  orders[_orderId] */\n      0x00\n        /* \"contracts/FoodDelivery_2.sol\":5095:5103  _orderId */\n      dup4\n        /* \"contracts/FoodDelivery_2.sol\":5088:5104  orders[_orderId] */\n      dup2\n      mstore\n      0x20\n      add\n      swap1\n      dup2\n      mstore\n      0x20\n      add\n      0x00\n      keccak256\n        /* \"contracts/FoodDelivery_2.sol\":5081:5104  return orders[_orderId] */\n      mload(0x40)\n      dup1\n      0xe0\n      add\n      0x40\n      mstore\n      swap1\n      dup2\n      0x00\n      dup3\n      add\n      sload\n      dup2\n      mstore\n      0x20\n      add\n      0x01\n      dup3\n      add\n      0x00\n      swap1\n      sload\n      swap1\n      0x0100\n      exp\n      swap1\n      div\n      0xffffffffffffffffffffffffffffffffffffffff\n      and\n      0xffffffffffffffffffffffffffffffffffffffff\n      and\n      0xffffffffffffffffffffffffffffffffffffffff\n      and\n      dup2\n      mstore\n      0x20\n      add\n      0x02\n      dup3\n      add\n      sload\n      dup2\n      mstore\n      0x20\n      add\n      0x03\n      dup3\n      add\n      dup1\n      sload\n      dup1\n      0x20\n      mul\n      0x20\n      add\n      mload(0x40)\n      swap1\n      dup2\n      add\n      0x40\n      mstore\n      dup1\n      swap3\n      swap2\n      swap1\n      dup2\n      dup2\n      mstore\n      0x20\n      add\n      dup3\n      dup1\n      sload\n      dup1\n      iszero\n      tag_214\n      jumpi\n      0x20\n      mul\n      dup3\n      add\n      swap2\n      swap1\n      0x00\n      mstore\n      keccak256(0x00, 0x20)\n      swap1\n    tag_215:\n      dup2\n      sload\n      dup2\n      mstore\n      0x20\n      add\n      swap1\n      0x01\n      add\n      swap1\n      dup1\n      dup4\n      gt\n      tag_215\n      jumpi\n    tag_214:\n      pop\n      pop\n      pop\n      pop\n      pop\n      dup2\n      mstore\n      0x20\n      add\n      0x04\n      dup3\n      add\n      0x00\n      swap1\n      sload\n      swap1\n      0x0100\n      exp\n      swap1\n      div\n      0xff\n      and\n      0x03\n      dup2\n      gt\n      iszero\n      tag_216\n      jumpi\n      tag_217\n      tag_156\n      jump\t// in\n    tag_217:\n    tag_216:\n      0x03\n      dup2\n      gt\n      iszero\n      tag_218\n      jumpi\n      tag_219\n      tag_156\n      jump\t// in\n    tag_219:\n    tag_218:\n      dup2\n      mstore\n      0x20\n      add\n      0x04\n      dup3\n      add\n      0x01\n      swap1\n      sload\n      swap1\n      0x0100\n      exp\n      swap1\n      div\n      0xffffffffffffffffffffffffffffffffffffffff\n      and\n      0xffffffffffffffffffffffffffffffffffffffff\n      and\n      0xffffffffffffffffffffffffffffffffffffffff\n      and\n      dup2\n      mstore\n      0x20\n      add\n      0x05\n      dup3\n      add\n      sload\n      dup2\n      mstore\n      pop\n      pop\n      swap1\n      pop\n        /* \"contracts/FoodDelivery_2.sol\":4988:5112  function getOrderDetails(uint256 _orderId) external view returns ( Order memory ) {... */\n      swap2\n      swap1\n      pop\n      jump\t// out\n    tag_158:\n      dup3\n      dup1\n      sload\n      dup3\n      dup3\n      sstore\n      swap1\n      0x00\n      mstore\n      keccak256(0x00, 0x20)\n      swap1\n      dup2\n      add\n      swap3\n      dup3\n      iszero\n      tag_220\n      jumpi\n      swap2\n      0x20\n      mul\n      dup3\n      add\n    tag_221:\n      dup3\n      dup2\n      gt\n      iszero\n      tag_222\n      jumpi\n      dup3\n      mload\n      dup3\n      sstore\n      swap2\n      0x20\n      add\n      swap2\n      swap1\n      0x01\n      add\n      swap1\n      jump(tag_221)\n    tag_222:\n    tag_220:\n      pop\n      swap1\n      pop\n      tag_223\n      swap2\n      swap1\n      tag_224\n      jump\t// in\n    tag_223:\n      pop\n      swap1\n      jump\t// out\n    tag_212:\n      mload(0x40)\n      dup1\n      0xe0\n      add\n      0x40\n      mstore\n      dup1\n      0x00\n      dup2\n      mstore\n      0x20\n      add\n      and(0xffffffffffffffffffffffffffffffffffffffff, 0x00)\n      dup2\n      mstore\n      0x20\n      add\n      0x00\n      dup2\n      mstore\n      0x20\n      add\n      0x60\n      dup2\n      mstore\n      0x20\n      add\n      0x00\n      0x03\n      dup2\n      gt\n      iszero\n      tag_225\n      jumpi\n      tag_226\n      tag_156\n      jump\t// in\n    tag_226:\n    tag_225:\n      dup2\n      mstore\n      0x20\n      add\n      and(0xffffffffffffffffffffffffffffffffffffffff, 0x00)\n      dup2\n      mstore\n      0x20\n      add\n      0x00\n      dup2\n      mstore\n      pop\n      swap1\n      jump\t// out\n    tag_224:\n    tag_227:\n      dup1\n      dup3\n      gt\n      iszero\n      tag_228\n      jumpi\n      0x00\n      dup2\n      0x00\n      swap1\n      sstore\n      pop\n      0x01\n      add\n      jump(tag_227)\n    tag_228:\n      pop\n      swap1\n      jump\t// out\n        /* \"#utility.yul\":7:82   */\n    tag_229:\n        /* \"#utility.yul\":40:46   */\n      0x00\n        /* \"#utility.yul\":73:75   */\n      0x40\n        /* \"#utility.yul\":67:76   */\n      mload\n        /* \"#utility.yul\":57:76   */\n      swap1\n      pop\n        /* \"#utility.yul\":7:82   */\n      swap1\n      jump\t// out\n        /* \"#utility.yul\":88:205   */\n    tag_230:\n        /* \"#utility.yul\":197:198   */\n      0x00\n        /* \"#utility.yul\":194:195   */\n      dup1\n        /* \"#utility.yul\":187:199   */\n      revert\n        /* \"#utility.yul\":211:328   */\n    tag_231:\n        /* \"#utility.yul\":320:321   */\n      0x00\n        /* \"#utility.yul\":317:318   */\n      dup1\n        /* \"#utility.yul\":310:322   */\n      revert\n        /* \"#utility.yul\":334:460   */\n    tag_232:\n        /* \"#utility.yul\":371:378   */\n      0x00\n        /* \"#utility.yul\":411:453   */\n      0xffffffffffffffffffffffffffffffffffffffff\n        /* \"#utility.yul\":404:409   */\n      dup3\n        /* \"#utility.yul\":400:454   */\n      and\n        /* \"#utility.yul\":389:454   */\n      swap1\n      pop\n        /* \"#utility.yul\":334:460   */\n      swap2\n      swap1\n      pop\n      jump\t// out\n        /* \"#utility.yul\":466:562   */\n    tag_233:\n        /* \"#utility.yul\":503:510   */\n      0x00\n        /* \"#utility.yul\":532:556   */\n      tag_324\n        /* \"#utility.yul\":550:555   */\n      dup3\n        /* \"#utility.yul\":532:556   */\n      tag_232\n      jump\t// in\n    tag_324:\n        /* \"#utility.yul\":521:556   */\n      swap1\n      pop\n        /* \"#utility.yul\":466:562   */\n      swap2\n      swap1\n      pop\n      jump\t// out\n        /* \"#utility.yul\":568:690   */\n    tag_234:\n        /* \"#utility.yul\":641:665   */\n      tag_326\n        /* \"#utility.yul\":659:664   */\n      dup2\n        /* \"#utility.yul\":641:665   */\n      tag_233\n      jump\t// in\n    tag_326:\n        /* \"#utility.yul\":634:639   */\n      dup2\n        /* \"#utility.yul\":631:666   */\n      eq\n        /* \"#utility.yul\":621:684   */\n      tag_327\n      jumpi\n        /* \"#utility.yul\":680:681   */\n      0x00\n        /* \"#utility.yul\":677:678   */\n      dup1\n        /* \"#utility.yul\":670:682   */\n      revert\n        /* \"#utility.yul\":621:684   */\n    tag_327:\n        /* \"#utility.yul\":568:690   */\n      pop\n      jump\t// out\n        /* \"#utility.yul\":696:835   */\n    tag_235:\n        /* \"#utility.yul\":742:747   */\n      0x00\n        /* \"#utility.yul\":780:786   */\n      dup2\n        /* \"#utility.yul\":767:787   */\n      calldataload\n        /* \"#utility.yul\":758:787   */\n      swap1\n      pop\n        /* \"#utility.yul\":796:829   */\n      tag_329\n        /* \"#utility.yul\":823:828   */\n      dup2\n        /* \"#utility.yul\":796:829   */\n      tag_234\n      jump\t// in\n    tag_329:\n        /* \"#utility.yul\":696:835   */\n      swap3\n      swap2\n      pop\n      pop\n      jump\t// out\n        /* \"#utility.yul\":841:918   */\n    tag_236:\n        /* \"#utility.yul\":878:885   */\n      0x00\n        /* \"#utility.yul\":907:912   */\n      dup2\n        /* \"#utility.yul\":896:912   */\n      swap1\n      pop\n        /* \"#utility.yul\":841:918   */\n      swap2\n      swap1\n      pop\n      jump\t// out\n        /* \"#utility.yul\":924:1046   */\n    tag_237:\n        /* \"#utility.yul\":997:1021   */\n      tag_332\n        /* \"#utility.yul\":1015:1020   */\n      dup2\n        /* \"#utility.yul\":997:1021   */\n      tag_236\n      jump\t// in\n    tag_332:\n        /* \"#utility.yul\":990:995   */\n      dup2\n        /* \"#utility.yul\":987:1022   */\n      eq\n        /* \"#utility.yul\":977:1040   */\n      tag_333\n      jumpi\n        /* \"#utility.yul\":1036:1037   */\n      0x00\n        /* \"#utility.yul\":1033:1034   */\n      dup1\n        /* \"#utility.yul\":1026:1038   */\n      revert\n        /* \"#utility.yul\":977:1040   */\n    tag_333:\n        /* \"#utility.yul\":924:1046   */\n      pop\n      jump\t// out\n        /* \"#utility.yul\":1052:1191   */\n    tag_238:\n        /* \"#utility.yul\":1098:1103   */\n      0x00\n        /* \"#utility.yul\":1136:1142   */\n      dup2\n        /* \"#utility.yul\":1123:1143   */\n      calldataload\n        /* \"#utility.yul\":1114:1143   */\n      swap1\n      pop\n        /* \"#utility.yul\":1152:1185   */\n      tag_335\n        /* \"#utility.yul\":1179:1184   */\n      dup2\n        /* \"#utility.yul\":1152:1185   */\n      tag_237\n      jump\t// in\n    tag_335:\n        /* \"#utility.yul\":1052:1191   */\n      swap3\n      swap2\n      pop\n      pop\n      jump\t// out\n        /* \"#utility.yul\":1197:1671   */\n    tag_22:\n        /* \"#utility.yul\":1265:1271   */\n      0x00\n        /* \"#utility.yul\":1273:1279   */\n      dup1\n        /* \"#utility.yul\":1322:1324   */\n      0x40\n        /* \"#utility.yul\":1310:1319   */\n      dup4\n        /* \"#utility.yul\":1301:1308   */\n      dup6\n        /* \"#utility.yul\":1297:1320   */\n      sub\n        /* \"#utility.yul\":1293:1325   */\n      slt\n        /* \"#utility.yul\":1290:1409   */\n      iszero\n      tag_337\n      jumpi\n        /* \"#utility.yul\":1328:1407   */\n      tag_338\n      tag_230\n      jump\t// in\n    tag_338:\n        /* \"#utility.yul\":1290:1409   */\n    tag_337:\n        /* \"#utility.yul\":1448:1449   */\n      0x00\n        /* \"#utility.yul\":1473:1526   */\n      tag_339\n        /* \"#utility.yul\":1518:1525   */\n      dup6\n        /* \"#utility.yul\":1509:1515   */\n      dup3\n        /* \"#utility.yul\":1498:1507   */\n      dup7\n        /* \"#utility.yul\":1494:1516   */\n      add\n        /* \"#utility.yul\":1473:1526   */\n      tag_235\n      jump\t// in\n    tag_339:\n        /* \"#utility.yul\":1463:1526   */\n      swap3\n      pop\n        /* \"#utility.yul\":1419:1536   */\n      pop\n        /* \"#utility.yul\":1575:1577   */\n      0x20\n        /* \"#utility.yul\":1601:1654   */\n      tag_340\n        /* \"#utility.yul\":1646:1653   */\n      dup6\n        /* \"#utility.yul\":1637:1643   */\n      dup3\n        /* \"#utility.yul\":1626:1635   */\n      dup7\n        /* \"#utility.yul\":1622:1644   */\n      add\n        /* \"#utility.yul\":1601:1654   */\n      tag_238\n      jump\t// in\n    tag_340:\n        /* \"#utility.yul\":1591:1654   */\n      swap2\n      pop\n        /* \"#utility.yul\":1546:1664   */\n      pop\n        /* \"#utility.yul\":1197:1671   */\n      swap3\n      pop\n      swap3\n      swap1\n      pop\n      jump\t// out\n        /* \"#utility.yul\":1677:1776   */\n    tag_239:\n        /* \"#utility.yul\":1729:1735   */\n      0x00\n        /* \"#utility.yul\":1763:1768   */\n      dup2\n        /* \"#utility.yul\":1757:1769   */\n      mload\n        /* \"#utility.yul\":1747:1769   */\n      swap1\n      pop\n        /* \"#utility.yul\":1677:1776   */\n      swap2\n      swap1\n      pop\n      jump\t// out\n        /* \"#utility.yul\":1782:1951   */\n    tag_240:\n        /* \"#utility.yul\":1866:1877   */\n      0x00\n        /* \"#utility.yul\":1900:1906   */\n      dup3\n        /* \"#utility.yul\":1895:1898   */\n      dup3\n        /* \"#utility.yul\":1888:1907   */\n      mstore\n        /* \"#utility.yul\":1940:1944   */\n      0x20\n        /* \"#utility.yul\":1935:1938   */\n      dup3\n        /* \"#utility.yul\":1931:1945   */\n      add\n        /* \"#utility.yul\":1916:1945   */\n      swap1\n      pop\n        /* \"#utility.yul\":1782:1951   */\n      swap3\n      swap2\n      pop\n      pop\n      jump\t// out\n        /* \"#utility.yul\":1957:2096   */\n    tag_241:\n        /* \"#utility.yul\":2046:2052   */\n      dup3\n        /* \"#utility.yul\":2041:2044   */\n      dup2\n        /* \"#utility.yul\":2036:2039   */\n      dup4\n        /* \"#utility.yul\":2030:2053   */\n      mcopy\n        /* \"#utility.yul\":2087:2088   */\n      0x00\n        /* \"#utility.yul\":2078:2084   */\n      dup4\n        /* \"#utility.yul\":2073:2076   */\n      dup4\n        /* \"#utility.yul\":2069:2085   */\n      add\n        /* \"#utility.yul\":2062:2089   */\n      mstore\n        /* \"#utility.yul\":1957:2096   */\n      pop\n      pop\n      pop\n      jump\t// out\n        /* \"#utility.yul\":2102:2204   */\n    tag_242:\n        /* \"#utility.yul\":2143:2149   */\n      0x00\n        /* \"#utility.yul\":2194:2196   */\n      0x1f\n        /* \"#utility.yul\":2190:2197   */\n      not\n        /* \"#utility.yul\":2185:2187   */\n      0x1f\n        /* \"#utility.yul\":2178:2183   */\n      dup4\n        /* \"#utility.yul\":2174:2188   */\n      add\n        /* \"#utility.yul\":2170:2198   */\n      and\n        /* \"#utility.yul\":2160:2198   */\n      swap1\n      pop\n        /* \"#utility.yul\":2102:2204   */\n      swap2\n      swap1\n      pop\n      jump\t// out\n        /* \"#utility.yul\":2210:2587   */\n    tag_243:\n        /* \"#utility.yul\":2298:2301   */\n      0x00\n        /* \"#utility.yul\":2326:2365   */\n      tag_346\n        /* \"#utility.yul\":2359:2364   */\n      dup3\n        /* \"#utility.yul\":2326:2365   */\n      tag_239\n      jump\t// in\n    tag_346:\n        /* \"#utility.yul\":2381:2452   */\n      tag_347\n        /* \"#utility.yul\":2445:2451   */\n      dup2\n        /* \"#utility.yul\":2440:2443   */\n      dup6\n        /* \"#utility.yul\":2381:2452   */\n      tag_240\n      jump\t// in\n    tag_347:\n        /* \"#utility.yul\":2374:2452   */\n      swap4\n      pop\n        /* \"#utility.yul\":2461:2526   */\n      tag_348\n        /* \"#utility.yul\":2519:2525   */\n      dup2\n        /* \"#utility.yul\":2514:2517   */\n      dup6\n        /* \"#utility.yul\":2507:2511   */\n      0x20\n        /* \"#utility.yul\":2500:2505   */\n      dup7\n        /* \"#utility.yul\":2496:2512   */\n      add\n        /* \"#utility.yul\":2461:2526   */\n      tag_241\n      jump\t// in\n    tag_348:\n        /* \"#utility.yul\":2551:2580   */\n      tag_349\n        /* \"#utility.yul\":2573:2579   */\n      dup2\n        /* \"#utility.yul\":2551:2580   */\n      tag_242\n      jump\t// in\n    tag_349:\n        /* \"#utility.yul\":2546:2549   */\n      dup5\n        /* \"#utility.yul\":2542:2581   */\n      add\n        /* \"#utility.yul\":2535:2581   */\n      swap2\n      pop\n        /* \"#utility.yul\":2302:2587   */\n      pop\n        /* \"#utility.yul\":2210:2587   */\n      swap3\n      swap2\n      pop\n      pop\n      jump\t// out\n        /* \"#utility.yul\":2593:2711   */\n    tag_244:\n        /* \"#utility.yul\":2680:2704   */\n      tag_351\n        /* \"#utility.yul\":2698:2703   */\n      dup2\n        /* \"#utility.yul\":2680:2704   */\n      tag_236\n      jump\t// in\n    tag_351:\n        /* \"#utility.yul\":2675:2678   */\n      dup3\n        /* \"#utility.yul\":2668:2705   */\n      mstore\n        /* \"#utility.yul\":2593:2711   */\n      pop\n      pop\n      jump\t// out\n        /* \"#utility.yul\":2717:2807   */\n    tag_245:\n        /* \"#utility.yul\":2751:2758   */\n      0x00\n        /* \"#utility.yul\":2794:2799   */\n      dup2\n        /* \"#utility.yul\":2787:2800   */\n      iszero\n        /* \"#utility.yul\":2780:2801   */\n      iszero\n        /* \"#utility.yul\":2769:2801   */\n      swap1\n      pop\n        /* \"#utility.yul\":2717:2807   */\n      swap2\n      swap1\n      pop\n      jump\t// out\n        /* \"#utility.yul\":2813:2922   */\n    tag_246:\n        /* \"#utility.yul\":2894:2915   */\n      tag_354\n        /* \"#utility.yul\":2909:2914   */\n      dup2\n        /* \"#utility.yul\":2894:2915   */\n      tag_245\n      jump\t// in\n    tag_354:\n        /* \"#utility.yul\":2889:2892   */\n      dup3\n        /* \"#utility.yul\":2882:2916   */\n      mstore\n        /* \"#utility.yul\":2813:2922   */\n      pop\n      pop\n      jump\t// out\n        /* \"#utility.yul\":2928:3449   */\n    tag_25:\n        /* \"#utility.yul\":3091:3095   */\n      0x00\n        /* \"#utility.yul\":3129:3131   */\n      0x60\n        /* \"#utility.yul\":3118:3127   */\n      dup3\n        /* \"#utility.yul\":3114:3132   */\n      add\n        /* \"#utility.yul\":3106:3132   */\n      swap1\n      pop\n        /* \"#utility.yul\":3178:3187   */\n      dup2\n        /* \"#utility.yul\":3172:3176   */\n      dup2\n        /* \"#utility.yul\":3168:3188   */\n      sub\n        /* \"#utility.yul\":3164:3165   */\n      0x00\n        /* \"#utility.yul\":3153:3162   */\n      dup4\n        /* \"#utility.yul\":3149:3166   */\n      add\n        /* \"#utility.yul\":3142:3189   */\n      mstore\n        /* \"#utility.yul\":3206:3284   */\n      tag_356\n        /* \"#utility.yul\":3279:3283   */\n      dup2\n        /* \"#utility.yul\":3270:3276   */\n      dup7\n        /* \"#utility.yul\":3206:3284   */\n      tag_243\n      jump\t// in\n    tag_356:\n        /* \"#utility.yul\":3198:3284   */\n      swap1\n      pop\n        /* \"#utility.yul\":3294:3366   */\n      tag_357\n        /* \"#utility.yul\":3362:3364   */\n      0x20\n        /* \"#utility.yul\":3351:3360   */\n      dup4\n        /* \"#utility.yul\":3347:3365   */\n      add\n        /* \"#utility.yul\":3338:3344   */\n      dup6\n        /* \"#utility.yul\":3294:3366   */\n      tag_244\n      jump\t// in\n    tag_357:\n        /* \"#utility.yul\":3376:3442   */\n      tag_358\n        /* \"#utility.yul\":3438:3440   */\n      0x40\n        /* \"#utility.yul\":3427:3436   */\n      dup4\n        /* \"#utility.yul\":3423:3441   */\n      add\n        /* \"#utility.yul\":3414:3420   */\n      dup5\n        /* \"#utility.yul\":3376:3442   */\n      tag_246\n      jump\t// in\n    tag_358:\n        /* \"#utility.yul\":2928:3449   */\n      swap5\n      swap4\n      pop\n      pop\n      pop\n      pop\n      jump\t// out\n        /* \"#utility.yul\":3455:3784   */\n    tag_29:\n        /* \"#utility.yul\":3514:3520   */\n      0x00\n        /* \"#utility.yul\":3563:3565   */\n      0x20\n        /* \"#utility.yul\":3551:3560   */\n      dup3\n        /* \"#utility.yul\":3542:3549   */\n      dup5\n        /* \"#utility.yul\":3538:3561   */\n      sub\n        /* \"#utility.yul\":3534:3566   */\n      slt\n        /* \"#utility.yul\":3531:3650   */\n      iszero\n      tag_360\n      jumpi\n        /* \"#utility.yul\":3569:3648   */\n      tag_361\n      tag_230\n      jump\t// in\n    tag_361:\n        /* \"#utility.yul\":3531:3650   */\n    tag_360:\n        /* \"#utility.yul\":3689:3690   */\n      0x00\n        /* \"#utility.yul\":3714:3767   */\n      tag_362\n        /* \"#utility.yul\":3759:3766   */\n      dup5\n        /* \"#utility.yul\":3750:3756   */\n      dup3\n        /* \"#utility.yul\":3739:3748   */\n      dup6\n        /* \"#utility.yul\":3735:3757   */\n      add\n        /* \"#utility.yul\":3714:3767   */\n      tag_235\n      jump\t// in\n    tag_362:\n        /* \"#utility.yul\":3704:3767   */\n      swap2\n      pop\n        /* \"#utility.yul\":3660:3777   */\n      pop\n        /* \"#utility.yul\":3455:3784   */\n      swap3\n      swap2\n      pop\n      pop\n      jump\t// out\n        /* \"#utility.yul\":3790:3904   */\n    tag_247:\n        /* \"#utility.yul\":3857:3863   */\n      0x00\n        /* \"#utility.yul\":3891:3896   */\n      dup2\n        /* \"#utility.yul\":3885:3897   */\n      mload\n        /* \"#utility.yul\":3875:3897   */\n      swap1\n      pop\n        /* \"#utility.yul\":3790:3904   */\n      swap2\n      swap1\n      pop\n      jump\t// out\n        /* \"#utility.yul\":3910:4094   */\n    tag_248:\n        /* \"#utility.yul\":4009:4020   */\n      0x00\n        /* \"#utility.yul\":4043:4049   */\n      dup3\n        /* \"#utility.yul\":4038:4041   */\n      dup3\n        /* \"#utility.yul\":4031:4050   */\n      mstore\n        /* \"#utility.yul\":4083:4087   */\n      0x20\n        /* \"#utility.yul\":4078:4081   */\n      dup3\n        /* \"#utility.yul\":4074:4088   */\n      add\n        /* \"#utility.yul\":4059:4088   */\n      swap1\n      pop\n        /* \"#utility.yul\":3910:4094   */\n      swap3\n      swap2\n      pop\n      pop\n      jump\t// out\n        /* \"#utility.yul\":4100:4232   */\n    tag_249:\n        /* \"#utility.yul\":4167:4171   */\n      0x00\n        /* \"#utility.yul\":4190:4193   */\n      dup2\n        /* \"#utility.yul\":4182:4193   */\n      swap1\n      pop\n        /* \"#utility.yul\":4220:4224   */\n      0x20\n        /* \"#utility.yul\":4215:4218   */\n      dup3\n        /* \"#utility.yul\":4211:4225   */\n      add\n        /* \"#utility.yul\":4203:4225   */\n      swap1\n      pop\n        /* \"#utility.yul\":4100:4232   */\n      swap2\n      swap1\n      pop\n      jump\t// out\n        /* \"#utility.yul\":4238:4346   */\n    tag_250:\n        /* \"#utility.yul\":4315:4339   */\n      tag_367\n        /* \"#utility.yul\":4333:4338   */\n      dup2\n        /* \"#utility.yul\":4315:4339   */\n      tag_236\n      jump\t// in\n    tag_367:\n        /* \"#utility.yul\":4310:4313   */\n      dup3\n        /* \"#utility.yul\":4303:4340   */\n      mstore\n        /* \"#utility.yul\":4238:4346   */\n      pop\n      pop\n      jump\t// out\n        /* \"#utility.yul\":4352:4531   */\n    tag_251:\n        /* \"#utility.yul\":4421:4431   */\n      0x00\n        /* \"#utility.yul\":4442:4488   */\n      tag_369\n        /* \"#utility.yul\":4484:4487   */\n      dup4\n        /* \"#utility.yul\":4476:4482   */\n      dup4\n        /* \"#utility.yul\":4442:4488   */\n      tag_250\n      jump\t// in\n    tag_369:\n        /* \"#utility.yul\":4520:4524   */\n      0x20\n        /* \"#utility.yul\":4515:4518   */\n      dup4\n        /* \"#utility.yul\":4511:4525   */\n      add\n        /* \"#utility.yul\":4497:4525   */\n      swap1\n      pop\n        /* \"#utility.yul\":4352:4531   */\n      swap3\n      swap2\n      pop\n      pop\n      jump\t// out\n        /* \"#utility.yul\":4537:4650   */\n    tag_252:\n        /* \"#utility.yul\":4607:4611   */\n      0x00\n        /* \"#utility.yul\":4639:4643   */\n      0x20\n        /* \"#utility.yul\":4634:4637   */\n      dup3\n        /* \"#utility.yul\":4630:4644   */\n      add\n        /* \"#utility.yul\":4622:4644   */\n      swap1\n      pop\n        /* \"#utility.yul\":4537:4650   */\n      swap2\n      swap1\n      pop\n      jump\t// out\n        /* \"#utility.yul\":4686:5418   */\n    tag_253:\n        /* \"#utility.yul\":4805:4808   */\n      0x00\n        /* \"#utility.yul\":4834:4888   */\n      tag_372\n        /* \"#utility.yul\":4882:4887   */\n      dup3\n        /* \"#utility.yul\":4834:4888   */\n      tag_247\n      jump\t// in\n    tag_372:\n        /* \"#utility.yul\":4904:4990   */\n      tag_373\n        /* \"#utility.yul\":4983:4989   */\n      dup2\n        /* \"#utility.yul\":4978:4981   */\n      dup6\n        /* \"#utility.yul\":4904:4990   */\n      tag_248\n      jump\t// in\n    tag_373:\n        /* \"#utility.yul\":4897:4990   */\n      swap4\n      pop\n        /* \"#utility.yul\":5014:5070   */\n      tag_374\n        /* \"#utility.yul\":5064:5069   */\n      dup4\n        /* \"#utility.yul\":5014:5070   */\n      tag_249\n      jump\t// in\n    tag_374:\n        /* \"#utility.yul\":5093:5100   */\n      dup1\n        /* \"#utility.yul\":5124:5125   */\n      0x00\n        /* \"#utility.yul\":5109:5393   */\n    tag_375:\n        /* \"#utility.yul\":5134:5140   */\n      dup4\n        /* \"#utility.yul\":5131:5132   */\n      dup2\n        /* \"#utility.yul\":5128:5141   */\n      lt\n        /* \"#utility.yul\":5109:5393   */\n      iszero\n      tag_377\n      jumpi\n        /* \"#utility.yul\":5210:5216   */\n      dup2\n        /* \"#utility.yul\":5204:5217   */\n      mload\n        /* \"#utility.yul\":5237:5300   */\n      tag_378\n        /* \"#utility.yul\":5296:5299   */\n      dup9\n        /* \"#utility.yul\":5281:5294   */\n      dup3\n        /* \"#utility.yul\":5237:5300   */\n      tag_251\n      jump\t// in\n    tag_378:\n        /* \"#utility.yul\":5230:5300   */\n      swap8\n      pop\n        /* \"#utility.yul\":5323:5383   */\n      tag_379\n        /* \"#utility.yul\":5376:5382   */\n      dup4\n        /* \"#utility.yul\":5323:5383   */\n      tag_252\n      jump\t// in\n    tag_379:\n        /* \"#utility.yul\":5313:5383   */\n      swap3\n      pop\n        /* \"#utility.yul\":5169:5393   */\n      pop\n        /* \"#utility.yul\":5156:5157   */\n      0x01\n        /* \"#utility.yul\":5153:5154   */\n      dup2\n        /* \"#utility.yul\":5149:5158   */\n      add\n        /* \"#utility.yul\":5144:5158   */\n      swap1\n      pop\n        /* \"#utility.yul\":5109:5393   */\n      jump(tag_375)\n    tag_377:\n        /* \"#utility.yul\":5113:5127   */\n      pop\n        /* \"#utility.yul\":5409:5412   */\n      dup6\n        /* \"#utility.yul\":5402:5412   */\n      swap4\n      pop\n        /* \"#utility.yul\":4810:5418   */\n      pop\n      pop\n      pop\n        /* \"#utility.yul\":4686:5418   */\n      swap3\n      swap2\n      pop\n      pop\n      jump\t// out\n        /* \"#utility.yul\":5424:5797   */\n    tag_32:\n        /* \"#utility.yul\":5567:5571   */\n      0x00\n        /* \"#utility.yul\":5605:5607   */\n      0x20\n        /* \"#utility.yul\":5594:5603   */\n      dup3\n        /* \"#utility.yul\":5590:5608   */\n      add\n        /* \"#utility.yul\":5582:5608   */\n      swap1\n      pop\n        /* \"#utility.yul\":5654:5663   */\n      dup2\n        /* \"#utility.yul\":5648:5652   */\n      dup2\n        /* \"#utility.yul\":5644:5664   */\n      sub\n        /* \"#utility.yul\":5640:5641   */\n      0x00\n        /* \"#utility.yul\":5629:5638   */\n      dup4\n        /* \"#utility.yul\":5625:5642   */\n      add\n        /* \"#utility.yul\":5618:5665   */\n      mstore\n        /* \"#utility.yul\":5682:5790   */\n      tag_381\n        /* \"#utility.yul\":5785:5789   */\n      dup2\n        /* \"#utility.yul\":5776:5782   */\n      dup5\n        /* \"#utility.yul\":5682:5790   */\n      tag_253\n      jump\t// in\n    tag_381:\n        /* \"#utility.yul\":5674:5790   */\n      swap1\n      pop\n        /* \"#utility.yul\":5424:5797   */\n      swap3\n      swap2\n      pop\n      pop\n      jump\t// out\n        /* \"#utility.yul\":5803:6025   */\n    tag_38:\n        /* \"#utility.yul\":5896:5900   */\n      0x00\n        /* \"#utility.yul\":5934:5936   */\n      0x20\n        /* \"#utility.yul\":5923:5932   */\n      dup3\n        /* \"#utility.yul\":5919:5937   */\n      add\n        /* \"#utility.yul\":5911:5937   */\n      swap1\n      pop\n        /* \"#utility.yul\":5947:6018   */\n      tag_383\n        /* \"#utility.yul\":6015:6016   */\n      0x00\n        /* \"#utility.yul\":6004:6013   */\n      dup4\n        /* \"#utility.yul\":6000:6017   */\n      add\n        /* \"#utility.yul\":5991:5997   */\n      dup5\n        /* \"#utility.yul\":5947:6018   */\n      tag_244\n      jump\t// in\n    tag_383:\n        /* \"#utility.yul\":5803:6025   */\n      swap3\n      swap2\n      pop\n      pop\n      jump\t// out\n        /* \"#utility.yul\":6031:6754   */\n    tag_44:\n        /* \"#utility.yul\":6242:6246   */\n      0x00\n        /* \"#utility.yul\":6280:6283   */\n      0x80\n        /* \"#utility.yul\":6269:6278   */\n      dup3\n        /* \"#utility.yul\":6265:6284   */\n      add\n        /* \"#utility.yul\":6257:6284   */\n      swap1\n      pop\n        /* \"#utility.yul\":6330:6339   */\n      dup2\n        /* \"#utility.yul\":6324:6328   */\n      dup2\n        /* \"#utility.yul\":6320:6340   */\n      sub\n        /* \"#utility.yul\":6316:6317   */\n      0x00\n        /* \"#utility.yul\":6305:6314   */\n      dup4\n        /* \"#utility.yul\":6301:6318   */\n      add\n        /* \"#utility.yul\":6294:6341   */\n      mstore\n        /* \"#utility.yul\":6358:6436   */\n      tag_385\n        /* \"#utility.yul\":6431:6435   */\n      dup2\n        /* \"#utility.yul\":6422:6428   */\n      dup8\n        /* \"#utility.yul\":6358:6436   */\n      tag_243\n      jump\t// in\n    tag_385:\n        /* \"#utility.yul\":6350:6436   */\n      swap1\n      pop\n        /* \"#utility.yul\":6483:6492   */\n      dup2\n        /* \"#utility.yul\":6477:6481   */\n      dup2\n        /* \"#utility.yul\":6473:6493   */\n      sub\n        /* \"#utility.yul\":6468:6470   */\n      0x20\n        /* \"#utility.yul\":6457:6466   */\n      dup4\n        /* \"#utility.yul\":6453:6471   */\n      add\n        /* \"#utility.yul\":6446:6494   */\n      mstore\n        /* \"#utility.yul\":6511:6589   */\n      tag_386\n        /* \"#utility.yul\":6584:6588   */\n      dup2\n        /* \"#utility.yul\":6575:6581   */\n      dup7\n        /* \"#utility.yul\":6511:6589   */\n      tag_243\n      jump\t// in\n    tag_386:\n        /* \"#utility.yul\":6503:6589   */\n      swap1\n      pop\n        /* \"#utility.yul\":6599:6671   */\n      tag_387\n        /* \"#utility.yul\":6667:6669   */\n      0x40\n        /* \"#utility.yul\":6656:6665   */\n      dup4\n        /* \"#utility.yul\":6652:6670   */\n      add\n        /* \"#utility.yul\":6643:6649   */\n      dup6\n        /* \"#utility.yul\":6599:6671   */\n      tag_244\n      jump\t// in\n    tag_387:\n        /* \"#utility.yul\":6681:6747   */\n      tag_388\n        /* \"#utility.yul\":6743:6745   */\n      0x60\n        /* \"#utility.yul\":6732:6741   */\n      dup4\n        /* \"#utility.yul\":6728:6746   */\n      add\n        /* \"#utility.yul\":6719:6725   */\n      dup5\n        /* \"#utility.yul\":6681:6747   */\n      tag_246\n      jump\t// in\n    tag_388:\n        /* \"#utility.yul\":6031:6754   */\n      swap6\n      swap5\n      pop\n      pop\n      pop\n      pop\n      pop\n      jump\t// out\n        /* \"#utility.yul\":6760:6877   */\n    tag_254:\n        /* \"#utility.yul\":6869:6870   */\n      0x00\n        /* \"#utility.yul\":6866:6867   */\n      dup1\n        /* \"#utility.yul\":6859:6871   */\n      revert\n        /* \"#utility.yul\":6883:7063   */\n    tag_255:\n        /* \"#utility.yul\":6931:7008   */\n      0x4e487b7100000000000000000000000000000000000000000000000000000000\n        /* \"#utility.yul\":6928:6929   */\n      0x00\n        /* \"#utility.yul\":6921:7009   */\n      mstore\n        /* \"#utility.yul\":7028:7032   */\n      0x41\n        /* \"#utility.yul\":7025:7026   */\n      0x04\n        /* \"#utility.yul\":7018:7033   */\n      mstore\n        /* \"#utility.yul\":7052:7056   */\n      0x24\n        /* \"#utility.yul\":7049:7050   */\n      0x00\n        /* \"#utility.yul\":7042:7057   */\n      revert\n        /* \"#utility.yul\":7069:7350   */\n    tag_256:\n        /* \"#utility.yul\":7152:7179   */\n      tag_392\n        /* \"#utility.yul\":7174:7178   */\n      dup3\n        /* \"#utility.yul\":7152:7179   */\n      tag_242\n      jump\t// in\n    tag_392:\n        /* \"#utility.yul\":7144:7150   */\n      dup2\n        /* \"#utility.yul\":7140:7180   */\n      add\n        /* \"#utility.yul\":7282:7288   */\n      dup2\n        /* \"#utility.yul\":7270:7280   */\n      dup2\n        /* \"#utility.yul\":7267:7289   */\n      lt\n        /* \"#utility.yul\":7246:7264   */\n      0xffffffffffffffff\n        /* \"#utility.yul\":7234:7244   */\n      dup3\n        /* \"#utility.yul\":7231:7265   */\n      gt\n        /* \"#utility.yul\":7228:7290   */\n      or\n        /* \"#utility.yul\":7225:7313   */\n      iszero\n      tag_393\n      jumpi\n        /* \"#utility.yul\":7293:7311   */\n      tag_394\n      tag_255\n      jump\t// in\n    tag_394:\n        /* \"#utility.yul\":7225:7313   */\n    tag_393:\n        /* \"#utility.yul\":7333:7343   */\n      dup1\n        /* \"#utility.yul\":7329:7331   */\n      0x40\n        /* \"#utility.yul\":7322:7344   */\n      mstore\n        /* \"#utility.yul\":7112:7350   */\n      pop\n        /* \"#utility.yul\":7069:7350   */\n      pop\n      pop\n      jump\t// out\n        /* \"#utility.yul\":7356:7485   */\n    tag_257:\n        /* \"#utility.yul\":7390:7396   */\n      0x00\n        /* \"#utility.yul\":7417:7437   */\n      tag_396\n      tag_229\n      jump\t// in\n    tag_396:\n        /* \"#utility.yul\":7407:7437   */\n      swap1\n      pop\n        /* \"#utility.yul\":7446:7479   */\n      tag_397\n        /* \"#utility.yul\":7474:7478   */\n      dup3\n        /* \"#utility.yul\":7466:7472   */\n      dup3\n        /* \"#utility.yul\":7446:7479   */\n      tag_256\n      jump\t// in\n    tag_397:\n        /* \"#utility.yul\":7356:7485   */\n      swap2\n      swap1\n      pop\n      jump\t// out\n        /* \"#utility.yul\":7491:7802   */\n    tag_258:\n        /* \"#utility.yul\":7568:7572   */\n      0x00\n        /* \"#utility.yul\":7658:7676   */\n      0xffffffffffffffff\n        /* \"#utility.yul\":7650:7656   */\n      dup3\n        /* \"#utility.yul\":7647:7677   */\n      gt\n        /* \"#utility.yul\":7644:7700   */\n      iszero\n      tag_399\n      jumpi\n        /* \"#utility.yul\":7680:7698   */\n      tag_400\n      tag_255\n      jump\t// in\n    tag_400:\n        /* \"#utility.yul\":7644:7700   */\n    tag_399:\n        /* \"#utility.yul\":7730:7734   */\n      0x20\n        /* \"#utility.yul\":7722:7728   */\n      dup3\n        /* \"#utility.yul\":7718:7735   */\n      mul\n        /* \"#utility.yul\":7710:7735   */\n      swap1\n      pop\n        /* \"#utility.yul\":7790:7794   */\n      0x20\n        /* \"#utility.yul\":7784:7788   */\n      dup2\n        /* \"#utility.yul\":7780:7795   */\n      add\n        /* \"#utility.yul\":7772:7795   */\n      swap1\n      pop\n        /* \"#utility.yul\":7491:7802   */\n      swap2\n      swap1\n      pop\n      jump\t// out\n        /* \"#utility.yul\":7808:7925   */\n    tag_259:\n        /* \"#utility.yul\":7917:7918   */\n      0x00\n        /* \"#utility.yul\":7914:7915   */\n      dup1\n        /* \"#utility.yul\":7907:7919   */\n      revert\n        /* \"#utility.yul\":7948:8658   */\n    tag_260:\n        /* \"#utility.yul\":8044:8049   */\n      0x00\n        /* \"#utility.yul\":8069:8150   */\n      tag_403\n        /* \"#utility.yul\":8085:8149   */\n      tag_404\n        /* \"#utility.yul\":8142:8148   */\n      dup5\n        /* \"#utility.yul\":8085:8149   */\n      tag_258\n      jump\t// in\n    tag_404:\n        /* \"#utility.yul\":8069:8150   */\n      tag_257\n      jump\t// in\n    tag_403:\n        /* \"#utility.yul\":8060:8150   */\n      swap1\n      pop\n        /* \"#utility.yul\":8170:8175   */\n      dup1\n        /* \"#utility.yul\":8199:8205   */\n      dup4\n        /* \"#utility.yul\":8192:8197   */\n      dup3\n        /* \"#utility.yul\":8185:8206   */\n      mstore\n        /* \"#utility.yul\":8233:8237   */\n      0x20\n        /* \"#utility.yul\":8226:8231   */\n      dup3\n        /* \"#utility.yul\":8222:8238   */\n      add\n        /* \"#utility.yul\":8215:8238   */\n      swap1\n      pop\n        /* \"#utility.yul\":8286:8290   */\n      0x20\n        /* \"#utility.yul\":8278:8284   */\n      dup5\n        /* \"#utility.yul\":8274:8291   */\n      mul\n        /* \"#utility.yul\":8266:8272   */\n      dup4\n        /* \"#utility.yul\":8262:8292   */\n      add\n        /* \"#utility.yul\":8315:8318   */\n      dup6\n        /* \"#utility.yul\":8307:8313   */\n      dup2\n        /* \"#utility.yul\":8304:8319   */\n      gt\n        /* \"#utility.yul\":8301:8423   */\n      iszero\n      tag_405\n      jumpi\n        /* \"#utility.yul\":8334:8413   */\n      tag_406\n      tag_259\n      jump\t// in\n    tag_406:\n        /* \"#utility.yul\":8301:8423   */\n    tag_405:\n        /* \"#utility.yul\":8449:8455   */\n      dup4\n        /* \"#utility.yul\":8432:8652   */\n    tag_407:\n        /* \"#utility.yul\":8466:8472   */\n      dup2\n        /* \"#utility.yul\":8461:8464   */\n      dup2\n        /* \"#utility.yul\":8458:8473   */\n      lt\n        /* \"#utility.yul\":8432:8652   */\n      iszero\n      tag_409\n      jumpi\n        /* \"#utility.yul\":8541:8544   */\n      dup1\n        /* \"#utility.yul\":8570:8607   */\n      tag_410\n        /* \"#utility.yul\":8603:8606   */\n      dup9\n        /* \"#utility.yul\":8591:8601   */\n      dup3\n        /* \"#utility.yul\":8570:8607   */\n      tag_238\n      jump\t// in\n    tag_410:\n        /* \"#utility.yul\":8565:8568   */\n      dup5\n        /* \"#utility.yul\":8558:8608   */\n      mstore\n        /* \"#utility.yul\":8637:8641   */\n      0x20\n        /* \"#utility.yul\":8632:8635   */\n      dup5\n        /* \"#utility.yul\":8628:8642   */\n      add\n        /* \"#utility.yul\":8621:8642   */\n      swap4\n      pop\n        /* \"#utility.yul\":8508:8652   */\n      pop\n        /* \"#utility.yul\":8492:8496   */\n      0x20\n        /* \"#utility.yul\":8487:8490   */\n      dup2\n        /* \"#utility.yul\":8483:8497   */\n      add\n        /* \"#utility.yul\":8476:8497   */\n      swap1\n      pop\n        /* \"#utility.yul\":8432:8652   */\n      jump(tag_407)\n    tag_409:\n        /* \"#utility.yul\":8436:8457   */\n      pop\n        /* \"#utility.yul\":8050:8658   */\n      pop\n      pop\n        /* \"#utility.yul\":7948:8658   */\n      swap4\n      swap3\n      pop\n      pop\n      pop\n      jump\t// out\n        /* \"#utility.yul\":8681:9051   */\n    tag_261:\n        /* \"#utility.yul\":8752:8757   */\n      0x00\n        /* \"#utility.yul\":8801:8804   */\n      dup3\n        /* \"#utility.yul\":8794:8798   */\n      0x1f\n        /* \"#utility.yul\":8786:8792   */\n      dup4\n        /* \"#utility.yul\":8782:8799   */\n      add\n        /* \"#utility.yul\":8778:8805   */\n      slt\n        /* \"#utility.yul\":8768:8890   */\n      tag_412\n      jumpi\n        /* \"#utility.yul\":8809:8888   */\n      tag_413\n      tag_254\n      jump\t// in\n    tag_413:\n        /* \"#utility.yul\":8768:8890   */\n    tag_412:\n        /* \"#utility.yul\":8926:8932   */\n      dup2\n        /* \"#utility.yul\":8913:8933   */\n      calldataload\n        /* \"#utility.yul\":8951:9045   */\n      tag_414\n        /* \"#utility.yul\":9041:9044   */\n      dup5\n        /* \"#utility.yul\":9033:9039   */\n      dup3\n        /* \"#utility.yul\":9026:9030   */\n      0x20\n        /* \"#utility.yul\":9018:9024   */\n      dup7\n        /* \"#utility.yul\":9014:9031   */\n      add\n        /* \"#utility.yul\":8951:9045   */\n      tag_260\n      jump\t// in\n    tag_414:\n        /* \"#utility.yul\":8942:9045   */\n      swap2\n      pop\n        /* \"#utility.yul\":8758:9051   */\n      pop\n        /* \"#utility.yul\":8681:9051   */\n      swap3\n      swap2\n      pop\n      pop\n      jump\t// out\n        /* \"#utility.yul\":9057:9741   */\n    tag_54:\n        /* \"#utility.yul\":9150:9156   */\n      0x00\n        /* \"#utility.yul\":9158:9164   */\n      dup1\n        /* \"#utility.yul\":9207:9209   */\n      0x40\n        /* \"#utility.yul\":9195:9204   */\n      dup4\n        /* \"#utility.yul\":9186:9193   */\n      dup6\n        /* \"#utility.yul\":9182:9205   */\n      sub\n        /* \"#utility.yul\":9178:9210   */\n      slt\n        /* \"#utility.yul\":9175:9294   */\n      iszero\n      tag_416\n      jumpi\n        /* \"#utility.yul\":9213:9292   */\n      tag_417\n      tag_230\n      jump\t// in\n    tag_417:\n        /* \"#utility.yul\":9175:9294   */\n    tag_416:\n        /* \"#utility.yul\":9333:9334   */\n      0x00\n        /* \"#utility.yul\":9358:9411   */\n      tag_418\n        /* \"#utility.yul\":9403:9410   */\n      dup6\n        /* \"#utility.yul\":9394:9400   */\n      dup3\n        /* \"#utility.yul\":9383:9392   */\n      dup7\n        /* \"#utility.yul\":9379:9401   */\n      add\n        /* \"#utility.yul\":9358:9411   */\n      tag_235\n      jump\t// in\n    tag_418:\n        /* \"#utility.yul\":9348:9411   */\n      swap3\n      pop\n        /* \"#utility.yul\":9304:9421   */\n      pop\n        /* \"#utility.yul\":9488:9490   */\n      0x20\n        /* \"#utility.yul\":9477:9486   */\n      dup4\n        /* \"#utility.yul\":9473:9491   */\n      add\n        /* \"#utility.yul\":9460:9492   */\n      calldataload\n        /* \"#utility.yul\":9519:9537   */\n      0xffffffffffffffff\n        /* \"#utility.yul\":9511:9517   */\n      dup2\n        /* \"#utility.yul\":9508:9538   */\n      gt\n        /* \"#utility.yul\":9505:9622   */\n      iszero\n      tag_419\n      jumpi\n        /* \"#utility.yul\":9541:9620   */\n      tag_420\n      tag_231\n      jump\t// in\n    tag_420:\n        /* \"#utility.yul\":9505:9622   */\n    tag_419:\n        /* \"#utility.yul\":9646:9724   */\n      tag_421\n        /* \"#utility.yul\":9716:9723   */\n      dup6\n        /* \"#utility.yul\":9707:9713   */\n      dup3\n        /* \"#utility.yul\":9696:9705   */\n      dup7\n        /* \"#utility.yul\":9692:9714   */\n      add\n        /* \"#utility.yul\":9646:9724   */\n      tag_261\n      jump\t// in\n    tag_421:\n        /* \"#utility.yul\":9636:9724   */\n      swap2\n      pop\n        /* \"#utility.yul\":9431:9734   */\n      pop\n        /* \"#utility.yul\":9057:9741   */\n      swap3\n      pop\n      swap3\n      swap1\n      pop\n      jump\t// out\n        /* \"#utility.yul\":9747:9863   */\n    tag_262:\n        /* \"#utility.yul\":9817:9838   */\n      tag_423\n        /* \"#utility.yul\":9832:9837   */\n      dup2\n        /* \"#utility.yul\":9817:9838   */\n      tag_245\n      jump\t// in\n    tag_423:\n        /* \"#utility.yul\":9810:9815   */\n      dup2\n        /* \"#utility.yul\":9807:9839   */\n      eq\n        /* \"#utility.yul\":9797:9857   */\n      tag_424\n      jumpi\n        /* \"#utility.yul\":9853:9854   */\n      0x00\n        /* \"#utility.yul\":9850:9851   */\n      dup1\n        /* \"#utility.yul\":9843:9855   */\n      revert\n        /* \"#utility.yul\":9797:9857   */\n    tag_424:\n        /* \"#utility.yul\":9747:9863   */\n      pop\n      jump\t// out\n        /* \"#utility.yul\":9869:10002   */\n    tag_263:\n        /* \"#utility.yul\":9912:9917   */\n      0x00\n        /* \"#utility.yul\":9950:9956   */\n      dup2\n        /* \"#utility.yul\":9937:9957   */\n      calldataload\n        /* \"#utility.yul\":9928:9957   */\n      swap1\n      pop\n        /* \"#utility.yul\":9966:9996   */\n      tag_426\n        /* \"#utility.yul\":9990:9995   */\n      dup2\n        /* \"#utility.yul\":9966:9996   */\n      tag_262\n      jump\t// in\n    tag_426:\n        /* \"#utility.yul\":9869:10002   */\n      swap3\n      swap2\n      pop\n      pop\n      jump\t// out\n        /* \"#utility.yul\":10008:10476   */\n    tag_59:\n        /* \"#utility.yul\":10073:10079   */\n      0x00\n        /* \"#utility.yul\":10081:10087   */\n      dup1\n        /* \"#utility.yul\":10130:10132   */\n      0x40\n        /* \"#utility.yul\":10118:10127   */\n      dup4\n        /* \"#utility.yul\":10109:10116   */\n      dup6\n        /* \"#utility.yul\":10105:10128   */\n      sub\n        /* \"#utility.yul\":10101:10133   */\n      slt\n        /* \"#utility.yul\":10098:10217   */\n      iszero\n      tag_428\n      jumpi\n        /* \"#utility.yul\":10136:10215   */\n      tag_429\n      tag_230\n      jump\t// in\n    tag_429:\n        /* \"#utility.yul\":10098:10217   */\n    tag_428:\n        /* \"#utility.yul\":10256:10257   */\n      0x00\n        /* \"#utility.yul\":10281:10334   */\n      tag_430\n        /* \"#utility.yul\":10326:10333   */\n      dup6\n        /* \"#utility.yul\":10317:10323   */\n      dup3\n        /* \"#utility.yul\":10306:10315   */\n      dup7\n        /* \"#utility.yul\":10302:10324   */\n      add\n        /* \"#utility.yul\":10281:10334   */\n      tag_238\n      jump\t// in\n    tag_430:\n        /* \"#utility.yul\":10271:10334   */\n      swap3\n      pop\n        /* \"#utility.yul\":10227:10344   */\n      pop\n        /* \"#utility.yul\":10383:10385   */\n      0x20\n        /* \"#utility.yul\":10409:10459   */\n      tag_431\n        /* \"#utility.yul\":10451:10458   */\n      dup6\n        /* \"#utility.yul\":10442:10448   */\n      dup3\n        /* \"#utility.yul\":10431:10440   */\n      dup7\n        /* \"#utility.yul\":10427:10449   */\n      add\n        /* \"#utility.yul\":10409:10459   */\n      tag_263\n      jump\t// in\n    tag_431:\n        /* \"#utility.yul\":10399:10459   */\n      swap2\n      pop\n        /* \"#utility.yul\":10354:10469   */\n      pop\n        /* \"#utility.yul\":10008:10476   */\n      swap3\n      pop\n      swap3\n      swap1\n      pop\n      jump\t// out\n        /* \"#utility.yul\":10482:10599   */\n    tag_264:\n        /* \"#utility.yul\":10591:10592   */\n      0x00\n        /* \"#utility.yul\":10588:10589   */\n      dup1\n        /* \"#utility.yul\":10581:10593   */\n      revert\n        /* \"#utility.yul\":10605:10913   */\n    tag_265:\n        /* \"#utility.yul\":10667:10671   */\n      0x00\n        /* \"#utility.yul\":10757:10775   */\n      0xffffffffffffffff\n        /* \"#utility.yul\":10749:10755   */\n      dup3\n        /* \"#utility.yul\":10746:10776   */\n      gt\n        /* \"#utility.yul\":10743:10799   */\n      iszero\n      tag_434\n      jumpi\n        /* \"#utility.yul\":10779:10797   */\n      tag_435\n      tag_255\n      jump\t// in\n    tag_435:\n        /* \"#utility.yul\":10743:10799   */\n    tag_434:\n        /* \"#utility.yul\":10817:10846   */\n      tag_436\n        /* \"#utility.yul\":10839:10845   */\n      dup3\n        /* \"#utility.yul\":10817:10846   */\n      tag_242\n      jump\t// in\n    tag_436:\n        /* \"#utility.yul\":10809:10846   */\n      swap1\n      pop\n        /* \"#utility.yul\":10901:10905   */\n      0x20\n        /* \"#utility.yul\":10895:10899   */\n      dup2\n        /* \"#utility.yul\":10891:10906   */\n      add\n        /* \"#utility.yul\":10883:10906   */\n      swap1\n      pop\n        /* \"#utility.yul\":10605:10913   */\n      swap2\n      swap1\n      pop\n      jump\t// out\n        /* \"#utility.yul\":10919:11067   */\n    tag_266:\n        /* \"#utility.yul\":11017:11023   */\n      dup3\n        /* \"#utility.yul\":11012:11015   */\n      dup2\n        /* \"#utility.yul\":11007:11010   */\n      dup4\n        /* \"#utility.yul\":10994:11024   */\n      calldatacopy\n        /* \"#utility.yul\":11058:11059   */\n      0x00\n        /* \"#utility.yul\":11049:11055   */\n      dup4\n        /* \"#utility.yul\":11044:11047   */\n      dup4\n        /* \"#utility.yul\":11040:11056   */\n      add\n        /* \"#utility.yul\":11033:11060   */\n      mstore\n        /* \"#utility.yul\":10919:11067   */\n      pop\n      pop\n      pop\n      jump\t// out\n        /* \"#utility.yul\":11073:11498   */\n    tag_267:\n        /* \"#utility.yul\":11151:11156   */\n      0x00\n        /* \"#utility.yul\":11176:11242   */\n      tag_439\n        /* \"#utility.yul\":11192:11241   */\n      tag_440\n        /* \"#utility.yul\":11234:11240   */\n      dup5\n        /* \"#utility.yul\":11192:11241   */\n      tag_265\n      jump\t// in\n    tag_440:\n        /* \"#utility.yul\":11176:11242   */\n      tag_257\n      jump\t// in\n    tag_439:\n        /* \"#utility.yul\":11167:11242   */\n      swap1\n      pop\n        /* \"#utility.yul\":11265:11271   */\n      dup3\n        /* \"#utility.yul\":11258:11263   */\n      dup2\n        /* \"#utility.yul\":11251:11272   */\n      mstore\n        /* \"#utility.yul\":11303:11307   */\n      0x20\n        /* \"#utility.yul\":11296:11301   */\n      dup2\n        /* \"#utility.yul\":11292:11308   */\n      add\n        /* \"#utility.yul\":11341:11344   */\n      dup5\n        /* \"#utility.yul\":11332:11338   */\n      dup5\n        /* \"#utility.yul\":11327:11330   */\n      dup5\n        /* \"#utility.yul\":11323:11339   */\n      add\n        /* \"#utility.yul\":11320:11345   */\n      gt\n        /* \"#utility.yul\":11317:11429   */\n      iszero\n      tag_441\n      jumpi\n        /* \"#utility.yul\":11348:11427   */\n      tag_442\n      tag_264\n      jump\t// in\n    tag_442:\n        /* \"#utility.yul\":11317:11429   */\n    tag_441:\n        /* \"#utility.yul\":11438:11492   */\n      tag_443\n        /* \"#utility.yul\":11485:11491   */\n      dup5\n        /* \"#utility.yul\":11480:11483   */\n      dup3\n        /* \"#utility.yul\":11475:11478   */\n      dup6\n        /* \"#utility.yul\":11438:11492   */\n      tag_266\n      jump\t// in\n    tag_443:\n        /* \"#utility.yul\":11157:11498   */\n      pop\n        /* \"#utility.yul\":11073:11498   */\n      swap4\n      swap3\n      pop\n      pop\n      pop\n      jump\t// out\n        /* \"#utility.yul\":11518:11858   */\n    tag_268:\n        /* \"#utility.yul\":11574:11579   */\n      0x00\n        /* \"#utility.yul\":11623:11626   */\n      dup3\n        /* \"#utility.yul\":11616:11620   */\n      0x1f\n        /* \"#utility.yul\":11608:11614   */\n      dup4\n        /* \"#utility.yul\":11604:11621   */\n      add\n        /* \"#utility.yul\":11600:11627   */\n      slt\n        /* \"#utility.yul\":11590:11712   */\n      tag_445\n      jumpi\n        /* \"#utility.yul\":11631:11710   */\n      tag_446\n      tag_254\n      jump\t// in\n    tag_446:\n        /* \"#utility.yul\":11590:11712   */\n    tag_445:\n        /* \"#utility.yul\":11748:11754   */\n      dup2\n        /* \"#utility.yul\":11735:11755   */\n      calldataload\n        /* \"#utility.yul\":11773:11852   */\n      tag_447\n        /* \"#utility.yul\":11848:11851   */\n      dup5\n        /* \"#utility.yul\":11840:11846   */\n      dup3\n        /* \"#utility.yul\":11833:11837   */\n      0x20\n        /* \"#utility.yul\":11825:11831   */\n      dup7\n        /* \"#utility.yul\":11821:11838   */\n      add\n        /* \"#utility.yul\":11773:11852   */\n      tag_267\n      jump\t// in\n    tag_447:\n        /* \"#utility.yul\":11764:11852   */\n      swap2\n      pop\n        /* \"#utility.yul\":11580:11858   */\n      pop\n        /* \"#utility.yul\":11518:11858   */\n      swap3\n      swap2\n      pop\n      pop\n      jump\t// out\n        /* \"#utility.yul\":11864:12698   */\n    tag_64:\n        /* \"#utility.yul\":11952:11958   */\n      0x00\n        /* \"#utility.yul\":11960:11966   */\n      dup1\n        /* \"#utility.yul\":12009:12011   */\n      0x40\n        /* \"#utility.yul\":11997:12006   */\n      dup4\n        /* \"#utility.yul\":11988:11995   */\n      dup6\n        /* \"#utility.yul\":11984:12007   */\n      sub\n        /* \"#utility.yul\":11980:12012   */\n      slt\n        /* \"#utility.yul\":11977:12096   */\n      iszero\n      tag_449\n      jumpi\n        /* \"#utility.yul\":12015:12094   */\n      tag_450\n      tag_230\n      jump\t// in\n    tag_450:\n        /* \"#utility.yul\":11977:12096   */\n    tag_449:\n        /* \"#utility.yul\":12163:12164   */\n      0x00\n        /* \"#utility.yul\":12152:12161   */\n      dup4\n        /* \"#utility.yul\":12148:12165   */\n      add\n        /* \"#utility.yul\":12135:12166   */\n      calldataload\n        /* \"#utility.yul\":12193:12211   */\n      0xffffffffffffffff\n        /* \"#utility.yul\":12185:12191   */\n      dup2\n        /* \"#utility.yul\":12182:12212   */\n      gt\n        /* \"#utility.yul\":12179:12296   */\n      iszero\n      tag_451\n      jumpi\n        /* \"#utility.yul\":12215:12294   */\n      tag_452\n      tag_231\n      jump\t// in\n    tag_452:\n        /* \"#utility.yul\":12179:12296   */\n    tag_451:\n        /* \"#utility.yul\":12320:12383   */\n      tag_453\n        /* \"#utility.yul\":12375:12382   */\n      dup6\n        /* \"#utility.yul\":12366:12372   */\n      dup3\n        /* \"#utility.yul\":12355:12364   */\n      dup7\n        /* \"#utility.yul\":12351:12373   */\n      add\n        /* \"#utility.yul\":12320:12383   */\n      tag_268\n      jump\t// in\n    tag_453:\n        /* \"#utility.yul\":12310:12383   */\n      swap3\n      pop\n        /* \"#utility.yul\":12106:12393   */\n      pop\n        /* \"#utility.yul\":12460:12462   */\n      0x20\n        /* \"#utility.yul\":12449:12458   */\n      dup4\n        /* \"#utility.yul\":12445:12463   */\n      add\n        /* \"#utility.yul\":12432:12464   */\n      calldataload\n        /* \"#utility.yul\":12491:12509   */\n      0xffffffffffffffff\n        /* \"#utility.yul\":12483:12489   */\n      dup2\n        /* \"#utility.yul\":12480:12510   */\n      gt\n        /* \"#utility.yul\":12477:12594   */\n      iszero\n      tag_454\n      jumpi\n        /* \"#utility.yul\":12513:12592   */\n      tag_455\n      tag_231\n      jump\t// in\n    tag_455:\n        /* \"#utility.yul\":12477:12594   */\n    tag_454:\n        /* \"#utility.yul\":12618:12681   */\n      tag_456\n        /* \"#utility.yul\":12673:12680   */\n      dup6\n        /* \"#utility.yul\":12664:12670   */\n      dup3\n        /* \"#utility.yul\":12653:12662   */\n      dup7\n        /* \"#utility.yul\":12649:12671   */\n      add\n        /* \"#utility.yul\":12618:12681   */\n      tag_268\n      jump\t// in\n    tag_456:\n        /* \"#utility.yul\":12608:12681   */\n      swap2\n      pop\n        /* \"#utility.yul\":12403:12691   */\n      pop\n        /* \"#utility.yul\":11864:12698   */\n      swap3\n      pop\n      swap3\n      swap1\n      pop\n      jump\t// out\n        /* \"#utility.yul\":12704:13503   */\n    tag_69:\n        /* \"#utility.yul\":12791:12797   */\n      0x00\n        /* \"#utility.yul\":12799:12805   */\n      dup1\n        /* \"#utility.yul\":12807:12813   */\n      0x00\n        /* \"#utility.yul\":12856:12858   */\n      0x60\n        /* \"#utility.yul\":12844:12853   */\n      dup5\n        /* \"#utility.yul\":12835:12842   */\n      dup7\n        /* \"#utility.yul\":12831:12854   */\n      sub\n        /* \"#utility.yul\":12827:12859   */\n      slt\n        /* \"#utility.yul\":12824:12943   */\n      iszero\n      tag_458\n      jumpi\n        /* \"#utility.yul\":12862:12941   */\n      tag_459\n      tag_230\n      jump\t// in\n    tag_459:\n        /* \"#utility.yul\":12824:12943   */\n    tag_458:\n        /* \"#utility.yul\":12982:12983   */\n      0x00\n        /* \"#utility.yul\":13007:13060   */\n      tag_460\n        /* \"#utility.yul\":13052:13059   */\n      dup7\n        /* \"#utility.yul\":13043:13049   */\n      dup3\n        /* \"#utility.yul\":13032:13041   */\n      dup8\n        /* \"#utility.yul\":13028:13050   */\n      add\n        /* \"#utility.yul\":13007:13060   */\n      tag_238\n      jump\t// in\n    tag_460:\n        /* \"#utility.yul\":12997:13060   */\n      swap4\n      pop\n        /* \"#utility.yul\":12953:13070   */\n      pop\n        /* \"#utility.yul\":13137:13139   */\n      0x20\n        /* \"#utility.yul\":13126:13135   */\n      dup5\n        /* \"#utility.yul\":13122:13140   */\n      add\n        /* \"#utility.yul\":13109:13141   */\n      calldataload\n        /* \"#utility.yul\":13168:13186   */\n      0xffffffffffffffff\n        /* \"#utility.yul\":13160:13166   */\n      dup2\n        /* \"#utility.yul\":13157:13187   */\n      gt\n        /* \"#utility.yul\":13154:13271   */\n      iszero\n      tag_461\n      jumpi\n        /* \"#utility.yul\":13190:13269   */\n      tag_462\n      tag_231\n      jump\t// in\n    tag_462:\n        /* \"#utility.yul\":13154:13271   */\n    tag_461:\n        /* \"#utility.yul\":13295:13358   */\n      tag_463\n        /* \"#utility.yul\":13350:13357   */\n      dup7\n        /* \"#utility.yul\":13341:13347   */\n      dup3\n        /* \"#utility.yul\":13330:13339   */\n      dup8\n        /* \"#utility.yul\":13326:13348   */\n      add\n        /* \"#utility.yul\":13295:13358   */\n      tag_268\n      jump\t// in\n    tag_463:\n        /* \"#utility.yul\":13285:13358   */\n      swap3\n      pop\n        /* \"#utility.yul\":13080:13368   */\n      pop\n        /* \"#utility.yul\":13407:13409   */\n      0x40\n        /* \"#utility.yul\":13433:13486   */\n      tag_464\n        /* \"#utility.yul\":13478:13485   */\n      dup7\n        /* \"#utility.yul\":13469:13475   */\n      dup3\n        /* \"#utility.yul\":13458:13467   */\n      dup8\n        /* \"#utility.yul\":13454:13476   */\n      add\n        /* \"#utility.yul\":13433:13486   */\n      tag_238\n      jump\t// in\n    tag_464:\n        /* \"#utility.yul\":13423:13486   */\n      swap2\n      pop\n        /* \"#utility.yul\":13378:13496   */\n      pop\n        /* \"#utility.yul\":12704:13503   */\n      swap3\n      pop\n      swap3\n      pop\n      swap3\n      jump\t// out\n        /* \"#utility.yul\":13509:13838   */\n    tag_74:\n        /* \"#utility.yul\":13568:13574   */\n      0x00\n        /* \"#utility.yul\":13617:13619   */\n      0x20\n        /* \"#utility.yul\":13605:13614   */\n      dup3\n        /* \"#utility.yul\":13596:13603   */\n      dup5\n        /* \"#utility.yul\":13592:13615   */\n      sub\n        /* \"#utility.yul\":13588:13620   */\n      slt\n        /* \"#utility.yul\":13585:13704   */\n      iszero\n      tag_466\n      jumpi\n        /* \"#utility.yul\":13623:13702   */\n      tag_467\n      tag_230\n      jump\t// in\n    tag_467:\n        /* \"#utility.yul\":13585:13704   */\n    tag_466:\n        /* \"#utility.yul\":13743:13744   */\n      0x00\n        /* \"#utility.yul\":13768:13821   */\n      tag_468\n        /* \"#utility.yul\":13813:13820   */\n      dup5\n        /* \"#utility.yul\":13804:13810   */\n      dup3\n        /* \"#utility.yul\":13793:13802   */\n      dup6\n        /* \"#utility.yul\":13789:13811   */\n      add\n        /* \"#utility.yul\":13768:13821   */\n      tag_238\n      jump\t// in\n    tag_468:\n        /* \"#utility.yul\":13758:13821   */\n      swap2\n      pop\n        /* \"#utility.yul\":13714:13831   */\n      pop\n        /* \"#utility.yul\":13509:13838   */\n      swap3\n      swap2\n      pop\n      pop\n      jump\t// out\n        /* \"#utility.yul\":13844:13962   */\n    tag_269:\n        /* \"#utility.yul\":13931:13955   */\n      tag_470\n        /* \"#utility.yul\":13949:13954   */\n      dup2\n        /* \"#utility.yul\":13931:13955   */\n      tag_233\n      jump\t// in\n    tag_470:\n        /* \"#utility.yul\":13926:13929   */\n      dup3\n        /* \"#utility.yul\":13919:13956   */\n      mstore\n        /* \"#utility.yul\":13844:13962   */\n      pop\n      pop\n      jump\t// out\n        /* \"#utility.yul\":13968:14148   */\n    tag_156:\n        /* \"#utility.yul\":14016:14093   */\n      0x4e487b7100000000000000000000000000000000000000000000000000000000\n        /* \"#utility.yul\":14013:14014   */\n      0x00\n        /* \"#utility.yul\":14006:14094   */\n      mstore\n        /* \"#utility.yul\":14113:14117   */\n      0x21\n        /* \"#utility.yul\":14110:14111   */\n      0x04\n        /* \"#utility.yul\":14103:14118   */\n      mstore\n        /* \"#utility.yul\":14137:14141   */\n      0x24\n        /* \"#utility.yul\":14134:14135   */\n      0x00\n        /* \"#utility.yul\":14127:14142   */\n      revert\n        /* \"#utility.yul\":14154:14273   */\n    tag_270:\n        /* \"#utility.yul\":14241:14242   */\n      0x04\n        /* \"#utility.yul\":14234:14239   */\n      dup2\n        /* \"#utility.yul\":14231:14243   */\n      lt\n        /* \"#utility.yul\":14221:14267   */\n      tag_473\n      jumpi\n        /* \"#utility.yul\":14247:14265   */\n      tag_474\n      tag_156\n      jump\t// in\n    tag_474:\n        /* \"#utility.yul\":14221:14267   */\n    tag_473:\n        /* \"#utility.yul\":14154:14273   */\n      pop\n      jump\t// out\n        /* \"#utility.yul\":14279:14418   */\n    tag_271:\n        /* \"#utility.yul\":14330:14337   */\n      0x00\n        /* \"#utility.yul\":14359:14364   */\n      dup2\n        /* \"#utility.yul\":14348:14364   */\n      swap1\n      pop\n        /* \"#utility.yul\":14365:14412   */\n      tag_476\n        /* \"#utility.yul\":14406:14411   */\n      dup3\n        /* \"#utility.yul\":14365:14412   */\n      tag_270\n      jump\t// in\n    tag_476:\n        /* \"#utility.yul\":14279:14418   */\n      swap2\n      swap1\n      pop\n      jump\t// out\n        /* \"#utility.yul\":14424:14563   */\n    tag_272:\n        /* \"#utility.yul\":14486:14495   */\n      0x00\n        /* \"#utility.yul\":14519:14557   */\n      tag_478\n        /* \"#utility.yul\":14551:14556   */\n      dup3\n        /* \"#utility.yul\":14519:14557   */\n      tag_271\n      jump\t// in\n    tag_478:\n        /* \"#utility.yul\":14506:14557   */\n      swap1\n      pop\n        /* \"#utility.yul\":14424:14563   */\n      swap2\n      swap1\n      pop\n      jump\t// out\n        /* \"#utility.yul\":14569:14724   */\n    tag_273:\n        /* \"#utility.yul\":14668:14717   */\n      tag_480\n        /* \"#utility.yul\":14711:14716   */\n      dup2\n        /* \"#utility.yul\":14668:14717   */\n      tag_272\n      jump\t// in\n    tag_480:\n        /* \"#utility.yul\":14663:14666   */\n      dup3\n        /* \"#utility.yul\":14656:14718   */\n      mstore\n        /* \"#utility.yul\":14569:14724   */\n      pop\n      pop\n      jump\t// out\n        /* \"#utility.yul\":14730:15529   */\n    tag_77:\n        /* \"#utility.yul\":14975:14979   */\n      0x00\n        /* \"#utility.yul\":15013:15016   */\n      0xc0\n        /* \"#utility.yul\":15002:15011   */\n      dup3\n        /* \"#utility.yul\":14998:15017   */\n      add\n        /* \"#utility.yul\":14990:15017   */\n      swap1\n      pop\n        /* \"#utility.yul\":15027:15098   */\n      tag_482\n        /* \"#utility.yul\":15095:15096   */\n      0x00\n        /* \"#utility.yul\":15084:15093   */\n      dup4\n        /* \"#utility.yul\":15080:15097   */\n      add\n        /* \"#utility.yul\":15071:15077   */\n      dup10\n        /* \"#utility.yul\":15027:15098   */\n      tag_244\n      jump\t// in\n    tag_482:\n        /* \"#utility.yul\":15108:15180   */\n      tag_483\n        /* \"#utility.yul\":15176:15178   */\n      0x20\n        /* \"#utility.yul\":15165:15174   */\n      dup4\n        /* \"#utility.yul\":15161:15179   */\n      add\n        /* \"#utility.yul\":15152:15158   */\n      dup9\n        /* \"#utility.yul\":15108:15180   */\n      tag_269\n      jump\t// in\n    tag_483:\n        /* \"#utility.yul\":15190:15262   */\n      tag_484\n        /* \"#utility.yul\":15258:15260   */\n      0x40\n        /* \"#utility.yul\":15247:15256   */\n      dup4\n        /* \"#utility.yul\":15243:15261   */\n      add\n        /* \"#utility.yul\":15234:15240   */\n      dup8\n        /* \"#utility.yul\":15190:15262   */\n      tag_244\n      jump\t// in\n    tag_484:\n        /* \"#utility.yul\":15272:15356   */\n      tag_485\n        /* \"#utility.yul\":15352:15354   */\n      0x60\n        /* \"#utility.yul\":15341:15350   */\n      dup4\n        /* \"#utility.yul\":15337:15355   */\n      add\n        /* \"#utility.yul\":15328:15334   */\n      dup7\n        /* \"#utility.yul\":15272:15356   */\n      tag_273\n      jump\t// in\n    tag_485:\n        /* \"#utility.yul\":15366:15439   */\n      tag_486\n        /* \"#utility.yul\":15434:15437   */\n      0x80\n        /* \"#utility.yul\":15423:15432   */\n      dup4\n        /* \"#utility.yul\":15419:15438   */\n      add\n        /* \"#utility.yul\":15410:15416   */\n      dup6\n        /* \"#utility.yul\":15366:15439   */\n      tag_269\n      jump\t// in\n    tag_486:\n        /* \"#utility.yul\":15449:15522   */\n      tag_487\n        /* \"#utility.yul\":15517:15520   */\n      0xa0\n        /* \"#utility.yul\":15506:15515   */\n      dup4\n        /* \"#utility.yul\":15502:15521   */\n      add\n        /* \"#utility.yul\":15493:15499   */\n      dup5\n        /* \"#utility.yul\":15449:15522   */\n      tag_244\n      jump\t// in\n    tag_487:\n        /* \"#utility.yul\":14730:15529   */\n      swap8\n      swap7\n      pop\n      pop\n      pop\n      pop\n      pop\n      pop\n      pop\n      jump\t// out\n        /* \"#utility.yul\":15535:15648   */\n    tag_274:\n        /* \"#utility.yul\":15622:15623   */\n      0x04\n        /* \"#utility.yul\":15615:15620   */\n      dup2\n        /* \"#utility.yul\":15612:15624   */\n      lt\n        /* \"#utility.yul\":15602:15642   */\n      tag_489\n      jumpi\n        /* \"#utility.yul\":15638:15639   */\n      0x00\n        /* \"#utility.yul\":15635:15636   */\n      dup1\n        /* \"#utility.yul\":15628:15640   */\n      revert\n        /* \"#utility.yul\":15602:15642   */\n    tag_489:\n        /* \"#utility.yul\":15535:15648   */\n      pop\n      jump\t// out\n        /* \"#utility.yul\":15654:15821   */\n    tag_275:\n        /* \"#utility.yul\":15714:15719   */\n      0x00\n        /* \"#utility.yul\":15752:15758   */\n      dup2\n        /* \"#utility.yul\":15739:15759   */\n      calldataload\n        /* \"#utility.yul\":15730:15759   */\n      swap1\n      pop\n        /* \"#utility.yul\":15768:15815   */\n      tag_491\n        /* \"#utility.yul\":15809:15814   */\n      dup2\n        /* \"#utility.yul\":15768:15815   */\n      tag_274\n      jump\t// in\n    tag_491:\n        /* \"#utility.yul\":15654:15821   */\n      swap3\n      swap2\n      pop\n      pop\n      jump\t// out\n        /* \"#utility.yul\":15827:16329   */\n    tag_81:\n        /* \"#utility.yul\":15909:15915   */\n      0x00\n        /* \"#utility.yul\":15917:15923   */\n      dup1\n        /* \"#utility.yul\":15966:15968   */\n      0x40\n        /* \"#utility.yul\":15954:15963   */\n      dup4\n        /* \"#utility.yul\":15945:15952   */\n      dup6\n        /* \"#utility.yul\":15941:15964   */\n      sub\n        /* \"#utility.yul\":15937:15969   */\n      slt\n        /* \"#utility.yul\":15934:16053   */\n      iszero\n      tag_493\n      jumpi\n        /* \"#utility.yul\":15972:16051   */\n      tag_494\n      tag_230\n      jump\t// in\n    tag_494:\n        /* \"#utility.yul\":15934:16053   */\n    tag_493:\n        /* \"#utility.yul\":16092:16093   */\n      0x00\n        /* \"#utility.yul\":16117:16170   */\n      tag_495\n        /* \"#utility.yul\":16162:16169   */\n      dup6\n        /* \"#utility.yul\":16153:16159   */\n      dup3\n        /* \"#utility.yul\":16142:16151   */\n      dup7\n        /* \"#utility.yul\":16138:16160   */\n      add\n        /* \"#utility.yul\":16117:16170   */\n      tag_238\n      jump\t// in\n    tag_495:\n        /* \"#utility.yul\":16107:16170   */\n      swap3\n      pop\n        /* \"#utility.yul\":16063:16180   */\n      pop\n        /* \"#utility.yul\":16219:16221   */\n      0x20\n        /* \"#utility.yul\":16245:16312   */\n      tag_496\n        /* \"#utility.yul\":16304:16311   */\n      dup6\n        /* \"#utility.yul\":16295:16301   */\n      dup3\n        /* \"#utility.yul\":16284:16293   */\n      dup7\n        /* \"#utility.yul\":16280:16302   */\n      add\n        /* \"#utility.yul\":16245:16312   */\n      tag_275\n      jump\t// in\n    tag_496:\n        /* \"#utility.yul\":16235:16312   */\n      swap2\n      pop\n        /* \"#utility.yul\":16190:16322   */\n      pop\n        /* \"#utility.yul\":15827:16329   */\n      swap3\n      pop\n      swap3\n      swap1\n      pop\n      jump\t// out\n        /* \"#utility.yul\":16335:16443   */\n    tag_276:\n        /* \"#utility.yul\":16412:16436   */\n      tag_498\n        /* \"#utility.yul\":16430:16435   */\n      dup2\n        /* \"#utility.yul\":16412:16436   */\n      tag_233\n      jump\t// in\n    tag_498:\n        /* \"#utility.yul\":16407:16410   */\n      dup3\n        /* \"#utility.yul\":16400:16437   */\n      mstore\n        /* \"#utility.yul\":16335:16443   */\n      pop\n      pop\n      jump\t// out\n        /* \"#utility.yul\":16449:16623   */\n    tag_277:\n        /* \"#utility.yul\":16538:16549   */\n      0x00\n        /* \"#utility.yul\":16572:16578   */\n      dup3\n        /* \"#utility.yul\":16567:16570   */\n      dup3\n        /* \"#utility.yul\":16560:16579   */\n      mstore\n        /* \"#utility.yul\":16612:16616   */\n      0x20\n        /* \"#utility.yul\":16607:16610   */\n      dup3\n        /* \"#utility.yul\":16603:16617   */\n      add\n        /* \"#utility.yul\":16588:16617   */\n      swap1\n      pop\n        /* \"#utility.yul\":16449:16623   */\n      swap3\n      swap2\n      pop\n      pop\n      jump\t// out\n        /* \"#utility.yul\":16659:17371   */\n    tag_278:\n        /* \"#utility.yul\":16768:16771   */\n      0x00\n        /* \"#utility.yul\":16797:16851   */\n      tag_501\n        /* \"#utility.yul\":16845:16850   */\n      dup3\n        /* \"#utility.yul\":16797:16851   */\n      tag_247\n      jump\t// in\n    tag_501:\n        /* \"#utility.yul\":16867:16943   */\n      tag_502\n        /* \"#utility.yul\":16936:16942   */\n      dup2\n        /* \"#utility.yul\":16931:16934   */\n      dup6\n        /* \"#utility.yul\":16867:16943   */\n      tag_277\n      jump\t// in\n    tag_502:\n        /* \"#utility.yul\":16860:16943   */\n      swap4\n      pop\n        /* \"#utility.yul\":16967:17023   */\n      tag_503\n        /* \"#utility.yul\":17017:17022   */\n      dup4\n        /* \"#utility.yul\":16967:17023   */\n      tag_249\n      jump\t// in\n    tag_503:\n        /* \"#utility.yul\":17046:17053   */\n      dup1\n        /* \"#utility.yul\":17077:17078   */\n      0x00\n        /* \"#utility.yul\":17062:17346   */\n    tag_504:\n        /* \"#utility.yul\":17087:17093   */\n      dup4\n        /* \"#utility.yul\":17084:17085   */\n      dup2\n        /* \"#utility.yul\":17081:17094   */\n      lt\n        /* \"#utility.yul\":17062:17346   */\n      iszero\n      tag_506\n      jumpi\n        /* \"#utility.yul\":17163:17169   */\n      dup2\n        /* \"#utility.yul\":17157:17170   */\n      mload\n        /* \"#utility.yul\":17190:17253   */\n      tag_507\n        /* \"#utility.yul\":17249:17252   */\n      dup9\n        /* \"#utility.yul\":17234:17247   */\n      dup3\n        /* \"#utility.yul\":17190:17253   */\n      tag_251\n      jump\t// in\n    tag_507:\n        /* \"#utility.yul\":17183:17253   */\n      swap8\n      pop\n        /* \"#utility.yul\":17276:17336   */\n      tag_508\n        /* \"#utility.yul\":17329:17335   */\n      dup4\n        /* \"#utility.yul\":17276:17336   */\n      tag_252\n      jump\t// in\n    tag_508:\n        /* \"#utility.yul\":17266:17336   */\n      swap3\n      pop\n        /* \"#utility.yul\":17122:17346   */\n      pop\n        /* \"#utility.yul\":17109:17110   */\n      0x01\n        /* \"#utility.yul\":17106:17107   */\n      dup2\n        /* \"#utility.yul\":17102:17111   */\n      add\n        /* \"#utility.yul\":17097:17111   */\n      swap1\n      pop\n        /* \"#utility.yul\":17062:17346   */\n      jump(tag_504)\n    tag_506:\n        /* \"#utility.yul\":17066:17080   */\n      pop\n        /* \"#utility.yul\":17362:17365   */\n      dup6\n        /* \"#utility.yul\":17355:17365   */\n      swap4\n      pop\n        /* \"#utility.yul\":16773:17371   */\n      pop\n      pop\n      pop\n        /* \"#utility.yul\":16659:17371   */\n      swap3\n      swap2\n      pop\n      pop\n      jump\t// out\n        /* \"#utility.yul\":17377:17522   */\n    tag_279:\n        /* \"#utility.yul\":17466:17515   */\n      tag_510\n        /* \"#utility.yul\":17509:17514   */\n      dup2\n        /* \"#utility.yul\":17466:17515   */\n      tag_272\n      jump\t// in\n    tag_510:\n        /* \"#utility.yul\":17461:17464   */\n      dup3\n        /* \"#utility.yul\":17454:17516   */\n      mstore\n        /* \"#utility.yul\":17377:17522   */\n      pop\n      pop\n      jump\t// out\n        /* \"#utility.yul\":17590:19131   */\n    tag_280:\n        /* \"#utility.yul\":17701:17704   */\n      0x00\n        /* \"#utility.yul\":17737:17741   */\n      0xe0\n        /* \"#utility.yul\":17732:17735   */\n      dup4\n        /* \"#utility.yul\":17728:17742   */\n      add\n        /* \"#utility.yul\":17827:17831   */\n      0x00\n        /* \"#utility.yul\":17820:17825   */\n      dup4\n        /* \"#utility.yul\":17816:17832   */\n      add\n        /* \"#utility.yul\":17810:17833   */\n      mload\n        /* \"#utility.yul\":17846:17909   */\n      tag_512\n        /* \"#utility.yul\":17903:17907   */\n      0x00\n        /* \"#utility.yul\":17898:17901   */\n      dup7\n        /* \"#utility.yul\":17894:17908   */\n      add\n        /* \"#utility.yul\":17880:17892   */\n      dup3\n        /* \"#utility.yul\":17846:17909   */\n      tag_250\n      jump\t// in\n    tag_512:\n        /* \"#utility.yul\":17752:17919   */\n      pop\n        /* \"#utility.yul\":18005:18009   */\n      0x20\n        /* \"#utility.yul\":17998:18003   */\n      dup4\n        /* \"#utility.yul\":17994:18010   */\n      add\n        /* \"#utility.yul\":17988:18011   */\n      mload\n        /* \"#utility.yul\":18024:18087   */\n      tag_513\n        /* \"#utility.yul\":18081:18085   */\n      0x20\n        /* \"#utility.yul\":18076:18079   */\n      dup7\n        /* \"#utility.yul\":18072:18086   */\n      add\n        /* \"#utility.yul\":18058:18070   */\n      dup3\n        /* \"#utility.yul\":18024:18087   */\n      tag_276\n      jump\t// in\n    tag_513:\n        /* \"#utility.yul\":17929:18097   */\n      pop\n        /* \"#utility.yul\":18186:18190   */\n      0x40\n        /* \"#utility.yul\":18179:18184   */\n      dup4\n        /* \"#utility.yul\":18175:18191   */\n      add\n        /* \"#utility.yul\":18169:18192   */\n      mload\n        /* \"#utility.yul\":18205:18268   */\n      tag_514\n        /* \"#utility.yul\":18262:18266   */\n      0x40\n        /* \"#utility.yul\":18257:18260   */\n      dup7\n        /* \"#utility.yul\":18253:18267   */\n      add\n        /* \"#utility.yul\":18239:18251   */\n      dup3\n        /* \"#utility.yul\":18205:18268   */\n      tag_250\n      jump\t// in\n    tag_514:\n        /* \"#utility.yul\":18107:18278   */\n      pop\n        /* \"#utility.yul\":18364:18368   */\n      0x60\n        /* \"#utility.yul\":18357:18362   */\n      dup4\n        /* \"#utility.yul\":18353:18369   */\n      add\n        /* \"#utility.yul\":18347:18370   */\n      mload\n        /* \"#utility.yul\":18417:18420   */\n      dup5\n        /* \"#utility.yul\":18411:18415   */\n      dup3\n        /* \"#utility.yul\":18407:18421   */\n      sub\n        /* \"#utility.yul\":18400:18404   */\n      0x60\n        /* \"#utility.yul\":18395:18398   */\n      dup7\n        /* \"#utility.yul\":18391:18405   */\n      add\n        /* \"#utility.yul\":18384:18422   */\n      mstore\n        /* \"#utility.yul\":18443:18546   */\n      tag_515\n        /* \"#utility.yul\":18541:18545   */\n      dup3\n        /* \"#utility.yul\":18527:18539   */\n      dup3\n        /* \"#utility.yul\":18443:18546   */\n      tag_278\n      jump\t// in\n    tag_515:\n        /* \"#utility.yul\":18435:18546   */\n      swap2\n      pop\n        /* \"#utility.yul\":18288:18557   */\n      pop\n        /* \"#utility.yul\":18641:18645   */\n      0x80\n        /* \"#utility.yul\":18634:18639   */\n      dup4\n        /* \"#utility.yul\":18630:18646   */\n      add\n        /* \"#utility.yul\":18624:18647   */\n      mload\n        /* \"#utility.yul\":18660:18735   */\n      tag_516\n        /* \"#utility.yul\":18729:18733   */\n      0x80\n        /* \"#utility.yul\":18724:18727   */\n      dup7\n        /* \"#utility.yul\":18720:18734   */\n      add\n        /* \"#utility.yul\":18706:18718   */\n      dup3\n        /* \"#utility.yul\":18660:18735   */\n      tag_279\n      jump\t// in\n    tag_516:\n        /* \"#utility.yul\":18567:18745   */\n      pop\n        /* \"#utility.yul\":18833:18837   */\n      0xa0\n        /* \"#utility.yul\":18826:18831   */\n      dup4\n        /* \"#utility.yul\":18822:18838   */\n      add\n        /* \"#utility.yul\":18816:18839   */\n      mload\n        /* \"#utility.yul\":18852:18915   */\n      tag_517\n        /* \"#utility.yul\":18909:18913   */\n      0xa0\n        /* \"#utility.yul\":18904:18907   */\n      dup7\n        /* \"#utility.yul\":18900:18914   */\n      add\n        /* \"#utility.yul\":18886:18898   */\n      dup3\n        /* \"#utility.yul\":18852:18915   */\n      tag_276\n      jump\t// in\n    tag_517:\n        /* \"#utility.yul\":18755:18925   */\n      pop\n        /* \"#utility.yul\":19012:19016   */\n      0xc0\n        /* \"#utility.yul\":19005:19010   */\n      dup4\n        /* \"#utility.yul\":19001:19017   */\n      add\n        /* \"#utility.yul\":18995:19018   */\n      mload\n        /* \"#utility.yul\":19031:19094   */\n      tag_518\n        /* \"#utility.yul\":19088:19092   */\n      0xc0\n        /* \"#utility.yul\":19083:19086   */\n      dup7\n        /* \"#utility.yul\":19079:19093   */\n      add\n        /* \"#utility.yul\":19065:19077   */\n      dup3\n        /* \"#utility.yul\":19031:19094   */\n      tag_250\n      jump\t// in\n    tag_518:\n        /* \"#utility.yul\":18935:19104   */\n      pop\n        /* \"#utility.yul\":19121:19125   */\n      dup1\n        /* \"#utility.yul\":19114:19125   */\n      swap2\n      pop\n        /* \"#utility.yul\":17706:19131   */\n      pop\n        /* \"#utility.yul\":17590:19131   */\n      swap3\n      swap2\n      pop\n      pop\n      jump\t// out\n        /* \"#utility.yul\":19137:19494   */\n    tag_93:\n        /* \"#utility.yul\":19272:19276   */\n      0x00\n        /* \"#utility.yul\":19310:19312   */\n      0x20\n        /* \"#utility.yul\":19299:19308   */\n      dup3\n        /* \"#utility.yul\":19295:19313   */\n      add\n        /* \"#utility.yul\":19287:19313   */\n      swap1\n      pop\n        /* \"#utility.yul\":19359:19368   */\n      dup2\n        /* \"#utility.yul\":19353:19357   */\n      dup2\n        /* \"#utility.yul\":19349:19369   */\n      sub\n        /* \"#utility.yul\":19345:19346   */\n      0x00\n        /* \"#utility.yul\":19334:19343   */\n      dup4\n        /* \"#utility.yul\":19330:19347   */\n      add\n        /* \"#utility.yul\":19323:19370   */\n      mstore\n        /* \"#utility.yul\":19387:19487   */\n      tag_520\n        /* \"#utility.yul\":19482:19486   */\n      dup2\n        /* \"#utility.yul\":19473:19479   */\n      dup5\n        /* \"#utility.yul\":19387:19487   */\n      tag_280\n      jump\t// in\n    tag_520:\n        /* \"#utility.yul\":19379:19487   */\n      swap1\n      pop\n        /* \"#utility.yul\":19137:19494   */\n      swap3\n      swap2\n      pop\n      pop\n      jump\t// out\n        /* \"#utility.yul\":19500:19680   */\n    tag_281:\n        /* \"#utility.yul\":19548:19625   */\n      0x4e487b7100000000000000000000000000000000000000000000000000000000\n        /* \"#utility.yul\":19545:19546   */\n      0x00\n        /* \"#utility.yul\":19538:19626   */\n      mstore\n        /* \"#utility.yul\":19645:19649   */\n      0x22\n        /* \"#utility.yul\":19642:19643   */\n      0x04\n        /* \"#utility.yul\":19635:19650   */\n      mstore\n        /* \"#utility.yul\":19669:19673   */\n      0x24\n        /* \"#utility.yul\":19666:19667   */\n      0x00\n        /* \"#utility.yul\":19659:19674   */\n      revert\n        /* \"#utility.yul\":19686:20006   */\n    tag_95:\n        /* \"#utility.yul\":19730:19736   */\n      0x00\n        /* \"#utility.yul\":19767:19768   */\n      0x02\n        /* \"#utility.yul\":19761:19765   */\n      dup3\n        /* \"#utility.yul\":19757:19769   */\n      div\n        /* \"#utility.yul\":19747:19769   */\n      swap1\n      pop\n        /* \"#utility.yul\":19814:19815   */\n      0x01\n        /* \"#utility.yul\":19808:19812   */\n      dup3\n        /* \"#utility.yul\":19804:19816   */\n      and\n        /* \"#utility.yul\":19835:19853   */\n      dup1\n        /* \"#utility.yul\":19825:19906   */\n      tag_523\n      jumpi\n        /* \"#utility.yul\":19891:19895   */\n      0x7f\n        /* \"#utility.yul\":19883:19889   */\n      dup3\n        /* \"#utility.yul\":19879:19896   */\n      and\n        /* \"#utility.yul\":19869:19896   */\n      swap2\n      pop\n        /* \"#utility.yul\":19825:19906   */\n    tag_523:\n        /* \"#utility.yul\":19953:19955   */\n      0x20\n        /* \"#utility.yul\":19945:19951   */\n      dup3\n        /* \"#utility.yul\":19942:19956   */\n      lt\n        /* \"#utility.yul\":19922:19940   */\n      dup2\n        /* \"#utility.yul\":19919:19957   */\n      sub\n        /* \"#utility.yul\":19916:20000   */\n      tag_524\n      jumpi\n        /* \"#utility.yul\":19972:19990   */\n      tag_525\n      tag_281\n      jump\t// in\n    tag_525:\n        /* \"#utility.yul\":19916:20000   */\n    tag_524:\n        /* \"#utility.yul\":19737:20006   */\n      pop\n        /* \"#utility.yul\":19686:20006   */\n      swap2\n      swap1\n      pop\n      jump\t// out\n        /* \"#utility.yul\":20012:20251   */\n    tag_282:\n        /* \"#utility.yul\":20152:20186   */\n      0x4f6e6c7920726567697374657265642072657374617572616e74732063616e20\n        /* \"#utility.yul\":20148:20149   */\n      0x00\n        /* \"#utility.yul\":20140:20146   */\n      dup3\n        /* \"#utility.yul\":20136:20150   */\n      add\n        /* \"#utility.yul\":20129:20187   */\n      mstore\n        /* \"#utility.yul\":20221:20243   */\n      0x706572666f726d207468697320616374696f6e2e000000000000000000000000\n        /* \"#utility.yul\":20216:20218   */\n      0x20\n        /* \"#utility.yul\":20208:20214   */\n      dup3\n        /* \"#utility.yul\":20204:20219   */\n      add\n        /* \"#utility.yul\":20197:20244   */\n      mstore\n        /* \"#utility.yul\":20012:20251   */\n      pop\n      jump\t// out\n        /* \"#utility.yul\":20257:20623   */\n    tag_283:\n        /* \"#utility.yul\":20399:20402   */\n      0x00\n        /* \"#utility.yul\":20420:20487   */\n      tag_528\n        /* \"#utility.yul\":20484:20486   */\n      0x34\n        /* \"#utility.yul\":20479:20482   */\n      dup4\n        /* \"#utility.yul\":20420:20487   */\n      tag_240\n      jump\t// in\n    tag_528:\n        /* \"#utility.yul\":20413:20487   */\n      swap2\n      pop\n        /* \"#utility.yul\":20496:20589   */\n      tag_529\n        /* \"#utility.yul\":20585:20588   */\n      dup3\n        /* \"#utility.yul\":20496:20589   */\n      tag_282\n      jump\t// in\n    tag_529:\n        /* \"#utility.yul\":20614:20616   */\n      0x40\n        /* \"#utility.yul\":20609:20612   */\n      dup3\n        /* \"#utility.yul\":20605:20617   */\n      add\n        /* \"#utility.yul\":20598:20617   */\n      swap1\n      pop\n        /* \"#utility.yul\":20257:20623   */\n      swap2\n      swap1\n      pop\n      jump\t// out\n        /* \"#utility.yul\":20629:21048   */\n    tag_118:\n        /* \"#utility.yul\":20795:20799   */\n      0x00\n        /* \"#utility.yul\":20833:20835   */\n      0x20\n        /* \"#utility.yul\":20822:20831   */\n      dup3\n        /* \"#utility.yul\":20818:20836   */\n      add\n        /* \"#utility.yul\":20810:20836   */\n      swap1\n      pop\n        /* \"#utility.yul\":20882:20891   */\n      dup2\n        /* \"#utility.yul\":20876:20880   */\n      dup2\n        /* \"#utility.yul\":20872:20892   */\n      sub\n        /* \"#utility.yul\":20868:20869   */\n      0x00\n        /* \"#utility.yul\":20857:20866   */\n      dup4\n        /* \"#utility.yul\":20853:20870   */\n      add\n        /* \"#utility.yul\":20846:20893   */\n      mstore\n        /* \"#utility.yul\":20910:21041   */\n      tag_531\n        /* \"#utility.yul\":21036:21040   */\n      dup2\n        /* \"#utility.yul\":20910:21041   */\n      tag_283\n      jump\t// in\n    tag_531:\n        /* \"#utility.yul\":20902:21041   */\n      swap1\n      pop\n        /* \"#utility.yul\":20629:21048   */\n      swap2\n      swap1\n      pop\n      jump\t// out\n        /* \"#utility.yul\":21054:21224   */\n    tag_284:\n        /* \"#utility.yul\":21194:21216   */\n      0x4e6f2066756e647320746f207769746864726177000000000000000000000000\n        /* \"#utility.yul\":21190:21191   */\n      0x00\n        /* \"#utility.yul\":21182:21188   */\n      dup3\n        /* \"#utility.yul\":21178:21192   */\n      add\n        /* \"#utility.yul\":21171:21217   */\n      mstore\n        /* \"#utility.yul\":21054:21224   */\n      pop\n      jump\t// out\n        /* \"#utility.yul\":21230:21596   */\n    tag_285:\n        /* \"#utility.yul\":21372:21375   */\n      0x00\n        /* \"#utility.yul\":21393:21460   */\n      tag_534\n        /* \"#utility.yul\":21457:21459   */\n      0x14\n        /* \"#utility.yul\":21452:21455   */\n      dup4\n        /* \"#utility.yul\":21393:21460   */\n      tag_240\n      jump\t// in\n    tag_534:\n        /* \"#utility.yul\":21386:21460   */\n      swap2\n      pop\n        /* \"#utility.yul\":21469:21562   */\n      tag_535\n        /* \"#utility.yul\":21558:21561   */\n      dup3\n        /* \"#utility.yul\":21469:21562   */\n      tag_284\n      jump\t// in\n    tag_535:\n        /* \"#utility.yul\":21587:21589   */\n      0x20\n        /* \"#utility.yul\":21582:21585   */\n      dup3\n        /* \"#utility.yul\":21578:21590   */\n      add\n        /* \"#utility.yul\":21571:21590   */\n      swap1\n      pop\n        /* \"#utility.yul\":21230:21596   */\n      swap2\n      swap1\n      pop\n      jump\t// out\n        /* \"#utility.yul\":21602:22021   */\n    tag_122:\n        /* \"#utility.yul\":21768:21772   */\n      0x00\n        /* \"#utility.yul\":21806:21808   */\n      0x20\n        /* \"#utility.yul\":21795:21804   */\n      dup3\n        /* \"#utility.yul\":21791:21809   */\n      add\n        /* \"#utility.yul\":21783:21809   */\n      swap1\n      pop\n        /* \"#utility.yul\":21855:21864   */\n      dup2\n        /* \"#utility.yul\":21849:21853   */\n      dup2\n        /* \"#utility.yul\":21845:21865   */\n      sub\n        /* \"#utility.yul\":21841:21842   */\n      0x00\n        /* \"#utility.yul\":21830:21839   */\n      dup4\n        /* \"#utility.yul\":21826:21843   */\n      add\n        /* \"#utility.yul\":21819:21866   */\n      mstore\n        /* \"#utility.yul\":21883:22014   */\n      tag_537\n        /* \"#utility.yul\":22009:22013   */\n      dup2\n        /* \"#utility.yul\":21883:22014   */\n      tag_285\n      jump\t// in\n    tag_537:\n        /* \"#utility.yul\":21875:22014   */\n      swap1\n      pop\n        /* \"#utility.yul\":21602:22021   */\n      swap2\n      swap1\n      pop\n      jump\t// out\n        /* \"#utility.yul\":22027:22209   */\n    tag_286:\n        /* \"#utility.yul\":22167:22201   */\n      0x52657374617572616e74732063616e6e6f7420706c616365206f72646572732e\n        /* \"#utility.yul\":22163:22164   */\n      0x00\n        /* \"#utility.yul\":22155:22161   */\n      dup3\n        /* \"#utility.yul\":22151:22165   */\n      add\n        /* \"#utility.yul\":22144:22202   */\n      mstore\n        /* \"#utility.yul\":22027:22209   */\n      pop\n      jump\t// out\n        /* \"#utility.yul\":22215:22581   */\n    tag_287:\n        /* \"#utility.yul\":22357:22360   */\n      0x00\n        /* \"#utility.yul\":22378:22445   */\n      tag_540\n        /* \"#utility.yul\":22442:22444   */\n      0x20\n        /* \"#utility.yul\":22437:22440   */\n      dup4\n        /* \"#utility.yul\":22378:22445   */\n      tag_240\n      jump\t// in\n    tag_540:\n        /* \"#utility.yul\":22371:22445   */\n      swap2\n      pop\n        /* \"#utility.yul\":22454:22547   */\n      tag_541\n        /* \"#utility.yul\":22543:22546   */\n      dup3\n        /* \"#utility.yul\":22454:22547   */\n      tag_286\n      jump\t// in\n    tag_541:\n        /* \"#utility.yul\":22572:22574   */\n      0x20\n        /* \"#utility.yul\":22567:22570   */\n      dup3\n        /* \"#utility.yul\":22563:22575   */\n      add\n        /* \"#utility.yul\":22556:22575   */\n      swap1\n      pop\n        /* \"#utility.yul\":22215:22581   */\n      swap2\n      swap1\n      pop\n      jump\t// out\n        /* \"#utility.yul\":22587:23006   */\n    tag_128:\n        /* \"#utility.yul\":22753:22757   */\n      0x00\n        /* \"#utility.yul\":22791:22793   */\n      0x20\n        /* \"#utility.yul\":22780:22789   */\n      dup3\n        /* \"#utility.yul\":22776:22794   */\n      add\n        /* \"#utility.yul\":22768:22794   */\n      swap1\n      pop\n        /* \"#utility.yul\":22840:22849   */\n      dup2\n        /* \"#utility.yul\":22834:22838   */\n      dup2\n        /* \"#utility.yul\":22830:22850   */\n      sub\n        /* \"#utility.yul\":22826:22827   */\n      0x00\n        /* \"#utility.yul\":22815:22824   */\n      dup4\n        /* \"#utility.yul\":22811:22828   */\n      add\n        /* \"#utility.yul\":22804:22851   */\n      mstore\n        /* \"#utility.yul\":22868:22999   */\n      tag_543\n        /* \"#utility.yul\":22994:22998   */\n      dup2\n        /* \"#utility.yul\":22868:22999   */\n      tag_287\n      jump\t// in\n    tag_543:\n        /* \"#utility.yul\":22860:22999   */\n      swap1\n      pop\n        /* \"#utility.yul\":22587:23006   */\n      swap2\n      swap1\n      pop\n      jump\t// out\n        /* \"#utility.yul\":23012:23181   */\n    tag_288:\n        /* \"#utility.yul\":23152:23173   */\n      0x496e76616c69642072657374617572616e742e00000000000000000000000000\n        /* \"#utility.yul\":23148:23149   */\n      0x00\n        /* \"#utility.yul\":23140:23146   */\n      dup3\n        /* \"#utility.yul\":23136:23150   */\n      add\n        /* \"#utility.yul\":23129:23174   */\n      mstore\n        /* \"#utility.yul\":23012:23181   */\n      pop\n      jump\t// out\n        /* \"#utility.yul\":23187:23553   */\n    tag_289:\n        /* \"#utility.yul\":23329:23332   */\n      0x00\n        /* \"#utility.yul\":23350:23417   */\n      tag_546\n        /* \"#utility.yul\":23414:23416   */\n      0x13\n        /* \"#utility.yul\":23409:23412   */\n      dup4\n        /* \"#utility.yul\":23350:23417   */\n      tag_240\n      jump\t// in\n    tag_546:\n        /* \"#utility.yul\":23343:23417   */\n      swap2\n      pop\n        /* \"#utility.yul\":23426:23519   */\n      tag_547\n        /* \"#utility.yul\":23515:23518   */\n      dup3\n        /* \"#utility.yul\":23426:23519   */\n      tag_288\n      jump\t// in\n    tag_547:\n        /* \"#utility.yul\":23544:23546   */\n      0x20\n        /* \"#utility.yul\":23539:23542   */\n      dup3\n        /* \"#utility.yul\":23535:23547   */\n      add\n        /* \"#utility.yul\":23528:23547   */\n      swap1\n      pop\n        /* \"#utility.yul\":23187:23553   */\n      swap2\n      swap1\n      pop\n      jump\t// out\n        /* \"#utility.yul\":23559:23978   */\n    tag_132:\n        /* \"#utility.yul\":23725:23729   */\n      0x00\n        /* \"#utility.yul\":23763:23765   */\n      0x20\n        /* \"#utility.yul\":23752:23761   */\n      dup3\n        /* \"#utility.yul\":23748:23766   */\n      add\n        /* \"#utility.yul\":23740:23766   */\n      swap1\n      pop\n        /* \"#utility.yul\":23812:23821   */\n      dup2\n        /* \"#utility.yul\":23806:23810   */\n      dup2\n        /* \"#utility.yul\":23802:23822   */\n      sub\n        /* \"#utility.yul\":23798:23799   */\n      0x00\n        /* \"#utility.yul\":23787:23796   */\n      dup4\n        /* \"#utility.yul\":23783:23800   */\n      add\n        /* \"#utility.yul\":23776:23823   */\n      mstore\n        /* \"#utility.yul\":23840:23971   */\n      tag_549\n        /* \"#utility.yul\":23966:23970   */\n      dup2\n        /* \"#utility.yul\":23840:23971   */\n      tag_289\n      jump\t// in\n    tag_549:\n        /* \"#utility.yul\":23832:23971   */\n      swap1\n      pop\n        /* \"#utility.yul\":23559:23978   */\n      swap2\n      swap1\n      pop\n      jump\t// out\n        /* \"#utility.yul\":23984:24164   */\n    tag_138:\n        /* \"#utility.yul\":24032:24109   */\n      0x4e487b7100000000000000000000000000000000000000000000000000000000\n        /* \"#utility.yul\":24029:24030   */\n      0x00\n        /* \"#utility.yul\":24022:24110   */\n      mstore\n        /* \"#utility.yul\":24129:24133   */\n      0x32\n        /* \"#utility.yul\":24126:24127   */\n      0x04\n        /* \"#utility.yul\":24119:24134   */\n      mstore\n        /* \"#utility.yul\":24153:24157   */\n      0x24\n        /* \"#utility.yul\":24150:24151   */\n      0x00\n        /* \"#utility.yul\":24143:24158   */\n      revert\n        /* \"#utility.yul\":24170:24391   */\n    tag_290:\n        /* \"#utility.yul\":24310:24344   */\n      0x4f6e65206f72206d6f7265206974656d732061726520756e617661696c61626c\n        /* \"#utility.yul\":24306:24307   */\n      0x00\n        /* \"#utility.yul\":24298:24304   */\n      dup3\n        /* \"#utility.yul\":24294:24308   */\n      add\n        /* \"#utility.yul\":24287:24345   */\n      mstore\n        /* \"#utility.yul\":24379:24383   */\n      0x652e000000000000000000000000000000000000000000000000000000000000\n        /* \"#utility.yul\":24374:24376   */\n      0x20\n        /* \"#utility.yul\":24366:24372   */\n      dup3\n        /* \"#utility.yul\":24362:24377   */\n      add\n        /* \"#utility.yul\":24355:24384   */\n      mstore\n        /* \"#utility.yul\":24170:24391   */\n      pop\n      jump\t// out\n        /* \"#utility.yul\":24397:24763   */\n    tag_291:\n        /* \"#utility.yul\":24539:24542   */\n      0x00\n        /* \"#utility.yul\":24560:24627   */\n      tag_553\n        /* \"#utility.yul\":24624:24626   */\n      0x22\n        /* \"#utility.yul\":24619:24622   */\n      dup4\n        /* \"#utility.yul\":24560:24627   */\n      tag_240\n      jump\t// in\n    tag_553:\n        /* \"#utility.yul\":24553:24627   */\n      swap2\n      pop\n        /* \"#utility.yul\":24636:24729   */\n      tag_554\n        /* \"#utility.yul\":24725:24728   */\n      dup3\n        /* \"#utility.yul\":24636:24729   */\n      tag_290\n      jump\t// in\n    tag_554:\n        /* \"#utility.yul\":24754:24756   */\n      0x40\n        /* \"#utility.yul\":24749:24752   */\n      dup3\n        /* \"#utility.yul\":24745:24757   */\n      add\n        /* \"#utility.yul\":24738:24757   */\n      swap1\n      pop\n        /* \"#utility.yul\":24397:24763   */\n      swap2\n      swap1\n      pop\n      jump\t// out\n        /* \"#utility.yul\":24769:25188   */\n    tag_146:\n        /* \"#utility.yul\":24935:24939   */\n      0x00\n        /* \"#utility.yul\":24973:24975   */\n      0x20\n        /* \"#utility.yul\":24962:24971   */\n      dup3\n        /* \"#utility.yul\":24958:24976   */\n      add\n        /* \"#utility.yul\":24950:24976   */\n      swap1\n      pop\n        /* \"#utility.yul\":25022:25031   */\n      dup2\n        /* \"#utility.yul\":25016:25020   */\n      dup2\n        /* \"#utility.yul\":25012:25032   */\n      sub\n        /* \"#utility.yul\":25008:25009   */\n      0x00\n        /* \"#utility.yul\":24997:25006   */\n      dup4\n        /* \"#utility.yul\":24993:25010   */\n      add\n        /* \"#utility.yul\":24986:25033   */\n      mstore\n        /* \"#utility.yul\":25050:25181   */\n      tag_556\n        /* \"#utility.yul\":25176:25180   */\n      dup2\n        /* \"#utility.yul\":25050:25181   */\n      tag_291\n      jump\t// in\n    tag_556:\n        /* \"#utility.yul\":25042:25181   */\n      swap1\n      pop\n        /* \"#utility.yul\":24769:25188   */\n      swap2\n      swap1\n      pop\n      jump\t// out\n        /* \"#utility.yul\":25194:25374   */\n    tag_292:\n        /* \"#utility.yul\":25242:25319   */\n      0x4e487b7100000000000000000000000000000000000000000000000000000000\n        /* \"#utility.yul\":25239:25240   */\n      0x00\n        /* \"#utility.yul\":25232:25320   */\n      mstore\n        /* \"#utility.yul\":25339:25343   */\n      0x11\n        /* \"#utility.yul\":25336:25337   */\n      0x04\n        /* \"#utility.yul\":25329:25344   */\n      mstore\n        /* \"#utility.yul\":25363:25367   */\n      0x24\n        /* \"#utility.yul\":25360:25361   */\n      0x00\n        /* \"#utility.yul\":25353:25368   */\n      revert\n        /* \"#utility.yul\":25380:25571   */\n    tag_148:\n        /* \"#utility.yul\":25420:25423   */\n      0x00\n        /* \"#utility.yul\":25439:25459   */\n      tag_559\n        /* \"#utility.yul\":25457:25458   */\n      dup3\n        /* \"#utility.yul\":25439:25459   */\n      tag_236\n      jump\t// in\n    tag_559:\n        /* \"#utility.yul\":25434:25459   */\n      swap2\n      pop\n        /* \"#utility.yul\":25473:25493   */\n      tag_560\n        /* \"#utility.yul\":25491:25492   */\n      dup4\n        /* \"#utility.yul\":25473:25493   */\n      tag_236\n      jump\t// in\n    tag_560:\n        /* \"#utility.yul\":25468:25493   */\n      swap3\n      pop\n        /* \"#utility.yul\":25516:25517   */\n      dup3\n        /* \"#utility.yul\":25513:25514   */\n      dup3\n        /* \"#utility.yul\":25509:25518   */\n      add\n        /* \"#utility.yul\":25502:25518   */\n      swap1\n      pop\n        /* \"#utility.yul\":25537:25540   */\n      dup1\n        /* \"#utility.yul\":25534:25535   */\n      dup3\n        /* \"#utility.yul\":25531:25541   */\n      gt\n        /* \"#utility.yul\":25528:25564   */\n      iszero\n      tag_561\n      jumpi\n        /* \"#utility.yul\":25544:25562   */\n      tag_562\n      tag_292\n      jump\t// in\n    tag_562:\n        /* \"#utility.yul\":25528:25564   */\n    tag_561:\n        /* \"#utility.yul\":25380:25571   */\n      swap3\n      swap2\n      pop\n      pop\n      jump\t// out\n        /* \"#utility.yul\":25577:25752   */\n    tag_293:\n        /* \"#utility.yul\":25717:25744   */\n      0x496e636f7272656374207061796d656e7420616d6f756e742e00000000000000\n        /* \"#utility.yul\":25713:25714   */\n      0x00\n        /* \"#utility.yul\":25705:25711   */\n      dup3\n        /* \"#utility.yul\":25701:25715   */\n      add\n        /* \"#utility.yul\":25694:25745   */\n      mstore\n        /* \"#utility.yul\":25577:25752   */\n      pop\n      jump\t// out\n        /* \"#utility.yul\":25758:26124   */\n    tag_294:\n        /* \"#utility.yul\":25900:25903   */\n      0x00\n        /* \"#utility.yul\":25921:25988   */\n      tag_565\n        /* \"#utility.yul\":25985:25987   */\n      0x19\n        /* \"#utility.yul\":25980:25983   */\n      dup4\n        /* \"#utility.yul\":25921:25988   */\n      tag_240\n      jump\t// in\n    tag_565:\n        /* \"#utility.yul\":25914:25988   */\n      swap2\n      pop\n        /* \"#utility.yul\":25997:26090   */\n      tag_566\n        /* \"#utility.yul\":26086:26089   */\n      dup3\n        /* \"#utility.yul\":25997:26090   */\n      tag_293\n      jump\t// in\n    tag_566:\n        /* \"#utility.yul\":26115:26117   */\n      0x20\n        /* \"#utility.yul\":26110:26113   */\n      dup3\n        /* \"#utility.yul\":26106:26118   */\n      add\n        /* \"#utility.yul\":26099:26118   */\n      swap1\n      pop\n        /* \"#utility.yul\":25758:26124   */\n      swap2\n      swap1\n      pop\n      jump\t// out\n        /* \"#utility.yul\":26130:26549   */\n    tag_151:\n        /* \"#utility.yul\":26296:26300   */\n      0x00\n        /* \"#utility.yul\":26334:26336   */\n      0x20\n        /* \"#utility.yul\":26323:26332   */\n      dup3\n        /* \"#utility.yul\":26319:26337   */\n      add\n        /* \"#utility.yul\":26311:26337   */\n      swap1\n      pop\n        /* \"#utility.yul\":26383:26392   */\n      dup2\n        /* \"#utility.yul\":26377:26381   */\n      dup2\n        /* \"#utility.yul\":26373:26393   */\n      sub\n        /* \"#utility.yul\":26369:26370   */\n      0x00\n        /* \"#utility.yul\":26358:26367   */\n      dup4\n        /* \"#utility.yul\":26354:26371   */\n      add\n        /* \"#utility.yul\":26347:26394   */\n      mstore\n        /* \"#utility.yul\":26411:26542   */\n      tag_568\n        /* \"#utility.yul\":26537:26541   */\n      dup2\n        /* \"#utility.yul\":26411:26542   */\n      tag_294\n      jump\t// in\n    tag_568:\n        /* \"#utility.yul\":26403:26542   */\n      swap1\n      pop\n        /* \"#utility.yul\":26130:26549   */\n      swap2\n      swap1\n      pop\n      jump\t// out\n        /* \"#utility.yul\":26555:26788   */\n    tag_153:\n        /* \"#utility.yul\":26594:26597   */\n      0x00\n        /* \"#utility.yul\":26617:26641   */\n      tag_570\n        /* \"#utility.yul\":26635:26640   */\n      dup3\n        /* \"#utility.yul\":26617:26641   */\n      tag_236\n      jump\t// in\n    tag_570:\n        /* \"#utility.yul\":26608:26641   */\n      swap2\n      pop\n        /* \"#utility.yul\":26663:26729   */\n      0xffffffffffffffffffffffffffffffffffffffffffffffffffffffffffffffff\n        /* \"#utility.yul\":26656:26661   */\n      dup3\n        /* \"#utility.yul\":26653:26730   */\n      sub\n        /* \"#utility.yul\":26650:26753   */\n      tag_571\n      jumpi\n        /* \"#utility.yul\":26733:26751   */\n      tag_572\n      tag_292\n      jump\t// in\n    tag_572:\n        /* \"#utility.yul\":26650:26753   */\n    tag_571:\n        /* \"#utility.yul\":26780:26781   */\n      0x01\n        /* \"#utility.yul\":26773:26778   */\n      dup3\n        /* \"#utility.yul\":26769:26782   */\n      add\n        /* \"#utility.yul\":26762:26782   */\n      swap1\n      pop\n        /* \"#utility.yul\":26555:26788   */\n      swap2\n      swap1\n      pop\n      jump\t// out\n        /* \"#utility.yul\":26794:26964   */\n    tag_295:\n        /* \"#utility.yul\":26934:26956   */\n      0x4974656d20646f6573206e6f742065786973742e000000000000000000000000\n        /* \"#utility.yul\":26930:26931   */\n      0x00\n        /* \"#utility.yul\":26922:26928   */\n      dup3\n        /* \"#utility.yul\":26918:26932   */\n      add\n        /* \"#utility.yul\":26911:26957   */\n      mstore\n        /* \"#utility.yul\":26794:26964   */\n      pop\n      jump\t// out\n        /* \"#utility.yul\":26970:27336   */\n    tag_296:\n        /* \"#utility.yul\":27112:27115   */\n      0x00\n        /* \"#utility.yul\":27133:27200   */\n      tag_575\n        /* \"#utility.yul\":27197:27199   */\n      0x14\n        /* \"#utility.yul\":27192:27195   */\n      dup4\n        /* \"#utility.yul\":27133:27200   */\n      tag_240\n      jump\t// in\n    tag_575:\n        /* \"#utility.yul\":27126:27200   */\n      swap2\n      pop\n        /* \"#utility.yul\":27209:27302   */\n      tag_576\n        /* \"#utility.yul\":27298:27301   */\n      dup3\n        /* \"#utility.yul\":27209:27302   */\n      tag_295\n      jump\t// in\n    tag_576:\n        /* \"#utility.yul\":27327:27329   */\n      0x20\n        /* \"#utility.yul\":27322:27325   */\n      dup3\n        /* \"#utility.yul\":27318:27330   */\n      add\n        /* \"#utility.yul\":27311:27330   */\n      swap1\n      pop\n        /* \"#utility.yul\":26970:27336   */\n      swap2\n      swap1\n      pop\n      jump\t// out\n        /* \"#utility.yul\":27342:27761   */\n    tag_169:\n        /* \"#utility.yul\":27508:27512   */\n      0x00\n        /* \"#utility.yul\":27546:27548   */\n      0x20\n        /* \"#utility.yul\":27535:27544   */\n      dup3\n        /* \"#utility.yul\":27531:27549   */\n      add\n        /* \"#utility.yul\":27523:27549   */\n      swap1\n      pop\n        /* \"#utility.yul\":27595:27604   */\n      dup2\n        /* \"#utility.yul\":27589:27593   */\n      dup2\n        /* \"#utility.yul\":27585:27605   */\n      sub\n        /* \"#utility.yul\":27581:27582   */\n      0x00\n        /* \"#utility.yul\":27570:27579   */\n      dup4\n        /* \"#utility.yul\":27566:27583   */\n      add\n        /* \"#utility.yul\":27559:27606   */\n      mstore\n        /* \"#utility.yul\":27623:27754   */\n      tag_578\n        /* \"#utility.yul\":27749:27753   */\n      dup2\n        /* \"#utility.yul\":27623:27754   */\n      tag_296\n      jump\t// in\n    tag_578:\n        /* \"#utility.yul\":27615:27754   */\n      swap1\n      pop\n        /* \"#utility.yul\":27342:27761   */\n      swap2\n      swap1\n      pop\n      jump\t// out\n        /* \"#utility.yul\":27767:27987   */\n    tag_297:\n        /* \"#utility.yul\":27907:27941   */\n      0x52657374617572616e7420697320616c72656164792072656769737465726564\n        /* \"#utility.yul\":27903:27904   */\n      0x00\n        /* \"#utility.yul\":27895:27901   */\n      dup3\n        /* \"#utility.yul\":27891:27905   */\n      add\n        /* \"#utility.yul\":27884:27942   */\n      mstore\n        /* \"#utility.yul\":27976:27979   */\n      0x2e00000000000000000000000000000000000000000000000000000000000000\n        /* \"#utility.yul\":27971:27973   */\n      0x20\n        /* \"#utility.yul\":27963:27969   */\n      dup3\n        /* \"#utility.yul\":27959:27974   */\n      add\n        /* \"#utility.yul\":27952:27980   */\n      mstore\n        /* \"#utility.yul\":27767:27987   */\n      pop\n      jump\t// out\n        /* \"#utility.yul\":27993:28359   */\n    tag_298:\n        /* \"#utility.yul\":28135:28138   */\n      0x00\n        /* \"#utility.yul\":28156:28223   */\n      tag_581\n        /* \"#utility.yul\":28220:28222   */\n      0x21\n        /* \"#utility.yul\":28215:28218   */\n      dup4\n        /* \"#utility.yul\":28156:28223   */\n      tag_240\n      jump\t// in\n    tag_581:\n        /* \"#utility.yul\":28149:28223   */\n      swap2\n      pop\n        /* \"#utility.yul\":28232:28325   */\n      tag_582\n        /* \"#utility.yul\":28321:28324   */\n      dup3\n        /* \"#utility.yul\":28232:28325   */\n      tag_297\n      jump\t// in\n    tag_582:\n        /* \"#utility.yul\":28350:28352   */\n      0x40\n        /* \"#utility.yul\":28345:28348   */\n      dup3\n        /* \"#utility.yul\":28341:28353   */\n      add\n        /* \"#utility.yul\":28334:28353   */\n      swap1\n      pop\n        /* \"#utility.yul\":27993:28359   */\n      swap2\n      swap1\n      pop\n      jump\t// out\n        /* \"#utility.yul\":28365:28784   */\n    tag_173:\n        /* \"#utility.yul\":28531:28535   */\n      0x00\n        /* \"#utility.yul\":28569:28571   */\n      0x20\n        /* \"#utility.yul\":28558:28567   */\n      dup3\n        /* \"#utility.yul\":28554:28572   */\n      add\n        /* \"#utility.yul\":28546:28572   */\n      swap1\n      pop\n        /* \"#utility.yul\":28618:28627   */\n      dup2\n        /* \"#utility.yul\":28612:28616   */\n      dup2\n        /* \"#utility.yul\":28608:28628   */\n      sub\n        /* \"#utility.yul\":28604:28605   */\n      0x00\n        /* \"#utility.yul\":28593:28602   */\n      dup4\n        /* \"#utility.yul\":28589:28606   */\n      add\n        /* \"#utility.yul\":28582:28629   */\n      mstore\n        /* \"#utility.yul\":28646:28777   */\n      tag_584\n        /* \"#utility.yul\":28772:28776   */\n      dup2\n        /* \"#utility.yul\":28646:28777   */\n      tag_298\n      jump\t// in\n    tag_584:\n        /* \"#utility.yul\":28638:28777   */\n      swap1\n      pop\n        /* \"#utility.yul\":28365:28784   */\n      swap2\n      swap1\n      pop\n      jump\t// out\n        /* \"#utility.yul\":28790:28931   */\n    tag_299:\n        /* \"#utility.yul\":28839:28843   */\n      0x00\n        /* \"#utility.yul\":28862:28865   */\n      dup2\n        /* \"#utility.yul\":28854:28865   */\n      swap1\n      pop\n        /* \"#utility.yul\":28885:28888   */\n      dup2\n        /* \"#utility.yul\":28882:28883   */\n      0x00\n        /* \"#utility.yul\":28875:28889   */\n      mstore\n        /* \"#utility.yul\":28919:28923   */\n      0x20\n        /* \"#utility.yul\":28916:28917   */\n      0x00\n        /* \"#utility.yul\":28906:28924   */\n      keccak256\n        /* \"#utility.yul\":28898:28924   */\n      swap1\n      pop\n        /* \"#utility.yul\":28790:28931   */\n      swap2\n      swap1\n      pop\n      jump\t// out\n        /* \"#utility.yul\":28937:29030   */\n    tag_300:\n        /* \"#utility.yul\":28974:28980   */\n      0x00\n        /* \"#utility.yul\":29021:29023   */\n      0x20\n        /* \"#utility.yul\":29016:29018   */\n      0x1f\n        /* \"#utility.yul\":29009:29014   */\n      dup4\n        /* \"#utility.yul\":29005:29019   */\n      add\n        /* \"#utility.yul\":29001:29024   */\n      div\n        /* \"#utility.yul\":28991:29024   */\n      swap1\n      pop\n        /* \"#utility.yul\":28937:29030   */\n      swap2\n      swap1\n      pop\n      jump\t// out\n        /* \"#utility.yul\":29036:29143   */\n    tag_301:\n        /* \"#utility.yul\":29080:29088   */\n      0x00\n        /* \"#utility.yul\":29130:29135   */\n      dup3\n        /* \"#utility.yul\":29124:29128   */\n      dup3\n        /* \"#utility.yul\":29120:29136   */\n      shl\n        /* \"#utility.yul\":29099:29136   */\n      swap1\n      pop\n        /* \"#utility.yul\":29036:29143   */\n      swap3\n      swap2\n      pop\n      pop\n      jump\t// out\n        /* \"#utility.yul\":29149:29542   */\n    tag_302:\n        /* \"#utility.yul\":29218:29224   */\n      0x00\n        /* \"#utility.yul\":29268:29269   */\n      0x08\n        /* \"#utility.yul\":29256:29266   */\n      dup4\n        /* \"#utility.yul\":29252:29270   */\n      mul\n        /* \"#utility.yul\":29291:29388   */\n      tag_589\n        /* \"#utility.yul\":29321:29387   */\n      0xffffffffffffffffffffffffffffffffffffffffffffffffffffffffffffffff\n        /* \"#utility.yul\":29310:29319   */\n      dup3\n        /* \"#utility.yul\":29291:29388   */\n      tag_301\n      jump\t// in\n    tag_589:\n        /* \"#utility.yul\":29409:29448   */\n      tag_590\n        /* \"#utility.yul\":29439:29447   */\n      dup7\n        /* \"#utility.yul\":29428:29437   */\n      dup4\n        /* \"#utility.yul\":29409:29448   */\n      tag_301\n      jump\t// in\n    tag_590:\n        /* \"#utility.yul\":29397:29448   */\n      swap6\n      pop\n        /* \"#utility.yul\":29481:29485   */\n      dup1\n        /* \"#utility.yul\":29477:29486   */\n      not\n        /* \"#utility.yul\":29470:29475   */\n      dup5\n        /* \"#utility.yul\":29466:29487   */\n      and\n        /* \"#utility.yul\":29457:29487   */\n      swap4\n      pop\n        /* \"#utility.yul\":29530:29534   */\n      dup1\n        /* \"#utility.yul\":29520:29528   */\n      dup7\n        /* \"#utility.yul\":29516:29535   */\n      and\n        /* \"#utility.yul\":29509:29514   */\n      dup5\n        /* \"#utility.yul\":29506:29536   */\n      or\n        /* \"#utility.yul\":29496:29536   */\n      swap3\n      pop\n        /* \"#utility.yul\":29225:29542   */\n      pop\n      pop\n        /* \"#utility.yul\":29149:29542   */\n      swap4\n      swap3\n      pop\n      pop\n      pop\n      jump\t// out\n        /* \"#utility.yul\":29548:29608   */\n    tag_303:\n        /* \"#utility.yul\":29576:29579   */\n      0x00\n        /* \"#utility.yul\":29597:29602   */\n      dup2\n        /* \"#utility.yul\":29590:29602   */\n      swap1\n      pop\n        /* \"#utility.yul\":29548:29608   */\n      swap2\n      swap1\n      pop\n      jump\t// out\n        /* \"#utility.yul\":29614:29756   */\n    tag_304:\n        /* \"#utility.yul\":29664:29673   */\n      0x00\n        /* \"#utility.yul\":29697:29750   */\n      tag_593\n        /* \"#utility.yul\":29715:29749   */\n      tag_594\n        /* \"#utility.yul\":29724:29748   */\n      tag_595\n        /* \"#utility.yul\":29742:29747   */\n      dup5\n        /* \"#utility.yul\":29724:29748   */\n      tag_236\n      jump\t// in\n    tag_595:\n        /* \"#utility.yul\":29715:29749   */\n      tag_303\n      jump\t// in\n    tag_594:\n        /* \"#utility.yul\":29697:29750   */\n      tag_236\n      jump\t// in\n    tag_593:\n        /* \"#utility.yul\":29684:29750   */\n      swap1\n      pop\n        /* \"#utility.yul\":29614:29756   */\n      swap2\n      swap1\n      pop\n      jump\t// out\n        /* \"#utility.yul\":29762:29837   */\n    tag_305:\n        /* \"#utility.yul\":29805:29808   */\n      0x00\n        /* \"#utility.yul\":29826:29831   */\n      dup2\n        /* \"#utility.yul\":29819:29831   */\n      swap1\n      pop\n        /* \"#utility.yul\":29762:29837   */\n      swap2\n      swap1\n      pop\n      jump\t// out\n        /* \"#utility.yul\":29843:30112   */\n    tag_306:\n        /* \"#utility.yul\":29953:29992   */\n      tag_598\n        /* \"#utility.yul\":29984:29991   */\n      dup4\n        /* \"#utility.yul\":29953:29992   */\n      tag_304\n      jump\t// in\n    tag_598:\n        /* \"#utility.yul\":30014:30105   */\n      tag_599\n        /* \"#utility.yul\":30063:30104   */\n      tag_600\n        /* \"#utility.yul\":30087:30103   */\n      dup3\n        /* \"#utility.yul\":30063:30104   */\n      tag_305\n      jump\t// in\n    tag_600:\n        /* \"#utility.yul\":30055:30061   */\n      dup5\n        /* \"#utility.yul\":30048:30052   */\n      dup5\n        /* \"#utility.yul\":30042:30053   */\n      sload\n        /* \"#utility.yul\":30014:30105   */\n      tag_302\n      jump\t// in\n    tag_599:\n        /* \"#utility.yul\":30008:30012   */\n      dup3\n        /* \"#utility.yul\":30001:30106   */\n      sstore\n        /* \"#utility.yul\":29919:30112   */\n      pop\n        /* \"#utility.yul\":29843:30112   */\n      pop\n      pop\n      pop\n      jump\t// out\n        /* \"#utility.yul\":30118:30191   */\n    tag_307:\n        /* \"#utility.yul\":30163:30166   */\n      0x00\n        /* \"#utility.yul\":30118:30191   */\n      swap1\n      jump\t// out\n        /* \"#utility.yul\":30197:30386   */\n    tag_308:\n        /* \"#utility.yul\":30274:30306   */\n      tag_603\n      tag_307\n      jump\t// in\n    tag_603:\n        /* \"#utility.yul\":30315:30380   */\n      tag_604\n        /* \"#utility.yul\":30373:30379   */\n      dup2\n        /* \"#utility.yul\":30365:30371   */\n      dup5\n        /* \"#utility.yul\":30359:30363   */\n      dup5\n        /* \"#utility.yul\":30315:30380   */\n      tag_306\n      jump\t// in\n    tag_604:\n        /* \"#utility.yul\":30250:30386   */\n      pop\n        /* \"#utility.yul\":30197:30386   */\n      pop\n      pop\n      jump\t// out\n        /* \"#utility.yul\":30392:30578   */\n    tag_309:\n        /* \"#utility.yul\":30452:30572   */\n    tag_606:\n        /* \"#utility.yul\":30469:30472   */\n      dup2\n        /* \"#utility.yul\":30462:30467   */\n      dup2\n        /* \"#utility.yul\":30459:30473   */\n      lt\n        /* \"#utility.yul\":30452:30572   */\n      iszero\n      tag_608\n      jumpi\n        /* \"#utility.yul\":30523:30562   */\n      tag_609\n        /* \"#utility.yul\":30560:30561   */\n      0x00\n        /* \"#utility.yul\":30553:30558   */\n      dup3\n        /* \"#utility.yul\":30523:30562   */\n      tag_308\n      jump\t// in\n    tag_609:\n        /* \"#utility.yul\":30496:30497   */\n      0x01\n        /* \"#utility.yul\":30489:30494   */\n      dup2\n        /* \"#utility.yul\":30485:30498   */\n      add\n        /* \"#utility.yul\":30476:30498   */\n      swap1\n      pop\n        /* \"#utility.yul\":30452:30572   */\n      jump(tag_606)\n    tag_608:\n        /* \"#utility.yul\":30392:30578   */\n      pop\n      pop\n      jump\t// out\n        /* \"#utility.yul\":30584:31127   */\n    tag_310:\n        /* \"#utility.yul\":30685:30687   */\n      0x1f\n        /* \"#utility.yul\":30680:30683   */\n      dup3\n        /* \"#utility.yul\":30677:30688   */\n      gt\n        /* \"#utility.yul\":30674:31120   */\n      iszero\n      tag_611\n      jumpi\n        /* \"#utility.yul\":30719:30757   */\n      tag_612\n        /* \"#utility.yul\":30751:30756   */\n      dup2\n        /* \"#utility.yul\":30719:30757   */\n      tag_299\n      jump\t// in\n    tag_612:\n        /* \"#utility.yul\":30803:30832   */\n      tag_613\n        /* \"#utility.yul\":30821:30831   */\n      dup5\n        /* \"#utility.yul\":30803:30832   */\n      tag_300\n      jump\t// in\n    tag_613:\n        /* \"#utility.yul\":30793:30801   */\n      dup2\n        /* \"#utility.yul\":30789:30833   */\n      add\n        /* \"#utility.yul\":30986:30988   */\n      0x20\n        /* \"#utility.yul\":30974:30984   */\n      dup6\n        /* \"#utility.yul\":30971:30989   */\n      lt\n        /* \"#utility.yul\":30968:31017   */\n      iszero\n      tag_614\n      jumpi\n        /* \"#utility.yul\":31007:31015   */\n      dup2\n        /* \"#utility.yul\":30992:31015   */\n      swap1\n      pop\n        /* \"#utility.yul\":30968:31017   */\n    tag_614:\n        /* \"#utility.yul\":31030:31110   */\n      tag_615\n        /* \"#utility.yul\":31086:31108   */\n      tag_616\n        /* \"#utility.yul\":31104:31107   */\n      dup6\n        /* \"#utility.yul\":31086:31108   */\n      tag_300\n      jump\t// in\n    tag_616:\n        /* \"#utility.yul\":31076:31084   */\n      dup4\n        /* \"#utility.yul\":31072:31109   */\n      add\n        /* \"#utility.yul\":31059:31070   */\n      dup3\n        /* \"#utility.yul\":31030:31110   */\n      tag_309\n      jump\t// in\n    tag_615:\n        /* \"#utility.yul\":30689:31120   */\n      pop\n      pop\n        /* \"#utility.yul\":30674:31120   */\n    tag_611:\n        /* \"#utility.yul\":30584:31127   */\n      pop\n      pop\n      pop\n      jump\t// out\n        /* \"#utility.yul\":31133:31250   */\n    tag_311:\n        /* \"#utility.yul\":31187:31195   */\n      0x00\n        /* \"#utility.yul\":31237:31242   */\n      dup3\n        /* \"#utility.yul\":31231:31235   */\n      dup3\n        /* \"#utility.yul\":31227:31243   */\n      shr\n        /* \"#utility.yul\":31206:31243   */\n      swap1\n      pop\n        /* \"#utility.yul\":31133:31250   */\n      swap3\n      swap2\n      pop\n      pop\n      jump\t// out\n        /* \"#utility.yul\":31256:31425   */\n    tag_312:\n        /* \"#utility.yul\":31300:31306   */\n      0x00\n        /* \"#utility.yul\":31333:31384   */\n      tag_619\n        /* \"#utility.yul\":31381:31382   */\n      0x00\n        /* \"#utility.yul\":31377:31383   */\n      not\n        /* \"#utility.yul\":31369:31374   */\n      dup5\n        /* \"#utility.yul\":31366:31367   */\n      0x08\n        /* \"#utility.yul\":31362:31375   */\n      mul\n        /* \"#utility.yul\":31333:31384   */\n      tag_311\n      jump\t// in\n    tag_619:\n        /* \"#utility.yul\":31329:31385   */\n      not\n        /* \"#utility.yul\":31414:31418   */\n      dup1\n        /* \"#utility.yul\":31408:31412   */\n      dup4\n        /* \"#utility.yul\":31404:31419   */\n      and\n        /* \"#utility.yul\":31394:31419   */\n      swap2\n      pop\n        /* \"#utility.yul\":31307:31425   */\n      pop\n        /* \"#utility.yul\":31256:31425   */\n      swap3\n      swap2\n      pop\n      pop\n      jump\t// out\n        /* \"#utility.yul\":31430:31725   */\n    tag_313:\n        /* \"#utility.yul\":31506:31510   */\n      0x00\n        /* \"#utility.yul\":31652:31681   */\n      tag_621\n        /* \"#utility.yul\":31677:31680   */\n      dup4\n        /* \"#utility.yul\":31671:31675   */\n      dup4\n        /* \"#utility.yul\":31652:31681   */\n      tag_312\n      jump\t// in\n    tag_621:\n        /* \"#utility.yul\":31644:31681   */\n      swap2\n      pop\n        /* \"#utility.yul\":31714:31717   */\n      dup3\n        /* \"#utility.yul\":31711:31712   */\n      0x02\n        /* \"#utility.yul\":31707:31718   */\n      mul\n        /* \"#utility.yul\":31701:31705   */\n      dup3\n        /* \"#utility.yul\":31698:31719   */\n      or\n        /* \"#utility.yul\":31690:31719   */\n      swap1\n      pop\n        /* \"#utility.yul\":31430:31725   */\n      swap3\n      swap2\n      pop\n      pop\n      jump\t// out\n        /* \"#utility.yul\":31730:33125   */\n    tag_175:\n        /* \"#utility.yul\":31847:31884   */\n      tag_623\n        /* \"#utility.yul\":31880:31883   */\n      dup3\n        /* \"#utility.yul\":31847:31884   */\n      tag_239\n      jump\t// in\n    tag_623:\n        /* \"#utility.yul\":31949:31967   */\n      0xffffffffffffffff\n        /* \"#utility.yul\":31941:31947   */\n      dup2\n        /* \"#utility.yul\":31938:31968   */\n      gt\n        /* \"#utility.yul\":31935:31991   */\n      iszero\n      tag_624\n      jumpi\n        /* \"#utility.yul\":31971:31989   */\n      tag_625\n      tag_255\n      jump\t// in\n    tag_625:\n        /* \"#utility.yul\":31935:31991   */\n    tag_624:\n        /* \"#utility.yul\":32015:32053   */\n      tag_626\n        /* \"#utility.yul\":32047:32051   */\n      dup3\n        /* \"#utility.yul\":32041:32052   */\n      sload\n        /* \"#utility.yul\":32015:32053   */\n      tag_95\n      jump\t// in\n    tag_626:\n        /* \"#utility.yul\":32100:32167   */\n      tag_627\n        /* \"#utility.yul\":32160:32166   */\n      dup3\n        /* \"#utility.yul\":32152:32158   */\n      dup3\n        /* \"#utility.yul\":32146:32150   */\n      dup6\n        /* \"#utility.yul\":32100:32167   */\n      tag_310\n      jump\t// in\n    tag_627:\n        /* \"#utility.yul\":32194:32195   */\n      0x00\n        /* \"#utility.yul\":32218:32222   */\n      0x20\n        /* \"#utility.yul\":32205:32222   */\n      swap1\n      pop\n        /* \"#utility.yul\":32250:32252   */\n      0x1f\n        /* \"#utility.yul\":32242:32248   */\n      dup4\n        /* \"#utility.yul\":32239:32253   */\n      gt\n        /* \"#utility.yul\":32267:32268   */\n      0x01\n        /* \"#utility.yul\":32262:32880   */\n      dup2\n      eq\n      tag_629\n      jumpi\n        /* \"#utility.yul\":32924:32925   */\n      0x00\n        /* \"#utility.yul\":32941:32947   */\n      dup5\n        /* \"#utility.yul\":32938:33015   */\n      iszero\n      tag_630\n      jumpi\n        /* \"#utility.yul\":32990:32999   */\n      dup3\n        /* \"#utility.yul\":32985:32988   */\n      dup8\n        /* \"#utility.yul\":32981:33000   */\n      add\n        /* \"#utility.yul\":32975:33001   */\n      mload\n        /* \"#utility.yul\":32966:33001   */\n      swap1\n      pop\n        /* \"#utility.yul\":32938:33015   */\n    tag_630:\n        /* \"#utility.yul\":33041:33108   */\n      tag_631\n        /* \"#utility.yul\":33101:33107   */\n      dup6\n        /* \"#utility.yul\":33094:33099   */\n      dup3\n        /* \"#utility.yul\":33041:33108   */\n      tag_313\n      jump\t// in\n    tag_631:\n        /* \"#utility.yul\":33035:33039   */\n      dup7\n        /* \"#utility.yul\":33028:33109   */\n      sstore\n        /* \"#utility.yul\":32897:33119   */\n      pop\n        /* \"#utility.yul\":32232:33119   */\n      jump(tag_628)\n        /* \"#utility.yul\":32262:32880   */\n    tag_629:\n        /* \"#utility.yul\":32314:32318   */\n      0x1f\n        /* \"#utility.yul\":32310:32319   */\n      not\n        /* \"#utility.yul\":32302:32308   */\n      dup5\n        /* \"#utility.yul\":32298:32320   */\n      and\n        /* \"#utility.yul\":32348:32385   */\n      tag_632\n        /* \"#utility.yul\":32380:32384   */\n      dup7\n        /* \"#utility.yul\":32348:32385   */\n      tag_299\n      jump\t// in\n    tag_632:\n        /* \"#utility.yul\":32407:32408   */\n      0x00\n        /* \"#utility.yul\":32421:32629   */\n    tag_633:\n        /* \"#utility.yul\":32435:32442   */\n      dup3\n        /* \"#utility.yul\":32432:32433   */\n      dup2\n        /* \"#utility.yul\":32429:32443   */\n      lt\n        /* \"#utility.yul\":32421:32629   */\n      iszero\n      tag_635\n      jumpi\n        /* \"#utility.yul\":32514:32523   */\n      dup5\n        /* \"#utility.yul\":32509:32512   */\n      dup10\n        /* \"#utility.yul\":32505:32524   */\n      add\n        /* \"#utility.yul\":32499:32525   */\n      mload\n        /* \"#utility.yul\":32491:32497   */\n      dup3\n        /* \"#utility.yul\":32484:32526   */\n      sstore\n        /* \"#utility.yul\":32565:32566   */\n      0x01\n        /* \"#utility.yul\":32557:32563   */\n      dup3\n        /* \"#utility.yul\":32553:32567   */\n      add\n        /* \"#utility.yul\":32543:32567   */\n      swap2\n      pop\n        /* \"#utility.yul\":32612:32614   */\n      0x20\n        /* \"#utility.yul\":32601:32610   */\n      dup6\n        /* \"#utility.yul\":32597:32615   */\n      add\n        /* \"#utility.yul\":32584:32615   */\n      swap5\n      pop\n        /* \"#utility.yul\":32458:32462   */\n      0x20\n        /* \"#utility.yul\":32455:32456   */\n      dup2\n        /* \"#utility.yul\":32451:32463   */\n      add\n        /* \"#utility.yul\":32446:32463   */\n      swap1\n      pop\n        /* \"#utility.yul\":32421:32629   */\n      jump(tag_633)\n    tag_635:\n        /* \"#utility.yul\":32657:32663   */\n      dup7\n        /* \"#utility.yul\":32648:32655   */\n      dup4\n        /* \"#utility.yul\":32645:32664   */\n      lt\n        /* \"#utility.yul\":32642:32821   */\n      iszero\n      tag_636\n      jumpi\n        /* \"#utility.yul\":32715:32724   */\n      dup5\n        /* \"#utility.yul\":32710:32713   */\n      dup10\n        /* \"#utility.yul\":32706:32725   */\n      add\n        /* \"#utility.yul\":32700:32726   */\n      mload\n        /* \"#utility.yul\":32758:32806   */\n      tag_637\n        /* \"#utility.yul\":32800:32804   */\n      0x1f\n        /* \"#utility.yul\":32792:32798   */\n      dup10\n        /* \"#utility.yul\":32788:32805   */\n      and\n        /* \"#utility.yul\":32777:32786   */\n      dup3\n        /* \"#utility.yul\":32758:32806   */\n      tag_312\n      jump\t// in\n    tag_637:\n        /* \"#utility.yul\":32750:32756   */\n      dup4\n        /* \"#utility.yul\":32743:32807   */\n      sstore\n        /* \"#utility.yul\":32665:32821   */\n      pop\n        /* \"#utility.yul\":32642:32821   */\n    tag_636:\n        /* \"#utility.yul\":32867:32868   */\n      0x01\n        /* \"#utility.yul\":32863:32864   */\n      0x02\n        /* \"#utility.yul\":32855:32861   */\n      dup9\n        /* \"#utility.yul\":32851:32865   */\n      mul\n        /* \"#utility.yul\":32847:32869   */\n      add\n        /* \"#utility.yul\":32841:32845   */\n      dup9\n        /* \"#utility.yul\":32834:32870   */\n      sstore\n        /* \"#utility.yul\":32269:32880   */\n      pop\n      pop\n      pop\n        /* \"#utility.yul\":32232:33119   */\n    tag_628:\n      pop\n        /* \"#utility.yul\":31822:33125   */\n      pop\n      pop\n      pop\n        /* \"#utility.yul\":31730:33125   */\n      pop\n      pop\n      jump\t// out\n        /* \"#utility.yul\":33131:33444   */\n    tag_178:\n        /* \"#utility.yul\":33244:33248   */\n      0x00\n        /* \"#utility.yul\":33282:33284   */\n      0x20\n        /* \"#utility.yul\":33271:33280   */\n      dup3\n        /* \"#utility.yul\":33267:33285   */\n      add\n        /* \"#utility.yul\":33259:33285   */\n      swap1\n      pop\n        /* \"#utility.yul\":33331:33340   */\n      dup2\n        /* \"#utility.yul\":33325:33329   */\n      dup2\n        /* \"#utility.yul\":33321:33341   */\n      sub\n        /* \"#utility.yul\":33317:33318   */\n      0x00\n        /* \"#utility.yul\":33306:33315   */\n      dup4\n        /* \"#utility.yul\":33302:33319   */\n      add\n        /* \"#utility.yul\":33295:33342   */\n      mstore\n        /* \"#utility.yul\":33359:33437   */\n      tag_639\n        /* \"#utility.yul\":33432:33436   */\n      dup2\n        /* \"#utility.yul\":33423:33429   */\n      dup5\n        /* \"#utility.yul\":33359:33437   */\n      tag_243\n      jump\t// in\n    tag_639:\n        /* \"#utility.yul\":33351:33437   */\n      swap1\n      pop\n        /* \"#utility.yul\":33131:33444   */\n      swap3\n      swap2\n      pop\n      pop\n      jump\t// out\n        /* \"#utility.yul\":33450:33632   */\n    tag_314:\n        /* \"#utility.yul\":33590:33624   */\n      0x5072696365206d7573742062652067726561746572207468616e207a65726f2e\n        /* \"#utility.yul\":33586:33587   */\n      0x00\n        /* \"#utility.yul\":33578:33584   */\n      dup3\n        /* \"#utility.yul\":33574:33588   */\n      add\n        /* \"#utility.yul\":33567:33625   */\n      mstore\n        /* \"#utility.yul\":33450:33632   */\n      pop\n      jump\t// out\n        /* \"#utility.yul\":33638:34004   */\n    tag_315:\n        /* \"#utility.yul\":33780:33783   */\n      0x00\n        /* \"#utility.yul\":33801:33868   */\n      tag_642\n        /* \"#utility.yul\":33865:33867   */\n      0x20\n        /* \"#utility.yul\":33860:33863   */\n      dup4\n        /* \"#utility.yul\":33801:33868   */\n      tag_240\n      jump\t// in\n    tag_642:\n        /* \"#utility.yul\":33794:33868   */\n      swap2\n      pop\n        /* \"#utility.yul\":33877:33970   */\n      tag_643\n        /* \"#utility.yul\":33966:33969   */\n      dup3\n        /* \"#utility.yul\":33877:33970   */\n      tag_314\n      jump\t// in\n    tag_643:\n        /* \"#utility.yul\":33995:33997   */\n      0x20\n        /* \"#utility.yul\":33990:33993   */\n      dup3\n        /* \"#utility.yul\":33986:33998   */\n      add\n        /* \"#utility.yul\":33979:33998   */\n      swap1\n      pop\n        /* \"#utility.yul\":33638:34004   */\n      swap2\n      swap1\n      pop\n      jump\t// out\n        /* \"#utility.yul\":34010:34429   */\n    tag_185:\n        /* \"#utility.yul\":34176:34180   */\n      0x00\n        /* \"#utility.yul\":34214:34216   */\n      0x20\n        /* \"#utility.yul\":34203:34212   */\n      dup3\n        /* \"#utility.yul\":34199:34217   */\n      add\n        /* \"#utility.yul\":34191:34217   */\n      swap1\n      pop\n        /* \"#utility.yul\":34263:34272   */\n      dup2\n        /* \"#utility.yul\":34257:34261   */\n      dup2\n        /* \"#utility.yul\":34253:34273   */\n      sub\n        /* \"#utility.yul\":34249:34250   */\n      0x00\n        /* \"#utility.yul\":34238:34247   */\n      dup4\n        /* \"#utility.yul\":34234:34251   */\n      add\n        /* \"#utility.yul\":34227:34274   */\n      mstore\n        /* \"#utility.yul\":34291:34422   */\n      tag_645\n        /* \"#utility.yul\":34417:34421   */\n      dup2\n        /* \"#utility.yul\":34291:34422   */\n      tag_315\n      jump\t// in\n    tag_645:\n        /* \"#utility.yul\":34283:34422   */\n      swap1\n      pop\n        /* \"#utility.yul\":34010:34429   */\n      swap2\n      swap1\n      pop\n      jump\t// out\n        /* \"#utility.yul\":34435:34968   */\n    tag_188:\n        /* \"#utility.yul\":34604:34608   */\n      0x00\n        /* \"#utility.yul\":34642:34644   */\n      0x60\n        /* \"#utility.yul\":34631:34640   */\n      dup3\n        /* \"#utility.yul\":34627:34645   */\n      add\n        /* \"#utility.yul\":34619:34645   */\n      swap1\n      pop\n        /* \"#utility.yul\":34655:34726   */\n      tag_647\n        /* \"#utility.yul\":34723:34724   */\n      0x00\n        /* \"#utility.yul\":34712:34721   */\n      dup4\n        /* \"#utility.yul\":34708:34725   */\n      add\n        /* \"#utility.yul\":34699:34705   */\n      dup7\n        /* \"#utility.yul\":34655:34726   */\n      tag_244\n      jump\t// in\n    tag_647:\n        /* \"#utility.yul\":34773:34782   */\n      dup2\n        /* \"#utility.yul\":34767:34771   */\n      dup2\n        /* \"#utility.yul\":34763:34783   */\n      sub\n        /* \"#utility.yul\":34758:34760   */\n      0x20\n        /* \"#utility.yul\":34747:34756   */\n      dup4\n        /* \"#utility.yul\":34743:34761   */\n      add\n        /* \"#utility.yul\":34736:34784   */\n      mstore\n        /* \"#utility.yul\":34801:34879   */\n      tag_648\n        /* \"#utility.yul\":34874:34878   */\n      dup2\n        /* \"#utility.yul\":34865:34871   */\n      dup6\n        /* \"#utility.yul\":34801:34879   */\n      tag_243\n      jump\t// in\n    tag_648:\n        /* \"#utility.yul\":34793:34879   */\n      swap1\n      pop\n        /* \"#utility.yul\":34889:34961   */\n      tag_649\n        /* \"#utility.yul\":34957:34959   */\n      0x40\n        /* \"#utility.yul\":34946:34955   */\n      dup4\n        /* \"#utility.yul\":34942:34960   */\n      add\n        /* \"#utility.yul\":34933:34939   */\n      dup5\n        /* \"#utility.yul\":34889:34961   */\n      tag_244\n      jump\t// in\n    tag_649:\n        /* \"#utility.yul\":34435:34968   */\n      swap5\n      swap4\n      pop\n      pop\n      pop\n      pop\n      jump\t// out\n        /* \"#utility.yul\":34974:35200   */\n    tag_316:\n        /* \"#utility.yul\":35114:35148   */\n      0x4f6e6c792072657374617572616e742063616e20757064617465206f72646572\n        /* \"#utility.yul\":35110:35111   */\n      0x00\n        /* \"#utility.yul\":35102:35108   */\n      dup3\n        /* \"#utility.yul\":35098:35112   */\n      add\n        /* \"#utility.yul\":35091:35149   */\n      mstore\n        /* \"#utility.yul\":35183:35192   */\n      0x2073746174757300000000000000000000000000000000000000000000000000\n        /* \"#utility.yul\":35178:35180   */\n      0x20\n        /* \"#utility.yul\":35170:35176   */\n      dup3\n        /* \"#utility.yul\":35166:35181   */\n      add\n        /* \"#utility.yul\":35159:35193   */\n      mstore\n        /* \"#utility.yul\":34974:35200   */\n      pop\n      jump\t// out\n        /* \"#utility.yul\":35206:35572   */\n    tag_317:\n        /* \"#utility.yul\":35348:35351   */\n      0x00\n        /* \"#utility.yul\":35369:35436   */\n      tag_652\n        /* \"#utility.yul\":35433:35435   */\n      0x27\n        /* \"#utility.yul\":35428:35431   */\n      dup4\n        /* \"#utility.yul\":35369:35436   */\n      tag_240\n      jump\t// in\n    tag_652:\n        /* \"#utility.yul\":35362:35436   */\n      swap2\n      pop\n        /* \"#utility.yul\":35445:35538   */\n      tag_653\n        /* \"#utility.yul\":35534:35537   */\n      dup3\n        /* \"#utility.yul\":35445:35538   */\n      tag_316\n      jump\t// in\n    tag_653:\n        /* \"#utility.yul\":35563:35565   */\n      0x40\n        /* \"#utility.yul\":35558:35561   */\n      dup3\n        /* \"#utility.yul\":35554:35566   */\n      add\n        /* \"#utility.yul\":35547:35566   */\n      swap1\n      pop\n        /* \"#utility.yul\":35206:35572   */\n      swap2\n      swap1\n      pop\n      jump\t// out\n        /* \"#utility.yul\":35578:35997   */\n    tag_195:\n        /* \"#utility.yul\":35744:35748   */\n      0x00\n        /* \"#utility.yul\":35782:35784   */\n      0x20\n        /* \"#utility.yul\":35771:35780   */\n      dup3\n        /* \"#utility.yul\":35767:35785   */\n      add\n        /* \"#utility.yul\":35759:35785   */\n      swap1\n      pop\n        /* \"#utility.yul\":35831:35840   */\n      dup2\n        /* \"#utility.yul\":35825:35829   */\n      dup2\n        /* \"#utility.yul\":35821:35841   */\n      sub\n        /* \"#utility.yul\":35817:35818   */\n      0x00\n        /* \"#utility.yul\":35806:35815   */\n      dup4\n        /* \"#utility.yul\":35802:35819   */\n      add\n        /* \"#utility.yul\":35795:35842   */\n      mstore\n        /* \"#utility.yul\":35859:35990   */\n      tag_655\n        /* \"#utility.yul\":35985:35989   */\n      dup2\n        /* \"#utility.yul\":35859:35990   */\n      tag_317\n      jump\t// in\n    tag_655:\n        /* \"#utility.yul\":35851:35990   */\n      swap1\n      pop\n        /* \"#utility.yul\":35578:35997   */\n      swap2\n      swap1\n      pop\n      jump\t// out\n        /* \"#utility.yul\":36003:36249   */\n    tag_199:\n        /* \"#utility.yul\":36108:36112   */\n      0x00\n        /* \"#utility.yul\":36146:36148   */\n      0x20\n        /* \"#utility.yul\":36135:36144   */\n      dup3\n        /* \"#utility.yul\":36131:36149   */\n      add\n        /* \"#utility.yul\":36123:36149   */\n      swap1\n      pop\n        /* \"#utility.yul\":36159:36242   */\n      tag_657\n        /* \"#utility.yul\":36239:36240   */\n      0x00\n        /* \"#utility.yul\":36228:36237   */\n      dup4\n        /* \"#utility.yul\":36224:36241   */\n      add\n        /* \"#utility.yul\":36215:36221   */\n      dup5\n        /* \"#utility.yul\":36159:36242   */\n      tag_273\n      jump\t// in\n    tag_657:\n        /* \"#utility.yul\":36003:36249   */\n      swap3\n      swap2\n      pop\n      pop\n      jump\t// out\n\n    auxdata: 0xa26469706673582212204a0ae3924401f90297daf5bc037c700373cc43ee16ea58c343fbe3803a64ef8364736f6c634300081a0033\n}\n",
				"bytecode": {
					"linkReferences": {},
					"object": "608060405260015f553480156012575f80fd5b50612a30806100205f395ff3fe6080604052600436106100dc575f3560e01c8063641c07a31161007e578063a85c38ef11610058578063a85c38ef146102a9578063aab3196d146102ea578063c2505ac414610312578063ec7dd7bb14610351576100dc565b8063641c07a314610231578063880d4ee814610259578063947ca0d214610281576100dc565b8063236cd7dc116100ba578063236cd7dc1461019657806324600fc3146101d55780632a58b330146101eb5780633c0c5e6414610215576100dc565b806308677ee7146100e05780630ed128a81461011e5780631600c6cd1461015a575b5f80fd5b3480156100eb575f80fd5b506101066004803603810190610101919061187d565b61038d565b60405161011593929190611954565b60405180910390f35b348015610129575f80fd5b50610144600480360381019061013f9190611990565b610450565b6040516101519190611a72565b60405180910390f35b348015610165575f80fd5b50610180600480360381019061017b919061187d565b6104e3565b60405161018d9190611a92565b60405180910390f35b3480156101a1575f80fd5b506101bc60048036038101906101b79190611990565b61050e565b6040516101cc9493929190611aab565b60405180910390f35b3480156101e0575f80fd5b506101e9610652565b005b3480156101f6575f80fd5b506101ff61076b565b60405161020c9190611a92565b60405180910390f35b61022f600480360381019061022a9190611c3c565b610770565b005b34801561023c575f80fd5b5061025760048036038101906102529190611cc0565b610cc2565b005b348015610264575f80fd5b5061027f600480360381019061027a9190611dae565b610e49565b005b34801561028c575f80fd5b506102a760048036038101906102a29190611e24565b610fdf565b005b3480156102b4575f80fd5b506102cf60048036038101906102ca9190611e90565b6111ae565b6040516102e196959493929190611f3d565b60405180910390f35b3480156102f5575f80fd5b50610310600480360381019061030b9190611fbf565b611231565b005b34801561031d575f80fd5b5061033860048036038101906103339190611990565b6113cb565b6040516103489493929190611aab565b60405180910390f35b34801561035c575f80fd5b5061037760048036038101906103729190611e90565b611581565b6040516103849190612120565b60405180910390f35b6002602052815f5260405f20602052805f5260405f205f9150915050805f0180546103b79061216d565b80601f01602080910402602001604051908101604052809291908181526020018280546103e39061216d565b801561042e5780601f106104055761010080835404028352916020019161042e565b820191905f5260205f20905b81548152906001019060200180831161041157829003601f168201915b505050505090806001015490806002015f9054906101000a900460ff16905083565b606060045f8373ffffffffffffffffffffffffffffffffffffffff1673ffffffffffffffffffffffffffffffffffffffff1681526020019081526020015f208054806020026020016040519081016040528092919081815260200182805480156104d757602002820191905f5260205f20905b8154815260200190600101908083116104c3575b50505050509050919050565b6004602052815f5260405f2081815481106104fc575f80fd5b905f5260205f20015f91509150505481565b6001602052805f5260405f205f91509050805f01805461052d9061216d565b80601f01602080910402602001604051908101604052809291908181526020018280546105599061216d565b80156105a45780601f1061057b576101008083540402835291602001916105a4565b820191905f5260205f20905b81548152906001019060200180831161058757829003601f168201915b5050505050908060010180546105b99061216d565b80601f01602080910402602001604051908101604052809291908181526020018280546105e59061216d565b80156106305780601f1061060757610100808354040283529160200191610630565b820191905f5260205f20905b81548152906001019060200180831161061357829003601f168201915b505050505090806002015490806003015f9054906101000a900460ff16905084565b60015f3373ffffffffffffffffffffffffffffffffffffffff1673ffffffffffffffffffffffffffffffffffffffff1681526020019081526020015f206003015f9054906101000a900460ff166106de576040517f08c379a00000000000000000000000000000000000000000000000000000000081526004016106d59061220d565b60405180910390fd5b5f4790505f8111610724576040517f08c379a000000000000000000000000000000000000000000000000000000000815260040161071b90612275565b60405180910390fd5b3373ffffffffffffffffffffffffffffffffffffffff166108fc8290811502906040515f60405180830381858888f19350505050158015610767573d5f803e3d5ffd5b5050565b5f5481565b60015f3373ffffffffffffffffffffffffffffffffffffffff1673ffffffffffffffffffffffffffffffffffffffff1681526020019081526020015f206003015f9054906101000a900460ff16156107fd576040517f08c379a00000000000000000000000000000000000000000000000000000000081526004016107f4906122dd565b60405180910390fd5b60015f8373ffffffffffffffffffffffffffffffffffffffff1673ffffffffffffffffffffffffffffffffffffffff1681526020019081526020015f206003015f9054906101000a900460ff16610889576040517f08c379a000000000000000000000000000000000000000000000000000000000815260040161088090612345565b60405180910390fd5b5f805b8251811015610a20575f60025f8673ffffffffffffffffffffffffffffffffffffffff1673ffffffffffffffffffffffffffffffffffffffff1681526020019081526020015f205f8584815181106108e7576108e6612363565b5b602002602001015181526020019081526020015f206040518060600160405290815f820180546109169061216d565b80601f01602080910402602001604051908101604052809291908181526020018280546109429061216d565b801561098d5780601f106109645761010080835404028352916020019161098d565b820191905f5260205f20905b81548152906001019060200180831161097057829003601f168201915b5050505050815260200160018201548152602001600282015f9054906101000a900460ff16151515158152505090508060400151610a00576040517f08c379a00000000000000000000000000000000000000000000000000000000081526004016109f790612400565b60405180910390fd5b806020015183610a10919061244b565b925050808060010191505061088c565b50803414610a63576040517f08c379a0000000000000000000000000000000000000000000000000000000008152600401610a5a906124c8565b60405180910390fd5b5f805f815480929190610a75906124e6565b9190505590506040518060e001604052808281526020013373ffffffffffffffffffffffffffffffffffffffff1681526020018381526020018481526020015f6003811115610ac757610ac6611eca565b5b81526020018573ffffffffffffffffffffffffffffffffffffffff1681526020014281525060035f8381526020019081526020015f205f820151815f01556020820151816001015f6101000a81548173ffffffffffffffffffffffffffffffffffffffff021916908373ffffffffffffffffffffffffffffffffffffffff160217905550604082015181600201556060820151816003019080519060200190610b71929190611704565b506080820151816004015f6101000a81548160ff02191690836003811115610b9c57610b9b611eca565b5b021790555060a08201518160040160016101000a81548173ffffffffffffffffffffffffffffffffffffffff021916908373ffffffffffffffffffffffffffffffffffffffff16021790555060c0820151816005015590505060045f3373ffffffffffffffffffffffffffffffffffffffff1673ffffffffffffffffffffffffffffffffffffffff1681526020019081526020015f2081908060018154018082558091505060019003905f5260205f20015f90919091909150558373ffffffffffffffffffffffffffffffffffffffff163373ffffffffffffffffffffffffffffffffffffffff16827faf03488da094bc08f76858b3b2a0c36a13217c95790c77139137fc6e062ba9cd85604051610cb49190611a92565b60405180910390a450505050565b60015f3373ffffffffffffffffffffffffffffffffffffffff1673ffffffffffffffffffffffffffffffffffffffff1681526020019081526020015f206003015f9054906101000a900460ff16610d4e576040517f08c379a0000000000000000000000000000000000000000000000000000000008152600401610d459061220d565b60405180910390fd5b5f60025f3373ffffffffffffffffffffffffffffffffffffffff1673ffffffffffffffffffffffffffffffffffffffff1681526020019081526020015f205f8481526020019081526020015f206001015411610ddf576040517f08c379a0000000000000000000000000000000000000000000000000000000008152600401610dd690612577565b60405180910390fd5b8060025f3373ffffffffffffffffffffffffffffffffffffffff1673ffffffffffffffffffffffffffffffffffffffff1681526020019081526020015f205f8481526020019081526020015f206002015f6101000a81548160ff0219169083151502179055505050565b60015f3373ffffffffffffffffffffffffffffffffffffffff1673ffffffffffffffffffffffffffffffffffffffff1681526020019081526020015f206003015f9054906101000a900460ff1615610ed6576040517f08c379a0000000000000000000000000000000000000000000000000000000008152600401610ecd90612605565b60405180910390fd5b60405180608001604052808381526020018281526020014281526020016001151581525060015f3373ffffffffffffffffffffffffffffffffffffffff1673ffffffffffffffffffffffffffffffffffffffff1681526020019081526020015f205f820151815f019081610f4a91906127c0565b506020820151816001019081610f6091906127c0565b50604082015181600201556060820151816003015f6101000a81548160ff0219169083151502179055509050503373ffffffffffffffffffffffffffffffffffffffff167fb56b53292c5dd9885c6378743872b8126c9486b0bd1f95fe4cbc4b8842340e6f83604051610fd3919061288f565b60405180910390a25050565b60015f3373ffffffffffffffffffffffffffffffffffffffff1673ffffffffffffffffffffffffffffffffffffffff1681526020019081526020015f206003015f9054906101000a900460ff1661106b576040517f08c379a00000000000000000000000000000000000000000000000000000000081526004016110629061220d565b60405180910390fd5b5f81116110ad576040517f08c379a00000000000000000000000000000000000000000000000000000000081526004016110a4906128f9565b60405180910390fd5b60405180606001604052808381526020018281526020016001151581525060025f3373ffffffffffffffffffffffffffffffffffffffff1673ffffffffffffffffffffffffffffffffffffffff1681526020019081526020015f205f8581526020019081526020015f205f820151815f01908161112a91906127c0565b50602082015181600101556040820151816002015f6101000a81548160ff0219169083151502179055509050503373ffffffffffffffffffffffffffffffffffffffff167f822563858b337586f3cfa8a87a287be8bb4e789fda4d4a6dfbc3d6a748a666ab8484846040516111a193929190612917565b60405180910390a2505050565b6003602052805f5260405f205f91509050805f015490806001015f9054906101000a900473ffffffffffffffffffffffffffffffffffffffff1690806002015490806004015f9054906101000a900460ff16908060040160019054906101000a900473ffffffffffffffffffffffffffffffffffffffff16908060050154905086565b60015f3373ffffffffffffffffffffffffffffffffffffffff1673ffffffffffffffffffffffffffffffffffffffff1681526020019081526020015f206003015f9054906101000a900460ff166112bd576040517f08c379a00000000000000000000000000000000000000000000000000000000081526004016112b49061220d565b60405180910390fd5b5f60035f8481526020019081526020015f2090503373ffffffffffffffffffffffffffffffffffffffff168160040160019054906101000a900473ffffffffffffffffffffffffffffffffffffffff1673ffffffffffffffffffffffffffffffffffffffff1614611363576040517f08c379a000000000000000000000000000000000000000000000000000000000815260040161135a906129c3565b60405180910390fd5b81816004015f6101000a81548160ff0219169083600381111561138957611388611eca565b5b0217905550827fd9a86b644eb5f5b43cc8a700849852481080361c7a4b00ba646d1b46c5585f95836040516113be91906129e1565b60405180910390a2505050565b6060805f805f60015f8773ffffffffffffffffffffffffffffffffffffffff1673ffffffffffffffffffffffffffffffffffffffff1681526020019081526020015f206040518060800160405290815f820180546114289061216d565b80601f01602080910402602001604051908101604052809291908181526020018280546114549061216d565b801561149f5780601f106114765761010080835404028352916020019161149f565b820191905f5260205f20905b81548152906001019060200180831161148257829003601f168201915b505050505081526020016001820180546114b89061216d565b80601f01602080910402602001604051908101604052809291908181526020018280546114e49061216d565b801561152f5780601f106115065761010080835404028352916020019161152f565b820191905f5260205f20905b81548152906001019060200180831161151257829003601f168201915b5050505050815260200160028201548152602001600382015f9054906101000a900460ff1615151515815250509050805f01518160200151826040015183606001519450945094509450509193509193565b61158961174f565b60035f8381526020019081526020015f206040518060e00160405290815f8201548152602001600182015f9054906101000a900473ffffffffffffffffffffffffffffffffffffffff1673ffffffffffffffffffffffffffffffffffffffff1673ffffffffffffffffffffffffffffffffffffffff168152602001600282015481526020016003820180548060200260200160405190810160405280929190818152602001828054801561165a57602002820191905f5260205f20905b815481526020019060010190808311611646575b50505050508152602001600482015f9054906101000a900460ff16600381111561168757611686611eca565b5b600381111561169957611698611eca565b5b81526020016004820160019054906101000a900473ffffffffffffffffffffffffffffffffffffffff1673ffffffffffffffffffffffffffffffffffffffff1673ffffffffffffffffffffffffffffffffffffffff1681526020016005820154815250509050919050565b828054828255905f5260205f2090810192821561173e579160200282015b8281111561173d578251825591602001919060010190611722565b5b50905061174b91906117c4565b5090565b6040518060e001604052805f81526020015f73ffffffffffffffffffffffffffffffffffffffff1681526020015f8152602001606081526020015f600381111561179c5761179b611eca565b5b81526020015f73ffffffffffffffffffffffffffffffffffffffff1681526020015f81525090565b5b808211156117db575f815f9055506001016117c5565b5090565b5f604051905090565b5f80fd5b5f80fd5b5f73ffffffffffffffffffffffffffffffffffffffff82169050919050565b5f611819826117f0565b9050919050565b6118298161180f565b8114611833575f80fd5b50565b5f8135905061184481611820565b92915050565b5f819050919050565b61185c8161184a565b8114611866575f80fd5b50565b5f8135905061187781611853565b92915050565b5f8060408385031215611893576118926117e8565b5b5f6118a085828601611836565b92505060206118b185828601611869565b9150509250929050565b5f81519050919050565b5f82825260208201905092915050565b8281835e5f83830152505050565b5f601f19601f8301169050919050565b5f6118fd826118bb565b61190781856118c5565b93506119178185602086016118d5565b611920816118e3565b840191505092915050565b6119348161184a565b82525050565b5f8115159050919050565b61194e8161193a565b82525050565b5f6060820190508181035f83015261196c81866118f3565b905061197b602083018561192b565b6119886040830184611945565b949350505050565b5f602082840312156119a5576119a46117e8565b5b5f6119b284828501611836565b91505092915050565b5f81519050919050565b5f82825260208201905092915050565b5f819050602082019050919050565b6119ed8161184a565b82525050565b5f6119fe83836119e4565b60208301905092915050565b5f602082019050919050565b5f611a20826119bb565b611a2a81856119c5565b9350611a35836119d5565b805f5b83811015611a65578151611a4c88826119f3565b9750611a5783611a0a565b925050600181019050611a38565b5085935050505092915050565b5f6020820190508181035f830152611a8a8184611a16565b905092915050565b5f602082019050611aa55f83018461192b565b92915050565b5f6080820190508181035f830152611ac381876118f3565b90508181036020830152611ad781866118f3565b9050611ae6604083018561192b565b611af36060830184611945565b95945050505050565b5f80fd5b7f4e487b71000000000000000000000000000000000000000000000000000000005f52604160045260245ffd5b611b36826118e3565b810181811067ffffffffffffffff82111715611b5557611b54611b00565b5b80604052505050565b5f611b676117df565b9050611b738282611b2d565b919050565b5f67ffffffffffffffff821115611b9257611b91611b00565b5b602082029050602081019050919050565b5f80fd5b5f611bb9611bb484611b78565b611b5e565b90508083825260208201905060208402830185811115611bdc57611bdb611ba3565b5b835b81811015611c055780611bf18882611869565b845260208401935050602081019050611bde565b5050509392505050565b5f82601f830112611c2357611c22611afc565b5b8135611c33848260208601611ba7565b91505092915050565b5f8060408385031215611c5257611c516117e8565b5b5f611c5f85828601611836565b925050602083013567ffffffffffffffff811115611c8057611c7f6117ec565b5b611c8c85828601611c0f565b9150509250929050565b611c9f8161193a565b8114611ca9575f80fd5b50565b5f81359050611cba81611c96565b92915050565b5f8060408385031215611cd657611cd56117e8565b5b5f611ce385828601611869565b9250506020611cf485828601611cac565b9150509250929050565b5f80fd5b5f67ffffffffffffffff821115611d1c57611d1b611b00565b5b611d25826118e3565b9050602081019050919050565b828183375f83830152505050565b5f611d52611d4d84611d02565b611b5e565b905082815260208101848484011115611d6e57611d6d611cfe565b5b611d79848285611d32565b509392505050565b5f82601f830112611d9557611d94611afc565b5b8135611da5848260208601611d40565b91505092915050565b5f8060408385031215611dc457611dc36117e8565b5b5f83013567ffffffffffffffff811115611de157611de06117ec565b5b611ded85828601611d81565b925050602083013567ffffffffffffffff811115611e0e57611e0d6117ec565b5b611e1a85828601611d81565b9150509250929050565b5f805f60608486031215611e3b57611e3a6117e8565b5b5f611e4886828701611869565b935050602084013567ffffffffffffffff811115611e6957611e686117ec565b5b611e7586828701611d81565b9250506040611e8686828701611869565b9150509250925092565b5f60208284031215611ea557611ea46117e8565b5b5f611eb284828501611869565b91505092915050565b611ec48161180f565b82525050565b7f4e487b71000000000000000000000000000000000000000000000000000000005f52602160045260245ffd5b60048110611f0857611f07611eca565b5b50565b5f819050611f1882611ef7565b919050565b5f611f2782611f0b565b9050919050565b611f3781611f1d565b82525050565b5f60c082019050611f505f83018961192b565b611f5d6020830188611ebb565b611f6a604083018761192b565b611f776060830186611f2e565b611f846080830185611ebb565b611f9160a083018461192b565b979650505050505050565b60048110611fa8575f80fd5b50565b5f81359050611fb981611f9c565b92915050565b5f8060408385031215611fd557611fd46117e8565b5b5f611fe285828601611869565b9250506020611ff385828601611fab565b9150509250929050565b6120068161180f565b82525050565b5f82825260208201905092915050565b5f612026826119bb565b612030818561200c565b935061203b836119d5565b805f5b8381101561206b57815161205288826119f3565b975061205d83611a0a565b92505060018101905061203e565b5085935050505092915050565b61208181611f1d565b82525050565b5f60e083015f83015161209c5f8601826119e4565b5060208301516120af6020860182611ffd565b5060408301516120c260408601826119e4565b50606083015184820360608601526120da828261201c565b91505060808301516120ef6080860182612078565b5060a083015161210260a0860182611ffd565b5060c083015161211560c08601826119e4565b508091505092915050565b5f6020820190508181035f8301526121388184612087565b905092915050565b7f4e487b71000000000000000000000000000000000000000000000000000000005f52602260045260245ffd5b5f600282049050600182168061218457607f821691505b60208210810361219757612196612140565b5b50919050565b7f4f6e6c7920726567697374657265642072657374617572616e74732063616e205f8201527f706572666f726d207468697320616374696f6e2e000000000000000000000000602082015250565b5f6121f76034836118c5565b91506122028261219d565b604082019050919050565b5f6020820190508181035f830152612224816121eb565b9050919050565b7f4e6f2066756e647320746f2077697468647261770000000000000000000000005f82015250565b5f61225f6014836118c5565b915061226a8261222b565b602082019050919050565b5f6020820190508181035f83015261228c81612253565b9050919050565b7f52657374617572616e74732063616e6e6f7420706c616365206f72646572732e5f82015250565b5f6122c76020836118c5565b91506122d282612293565b602082019050919050565b5f6020820190508181035f8301526122f4816122bb565b9050919050565b7f496e76616c69642072657374617572616e742e000000000000000000000000005f82015250565b5f61232f6013836118c5565b915061233a826122fb565b602082019050919050565b5f6020820190508181035f83015261235c81612323565b9050919050565b7f4e487b71000000000000000000000000000000000000000000000000000000005f52603260045260245ffd5b7f4f6e65206f72206d6f7265206974656d732061726520756e617661696c61626c5f8201527f652e000000000000000000000000000000000000000000000000000000000000602082015250565b5f6123ea6022836118c5565b91506123f582612390565b604082019050919050565b5f6020820190508181035f830152612417816123de565b9050919050565b7f4e487b71000000000000000000000000000000000000000000000000000000005f52601160045260245ffd5b5f6124558261184a565b91506124608361184a565b92508282019050808211156124785761247761241e565b5b92915050565b7f496e636f7272656374207061796d656e7420616d6f756e742e000000000000005f82015250565b5f6124b26019836118c5565b91506124bd8261247e565b602082019050919050565b5f6020820190508181035f8301526124df816124a6565b9050919050565b5f6124f08261184a565b91507fffffffffffffffffffffffffffffffffffffffffffffffffffffffffffffffff82036125225761252161241e565b5b600182019050919050565b7f4974656d20646f6573206e6f742065786973742e0000000000000000000000005f82015250565b5f6125616014836118c5565b915061256c8261252d565b602082019050919050565b5f6020820190508181035f83015261258e81612555565b9050919050565b7f52657374617572616e7420697320616c726561647920726567697374657265645f8201527f2e00000000000000000000000000000000000000000000000000000000000000602082015250565b5f6125ef6021836118c5565b91506125fa82612595565b604082019050919050565b5f6020820190508181035f83015261261c816125e3565b9050919050565b5f819050815f5260205f209050919050565b5f6020601f8301049050919050565b5f82821b905092915050565b5f6008830261267f7fffffffffffffffffffffffffffffffffffffffffffffffffffffffffffffffff82612644565b6126898683612644565b95508019841693508086168417925050509392505050565b5f819050919050565b5f6126c46126bf6126ba8461184a565b6126a1565b61184a565b9050919050565b5f819050919050565b6126dd836126aa565b6126f16126e9826126cb565b848454612650565b825550505050565b5f90565b6127056126f9565b6127108184846126d4565b505050565b5b81811015612733576127285f826126fd565b600181019050612716565b5050565b601f8211156127785761274981612623565b61275284612635565b81016020851015612761578190505b61277561276d85612635565b830182612715565b50505b505050565b5f82821c905092915050565b5f6127985f198460080261277d565b1980831691505092915050565b5f6127b08383612789565b9150826002028217905092915050565b6127c9826118bb565b67ffffffffffffffff8111156127e2576127e1611b00565b5b6127ec825461216d565b6127f7828285612737565b5f60209050601f831160018114612828575f8415612816578287015190505b61282085826127a5565b865550612887565b601f19841661283686612623565b5f5b8281101561285d57848901518255600182019150602085019450602081019050612838565b8683101561287a5784890151612876601f891682612789565b8355505b6001600288020188555050505b505050505050565b5f6020820190508181035f8301526128a781846118f3565b905092915050565b7f5072696365206d7573742062652067726561746572207468616e207a65726f2e5f82015250565b5f6128e36020836118c5565b91506128ee826128af565b602082019050919050565b5f6020820190508181035f830152612910816128d7565b9050919050565b5f60608201905061292a5f83018661192b565b818103602083015261293c81856118f3565b905061294b604083018461192b565b949350505050565b7f4f6e6c792072657374617572616e742063616e20757064617465206f726465725f8201527f2073746174757300000000000000000000000000000000000000000000000000602082015250565b5f6129ad6027836118c5565b91506129b882612953565b604082019050919050565b5f6020820190508181035f8301526129da816129a1565b9050919050565b5f6020820190506129f45f830184611f2e565b9291505056fea26469706673582212204a0ae3924401f90297daf5bc037c700373cc43ee16ea58c343fbe3803a64ef8364736f6c634300081a0033",
					"opcodes": "PUSH1 0x80 PUSH1 0x40 MSTORE PUSH1 0x1 PUSH0 SSTORE CALLVALUE DUP1 ISZERO PUSH1 0x12 JUMPI PUSH0 DUP1 REVERT JUMPDEST POP PUSH2 0x2A30 DUP1 PUSH2 0x20 PUSH0 CODECOPY PUSH0 RETURN INVALID PUSH1 0x80 PUSH1 0x40 MSTORE PUSH1 0x4 CALLDATASIZE LT PUSH2 0xDC JUMPI PUSH0 CALLDATALOAD PUSH1 0xE0 SHR DUP1 PUSH4 0x641C07A3 GT PUSH2 0x7E JUMPI DUP1 PUSH4 0xA85C38EF GT PUSH2 0x58 JUMPI DUP1 PUSH4 0xA85C38EF EQ PUSH2 0x2A9 JUMPI DUP1 PUSH4 0xAAB3196D EQ PUSH2 0x2EA JUMPI DUP1 PUSH4 0xC2505AC4 EQ PUSH2 0x312 JUMPI DUP1 PUSH4 0xEC7DD7BB EQ PUSH2 0x351 JUMPI PUSH2 0xDC JUMP JUMPDEST DUP1 PUSH4 0x641C07A3 EQ PUSH2 0x231 JUMPI DUP1 PUSH4 0x880D4EE8 EQ PUSH2 0x259 JUMPI DUP1 PUSH4 0x947CA0D2 EQ PUSH2 0x281 JUMPI PUSH2 0xDC JUMP JUMPDEST DUP1 PUSH4 0x236CD7DC GT PUSH2 0xBA JUMPI DUP1 PUSH4 0x236CD7DC EQ PUSH2 0x196 JUMPI DUP1 PUSH4 0x24600FC3 EQ PUSH2 0x1D5 JUMPI DUP1 PUSH4 0x2A58B330 EQ PUSH2 0x1EB JUMPI DUP1 PUSH4 0x3C0C5E64 EQ PUSH2 0x215 JUMPI PUSH2 0xDC JUMP JUMPDEST DUP1 PUSH4 0x8677EE7 EQ PUSH2 0xE0 JUMPI DUP1 PUSH4 0xED128A8 EQ PUSH2 0x11E JUMPI DUP1 PUSH4 0x1600C6CD EQ PUSH2 0x15A JUMPI JUMPDEST PUSH0 DUP1 REVERT JUMPDEST CALLVALUE DUP1 ISZERO PUSH2 0xEB JUMPI PUSH0 DUP1 REVERT JUMPDEST POP PUSH2 0x106 PUSH1 0x4 DUP1 CALLDATASIZE SUB DUP2 ADD SWAP1 PUSH2 0x101 SWAP2 SWAP1 PUSH2 0x187D JUMP JUMPDEST PUSH2 0x38D JUMP JUMPDEST PUSH1 0x40 MLOAD PUSH2 0x115 SWAP4 SWAP3 SWAP2 SWAP1 PUSH2 0x1954 JUMP JUMPDEST PUSH1 0x40 MLOAD DUP1 SWAP2 SUB SWAP1 RETURN JUMPDEST CALLVALUE DUP1 ISZERO PUSH2 0x129 JUMPI PUSH0 DUP1 REVERT JUMPDEST POP PUSH2 0x144 PUSH1 0x4 DUP1 CALLDATASIZE SUB DUP2 ADD SWAP1 PUSH2 0x13F SWAP2 SWAP1 PUSH2 0x1990 JUMP JUMPDEST PUSH2 0x450 JUMP JUMPDEST PUSH1 0x40 MLOAD PUSH2 0x151 SWAP2 SWAP1 PUSH2 0x1A72 JUMP JUMPDEST PUSH1 0x40 MLOAD DUP1 SWAP2 SUB SWAP1 RETURN JUMPDEST CALLVALUE DUP1 ISZERO PUSH2 0x165 JUMPI PUSH0 DUP1 REVERT JUMPDEST POP PUSH2 0x180 PUSH1 0x4 DUP1 CALLDATASIZE SUB DUP2 ADD SWAP1 PUSH2 0x17B SWAP2 SWAP1 PUSH2 0x187D JUMP JUMPDEST PUSH2 0x4E3 JUMP JUMPDEST PUSH1 0x40 MLOAD PUSH2 0x18D SWAP2 SWAP1 PUSH2 0x1A92 JUMP JUMPDEST PUSH1 0x40 MLOAD DUP1 SWAP2 SUB SWAP1 RETURN JUMPDEST CALLVALUE DUP1 ISZERO PUSH2 0x1A1 JUMPI PUSH0 DUP1 REVERT JUMPDEST POP PUSH2 0x1BC PUSH1 0x4 DUP1 CALLDATASIZE SUB DUP2 ADD SWAP1 PUSH2 0x1B7 SWAP2 SWAP1 PUSH2 0x1990 JUMP JUMPDEST PUSH2 0x50E JUMP JUMPDEST PUSH1 0x40 MLOAD PUSH2 0x1CC SWAP5 SWAP4 SWAP3 SWAP2 SWAP1 PUSH2 0x1AAB JUMP JUMPDEST PUSH1 0x40 MLOAD DUP1 SWAP2 SUB SWAP1 RETURN JUMPDEST CALLVALUE DUP1 ISZERO PUSH2 0x1E0 JUMPI PUSH0 DUP1 REVERT JUMPDEST POP PUSH2 0x1E9 PUSH2 0x652 JUMP JUMPDEST STOP JUMPDEST CALLVALUE DUP1 ISZERO PUSH2 0x1F6 JUMPI PUSH0 DUP1 REVERT JUMPDEST POP PUSH2 0x1FF PUSH2 0x76B JUMP JUMPDEST PUSH1 0x40 MLOAD PUSH2 0x20C SWAP2 SWAP1 PUSH2 0x1A92 JUMP JUMPDEST PUSH1 0x40 MLOAD DUP1 SWAP2 SUB SWAP1 RETURN JUMPDEST PUSH2 0x22F PUSH1 0x4 DUP1 CALLDATASIZE SUB DUP2 ADD SWAP1 PUSH2 0x22A SWAP2 SWAP1 PUSH2 0x1C3C JUMP JUMPDEST PUSH2 0x770 JUMP JUMPDEST STOP JUMPDEST CALLVALUE DUP1 ISZERO PUSH2 0x23C JUMPI PUSH0 DUP1 REVERT JUMPDEST POP PUSH2 0x257 PUSH1 0x4 DUP1 CALLDATASIZE SUB DUP2 ADD SWAP1 PUSH2 0x252 SWAP2 SWAP1 PUSH2 0x1CC0 JUMP JUMPDEST PUSH2 0xCC2 JUMP JUMPDEST STOP JUMPDEST CALLVALUE DUP1 ISZERO PUSH2 0x264 JUMPI PUSH0 DUP1 REVERT JUMPDEST POP PUSH2 0x27F PUSH1 0x4 DUP1 CALLDATASIZE SUB DUP2 ADD SWAP1 PUSH2 0x27A SWAP2 SWAP1 PUSH2 0x1DAE JUMP JUMPDEST PUSH2 0xE49 JUMP JUMPDEST STOP JUMPDEST CALLVALUE DUP1 ISZERO PUSH2 0x28C JUMPI PUSH0 DUP1 REVERT JUMPDEST POP PUSH2 0x2A7 PUSH1 0x4 DUP1 CALLDATASIZE SUB DUP2 ADD SWAP1 PUSH2 0x2A2 SWAP2 SWAP1 PUSH2 0x1E24 JUMP JUMPDEST PUSH2 0xFDF JUMP JUMPDEST STOP JUMPDEST CALLVALUE DUP1 ISZERO PUSH2 0x2B4 JUMPI PUSH0 DUP1 REVERT JUMPDEST POP PUSH2 0x2CF PUSH1 0x4 DUP1 CALLDATASIZE SUB DUP2 ADD SWAP1 PUSH2 0x2CA SWAP2 SWAP1 PUSH2 0x1E90 JUMP JUMPDEST PUSH2 0x11AE JUMP JUMPDEST PUSH1 0x40 MLOAD PUSH2 0x2E1 SWAP7 SWAP6 SWAP5 SWAP4 SWAP3 SWAP2 SWAP1 PUSH2 0x1F3D JUMP JUMPDEST PUSH1 0x40 MLOAD DUP1 SWAP2 SUB SWAP1 RETURN JUMPDEST CALLVALUE DUP1 ISZERO PUSH2 0x2F5 JUMPI PUSH0 DUP1 REVERT JUMPDEST POP PUSH2 0x310 PUSH1 0x4 DUP1 CALLDATASIZE SUB DUP2 ADD SWAP1 PUSH2 0x30B SWAP2 SWAP1 PUSH2 0x1FBF JUMP JUMPDEST PUSH2 0x1231 JUMP JUMPDEST STOP JUMPDEST CALLVALUE DUP1 ISZERO PUSH2 0x31D JUMPI PUSH0 DUP1 REVERT JUMPDEST POP PUSH2 0x338 PUSH1 0x4 DUP1 CALLDATASIZE SUB DUP2 ADD SWAP1 PUSH2 0x333 SWAP2 SWAP1 PUSH2 0x1990 JUMP JUMPDEST PUSH2 0x13CB JUMP JUMPDEST PUSH1 0x40 MLOAD PUSH2 0x348 SWAP5 SWAP4 SWAP3 SWAP2 SWAP1 PUSH2 0x1AAB JUMP JUMPDEST PUSH1 0x40 MLOAD DUP1 SWAP2 SUB SWAP1 RETURN JUMPDEST CALLVALUE DUP1 ISZERO PUSH2 0x35C JUMPI PUSH0 DUP1 REVERT JUMPDEST POP PUSH2 0x377 PUSH1 0x4 DUP1 CALLDATASIZE SUB DUP2 ADD SWAP1 PUSH2 0x372 SWAP2 SWAP1 PUSH2 0x1E90 JUMP JUMPDEST PUSH2 0x1581 JUMP JUMPDEST PUSH1 0x40 MLOAD PUSH2 0x384 SWAP2 SWAP1 PUSH2 0x2120 JUMP JUMPDEST PUSH1 0x40 MLOAD DUP1 SWAP2 SUB SWAP1 RETURN JUMPDEST PUSH1 0x2 PUSH1 0x20 MSTORE DUP2 PUSH0 MSTORE PUSH1 0x40 PUSH0 KECCAK256 PUSH1 0x20 MSTORE DUP1 PUSH0 MSTORE PUSH1 0x40 PUSH0 KECCAK256 PUSH0 SWAP2 POP SWAP2 POP POP DUP1 PUSH0 ADD DUP1 SLOAD PUSH2 0x3B7 SWAP1 PUSH2 0x216D JUMP JUMPDEST DUP1 PUSH1 0x1F ADD PUSH1 0x20 DUP1 SWAP2 DIV MUL PUSH1 0x20 ADD PUSH1 0x40 MLOAD SWAP1 DUP2 ADD PUSH1 0x40 MSTORE DUP1 SWAP3 SWAP2 SWAP1 DUP2 DUP2 MSTORE PUSH1 0x20 ADD DUP3 DUP1 SLOAD PUSH2 0x3E3 SWAP1 PUSH2 0x216D JUMP JUMPDEST DUP1 ISZERO PUSH2 0x42E JUMPI DUP1 PUSH1 0x1F LT PUSH2 0x405 JUMPI PUSH2 0x100 DUP1 DUP4 SLOAD DIV MUL DUP4 MSTORE SWAP2 PUSH1 0x20 ADD SWAP2 PUSH2 0x42E JUMP JUMPDEST DUP3 ADD SWAP2 SWAP1 PUSH0 MSTORE PUSH1 0x20 PUSH0 KECCAK256 SWAP1 JUMPDEST DUP2 SLOAD DUP2 MSTORE SWAP1 PUSH1 0x1 ADD SWAP1 PUSH1 0x20 ADD DUP1 DUP4 GT PUSH2 0x411 JUMPI DUP3 SWAP1 SUB PUSH1 0x1F AND DUP3 ADD SWAP2 JUMPDEST POP POP POP POP POP SWAP1 DUP1 PUSH1 0x1 ADD SLOAD SWAP1 DUP1 PUSH1 0x2 ADD PUSH0 SWAP1 SLOAD SWAP1 PUSH2 0x100 EXP SWAP1 DIV PUSH1 0xFF AND SWAP1 POP DUP4 JUMP JUMPDEST PUSH1 0x60 PUSH1 0x4 PUSH0 DUP4 PUSH20 0xFFFFFFFFFFFFFFFFFFFFFFFFFFFFFFFFFFFFFFFF AND PUSH20 0xFFFFFFFFFFFFFFFFFFFFFFFFFFFFFFFFFFFFFFFF AND DUP2 MSTORE PUSH1 0x20 ADD SWAP1 DUP2 MSTORE PUSH1 0x20 ADD PUSH0 KECCAK256 DUP1 SLOAD DUP1 PUSH1 0x20 MUL PUSH1 0x20 ADD PUSH1 0x40 MLOAD SWAP1 DUP2 ADD PUSH1 0x40 MSTORE DUP1 SWAP3 SWAP2 SWAP1 DUP2 DUP2 MSTORE PUSH1 0x20 ADD DUP3 DUP1 SLOAD DUP1 ISZERO PUSH2 0x4D7 JUMPI PUSH1 0x20 MUL DUP3 ADD SWAP2 SWAP1 PUSH0 MSTORE PUSH1 0x20 PUSH0 KECCAK256 SWAP1 JUMPDEST DUP2 SLOAD DUP2 MSTORE PUSH1 0x20 ADD SWAP1 PUSH1 0x1 ADD SWAP1 DUP1 DUP4 GT PUSH2 0x4C3 JUMPI JUMPDEST POP POP POP POP POP SWAP1 POP SWAP2 SWAP1 POP JUMP JUMPDEST PUSH1 0x4 PUSH1 0x20 MSTORE DUP2 PUSH0 MSTORE PUSH1 0x40 PUSH0 KECCAK256 DUP2 DUP2 SLOAD DUP2 LT PUSH2 0x4FC JUMPI PUSH0 DUP1 REVERT JUMPDEST SWAP1 PUSH0 MSTORE PUSH1 0x20 PUSH0 KECCAK256 ADD PUSH0 SWAP2 POP SWAP2 POP POP SLOAD DUP2 JUMP JUMPDEST PUSH1 0x1 PUSH1 0x20 MSTORE DUP1 PUSH0 MSTORE PUSH1 0x40 PUSH0 KECCAK256 PUSH0 SWAP2 POP SWAP1 POP DUP1 PUSH0 ADD DUP1 SLOAD PUSH2 0x52D SWAP1 PUSH2 0x216D JUMP JUMPDEST DUP1 PUSH1 0x1F ADD PUSH1 0x20 DUP1 SWAP2 DIV MUL PUSH1 0x20 ADD PUSH1 0x40 MLOAD SWAP1 DUP2 ADD PUSH1 0x40 MSTORE DUP1 SWAP3 SWAP2 SWAP1 DUP2 DUP2 MSTORE PUSH1 0x20 ADD DUP3 DUP1 SLOAD PUSH2 0x559 SWAP1 PUSH2 0x216D JUMP JUMPDEST DUP1 ISZERO PUSH2 0x5A4 JUMPI DUP1 PUSH1 0x1F LT PUSH2 0x57B JUMPI PUSH2 0x100 DUP1 DUP4 SLOAD DIV MUL DUP4 MSTORE SWAP2 PUSH1 0x20 ADD SWAP2 PUSH2 0x5A4 JUMP JUMPDEST DUP3 ADD SWAP2 SWAP1 PUSH0 MSTORE PUSH1 0x20 PUSH0 KECCAK256 SWAP1 JUMPDEST DUP2 SLOAD DUP2 MSTORE SWAP1 PUSH1 0x1 ADD SWAP1 PUSH1 0x20 ADD DUP1 DUP4 GT PUSH2 0x587 JUMPI DUP3 SWAP1 SUB PUSH1 0x1F AND DUP3 ADD SWAP2 JUMPDEST POP POP POP POP POP SWAP1 DUP1 PUSH1 0x1 ADD DUP1 SLOAD PUSH2 0x5B9 SWAP1 PUSH2 0x216D JUMP JUMPDEST DUP1 PUSH1 0x1F ADD PUSH1 0x20 DUP1 SWAP2 DIV MUL PUSH1 0x20 ADD PUSH1 0x40 MLOAD SWAP1 DUP2 ADD PUSH1 0x40 MSTORE DUP1 SWAP3 SWAP2 SWAP1 DUP2 DUP2 MSTORE PUSH1 0x20 ADD DUP3 DUP1 SLOAD PUSH2 0x5E5 SWAP1 PUSH2 0x216D JUMP JUMPDEST DUP1 ISZERO PUSH2 0x630 JUMPI DUP1 PUSH1 0x1F LT PUSH2 0x607 JUMPI PUSH2 0x100 DUP1 DUP4 SLOAD DIV MUL DUP4 MSTORE SWAP2 PUSH1 0x20 ADD SWAP2 PUSH2 0x630 JUMP JUMPDEST DUP3 ADD SWAP2 SWAP1 PUSH0 MSTORE PUSH1 0x20 PUSH0 KECCAK256 SWAP1 JUMPDEST DUP2 SLOAD DUP2 MSTORE SWAP1 PUSH1 0x1 ADD SWAP1 PUSH1 0x20 ADD DUP1 DUP4 GT PUSH2 0x613 JUMPI DUP3 SWAP1 SUB PUSH1 0x1F AND DUP3 ADD SWAP2 JUMPDEST POP POP POP POP POP SWAP1 DUP1 PUSH1 0x2 ADD SLOAD SWAP1 DUP1 PUSH1 0x3 ADD PUSH0 SWAP1 SLOAD SWAP1 PUSH2 0x100 EXP SWAP1 DIV PUSH1 0xFF AND SWAP1 POP DUP5 JUMP JUMPDEST PUSH1 0x1 PUSH0 CALLER PUSH20 0xFFFFFFFFFFFFFFFFFFFFFFFFFFFFFFFFFFFFFFFF AND PUSH20 0xFFFFFFFFFFFFFFFFFFFFFFFFFFFFFFFFFFFFFFFF AND DUP2 MSTORE PUSH1 0x20 ADD SWAP1 DUP2 MSTORE PUSH1 0x20 ADD PUSH0 KECCAK256 PUSH1 0x3 ADD PUSH0 SWAP1 SLOAD SWAP1 PUSH2 0x100 EXP SWAP1 DIV PUSH1 0xFF AND PUSH2 0x6DE JUMPI PUSH1 0x40 MLOAD PUSH32 0x8C379A000000000000000000000000000000000000000000000000000000000 DUP2 MSTORE PUSH1 0x4 ADD PUSH2 0x6D5 SWAP1 PUSH2 0x220D JUMP JUMPDEST PUSH1 0x40 MLOAD DUP1 SWAP2 SUB SWAP1 REVERT JUMPDEST PUSH0 SELFBALANCE SWAP1 POP PUSH0 DUP2 GT PUSH2 0x724 JUMPI PUSH1 0x40 MLOAD PUSH32 0x8C379A000000000000000000000000000000000000000000000000000000000 DUP2 MSTORE PUSH1 0x4 ADD PUSH2 0x71B SWAP1 PUSH2 0x2275 JUMP JUMPDEST PUSH1 0x40 MLOAD DUP1 SWAP2 SUB SWAP1 REVERT JUMPDEST CALLER PUSH20 0xFFFFFFFFFFFFFFFFFFFFFFFFFFFFFFFFFFFFFFFF AND PUSH2 0x8FC DUP3 SWAP1 DUP2 ISZERO MUL SWAP1 PUSH1 0x40 MLOAD PUSH0 PUSH1 0x40 MLOAD DUP1 DUP4 SUB DUP2 DUP6 DUP9 DUP9 CALL SWAP4 POP POP POP POP ISZERO DUP1 ISZERO PUSH2 0x767 JUMPI RETURNDATASIZE PUSH0 DUP1 RETURNDATACOPY RETURNDATASIZE PUSH0 REVERT JUMPDEST POP POP JUMP JUMPDEST PUSH0 SLOAD DUP2 JUMP JUMPDEST PUSH1 0x1 PUSH0 CALLER PUSH20 0xFFFFFFFFFFFFFFFFFFFFFFFFFFFFFFFFFFFFFFFF AND PUSH20 0xFFFFFFFFFFFFFFFFFFFFFFFFFFFFFFFFFFFFFFFF AND DUP2 MSTORE PUSH1 0x20 ADD SWAP1 DUP2 MSTORE PUSH1 0x20 ADD PUSH0 KECCAK256 PUSH1 0x3 ADD PUSH0 SWAP1 SLOAD SWAP1 PUSH2 0x100 EXP SWAP1 DIV PUSH1 0xFF AND ISZERO PUSH2 0x7FD JUMPI PUSH1 0x40 MLOAD PUSH32 0x8C379A000000000000000000000000000000000000000000000000000000000 DUP2 MSTORE PUSH1 0x4 ADD PUSH2 0x7F4 SWAP1 PUSH2 0x22DD JUMP JUMPDEST PUSH1 0x40 MLOAD DUP1 SWAP2 SUB SWAP1 REVERT JUMPDEST PUSH1 0x1 PUSH0 DUP4 PUSH20 0xFFFFFFFFFFFFFFFFFFFFFFFFFFFFFFFFFFFFFFFF AND PUSH20 0xFFFFFFFFFFFFFFFFFFFFFFFFFFFFFFFFFFFFFFFF AND DUP2 MSTORE PUSH1 0x20 ADD SWAP1 DUP2 MSTORE PUSH1 0x20 ADD PUSH0 KECCAK256 PUSH1 0x3 ADD PUSH0 SWAP1 SLOAD SWAP1 PUSH2 0x100 EXP SWAP1 DIV PUSH1 0xFF AND PUSH2 0x889 JUMPI PUSH1 0x40 MLOAD PUSH32 0x8C379A000000000000000000000000000000000000000000000000000000000 DUP2 MSTORE PUSH1 0x4 ADD PUSH2 0x880 SWAP1 PUSH2 0x2345 JUMP JUMPDEST PUSH1 0x40 MLOAD DUP1 SWAP2 SUB SWAP1 REVERT JUMPDEST PUSH0 DUP1 JUMPDEST DUP3 MLOAD DUP2 LT ISZERO PUSH2 0xA20 JUMPI PUSH0 PUSH1 0x2 PUSH0 DUP7 PUSH20 0xFFFFFFFFFFFFFFFFFFFFFFFFFFFFFFFFFFFFFFFF AND PUSH20 0xFFFFFFFFFFFFFFFFFFFFFFFFFFFFFFFFFFFFFFFF AND DUP2 MSTORE PUSH1 0x20 ADD SWAP1 DUP2 MSTORE PUSH1 0x20 ADD PUSH0 KECCAK256 PUSH0 DUP6 DUP5 DUP2 MLOAD DUP2 LT PUSH2 0x8E7 JUMPI PUSH2 0x8E6 PUSH2 0x2363 JUMP JUMPDEST JUMPDEST PUSH1 0x20 MUL PUSH1 0x20 ADD ADD MLOAD DUP2 MSTORE PUSH1 0x20 ADD SWAP1 DUP2 MSTORE PUSH1 0x20 ADD PUSH0 KECCAK256 PUSH1 0x40 MLOAD DUP1 PUSH1 0x60 ADD PUSH1 0x40 MSTORE SWAP1 DUP2 PUSH0 DUP3 ADD DUP1 SLOAD PUSH2 0x916 SWAP1 PUSH2 0x216D JUMP JUMPDEST DUP1 PUSH1 0x1F ADD PUSH1 0x20 DUP1 SWAP2 DIV MUL PUSH1 0x20 ADD PUSH1 0x40 MLOAD SWAP1 DUP2 ADD PUSH1 0x40 MSTORE DUP1 SWAP3 SWAP2 SWAP1 DUP2 DUP2 MSTORE PUSH1 0x20 ADD DUP3 DUP1 SLOAD PUSH2 0x942 SWAP1 PUSH2 0x216D JUMP JUMPDEST DUP1 ISZERO PUSH2 0x98D JUMPI DUP1 PUSH1 0x1F LT PUSH2 0x964 JUMPI PUSH2 0x100 DUP1 DUP4 SLOAD DIV MUL DUP4 MSTORE SWAP2 PUSH1 0x20 ADD SWAP2 PUSH2 0x98D JUMP JUMPDEST DUP3 ADD SWAP2 SWAP1 PUSH0 MSTORE PUSH1 0x20 PUSH0 KECCAK256 SWAP1 JUMPDEST DUP2 SLOAD DUP2 MSTORE SWAP1 PUSH1 0x1 ADD SWAP1 PUSH1 0x20 ADD DUP1 DUP4 GT PUSH2 0x970 JUMPI DUP3 SWAP1 SUB PUSH1 0x1F AND DUP3 ADD SWAP2 JUMPDEST POP POP POP POP POP DUP2 MSTORE PUSH1 0x20 ADD PUSH1 0x1 DUP3 ADD SLOAD DUP2 MSTORE PUSH1 0x20 ADD PUSH1 0x2 DUP3 ADD PUSH0 SWAP1 SLOAD SWAP1 PUSH2 0x100 EXP SWAP1 DIV PUSH1 0xFF AND ISZERO ISZERO ISZERO ISZERO DUP2 MSTORE POP POP SWAP1 POP DUP1 PUSH1 0x40 ADD MLOAD PUSH2 0xA00 JUMPI PUSH1 0x40 MLOAD PUSH32 0x8C379A000000000000000000000000000000000000000000000000000000000 DUP2 MSTORE PUSH1 0x4 ADD PUSH2 0x9F7 SWAP1 PUSH2 0x2400 JUMP JUMPDEST PUSH1 0x40 MLOAD DUP1 SWAP2 SUB SWAP1 REVERT JUMPDEST DUP1 PUSH1 0x20 ADD MLOAD DUP4 PUSH2 0xA10 SWAP2 SWAP1 PUSH2 0x244B JUMP JUMPDEST SWAP3 POP POP DUP1 DUP1 PUSH1 0x1 ADD SWAP2 POP POP PUSH2 0x88C JUMP JUMPDEST POP DUP1 CALLVALUE EQ PUSH2 0xA63 JUMPI PUSH1 0x40 MLOAD PUSH32 0x8C379A000000000000000000000000000000000000000000000000000000000 DUP2 MSTORE PUSH1 0x4 ADD PUSH2 0xA5A SWAP1 PUSH2 0x24C8 JUMP JUMPDEST PUSH1 0x40 MLOAD DUP1 SWAP2 SUB SWAP1 REVERT JUMPDEST PUSH0 DUP1 PUSH0 DUP2 SLOAD DUP1 SWAP3 SWAP2 SWAP1 PUSH2 0xA75 SWAP1 PUSH2 0x24E6 JUMP JUMPDEST SWAP2 SWAP1 POP SSTORE SWAP1 POP PUSH1 0x40 MLOAD DUP1 PUSH1 0xE0 ADD PUSH1 0x40 MSTORE DUP1 DUP3 DUP2 MSTORE PUSH1 0x20 ADD CALLER PUSH20 0xFFFFFFFFFFFFFFFFFFFFFFFFFFFFFFFFFFFFFFFF AND DUP2 MSTORE PUSH1 0x20 ADD DUP4 DUP2 MSTORE PUSH1 0x20 ADD DUP5 DUP2 MSTORE PUSH1 0x20 ADD PUSH0 PUSH1 0x3 DUP2 GT ISZERO PUSH2 0xAC7 JUMPI PUSH2 0xAC6 PUSH2 0x1ECA JUMP JUMPDEST JUMPDEST DUP2 MSTORE PUSH1 0x20 ADD DUP6 PUSH20 0xFFFFFFFFFFFFFFFFFFFFFFFFFFFFFFFFFFFFFFFF AND DUP2 MSTORE PUSH1 0x20 ADD TIMESTAMP DUP2 MSTORE POP PUSH1 0x3 PUSH0 DUP4 DUP2 MSTORE PUSH1 0x20 ADD SWAP1 DUP2 MSTORE PUSH1 0x20 ADD PUSH0 KECCAK256 PUSH0 DUP3 ADD MLOAD DUP2 PUSH0 ADD SSTORE PUSH1 0x20 DUP3 ADD MLOAD DUP2 PUSH1 0x1 ADD PUSH0 PUSH2 0x100 EXP DUP2 SLOAD DUP2 PUSH20 0xFFFFFFFFFFFFFFFFFFFFFFFFFFFFFFFFFFFFFFFF MUL NOT AND SWAP1 DUP4 PUSH20 0xFFFFFFFFFFFFFFFFFFFFFFFFFFFFFFFFFFFFFFFF AND MUL OR SWAP1 SSTORE POP PUSH1 0x40 DUP3 ADD MLOAD DUP2 PUSH1 0x2 ADD SSTORE PUSH1 0x60 DUP3 ADD MLOAD DUP2 PUSH1 0x3 ADD SWAP1 DUP1 MLOAD SWAP1 PUSH1 0x20 ADD SWAP1 PUSH2 0xB71 SWAP3 SWAP2 SWAP1 PUSH2 0x1704 JUMP JUMPDEST POP PUSH1 0x80 DUP3 ADD MLOAD DUP2 PUSH1 0x4 ADD PUSH0 PUSH2 0x100 EXP DUP2 SLOAD DUP2 PUSH1 0xFF MUL NOT AND SWAP1 DUP4 PUSH1 0x3 DUP2 GT ISZERO PUSH2 0xB9C JUMPI PUSH2 0xB9B PUSH2 0x1ECA JUMP JUMPDEST JUMPDEST MUL OR SWAP1 SSTORE POP PUSH1 0xA0 DUP3 ADD MLOAD DUP2 PUSH1 0x4 ADD PUSH1 0x1 PUSH2 0x100 EXP DUP2 SLOAD DUP2 PUSH20 0xFFFFFFFFFFFFFFFFFFFFFFFFFFFFFFFFFFFFFFFF MUL NOT AND SWAP1 DUP4 PUSH20 0xFFFFFFFFFFFFFFFFFFFFFFFFFFFFFFFFFFFFFFFF AND MUL OR SWAP1 SSTORE POP PUSH1 0xC0 DUP3 ADD MLOAD DUP2 PUSH1 0x5 ADD SSTORE SWAP1 POP POP PUSH1 0x4 PUSH0 CALLER PUSH20 0xFFFFFFFFFFFFFFFFFFFFFFFFFFFFFFFFFFFFFFFF AND PUSH20 0xFFFFFFFFFFFFFFFFFFFFFFFFFFFFFFFFFFFFFFFF AND DUP2 MSTORE PUSH1 0x20 ADD SWAP1 DUP2 MSTORE PUSH1 0x20 ADD PUSH0 KECCAK256 DUP2 SWAP1 DUP1 PUSH1 0x1 DUP2 SLOAD ADD DUP1 DUP3 SSTORE DUP1 SWAP2 POP POP PUSH1 0x1 SWAP1 SUB SWAP1 PUSH0 MSTORE PUSH1 0x20 PUSH0 KECCAK256 ADD PUSH0 SWAP1 SWAP2 SWAP1 SWAP2 SWAP1 SWAP2 POP SSTORE DUP4 PUSH20 0xFFFFFFFFFFFFFFFFFFFFFFFFFFFFFFFFFFFFFFFF AND CALLER PUSH20 0xFFFFFFFFFFFFFFFFFFFFFFFFFFFFFFFFFFFFFFFF AND DUP3 PUSH32 0xAF03488DA094BC08F76858B3B2A0C36A13217C95790C77139137FC6E062BA9CD DUP6 PUSH1 0x40 MLOAD PUSH2 0xCB4 SWAP2 SWAP1 PUSH2 0x1A92 JUMP JUMPDEST PUSH1 0x40 MLOAD DUP1 SWAP2 SUB SWAP1 LOG4 POP POP POP POP JUMP JUMPDEST PUSH1 0x1 PUSH0 CALLER PUSH20 0xFFFFFFFFFFFFFFFFFFFFFFFFFFFFFFFFFFFFFFFF AND PUSH20 0xFFFFFFFFFFFFFFFFFFFFFFFFFFFFFFFFFFFFFFFF AND DUP2 MSTORE PUSH1 0x20 ADD SWAP1 DUP2 MSTORE PUSH1 0x20 ADD PUSH0 KECCAK256 PUSH1 0x3 ADD PUSH0 SWAP1 SLOAD SWAP1 PUSH2 0x100 EXP SWAP1 DIV PUSH1 0xFF AND PUSH2 0xD4E JUMPI PUSH1 0x40 MLOAD PUSH32 0x8C379A000000000000000000000000000000000000000000000000000000000 DUP2 MSTORE PUSH1 0x4 ADD PUSH2 0xD45 SWAP1 PUSH2 0x220D JUMP JUMPDEST PUSH1 0x40 MLOAD DUP1 SWAP2 SUB SWAP1 REVERT JUMPDEST PUSH0 PUSH1 0x2 PUSH0 CALLER PUSH20 0xFFFFFFFFFFFFFFFFFFFFFFFFFFFFFFFFFFFFFFFF AND PUSH20 0xFFFFFFFFFFFFFFFFFFFFFFFFFFFFFFFFFFFFFFFF AND DUP2 MSTORE PUSH1 0x20 ADD SWAP1 DUP2 MSTORE PUSH1 0x20 ADD PUSH0 KECCAK256 PUSH0 DUP5 DUP2 MSTORE PUSH1 0x20 ADD SWAP1 DUP2 MSTORE PUSH1 0x20 ADD PUSH0 KECCAK256 PUSH1 0x1 ADD SLOAD GT PUSH2 0xDDF JUMPI PUSH1 0x40 MLOAD PUSH32 0x8C379A000000000000000000000000000000000000000000000000000000000 DUP2 MSTORE PUSH1 0x4 ADD PUSH2 0xDD6 SWAP1 PUSH2 0x2577 JUMP JUMPDEST PUSH1 0x40 MLOAD DUP1 SWAP2 SUB SWAP1 REVERT JUMPDEST DUP1 PUSH1 0x2 PUSH0 CALLER PUSH20 0xFFFFFFFFFFFFFFFFFFFFFFFFFFFFFFFFFFFFFFFF AND PUSH20 0xFFFFFFFFFFFFFFFFFFFFFFFFFFFFFFFFFFFFFFFF AND DUP2 MSTORE PUSH1 0x20 ADD SWAP1 DUP2 MSTORE PUSH1 0x20 ADD PUSH0 KECCAK256 PUSH0 DUP5 DUP2 MSTORE PUSH1 0x20 ADD SWAP1 DUP2 MSTORE PUSH1 0x20 ADD PUSH0 KECCAK256 PUSH1 0x2 ADD PUSH0 PUSH2 0x100 EXP DUP2 SLOAD DUP2 PUSH1 0xFF MUL NOT AND SWAP1 DUP4 ISZERO ISZERO MUL OR SWAP1 SSTORE POP POP POP JUMP JUMPDEST PUSH1 0x1 PUSH0 CALLER PUSH20 0xFFFFFFFFFFFFFFFFFFFFFFFFFFFFFFFFFFFFFFFF AND PUSH20 0xFFFFFFFFFFFFFFFFFFFFFFFFFFFFFFFFFFFFFFFF AND DUP2 MSTORE PUSH1 0x20 ADD SWAP1 DUP2 MSTORE PUSH1 0x20 ADD PUSH0 KECCAK256 PUSH1 0x3 ADD PUSH0 SWAP1 SLOAD SWAP1 PUSH2 0x100 EXP SWAP1 DIV PUSH1 0xFF AND ISZERO PUSH2 0xED6 JUMPI PUSH1 0x40 MLOAD PUSH32 0x8C379A000000000000000000000000000000000000000000000000000000000 DUP2 MSTORE PUSH1 0x4 ADD PUSH2 0xECD SWAP1 PUSH2 0x2605 JUMP JUMPDEST PUSH1 0x40 MLOAD DUP1 SWAP2 SUB SWAP1 REVERT JUMPDEST PUSH1 0x40 MLOAD DUP1 PUSH1 0x80 ADD PUSH1 0x40 MSTORE DUP1 DUP4 DUP2 MSTORE PUSH1 0x20 ADD DUP3 DUP2 MSTORE PUSH1 0x20 ADD TIMESTAMP DUP2 MSTORE PUSH1 0x20 ADD PUSH1 0x1 ISZERO ISZERO DUP2 MSTORE POP PUSH1 0x1 PUSH0 CALLER PUSH20 0xFFFFFFFFFFFFFFFFFFFFFFFFFFFFFFFFFFFFFFFF AND PUSH20 0xFFFFFFFFFFFFFFFFFFFFFFFFFFFFFFFFFFFFFFFF AND DUP2 MSTORE PUSH1 0x20 ADD SWAP1 DUP2 MSTORE PUSH1 0x20 ADD PUSH0 KECCAK256 PUSH0 DUP3 ADD MLOAD DUP2 PUSH0 ADD SWAP1 DUP2 PUSH2 0xF4A SWAP2 SWAP1 PUSH2 0x27C0 JUMP JUMPDEST POP PUSH1 0x20 DUP3 ADD MLOAD DUP2 PUSH1 0x1 ADD SWAP1 DUP2 PUSH2 0xF60 SWAP2 SWAP1 PUSH2 0x27C0 JUMP JUMPDEST POP PUSH1 0x40 DUP3 ADD MLOAD DUP2 PUSH1 0x2 ADD SSTORE PUSH1 0x60 DUP3 ADD MLOAD DUP2 PUSH1 0x3 ADD PUSH0 PUSH2 0x100 EXP DUP2 SLOAD DUP2 PUSH1 0xFF MUL NOT AND SWAP1 DUP4 ISZERO ISZERO MUL OR SWAP1 SSTORE POP SWAP1 POP POP CALLER PUSH20 0xFFFFFFFFFFFFFFFFFFFFFFFFFFFFFFFFFFFFFFFF AND PUSH32 0xB56B53292C5DD9885C6378743872B8126C9486B0BD1F95FE4CBC4B8842340E6F DUP4 PUSH1 0x40 MLOAD PUSH2 0xFD3 SWAP2 SWAP1 PUSH2 0x288F JUMP JUMPDEST PUSH1 0x40 MLOAD DUP1 SWAP2 SUB SWAP1 LOG2 POP POP JUMP JUMPDEST PUSH1 0x1 PUSH0 CALLER PUSH20 0xFFFFFFFFFFFFFFFFFFFFFFFFFFFFFFFFFFFFFFFF AND PUSH20 0xFFFFFFFFFFFFFFFFFFFFFFFFFFFFFFFFFFFFFFFF AND DUP2 MSTORE PUSH1 0x20 ADD SWAP1 DUP2 MSTORE PUSH1 0x20 ADD PUSH0 KECCAK256 PUSH1 0x3 ADD PUSH0 SWAP1 SLOAD SWAP1 PUSH2 0x100 EXP SWAP1 DIV PUSH1 0xFF AND PUSH2 0x106B JUMPI PUSH1 0x40 MLOAD PUSH32 0x8C379A000000000000000000000000000000000000000000000000000000000 DUP2 MSTORE PUSH1 0x4 ADD PUSH2 0x1062 SWAP1 PUSH2 0x220D JUMP JUMPDEST PUSH1 0x40 MLOAD DUP1 SWAP2 SUB SWAP1 REVERT JUMPDEST PUSH0 DUP2 GT PUSH2 0x10AD JUMPI PUSH1 0x40 MLOAD PUSH32 0x8C379A000000000000000000000000000000000000000000000000000000000 DUP2 MSTORE PUSH1 0x4 ADD PUSH2 0x10A4 SWAP1 PUSH2 0x28F9 JUMP JUMPDEST PUSH1 0x40 MLOAD DUP1 SWAP2 SUB SWAP1 REVERT JUMPDEST PUSH1 0x40 MLOAD DUP1 PUSH1 0x60 ADD PUSH1 0x40 MSTORE DUP1 DUP4 DUP2 MSTORE PUSH1 0x20 ADD DUP3 DUP2 MSTORE PUSH1 0x20 ADD PUSH1 0x1 ISZERO ISZERO DUP2 MSTORE POP PUSH1 0x2 PUSH0 CALLER PUSH20 0xFFFFFFFFFFFFFFFFFFFFFFFFFFFFFFFFFFFFFFFF AND PUSH20 0xFFFFFFFFFFFFFFFFFFFFFFFFFFFFFFFFFFFFFFFF AND DUP2 MSTORE PUSH1 0x20 ADD SWAP1 DUP2 MSTORE PUSH1 0x20 ADD PUSH0 KECCAK256 PUSH0 DUP6 DUP2 MSTORE PUSH1 0x20 ADD SWAP1 DUP2 MSTORE PUSH1 0x20 ADD PUSH0 KECCAK256 PUSH0 DUP3 ADD MLOAD DUP2 PUSH0 ADD SWAP1 DUP2 PUSH2 0x112A SWAP2 SWAP1 PUSH2 0x27C0 JUMP JUMPDEST POP PUSH1 0x20 DUP3 ADD MLOAD DUP2 PUSH1 0x1 ADD SSTORE PUSH1 0x40 DUP3 ADD MLOAD DUP2 PUSH1 0x2 ADD PUSH0 PUSH2 0x100 EXP DUP2 SLOAD DUP2 PUSH1 0xFF MUL NOT AND SWAP1 DUP4 ISZERO ISZERO MUL OR SWAP1 SSTORE POP SWAP1 POP POP CALLER PUSH20 0xFFFFFFFFFFFFFFFFFFFFFFFFFFFFFFFFFFFFFFFF AND PUSH32 0x822563858B337586F3CFA8A87A287BE8BB4E789FDA4D4A6DFBC3D6A748A666AB DUP5 DUP5 DUP5 PUSH1 0x40 MLOAD PUSH2 0x11A1 SWAP4 SWAP3 SWAP2 SWAP1 PUSH2 0x2917 JUMP JUMPDEST PUSH1 0x40 MLOAD DUP1 SWAP2 SUB SWAP1 LOG2 POP POP POP JUMP JUMPDEST PUSH1 0x3 PUSH1 0x20 MSTORE DUP1 PUSH0 MSTORE PUSH1 0x40 PUSH0 KECCAK256 PUSH0 SWAP2 POP SWAP1 POP DUP1 PUSH0 ADD SLOAD SWAP1 DUP1 PUSH1 0x1 ADD PUSH0 SWAP1 SLOAD SWAP1 PUSH2 0x100 EXP SWAP1 DIV PUSH20 0xFFFFFFFFFFFFFFFFFFFFFFFFFFFFFFFFFFFFFFFF AND SWAP1 DUP1 PUSH1 0x2 ADD SLOAD SWAP1 DUP1 PUSH1 0x4 ADD PUSH0 SWAP1 SLOAD SWAP1 PUSH2 0x100 EXP SWAP1 DIV PUSH1 0xFF AND SWAP1 DUP1 PUSH1 0x4 ADD PUSH1 0x1 SWAP1 SLOAD SWAP1 PUSH2 0x100 EXP SWAP1 DIV PUSH20 0xFFFFFFFFFFFFFFFFFFFFFFFFFFFFFFFFFFFFFFFF AND SWAP1 DUP1 PUSH1 0x5 ADD SLOAD SWAP1 POP DUP7 JUMP JUMPDEST PUSH1 0x1 PUSH0 CALLER PUSH20 0xFFFFFFFFFFFFFFFFFFFFFFFFFFFFFFFFFFFFFFFF AND PUSH20 0xFFFFFFFFFFFFFFFFFFFFFFFFFFFFFFFFFFFFFFFF AND DUP2 MSTORE PUSH1 0x20 ADD SWAP1 DUP2 MSTORE PUSH1 0x20 ADD PUSH0 KECCAK256 PUSH1 0x3 ADD PUSH0 SWAP1 SLOAD SWAP1 PUSH2 0x100 EXP SWAP1 DIV PUSH1 0xFF AND PUSH2 0x12BD JUMPI PUSH1 0x40 MLOAD PUSH32 0x8C379A000000000000000000000000000000000000000000000000000000000 DUP2 MSTORE PUSH1 0x4 ADD PUSH2 0x12B4 SWAP1 PUSH2 0x220D JUMP JUMPDEST PUSH1 0x40 MLOAD DUP1 SWAP2 SUB SWAP1 REVERT JUMPDEST PUSH0 PUSH1 0x3 PUSH0 DUP5 DUP2 MSTORE PUSH1 0x20 ADD SWAP1 DUP2 MSTORE PUSH1 0x20 ADD PUSH0 KECCAK256 SWAP1 POP CALLER PUSH20 0xFFFFFFFFFFFFFFFFFFFFFFFFFFFFFFFFFFFFFFFF AND DUP2 PUSH1 0x4 ADD PUSH1 0x1 SWAP1 SLOAD SWAP1 PUSH2 0x100 EXP SWAP1 DIV PUSH20 0xFFFFFFFFFFFFFFFFFFFFFFFFFFFFFFFFFFFFFFFF AND PUSH20 0xFFFFFFFFFFFFFFFFFFFFFFFFFFFFFFFFFFFFFFFF AND EQ PUSH2 0x1363 JUMPI PUSH1 0x40 MLOAD PUSH32 0x8C379A000000000000000000000000000000000000000000000000000000000 DUP2 MSTORE PUSH1 0x4 ADD PUSH2 0x135A SWAP1 PUSH2 0x29C3 JUMP JUMPDEST PUSH1 0x40 MLOAD DUP1 SWAP2 SUB SWAP1 REVERT JUMPDEST DUP2 DUP2 PUSH1 0x4 ADD PUSH0 PUSH2 0x100 EXP DUP2 SLOAD DUP2 PUSH1 0xFF MUL NOT AND SWAP1 DUP4 PUSH1 0x3 DUP2 GT ISZERO PUSH2 0x1389 JUMPI PUSH2 0x1388 PUSH2 0x1ECA JUMP JUMPDEST JUMPDEST MUL OR SWAP1 SSTORE POP DUP3 PUSH32 0xD9A86B644EB5F5B43CC8A700849852481080361C7A4B00BA646D1B46C5585F95 DUP4 PUSH1 0x40 MLOAD PUSH2 0x13BE SWAP2 SWAP1 PUSH2 0x29E1 JUMP JUMPDEST PUSH1 0x40 MLOAD DUP1 SWAP2 SUB SWAP1 LOG2 POP POP POP JUMP JUMPDEST PUSH1 0x60 DUP1 PUSH0 DUP1 PUSH0 PUSH1 0x1 PUSH0 DUP8 PUSH20 0xFFFFFFFFFFFFFFFFFFFFFFFFFFFFFFFFFFFFFFFF AND PUSH20 0xFFFFFFFFFFFFFFFFFFFFFFFFFFFFFFFFFFFFFFFF AND DUP2 MSTORE PUSH1 0x20 ADD SWAP1 DUP2 MSTORE PUSH1 0x20 ADD PUSH0 KECCAK256 PUSH1 0x40 MLOAD DUP1 PUSH1 0x80 ADD PUSH1 0x40 MSTORE SWAP1 DUP2 PUSH0 DUP3 ADD DUP1 SLOAD PUSH2 0x1428 SWAP1 PUSH2 0x216D JUMP JUMPDEST DUP1 PUSH1 0x1F ADD PUSH1 0x20 DUP1 SWAP2 DIV MUL PUSH1 0x20 ADD PUSH1 0x40 MLOAD SWAP1 DUP2 ADD PUSH1 0x40 MSTORE DUP1 SWAP3 SWAP2 SWAP1 DUP2 DUP2 MSTORE PUSH1 0x20 ADD DUP3 DUP1 SLOAD PUSH2 0x1454 SWAP1 PUSH2 0x216D JUMP JUMPDEST DUP1 ISZERO PUSH2 0x149F JUMPI DUP1 PUSH1 0x1F LT PUSH2 0x1476 JUMPI PUSH2 0x100 DUP1 DUP4 SLOAD DIV MUL DUP4 MSTORE SWAP2 PUSH1 0x20 ADD SWAP2 PUSH2 0x149F JUMP JUMPDEST DUP3 ADD SWAP2 SWAP1 PUSH0 MSTORE PUSH1 0x20 PUSH0 KECCAK256 SWAP1 JUMPDEST DUP2 SLOAD DUP2 MSTORE SWAP1 PUSH1 0x1 ADD SWAP1 PUSH1 0x20 ADD DUP1 DUP4 GT PUSH2 0x1482 JUMPI DUP3 SWAP1 SUB PUSH1 0x1F AND DUP3 ADD SWAP2 JUMPDEST POP POP POP POP POP DUP2 MSTORE PUSH1 0x20 ADD PUSH1 0x1 DUP3 ADD DUP1 SLOAD PUSH2 0x14B8 SWAP1 PUSH2 0x216D JUMP JUMPDEST DUP1 PUSH1 0x1F ADD PUSH1 0x20 DUP1 SWAP2 DIV MUL PUSH1 0x20 ADD PUSH1 0x40 MLOAD SWAP1 DUP2 ADD PUSH1 0x40 MSTORE DUP1 SWAP3 SWAP2 SWAP1 DUP2 DUP2 MSTORE PUSH1 0x20 ADD DUP3 DUP1 SLOAD PUSH2 0x14E4 SWAP1 PUSH2 0x216D JUMP JUMPDEST DUP1 ISZERO PUSH2 0x152F JUMPI DUP1 PUSH1 0x1F LT PUSH2 0x1506 JUMPI PUSH2 0x100 DUP1 DUP4 SLOAD DIV MUL DUP4 MSTORE SWAP2 PUSH1 0x20 ADD SWAP2 PUSH2 0x152F JUMP JUMPDEST DUP3 ADD SWAP2 SWAP1 PUSH0 MSTORE PUSH1 0x20 PUSH0 KECCAK256 SWAP1 JUMPDEST DUP2 SLOAD DUP2 MSTORE SWAP1 PUSH1 0x1 ADD SWAP1 PUSH1 0x20 ADD DUP1 DUP4 GT PUSH2 0x1512 JUMPI DUP3 SWAP1 SUB PUSH1 0x1F AND DUP3 ADD SWAP2 JUMPDEST POP POP POP POP POP DUP2 MSTORE PUSH1 0x20 ADD PUSH1 0x2 DUP3 ADD SLOAD DUP2 MSTORE PUSH1 0x20 ADD PUSH1 0x3 DUP3 ADD PUSH0 SWAP1 SLOAD SWAP1 PUSH2 0x100 EXP SWAP1 DIV PUSH1 0xFF AND ISZERO ISZERO ISZERO ISZERO DUP2 MSTORE POP POP SWAP1 POP DUP1 PUSH0 ADD MLOAD DUP2 PUSH1 0x20 ADD MLOAD DUP3 PUSH1 0x40 ADD MLOAD DUP4 PUSH1 0x60 ADD MLOAD SWAP5 POP SWAP5 POP SWAP5 POP SWAP5 POP POP SWAP2 SWAP4 POP SWAP2 SWAP4 JUMP JUMPDEST PUSH2 0x1589 PUSH2 0x174F JUMP JUMPDEST PUSH1 0x3 PUSH0 DUP4 DUP2 MSTORE PUSH1 0x20 ADD SWAP1 DUP2 MSTORE PUSH1 0x20 ADD PUSH0 KECCAK256 PUSH1 0x40 MLOAD DUP1 PUSH1 0xE0 ADD PUSH1 0x40 MSTORE SWAP1 DUP2 PUSH0 DUP3 ADD SLOAD DUP2 MSTORE PUSH1 0x20 ADD PUSH1 0x1 DUP3 ADD PUSH0 SWAP1 SLOAD SWAP1 PUSH2 0x100 EXP SWAP1 DIV PUSH20 0xFFFFFFFFFFFFFFFFFFFFFFFFFFFFFFFFFFFFFFFF AND PUSH20 0xFFFFFFFFFFFFFFFFFFFFFFFFFFFFFFFFFFFFFFFF AND PUSH20 0xFFFFFFFFFFFFFFFFFFFFFFFFFFFFFFFFFFFFFFFF AND DUP2 MSTORE PUSH1 0x20 ADD PUSH1 0x2 DUP3 ADD SLOAD DUP2 MSTORE PUSH1 0x20 ADD PUSH1 0x3 DUP3 ADD DUP1 SLOAD DUP1 PUSH1 0x20 MUL PUSH1 0x20 ADD PUSH1 0x40 MLOAD SWAP1 DUP2 ADD PUSH1 0x40 MSTORE DUP1 SWAP3 SWAP2 SWAP1 DUP2 DUP2 MSTORE PUSH1 0x20 ADD DUP3 DUP1 SLOAD DUP1 ISZERO PUSH2 0x165A JUMPI PUSH1 0x20 MUL DUP3 ADD SWAP2 SWAP1 PUSH0 MSTORE PUSH1 0x20 PUSH0 KECCAK256 SWAP1 JUMPDEST DUP2 SLOAD DUP2 MSTORE PUSH1 0x20 ADD SWAP1 PUSH1 0x1 ADD SWAP1 DUP1 DUP4 GT PUSH2 0x1646 JUMPI JUMPDEST POP POP POP POP POP DUP2 MSTORE PUSH1 0x20 ADD PUSH1 0x4 DUP3 ADD PUSH0 SWAP1 SLOAD SWAP1 PUSH2 0x100 EXP SWAP1 DIV PUSH1 0xFF AND PUSH1 0x3 DUP2 GT ISZERO PUSH2 0x1687 JUMPI PUSH2 0x1686 PUSH2 0x1ECA JUMP JUMPDEST JUMPDEST PUSH1 0x3 DUP2 GT ISZERO PUSH2 0x1699 JUMPI PUSH2 0x1698 PUSH2 0x1ECA JUMP JUMPDEST JUMPDEST DUP2 MSTORE PUSH1 0x20 ADD PUSH1 0x4 DUP3 ADD PUSH1 0x1 SWAP1 SLOAD SWAP1 PUSH2 0x100 EXP SWAP1 DIV PUSH20 0xFFFFFFFFFFFFFFFFFFFFFFFFFFFFFFFFFFFFFFFF AND PUSH20 0xFFFFFFFFFFFFFFFFFFFFFFFFFFFFFFFFFFFFFFFF AND PUSH20 0xFFFFFFFFFFFFFFFFFFFFFFFFFFFFFFFFFFFFFFFF AND DUP2 MSTORE PUSH1 0x20 ADD PUSH1 0x5 DUP3 ADD SLOAD DUP2 MSTORE POP POP SWAP1 POP SWAP2 SWAP1 POP JUMP JUMPDEST DUP3 DUP1 SLOAD DUP3 DUP3 SSTORE SWAP1 PUSH0 MSTORE PUSH1 0x20 PUSH0 KECCAK256 SWAP1 DUP2 ADD SWAP3 DUP3 ISZERO PUSH2 0x173E JUMPI SWAP2 PUSH1 0x20 MUL DUP3 ADD JUMPDEST DUP3 DUP2 GT ISZERO PUSH2 0x173D JUMPI DUP3 MLOAD DUP3 SSTORE SWAP2 PUSH1 0x20 ADD SWAP2 SWAP1 PUSH1 0x1 ADD SWAP1 PUSH2 0x1722 JUMP JUMPDEST JUMPDEST POP SWAP1 POP PUSH2 0x174B SWAP2 SWAP1 PUSH2 0x17C4 JUMP JUMPDEST POP SWAP1 JUMP JUMPDEST PUSH1 0x40 MLOAD DUP1 PUSH1 0xE0 ADD PUSH1 0x40 MSTORE DUP1 PUSH0 DUP2 MSTORE PUSH1 0x20 ADD PUSH0 PUSH20 0xFFFFFFFFFFFFFFFFFFFFFFFFFFFFFFFFFFFFFFFF AND DUP2 MSTORE PUSH1 0x20 ADD PUSH0 DUP2 MSTORE PUSH1 0x20 ADD PUSH1 0x60 DUP2 MSTORE PUSH1 0x20 ADD PUSH0 PUSH1 0x3 DUP2 GT ISZERO PUSH2 0x179C JUMPI PUSH2 0x179B PUSH2 0x1ECA JUMP JUMPDEST JUMPDEST DUP2 MSTORE PUSH1 0x20 ADD PUSH0 PUSH20 0xFFFFFFFFFFFFFFFFFFFFFFFFFFFFFFFFFFFFFFFF AND DUP2 MSTORE PUSH1 0x20 ADD PUSH0 DUP2 MSTORE POP SWAP1 JUMP JUMPDEST JUMPDEST DUP1 DUP3 GT ISZERO PUSH2 0x17DB JUMPI PUSH0 DUP2 PUSH0 SWAP1 SSTORE POP PUSH1 0x1 ADD PUSH2 0x17C5 JUMP JUMPDEST POP SWAP1 JUMP JUMPDEST PUSH0 PUSH1 0x40 MLOAD SWAP1 POP SWAP1 JUMP JUMPDEST PUSH0 DUP1 REVERT JUMPDEST PUSH0 DUP1 REVERT JUMPDEST PUSH0 PUSH20 0xFFFFFFFFFFFFFFFFFFFFFFFFFFFFFFFFFFFFFFFF DUP3 AND SWAP1 POP SWAP2 SWAP1 POP JUMP JUMPDEST PUSH0 PUSH2 0x1819 DUP3 PUSH2 0x17F0 JUMP JUMPDEST SWAP1 POP SWAP2 SWAP1 POP JUMP JUMPDEST PUSH2 0x1829 DUP2 PUSH2 0x180F JUMP JUMPDEST DUP2 EQ PUSH2 0x1833 JUMPI PUSH0 DUP1 REVERT JUMPDEST POP JUMP JUMPDEST PUSH0 DUP2 CALLDATALOAD SWAP1 POP PUSH2 0x1844 DUP2 PUSH2 0x1820 JUMP JUMPDEST SWAP3 SWAP2 POP POP JUMP JUMPDEST PUSH0 DUP2 SWAP1 POP SWAP2 SWAP1 POP JUMP JUMPDEST PUSH2 0x185C DUP2 PUSH2 0x184A JUMP JUMPDEST DUP2 EQ PUSH2 0x1866 JUMPI PUSH0 DUP1 REVERT JUMPDEST POP JUMP JUMPDEST PUSH0 DUP2 CALLDATALOAD SWAP1 POP PUSH2 0x1877 DUP2 PUSH2 0x1853 JUMP JUMPDEST SWAP3 SWAP2 POP POP JUMP JUMPDEST PUSH0 DUP1 PUSH1 0x40 DUP4 DUP6 SUB SLT ISZERO PUSH2 0x1893 JUMPI PUSH2 0x1892 PUSH2 0x17E8 JUMP JUMPDEST JUMPDEST PUSH0 PUSH2 0x18A0 DUP6 DUP3 DUP7 ADD PUSH2 0x1836 JUMP JUMPDEST SWAP3 POP POP PUSH1 0x20 PUSH2 0x18B1 DUP6 DUP3 DUP7 ADD PUSH2 0x1869 JUMP JUMPDEST SWAP2 POP POP SWAP3 POP SWAP3 SWAP1 POP JUMP JUMPDEST PUSH0 DUP2 MLOAD SWAP1 POP SWAP2 SWAP1 POP JUMP JUMPDEST PUSH0 DUP3 DUP3 MSTORE PUSH1 0x20 DUP3 ADD SWAP1 POP SWAP3 SWAP2 POP POP JUMP JUMPDEST DUP3 DUP2 DUP4 MCOPY PUSH0 DUP4 DUP4 ADD MSTORE POP POP POP JUMP JUMPDEST PUSH0 PUSH1 0x1F NOT PUSH1 0x1F DUP4 ADD AND SWAP1 POP SWAP2 SWAP1 POP JUMP JUMPDEST PUSH0 PUSH2 0x18FD DUP3 PUSH2 0x18BB JUMP JUMPDEST PUSH2 0x1907 DUP2 DUP6 PUSH2 0x18C5 JUMP JUMPDEST SWAP4 POP PUSH2 0x1917 DUP2 DUP6 PUSH1 0x20 DUP7 ADD PUSH2 0x18D5 JUMP JUMPDEST PUSH2 0x1920 DUP2 PUSH2 0x18E3 JUMP JUMPDEST DUP5 ADD SWAP2 POP POP SWAP3 SWAP2 POP POP JUMP JUMPDEST PUSH2 0x1934 DUP2 PUSH2 0x184A JUMP JUMPDEST DUP3 MSTORE POP POP JUMP JUMPDEST PUSH0 DUP2 ISZERO ISZERO SWAP1 POP SWAP2 SWAP1 POP JUMP JUMPDEST PUSH2 0x194E DUP2 PUSH2 0x193A JUMP JUMPDEST DUP3 MSTORE POP POP JUMP JUMPDEST PUSH0 PUSH1 0x60 DUP3 ADD SWAP1 POP DUP2 DUP2 SUB PUSH0 DUP4 ADD MSTORE PUSH2 0x196C DUP2 DUP7 PUSH2 0x18F3 JUMP JUMPDEST SWAP1 POP PUSH2 0x197B PUSH1 0x20 DUP4 ADD DUP6 PUSH2 0x192B JUMP JUMPDEST PUSH2 0x1988 PUSH1 0x40 DUP4 ADD DUP5 PUSH2 0x1945 JUMP JUMPDEST SWAP5 SWAP4 POP POP POP POP JUMP JUMPDEST PUSH0 PUSH1 0x20 DUP3 DUP5 SUB SLT ISZERO PUSH2 0x19A5 JUMPI PUSH2 0x19A4 PUSH2 0x17E8 JUMP JUMPDEST JUMPDEST PUSH0 PUSH2 0x19B2 DUP5 DUP3 DUP6 ADD PUSH2 0x1836 JUMP JUMPDEST SWAP2 POP POP SWAP3 SWAP2 POP POP JUMP JUMPDEST PUSH0 DUP2 MLOAD SWAP1 POP SWAP2 SWAP1 POP JUMP JUMPDEST PUSH0 DUP3 DUP3 MSTORE PUSH1 0x20 DUP3 ADD SWAP1 POP SWAP3 SWAP2 POP POP JUMP JUMPDEST PUSH0 DUP2 SWAP1 POP PUSH1 0x20 DUP3 ADD SWAP1 POP SWAP2 SWAP1 POP JUMP JUMPDEST PUSH2 0x19ED DUP2 PUSH2 0x184A JUMP JUMPDEST DUP3 MSTORE POP POP JUMP JUMPDEST PUSH0 PUSH2 0x19FE DUP4 DUP4 PUSH2 0x19E4 JUMP JUMPDEST PUSH1 0x20 DUP4 ADD SWAP1 POP SWAP3 SWAP2 POP POP JUMP JUMPDEST PUSH0 PUSH1 0x20 DUP3 ADD SWAP1 POP SWAP2 SWAP1 POP JUMP JUMPDEST PUSH0 PUSH2 0x1A20 DUP3 PUSH2 0x19BB JUMP JUMPDEST PUSH2 0x1A2A DUP2 DUP6 PUSH2 0x19C5 JUMP JUMPDEST SWAP4 POP PUSH2 0x1A35 DUP4 PUSH2 0x19D5 JUMP JUMPDEST DUP1 PUSH0 JUMPDEST DUP4 DUP2 LT ISZERO PUSH2 0x1A65 JUMPI DUP2 MLOAD PUSH2 0x1A4C DUP9 DUP3 PUSH2 0x19F3 JUMP JUMPDEST SWAP8 POP PUSH2 0x1A57 DUP4 PUSH2 0x1A0A JUMP JUMPDEST SWAP3 POP POP PUSH1 0x1 DUP2 ADD SWAP1 POP PUSH2 0x1A38 JUMP JUMPDEST POP DUP6 SWAP4 POP POP POP POP SWAP3 SWAP2 POP POP JUMP JUMPDEST PUSH0 PUSH1 0x20 DUP3 ADD SWAP1 POP DUP2 DUP2 SUB PUSH0 DUP4 ADD MSTORE PUSH2 0x1A8A DUP2 DUP5 PUSH2 0x1A16 JUMP JUMPDEST SWAP1 POP SWAP3 SWAP2 POP POP JUMP JUMPDEST PUSH0 PUSH1 0x20 DUP3 ADD SWAP1 POP PUSH2 0x1AA5 PUSH0 DUP4 ADD DUP5 PUSH2 0x192B JUMP JUMPDEST SWAP3 SWAP2 POP POP JUMP JUMPDEST PUSH0 PUSH1 0x80 DUP3 ADD SWAP1 POP DUP2 DUP2 SUB PUSH0 DUP4 ADD MSTORE PUSH2 0x1AC3 DUP2 DUP8 PUSH2 0x18F3 JUMP JUMPDEST SWAP1 POP DUP2 DUP2 SUB PUSH1 0x20 DUP4 ADD MSTORE PUSH2 0x1AD7 DUP2 DUP7 PUSH2 0x18F3 JUMP JUMPDEST SWAP1 POP PUSH2 0x1AE6 PUSH1 0x40 DUP4 ADD DUP6 PUSH2 0x192B JUMP JUMPDEST PUSH2 0x1AF3 PUSH1 0x60 DUP4 ADD DUP5 PUSH2 0x1945 JUMP JUMPDEST SWAP6 SWAP5 POP POP POP POP POP JUMP JUMPDEST PUSH0 DUP1 REVERT JUMPDEST PUSH32 0x4E487B7100000000000000000000000000000000000000000000000000000000 PUSH0 MSTORE PUSH1 0x41 PUSH1 0x4 MSTORE PUSH1 0x24 PUSH0 REVERT JUMPDEST PUSH2 0x1B36 DUP3 PUSH2 0x18E3 JUMP JUMPDEST DUP2 ADD DUP2 DUP2 LT PUSH8 0xFFFFFFFFFFFFFFFF DUP3 GT OR ISZERO PUSH2 0x1B55 JUMPI PUSH2 0x1B54 PUSH2 0x1B00 JUMP JUMPDEST JUMPDEST DUP1 PUSH1 0x40 MSTORE POP POP POP JUMP JUMPDEST PUSH0 PUSH2 0x1B67 PUSH2 0x17DF JUMP JUMPDEST SWAP1 POP PUSH2 0x1B73 DUP3 DUP3 PUSH2 0x1B2D JUMP JUMPDEST SWAP2 SWAP1 POP JUMP JUMPDEST PUSH0 PUSH8 0xFFFFFFFFFFFFFFFF DUP3 GT ISZERO PUSH2 0x1B92 JUMPI PUSH2 0x1B91 PUSH2 0x1B00 JUMP JUMPDEST JUMPDEST PUSH1 0x20 DUP3 MUL SWAP1 POP PUSH1 0x20 DUP2 ADD SWAP1 POP SWAP2 SWAP1 POP JUMP JUMPDEST PUSH0 DUP1 REVERT JUMPDEST PUSH0 PUSH2 0x1BB9 PUSH2 0x1BB4 DUP5 PUSH2 0x1B78 JUMP JUMPDEST PUSH2 0x1B5E JUMP JUMPDEST SWAP1 POP DUP1 DUP4 DUP3 MSTORE PUSH1 0x20 DUP3 ADD SWAP1 POP PUSH1 0x20 DUP5 MUL DUP4 ADD DUP6 DUP2 GT ISZERO PUSH2 0x1BDC JUMPI PUSH2 0x1BDB PUSH2 0x1BA3 JUMP JUMPDEST JUMPDEST DUP4 JUMPDEST DUP2 DUP2 LT ISZERO PUSH2 0x1C05 JUMPI DUP1 PUSH2 0x1BF1 DUP9 DUP3 PUSH2 0x1869 JUMP JUMPDEST DUP5 MSTORE PUSH1 0x20 DUP5 ADD SWAP4 POP POP PUSH1 0x20 DUP2 ADD SWAP1 POP PUSH2 0x1BDE JUMP JUMPDEST POP POP POP SWAP4 SWAP3 POP POP POP JUMP JUMPDEST PUSH0 DUP3 PUSH1 0x1F DUP4 ADD SLT PUSH2 0x1C23 JUMPI PUSH2 0x1C22 PUSH2 0x1AFC JUMP JUMPDEST JUMPDEST DUP2 CALLDATALOAD PUSH2 0x1C33 DUP5 DUP3 PUSH1 0x20 DUP7 ADD PUSH2 0x1BA7 JUMP JUMPDEST SWAP2 POP POP SWAP3 SWAP2 POP POP JUMP JUMPDEST PUSH0 DUP1 PUSH1 0x40 DUP4 DUP6 SUB SLT ISZERO PUSH2 0x1C52 JUMPI PUSH2 0x1C51 PUSH2 0x17E8 JUMP JUMPDEST JUMPDEST PUSH0 PUSH2 0x1C5F DUP6 DUP3 DUP7 ADD PUSH2 0x1836 JUMP JUMPDEST SWAP3 POP POP PUSH1 0x20 DUP4 ADD CALLDATALOAD PUSH8 0xFFFFFFFFFFFFFFFF DUP2 GT ISZERO PUSH2 0x1C80 JUMPI PUSH2 0x1C7F PUSH2 0x17EC JUMP JUMPDEST JUMPDEST PUSH2 0x1C8C DUP6 DUP3 DUP7 ADD PUSH2 0x1C0F JUMP JUMPDEST SWAP2 POP POP SWAP3 POP SWAP3 SWAP1 POP JUMP JUMPDEST PUSH2 0x1C9F DUP2 PUSH2 0x193A JUMP JUMPDEST DUP2 EQ PUSH2 0x1CA9 JUMPI PUSH0 DUP1 REVERT JUMPDEST POP JUMP JUMPDEST PUSH0 DUP2 CALLDATALOAD SWAP1 POP PUSH2 0x1CBA DUP2 PUSH2 0x1C96 JUMP JUMPDEST SWAP3 SWAP2 POP POP JUMP JUMPDEST PUSH0 DUP1 PUSH1 0x40 DUP4 DUP6 SUB SLT ISZERO PUSH2 0x1CD6 JUMPI PUSH2 0x1CD5 PUSH2 0x17E8 JUMP JUMPDEST JUMPDEST PUSH0 PUSH2 0x1CE3 DUP6 DUP3 DUP7 ADD PUSH2 0x1869 JUMP JUMPDEST SWAP3 POP POP PUSH1 0x20 PUSH2 0x1CF4 DUP6 DUP3 DUP7 ADD PUSH2 0x1CAC JUMP JUMPDEST SWAP2 POP POP SWAP3 POP SWAP3 SWAP1 POP JUMP JUMPDEST PUSH0 DUP1 REVERT JUMPDEST PUSH0 PUSH8 0xFFFFFFFFFFFFFFFF DUP3 GT ISZERO PUSH2 0x1D1C JUMPI PUSH2 0x1D1B PUSH2 0x1B00 JUMP JUMPDEST JUMPDEST PUSH2 0x1D25 DUP3 PUSH2 0x18E3 JUMP JUMPDEST SWAP1 POP PUSH1 0x20 DUP2 ADD SWAP1 POP SWAP2 SWAP1 POP JUMP JUMPDEST DUP3 DUP2 DUP4 CALLDATACOPY PUSH0 DUP4 DUP4 ADD MSTORE POP POP POP JUMP JUMPDEST PUSH0 PUSH2 0x1D52 PUSH2 0x1D4D DUP5 PUSH2 0x1D02 JUMP JUMPDEST PUSH2 0x1B5E JUMP JUMPDEST SWAP1 POP DUP3 DUP2 MSTORE PUSH1 0x20 DUP2 ADD DUP5 DUP5 DUP5 ADD GT ISZERO PUSH2 0x1D6E JUMPI PUSH2 0x1D6D PUSH2 0x1CFE JUMP JUMPDEST JUMPDEST PUSH2 0x1D79 DUP5 DUP3 DUP6 PUSH2 0x1D32 JUMP JUMPDEST POP SWAP4 SWAP3 POP POP POP JUMP JUMPDEST PUSH0 DUP3 PUSH1 0x1F DUP4 ADD SLT PUSH2 0x1D95 JUMPI PUSH2 0x1D94 PUSH2 0x1AFC JUMP JUMPDEST JUMPDEST DUP2 CALLDATALOAD PUSH2 0x1DA5 DUP5 DUP3 PUSH1 0x20 DUP7 ADD PUSH2 0x1D40 JUMP JUMPDEST SWAP2 POP POP SWAP3 SWAP2 POP POP JUMP JUMPDEST PUSH0 DUP1 PUSH1 0x40 DUP4 DUP6 SUB SLT ISZERO PUSH2 0x1DC4 JUMPI PUSH2 0x1DC3 PUSH2 0x17E8 JUMP JUMPDEST JUMPDEST PUSH0 DUP4 ADD CALLDATALOAD PUSH8 0xFFFFFFFFFFFFFFFF DUP2 GT ISZERO PUSH2 0x1DE1 JUMPI PUSH2 0x1DE0 PUSH2 0x17EC JUMP JUMPDEST JUMPDEST PUSH2 0x1DED DUP6 DUP3 DUP7 ADD PUSH2 0x1D81 JUMP JUMPDEST SWAP3 POP POP PUSH1 0x20 DUP4 ADD CALLDATALOAD PUSH8 0xFFFFFFFFFFFFFFFF DUP2 GT ISZERO PUSH2 0x1E0E JUMPI PUSH2 0x1E0D PUSH2 0x17EC JUMP JUMPDEST JUMPDEST PUSH2 0x1E1A DUP6 DUP3 DUP7 ADD PUSH2 0x1D81 JUMP JUMPDEST SWAP2 POP POP SWAP3 POP SWAP3 SWAP1 POP JUMP JUMPDEST PUSH0 DUP1 PUSH0 PUSH1 0x60 DUP5 DUP7 SUB SLT ISZERO PUSH2 0x1E3B JUMPI PUSH2 0x1E3A PUSH2 0x17E8 JUMP JUMPDEST JUMPDEST PUSH0 PUSH2 0x1E48 DUP7 DUP3 DUP8 ADD PUSH2 0x1869 JUMP JUMPDEST SWAP4 POP POP PUSH1 0x20 DUP5 ADD CALLDATALOAD PUSH8 0xFFFFFFFFFFFFFFFF DUP2 GT ISZERO PUSH2 0x1E69 JUMPI PUSH2 0x1E68 PUSH2 0x17EC JUMP JUMPDEST JUMPDEST PUSH2 0x1E75 DUP7 DUP3 DUP8 ADD PUSH2 0x1D81 JUMP JUMPDEST SWAP3 POP POP PUSH1 0x40 PUSH2 0x1E86 DUP7 DUP3 DUP8 ADD PUSH2 0x1869 JUMP JUMPDEST SWAP2 POP POP SWAP3 POP SWAP3 POP SWAP3 JUMP JUMPDEST PUSH0 PUSH1 0x20 DUP3 DUP5 SUB SLT ISZERO PUSH2 0x1EA5 JUMPI PUSH2 0x1EA4 PUSH2 0x17E8 JUMP JUMPDEST JUMPDEST PUSH0 PUSH2 0x1EB2 DUP5 DUP3 DUP6 ADD PUSH2 0x1869 JUMP JUMPDEST SWAP2 POP POP SWAP3 SWAP2 POP POP JUMP JUMPDEST PUSH2 0x1EC4 DUP2 PUSH2 0x180F JUMP JUMPDEST DUP3 MSTORE POP POP JUMP JUMPDEST PUSH32 0x4E487B7100000000000000000000000000000000000000000000000000000000 PUSH0 MSTORE PUSH1 0x21 PUSH1 0x4 MSTORE PUSH1 0x24 PUSH0 REVERT JUMPDEST PUSH1 0x4 DUP2 LT PUSH2 0x1F08 JUMPI PUSH2 0x1F07 PUSH2 0x1ECA JUMP JUMPDEST JUMPDEST POP JUMP JUMPDEST PUSH0 DUP2 SWAP1 POP PUSH2 0x1F18 DUP3 PUSH2 0x1EF7 JUMP JUMPDEST SWAP2 SWAP1 POP JUMP JUMPDEST PUSH0 PUSH2 0x1F27 DUP3 PUSH2 0x1F0B JUMP JUMPDEST SWAP1 POP SWAP2 SWAP1 POP JUMP JUMPDEST PUSH2 0x1F37 DUP2 PUSH2 0x1F1D JUMP JUMPDEST DUP3 MSTORE POP POP JUMP JUMPDEST PUSH0 PUSH1 0xC0 DUP3 ADD SWAP1 POP PUSH2 0x1F50 PUSH0 DUP4 ADD DUP10 PUSH2 0x192B JUMP JUMPDEST PUSH2 0x1F5D PUSH1 0x20 DUP4 ADD DUP9 PUSH2 0x1EBB JUMP JUMPDEST PUSH2 0x1F6A PUSH1 0x40 DUP4 ADD DUP8 PUSH2 0x192B JUMP JUMPDEST PUSH2 0x1F77 PUSH1 0x60 DUP4 ADD DUP7 PUSH2 0x1F2E JUMP JUMPDEST PUSH2 0x1F84 PUSH1 0x80 DUP4 ADD DUP6 PUSH2 0x1EBB JUMP JUMPDEST PUSH2 0x1F91 PUSH1 0xA0 DUP4 ADD DUP5 PUSH2 0x192B JUMP JUMPDEST SWAP8 SWAP7 POP POP POP POP POP POP POP JUMP JUMPDEST PUSH1 0x4 DUP2 LT PUSH2 0x1FA8 JUMPI PUSH0 DUP1 REVERT JUMPDEST POP JUMP JUMPDEST PUSH0 DUP2 CALLDATALOAD SWAP1 POP PUSH2 0x1FB9 DUP2 PUSH2 0x1F9C JUMP JUMPDEST SWAP3 SWAP2 POP POP JUMP JUMPDEST PUSH0 DUP1 PUSH1 0x40 DUP4 DUP6 SUB SLT ISZERO PUSH2 0x1FD5 JUMPI PUSH2 0x1FD4 PUSH2 0x17E8 JUMP JUMPDEST JUMPDEST PUSH0 PUSH2 0x1FE2 DUP6 DUP3 DUP7 ADD PUSH2 0x1869 JUMP JUMPDEST SWAP3 POP POP PUSH1 0x20 PUSH2 0x1FF3 DUP6 DUP3 DUP7 ADD PUSH2 0x1FAB JUMP JUMPDEST SWAP2 POP POP SWAP3 POP SWAP3 SWAP1 POP JUMP JUMPDEST PUSH2 0x2006 DUP2 PUSH2 0x180F JUMP JUMPDEST DUP3 MSTORE POP POP JUMP JUMPDEST PUSH0 DUP3 DUP3 MSTORE PUSH1 0x20 DUP3 ADD SWAP1 POP SWAP3 SWAP2 POP POP JUMP JUMPDEST PUSH0 PUSH2 0x2026 DUP3 PUSH2 0x19BB JUMP JUMPDEST PUSH2 0x2030 DUP2 DUP6 PUSH2 0x200C JUMP JUMPDEST SWAP4 POP PUSH2 0x203B DUP4 PUSH2 0x19D5 JUMP JUMPDEST DUP1 PUSH0 JUMPDEST DUP4 DUP2 LT ISZERO PUSH2 0x206B JUMPI DUP2 MLOAD PUSH2 0x2052 DUP9 DUP3 PUSH2 0x19F3 JUMP JUMPDEST SWAP8 POP PUSH2 0x205D DUP4 PUSH2 0x1A0A JUMP JUMPDEST SWAP3 POP POP PUSH1 0x1 DUP2 ADD SWAP1 POP PUSH2 0x203E JUMP JUMPDEST POP DUP6 SWAP4 POP POP POP POP SWAP3 SWAP2 POP POP JUMP JUMPDEST PUSH2 0x2081 DUP2 PUSH2 0x1F1D JUMP JUMPDEST DUP3 MSTORE POP POP JUMP JUMPDEST PUSH0 PUSH1 0xE0 DUP4 ADD PUSH0 DUP4 ADD MLOAD PUSH2 0x209C PUSH0 DUP7 ADD DUP3 PUSH2 0x19E4 JUMP JUMPDEST POP PUSH1 0x20 DUP4 ADD MLOAD PUSH2 0x20AF PUSH1 0x20 DUP7 ADD DUP3 PUSH2 0x1FFD JUMP JUMPDEST POP PUSH1 0x40 DUP4 ADD MLOAD PUSH2 0x20C2 PUSH1 0x40 DUP7 ADD DUP3 PUSH2 0x19E4 JUMP JUMPDEST POP PUSH1 0x60 DUP4 ADD MLOAD DUP5 DUP3 SUB PUSH1 0x60 DUP7 ADD MSTORE PUSH2 0x20DA DUP3 DUP3 PUSH2 0x201C JUMP JUMPDEST SWAP2 POP POP PUSH1 0x80 DUP4 ADD MLOAD PUSH2 0x20EF PUSH1 0x80 DUP7 ADD DUP3 PUSH2 0x2078 JUMP JUMPDEST POP PUSH1 0xA0 DUP4 ADD MLOAD PUSH2 0x2102 PUSH1 0xA0 DUP7 ADD DUP3 PUSH2 0x1FFD JUMP JUMPDEST POP PUSH1 0xC0 DUP4 ADD MLOAD PUSH2 0x2115 PUSH1 0xC0 DUP7 ADD DUP3 PUSH2 0x19E4 JUMP JUMPDEST POP DUP1 SWAP2 POP POP SWAP3 SWAP2 POP POP JUMP JUMPDEST PUSH0 PUSH1 0x20 DUP3 ADD SWAP1 POP DUP2 DUP2 SUB PUSH0 DUP4 ADD MSTORE PUSH2 0x2138 DUP2 DUP5 PUSH2 0x2087 JUMP JUMPDEST SWAP1 POP SWAP3 SWAP2 POP POP JUMP JUMPDEST PUSH32 0x4E487B7100000000000000000000000000000000000000000000000000000000 PUSH0 MSTORE PUSH1 0x22 PUSH1 0x4 MSTORE PUSH1 0x24 PUSH0 REVERT JUMPDEST PUSH0 PUSH1 0x2 DUP3 DIV SWAP1 POP PUSH1 0x1 DUP3 AND DUP1 PUSH2 0x2184 JUMPI PUSH1 0x7F DUP3 AND SWAP2 POP JUMPDEST PUSH1 0x20 DUP3 LT DUP2 SUB PUSH2 0x2197 JUMPI PUSH2 0x2196 PUSH2 0x2140 JUMP JUMPDEST JUMPDEST POP SWAP2 SWAP1 POP JUMP JUMPDEST PUSH32 0x4F6E6C7920726567697374657265642072657374617572616E74732063616E20 PUSH0 DUP3 ADD MSTORE PUSH32 0x706572666F726D207468697320616374696F6E2E000000000000000000000000 PUSH1 0x20 DUP3 ADD MSTORE POP JUMP JUMPDEST PUSH0 PUSH2 0x21F7 PUSH1 0x34 DUP4 PUSH2 0x18C5 JUMP JUMPDEST SWAP2 POP PUSH2 0x2202 DUP3 PUSH2 0x219D JUMP JUMPDEST PUSH1 0x40 DUP3 ADD SWAP1 POP SWAP2 SWAP1 POP JUMP JUMPDEST PUSH0 PUSH1 0x20 DUP3 ADD SWAP1 POP DUP2 DUP2 SUB PUSH0 DUP4 ADD MSTORE PUSH2 0x2224 DUP2 PUSH2 0x21EB JUMP JUMPDEST SWAP1 POP SWAP2 SWAP1 POP JUMP JUMPDEST PUSH32 0x4E6F2066756E647320746F207769746864726177000000000000000000000000 PUSH0 DUP3 ADD MSTORE POP JUMP JUMPDEST PUSH0 PUSH2 0x225F PUSH1 0x14 DUP4 PUSH2 0x18C5 JUMP JUMPDEST SWAP2 POP PUSH2 0x226A DUP3 PUSH2 0x222B JUMP JUMPDEST PUSH1 0x20 DUP3 ADD SWAP1 POP SWAP2 SWAP1 POP JUMP JUMPDEST PUSH0 PUSH1 0x20 DUP3 ADD SWAP1 POP DUP2 DUP2 SUB PUSH0 DUP4 ADD MSTORE PUSH2 0x228C DUP2 PUSH2 0x2253 JUMP JUMPDEST SWAP1 POP SWAP2 SWAP1 POP JUMP JUMPDEST PUSH32 0x52657374617572616E74732063616E6E6F7420706C616365206F72646572732E PUSH0 DUP3 ADD MSTORE POP JUMP JUMPDEST PUSH0 PUSH2 0x22C7 PUSH1 0x20 DUP4 PUSH2 0x18C5 JUMP JUMPDEST SWAP2 POP PUSH2 0x22D2 DUP3 PUSH2 0x2293 JUMP JUMPDEST PUSH1 0x20 DUP3 ADD SWAP1 POP SWAP2 SWAP1 POP JUMP JUMPDEST PUSH0 PUSH1 0x20 DUP3 ADD SWAP1 POP DUP2 DUP2 SUB PUSH0 DUP4 ADD MSTORE PUSH2 0x22F4 DUP2 PUSH2 0x22BB JUMP JUMPDEST SWAP1 POP SWAP2 SWAP1 POP JUMP JUMPDEST PUSH32 0x496E76616C69642072657374617572616E742E00000000000000000000000000 PUSH0 DUP3 ADD MSTORE POP JUMP JUMPDEST PUSH0 PUSH2 0x232F PUSH1 0x13 DUP4 PUSH2 0x18C5 JUMP JUMPDEST SWAP2 POP PUSH2 0x233A DUP3 PUSH2 0x22FB JUMP JUMPDEST PUSH1 0x20 DUP3 ADD SWAP1 POP SWAP2 SWAP1 POP JUMP JUMPDEST PUSH0 PUSH1 0x20 DUP3 ADD SWAP1 POP DUP2 DUP2 SUB PUSH0 DUP4 ADD MSTORE PUSH2 0x235C DUP2 PUSH2 0x2323 JUMP JUMPDEST SWAP1 POP SWAP2 SWAP1 POP JUMP JUMPDEST PUSH32 0x4E487B7100000000000000000000000000000000000000000000000000000000 PUSH0 MSTORE PUSH1 0x32 PUSH1 0x4 MSTORE PUSH1 0x24 PUSH0 REVERT JUMPDEST PUSH32 0x4F6E65206F72206D6F7265206974656D732061726520756E617661696C61626C PUSH0 DUP3 ADD MSTORE PUSH32 0x652E000000000000000000000000000000000000000000000000000000000000 PUSH1 0x20 DUP3 ADD MSTORE POP JUMP JUMPDEST PUSH0 PUSH2 0x23EA PUSH1 0x22 DUP4 PUSH2 0x18C5 JUMP JUMPDEST SWAP2 POP PUSH2 0x23F5 DUP3 PUSH2 0x2390 JUMP JUMPDEST PUSH1 0x40 DUP3 ADD SWAP1 POP SWAP2 SWAP1 POP JUMP JUMPDEST PUSH0 PUSH1 0x20 DUP3 ADD SWAP1 POP DUP2 DUP2 SUB PUSH0 DUP4 ADD MSTORE PUSH2 0x2417 DUP2 PUSH2 0x23DE JUMP JUMPDEST SWAP1 POP SWAP2 SWAP1 POP JUMP JUMPDEST PUSH32 0x4E487B7100000000000000000000000000000000000000000000000000000000 PUSH0 MSTORE PUSH1 0x11 PUSH1 0x4 MSTORE PUSH1 0x24 PUSH0 REVERT JUMPDEST PUSH0 PUSH2 0x2455 DUP3 PUSH2 0x184A JUMP JUMPDEST SWAP2 POP PUSH2 0x2460 DUP4 PUSH2 0x184A JUMP JUMPDEST SWAP3 POP DUP3 DUP3 ADD SWAP1 POP DUP1 DUP3 GT ISZERO PUSH2 0x2478 JUMPI PUSH2 0x2477 PUSH2 0x241E JUMP JUMPDEST JUMPDEST SWAP3 SWAP2 POP POP JUMP JUMPDEST PUSH32 0x496E636F7272656374207061796D656E7420616D6F756E742E00000000000000 PUSH0 DUP3 ADD MSTORE POP JUMP JUMPDEST PUSH0 PUSH2 0x24B2 PUSH1 0x19 DUP4 PUSH2 0x18C5 JUMP JUMPDEST SWAP2 POP PUSH2 0x24BD DUP3 PUSH2 0x247E JUMP JUMPDEST PUSH1 0x20 DUP3 ADD SWAP1 POP SWAP2 SWAP1 POP JUMP JUMPDEST PUSH0 PUSH1 0x20 DUP3 ADD SWAP1 POP DUP2 DUP2 SUB PUSH0 DUP4 ADD MSTORE PUSH2 0x24DF DUP2 PUSH2 0x24A6 JUMP JUMPDEST SWAP1 POP SWAP2 SWAP1 POP JUMP JUMPDEST PUSH0 PUSH2 0x24F0 DUP3 PUSH2 0x184A JUMP JUMPDEST SWAP2 POP PUSH32 0xFFFFFFFFFFFFFFFFFFFFFFFFFFFFFFFFFFFFFFFFFFFFFFFFFFFFFFFFFFFFFFFF DUP3 SUB PUSH2 0x2522 JUMPI PUSH2 0x2521 PUSH2 0x241E JUMP JUMPDEST JUMPDEST PUSH1 0x1 DUP3 ADD SWAP1 POP SWAP2 SWAP1 POP JUMP JUMPDEST PUSH32 0x4974656D20646F6573206E6F742065786973742E000000000000000000000000 PUSH0 DUP3 ADD MSTORE POP JUMP JUMPDEST PUSH0 PUSH2 0x2561 PUSH1 0x14 DUP4 PUSH2 0x18C5 JUMP JUMPDEST SWAP2 POP PUSH2 0x256C DUP3 PUSH2 0x252D JUMP JUMPDEST PUSH1 0x20 DUP3 ADD SWAP1 POP SWAP2 SWAP1 POP JUMP JUMPDEST PUSH0 PUSH1 0x20 DUP3 ADD SWAP1 POP DUP2 DUP2 SUB PUSH0 DUP4 ADD MSTORE PUSH2 0x258E DUP2 PUSH2 0x2555 JUMP JUMPDEST SWAP1 POP SWAP2 SWAP1 POP JUMP JUMPDEST PUSH32 0x52657374617572616E7420697320616C72656164792072656769737465726564 PUSH0 DUP3 ADD MSTORE PUSH32 0x2E00000000000000000000000000000000000000000000000000000000000000 PUSH1 0x20 DUP3 ADD MSTORE POP JUMP JUMPDEST PUSH0 PUSH2 0x25EF PUSH1 0x21 DUP4 PUSH2 0x18C5 JUMP JUMPDEST SWAP2 POP PUSH2 0x25FA DUP3 PUSH2 0x2595 JUMP JUMPDEST PUSH1 0x40 DUP3 ADD SWAP1 POP SWAP2 SWAP1 POP JUMP JUMPDEST PUSH0 PUSH1 0x20 DUP3 ADD SWAP1 POP DUP2 DUP2 SUB PUSH0 DUP4 ADD MSTORE PUSH2 0x261C DUP2 PUSH2 0x25E3 JUMP JUMPDEST SWAP1 POP SWAP2 SWAP1 POP JUMP JUMPDEST PUSH0 DUP2 SWAP1 POP DUP2 PUSH0 MSTORE PUSH1 0x20 PUSH0 KECCAK256 SWAP1 POP SWAP2 SWAP1 POP JUMP JUMPDEST PUSH0 PUSH1 0x20 PUSH1 0x1F DUP4 ADD DIV SWAP1 POP SWAP2 SWAP1 POP JUMP JUMPDEST PUSH0 DUP3 DUP3 SHL SWAP1 POP SWAP3 SWAP2 POP POP JUMP JUMPDEST PUSH0 PUSH1 0x8 DUP4 MUL PUSH2 0x267F PUSH32 0xFFFFFFFFFFFFFFFFFFFFFFFFFFFFFFFFFFFFFFFFFFFFFFFFFFFFFFFFFFFFFFFF DUP3 PUSH2 0x2644 JUMP JUMPDEST PUSH2 0x2689 DUP7 DUP4 PUSH2 0x2644 JUMP JUMPDEST SWAP6 POP DUP1 NOT DUP5 AND SWAP4 POP DUP1 DUP7 AND DUP5 OR SWAP3 POP POP POP SWAP4 SWAP3 POP POP POP JUMP JUMPDEST PUSH0 DUP2 SWAP1 POP SWAP2 SWAP1 POP JUMP JUMPDEST PUSH0 PUSH2 0x26C4 PUSH2 0x26BF PUSH2 0x26BA DUP5 PUSH2 0x184A JUMP JUMPDEST PUSH2 0x26A1 JUMP JUMPDEST PUSH2 0x184A JUMP JUMPDEST SWAP1 POP SWAP2 SWAP1 POP JUMP JUMPDEST PUSH0 DUP2 SWAP1 POP SWAP2 SWAP1 POP JUMP JUMPDEST PUSH2 0x26DD DUP4 PUSH2 0x26AA JUMP JUMPDEST PUSH2 0x26F1 PUSH2 0x26E9 DUP3 PUSH2 0x26CB JUMP JUMPDEST DUP5 DUP5 SLOAD PUSH2 0x2650 JUMP JUMPDEST DUP3 SSTORE POP POP POP POP JUMP JUMPDEST PUSH0 SWAP1 JUMP JUMPDEST PUSH2 0x2705 PUSH2 0x26F9 JUMP JUMPDEST PUSH2 0x2710 DUP2 DUP5 DUP5 PUSH2 0x26D4 JUMP JUMPDEST POP POP POP JUMP JUMPDEST JUMPDEST DUP2 DUP2 LT ISZERO PUSH2 0x2733 JUMPI PUSH2 0x2728 PUSH0 DUP3 PUSH2 0x26FD JUMP JUMPDEST PUSH1 0x1 DUP2 ADD SWAP1 POP PUSH2 0x2716 JUMP JUMPDEST POP POP JUMP JUMPDEST PUSH1 0x1F DUP3 GT ISZERO PUSH2 0x2778 JUMPI PUSH2 0x2749 DUP2 PUSH2 0x2623 JUMP JUMPDEST PUSH2 0x2752 DUP5 PUSH2 0x2635 JUMP JUMPDEST DUP2 ADD PUSH1 0x20 DUP6 LT ISZERO PUSH2 0x2761 JUMPI DUP2 SWAP1 POP JUMPDEST PUSH2 0x2775 PUSH2 0x276D DUP6 PUSH2 0x2635 JUMP JUMPDEST DUP4 ADD DUP3 PUSH2 0x2715 JUMP JUMPDEST POP POP JUMPDEST POP POP POP JUMP JUMPDEST PUSH0 DUP3 DUP3 SHR SWAP1 POP SWAP3 SWAP2 POP POP JUMP JUMPDEST PUSH0 PUSH2 0x2798 PUSH0 NOT DUP5 PUSH1 0x8 MUL PUSH2 0x277D JUMP JUMPDEST NOT DUP1 DUP4 AND SWAP2 POP POP SWAP3 SWAP2 POP POP JUMP JUMPDEST PUSH0 PUSH2 0x27B0 DUP4 DUP4 PUSH2 0x2789 JUMP JUMPDEST SWAP2 POP DUP3 PUSH1 0x2 MUL DUP3 OR SWAP1 POP SWAP3 SWAP2 POP POP JUMP JUMPDEST PUSH2 0x27C9 DUP3 PUSH2 0x18BB JUMP JUMPDEST PUSH8 0xFFFFFFFFFFFFFFFF DUP2 GT ISZERO PUSH2 0x27E2 JUMPI PUSH2 0x27E1 PUSH2 0x1B00 JUMP JUMPDEST JUMPDEST PUSH2 0x27EC DUP3 SLOAD PUSH2 0x216D JUMP JUMPDEST PUSH2 0x27F7 DUP3 DUP3 DUP6 PUSH2 0x2737 JUMP JUMPDEST PUSH0 PUSH1 0x20 SWAP1 POP PUSH1 0x1F DUP4 GT PUSH1 0x1 DUP2 EQ PUSH2 0x2828 JUMPI PUSH0 DUP5 ISZERO PUSH2 0x2816 JUMPI DUP3 DUP8 ADD MLOAD SWAP1 POP JUMPDEST PUSH2 0x2820 DUP6 DUP3 PUSH2 0x27A5 JUMP JUMPDEST DUP7 SSTORE POP PUSH2 0x2887 JUMP JUMPDEST PUSH1 0x1F NOT DUP5 AND PUSH2 0x2836 DUP7 PUSH2 0x2623 JUMP JUMPDEST PUSH0 JUMPDEST DUP3 DUP2 LT ISZERO PUSH2 0x285D JUMPI DUP5 DUP10 ADD MLOAD DUP3 SSTORE PUSH1 0x1 DUP3 ADD SWAP2 POP PUSH1 0x20 DUP6 ADD SWAP5 POP PUSH1 0x20 DUP2 ADD SWAP1 POP PUSH2 0x2838 JUMP JUMPDEST DUP7 DUP4 LT ISZERO PUSH2 0x287A JUMPI DUP5 DUP10 ADD MLOAD PUSH2 0x2876 PUSH1 0x1F DUP10 AND DUP3 PUSH2 0x2789 JUMP JUMPDEST DUP4 SSTORE POP JUMPDEST PUSH1 0x1 PUSH1 0x2 DUP9 MUL ADD DUP9 SSTORE POP POP POP JUMPDEST POP POP POP POP POP POP JUMP JUMPDEST PUSH0 PUSH1 0x20 DUP3 ADD SWAP1 POP DUP2 DUP2 SUB PUSH0 DUP4 ADD MSTORE PUSH2 0x28A7 DUP2 DUP5 PUSH2 0x18F3 JUMP JUMPDEST SWAP1 POP SWAP3 SWAP2 POP POP JUMP JUMPDEST PUSH32 0x5072696365206D7573742062652067726561746572207468616E207A65726F2E PUSH0 DUP3 ADD MSTORE POP JUMP JUMPDEST PUSH0 PUSH2 0x28E3 PUSH1 0x20 DUP4 PUSH2 0x18C5 JUMP JUMPDEST SWAP2 POP PUSH2 0x28EE DUP3 PUSH2 0x28AF JUMP JUMPDEST PUSH1 0x20 DUP3 ADD SWAP1 POP SWAP2 SWAP1 POP JUMP JUMPDEST PUSH0 PUSH1 0x20 DUP3 ADD SWAP1 POP DUP2 DUP2 SUB PUSH0 DUP4 ADD MSTORE PUSH2 0x2910 DUP2 PUSH2 0x28D7 JUMP JUMPDEST SWAP1 POP SWAP2 SWAP1 POP JUMP JUMPDEST PUSH0 PUSH1 0x60 DUP3 ADD SWAP1 POP PUSH2 0x292A PUSH0 DUP4 ADD DUP7 PUSH2 0x192B JUMP JUMPDEST DUP2 DUP2 SUB PUSH1 0x20 DUP4 ADD MSTORE PUSH2 0x293C DUP2 DUP6 PUSH2 0x18F3 JUMP JUMPDEST SWAP1 POP PUSH2 0x294B PUSH1 0x40 DUP4 ADD DUP5 PUSH2 0x192B JUMP JUMPDEST SWAP5 SWAP4 POP POP POP POP JUMP JUMPDEST PUSH32 0x4F6E6C792072657374617572616E742063616E20757064617465206F72646572 PUSH0 DUP3 ADD MSTORE PUSH32 0x2073746174757300000000000000000000000000000000000000000000000000 PUSH1 0x20 DUP3 ADD MSTORE POP JUMP JUMPDEST PUSH0 PUSH2 0x29AD PUSH1 0x27 DUP4 PUSH2 0x18C5 JUMP JUMPDEST SWAP2 POP PUSH2 0x29B8 DUP3 PUSH2 0x2953 JUMP JUMPDEST PUSH1 0x40 DUP3 ADD SWAP1 POP SWAP2 SWAP1 POP JUMP JUMPDEST PUSH0 PUSH1 0x20 DUP3 ADD SWAP1 POP DUP2 DUP2 SUB PUSH0 DUP4 ADD MSTORE PUSH2 0x29DA DUP2 PUSH2 0x29A1 JUMP JUMPDEST SWAP1 POP SWAP2 SWAP1 POP JUMP JUMPDEST PUSH0 PUSH1 0x20 DUP3 ADD SWAP1 POP PUSH2 0x29F4 PUSH0 DUP4 ADD DUP5 PUSH2 0x1F2E JUMP JUMPDEST SWAP3 SWAP2 POP POP JUMP INVALID LOG2 PUSH5 0x6970667358 0x22 SLT KECCAK256 BLOBBASEFEE EXP 0xE3 SWAP3 PREVRANDAO ADD 0xF9 MUL SWAP8 0xDA CREATE2 0xBC SUB PUSH29 0x700373CC43EE16EA58C343FBE3803A64EF8364736F6C634300081A0033 "
				},
				"gasEstimates": {
					"creation": {
						"codeDepositCost": "2160000",
						"executionCost": "24405",
						"totalCost": "2184405"
					},
					"external": {
						"addMenuItem(uint256,string,uint256)": "infinite",
						"customerOrders(address,uint256)": "infinite",
						"getCustomerOrder(address)": "infinite",
						"getOrderDetails(uint256)": "infinite",
						"getRestaurantDetails(address)": "infinite",
						"menus(address,uint256)": "infinite",
						"nextOrderId()": "2491",
						"orders(uint256)": "infinite",
						"placeOrder(address,uint256[])": "infinite",
						"registerRestaurant(string,string)": "infinite",
						"restaurants(address)": "infinite",
						"updateMenuItemAvailability(uint256,bool)": "29572",
						"updateOrderStatus(uint256,uint8)": "31085",
						"withdrawFunds()": "infinite"
					}
				},
				"methodIdentifiers": {
					"addMenuItem(uint256,string,uint256)": "947ca0d2",
					"customerOrders(address,uint256)": "1600c6cd",
					"getCustomerOrder(address)": "0ed128a8",
					"getOrderDetails(uint256)": "ec7dd7bb",
					"getRestaurantDetails(address)": "c2505ac4",
					"menus(address,uint256)": "08677ee7",
					"nextOrderId()": "2a58b330",
					"orders(uint256)": "a85c38ef",
					"placeOrder(address,uint256[])": "3c0c5e64",
					"registerRestaurant(string,string)": "880d4ee8",
					"restaurants(address)": "236cd7dc",
					"updateMenuItemAvailability(uint256,bool)": "641c07a3",
					"updateOrderStatus(uint256,uint8)": "aab3196d",
					"withdrawFunds()": "24600fc3"
				}
			},
			"storageLayout": {
				"storage": [
					{
						"astId": 42,
						"contract": "contracts/FoodDelivery_2.sol:FoodDelivery",
						"label": "nextOrderId",
						"offset": 0,
						"slot": "0",
						"type": "t_uint256"
					},
					{
						"astId": 47,
						"contract": "contracts/FoodDelivery_2.sol:FoodDelivery",
						"label": "restaurants",
						"offset": 0,
						"slot": "1",
						"type": "t_mapping(t_address,t_struct(Restaurant)10_storage)"
					},
					{
						"astId": 54,
						"contract": "contracts/FoodDelivery_2.sol:FoodDelivery",
						"label": "menus",
						"offset": 0,
						"slot": "2",
						"type": "t_mapping(t_address,t_mapping(t_uint256,t_struct(MenuItem)17_storage))"
					},
					{
						"astId": 59,
						"contract": "contracts/FoodDelivery_2.sol:FoodDelivery",
						"label": "orders",
						"offset": 0,
						"slot": "3",
						"type": "t_mapping(t_uint256,t_struct(Order)34_storage)"
					},
					{
						"astId": 64,
						"contract": "contracts/FoodDelivery_2.sol:FoodDelivery",
						"label": "customerOrders",
						"offset": 0,
						"slot": "4",
						"type": "t_mapping(t_address,t_array(t_uint256)dyn_storage)"
					}
				],
				"types": {
					"t_address": {
						"encoding": "inplace",
						"label": "address",
						"numberOfBytes": "20"
					},
					"t_array(t_uint256)dyn_storage": {
						"base": "t_uint256",
						"encoding": "dynamic_array",
						"label": "uint256[]",
						"numberOfBytes": "32"
					},
					"t_bool": {
						"encoding": "inplace",
						"label": "bool",
						"numberOfBytes": "1"
					},
					"t_enum(OrderStatus)39": {
						"encoding": "inplace",
						"label": "enum FoodDelivery.OrderStatus",
						"numberOfBytes": "1"
					},
					"t_mapping(t_address,t_array(t_uint256)dyn_storage)": {
						"encoding": "mapping",
						"key": "t_address",
						"label": "mapping(address => uint256[])",
						"numberOfBytes": "32",
						"value": "t_array(t_uint256)dyn_storage"
					},
					"t_mapping(t_address,t_mapping(t_uint256,t_struct(MenuItem)17_storage))": {
						"encoding": "mapping",
						"key": "t_address",
						"label": "mapping(address => mapping(uint256 => struct FoodDelivery.MenuItem))",
						"numberOfBytes": "32",
						"value": "t_mapping(t_uint256,t_struct(MenuItem)17_storage)"
					},
					"t_mapping(t_address,t_struct(Restaurant)10_storage)": {
						"encoding": "mapping",
						"key": "t_address",
						"label": "mapping(address => struct FoodDelivery.Restaurant)",
						"numberOfBytes": "32",
						"value": "t_struct(Restaurant)10_storage"
					},
					"t_mapping(t_uint256,t_struct(MenuItem)17_storage)": {
						"encoding": "mapping",
						"key": "t_uint256",
						"label": "mapping(uint256 => struct FoodDelivery.MenuItem)",
						"numberOfBytes": "32",
						"value": "t_struct(MenuItem)17_storage"
					},
					"t_mapping(t_uint256,t_struct(Order)34_storage)": {
						"encoding": "mapping",
						"key": "t_uint256",
						"label": "mapping(uint256 => struct FoodDelivery.Order)",
						"numberOfBytes": "32",
						"value": "t_struct(Order)34_storage"
					},
					"t_string_storage": {
						"encoding": "bytes",
						"label": "string",
						"numberOfBytes": "32"
					},
					"t_struct(MenuItem)17_storage": {
						"encoding": "inplace",
						"label": "struct FoodDelivery.MenuItem",
						"members": [
							{
								"astId": 12,
								"contract": "contracts/FoodDelivery_2.sol:FoodDelivery",
								"label": "name",
								"offset": 0,
								"slot": "0",
								"type": "t_string_storage"
							},
							{
								"astId": 14,
								"contract": "contracts/FoodDelivery_2.sol:FoodDelivery",
								"label": "price",
								"offset": 0,
								"slot": "1",
								"type": "t_uint256"
							},
							{
								"astId": 16,
								"contract": "contracts/FoodDelivery_2.sol:FoodDelivery",
								"label": "isAvailable",
								"offset": 0,
								"slot": "2",
								"type": "t_bool"
							}
						],
						"numberOfBytes": "96"
					},
					"t_struct(Order)34_storage": {
						"encoding": "inplace",
						"label": "struct FoodDelivery.Order",
						"members": [
							{
								"astId": 19,
								"contract": "contracts/FoodDelivery_2.sol:FoodDelivery",
								"label": "OrderId",
								"offset": 0,
								"slot": "0",
								"type": "t_uint256"
							},
							{
								"astId": 21,
								"contract": "contracts/FoodDelivery_2.sol:FoodDelivery",
								"label": "customer",
								"offset": 0,
								"slot": "1",
								"type": "t_address"
							},
							{
								"astId": 23,
								"contract": "contracts/FoodDelivery_2.sol:FoodDelivery",
								"label": "totalAmount",
								"offset": 0,
								"slot": "2",
								"type": "t_uint256"
							},
							{
								"astId": 26,
								"contract": "contracts/FoodDelivery_2.sol:FoodDelivery",
								"label": "itemsIds",
								"offset": 0,
								"slot": "3",
								"type": "t_array(t_uint256)dyn_storage"
							},
							{
								"astId": 29,
								"contract": "contracts/FoodDelivery_2.sol:FoodDelivery",
								"label": "status",
								"offset": 0,
								"slot": "4",
								"type": "t_enum(OrderStatus)39"
							},
							{
								"astId": 31,
								"contract": "contracts/FoodDelivery_2.sol:FoodDelivery",
								"label": "restaurant",
								"offset": 1,
								"slot": "4",
								"type": "t_address"
							},
							{
								"astId": 33,
								"contract": "contracts/FoodDelivery_2.sol:FoodDelivery",
								"label": "timestamp",
								"offset": 0,
								"slot": "5",
								"type": "t_uint256"
							}
						],
						"numberOfBytes": "192"
					},
					"t_struct(Restaurant)10_storage": {
						"encoding": "inplace",
						"label": "struct FoodDelivery.Restaurant",
						"members": [
							{
								"astId": 3,
								"contract": "contracts/FoodDelivery_2.sol:FoodDelivery",
								"label": "name",
								"offset": 0,
								"slot": "0",
								"type": "t_string_storage"
							},
							{
								"astId": 5,
								"contract": "contracts/FoodDelivery_2.sol:FoodDelivery",
								"label": "location",
								"offset": 0,
								"slot": "1",
								"type": "t_string_storage"
							},
							{
								"astId": 7,
								"contract": "contracts/FoodDelivery_2.sol:FoodDelivery",
								"label": "registrationTime",
								"offset": 0,
								"slot": "2",
								"type": "t_uint256"
							},
							{
								"astId": 9,
								"contract": "contracts/FoodDelivery_2.sol:FoodDelivery",
								"label": "isRegistered",
								"offset": 0,
								"slot": "3",
								"type": "t_bool"
							}
						],
						"numberOfBytes": "128"
					},
					"t_uint256": {
						"encoding": "inplace",
						"label": "uint256",
						"numberOfBytes": "32"
					}
				}
			},
			"userdoc": {
				"kind": "user",
				"methods": {},
				"version": 1
			}
		}
	}
}