{
	"contracts/foodDelivery.sol": {
		"FoodDelivery": {
			"abi": [
				{
					"anonymous": false,
					"inputs": [
						{
							"indexed": true,
							"internalType": "uint256",
							"name": "orderId",
							"type": "uint256"
						}
					],
					"name": "OrderAccepted",
					"type": "event"
				},
				{
					"anonymous": false,
					"inputs": [
						{
							"indexed": true,
							"internalType": "uint256",
							"name": "orderId",
							"type": "uint256"
						}
					],
					"name": "OrderCanceled",
					"type": "event"
				},
				{
					"anonymous": false,
					"inputs": [
						{
							"indexed": true,
							"internalType": "uint256",
							"name": "orderId",
							"type": "uint256"
						}
					],
					"name": "OrderDelivered",
					"type": "event"
				},
				{
					"anonymous": false,
					"inputs": [
						{
							"indexed": true,
							"internalType": "uint256",
							"name": "orderId",
							"type": "uint256"
						},
						{
							"indexed": true,
							"internalType": "address",
							"name": "customer",
							"type": "address"
						},
						{
							"indexed": false,
							"internalType": "string",
							"name": "foodItem",
							"type": "string"
						},
						{
							"indexed": false,
							"internalType": "uint256",
							"name": "price",
							"type": "uint256"
						}
					],
					"name": "OrderPlaced",
					"type": "event"
				},
				{
					"inputs": [
						{
							"internalType": "uint256",
							"name": "orderId",
							"type": "uint256"
						}
					],
					"name": "acceptOrder",
					"outputs": [],
					"stateMutability": "nonpayable",
					"type": "function"
				},
				{
					"inputs": [
						{
							"internalType": "uint256",
							"name": "orderId",
							"type": "uint256"
						}
					],
					"name": "cancelOrder",
					"outputs": [],
					"stateMutability": "nonpayable",
					"type": "function"
				},
				{
					"inputs": [
						{
							"internalType": "uint256",
							"name": "orderId",
							"type": "uint256"
						}
					],
					"name": "deliverOrder",
					"outputs": [],
					"stateMutability": "nonpayable",
					"type": "function"
				},
				{
					"inputs": [
						{
							"internalType": "uint256",
							"name": "orderId",
							"type": "uint256"
						}
					],
					"name": "getOrder",
					"outputs": [
						{
							"components": [
								{
									"internalType": "uint256",
									"name": "id",
									"type": "uint256"
								},
								{
									"internalType": "address",
									"name": "customer",
									"type": "address"
								},
								{
									"internalType": "string",
									"name": "foodItem",
									"type": "string"
								},
								{
									"internalType": "uint256",
									"name": "price",
									"type": "uint256"
								},
								{
									"internalType": "enum FoodDelivery.OrderStatus",
									"name": "status",
									"type": "uint8"
								},
								{
									"internalType": "uint256",
									"name": "timestamp",
									"type": "uint256"
								}
							],
							"internalType": "struct FoodDelivery.Order",
							"name": "",
							"type": "tuple"
						}
					],
					"stateMutability": "view",
					"type": "function"
				},
				{
					"inputs": [],
					"name": "orderCount",
					"outputs": [
						{
							"internalType": "uint256",
							"name": "",
							"type": "uint256"
						}
					],
					"stateMutability": "view",
					"type": "function"
				},
				{
					"inputs": [
						{
							"internalType": "uint256",
							"name": "",
							"type": "uint256"
						}
					],
					"name": "orders",
					"outputs": [
						{
							"internalType": "uint256",
							"name": "id",
							"type": "uint256"
						},
						{
							"internalType": "address",
							"name": "customer",
							"type": "address"
						},
						{
							"internalType": "string",
							"name": "foodItem",
							"type": "string"
						},
						{
							"internalType": "uint256",
							"name": "price",
							"type": "uint256"
						},
						{
							"internalType": "enum FoodDelivery.OrderStatus",
							"name": "status",
							"type": "uint8"
						},
						{
							"internalType": "uint256",
							"name": "timestamp",
							"type": "uint256"
						}
					],
					"stateMutability": "view",
					"type": "function"
				},
				{
					"inputs": [
						{
							"internalType": "string",
							"name": "foodItem",
							"type": "string"
						}
					],
					"name": "placeOrder",
					"outputs": [],
					"stateMutability": "payable",
					"type": "function"
				}
			],
			"devdoc": {
				"kind": "dev",
				"methods": {},
				"version": 1
			},
			"evm": {
				"assembly": "    /* \"contracts/foodDelivery.sol\":107:4118  contract FoodDelivery {... */\n  mstore(0x40, 0x80)\n  callvalue\n  dup1\n  iszero\n  tag_1\n  jumpi\n  0x00\n  dup1\n  revert\ntag_1:\n  pop\n  dataSize(sub_0)\n  dup1\n  dataOffset(sub_0)\n  0x00\n  codecopy\n  0x00\n  return\nstop\n\nsub_0: assembly {\n        /* \"contracts/foodDelivery.sol\":107:4118  contract FoodDelivery {... */\n      mstore(0x40, 0x80)\n      jumpi(tag_1, lt(calldatasize, 0x04))\n      shr(0xe0, calldataload(0x00))\n      dup1\n      0xa85c38ef\n      gt\n      tag_9\n      jumpi\n      dup1\n      0xa85c38ef\n      eq\n      tag_5\n      jumpi\n      dup1\n      0xd09ef241\n      eq\n      tag_6\n      jumpi\n      dup1\n      0xddff5e7d\n      eq\n      tag_7\n      jumpi\n      dup1\n      0xef18e9ed\n      eq\n      tag_8\n      jumpi\n      jump(tag_1)\n    tag_9:\n      dup1\n      0x2453ffa8\n      eq\n      tag_2\n      jumpi\n      dup1\n      0x453217f8\n      eq\n      tag_3\n      jumpi\n      dup1\n      0x514fcac7\n      eq\n      tag_4\n      jumpi\n    tag_1:\n      0x00\n      dup1\n      revert\n        /* \"contracts/foodDelivery.sol\":839:864  uint256 public orderCount */\n    tag_2:\n      callvalue\n      dup1\n      iszero\n      tag_10\n      jumpi\n      0x00\n      dup1\n      revert\n    tag_10:\n      pop\n      tag_11\n      tag_12\n      jump\t// in\n    tag_11:\n      mload(0x40)\n      tag_13\n      swap2\n      swap1\n      tag_14\n      jump\t// in\n    tag_13:\n      mload(0x40)\n      dup1\n      swap2\n      sub\n      swap1\n      return\n        /* \"contracts/foodDelivery.sol\":1822:2757  function placeOrder(string memory foodItem) external payable {... */\n    tag_3:\n      tag_15\n      0x04\n      dup1\n      calldatasize\n      sub\n      dup2\n      add\n      swap1\n      tag_16\n      swap2\n      swap1\n      tag_17\n      jump\t// in\n    tag_16:\n      tag_18\n      jump\t// in\n    tag_15:\n      stop\n        /* \"contracts/foodDelivery.sol\":3451:3877  function cancelOrder(uint256 orderId) external onlyCustomer(orderId) onlyPending(orderId) {... */\n    tag_4:\n      callvalue\n      dup1\n      iszero\n      tag_19\n      jumpi\n      0x00\n      dup1\n      revert\n    tag_19:\n      pop\n      tag_20\n      0x04\n      dup1\n      calldatasize\n      sub\n      dup2\n      add\n      swap1\n      tag_21\n      swap2\n      swap1\n      tag_22\n      jump\t// in\n    tag_21:\n      tag_23\n      jump\t// in\n    tag_20:\n      stop\n        /* \"contracts/foodDelivery.sol\":924:963  mapping(uint256 => Order) public orders */\n    tag_5:\n      callvalue\n      dup1\n      iszero\n      tag_24\n      jumpi\n      0x00\n      dup1\n      revert\n    tag_24:\n      pop\n      tag_25\n      0x04\n      dup1\n      calldatasize\n      sub\n      dup2\n      add\n      swap1\n      tag_26\n      swap2\n      swap1\n      tag_22\n      jump\t// in\n    tag_26:\n      tag_27\n      jump\t// in\n    tag_25:\n      mload(0x40)\n      tag_28\n      swap7\n      swap6\n      swap5\n      swap4\n      swap3\n      swap2\n      swap1\n      tag_29\n      jump\t// in\n    tag_28:\n      mload(0x40)\n      dup1\n      swap2\n      sub\n      swap1\n      return\n        /* \"contracts/foodDelivery.sol\":3946:4113  function getOrder(uint256 orderId) external view returns (Order memory) {... */\n    tag_6:\n      callvalue\n      dup1\n      iszero\n      tag_30\n      jumpi\n      0x00\n      dup1\n      revert\n    tag_30:\n      pop\n      tag_31\n      0x04\n      dup1\n      calldatasize\n      sub\n      dup2\n      add\n      swap1\n      tag_32\n      swap2\n      swap1\n      tag_22\n      jump\t// in\n    tag_32:\n      tag_33\n      jump\t// in\n    tag_31:\n      mload(0x40)\n      tag_34\n      swap2\n      swap1\n      tag_35\n      jump\t// in\n    tag_34:\n      mload(0x40)\n      dup1\n      swap2\n      sub\n      swap1\n      return\n        /* \"contracts/foodDelivery.sol\":3133:3407  function deliverOrder(uint256 orderId) external onlyPending(orderId) {... */\n    tag_7:\n      callvalue\n      dup1\n      iszero\n      tag_36\n      jumpi\n      0x00\n      dup1\n      revert\n    tag_36:\n      pop\n      tag_37\n      0x04\n      dup1\n      calldatasize\n      sub\n      dup2\n      add\n      swap1\n      tag_38\n      swap2\n      swap1\n      tag_22\n      jump\t// in\n    tag_38:\n      tag_39\n      jump\t// in\n    tag_37:\n      stop\n        /* \"contracts/foodDelivery.sol\":2806:3078  function acceptOrder(uint256 orderId) external onlyPending(orderId) {... */\n    tag_8:\n      callvalue\n      dup1\n      iszero\n      tag_40\n      jumpi\n      0x00\n      dup1\n      revert\n    tag_40:\n      pop\n      tag_41\n      0x04\n      dup1\n      calldatasize\n      sub\n      dup2\n      add\n      swap1\n      tag_42\n      swap2\n      swap1\n      tag_22\n      jump\t// in\n    tag_42:\n      tag_43\n      jump\t// in\n    tag_41:\n      stop\n        /* \"contracts/foodDelivery.sol\":839:864  uint256 public orderCount */\n    tag_12:\n      sload(0x00)\n      dup2\n      jump\t// out\n        /* \"contracts/foodDelivery.sol\":1822:2757  function placeOrder(string memory foodItem) external payable {... */\n    tag_18:\n        /* \"contracts/foodDelivery.sol\":1978:1979  0 */\n      0x00\n        /* \"contracts/foodDelivery.sol\":1966:1975  msg.value */\n      callvalue\n        /* \"contracts/foodDelivery.sol\":1966:1979  msg.value > 0 */\n      gt\n        /* \"contracts/foodDelivery.sol\":1958:2007  require(msg.value > 0, \"Order must have a price\") */\n      tag_45\n      jumpi\n      mload(0x40)\n      0x08c379a000000000000000000000000000000000000000000000000000000000\n      dup2\n      mstore\n      0x04\n      add\n      tag_46\n      swap1\n      tag_47\n      jump\t// in\n    tag_46:\n      mload(0x40)\n      dup1\n      swap2\n      sub\n      swap1\n      revert\n    tag_45:\n        /* \"contracts/foodDelivery.sol\":2080:2090  orderCount */\n      0x00\n      dup1\n        /* \"contracts/foodDelivery.sol\":2080:2092  orderCount++ */\n      dup2\n      sload\n      dup1\n      swap3\n      swap2\n      swap1\n      tag_48\n      swap1\n      tag_49\n      jump\t// in\n    tag_48:\n      swap2\n      swap1\n      pop\n      sstore\n      pop\n        /* \"contracts/foodDelivery.sol\":2181:2626  Order({... */\n      mload(0x40)\n      dup1\n      0xc0\n      add\n      0x40\n      mstore\n      dup1\n        /* \"contracts/foodDelivery.sol\":2206:2216  orderCount */\n      sload(0x00)\n        /* \"contracts/foodDelivery.sol\":2181:2626  Order({... */\n      dup2\n      mstore\n      0x20\n      add\n        /* \"contracts/foodDelivery.sol\":2241:2251  msg.sender */\n      caller\n        /* \"contracts/foodDelivery.sol\":2181:2626  Order({... */\n      0xffffffffffffffffffffffffffffffffffffffff\n      and\n      dup2\n      mstore\n      0x20\n      add\n        /* \"contracts/foodDelivery.sol\":2339:2347  foodItem */\n      dup3\n        /* \"contracts/foodDelivery.sol\":2181:2626  Order({... */\n      dup2\n      mstore\n      0x20\n      add\n        /* \"contracts/foodDelivery.sol\":2395:2404  msg.value */\n      callvalue\n        /* \"contracts/foodDelivery.sol\":2181:2626  Order({... */\n      dup2\n      mstore\n      0x20\n      add\n        /* \"contracts/foodDelivery.sol\":2479:2498  OrderStatus.Pending */\n      0x00\n        /* \"contracts/foodDelivery.sol\":2181:2626  Order({... */\n      0x03\n      dup2\n      gt\n      iszero\n      tag_50\n      jumpi\n      tag_51\n      tag_52\n      jump\t// in\n    tag_51:\n    tag_50:\n      dup2\n      mstore\n      0x20\n      add\n        /* \"contracts/foodDelivery.sol\":2561:2576  block.timestamp */\n      timestamp\n        /* \"contracts/foodDelivery.sol\":2181:2626  Order({... */\n      dup2\n      mstore\n      pop\n        /* \"contracts/foodDelivery.sol\":2160:2166  orders */\n      0x01\n        /* \"contracts/foodDelivery.sol\":2160:2178  orders[orderCount] */\n      0x00\n        /* \"contracts/foodDelivery.sol\":2167:2177  orderCount */\n      dup1\n      sload\n        /* \"contracts/foodDelivery.sol\":2160:2178  orders[orderCount] */\n      dup2\n      mstore\n      0x20\n      add\n      swap1\n      dup2\n      mstore\n      0x20\n      add\n      0x00\n      keccak256\n        /* \"contracts/foodDelivery.sol\":2160:2626  orders[orderCount] = Order({... */\n      0x00\n      dup3\n      add\n      mload\n      dup2\n      0x00\n      add\n      sstore\n      0x20\n      dup3\n      add\n      mload\n      dup2\n      0x01\n      add\n      exp(0x0100, 0x00)\n      dup2\n      sload\n      dup2\n      0xffffffffffffffffffffffffffffffffffffffff\n      mul\n      not\n      and\n      swap1\n      dup4\n      0xffffffffffffffffffffffffffffffffffffffff\n      and\n      mul\n      or\n      swap1\n      sstore\n      pop\n      0x40\n      dup3\n      add\n      mload\n      dup2\n      0x02\n      add\n      swap1\n      dup2\n      tag_53\n      swap2\n      swap1\n      tag_54\n      jump\t// in\n    tag_53:\n      pop\n      0x60\n      dup3\n      add\n      mload\n      dup2\n      0x03\n      add\n      sstore\n      0x80\n      dup3\n      add\n      mload\n      dup2\n      0x04\n      add\n      exp(0x0100, 0x00)\n      dup2\n      sload\n      dup2\n      0xff\n      mul\n      not\n      and\n      swap1\n      dup4\n      0x03\n      dup2\n      gt\n      iszero\n      tag_55\n      jumpi\n      tag_56\n      tag_52\n      jump\t// in\n    tag_56:\n    tag_55:\n      mul\n      or\n      swap1\n      sstore\n      pop\n      0xa0\n      dup3\n      add\n      mload\n      dup2\n      0x05\n      add\n      sstore\n      swap1\n      pop\n      pop\n        /* \"contracts/foodDelivery.sol\":2717:2727  msg.sender */\n      caller\n        /* \"contracts/foodDelivery.sol\":2693:2749  OrderPlaced(orderCount, msg.sender, foodItem, msg.value) */\n      0xffffffffffffffffffffffffffffffffffffffff\n      and\n        /* \"contracts/foodDelivery.sol\":2705:2715  orderCount */\n      sload(0x00)\n        /* \"contracts/foodDelivery.sol\":2693:2749  OrderPlaced(orderCount, msg.sender, foodItem, msg.value) */\n      0x18e12963765d1466dca0406e746bf58b34e08626f8da73a0abc411632f26f43c\n        /* \"contracts/foodDelivery.sol\":2729:2737  foodItem */\n      dup4\n        /* \"contracts/foodDelivery.sol\":2739:2748  msg.value */\n      callvalue\n        /* \"contracts/foodDelivery.sol\":2693:2749  OrderPlaced(orderCount, msg.sender, foodItem, msg.value) */\n      mload(0x40)\n      tag_57\n      swap3\n      swap2\n      swap1\n      tag_58\n      jump\t// in\n    tag_57:\n      mload(0x40)\n      dup1\n      swap2\n      sub\n      swap1\n      log3\n        /* \"contracts/foodDelivery.sol\":1822:2757  function placeOrder(string memory foodItem) external payable {... */\n      pop\n      jump\t// out\n        /* \"contracts/foodDelivery.sol\":3451:3877  function cancelOrder(uint256 orderId) external onlyCustomer(orderId) onlyPending(orderId) {... */\n    tag_23:\n        /* \"contracts/foodDelivery.sol\":3511:3518  orderId */\n      dup1\n        /* \"contracts/foodDelivery.sol\":1424:1430  orders */\n      0x01\n        /* \"contracts/foodDelivery.sol\":1424:1439  orders[orderId] */\n      0x00\n        /* \"contracts/foodDelivery.sol\":1431:1438  orderId */\n      dup3\n        /* \"contracts/foodDelivery.sol\":1424:1439  orders[orderId] */\n      dup2\n      mstore\n      0x20\n      add\n      swap1\n      dup2\n      mstore\n      0x20\n      add\n      0x00\n      keccak256\n        /* \"contracts/foodDelivery.sol\":1424:1448  orders[orderId].customer */\n      0x01\n      add\n      0x00\n      swap1\n      sload\n      swap1\n      0x0100\n      exp\n      swap1\n      div\n      0xffffffffffffffffffffffffffffffffffffffff\n      and\n        /* \"contracts/foodDelivery.sol\":1410:1448  msg.sender == orders[orderId].customer */\n      0xffffffffffffffffffffffffffffffffffffffff\n      and\n        /* \"contracts/foodDelivery.sol\":1410:1420  msg.sender */\n      caller\n        /* \"contracts/foodDelivery.sol\":1410:1448  msg.sender == orders[orderId].customer */\n      0xffffffffffffffffffffffffffffffffffffffff\n      and\n      eq\n        /* \"contracts/foodDelivery.sol\":1402:1469  require(msg.sender == orders[orderId].customer, \"Not the customer\") */\n      tag_60\n      jumpi\n      mload(0x40)\n      0x08c379a000000000000000000000000000000000000000000000000000000000\n      dup2\n      mstore\n      0x04\n      add\n      tag_61\n      swap1\n      tag_62\n      jump\t// in\n    tag_61:\n      mload(0x40)\n      dup1\n      swap2\n      sub\n      swap1\n      revert\n    tag_60:\n        /* \"contracts/foodDelivery.sol\":3532:3539  orderId */\n      dup2\n        /* \"contracts/foodDelivery.sol\":1677:1696  OrderStatus.Pending */\n      0x00\n        /* \"contracts/foodDelivery.sol\":1651:1696  orders[orderId].status == OrderStatus.Pending */\n      0x03\n      dup2\n      gt\n      iszero\n      tag_64\n      jumpi\n      tag_65\n      tag_52\n      jump\t// in\n    tag_65:\n    tag_64:\n        /* \"contracts/foodDelivery.sol\":1651:1657  orders */\n      0x01\n        /* \"contracts/foodDelivery.sol\":1651:1666  orders[orderId] */\n      0x00\n        /* \"contracts/foodDelivery.sol\":1658:1665  orderId */\n      dup4\n        /* \"contracts/foodDelivery.sol\":1651:1666  orders[orderId] */\n      dup2\n      mstore\n      0x20\n      add\n      swap1\n      dup2\n      mstore\n      0x20\n      add\n      0x00\n      keccak256\n        /* \"contracts/foodDelivery.sol\":1651:1673  orders[orderId].status */\n      0x04\n      add\n      0x00\n      swap1\n      sload\n      swap1\n      0x0100\n      exp\n      swap1\n      div\n      0xff\n      and\n        /* \"contracts/foodDelivery.sol\":1651:1696  orders[orderId].status == OrderStatus.Pending */\n      0x03\n      dup2\n      gt\n      iszero\n      tag_66\n      jumpi\n      tag_67\n      tag_52\n      jump\t// in\n    tag_67:\n    tag_66:\n      eq\n        /* \"contracts/foodDelivery.sol\":1643:1718  require(orders[orderId].status == OrderStatus.Pending, \"Order not pending\") */\n      tag_68\n      jumpi\n      mload(0x40)\n      0x08c379a000000000000000000000000000000000000000000000000000000000\n      dup2\n      mstore\n      0x04\n      add\n      tag_69\n      swap1\n      tag_70\n      jump\t// in\n    tag_69:\n      mload(0x40)\n      dup1\n      swap2\n      sub\n      swap1\n      revert\n    tag_68:\n        /* \"contracts/foodDelivery.sol\":3625:3645  OrderStatus.Canceled */\n      0x03\n        /* \"contracts/foodDelivery.sol\":3600:3606  orders */\n      0x01\n        /* \"contracts/foodDelivery.sol\":3600:3615  orders[orderId] */\n      0x00\n        /* \"contracts/foodDelivery.sol\":3607:3614  orderId */\n      dup6\n        /* \"contracts/foodDelivery.sol\":3600:3615  orders[orderId] */\n      dup2\n      mstore\n      0x20\n      add\n      swap1\n      dup2\n      mstore\n      0x20\n      add\n      0x00\n      keccak256\n        /* \"contracts/foodDelivery.sol\":3600:3622  orders[orderId].status */\n      0x04\n      add\n      0x00\n        /* \"contracts/foodDelivery.sol\":3600:3645  orders[orderId].status = OrderStatus.Canceled */\n      0x0100\n      exp\n      dup2\n      sload\n      dup2\n      0xff\n      mul\n      not\n      and\n      swap1\n      dup4\n      0x03\n      dup2\n      gt\n      iszero\n      tag_72\n      jumpi\n      tag_73\n      tag_52\n      jump\t// in\n    tag_73:\n    tag_72:\n      mul\n      or\n      swap1\n      sstore\n      pop\n        /* \"contracts/foodDelivery.sol\":3732:3742  msg.sender */\n      caller\n        /* \"contracts/foodDelivery.sol\":3724:3752  payable(msg.sender).transfer */\n      0xffffffffffffffffffffffffffffffffffffffff\n      and\n        /* \"contracts/foodDelivery.sol\":3724:3775  payable(msg.sender).transfer(orders[orderId].price) */\n      0x08fc\n        /* \"contracts/foodDelivery.sol\":3753:3759  orders */\n      0x01\n        /* \"contracts/foodDelivery.sol\":3753:3768  orders[orderId] */\n      0x00\n        /* \"contracts/foodDelivery.sol\":3760:3767  orderId */\n      dup7\n        /* \"contracts/foodDelivery.sol\":3753:3768  orders[orderId] */\n      dup2\n      mstore\n      0x20\n      add\n      swap1\n      dup2\n      mstore\n      0x20\n      add\n      0x00\n      keccak256\n        /* \"contracts/foodDelivery.sol\":3753:3774  orders[orderId].price */\n      0x03\n      add\n      sload\n        /* \"contracts/foodDelivery.sol\":3724:3775  payable(msg.sender).transfer(orders[orderId].price) */\n      swap1\n      dup2\n      iszero\n      mul\n      swap1\n      mload(0x40)\n      0x00\n      mload(0x40)\n      dup1\n      dup4\n      sub\n      dup2\n      dup6\n      dup9\n      dup9\n      call\n      swap4\n      pop\n      pop\n      pop\n      pop\n      iszero\n      dup1\n      iszero\n      tag_75\n      jumpi\n      returndatasize\n      0x00\n      dup1\n      returndatacopy\n      revert(0x00, returndatasize)\n    tag_75:\n      pop\n        /* \"contracts/foodDelivery.sol\":3861:3868  orderId */\n      dup3\n        /* \"contracts/foodDelivery.sol\":3847:3869  OrderCanceled(orderId) */\n      0xc41f4ceb2938876c35e61b705e9d2f18a02c4a26ce5e049a6308a943d46851b3\n      mload(0x40)\n      mload(0x40)\n      dup1\n      swap2\n      sub\n      swap1\n      log2\n        /* \"contracts/foodDelivery.sol\":1480:1481  _ */\n      pop\n        /* \"contracts/foodDelivery.sol\":3451:3877  function cancelOrder(uint256 orderId) external onlyCustomer(orderId) onlyPending(orderId) {... */\n      pop\n      pop\n      jump\t// out\n        /* \"contracts/foodDelivery.sol\":924:963  mapping(uint256 => Order) public orders */\n    tag_27:\n      mstore(0x20, 0x01)\n      dup1\n      0x00\n      mstore\n      keccak256(0x00, 0x40)\n      0x00\n      swap2\n      pop\n      swap1\n      pop\n      dup1\n      0x00\n      add\n      sload\n      swap1\n      dup1\n      0x01\n      add\n      0x00\n      swap1\n      sload\n      swap1\n      0x0100\n      exp\n      swap1\n      div\n      0xffffffffffffffffffffffffffffffffffffffff\n      and\n      swap1\n      dup1\n      0x02\n      add\n      dup1\n      sload\n      tag_76\n      swap1\n      tag_77\n      jump\t// in\n    tag_76:\n      dup1\n      0x1f\n      add\n      0x20\n      dup1\n      swap2\n      div\n      mul\n      0x20\n      add\n      mload(0x40)\n      swap1\n      dup2\n      add\n      0x40\n      mstore\n      dup1\n      swap3\n      swap2\n      swap1\n      dup2\n      dup2\n      mstore\n      0x20\n      add\n      dup3\n      dup1\n      sload\n      tag_78\n      swap1\n      tag_77\n      jump\t// in\n    tag_78:\n      dup1\n      iszero\n      tag_79\n      jumpi\n      dup1\n      0x1f\n      lt\n      tag_80\n      jumpi\n      0x0100\n      dup1\n      dup4\n      sload\n      div\n      mul\n      dup4\n      mstore\n      swap2\n      0x20\n      add\n      swap2\n      jump(tag_79)\n    tag_80:\n      dup3\n      add\n      swap2\n      swap1\n      0x00\n      mstore\n      keccak256(0x00, 0x20)\n      swap1\n    tag_81:\n      dup2\n      sload\n      dup2\n      mstore\n      swap1\n      0x01\n      add\n      swap1\n      0x20\n      add\n      dup1\n      dup4\n      gt\n      tag_81\n      jumpi\n      dup3\n      swap1\n      sub\n      0x1f\n      and\n      dup3\n      add\n      swap2\n    tag_79:\n      pop\n      pop\n      pop\n      pop\n      pop\n      swap1\n      dup1\n      0x03\n      add\n      sload\n      swap1\n      dup1\n      0x04\n      add\n      0x00\n      swap1\n      sload\n      swap1\n      0x0100\n      exp\n      swap1\n      div\n      0xff\n      and\n      swap1\n      dup1\n      0x05\n      add\n      sload\n      swap1\n      pop\n      dup7\n      jump\t// out\n        /* \"contracts/foodDelivery.sol\":3946:4113  function getOrder(uint256 orderId) external view returns (Order memory) {... */\n    tag_33:\n        /* \"contracts/foodDelivery.sol\":4004:4016  Order memory */\n      tag_82\n      tag_83\n      jump\t// in\n    tag_82:\n        /* \"contracts/foodDelivery.sol\":4090:4096  orders */\n      0x01\n        /* \"contracts/foodDelivery.sol\":4090:4105  orders[orderId] */\n      0x00\n        /* \"contracts/foodDelivery.sol\":4097:4104  orderId */\n      dup4\n        /* \"contracts/foodDelivery.sol\":4090:4105  orders[orderId] */\n      dup2\n      mstore\n      0x20\n      add\n      swap1\n      dup2\n      mstore\n      0x20\n      add\n      0x00\n      keccak256\n        /* \"contracts/foodDelivery.sol\":4083:4105  return orders[orderId] */\n      mload(0x40)\n      dup1\n      0xc0\n      add\n      0x40\n      mstore\n      swap1\n      dup2\n      0x00\n      dup3\n      add\n      sload\n      dup2\n      mstore\n      0x20\n      add\n      0x01\n      dup3\n      add\n      0x00\n      swap1\n      sload\n      swap1\n      0x0100\n      exp\n      swap1\n      div\n      0xffffffffffffffffffffffffffffffffffffffff\n      and\n      0xffffffffffffffffffffffffffffffffffffffff\n      and\n      0xffffffffffffffffffffffffffffffffffffffff\n      and\n      dup2\n      mstore\n      0x20\n      add\n      0x02\n      dup3\n      add\n      dup1\n      sload\n      tag_85\n      swap1\n      tag_77\n      jump\t// in\n    tag_85:\n      dup1\n      0x1f\n      add\n      0x20\n      dup1\n      swap2\n      div\n      mul\n      0x20\n      add\n      mload(0x40)\n      swap1\n      dup2\n      add\n      0x40\n      mstore\n      dup1\n      swap3\n      swap2\n      swap1\n      dup2\n      dup2\n      mstore\n      0x20\n      add\n      dup3\n      dup1\n      sload\n      tag_86\n      swap1\n      tag_77\n      jump\t// in\n    tag_86:\n      dup1\n      iszero\n      tag_87\n      jumpi\n      dup1\n      0x1f\n      lt\n      tag_88\n      jumpi\n      0x0100\n      dup1\n      dup4\n      sload\n      div\n      mul\n      dup4\n      mstore\n      swap2\n      0x20\n      add\n      swap2\n      jump(tag_87)\n    tag_88:\n      dup3\n      add\n      swap2\n      swap1\n      0x00\n      mstore\n      keccak256(0x00, 0x20)\n      swap1\n    tag_89:\n      dup2\n      sload\n      dup2\n      mstore\n      swap1\n      0x01\n      add\n      swap1\n      0x20\n      add\n      dup1\n      dup4\n      gt\n      tag_89\n      jumpi\n      dup3\n      swap1\n      sub\n      0x1f\n      and\n      dup3\n      add\n      swap2\n    tag_87:\n      pop\n      pop\n      pop\n      pop\n      pop\n      dup2\n      mstore\n      0x20\n      add\n      0x03\n      dup3\n      add\n      sload\n      dup2\n      mstore\n      0x20\n      add\n      0x04\n      dup3\n      add\n      0x00\n      swap1\n      sload\n      swap1\n      0x0100\n      exp\n      swap1\n      div\n      0xff\n      and\n      0x03\n      dup2\n      gt\n      iszero\n      tag_90\n      jumpi\n      tag_91\n      tag_52\n      jump\t// in\n    tag_91:\n    tag_90:\n      0x03\n      dup2\n      gt\n      iszero\n      tag_92\n      jumpi\n      tag_93\n      tag_52\n      jump\t// in\n    tag_93:\n    tag_92:\n      dup2\n      mstore\n      0x20\n      add\n      0x05\n      dup3\n      add\n      sload\n      dup2\n      mstore\n      pop\n      pop\n      swap1\n      pop\n        /* \"contracts/foodDelivery.sol\":3946:4113  function getOrder(uint256 orderId) external view returns (Order memory) {... */\n      swap2\n      swap1\n      pop\n      jump\t// out\n        /* \"contracts/foodDelivery.sol\":3133:3407  function deliverOrder(uint256 orderId) external onlyPending(orderId) {... */\n    tag_39:\n        /* \"contracts/foodDelivery.sol\":3193:3200  orderId */\n      dup1\n        /* \"contracts/foodDelivery.sol\":1677:1696  OrderStatus.Pending */\n      0x00\n        /* \"contracts/foodDelivery.sol\":1651:1696  orders[orderId].status == OrderStatus.Pending */\n      0x03\n      dup2\n      gt\n      iszero\n      tag_95\n      jumpi\n      tag_96\n      tag_52\n      jump\t// in\n    tag_96:\n    tag_95:\n        /* \"contracts/foodDelivery.sol\":1651:1657  orders */\n      0x01\n        /* \"contracts/foodDelivery.sol\":1651:1666  orders[orderId] */\n      0x00\n        /* \"contracts/foodDelivery.sol\":1658:1665  orderId */\n      dup4\n        /* \"contracts/foodDelivery.sol\":1651:1666  orders[orderId] */\n      dup2\n      mstore\n      0x20\n      add\n      swap1\n      dup2\n      mstore\n      0x20\n      add\n      0x00\n      keccak256\n        /* \"contracts/foodDelivery.sol\":1651:1673  orders[orderId].status */\n      0x04\n      add\n      0x00\n      swap1\n      sload\n      swap1\n      0x0100\n      exp\n      swap1\n      div\n      0xff\n      and\n        /* \"contracts/foodDelivery.sol\":1651:1696  orders[orderId].status == OrderStatus.Pending */\n      0x03\n      dup2\n      gt\n      iszero\n      tag_97\n      jumpi\n      tag_98\n      tag_52\n      jump\t// in\n    tag_98:\n    tag_97:\n      eq\n        /* \"contracts/foodDelivery.sol\":1643:1718  require(orders[orderId].status == OrderStatus.Pending, \"Order not pending\") */\n      tag_99\n      jumpi\n      mload(0x40)\n      0x08c379a000000000000000000000000000000000000000000000000000000000\n      dup2\n      mstore\n      0x04\n      add\n      tag_100\n      swap1\n      tag_70\n      jump\t// in\n    tag_100:\n      mload(0x40)\n      dup1\n      swap2\n      sub\n      swap1\n      revert\n    tag_99:\n        /* \"contracts/foodDelivery.sol\":3287:3308  OrderStatus.Delivered */\n      0x02\n        /* \"contracts/foodDelivery.sol\":3262:3268  orders */\n      0x01\n        /* \"contracts/foodDelivery.sol\":3262:3277  orders[orderId] */\n      0x00\n        /* \"contracts/foodDelivery.sol\":3269:3276  orderId */\n      dup5\n        /* \"contracts/foodDelivery.sol\":3262:3277  orders[orderId] */\n      dup2\n      mstore\n      0x20\n      add\n      swap1\n      dup2\n      mstore\n      0x20\n      add\n      0x00\n      keccak256\n        /* \"contracts/foodDelivery.sol\":3262:3284  orders[orderId].status */\n      0x04\n      add\n      0x00\n        /* \"contracts/foodDelivery.sol\":3262:3308  orders[orderId].status = OrderStatus.Delivered */\n      0x0100\n      exp\n      dup2\n      sload\n      dup2\n      0xff\n      mul\n      not\n      and\n      swap1\n      dup4\n      0x03\n      dup2\n      gt\n      iszero\n      tag_102\n      jumpi\n      tag_103\n      tag_52\n      jump\t// in\n    tag_103:\n    tag_102:\n      mul\n      or\n      swap1\n      sstore\n      pop\n        /* \"contracts/foodDelivery.sol\":3391:3398  orderId */\n      dup2\n        /* \"contracts/foodDelivery.sol\":3376:3399  OrderDelivered(orderId) */\n      0xe21fe02c1589242b30be2057f54fd54b7ddc463695d19ffdb54f9ebb0584f24a\n      mload(0x40)\n      mload(0x40)\n      dup1\n      swap2\n      sub\n      swap1\n      log2\n        /* \"contracts/foodDelivery.sol\":3133:3407  function deliverOrder(uint256 orderId) external onlyPending(orderId) {... */\n      pop\n      pop\n      jump\t// out\n        /* \"contracts/foodDelivery.sol\":2806:3078  function acceptOrder(uint256 orderId) external onlyPending(orderId) {... */\n    tag_43:\n        /* \"contracts/foodDelivery.sol\":2865:2872  orderId */\n      dup1\n        /* \"contracts/foodDelivery.sol\":1677:1696  OrderStatus.Pending */\n      0x00\n        /* \"contracts/foodDelivery.sol\":1651:1696  orders[orderId].status == OrderStatus.Pending */\n      0x03\n      dup2\n      gt\n      iszero\n      tag_105\n      jumpi\n      tag_106\n      tag_52\n      jump\t// in\n    tag_106:\n    tag_105:\n        /* \"contracts/foodDelivery.sol\":1651:1657  orders */\n      0x01\n        /* \"contracts/foodDelivery.sol\":1651:1666  orders[orderId] */\n      0x00\n        /* \"contracts/foodDelivery.sol\":1658:1665  orderId */\n      dup4\n        /* \"contracts/foodDelivery.sol\":1651:1666  orders[orderId] */\n      dup2\n      mstore\n      0x20\n      add\n      swap1\n      dup2\n      mstore\n      0x20\n      add\n      0x00\n      keccak256\n        /* \"contracts/foodDelivery.sol\":1651:1673  orders[orderId].status */\n      0x04\n      add\n      0x00\n      swap1\n      sload\n      swap1\n      0x0100\n      exp\n      swap1\n      div\n      0xff\n      and\n        /* \"contracts/foodDelivery.sol\":1651:1696  orders[orderId].status == OrderStatus.Pending */\n      0x03\n      dup2\n      gt\n      iszero\n      tag_107\n      jumpi\n      tag_108\n      tag_52\n      jump\t// in\n    tag_108:\n    tag_107:\n      eq\n        /* \"contracts/foodDelivery.sol\":1643:1718  require(orders[orderId].status == OrderStatus.Pending, \"Order not pending\") */\n      tag_109\n      jumpi\n      mload(0x40)\n      0x08c379a000000000000000000000000000000000000000000000000000000000\n      dup2\n      mstore\n      0x04\n      add\n      tag_110\n      swap1\n      tag_70\n      jump\t// in\n    tag_110:\n      mload(0x40)\n      dup1\n      swap2\n      sub\n      swap1\n      revert\n    tag_109:\n        /* \"contracts/foodDelivery.sol\":2958:2978  OrderStatus.Accepted */\n      0x01\n        /* \"contracts/foodDelivery.sol\":2933:2939  orders */\n      dup1\n        /* \"contracts/foodDelivery.sol\":2933:2948  orders[orderId] */\n      0x00\n        /* \"contracts/foodDelivery.sol\":2940:2947  orderId */\n      dup5\n        /* \"contracts/foodDelivery.sol\":2933:2948  orders[orderId] */\n      dup2\n      mstore\n      0x20\n      add\n      swap1\n      dup2\n      mstore\n      0x20\n      add\n      0x00\n      keccak256\n        /* \"contracts/foodDelivery.sol\":2933:2955  orders[orderId].status */\n      0x04\n      add\n      0x00\n        /* \"contracts/foodDelivery.sol\":2933:2978  orders[orderId].status = OrderStatus.Accepted */\n      0x0100\n      exp\n      dup2\n      sload\n      dup2\n      0xff\n      mul\n      not\n      and\n      swap1\n      dup4\n      0x03\n      dup2\n      gt\n      iszero\n      tag_112\n      jumpi\n      tag_113\n      tag_52\n      jump\t// in\n    tag_113:\n    tag_112:\n      mul\n      or\n      swap1\n      sstore\n      pop\n        /* \"contracts/foodDelivery.sol\":3062:3069  orderId */\n      dup2\n        /* \"contracts/foodDelivery.sol\":3048:3070  OrderAccepted(orderId) */\n      0x262f7ad1922bdcf27203585ef3238620589ce6f74721d45bff6897a19e4f94a1\n      mload(0x40)\n      mload(0x40)\n      dup1\n      swap2\n      sub\n      swap1\n      log2\n        /* \"contracts/foodDelivery.sol\":2806:3078  function acceptOrder(uint256 orderId) external onlyPending(orderId) {... */\n      pop\n      pop\n      jump\t// out\n    tag_83:\n      mload(0x40)\n      dup1\n      0xc0\n      add\n      0x40\n      mstore\n      dup1\n      0x00\n      dup2\n      mstore\n      0x20\n      add\n      and(0xffffffffffffffffffffffffffffffffffffffff, 0x00)\n      dup2\n      mstore\n      0x20\n      add\n      0x60\n      dup2\n      mstore\n      0x20\n      add\n      0x00\n      dup2\n      mstore\n      0x20\n      add\n      0x00\n      0x03\n      dup2\n      gt\n      iszero\n      tag_114\n      jumpi\n      tag_115\n      tag_52\n      jump\t// in\n    tag_115:\n    tag_114:\n      dup2\n      mstore\n      0x20\n      add\n      0x00\n      dup2\n      mstore\n      pop\n      swap1\n      jump\t// out\n        /* \"#utility.yul\":7:84   */\n    tag_116:\n        /* \"#utility.yul\":44:51   */\n      0x00\n        /* \"#utility.yul\":73:78   */\n      dup2\n        /* \"#utility.yul\":62:78   */\n      swap1\n      pop\n        /* \"#utility.yul\":7:84   */\n      swap2\n      swap1\n      pop\n      jump\t// out\n        /* \"#utility.yul\":90:208   */\n    tag_117:\n        /* \"#utility.yul\":177:201   */\n      tag_176\n        /* \"#utility.yul\":195:200   */\n      dup2\n        /* \"#utility.yul\":177:201   */\n      tag_116\n      jump\t// in\n    tag_176:\n        /* \"#utility.yul\":172:175   */\n      dup3\n        /* \"#utility.yul\":165:202   */\n      mstore\n        /* \"#utility.yul\":90:208   */\n      pop\n      pop\n      jump\t// out\n        /* \"#utility.yul\":214:436   */\n    tag_14:\n        /* \"#utility.yul\":307:311   */\n      0x00\n        /* \"#utility.yul\":345:347   */\n      0x20\n        /* \"#utility.yul\":334:343   */\n      dup3\n        /* \"#utility.yul\":330:348   */\n      add\n        /* \"#utility.yul\":322:348   */\n      swap1\n      pop\n        /* \"#utility.yul\":358:429   */\n      tag_178\n        /* \"#utility.yul\":426:427   */\n      0x00\n        /* \"#utility.yul\":415:424   */\n      dup4\n        /* \"#utility.yul\":411:428   */\n      add\n        /* \"#utility.yul\":402:408   */\n      dup5\n        /* \"#utility.yul\":358:429   */\n      tag_117\n      jump\t// in\n    tag_178:\n        /* \"#utility.yul\":214:436   */\n      swap3\n      swap2\n      pop\n      pop\n      jump\t// out\n        /* \"#utility.yul\":442:517   */\n    tag_118:\n        /* \"#utility.yul\":475:481   */\n      0x00\n        /* \"#utility.yul\":508:510   */\n      0x40\n        /* \"#utility.yul\":502:511   */\n      mload\n        /* \"#utility.yul\":492:511   */\n      swap1\n      pop\n        /* \"#utility.yul\":442:517   */\n      swap1\n      jump\t// out\n        /* \"#utility.yul\":523:640   */\n    tag_119:\n        /* \"#utility.yul\":632:633   */\n      0x00\n        /* \"#utility.yul\":629:630   */\n      dup1\n        /* \"#utility.yul\":622:634   */\n      revert\n        /* \"#utility.yul\":646:763   */\n    tag_120:\n        /* \"#utility.yul\":755:756   */\n      0x00\n        /* \"#utility.yul\":752:753   */\n      dup1\n        /* \"#utility.yul\":745:757   */\n      revert\n        /* \"#utility.yul\":769:886   */\n    tag_121:\n        /* \"#utility.yul\":878:879   */\n      0x00\n        /* \"#utility.yul\":875:876   */\n      dup1\n        /* \"#utility.yul\":868:880   */\n      revert\n        /* \"#utility.yul\":892:1009   */\n    tag_122:\n        /* \"#utility.yul\":1001:1002   */\n      0x00\n        /* \"#utility.yul\":998:999   */\n      dup1\n        /* \"#utility.yul\":991:1003   */\n      revert\n        /* \"#utility.yul\":1015:1117   */\n    tag_123:\n        /* \"#utility.yul\":1056:1062   */\n      0x00\n        /* \"#utility.yul\":1107:1109   */\n      0x1f\n        /* \"#utility.yul\":1103:1110   */\n      not\n        /* \"#utility.yul\":1098:1100   */\n      0x1f\n        /* \"#utility.yul\":1091:1096   */\n      dup4\n        /* \"#utility.yul\":1087:1101   */\n      add\n        /* \"#utility.yul\":1083:1111   */\n      and\n        /* \"#utility.yul\":1073:1111   */\n      swap1\n      pop\n        /* \"#utility.yul\":1015:1117   */\n      swap2\n      swap1\n      pop\n      jump\t// out\n        /* \"#utility.yul\":1123:1303   */\n    tag_124:\n        /* \"#utility.yul\":1171:1248   */\n      0x4e487b7100000000000000000000000000000000000000000000000000000000\n        /* \"#utility.yul\":1168:1169   */\n      0x00\n        /* \"#utility.yul\":1161:1249   */\n      mstore\n        /* \"#utility.yul\":1268:1272   */\n      0x41\n        /* \"#utility.yul\":1265:1266   */\n      0x04\n        /* \"#utility.yul\":1258:1273   */\n      mstore\n        /* \"#utility.yul\":1292:1296   */\n      0x24\n        /* \"#utility.yul\":1289:1290   */\n      0x00\n        /* \"#utility.yul\":1282:1297   */\n      revert\n        /* \"#utility.yul\":1309:1590   */\n    tag_125:\n        /* \"#utility.yul\":1392:1419   */\n      tag_187\n        /* \"#utility.yul\":1414:1418   */\n      dup3\n        /* \"#utility.yul\":1392:1419   */\n      tag_123\n      jump\t// in\n    tag_187:\n        /* \"#utility.yul\":1384:1390   */\n      dup2\n        /* \"#utility.yul\":1380:1420   */\n      add\n        /* \"#utility.yul\":1522:1528   */\n      dup2\n        /* \"#utility.yul\":1510:1520   */\n      dup2\n        /* \"#utility.yul\":1507:1529   */\n      lt\n        /* \"#utility.yul\":1486:1504   */\n      0xffffffffffffffff\n        /* \"#utility.yul\":1474:1484   */\n      dup3\n        /* \"#utility.yul\":1471:1505   */\n      gt\n        /* \"#utility.yul\":1468:1530   */\n      or\n        /* \"#utility.yul\":1465:1553   */\n      iszero\n      tag_188\n      jumpi\n        /* \"#utility.yul\":1533:1551   */\n      tag_189\n      tag_124\n      jump\t// in\n    tag_189:\n        /* \"#utility.yul\":1465:1553   */\n    tag_188:\n        /* \"#utility.yul\":1573:1583   */\n      dup1\n        /* \"#utility.yul\":1569:1571   */\n      0x40\n        /* \"#utility.yul\":1562:1584   */\n      mstore\n        /* \"#utility.yul\":1352:1590   */\n      pop\n        /* \"#utility.yul\":1309:1590   */\n      pop\n      pop\n      jump\t// out\n        /* \"#utility.yul\":1596:1725   */\n    tag_126:\n        /* \"#utility.yul\":1630:1636   */\n      0x00\n        /* \"#utility.yul\":1657:1677   */\n      tag_191\n      tag_118\n      jump\t// in\n    tag_191:\n        /* \"#utility.yul\":1647:1677   */\n      swap1\n      pop\n        /* \"#utility.yul\":1686:1719   */\n      tag_192\n        /* \"#utility.yul\":1714:1718   */\n      dup3\n        /* \"#utility.yul\":1706:1712   */\n      dup3\n        /* \"#utility.yul\":1686:1719   */\n      tag_125\n      jump\t// in\n    tag_192:\n        /* \"#utility.yul\":1596:1725   */\n      swap2\n      swap1\n      pop\n      jump\t// out\n        /* \"#utility.yul\":1731:2039   */\n    tag_127:\n        /* \"#utility.yul\":1793:1797   */\n      0x00\n        /* \"#utility.yul\":1883:1901   */\n      0xffffffffffffffff\n        /* \"#utility.yul\":1875:1881   */\n      dup3\n        /* \"#utility.yul\":1872:1902   */\n      gt\n        /* \"#utility.yul\":1869:1925   */\n      iszero\n      tag_194\n      jumpi\n        /* \"#utility.yul\":1905:1923   */\n      tag_195\n      tag_124\n      jump\t// in\n    tag_195:\n        /* \"#utility.yul\":1869:1925   */\n    tag_194:\n        /* \"#utility.yul\":1943:1972   */\n      tag_196\n        /* \"#utility.yul\":1965:1971   */\n      dup3\n        /* \"#utility.yul\":1943:1972   */\n      tag_123\n      jump\t// in\n    tag_196:\n        /* \"#utility.yul\":1935:1972   */\n      swap1\n      pop\n        /* \"#utility.yul\":2027:2031   */\n      0x20\n        /* \"#utility.yul\":2021:2025   */\n      dup2\n        /* \"#utility.yul\":2017:2032   */\n      add\n        /* \"#utility.yul\":2009:2032   */\n      swap1\n      pop\n        /* \"#utility.yul\":1731:2039   */\n      swap2\n      swap1\n      pop\n      jump\t// out\n        /* \"#utility.yul\":2045:2193   */\n    tag_128:\n        /* \"#utility.yul\":2143:2149   */\n      dup3\n        /* \"#utility.yul\":2138:2141   */\n      dup2\n        /* \"#utility.yul\":2133:2136   */\n      dup4\n        /* \"#utility.yul\":2120:2150   */\n      calldatacopy\n        /* \"#utility.yul\":2184:2185   */\n      0x00\n        /* \"#utility.yul\":2175:2181   */\n      dup4\n        /* \"#utility.yul\":2170:2173   */\n      dup4\n        /* \"#utility.yul\":2166:2182   */\n      add\n        /* \"#utility.yul\":2159:2186   */\n      mstore\n        /* \"#utility.yul\":2045:2193   */\n      pop\n      pop\n      pop\n      jump\t// out\n        /* \"#utility.yul\":2199:2624   */\n    tag_129:\n        /* \"#utility.yul\":2277:2282   */\n      0x00\n        /* \"#utility.yul\":2302:2368   */\n      tag_199\n        /* \"#utility.yul\":2318:2367   */\n      tag_200\n        /* \"#utility.yul\":2360:2366   */\n      dup5\n        /* \"#utility.yul\":2318:2367   */\n      tag_127\n      jump\t// in\n    tag_200:\n        /* \"#utility.yul\":2302:2368   */\n      tag_126\n      jump\t// in\n    tag_199:\n        /* \"#utility.yul\":2293:2368   */\n      swap1\n      pop\n        /* \"#utility.yul\":2391:2397   */\n      dup3\n        /* \"#utility.yul\":2384:2389   */\n      dup2\n        /* \"#utility.yul\":2377:2398   */\n      mstore\n        /* \"#utility.yul\":2429:2433   */\n      0x20\n        /* \"#utility.yul\":2422:2427   */\n      dup2\n        /* \"#utility.yul\":2418:2434   */\n      add\n        /* \"#utility.yul\":2467:2470   */\n      dup5\n        /* \"#utility.yul\":2458:2464   */\n      dup5\n        /* \"#utility.yul\":2453:2456   */\n      dup5\n        /* \"#utility.yul\":2449:2465   */\n      add\n        /* \"#utility.yul\":2446:2471   */\n      gt\n        /* \"#utility.yul\":2443:2555   */\n      iszero\n      tag_201\n      jumpi\n        /* \"#utility.yul\":2474:2553   */\n      tag_202\n      tag_122\n      jump\t// in\n    tag_202:\n        /* \"#utility.yul\":2443:2555   */\n    tag_201:\n        /* \"#utility.yul\":2564:2618   */\n      tag_203\n        /* \"#utility.yul\":2611:2617   */\n      dup5\n        /* \"#utility.yul\":2606:2609   */\n      dup3\n        /* \"#utility.yul\":2601:2604   */\n      dup6\n        /* \"#utility.yul\":2564:2618   */\n      tag_128\n      jump\t// in\n    tag_203:\n        /* \"#utility.yul\":2283:2624   */\n      pop\n        /* \"#utility.yul\":2199:2624   */\n      swap4\n      swap3\n      pop\n      pop\n      pop\n      jump\t// out\n        /* \"#utility.yul\":2644:2984   */\n    tag_130:\n        /* \"#utility.yul\":2700:2705   */\n      0x00\n        /* \"#utility.yul\":2749:2752   */\n      dup3\n        /* \"#utility.yul\":2742:2746   */\n      0x1f\n        /* \"#utility.yul\":2734:2740   */\n      dup4\n        /* \"#utility.yul\":2730:2747   */\n      add\n        /* \"#utility.yul\":2726:2753   */\n      slt\n        /* \"#utility.yul\":2716:2838   */\n      tag_205\n      jumpi\n        /* \"#utility.yul\":2757:2836   */\n      tag_206\n      tag_121\n      jump\t// in\n    tag_206:\n        /* \"#utility.yul\":2716:2838   */\n    tag_205:\n        /* \"#utility.yul\":2874:2880   */\n      dup2\n        /* \"#utility.yul\":2861:2881   */\n      calldataload\n        /* \"#utility.yul\":2899:2978   */\n      tag_207\n        /* \"#utility.yul\":2974:2977   */\n      dup5\n        /* \"#utility.yul\":2966:2972   */\n      dup3\n        /* \"#utility.yul\":2959:2963   */\n      0x20\n        /* \"#utility.yul\":2951:2957   */\n      dup7\n        /* \"#utility.yul\":2947:2964   */\n      add\n        /* \"#utility.yul\":2899:2978   */\n      tag_129\n      jump\t// in\n    tag_207:\n        /* \"#utility.yul\":2890:2978   */\n      swap2\n      pop\n        /* \"#utility.yul\":2706:2984   */\n      pop\n        /* \"#utility.yul\":2644:2984   */\n      swap3\n      swap2\n      pop\n      pop\n      jump\t// out\n        /* \"#utility.yul\":2990:3499   */\n    tag_17:\n        /* \"#utility.yul\":3059:3065   */\n      0x00\n        /* \"#utility.yul\":3108:3110   */\n      0x20\n        /* \"#utility.yul\":3096:3105   */\n      dup3\n        /* \"#utility.yul\":3087:3094   */\n      dup5\n        /* \"#utility.yul\":3083:3106   */\n      sub\n        /* \"#utility.yul\":3079:3111   */\n      slt\n        /* \"#utility.yul\":3076:3195   */\n      iszero\n      tag_209\n      jumpi\n        /* \"#utility.yul\":3114:3193   */\n      tag_210\n      tag_119\n      jump\t// in\n    tag_210:\n        /* \"#utility.yul\":3076:3195   */\n    tag_209:\n        /* \"#utility.yul\":3262:3263   */\n      0x00\n        /* \"#utility.yul\":3251:3260   */\n      dup3\n        /* \"#utility.yul\":3247:3264   */\n      add\n        /* \"#utility.yul\":3234:3265   */\n      calldataload\n        /* \"#utility.yul\":3292:3310   */\n      0xffffffffffffffff\n        /* \"#utility.yul\":3284:3290   */\n      dup2\n        /* \"#utility.yul\":3281:3311   */\n      gt\n        /* \"#utility.yul\":3278:3395   */\n      iszero\n      tag_211\n      jumpi\n        /* \"#utility.yul\":3314:3393   */\n      tag_212\n      tag_120\n      jump\t// in\n    tag_212:\n        /* \"#utility.yul\":3278:3395   */\n    tag_211:\n        /* \"#utility.yul\":3419:3482   */\n      tag_213\n        /* \"#utility.yul\":3474:3481   */\n      dup5\n        /* \"#utility.yul\":3465:3471   */\n      dup3\n        /* \"#utility.yul\":3454:3463   */\n      dup6\n        /* \"#utility.yul\":3450:3472   */\n      add\n        /* \"#utility.yul\":3419:3482   */\n      tag_130\n      jump\t// in\n    tag_213:\n        /* \"#utility.yul\":3409:3482   */\n      swap2\n      pop\n        /* \"#utility.yul\":3205:3492   */\n      pop\n        /* \"#utility.yul\":2990:3499   */\n      swap3\n      swap2\n      pop\n      pop\n      jump\t// out\n        /* \"#utility.yul\":3505:3627   */\n    tag_131:\n        /* \"#utility.yul\":3578:3602   */\n      tag_215\n        /* \"#utility.yul\":3596:3601   */\n      dup2\n        /* \"#utility.yul\":3578:3602   */\n      tag_116\n      jump\t// in\n    tag_215:\n        /* \"#utility.yul\":3571:3576   */\n      dup2\n        /* \"#utility.yul\":3568:3603   */\n      eq\n        /* \"#utility.yul\":3558:3621   */\n      tag_216\n      jumpi\n        /* \"#utility.yul\":3617:3618   */\n      0x00\n        /* \"#utility.yul\":3614:3615   */\n      dup1\n        /* \"#utility.yul\":3607:3619   */\n      revert\n        /* \"#utility.yul\":3558:3621   */\n    tag_216:\n        /* \"#utility.yul\":3505:3627   */\n      pop\n      jump\t// out\n        /* \"#utility.yul\":3633:3772   */\n    tag_132:\n        /* \"#utility.yul\":3679:3684   */\n      0x00\n        /* \"#utility.yul\":3717:3723   */\n      dup2\n        /* \"#utility.yul\":3704:3724   */\n      calldataload\n        /* \"#utility.yul\":3695:3724   */\n      swap1\n      pop\n        /* \"#utility.yul\":3733:3766   */\n      tag_218\n        /* \"#utility.yul\":3760:3765   */\n      dup2\n        /* \"#utility.yul\":3733:3766   */\n      tag_131\n      jump\t// in\n    tag_218:\n        /* \"#utility.yul\":3633:3772   */\n      swap3\n      swap2\n      pop\n      pop\n      jump\t// out\n        /* \"#utility.yul\":3778:4107   */\n    tag_22:\n        /* \"#utility.yul\":3837:3843   */\n      0x00\n        /* \"#utility.yul\":3886:3888   */\n      0x20\n        /* \"#utility.yul\":3874:3883   */\n      dup3\n        /* \"#utility.yul\":3865:3872   */\n      dup5\n        /* \"#utility.yul\":3861:3884   */\n      sub\n        /* \"#utility.yul\":3857:3889   */\n      slt\n        /* \"#utility.yul\":3854:3973   */\n      iszero\n      tag_220\n      jumpi\n        /* \"#utility.yul\":3892:3971   */\n      tag_221\n      tag_119\n      jump\t// in\n    tag_221:\n        /* \"#utility.yul\":3854:3973   */\n    tag_220:\n        /* \"#utility.yul\":4012:4013   */\n      0x00\n        /* \"#utility.yul\":4037:4090   */\n      tag_222\n        /* \"#utility.yul\":4082:4089   */\n      dup5\n        /* \"#utility.yul\":4073:4079   */\n      dup3\n        /* \"#utility.yul\":4062:4071   */\n      dup6\n        /* \"#utility.yul\":4058:4080   */\n      add\n        /* \"#utility.yul\":4037:4090   */\n      tag_132\n      jump\t// in\n    tag_222:\n        /* \"#utility.yul\":4027:4090   */\n      swap2\n      pop\n        /* \"#utility.yul\":3983:4100   */\n      pop\n        /* \"#utility.yul\":3778:4107   */\n      swap3\n      swap2\n      pop\n      pop\n      jump\t// out\n        /* \"#utility.yul\":4113:4239   */\n    tag_133:\n        /* \"#utility.yul\":4150:4157   */\n      0x00\n        /* \"#utility.yul\":4190:4232   */\n      0xffffffffffffffffffffffffffffffffffffffff\n        /* \"#utility.yul\":4183:4188   */\n      dup3\n        /* \"#utility.yul\":4179:4233   */\n      and\n        /* \"#utility.yul\":4168:4233   */\n      swap1\n      pop\n        /* \"#utility.yul\":4113:4239   */\n      swap2\n      swap1\n      pop\n      jump\t// out\n        /* \"#utility.yul\":4245:4341   */\n    tag_134:\n        /* \"#utility.yul\":4282:4289   */\n      0x00\n        /* \"#utility.yul\":4311:4335   */\n      tag_225\n        /* \"#utility.yul\":4329:4334   */\n      dup3\n        /* \"#utility.yul\":4311:4335   */\n      tag_133\n      jump\t// in\n    tag_225:\n        /* \"#utility.yul\":4300:4335   */\n      swap1\n      pop\n        /* \"#utility.yul\":4245:4341   */\n      swap2\n      swap1\n      pop\n      jump\t// out\n        /* \"#utility.yul\":4347:4465   */\n    tag_135:\n        /* \"#utility.yul\":4434:4458   */\n      tag_227\n        /* \"#utility.yul\":4452:4457   */\n      dup2\n        /* \"#utility.yul\":4434:4458   */\n      tag_134\n      jump\t// in\n    tag_227:\n        /* \"#utility.yul\":4429:4432   */\n      dup3\n        /* \"#utility.yul\":4422:4459   */\n      mstore\n        /* \"#utility.yul\":4347:4465   */\n      pop\n      pop\n      jump\t// out\n        /* \"#utility.yul\":4471:4570   */\n    tag_136:\n        /* \"#utility.yul\":4523:4529   */\n      0x00\n        /* \"#utility.yul\":4557:4562   */\n      dup2\n        /* \"#utility.yul\":4551:4563   */\n      mload\n        /* \"#utility.yul\":4541:4563   */\n      swap1\n      pop\n        /* \"#utility.yul\":4471:4570   */\n      swap2\n      swap1\n      pop\n      jump\t// out\n        /* \"#utility.yul\":4576:4745   */\n    tag_137:\n        /* \"#utility.yul\":4660:4671   */\n      0x00\n        /* \"#utility.yul\":4694:4700   */\n      dup3\n        /* \"#utility.yul\":4689:4692   */\n      dup3\n        /* \"#utility.yul\":4682:4701   */\n      mstore\n        /* \"#utility.yul\":4734:4738   */\n      0x20\n        /* \"#utility.yul\":4729:4732   */\n      dup3\n        /* \"#utility.yul\":4725:4739   */\n      add\n        /* \"#utility.yul\":4710:4739   */\n      swap1\n      pop\n        /* \"#utility.yul\":4576:4745   */\n      swap3\n      swap2\n      pop\n      pop\n      jump\t// out\n        /* \"#utility.yul\":4751:4890   */\n    tag_138:\n        /* \"#utility.yul\":4840:4846   */\n      dup3\n        /* \"#utility.yul\":4835:4838   */\n      dup2\n        /* \"#utility.yul\":4830:4833   */\n      dup4\n        /* \"#utility.yul\":4824:4847   */\n      mcopy\n        /* \"#utility.yul\":4881:4882   */\n      0x00\n        /* \"#utility.yul\":4872:4878   */\n      dup4\n        /* \"#utility.yul\":4867:4870   */\n      dup4\n        /* \"#utility.yul\":4863:4879   */\n      add\n        /* \"#utility.yul\":4856:4883   */\n      mstore\n        /* \"#utility.yul\":4751:4890   */\n      pop\n      pop\n      pop\n      jump\t// out\n        /* \"#utility.yul\":4896:5273   */\n    tag_139:\n        /* \"#utility.yul\":4984:4987   */\n      0x00\n        /* \"#utility.yul\":5012:5051   */\n      tag_232\n        /* \"#utility.yul\":5045:5050   */\n      dup3\n        /* \"#utility.yul\":5012:5051   */\n      tag_136\n      jump\t// in\n    tag_232:\n        /* \"#utility.yul\":5067:5138   */\n      tag_233\n        /* \"#utility.yul\":5131:5137   */\n      dup2\n        /* \"#utility.yul\":5126:5129   */\n      dup6\n        /* \"#utility.yul\":5067:5138   */\n      tag_137\n      jump\t// in\n    tag_233:\n        /* \"#utility.yul\":5060:5138   */\n      swap4\n      pop\n        /* \"#utility.yul\":5147:5212   */\n      tag_234\n        /* \"#utility.yul\":5205:5211   */\n      dup2\n        /* \"#utility.yul\":5200:5203   */\n      dup6\n        /* \"#utility.yul\":5193:5197   */\n      0x20\n        /* \"#utility.yul\":5186:5191   */\n      dup7\n        /* \"#utility.yul\":5182:5198   */\n      add\n        /* \"#utility.yul\":5147:5212   */\n      tag_138\n      jump\t// in\n    tag_234:\n        /* \"#utility.yul\":5237:5266   */\n      tag_235\n        /* \"#utility.yul\":5259:5265   */\n      dup2\n        /* \"#utility.yul\":5237:5266   */\n      tag_123\n      jump\t// in\n    tag_235:\n        /* \"#utility.yul\":5232:5235   */\n      dup5\n        /* \"#utility.yul\":5228:5267   */\n      add\n        /* \"#utility.yul\":5221:5267   */\n      swap2\n      pop\n        /* \"#utility.yul\":4988:5273   */\n      pop\n        /* \"#utility.yul\":4896:5273   */\n      swap3\n      swap2\n      pop\n      pop\n      jump\t// out\n        /* \"#utility.yul\":5279:5459   */\n    tag_52:\n        /* \"#utility.yul\":5327:5404   */\n      0x4e487b7100000000000000000000000000000000000000000000000000000000\n        /* \"#utility.yul\":5324:5325   */\n      0x00\n        /* \"#utility.yul\":5317:5405   */\n      mstore\n        /* \"#utility.yul\":5424:5428   */\n      0x21\n        /* \"#utility.yul\":5421:5422   */\n      0x04\n        /* \"#utility.yul\":5414:5429   */\n      mstore\n        /* \"#utility.yul\":5448:5452   */\n      0x24\n        /* \"#utility.yul\":5445:5446   */\n      0x00\n        /* \"#utility.yul\":5438:5453   */\n      revert\n        /* \"#utility.yul\":5465:5583   */\n    tag_140:\n        /* \"#utility.yul\":5551:5552   */\n      0x04\n        /* \"#utility.yul\":5544:5549   */\n      dup2\n        /* \"#utility.yul\":5541:5553   */\n      lt\n        /* \"#utility.yul\":5531:5577   */\n      tag_238\n      jumpi\n        /* \"#utility.yul\":5557:5575   */\n      tag_239\n      tag_52\n      jump\t// in\n    tag_239:\n        /* \"#utility.yul\":5531:5577   */\n    tag_238:\n        /* \"#utility.yul\":5465:5583   */\n      pop\n      jump\t// out\n        /* \"#utility.yul\":5589:5726   */\n    tag_141:\n        /* \"#utility.yul\":5639:5646   */\n      0x00\n        /* \"#utility.yul\":5668:5673   */\n      dup2\n        /* \"#utility.yul\":5657:5673   */\n      swap1\n      pop\n        /* \"#utility.yul\":5674:5720   */\n      tag_241\n        /* \"#utility.yul\":5714:5719   */\n      dup3\n        /* \"#utility.yul\":5674:5720   */\n      tag_140\n      jump\t// in\n    tag_241:\n        /* \"#utility.yul\":5589:5726   */\n      swap2\n      swap1\n      pop\n      jump\t// out\n        /* \"#utility.yul\":5732:5869   */\n    tag_142:\n        /* \"#utility.yul\":5793:5802   */\n      0x00\n        /* \"#utility.yul\":5826:5863   */\n      tag_243\n        /* \"#utility.yul\":5857:5862   */\n      dup3\n        /* \"#utility.yul\":5826:5863   */\n      tag_141\n      jump\t// in\n    tag_243:\n        /* \"#utility.yul\":5813:5863   */\n      swap1\n      pop\n        /* \"#utility.yul\":5732:5869   */\n      swap2\n      swap1\n      pop\n      jump\t// out\n        /* \"#utility.yul\":5875:6028   */\n    tag_143:\n        /* \"#utility.yul\":5973:6021   */\n      tag_245\n        /* \"#utility.yul\":6015:6020   */\n      dup2\n        /* \"#utility.yul\":5973:6021   */\n      tag_142\n      jump\t// in\n    tag_245:\n        /* \"#utility.yul\":5968:5971   */\n      dup3\n        /* \"#utility.yul\":5961:6022   */\n      mstore\n        /* \"#utility.yul\":5875:6028   */\n      pop\n      pop\n      jump\t// out\n        /* \"#utility.yul\":6034:6922   */\n    tag_29:\n        /* \"#utility.yul\":6298:6302   */\n      0x00\n        /* \"#utility.yul\":6336:6339   */\n      0xc0\n        /* \"#utility.yul\":6325:6334   */\n      dup3\n        /* \"#utility.yul\":6321:6340   */\n      add\n        /* \"#utility.yul\":6313:6340   */\n      swap1\n      pop\n        /* \"#utility.yul\":6350:6421   */\n      tag_247\n        /* \"#utility.yul\":6418:6419   */\n      0x00\n        /* \"#utility.yul\":6407:6416   */\n      dup4\n        /* \"#utility.yul\":6403:6420   */\n      add\n        /* \"#utility.yul\":6394:6400   */\n      dup10\n        /* \"#utility.yul\":6350:6421   */\n      tag_117\n      jump\t// in\n    tag_247:\n        /* \"#utility.yul\":6431:6503   */\n      tag_248\n        /* \"#utility.yul\":6499:6501   */\n      0x20\n        /* \"#utility.yul\":6488:6497   */\n      dup4\n        /* \"#utility.yul\":6484:6502   */\n      add\n        /* \"#utility.yul\":6475:6481   */\n      dup9\n        /* \"#utility.yul\":6431:6503   */\n      tag_135\n      jump\t// in\n    tag_248:\n        /* \"#utility.yul\":6550:6559   */\n      dup2\n        /* \"#utility.yul\":6544:6548   */\n      dup2\n        /* \"#utility.yul\":6540:6560   */\n      sub\n        /* \"#utility.yul\":6535:6537   */\n      0x40\n        /* \"#utility.yul\":6524:6533   */\n      dup4\n        /* \"#utility.yul\":6520:6538   */\n      add\n        /* \"#utility.yul\":6513:6561   */\n      mstore\n        /* \"#utility.yul\":6578:6656   */\n      tag_249\n        /* \"#utility.yul\":6651:6655   */\n      dup2\n        /* \"#utility.yul\":6642:6648   */\n      dup8\n        /* \"#utility.yul\":6578:6656   */\n      tag_139\n      jump\t// in\n    tag_249:\n        /* \"#utility.yul\":6570:6656   */\n      swap1\n      pop\n        /* \"#utility.yul\":6666:6738   */\n      tag_250\n        /* \"#utility.yul\":6734:6736   */\n      0x60\n        /* \"#utility.yul\":6723:6732   */\n      dup4\n        /* \"#utility.yul\":6719:6737   */\n      add\n        /* \"#utility.yul\":6710:6716   */\n      dup7\n        /* \"#utility.yul\":6666:6738   */\n      tag_117\n      jump\t// in\n    tag_250:\n        /* \"#utility.yul\":6748:6832   */\n      tag_251\n        /* \"#utility.yul\":6827:6830   */\n      0x80\n        /* \"#utility.yul\":6816:6825   */\n      dup4\n        /* \"#utility.yul\":6812:6831   */\n      add\n        /* \"#utility.yul\":6803:6809   */\n      dup6\n        /* \"#utility.yul\":6748:6832   */\n      tag_143\n      jump\t// in\n    tag_251:\n        /* \"#utility.yul\":6842:6915   */\n      tag_252\n        /* \"#utility.yul\":6910:6913   */\n      0xa0\n        /* \"#utility.yul\":6899:6908   */\n      dup4\n        /* \"#utility.yul\":6895:6914   */\n      add\n        /* \"#utility.yul\":6886:6892   */\n      dup5\n        /* \"#utility.yul\":6842:6915   */\n      tag_117\n      jump\t// in\n    tag_252:\n        /* \"#utility.yul\":6034:6922   */\n      swap8\n      swap7\n      pop\n      pop\n      pop\n      pop\n      pop\n      pop\n      pop\n      jump\t// out\n        /* \"#utility.yul\":6928:7036   */\n    tag_144:\n        /* \"#utility.yul\":7005:7029   */\n      tag_254\n        /* \"#utility.yul\":7023:7028   */\n      dup2\n        /* \"#utility.yul\":7005:7029   */\n      tag_116\n      jump\t// in\n    tag_254:\n        /* \"#utility.yul\":7000:7003   */\n      dup3\n        /* \"#utility.yul\":6993:7030   */\n      mstore\n        /* \"#utility.yul\":6928:7036   */\n      pop\n      pop\n      jump\t// out\n        /* \"#utility.yul\":7042:7150   */\n    tag_145:\n        /* \"#utility.yul\":7119:7143   */\n      tag_256\n        /* \"#utility.yul\":7137:7142   */\n      dup2\n        /* \"#utility.yul\":7119:7143   */\n      tag_134\n      jump\t// in\n    tag_256:\n        /* \"#utility.yul\":7114:7117   */\n      dup3\n        /* \"#utility.yul\":7107:7144   */\n      mstore\n        /* \"#utility.yul\":7042:7150   */\n      pop\n      pop\n      jump\t// out\n        /* \"#utility.yul\":7156:7315   */\n    tag_146:\n        /* \"#utility.yul\":7230:7241   */\n      0x00\n        /* \"#utility.yul\":7264:7270   */\n      dup3\n        /* \"#utility.yul\":7259:7262   */\n      dup3\n        /* \"#utility.yul\":7252:7271   */\n      mstore\n        /* \"#utility.yul\":7304:7308   */\n      0x20\n        /* \"#utility.yul\":7299:7302   */\n      dup3\n        /* \"#utility.yul\":7295:7309   */\n      add\n        /* \"#utility.yul\":7280:7309   */\n      swap1\n      pop\n        /* \"#utility.yul\":7156:7315   */\n      swap3\n      swap2\n      pop\n      pop\n      jump\t// out\n        /* \"#utility.yul\":7321:7678   */\n    tag_147:\n        /* \"#utility.yul\":7399:7402   */\n      0x00\n        /* \"#utility.yul\":7427:7466   */\n      tag_259\n        /* \"#utility.yul\":7460:7465   */\n      dup3\n        /* \"#utility.yul\":7427:7466   */\n      tag_136\n      jump\t// in\n    tag_259:\n        /* \"#utility.yul\":7482:7543   */\n      tag_260\n        /* \"#utility.yul\":7536:7542   */\n      dup2\n        /* \"#utility.yul\":7531:7534   */\n      dup6\n        /* \"#utility.yul\":7482:7543   */\n      tag_146\n      jump\t// in\n    tag_260:\n        /* \"#utility.yul\":7475:7543   */\n      swap4\n      pop\n        /* \"#utility.yul\":7552:7617   */\n      tag_261\n        /* \"#utility.yul\":7610:7616   */\n      dup2\n        /* \"#utility.yul\":7605:7608   */\n      dup6\n        /* \"#utility.yul\":7598:7602   */\n      0x20\n        /* \"#utility.yul\":7591:7596   */\n      dup7\n        /* \"#utility.yul\":7587:7603   */\n      add\n        /* \"#utility.yul\":7552:7617   */\n      tag_138\n      jump\t// in\n    tag_261:\n        /* \"#utility.yul\":7642:7671   */\n      tag_262\n        /* \"#utility.yul\":7664:7670   */\n      dup2\n        /* \"#utility.yul\":7642:7671   */\n      tag_123\n      jump\t// in\n    tag_262:\n        /* \"#utility.yul\":7637:7640   */\n      dup5\n        /* \"#utility.yul\":7633:7672   */\n      add\n        /* \"#utility.yul\":7626:7672   */\n      swap2\n      pop\n        /* \"#utility.yul\":7403:7678   */\n      pop\n        /* \"#utility.yul\":7321:7678   */\n      swap3\n      swap2\n      pop\n      pop\n      jump\t// out\n        /* \"#utility.yul\":7684:7827   */\n    tag_148:\n        /* \"#utility.yul\":7772:7820   */\n      tag_264\n        /* \"#utility.yul\":7814:7819   */\n      dup2\n        /* \"#utility.yul\":7772:7820   */\n      tag_142\n      jump\t// in\n    tag_264:\n        /* \"#utility.yul\":7767:7770   */\n      dup3\n        /* \"#utility.yul\":7760:7821   */\n      mstore\n        /* \"#utility.yul\":7684:7827   */\n      pop\n      pop\n      jump\t// out\n        /* \"#utility.yul\":7895:9214   */\n    tag_149:\n        /* \"#utility.yul\":8006:8009   */\n      0x00\n        /* \"#utility.yul\":8042:8046   */\n      0xc0\n        /* \"#utility.yul\":8037:8040   */\n      dup4\n        /* \"#utility.yul\":8033:8047   */\n      add\n        /* \"#utility.yul\":8127:8131   */\n      0x00\n        /* \"#utility.yul\":8120:8125   */\n      dup4\n        /* \"#utility.yul\":8116:8132   */\n      add\n        /* \"#utility.yul\":8110:8133   */\n      mload\n        /* \"#utility.yul\":8146:8209   */\n      tag_266\n        /* \"#utility.yul\":8203:8207   */\n      0x00\n        /* \"#utility.yul\":8198:8201   */\n      dup7\n        /* \"#utility.yul\":8194:8208   */\n      add\n        /* \"#utility.yul\":8180:8192   */\n      dup3\n        /* \"#utility.yul\":8146:8209   */\n      tag_144\n      jump\t// in\n    tag_266:\n        /* \"#utility.yul\":8057:8219   */\n      pop\n        /* \"#utility.yul\":8305:8309   */\n      0x20\n        /* \"#utility.yul\":8298:8303   */\n      dup4\n        /* \"#utility.yul\":8294:8310   */\n      add\n        /* \"#utility.yul\":8288:8311   */\n      mload\n        /* \"#utility.yul\":8324:8387   */\n      tag_267\n        /* \"#utility.yul\":8381:8385   */\n      0x20\n        /* \"#utility.yul\":8376:8379   */\n      dup7\n        /* \"#utility.yul\":8372:8386   */\n      add\n        /* \"#utility.yul\":8358:8370   */\n      dup3\n        /* \"#utility.yul\":8324:8387   */\n      tag_145\n      jump\t// in\n    tag_267:\n        /* \"#utility.yul\":8229:8397   */\n      pop\n        /* \"#utility.yul\":8483:8487   */\n      0x40\n        /* \"#utility.yul\":8476:8481   */\n      dup4\n        /* \"#utility.yul\":8472:8488   */\n      add\n        /* \"#utility.yul\":8466:8489   */\n      mload\n        /* \"#utility.yul\":8536:8539   */\n      dup5\n        /* \"#utility.yul\":8530:8534   */\n      dup3\n        /* \"#utility.yul\":8526:8540   */\n      sub\n        /* \"#utility.yul\":8519:8523   */\n      0x40\n        /* \"#utility.yul\":8514:8517   */\n      dup7\n        /* \"#utility.yul\":8510:8524   */\n      add\n        /* \"#utility.yul\":8503:8541   */\n      mstore\n        /* \"#utility.yul\":8562:8635   */\n      tag_268\n        /* \"#utility.yul\":8630:8634   */\n      dup3\n        /* \"#utility.yul\":8616:8628   */\n      dup3\n        /* \"#utility.yul\":8562:8635   */\n      tag_147\n      jump\t// in\n    tag_268:\n        /* \"#utility.yul\":8554:8635   */\n      swap2\n      pop\n        /* \"#utility.yul\":8407:8646   */\n      pop\n        /* \"#utility.yul\":8729:8733   */\n      0x60\n        /* \"#utility.yul\":8722:8727   */\n      dup4\n        /* \"#utility.yul\":8718:8734   */\n      add\n        /* \"#utility.yul\":8712:8735   */\n      mload\n        /* \"#utility.yul\":8748:8811   */\n      tag_269\n        /* \"#utility.yul\":8805:8809   */\n      0x60\n        /* \"#utility.yul\":8800:8803   */\n      dup7\n        /* \"#utility.yul\":8796:8810   */\n      add\n        /* \"#utility.yul\":8782:8794   */\n      dup3\n        /* \"#utility.yul\":8748:8811   */\n      tag_144\n      jump\t// in\n    tag_269:\n        /* \"#utility.yul\":8656:8821   */\n      pop\n        /* \"#utility.yul\":8905:8909   */\n      0x80\n        /* \"#utility.yul\":8898:8903   */\n      dup4\n        /* \"#utility.yul\":8894:8910   */\n      add\n        /* \"#utility.yul\":8888:8911   */\n      mload\n        /* \"#utility.yul\":8924:8998   */\n      tag_270\n        /* \"#utility.yul\":8992:8996   */\n      0x80\n        /* \"#utility.yul\":8987:8990   */\n      dup7\n        /* \"#utility.yul\":8983:8997   */\n      add\n        /* \"#utility.yul\":8969:8981   */\n      dup3\n        /* \"#utility.yul\":8924:8998   */\n      tag_148\n      jump\t// in\n    tag_270:\n        /* \"#utility.yul\":8831:9008   */\n      pop\n        /* \"#utility.yul\":9095:9099   */\n      0xa0\n        /* \"#utility.yul\":9088:9093   */\n      dup4\n        /* \"#utility.yul\":9084:9100   */\n      add\n        /* \"#utility.yul\":9078:9101   */\n      mload\n        /* \"#utility.yul\":9114:9177   */\n      tag_271\n        /* \"#utility.yul\":9171:9175   */\n      0xa0\n        /* \"#utility.yul\":9166:9169   */\n      dup7\n        /* \"#utility.yul\":9162:9176   */\n      add\n        /* \"#utility.yul\":9148:9160   */\n      dup3\n        /* \"#utility.yul\":9114:9177   */\n      tag_144\n      jump\t// in\n    tag_271:\n        /* \"#utility.yul\":9018:9187   */\n      pop\n        /* \"#utility.yul\":9204:9208   */\n      dup1\n        /* \"#utility.yul\":9197:9208   */\n      swap2\n      pop\n        /* \"#utility.yul\":8011:9214   */\n      pop\n        /* \"#utility.yul\":7895:9214   */\n      swap3\n      swap2\n      pop\n      pop\n      jump\t// out\n        /* \"#utility.yul\":9220:9577   */\n    tag_35:\n        /* \"#utility.yul\":9355:9359   */\n      0x00\n        /* \"#utility.yul\":9393:9395   */\n      0x20\n        /* \"#utility.yul\":9382:9391   */\n      dup3\n        /* \"#utility.yul\":9378:9396   */\n      add\n        /* \"#utility.yul\":9370:9396   */\n      swap1\n      pop\n        /* \"#utility.yul\":9442:9451   */\n      dup2\n        /* \"#utility.yul\":9436:9440   */\n      dup2\n        /* \"#utility.yul\":9432:9452   */\n      sub\n        /* \"#utility.yul\":9428:9429   */\n      0x00\n        /* \"#utility.yul\":9417:9426   */\n      dup4\n        /* \"#utility.yul\":9413:9430   */\n      add\n        /* \"#utility.yul\":9406:9453   */\n      mstore\n        /* \"#utility.yul\":9470:9570   */\n      tag_273\n        /* \"#utility.yul\":9565:9569   */\n      dup2\n        /* \"#utility.yul\":9556:9562   */\n      dup5\n        /* \"#utility.yul\":9470:9570   */\n      tag_149\n      jump\t// in\n    tag_273:\n        /* \"#utility.yul\":9462:9570   */\n      swap1\n      pop\n        /* \"#utility.yul\":9220:9577   */\n      swap3\n      swap2\n      pop\n      pop\n      jump\t// out\n        /* \"#utility.yul\":9583:9756   */\n    tag_150:\n        /* \"#utility.yul\":9723:9748   */\n      0x4f72646572206d75737420686176652061207072696365000000000000000000\n        /* \"#utility.yul\":9719:9720   */\n      0x00\n        /* \"#utility.yul\":9711:9717   */\n      dup3\n        /* \"#utility.yul\":9707:9721   */\n      add\n        /* \"#utility.yul\":9700:9749   */\n      mstore\n        /* \"#utility.yul\":9583:9756   */\n      pop\n      jump\t// out\n        /* \"#utility.yul\":9762:10128   */\n    tag_151:\n        /* \"#utility.yul\":9904:9907   */\n      0x00\n        /* \"#utility.yul\":9925:9992   */\n      tag_276\n        /* \"#utility.yul\":9989:9991   */\n      0x17\n        /* \"#utility.yul\":9984:9987   */\n      dup4\n        /* \"#utility.yul\":9925:9992   */\n      tag_137\n      jump\t// in\n    tag_276:\n        /* \"#utility.yul\":9918:9992   */\n      swap2\n      pop\n        /* \"#utility.yul\":10001:10094   */\n      tag_277\n        /* \"#utility.yul\":10090:10093   */\n      dup3\n        /* \"#utility.yul\":10001:10094   */\n      tag_150\n      jump\t// in\n    tag_277:\n        /* \"#utility.yul\":10119:10121   */\n      0x20\n        /* \"#utility.yul\":10114:10117   */\n      dup3\n        /* \"#utility.yul\":10110:10122   */\n      add\n        /* \"#utility.yul\":10103:10122   */\n      swap1\n      pop\n        /* \"#utility.yul\":9762:10128   */\n      swap2\n      swap1\n      pop\n      jump\t// out\n        /* \"#utility.yul\":10134:10553   */\n    tag_47:\n        /* \"#utility.yul\":10300:10304   */\n      0x00\n        /* \"#utility.yul\":10338:10340   */\n      0x20\n        /* \"#utility.yul\":10327:10336   */\n      dup3\n        /* \"#utility.yul\":10323:10341   */\n      add\n        /* \"#utility.yul\":10315:10341   */\n      swap1\n      pop\n        /* \"#utility.yul\":10387:10396   */\n      dup2\n        /* \"#utility.yul\":10381:10385   */\n      dup2\n        /* \"#utility.yul\":10377:10397   */\n      sub\n        /* \"#utility.yul\":10373:10374   */\n      0x00\n        /* \"#utility.yul\":10362:10371   */\n      dup4\n        /* \"#utility.yul\":10358:10375   */\n      add\n        /* \"#utility.yul\":10351:10398   */\n      mstore\n        /* \"#utility.yul\":10415:10546   */\n      tag_279\n        /* \"#utility.yul\":10541:10545   */\n      dup2\n        /* \"#utility.yul\":10415:10546   */\n      tag_151\n      jump\t// in\n    tag_279:\n        /* \"#utility.yul\":10407:10546   */\n      swap1\n      pop\n        /* \"#utility.yul\":10134:10553   */\n      swap2\n      swap1\n      pop\n      jump\t// out\n        /* \"#utility.yul\":10559:10739   */\n    tag_152:\n        /* \"#utility.yul\":10607:10684   */\n      0x4e487b7100000000000000000000000000000000000000000000000000000000\n        /* \"#utility.yul\":10604:10605   */\n      0x00\n        /* \"#utility.yul\":10597:10685   */\n      mstore\n        /* \"#utility.yul\":10704:10708   */\n      0x11\n        /* \"#utility.yul\":10701:10702   */\n      0x04\n        /* \"#utility.yul\":10694:10709   */\n      mstore\n        /* \"#utility.yul\":10728:10732   */\n      0x24\n        /* \"#utility.yul\":10725:10726   */\n      0x00\n        /* \"#utility.yul\":10718:10733   */\n      revert\n        /* \"#utility.yul\":10745:10978   */\n    tag_49:\n        /* \"#utility.yul\":10784:10787   */\n      0x00\n        /* \"#utility.yul\":10807:10831   */\n      tag_282\n        /* \"#utility.yul\":10825:10830   */\n      dup3\n        /* \"#utility.yul\":10807:10831   */\n      tag_116\n      jump\t// in\n    tag_282:\n        /* \"#utility.yul\":10798:10831   */\n      swap2\n      pop\n        /* \"#utility.yul\":10853:10919   */\n      0xffffffffffffffffffffffffffffffffffffffffffffffffffffffffffffffff\n        /* \"#utility.yul\":10846:10851   */\n      dup3\n        /* \"#utility.yul\":10843:10920   */\n      sub\n        /* \"#utility.yul\":10840:10943   */\n      tag_283\n      jumpi\n        /* \"#utility.yul\":10923:10941   */\n      tag_284\n      tag_152\n      jump\t// in\n    tag_284:\n        /* \"#utility.yul\":10840:10943   */\n    tag_283:\n        /* \"#utility.yul\":10970:10971   */\n      0x01\n        /* \"#utility.yul\":10963:10968   */\n      dup3\n        /* \"#utility.yul\":10959:10972   */\n      add\n        /* \"#utility.yul\":10952:10972   */\n      swap1\n      pop\n        /* \"#utility.yul\":10745:10978   */\n      swap2\n      swap1\n      pop\n      jump\t// out\n        /* \"#utility.yul\":10984:11164   */\n    tag_153:\n        /* \"#utility.yul\":11032:11109   */\n      0x4e487b7100000000000000000000000000000000000000000000000000000000\n        /* \"#utility.yul\":11029:11030   */\n      0x00\n        /* \"#utility.yul\":11022:11110   */\n      mstore\n        /* \"#utility.yul\":11129:11133   */\n      0x22\n        /* \"#utility.yul\":11126:11127   */\n      0x04\n        /* \"#utility.yul\":11119:11134   */\n      mstore\n        /* \"#utility.yul\":11153:11157   */\n      0x24\n        /* \"#utility.yul\":11150:11151   */\n      0x00\n        /* \"#utility.yul\":11143:11158   */\n      revert\n        /* \"#utility.yul\":11170:11490   */\n    tag_77:\n        /* \"#utility.yul\":11214:11220   */\n      0x00\n        /* \"#utility.yul\":11251:11252   */\n      0x02\n        /* \"#utility.yul\":11245:11249   */\n      dup3\n        /* \"#utility.yul\":11241:11253   */\n      div\n        /* \"#utility.yul\":11231:11253   */\n      swap1\n      pop\n        /* \"#utility.yul\":11298:11299   */\n      0x01\n        /* \"#utility.yul\":11292:11296   */\n      dup3\n        /* \"#utility.yul\":11288:11300   */\n      and\n        /* \"#utility.yul\":11319:11337   */\n      dup1\n        /* \"#utility.yul\":11309:11390   */\n      tag_287\n      jumpi\n        /* \"#utility.yul\":11375:11379   */\n      0x7f\n        /* \"#utility.yul\":11367:11373   */\n      dup3\n        /* \"#utility.yul\":11363:11380   */\n      and\n        /* \"#utility.yul\":11353:11380   */\n      swap2\n      pop\n        /* \"#utility.yul\":11309:11390   */\n    tag_287:\n        /* \"#utility.yul\":11437:11439   */\n      0x20\n        /* \"#utility.yul\":11429:11435   */\n      dup3\n        /* \"#utility.yul\":11426:11440   */\n      lt\n        /* \"#utility.yul\":11406:11424   */\n      dup2\n        /* \"#utility.yul\":11403:11441   */\n      sub\n        /* \"#utility.yul\":11400:11484   */\n      tag_288\n      jumpi\n        /* \"#utility.yul\":11456:11474   */\n      tag_289\n      tag_153\n      jump\t// in\n    tag_289:\n        /* \"#utility.yul\":11400:11484   */\n    tag_288:\n        /* \"#utility.yul\":11221:11490   */\n      pop\n        /* \"#utility.yul\":11170:11490   */\n      swap2\n      swap1\n      pop\n      jump\t// out\n        /* \"#utility.yul\":11496:11637   */\n    tag_154:\n        /* \"#utility.yul\":11545:11549   */\n      0x00\n        /* \"#utility.yul\":11568:11571   */\n      dup2\n        /* \"#utility.yul\":11560:11571   */\n      swap1\n      pop\n        /* \"#utility.yul\":11591:11594   */\n      dup2\n        /* \"#utility.yul\":11588:11589   */\n      0x00\n        /* \"#utility.yul\":11581:11595   */\n      mstore\n        /* \"#utility.yul\":11625:11629   */\n      0x20\n        /* \"#utility.yul\":11622:11623   */\n      0x00\n        /* \"#utility.yul\":11612:11630   */\n      keccak256\n        /* \"#utility.yul\":11604:11630   */\n      swap1\n      pop\n        /* \"#utility.yul\":11496:11637   */\n      swap2\n      swap1\n      pop\n      jump\t// out\n        /* \"#utility.yul\":11643:11736   */\n    tag_155:\n        /* \"#utility.yul\":11680:11686   */\n      0x00\n        /* \"#utility.yul\":11727:11729   */\n      0x20\n        /* \"#utility.yul\":11722:11724   */\n      0x1f\n        /* \"#utility.yul\":11715:11720   */\n      dup4\n        /* \"#utility.yul\":11711:11725   */\n      add\n        /* \"#utility.yul\":11707:11730   */\n      div\n        /* \"#utility.yul\":11697:11730   */\n      swap1\n      pop\n        /* \"#utility.yul\":11643:11736   */\n      swap2\n      swap1\n      pop\n      jump\t// out\n        /* \"#utility.yul\":11742:11849   */\n    tag_156:\n        /* \"#utility.yul\":11786:11794   */\n      0x00\n        /* \"#utility.yul\":11836:11841   */\n      dup3\n        /* \"#utility.yul\":11830:11834   */\n      dup3\n        /* \"#utility.yul\":11826:11842   */\n      shl\n        /* \"#utility.yul\":11805:11842   */\n      swap1\n      pop\n        /* \"#utility.yul\":11742:11849   */\n      swap3\n      swap2\n      pop\n      pop\n      jump\t// out\n        /* \"#utility.yul\":11855:12248   */\n    tag_157:\n        /* \"#utility.yul\":11924:11930   */\n      0x00\n        /* \"#utility.yul\":11974:11975   */\n      0x08\n        /* \"#utility.yul\":11962:11972   */\n      dup4\n        /* \"#utility.yul\":11958:11976   */\n      mul\n        /* \"#utility.yul\":11997:12094   */\n      tag_294\n        /* \"#utility.yul\":12027:12093   */\n      0xffffffffffffffffffffffffffffffffffffffffffffffffffffffffffffffff\n        /* \"#utility.yul\":12016:12025   */\n      dup3\n        /* \"#utility.yul\":11997:12094   */\n      tag_156\n      jump\t// in\n    tag_294:\n        /* \"#utility.yul\":12115:12154   */\n      tag_295\n        /* \"#utility.yul\":12145:12153   */\n      dup7\n        /* \"#utility.yul\":12134:12143   */\n      dup4\n        /* \"#utility.yul\":12115:12154   */\n      tag_156\n      jump\t// in\n    tag_295:\n        /* \"#utility.yul\":12103:12154   */\n      swap6\n      pop\n        /* \"#utility.yul\":12187:12191   */\n      dup1\n        /* \"#utility.yul\":12183:12192   */\n      not\n        /* \"#utility.yul\":12176:12181   */\n      dup5\n        /* \"#utility.yul\":12172:12193   */\n      and\n        /* \"#utility.yul\":12163:12193   */\n      swap4\n      pop\n        /* \"#utility.yul\":12236:12240   */\n      dup1\n        /* \"#utility.yul\":12226:12234   */\n      dup7\n        /* \"#utility.yul\":12222:12241   */\n      and\n        /* \"#utility.yul\":12215:12220   */\n      dup5\n        /* \"#utility.yul\":12212:12242   */\n      or\n        /* \"#utility.yul\":12202:12242   */\n      swap3\n      pop\n        /* \"#utility.yul\":11931:12248   */\n      pop\n      pop\n        /* \"#utility.yul\":11855:12248   */\n      swap4\n      swap3\n      pop\n      pop\n      pop\n      jump\t// out\n        /* \"#utility.yul\":12254:12314   */\n    tag_158:\n        /* \"#utility.yul\":12282:12285   */\n      0x00\n        /* \"#utility.yul\":12303:12308   */\n      dup2\n        /* \"#utility.yul\":12296:12308   */\n      swap1\n      pop\n        /* \"#utility.yul\":12254:12314   */\n      swap2\n      swap1\n      pop\n      jump\t// out\n        /* \"#utility.yul\":12320:12462   */\n    tag_159:\n        /* \"#utility.yul\":12370:12379   */\n      0x00\n        /* \"#utility.yul\":12403:12456   */\n      tag_298\n        /* \"#utility.yul\":12421:12455   */\n      tag_299\n        /* \"#utility.yul\":12430:12454   */\n      tag_300\n        /* \"#utility.yul\":12448:12453   */\n      dup5\n        /* \"#utility.yul\":12430:12454   */\n      tag_116\n      jump\t// in\n    tag_300:\n        /* \"#utility.yul\":12421:12455   */\n      tag_158\n      jump\t// in\n    tag_299:\n        /* \"#utility.yul\":12403:12456   */\n      tag_116\n      jump\t// in\n    tag_298:\n        /* \"#utility.yul\":12390:12456   */\n      swap1\n      pop\n        /* \"#utility.yul\":12320:12462   */\n      swap2\n      swap1\n      pop\n      jump\t// out\n        /* \"#utility.yul\":12468:12543   */\n    tag_160:\n        /* \"#utility.yul\":12511:12514   */\n      0x00\n        /* \"#utility.yul\":12532:12537   */\n      dup2\n        /* \"#utility.yul\":12525:12537   */\n      swap1\n      pop\n        /* \"#utility.yul\":12468:12543   */\n      swap2\n      swap1\n      pop\n      jump\t// out\n        /* \"#utility.yul\":12549:12818   */\n    tag_161:\n        /* \"#utility.yul\":12659:12698   */\n      tag_303\n        /* \"#utility.yul\":12690:12697   */\n      dup4\n        /* \"#utility.yul\":12659:12698   */\n      tag_159\n      jump\t// in\n    tag_303:\n        /* \"#utility.yul\":12720:12811   */\n      tag_304\n        /* \"#utility.yul\":12769:12810   */\n      tag_305\n        /* \"#utility.yul\":12793:12809   */\n      dup3\n        /* \"#utility.yul\":12769:12810   */\n      tag_160\n      jump\t// in\n    tag_305:\n        /* \"#utility.yul\":12761:12767   */\n      dup5\n        /* \"#utility.yul\":12754:12758   */\n      dup5\n        /* \"#utility.yul\":12748:12759   */\n      sload\n        /* \"#utility.yul\":12720:12811   */\n      tag_157\n      jump\t// in\n    tag_304:\n        /* \"#utility.yul\":12714:12718   */\n      dup3\n        /* \"#utility.yul\":12707:12812   */\n      sstore\n        /* \"#utility.yul\":12625:12818   */\n      pop\n        /* \"#utility.yul\":12549:12818   */\n      pop\n      pop\n      pop\n      jump\t// out\n        /* \"#utility.yul\":12824:12897   */\n    tag_162:\n        /* \"#utility.yul\":12869:12872   */\n      0x00\n        /* \"#utility.yul\":12824:12897   */\n      swap1\n      jump\t// out\n        /* \"#utility.yul\":12903:13092   */\n    tag_163:\n        /* \"#utility.yul\":12980:13012   */\n      tag_308\n      tag_162\n      jump\t// in\n    tag_308:\n        /* \"#utility.yul\":13021:13086   */\n      tag_309\n        /* \"#utility.yul\":13079:13085   */\n      dup2\n        /* \"#utility.yul\":13071:13077   */\n      dup5\n        /* \"#utility.yul\":13065:13069   */\n      dup5\n        /* \"#utility.yul\":13021:13086   */\n      tag_161\n      jump\t// in\n    tag_309:\n        /* \"#utility.yul\":12956:13092   */\n      pop\n        /* \"#utility.yul\":12903:13092   */\n      pop\n      pop\n      jump\t// out\n        /* \"#utility.yul\":13098:13284   */\n    tag_164:\n        /* \"#utility.yul\":13158:13278   */\n    tag_311:\n        /* \"#utility.yul\":13175:13178   */\n      dup2\n        /* \"#utility.yul\":13168:13173   */\n      dup2\n        /* \"#utility.yul\":13165:13179   */\n      lt\n        /* \"#utility.yul\":13158:13278   */\n      iszero\n      tag_313\n      jumpi\n        /* \"#utility.yul\":13229:13268   */\n      tag_314\n        /* \"#utility.yul\":13266:13267   */\n      0x00\n        /* \"#utility.yul\":13259:13264   */\n      dup3\n        /* \"#utility.yul\":13229:13268   */\n      tag_163\n      jump\t// in\n    tag_314:\n        /* \"#utility.yul\":13202:13203   */\n      0x01\n        /* \"#utility.yul\":13195:13200   */\n      dup2\n        /* \"#utility.yul\":13191:13204   */\n      add\n        /* \"#utility.yul\":13182:13204   */\n      swap1\n      pop\n        /* \"#utility.yul\":13158:13278   */\n      jump(tag_311)\n    tag_313:\n        /* \"#utility.yul\":13098:13284   */\n      pop\n      pop\n      jump\t// out\n        /* \"#utility.yul\":13290:13833   */\n    tag_165:\n        /* \"#utility.yul\":13391:13393   */\n      0x1f\n        /* \"#utility.yul\":13386:13389   */\n      dup3\n        /* \"#utility.yul\":13383:13394   */\n      gt\n        /* \"#utility.yul\":13380:13826   */\n      iszero\n      tag_316\n      jumpi\n        /* \"#utility.yul\":13425:13463   */\n      tag_317\n        /* \"#utility.yul\":13457:13462   */\n      dup2\n        /* \"#utility.yul\":13425:13463   */\n      tag_154\n      jump\t// in\n    tag_317:\n        /* \"#utility.yul\":13509:13538   */\n      tag_318\n        /* \"#utility.yul\":13527:13537   */\n      dup5\n        /* \"#utility.yul\":13509:13538   */\n      tag_155\n      jump\t// in\n    tag_318:\n        /* \"#utility.yul\":13499:13507   */\n      dup2\n        /* \"#utility.yul\":13495:13539   */\n      add\n        /* \"#utility.yul\":13692:13694   */\n      0x20\n        /* \"#utility.yul\":13680:13690   */\n      dup6\n        /* \"#utility.yul\":13677:13695   */\n      lt\n        /* \"#utility.yul\":13674:13723   */\n      iszero\n      tag_319\n      jumpi\n        /* \"#utility.yul\":13713:13721   */\n      dup2\n        /* \"#utility.yul\":13698:13721   */\n      swap1\n      pop\n        /* \"#utility.yul\":13674:13723   */\n    tag_319:\n        /* \"#utility.yul\":13736:13816   */\n      tag_320\n        /* \"#utility.yul\":13792:13814   */\n      tag_321\n        /* \"#utility.yul\":13810:13813   */\n      dup6\n        /* \"#utility.yul\":13792:13814   */\n      tag_155\n      jump\t// in\n    tag_321:\n        /* \"#utility.yul\":13782:13790   */\n      dup4\n        /* \"#utility.yul\":13778:13815   */\n      add\n        /* \"#utility.yul\":13765:13776   */\n      dup3\n        /* \"#utility.yul\":13736:13816   */\n      tag_164\n      jump\t// in\n    tag_320:\n        /* \"#utility.yul\":13395:13826   */\n      pop\n      pop\n        /* \"#utility.yul\":13380:13826   */\n    tag_316:\n        /* \"#utility.yul\":13290:13833   */\n      pop\n      pop\n      pop\n      jump\t// out\n        /* \"#utility.yul\":13839:13956   */\n    tag_166:\n        /* \"#utility.yul\":13893:13901   */\n      0x00\n        /* \"#utility.yul\":13943:13948   */\n      dup3\n        /* \"#utility.yul\":13937:13941   */\n      dup3\n        /* \"#utility.yul\":13933:13949   */\n      shr\n        /* \"#utility.yul\":13912:13949   */\n      swap1\n      pop\n        /* \"#utility.yul\":13839:13956   */\n      swap3\n      swap2\n      pop\n      pop\n      jump\t// out\n        /* \"#utility.yul\":13962:14131   */\n    tag_167:\n        /* \"#utility.yul\":14006:14012   */\n      0x00\n        /* \"#utility.yul\":14039:14090   */\n      tag_324\n        /* \"#utility.yul\":14087:14088   */\n      0x00\n        /* \"#utility.yul\":14083:14089   */\n      not\n        /* \"#utility.yul\":14075:14080   */\n      dup5\n        /* \"#utility.yul\":14072:14073   */\n      0x08\n        /* \"#utility.yul\":14068:14081   */\n      mul\n        /* \"#utility.yul\":14039:14090   */\n      tag_166\n      jump\t// in\n    tag_324:\n        /* \"#utility.yul\":14035:14091   */\n      not\n        /* \"#utility.yul\":14120:14124   */\n      dup1\n        /* \"#utility.yul\":14114:14118   */\n      dup4\n        /* \"#utility.yul\":14110:14125   */\n      and\n        /* \"#utility.yul\":14100:14125   */\n      swap2\n      pop\n        /* \"#utility.yul\":14013:14131   */\n      pop\n        /* \"#utility.yul\":13962:14131   */\n      swap3\n      swap2\n      pop\n      pop\n      jump\t// out\n        /* \"#utility.yul\":14136:14431   */\n    tag_168:\n        /* \"#utility.yul\":14212:14216   */\n      0x00\n        /* \"#utility.yul\":14358:14387   */\n      tag_326\n        /* \"#utility.yul\":14383:14386   */\n      dup4\n        /* \"#utility.yul\":14377:14381   */\n      dup4\n        /* \"#utility.yul\":14358:14387   */\n      tag_167\n      jump\t// in\n    tag_326:\n        /* \"#utility.yul\":14350:14387   */\n      swap2\n      pop\n        /* \"#utility.yul\":14420:14423   */\n      dup3\n        /* \"#utility.yul\":14417:14418   */\n      0x02\n        /* \"#utility.yul\":14413:14424   */\n      mul\n        /* \"#utility.yul\":14407:14411   */\n      dup3\n        /* \"#utility.yul\":14404:14425   */\n      or\n        /* \"#utility.yul\":14396:14425   */\n      swap1\n      pop\n        /* \"#utility.yul\":14136:14431   */\n      swap3\n      swap2\n      pop\n      pop\n      jump\t// out\n        /* \"#utility.yul\":14436:15831   */\n    tag_54:\n        /* \"#utility.yul\":14553:14590   */\n      tag_328\n        /* \"#utility.yul\":14586:14589   */\n      dup3\n        /* \"#utility.yul\":14553:14590   */\n      tag_136\n      jump\t// in\n    tag_328:\n        /* \"#utility.yul\":14655:14673   */\n      0xffffffffffffffff\n        /* \"#utility.yul\":14647:14653   */\n      dup2\n        /* \"#utility.yul\":14644:14674   */\n      gt\n        /* \"#utility.yul\":14641:14697   */\n      iszero\n      tag_329\n      jumpi\n        /* \"#utility.yul\":14677:14695   */\n      tag_330\n      tag_124\n      jump\t// in\n    tag_330:\n        /* \"#utility.yul\":14641:14697   */\n    tag_329:\n        /* \"#utility.yul\":14721:14759   */\n      tag_331\n        /* \"#utility.yul\":14753:14757   */\n      dup3\n        /* \"#utility.yul\":14747:14758   */\n      sload\n        /* \"#utility.yul\":14721:14759   */\n      tag_77\n      jump\t// in\n    tag_331:\n        /* \"#utility.yul\":14806:14873   */\n      tag_332\n        /* \"#utility.yul\":14866:14872   */\n      dup3\n        /* \"#utility.yul\":14858:14864   */\n      dup3\n        /* \"#utility.yul\":14852:14856   */\n      dup6\n        /* \"#utility.yul\":14806:14873   */\n      tag_165\n      jump\t// in\n    tag_332:\n        /* \"#utility.yul\":14900:14901   */\n      0x00\n        /* \"#utility.yul\":14924:14928   */\n      0x20\n        /* \"#utility.yul\":14911:14928   */\n      swap1\n      pop\n        /* \"#utility.yul\":14956:14958   */\n      0x1f\n        /* \"#utility.yul\":14948:14954   */\n      dup4\n        /* \"#utility.yul\":14945:14959   */\n      gt\n        /* \"#utility.yul\":14973:14974   */\n      0x01\n        /* \"#utility.yul\":14968:15586   */\n      dup2\n      eq\n      tag_334\n      jumpi\n        /* \"#utility.yul\":15630:15631   */\n      0x00\n        /* \"#utility.yul\":15647:15653   */\n      dup5\n        /* \"#utility.yul\":15644:15721   */\n      iszero\n      tag_335\n      jumpi\n        /* \"#utility.yul\":15696:15705   */\n      dup3\n        /* \"#utility.yul\":15691:15694   */\n      dup8\n        /* \"#utility.yul\":15687:15706   */\n      add\n        /* \"#utility.yul\":15681:15707   */\n      mload\n        /* \"#utility.yul\":15672:15707   */\n      swap1\n      pop\n        /* \"#utility.yul\":15644:15721   */\n    tag_335:\n        /* \"#utility.yul\":15747:15814   */\n      tag_336\n        /* \"#utility.yul\":15807:15813   */\n      dup6\n        /* \"#utility.yul\":15800:15805   */\n      dup3\n        /* \"#utility.yul\":15747:15814   */\n      tag_168\n      jump\t// in\n    tag_336:\n        /* \"#utility.yul\":15741:15745   */\n      dup7\n        /* \"#utility.yul\":15734:15815   */\n      sstore\n        /* \"#utility.yul\":15603:15825   */\n      pop\n        /* \"#utility.yul\":14938:15825   */\n      jump(tag_333)\n        /* \"#utility.yul\":14968:15586   */\n    tag_334:\n        /* \"#utility.yul\":15020:15024   */\n      0x1f\n        /* \"#utility.yul\":15016:15025   */\n      not\n        /* \"#utility.yul\":15008:15014   */\n      dup5\n        /* \"#utility.yul\":15004:15026   */\n      and\n        /* \"#utility.yul\":15054:15091   */\n      tag_337\n        /* \"#utility.yul\":15086:15090   */\n      dup7\n        /* \"#utility.yul\":15054:15091   */\n      tag_154\n      jump\t// in\n    tag_337:\n        /* \"#utility.yul\":15113:15114   */\n      0x00\n        /* \"#utility.yul\":15127:15335   */\n    tag_338:\n        /* \"#utility.yul\":15141:15148   */\n      dup3\n        /* \"#utility.yul\":15138:15139   */\n      dup2\n        /* \"#utility.yul\":15135:15149   */\n      lt\n        /* \"#utility.yul\":15127:15335   */\n      iszero\n      tag_340\n      jumpi\n        /* \"#utility.yul\":15220:15229   */\n      dup5\n        /* \"#utility.yul\":15215:15218   */\n      dup10\n        /* \"#utility.yul\":15211:15230   */\n      add\n        /* \"#utility.yul\":15205:15231   */\n      mload\n        /* \"#utility.yul\":15197:15203   */\n      dup3\n        /* \"#utility.yul\":15190:15232   */\n      sstore\n        /* \"#utility.yul\":15271:15272   */\n      0x01\n        /* \"#utility.yul\":15263:15269   */\n      dup3\n        /* \"#utility.yul\":15259:15273   */\n      add\n        /* \"#utility.yul\":15249:15273   */\n      swap2\n      pop\n        /* \"#utility.yul\":15318:15320   */\n      0x20\n        /* \"#utility.yul\":15307:15316   */\n      dup6\n        /* \"#utility.yul\":15303:15321   */\n      add\n        /* \"#utility.yul\":15290:15321   */\n      swap5\n      pop\n        /* \"#utility.yul\":15164:15168   */\n      0x20\n        /* \"#utility.yul\":15161:15162   */\n      dup2\n        /* \"#utility.yul\":15157:15169   */\n      add\n        /* \"#utility.yul\":15152:15169   */\n      swap1\n      pop\n        /* \"#utility.yul\":15127:15335   */\n      jump(tag_338)\n    tag_340:\n        /* \"#utility.yul\":15363:15369   */\n      dup7\n        /* \"#utility.yul\":15354:15361   */\n      dup4\n        /* \"#utility.yul\":15351:15370   */\n      lt\n        /* \"#utility.yul\":15348:15527   */\n      iszero\n      tag_341\n      jumpi\n        /* \"#utility.yul\":15421:15430   */\n      dup5\n        /* \"#utility.yul\":15416:15419   */\n      dup10\n        /* \"#utility.yul\":15412:15431   */\n      add\n        /* \"#utility.yul\":15406:15432   */\n      mload\n        /* \"#utility.yul\":15464:15512   */\n      tag_342\n        /* \"#utility.yul\":15506:15510   */\n      0x1f\n        /* \"#utility.yul\":15498:15504   */\n      dup10\n        /* \"#utility.yul\":15494:15511   */\n      and\n        /* \"#utility.yul\":15483:15492   */\n      dup3\n        /* \"#utility.yul\":15464:15512   */\n      tag_167\n      jump\t// in\n    tag_342:\n        /* \"#utility.yul\":15456:15462   */\n      dup4\n        /* \"#utility.yul\":15449:15513   */\n      sstore\n        /* \"#utility.yul\":15371:15527   */\n      pop\n        /* \"#utility.yul\":15348:15527   */\n    tag_341:\n        /* \"#utility.yul\":15573:15574   */\n      0x01\n        /* \"#utility.yul\":15569:15570   */\n      0x02\n        /* \"#utility.yul\":15561:15567   */\n      dup9\n        /* \"#utility.yul\":15557:15571   */\n      mul\n        /* \"#utility.yul\":15553:15575   */\n      add\n        /* \"#utility.yul\":15547:15551   */\n      dup9\n        /* \"#utility.yul\":15540:15576   */\n      sstore\n        /* \"#utility.yul\":14975:15586   */\n      pop\n      pop\n      pop\n        /* \"#utility.yul\":14938:15825   */\n    tag_333:\n      pop\n        /* \"#utility.yul\":14528:15831   */\n      pop\n      pop\n      pop\n        /* \"#utility.yul\":14436:15831   */\n      pop\n      pop\n      jump\t// out\n        /* \"#utility.yul\":15837:16260   */\n    tag_58:\n        /* \"#utility.yul\":15978:15982   */\n      0x00\n        /* \"#utility.yul\":16016:16018   */\n      0x40\n        /* \"#utility.yul\":16005:16014   */\n      dup3\n        /* \"#utility.yul\":16001:16019   */\n      add\n        /* \"#utility.yul\":15993:16019   */\n      swap1\n      pop\n        /* \"#utility.yul\":16065:16074   */\n      dup2\n        /* \"#utility.yul\":16059:16063   */\n      dup2\n        /* \"#utility.yul\":16055:16075   */\n      sub\n        /* \"#utility.yul\":16051:16052   */\n      0x00\n        /* \"#utility.yul\":16040:16049   */\n      dup4\n        /* \"#utility.yul\":16036:16053   */\n      add\n        /* \"#utility.yul\":16029:16076   */\n      mstore\n        /* \"#utility.yul\":16093:16171   */\n      tag_344\n        /* \"#utility.yul\":16166:16170   */\n      dup2\n        /* \"#utility.yul\":16157:16163   */\n      dup6\n        /* \"#utility.yul\":16093:16171   */\n      tag_139\n      jump\t// in\n    tag_344:\n        /* \"#utility.yul\":16085:16171   */\n      swap1\n      pop\n        /* \"#utility.yul\":16181:16253   */\n      tag_345\n        /* \"#utility.yul\":16249:16251   */\n      0x20\n        /* \"#utility.yul\":16238:16247   */\n      dup4\n        /* \"#utility.yul\":16234:16252   */\n      add\n        /* \"#utility.yul\":16225:16231   */\n      dup5\n        /* \"#utility.yul\":16181:16253   */\n      tag_117\n      jump\t// in\n    tag_345:\n        /* \"#utility.yul\":15837:16260   */\n      swap4\n      swap3\n      pop\n      pop\n      pop\n      jump\t// out\n        /* \"#utility.yul\":16266:16432   */\n    tag_169:\n        /* \"#utility.yul\":16406:16424   */\n      0x4e6f742074686520637573746f6d657200000000000000000000000000000000\n        /* \"#utility.yul\":16402:16403   */\n      0x00\n        /* \"#utility.yul\":16394:16400   */\n      dup3\n        /* \"#utility.yul\":16390:16404   */\n      add\n        /* \"#utility.yul\":16383:16425   */\n      mstore\n        /* \"#utility.yul\":16266:16432   */\n      pop\n      jump\t// out\n        /* \"#utility.yul\":16438:16804   */\n    tag_170:\n        /* \"#utility.yul\":16580:16583   */\n      0x00\n        /* \"#utility.yul\":16601:16668   */\n      tag_348\n        /* \"#utility.yul\":16665:16667   */\n      0x10\n        /* \"#utility.yul\":16660:16663   */\n      dup4\n        /* \"#utility.yul\":16601:16668   */\n      tag_137\n      jump\t// in\n    tag_348:\n        /* \"#utility.yul\":16594:16668   */\n      swap2\n      pop\n        /* \"#utility.yul\":16677:16770   */\n      tag_349\n        /* \"#utility.yul\":16766:16769   */\n      dup3\n        /* \"#utility.yul\":16677:16770   */\n      tag_169\n      jump\t// in\n    tag_349:\n        /* \"#utility.yul\":16795:16797   */\n      0x20\n        /* \"#utility.yul\":16790:16793   */\n      dup3\n        /* \"#utility.yul\":16786:16798   */\n      add\n        /* \"#utility.yul\":16779:16798   */\n      swap1\n      pop\n        /* \"#utility.yul\":16438:16804   */\n      swap2\n      swap1\n      pop\n      jump\t// out\n        /* \"#utility.yul\":16810:17229   */\n    tag_62:\n        /* \"#utility.yul\":16976:16980   */\n      0x00\n        /* \"#utility.yul\":17014:17016   */\n      0x20\n        /* \"#utility.yul\":17003:17012   */\n      dup3\n        /* \"#utility.yul\":16999:17017   */\n      add\n        /* \"#utility.yul\":16991:17017   */\n      swap1\n      pop\n        /* \"#utility.yul\":17063:17072   */\n      dup2\n        /* \"#utility.yul\":17057:17061   */\n      dup2\n        /* \"#utility.yul\":17053:17073   */\n      sub\n        /* \"#utility.yul\":17049:17050   */\n      0x00\n        /* \"#utility.yul\":17038:17047   */\n      dup4\n        /* \"#utility.yul\":17034:17051   */\n      add\n        /* \"#utility.yul\":17027:17074   */\n      mstore\n        /* \"#utility.yul\":17091:17222   */\n      tag_351\n        /* \"#utility.yul\":17217:17221   */\n      dup2\n        /* \"#utility.yul\":17091:17222   */\n      tag_170\n      jump\t// in\n    tag_351:\n        /* \"#utility.yul\":17083:17222   */\n      swap1\n      pop\n        /* \"#utility.yul\":16810:17229   */\n      swap2\n      swap1\n      pop\n      jump\t// out\n        /* \"#utility.yul\":17235:17402   */\n    tag_171:\n        /* \"#utility.yul\":17375:17394   */\n      0x4f72646572206e6f742070656e64696e67000000000000000000000000000000\n        /* \"#utility.yul\":17371:17372   */\n      0x00\n        /* \"#utility.yul\":17363:17369   */\n      dup3\n        /* \"#utility.yul\":17359:17373   */\n      add\n        /* \"#utility.yul\":17352:17395   */\n      mstore\n        /* \"#utility.yul\":17235:17402   */\n      pop\n      jump\t// out\n        /* \"#utility.yul\":17408:17774   */\n    tag_172:\n        /* \"#utility.yul\":17550:17553   */\n      0x00\n        /* \"#utility.yul\":17571:17638   */\n      tag_354\n        /* \"#utility.yul\":17635:17637   */\n      0x11\n        /* \"#utility.yul\":17630:17633   */\n      dup4\n        /* \"#utility.yul\":17571:17638   */\n      tag_137\n      jump\t// in\n    tag_354:\n        /* \"#utility.yul\":17564:17638   */\n      swap2\n      pop\n        /* \"#utility.yul\":17647:17740   */\n      tag_355\n        /* \"#utility.yul\":17736:17739   */\n      dup3\n        /* \"#utility.yul\":17647:17740   */\n      tag_171\n      jump\t// in\n    tag_355:\n        /* \"#utility.yul\":17765:17767   */\n      0x20\n        /* \"#utility.yul\":17760:17763   */\n      dup3\n        /* \"#utility.yul\":17756:17768   */\n      add\n        /* \"#utility.yul\":17749:17768   */\n      swap1\n      pop\n        /* \"#utility.yul\":17408:17774   */\n      swap2\n      swap1\n      pop\n      jump\t// out\n        /* \"#utility.yul\":17780:18199   */\n    tag_70:\n        /* \"#utility.yul\":17946:17950   */\n      0x00\n        /* \"#utility.yul\":17984:17986   */\n      0x20\n        /* \"#utility.yul\":17973:17982   */\n      dup3\n        /* \"#utility.yul\":17969:17987   */\n      add\n        /* \"#utility.yul\":17961:17987   */\n      swap1\n      pop\n        /* \"#utility.yul\":18033:18042   */\n      dup2\n        /* \"#utility.yul\":18027:18031   */\n      dup2\n        /* \"#utility.yul\":18023:18043   */\n      sub\n        /* \"#utility.yul\":18019:18020   */\n      0x00\n        /* \"#utility.yul\":18008:18017   */\n      dup4\n        /* \"#utility.yul\":18004:18021   */\n      add\n        /* \"#utility.yul\":17997:18044   */\n      mstore\n        /* \"#utility.yul\":18061:18192   */\n      tag_357\n        /* \"#utility.yul\":18187:18191   */\n      dup2\n        /* \"#utility.yul\":18061:18192   */\n      tag_172\n      jump\t// in\n    tag_357:\n        /* \"#utility.yul\":18053:18192   */\n      swap1\n      pop\n        /* \"#utility.yul\":17780:18199   */\n      swap2\n      swap1\n      pop\n      jump\t// out\n\n    auxdata: 0xa264697066735822122052535d93df93fe7d685b35dcf12ad806651d0411ebda2759ae47a7633b99655464736f6c634300081a0033\n}\n",
				"bytecode": {
					"linkReferences": {},
					"object": "6080604052348015600e575f80fd5b506113778061001c5f395ff3fe60806040526004361061006f575f3560e01c8063a85c38ef1161004d578063a85c38ef146100e1578063d09ef24114610122578063ddff5e7d1461015e578063ef18e9ed146101865761006f565b80632453ffa814610073578063453217f81461009d578063514fcac7146100b9575b5f80fd5b34801561007e575f80fd5b506100876101ae565b6040516100949190610a09565b60405180910390f35b6100b760048036038101906100b29190610b6f565b6101b3565b005b3480156100c4575f80fd5b506100df60048036038101906100da9190610be0565b610372565b005b3480156100ec575f80fd5b5061010760048036038101906101029190610be0565b610561565b60405161011996959493929190610d1d565b60405180910390f35b34801561012d575f80fd5b5061014860048036038101906101439190610be0565b61064a565b6040516101559190610e7e565b60405180910390f35b348015610169575f80fd5b50610184600480360381019061017f9190610be0565b6107b1565b005b348015610191575f80fd5b506101ac60048036038101906101a79190610be0565b6108a5565b005b5f5481565b5f34116101f5576040517f08c379a00000000000000000000000000000000000000000000000000000000081526004016101ec90610ee8565b60405180910390fd5b5f8081548092919061020690610f33565b91905055506040518060c001604052805f5481526020013373ffffffffffffffffffffffffffffffffffffffff1681526020018281526020013481526020015f600381111561025857610257610caa565b5b81526020014281525060015f805481526020019081526020015f205f820151815f01556020820151816001015f6101000a81548173ffffffffffffffffffffffffffffffffffffffff021916908373ffffffffffffffffffffffffffffffffffffffff16021790555060408201518160020190816102d69190611174565b50606082015181600301556080820151816004015f6101000a81548160ff0219169083600381111561030b5761030a610caa565b5b021790555060a082015181600501559050503373ffffffffffffffffffffffffffffffffffffffff165f547f18e12963765d1466dca0406e746bf58b34e08626f8da73a0abc411632f26f43c8334604051610367929190611243565b60405180910390a350565b8060015f8281526020019081526020015f206001015f9054906101000a900473ffffffffffffffffffffffffffffffffffffffff1673ffffffffffffffffffffffffffffffffffffffff163373ffffffffffffffffffffffffffffffffffffffff1614610414576040517f08c379a000000000000000000000000000000000000000000000000000000000815260040161040b906112bb565b60405180910390fd5b815f600381111561042857610427610caa565b5b60015f8381526020019081526020015f206004015f9054906101000a900460ff16600381111561045b5761045a610caa565b5b1461049b576040517f08c379a000000000000000000000000000000000000000000000000000000000815260040161049290611323565b60405180910390fd5b600360015f8581526020019081526020015f206004015f6101000a81548160ff021916908360038111156104d2576104d1610caa565b5b02179055503373ffffffffffffffffffffffffffffffffffffffff166108fc60015f8681526020019081526020015f206003015490811502906040515f60405180830381858888f1935050505015801561052e573d5f803e3d5ffd5b50827fc41f4ceb2938876c35e61b705e9d2f18a02c4a26ce5e049a6308a943d46851b360405160405180910390a2505050565b6001602052805f5260405f205f91509050805f015490806001015f9054906101000a900473ffffffffffffffffffffffffffffffffffffffff16908060020180546105ab90610fa7565b80601f01602080910402602001604051908101604052809291908181526020018280546105d790610fa7565b80156106225780601f106105f957610100808354040283529160200191610622565b820191905f5260205f20905b81548152906001019060200180831161060557829003601f168201915b505050505090806003015490806004015f9054906101000a900460ff16908060050154905086565b610652610998565b60015f8381526020019081526020015f206040518060c00160405290815f8201548152602001600182015f9054906101000a900473ffffffffffffffffffffffffffffffffffffffff1673ffffffffffffffffffffffffffffffffffffffff1673ffffffffffffffffffffffffffffffffffffffff1681526020016002820180546106dc90610fa7565b80601f016020809104026020016040519081016040528092919081815260200182805461070890610fa7565b80156107535780601f1061072a57610100808354040283529160200191610753565b820191905f5260205f20905b81548152906001019060200180831161073657829003601f168201915b5050505050815260200160038201548152602001600482015f9054906101000a900460ff16600381111561078a57610789610caa565b5b600381111561079c5761079b610caa565b5b81526020016005820154815250509050919050565b805f60038111156107c5576107c4610caa565b5b60015f8381526020019081526020015f206004015f9054906101000a900460ff1660038111156107f8576107f7610caa565b5b14610838576040517f08c379a000000000000000000000000000000000000000000000000000000000815260040161082f90611323565b60405180910390fd5b600260015f8481526020019081526020015f206004015f6101000a81548160ff0219169083600381111561086f5761086e610caa565b5b0217905550817fe21fe02c1589242b30be2057f54fd54b7ddc463695d19ffdb54f9ebb0584f24a60405160405180910390a25050565b805f60038111156108b9576108b8610caa565b5b60015f8381526020019081526020015f206004015f9054906101000a900460ff1660038111156108ec576108eb610caa565b5b1461092c576040517f08c379a000000000000000000000000000000000000000000000000000000000815260040161092390611323565b60405180910390fd5b6001805f8481526020019081526020015f206004015f6101000a81548160ff0219169083600381111561096257610961610caa565b5b0217905550817f262f7ad1922bdcf27203585ef3238620589ce6f74721d45bff6897a19e4f94a160405160405180910390a25050565b6040518060c001604052805f81526020015f73ffffffffffffffffffffffffffffffffffffffff168152602001606081526020015f81526020015f60038111156109e5576109e4610caa565b5b81526020015f81525090565b5f819050919050565b610a03816109f1565b82525050565b5f602082019050610a1c5f8301846109fa565b92915050565b5f604051905090565b5f80fd5b5f80fd5b5f80fd5b5f80fd5b5f601f19601f8301169050919050565b7f4e487b71000000000000000000000000000000000000000000000000000000005f52604160045260245ffd5b610a8182610a3b565b810181811067ffffffffffffffff82111715610aa057610a9f610a4b565b5b80604052505050565b5f610ab2610a22565b9050610abe8282610a78565b919050565b5f67ffffffffffffffff821115610add57610adc610a4b565b5b610ae682610a3b565b9050602081019050919050565b828183375f83830152505050565b5f610b13610b0e84610ac3565b610aa9565b905082815260208101848484011115610b2f57610b2e610a37565b5b610b3a848285610af3565b509392505050565b5f82601f830112610b5657610b55610a33565b5b8135610b66848260208601610b01565b91505092915050565b5f60208284031215610b8457610b83610a2b565b5b5f82013567ffffffffffffffff811115610ba157610ba0610a2f565b5b610bad84828501610b42565b91505092915050565b610bbf816109f1565b8114610bc9575f80fd5b50565b5f81359050610bda81610bb6565b92915050565b5f60208284031215610bf557610bf4610a2b565b5b5f610c0284828501610bcc565b91505092915050565b5f73ffffffffffffffffffffffffffffffffffffffff82169050919050565b5f610c3482610c0b565b9050919050565b610c4481610c2a565b82525050565b5f81519050919050565b5f82825260208201905092915050565b8281835e5f83830152505050565b5f610c7c82610c4a565b610c868185610c54565b9350610c96818560208601610c64565b610c9f81610a3b565b840191505092915050565b7f4e487b71000000000000000000000000000000000000000000000000000000005f52602160045260245ffd5b60048110610ce857610ce7610caa565b5b50565b5f819050610cf882610cd7565b919050565b5f610d0782610ceb565b9050919050565b610d1781610cfd565b82525050565b5f60c082019050610d305f8301896109fa565b610d3d6020830188610c3b565b8181036040830152610d4f8187610c72565b9050610d5e60608301866109fa565b610d6b6080830185610d0e565b610d7860a08301846109fa565b979650505050505050565b610d8c816109f1565b82525050565b610d9b81610c2a565b82525050565b5f82825260208201905092915050565b5f610dbb82610c4a565b610dc58185610da1565b9350610dd5818560208601610c64565b610dde81610a3b565b840191505092915050565b610df281610cfd565b82525050565b5f60c083015f830151610e0d5f860182610d83565b506020830151610e206020860182610d92565b5060408301518482036040860152610e388282610db1565b9150506060830151610e4d6060860182610d83565b506080830151610e606080860182610de9565b5060a0830151610e7360a0860182610d83565b508091505092915050565b5f6020820190508181035f830152610e968184610df8565b905092915050565b7f4f72646572206d757374206861766520612070726963650000000000000000005f82015250565b5f610ed2601783610c54565b9150610edd82610e9e565b602082019050919050565b5f6020820190508181035f830152610eff81610ec6565b9050919050565b7f4e487b71000000000000000000000000000000000000000000000000000000005f52601160045260245ffd5b5f610f3d826109f1565b91507fffffffffffffffffffffffffffffffffffffffffffffffffffffffffffffffff8203610f6f57610f6e610f06565b5b600182019050919050565b7f4e487b71000000000000000000000000000000000000000000000000000000005f52602260045260245ffd5b5f6002820490506001821680610fbe57607f821691505b602082108103610fd157610fd0610f7a565b5b50919050565b5f819050815f5260205f209050919050565b5f6020601f8301049050919050565b5f82821b905092915050565b5f600883026110337fffffffffffffffffffffffffffffffffffffffffffffffffffffffffffffffff82610ff8565b61103d8683610ff8565b95508019841693508086168417925050509392505050565b5f819050919050565b5f61107861107361106e846109f1565b611055565b6109f1565b9050919050565b5f819050919050565b6110918361105e565b6110a561109d8261107f565b848454611004565b825550505050565b5f90565b6110b96110ad565b6110c4818484611088565b505050565b5b818110156110e7576110dc5f826110b1565b6001810190506110ca565b5050565b601f82111561112c576110fd81610fd7565b61110684610fe9565b81016020851015611115578190505b61112961112185610fe9565b8301826110c9565b50505b505050565b5f82821c905092915050565b5f61114c5f1984600802611131565b1980831691505092915050565b5f611164838361113d565b9150826002028217905092915050565b61117d82610c4a565b67ffffffffffffffff81111561119657611195610a4b565b5b6111a08254610fa7565b6111ab8282856110eb565b5f60209050601f8311600181146111dc575f84156111ca578287015190505b6111d48582611159565b86555061123b565b601f1984166111ea86610fd7565b5f5b82811015611211578489015182556001820191506020850194506020810190506111ec565b8683101561122e578489015161122a601f89168261113d565b8355505b6001600288020188555050505b505050505050565b5f6040820190508181035f83015261125b8185610c72565b905061126a60208301846109fa565b9392505050565b7f4e6f742074686520637573746f6d6572000000000000000000000000000000005f82015250565b5f6112a5601083610c54565b91506112b082611271565b602082019050919050565b5f6020820190508181035f8301526112d281611299565b9050919050565b7f4f72646572206e6f742070656e64696e670000000000000000000000000000005f82015250565b5f61130d601183610c54565b9150611318826112d9565b602082019050919050565b5f6020820190508181035f83015261133a81611301565b905091905056fea264697066735822122052535d93df93fe7d685b35dcf12ad806651d0411ebda2759ae47a7633b99655464736f6c634300081a0033",
					"opcodes": "PUSH1 0x80 PUSH1 0x40 MSTORE CALLVALUE DUP1 ISZERO PUSH1 0xE JUMPI PUSH0 DUP1 REVERT JUMPDEST POP PUSH2 0x1377 DUP1 PUSH2 0x1C PUSH0 CODECOPY PUSH0 RETURN INVALID PUSH1 0x80 PUSH1 0x40 MSTORE PUSH1 0x4 CALLDATASIZE LT PUSH2 0x6F JUMPI PUSH0 CALLDATALOAD PUSH1 0xE0 SHR DUP1 PUSH4 0xA85C38EF GT PUSH2 0x4D JUMPI DUP1 PUSH4 0xA85C38EF EQ PUSH2 0xE1 JUMPI DUP1 PUSH4 0xD09EF241 EQ PUSH2 0x122 JUMPI DUP1 PUSH4 0xDDFF5E7D EQ PUSH2 0x15E JUMPI DUP1 PUSH4 0xEF18E9ED EQ PUSH2 0x186 JUMPI PUSH2 0x6F JUMP JUMPDEST DUP1 PUSH4 0x2453FFA8 EQ PUSH2 0x73 JUMPI DUP1 PUSH4 0x453217F8 EQ PUSH2 0x9D JUMPI DUP1 PUSH4 0x514FCAC7 EQ PUSH2 0xB9 JUMPI JUMPDEST PUSH0 DUP1 REVERT JUMPDEST CALLVALUE DUP1 ISZERO PUSH2 0x7E JUMPI PUSH0 DUP1 REVERT JUMPDEST POP PUSH2 0x87 PUSH2 0x1AE JUMP JUMPDEST PUSH1 0x40 MLOAD PUSH2 0x94 SWAP2 SWAP1 PUSH2 0xA09 JUMP JUMPDEST PUSH1 0x40 MLOAD DUP1 SWAP2 SUB SWAP1 RETURN JUMPDEST PUSH2 0xB7 PUSH1 0x4 DUP1 CALLDATASIZE SUB DUP2 ADD SWAP1 PUSH2 0xB2 SWAP2 SWAP1 PUSH2 0xB6F JUMP JUMPDEST PUSH2 0x1B3 JUMP JUMPDEST STOP JUMPDEST CALLVALUE DUP1 ISZERO PUSH2 0xC4 JUMPI PUSH0 DUP1 REVERT JUMPDEST POP PUSH2 0xDF PUSH1 0x4 DUP1 CALLDATASIZE SUB DUP2 ADD SWAP1 PUSH2 0xDA SWAP2 SWAP1 PUSH2 0xBE0 JUMP JUMPDEST PUSH2 0x372 JUMP JUMPDEST STOP JUMPDEST CALLVALUE DUP1 ISZERO PUSH2 0xEC JUMPI PUSH0 DUP1 REVERT JUMPDEST POP PUSH2 0x107 PUSH1 0x4 DUP1 CALLDATASIZE SUB DUP2 ADD SWAP1 PUSH2 0x102 SWAP2 SWAP1 PUSH2 0xBE0 JUMP JUMPDEST PUSH2 0x561 JUMP JUMPDEST PUSH1 0x40 MLOAD PUSH2 0x119 SWAP7 SWAP6 SWAP5 SWAP4 SWAP3 SWAP2 SWAP1 PUSH2 0xD1D JUMP JUMPDEST PUSH1 0x40 MLOAD DUP1 SWAP2 SUB SWAP1 RETURN JUMPDEST CALLVALUE DUP1 ISZERO PUSH2 0x12D JUMPI PUSH0 DUP1 REVERT JUMPDEST POP PUSH2 0x148 PUSH1 0x4 DUP1 CALLDATASIZE SUB DUP2 ADD SWAP1 PUSH2 0x143 SWAP2 SWAP1 PUSH2 0xBE0 JUMP JUMPDEST PUSH2 0x64A JUMP JUMPDEST PUSH1 0x40 MLOAD PUSH2 0x155 SWAP2 SWAP1 PUSH2 0xE7E JUMP JUMPDEST PUSH1 0x40 MLOAD DUP1 SWAP2 SUB SWAP1 RETURN JUMPDEST CALLVALUE DUP1 ISZERO PUSH2 0x169 JUMPI PUSH0 DUP1 REVERT JUMPDEST POP PUSH2 0x184 PUSH1 0x4 DUP1 CALLDATASIZE SUB DUP2 ADD SWAP1 PUSH2 0x17F SWAP2 SWAP1 PUSH2 0xBE0 JUMP JUMPDEST PUSH2 0x7B1 JUMP JUMPDEST STOP JUMPDEST CALLVALUE DUP1 ISZERO PUSH2 0x191 JUMPI PUSH0 DUP1 REVERT JUMPDEST POP PUSH2 0x1AC PUSH1 0x4 DUP1 CALLDATASIZE SUB DUP2 ADD SWAP1 PUSH2 0x1A7 SWAP2 SWAP1 PUSH2 0xBE0 JUMP JUMPDEST PUSH2 0x8A5 JUMP JUMPDEST STOP JUMPDEST PUSH0 SLOAD DUP2 JUMP JUMPDEST PUSH0 CALLVALUE GT PUSH2 0x1F5 JUMPI PUSH1 0x40 MLOAD PUSH32 0x8C379A000000000000000000000000000000000000000000000000000000000 DUP2 MSTORE PUSH1 0x4 ADD PUSH2 0x1EC SWAP1 PUSH2 0xEE8 JUMP JUMPDEST PUSH1 0x40 MLOAD DUP1 SWAP2 SUB SWAP1 REVERT JUMPDEST PUSH0 DUP1 DUP2 SLOAD DUP1 SWAP3 SWAP2 SWAP1 PUSH2 0x206 SWAP1 PUSH2 0xF33 JUMP JUMPDEST SWAP2 SWAP1 POP SSTORE POP PUSH1 0x40 MLOAD DUP1 PUSH1 0xC0 ADD PUSH1 0x40 MSTORE DUP1 PUSH0 SLOAD DUP2 MSTORE PUSH1 0x20 ADD CALLER PUSH20 0xFFFFFFFFFFFFFFFFFFFFFFFFFFFFFFFFFFFFFFFF AND DUP2 MSTORE PUSH1 0x20 ADD DUP3 DUP2 MSTORE PUSH1 0x20 ADD CALLVALUE DUP2 MSTORE PUSH1 0x20 ADD PUSH0 PUSH1 0x3 DUP2 GT ISZERO PUSH2 0x258 JUMPI PUSH2 0x257 PUSH2 0xCAA JUMP JUMPDEST JUMPDEST DUP2 MSTORE PUSH1 0x20 ADD TIMESTAMP DUP2 MSTORE POP PUSH1 0x1 PUSH0 DUP1 SLOAD DUP2 MSTORE PUSH1 0x20 ADD SWAP1 DUP2 MSTORE PUSH1 0x20 ADD PUSH0 KECCAK256 PUSH0 DUP3 ADD MLOAD DUP2 PUSH0 ADD SSTORE PUSH1 0x20 DUP3 ADD MLOAD DUP2 PUSH1 0x1 ADD PUSH0 PUSH2 0x100 EXP DUP2 SLOAD DUP2 PUSH20 0xFFFFFFFFFFFFFFFFFFFFFFFFFFFFFFFFFFFFFFFF MUL NOT AND SWAP1 DUP4 PUSH20 0xFFFFFFFFFFFFFFFFFFFFFFFFFFFFFFFFFFFFFFFF AND MUL OR SWAP1 SSTORE POP PUSH1 0x40 DUP3 ADD MLOAD DUP2 PUSH1 0x2 ADD SWAP1 DUP2 PUSH2 0x2D6 SWAP2 SWAP1 PUSH2 0x1174 JUMP JUMPDEST POP PUSH1 0x60 DUP3 ADD MLOAD DUP2 PUSH1 0x3 ADD SSTORE PUSH1 0x80 DUP3 ADD MLOAD DUP2 PUSH1 0x4 ADD PUSH0 PUSH2 0x100 EXP DUP2 SLOAD DUP2 PUSH1 0xFF MUL NOT AND SWAP1 DUP4 PUSH1 0x3 DUP2 GT ISZERO PUSH2 0x30B JUMPI PUSH2 0x30A PUSH2 0xCAA JUMP JUMPDEST JUMPDEST MUL OR SWAP1 SSTORE POP PUSH1 0xA0 DUP3 ADD MLOAD DUP2 PUSH1 0x5 ADD SSTORE SWAP1 POP POP CALLER PUSH20 0xFFFFFFFFFFFFFFFFFFFFFFFFFFFFFFFFFFFFFFFF AND PUSH0 SLOAD PUSH32 0x18E12963765D1466DCA0406E746BF58B34E08626F8DA73A0ABC411632F26F43C DUP4 CALLVALUE PUSH1 0x40 MLOAD PUSH2 0x367 SWAP3 SWAP2 SWAP1 PUSH2 0x1243 JUMP JUMPDEST PUSH1 0x40 MLOAD DUP1 SWAP2 SUB SWAP1 LOG3 POP JUMP JUMPDEST DUP1 PUSH1 0x1 PUSH0 DUP3 DUP2 MSTORE PUSH1 0x20 ADD SWAP1 DUP2 MSTORE PUSH1 0x20 ADD PUSH0 KECCAK256 PUSH1 0x1 ADD PUSH0 SWAP1 SLOAD SWAP1 PUSH2 0x100 EXP SWAP1 DIV PUSH20 0xFFFFFFFFFFFFFFFFFFFFFFFFFFFFFFFFFFFFFFFF AND PUSH20 0xFFFFFFFFFFFFFFFFFFFFFFFFFFFFFFFFFFFFFFFF AND CALLER PUSH20 0xFFFFFFFFFFFFFFFFFFFFFFFFFFFFFFFFFFFFFFFF AND EQ PUSH2 0x414 JUMPI PUSH1 0x40 MLOAD PUSH32 0x8C379A000000000000000000000000000000000000000000000000000000000 DUP2 MSTORE PUSH1 0x4 ADD PUSH2 0x40B SWAP1 PUSH2 0x12BB JUMP JUMPDEST PUSH1 0x40 MLOAD DUP1 SWAP2 SUB SWAP1 REVERT JUMPDEST DUP2 PUSH0 PUSH1 0x3 DUP2 GT ISZERO PUSH2 0x428 JUMPI PUSH2 0x427 PUSH2 0xCAA JUMP JUMPDEST JUMPDEST PUSH1 0x1 PUSH0 DUP4 DUP2 MSTORE PUSH1 0x20 ADD SWAP1 DUP2 MSTORE PUSH1 0x20 ADD PUSH0 KECCAK256 PUSH1 0x4 ADD PUSH0 SWAP1 SLOAD SWAP1 PUSH2 0x100 EXP SWAP1 DIV PUSH1 0xFF AND PUSH1 0x3 DUP2 GT ISZERO PUSH2 0x45B JUMPI PUSH2 0x45A PUSH2 0xCAA JUMP JUMPDEST JUMPDEST EQ PUSH2 0x49B JUMPI PUSH1 0x40 MLOAD PUSH32 0x8C379A000000000000000000000000000000000000000000000000000000000 DUP2 MSTORE PUSH1 0x4 ADD PUSH2 0x492 SWAP1 PUSH2 0x1323 JUMP JUMPDEST PUSH1 0x40 MLOAD DUP1 SWAP2 SUB SWAP1 REVERT JUMPDEST PUSH1 0x3 PUSH1 0x1 PUSH0 DUP6 DUP2 MSTORE PUSH1 0x20 ADD SWAP1 DUP2 MSTORE PUSH1 0x20 ADD PUSH0 KECCAK256 PUSH1 0x4 ADD PUSH0 PUSH2 0x100 EXP DUP2 SLOAD DUP2 PUSH1 0xFF MUL NOT AND SWAP1 DUP4 PUSH1 0x3 DUP2 GT ISZERO PUSH2 0x4D2 JUMPI PUSH2 0x4D1 PUSH2 0xCAA JUMP JUMPDEST JUMPDEST MUL OR SWAP1 SSTORE POP CALLER PUSH20 0xFFFFFFFFFFFFFFFFFFFFFFFFFFFFFFFFFFFFFFFF AND PUSH2 0x8FC PUSH1 0x1 PUSH0 DUP7 DUP2 MSTORE PUSH1 0x20 ADD SWAP1 DUP2 MSTORE PUSH1 0x20 ADD PUSH0 KECCAK256 PUSH1 0x3 ADD SLOAD SWAP1 DUP2 ISZERO MUL SWAP1 PUSH1 0x40 MLOAD PUSH0 PUSH1 0x40 MLOAD DUP1 DUP4 SUB DUP2 DUP6 DUP9 DUP9 CALL SWAP4 POP POP POP POP ISZERO DUP1 ISZERO PUSH2 0x52E JUMPI RETURNDATASIZE PUSH0 DUP1 RETURNDATACOPY RETURNDATASIZE PUSH0 REVERT JUMPDEST POP DUP3 PUSH32 0xC41F4CEB2938876C35E61B705E9D2F18A02C4A26CE5E049A6308A943D46851B3 PUSH1 0x40 MLOAD PUSH1 0x40 MLOAD DUP1 SWAP2 SUB SWAP1 LOG2 POP POP POP JUMP JUMPDEST PUSH1 0x1 PUSH1 0x20 MSTORE DUP1 PUSH0 MSTORE PUSH1 0x40 PUSH0 KECCAK256 PUSH0 SWAP2 POP SWAP1 POP DUP1 PUSH0 ADD SLOAD SWAP1 DUP1 PUSH1 0x1 ADD PUSH0 SWAP1 SLOAD SWAP1 PUSH2 0x100 EXP SWAP1 DIV PUSH20 0xFFFFFFFFFFFFFFFFFFFFFFFFFFFFFFFFFFFFFFFF AND SWAP1 DUP1 PUSH1 0x2 ADD DUP1 SLOAD PUSH2 0x5AB SWAP1 PUSH2 0xFA7 JUMP JUMPDEST DUP1 PUSH1 0x1F ADD PUSH1 0x20 DUP1 SWAP2 DIV MUL PUSH1 0x20 ADD PUSH1 0x40 MLOAD SWAP1 DUP2 ADD PUSH1 0x40 MSTORE DUP1 SWAP3 SWAP2 SWAP1 DUP2 DUP2 MSTORE PUSH1 0x20 ADD DUP3 DUP1 SLOAD PUSH2 0x5D7 SWAP1 PUSH2 0xFA7 JUMP JUMPDEST DUP1 ISZERO PUSH2 0x622 JUMPI DUP1 PUSH1 0x1F LT PUSH2 0x5F9 JUMPI PUSH2 0x100 DUP1 DUP4 SLOAD DIV MUL DUP4 MSTORE SWAP2 PUSH1 0x20 ADD SWAP2 PUSH2 0x622 JUMP JUMPDEST DUP3 ADD SWAP2 SWAP1 PUSH0 MSTORE PUSH1 0x20 PUSH0 KECCAK256 SWAP1 JUMPDEST DUP2 SLOAD DUP2 MSTORE SWAP1 PUSH1 0x1 ADD SWAP1 PUSH1 0x20 ADD DUP1 DUP4 GT PUSH2 0x605 JUMPI DUP3 SWAP1 SUB PUSH1 0x1F AND DUP3 ADD SWAP2 JUMPDEST POP POP POP POP POP SWAP1 DUP1 PUSH1 0x3 ADD SLOAD SWAP1 DUP1 PUSH1 0x4 ADD PUSH0 SWAP1 SLOAD SWAP1 PUSH2 0x100 EXP SWAP1 DIV PUSH1 0xFF AND SWAP1 DUP1 PUSH1 0x5 ADD SLOAD SWAP1 POP DUP7 JUMP JUMPDEST PUSH2 0x652 PUSH2 0x998 JUMP JUMPDEST PUSH1 0x1 PUSH0 DUP4 DUP2 MSTORE PUSH1 0x20 ADD SWAP1 DUP2 MSTORE PUSH1 0x20 ADD PUSH0 KECCAK256 PUSH1 0x40 MLOAD DUP1 PUSH1 0xC0 ADD PUSH1 0x40 MSTORE SWAP1 DUP2 PUSH0 DUP3 ADD SLOAD DUP2 MSTORE PUSH1 0x20 ADD PUSH1 0x1 DUP3 ADD PUSH0 SWAP1 SLOAD SWAP1 PUSH2 0x100 EXP SWAP1 DIV PUSH20 0xFFFFFFFFFFFFFFFFFFFFFFFFFFFFFFFFFFFFFFFF AND PUSH20 0xFFFFFFFFFFFFFFFFFFFFFFFFFFFFFFFFFFFFFFFF AND PUSH20 0xFFFFFFFFFFFFFFFFFFFFFFFFFFFFFFFFFFFFFFFF AND DUP2 MSTORE PUSH1 0x20 ADD PUSH1 0x2 DUP3 ADD DUP1 SLOAD PUSH2 0x6DC SWAP1 PUSH2 0xFA7 JUMP JUMPDEST DUP1 PUSH1 0x1F ADD PUSH1 0x20 DUP1 SWAP2 DIV MUL PUSH1 0x20 ADD PUSH1 0x40 MLOAD SWAP1 DUP2 ADD PUSH1 0x40 MSTORE DUP1 SWAP3 SWAP2 SWAP1 DUP2 DUP2 MSTORE PUSH1 0x20 ADD DUP3 DUP1 SLOAD PUSH2 0x708 SWAP1 PUSH2 0xFA7 JUMP JUMPDEST DUP1 ISZERO PUSH2 0x753 JUMPI DUP1 PUSH1 0x1F LT PUSH2 0x72A JUMPI PUSH2 0x100 DUP1 DUP4 SLOAD DIV MUL DUP4 MSTORE SWAP2 PUSH1 0x20 ADD SWAP2 PUSH2 0x753 JUMP JUMPDEST DUP3 ADD SWAP2 SWAP1 PUSH0 MSTORE PUSH1 0x20 PUSH0 KECCAK256 SWAP1 JUMPDEST DUP2 SLOAD DUP2 MSTORE SWAP1 PUSH1 0x1 ADD SWAP1 PUSH1 0x20 ADD DUP1 DUP4 GT PUSH2 0x736 JUMPI DUP3 SWAP1 SUB PUSH1 0x1F AND DUP3 ADD SWAP2 JUMPDEST POP POP POP POP POP DUP2 MSTORE PUSH1 0x20 ADD PUSH1 0x3 DUP3 ADD SLOAD DUP2 MSTORE PUSH1 0x20 ADD PUSH1 0x4 DUP3 ADD PUSH0 SWAP1 SLOAD SWAP1 PUSH2 0x100 EXP SWAP1 DIV PUSH1 0xFF AND PUSH1 0x3 DUP2 GT ISZERO PUSH2 0x78A JUMPI PUSH2 0x789 PUSH2 0xCAA JUMP JUMPDEST JUMPDEST PUSH1 0x3 DUP2 GT ISZERO PUSH2 0x79C JUMPI PUSH2 0x79B PUSH2 0xCAA JUMP JUMPDEST JUMPDEST DUP2 MSTORE PUSH1 0x20 ADD PUSH1 0x5 DUP3 ADD SLOAD DUP2 MSTORE POP POP SWAP1 POP SWAP2 SWAP1 POP JUMP JUMPDEST DUP1 PUSH0 PUSH1 0x3 DUP2 GT ISZERO PUSH2 0x7C5 JUMPI PUSH2 0x7C4 PUSH2 0xCAA JUMP JUMPDEST JUMPDEST PUSH1 0x1 PUSH0 DUP4 DUP2 MSTORE PUSH1 0x20 ADD SWAP1 DUP2 MSTORE PUSH1 0x20 ADD PUSH0 KECCAK256 PUSH1 0x4 ADD PUSH0 SWAP1 SLOAD SWAP1 PUSH2 0x100 EXP SWAP1 DIV PUSH1 0xFF AND PUSH1 0x3 DUP2 GT ISZERO PUSH2 0x7F8 JUMPI PUSH2 0x7F7 PUSH2 0xCAA JUMP JUMPDEST JUMPDEST EQ PUSH2 0x838 JUMPI PUSH1 0x40 MLOAD PUSH32 0x8C379A000000000000000000000000000000000000000000000000000000000 DUP2 MSTORE PUSH1 0x4 ADD PUSH2 0x82F SWAP1 PUSH2 0x1323 JUMP JUMPDEST PUSH1 0x40 MLOAD DUP1 SWAP2 SUB SWAP1 REVERT JUMPDEST PUSH1 0x2 PUSH1 0x1 PUSH0 DUP5 DUP2 MSTORE PUSH1 0x20 ADD SWAP1 DUP2 MSTORE PUSH1 0x20 ADD PUSH0 KECCAK256 PUSH1 0x4 ADD PUSH0 PUSH2 0x100 EXP DUP2 SLOAD DUP2 PUSH1 0xFF MUL NOT AND SWAP1 DUP4 PUSH1 0x3 DUP2 GT ISZERO PUSH2 0x86F JUMPI PUSH2 0x86E PUSH2 0xCAA JUMP JUMPDEST JUMPDEST MUL OR SWAP1 SSTORE POP DUP2 PUSH32 0xE21FE02C1589242B30BE2057F54FD54B7DDC463695D19FFDB54F9EBB0584F24A PUSH1 0x40 MLOAD PUSH1 0x40 MLOAD DUP1 SWAP2 SUB SWAP1 LOG2 POP POP JUMP JUMPDEST DUP1 PUSH0 PUSH1 0x3 DUP2 GT ISZERO PUSH2 0x8B9 JUMPI PUSH2 0x8B8 PUSH2 0xCAA JUMP JUMPDEST JUMPDEST PUSH1 0x1 PUSH0 DUP4 DUP2 MSTORE PUSH1 0x20 ADD SWAP1 DUP2 MSTORE PUSH1 0x20 ADD PUSH0 KECCAK256 PUSH1 0x4 ADD PUSH0 SWAP1 SLOAD SWAP1 PUSH2 0x100 EXP SWAP1 DIV PUSH1 0xFF AND PUSH1 0x3 DUP2 GT ISZERO PUSH2 0x8EC JUMPI PUSH2 0x8EB PUSH2 0xCAA JUMP JUMPDEST JUMPDEST EQ PUSH2 0x92C JUMPI PUSH1 0x40 MLOAD PUSH32 0x8C379A000000000000000000000000000000000000000000000000000000000 DUP2 MSTORE PUSH1 0x4 ADD PUSH2 0x923 SWAP1 PUSH2 0x1323 JUMP JUMPDEST PUSH1 0x40 MLOAD DUP1 SWAP2 SUB SWAP1 REVERT JUMPDEST PUSH1 0x1 DUP1 PUSH0 DUP5 DUP2 MSTORE PUSH1 0x20 ADD SWAP1 DUP2 MSTORE PUSH1 0x20 ADD PUSH0 KECCAK256 PUSH1 0x4 ADD PUSH0 PUSH2 0x100 EXP DUP2 SLOAD DUP2 PUSH1 0xFF MUL NOT AND SWAP1 DUP4 PUSH1 0x3 DUP2 GT ISZERO PUSH2 0x962 JUMPI PUSH2 0x961 PUSH2 0xCAA JUMP JUMPDEST JUMPDEST MUL OR SWAP1 SSTORE POP DUP2 PUSH32 0x262F7AD1922BDCF27203585EF3238620589CE6F74721D45BFF6897A19E4F94A1 PUSH1 0x40 MLOAD PUSH1 0x40 MLOAD DUP1 SWAP2 SUB SWAP1 LOG2 POP POP JUMP JUMPDEST PUSH1 0x40 MLOAD DUP1 PUSH1 0xC0 ADD PUSH1 0x40 MSTORE DUP1 PUSH0 DUP2 MSTORE PUSH1 0x20 ADD PUSH0 PUSH20 0xFFFFFFFFFFFFFFFFFFFFFFFFFFFFFFFFFFFFFFFF AND DUP2 MSTORE PUSH1 0x20 ADD PUSH1 0x60 DUP2 MSTORE PUSH1 0x20 ADD PUSH0 DUP2 MSTORE PUSH1 0x20 ADD PUSH0 PUSH1 0x3 DUP2 GT ISZERO PUSH2 0x9E5 JUMPI PUSH2 0x9E4 PUSH2 0xCAA JUMP JUMPDEST JUMPDEST DUP2 MSTORE PUSH1 0x20 ADD PUSH0 DUP2 MSTORE POP SWAP1 JUMP JUMPDEST PUSH0 DUP2 SWAP1 POP SWAP2 SWAP1 POP JUMP JUMPDEST PUSH2 0xA03 DUP2 PUSH2 0x9F1 JUMP JUMPDEST DUP3 MSTORE POP POP JUMP JUMPDEST PUSH0 PUSH1 0x20 DUP3 ADD SWAP1 POP PUSH2 0xA1C PUSH0 DUP4 ADD DUP5 PUSH2 0x9FA JUMP JUMPDEST SWAP3 SWAP2 POP POP JUMP JUMPDEST PUSH0 PUSH1 0x40 MLOAD SWAP1 POP SWAP1 JUMP JUMPDEST PUSH0 DUP1 REVERT JUMPDEST PUSH0 DUP1 REVERT JUMPDEST PUSH0 DUP1 REVERT JUMPDEST PUSH0 DUP1 REVERT JUMPDEST PUSH0 PUSH1 0x1F NOT PUSH1 0x1F DUP4 ADD AND SWAP1 POP SWAP2 SWAP1 POP JUMP JUMPDEST PUSH32 0x4E487B7100000000000000000000000000000000000000000000000000000000 PUSH0 MSTORE PUSH1 0x41 PUSH1 0x4 MSTORE PUSH1 0x24 PUSH0 REVERT JUMPDEST PUSH2 0xA81 DUP3 PUSH2 0xA3B JUMP JUMPDEST DUP2 ADD DUP2 DUP2 LT PUSH8 0xFFFFFFFFFFFFFFFF DUP3 GT OR ISZERO PUSH2 0xAA0 JUMPI PUSH2 0xA9F PUSH2 0xA4B JUMP JUMPDEST JUMPDEST DUP1 PUSH1 0x40 MSTORE POP POP POP JUMP JUMPDEST PUSH0 PUSH2 0xAB2 PUSH2 0xA22 JUMP JUMPDEST SWAP1 POP PUSH2 0xABE DUP3 DUP3 PUSH2 0xA78 JUMP JUMPDEST SWAP2 SWAP1 POP JUMP JUMPDEST PUSH0 PUSH8 0xFFFFFFFFFFFFFFFF DUP3 GT ISZERO PUSH2 0xADD JUMPI PUSH2 0xADC PUSH2 0xA4B JUMP JUMPDEST JUMPDEST PUSH2 0xAE6 DUP3 PUSH2 0xA3B JUMP JUMPDEST SWAP1 POP PUSH1 0x20 DUP2 ADD SWAP1 POP SWAP2 SWAP1 POP JUMP JUMPDEST DUP3 DUP2 DUP4 CALLDATACOPY PUSH0 DUP4 DUP4 ADD MSTORE POP POP POP JUMP JUMPDEST PUSH0 PUSH2 0xB13 PUSH2 0xB0E DUP5 PUSH2 0xAC3 JUMP JUMPDEST PUSH2 0xAA9 JUMP JUMPDEST SWAP1 POP DUP3 DUP2 MSTORE PUSH1 0x20 DUP2 ADD DUP5 DUP5 DUP5 ADD GT ISZERO PUSH2 0xB2F JUMPI PUSH2 0xB2E PUSH2 0xA37 JUMP JUMPDEST JUMPDEST PUSH2 0xB3A DUP5 DUP3 DUP6 PUSH2 0xAF3 JUMP JUMPDEST POP SWAP4 SWAP3 POP POP POP JUMP JUMPDEST PUSH0 DUP3 PUSH1 0x1F DUP4 ADD SLT PUSH2 0xB56 JUMPI PUSH2 0xB55 PUSH2 0xA33 JUMP JUMPDEST JUMPDEST DUP2 CALLDATALOAD PUSH2 0xB66 DUP5 DUP3 PUSH1 0x20 DUP7 ADD PUSH2 0xB01 JUMP JUMPDEST SWAP2 POP POP SWAP3 SWAP2 POP POP JUMP JUMPDEST PUSH0 PUSH1 0x20 DUP3 DUP5 SUB SLT ISZERO PUSH2 0xB84 JUMPI PUSH2 0xB83 PUSH2 0xA2B JUMP JUMPDEST JUMPDEST PUSH0 DUP3 ADD CALLDATALOAD PUSH8 0xFFFFFFFFFFFFFFFF DUP2 GT ISZERO PUSH2 0xBA1 JUMPI PUSH2 0xBA0 PUSH2 0xA2F JUMP JUMPDEST JUMPDEST PUSH2 0xBAD DUP5 DUP3 DUP6 ADD PUSH2 0xB42 JUMP JUMPDEST SWAP2 POP POP SWAP3 SWAP2 POP POP JUMP JUMPDEST PUSH2 0xBBF DUP2 PUSH2 0x9F1 JUMP JUMPDEST DUP2 EQ PUSH2 0xBC9 JUMPI PUSH0 DUP1 REVERT JUMPDEST POP JUMP JUMPDEST PUSH0 DUP2 CALLDATALOAD SWAP1 POP PUSH2 0xBDA DUP2 PUSH2 0xBB6 JUMP JUMPDEST SWAP3 SWAP2 POP POP JUMP JUMPDEST PUSH0 PUSH1 0x20 DUP3 DUP5 SUB SLT ISZERO PUSH2 0xBF5 JUMPI PUSH2 0xBF4 PUSH2 0xA2B JUMP JUMPDEST JUMPDEST PUSH0 PUSH2 0xC02 DUP5 DUP3 DUP6 ADD PUSH2 0xBCC JUMP JUMPDEST SWAP2 POP POP SWAP3 SWAP2 POP POP JUMP JUMPDEST PUSH0 PUSH20 0xFFFFFFFFFFFFFFFFFFFFFFFFFFFFFFFFFFFFFFFF DUP3 AND SWAP1 POP SWAP2 SWAP1 POP JUMP JUMPDEST PUSH0 PUSH2 0xC34 DUP3 PUSH2 0xC0B JUMP JUMPDEST SWAP1 POP SWAP2 SWAP1 POP JUMP JUMPDEST PUSH2 0xC44 DUP2 PUSH2 0xC2A JUMP JUMPDEST DUP3 MSTORE POP POP JUMP JUMPDEST PUSH0 DUP2 MLOAD SWAP1 POP SWAP2 SWAP1 POP JUMP JUMPDEST PUSH0 DUP3 DUP3 MSTORE PUSH1 0x20 DUP3 ADD SWAP1 POP SWAP3 SWAP2 POP POP JUMP JUMPDEST DUP3 DUP2 DUP4 MCOPY PUSH0 DUP4 DUP4 ADD MSTORE POP POP POP JUMP JUMPDEST PUSH0 PUSH2 0xC7C DUP3 PUSH2 0xC4A JUMP JUMPDEST PUSH2 0xC86 DUP2 DUP6 PUSH2 0xC54 JUMP JUMPDEST SWAP4 POP PUSH2 0xC96 DUP2 DUP6 PUSH1 0x20 DUP7 ADD PUSH2 0xC64 JUMP JUMPDEST PUSH2 0xC9F DUP2 PUSH2 0xA3B JUMP JUMPDEST DUP5 ADD SWAP2 POP POP SWAP3 SWAP2 POP POP JUMP JUMPDEST PUSH32 0x4E487B7100000000000000000000000000000000000000000000000000000000 PUSH0 MSTORE PUSH1 0x21 PUSH1 0x4 MSTORE PUSH1 0x24 PUSH0 REVERT JUMPDEST PUSH1 0x4 DUP2 LT PUSH2 0xCE8 JUMPI PUSH2 0xCE7 PUSH2 0xCAA JUMP JUMPDEST JUMPDEST POP JUMP JUMPDEST PUSH0 DUP2 SWAP1 POP PUSH2 0xCF8 DUP3 PUSH2 0xCD7 JUMP JUMPDEST SWAP2 SWAP1 POP JUMP JUMPDEST PUSH0 PUSH2 0xD07 DUP3 PUSH2 0xCEB JUMP JUMPDEST SWAP1 POP SWAP2 SWAP1 POP JUMP JUMPDEST PUSH2 0xD17 DUP2 PUSH2 0xCFD JUMP JUMPDEST DUP3 MSTORE POP POP JUMP JUMPDEST PUSH0 PUSH1 0xC0 DUP3 ADD SWAP1 POP PUSH2 0xD30 PUSH0 DUP4 ADD DUP10 PUSH2 0x9FA JUMP JUMPDEST PUSH2 0xD3D PUSH1 0x20 DUP4 ADD DUP9 PUSH2 0xC3B JUMP JUMPDEST DUP2 DUP2 SUB PUSH1 0x40 DUP4 ADD MSTORE PUSH2 0xD4F DUP2 DUP8 PUSH2 0xC72 JUMP JUMPDEST SWAP1 POP PUSH2 0xD5E PUSH1 0x60 DUP4 ADD DUP7 PUSH2 0x9FA JUMP JUMPDEST PUSH2 0xD6B PUSH1 0x80 DUP4 ADD DUP6 PUSH2 0xD0E JUMP JUMPDEST PUSH2 0xD78 PUSH1 0xA0 DUP4 ADD DUP5 PUSH2 0x9FA JUMP JUMPDEST SWAP8 SWAP7 POP POP POP POP POP POP POP JUMP JUMPDEST PUSH2 0xD8C DUP2 PUSH2 0x9F1 JUMP JUMPDEST DUP3 MSTORE POP POP JUMP JUMPDEST PUSH2 0xD9B DUP2 PUSH2 0xC2A JUMP JUMPDEST DUP3 MSTORE POP POP JUMP JUMPDEST PUSH0 DUP3 DUP3 MSTORE PUSH1 0x20 DUP3 ADD SWAP1 POP SWAP3 SWAP2 POP POP JUMP JUMPDEST PUSH0 PUSH2 0xDBB DUP3 PUSH2 0xC4A JUMP JUMPDEST PUSH2 0xDC5 DUP2 DUP6 PUSH2 0xDA1 JUMP JUMPDEST SWAP4 POP PUSH2 0xDD5 DUP2 DUP6 PUSH1 0x20 DUP7 ADD PUSH2 0xC64 JUMP JUMPDEST PUSH2 0xDDE DUP2 PUSH2 0xA3B JUMP JUMPDEST DUP5 ADD SWAP2 POP POP SWAP3 SWAP2 POP POP JUMP JUMPDEST PUSH2 0xDF2 DUP2 PUSH2 0xCFD JUMP JUMPDEST DUP3 MSTORE POP POP JUMP JUMPDEST PUSH0 PUSH1 0xC0 DUP4 ADD PUSH0 DUP4 ADD MLOAD PUSH2 0xE0D PUSH0 DUP7 ADD DUP3 PUSH2 0xD83 JUMP JUMPDEST POP PUSH1 0x20 DUP4 ADD MLOAD PUSH2 0xE20 PUSH1 0x20 DUP7 ADD DUP3 PUSH2 0xD92 JUMP JUMPDEST POP PUSH1 0x40 DUP4 ADD MLOAD DUP5 DUP3 SUB PUSH1 0x40 DUP7 ADD MSTORE PUSH2 0xE38 DUP3 DUP3 PUSH2 0xDB1 JUMP JUMPDEST SWAP2 POP POP PUSH1 0x60 DUP4 ADD MLOAD PUSH2 0xE4D PUSH1 0x60 DUP7 ADD DUP3 PUSH2 0xD83 JUMP JUMPDEST POP PUSH1 0x80 DUP4 ADD MLOAD PUSH2 0xE60 PUSH1 0x80 DUP7 ADD DUP3 PUSH2 0xDE9 JUMP JUMPDEST POP PUSH1 0xA0 DUP4 ADD MLOAD PUSH2 0xE73 PUSH1 0xA0 DUP7 ADD DUP3 PUSH2 0xD83 JUMP JUMPDEST POP DUP1 SWAP2 POP POP SWAP3 SWAP2 POP POP JUMP JUMPDEST PUSH0 PUSH1 0x20 DUP3 ADD SWAP1 POP DUP2 DUP2 SUB PUSH0 DUP4 ADD MSTORE PUSH2 0xE96 DUP2 DUP5 PUSH2 0xDF8 JUMP JUMPDEST SWAP1 POP SWAP3 SWAP2 POP POP JUMP JUMPDEST PUSH32 0x4F72646572206D75737420686176652061207072696365000000000000000000 PUSH0 DUP3 ADD MSTORE POP JUMP JUMPDEST PUSH0 PUSH2 0xED2 PUSH1 0x17 DUP4 PUSH2 0xC54 JUMP JUMPDEST SWAP2 POP PUSH2 0xEDD DUP3 PUSH2 0xE9E JUMP JUMPDEST PUSH1 0x20 DUP3 ADD SWAP1 POP SWAP2 SWAP1 POP JUMP JUMPDEST PUSH0 PUSH1 0x20 DUP3 ADD SWAP1 POP DUP2 DUP2 SUB PUSH0 DUP4 ADD MSTORE PUSH2 0xEFF DUP2 PUSH2 0xEC6 JUMP JUMPDEST SWAP1 POP SWAP2 SWAP1 POP JUMP JUMPDEST PUSH32 0x4E487B7100000000000000000000000000000000000000000000000000000000 PUSH0 MSTORE PUSH1 0x11 PUSH1 0x4 MSTORE PUSH1 0x24 PUSH0 REVERT JUMPDEST PUSH0 PUSH2 0xF3D DUP3 PUSH2 0x9F1 JUMP JUMPDEST SWAP2 POP PUSH32 0xFFFFFFFFFFFFFFFFFFFFFFFFFFFFFFFFFFFFFFFFFFFFFFFFFFFFFFFFFFFFFFFF DUP3 SUB PUSH2 0xF6F JUMPI PUSH2 0xF6E PUSH2 0xF06 JUMP JUMPDEST JUMPDEST PUSH1 0x1 DUP3 ADD SWAP1 POP SWAP2 SWAP1 POP JUMP JUMPDEST PUSH32 0x4E487B7100000000000000000000000000000000000000000000000000000000 PUSH0 MSTORE PUSH1 0x22 PUSH1 0x4 MSTORE PUSH1 0x24 PUSH0 REVERT JUMPDEST PUSH0 PUSH1 0x2 DUP3 DIV SWAP1 POP PUSH1 0x1 DUP3 AND DUP1 PUSH2 0xFBE JUMPI PUSH1 0x7F DUP3 AND SWAP2 POP JUMPDEST PUSH1 0x20 DUP3 LT DUP2 SUB PUSH2 0xFD1 JUMPI PUSH2 0xFD0 PUSH2 0xF7A JUMP JUMPDEST JUMPDEST POP SWAP2 SWAP1 POP JUMP JUMPDEST PUSH0 DUP2 SWAP1 POP DUP2 PUSH0 MSTORE PUSH1 0x20 PUSH0 KECCAK256 SWAP1 POP SWAP2 SWAP1 POP JUMP JUMPDEST PUSH0 PUSH1 0x20 PUSH1 0x1F DUP4 ADD DIV SWAP1 POP SWAP2 SWAP1 POP JUMP JUMPDEST PUSH0 DUP3 DUP3 SHL SWAP1 POP SWAP3 SWAP2 POP POP JUMP JUMPDEST PUSH0 PUSH1 0x8 DUP4 MUL PUSH2 0x1033 PUSH32 0xFFFFFFFFFFFFFFFFFFFFFFFFFFFFFFFFFFFFFFFFFFFFFFFFFFFFFFFFFFFFFFFF DUP3 PUSH2 0xFF8 JUMP JUMPDEST PUSH2 0x103D DUP7 DUP4 PUSH2 0xFF8 JUMP JUMPDEST SWAP6 POP DUP1 NOT DUP5 AND SWAP4 POP DUP1 DUP7 AND DUP5 OR SWAP3 POP POP POP SWAP4 SWAP3 POP POP POP JUMP JUMPDEST PUSH0 DUP2 SWAP1 POP SWAP2 SWAP1 POP JUMP JUMPDEST PUSH0 PUSH2 0x1078 PUSH2 0x1073 PUSH2 0x106E DUP5 PUSH2 0x9F1 JUMP JUMPDEST PUSH2 0x1055 JUMP JUMPDEST PUSH2 0x9F1 JUMP JUMPDEST SWAP1 POP SWAP2 SWAP1 POP JUMP JUMPDEST PUSH0 DUP2 SWAP1 POP SWAP2 SWAP1 POP JUMP JUMPDEST PUSH2 0x1091 DUP4 PUSH2 0x105E JUMP JUMPDEST PUSH2 0x10A5 PUSH2 0x109D DUP3 PUSH2 0x107F JUMP JUMPDEST DUP5 DUP5 SLOAD PUSH2 0x1004 JUMP JUMPDEST DUP3 SSTORE POP POP POP POP JUMP JUMPDEST PUSH0 SWAP1 JUMP JUMPDEST PUSH2 0x10B9 PUSH2 0x10AD JUMP JUMPDEST PUSH2 0x10C4 DUP2 DUP5 DUP5 PUSH2 0x1088 JUMP JUMPDEST POP POP POP JUMP JUMPDEST JUMPDEST DUP2 DUP2 LT ISZERO PUSH2 0x10E7 JUMPI PUSH2 0x10DC PUSH0 DUP3 PUSH2 0x10B1 JUMP JUMPDEST PUSH1 0x1 DUP2 ADD SWAP1 POP PUSH2 0x10CA JUMP JUMPDEST POP POP JUMP JUMPDEST PUSH1 0x1F DUP3 GT ISZERO PUSH2 0x112C JUMPI PUSH2 0x10FD DUP2 PUSH2 0xFD7 JUMP JUMPDEST PUSH2 0x1106 DUP5 PUSH2 0xFE9 JUMP JUMPDEST DUP2 ADD PUSH1 0x20 DUP6 LT ISZERO PUSH2 0x1115 JUMPI DUP2 SWAP1 POP JUMPDEST PUSH2 0x1129 PUSH2 0x1121 DUP6 PUSH2 0xFE9 JUMP JUMPDEST DUP4 ADD DUP3 PUSH2 0x10C9 JUMP JUMPDEST POP POP JUMPDEST POP POP POP JUMP JUMPDEST PUSH0 DUP3 DUP3 SHR SWAP1 POP SWAP3 SWAP2 POP POP JUMP JUMPDEST PUSH0 PUSH2 0x114C PUSH0 NOT DUP5 PUSH1 0x8 MUL PUSH2 0x1131 JUMP JUMPDEST NOT DUP1 DUP4 AND SWAP2 POP POP SWAP3 SWAP2 POP POP JUMP JUMPDEST PUSH0 PUSH2 0x1164 DUP4 DUP4 PUSH2 0x113D JUMP JUMPDEST SWAP2 POP DUP3 PUSH1 0x2 MUL DUP3 OR SWAP1 POP SWAP3 SWAP2 POP POP JUMP JUMPDEST PUSH2 0x117D DUP3 PUSH2 0xC4A JUMP JUMPDEST PUSH8 0xFFFFFFFFFFFFFFFF DUP2 GT ISZERO PUSH2 0x1196 JUMPI PUSH2 0x1195 PUSH2 0xA4B JUMP JUMPDEST JUMPDEST PUSH2 0x11A0 DUP3 SLOAD PUSH2 0xFA7 JUMP JUMPDEST PUSH2 0x11AB DUP3 DUP3 DUP6 PUSH2 0x10EB JUMP JUMPDEST PUSH0 PUSH1 0x20 SWAP1 POP PUSH1 0x1F DUP4 GT PUSH1 0x1 DUP2 EQ PUSH2 0x11DC JUMPI PUSH0 DUP5 ISZERO PUSH2 0x11CA JUMPI DUP3 DUP8 ADD MLOAD SWAP1 POP JUMPDEST PUSH2 0x11D4 DUP6 DUP3 PUSH2 0x1159 JUMP JUMPDEST DUP7 SSTORE POP PUSH2 0x123B JUMP JUMPDEST PUSH1 0x1F NOT DUP5 AND PUSH2 0x11EA DUP7 PUSH2 0xFD7 JUMP JUMPDEST PUSH0 JUMPDEST DUP3 DUP2 LT ISZERO PUSH2 0x1211 JUMPI DUP5 DUP10 ADD MLOAD DUP3 SSTORE PUSH1 0x1 DUP3 ADD SWAP2 POP PUSH1 0x20 DUP6 ADD SWAP5 POP PUSH1 0x20 DUP2 ADD SWAP1 POP PUSH2 0x11EC JUMP JUMPDEST DUP7 DUP4 LT ISZERO PUSH2 0x122E JUMPI DUP5 DUP10 ADD MLOAD PUSH2 0x122A PUSH1 0x1F DUP10 AND DUP3 PUSH2 0x113D JUMP JUMPDEST DUP4 SSTORE POP JUMPDEST PUSH1 0x1 PUSH1 0x2 DUP9 MUL ADD DUP9 SSTORE POP POP POP JUMPDEST POP POP POP POP POP POP JUMP JUMPDEST PUSH0 PUSH1 0x40 DUP3 ADD SWAP1 POP DUP2 DUP2 SUB PUSH0 DUP4 ADD MSTORE PUSH2 0x125B DUP2 DUP6 PUSH2 0xC72 JUMP JUMPDEST SWAP1 POP PUSH2 0x126A PUSH1 0x20 DUP4 ADD DUP5 PUSH2 0x9FA JUMP JUMPDEST SWAP4 SWAP3 POP POP POP JUMP JUMPDEST PUSH32 0x4E6F742074686520637573746F6D657200000000000000000000000000000000 PUSH0 DUP3 ADD MSTORE POP JUMP JUMPDEST PUSH0 PUSH2 0x12A5 PUSH1 0x10 DUP4 PUSH2 0xC54 JUMP JUMPDEST SWAP2 POP PUSH2 0x12B0 DUP3 PUSH2 0x1271 JUMP JUMPDEST PUSH1 0x20 DUP3 ADD SWAP1 POP SWAP2 SWAP1 POP JUMP JUMPDEST PUSH0 PUSH1 0x20 DUP3 ADD SWAP1 POP DUP2 DUP2 SUB PUSH0 DUP4 ADD MSTORE PUSH2 0x12D2 DUP2 PUSH2 0x1299 JUMP JUMPDEST SWAP1 POP SWAP2 SWAP1 POP JUMP JUMPDEST PUSH32 0x4F72646572206E6F742070656E64696E67000000000000000000000000000000 PUSH0 DUP3 ADD MSTORE POP JUMP JUMPDEST PUSH0 PUSH2 0x130D PUSH1 0x11 DUP4 PUSH2 0xC54 JUMP JUMPDEST SWAP2 POP PUSH2 0x1318 DUP3 PUSH2 0x12D9 JUMP JUMPDEST PUSH1 0x20 DUP3 ADD SWAP1 POP SWAP2 SWAP1 POP JUMP JUMPDEST PUSH0 PUSH1 0x20 DUP3 ADD SWAP1 POP DUP2 DUP2 SUB PUSH0 DUP4 ADD MSTORE PUSH2 0x133A DUP2 PUSH2 0x1301 JUMP JUMPDEST SWAP1 POP SWAP2 SWAP1 POP JUMP INVALID LOG2 PUSH5 0x6970667358 0x22 SLT KECCAK256 MSTORE MSTORE8 TSTORE SWAP4 0xDF SWAP4 INVALID PUSH30 0x685B35DCF12AD806651D0411EBDA2759AE47A7633B99655464736F6C6343 STOP ADDMOD BYTE STOP CALLER "
				},
				"gasEstimates": {
					"creation": {
						"codeDepositCost": "996600",
						"executionCost": "1032",
						"totalCost": "997632"
					},
					"external": {
						"acceptOrder(uint256)": "28286",
						"cancelOrder(uint256)": "infinite",
						"deliverOrder(uint256)": "28264",
						"getOrder(uint256)": "infinite",
						"orderCount()": "2425",
						"orders(uint256)": "infinite",
						"placeOrder(string)": "infinite"
					}
				},
				"methodIdentifiers": {
					"acceptOrder(uint256)": "ef18e9ed",
					"cancelOrder(uint256)": "514fcac7",
					"deliverOrder(uint256)": "ddff5e7d",
					"getOrder(uint256)": "d09ef241",
					"orderCount()": "2453ffa8",
					"orders(uint256)": "a85c38ef",
					"placeOrder(string)": "453217f8"
				}
			},
			"storageLayout": {
				"storage": [
					{
						"astId": 22,
						"contract": "contracts/foodDelivery.sol:FoodDelivery",
						"label": "orderCount",
						"offset": 0,
						"slot": "0",
						"type": "t_uint256"
					},
					{
						"astId": 27,
						"contract": "contracts/foodDelivery.sol:FoodDelivery",
						"label": "orders",
						"offset": 0,
						"slot": "1",
						"type": "t_mapping(t_uint256,t_struct(Order)20_storage)"
					}
				],
				"types": {
					"t_address": {
						"encoding": "inplace",
						"label": "address",
						"numberOfBytes": "20"
					},
					"t_enum(OrderStatus)6": {
						"encoding": "inplace",
						"label": "enum FoodDelivery.OrderStatus",
						"numberOfBytes": "1"
					},
					"t_mapping(t_uint256,t_struct(Order)20_storage)": {
						"encoding": "mapping",
						"key": "t_uint256",
						"label": "mapping(uint256 => struct FoodDelivery.Order)",
						"numberOfBytes": "32",
						"value": "t_struct(Order)20_storage"
					},
					"t_string_storage": {
						"encoding": "bytes",
						"label": "string",
						"numberOfBytes": "32"
					},
					"t_struct(Order)20_storage": {
						"encoding": "inplace",
						"label": "struct FoodDelivery.Order",
						"members": [
							{
								"astId": 8,
								"contract": "contracts/foodDelivery.sol:FoodDelivery",
								"label": "id",
								"offset": 0,
								"slot": "0",
								"type": "t_uint256"
							},
							{
								"astId": 10,
								"contract": "contracts/foodDelivery.sol:FoodDelivery",
								"label": "customer",
								"offset": 0,
								"slot": "1",
								"type": "t_address"
							},
							{
								"astId": 12,
								"contract": "contracts/foodDelivery.sol:FoodDelivery",
								"label": "foodItem",
								"offset": 0,
								"slot": "2",
								"type": "t_string_storage"
							},
							{
								"astId": 14,
								"contract": "contracts/foodDelivery.sol:FoodDelivery",
								"label": "price",
								"offset": 0,
								"slot": "3",
								"type": "t_uint256"
							},
							{
								"astId": 17,
								"contract": "contracts/foodDelivery.sol:FoodDelivery",
								"label": "status",
								"offset": 0,
								"slot": "4",
								"type": "t_enum(OrderStatus)6"
							},
							{
								"astId": 19,
								"contract": "contracts/foodDelivery.sol:FoodDelivery",
								"label": "timestamp",
								"offset": 0,
								"slot": "5",
								"type": "t_uint256"
							}
						],
						"numberOfBytes": "192"
					},
					"t_uint256": {
						"encoding": "inplace",
						"label": "uint256",
						"numberOfBytes": "32"
					}
				}
			},
			"userdoc": {
				"kind": "user",
				"methods": {},
				"version": 1
			}
		}
	}
}