{
	"contracts/Practice.sol": {
		"MyPractice": {
			"abi": [
				{
					"inputs": [
						{
							"internalType": "string",
							"name": "_name",
							"type": "string"
						}
					],
					"name": "addEmployee",
					"outputs": [],
					"stateMutability": "nonpayable",
					"type": "function"
				},
				{
					"inputs": [
						{
							"internalType": "string",
							"name": "_name",
							"type": "string"
						},
						{
							"internalType": "string",
							"name": "_number",
							"type": "string"
						}
					],
					"name": "addNumber",
					"outputs": [],
					"stateMutability": "nonpayable",
					"type": "function"
				},
				{
					"inputs": [],
					"name": "changeLight",
					"outputs": [],
					"stateMutability": "nonpayable",
					"type": "function"
				},
				{
					"inputs": [],
					"name": "currentLight",
					"outputs": [
						{
							"internalType": "enum MyPractice.TrafficLight",
							"name": "",
							"type": "uint8"
						}
					],
					"stateMutability": "view",
					"type": "function"
				},
				{
					"inputs": [
						{
							"internalType": "uint256",
							"name": "",
							"type": "uint256"
						}
					],
					"name": "employees",
					"outputs": [
						{
							"internalType": "string",
							"name": "",
							"type": "string"
						}
					],
					"stateMutability": "view",
					"type": "function"
				},
				{
					"inputs": [
						{
							"internalType": "uint256",
							"name": "_index",
							"type": "uint256"
						}
					],
					"name": "getEmployee",
					"outputs": [
						{
							"internalType": "string",
							"name": "",
							"type": "string"
						}
					],
					"stateMutability": "view",
					"type": "function"
				},
				{
					"inputs": [
						{
							"internalType": "string",
							"name": "_name",
							"type": "string"
						}
					],
					"name": "getNumber",
					"outputs": [
						{
							"internalType": "string",
							"name": "",
							"type": "string"
						}
					],
					"stateMutability": "view",
					"type": "function"
				},
				{
					"inputs": [
						{
							"internalType": "string",
							"name": "",
							"type": "string"
						}
					],
					"name": "phoneBook",
					"outputs": [
						{
							"internalType": "string",
							"name": "",
							"type": "string"
						}
					],
					"stateMutability": "view",
					"type": "function"
				}
			],
			"devdoc": {
				"kind": "dev",
				"methods": {},
				"version": 1
			},
			"evm": {
				"assembly": "    /* \"contracts/Practice.sol\":60:1779  contract MyPractice {... */\n  mstore(0x40, 0x80)\n    /* \"contracts/Practice.sol\":166:224  string [] public employees = [\"nathan\", \"mariam\", \"chris\"] */\n  mload(0x40)\n  dup1\n  0x60\n  add\n  0x40\n  mstore\n  dup1\n  mload(0x40)\n  dup1\n  0x40\n  add\n  0x40\n  mstore\n  dup1\n  0x06\n  dup2\n  mstore\n  0x20\n  add\n  0x6e617468616e0000000000000000000000000000000000000000000000000000\n  dup2\n  mstore\n  pop\n  dup2\n  mstore\n  0x20\n  add\n  mload(0x40)\n  dup1\n  0x40\n  add\n  0x40\n  mstore\n  dup1\n  0x06\n  dup2\n  mstore\n  0x20\n  add\n  0x6d617269616d0000000000000000000000000000000000000000000000000000\n  dup2\n  mstore\n  pop\n  dup2\n  mstore\n  0x20\n  add\n  mload(0x40)\n  dup1\n  0x40\n  add\n  0x40\n  mstore\n  dup1\n  0x05\n  dup2\n  mstore\n  0x20\n  add\n  0x6368726973000000000000000000000000000000000000000000000000000000\n  dup2\n  mstore\n  pop\n  dup2\n  mstore\n  pop\n  0x00\n  swap1\n  0x03\n  tag_1\n  swap3\n  swap2\n  swap1\n  tag_2\n  jump\t// in\ntag_1:\n  pop\n    /* \"contracts/Practice.sol\":687:703  TrafficLight.Red */\n  0x00\n    /* \"contracts/Practice.sol\":652:703  TrafficLight public currentLight = TrafficLight.Red */\n  0x01\n  exp(0x0100, 0x00)\n  dup2\n  sload\n  dup2\n  0xff\n  mul\n  not\n  and\n  swap1\n  dup4\n  0x02\n  dup2\n  gt\n  iszero\n  tag_3\n  jumpi\n  tag_4\n  tag_5\n  jump\t// in\ntag_4:\ntag_3:\n  mul\n  or\n  swap1\n  sstore\n  pop\n    /* \"contracts/Practice.sol\":60:1779  contract MyPractice {... */\n  callvalue\n  dup1\n  iszero\n  tag_6\n  jumpi\n  0x00\n  dup1\n  revert\ntag_6:\n  pop\n  jump(tag_7)\ntag_2:\n  dup3\n  dup1\n  sload\n  dup3\n  dup3\n  sstore\n  swap1\n  0x00\n  mstore\n  keccak256(0x00, 0x20)\n  swap1\n  dup2\n  add\n  swap3\n  dup3\n  iszero\n  tag_8\n  jumpi\n  swap2\n  0x20\n  mul\n  dup3\n  add\ntag_9:\n  dup3\n  dup2\n  gt\n  iszero\n  tag_10\n  jumpi\n  dup3\n  mload\n  dup3\n  swap1\n  dup2\n  tag_11\n  swap2\n  swap1\n  tag_12\n  jump\t// in\ntag_11:\n  pop\n  swap2\n  0x20\n  add\n  swap2\n  swap1\n  0x01\n  add\n  swap1\n  jump(tag_9)\ntag_10:\ntag_8:\n  pop\n  swap1\n  pop\n  tag_13\n  swap2\n  swap1\n  tag_14\n  jump\t// in\ntag_13:\n  pop\n  swap1\n  jump\t// out\ntag_14:\ntag_15:\n  dup1\n  dup3\n  gt\n  iszero\n  tag_16\n  jumpi\n  0x00\n  dup2\n  dup2\n  tag_17\n  swap2\n  swap1\n  tag_18\n  jump\t// in\ntag_17:\n  pop\n  0x01\n  add\n  jump(tag_15)\ntag_16:\n  pop\n  swap1\n  jump\t// out\ntag_18:\n  pop\n  dup1\n  sload\n  tag_19\n  swap1\n  tag_20\n  jump\t// in\ntag_19:\n  0x00\n  dup3\n  sstore\n  dup1\n  0x1f\n  lt\n  tag_22\n  jumpi\n  pop\n  jump(tag_21)\ntag_22:\n  0x1f\n  add\n  0x20\n  swap1\n  div\n  swap1\n  0x00\n  mstore\n  keccak256(0x00, 0x20)\n  swap1\n  dup2\n  add\n  swap1\n  tag_23\n  swap2\n  swap1\n  tag_24\n  jump\t// in\ntag_23:\ntag_21:\n  pop\n  jump\t// out\ntag_24:\ntag_25:\n  dup1\n  dup3\n  gt\n  iszero\n  tag_26\n  jumpi\n  0x00\n  dup2\n  0x00\n  swap1\n  sstore\n  pop\n  0x01\n  add\n  jump(tag_25)\ntag_26:\n  pop\n  swap1\n  jump\t// out\n    /* \"#utility.yul\":7:187   */\ntag_5:\n    /* \"#utility.yul\":55:132   */\n  0x4e487b7100000000000000000000000000000000000000000000000000000000\n    /* \"#utility.yul\":52:53   */\n  0x00\n    /* \"#utility.yul\":45:133   */\n  mstore\n    /* \"#utility.yul\":152:156   */\n  0x21\n    /* \"#utility.yul\":149:150   */\n  0x04\n    /* \"#utility.yul\":142:157   */\n  mstore\n    /* \"#utility.yul\":176:180   */\n  0x24\n    /* \"#utility.yul\":173:174   */\n  0x00\n    /* \"#utility.yul\":166:181   */\n  revert\n    /* \"#utility.yul\":193:292   */\ntag_27:\n    /* \"#utility.yul\":245:251   */\n  0x00\n    /* \"#utility.yul\":279:284   */\n  dup2\n    /* \"#utility.yul\":273:285   */\n  mload\n    /* \"#utility.yul\":263:285   */\n  swap1\n  pop\n    /* \"#utility.yul\":193:292   */\n  swap2\n  swap1\n  pop\n  jump\t// out\n    /* \"#utility.yul\":298:478   */\ntag_28:\n    /* \"#utility.yul\":346:423   */\n  0x4e487b7100000000000000000000000000000000000000000000000000000000\n    /* \"#utility.yul\":343:344   */\n  0x00\n    /* \"#utility.yul\":336:424   */\n  mstore\n    /* \"#utility.yul\":443:447   */\n  0x41\n    /* \"#utility.yul\":440:441   */\n  0x04\n    /* \"#utility.yul\":433:448   */\n  mstore\n    /* \"#utility.yul\":467:471   */\n  0x24\n    /* \"#utility.yul\":464:465   */\n  0x00\n    /* \"#utility.yul\":457:472   */\n  revert\n    /* \"#utility.yul\":484:664   */\ntag_29:\n    /* \"#utility.yul\":532:609   */\n  0x4e487b7100000000000000000000000000000000000000000000000000000000\n    /* \"#utility.yul\":529:530   */\n  0x00\n    /* \"#utility.yul\":522:610   */\n  mstore\n    /* \"#utility.yul\":629:633   */\n  0x22\n    /* \"#utility.yul\":626:627   */\n  0x04\n    /* \"#utility.yul\":619:634   */\n  mstore\n    /* \"#utility.yul\":653:657   */\n  0x24\n    /* \"#utility.yul\":650:651   */\n  0x00\n    /* \"#utility.yul\":643:658   */\n  revert\n    /* \"#utility.yul\":670:990   */\ntag_20:\n    /* \"#utility.yul\":714:720   */\n  0x00\n    /* \"#utility.yul\":751:752   */\n  0x02\n    /* \"#utility.yul\":745:749   */\n  dup3\n    /* \"#utility.yul\":741:753   */\n  div\n    /* \"#utility.yul\":731:753   */\n  swap1\n  pop\n    /* \"#utility.yul\":798:799   */\n  0x01\n    /* \"#utility.yul\":792:796   */\n  dup3\n    /* \"#utility.yul\":788:800   */\n  and\n    /* \"#utility.yul\":819:837   */\n  dup1\n    /* \"#utility.yul\":809:890   */\n  tag_52\n  jumpi\n    /* \"#utility.yul\":875:879   */\n  0x7f\n    /* \"#utility.yul\":867:873   */\n  dup3\n    /* \"#utility.yul\":863:880   */\n  and\n    /* \"#utility.yul\":853:880   */\n  swap2\n  pop\n    /* \"#utility.yul\":809:890   */\ntag_52:\n    /* \"#utility.yul\":937:939   */\n  0x20\n    /* \"#utility.yul\":929:935   */\n  dup3\n    /* \"#utility.yul\":926:940   */\n  lt\n    /* \"#utility.yul\":906:924   */\n  dup2\n    /* \"#utility.yul\":903:941   */\n  sub\n    /* \"#utility.yul\":900:984   */\n  tag_53\n  jumpi\n    /* \"#utility.yul\":956:974   */\n  tag_54\n  tag_29\n  jump\t// in\ntag_54:\n    /* \"#utility.yul\":900:984   */\ntag_53:\n    /* \"#utility.yul\":721:990   */\n  pop\n    /* \"#utility.yul\":670:990   */\n  swap2\n  swap1\n  pop\n  jump\t// out\n    /* \"#utility.yul\":996:1137   */\ntag_30:\n    /* \"#utility.yul\":1045:1049   */\n  0x00\n    /* \"#utility.yul\":1068:1071   */\n  dup2\n    /* \"#utility.yul\":1060:1071   */\n  swap1\n  pop\n    /* \"#utility.yul\":1091:1094   */\n  dup2\n    /* \"#utility.yul\":1088:1089   */\n  0x00\n    /* \"#utility.yul\":1081:1095   */\n  mstore\n    /* \"#utility.yul\":1125:1129   */\n  0x20\n    /* \"#utility.yul\":1122:1123   */\n  0x00\n    /* \"#utility.yul\":1112:1130   */\n  keccak256\n    /* \"#utility.yul\":1104:1130   */\n  swap1\n  pop\n    /* \"#utility.yul\":996:1137   */\n  swap2\n  swap1\n  pop\n  jump\t// out\n    /* \"#utility.yul\":1143:1236   */\ntag_31:\n    /* \"#utility.yul\":1180:1186   */\n  0x00\n    /* \"#utility.yul\":1227:1229   */\n  0x20\n    /* \"#utility.yul\":1222:1224   */\n  0x1f\n    /* \"#utility.yul\":1215:1220   */\n  dup4\n    /* \"#utility.yul\":1211:1225   */\n  add\n    /* \"#utility.yul\":1207:1230   */\n  div\n    /* \"#utility.yul\":1197:1230   */\n  swap1\n  pop\n    /* \"#utility.yul\":1143:1236   */\n  swap2\n  swap1\n  pop\n  jump\t// out\n    /* \"#utility.yul\":1242:1349   */\ntag_32:\n    /* \"#utility.yul\":1286:1294   */\n  0x00\n    /* \"#utility.yul\":1336:1341   */\n  dup3\n    /* \"#utility.yul\":1330:1334   */\n  dup3\n    /* \"#utility.yul\":1326:1342   */\n  shl\n    /* \"#utility.yul\":1305:1342   */\n  swap1\n  pop\n    /* \"#utility.yul\":1242:1349   */\n  swap3\n  swap2\n  pop\n  pop\n  jump\t// out\n    /* \"#utility.yul\":1355:1748   */\ntag_33:\n    /* \"#utility.yul\":1424:1430   */\n  0x00\n    /* \"#utility.yul\":1474:1475   */\n  0x08\n    /* \"#utility.yul\":1462:1472   */\n  dup4\n    /* \"#utility.yul\":1458:1476   */\n  mul\n    /* \"#utility.yul\":1497:1594   */\n  tag_59\n    /* \"#utility.yul\":1527:1593   */\n  0xffffffffffffffffffffffffffffffffffffffffffffffffffffffffffffffff\n    /* \"#utility.yul\":1516:1525   */\n  dup3\n    /* \"#utility.yul\":1497:1594   */\n  tag_32\n  jump\t// in\ntag_59:\n    /* \"#utility.yul\":1615:1654   */\n  tag_60\n    /* \"#utility.yul\":1645:1653   */\n  dup7\n    /* \"#utility.yul\":1634:1643   */\n  dup4\n    /* \"#utility.yul\":1615:1654   */\n  tag_32\n  jump\t// in\ntag_60:\n    /* \"#utility.yul\":1603:1654   */\n  swap6\n  pop\n    /* \"#utility.yul\":1687:1691   */\n  dup1\n    /* \"#utility.yul\":1683:1692   */\n  not\n    /* \"#utility.yul\":1676:1681   */\n  dup5\n    /* \"#utility.yul\":1672:1693   */\n  and\n    /* \"#utility.yul\":1663:1693   */\n  swap4\n  pop\n    /* \"#utility.yul\":1736:1740   */\n  dup1\n    /* \"#utility.yul\":1726:1734   */\n  dup7\n    /* \"#utility.yul\":1722:1741   */\n  and\n    /* \"#utility.yul\":1715:1720   */\n  dup5\n    /* \"#utility.yul\":1712:1742   */\n  or\n    /* \"#utility.yul\":1702:1742   */\n  swap3\n  pop\n    /* \"#utility.yul\":1431:1748   */\n  pop\n  pop\n    /* \"#utility.yul\":1355:1748   */\n  swap4\n  swap3\n  pop\n  pop\n  pop\n  jump\t// out\n    /* \"#utility.yul\":1754:1831   */\ntag_34:\n    /* \"#utility.yul\":1791:1798   */\n  0x00\n    /* \"#utility.yul\":1820:1825   */\n  dup2\n    /* \"#utility.yul\":1809:1825   */\n  swap1\n  pop\n    /* \"#utility.yul\":1754:1831   */\n  swap2\n  swap1\n  pop\n  jump\t// out\n    /* \"#utility.yul\":1837:1897   */\ntag_35:\n    /* \"#utility.yul\":1865:1868   */\n  0x00\n    /* \"#utility.yul\":1886:1891   */\n  dup2\n    /* \"#utility.yul\":1879:1891   */\n  swap1\n  pop\n    /* \"#utility.yul\":1837:1897   */\n  swap2\n  swap1\n  pop\n  jump\t// out\n    /* \"#utility.yul\":1903:2045   */\ntag_36:\n    /* \"#utility.yul\":1953:1962   */\n  0x00\n    /* \"#utility.yul\":1986:2039   */\n  tag_64\n    /* \"#utility.yul\":2004:2038   */\n  tag_65\n    /* \"#utility.yul\":2013:2037   */\n  tag_66\n    /* \"#utility.yul\":2031:2036   */\n  dup5\n    /* \"#utility.yul\":2013:2037   */\n  tag_34\n  jump\t// in\ntag_66:\n    /* \"#utility.yul\":2004:2038   */\n  tag_35\n  jump\t// in\ntag_65:\n    /* \"#utility.yul\":1986:2039   */\n  tag_34\n  jump\t// in\ntag_64:\n    /* \"#utility.yul\":1973:2039   */\n  swap1\n  pop\n    /* \"#utility.yul\":1903:2045   */\n  swap2\n  swap1\n  pop\n  jump\t// out\n    /* \"#utility.yul\":2051:2126   */\ntag_37:\n    /* \"#utility.yul\":2094:2097   */\n  0x00\n    /* \"#utility.yul\":2115:2120   */\n  dup2\n    /* \"#utility.yul\":2108:2120   */\n  swap1\n  pop\n    /* \"#utility.yul\":2051:2126   */\n  swap2\n  swap1\n  pop\n  jump\t// out\n    /* \"#utility.yul\":2132:2401   */\ntag_38:\n    /* \"#utility.yul\":2242:2281   */\n  tag_69\n    /* \"#utility.yul\":2273:2280   */\n  dup4\n    /* \"#utility.yul\":2242:2281   */\n  tag_36\n  jump\t// in\ntag_69:\n    /* \"#utility.yul\":2303:2394   */\n  tag_70\n    /* \"#utility.yul\":2352:2393   */\n  tag_71\n    /* \"#utility.yul\":2376:2392   */\n  dup3\n    /* \"#utility.yul\":2352:2393   */\n  tag_37\n  jump\t// in\ntag_71:\n    /* \"#utility.yul\":2344:2350   */\n  dup5\n    /* \"#utility.yul\":2337:2341   */\n  dup5\n    /* \"#utility.yul\":2331:2342   */\n  sload\n    /* \"#utility.yul\":2303:2394   */\n  tag_33\n  jump\t// in\ntag_70:\n    /* \"#utility.yul\":2297:2301   */\n  dup3\n    /* \"#utility.yul\":2290:2395   */\n  sstore\n    /* \"#utility.yul\":2208:2401   */\n  pop\n    /* \"#utility.yul\":2132:2401   */\n  pop\n  pop\n  pop\n  jump\t// out\n    /* \"#utility.yul\":2407:2480   */\ntag_39:\n    /* \"#utility.yul\":2452:2455   */\n  0x00\n    /* \"#utility.yul\":2407:2480   */\n  swap1\n  jump\t// out\n    /* \"#utility.yul\":2486:2675   */\ntag_40:\n    /* \"#utility.yul\":2563:2595   */\n  tag_74\n  tag_39\n  jump\t// in\ntag_74:\n    /* \"#utility.yul\":2604:2669   */\n  tag_75\n    /* \"#utility.yul\":2662:2668   */\n  dup2\n    /* \"#utility.yul\":2654:2660   */\n  dup5\n    /* \"#utility.yul\":2648:2652   */\n  dup5\n    /* \"#utility.yul\":2604:2669   */\n  tag_38\n  jump\t// in\ntag_75:\n    /* \"#utility.yul\":2539:2675   */\n  pop\n    /* \"#utility.yul\":2486:2675   */\n  pop\n  pop\n  jump\t// out\n    /* \"#utility.yul\":2681:2867   */\ntag_41:\n    /* \"#utility.yul\":2741:2861   */\ntag_77:\n    /* \"#utility.yul\":2758:2761   */\n  dup2\n    /* \"#utility.yul\":2751:2756   */\n  dup2\n    /* \"#utility.yul\":2748:2762   */\n  lt\n    /* \"#utility.yul\":2741:2861   */\n  iszero\n  tag_79\n  jumpi\n    /* \"#utility.yul\":2812:2851   */\n  tag_80\n    /* \"#utility.yul\":2849:2850   */\n  0x00\n    /* \"#utility.yul\":2842:2847   */\n  dup3\n    /* \"#utility.yul\":2812:2851   */\n  tag_40\n  jump\t// in\ntag_80:\n    /* \"#utility.yul\":2785:2786   */\n  0x01\n    /* \"#utility.yul\":2778:2783   */\n  dup2\n    /* \"#utility.yul\":2774:2787   */\n  add\n    /* \"#utility.yul\":2765:2787   */\n  swap1\n  pop\n    /* \"#utility.yul\":2741:2861   */\n  jump(tag_77)\ntag_79:\n    /* \"#utility.yul\":2681:2867   */\n  pop\n  pop\n  jump\t// out\n    /* \"#utility.yul\":2873:3416   */\ntag_42:\n    /* \"#utility.yul\":2974:2976   */\n  0x1f\n    /* \"#utility.yul\":2969:2972   */\n  dup3\n    /* \"#utility.yul\":2966:2977   */\n  gt\n    /* \"#utility.yul\":2963:3409   */\n  iszero\n  tag_82\n  jumpi\n    /* \"#utility.yul\":3008:3046   */\n  tag_83\n    /* \"#utility.yul\":3040:3045   */\n  dup2\n    /* \"#utility.yul\":3008:3046   */\n  tag_30\n  jump\t// in\ntag_83:\n    /* \"#utility.yul\":3092:3121   */\n  tag_84\n    /* \"#utility.yul\":3110:3120   */\n  dup5\n    /* \"#utility.yul\":3092:3121   */\n  tag_31\n  jump\t// in\ntag_84:\n    /* \"#utility.yul\":3082:3090   */\n  dup2\n    /* \"#utility.yul\":3078:3122   */\n  add\n    /* \"#utility.yul\":3275:3277   */\n  0x20\n    /* \"#utility.yul\":3263:3273   */\n  dup6\n    /* \"#utility.yul\":3260:3278   */\n  lt\n    /* \"#utility.yul\":3257:3306   */\n  iszero\n  tag_85\n  jumpi\n    /* \"#utility.yul\":3296:3304   */\n  dup2\n    /* \"#utility.yul\":3281:3304   */\n  swap1\n  pop\n    /* \"#utility.yul\":3257:3306   */\ntag_85:\n    /* \"#utility.yul\":3319:3399   */\n  tag_86\n    /* \"#utility.yul\":3375:3397   */\n  tag_87\n    /* \"#utility.yul\":3393:3396   */\n  dup6\n    /* \"#utility.yul\":3375:3397   */\n  tag_31\n  jump\t// in\ntag_87:\n    /* \"#utility.yul\":3365:3373   */\n  dup4\n    /* \"#utility.yul\":3361:3398   */\n  add\n    /* \"#utility.yul\":3348:3359   */\n  dup3\n    /* \"#utility.yul\":3319:3399   */\n  tag_41\n  jump\t// in\ntag_86:\n    /* \"#utility.yul\":2978:3409   */\n  pop\n  pop\n    /* \"#utility.yul\":2963:3409   */\ntag_82:\n    /* \"#utility.yul\":2873:3416   */\n  pop\n  pop\n  pop\n  jump\t// out\n    /* \"#utility.yul\":3422:3539   */\ntag_43:\n    /* \"#utility.yul\":3476:3484   */\n  0x00\n    /* \"#utility.yul\":3526:3531   */\n  dup3\n    /* \"#utility.yul\":3520:3524   */\n  dup3\n    /* \"#utility.yul\":3516:3532   */\n  shr\n    /* \"#utility.yul\":3495:3532   */\n  swap1\n  pop\n    /* \"#utility.yul\":3422:3539   */\n  swap3\n  swap2\n  pop\n  pop\n  jump\t// out\n    /* \"#utility.yul\":3545:3714   */\ntag_44:\n    /* \"#utility.yul\":3589:3595   */\n  0x00\n    /* \"#utility.yul\":3622:3673   */\n  tag_90\n    /* \"#utility.yul\":3670:3671   */\n  0x00\n    /* \"#utility.yul\":3666:3672   */\n  not\n    /* \"#utility.yul\":3658:3663   */\n  dup5\n    /* \"#utility.yul\":3655:3656   */\n  0x08\n    /* \"#utility.yul\":3651:3664   */\n  mul\n    /* \"#utility.yul\":3622:3673   */\n  tag_43\n  jump\t// in\ntag_90:\n    /* \"#utility.yul\":3618:3674   */\n  not\n    /* \"#utility.yul\":3703:3707   */\n  dup1\n    /* \"#utility.yul\":3697:3701   */\n  dup4\n    /* \"#utility.yul\":3693:3708   */\n  and\n    /* \"#utility.yul\":3683:3708   */\n  swap2\n  pop\n    /* \"#utility.yul\":3596:3714   */\n  pop\n    /* \"#utility.yul\":3545:3714   */\n  swap3\n  swap2\n  pop\n  pop\n  jump\t// out\n    /* \"#utility.yul\":3719:4014   */\ntag_45:\n    /* \"#utility.yul\":3795:3799   */\n  0x00\n    /* \"#utility.yul\":3941:3970   */\n  tag_92\n    /* \"#utility.yul\":3966:3969   */\n  dup4\n    /* \"#utility.yul\":3960:3964   */\n  dup4\n    /* \"#utility.yul\":3941:3970   */\n  tag_44\n  jump\t// in\ntag_92:\n    /* \"#utility.yul\":3933:3970   */\n  swap2\n  pop\n    /* \"#utility.yul\":4003:4006   */\n  dup3\n    /* \"#utility.yul\":4000:4001   */\n  0x02\n    /* \"#utility.yul\":3996:4007   */\n  mul\n    /* \"#utility.yul\":3990:3994   */\n  dup3\n    /* \"#utility.yul\":3987:4008   */\n  or\n    /* \"#utility.yul\":3979:4008   */\n  swap1\n  pop\n    /* \"#utility.yul\":3719:4014   */\n  swap3\n  swap2\n  pop\n  pop\n  jump\t// out\n    /* \"#utility.yul\":4019:5414   */\ntag_12:\n    /* \"#utility.yul\":4136:4173   */\n  tag_94\n    /* \"#utility.yul\":4169:4172   */\n  dup3\n    /* \"#utility.yul\":4136:4173   */\n  tag_27\n  jump\t// in\ntag_94:\n    /* \"#utility.yul\":4238:4256   */\n  0xffffffffffffffff\n    /* \"#utility.yul\":4230:4236   */\n  dup2\n    /* \"#utility.yul\":4227:4257   */\n  gt\n    /* \"#utility.yul\":4224:4280   */\n  iszero\n  tag_95\n  jumpi\n    /* \"#utility.yul\":4260:4278   */\n  tag_96\n  tag_28\n  jump\t// in\ntag_96:\n    /* \"#utility.yul\":4224:4280   */\ntag_95:\n    /* \"#utility.yul\":4304:4342   */\n  tag_97\n    /* \"#utility.yul\":4336:4340   */\n  dup3\n    /* \"#utility.yul\":4330:4341   */\n  sload\n    /* \"#utility.yul\":4304:4342   */\n  tag_20\n  jump\t// in\ntag_97:\n    /* \"#utility.yul\":4389:4456   */\n  tag_98\n    /* \"#utility.yul\":4449:4455   */\n  dup3\n    /* \"#utility.yul\":4441:4447   */\n  dup3\n    /* \"#utility.yul\":4435:4439   */\n  dup6\n    /* \"#utility.yul\":4389:4456   */\n  tag_42\n  jump\t// in\ntag_98:\n    /* \"#utility.yul\":4483:4484   */\n  0x00\n    /* \"#utility.yul\":4507:4511   */\n  0x20\n    /* \"#utility.yul\":4494:4511   */\n  swap1\n  pop\n    /* \"#utility.yul\":4539:4541   */\n  0x1f\n    /* \"#utility.yul\":4531:4537   */\n  dup4\n    /* \"#utility.yul\":4528:4542   */\n  gt\n    /* \"#utility.yul\":4556:4557   */\n  0x01\n    /* \"#utility.yul\":4551:5169   */\n  dup2\n  eq\n  tag_100\n  jumpi\n    /* \"#utility.yul\":5213:5214   */\n  0x00\n    /* \"#utility.yul\":5230:5236   */\n  dup5\n    /* \"#utility.yul\":5227:5304   */\n  iszero\n  tag_101\n  jumpi\n    /* \"#utility.yul\":5279:5288   */\n  dup3\n    /* \"#utility.yul\":5274:5277   */\n  dup8\n    /* \"#utility.yul\":5270:5289   */\n  add\n    /* \"#utility.yul\":5264:5290   */\n  mload\n    /* \"#utility.yul\":5255:5290   */\n  swap1\n  pop\n    /* \"#utility.yul\":5227:5304   */\ntag_101:\n    /* \"#utility.yul\":5330:5397   */\n  tag_102\n    /* \"#utility.yul\":5390:5396   */\n  dup6\n    /* \"#utility.yul\":5383:5388   */\n  dup3\n    /* \"#utility.yul\":5330:5397   */\n  tag_45\n  jump\t// in\ntag_102:\n    /* \"#utility.yul\":5324:5328   */\n  dup7\n    /* \"#utility.yul\":5317:5398   */\n  sstore\n    /* \"#utility.yul\":5186:5408   */\n  pop\n    /* \"#utility.yul\":4521:5408   */\n  jump(tag_99)\n    /* \"#utility.yul\":4551:5169   */\ntag_100:\n    /* \"#utility.yul\":4603:4607   */\n  0x1f\n    /* \"#utility.yul\":4599:4608   */\n  not\n    /* \"#utility.yul\":4591:4597   */\n  dup5\n    /* \"#utility.yul\":4587:4609   */\n  and\n    /* \"#utility.yul\":4637:4674   */\n  tag_103\n    /* \"#utility.yul\":4669:4673   */\n  dup7\n    /* \"#utility.yul\":4637:4674   */\n  tag_30\n  jump\t// in\ntag_103:\n    /* \"#utility.yul\":4696:4697   */\n  0x00\n    /* \"#utility.yul\":4710:4918   */\ntag_104:\n    /* \"#utility.yul\":4724:4731   */\n  dup3\n    /* \"#utility.yul\":4721:4722   */\n  dup2\n    /* \"#utility.yul\":4718:4732   */\n  lt\n    /* \"#utility.yul\":4710:4918   */\n  iszero\n  tag_106\n  jumpi\n    /* \"#utility.yul\":4803:4812   */\n  dup5\n    /* \"#utility.yul\":4798:4801   */\n  dup10\n    /* \"#utility.yul\":4794:4813   */\n  add\n    /* \"#utility.yul\":4788:4814   */\n  mload\n    /* \"#utility.yul\":4780:4786   */\n  dup3\n    /* \"#utility.yul\":4773:4815   */\n  sstore\n    /* \"#utility.yul\":4854:4855   */\n  0x01\n    /* \"#utility.yul\":4846:4852   */\n  dup3\n    /* \"#utility.yul\":4842:4856   */\n  add\n    /* \"#utility.yul\":4832:4856   */\n  swap2\n  pop\n    /* \"#utility.yul\":4901:4903   */\n  0x20\n    /* \"#utility.yul\":4890:4899   */\n  dup6\n    /* \"#utility.yul\":4886:4904   */\n  add\n    /* \"#utility.yul\":4873:4904   */\n  swap5\n  pop\n    /* \"#utility.yul\":4747:4751   */\n  0x20\n    /* \"#utility.yul\":4744:4745   */\n  dup2\n    /* \"#utility.yul\":4740:4752   */\n  add\n    /* \"#utility.yul\":4735:4752   */\n  swap1\n  pop\n    /* \"#utility.yul\":4710:4918   */\n  jump(tag_104)\ntag_106:\n    /* \"#utility.yul\":4946:4952   */\n  dup7\n    /* \"#utility.yul\":4937:4944   */\n  dup4\n    /* \"#utility.yul\":4934:4953   */\n  lt\n    /* \"#utility.yul\":4931:5110   */\n  iszero\n  tag_107\n  jumpi\n    /* \"#utility.yul\":5004:5013   */\n  dup5\n    /* \"#utility.yul\":4999:5002   */\n  dup10\n    /* \"#utility.yul\":4995:5014   */\n  add\n    /* \"#utility.yul\":4989:5015   */\n  mload\n    /* \"#utility.yul\":5047:5095   */\n  tag_108\n    /* \"#utility.yul\":5089:5093   */\n  0x1f\n    /* \"#utility.yul\":5081:5087   */\n  dup10\n    /* \"#utility.yul\":5077:5094   */\n  and\n    /* \"#utility.yul\":5066:5075   */\n  dup3\n    /* \"#utility.yul\":5047:5095   */\n  tag_44\n  jump\t// in\ntag_108:\n    /* \"#utility.yul\":5039:5045   */\n  dup4\n    /* \"#utility.yul\":5032:5096   */\n  sstore\n    /* \"#utility.yul\":4954:5110   */\n  pop\n    /* \"#utility.yul\":4931:5110   */\ntag_107:\n    /* \"#utility.yul\":5156:5157   */\n  0x01\n    /* \"#utility.yul\":5152:5153   */\n  0x02\n    /* \"#utility.yul\":5144:5150   */\n  dup9\n    /* \"#utility.yul\":5140:5154   */\n  mul\n    /* \"#utility.yul\":5136:5158   */\n  add\n    /* \"#utility.yul\":5130:5134   */\n  dup9\n    /* \"#utility.yul\":5123:5159   */\n  sstore\n    /* \"#utility.yul\":4558:5169   */\n  pop\n  pop\n  pop\n    /* \"#utility.yul\":4521:5408   */\ntag_99:\n  pop\n    /* \"#utility.yul\":4111:5414   */\n  pop\n  pop\n  pop\n    /* \"#utility.yul\":4019:5414   */\n  pop\n  pop\n  jump\t// out\n    /* \"contracts/Practice.sol\":60:1779  contract MyPractice {... */\ntag_7:\n  dataSize(sub_0)\n  dup1\n  dataOffset(sub_0)\n  0x00\n  codecopy\n  0x00\n  return\nstop\n\nsub_0: assembly {\n        /* \"contracts/Practice.sol\":60:1779  contract MyPractice {... */\n      mstore(0x40, 0x80)\n      callvalue\n      dup1\n      iszero\n      tag_1\n      jumpi\n      0x00\n      dup1\n      revert\n    tag_1:\n      pop\n      jumpi(tag_2, lt(calldatasize, 0x04))\n      shr(0xe0, calldataload(0x00))\n      dup1\n      0xb9c3428e\n      gt\n      tag_11\n      jumpi\n      dup1\n      0xb9c3428e\n      eq\n      tag_7\n      jumpi\n      dup1\n      0xbca9a5c5\n      eq\n      tag_8\n      jumpi\n      dup1\n      0xbf3300d4\n      eq\n      tag_9\n      jumpi\n      dup1\n      0xe8ac013e\n      eq\n      tag_10\n      jumpi\n      jump(tag_2)\n    tag_11:\n      dup1\n      0x21441be8\n      eq\n      tag_3\n      jumpi\n      dup1\n      0x284e3ebd\n      eq\n      tag_4\n      jumpi\n      dup1\n      0x2d2d03a6\n      eq\n      tag_5\n      jumpi\n      dup1\n      0x4739326b\n      eq\n      tag_6\n      jumpi\n    tag_2:\n      0x00\n      dup1\n      revert\n        /* \"contracts/Practice.sol\":1165:1207  mapping(string => string) public phoneBook */\n    tag_3:\n      tag_12\n      0x04\n      dup1\n      calldatasize\n      sub\n      dup2\n      add\n      swap1\n      tag_13\n      swap2\n      swap1\n      tag_14\n      jump\t// in\n    tag_13:\n      tag_15\n      jump\t// in\n    tag_12:\n      mload(0x40)\n      tag_16\n      swap2\n      swap1\n      tag_17\n      jump\t// in\n    tag_16:\n      mload(0x40)\n      dup1\n      swap2\n      sub\n      swap1\n      return\n        /* \"contracts/Practice.sol\":652:703  TrafficLight public currentLight = TrafficLight.Red */\n    tag_4:\n      tag_18\n      tag_19\n      jump\t// in\n    tag_18:\n      mload(0x40)\n      tag_20\n      swap2\n      swap1\n      tag_21\n      jump\t// in\n    tag_20:\n      mload(0x40)\n      dup1\n      swap2\n      sub\n      swap1\n      return\n        /* \"contracts/Practice.sol\":255:344  function addEmployee(string memory _name) public {... */\n    tag_5:\n      tag_22\n      0x04\n      dup1\n      calldatasize\n      sub\n      dup2\n      add\n      swap1\n      tag_23\n      swap2\n      swap1\n      tag_14\n      jump\t// in\n    tag_23:\n      tag_24\n      jump\t// in\n    tag_22:\n      stop\n        /* \"contracts/Practice.sol\":166:224  string [] public employees = [\"nathan\", \"mariam\", \"chris\"] */\n    tag_6:\n      tag_25\n      0x04\n      dup1\n      calldatasize\n      sub\n      dup2\n      add\n      swap1\n      tag_26\n      swap2\n      swap1\n      tag_27\n      jump\t// in\n    tag_26:\n      tag_28\n      jump\t// in\n    tag_25:\n      mload(0x40)\n      tag_29\n      swap2\n      swap1\n      tag_17\n      jump\t// in\n    tag_29:\n      mload(0x40)\n      dup1\n      swap2\n      sub\n      swap1\n      return\n        /* \"contracts/Practice.sol\":736:1049  function changeLight() public {... */\n    tag_7:\n      tag_30\n      tag_31\n      jump\t// in\n    tag_30:\n      stop\n        /* \"contracts/Practice.sol\":372:484  function getEmployee(uint _index) public view returns (string memory){... */\n    tag_8:\n      tag_32\n      0x04\n      dup1\n      calldatasize\n      sub\n      dup2\n      add\n      swap1\n      tag_33\n      swap2\n      swap1\n      tag_27\n      jump\t// in\n    tag_33:\n      tag_34\n      jump\t// in\n    tag_32:\n      mload(0x40)\n      tag_35\n      swap2\n      swap1\n      tag_17\n      jump\t// in\n    tag_35:\n      mload(0x40)\n      dup1\n      swap2\n      sub\n      swap1\n      return\n        /* \"contracts/Practice.sol\":1241:1357  function addNumber(string memory _name, string memory _number) public {... */\n    tag_9:\n      tag_36\n      0x04\n      dup1\n      calldatasize\n      sub\n      dup2\n      add\n      swap1\n      tag_37\n      swap2\n      swap1\n      tag_38\n      jump\t// in\n    tag_37:\n      tag_39\n      jump\t// in\n    tag_36:\n      stop\n        /* \"contracts/Practice.sol\":1396:1515  function getNumber(string memory _name) public view returns (string memory) {... */\n    tag_10:\n      tag_40\n      0x04\n      dup1\n      calldatasize\n      sub\n      dup2\n      add\n      swap1\n      tag_41\n      swap2\n      swap1\n      tag_14\n      jump\t// in\n    tag_41:\n      tag_42\n      jump\t// in\n    tag_40:\n      mload(0x40)\n      tag_43\n      swap2\n      swap1\n      tag_17\n      jump\t// in\n    tag_43:\n      mload(0x40)\n      dup1\n      swap2\n      sub\n      swap1\n      return\n        /* \"contracts/Practice.sol\":1165:1207  mapping(string => string) public phoneBook */\n    tag_15:\n      0x02\n      dup2\n      dup1\n      mload\n      0x20\n      dup2\n      add\n      dup3\n      add\n      dup1\n      mload\n      dup5\n      dup3\n      mstore\n      0x20\n      dup4\n      add\n      0x20\n      dup6\n      add\n      keccak256\n      dup2\n      dup4\n      mstore\n      dup1\n      swap6\n      pop\n      pop\n      pop\n      pop\n      pop\n      pop\n      0x00\n      swap2\n      pop\n      swap1\n      pop\n      dup1\n      sload\n      tag_44\n      swap1\n      tag_45\n      jump\t// in\n    tag_44:\n      dup1\n      0x1f\n      add\n      0x20\n      dup1\n      swap2\n      div\n      mul\n      0x20\n      add\n      mload(0x40)\n      swap1\n      dup2\n      add\n      0x40\n      mstore\n      dup1\n      swap3\n      swap2\n      swap1\n      dup2\n      dup2\n      mstore\n      0x20\n      add\n      dup3\n      dup1\n      sload\n      tag_46\n      swap1\n      tag_45\n      jump\t// in\n    tag_46:\n      dup1\n      iszero\n      tag_47\n      jumpi\n      dup1\n      0x1f\n      lt\n      tag_48\n      jumpi\n      0x0100\n      dup1\n      dup4\n      sload\n      div\n      mul\n      dup4\n      mstore\n      swap2\n      0x20\n      add\n      swap2\n      jump(tag_47)\n    tag_48:\n      dup3\n      add\n      swap2\n      swap1\n      0x00\n      mstore\n      keccak256(0x00, 0x20)\n      swap1\n    tag_49:\n      dup2\n      sload\n      dup2\n      mstore\n      swap1\n      0x01\n      add\n      swap1\n      0x20\n      add\n      dup1\n      dup4\n      gt\n      tag_49\n      jumpi\n      dup3\n      swap1\n      sub\n      0x1f\n      and\n      dup3\n      add\n      swap2\n    tag_47:\n      pop\n      pop\n      pop\n      pop\n      pop\n      dup2\n      jump\t// out\n        /* \"contracts/Practice.sol\":652:703  TrafficLight public currentLight = TrafficLight.Red */\n    tag_19:\n      0x01\n      0x00\n      swap1\n      sload\n      swap1\n      0x0100\n      exp\n      swap1\n      div\n      0xff\n      and\n      dup2\n      jump\t// out\n        /* \"contracts/Practice.sol\":255:344  function addEmployee(string memory _name) public {... */\n    tag_24:\n        /* \"contracts/Practice.sol\":315:324  employees */\n      0x00\n        /* \"contracts/Practice.sol\":330:335  _name */\n      dup2\n        /* \"contracts/Practice.sol\":315:336  employees.push(_name) */\n      swap1\n      dup1\n      0x01\n      dup2\n      sload\n      add\n      dup1\n      dup3\n      sstore\n      dup1\n      swap2\n      pop\n      pop\n      0x01\n      swap1\n      sub\n      swap1\n      0x00\n      mstore\n      keccak256(0x00, 0x20)\n      add\n      0x00\n      swap1\n      swap2\n      swap1\n      swap2\n      swap1\n      swap2\n      pop\n      swap1\n      dup2\n      tag_52\n      swap2\n      swap1\n      tag_53\n      jump\t// in\n    tag_52:\n      pop\n        /* \"contracts/Practice.sol\":255:344  function addEmployee(string memory _name) public {... */\n      pop\n      jump\t// out\n        /* \"contracts/Practice.sol\":166:224  string [] public employees = [\"nathan\", \"mariam\", \"chris\"] */\n    tag_28:\n      0x00\n      dup2\n      dup2\n      sload\n      dup2\n      lt\n      tag_54\n      jumpi\n      0x00\n      dup1\n      revert\n    tag_54:\n      swap1\n      0x00\n      mstore\n      keccak256(0x00, 0x20)\n      add\n      0x00\n      swap2\n      pop\n      swap1\n      pop\n      dup1\n      sload\n      tag_56\n      swap1\n      tag_45\n      jump\t// in\n    tag_56:\n      dup1\n      0x1f\n      add\n      0x20\n      dup1\n      swap2\n      div\n      mul\n      0x20\n      add\n      mload(0x40)\n      swap1\n      dup2\n      add\n      0x40\n      mstore\n      dup1\n      swap3\n      swap2\n      swap1\n      dup2\n      dup2\n      mstore\n      0x20\n      add\n      dup3\n      dup1\n      sload\n      tag_57\n      swap1\n      tag_45\n      jump\t// in\n    tag_57:\n      dup1\n      iszero\n      tag_58\n      jumpi\n      dup1\n      0x1f\n      lt\n      tag_59\n      jumpi\n      0x0100\n      dup1\n      dup4\n      sload\n      div\n      mul\n      dup4\n      mstore\n      swap2\n      0x20\n      add\n      swap2\n      jump(tag_58)\n    tag_59:\n      dup3\n      add\n      swap2\n      swap1\n      0x00\n      mstore\n      keccak256(0x00, 0x20)\n      swap1\n    tag_60:\n      dup2\n      sload\n      dup2\n      mstore\n      swap1\n      0x01\n      add\n      swap1\n      0x20\n      add\n      dup1\n      dup4\n      gt\n      tag_60\n      jumpi\n      dup3\n      swap1\n      sub\n      0x1f\n      and\n      dup3\n      add\n      swap2\n    tag_58:\n      pop\n      pop\n      pop\n      pop\n      pop\n      dup2\n      jump\t// out\n        /* \"contracts/Practice.sol\":736:1049  function changeLight() public {... */\n    tag_31:\n        /* \"contracts/Practice.sol\":797:813  TrafficLight.Red */\n      0x00\n        /* \"contracts/Practice.sol\":781:813  currentLight == TrafficLight.Red */\n      0x02\n      dup2\n      gt\n      iszero\n      tag_62\n      jumpi\n      tag_63\n      tag_64\n      jump\t// in\n    tag_63:\n    tag_62:\n        /* \"contracts/Practice.sol\":781:793  currentLight */\n      0x01\n      0x00\n      swap1\n      sload\n      swap1\n      0x0100\n      exp\n      swap1\n      div\n      0xff\n      and\n        /* \"contracts/Practice.sol\":781:813  currentLight == TrafficLight.Red */\n      0x02\n      dup2\n      gt\n      iszero\n      tag_65\n      jumpi\n      tag_66\n      tag_64\n      jump\t// in\n    tag_66:\n    tag_65:\n      sub\n        /* \"contracts/Practice.sol\":777:1042  if (currentLight == TrafficLight.Red) {... */\n      tag_67\n      jumpi\n        /* \"contracts/Practice.sol\":845:863  TrafficLight.Green */\n      0x02\n        /* \"contracts/Practice.sol\":830:842  currentLight */\n      0x01\n      0x00\n        /* \"contracts/Practice.sol\":830:863  currentLight = TrafficLight.Green */\n      0x0100\n      exp\n      dup2\n      sload\n      dup2\n      0xff\n      mul\n      not\n      and\n      swap1\n      dup4\n      0x02\n      dup2\n      gt\n      iszero\n      tag_68\n      jumpi\n      tag_69\n      tag_64\n      jump\t// in\n    tag_69:\n    tag_68:\n      mul\n      or\n      swap1\n      sstore\n      pop\n        /* \"contracts/Practice.sol\":777:1042  if (currentLight == TrafficLight.Red) {... */\n      jump(tag_70)\n    tag_67:\n        /* \"contracts/Practice.sol\":901:919  TrafficLight.Green */\n      0x02\n        /* \"contracts/Practice.sol\":885:919  currentLight == TrafficLight.Green */\n      dup1\n      dup2\n      gt\n      iszero\n      tag_71\n      jumpi\n      tag_72\n      tag_64\n      jump\t// in\n    tag_72:\n    tag_71:\n        /* \"contracts/Practice.sol\":885:897  currentLight */\n      0x01\n      0x00\n      swap1\n      sload\n      swap1\n      0x0100\n      exp\n      swap1\n      div\n      0xff\n      and\n        /* \"contracts/Practice.sol\":885:919  currentLight == TrafficLight.Green */\n      0x02\n      dup2\n      gt\n      iszero\n      tag_73\n      jumpi\n      tag_74\n      tag_64\n      jump\t// in\n    tag_74:\n    tag_73:\n      sub\n        /* \"contracts/Practice.sol\":881:1042  if (currentLight == TrafficLight.Green){... */\n      tag_75\n      jumpi\n        /* \"contracts/Practice.sol\":950:968  TrafficLight.Yello */\n      0x01\n        /* \"contracts/Practice.sol\":935:947  currentLight */\n      dup1\n      0x00\n        /* \"contracts/Practice.sol\":935:968  currentLight = TrafficLight.Yello */\n      0x0100\n      exp\n      dup2\n      sload\n      dup2\n      0xff\n      mul\n      not\n      and\n      swap1\n      dup4\n      0x02\n      dup2\n      gt\n      iszero\n      tag_76\n      jumpi\n      tag_77\n      tag_64\n      jump\t// in\n    tag_77:\n    tag_76:\n      mul\n      or\n      swap1\n      sstore\n      pop\n        /* \"contracts/Practice.sol\":881:1042  if (currentLight == TrafficLight.Green){... */\n      jump(tag_78)\n    tag_75:\n        /* \"contracts/Practice.sol\":1014:1030  TrafficLight.Red */\n      0x00\n        /* \"contracts/Practice.sol\":999:1011  currentLight */\n      0x01\n      0x00\n        /* \"contracts/Practice.sol\":999:1030  currentLight = TrafficLight.Red */\n      0x0100\n      exp\n      dup2\n      sload\n      dup2\n      0xff\n      mul\n      not\n      and\n      swap1\n      dup4\n      0x02\n      dup2\n      gt\n      iszero\n      tag_79\n      jumpi\n      tag_80\n      tag_64\n      jump\t// in\n    tag_80:\n    tag_79:\n      mul\n      or\n      swap1\n      sstore\n      pop\n        /* \"contracts/Practice.sol\":881:1042  if (currentLight == TrafficLight.Green){... */\n    tag_78:\n        /* \"contracts/Practice.sol\":777:1042  if (currentLight == TrafficLight.Red) {... */\n    tag_70:\n        /* \"contracts/Practice.sol\":736:1049  function changeLight() public {... */\n      jump\t// out\n        /* \"contracts/Practice.sol\":372:484  function getEmployee(uint _index) public view returns (string memory){... */\n    tag_34:\n        /* \"contracts/Practice.sol\":427:440  string memory */\n      0x60\n        /* \"contracts/Practice.sol\":459:468  employees */\n      0x00\n        /* \"contracts/Practice.sol\":469:475  _index */\n      dup3\n        /* \"contracts/Practice.sol\":459:476  employees[_index] */\n      dup2\n      sload\n      dup2\n      lt\n      tag_82\n      jumpi\n      tag_83\n      tag_84\n      jump\t// in\n    tag_83:\n    tag_82:\n      swap1\n      0x00\n      mstore\n      keccak256(0x00, 0x20)\n      add\n        /* \"contracts/Practice.sol\":452:476  return employees[_index] */\n      dup1\n      sload\n      tag_86\n      swap1\n      tag_45\n      jump\t// in\n    tag_86:\n      dup1\n      0x1f\n      add\n      0x20\n      dup1\n      swap2\n      div\n      mul\n      0x20\n      add\n      mload(0x40)\n      swap1\n      dup2\n      add\n      0x40\n      mstore\n      dup1\n      swap3\n      swap2\n      swap1\n      dup2\n      dup2\n      mstore\n      0x20\n      add\n      dup3\n      dup1\n      sload\n      tag_87\n      swap1\n      tag_45\n      jump\t// in\n    tag_87:\n      dup1\n      iszero\n      tag_88\n      jumpi\n      dup1\n      0x1f\n      lt\n      tag_89\n      jumpi\n      0x0100\n      dup1\n      dup4\n      sload\n      div\n      mul\n      dup4\n      mstore\n      swap2\n      0x20\n      add\n      swap2\n      jump(tag_88)\n    tag_89:\n      dup3\n      add\n      swap2\n      swap1\n      0x00\n      mstore\n      keccak256(0x00, 0x20)\n      swap1\n    tag_90:\n      dup2\n      sload\n      dup2\n      mstore\n      swap1\n      0x01\n      add\n      swap1\n      0x20\n      add\n      dup1\n      dup4\n      gt\n      tag_90\n      jumpi\n      dup3\n      swap1\n      sub\n      0x1f\n      and\n      dup3\n      add\n      swap2\n    tag_88:\n      pop\n      pop\n      pop\n      pop\n      pop\n      swap1\n      pop\n        /* \"contracts/Practice.sol\":372:484  function getEmployee(uint _index) public view returns (string memory){... */\n      swap2\n      swap1\n      pop\n      jump\t// out\n        /* \"contracts/Practice.sol\":1241:1357  function addNumber(string memory _name, string memory _number) public {... */\n    tag_39:\n        /* \"contracts/Practice.sol\":1341:1348  _number */\n      dup1\n        /* \"contracts/Practice.sol\":1322:1331  phoneBook */\n      0x02\n        /* \"contracts/Practice.sol\":1332:1337  _name */\n      dup4\n        /* \"contracts/Practice.sol\":1322:1338  phoneBook[_name] */\n      mload(0x40)\n      tag_92\n      swap2\n      swap1\n      tag_93\n      jump\t// in\n    tag_92:\n      swap1\n      dup2\n      mstore\n      0x20\n      add\n      mload(0x40)\n      dup1\n      swap2\n      sub\n      swap1\n      keccak256\n        /* \"contracts/Practice.sol\":1322:1348  phoneBook[_name] = _number */\n      swap1\n      dup2\n      tag_94\n      swap2\n      swap1\n      tag_53\n      jump\t// in\n    tag_94:\n      pop\n        /* \"contracts/Practice.sol\":1241:1357  function addNumber(string memory _name, string memory _number) public {... */\n      pop\n      pop\n      jump\t// out\n        /* \"contracts/Practice.sol\":1396:1515  function getNumber(string memory _name) public view returns (string memory) {... */\n    tag_42:\n        /* \"contracts/Practice.sol\":1457:1470  string memory */\n      0x60\n        /* \"contracts/Practice.sol\":1490:1499  phoneBook */\n      0x02\n        /* \"contracts/Practice.sol\":1500:1505  _name */\n      dup3\n        /* \"contracts/Practice.sol\":1490:1506  phoneBook[_name] */\n      mload(0x40)\n      tag_96\n      swap2\n      swap1\n      tag_93\n      jump\t// in\n    tag_96:\n      swap1\n      dup2\n      mstore\n      0x20\n      add\n      mload(0x40)\n      dup1\n      swap2\n      sub\n      swap1\n      keccak256\n        /* \"contracts/Practice.sol\":1483:1506  return phoneBook[_name] */\n      dup1\n      sload\n      tag_97\n      swap1\n      tag_45\n      jump\t// in\n    tag_97:\n      dup1\n      0x1f\n      add\n      0x20\n      dup1\n      swap2\n      div\n      mul\n      0x20\n      add\n      mload(0x40)\n      swap1\n      dup2\n      add\n      0x40\n      mstore\n      dup1\n      swap3\n      swap2\n      swap1\n      dup2\n      dup2\n      mstore\n      0x20\n      add\n      dup3\n      dup1\n      sload\n      tag_98\n      swap1\n      tag_45\n      jump\t// in\n    tag_98:\n      dup1\n      iszero\n      tag_99\n      jumpi\n      dup1\n      0x1f\n      lt\n      tag_100\n      jumpi\n      0x0100\n      dup1\n      dup4\n      sload\n      div\n      mul\n      dup4\n      mstore\n      swap2\n      0x20\n      add\n      swap2\n      jump(tag_99)\n    tag_100:\n      dup3\n      add\n      swap2\n      swap1\n      0x00\n      mstore\n      keccak256(0x00, 0x20)\n      swap1\n    tag_101:\n      dup2\n      sload\n      dup2\n      mstore\n      swap1\n      0x01\n      add\n      swap1\n      0x20\n      add\n      dup1\n      dup4\n      gt\n      tag_101\n      jumpi\n      dup3\n      swap1\n      sub\n      0x1f\n      and\n      dup3\n      add\n      swap2\n    tag_99:\n      pop\n      pop\n      pop\n      pop\n      pop\n      swap1\n      pop\n        /* \"contracts/Practice.sol\":1396:1515  function getNumber(string memory _name) public view returns (string memory) {... */\n      swap2\n      swap1\n      pop\n      jump\t// out\n        /* \"#utility.yul\":7:82   */\n    tag_102:\n        /* \"#utility.yul\":40:46   */\n      0x00\n        /* \"#utility.yul\":73:75   */\n      0x40\n        /* \"#utility.yul\":67:76   */\n      mload\n        /* \"#utility.yul\":57:76   */\n      swap1\n      pop\n        /* \"#utility.yul\":7:82   */\n      swap1\n      jump\t// out\n        /* \"#utility.yul\":88:205   */\n    tag_103:\n        /* \"#utility.yul\":197:198   */\n      0x00\n        /* \"#utility.yul\":194:195   */\n      dup1\n        /* \"#utility.yul\":187:199   */\n      revert\n        /* \"#utility.yul\":211:328   */\n    tag_104:\n        /* \"#utility.yul\":320:321   */\n      0x00\n        /* \"#utility.yul\":317:318   */\n      dup1\n        /* \"#utility.yul\":310:322   */\n      revert\n        /* \"#utility.yul\":334:451   */\n    tag_105:\n        /* \"#utility.yul\":443:444   */\n      0x00\n        /* \"#utility.yul\":440:441   */\n      dup1\n        /* \"#utility.yul\":433:445   */\n      revert\n        /* \"#utility.yul\":457:574   */\n    tag_106:\n        /* \"#utility.yul\":566:567   */\n      0x00\n        /* \"#utility.yul\":563:564   */\n      dup1\n        /* \"#utility.yul\":556:568   */\n      revert\n        /* \"#utility.yul\":580:682   */\n    tag_107:\n        /* \"#utility.yul\":621:627   */\n      0x00\n        /* \"#utility.yul\":672:674   */\n      0x1f\n        /* \"#utility.yul\":668:675   */\n      not\n        /* \"#utility.yul\":663:665   */\n      0x1f\n        /* \"#utility.yul\":656:661   */\n      dup4\n        /* \"#utility.yul\":652:666   */\n      add\n        /* \"#utility.yul\":648:676   */\n      and\n        /* \"#utility.yul\":638:676   */\n      swap1\n      pop\n        /* \"#utility.yul\":580:682   */\n      swap2\n      swap1\n      pop\n      jump\t// out\n        /* \"#utility.yul\":688:868   */\n    tag_108:\n        /* \"#utility.yul\":736:813   */\n      0x4e487b7100000000000000000000000000000000000000000000000000000000\n        /* \"#utility.yul\":733:734   */\n      0x00\n        /* \"#utility.yul\":726:814   */\n      mstore\n        /* \"#utility.yul\":833:837   */\n      0x41\n        /* \"#utility.yul\":830:831   */\n      0x04\n        /* \"#utility.yul\":823:838   */\n      mstore\n        /* \"#utility.yul\":857:861   */\n      0x24\n        /* \"#utility.yul\":854:855   */\n      0x00\n        /* \"#utility.yul\":847:862   */\n      revert\n        /* \"#utility.yul\":874:1155   */\n    tag_109:\n        /* \"#utility.yul\":957:984   */\n      tag_153\n        /* \"#utility.yul\":979:983   */\n      dup3\n        /* \"#utility.yul\":957:984   */\n      tag_107\n      jump\t// in\n    tag_153:\n        /* \"#utility.yul\":949:955   */\n      dup2\n        /* \"#utility.yul\":945:985   */\n      add\n        /* \"#utility.yul\":1087:1093   */\n      dup2\n        /* \"#utility.yul\":1075:1085   */\n      dup2\n        /* \"#utility.yul\":1072:1094   */\n      lt\n        /* \"#utility.yul\":1051:1069   */\n      0xffffffffffffffff\n        /* \"#utility.yul\":1039:1049   */\n      dup3\n        /* \"#utility.yul\":1036:1070   */\n      gt\n        /* \"#utility.yul\":1033:1095   */\n      or\n        /* \"#utility.yul\":1030:1118   */\n      iszero\n      tag_154\n      jumpi\n        /* \"#utility.yul\":1098:1116   */\n      tag_155\n      tag_108\n      jump\t// in\n    tag_155:\n        /* \"#utility.yul\":1030:1118   */\n    tag_154:\n        /* \"#utility.yul\":1138:1148   */\n      dup1\n        /* \"#utility.yul\":1134:1136   */\n      0x40\n        /* \"#utility.yul\":1127:1149   */\n      mstore\n        /* \"#utility.yul\":917:1155   */\n      pop\n        /* \"#utility.yul\":874:1155   */\n      pop\n      pop\n      jump\t// out\n        /* \"#utility.yul\":1161:1290   */\n    tag_110:\n        /* \"#utility.yul\":1195:1201   */\n      0x00\n        /* \"#utility.yul\":1222:1242   */\n      tag_157\n      tag_102\n      jump\t// in\n    tag_157:\n        /* \"#utility.yul\":1212:1242   */\n      swap1\n      pop\n        /* \"#utility.yul\":1251:1284   */\n      tag_158\n        /* \"#utility.yul\":1279:1283   */\n      dup3\n        /* \"#utility.yul\":1271:1277   */\n      dup3\n        /* \"#utility.yul\":1251:1284   */\n      tag_109\n      jump\t// in\n    tag_158:\n        /* \"#utility.yul\":1161:1290   */\n      swap2\n      swap1\n      pop\n      jump\t// out\n        /* \"#utility.yul\":1296:1604   */\n    tag_111:\n        /* \"#utility.yul\":1358:1362   */\n      0x00\n        /* \"#utility.yul\":1448:1466   */\n      0xffffffffffffffff\n        /* \"#utility.yul\":1440:1446   */\n      dup3\n        /* \"#utility.yul\":1437:1467   */\n      gt\n        /* \"#utility.yul\":1434:1490   */\n      iszero\n      tag_160\n      jumpi\n        /* \"#utility.yul\":1470:1488   */\n      tag_161\n      tag_108\n      jump\t// in\n    tag_161:\n        /* \"#utility.yul\":1434:1490   */\n    tag_160:\n        /* \"#utility.yul\":1508:1537   */\n      tag_162\n        /* \"#utility.yul\":1530:1536   */\n      dup3\n        /* \"#utility.yul\":1508:1537   */\n      tag_107\n      jump\t// in\n    tag_162:\n        /* \"#utility.yul\":1500:1537   */\n      swap1\n      pop\n        /* \"#utility.yul\":1592:1596   */\n      0x20\n        /* \"#utility.yul\":1586:1590   */\n      dup2\n        /* \"#utility.yul\":1582:1597   */\n      add\n        /* \"#utility.yul\":1574:1597   */\n      swap1\n      pop\n        /* \"#utility.yul\":1296:1604   */\n      swap2\n      swap1\n      pop\n      jump\t// out\n        /* \"#utility.yul\":1610:1758   */\n    tag_112:\n        /* \"#utility.yul\":1708:1714   */\n      dup3\n        /* \"#utility.yul\":1703:1706   */\n      dup2\n        /* \"#utility.yul\":1698:1701   */\n      dup4\n        /* \"#utility.yul\":1685:1715   */\n      calldatacopy\n        /* \"#utility.yul\":1749:1750   */\n      0x00\n        /* \"#utility.yul\":1740:1746   */\n      dup4\n        /* \"#utility.yul\":1735:1738   */\n      dup4\n        /* \"#utility.yul\":1731:1747   */\n      add\n        /* \"#utility.yul\":1724:1751   */\n      mstore\n        /* \"#utility.yul\":1610:1758   */\n      pop\n      pop\n      pop\n      jump\t// out\n        /* \"#utility.yul\":1764:2189   */\n    tag_113:\n        /* \"#utility.yul\":1842:1847   */\n      0x00\n        /* \"#utility.yul\":1867:1933   */\n      tag_165\n        /* \"#utility.yul\":1883:1932   */\n      tag_166\n        /* \"#utility.yul\":1925:1931   */\n      dup5\n        /* \"#utility.yul\":1883:1932   */\n      tag_111\n      jump\t// in\n    tag_166:\n        /* \"#utility.yul\":1867:1933   */\n      tag_110\n      jump\t// in\n    tag_165:\n        /* \"#utility.yul\":1858:1933   */\n      swap1\n      pop\n        /* \"#utility.yul\":1956:1962   */\n      dup3\n        /* \"#utility.yul\":1949:1954   */\n      dup2\n        /* \"#utility.yul\":1942:1963   */\n      mstore\n        /* \"#utility.yul\":1994:1998   */\n      0x20\n        /* \"#utility.yul\":1987:1992   */\n      dup2\n        /* \"#utility.yul\":1983:1999   */\n      add\n        /* \"#utility.yul\":2032:2035   */\n      dup5\n        /* \"#utility.yul\":2023:2029   */\n      dup5\n        /* \"#utility.yul\":2018:2021   */\n      dup5\n        /* \"#utility.yul\":2014:2030   */\n      add\n        /* \"#utility.yul\":2011:2036   */\n      gt\n        /* \"#utility.yul\":2008:2120   */\n      iszero\n      tag_167\n      jumpi\n        /* \"#utility.yul\":2039:2118   */\n      tag_168\n      tag_106\n      jump\t// in\n    tag_168:\n        /* \"#utility.yul\":2008:2120   */\n    tag_167:\n        /* \"#utility.yul\":2129:2183   */\n      tag_169\n        /* \"#utility.yul\":2176:2182   */\n      dup5\n        /* \"#utility.yul\":2171:2174   */\n      dup3\n        /* \"#utility.yul\":2166:2169   */\n      dup6\n        /* \"#utility.yul\":2129:2183   */\n      tag_112\n      jump\t// in\n    tag_169:\n        /* \"#utility.yul\":1848:2189   */\n      pop\n        /* \"#utility.yul\":1764:2189   */\n      swap4\n      swap3\n      pop\n      pop\n      pop\n      jump\t// out\n        /* \"#utility.yul\":2209:2549   */\n    tag_114:\n        /* \"#utility.yul\":2265:2270   */\n      0x00\n        /* \"#utility.yul\":2314:2317   */\n      dup3\n        /* \"#utility.yul\":2307:2311   */\n      0x1f\n        /* \"#utility.yul\":2299:2305   */\n      dup4\n        /* \"#utility.yul\":2295:2312   */\n      add\n        /* \"#utility.yul\":2291:2318   */\n      slt\n        /* \"#utility.yul\":2281:2403   */\n      tag_171\n      jumpi\n        /* \"#utility.yul\":2322:2401   */\n      tag_172\n      tag_105\n      jump\t// in\n    tag_172:\n        /* \"#utility.yul\":2281:2403   */\n    tag_171:\n        /* \"#utility.yul\":2439:2445   */\n      dup2\n        /* \"#utility.yul\":2426:2446   */\n      calldataload\n        /* \"#utility.yul\":2464:2543   */\n      tag_173\n        /* \"#utility.yul\":2539:2542   */\n      dup5\n        /* \"#utility.yul\":2531:2537   */\n      dup3\n        /* \"#utility.yul\":2524:2528   */\n      0x20\n        /* \"#utility.yul\":2516:2522   */\n      dup7\n        /* \"#utility.yul\":2512:2529   */\n      add\n        /* \"#utility.yul\":2464:2543   */\n      tag_113\n      jump\t// in\n    tag_173:\n        /* \"#utility.yul\":2455:2543   */\n      swap2\n      pop\n        /* \"#utility.yul\":2271:2549   */\n      pop\n        /* \"#utility.yul\":2209:2549   */\n      swap3\n      swap2\n      pop\n      pop\n      jump\t// out\n        /* \"#utility.yul\":2555:3064   */\n    tag_14:\n        /* \"#utility.yul\":2624:2630   */\n      0x00\n        /* \"#utility.yul\":2673:2675   */\n      0x20\n        /* \"#utility.yul\":2661:2670   */\n      dup3\n        /* \"#utility.yul\":2652:2659   */\n      dup5\n        /* \"#utility.yul\":2648:2671   */\n      sub\n        /* \"#utility.yul\":2644:2676   */\n      slt\n        /* \"#utility.yul\":2641:2760   */\n      iszero\n      tag_175\n      jumpi\n        /* \"#utility.yul\":2679:2758   */\n      tag_176\n      tag_103\n      jump\t// in\n    tag_176:\n        /* \"#utility.yul\":2641:2760   */\n    tag_175:\n        /* \"#utility.yul\":2827:2828   */\n      0x00\n        /* \"#utility.yul\":2816:2825   */\n      dup3\n        /* \"#utility.yul\":2812:2829   */\n      add\n        /* \"#utility.yul\":2799:2830   */\n      calldataload\n        /* \"#utility.yul\":2857:2875   */\n      0xffffffffffffffff\n        /* \"#utility.yul\":2849:2855   */\n      dup2\n        /* \"#utility.yul\":2846:2876   */\n      gt\n        /* \"#utility.yul\":2843:2960   */\n      iszero\n      tag_177\n      jumpi\n        /* \"#utility.yul\":2879:2958   */\n      tag_178\n      tag_104\n      jump\t// in\n    tag_178:\n        /* \"#utility.yul\":2843:2960   */\n    tag_177:\n        /* \"#utility.yul\":2984:3047   */\n      tag_179\n        /* \"#utility.yul\":3039:3046   */\n      dup5\n        /* \"#utility.yul\":3030:3036   */\n      dup3\n        /* \"#utility.yul\":3019:3028   */\n      dup6\n        /* \"#utility.yul\":3015:3037   */\n      add\n        /* \"#utility.yul\":2984:3047   */\n      tag_114\n      jump\t// in\n    tag_179:\n        /* \"#utility.yul\":2974:3047   */\n      swap2\n      pop\n        /* \"#utility.yul\":2770:3057   */\n      pop\n        /* \"#utility.yul\":2555:3064   */\n      swap3\n      swap2\n      pop\n      pop\n      jump\t// out\n        /* \"#utility.yul\":3070:3169   */\n    tag_115:\n        /* \"#utility.yul\":3122:3128   */\n      0x00\n        /* \"#utility.yul\":3156:3161   */\n      dup2\n        /* \"#utility.yul\":3150:3162   */\n      mload\n        /* \"#utility.yul\":3140:3162   */\n      swap1\n      pop\n        /* \"#utility.yul\":3070:3169   */\n      swap2\n      swap1\n      pop\n      jump\t// out\n        /* \"#utility.yul\":3175:3344   */\n    tag_116:\n        /* \"#utility.yul\":3259:3270   */\n      0x00\n        /* \"#utility.yul\":3293:3299   */\n      dup3\n        /* \"#utility.yul\":3288:3291   */\n      dup3\n        /* \"#utility.yul\":3281:3300   */\n      mstore\n        /* \"#utility.yul\":3333:3337   */\n      0x20\n        /* \"#utility.yul\":3328:3331   */\n      dup3\n        /* \"#utility.yul\":3324:3338   */\n      add\n        /* \"#utility.yul\":3309:3338   */\n      swap1\n      pop\n        /* \"#utility.yul\":3175:3344   */\n      swap3\n      swap2\n      pop\n      pop\n      jump\t// out\n        /* \"#utility.yul\":3350:3489   */\n    tag_117:\n        /* \"#utility.yul\":3439:3445   */\n      dup3\n        /* \"#utility.yul\":3434:3437   */\n      dup2\n        /* \"#utility.yul\":3429:3432   */\n      dup4\n        /* \"#utility.yul\":3423:3446   */\n      mcopy\n        /* \"#utility.yul\":3480:3481   */\n      0x00\n        /* \"#utility.yul\":3471:3477   */\n      dup4\n        /* \"#utility.yul\":3466:3469   */\n      dup4\n        /* \"#utility.yul\":3462:3478   */\n      add\n        /* \"#utility.yul\":3455:3482   */\n      mstore\n        /* \"#utility.yul\":3350:3489   */\n      pop\n      pop\n      pop\n      jump\t// out\n        /* \"#utility.yul\":3495:3872   */\n    tag_118:\n        /* \"#utility.yul\":3583:3586   */\n      0x00\n        /* \"#utility.yul\":3611:3650   */\n      tag_184\n        /* \"#utility.yul\":3644:3649   */\n      dup3\n        /* \"#utility.yul\":3611:3650   */\n      tag_115\n      jump\t// in\n    tag_184:\n        /* \"#utility.yul\":3666:3737   */\n      tag_185\n        /* \"#utility.yul\":3730:3736   */\n      dup2\n        /* \"#utility.yul\":3725:3728   */\n      dup6\n        /* \"#utility.yul\":3666:3737   */\n      tag_116\n      jump\t// in\n    tag_185:\n        /* \"#utility.yul\":3659:3737   */\n      swap4\n      pop\n        /* \"#utility.yul\":3746:3811   */\n      tag_186\n        /* \"#utility.yul\":3804:3810   */\n      dup2\n        /* \"#utility.yul\":3799:3802   */\n      dup6\n        /* \"#utility.yul\":3792:3796   */\n      0x20\n        /* \"#utility.yul\":3785:3790   */\n      dup7\n        /* \"#utility.yul\":3781:3797   */\n      add\n        /* \"#utility.yul\":3746:3811   */\n      tag_117\n      jump\t// in\n    tag_186:\n        /* \"#utility.yul\":3836:3865   */\n      tag_187\n        /* \"#utility.yul\":3858:3864   */\n      dup2\n        /* \"#utility.yul\":3836:3865   */\n      tag_107\n      jump\t// in\n    tag_187:\n        /* \"#utility.yul\":3831:3834   */\n      dup5\n        /* \"#utility.yul\":3827:3866   */\n      add\n        /* \"#utility.yul\":3820:3866   */\n      swap2\n      pop\n        /* \"#utility.yul\":3587:3872   */\n      pop\n        /* \"#utility.yul\":3495:3872   */\n      swap3\n      swap2\n      pop\n      pop\n      jump\t// out\n        /* \"#utility.yul\":3878:4191   */\n    tag_17:\n        /* \"#utility.yul\":3991:3995   */\n      0x00\n        /* \"#utility.yul\":4029:4031   */\n      0x20\n        /* \"#utility.yul\":4018:4027   */\n      dup3\n        /* \"#utility.yul\":4014:4032   */\n      add\n        /* \"#utility.yul\":4006:4032   */\n      swap1\n      pop\n        /* \"#utility.yul\":4078:4087   */\n      dup2\n        /* \"#utility.yul\":4072:4076   */\n      dup2\n        /* \"#utility.yul\":4068:4088   */\n      sub\n        /* \"#utility.yul\":4064:4065   */\n      0x00\n        /* \"#utility.yul\":4053:4062   */\n      dup4\n        /* \"#utility.yul\":4049:4066   */\n      add\n        /* \"#utility.yul\":4042:4089   */\n      mstore\n        /* \"#utility.yul\":4106:4184   */\n      tag_189\n        /* \"#utility.yul\":4179:4183   */\n      dup2\n        /* \"#utility.yul\":4170:4176   */\n      dup5\n        /* \"#utility.yul\":4106:4184   */\n      tag_118\n      jump\t// in\n    tag_189:\n        /* \"#utility.yul\":4098:4184   */\n      swap1\n      pop\n        /* \"#utility.yul\":3878:4191   */\n      swap3\n      swap2\n      pop\n      pop\n      jump\t// out\n        /* \"#utility.yul\":4197:4377   */\n    tag_64:\n        /* \"#utility.yul\":4245:4322   */\n      0x4e487b7100000000000000000000000000000000000000000000000000000000\n        /* \"#utility.yul\":4242:4243   */\n      0x00\n        /* \"#utility.yul\":4235:4323   */\n      mstore\n        /* \"#utility.yul\":4342:4346   */\n      0x21\n        /* \"#utility.yul\":4339:4340   */\n      0x04\n        /* \"#utility.yul\":4332:4347   */\n      mstore\n        /* \"#utility.yul\":4366:4370   */\n      0x24\n        /* \"#utility.yul\":4363:4364   */\n      0x00\n        /* \"#utility.yul\":4356:4371   */\n      revert\n        /* \"#utility.yul\":4383:4503   */\n    tag_119:\n        /* \"#utility.yul\":4471:4472   */\n      0x03\n        /* \"#utility.yul\":4464:4469   */\n      dup2\n        /* \"#utility.yul\":4461:4473   */\n      lt\n        /* \"#utility.yul\":4451:4497   */\n      tag_192\n      jumpi\n        /* \"#utility.yul\":4477:4495   */\n      tag_193\n      tag_64\n      jump\t// in\n    tag_193:\n        /* \"#utility.yul\":4451:4497   */\n    tag_192:\n        /* \"#utility.yul\":4383:4503   */\n      pop\n      jump\t// out\n        /* \"#utility.yul\":4509:4650   */\n    tag_120:\n        /* \"#utility.yul\":4561:4568   */\n      0x00\n        /* \"#utility.yul\":4590:4595   */\n      dup2\n        /* \"#utility.yul\":4579:4595   */\n      swap1\n      pop\n        /* \"#utility.yul\":4596:4644   */\n      tag_195\n        /* \"#utility.yul\":4638:4643   */\n      dup3\n        /* \"#utility.yul\":4596:4644   */\n      tag_119\n      jump\t// in\n    tag_195:\n        /* \"#utility.yul\":4509:4650   */\n      swap2\n      swap1\n      pop\n      jump\t// out\n        /* \"#utility.yul\":4656:4797   */\n    tag_121:\n        /* \"#utility.yul\":4719:4728   */\n      0x00\n        /* \"#utility.yul\":4752:4791   */\n      tag_197\n        /* \"#utility.yul\":4785:4790   */\n      dup3\n        /* \"#utility.yul\":4752:4791   */\n      tag_120\n      jump\t// in\n    tag_197:\n        /* \"#utility.yul\":4739:4791   */\n      swap1\n      pop\n        /* \"#utility.yul\":4656:4797   */\n      swap2\n      swap1\n      pop\n      jump\t// out\n        /* \"#utility.yul\":4803:4960   */\n    tag_122:\n        /* \"#utility.yul\":4903:4953   */\n      tag_199\n        /* \"#utility.yul\":4947:4952   */\n      dup2\n        /* \"#utility.yul\":4903:4953   */\n      tag_121\n      jump\t// in\n    tag_199:\n        /* \"#utility.yul\":4898:4901   */\n      dup3\n        /* \"#utility.yul\":4891:4954   */\n      mstore\n        /* \"#utility.yul\":4803:4960   */\n      pop\n      pop\n      jump\t// out\n        /* \"#utility.yul\":4966:5214   */\n    tag_21:\n        /* \"#utility.yul\":5072:5076   */\n      0x00\n        /* \"#utility.yul\":5110:5112   */\n      0x20\n        /* \"#utility.yul\":5099:5108   */\n      dup3\n        /* \"#utility.yul\":5095:5113   */\n      add\n        /* \"#utility.yul\":5087:5113   */\n      swap1\n      pop\n        /* \"#utility.yul\":5123:5207   */\n      tag_201\n        /* \"#utility.yul\":5204:5205   */\n      0x00\n        /* \"#utility.yul\":5193:5202   */\n      dup4\n        /* \"#utility.yul\":5189:5206   */\n      add\n        /* \"#utility.yul\":5180:5186   */\n      dup5\n        /* \"#utility.yul\":5123:5207   */\n      tag_122\n      jump\t// in\n    tag_201:\n        /* \"#utility.yul\":4966:5214   */\n      swap3\n      swap2\n      pop\n      pop\n      jump\t// out\n        /* \"#utility.yul\":5220:5297   */\n    tag_123:\n        /* \"#utility.yul\":5257:5264   */\n      0x00\n        /* \"#utility.yul\":5286:5291   */\n      dup2\n        /* \"#utility.yul\":5275:5291   */\n      swap1\n      pop\n        /* \"#utility.yul\":5220:5297   */\n      swap2\n      swap1\n      pop\n      jump\t// out\n        /* \"#utility.yul\":5303:5425   */\n    tag_124:\n        /* \"#utility.yul\":5376:5400   */\n      tag_204\n        /* \"#utility.yul\":5394:5399   */\n      dup2\n        /* \"#utility.yul\":5376:5400   */\n      tag_123\n      jump\t// in\n    tag_204:\n        /* \"#utility.yul\":5369:5374   */\n      dup2\n        /* \"#utility.yul\":5366:5401   */\n      eq\n        /* \"#utility.yul\":5356:5419   */\n      tag_205\n      jumpi\n        /* \"#utility.yul\":5415:5416   */\n      0x00\n        /* \"#utility.yul\":5412:5413   */\n      dup1\n        /* \"#utility.yul\":5405:5417   */\n      revert\n        /* \"#utility.yul\":5356:5419   */\n    tag_205:\n        /* \"#utility.yul\":5303:5425   */\n      pop\n      jump\t// out\n        /* \"#utility.yul\":5431:5570   */\n    tag_125:\n        /* \"#utility.yul\":5477:5482   */\n      0x00\n        /* \"#utility.yul\":5515:5521   */\n      dup2\n        /* \"#utility.yul\":5502:5522   */\n      calldataload\n        /* \"#utility.yul\":5493:5522   */\n      swap1\n      pop\n        /* \"#utility.yul\":5531:5564   */\n      tag_207\n        /* \"#utility.yul\":5558:5563   */\n      dup2\n        /* \"#utility.yul\":5531:5564   */\n      tag_124\n      jump\t// in\n    tag_207:\n        /* \"#utility.yul\":5431:5570   */\n      swap3\n      swap2\n      pop\n      pop\n      jump\t// out\n        /* \"#utility.yul\":5576:5905   */\n    tag_27:\n        /* \"#utility.yul\":5635:5641   */\n      0x00\n        /* \"#utility.yul\":5684:5686   */\n      0x20\n        /* \"#utility.yul\":5672:5681   */\n      dup3\n        /* \"#utility.yul\":5663:5670   */\n      dup5\n        /* \"#utility.yul\":5659:5682   */\n      sub\n        /* \"#utility.yul\":5655:5687   */\n      slt\n        /* \"#utility.yul\":5652:5771   */\n      iszero\n      tag_209\n      jumpi\n        /* \"#utility.yul\":5690:5769   */\n      tag_210\n      tag_103\n      jump\t// in\n    tag_210:\n        /* \"#utility.yul\":5652:5771   */\n    tag_209:\n        /* \"#utility.yul\":5810:5811   */\n      0x00\n        /* \"#utility.yul\":5835:5888   */\n      tag_211\n        /* \"#utility.yul\":5880:5887   */\n      dup5\n        /* \"#utility.yul\":5871:5877   */\n      dup3\n        /* \"#utility.yul\":5860:5869   */\n      dup6\n        /* \"#utility.yul\":5856:5878   */\n      add\n        /* \"#utility.yul\":5835:5888   */\n      tag_125\n      jump\t// in\n    tag_211:\n        /* \"#utility.yul\":5825:5888   */\n      swap2\n      pop\n        /* \"#utility.yul\":5781:5898   */\n      pop\n        /* \"#utility.yul\":5576:5905   */\n      swap3\n      swap2\n      pop\n      pop\n      jump\t// out\n        /* \"#utility.yul\":5911:6745   */\n    tag_38:\n        /* \"#utility.yul\":5999:6005   */\n      0x00\n        /* \"#utility.yul\":6007:6013   */\n      dup1\n        /* \"#utility.yul\":6056:6058   */\n      0x40\n        /* \"#utility.yul\":6044:6053   */\n      dup4\n        /* \"#utility.yul\":6035:6042   */\n      dup6\n        /* \"#utility.yul\":6031:6054   */\n      sub\n        /* \"#utility.yul\":6027:6059   */\n      slt\n        /* \"#utility.yul\":6024:6143   */\n      iszero\n      tag_213\n      jumpi\n        /* \"#utility.yul\":6062:6141   */\n      tag_214\n      tag_103\n      jump\t// in\n    tag_214:\n        /* \"#utility.yul\":6024:6143   */\n    tag_213:\n        /* \"#utility.yul\":6210:6211   */\n      0x00\n        /* \"#utility.yul\":6199:6208   */\n      dup4\n        /* \"#utility.yul\":6195:6212   */\n      add\n        /* \"#utility.yul\":6182:6213   */\n      calldataload\n        /* \"#utility.yul\":6240:6258   */\n      0xffffffffffffffff\n        /* \"#utility.yul\":6232:6238   */\n      dup2\n        /* \"#utility.yul\":6229:6259   */\n      gt\n        /* \"#utility.yul\":6226:6343   */\n      iszero\n      tag_215\n      jumpi\n        /* \"#utility.yul\":6262:6341   */\n      tag_216\n      tag_104\n      jump\t// in\n    tag_216:\n        /* \"#utility.yul\":6226:6343   */\n    tag_215:\n        /* \"#utility.yul\":6367:6430   */\n      tag_217\n        /* \"#utility.yul\":6422:6429   */\n      dup6\n        /* \"#utility.yul\":6413:6419   */\n      dup3\n        /* \"#utility.yul\":6402:6411   */\n      dup7\n        /* \"#utility.yul\":6398:6420   */\n      add\n        /* \"#utility.yul\":6367:6430   */\n      tag_114\n      jump\t// in\n    tag_217:\n        /* \"#utility.yul\":6357:6430   */\n      swap3\n      pop\n        /* \"#utility.yul\":6153:6440   */\n      pop\n        /* \"#utility.yul\":6507:6509   */\n      0x20\n        /* \"#utility.yul\":6496:6505   */\n      dup4\n        /* \"#utility.yul\":6492:6510   */\n      add\n        /* \"#utility.yul\":6479:6511   */\n      calldataload\n        /* \"#utility.yul\":6538:6556   */\n      0xffffffffffffffff\n        /* \"#utility.yul\":6530:6536   */\n      dup2\n        /* \"#utility.yul\":6527:6557   */\n      gt\n        /* \"#utility.yul\":6524:6641   */\n      iszero\n      tag_218\n      jumpi\n        /* \"#utility.yul\":6560:6639   */\n      tag_219\n      tag_104\n      jump\t// in\n    tag_219:\n        /* \"#utility.yul\":6524:6641   */\n    tag_218:\n        /* \"#utility.yul\":6665:6728   */\n      tag_220\n        /* \"#utility.yul\":6720:6727   */\n      dup6\n        /* \"#utility.yul\":6711:6717   */\n      dup3\n        /* \"#utility.yul\":6700:6709   */\n      dup7\n        /* \"#utility.yul\":6696:6718   */\n      add\n        /* \"#utility.yul\":6665:6728   */\n      tag_114\n      jump\t// in\n    tag_220:\n        /* \"#utility.yul\":6655:6728   */\n      swap2\n      pop\n        /* \"#utility.yul\":6450:6738   */\n      pop\n        /* \"#utility.yul\":5911:6745   */\n      swap3\n      pop\n      swap3\n      swap1\n      pop\n      jump\t// out\n        /* \"#utility.yul\":6751:6931   */\n    tag_126:\n        /* \"#utility.yul\":6799:6876   */\n      0x4e487b7100000000000000000000000000000000000000000000000000000000\n        /* \"#utility.yul\":6796:6797   */\n      0x00\n        /* \"#utility.yul\":6789:6877   */\n      mstore\n        /* \"#utility.yul\":6896:6900   */\n      0x22\n        /* \"#utility.yul\":6893:6894   */\n      0x04\n        /* \"#utility.yul\":6886:6901   */\n      mstore\n        /* \"#utility.yul\":6920:6924   */\n      0x24\n        /* \"#utility.yul\":6917:6918   */\n      0x00\n        /* \"#utility.yul\":6910:6925   */\n      revert\n        /* \"#utility.yul\":6937:7257   */\n    tag_45:\n        /* \"#utility.yul\":6981:6987   */\n      0x00\n        /* \"#utility.yul\":7018:7019   */\n      0x02\n        /* \"#utility.yul\":7012:7016   */\n      dup3\n        /* \"#utility.yul\":7008:7020   */\n      div\n        /* \"#utility.yul\":6998:7020   */\n      swap1\n      pop\n        /* \"#utility.yul\":7065:7066   */\n      0x01\n        /* \"#utility.yul\":7059:7063   */\n      dup3\n        /* \"#utility.yul\":7055:7067   */\n      and\n        /* \"#utility.yul\":7086:7104   */\n      dup1\n        /* \"#utility.yul\":7076:7157   */\n      tag_223\n      jumpi\n        /* \"#utility.yul\":7142:7146   */\n      0x7f\n        /* \"#utility.yul\":7134:7140   */\n      dup3\n        /* \"#utility.yul\":7130:7147   */\n      and\n        /* \"#utility.yul\":7120:7147   */\n      swap2\n      pop\n        /* \"#utility.yul\":7076:7157   */\n    tag_223:\n        /* \"#utility.yul\":7204:7206   */\n      0x20\n        /* \"#utility.yul\":7196:7202   */\n      dup3\n        /* \"#utility.yul\":7193:7207   */\n      lt\n        /* \"#utility.yul\":7173:7191   */\n      dup2\n        /* \"#utility.yul\":7170:7208   */\n      sub\n        /* \"#utility.yul\":7167:7251   */\n      tag_224\n      jumpi\n        /* \"#utility.yul\":7223:7241   */\n      tag_225\n      tag_126\n      jump\t// in\n    tag_225:\n        /* \"#utility.yul\":7167:7251   */\n    tag_224:\n        /* \"#utility.yul\":6988:7257   */\n      pop\n        /* \"#utility.yul\":6937:7257   */\n      swap2\n      swap1\n      pop\n      jump\t// out\n        /* \"#utility.yul\":7263:7404   */\n    tag_127:\n        /* \"#utility.yul\":7312:7316   */\n      0x00\n        /* \"#utility.yul\":7335:7338   */\n      dup2\n        /* \"#utility.yul\":7327:7338   */\n      swap1\n      pop\n        /* \"#utility.yul\":7358:7361   */\n      dup2\n        /* \"#utility.yul\":7355:7356   */\n      0x00\n        /* \"#utility.yul\":7348:7362   */\n      mstore\n        /* \"#utility.yul\":7392:7396   */\n      0x20\n        /* \"#utility.yul\":7389:7390   */\n      0x00\n        /* \"#utility.yul\":7379:7397   */\n      keccak256\n        /* \"#utility.yul\":7371:7397   */\n      swap1\n      pop\n        /* \"#utility.yul\":7263:7404   */\n      swap2\n      swap1\n      pop\n      jump\t// out\n        /* \"#utility.yul\":7410:7503   */\n    tag_128:\n        /* \"#utility.yul\":7447:7453   */\n      0x00\n        /* \"#utility.yul\":7494:7496   */\n      0x20\n        /* \"#utility.yul\":7489:7491   */\n      0x1f\n        /* \"#utility.yul\":7482:7487   */\n      dup4\n        /* \"#utility.yul\":7478:7492   */\n      add\n        /* \"#utility.yul\":7474:7497   */\n      div\n        /* \"#utility.yul\":7464:7497   */\n      swap1\n      pop\n        /* \"#utility.yul\":7410:7503   */\n      swap2\n      swap1\n      pop\n      jump\t// out\n        /* \"#utility.yul\":7509:7616   */\n    tag_129:\n        /* \"#utility.yul\":7553:7561   */\n      0x00\n        /* \"#utility.yul\":7603:7608   */\n      dup3\n        /* \"#utility.yul\":7597:7601   */\n      dup3\n        /* \"#utility.yul\":7593:7609   */\n      shl\n        /* \"#utility.yul\":7572:7609   */\n      swap1\n      pop\n        /* \"#utility.yul\":7509:7616   */\n      swap3\n      swap2\n      pop\n      pop\n      jump\t// out\n        /* \"#utility.yul\":7622:8015   */\n    tag_130:\n        /* \"#utility.yul\":7691:7697   */\n      0x00\n        /* \"#utility.yul\":7741:7742   */\n      0x08\n        /* \"#utility.yul\":7729:7739   */\n      dup4\n        /* \"#utility.yul\":7725:7743   */\n      mul\n        /* \"#utility.yul\":7764:7861   */\n      tag_230\n        /* \"#utility.yul\":7794:7860   */\n      0xffffffffffffffffffffffffffffffffffffffffffffffffffffffffffffffff\n        /* \"#utility.yul\":7783:7792   */\n      dup3\n        /* \"#utility.yul\":7764:7861   */\n      tag_129\n      jump\t// in\n    tag_230:\n        /* \"#utility.yul\":7882:7921   */\n      tag_231\n        /* \"#utility.yul\":7912:7920   */\n      dup7\n        /* \"#utility.yul\":7901:7910   */\n      dup4\n        /* \"#utility.yul\":7882:7921   */\n      tag_129\n      jump\t// in\n    tag_231:\n        /* \"#utility.yul\":7870:7921   */\n      swap6\n      pop\n        /* \"#utility.yul\":7954:7958   */\n      dup1\n        /* \"#utility.yul\":7950:7959   */\n      not\n        /* \"#utility.yul\":7943:7948   */\n      dup5\n        /* \"#utility.yul\":7939:7960   */\n      and\n        /* \"#utility.yul\":7930:7960   */\n      swap4\n      pop\n        /* \"#utility.yul\":8003:8007   */\n      dup1\n        /* \"#utility.yul\":7993:8001   */\n      dup7\n        /* \"#utility.yul\":7989:8008   */\n      and\n        /* \"#utility.yul\":7982:7987   */\n      dup5\n        /* \"#utility.yul\":7979:8009   */\n      or\n        /* \"#utility.yul\":7969:8009   */\n      swap3\n      pop\n        /* \"#utility.yul\":7698:8015   */\n      pop\n      pop\n        /* \"#utility.yul\":7622:8015   */\n      swap4\n      swap3\n      pop\n      pop\n      pop\n      jump\t// out\n        /* \"#utility.yul\":8021:8081   */\n    tag_131:\n        /* \"#utility.yul\":8049:8052   */\n      0x00\n        /* \"#utility.yul\":8070:8075   */\n      dup2\n        /* \"#utility.yul\":8063:8075   */\n      swap1\n      pop\n        /* \"#utility.yul\":8021:8081   */\n      swap2\n      swap1\n      pop\n      jump\t// out\n        /* \"#utility.yul\":8087:8229   */\n    tag_132:\n        /* \"#utility.yul\":8137:8146   */\n      0x00\n        /* \"#utility.yul\":8170:8223   */\n      tag_234\n        /* \"#utility.yul\":8188:8222   */\n      tag_235\n        /* \"#utility.yul\":8197:8221   */\n      tag_236\n        /* \"#utility.yul\":8215:8220   */\n      dup5\n        /* \"#utility.yul\":8197:8221   */\n      tag_123\n      jump\t// in\n    tag_236:\n        /* \"#utility.yul\":8188:8222   */\n      tag_131\n      jump\t// in\n    tag_235:\n        /* \"#utility.yul\":8170:8223   */\n      tag_123\n      jump\t// in\n    tag_234:\n        /* \"#utility.yul\":8157:8223   */\n      swap1\n      pop\n        /* \"#utility.yul\":8087:8229   */\n      swap2\n      swap1\n      pop\n      jump\t// out\n        /* \"#utility.yul\":8235:8310   */\n    tag_133:\n        /* \"#utility.yul\":8278:8281   */\n      0x00\n        /* \"#utility.yul\":8299:8304   */\n      dup2\n        /* \"#utility.yul\":8292:8304   */\n      swap1\n      pop\n        /* \"#utility.yul\":8235:8310   */\n      swap2\n      swap1\n      pop\n      jump\t// out\n        /* \"#utility.yul\":8316:8585   */\n    tag_134:\n        /* \"#utility.yul\":8426:8465   */\n      tag_239\n        /* \"#utility.yul\":8457:8464   */\n      dup4\n        /* \"#utility.yul\":8426:8465   */\n      tag_132\n      jump\t// in\n    tag_239:\n        /* \"#utility.yul\":8487:8578   */\n      tag_240\n        /* \"#utility.yul\":8536:8577   */\n      tag_241\n        /* \"#utility.yul\":8560:8576   */\n      dup3\n        /* \"#utility.yul\":8536:8577   */\n      tag_133\n      jump\t// in\n    tag_241:\n        /* \"#utility.yul\":8528:8534   */\n      dup5\n        /* \"#utility.yul\":8521:8525   */\n      dup5\n        /* \"#utility.yul\":8515:8526   */\n      sload\n        /* \"#utility.yul\":8487:8578   */\n      tag_130\n      jump\t// in\n    tag_240:\n        /* \"#utility.yul\":8481:8485   */\n      dup3\n        /* \"#utility.yul\":8474:8579   */\n      sstore\n        /* \"#utility.yul\":8392:8585   */\n      pop\n        /* \"#utility.yul\":8316:8585   */\n      pop\n      pop\n      pop\n      jump\t// out\n        /* \"#utility.yul\":8591:8664   */\n    tag_135:\n        /* \"#utility.yul\":8636:8639   */\n      0x00\n        /* \"#utility.yul\":8591:8664   */\n      swap1\n      jump\t// out\n        /* \"#utility.yul\":8670:8859   */\n    tag_136:\n        /* \"#utility.yul\":8747:8779   */\n      tag_244\n      tag_135\n      jump\t// in\n    tag_244:\n        /* \"#utility.yul\":8788:8853   */\n      tag_245\n        /* \"#utility.yul\":8846:8852   */\n      dup2\n        /* \"#utility.yul\":8838:8844   */\n      dup5\n        /* \"#utility.yul\":8832:8836   */\n      dup5\n        /* \"#utility.yul\":8788:8853   */\n      tag_134\n      jump\t// in\n    tag_245:\n        /* \"#utility.yul\":8723:8859   */\n      pop\n        /* \"#utility.yul\":8670:8859   */\n      pop\n      pop\n      jump\t// out\n        /* \"#utility.yul\":8865:9051   */\n    tag_137:\n        /* \"#utility.yul\":8925:9045   */\n    tag_247:\n        /* \"#utility.yul\":8942:8945   */\n      dup2\n        /* \"#utility.yul\":8935:8940   */\n      dup2\n        /* \"#utility.yul\":8932:8946   */\n      lt\n        /* \"#utility.yul\":8925:9045   */\n      iszero\n      tag_249\n      jumpi\n        /* \"#utility.yul\":8996:9035   */\n      tag_250\n        /* \"#utility.yul\":9033:9034   */\n      0x00\n        /* \"#utility.yul\":9026:9031   */\n      dup3\n        /* \"#utility.yul\":8996:9035   */\n      tag_136\n      jump\t// in\n    tag_250:\n        /* \"#utility.yul\":8969:8970   */\n      0x01\n        /* \"#utility.yul\":8962:8967   */\n      dup2\n        /* \"#utility.yul\":8958:8971   */\n      add\n        /* \"#utility.yul\":8949:8971   */\n      swap1\n      pop\n        /* \"#utility.yul\":8925:9045   */\n      jump(tag_247)\n    tag_249:\n        /* \"#utility.yul\":8865:9051   */\n      pop\n      pop\n      jump\t// out\n        /* \"#utility.yul\":9057:9600   */\n    tag_138:\n        /* \"#utility.yul\":9158:9160   */\n      0x1f\n        /* \"#utility.yul\":9153:9156   */\n      dup3\n        /* \"#utility.yul\":9150:9161   */\n      gt\n        /* \"#utility.yul\":9147:9593   */\n      iszero\n      tag_252\n      jumpi\n        /* \"#utility.yul\":9192:9230   */\n      tag_253\n        /* \"#utility.yul\":9224:9229   */\n      dup2\n        /* \"#utility.yul\":9192:9230   */\n      tag_127\n      jump\t// in\n    tag_253:\n        /* \"#utility.yul\":9276:9305   */\n      tag_254\n        /* \"#utility.yul\":9294:9304   */\n      dup5\n        /* \"#utility.yul\":9276:9305   */\n      tag_128\n      jump\t// in\n    tag_254:\n        /* \"#utility.yul\":9266:9274   */\n      dup2\n        /* \"#utility.yul\":9262:9306   */\n      add\n        /* \"#utility.yul\":9459:9461   */\n      0x20\n        /* \"#utility.yul\":9447:9457   */\n      dup6\n        /* \"#utility.yul\":9444:9462   */\n      lt\n        /* \"#utility.yul\":9441:9490   */\n      iszero\n      tag_255\n      jumpi\n        /* \"#utility.yul\":9480:9488   */\n      dup2\n        /* \"#utility.yul\":9465:9488   */\n      swap1\n      pop\n        /* \"#utility.yul\":9441:9490   */\n    tag_255:\n        /* \"#utility.yul\":9503:9583   */\n      tag_256\n        /* \"#utility.yul\":9559:9581   */\n      tag_257\n        /* \"#utility.yul\":9577:9580   */\n      dup6\n        /* \"#utility.yul\":9559:9581   */\n      tag_128\n      jump\t// in\n    tag_257:\n        /* \"#utility.yul\":9549:9557   */\n      dup4\n        /* \"#utility.yul\":9545:9582   */\n      add\n        /* \"#utility.yul\":9532:9543   */\n      dup3\n        /* \"#utility.yul\":9503:9583   */\n      tag_137\n      jump\t// in\n    tag_256:\n        /* \"#utility.yul\":9162:9593   */\n      pop\n      pop\n        /* \"#utility.yul\":9147:9593   */\n    tag_252:\n        /* \"#utility.yul\":9057:9600   */\n      pop\n      pop\n      pop\n      jump\t// out\n        /* \"#utility.yul\":9606:9723   */\n    tag_139:\n        /* \"#utility.yul\":9660:9668   */\n      0x00\n        /* \"#utility.yul\":9710:9715   */\n      dup3\n        /* \"#utility.yul\":9704:9708   */\n      dup3\n        /* \"#utility.yul\":9700:9716   */\n      shr\n        /* \"#utility.yul\":9679:9716   */\n      swap1\n      pop\n        /* \"#utility.yul\":9606:9723   */\n      swap3\n      swap2\n      pop\n      pop\n      jump\t// out\n        /* \"#utility.yul\":9729:9898   */\n    tag_140:\n        /* \"#utility.yul\":9773:9779   */\n      0x00\n        /* \"#utility.yul\":9806:9857   */\n      tag_260\n        /* \"#utility.yul\":9854:9855   */\n      0x00\n        /* \"#utility.yul\":9850:9856   */\n      not\n        /* \"#utility.yul\":9842:9847   */\n      dup5\n        /* \"#utility.yul\":9839:9840   */\n      0x08\n        /* \"#utility.yul\":9835:9848   */\n      mul\n        /* \"#utility.yul\":9806:9857   */\n      tag_139\n      jump\t// in\n    tag_260:\n        /* \"#utility.yul\":9802:9858   */\n      not\n        /* \"#utility.yul\":9887:9891   */\n      dup1\n        /* \"#utility.yul\":9881:9885   */\n      dup4\n        /* \"#utility.yul\":9877:9892   */\n      and\n        /* \"#utility.yul\":9867:9892   */\n      swap2\n      pop\n        /* \"#utility.yul\":9780:9898   */\n      pop\n        /* \"#utility.yul\":9729:9898   */\n      swap3\n      swap2\n      pop\n      pop\n      jump\t// out\n        /* \"#utility.yul\":9903:10198   */\n    tag_141:\n        /* \"#utility.yul\":9979:9983   */\n      0x00\n        /* \"#utility.yul\":10125:10154   */\n      tag_262\n        /* \"#utility.yul\":10150:10153   */\n      dup4\n        /* \"#utility.yul\":10144:10148   */\n      dup4\n        /* \"#utility.yul\":10125:10154   */\n      tag_140\n      jump\t// in\n    tag_262:\n        /* \"#utility.yul\":10117:10154   */\n      swap2\n      pop\n        /* \"#utility.yul\":10187:10190   */\n      dup3\n        /* \"#utility.yul\":10184:10185   */\n      0x02\n        /* \"#utility.yul\":10180:10191   */\n      mul\n        /* \"#utility.yul\":10174:10178   */\n      dup3\n        /* \"#utility.yul\":10171:10192   */\n      or\n        /* \"#utility.yul\":10163:10192   */\n      swap1\n      pop\n        /* \"#utility.yul\":9903:10198   */\n      swap3\n      swap2\n      pop\n      pop\n      jump\t// out\n        /* \"#utility.yul\":10203:11598   */\n    tag_53:\n        /* \"#utility.yul\":10320:10357   */\n      tag_264\n        /* \"#utility.yul\":10353:10356   */\n      dup3\n        /* \"#utility.yul\":10320:10357   */\n      tag_115\n      jump\t// in\n    tag_264:\n        /* \"#utility.yul\":10422:10440   */\n      0xffffffffffffffff\n        /* \"#utility.yul\":10414:10420   */\n      dup2\n        /* \"#utility.yul\":10411:10441   */\n      gt\n        /* \"#utility.yul\":10408:10464   */\n      iszero\n      tag_265\n      jumpi\n        /* \"#utility.yul\":10444:10462   */\n      tag_266\n      tag_108\n      jump\t// in\n    tag_266:\n        /* \"#utility.yul\":10408:10464   */\n    tag_265:\n        /* \"#utility.yul\":10488:10526   */\n      tag_267\n        /* \"#utility.yul\":10520:10524   */\n      dup3\n        /* \"#utility.yul\":10514:10525   */\n      sload\n        /* \"#utility.yul\":10488:10526   */\n      tag_45\n      jump\t// in\n    tag_267:\n        /* \"#utility.yul\":10573:10640   */\n      tag_268\n        /* \"#utility.yul\":10633:10639   */\n      dup3\n        /* \"#utility.yul\":10625:10631   */\n      dup3\n        /* \"#utility.yul\":10619:10623   */\n      dup6\n        /* \"#utility.yul\":10573:10640   */\n      tag_138\n      jump\t// in\n    tag_268:\n        /* \"#utility.yul\":10667:10668   */\n      0x00\n        /* \"#utility.yul\":10691:10695   */\n      0x20\n        /* \"#utility.yul\":10678:10695   */\n      swap1\n      pop\n        /* \"#utility.yul\":10723:10725   */\n      0x1f\n        /* \"#utility.yul\":10715:10721   */\n      dup4\n        /* \"#utility.yul\":10712:10726   */\n      gt\n        /* \"#utility.yul\":10740:10741   */\n      0x01\n        /* \"#utility.yul\":10735:11353   */\n      dup2\n      eq\n      tag_270\n      jumpi\n        /* \"#utility.yul\":11397:11398   */\n      0x00\n        /* \"#utility.yul\":11414:11420   */\n      dup5\n        /* \"#utility.yul\":11411:11488   */\n      iszero\n      tag_271\n      jumpi\n        /* \"#utility.yul\":11463:11472   */\n      dup3\n        /* \"#utility.yul\":11458:11461   */\n      dup8\n        /* \"#utility.yul\":11454:11473   */\n      add\n        /* \"#utility.yul\":11448:11474   */\n      mload\n        /* \"#utility.yul\":11439:11474   */\n      swap1\n      pop\n        /* \"#utility.yul\":11411:11488   */\n    tag_271:\n        /* \"#utility.yul\":11514:11581   */\n      tag_272\n        /* \"#utility.yul\":11574:11580   */\n      dup6\n        /* \"#utility.yul\":11567:11572   */\n      dup3\n        /* \"#utility.yul\":11514:11581   */\n      tag_141\n      jump\t// in\n    tag_272:\n        /* \"#utility.yul\":11508:11512   */\n      dup7\n        /* \"#utility.yul\":11501:11582   */\n      sstore\n        /* \"#utility.yul\":11370:11592   */\n      pop\n        /* \"#utility.yul\":10705:11592   */\n      jump(tag_269)\n        /* \"#utility.yul\":10735:11353   */\n    tag_270:\n        /* \"#utility.yul\":10787:10791   */\n      0x1f\n        /* \"#utility.yul\":10783:10792   */\n      not\n        /* \"#utility.yul\":10775:10781   */\n      dup5\n        /* \"#utility.yul\":10771:10793   */\n      and\n        /* \"#utility.yul\":10821:10858   */\n      tag_273\n        /* \"#utility.yul\":10853:10857   */\n      dup7\n        /* \"#utility.yul\":10821:10858   */\n      tag_127\n      jump\t// in\n    tag_273:\n        /* \"#utility.yul\":10880:10881   */\n      0x00\n        /* \"#utility.yul\":10894:11102   */\n    tag_274:\n        /* \"#utility.yul\":10908:10915   */\n      dup3\n        /* \"#utility.yul\":10905:10906   */\n      dup2\n        /* \"#utility.yul\":10902:10916   */\n      lt\n        /* \"#utility.yul\":10894:11102   */\n      iszero\n      tag_276\n      jumpi\n        /* \"#utility.yul\":10987:10996   */\n      dup5\n        /* \"#utility.yul\":10982:10985   */\n      dup10\n        /* \"#utility.yul\":10978:10997   */\n      add\n        /* \"#utility.yul\":10972:10998   */\n      mload\n        /* \"#utility.yul\":10964:10970   */\n      dup3\n        /* \"#utility.yul\":10957:10999   */\n      sstore\n        /* \"#utility.yul\":11038:11039   */\n      0x01\n        /* \"#utility.yul\":11030:11036   */\n      dup3\n        /* \"#utility.yul\":11026:11040   */\n      add\n        /* \"#utility.yul\":11016:11040   */\n      swap2\n      pop\n        /* \"#utility.yul\":11085:11087   */\n      0x20\n        /* \"#utility.yul\":11074:11083   */\n      dup6\n        /* \"#utility.yul\":11070:11088   */\n      add\n        /* \"#utility.yul\":11057:11088   */\n      swap5\n      pop\n        /* \"#utility.yul\":10931:10935   */\n      0x20\n        /* \"#utility.yul\":10928:10929   */\n      dup2\n        /* \"#utility.yul\":10924:10936   */\n      add\n        /* \"#utility.yul\":10919:10936   */\n      swap1\n      pop\n        /* \"#utility.yul\":10894:11102   */\n      jump(tag_274)\n    tag_276:\n        /* \"#utility.yul\":11130:11136   */\n      dup7\n        /* \"#utility.yul\":11121:11128   */\n      dup4\n        /* \"#utility.yul\":11118:11137   */\n      lt\n        /* \"#utility.yul\":11115:11294   */\n      iszero\n      tag_277\n      jumpi\n        /* \"#utility.yul\":11188:11197   */\n      dup5\n        /* \"#utility.yul\":11183:11186   */\n      dup10\n        /* \"#utility.yul\":11179:11198   */\n      add\n        /* \"#utility.yul\":11173:11199   */\n      mload\n        /* \"#utility.yul\":11231:11279   */\n      tag_278\n        /* \"#utility.yul\":11273:11277   */\n      0x1f\n        /* \"#utility.yul\":11265:11271   */\n      dup10\n        /* \"#utility.yul\":11261:11278   */\n      and\n        /* \"#utility.yul\":11250:11259   */\n      dup3\n        /* \"#utility.yul\":11231:11279   */\n      tag_140\n      jump\t// in\n    tag_278:\n        /* \"#utility.yul\":11223:11229   */\n      dup4\n        /* \"#utility.yul\":11216:11280   */\n      sstore\n        /* \"#utility.yul\":11138:11294   */\n      pop\n        /* \"#utility.yul\":11115:11294   */\n    tag_277:\n        /* \"#utility.yul\":11340:11341   */\n      0x01\n        /* \"#utility.yul\":11336:11337   */\n      0x02\n        /* \"#utility.yul\":11328:11334   */\n      dup9\n        /* \"#utility.yul\":11324:11338   */\n      mul\n        /* \"#utility.yul\":11320:11342   */\n      add\n        /* \"#utility.yul\":11314:11318   */\n      dup9\n        /* \"#utility.yul\":11307:11343   */\n      sstore\n        /* \"#utility.yul\":10742:11353   */\n      pop\n      pop\n      pop\n        /* \"#utility.yul\":10705:11592   */\n    tag_269:\n      pop\n        /* \"#utility.yul\":10295:11598   */\n      pop\n      pop\n      pop\n        /* \"#utility.yul\":10203:11598   */\n      pop\n      pop\n      jump\t// out\n        /* \"#utility.yul\":11604:11784   */\n    tag_84:\n        /* \"#utility.yul\":11652:11729   */\n      0x4e487b7100000000000000000000000000000000000000000000000000000000\n        /* \"#utility.yul\":11649:11650   */\n      0x00\n        /* \"#utility.yul\":11642:11730   */\n      mstore\n        /* \"#utility.yul\":11749:11753   */\n      0x32\n        /* \"#utility.yul\":11746:11747   */\n      0x04\n        /* \"#utility.yul\":11739:11754   */\n      mstore\n        /* \"#utility.yul\":11773:11777   */\n      0x24\n        /* \"#utility.yul\":11770:11771   */\n      0x00\n        /* \"#utility.yul\":11763:11778   */\n      revert\n        /* \"#utility.yul\":11790:11938   */\n    tag_142:\n        /* \"#utility.yul\":11892:11903   */\n      0x00\n        /* \"#utility.yul\":11929:11932   */\n      dup2\n        /* \"#utility.yul\":11914:11932   */\n      swap1\n      pop\n        /* \"#utility.yul\":11790:11938   */\n      swap3\n      swap2\n      pop\n      pop\n      jump\t// out\n        /* \"#utility.yul\":11944:12334   */\n    tag_143:\n        /* \"#utility.yul\":12050:12053   */\n      0x00\n        /* \"#utility.yul\":12078:12117   */\n      tag_282\n        /* \"#utility.yul\":12111:12116   */\n      dup3\n        /* \"#utility.yul\":12078:12117   */\n      tag_115\n      jump\t// in\n    tag_282:\n        /* \"#utility.yul\":12133:12222   */\n      tag_283\n        /* \"#utility.yul\":12215:12221   */\n      dup2\n        /* \"#utility.yul\":12210:12213   */\n      dup6\n        /* \"#utility.yul\":12133:12222   */\n      tag_142\n      jump\t// in\n    tag_283:\n        /* \"#utility.yul\":12126:12222   */\n      swap4\n      pop\n        /* \"#utility.yul\":12231:12296   */\n      tag_284\n        /* \"#utility.yul\":12289:12295   */\n      dup2\n        /* \"#utility.yul\":12284:12287   */\n      dup6\n        /* \"#utility.yul\":12277:12281   */\n      0x20\n        /* \"#utility.yul\":12270:12275   */\n      dup7\n        /* \"#utility.yul\":12266:12282   */\n      add\n        /* \"#utility.yul\":12231:12296   */\n      tag_117\n      jump\t// in\n    tag_284:\n        /* \"#utility.yul\":12321:12327   */\n      dup1\n        /* \"#utility.yul\":12316:12319   */\n      dup5\n        /* \"#utility.yul\":12312:12328   */\n      add\n        /* \"#utility.yul\":12305:12328   */\n      swap2\n      pop\n        /* \"#utility.yul\":12054:12334   */\n      pop\n        /* \"#utility.yul\":11944:12334   */\n      swap3\n      swap2\n      pop\n      pop\n      jump\t// out\n        /* \"#utility.yul\":12340:12615   */\n    tag_93:\n        /* \"#utility.yul\":12472:12475   */\n      0x00\n        /* \"#utility.yul\":12494:12589   */\n      tag_286\n        /* \"#utility.yul\":12585:12588   */\n      dup3\n        /* \"#utility.yul\":12576:12582   */\n      dup5\n        /* \"#utility.yul\":12494:12589   */\n      tag_143\n      jump\t// in\n    tag_286:\n        /* \"#utility.yul\":12487:12589   */\n      swap2\n      pop\n        /* \"#utility.yul\":12606:12609   */\n      dup2\n        /* \"#utility.yul\":12599:12609   */\n      swap1\n      pop\n        /* \"#utility.yul\":12340:12615   */\n      swap3\n      swap2\n      pop\n      pop\n      jump\t// out\n\n    auxdata: 0xa26469706673582212205cb3eef9ff3e96b6a7c8ed830e7ebfb0ab8a47c42374aa2a02bd729ed17c3d3264736f6c634300081a0033\n}\n",
				"bytecode": {
					"linkReferences": {},
					"object": "608060405260405180606001604052806040518060400160405280600681526020017f6e617468616e000000000000000000000000000000000000000000000000000081525081526020016040518060400160405280600681526020017f6d617269616d000000000000000000000000000000000000000000000000000081525081526020016040518060400160405280600581526020017f63687269730000000000000000000000000000000000000000000000000000008152508152505f9060036100cd929190610108565b505f60015f6101000a81548160ff021916908360028111156100f2576100f16101da565b5b0217905550348015610102575f80fd5b50610510565b828054828255905f5260205f2090810192821561014e579160200282015b8281111561014d57825182908161013d9190610441565b5091602001919060010190610126565b5b50905061015b919061015f565b5090565b5b8082111561017e575f81816101759190610182565b50600101610160565b5090565b50805461018e9061026b565b5f825580601f1061019f57506101bc565b601f0160209004905f5260205f20908101906101bb91906101bf565b5b50565b5b808211156101d6575f815f9055506001016101c0565b5090565b7f4e487b71000000000000000000000000000000000000000000000000000000005f52602160045260245ffd5b5f81519050919050565b7f4e487b71000000000000000000000000000000000000000000000000000000005f52604160045260245ffd5b7f4e487b71000000000000000000000000000000000000000000000000000000005f52602260045260245ffd5b5f600282049050600182168061028257607f821691505b6020821081036102955761029461023e565b5b50919050565b5f819050815f5260205f209050919050565b5f6020601f8301049050919050565b5f82821b905092915050565b5f600883026102f77fffffffffffffffffffffffffffffffffffffffffffffffffffffffffffffffff826102bc565b61030186836102bc565b95508019841693508086168417925050509392505050565b5f819050919050565b5f819050919050565b5f61034561034061033b84610319565b610322565b610319565b9050919050565b5f819050919050565b61035e8361032b565b61037261036a8261034c565b8484546102c8565b825550505050565b5f90565b61038661037a565b610391818484610355565b505050565b5b818110156103b4576103a95f8261037e565b600181019050610397565b5050565b601f8211156103f9576103ca8161029b565b6103d3846102ad565b810160208510156103e2578190505b6103f66103ee856102ad565b830182610396565b50505b505050565b5f82821c905092915050565b5f6104195f19846008026103fe565b1980831691505092915050565b5f610431838361040a565b9150826002028217905092915050565b61044a82610207565b67ffffffffffffffff81111561046357610462610211565b5b61046d825461026b565b6104788282856103b8565b5f60209050601f8311600181146104a9575f8415610497578287015190505b6104a18582610426565b865550610508565b601f1984166104b78661029b565b5f5b828110156104de578489015182556001820191506020850194506020810190506104b9565b868310156104fb57848901516104f7601f89168261040a565b8355505b6001600288020188555050505b505050505050565b610cbd8061051d5f395ff3fe608060405234801561000f575f80fd5b5060043610610086575f3560e01c8063b9c3428e11610059578063b9c3428e14610124578063bca9a5c51461012e578063bf3300d41461015e578063e8ac013e1461017a57610086565b806321441be81461008a578063284e3ebd146100ba5780632d2d03a6146100d85780634739326b146100f4575b5f80fd5b6100a4600480360381019061009f919061071a565b6101aa565b6040516100b191906107c1565b60405180910390f35b6100c261025d565b6040516100cf9190610854565b60405180910390f35b6100f260048036038101906100ed919061071a565b61026f565b005b61010e600480360381019061010991906108a0565b6102a3565b60405161011b91906107c1565b60405180910390f35b61012c610348565b005b610148600480360381019061014391906108a0565b610444565b60405161015591906107c1565b60405180910390f35b610178600480360381019061017391906108cb565b6104ef565b005b610194600480360381019061018f919061071a565b61051f565b6040516101a191906107c1565b60405180910390f35b6002818051602081018201805184825260208301602085012081835280955050505050505f9150905080546101de9061096e565b80601f016020809104026020016040519081016040528092919081815260200182805461020a9061096e565b80156102555780601f1061022c57610100808354040283529160200191610255565b820191905f5260205f20905b81548152906001019060200180831161023857829003601f168201915b505050505081565b60015f9054906101000a900460ff1681565b5f81908060018154018082558091505060019003905f5260205f20015f90919091909150908161029f9190610b3b565b5050565b5f81815481106102b1575f80fd5b905f5260205f20015f9150905080546102c99061096e565b80601f01602080910402602001604051908101604052809291908181526020018280546102f59061096e565b80156103405780601f1061031757610100808354040283529160200191610340565b820191905f5260205f20905b81548152906001019060200180831161032357829003601f168201915b505050505081565b5f600281111561035b5761035a6107e1565b5b60015f9054906101000a900460ff16600281111561037c5761037b6107e1565b5b036103b057600260015f6101000a81548160ff021916908360028111156103a6576103a56107e1565b5b0217905550610442565b6002808111156103c3576103c26107e1565b5b60015f9054906101000a900460ff1660028111156103e4576103e36107e1565b5b03610417576001805f6101000a81548160ff0219169083600281111561040d5761040c6107e1565b5b0217905550610441565b5f60015f6101000a81548160ff0219169083600281111561043b5761043a6107e1565b5b02179055505b5b565b60605f828154811061045957610458610c0a565b5b905f5260205f2001805461046c9061096e565b80601f01602080910402602001604051908101604052809291908181526020018280546104989061096e565b80156104e35780601f106104ba576101008083540402835291602001916104e3565b820191905f5260205f20905b8154815290600101906020018083116104c657829003601f168201915b50505050509050919050565b806002836040516105009190610c71565b9081526020016040518091039020908161051a9190610b3b565b505050565b60606002826040516105319190610c71565b9081526020016040518091039020805461054a9061096e565b80601f01602080910402602001604051908101604052809291908181526020018280546105769061096e565b80156105c15780601f10610598576101008083540402835291602001916105c1565b820191905f5260205f20905b8154815290600101906020018083116105a457829003601f168201915b50505050509050919050565b5f604051905090565b5f80fd5b5f80fd5b5f80fd5b5f80fd5b5f601f19601f8301169050919050565b7f4e487b71000000000000000000000000000000000000000000000000000000005f52604160045260245ffd5b61062c826105e6565b810181811067ffffffffffffffff8211171561064b5761064a6105f6565b5b80604052505050565b5f61065d6105cd565b90506106698282610623565b919050565b5f67ffffffffffffffff821115610688576106876105f6565b5b610691826105e6565b9050602081019050919050565b828183375f83830152505050565b5f6106be6106b98461066e565b610654565b9050828152602081018484840111156106da576106d96105e2565b5b6106e584828561069e565b509392505050565b5f82601f830112610701576107006105de565b5b81356107118482602086016106ac565b91505092915050565b5f6020828403121561072f5761072e6105d6565b5b5f82013567ffffffffffffffff81111561074c5761074b6105da565b5b610758848285016106ed565b91505092915050565b5f81519050919050565b5f82825260208201905092915050565b8281835e5f83830152505050565b5f61079382610761565b61079d818561076b565b93506107ad81856020860161077b565b6107b6816105e6565b840191505092915050565b5f6020820190508181035f8301526107d98184610789565b905092915050565b7f4e487b71000000000000000000000000000000000000000000000000000000005f52602160045260245ffd5b6003811061081f5761081e6107e1565b5b50565b5f81905061082f8261080e565b919050565b5f61083e82610822565b9050919050565b61084e81610834565b82525050565b5f6020820190506108675f830184610845565b92915050565b5f819050919050565b61087f8161086d565b8114610889575f80fd5b50565b5f8135905061089a81610876565b92915050565b5f602082840312156108b5576108b46105d6565b5b5f6108c28482850161088c565b91505092915050565b5f80604083850312156108e1576108e06105d6565b5b5f83013567ffffffffffffffff8111156108fe576108fd6105da565b5b61090a858286016106ed565b925050602083013567ffffffffffffffff81111561092b5761092a6105da565b5b610937858286016106ed565b9150509250929050565b7f4e487b71000000000000000000000000000000000000000000000000000000005f52602260045260245ffd5b5f600282049050600182168061098557607f821691505b60208210810361099857610997610941565b5b50919050565b5f819050815f5260205f209050919050565b5f6020601f8301049050919050565b5f82821b905092915050565b5f600883026109fa7fffffffffffffffffffffffffffffffffffffffffffffffffffffffffffffffff826109bf565b610a0486836109bf565b95508019841693508086168417925050509392505050565b5f819050919050565b5f610a3f610a3a610a358461086d565b610a1c565b61086d565b9050919050565b5f819050919050565b610a5883610a25565b610a6c610a6482610a46565b8484546109cb565b825550505050565b5f90565b610a80610a74565b610a8b818484610a4f565b505050565b5b81811015610aae57610aa35f82610a78565b600181019050610a91565b5050565b601f821115610af357610ac48161099e565b610acd846109b0565b81016020851015610adc578190505b610af0610ae8856109b0565b830182610a90565b50505b505050565b5f82821c905092915050565b5f610b135f1984600802610af8565b1980831691505092915050565b5f610b2b8383610b04565b9150826002028217905092915050565b610b4482610761565b67ffffffffffffffff811115610b5d57610b5c6105f6565b5b610b67825461096e565b610b72828285610ab2565b5f60209050601f831160018114610ba3575f8415610b91578287015190505b610b9b8582610b20565b865550610c02565b601f198416610bb18661099e565b5f5b82811015610bd857848901518255600182019150602085019450602081019050610bb3565b86831015610bf55784890151610bf1601f891682610b04565b8355505b6001600288020188555050505b505050505050565b7f4e487b71000000000000000000000000000000000000000000000000000000005f52603260045260245ffd5b5f81905092915050565b5f610c4b82610761565b610c558185610c37565b9350610c6581856020860161077b565b80840191505092915050565b5f610c7c8284610c41565b91508190509291505056fea26469706673582212205cb3eef9ff3e96b6a7c8ed830e7ebfb0ab8a47c42374aa2a02bd729ed17c3d3264736f6c634300081a0033",
					"opcodes": "PUSH1 0x80 PUSH1 0x40 MSTORE PUSH1 0x40 MLOAD DUP1 PUSH1 0x60 ADD PUSH1 0x40 MSTORE DUP1 PUSH1 0x40 MLOAD DUP1 PUSH1 0x40 ADD PUSH1 0x40 MSTORE DUP1 PUSH1 0x6 DUP2 MSTORE PUSH1 0x20 ADD PUSH32 0x6E617468616E0000000000000000000000000000000000000000000000000000 DUP2 MSTORE POP DUP2 MSTORE PUSH1 0x20 ADD PUSH1 0x40 MLOAD DUP1 PUSH1 0x40 ADD PUSH1 0x40 MSTORE DUP1 PUSH1 0x6 DUP2 MSTORE PUSH1 0x20 ADD PUSH32 0x6D617269616D0000000000000000000000000000000000000000000000000000 DUP2 MSTORE POP DUP2 MSTORE PUSH1 0x20 ADD PUSH1 0x40 MLOAD DUP1 PUSH1 0x40 ADD PUSH1 0x40 MSTORE DUP1 PUSH1 0x5 DUP2 MSTORE PUSH1 0x20 ADD PUSH32 0x6368726973000000000000000000000000000000000000000000000000000000 DUP2 MSTORE POP DUP2 MSTORE POP PUSH0 SWAP1 PUSH1 0x3 PUSH2 0xCD SWAP3 SWAP2 SWAP1 PUSH2 0x108 JUMP JUMPDEST POP PUSH0 PUSH1 0x1 PUSH0 PUSH2 0x100 EXP DUP2 SLOAD DUP2 PUSH1 0xFF MUL NOT AND SWAP1 DUP4 PUSH1 0x2 DUP2 GT ISZERO PUSH2 0xF2 JUMPI PUSH2 0xF1 PUSH2 0x1DA JUMP JUMPDEST JUMPDEST MUL OR SWAP1 SSTORE POP CALLVALUE DUP1 ISZERO PUSH2 0x102 JUMPI PUSH0 DUP1 REVERT JUMPDEST POP PUSH2 0x510 JUMP JUMPDEST DUP3 DUP1 SLOAD DUP3 DUP3 SSTORE SWAP1 PUSH0 MSTORE PUSH1 0x20 PUSH0 KECCAK256 SWAP1 DUP2 ADD SWAP3 DUP3 ISZERO PUSH2 0x14E JUMPI SWAP2 PUSH1 0x20 MUL DUP3 ADD JUMPDEST DUP3 DUP2 GT ISZERO PUSH2 0x14D JUMPI DUP3 MLOAD DUP3 SWAP1 DUP2 PUSH2 0x13D SWAP2 SWAP1 PUSH2 0x441 JUMP JUMPDEST POP SWAP2 PUSH1 0x20 ADD SWAP2 SWAP1 PUSH1 0x1 ADD SWAP1 PUSH2 0x126 JUMP JUMPDEST JUMPDEST POP SWAP1 POP PUSH2 0x15B SWAP2 SWAP1 PUSH2 0x15F JUMP JUMPDEST POP SWAP1 JUMP JUMPDEST JUMPDEST DUP1 DUP3 GT ISZERO PUSH2 0x17E JUMPI PUSH0 DUP2 DUP2 PUSH2 0x175 SWAP2 SWAP1 PUSH2 0x182 JUMP JUMPDEST POP PUSH1 0x1 ADD PUSH2 0x160 JUMP JUMPDEST POP SWAP1 JUMP JUMPDEST POP DUP1 SLOAD PUSH2 0x18E SWAP1 PUSH2 0x26B JUMP JUMPDEST PUSH0 DUP3 SSTORE DUP1 PUSH1 0x1F LT PUSH2 0x19F JUMPI POP PUSH2 0x1BC JUMP JUMPDEST PUSH1 0x1F ADD PUSH1 0x20 SWAP1 DIV SWAP1 PUSH0 MSTORE PUSH1 0x20 PUSH0 KECCAK256 SWAP1 DUP2 ADD SWAP1 PUSH2 0x1BB SWAP2 SWAP1 PUSH2 0x1BF JUMP JUMPDEST JUMPDEST POP JUMP JUMPDEST JUMPDEST DUP1 DUP3 GT ISZERO PUSH2 0x1D6 JUMPI PUSH0 DUP2 PUSH0 SWAP1 SSTORE POP PUSH1 0x1 ADD PUSH2 0x1C0 JUMP JUMPDEST POP SWAP1 JUMP JUMPDEST PUSH32 0x4E487B7100000000000000000000000000000000000000000000000000000000 PUSH0 MSTORE PUSH1 0x21 PUSH1 0x4 MSTORE PUSH1 0x24 PUSH0 REVERT JUMPDEST PUSH0 DUP2 MLOAD SWAP1 POP SWAP2 SWAP1 POP JUMP JUMPDEST PUSH32 0x4E487B7100000000000000000000000000000000000000000000000000000000 PUSH0 MSTORE PUSH1 0x41 PUSH1 0x4 MSTORE PUSH1 0x24 PUSH0 REVERT JUMPDEST PUSH32 0x4E487B7100000000000000000000000000000000000000000000000000000000 PUSH0 MSTORE PUSH1 0x22 PUSH1 0x4 MSTORE PUSH1 0x24 PUSH0 REVERT JUMPDEST PUSH0 PUSH1 0x2 DUP3 DIV SWAP1 POP PUSH1 0x1 DUP3 AND DUP1 PUSH2 0x282 JUMPI PUSH1 0x7F DUP3 AND SWAP2 POP JUMPDEST PUSH1 0x20 DUP3 LT DUP2 SUB PUSH2 0x295 JUMPI PUSH2 0x294 PUSH2 0x23E JUMP JUMPDEST JUMPDEST POP SWAP2 SWAP1 POP JUMP JUMPDEST PUSH0 DUP2 SWAP1 POP DUP2 PUSH0 MSTORE PUSH1 0x20 PUSH0 KECCAK256 SWAP1 POP SWAP2 SWAP1 POP JUMP JUMPDEST PUSH0 PUSH1 0x20 PUSH1 0x1F DUP4 ADD DIV SWAP1 POP SWAP2 SWAP1 POP JUMP JUMPDEST PUSH0 DUP3 DUP3 SHL SWAP1 POP SWAP3 SWAP2 POP POP JUMP JUMPDEST PUSH0 PUSH1 0x8 DUP4 MUL PUSH2 0x2F7 PUSH32 0xFFFFFFFFFFFFFFFFFFFFFFFFFFFFFFFFFFFFFFFFFFFFFFFFFFFFFFFFFFFFFFFF DUP3 PUSH2 0x2BC JUMP JUMPDEST PUSH2 0x301 DUP7 DUP4 PUSH2 0x2BC JUMP JUMPDEST SWAP6 POP DUP1 NOT DUP5 AND SWAP4 POP DUP1 DUP7 AND DUP5 OR SWAP3 POP POP POP SWAP4 SWAP3 POP POP POP JUMP JUMPDEST PUSH0 DUP2 SWAP1 POP SWAP2 SWAP1 POP JUMP JUMPDEST PUSH0 DUP2 SWAP1 POP SWAP2 SWAP1 POP JUMP JUMPDEST PUSH0 PUSH2 0x345 PUSH2 0x340 PUSH2 0x33B DUP5 PUSH2 0x319 JUMP JUMPDEST PUSH2 0x322 JUMP JUMPDEST PUSH2 0x319 JUMP JUMPDEST SWAP1 POP SWAP2 SWAP1 POP JUMP JUMPDEST PUSH0 DUP2 SWAP1 POP SWAP2 SWAP1 POP JUMP JUMPDEST PUSH2 0x35E DUP4 PUSH2 0x32B JUMP JUMPDEST PUSH2 0x372 PUSH2 0x36A DUP3 PUSH2 0x34C JUMP JUMPDEST DUP5 DUP5 SLOAD PUSH2 0x2C8 JUMP JUMPDEST DUP3 SSTORE POP POP POP POP JUMP JUMPDEST PUSH0 SWAP1 JUMP JUMPDEST PUSH2 0x386 PUSH2 0x37A JUMP JUMPDEST PUSH2 0x391 DUP2 DUP5 DUP5 PUSH2 0x355 JUMP JUMPDEST POP POP POP JUMP JUMPDEST JUMPDEST DUP2 DUP2 LT ISZERO PUSH2 0x3B4 JUMPI PUSH2 0x3A9 PUSH0 DUP3 PUSH2 0x37E JUMP JUMPDEST PUSH1 0x1 DUP2 ADD SWAP1 POP PUSH2 0x397 JUMP JUMPDEST POP POP JUMP JUMPDEST PUSH1 0x1F DUP3 GT ISZERO PUSH2 0x3F9 JUMPI PUSH2 0x3CA DUP2 PUSH2 0x29B JUMP JUMPDEST PUSH2 0x3D3 DUP5 PUSH2 0x2AD JUMP JUMPDEST DUP2 ADD PUSH1 0x20 DUP6 LT ISZERO PUSH2 0x3E2 JUMPI DUP2 SWAP1 POP JUMPDEST PUSH2 0x3F6 PUSH2 0x3EE DUP6 PUSH2 0x2AD JUMP JUMPDEST DUP4 ADD DUP3 PUSH2 0x396 JUMP JUMPDEST POP POP JUMPDEST POP POP POP JUMP JUMPDEST PUSH0 DUP3 DUP3 SHR SWAP1 POP SWAP3 SWAP2 POP POP JUMP JUMPDEST PUSH0 PUSH2 0x419 PUSH0 NOT DUP5 PUSH1 0x8 MUL PUSH2 0x3FE JUMP JUMPDEST NOT DUP1 DUP4 AND SWAP2 POP POP SWAP3 SWAP2 POP POP JUMP JUMPDEST PUSH0 PUSH2 0x431 DUP4 DUP4 PUSH2 0x40A JUMP JUMPDEST SWAP2 POP DUP3 PUSH1 0x2 MUL DUP3 OR SWAP1 POP SWAP3 SWAP2 POP POP JUMP JUMPDEST PUSH2 0x44A DUP3 PUSH2 0x207 JUMP JUMPDEST PUSH8 0xFFFFFFFFFFFFFFFF DUP2 GT ISZERO PUSH2 0x463 JUMPI PUSH2 0x462 PUSH2 0x211 JUMP JUMPDEST JUMPDEST PUSH2 0x46D DUP3 SLOAD PUSH2 0x26B JUMP JUMPDEST PUSH2 0x478 DUP3 DUP3 DUP6 PUSH2 0x3B8 JUMP JUMPDEST PUSH0 PUSH1 0x20 SWAP1 POP PUSH1 0x1F DUP4 GT PUSH1 0x1 DUP2 EQ PUSH2 0x4A9 JUMPI PUSH0 DUP5 ISZERO PUSH2 0x497 JUMPI DUP3 DUP8 ADD MLOAD SWAP1 POP JUMPDEST PUSH2 0x4A1 DUP6 DUP3 PUSH2 0x426 JUMP JUMPDEST DUP7 SSTORE POP PUSH2 0x508 JUMP JUMPDEST PUSH1 0x1F NOT DUP5 AND PUSH2 0x4B7 DUP7 PUSH2 0x29B JUMP JUMPDEST PUSH0 JUMPDEST DUP3 DUP2 LT ISZERO PUSH2 0x4DE JUMPI DUP5 DUP10 ADD MLOAD DUP3 SSTORE PUSH1 0x1 DUP3 ADD SWAP2 POP PUSH1 0x20 DUP6 ADD SWAP5 POP PUSH1 0x20 DUP2 ADD SWAP1 POP PUSH2 0x4B9 JUMP JUMPDEST DUP7 DUP4 LT ISZERO PUSH2 0x4FB JUMPI DUP5 DUP10 ADD MLOAD PUSH2 0x4F7 PUSH1 0x1F DUP10 AND DUP3 PUSH2 0x40A JUMP JUMPDEST DUP4 SSTORE POP JUMPDEST PUSH1 0x1 PUSH1 0x2 DUP9 MUL ADD DUP9 SSTORE POP POP POP JUMPDEST POP POP POP POP POP POP JUMP JUMPDEST PUSH2 0xCBD DUP1 PUSH2 0x51D PUSH0 CODECOPY PUSH0 RETURN INVALID PUSH1 0x80 PUSH1 0x40 MSTORE CALLVALUE DUP1 ISZERO PUSH2 0xF JUMPI PUSH0 DUP1 REVERT JUMPDEST POP PUSH1 0x4 CALLDATASIZE LT PUSH2 0x86 JUMPI PUSH0 CALLDATALOAD PUSH1 0xE0 SHR DUP1 PUSH4 0xB9C3428E GT PUSH2 0x59 JUMPI DUP1 PUSH4 0xB9C3428E EQ PUSH2 0x124 JUMPI DUP1 PUSH4 0xBCA9A5C5 EQ PUSH2 0x12E JUMPI DUP1 PUSH4 0xBF3300D4 EQ PUSH2 0x15E JUMPI DUP1 PUSH4 0xE8AC013E EQ PUSH2 0x17A JUMPI PUSH2 0x86 JUMP JUMPDEST DUP1 PUSH4 0x21441BE8 EQ PUSH2 0x8A JUMPI DUP1 PUSH4 0x284E3EBD EQ PUSH2 0xBA JUMPI DUP1 PUSH4 0x2D2D03A6 EQ PUSH2 0xD8 JUMPI DUP1 PUSH4 0x4739326B EQ PUSH2 0xF4 JUMPI JUMPDEST PUSH0 DUP1 REVERT JUMPDEST PUSH2 0xA4 PUSH1 0x4 DUP1 CALLDATASIZE SUB DUP2 ADD SWAP1 PUSH2 0x9F SWAP2 SWAP1 PUSH2 0x71A JUMP JUMPDEST PUSH2 0x1AA JUMP JUMPDEST PUSH1 0x40 MLOAD PUSH2 0xB1 SWAP2 SWAP1 PUSH2 0x7C1 JUMP JUMPDEST PUSH1 0x40 MLOAD DUP1 SWAP2 SUB SWAP1 RETURN JUMPDEST PUSH2 0xC2 PUSH2 0x25D JUMP JUMPDEST PUSH1 0x40 MLOAD PUSH2 0xCF SWAP2 SWAP1 PUSH2 0x854 JUMP JUMPDEST PUSH1 0x40 MLOAD DUP1 SWAP2 SUB SWAP1 RETURN JUMPDEST PUSH2 0xF2 PUSH1 0x4 DUP1 CALLDATASIZE SUB DUP2 ADD SWAP1 PUSH2 0xED SWAP2 SWAP1 PUSH2 0x71A JUMP JUMPDEST PUSH2 0x26F JUMP JUMPDEST STOP JUMPDEST PUSH2 0x10E PUSH1 0x4 DUP1 CALLDATASIZE SUB DUP2 ADD SWAP1 PUSH2 0x109 SWAP2 SWAP1 PUSH2 0x8A0 JUMP JUMPDEST PUSH2 0x2A3 JUMP JUMPDEST PUSH1 0x40 MLOAD PUSH2 0x11B SWAP2 SWAP1 PUSH2 0x7C1 JUMP JUMPDEST PUSH1 0x40 MLOAD DUP1 SWAP2 SUB SWAP1 RETURN JUMPDEST PUSH2 0x12C PUSH2 0x348 JUMP JUMPDEST STOP JUMPDEST PUSH2 0x148 PUSH1 0x4 DUP1 CALLDATASIZE SUB DUP2 ADD SWAP1 PUSH2 0x143 SWAP2 SWAP1 PUSH2 0x8A0 JUMP JUMPDEST PUSH2 0x444 JUMP JUMPDEST PUSH1 0x40 MLOAD PUSH2 0x155 SWAP2 SWAP1 PUSH2 0x7C1 JUMP JUMPDEST PUSH1 0x40 MLOAD DUP1 SWAP2 SUB SWAP1 RETURN JUMPDEST PUSH2 0x178 PUSH1 0x4 DUP1 CALLDATASIZE SUB DUP2 ADD SWAP1 PUSH2 0x173 SWAP2 SWAP1 PUSH2 0x8CB JUMP JUMPDEST PUSH2 0x4EF JUMP JUMPDEST STOP JUMPDEST PUSH2 0x194 PUSH1 0x4 DUP1 CALLDATASIZE SUB DUP2 ADD SWAP1 PUSH2 0x18F SWAP2 SWAP1 PUSH2 0x71A JUMP JUMPDEST PUSH2 0x51F JUMP JUMPDEST PUSH1 0x40 MLOAD PUSH2 0x1A1 SWAP2 SWAP1 PUSH2 0x7C1 JUMP JUMPDEST PUSH1 0x40 MLOAD DUP1 SWAP2 SUB SWAP1 RETURN JUMPDEST PUSH1 0x2 DUP2 DUP1 MLOAD PUSH1 0x20 DUP2 ADD DUP3 ADD DUP1 MLOAD DUP5 DUP3 MSTORE PUSH1 0x20 DUP4 ADD PUSH1 0x20 DUP6 ADD KECCAK256 DUP2 DUP4 MSTORE DUP1 SWAP6 POP POP POP POP POP POP PUSH0 SWAP2 POP SWAP1 POP DUP1 SLOAD PUSH2 0x1DE SWAP1 PUSH2 0x96E JUMP JUMPDEST DUP1 PUSH1 0x1F ADD PUSH1 0x20 DUP1 SWAP2 DIV MUL PUSH1 0x20 ADD PUSH1 0x40 MLOAD SWAP1 DUP2 ADD PUSH1 0x40 MSTORE DUP1 SWAP3 SWAP2 SWAP1 DUP2 DUP2 MSTORE PUSH1 0x20 ADD DUP3 DUP1 SLOAD PUSH2 0x20A SWAP1 PUSH2 0x96E JUMP JUMPDEST DUP1 ISZERO PUSH2 0x255 JUMPI DUP1 PUSH1 0x1F LT PUSH2 0x22C JUMPI PUSH2 0x100 DUP1 DUP4 SLOAD DIV MUL DUP4 MSTORE SWAP2 PUSH1 0x20 ADD SWAP2 PUSH2 0x255 JUMP JUMPDEST DUP3 ADD SWAP2 SWAP1 PUSH0 MSTORE PUSH1 0x20 PUSH0 KECCAK256 SWAP1 JUMPDEST DUP2 SLOAD DUP2 MSTORE SWAP1 PUSH1 0x1 ADD SWAP1 PUSH1 0x20 ADD DUP1 DUP4 GT PUSH2 0x238 JUMPI DUP3 SWAP1 SUB PUSH1 0x1F AND DUP3 ADD SWAP2 JUMPDEST POP POP POP POP POP DUP2 JUMP JUMPDEST PUSH1 0x1 PUSH0 SWAP1 SLOAD SWAP1 PUSH2 0x100 EXP SWAP1 DIV PUSH1 0xFF AND DUP2 JUMP JUMPDEST PUSH0 DUP2 SWAP1 DUP1 PUSH1 0x1 DUP2 SLOAD ADD DUP1 DUP3 SSTORE DUP1 SWAP2 POP POP PUSH1 0x1 SWAP1 SUB SWAP1 PUSH0 MSTORE PUSH1 0x20 PUSH0 KECCAK256 ADD PUSH0 SWAP1 SWAP2 SWAP1 SWAP2 SWAP1 SWAP2 POP SWAP1 DUP2 PUSH2 0x29F SWAP2 SWAP1 PUSH2 0xB3B JUMP JUMPDEST POP POP JUMP JUMPDEST PUSH0 DUP2 DUP2 SLOAD DUP2 LT PUSH2 0x2B1 JUMPI PUSH0 DUP1 REVERT JUMPDEST SWAP1 PUSH0 MSTORE PUSH1 0x20 PUSH0 KECCAK256 ADD PUSH0 SWAP2 POP SWAP1 POP DUP1 SLOAD PUSH2 0x2C9 SWAP1 PUSH2 0x96E JUMP JUMPDEST DUP1 PUSH1 0x1F ADD PUSH1 0x20 DUP1 SWAP2 DIV MUL PUSH1 0x20 ADD PUSH1 0x40 MLOAD SWAP1 DUP2 ADD PUSH1 0x40 MSTORE DUP1 SWAP3 SWAP2 SWAP1 DUP2 DUP2 MSTORE PUSH1 0x20 ADD DUP3 DUP1 SLOAD PUSH2 0x2F5 SWAP1 PUSH2 0x96E JUMP JUMPDEST DUP1 ISZERO PUSH2 0x340 JUMPI DUP1 PUSH1 0x1F LT PUSH2 0x317 JUMPI PUSH2 0x100 DUP1 DUP4 SLOAD DIV MUL DUP4 MSTORE SWAP2 PUSH1 0x20 ADD SWAP2 PUSH2 0x340 JUMP JUMPDEST DUP3 ADD SWAP2 SWAP1 PUSH0 MSTORE PUSH1 0x20 PUSH0 KECCAK256 SWAP1 JUMPDEST DUP2 SLOAD DUP2 MSTORE SWAP1 PUSH1 0x1 ADD SWAP1 PUSH1 0x20 ADD DUP1 DUP4 GT PUSH2 0x323 JUMPI DUP3 SWAP1 SUB PUSH1 0x1F AND DUP3 ADD SWAP2 JUMPDEST POP POP POP POP POP DUP2 JUMP JUMPDEST PUSH0 PUSH1 0x2 DUP2 GT ISZERO PUSH2 0x35B JUMPI PUSH2 0x35A PUSH2 0x7E1 JUMP JUMPDEST JUMPDEST PUSH1 0x1 PUSH0 SWAP1 SLOAD SWAP1 PUSH2 0x100 EXP SWAP1 DIV PUSH1 0xFF AND PUSH1 0x2 DUP2 GT ISZERO PUSH2 0x37C JUMPI PUSH2 0x37B PUSH2 0x7E1 JUMP JUMPDEST JUMPDEST SUB PUSH2 0x3B0 JUMPI PUSH1 0x2 PUSH1 0x1 PUSH0 PUSH2 0x100 EXP DUP2 SLOAD DUP2 PUSH1 0xFF MUL NOT AND SWAP1 DUP4 PUSH1 0x2 DUP2 GT ISZERO PUSH2 0x3A6 JUMPI PUSH2 0x3A5 PUSH2 0x7E1 JUMP JUMPDEST JUMPDEST MUL OR SWAP1 SSTORE POP PUSH2 0x442 JUMP JUMPDEST PUSH1 0x2 DUP1 DUP2 GT ISZERO PUSH2 0x3C3 JUMPI PUSH2 0x3C2 PUSH2 0x7E1 JUMP JUMPDEST JUMPDEST PUSH1 0x1 PUSH0 SWAP1 SLOAD SWAP1 PUSH2 0x100 EXP SWAP1 DIV PUSH1 0xFF AND PUSH1 0x2 DUP2 GT ISZERO PUSH2 0x3E4 JUMPI PUSH2 0x3E3 PUSH2 0x7E1 JUMP JUMPDEST JUMPDEST SUB PUSH2 0x417 JUMPI PUSH1 0x1 DUP1 PUSH0 PUSH2 0x100 EXP DUP2 SLOAD DUP2 PUSH1 0xFF MUL NOT AND SWAP1 DUP4 PUSH1 0x2 DUP2 GT ISZERO PUSH2 0x40D JUMPI PUSH2 0x40C PUSH2 0x7E1 JUMP JUMPDEST JUMPDEST MUL OR SWAP1 SSTORE POP PUSH2 0x441 JUMP JUMPDEST PUSH0 PUSH1 0x1 PUSH0 PUSH2 0x100 EXP DUP2 SLOAD DUP2 PUSH1 0xFF MUL NOT AND SWAP1 DUP4 PUSH1 0x2 DUP2 GT ISZERO PUSH2 0x43B JUMPI PUSH2 0x43A PUSH2 0x7E1 JUMP JUMPDEST JUMPDEST MUL OR SWAP1 SSTORE POP JUMPDEST JUMPDEST JUMP JUMPDEST PUSH1 0x60 PUSH0 DUP3 DUP2 SLOAD DUP2 LT PUSH2 0x459 JUMPI PUSH2 0x458 PUSH2 0xC0A JUMP JUMPDEST JUMPDEST SWAP1 PUSH0 MSTORE PUSH1 0x20 PUSH0 KECCAK256 ADD DUP1 SLOAD PUSH2 0x46C SWAP1 PUSH2 0x96E JUMP JUMPDEST DUP1 PUSH1 0x1F ADD PUSH1 0x20 DUP1 SWAP2 DIV MUL PUSH1 0x20 ADD PUSH1 0x40 MLOAD SWAP1 DUP2 ADD PUSH1 0x40 MSTORE DUP1 SWAP3 SWAP2 SWAP1 DUP2 DUP2 MSTORE PUSH1 0x20 ADD DUP3 DUP1 SLOAD PUSH2 0x498 SWAP1 PUSH2 0x96E JUMP JUMPDEST DUP1 ISZERO PUSH2 0x4E3 JUMPI DUP1 PUSH1 0x1F LT PUSH2 0x4BA JUMPI PUSH2 0x100 DUP1 DUP4 SLOAD DIV MUL DUP4 MSTORE SWAP2 PUSH1 0x20 ADD SWAP2 PUSH2 0x4E3 JUMP JUMPDEST DUP3 ADD SWAP2 SWAP1 PUSH0 MSTORE PUSH1 0x20 PUSH0 KECCAK256 SWAP1 JUMPDEST DUP2 SLOAD DUP2 MSTORE SWAP1 PUSH1 0x1 ADD SWAP1 PUSH1 0x20 ADD DUP1 DUP4 GT PUSH2 0x4C6 JUMPI DUP3 SWAP1 SUB PUSH1 0x1F AND DUP3 ADD SWAP2 JUMPDEST POP POP POP POP POP SWAP1 POP SWAP2 SWAP1 POP JUMP JUMPDEST DUP1 PUSH1 0x2 DUP4 PUSH1 0x40 MLOAD PUSH2 0x500 SWAP2 SWAP1 PUSH2 0xC71 JUMP JUMPDEST SWAP1 DUP2 MSTORE PUSH1 0x20 ADD PUSH1 0x40 MLOAD DUP1 SWAP2 SUB SWAP1 KECCAK256 SWAP1 DUP2 PUSH2 0x51A SWAP2 SWAP1 PUSH2 0xB3B JUMP JUMPDEST POP POP POP JUMP JUMPDEST PUSH1 0x60 PUSH1 0x2 DUP3 PUSH1 0x40 MLOAD PUSH2 0x531 SWAP2 SWAP1 PUSH2 0xC71 JUMP JUMPDEST SWAP1 DUP2 MSTORE PUSH1 0x20 ADD PUSH1 0x40 MLOAD DUP1 SWAP2 SUB SWAP1 KECCAK256 DUP1 SLOAD PUSH2 0x54A SWAP1 PUSH2 0x96E JUMP JUMPDEST DUP1 PUSH1 0x1F ADD PUSH1 0x20 DUP1 SWAP2 DIV MUL PUSH1 0x20 ADD PUSH1 0x40 MLOAD SWAP1 DUP2 ADD PUSH1 0x40 MSTORE DUP1 SWAP3 SWAP2 SWAP1 DUP2 DUP2 MSTORE PUSH1 0x20 ADD DUP3 DUP1 SLOAD PUSH2 0x576 SWAP1 PUSH2 0x96E JUMP JUMPDEST DUP1 ISZERO PUSH2 0x5C1 JUMPI DUP1 PUSH1 0x1F LT PUSH2 0x598 JUMPI PUSH2 0x100 DUP1 DUP4 SLOAD DIV MUL DUP4 MSTORE SWAP2 PUSH1 0x20 ADD SWAP2 PUSH2 0x5C1 JUMP JUMPDEST DUP3 ADD SWAP2 SWAP1 PUSH0 MSTORE PUSH1 0x20 PUSH0 KECCAK256 SWAP1 JUMPDEST DUP2 SLOAD DUP2 MSTORE SWAP1 PUSH1 0x1 ADD SWAP1 PUSH1 0x20 ADD DUP1 DUP4 GT PUSH2 0x5A4 JUMPI DUP3 SWAP1 SUB PUSH1 0x1F AND DUP3 ADD SWAP2 JUMPDEST POP POP POP POP POP SWAP1 POP SWAP2 SWAP1 POP JUMP JUMPDEST PUSH0 PUSH1 0x40 MLOAD SWAP1 POP SWAP1 JUMP JUMPDEST PUSH0 DUP1 REVERT JUMPDEST PUSH0 DUP1 REVERT JUMPDEST PUSH0 DUP1 REVERT JUMPDEST PUSH0 DUP1 REVERT JUMPDEST PUSH0 PUSH1 0x1F NOT PUSH1 0x1F DUP4 ADD AND SWAP1 POP SWAP2 SWAP1 POP JUMP JUMPDEST PUSH32 0x4E487B7100000000000000000000000000000000000000000000000000000000 PUSH0 MSTORE PUSH1 0x41 PUSH1 0x4 MSTORE PUSH1 0x24 PUSH0 REVERT JUMPDEST PUSH2 0x62C DUP3 PUSH2 0x5E6 JUMP JUMPDEST DUP2 ADD DUP2 DUP2 LT PUSH8 0xFFFFFFFFFFFFFFFF DUP3 GT OR ISZERO PUSH2 0x64B JUMPI PUSH2 0x64A PUSH2 0x5F6 JUMP JUMPDEST JUMPDEST DUP1 PUSH1 0x40 MSTORE POP POP POP JUMP JUMPDEST PUSH0 PUSH2 0x65D PUSH2 0x5CD JUMP JUMPDEST SWAP1 POP PUSH2 0x669 DUP3 DUP3 PUSH2 0x623 JUMP JUMPDEST SWAP2 SWAP1 POP JUMP JUMPDEST PUSH0 PUSH8 0xFFFFFFFFFFFFFFFF DUP3 GT ISZERO PUSH2 0x688 JUMPI PUSH2 0x687 PUSH2 0x5F6 JUMP JUMPDEST JUMPDEST PUSH2 0x691 DUP3 PUSH2 0x5E6 JUMP JUMPDEST SWAP1 POP PUSH1 0x20 DUP2 ADD SWAP1 POP SWAP2 SWAP1 POP JUMP JUMPDEST DUP3 DUP2 DUP4 CALLDATACOPY PUSH0 DUP4 DUP4 ADD MSTORE POP POP POP JUMP JUMPDEST PUSH0 PUSH2 0x6BE PUSH2 0x6B9 DUP5 PUSH2 0x66E JUMP JUMPDEST PUSH2 0x654 JUMP JUMPDEST SWAP1 POP DUP3 DUP2 MSTORE PUSH1 0x20 DUP2 ADD DUP5 DUP5 DUP5 ADD GT ISZERO PUSH2 0x6DA JUMPI PUSH2 0x6D9 PUSH2 0x5E2 JUMP JUMPDEST JUMPDEST PUSH2 0x6E5 DUP5 DUP3 DUP6 PUSH2 0x69E JUMP JUMPDEST POP SWAP4 SWAP3 POP POP POP JUMP JUMPDEST PUSH0 DUP3 PUSH1 0x1F DUP4 ADD SLT PUSH2 0x701 JUMPI PUSH2 0x700 PUSH2 0x5DE JUMP JUMPDEST JUMPDEST DUP2 CALLDATALOAD PUSH2 0x711 DUP5 DUP3 PUSH1 0x20 DUP7 ADD PUSH2 0x6AC JUMP JUMPDEST SWAP2 POP POP SWAP3 SWAP2 POP POP JUMP JUMPDEST PUSH0 PUSH1 0x20 DUP3 DUP5 SUB SLT ISZERO PUSH2 0x72F JUMPI PUSH2 0x72E PUSH2 0x5D6 JUMP JUMPDEST JUMPDEST PUSH0 DUP3 ADD CALLDATALOAD PUSH8 0xFFFFFFFFFFFFFFFF DUP2 GT ISZERO PUSH2 0x74C JUMPI PUSH2 0x74B PUSH2 0x5DA JUMP JUMPDEST JUMPDEST PUSH2 0x758 DUP5 DUP3 DUP6 ADD PUSH2 0x6ED JUMP JUMPDEST SWAP2 POP POP SWAP3 SWAP2 POP POP JUMP JUMPDEST PUSH0 DUP2 MLOAD SWAP1 POP SWAP2 SWAP1 POP JUMP JUMPDEST PUSH0 DUP3 DUP3 MSTORE PUSH1 0x20 DUP3 ADD SWAP1 POP SWAP3 SWAP2 POP POP JUMP JUMPDEST DUP3 DUP2 DUP4 MCOPY PUSH0 DUP4 DUP4 ADD MSTORE POP POP POP JUMP JUMPDEST PUSH0 PUSH2 0x793 DUP3 PUSH2 0x761 JUMP JUMPDEST PUSH2 0x79D DUP2 DUP6 PUSH2 0x76B JUMP JUMPDEST SWAP4 POP PUSH2 0x7AD DUP2 DUP6 PUSH1 0x20 DUP7 ADD PUSH2 0x77B JUMP JUMPDEST PUSH2 0x7B6 DUP2 PUSH2 0x5E6 JUMP JUMPDEST DUP5 ADD SWAP2 POP POP SWAP3 SWAP2 POP POP JUMP JUMPDEST PUSH0 PUSH1 0x20 DUP3 ADD SWAP1 POP DUP2 DUP2 SUB PUSH0 DUP4 ADD MSTORE PUSH2 0x7D9 DUP2 DUP5 PUSH2 0x789 JUMP JUMPDEST SWAP1 POP SWAP3 SWAP2 POP POP JUMP JUMPDEST PUSH32 0x4E487B7100000000000000000000000000000000000000000000000000000000 PUSH0 MSTORE PUSH1 0x21 PUSH1 0x4 MSTORE PUSH1 0x24 PUSH0 REVERT JUMPDEST PUSH1 0x3 DUP2 LT PUSH2 0x81F JUMPI PUSH2 0x81E PUSH2 0x7E1 JUMP JUMPDEST JUMPDEST POP JUMP JUMPDEST PUSH0 DUP2 SWAP1 POP PUSH2 0x82F DUP3 PUSH2 0x80E JUMP JUMPDEST SWAP2 SWAP1 POP JUMP JUMPDEST PUSH0 PUSH2 0x83E DUP3 PUSH2 0x822 JUMP JUMPDEST SWAP1 POP SWAP2 SWAP1 POP JUMP JUMPDEST PUSH2 0x84E DUP2 PUSH2 0x834 JUMP JUMPDEST DUP3 MSTORE POP POP JUMP JUMPDEST PUSH0 PUSH1 0x20 DUP3 ADD SWAP1 POP PUSH2 0x867 PUSH0 DUP4 ADD DUP5 PUSH2 0x845 JUMP JUMPDEST SWAP3 SWAP2 POP POP JUMP JUMPDEST PUSH0 DUP2 SWAP1 POP SWAP2 SWAP1 POP JUMP JUMPDEST PUSH2 0x87F DUP2 PUSH2 0x86D JUMP JUMPDEST DUP2 EQ PUSH2 0x889 JUMPI PUSH0 DUP1 REVERT JUMPDEST POP JUMP JUMPDEST PUSH0 DUP2 CALLDATALOAD SWAP1 POP PUSH2 0x89A DUP2 PUSH2 0x876 JUMP JUMPDEST SWAP3 SWAP2 POP POP JUMP JUMPDEST PUSH0 PUSH1 0x20 DUP3 DUP5 SUB SLT ISZERO PUSH2 0x8B5 JUMPI PUSH2 0x8B4 PUSH2 0x5D6 JUMP JUMPDEST JUMPDEST PUSH0 PUSH2 0x8C2 DUP5 DUP3 DUP6 ADD PUSH2 0x88C JUMP JUMPDEST SWAP2 POP POP SWAP3 SWAP2 POP POP JUMP JUMPDEST PUSH0 DUP1 PUSH1 0x40 DUP4 DUP6 SUB SLT ISZERO PUSH2 0x8E1 JUMPI PUSH2 0x8E0 PUSH2 0x5D6 JUMP JUMPDEST JUMPDEST PUSH0 DUP4 ADD CALLDATALOAD PUSH8 0xFFFFFFFFFFFFFFFF DUP2 GT ISZERO PUSH2 0x8FE JUMPI PUSH2 0x8FD PUSH2 0x5DA JUMP JUMPDEST JUMPDEST PUSH2 0x90A DUP6 DUP3 DUP7 ADD PUSH2 0x6ED JUMP JUMPDEST SWAP3 POP POP PUSH1 0x20 DUP4 ADD CALLDATALOAD PUSH8 0xFFFFFFFFFFFFFFFF DUP2 GT ISZERO PUSH2 0x92B JUMPI PUSH2 0x92A PUSH2 0x5DA JUMP JUMPDEST JUMPDEST PUSH2 0x937 DUP6 DUP3 DUP7 ADD PUSH2 0x6ED JUMP JUMPDEST SWAP2 POP POP SWAP3 POP SWAP3 SWAP1 POP JUMP JUMPDEST PUSH32 0x4E487B7100000000000000000000000000000000000000000000000000000000 PUSH0 MSTORE PUSH1 0x22 PUSH1 0x4 MSTORE PUSH1 0x24 PUSH0 REVERT JUMPDEST PUSH0 PUSH1 0x2 DUP3 DIV SWAP1 POP PUSH1 0x1 DUP3 AND DUP1 PUSH2 0x985 JUMPI PUSH1 0x7F DUP3 AND SWAP2 POP JUMPDEST PUSH1 0x20 DUP3 LT DUP2 SUB PUSH2 0x998 JUMPI PUSH2 0x997 PUSH2 0x941 JUMP JUMPDEST JUMPDEST POP SWAP2 SWAP1 POP JUMP JUMPDEST PUSH0 DUP2 SWAP1 POP DUP2 PUSH0 MSTORE PUSH1 0x20 PUSH0 KECCAK256 SWAP1 POP SWAP2 SWAP1 POP JUMP JUMPDEST PUSH0 PUSH1 0x20 PUSH1 0x1F DUP4 ADD DIV SWAP1 POP SWAP2 SWAP1 POP JUMP JUMPDEST PUSH0 DUP3 DUP3 SHL SWAP1 POP SWAP3 SWAP2 POP POP JUMP JUMPDEST PUSH0 PUSH1 0x8 DUP4 MUL PUSH2 0x9FA PUSH32 0xFFFFFFFFFFFFFFFFFFFFFFFFFFFFFFFFFFFFFFFFFFFFFFFFFFFFFFFFFFFFFFFF DUP3 PUSH2 0x9BF JUMP JUMPDEST PUSH2 0xA04 DUP7 DUP4 PUSH2 0x9BF JUMP JUMPDEST SWAP6 POP DUP1 NOT DUP5 AND SWAP4 POP DUP1 DUP7 AND DUP5 OR SWAP3 POP POP POP SWAP4 SWAP3 POP POP POP JUMP JUMPDEST PUSH0 DUP2 SWAP1 POP SWAP2 SWAP1 POP JUMP JUMPDEST PUSH0 PUSH2 0xA3F PUSH2 0xA3A PUSH2 0xA35 DUP5 PUSH2 0x86D JUMP JUMPDEST PUSH2 0xA1C JUMP JUMPDEST PUSH2 0x86D JUMP JUMPDEST SWAP1 POP SWAP2 SWAP1 POP JUMP JUMPDEST PUSH0 DUP2 SWAP1 POP SWAP2 SWAP1 POP JUMP JUMPDEST PUSH2 0xA58 DUP4 PUSH2 0xA25 JUMP JUMPDEST PUSH2 0xA6C PUSH2 0xA64 DUP3 PUSH2 0xA46 JUMP JUMPDEST DUP5 DUP5 SLOAD PUSH2 0x9CB JUMP JUMPDEST DUP3 SSTORE POP POP POP POP JUMP JUMPDEST PUSH0 SWAP1 JUMP JUMPDEST PUSH2 0xA80 PUSH2 0xA74 JUMP JUMPDEST PUSH2 0xA8B DUP2 DUP5 DUP5 PUSH2 0xA4F JUMP JUMPDEST POP POP POP JUMP JUMPDEST JUMPDEST DUP2 DUP2 LT ISZERO PUSH2 0xAAE JUMPI PUSH2 0xAA3 PUSH0 DUP3 PUSH2 0xA78 JUMP JUMPDEST PUSH1 0x1 DUP2 ADD SWAP1 POP PUSH2 0xA91 JUMP JUMPDEST POP POP JUMP JUMPDEST PUSH1 0x1F DUP3 GT ISZERO PUSH2 0xAF3 JUMPI PUSH2 0xAC4 DUP2 PUSH2 0x99E JUMP JUMPDEST PUSH2 0xACD DUP5 PUSH2 0x9B0 JUMP JUMPDEST DUP2 ADD PUSH1 0x20 DUP6 LT ISZERO PUSH2 0xADC JUMPI DUP2 SWAP1 POP JUMPDEST PUSH2 0xAF0 PUSH2 0xAE8 DUP6 PUSH2 0x9B0 JUMP JUMPDEST DUP4 ADD DUP3 PUSH2 0xA90 JUMP JUMPDEST POP POP JUMPDEST POP POP POP JUMP JUMPDEST PUSH0 DUP3 DUP3 SHR SWAP1 POP SWAP3 SWAP2 POP POP JUMP JUMPDEST PUSH0 PUSH2 0xB13 PUSH0 NOT DUP5 PUSH1 0x8 MUL PUSH2 0xAF8 JUMP JUMPDEST NOT DUP1 DUP4 AND SWAP2 POP POP SWAP3 SWAP2 POP POP JUMP JUMPDEST PUSH0 PUSH2 0xB2B DUP4 DUP4 PUSH2 0xB04 JUMP JUMPDEST SWAP2 POP DUP3 PUSH1 0x2 MUL DUP3 OR SWAP1 POP SWAP3 SWAP2 POP POP JUMP JUMPDEST PUSH2 0xB44 DUP3 PUSH2 0x761 JUMP JUMPDEST PUSH8 0xFFFFFFFFFFFFFFFF DUP2 GT ISZERO PUSH2 0xB5D JUMPI PUSH2 0xB5C PUSH2 0x5F6 JUMP JUMPDEST JUMPDEST PUSH2 0xB67 DUP3 SLOAD PUSH2 0x96E JUMP JUMPDEST PUSH2 0xB72 DUP3 DUP3 DUP6 PUSH2 0xAB2 JUMP JUMPDEST PUSH0 PUSH1 0x20 SWAP1 POP PUSH1 0x1F DUP4 GT PUSH1 0x1 DUP2 EQ PUSH2 0xBA3 JUMPI PUSH0 DUP5 ISZERO PUSH2 0xB91 JUMPI DUP3 DUP8 ADD MLOAD SWAP1 POP JUMPDEST PUSH2 0xB9B DUP6 DUP3 PUSH2 0xB20 JUMP JUMPDEST DUP7 SSTORE POP PUSH2 0xC02 JUMP JUMPDEST PUSH1 0x1F NOT DUP5 AND PUSH2 0xBB1 DUP7 PUSH2 0x99E JUMP JUMPDEST PUSH0 JUMPDEST DUP3 DUP2 LT ISZERO PUSH2 0xBD8 JUMPI DUP5 DUP10 ADD MLOAD DUP3 SSTORE PUSH1 0x1 DUP3 ADD SWAP2 POP PUSH1 0x20 DUP6 ADD SWAP5 POP PUSH1 0x20 DUP2 ADD SWAP1 POP PUSH2 0xBB3 JUMP JUMPDEST DUP7 DUP4 LT ISZERO PUSH2 0xBF5 JUMPI DUP5 DUP10 ADD MLOAD PUSH2 0xBF1 PUSH1 0x1F DUP10 AND DUP3 PUSH2 0xB04 JUMP JUMPDEST DUP4 SSTORE POP JUMPDEST PUSH1 0x1 PUSH1 0x2 DUP9 MUL ADD DUP9 SSTORE POP POP POP JUMPDEST POP POP POP POP POP POP JUMP JUMPDEST PUSH32 0x4E487B7100000000000000000000000000000000000000000000000000000000 PUSH0 MSTORE PUSH1 0x32 PUSH1 0x4 MSTORE PUSH1 0x24 PUSH0 REVERT JUMPDEST PUSH0 DUP2 SWAP1 POP SWAP3 SWAP2 POP POP JUMP JUMPDEST PUSH0 PUSH2 0xC4B DUP3 PUSH2 0x761 JUMP JUMPDEST PUSH2 0xC55 DUP2 DUP6 PUSH2 0xC37 JUMP JUMPDEST SWAP4 POP PUSH2 0xC65 DUP2 DUP6 PUSH1 0x20 DUP7 ADD PUSH2 0x77B JUMP JUMPDEST DUP1 DUP5 ADD SWAP2 POP POP SWAP3 SWAP2 POP POP JUMP JUMPDEST PUSH0 PUSH2 0xC7C DUP3 DUP5 PUSH2 0xC41 JUMP JUMPDEST SWAP2 POP DUP2 SWAP1 POP SWAP3 SWAP2 POP POP JUMP INVALID LOG2 PUSH5 0x6970667358 0x22 SLT KECCAK256 TLOAD 0xB3 0xEE 0xF9 SELFDESTRUCT RETURNDATACOPY SWAP7 0xB6 0xA7 0xC8 0xED DUP4 0xE PUSH31 0xBFB0AB8A47C42374AA2A02BD729ED17C3D3264736F6C634300081A00330000 "
				},
				"gasEstimates": {
					"creation": {
						"codeDepositCost": "652200",
						"executionCost": "infinite",
						"totalCost": "infinite"
					},
					"external": {
						"addEmployee(string)": "infinite",
						"addNumber(string,string)": "infinite",
						"changeLight()": "28860",
						"currentLight()": "2577",
						"employees(uint256)": "infinite",
						"getEmployee(uint256)": "infinite",
						"getNumber(string)": "infinite",
						"phoneBook(string)": "infinite"
					}
				},
				"methodIdentifiers": {
					"addEmployee(string)": "2d2d03a6",
					"addNumber(string,string)": "bf3300d4",
					"changeLight()": "b9c3428e",
					"currentLight()": "284e3ebd",
					"employees(uint256)": "4739326b",
					"getEmployee(uint256)": "bca9a5c5",
					"getNumber(string)": "e8ac013e",
					"phoneBook(string)": "21441be8"
				}
			},
			"storageLayout": {
				"storage": [
					{
						"astId": 8,
						"contract": "contracts/Practice.sol:MyPractice",
						"label": "employees",
						"offset": 0,
						"slot": "0",
						"type": "t_array(t_string_storage)dyn_storage"
					},
					{
						"astId": 41,
						"contract": "contracts/Practice.sol:MyPractice",
						"label": "currentLight",
						"offset": 0,
						"slot": "1",
						"type": "t_enum(TrafficLight)36"
					},
					{
						"astId": 77,
						"contract": "contracts/Practice.sol:MyPractice",
						"label": "phoneBook",
						"offset": 0,
						"slot": "2",
						"type": "t_mapping(t_string_memory_ptr,t_string_storage)"
					}
				],
				"types": {
					"t_array(t_string_storage)dyn_storage": {
						"base": "t_string_storage",
						"encoding": "dynamic_array",
						"label": "string[]",
						"numberOfBytes": "32"
					},
					"t_enum(TrafficLight)36": {
						"encoding": "inplace",
						"label": "enum MyPractice.TrafficLight",
						"numberOfBytes": "1"
					},
					"t_mapping(t_string_memory_ptr,t_string_storage)": {
						"encoding": "mapping",
						"key": "t_string_memory_ptr",
						"label": "mapping(string => string)",
						"numberOfBytes": "32",
						"value": "t_string_storage"
					},
					"t_string_memory_ptr": {
						"encoding": "bytes",
						"label": "string",
						"numberOfBytes": "32"
					},
					"t_string_storage": {
						"encoding": "bytes",
						"label": "string",
						"numberOfBytes": "32"
					}
				}
			},
			"userdoc": {
				"kind": "user",
				"methods": {},
				"version": 1
			}
		}
	}
}