{
	"contracts/SelfDestruct.sol": {
		"SelfDestructSender": {
			"abi": [
				{
					"inputs": [],
					"stateMutability": "payable",
					"type": "constructor"
				},
				{
					"inputs": [],
					"name": "vault",
					"outputs": [
						{
							"internalType": "address payable",
							"name": "",
							"type": "address"
						}
					],
					"stateMutability": "view",
					"type": "function"
				}
			],
			"devdoc": {
				"kind": "dev",
				"methods": {},
				"version": 1
			},
			"evm": {
				"assembly": "    /* \"contracts/SelfDestruct.sol\":60:334  contract SelfDestructSender {... */\n  mstore(0x40, 0x80)\n    /* \"contracts/SelfDestruct.sol\":134:176  0x5B9AFe590174Cddd1C99374DEC490A87f4D04776 */\n  0x5b9afe590174cddd1c99374dec490a87f4d04776\n    /* \"contracts/SelfDestruct.sol\":95:177  address payable public vault = payable(0x5B9AFe590174Cddd1C99374DEC490A87f4D04776) */\n  0x00\n  dup1\n  0x0100\n  exp\n  dup2\n  sload\n  dup2\n  0xffffffffffffffffffffffffffffffffffffffff\n  mul\n  not\n  and\n  swap1\n  dup4\n  0xffffffffffffffffffffffffffffffffffffffff\n  and\n  mul\n  or\n  swap1\n  sstore\n  pop\n    /* \"contracts/SelfDestruct.sol\":240:252  0.0005 ether */\n  0x01c6bf52634000\n    /* \"contracts/SelfDestruct.sol\":227:236  msg.value */\n  callvalue\n    /* \"contracts/SelfDestruct.sol\":227:252  msg.value == 0.0005 ether */\n  eq\n    /* \"contracts/SelfDestruct.sol\":219:287  require(msg.value == 0.0005 ether, \"Must send exactly 0.0005 ether\") */\n  tag_3\n  jumpi\n  mload(0x40)\n  0x08c379a000000000000000000000000000000000000000000000000000000000\n  dup2\n  mstore\n  0x04\n  add\n  tag_4\n  swap1\n  tag_5\n  jump\t// in\ntag_4:\n  mload(0x40)\n  dup1\n  swap2\n  sub\n  swap1\n  revert\ntag_3:\n    /* \"contracts/SelfDestruct.sol\":311:316  vault */\n  0x00\n  dup1\n  sload\n  swap1\n  0x0100\n  exp\n  swap1\n  div\n  0xffffffffffffffffffffffffffffffffffffffff\n  and\n    /* \"contracts/SelfDestruct.sol\":298:317  selfdestruct(vault) */\n  0xffffffffffffffffffffffffffffffffffffffff\n  and\n  selfdestruct\n    /* \"#utility.yul\":7:176   */\ntag_7:\n    /* \"#utility.yul\":91:102   */\n  0x00\n    /* \"#utility.yul\":125:131   */\n  dup3\n    /* \"#utility.yul\":120:123   */\n  dup3\n    /* \"#utility.yul\":113:132   */\n  mstore\n    /* \"#utility.yul\":165:169   */\n  0x20\n    /* \"#utility.yul\":160:163   */\n  dup3\n    /* \"#utility.yul\":156:170   */\n  add\n    /* \"#utility.yul\":141:170   */\n  swap1\n  pop\n    /* \"#utility.yul\":7:176   */\n  swap3\n  swap2\n  pop\n  pop\n  jump\t// out\n    /* \"#utility.yul\":182:362   */\ntag_8:\n    /* \"#utility.yul\":322:354   */\n  0x4d7573742073656e642065786163746c7920302e303030352065746865720000\n    /* \"#utility.yul\":318:319   */\n  0x00\n    /* \"#utility.yul\":310:316   */\n  dup3\n    /* \"#utility.yul\":306:320   */\n  add\n    /* \"#utility.yul\":299:355   */\n  mstore\n    /* \"#utility.yul\":182:362   */\n  pop\n  jump\t// out\n    /* \"#utility.yul\":368:734   */\ntag_9:\n    /* \"#utility.yul\":510:513   */\n  0x00\n    /* \"#utility.yul\":531:598   */\n  tag_14\n    /* \"#utility.yul\":595:597   */\n  0x1e\n    /* \"#utility.yul\":590:593   */\n  dup4\n    /* \"#utility.yul\":531:598   */\n  tag_7\n  jump\t// in\ntag_14:\n    /* \"#utility.yul\":524:598   */\n  swap2\n  pop\n    /* \"#utility.yul\":607:700   */\n  tag_15\n    /* \"#utility.yul\":696:699   */\n  dup3\n    /* \"#utility.yul\":607:700   */\n  tag_8\n  jump\t// in\ntag_15:\n    /* \"#utility.yul\":725:727   */\n  0x20\n    /* \"#utility.yul\":720:723   */\n  dup3\n    /* \"#utility.yul\":716:728   */\n  add\n    /* \"#utility.yul\":709:728   */\n  swap1\n  pop\n    /* \"#utility.yul\":368:734   */\n  swap2\n  swap1\n  pop\n  jump\t// out\n    /* \"#utility.yul\":740:1159   */\ntag_5:\n    /* \"#utility.yul\":906:910   */\n  0x00\n    /* \"#utility.yul\":944:946   */\n  0x20\n    /* \"#utility.yul\":933:942   */\n  dup3\n    /* \"#utility.yul\":929:947   */\n  add\n    /* \"#utility.yul\":921:947   */\n  swap1\n  pop\n    /* \"#utility.yul\":993:1002   */\n  dup2\n    /* \"#utility.yul\":987:991   */\n  dup2\n    /* \"#utility.yul\":983:1003   */\n  sub\n    /* \"#utility.yul\":979:980   */\n  0x00\n    /* \"#utility.yul\":968:977   */\n  dup4\n    /* \"#utility.yul\":964:981   */\n  add\n    /* \"#utility.yul\":957:1004   */\n  mstore\n    /* \"#utility.yul\":1021:1152   */\n  tag_17\n    /* \"#utility.yul\":1147:1151   */\n  dup2\n    /* \"#utility.yul\":1021:1152   */\n  tag_9\n  jump\t// in\ntag_17:\n    /* \"#utility.yul\":1013:1152   */\n  swap1\n  pop\n    /* \"#utility.yul\":740:1159   */\n  swap2\n  swap1\n  pop\n  jump\t// out\nstop\n\nsub_0: assembly {\n        /* \"contracts/SelfDestruct.sol\":60:334  contract SelfDestructSender {... */\n      mstore(0x40, 0x80)\n      callvalue\n      dup1\n      iszero\n      tag_1\n      jumpi\n      0x00\n      dup1\n      revert\n    tag_1:\n      pop\n      jumpi(tag_2, lt(calldatasize, 0x04))\n      shr(0xe0, calldataload(0x00))\n      dup1\n      0xfbfa77cf\n      eq\n      tag_3\n      jumpi\n    tag_2:\n      0x00\n      dup1\n      revert\n        /* \"contracts/SelfDestruct.sol\":95:177  address payable public vault = payable(0x5B9AFe590174Cddd1C99374DEC490A87f4D04776) */\n    tag_3:\n      tag_4\n      tag_5\n      jump\t// in\n    tag_4:\n      mload(0x40)\n      tag_6\n      swap2\n      swap1\n      tag_7\n      jump\t// in\n    tag_6:\n      mload(0x40)\n      dup1\n      swap2\n      sub\n      swap1\n      return\n    tag_5:\n      0x00\n      dup1\n      sload\n      swap1\n      0x0100\n      exp\n      swap1\n      div\n      0xffffffffffffffffffffffffffffffffffffffff\n      and\n      dup2\n      jump\t// out\n        /* \"#utility.yul\":7:133   */\n    tag_8:\n        /* \"#utility.yul\":44:51   */\n      0x00\n        /* \"#utility.yul\":84:126   */\n      0xffffffffffffffffffffffffffffffffffffffff\n        /* \"#utility.yul\":77:82   */\n      dup3\n        /* \"#utility.yul\":73:127   */\n      and\n        /* \"#utility.yul\":62:127   */\n      swap1\n      pop\n        /* \"#utility.yul\":7:133   */\n      swap2\n      swap1\n      pop\n      jump\t// out\n        /* \"#utility.yul\":139:243   */\n    tag_9:\n        /* \"#utility.yul\":184:191   */\n      0x00\n        /* \"#utility.yul\":213:237   */\n      tag_14\n        /* \"#utility.yul\":231:236   */\n      dup3\n        /* \"#utility.yul\":213:237   */\n      tag_8\n      jump\t// in\n    tag_14:\n        /* \"#utility.yul\":202:237   */\n      swap1\n      pop\n        /* \"#utility.yul\":139:243   */\n      swap2\n      swap1\n      pop\n      jump\t// out\n        /* \"#utility.yul\":249:391   */\n    tag_10:\n        /* \"#utility.yul\":352:384   */\n      tag_16\n        /* \"#utility.yul\":378:383   */\n      dup2\n        /* \"#utility.yul\":352:384   */\n      tag_9\n      jump\t// in\n    tag_16:\n        /* \"#utility.yul\":347:350   */\n      dup3\n        /* \"#utility.yul\":340:385   */\n      mstore\n        /* \"#utility.yul\":249:391   */\n      pop\n      pop\n      jump\t// out\n        /* \"#utility.yul\":397:651   */\n    tag_7:\n        /* \"#utility.yul\":506:510   */\n      0x00\n        /* \"#utility.yul\":544:546   */\n      0x20\n        /* \"#utility.yul\":533:542   */\n      dup3\n        /* \"#utility.yul\":529:547   */\n      add\n        /* \"#utility.yul\":521:547   */\n      swap1\n      pop\n        /* \"#utility.yul\":557:644   */\n      tag_18\n        /* \"#utility.yul\":641:642   */\n      0x00\n        /* \"#utility.yul\":630:639   */\n      dup4\n        /* \"#utility.yul\":626:643   */\n      add\n        /* \"#utility.yul\":617:623   */\n      dup5\n        /* \"#utility.yul\":557:644   */\n      tag_10\n      jump\t// in\n    tag_18:\n        /* \"#utility.yul\":397:651   */\n      swap3\n      swap2\n      pop\n      pop\n      jump\t// out\n\n    auxdata: 0xa2646970667358221220a28fe1f4378759bf8777e6b88c0f1335f0e44a109d6039c17249f59d081b201d64736f6c63430008140033\n}\n",
				"bytecode": {
					"linkReferences": {},
					"object": "6080604052735b9afe590174cddd1c99374dec490a87f4d047765f806101000a81548173ffffffffffffffffffffffffffffffffffffffff021916908373ffffffffffffffffffffffffffffffffffffffff1602179055506601c6bf5263400034146100a0576040517f08c379a000000000000000000000000000000000000000000000000000000000815260040161009790610132565b60405180910390fd5b5f8054906101000a900473ffffffffffffffffffffffffffffffffffffffff1673ffffffffffffffffffffffffffffffffffffffff16ff5b5f82825260208201905092915050565b7f4d7573742073656e642065786163746c7920302e3030303520657468657200005f82015250565b5f61011c601e836100d8565b9150610127826100e8565b602082019050919050565b5f6020820190508181035f83015261014981610110565b905091905056fe",
					"opcodes": "PUSH1 0x80 PUSH1 0x40 MSTORE PUSH20 0x5B9AFE590174CDDD1C99374DEC490A87F4D04776 PUSH0 DUP1 PUSH2 0x100 EXP DUP2 SLOAD DUP2 PUSH20 0xFFFFFFFFFFFFFFFFFFFFFFFFFFFFFFFFFFFFFFFF MUL NOT AND SWAP1 DUP4 PUSH20 0xFFFFFFFFFFFFFFFFFFFFFFFFFFFFFFFFFFFFFFFF AND MUL OR SWAP1 SSTORE POP PUSH7 0x1C6BF52634000 CALLVALUE EQ PUSH2 0xA0 JUMPI PUSH1 0x40 MLOAD PUSH32 0x8C379A000000000000000000000000000000000000000000000000000000000 DUP2 MSTORE PUSH1 0x4 ADD PUSH2 0x97 SWAP1 PUSH2 0x132 JUMP JUMPDEST PUSH1 0x40 MLOAD DUP1 SWAP2 SUB SWAP1 REVERT JUMPDEST PUSH0 DUP1 SLOAD SWAP1 PUSH2 0x100 EXP SWAP1 DIV PUSH20 0xFFFFFFFFFFFFFFFFFFFFFFFFFFFFFFFFFFFFFFFF AND PUSH20 0xFFFFFFFFFFFFFFFFFFFFFFFFFFFFFFFFFFFFFFFF AND SELFDESTRUCT JUMPDEST PUSH0 DUP3 DUP3 MSTORE PUSH1 0x20 DUP3 ADD SWAP1 POP SWAP3 SWAP2 POP POP JUMP JUMPDEST PUSH32 0x4D7573742073656E642065786163746C7920302E303030352065746865720000 PUSH0 DUP3 ADD MSTORE POP JUMP JUMPDEST PUSH0 PUSH2 0x11C PUSH1 0x1E DUP4 PUSH2 0xD8 JUMP JUMPDEST SWAP2 POP PUSH2 0x127 DUP3 PUSH2 0xE8 JUMP JUMPDEST PUSH1 0x20 DUP3 ADD SWAP1 POP SWAP2 SWAP1 POP JUMP JUMPDEST PUSH0 PUSH1 0x20 DUP3 ADD SWAP1 POP DUP2 DUP2 SUB PUSH0 DUP4 ADD MSTORE PUSH2 0x149 DUP2 PUSH2 0x110 JUMP JUMPDEST SWAP1 POP SWAP2 SWAP1 POP JUMP INVALID "
				},
				"deployedBytecode": {
					"immutableReferences": {},
					"linkReferences": {},
					"object": "6080604052348015600e575f80fd5b50600436106026575f3560e01c8063fbfa77cf14602a575b5f80fd5b60306044565b604051603b919060a2565b60405180910390f35b5f8054906101000a900473ffffffffffffffffffffffffffffffffffffffff1681565b5f73ffffffffffffffffffffffffffffffffffffffff82169050919050565b5f608e826067565b9050919050565b609c816086565b82525050565b5f60208201905060b35f8301846095565b9291505056fea2646970667358221220a28fe1f4378759bf8777e6b88c0f1335f0e44a109d6039c17249f59d081b201d64736f6c63430008140033",
					"opcodes": "PUSH1 0x80 PUSH1 0x40 MSTORE CALLVALUE DUP1 ISZERO PUSH1 0xE JUMPI PUSH0 DUP1 REVERT JUMPDEST POP PUSH1 0x4 CALLDATASIZE LT PUSH1 0x26 JUMPI PUSH0 CALLDATALOAD PUSH1 0xE0 SHR DUP1 PUSH4 0xFBFA77CF EQ PUSH1 0x2A JUMPI JUMPDEST PUSH0 DUP1 REVERT JUMPDEST PUSH1 0x30 PUSH1 0x44 JUMP JUMPDEST PUSH1 0x40 MLOAD PUSH1 0x3B SWAP2 SWAP1 PUSH1 0xA2 JUMP JUMPDEST PUSH1 0x40 MLOAD DUP1 SWAP2 SUB SWAP1 RETURN JUMPDEST PUSH0 DUP1 SLOAD SWAP1 PUSH2 0x100 EXP SWAP1 DIV PUSH20 0xFFFFFFFFFFFFFFFFFFFFFFFFFFFFFFFFFFFFFFFF AND DUP2 JUMP JUMPDEST PUSH0 PUSH20 0xFFFFFFFFFFFFFFFFFFFFFFFFFFFFFFFFFFFFFFFF DUP3 AND SWAP1 POP SWAP2 SWAP1 POP JUMP JUMPDEST PUSH0 PUSH1 0x8E DUP3 PUSH1 0x67 JUMP JUMPDEST SWAP1 POP SWAP2 SWAP1 POP JUMP JUMPDEST PUSH1 0x9C DUP2 PUSH1 0x86 JUMP JUMPDEST DUP3 MSTORE POP POP JUMP JUMPDEST PUSH0 PUSH1 0x20 DUP3 ADD SWAP1 POP PUSH1 0xB3 PUSH0 DUP4 ADD DUP5 PUSH1 0x95 JUMP JUMPDEST SWAP3 SWAP2 POP POP JUMP INVALID LOG2 PUSH5 0x6970667358 0x22 SLT KECCAK256 LOG2 DUP16 0xE1 DELEGATECALL CALLDATACOPY DUP8 MSIZE 0xBF DUP8 PUSH24 0xE6B88C0F1335F0E44A109D6039C17249F59D081B201D6473 PUSH16 0x6C634300081400330000000000000000 "
				},
				"gasEstimates": {
					"creation": {
						"codeDepositCost": "47800",
						"executionCost": "54047",
						"totalCost": "101847"
					},
					"external": {
						"vault()": "2483"
					}
				},
				"methodIdentifiers": {
					"vault()": "fbfa77cf"
				}
			},
			"storageLayout": {
				"storage": [
					{
						"astId": 7,
						"contract": "contracts/SelfDestruct.sol:SelfDestructSender",
						"label": "vault",
						"offset": 0,
						"slot": "0",
						"type": "t_address_payable"
					}
				],
				"types": {
					"t_address_payable": {
						"encoding": "inplace",
						"label": "address payable",
						"numberOfBytes": "20"
					}
				}
			},
			"userdoc": {
				"kind": "user",
				"methods": {},
				"version": 1
			}
		}
	}
}