{
	"contracts/TodoList.sol": {
		"TodoList": {
			"abi": [
				{
					"anonymous": false,
					"inputs": [
						{
							"indexed": false,
							"internalType": "uint256",
							"name": "id",
							"type": "uint256"
						},
						{
							"indexed": false,
							"internalType": "string",
							"name": "content",
							"type": "string"
						}
					],
					"name": "TodoAdded",
					"type": "event"
				},
				{
					"inputs": [
						{
							"internalType": "string",
							"name": "_content",
							"type": "string"
						}
					],
					"name": "addTodo",
					"outputs": [],
					"stateMutability": "nonpayable",
					"type": "function"
				},
				{
					"inputs": [],
					"name": "nextId",
					"outputs": [
						{
							"internalType": "uint256",
							"name": "",
							"type": "uint256"
						}
					],
					"stateMutability": "view",
					"type": "function"
				},
				{
					"inputs": [
						{
							"internalType": "uint256",
							"name": "",
							"type": "uint256"
						}
					],
					"name": "todoIds",
					"outputs": [
						{
							"internalType": "uint256",
							"name": "",
							"type": "uint256"
						}
					],
					"stateMutability": "view",
					"type": "function"
				},
				{
					"inputs": [
						{
							"internalType": "uint256",
							"name": "",
							"type": "uint256"
						}
					],
					"name": "todos",
					"outputs": [
						{
							"internalType": "uint256",
							"name": "id",
							"type": "uint256"
						},
						{
							"internalType": "string",
							"name": "content",
							"type": "string"
						},
						{
							"internalType": "enum TodoList.Status",
							"name": "status",
							"type": "uint8"
						}
					],
					"stateMutability": "view",
					"type": "function"
				}
			],
			"devdoc": {
				"kind": "dev",
				"methods": {},
				"version": 1
			},
			"evm": {
				"assembly": "    /* \"contracts/TodoList.sol\":60:831  contract TodoList {... */\n  mstore(0x40, 0x80)\n    /* \"contracts/TodoList.sol\":443:444  1 */\n  0x01\n    /* \"contracts/TodoList.sol\":422:444  uint public nextId = 1 */\n  0x02\n  sstore\n    /* \"contracts/TodoList.sol\":60:831  contract TodoList {... */\n  callvalue\n  dup1\n  iszero\n  tag_1\n  jumpi\n  0x00\n  dup1\n  revert\ntag_1:\n  pop\n  dataSize(sub_0)\n  dup1\n  dataOffset(sub_0)\n  0x00\n  codecopy\n  0x00\n  return\nstop\n\nsub_0: assembly {\n        /* \"contracts/TodoList.sol\":60:831  contract TodoList {... */\n      mstore(0x40, 0x80)\n      callvalue\n      dup1\n      iszero\n      tag_1\n      jumpi\n      0x00\n      dup1\n      revert\n    tag_1:\n      pop\n      jumpi(tag_2, lt(calldatasize, 0x04))\n      shr(0xe0, calldataload(0x00))\n      dup1\n      0x03c5c31f\n      eq\n      tag_3\n      jumpi\n      dup1\n      0x61b8ce8c\n      eq\n      tag_4\n      jumpi\n      dup1\n      0x95ffebf5\n      eq\n      tag_5\n      jumpi\n      dup1\n      0xbc8bc2b4\n      eq\n      tag_6\n      jumpi\n    tag_2:\n      0x00\n      dup1\n      revert\n        /* \"contracts/TodoList.sol\":394:415  uint[] public todoIds */\n    tag_3:\n      tag_7\n      0x04\n      dup1\n      calldatasize\n      sub\n      dup2\n      add\n      swap1\n      tag_8\n      swap2\n      swap1\n      tag_9\n      jump\t// in\n    tag_8:\n      tag_10\n      jump\t// in\n    tag_7:\n      mload(0x40)\n      tag_11\n      swap2\n      swap1\n      tag_12\n      jump\t// in\n    tag_11:\n      mload(0x40)\n      dup1\n      swap2\n      sub\n      swap1\n      return\n        /* \"contracts/TodoList.sol\":422:444  uint public nextId = 1 */\n    tag_4:\n      tag_13\n      tag_14\n      jump\t// in\n    tag_13:\n      mload(0x40)\n      tag_15\n      swap2\n      swap1\n      tag_12\n      jump\t// in\n    tag_15:\n      mload(0x40)\n      dup1\n      swap2\n      sub\n      swap1\n      return\n        /* \"contracts/TodoList.sol\":614:828  function addTodo(string memory _content) public {... */\n    tag_5:\n      tag_16\n      0x04\n      dup1\n      calldatasize\n      sub\n      dup2\n      add\n      swap1\n      tag_17\n      swap2\n      swap1\n      tag_18\n      jump\t// in\n    tag_17:\n      tag_19\n      jump\t// in\n    tag_16:\n      stop\n        /* \"contracts/TodoList.sol\":353:387  mapping(uint => Todo) public todos */\n    tag_6:\n      tag_20\n      0x04\n      dup1\n      calldatasize\n      sub\n      dup2\n      add\n      swap1\n      tag_21\n      swap2\n      swap1\n      tag_9\n      jump\t// in\n    tag_21:\n      tag_22\n      jump\t// in\n    tag_20:\n      mload(0x40)\n      tag_23\n      swap4\n      swap3\n      swap2\n      swap1\n      tag_24\n      jump\t// in\n    tag_23:\n      mload(0x40)\n      dup1\n      swap2\n      sub\n      swap1\n      return\n        /* \"contracts/TodoList.sol\":394:415  uint[] public todoIds */\n    tag_10:\n      0x01\n      dup2\n      dup2\n      sload\n      dup2\n      lt\n      tag_25\n      jumpi\n      0x00\n      dup1\n      revert\n    tag_25:\n      swap1\n      0x00\n      mstore\n      keccak256(0x00, 0x20)\n      add\n      0x00\n      swap2\n      pop\n      swap1\n      pop\n      sload\n      dup2\n      jump\t// out\n        /* \"contracts/TodoList.sol\":422:444  uint public nextId = 1 */\n    tag_14:\n      sload(0x02)\n      dup2\n      jump\t// out\n        /* \"contracts/TodoList.sol\":614:828  function addTodo(string memory _content) public {... */\n    tag_19:\n        /* \"contracts/TodoList.sol\":689:727  Todo(nextId, _content, Status.Pending) */\n      mload(0x40)\n      dup1\n      0x60\n      add\n      0x40\n      mstore\n      dup1\n        /* \"contracts/TodoList.sol\":694:700  nextId */\n      sload(0x02)\n        /* \"contracts/TodoList.sol\":689:727  Todo(nextId, _content, Status.Pending) */\n      dup2\n      mstore\n      0x20\n      add\n        /* \"contracts/TodoList.sol\":702:710  _content */\n      dup3\n        /* \"contracts/TodoList.sol\":689:727  Todo(nextId, _content, Status.Pending) */\n      dup2\n      mstore\n      0x20\n      add\n        /* \"contracts/TodoList.sol\":712:726  Status.Pending */\n      0x00\n        /* \"contracts/TodoList.sol\":689:727  Todo(nextId, _content, Status.Pending) */\n      0x02\n      dup2\n      gt\n      iszero\n      tag_28\n      jumpi\n      tag_29\n      tag_30\n      jump\t// in\n    tag_29:\n    tag_28:\n      dup2\n      mstore\n      pop\n        /* \"contracts/TodoList.sol\":673:678  todos */\n      0x00\n        /* \"contracts/TodoList.sol\":673:686  todos[nextId] */\n      dup1\n        /* \"contracts/TodoList.sol\":679:685  nextId */\n      sload(0x02)\n        /* \"contracts/TodoList.sol\":673:686  todos[nextId] */\n      dup2\n      mstore\n      0x20\n      add\n      swap1\n      dup2\n      mstore\n      0x20\n      add\n      0x00\n      keccak256\n        /* \"contracts/TodoList.sol\":673:727  todos[nextId] = Todo(nextId, _content, Status.Pending) */\n      0x00\n      dup3\n      add\n      mload\n      dup2\n      0x00\n      add\n      sstore\n      0x20\n      dup3\n      add\n      mload\n      dup2\n      0x01\n      add\n      swap1\n      dup2\n      tag_31\n      swap2\n      swap1\n      tag_32\n      jump\t// in\n    tag_31:\n      pop\n      0x40\n      dup3\n      add\n      mload\n      dup2\n      0x02\n      add\n      exp(0x0100, 0x00)\n      dup2\n      sload\n      dup2\n      0xff\n      mul\n      not\n      and\n      swap1\n      dup4\n      0x02\n      dup2\n      gt\n      iszero\n      tag_33\n      jumpi\n      tag_34\n      tag_30\n      jump\t// in\n    tag_34:\n    tag_33:\n      mul\n      or\n      swap1\n      sstore\n      pop\n      swap1\n      pop\n      pop\n        /* \"contracts/TodoList.sol\":738:745  todoIds */\n      0x01\n        /* \"contracts/TodoList.sol\":751:757  nextId */\n      sload(0x02)\n        /* \"contracts/TodoList.sol\":738:758  todoIds.push(nextId) */\n      swap1\n      dup1\n      0x01\n      dup2\n      sload\n      add\n      dup1\n      dup3\n      sstore\n      dup1\n      swap2\n      pop\n      pop\n      0x01\n      swap1\n      sub\n      swap1\n      0x00\n      mstore\n      keccak256(0x00, 0x20)\n      add\n      0x00\n      swap1\n      swap2\n      swap1\n      swap2\n      swap1\n      swap2\n      pop\n      sstore\n        /* \"contracts/TodoList.sol\":774:801  TodoAdded(nextId, _content) */\n      0x606222d2d9b2ffe82e59c226d772a363312cfce0027119e88e27c4db155e882d\n        /* \"contracts/TodoList.sol\":784:790  nextId */\n      sload(0x02)\n        /* \"contracts/TodoList.sol\":792:800  _content */\n      dup3\n        /* \"contracts/TodoList.sol\":774:801  TodoAdded(nextId, _content) */\n      mload(0x40)\n      tag_36\n      swap3\n      swap2\n      swap1\n      tag_37\n      jump\t// in\n    tag_36:\n      mload(0x40)\n      dup1\n      swap2\n      sub\n      swap1\n      log1\n        /* \"contracts/TodoList.sol\":812:818  nextId */\n      0x02\n      0x00\n        /* \"contracts/TodoList.sol\":812:820  nextId++ */\n      dup2\n      sload\n      dup1\n      swap3\n      swap2\n      swap1\n      tag_38\n      swap1\n      tag_39\n      jump\t// in\n    tag_38:\n      swap2\n      swap1\n      pop\n      sstore\n      pop\n        /* \"contracts/TodoList.sol\":614:828  function addTodo(string memory _content) public {... */\n      pop\n      jump\t// out\n        /* \"contracts/TodoList.sol\":353:387  mapping(uint => Todo) public todos */\n    tag_22:\n      mstore(0x20, 0x00)\n      dup1\n      0x00\n      mstore\n      keccak256(0x00, 0x40)\n      0x00\n      swap2\n      pop\n      swap1\n      pop\n      dup1\n      0x00\n      add\n      sload\n      swap1\n      dup1\n      0x01\n      add\n      dup1\n      sload\n      tag_40\n      swap1\n      tag_41\n      jump\t// in\n    tag_40:\n      dup1\n      0x1f\n      add\n      0x20\n      dup1\n      swap2\n      div\n      mul\n      0x20\n      add\n      mload(0x40)\n      swap1\n      dup2\n      add\n      0x40\n      mstore\n      dup1\n      swap3\n      swap2\n      swap1\n      dup2\n      dup2\n      mstore\n      0x20\n      add\n      dup3\n      dup1\n      sload\n      tag_42\n      swap1\n      tag_41\n      jump\t// in\n    tag_42:\n      dup1\n      iszero\n      tag_43\n      jumpi\n      dup1\n      0x1f\n      lt\n      tag_44\n      jumpi\n      0x0100\n      dup1\n      dup4\n      sload\n      div\n      mul\n      dup4\n      mstore\n      swap2\n      0x20\n      add\n      swap2\n      jump(tag_43)\n    tag_44:\n      dup3\n      add\n      swap2\n      swap1\n      0x00\n      mstore\n      keccak256(0x00, 0x20)\n      swap1\n    tag_45:\n      dup2\n      sload\n      dup2\n      mstore\n      swap1\n      0x01\n      add\n      swap1\n      0x20\n      add\n      dup1\n      dup4\n      gt\n      tag_45\n      jumpi\n      dup3\n      swap1\n      sub\n      0x1f\n      and\n      dup3\n      add\n      swap2\n    tag_43:\n      pop\n      pop\n      pop\n      pop\n      pop\n      swap1\n      dup1\n      0x02\n      add\n      0x00\n      swap1\n      sload\n      swap1\n      0x0100\n      exp\n      swap1\n      div\n      0xff\n      and\n      swap1\n      pop\n      dup4\n      jump\t// out\n        /* \"#utility.yul\":7:82   */\n    tag_46:\n        /* \"#utility.yul\":40:46   */\n      0x00\n        /* \"#utility.yul\":73:75   */\n      0x40\n        /* \"#utility.yul\":67:76   */\n      mload\n        /* \"#utility.yul\":57:76   */\n      swap1\n      pop\n        /* \"#utility.yul\":7:82   */\n      swap1\n      jump\t// out\n        /* \"#utility.yul\":88:205   */\n    tag_47:\n        /* \"#utility.yul\":197:198   */\n      0x00\n        /* \"#utility.yul\":194:195   */\n      dup1\n        /* \"#utility.yul\":187:199   */\n      revert\n        /* \"#utility.yul\":211:328   */\n    tag_48:\n        /* \"#utility.yul\":320:321   */\n      0x00\n        /* \"#utility.yul\":317:318   */\n      dup1\n        /* \"#utility.yul\":310:322   */\n      revert\n        /* \"#utility.yul\":334:411   */\n    tag_49:\n        /* \"#utility.yul\":371:378   */\n      0x00\n        /* \"#utility.yul\":400:405   */\n      dup2\n        /* \"#utility.yul\":389:405   */\n      swap1\n      pop\n        /* \"#utility.yul\":334:411   */\n      swap2\n      swap1\n      pop\n      jump\t// out\n        /* \"#utility.yul\":417:539   */\n    tag_50:\n        /* \"#utility.yul\":490:514   */\n      tag_94\n        /* \"#utility.yul\":508:513   */\n      dup2\n        /* \"#utility.yul\":490:514   */\n      tag_49\n      jump\t// in\n    tag_94:\n        /* \"#utility.yul\":483:488   */\n      dup2\n        /* \"#utility.yul\":480:515   */\n      eq\n        /* \"#utility.yul\":470:533   */\n      tag_95\n      jumpi\n        /* \"#utility.yul\":529:530   */\n      0x00\n        /* \"#utility.yul\":526:527   */\n      dup1\n        /* \"#utility.yul\":519:531   */\n      revert\n        /* \"#utility.yul\":470:533   */\n    tag_95:\n        /* \"#utility.yul\":417:539   */\n      pop\n      jump\t// out\n        /* \"#utility.yul\":545:684   */\n    tag_51:\n        /* \"#utility.yul\":591:596   */\n      0x00\n        /* \"#utility.yul\":629:635   */\n      dup2\n        /* \"#utility.yul\":616:636   */\n      calldataload\n        /* \"#utility.yul\":607:636   */\n      swap1\n      pop\n        /* \"#utility.yul\":645:678   */\n      tag_97\n        /* \"#utility.yul\":672:677   */\n      dup2\n        /* \"#utility.yul\":645:678   */\n      tag_50\n      jump\t// in\n    tag_97:\n        /* \"#utility.yul\":545:684   */\n      swap3\n      swap2\n      pop\n      pop\n      jump\t// out\n        /* \"#utility.yul\":690:1019   */\n    tag_9:\n        /* \"#utility.yul\":749:755   */\n      0x00\n        /* \"#utility.yul\":798:800   */\n      0x20\n        /* \"#utility.yul\":786:795   */\n      dup3\n        /* \"#utility.yul\":777:784   */\n      dup5\n        /* \"#utility.yul\":773:796   */\n      sub\n        /* \"#utility.yul\":769:801   */\n      slt\n        /* \"#utility.yul\":766:885   */\n      iszero\n      tag_99\n      jumpi\n        /* \"#utility.yul\":804:883   */\n      tag_100\n      tag_47\n      jump\t// in\n    tag_100:\n        /* \"#utility.yul\":766:885   */\n    tag_99:\n        /* \"#utility.yul\":924:925   */\n      0x00\n        /* \"#utility.yul\":949:1002   */\n      tag_101\n        /* \"#utility.yul\":994:1001   */\n      dup5\n        /* \"#utility.yul\":985:991   */\n      dup3\n        /* \"#utility.yul\":974:983   */\n      dup6\n        /* \"#utility.yul\":970:992   */\n      add\n        /* \"#utility.yul\":949:1002   */\n      tag_51\n      jump\t// in\n    tag_101:\n        /* \"#utility.yul\":939:1002   */\n      swap2\n      pop\n        /* \"#utility.yul\":895:1012   */\n      pop\n        /* \"#utility.yul\":690:1019   */\n      swap3\n      swap2\n      pop\n      pop\n      jump\t// out\n        /* \"#utility.yul\":1025:1143   */\n    tag_52:\n        /* \"#utility.yul\":1112:1136   */\n      tag_103\n        /* \"#utility.yul\":1130:1135   */\n      dup2\n        /* \"#utility.yul\":1112:1136   */\n      tag_49\n      jump\t// in\n    tag_103:\n        /* \"#utility.yul\":1107:1110   */\n      dup3\n        /* \"#utility.yul\":1100:1137   */\n      mstore\n        /* \"#utility.yul\":1025:1143   */\n      pop\n      pop\n      jump\t// out\n        /* \"#utility.yul\":1149:1371   */\n    tag_12:\n        /* \"#utility.yul\":1242:1246   */\n      0x00\n        /* \"#utility.yul\":1280:1282   */\n      0x20\n        /* \"#utility.yul\":1269:1278   */\n      dup3\n        /* \"#utility.yul\":1265:1283   */\n      add\n        /* \"#utility.yul\":1257:1283   */\n      swap1\n      pop\n        /* \"#utility.yul\":1293:1364   */\n      tag_105\n        /* \"#utility.yul\":1361:1362   */\n      0x00\n        /* \"#utility.yul\":1350:1359   */\n      dup4\n        /* \"#utility.yul\":1346:1363   */\n      add\n        /* \"#utility.yul\":1337:1343   */\n      dup5\n        /* \"#utility.yul\":1293:1364   */\n      tag_52\n      jump\t// in\n    tag_105:\n        /* \"#utility.yul\":1149:1371   */\n      swap3\n      swap2\n      pop\n      pop\n      jump\t// out\n        /* \"#utility.yul\":1377:1494   */\n    tag_53:\n        /* \"#utility.yul\":1486:1487   */\n      0x00\n        /* \"#utility.yul\":1483:1484   */\n      dup1\n        /* \"#utility.yul\":1476:1488   */\n      revert\n        /* \"#utility.yul\":1500:1617   */\n    tag_54:\n        /* \"#utility.yul\":1609:1610   */\n      0x00\n        /* \"#utility.yul\":1606:1607   */\n      dup1\n        /* \"#utility.yul\":1599:1611   */\n      revert\n        /* \"#utility.yul\":1623:1725   */\n    tag_55:\n        /* \"#utility.yul\":1664:1670   */\n      0x00\n        /* \"#utility.yul\":1715:1717   */\n      0x1f\n        /* \"#utility.yul\":1711:1718   */\n      not\n        /* \"#utility.yul\":1706:1708   */\n      0x1f\n        /* \"#utility.yul\":1699:1704   */\n      dup4\n        /* \"#utility.yul\":1695:1709   */\n      add\n        /* \"#utility.yul\":1691:1719   */\n      and\n        /* \"#utility.yul\":1681:1719   */\n      swap1\n      pop\n        /* \"#utility.yul\":1623:1725   */\n      swap2\n      swap1\n      pop\n      jump\t// out\n        /* \"#utility.yul\":1731:1911   */\n    tag_56:\n        /* \"#utility.yul\":1779:1856   */\n      0x4e487b7100000000000000000000000000000000000000000000000000000000\n        /* \"#utility.yul\":1776:1777   */\n      0x00\n        /* \"#utility.yul\":1769:1857   */\n      mstore\n        /* \"#utility.yul\":1876:1880   */\n      0x41\n        /* \"#utility.yul\":1873:1874   */\n      0x04\n        /* \"#utility.yul\":1866:1881   */\n      mstore\n        /* \"#utility.yul\":1900:1904   */\n      0x24\n        /* \"#utility.yul\":1897:1898   */\n      0x00\n        /* \"#utility.yul\":1890:1905   */\n      revert\n        /* \"#utility.yul\":1917:2198   */\n    tag_57:\n        /* \"#utility.yul\":2000:2027   */\n      tag_111\n        /* \"#utility.yul\":2022:2026   */\n      dup3\n        /* \"#utility.yul\":2000:2027   */\n      tag_55\n      jump\t// in\n    tag_111:\n        /* \"#utility.yul\":1992:1998   */\n      dup2\n        /* \"#utility.yul\":1988:2028   */\n      add\n        /* \"#utility.yul\":2130:2136   */\n      dup2\n        /* \"#utility.yul\":2118:2128   */\n      dup2\n        /* \"#utility.yul\":2115:2137   */\n      lt\n        /* \"#utility.yul\":2094:2112   */\n      0xffffffffffffffff\n        /* \"#utility.yul\":2082:2092   */\n      dup3\n        /* \"#utility.yul\":2079:2113   */\n      gt\n        /* \"#utility.yul\":2076:2138   */\n      or\n        /* \"#utility.yul\":2073:2161   */\n      iszero\n      tag_112\n      jumpi\n        /* \"#utility.yul\":2141:2159   */\n      tag_113\n      tag_56\n      jump\t// in\n    tag_113:\n        /* \"#utility.yul\":2073:2161   */\n    tag_112:\n        /* \"#utility.yul\":2181:2191   */\n      dup1\n        /* \"#utility.yul\":2177:2179   */\n      0x40\n        /* \"#utility.yul\":2170:2192   */\n      mstore\n        /* \"#utility.yul\":1960:2198   */\n      pop\n        /* \"#utility.yul\":1917:2198   */\n      pop\n      pop\n      jump\t// out\n        /* \"#utility.yul\":2204:2333   */\n    tag_58:\n        /* \"#utility.yul\":2238:2244   */\n      0x00\n        /* \"#utility.yul\":2265:2285   */\n      tag_115\n      tag_46\n      jump\t// in\n    tag_115:\n        /* \"#utility.yul\":2255:2285   */\n      swap1\n      pop\n        /* \"#utility.yul\":2294:2327   */\n      tag_116\n        /* \"#utility.yul\":2322:2326   */\n      dup3\n        /* \"#utility.yul\":2314:2320   */\n      dup3\n        /* \"#utility.yul\":2294:2327   */\n      tag_57\n      jump\t// in\n    tag_116:\n        /* \"#utility.yul\":2204:2333   */\n      swap2\n      swap1\n      pop\n      jump\t// out\n        /* \"#utility.yul\":2339:2647   */\n    tag_59:\n        /* \"#utility.yul\":2401:2405   */\n      0x00\n        /* \"#utility.yul\":2491:2509   */\n      0xffffffffffffffff\n        /* \"#utility.yul\":2483:2489   */\n      dup3\n        /* \"#utility.yul\":2480:2510   */\n      gt\n        /* \"#utility.yul\":2477:2533   */\n      iszero\n      tag_118\n      jumpi\n        /* \"#utility.yul\":2513:2531   */\n      tag_119\n      tag_56\n      jump\t// in\n    tag_119:\n        /* \"#utility.yul\":2477:2533   */\n    tag_118:\n        /* \"#utility.yul\":2551:2580   */\n      tag_120\n        /* \"#utility.yul\":2573:2579   */\n      dup3\n        /* \"#utility.yul\":2551:2580   */\n      tag_55\n      jump\t// in\n    tag_120:\n        /* \"#utility.yul\":2543:2580   */\n      swap1\n      pop\n        /* \"#utility.yul\":2635:2639   */\n      0x20\n        /* \"#utility.yul\":2629:2633   */\n      dup2\n        /* \"#utility.yul\":2625:2640   */\n      add\n        /* \"#utility.yul\":2617:2640   */\n      swap1\n      pop\n        /* \"#utility.yul\":2339:2647   */\n      swap2\n      swap1\n      pop\n      jump\t// out\n        /* \"#utility.yul\":2653:2801   */\n    tag_60:\n        /* \"#utility.yul\":2751:2757   */\n      dup3\n        /* \"#utility.yul\":2746:2749   */\n      dup2\n        /* \"#utility.yul\":2741:2744   */\n      dup4\n        /* \"#utility.yul\":2728:2758   */\n      calldatacopy\n        /* \"#utility.yul\":2792:2793   */\n      0x00\n        /* \"#utility.yul\":2783:2789   */\n      dup4\n        /* \"#utility.yul\":2778:2781   */\n      dup4\n        /* \"#utility.yul\":2774:2790   */\n      add\n        /* \"#utility.yul\":2767:2794   */\n      mstore\n        /* \"#utility.yul\":2653:2801   */\n      pop\n      pop\n      pop\n      jump\t// out\n        /* \"#utility.yul\":2807:3232   */\n    tag_61:\n        /* \"#utility.yul\":2885:2890   */\n      0x00\n        /* \"#utility.yul\":2910:2976   */\n      tag_123\n        /* \"#utility.yul\":2926:2975   */\n      tag_124\n        /* \"#utility.yul\":2968:2974   */\n      dup5\n        /* \"#utility.yul\":2926:2975   */\n      tag_59\n      jump\t// in\n    tag_124:\n        /* \"#utility.yul\":2910:2976   */\n      tag_58\n      jump\t// in\n    tag_123:\n        /* \"#utility.yul\":2901:2976   */\n      swap1\n      pop\n        /* \"#utility.yul\":2999:3005   */\n      dup3\n        /* \"#utility.yul\":2992:2997   */\n      dup2\n        /* \"#utility.yul\":2985:3006   */\n      mstore\n        /* \"#utility.yul\":3037:3041   */\n      0x20\n        /* \"#utility.yul\":3030:3035   */\n      dup2\n        /* \"#utility.yul\":3026:3042   */\n      add\n        /* \"#utility.yul\":3075:3078   */\n      dup5\n        /* \"#utility.yul\":3066:3072   */\n      dup5\n        /* \"#utility.yul\":3061:3064   */\n      dup5\n        /* \"#utility.yul\":3057:3073   */\n      add\n        /* \"#utility.yul\":3054:3079   */\n      gt\n        /* \"#utility.yul\":3051:3163   */\n      iszero\n      tag_125\n      jumpi\n        /* \"#utility.yul\":3082:3161   */\n      tag_126\n      tag_54\n      jump\t// in\n    tag_126:\n        /* \"#utility.yul\":3051:3163   */\n    tag_125:\n        /* \"#utility.yul\":3172:3226   */\n      tag_127\n        /* \"#utility.yul\":3219:3225   */\n      dup5\n        /* \"#utility.yul\":3214:3217   */\n      dup3\n        /* \"#utility.yul\":3209:3212   */\n      dup6\n        /* \"#utility.yul\":3172:3226   */\n      tag_60\n      jump\t// in\n    tag_127:\n        /* \"#utility.yul\":2891:3232   */\n      pop\n        /* \"#utility.yul\":2807:3232   */\n      swap4\n      swap3\n      pop\n      pop\n      pop\n      jump\t// out\n        /* \"#utility.yul\":3252:3592   */\n    tag_62:\n        /* \"#utility.yul\":3308:3313   */\n      0x00\n        /* \"#utility.yul\":3357:3360   */\n      dup3\n        /* \"#utility.yul\":3350:3354   */\n      0x1f\n        /* \"#utility.yul\":3342:3348   */\n      dup4\n        /* \"#utility.yul\":3338:3355   */\n      add\n        /* \"#utility.yul\":3334:3361   */\n      slt\n        /* \"#utility.yul\":3324:3446   */\n      tag_129\n      jumpi\n        /* \"#utility.yul\":3365:3444   */\n      tag_130\n      tag_53\n      jump\t// in\n    tag_130:\n        /* \"#utility.yul\":3324:3446   */\n    tag_129:\n        /* \"#utility.yul\":3482:3488   */\n      dup2\n        /* \"#utility.yul\":3469:3489   */\n      calldataload\n        /* \"#utility.yul\":3507:3586   */\n      tag_131\n        /* \"#utility.yul\":3582:3585   */\n      dup5\n        /* \"#utility.yul\":3574:3580   */\n      dup3\n        /* \"#utility.yul\":3567:3571   */\n      0x20\n        /* \"#utility.yul\":3559:3565   */\n      dup7\n        /* \"#utility.yul\":3555:3572   */\n      add\n        /* \"#utility.yul\":3507:3586   */\n      tag_61\n      jump\t// in\n    tag_131:\n        /* \"#utility.yul\":3498:3586   */\n      swap2\n      pop\n        /* \"#utility.yul\":3314:3592   */\n      pop\n        /* \"#utility.yul\":3252:3592   */\n      swap3\n      swap2\n      pop\n      pop\n      jump\t// out\n        /* \"#utility.yul\":3598:4107   */\n    tag_18:\n        /* \"#utility.yul\":3667:3673   */\n      0x00\n        /* \"#utility.yul\":3716:3718   */\n      0x20\n        /* \"#utility.yul\":3704:3713   */\n      dup3\n        /* \"#utility.yul\":3695:3702   */\n      dup5\n        /* \"#utility.yul\":3691:3714   */\n      sub\n        /* \"#utility.yul\":3687:3719   */\n      slt\n        /* \"#utility.yul\":3684:3803   */\n      iszero\n      tag_133\n      jumpi\n        /* \"#utility.yul\":3722:3801   */\n      tag_134\n      tag_47\n      jump\t// in\n    tag_134:\n        /* \"#utility.yul\":3684:3803   */\n    tag_133:\n        /* \"#utility.yul\":3870:3871   */\n      0x00\n        /* \"#utility.yul\":3859:3868   */\n      dup3\n        /* \"#utility.yul\":3855:3872   */\n      add\n        /* \"#utility.yul\":3842:3873   */\n      calldataload\n        /* \"#utility.yul\":3900:3918   */\n      0xffffffffffffffff\n        /* \"#utility.yul\":3892:3898   */\n      dup2\n        /* \"#utility.yul\":3889:3919   */\n      gt\n        /* \"#utility.yul\":3886:4003   */\n      iszero\n      tag_135\n      jumpi\n        /* \"#utility.yul\":3922:4001   */\n      tag_136\n      tag_48\n      jump\t// in\n    tag_136:\n        /* \"#utility.yul\":3886:4003   */\n    tag_135:\n        /* \"#utility.yul\":4027:4090   */\n      tag_137\n        /* \"#utility.yul\":4082:4089   */\n      dup5\n        /* \"#utility.yul\":4073:4079   */\n      dup3\n        /* \"#utility.yul\":4062:4071   */\n      dup6\n        /* \"#utility.yul\":4058:4080   */\n      add\n        /* \"#utility.yul\":4027:4090   */\n      tag_62\n      jump\t// in\n    tag_137:\n        /* \"#utility.yul\":4017:4090   */\n      swap2\n      pop\n        /* \"#utility.yul\":3813:4100   */\n      pop\n        /* \"#utility.yul\":3598:4107   */\n      swap3\n      swap2\n      pop\n      pop\n      jump\t// out\n        /* \"#utility.yul\":4113:4212   */\n    tag_63:\n        /* \"#utility.yul\":4165:4171   */\n      0x00\n        /* \"#utility.yul\":4199:4204   */\n      dup2\n        /* \"#utility.yul\":4193:4205   */\n      mload\n        /* \"#utility.yul\":4183:4205   */\n      swap1\n      pop\n        /* \"#utility.yul\":4113:4212   */\n      swap2\n      swap1\n      pop\n      jump\t// out\n        /* \"#utility.yul\":4218:4387   */\n    tag_64:\n        /* \"#utility.yul\":4302:4313   */\n      0x00\n        /* \"#utility.yul\":4336:4342   */\n      dup3\n        /* \"#utility.yul\":4331:4334   */\n      dup3\n        /* \"#utility.yul\":4324:4343   */\n      mstore\n        /* \"#utility.yul\":4376:4380   */\n      0x20\n        /* \"#utility.yul\":4371:4374   */\n      dup3\n        /* \"#utility.yul\":4367:4381   */\n      add\n        /* \"#utility.yul\":4352:4381   */\n      swap1\n      pop\n        /* \"#utility.yul\":4218:4387   */\n      swap3\n      swap2\n      pop\n      pop\n      jump\t// out\n        /* \"#utility.yul\":4393:4532   */\n    tag_65:\n        /* \"#utility.yul\":4482:4488   */\n      dup3\n        /* \"#utility.yul\":4477:4480   */\n      dup2\n        /* \"#utility.yul\":4472:4475   */\n      dup4\n        /* \"#utility.yul\":4466:4489   */\n      mcopy\n        /* \"#utility.yul\":4523:4524   */\n      0x00\n        /* \"#utility.yul\":4514:4520   */\n      dup4\n        /* \"#utility.yul\":4509:4512   */\n      dup4\n        /* \"#utility.yul\":4505:4521   */\n      add\n        /* \"#utility.yul\":4498:4525   */\n      mstore\n        /* \"#utility.yul\":4393:4532   */\n      pop\n      pop\n      pop\n      jump\t// out\n        /* \"#utility.yul\":4538:4915   */\n    tag_66:\n        /* \"#utility.yul\":4626:4629   */\n      0x00\n        /* \"#utility.yul\":4654:4693   */\n      tag_142\n        /* \"#utility.yul\":4687:4692   */\n      dup3\n        /* \"#utility.yul\":4654:4693   */\n      tag_63\n      jump\t// in\n    tag_142:\n        /* \"#utility.yul\":4709:4780   */\n      tag_143\n        /* \"#utility.yul\":4773:4779   */\n      dup2\n        /* \"#utility.yul\":4768:4771   */\n      dup6\n        /* \"#utility.yul\":4709:4780   */\n      tag_64\n      jump\t// in\n    tag_143:\n        /* \"#utility.yul\":4702:4780   */\n      swap4\n      pop\n        /* \"#utility.yul\":4789:4854   */\n      tag_144\n        /* \"#utility.yul\":4847:4853   */\n      dup2\n        /* \"#utility.yul\":4842:4845   */\n      dup6\n        /* \"#utility.yul\":4835:4839   */\n      0x20\n        /* \"#utility.yul\":4828:4833   */\n      dup7\n        /* \"#utility.yul\":4824:4840   */\n      add\n        /* \"#utility.yul\":4789:4854   */\n      tag_65\n      jump\t// in\n    tag_144:\n        /* \"#utility.yul\":4879:4908   */\n      tag_145\n        /* \"#utility.yul\":4901:4907   */\n      dup2\n        /* \"#utility.yul\":4879:4908   */\n      tag_55\n      jump\t// in\n    tag_145:\n        /* \"#utility.yul\":4874:4877   */\n      dup5\n        /* \"#utility.yul\":4870:4909   */\n      add\n        /* \"#utility.yul\":4863:4909   */\n      swap2\n      pop\n        /* \"#utility.yul\":4630:4915   */\n      pop\n        /* \"#utility.yul\":4538:4915   */\n      swap3\n      swap2\n      pop\n      pop\n      jump\t// out\n        /* \"#utility.yul\":4921:5101   */\n    tag_30:\n        /* \"#utility.yul\":4969:5046   */\n      0x4e487b7100000000000000000000000000000000000000000000000000000000\n        /* \"#utility.yul\":4966:4967   */\n      0x00\n        /* \"#utility.yul\":4959:5047   */\n      mstore\n        /* \"#utility.yul\":5066:5070   */\n      0x21\n        /* \"#utility.yul\":5063:5064   */\n      0x04\n        /* \"#utility.yul\":5056:5071   */\n      mstore\n        /* \"#utility.yul\":5090:5094   */\n      0x24\n        /* \"#utility.yul\":5087:5088   */\n      0x00\n        /* \"#utility.yul\":5080:5095   */\n      revert\n        /* \"#utility.yul\":5107:5220   */\n    tag_67:\n        /* \"#utility.yul\":5188:5189   */\n      0x03\n        /* \"#utility.yul\":5181:5186   */\n      dup2\n        /* \"#utility.yul\":5178:5190   */\n      lt\n        /* \"#utility.yul\":5168:5214   */\n      tag_148\n      jumpi\n        /* \"#utility.yul\":5194:5212   */\n      tag_149\n      tag_30\n      jump\t// in\n    tag_149:\n        /* \"#utility.yul\":5168:5214   */\n    tag_148:\n        /* \"#utility.yul\":5107:5220   */\n      pop\n      jump\t// out\n        /* \"#utility.yul\":5226:5353   */\n    tag_68:\n        /* \"#utility.yul\":5271:5278   */\n      0x00\n        /* \"#utility.yul\":5300:5305   */\n      dup2\n        /* \"#utility.yul\":5289:5305   */\n      swap1\n      pop\n        /* \"#utility.yul\":5306:5347   */\n      tag_151\n        /* \"#utility.yul\":5341:5346   */\n      dup3\n        /* \"#utility.yul\":5306:5347   */\n      tag_67\n      jump\t// in\n    tag_151:\n        /* \"#utility.yul\":5226:5353   */\n      swap2\n      swap1\n      pop\n      jump\t// out\n        /* \"#utility.yul\":5359:5486   */\n    tag_69:\n        /* \"#utility.yul\":5415:5424   */\n      0x00\n        /* \"#utility.yul\":5448:5480   */\n      tag_153\n        /* \"#utility.yul\":5474:5479   */\n      dup3\n        /* \"#utility.yul\":5448:5480   */\n      tag_68\n      jump\t// in\n    tag_153:\n        /* \"#utility.yul\":5435:5480   */\n      swap1\n      pop\n        /* \"#utility.yul\":5359:5486   */\n      swap2\n      swap1\n      pop\n      jump\t// out\n        /* \"#utility.yul\":5492:5635   */\n    tag_70:\n        /* \"#utility.yul\":5585:5628   */\n      tag_155\n        /* \"#utility.yul\":5622:5627   */\n      dup2\n        /* \"#utility.yul\":5585:5628   */\n      tag_69\n      jump\t// in\n    tag_155:\n        /* \"#utility.yul\":5580:5583   */\n      dup3\n        /* \"#utility.yul\":5573:5629   */\n      mstore\n        /* \"#utility.yul\":5492:5635   */\n      pop\n      pop\n      jump\t// out\n        /* \"#utility.yul\":5641:6186   */\n    tag_24:\n        /* \"#utility.yul\":5816:5820   */\n      0x00\n        /* \"#utility.yul\":5854:5856   */\n      0x60\n        /* \"#utility.yul\":5843:5852   */\n      dup3\n        /* \"#utility.yul\":5839:5857   */\n      add\n        /* \"#utility.yul\":5831:5857   */\n      swap1\n      pop\n        /* \"#utility.yul\":5867:5938   */\n      tag_157\n        /* \"#utility.yul\":5935:5936   */\n      0x00\n        /* \"#utility.yul\":5924:5933   */\n      dup4\n        /* \"#utility.yul\":5920:5937   */\n      add\n        /* \"#utility.yul\":5911:5917   */\n      dup7\n        /* \"#utility.yul\":5867:5938   */\n      tag_52\n      jump\t// in\n    tag_157:\n        /* \"#utility.yul\":5985:5994   */\n      dup2\n        /* \"#utility.yul\":5979:5983   */\n      dup2\n        /* \"#utility.yul\":5975:5995   */\n      sub\n        /* \"#utility.yul\":5970:5972   */\n      0x20\n        /* \"#utility.yul\":5959:5968   */\n      dup4\n        /* \"#utility.yul\":5955:5973   */\n      add\n        /* \"#utility.yul\":5948:5996   */\n      mstore\n        /* \"#utility.yul\":6013:6091   */\n      tag_158\n        /* \"#utility.yul\":6086:6090   */\n      dup2\n        /* \"#utility.yul\":6077:6083   */\n      dup6\n        /* \"#utility.yul\":6013:6091   */\n      tag_66\n      jump\t// in\n    tag_158:\n        /* \"#utility.yul\":6005:6091   */\n      swap1\n      pop\n        /* \"#utility.yul\":6101:6179   */\n      tag_159\n        /* \"#utility.yul\":6175:6177   */\n      0x40\n        /* \"#utility.yul\":6164:6173   */\n      dup4\n        /* \"#utility.yul\":6160:6178   */\n      add\n        /* \"#utility.yul\":6151:6157   */\n      dup5\n        /* \"#utility.yul\":6101:6179   */\n      tag_70\n      jump\t// in\n    tag_159:\n        /* \"#utility.yul\":5641:6186   */\n      swap5\n      swap4\n      pop\n      pop\n      pop\n      pop\n      jump\t// out\n        /* \"#utility.yul\":6192:6372   */\n    tag_71:\n        /* \"#utility.yul\":6240:6317   */\n      0x4e487b7100000000000000000000000000000000000000000000000000000000\n        /* \"#utility.yul\":6237:6238   */\n      0x00\n        /* \"#utility.yul\":6230:6318   */\n      mstore\n        /* \"#utility.yul\":6337:6341   */\n      0x22\n        /* \"#utility.yul\":6334:6335   */\n      0x04\n        /* \"#utility.yul\":6327:6342   */\n      mstore\n        /* \"#utility.yul\":6361:6365   */\n      0x24\n        /* \"#utility.yul\":6358:6359   */\n      0x00\n        /* \"#utility.yul\":6351:6366   */\n      revert\n        /* \"#utility.yul\":6378:6698   */\n    tag_41:\n        /* \"#utility.yul\":6422:6428   */\n      0x00\n        /* \"#utility.yul\":6459:6460   */\n      0x02\n        /* \"#utility.yul\":6453:6457   */\n      dup3\n        /* \"#utility.yul\":6449:6461   */\n      div\n        /* \"#utility.yul\":6439:6461   */\n      swap1\n      pop\n        /* \"#utility.yul\":6506:6507   */\n      0x01\n        /* \"#utility.yul\":6500:6504   */\n      dup3\n        /* \"#utility.yul\":6496:6508   */\n      and\n        /* \"#utility.yul\":6527:6545   */\n      dup1\n        /* \"#utility.yul\":6517:6598   */\n      tag_162\n      jumpi\n        /* \"#utility.yul\":6583:6587   */\n      0x7f\n        /* \"#utility.yul\":6575:6581   */\n      dup3\n        /* \"#utility.yul\":6571:6588   */\n      and\n        /* \"#utility.yul\":6561:6588   */\n      swap2\n      pop\n        /* \"#utility.yul\":6517:6598   */\n    tag_162:\n        /* \"#utility.yul\":6645:6647   */\n      0x20\n        /* \"#utility.yul\":6637:6643   */\n      dup3\n        /* \"#utility.yul\":6634:6648   */\n      lt\n        /* \"#utility.yul\":6614:6632   */\n      dup2\n        /* \"#utility.yul\":6611:6649   */\n      sub\n        /* \"#utility.yul\":6608:6692   */\n      tag_163\n      jumpi\n        /* \"#utility.yul\":6664:6682   */\n      tag_164\n      tag_71\n      jump\t// in\n    tag_164:\n        /* \"#utility.yul\":6608:6692   */\n    tag_163:\n        /* \"#utility.yul\":6429:6698   */\n      pop\n        /* \"#utility.yul\":6378:6698   */\n      swap2\n      swap1\n      pop\n      jump\t// out\n        /* \"#utility.yul\":6704:6845   */\n    tag_72:\n        /* \"#utility.yul\":6753:6757   */\n      0x00\n        /* \"#utility.yul\":6776:6779   */\n      dup2\n        /* \"#utility.yul\":6768:6779   */\n      swap1\n      pop\n        /* \"#utility.yul\":6799:6802   */\n      dup2\n        /* \"#utility.yul\":6796:6797   */\n      0x00\n        /* \"#utility.yul\":6789:6803   */\n      mstore\n        /* \"#utility.yul\":6833:6837   */\n      0x20\n        /* \"#utility.yul\":6830:6831   */\n      0x00\n        /* \"#utility.yul\":6820:6838   */\n      keccak256\n        /* \"#utility.yul\":6812:6838   */\n      swap1\n      pop\n        /* \"#utility.yul\":6704:6845   */\n      swap2\n      swap1\n      pop\n      jump\t// out\n        /* \"#utility.yul\":6851:6944   */\n    tag_73:\n        /* \"#utility.yul\":6888:6894   */\n      0x00\n        /* \"#utility.yul\":6935:6937   */\n      0x20\n        /* \"#utility.yul\":6930:6932   */\n      0x1f\n        /* \"#utility.yul\":6923:6928   */\n      dup4\n        /* \"#utility.yul\":6919:6933   */\n      add\n        /* \"#utility.yul\":6915:6938   */\n      div\n        /* \"#utility.yul\":6905:6938   */\n      swap1\n      pop\n        /* \"#utility.yul\":6851:6944   */\n      swap2\n      swap1\n      pop\n      jump\t// out\n        /* \"#utility.yul\":6950:7057   */\n    tag_74:\n        /* \"#utility.yul\":6994:7002   */\n      0x00\n        /* \"#utility.yul\":7044:7049   */\n      dup3\n        /* \"#utility.yul\":7038:7042   */\n      dup3\n        /* \"#utility.yul\":7034:7050   */\n      shl\n        /* \"#utility.yul\":7013:7050   */\n      swap1\n      pop\n        /* \"#utility.yul\":6950:7057   */\n      swap3\n      swap2\n      pop\n      pop\n      jump\t// out\n        /* \"#utility.yul\":7063:7456   */\n    tag_75:\n        /* \"#utility.yul\":7132:7138   */\n      0x00\n        /* \"#utility.yul\":7182:7183   */\n      0x08\n        /* \"#utility.yul\":7170:7180   */\n      dup4\n        /* \"#utility.yul\":7166:7184   */\n      mul\n        /* \"#utility.yul\":7205:7302   */\n      tag_169\n        /* \"#utility.yul\":7235:7301   */\n      0xffffffffffffffffffffffffffffffffffffffffffffffffffffffffffffffff\n        /* \"#utility.yul\":7224:7233   */\n      dup3\n        /* \"#utility.yul\":7205:7302   */\n      tag_74\n      jump\t// in\n    tag_169:\n        /* \"#utility.yul\":7323:7362   */\n      tag_170\n        /* \"#utility.yul\":7353:7361   */\n      dup7\n        /* \"#utility.yul\":7342:7351   */\n      dup4\n        /* \"#utility.yul\":7323:7362   */\n      tag_74\n      jump\t// in\n    tag_170:\n        /* \"#utility.yul\":7311:7362   */\n      swap6\n      pop\n        /* \"#utility.yul\":7395:7399   */\n      dup1\n        /* \"#utility.yul\":7391:7400   */\n      not\n        /* \"#utility.yul\":7384:7389   */\n      dup5\n        /* \"#utility.yul\":7380:7401   */\n      and\n        /* \"#utility.yul\":7371:7401   */\n      swap4\n      pop\n        /* \"#utility.yul\":7444:7448   */\n      dup1\n        /* \"#utility.yul\":7434:7442   */\n      dup7\n        /* \"#utility.yul\":7430:7449   */\n      and\n        /* \"#utility.yul\":7423:7428   */\n      dup5\n        /* \"#utility.yul\":7420:7450   */\n      or\n        /* \"#utility.yul\":7410:7450   */\n      swap3\n      pop\n        /* \"#utility.yul\":7139:7456   */\n      pop\n      pop\n        /* \"#utility.yul\":7063:7456   */\n      swap4\n      swap3\n      pop\n      pop\n      pop\n      jump\t// out\n        /* \"#utility.yul\":7462:7522   */\n    tag_76:\n        /* \"#utility.yul\":7490:7493   */\n      0x00\n        /* \"#utility.yul\":7511:7516   */\n      dup2\n        /* \"#utility.yul\":7504:7516   */\n      swap1\n      pop\n        /* \"#utility.yul\":7462:7522   */\n      swap2\n      swap1\n      pop\n      jump\t// out\n        /* \"#utility.yul\":7528:7670   */\n    tag_77:\n        /* \"#utility.yul\":7578:7587   */\n      0x00\n        /* \"#utility.yul\":7611:7664   */\n      tag_173\n        /* \"#utility.yul\":7629:7663   */\n      tag_174\n        /* \"#utility.yul\":7638:7662   */\n      tag_175\n        /* \"#utility.yul\":7656:7661   */\n      dup5\n        /* \"#utility.yul\":7638:7662   */\n      tag_49\n      jump\t// in\n    tag_175:\n        /* \"#utility.yul\":7629:7663   */\n      tag_76\n      jump\t// in\n    tag_174:\n        /* \"#utility.yul\":7611:7664   */\n      tag_49\n      jump\t// in\n    tag_173:\n        /* \"#utility.yul\":7598:7664   */\n      swap1\n      pop\n        /* \"#utility.yul\":7528:7670   */\n      swap2\n      swap1\n      pop\n      jump\t// out\n        /* \"#utility.yul\":7676:7751   */\n    tag_78:\n        /* \"#utility.yul\":7719:7722   */\n      0x00\n        /* \"#utility.yul\":7740:7745   */\n      dup2\n        /* \"#utility.yul\":7733:7745   */\n      swap1\n      pop\n        /* \"#utility.yul\":7676:7751   */\n      swap2\n      swap1\n      pop\n      jump\t// out\n        /* \"#utility.yul\":7757:8026   */\n    tag_79:\n        /* \"#utility.yul\":7867:7906   */\n      tag_178\n        /* \"#utility.yul\":7898:7905   */\n      dup4\n        /* \"#utility.yul\":7867:7906   */\n      tag_77\n      jump\t// in\n    tag_178:\n        /* \"#utility.yul\":7928:8019   */\n      tag_179\n        /* \"#utility.yul\":7977:8018   */\n      tag_180\n        /* \"#utility.yul\":8001:8017   */\n      dup3\n        /* \"#utility.yul\":7977:8018   */\n      tag_78\n      jump\t// in\n    tag_180:\n        /* \"#utility.yul\":7969:7975   */\n      dup5\n        /* \"#utility.yul\":7962:7966   */\n      dup5\n        /* \"#utility.yul\":7956:7967   */\n      sload\n        /* \"#utility.yul\":7928:8019   */\n      tag_75\n      jump\t// in\n    tag_179:\n        /* \"#utility.yul\":7922:7926   */\n      dup3\n        /* \"#utility.yul\":7915:8020   */\n      sstore\n        /* \"#utility.yul\":7833:8026   */\n      pop\n        /* \"#utility.yul\":7757:8026   */\n      pop\n      pop\n      pop\n      jump\t// out\n        /* \"#utility.yul\":8032:8105   */\n    tag_80:\n        /* \"#utility.yul\":8077:8080   */\n      0x00\n        /* \"#utility.yul\":8032:8105   */\n      swap1\n      jump\t// out\n        /* \"#utility.yul\":8111:8300   */\n    tag_81:\n        /* \"#utility.yul\":8188:8220   */\n      tag_183\n      tag_80\n      jump\t// in\n    tag_183:\n        /* \"#utility.yul\":8229:8294   */\n      tag_184\n        /* \"#utility.yul\":8287:8293   */\n      dup2\n        /* \"#utility.yul\":8279:8285   */\n      dup5\n        /* \"#utility.yul\":8273:8277   */\n      dup5\n        /* \"#utility.yul\":8229:8294   */\n      tag_79\n      jump\t// in\n    tag_184:\n        /* \"#utility.yul\":8164:8300   */\n      pop\n        /* \"#utility.yul\":8111:8300   */\n      pop\n      pop\n      jump\t// out\n        /* \"#utility.yul\":8306:8492   */\n    tag_82:\n        /* \"#utility.yul\":8366:8486   */\n    tag_186:\n        /* \"#utility.yul\":8383:8386   */\n      dup2\n        /* \"#utility.yul\":8376:8381   */\n      dup2\n        /* \"#utility.yul\":8373:8387   */\n      lt\n        /* \"#utility.yul\":8366:8486   */\n      iszero\n      tag_188\n      jumpi\n        /* \"#utility.yul\":8437:8476   */\n      tag_189\n        /* \"#utility.yul\":8474:8475   */\n      0x00\n        /* \"#utility.yul\":8467:8472   */\n      dup3\n        /* \"#utility.yul\":8437:8476   */\n      tag_81\n      jump\t// in\n    tag_189:\n        /* \"#utility.yul\":8410:8411   */\n      0x01\n        /* \"#utility.yul\":8403:8408   */\n      dup2\n        /* \"#utility.yul\":8399:8412   */\n      add\n        /* \"#utility.yul\":8390:8412   */\n      swap1\n      pop\n        /* \"#utility.yul\":8366:8486   */\n      jump(tag_186)\n    tag_188:\n        /* \"#utility.yul\":8306:8492   */\n      pop\n      pop\n      jump\t// out\n        /* \"#utility.yul\":8498:9041   */\n    tag_83:\n        /* \"#utility.yul\":8599:8601   */\n      0x1f\n        /* \"#utility.yul\":8594:8597   */\n      dup3\n        /* \"#utility.yul\":8591:8602   */\n      gt\n        /* \"#utility.yul\":8588:9034   */\n      iszero\n      tag_191\n      jumpi\n        /* \"#utility.yul\":8633:8671   */\n      tag_192\n        /* \"#utility.yul\":8665:8670   */\n      dup2\n        /* \"#utility.yul\":8633:8671   */\n      tag_72\n      jump\t// in\n    tag_192:\n        /* \"#utility.yul\":8717:8746   */\n      tag_193\n        /* \"#utility.yul\":8735:8745   */\n      dup5\n        /* \"#utility.yul\":8717:8746   */\n      tag_73\n      jump\t// in\n    tag_193:\n        /* \"#utility.yul\":8707:8715   */\n      dup2\n        /* \"#utility.yul\":8703:8747   */\n      add\n        /* \"#utility.yul\":8900:8902   */\n      0x20\n        /* \"#utility.yul\":8888:8898   */\n      dup6\n        /* \"#utility.yul\":8885:8903   */\n      lt\n        /* \"#utility.yul\":8882:8931   */\n      iszero\n      tag_194\n      jumpi\n        /* \"#utility.yul\":8921:8929   */\n      dup2\n        /* \"#utility.yul\":8906:8929   */\n      swap1\n      pop\n        /* \"#utility.yul\":8882:8931   */\n    tag_194:\n        /* \"#utility.yul\":8944:9024   */\n      tag_195\n        /* \"#utility.yul\":9000:9022   */\n      tag_196\n        /* \"#utility.yul\":9018:9021   */\n      dup6\n        /* \"#utility.yul\":9000:9022   */\n      tag_73\n      jump\t// in\n    tag_196:\n        /* \"#utility.yul\":8990:8998   */\n      dup4\n        /* \"#utility.yul\":8986:9023   */\n      add\n        /* \"#utility.yul\":8973:8984   */\n      dup3\n        /* \"#utility.yul\":8944:9024   */\n      tag_82\n      jump\t// in\n    tag_195:\n        /* \"#utility.yul\":8603:9034   */\n      pop\n      pop\n        /* \"#utility.yul\":8588:9034   */\n    tag_191:\n        /* \"#utility.yul\":8498:9041   */\n      pop\n      pop\n      pop\n      jump\t// out\n        /* \"#utility.yul\":9047:9164   */\n    tag_84:\n        /* \"#utility.yul\":9101:9109   */\n      0x00\n        /* \"#utility.yul\":9151:9156   */\n      dup3\n        /* \"#utility.yul\":9145:9149   */\n      dup3\n        /* \"#utility.yul\":9141:9157   */\n      shr\n        /* \"#utility.yul\":9120:9157   */\n      swap1\n      pop\n        /* \"#utility.yul\":9047:9164   */\n      swap3\n      swap2\n      pop\n      pop\n      jump\t// out\n        /* \"#utility.yul\":9170:9339   */\n    tag_85:\n        /* \"#utility.yul\":9214:9220   */\n      0x00\n        /* \"#utility.yul\":9247:9298   */\n      tag_199\n        /* \"#utility.yul\":9295:9296   */\n      0x00\n        /* \"#utility.yul\":9291:9297   */\n      not\n        /* \"#utility.yul\":9283:9288   */\n      dup5\n        /* \"#utility.yul\":9280:9281   */\n      0x08\n        /* \"#utility.yul\":9276:9289   */\n      mul\n        /* \"#utility.yul\":9247:9298   */\n      tag_84\n      jump\t// in\n    tag_199:\n        /* \"#utility.yul\":9243:9299   */\n      not\n        /* \"#utility.yul\":9328:9332   */\n      dup1\n        /* \"#utility.yul\":9322:9326   */\n      dup4\n        /* \"#utility.yul\":9318:9333   */\n      and\n        /* \"#utility.yul\":9308:9333   */\n      swap2\n      pop\n        /* \"#utility.yul\":9221:9339   */\n      pop\n        /* \"#utility.yul\":9170:9339   */\n      swap3\n      swap2\n      pop\n      pop\n      jump\t// out\n        /* \"#utility.yul\":9344:9639   */\n    tag_86:\n        /* \"#utility.yul\":9420:9424   */\n      0x00\n        /* \"#utility.yul\":9566:9595   */\n      tag_201\n        /* \"#utility.yul\":9591:9594   */\n      dup4\n        /* \"#utility.yul\":9585:9589   */\n      dup4\n        /* \"#utility.yul\":9566:9595   */\n      tag_85\n      jump\t// in\n    tag_201:\n        /* \"#utility.yul\":9558:9595   */\n      swap2\n      pop\n        /* \"#utility.yul\":9628:9631   */\n      dup3\n        /* \"#utility.yul\":9625:9626   */\n      0x02\n        /* \"#utility.yul\":9621:9632   */\n      mul\n        /* \"#utility.yul\":9615:9619   */\n      dup3\n        /* \"#utility.yul\":9612:9633   */\n      or\n        /* \"#utility.yul\":9604:9633   */\n      swap1\n      pop\n        /* \"#utility.yul\":9344:9639   */\n      swap3\n      swap2\n      pop\n      pop\n      jump\t// out\n        /* \"#utility.yul\":9644:11039   */\n    tag_32:\n        /* \"#utility.yul\":9761:9798   */\n      tag_203\n        /* \"#utility.yul\":9794:9797   */\n      dup3\n        /* \"#utility.yul\":9761:9798   */\n      tag_63\n      jump\t// in\n    tag_203:\n        /* \"#utility.yul\":9863:9881   */\n      0xffffffffffffffff\n        /* \"#utility.yul\":9855:9861   */\n      dup2\n        /* \"#utility.yul\":9852:9882   */\n      gt\n        /* \"#utility.yul\":9849:9905   */\n      iszero\n      tag_204\n      jumpi\n        /* \"#utility.yul\":9885:9903   */\n      tag_205\n      tag_56\n      jump\t// in\n    tag_205:\n        /* \"#utility.yul\":9849:9905   */\n    tag_204:\n        /* \"#utility.yul\":9929:9967   */\n      tag_206\n        /* \"#utility.yul\":9961:9965   */\n      dup3\n        /* \"#utility.yul\":9955:9966   */\n      sload\n        /* \"#utility.yul\":9929:9967   */\n      tag_41\n      jump\t// in\n    tag_206:\n        /* \"#utility.yul\":10014:10081   */\n      tag_207\n        /* \"#utility.yul\":10074:10080   */\n      dup3\n        /* \"#utility.yul\":10066:10072   */\n      dup3\n        /* \"#utility.yul\":10060:10064   */\n      dup6\n        /* \"#utility.yul\":10014:10081   */\n      tag_83\n      jump\t// in\n    tag_207:\n        /* \"#utility.yul\":10108:10109   */\n      0x00\n        /* \"#utility.yul\":10132:10136   */\n      0x20\n        /* \"#utility.yul\":10119:10136   */\n      swap1\n      pop\n        /* \"#utility.yul\":10164:10166   */\n      0x1f\n        /* \"#utility.yul\":10156:10162   */\n      dup4\n        /* \"#utility.yul\":10153:10167   */\n      gt\n        /* \"#utility.yul\":10181:10182   */\n      0x01\n        /* \"#utility.yul\":10176:10794   */\n      dup2\n      eq\n      tag_209\n      jumpi\n        /* \"#utility.yul\":10838:10839   */\n      0x00\n        /* \"#utility.yul\":10855:10861   */\n      dup5\n        /* \"#utility.yul\":10852:10929   */\n      iszero\n      tag_210\n      jumpi\n        /* \"#utility.yul\":10904:10913   */\n      dup3\n        /* \"#utility.yul\":10899:10902   */\n      dup8\n        /* \"#utility.yul\":10895:10914   */\n      add\n        /* \"#utility.yul\":10889:10915   */\n      mload\n        /* \"#utility.yul\":10880:10915   */\n      swap1\n      pop\n        /* \"#utility.yul\":10852:10929   */\n    tag_210:\n        /* \"#utility.yul\":10955:11022   */\n      tag_211\n        /* \"#utility.yul\":11015:11021   */\n      dup6\n        /* \"#utility.yul\":11008:11013   */\n      dup3\n        /* \"#utility.yul\":10955:11022   */\n      tag_86\n      jump\t// in\n    tag_211:\n        /* \"#utility.yul\":10949:10953   */\n      dup7\n        /* \"#utility.yul\":10942:11023   */\n      sstore\n        /* \"#utility.yul\":10811:11033   */\n      pop\n        /* \"#utility.yul\":10146:11033   */\n      jump(tag_208)\n        /* \"#utility.yul\":10176:10794   */\n    tag_209:\n        /* \"#utility.yul\":10228:10232   */\n      0x1f\n        /* \"#utility.yul\":10224:10233   */\n      not\n        /* \"#utility.yul\":10216:10222   */\n      dup5\n        /* \"#utility.yul\":10212:10234   */\n      and\n        /* \"#utility.yul\":10262:10299   */\n      tag_212\n        /* \"#utility.yul\":10294:10298   */\n      dup7\n        /* \"#utility.yul\":10262:10299   */\n      tag_72\n      jump\t// in\n    tag_212:\n        /* \"#utility.yul\":10321:10322   */\n      0x00\n        /* \"#utility.yul\":10335:10543   */\n    tag_213:\n        /* \"#utility.yul\":10349:10356   */\n      dup3\n        /* \"#utility.yul\":10346:10347   */\n      dup2\n        /* \"#utility.yul\":10343:10357   */\n      lt\n        /* \"#utility.yul\":10335:10543   */\n      iszero\n      tag_215\n      jumpi\n        /* \"#utility.yul\":10428:10437   */\n      dup5\n        /* \"#utility.yul\":10423:10426   */\n      dup10\n        /* \"#utility.yul\":10419:10438   */\n      add\n        /* \"#utility.yul\":10413:10439   */\n      mload\n        /* \"#utility.yul\":10405:10411   */\n      dup3\n        /* \"#utility.yul\":10398:10440   */\n      sstore\n        /* \"#utility.yul\":10479:10480   */\n      0x01\n        /* \"#utility.yul\":10471:10477   */\n      dup3\n        /* \"#utility.yul\":10467:10481   */\n      add\n        /* \"#utility.yul\":10457:10481   */\n      swap2\n      pop\n        /* \"#utility.yul\":10526:10528   */\n      0x20\n        /* \"#utility.yul\":10515:10524   */\n      dup6\n        /* \"#utility.yul\":10511:10529   */\n      add\n        /* \"#utility.yul\":10498:10529   */\n      swap5\n      pop\n        /* \"#utility.yul\":10372:10376   */\n      0x20\n        /* \"#utility.yul\":10369:10370   */\n      dup2\n        /* \"#utility.yul\":10365:10377   */\n      add\n        /* \"#utility.yul\":10360:10377   */\n      swap1\n      pop\n        /* \"#utility.yul\":10335:10543   */\n      jump(tag_213)\n    tag_215:\n        /* \"#utility.yul\":10571:10577   */\n      dup7\n        /* \"#utility.yul\":10562:10569   */\n      dup4\n        /* \"#utility.yul\":10559:10578   */\n      lt\n        /* \"#utility.yul\":10556:10735   */\n      iszero\n      tag_216\n      jumpi\n        /* \"#utility.yul\":10629:10638   */\n      dup5\n        /* \"#utility.yul\":10624:10627   */\n      dup10\n        /* \"#utility.yul\":10620:10639   */\n      add\n        /* \"#utility.yul\":10614:10640   */\n      mload\n        /* \"#utility.yul\":10672:10720   */\n      tag_217\n        /* \"#utility.yul\":10714:10718   */\n      0x1f\n        /* \"#utility.yul\":10706:10712   */\n      dup10\n        /* \"#utility.yul\":10702:10719   */\n      and\n        /* \"#utility.yul\":10691:10700   */\n      dup3\n        /* \"#utility.yul\":10672:10720   */\n      tag_85\n      jump\t// in\n    tag_217:\n        /* \"#utility.yul\":10664:10670   */\n      dup4\n        /* \"#utility.yul\":10657:10721   */\n      sstore\n        /* \"#utility.yul\":10579:10735   */\n      pop\n        /* \"#utility.yul\":10556:10735   */\n    tag_216:\n        /* \"#utility.yul\":10781:10782   */\n      0x01\n        /* \"#utility.yul\":10777:10778   */\n      0x02\n        /* \"#utility.yul\":10769:10775   */\n      dup9\n        /* \"#utility.yul\":10765:10779   */\n      mul\n        /* \"#utility.yul\":10761:10783   */\n      add\n        /* \"#utility.yul\":10755:10759   */\n      dup9\n        /* \"#utility.yul\":10748:10784   */\n      sstore\n        /* \"#utility.yul\":10183:10794   */\n      pop\n      pop\n      pop\n        /* \"#utility.yul\":10146:11033   */\n    tag_208:\n      pop\n        /* \"#utility.yul\":9736:11039   */\n      pop\n      pop\n      pop\n        /* \"#utility.yul\":9644:11039   */\n      pop\n      pop\n      jump\t// out\n        /* \"#utility.yul\":11045:11468   */\n    tag_37:\n        /* \"#utility.yul\":11186:11190   */\n      0x00\n        /* \"#utility.yul\":11224:11226   */\n      0x40\n        /* \"#utility.yul\":11213:11222   */\n      dup3\n        /* \"#utility.yul\":11209:11227   */\n      add\n        /* \"#utility.yul\":11201:11227   */\n      swap1\n      pop\n        /* \"#utility.yul\":11237:11308   */\n      tag_219\n        /* \"#utility.yul\":11305:11306   */\n      0x00\n        /* \"#utility.yul\":11294:11303   */\n      dup4\n        /* \"#utility.yul\":11290:11307   */\n      add\n        /* \"#utility.yul\":11281:11287   */\n      dup6\n        /* \"#utility.yul\":11237:11308   */\n      tag_52\n      jump\t// in\n    tag_219:\n        /* \"#utility.yul\":11355:11364   */\n      dup2\n        /* \"#utility.yul\":11349:11353   */\n      dup2\n        /* \"#utility.yul\":11345:11365   */\n      sub\n        /* \"#utility.yul\":11340:11342   */\n      0x20\n        /* \"#utility.yul\":11329:11338   */\n      dup4\n        /* \"#utility.yul\":11325:11343   */\n      add\n        /* \"#utility.yul\":11318:11366   */\n      mstore\n        /* \"#utility.yul\":11383:11461   */\n      tag_220\n        /* \"#utility.yul\":11456:11460   */\n      dup2\n        /* \"#utility.yul\":11447:11453   */\n      dup5\n        /* \"#utility.yul\":11383:11461   */\n      tag_66\n      jump\t// in\n    tag_220:\n        /* \"#utility.yul\":11375:11461   */\n      swap1\n      pop\n        /* \"#utility.yul\":11045:11468   */\n      swap4\n      swap3\n      pop\n      pop\n      pop\n      jump\t// out\n        /* \"#utility.yul\":11474:11654   */\n    tag_87:\n        /* \"#utility.yul\":11522:11599   */\n      0x4e487b7100000000000000000000000000000000000000000000000000000000\n        /* \"#utility.yul\":11519:11520   */\n      0x00\n        /* \"#utility.yul\":11512:11600   */\n      mstore\n        /* \"#utility.yul\":11619:11623   */\n      0x11\n        /* \"#utility.yul\":11616:11617   */\n      0x04\n        /* \"#utility.yul\":11609:11624   */\n      mstore\n        /* \"#utility.yul\":11643:11647   */\n      0x24\n        /* \"#utility.yul\":11640:11641   */\n      0x00\n        /* \"#utility.yul\":11633:11648   */\n      revert\n        /* \"#utility.yul\":11660:11893   */\n    tag_39:\n        /* \"#utility.yul\":11699:11702   */\n      0x00\n        /* \"#utility.yul\":11722:11746   */\n      tag_223\n        /* \"#utility.yul\":11740:11745   */\n      dup3\n        /* \"#utility.yul\":11722:11746   */\n      tag_49\n      jump\t// in\n    tag_223:\n        /* \"#utility.yul\":11713:11746   */\n      swap2\n      pop\n        /* \"#utility.yul\":11768:11834   */\n      0xffffffffffffffffffffffffffffffffffffffffffffffffffffffffffffffff\n        /* \"#utility.yul\":11761:11766   */\n      dup3\n        /* \"#utility.yul\":11758:11835   */\n      sub\n        /* \"#utility.yul\":11755:11858   */\n      tag_224\n      jumpi\n        /* \"#utility.yul\":11838:11856   */\n      tag_225\n      tag_87\n      jump\t// in\n    tag_225:\n        /* \"#utility.yul\":11755:11858   */\n    tag_224:\n        /* \"#utility.yul\":11885:11886   */\n      0x01\n        /* \"#utility.yul\":11878:11883   */\n      dup3\n        /* \"#utility.yul\":11874:11887   */\n      add\n        /* \"#utility.yul\":11867:11887   */\n      swap1\n      pop\n        /* \"#utility.yul\":11660:11893   */\n      swap2\n      swap1\n      pop\n      jump\t// out\n\n    auxdata: 0xa26469706673582212209e2e822ced5015761a36c2fbc134285c9a83cdb6fd1a4c0b0dd1d3e457166aaf64736f6c634300081a0033\n}\n",
				"bytecode": {
					"linkReferences": {},
					"object": "608060405260016002553480156013575f80fd5b5061099f806100215f395ff3fe608060405234801561000f575f80fd5b506004361061004a575f3560e01c806303c5c31f1461004e57806361b8ce8c1461007e57806395ffebf51461009c578063bc8bc2b4146100b8575b5f80fd5b61006860048036038101906100639190610319565b6100ea565b6040516100759190610353565b60405180910390f35b61008661010a565b6040516100939190610353565b60405180910390f35b6100b660048036038101906100b191906104a8565b610110565b005b6100d260048036038101906100cd9190610319565b61021e565b6040516100e1939291906105c2565b60405180910390f35b600181815481106100f9575f80fd5b905f5260205f20015f915090505481565b60025481565b604051806060016040528060025481526020018281526020015f600281111561013c5761013b61054f565b5b8152505f8060025481526020019081526020015f205f820151815f0155602082015181600101908161016e91906107f8565b506040820151816002015f6101000a81548160ff021916908360028111156101995761019861054f565b5b02179055509050506001600254908060018154018082558091505060019003905f5260205f20015f90919091909150557f606222d2d9b2ffe82e59c226d772a363312cfce0027119e88e27c4db155e882d600254826040516101fc9291906108c7565b60405180910390a160025f81548092919061021690610922565b919050555050565b5f602052805f5260405f205f91509050805f0154908060010180546102429061062b565b80601f016020809104026020016040519081016040528092919081815260200182805461026e9061062b565b80156102b95780601f10610290576101008083540402835291602001916102b9565b820191905f5260205f20905b81548152906001019060200180831161029c57829003601f168201915b505050505090806002015f9054906101000a900460ff16905083565b5f604051905090565b5f80fd5b5f80fd5b5f819050919050565b6102f8816102e6565b8114610302575f80fd5b50565b5f81359050610313816102ef565b92915050565b5f6020828403121561032e5761032d6102de565b5b5f61033b84828501610305565b91505092915050565b61034d816102e6565b82525050565b5f6020820190506103665f830184610344565b92915050565b5f80fd5b5f80fd5b5f601f19601f8301169050919050565b7f4e487b71000000000000000000000000000000000000000000000000000000005f52604160045260245ffd5b6103ba82610374565b810181811067ffffffffffffffff821117156103d9576103d8610384565b5b80604052505050565b5f6103eb6102d5565b90506103f782826103b1565b919050565b5f67ffffffffffffffff82111561041657610415610384565b5b61041f82610374565b9050602081019050919050565b828183375f83830152505050565b5f61044c610447846103fc565b6103e2565b90508281526020810184848401111561046857610467610370565b5b61047384828561042c565b509392505050565b5f82601f83011261048f5761048e61036c565b5b813561049f84826020860161043a565b91505092915050565b5f602082840312156104bd576104bc6102de565b5b5f82013567ffffffffffffffff8111156104da576104d96102e2565b5b6104e68482850161047b565b91505092915050565b5f81519050919050565b5f82825260208201905092915050565b8281835e5f83830152505050565b5f610521826104ef565b61052b81856104f9565b935061053b818560208601610509565b61054481610374565b840191505092915050565b7f4e487b71000000000000000000000000000000000000000000000000000000005f52602160045260245ffd5b6003811061058d5761058c61054f565b5b50565b5f81905061059d8261057c565b919050565b5f6105ac82610590565b9050919050565b6105bc816105a2565b82525050565b5f6060820190506105d55f830186610344565b81810360208301526105e78185610517565b90506105f660408301846105b3565b949350505050565b7f4e487b71000000000000000000000000000000000000000000000000000000005f52602260045260245ffd5b5f600282049050600182168061064257607f821691505b602082108103610655576106546105fe565b5b50919050565b5f819050815f5260205f209050919050565b5f6020601f8301049050919050565b5f82821b905092915050565b5f600883026106b77fffffffffffffffffffffffffffffffffffffffffffffffffffffffffffffffff8261067c565b6106c1868361067c565b95508019841693508086168417925050509392505050565b5f819050919050565b5f6106fc6106f76106f2846102e6565b6106d9565b6102e6565b9050919050565b5f819050919050565b610715836106e2565b61072961072182610703565b848454610688565b825550505050565b5f90565b61073d610731565b61074881848461070c565b505050565b5b8181101561076b576107605f82610735565b60018101905061074e565b5050565b601f8211156107b0576107818161065b565b61078a8461066d565b81016020851015610799578190505b6107ad6107a58561066d565b83018261074d565b50505b505050565b5f82821c905092915050565b5f6107d05f19846008026107b5565b1980831691505092915050565b5f6107e883836107c1565b9150826002028217905092915050565b610801826104ef565b67ffffffffffffffff81111561081a57610819610384565b5b610824825461062b565b61082f82828561076f565b5f60209050601f831160018114610860575f841561084e578287015190505b61085885826107dd565b8655506108bf565b601f19841661086e8661065b565b5f5b8281101561089557848901518255600182019150602085019450602081019050610870565b868310156108b257848901516108ae601f8916826107c1565b8355505b6001600288020188555050505b505050505050565b5f6040820190506108da5f830185610344565b81810360208301526108ec8184610517565b90509392505050565b7f4e487b71000000000000000000000000000000000000000000000000000000005f52601160045260245ffd5b5f61092c826102e6565b91507fffffffffffffffffffffffffffffffffffffffffffffffffffffffffffffffff820361095e5761095d6108f5565b5b60018201905091905056fea26469706673582212209e2e822ced5015761a36c2fbc134285c9a83cdb6fd1a4c0b0dd1d3e457166aaf64736f6c634300081a0033",
					"opcodes": "PUSH1 0x80 PUSH1 0x40 MSTORE PUSH1 0x1 PUSH1 0x2 SSTORE CALLVALUE DUP1 ISZERO PUSH1 0x13 JUMPI PUSH0 DUP1 REVERT JUMPDEST POP PUSH2 0x99F DUP1 PUSH2 0x21 PUSH0 CODECOPY PUSH0 RETURN INVALID PUSH1 0x80 PUSH1 0x40 MSTORE CALLVALUE DUP1 ISZERO PUSH2 0xF JUMPI PUSH0 DUP1 REVERT JUMPDEST POP PUSH1 0x4 CALLDATASIZE LT PUSH2 0x4A JUMPI PUSH0 CALLDATALOAD PUSH1 0xE0 SHR DUP1 PUSH4 0x3C5C31F EQ PUSH2 0x4E JUMPI DUP1 PUSH4 0x61B8CE8C EQ PUSH2 0x7E JUMPI DUP1 PUSH4 0x95FFEBF5 EQ PUSH2 0x9C JUMPI DUP1 PUSH4 0xBC8BC2B4 EQ PUSH2 0xB8 JUMPI JUMPDEST PUSH0 DUP1 REVERT JUMPDEST PUSH2 0x68 PUSH1 0x4 DUP1 CALLDATASIZE SUB DUP2 ADD SWAP1 PUSH2 0x63 SWAP2 SWAP1 PUSH2 0x319 JUMP JUMPDEST PUSH2 0xEA JUMP JUMPDEST PUSH1 0x40 MLOAD PUSH2 0x75 SWAP2 SWAP1 PUSH2 0x353 JUMP JUMPDEST PUSH1 0x40 MLOAD DUP1 SWAP2 SUB SWAP1 RETURN JUMPDEST PUSH2 0x86 PUSH2 0x10A JUMP JUMPDEST PUSH1 0x40 MLOAD PUSH2 0x93 SWAP2 SWAP1 PUSH2 0x353 JUMP JUMPDEST PUSH1 0x40 MLOAD DUP1 SWAP2 SUB SWAP1 RETURN JUMPDEST PUSH2 0xB6 PUSH1 0x4 DUP1 CALLDATASIZE SUB DUP2 ADD SWAP1 PUSH2 0xB1 SWAP2 SWAP1 PUSH2 0x4A8 JUMP JUMPDEST PUSH2 0x110 JUMP JUMPDEST STOP JUMPDEST PUSH2 0xD2 PUSH1 0x4 DUP1 CALLDATASIZE SUB DUP2 ADD SWAP1 PUSH2 0xCD SWAP2 SWAP1 PUSH2 0x319 JUMP JUMPDEST PUSH2 0x21E JUMP JUMPDEST PUSH1 0x40 MLOAD PUSH2 0xE1 SWAP4 SWAP3 SWAP2 SWAP1 PUSH2 0x5C2 JUMP JUMPDEST PUSH1 0x40 MLOAD DUP1 SWAP2 SUB SWAP1 RETURN JUMPDEST PUSH1 0x1 DUP2 DUP2 SLOAD DUP2 LT PUSH2 0xF9 JUMPI PUSH0 DUP1 REVERT JUMPDEST SWAP1 PUSH0 MSTORE PUSH1 0x20 PUSH0 KECCAK256 ADD PUSH0 SWAP2 POP SWAP1 POP SLOAD DUP2 JUMP JUMPDEST PUSH1 0x2 SLOAD DUP2 JUMP JUMPDEST PUSH1 0x40 MLOAD DUP1 PUSH1 0x60 ADD PUSH1 0x40 MSTORE DUP1 PUSH1 0x2 SLOAD DUP2 MSTORE PUSH1 0x20 ADD DUP3 DUP2 MSTORE PUSH1 0x20 ADD PUSH0 PUSH1 0x2 DUP2 GT ISZERO PUSH2 0x13C JUMPI PUSH2 0x13B PUSH2 0x54F JUMP JUMPDEST JUMPDEST DUP2 MSTORE POP PUSH0 DUP1 PUSH1 0x2 SLOAD DUP2 MSTORE PUSH1 0x20 ADD SWAP1 DUP2 MSTORE PUSH1 0x20 ADD PUSH0 KECCAK256 PUSH0 DUP3 ADD MLOAD DUP2 PUSH0 ADD SSTORE PUSH1 0x20 DUP3 ADD MLOAD DUP2 PUSH1 0x1 ADD SWAP1 DUP2 PUSH2 0x16E SWAP2 SWAP1 PUSH2 0x7F8 JUMP JUMPDEST POP PUSH1 0x40 DUP3 ADD MLOAD DUP2 PUSH1 0x2 ADD PUSH0 PUSH2 0x100 EXP DUP2 SLOAD DUP2 PUSH1 0xFF MUL NOT AND SWAP1 DUP4 PUSH1 0x2 DUP2 GT ISZERO PUSH2 0x199 JUMPI PUSH2 0x198 PUSH2 0x54F JUMP JUMPDEST JUMPDEST MUL OR SWAP1 SSTORE POP SWAP1 POP POP PUSH1 0x1 PUSH1 0x2 SLOAD SWAP1 DUP1 PUSH1 0x1 DUP2 SLOAD ADD DUP1 DUP3 SSTORE DUP1 SWAP2 POP POP PUSH1 0x1 SWAP1 SUB SWAP1 PUSH0 MSTORE PUSH1 0x20 PUSH0 KECCAK256 ADD PUSH0 SWAP1 SWAP2 SWAP1 SWAP2 SWAP1 SWAP2 POP SSTORE PUSH32 0x606222D2D9B2FFE82E59C226D772A363312CFCE0027119E88E27C4DB155E882D PUSH1 0x2 SLOAD DUP3 PUSH1 0x40 MLOAD PUSH2 0x1FC SWAP3 SWAP2 SWAP1 PUSH2 0x8C7 JUMP JUMPDEST PUSH1 0x40 MLOAD DUP1 SWAP2 SUB SWAP1 LOG1 PUSH1 0x2 PUSH0 DUP2 SLOAD DUP1 SWAP3 SWAP2 SWAP1 PUSH2 0x216 SWAP1 PUSH2 0x922 JUMP JUMPDEST SWAP2 SWAP1 POP SSTORE POP POP JUMP JUMPDEST PUSH0 PUSH1 0x20 MSTORE DUP1 PUSH0 MSTORE PUSH1 0x40 PUSH0 KECCAK256 PUSH0 SWAP2 POP SWAP1 POP DUP1 PUSH0 ADD SLOAD SWAP1 DUP1 PUSH1 0x1 ADD DUP1 SLOAD PUSH2 0x242 SWAP1 PUSH2 0x62B JUMP JUMPDEST DUP1 PUSH1 0x1F ADD PUSH1 0x20 DUP1 SWAP2 DIV MUL PUSH1 0x20 ADD PUSH1 0x40 MLOAD SWAP1 DUP2 ADD PUSH1 0x40 MSTORE DUP1 SWAP3 SWAP2 SWAP1 DUP2 DUP2 MSTORE PUSH1 0x20 ADD DUP3 DUP1 SLOAD PUSH2 0x26E SWAP1 PUSH2 0x62B JUMP JUMPDEST DUP1 ISZERO PUSH2 0x2B9 JUMPI DUP1 PUSH1 0x1F LT PUSH2 0x290 JUMPI PUSH2 0x100 DUP1 DUP4 SLOAD DIV MUL DUP4 MSTORE SWAP2 PUSH1 0x20 ADD SWAP2 PUSH2 0x2B9 JUMP JUMPDEST DUP3 ADD SWAP2 SWAP1 PUSH0 MSTORE PUSH1 0x20 PUSH0 KECCAK256 SWAP1 JUMPDEST DUP2 SLOAD DUP2 MSTORE SWAP1 PUSH1 0x1 ADD SWAP1 PUSH1 0x20 ADD DUP1 DUP4 GT PUSH2 0x29C JUMPI DUP3 SWAP1 SUB PUSH1 0x1F AND DUP3 ADD SWAP2 JUMPDEST POP POP POP POP POP SWAP1 DUP1 PUSH1 0x2 ADD PUSH0 SWAP1 SLOAD SWAP1 PUSH2 0x100 EXP SWAP1 DIV PUSH1 0xFF AND SWAP1 POP DUP4 JUMP JUMPDEST PUSH0 PUSH1 0x40 MLOAD SWAP1 POP SWAP1 JUMP JUMPDEST PUSH0 DUP1 REVERT JUMPDEST PUSH0 DUP1 REVERT JUMPDEST PUSH0 DUP2 SWAP1 POP SWAP2 SWAP1 POP JUMP JUMPDEST PUSH2 0x2F8 DUP2 PUSH2 0x2E6 JUMP JUMPDEST DUP2 EQ PUSH2 0x302 JUMPI PUSH0 DUP1 REVERT JUMPDEST POP JUMP JUMPDEST PUSH0 DUP2 CALLDATALOAD SWAP1 POP PUSH2 0x313 DUP2 PUSH2 0x2EF JUMP JUMPDEST SWAP3 SWAP2 POP POP JUMP JUMPDEST PUSH0 PUSH1 0x20 DUP3 DUP5 SUB SLT ISZERO PUSH2 0x32E JUMPI PUSH2 0x32D PUSH2 0x2DE JUMP JUMPDEST JUMPDEST PUSH0 PUSH2 0x33B DUP5 DUP3 DUP6 ADD PUSH2 0x305 JUMP JUMPDEST SWAP2 POP POP SWAP3 SWAP2 POP POP JUMP JUMPDEST PUSH2 0x34D DUP2 PUSH2 0x2E6 JUMP JUMPDEST DUP3 MSTORE POP POP JUMP JUMPDEST PUSH0 PUSH1 0x20 DUP3 ADD SWAP1 POP PUSH2 0x366 PUSH0 DUP4 ADD DUP5 PUSH2 0x344 JUMP JUMPDEST SWAP3 SWAP2 POP POP JUMP JUMPDEST PUSH0 DUP1 REVERT JUMPDEST PUSH0 DUP1 REVERT JUMPDEST PUSH0 PUSH1 0x1F NOT PUSH1 0x1F DUP4 ADD AND SWAP1 POP SWAP2 SWAP1 POP JUMP JUMPDEST PUSH32 0x4E487B7100000000000000000000000000000000000000000000000000000000 PUSH0 MSTORE PUSH1 0x41 PUSH1 0x4 MSTORE PUSH1 0x24 PUSH0 REVERT JUMPDEST PUSH2 0x3BA DUP3 PUSH2 0x374 JUMP JUMPDEST DUP2 ADD DUP2 DUP2 LT PUSH8 0xFFFFFFFFFFFFFFFF DUP3 GT OR ISZERO PUSH2 0x3D9 JUMPI PUSH2 0x3D8 PUSH2 0x384 JUMP JUMPDEST JUMPDEST DUP1 PUSH1 0x40 MSTORE POP POP POP JUMP JUMPDEST PUSH0 PUSH2 0x3EB PUSH2 0x2D5 JUMP JUMPDEST SWAP1 POP PUSH2 0x3F7 DUP3 DUP3 PUSH2 0x3B1 JUMP JUMPDEST SWAP2 SWAP1 POP JUMP JUMPDEST PUSH0 PUSH8 0xFFFFFFFFFFFFFFFF DUP3 GT ISZERO PUSH2 0x416 JUMPI PUSH2 0x415 PUSH2 0x384 JUMP JUMPDEST JUMPDEST PUSH2 0x41F DUP3 PUSH2 0x374 JUMP JUMPDEST SWAP1 POP PUSH1 0x20 DUP2 ADD SWAP1 POP SWAP2 SWAP1 POP JUMP JUMPDEST DUP3 DUP2 DUP4 CALLDATACOPY PUSH0 DUP4 DUP4 ADD MSTORE POP POP POP JUMP JUMPDEST PUSH0 PUSH2 0x44C PUSH2 0x447 DUP5 PUSH2 0x3FC JUMP JUMPDEST PUSH2 0x3E2 JUMP JUMPDEST SWAP1 POP DUP3 DUP2 MSTORE PUSH1 0x20 DUP2 ADD DUP5 DUP5 DUP5 ADD GT ISZERO PUSH2 0x468 JUMPI PUSH2 0x467 PUSH2 0x370 JUMP JUMPDEST JUMPDEST PUSH2 0x473 DUP5 DUP3 DUP6 PUSH2 0x42C JUMP JUMPDEST POP SWAP4 SWAP3 POP POP POP JUMP JUMPDEST PUSH0 DUP3 PUSH1 0x1F DUP4 ADD SLT PUSH2 0x48F JUMPI PUSH2 0x48E PUSH2 0x36C JUMP JUMPDEST JUMPDEST DUP2 CALLDATALOAD PUSH2 0x49F DUP5 DUP3 PUSH1 0x20 DUP7 ADD PUSH2 0x43A JUMP JUMPDEST SWAP2 POP POP SWAP3 SWAP2 POP POP JUMP JUMPDEST PUSH0 PUSH1 0x20 DUP3 DUP5 SUB SLT ISZERO PUSH2 0x4BD JUMPI PUSH2 0x4BC PUSH2 0x2DE JUMP JUMPDEST JUMPDEST PUSH0 DUP3 ADD CALLDATALOAD PUSH8 0xFFFFFFFFFFFFFFFF DUP2 GT ISZERO PUSH2 0x4DA JUMPI PUSH2 0x4D9 PUSH2 0x2E2 JUMP JUMPDEST JUMPDEST PUSH2 0x4E6 DUP5 DUP3 DUP6 ADD PUSH2 0x47B JUMP JUMPDEST SWAP2 POP POP SWAP3 SWAP2 POP POP JUMP JUMPDEST PUSH0 DUP2 MLOAD SWAP1 POP SWAP2 SWAP1 POP JUMP JUMPDEST PUSH0 DUP3 DUP3 MSTORE PUSH1 0x20 DUP3 ADD SWAP1 POP SWAP3 SWAP2 POP POP JUMP JUMPDEST DUP3 DUP2 DUP4 MCOPY PUSH0 DUP4 DUP4 ADD MSTORE POP POP POP JUMP JUMPDEST PUSH0 PUSH2 0x521 DUP3 PUSH2 0x4EF JUMP JUMPDEST PUSH2 0x52B DUP2 DUP6 PUSH2 0x4F9 JUMP JUMPDEST SWAP4 POP PUSH2 0x53B DUP2 DUP6 PUSH1 0x20 DUP7 ADD PUSH2 0x509 JUMP JUMPDEST PUSH2 0x544 DUP2 PUSH2 0x374 JUMP JUMPDEST DUP5 ADD SWAP2 POP POP SWAP3 SWAP2 POP POP JUMP JUMPDEST PUSH32 0x4E487B7100000000000000000000000000000000000000000000000000000000 PUSH0 MSTORE PUSH1 0x21 PUSH1 0x4 MSTORE PUSH1 0x24 PUSH0 REVERT JUMPDEST PUSH1 0x3 DUP2 LT PUSH2 0x58D JUMPI PUSH2 0x58C PUSH2 0x54F JUMP JUMPDEST JUMPDEST POP JUMP JUMPDEST PUSH0 DUP2 SWAP1 POP PUSH2 0x59D DUP3 PUSH2 0x57C JUMP JUMPDEST SWAP2 SWAP1 POP JUMP JUMPDEST PUSH0 PUSH2 0x5AC DUP3 PUSH2 0x590 JUMP JUMPDEST SWAP1 POP SWAP2 SWAP1 POP JUMP JUMPDEST PUSH2 0x5BC DUP2 PUSH2 0x5A2 JUMP JUMPDEST DUP3 MSTORE POP POP JUMP JUMPDEST PUSH0 PUSH1 0x60 DUP3 ADD SWAP1 POP PUSH2 0x5D5 PUSH0 DUP4 ADD DUP7 PUSH2 0x344 JUMP JUMPDEST DUP2 DUP2 SUB PUSH1 0x20 DUP4 ADD MSTORE PUSH2 0x5E7 DUP2 DUP6 PUSH2 0x517 JUMP JUMPDEST SWAP1 POP PUSH2 0x5F6 PUSH1 0x40 DUP4 ADD DUP5 PUSH2 0x5B3 JUMP JUMPDEST SWAP5 SWAP4 POP POP POP POP JUMP JUMPDEST PUSH32 0x4E487B7100000000000000000000000000000000000000000000000000000000 PUSH0 MSTORE PUSH1 0x22 PUSH1 0x4 MSTORE PUSH1 0x24 PUSH0 REVERT JUMPDEST PUSH0 PUSH1 0x2 DUP3 DIV SWAP1 POP PUSH1 0x1 DUP3 AND DUP1 PUSH2 0x642 JUMPI PUSH1 0x7F DUP3 AND SWAP2 POP JUMPDEST PUSH1 0x20 DUP3 LT DUP2 SUB PUSH2 0x655 JUMPI PUSH2 0x654 PUSH2 0x5FE JUMP JUMPDEST JUMPDEST POP SWAP2 SWAP1 POP JUMP JUMPDEST PUSH0 DUP2 SWAP1 POP DUP2 PUSH0 MSTORE PUSH1 0x20 PUSH0 KECCAK256 SWAP1 POP SWAP2 SWAP1 POP JUMP JUMPDEST PUSH0 PUSH1 0x20 PUSH1 0x1F DUP4 ADD DIV SWAP1 POP SWAP2 SWAP1 POP JUMP JUMPDEST PUSH0 DUP3 DUP3 SHL SWAP1 POP SWAP3 SWAP2 POP POP JUMP JUMPDEST PUSH0 PUSH1 0x8 DUP4 MUL PUSH2 0x6B7 PUSH32 0xFFFFFFFFFFFFFFFFFFFFFFFFFFFFFFFFFFFFFFFFFFFFFFFFFFFFFFFFFFFFFFFF DUP3 PUSH2 0x67C JUMP JUMPDEST PUSH2 0x6C1 DUP7 DUP4 PUSH2 0x67C JUMP JUMPDEST SWAP6 POP DUP1 NOT DUP5 AND SWAP4 POP DUP1 DUP7 AND DUP5 OR SWAP3 POP POP POP SWAP4 SWAP3 POP POP POP JUMP JUMPDEST PUSH0 DUP2 SWAP1 POP SWAP2 SWAP1 POP JUMP JUMPDEST PUSH0 PUSH2 0x6FC PUSH2 0x6F7 PUSH2 0x6F2 DUP5 PUSH2 0x2E6 JUMP JUMPDEST PUSH2 0x6D9 JUMP JUMPDEST PUSH2 0x2E6 JUMP JUMPDEST SWAP1 POP SWAP2 SWAP1 POP JUMP JUMPDEST PUSH0 DUP2 SWAP1 POP SWAP2 SWAP1 POP JUMP JUMPDEST PUSH2 0x715 DUP4 PUSH2 0x6E2 JUMP JUMPDEST PUSH2 0x729 PUSH2 0x721 DUP3 PUSH2 0x703 JUMP JUMPDEST DUP5 DUP5 SLOAD PUSH2 0x688 JUMP JUMPDEST DUP3 SSTORE POP POP POP POP JUMP JUMPDEST PUSH0 SWAP1 JUMP JUMPDEST PUSH2 0x73D PUSH2 0x731 JUMP JUMPDEST PUSH2 0x748 DUP2 DUP5 DUP5 PUSH2 0x70C JUMP JUMPDEST POP POP POP JUMP JUMPDEST JUMPDEST DUP2 DUP2 LT ISZERO PUSH2 0x76B JUMPI PUSH2 0x760 PUSH0 DUP3 PUSH2 0x735 JUMP JUMPDEST PUSH1 0x1 DUP2 ADD SWAP1 POP PUSH2 0x74E JUMP JUMPDEST POP POP JUMP JUMPDEST PUSH1 0x1F DUP3 GT ISZERO PUSH2 0x7B0 JUMPI PUSH2 0x781 DUP2 PUSH2 0x65B JUMP JUMPDEST PUSH2 0x78A DUP5 PUSH2 0x66D JUMP JUMPDEST DUP2 ADD PUSH1 0x20 DUP6 LT ISZERO PUSH2 0x799 JUMPI DUP2 SWAP1 POP JUMPDEST PUSH2 0x7AD PUSH2 0x7A5 DUP6 PUSH2 0x66D JUMP JUMPDEST DUP4 ADD DUP3 PUSH2 0x74D JUMP JUMPDEST POP POP JUMPDEST POP POP POP JUMP JUMPDEST PUSH0 DUP3 DUP3 SHR SWAP1 POP SWAP3 SWAP2 POP POP JUMP JUMPDEST PUSH0 PUSH2 0x7D0 PUSH0 NOT DUP5 PUSH1 0x8 MUL PUSH2 0x7B5 JUMP JUMPDEST NOT DUP1 DUP4 AND SWAP2 POP POP SWAP3 SWAP2 POP POP JUMP JUMPDEST PUSH0 PUSH2 0x7E8 DUP4 DUP4 PUSH2 0x7C1 JUMP JUMPDEST SWAP2 POP DUP3 PUSH1 0x2 MUL DUP3 OR SWAP1 POP SWAP3 SWAP2 POP POP JUMP JUMPDEST PUSH2 0x801 DUP3 PUSH2 0x4EF JUMP JUMPDEST PUSH8 0xFFFFFFFFFFFFFFFF DUP2 GT ISZERO PUSH2 0x81A JUMPI PUSH2 0x819 PUSH2 0x384 JUMP JUMPDEST JUMPDEST PUSH2 0x824 DUP3 SLOAD PUSH2 0x62B JUMP JUMPDEST PUSH2 0x82F DUP3 DUP3 DUP6 PUSH2 0x76F JUMP JUMPDEST PUSH0 PUSH1 0x20 SWAP1 POP PUSH1 0x1F DUP4 GT PUSH1 0x1 DUP2 EQ PUSH2 0x860 JUMPI PUSH0 DUP5 ISZERO PUSH2 0x84E JUMPI DUP3 DUP8 ADD MLOAD SWAP1 POP JUMPDEST PUSH2 0x858 DUP6 DUP3 PUSH2 0x7DD JUMP JUMPDEST DUP7 SSTORE POP PUSH2 0x8BF JUMP JUMPDEST PUSH1 0x1F NOT DUP5 AND PUSH2 0x86E DUP7 PUSH2 0x65B JUMP JUMPDEST PUSH0 JUMPDEST DUP3 DUP2 LT ISZERO PUSH2 0x895 JUMPI DUP5 DUP10 ADD MLOAD DUP3 SSTORE PUSH1 0x1 DUP3 ADD SWAP2 POP PUSH1 0x20 DUP6 ADD SWAP5 POP PUSH1 0x20 DUP2 ADD SWAP1 POP PUSH2 0x870 JUMP JUMPDEST DUP7 DUP4 LT ISZERO PUSH2 0x8B2 JUMPI DUP5 DUP10 ADD MLOAD PUSH2 0x8AE PUSH1 0x1F DUP10 AND DUP3 PUSH2 0x7C1 JUMP JUMPDEST DUP4 SSTORE POP JUMPDEST PUSH1 0x1 PUSH1 0x2 DUP9 MUL ADD DUP9 SSTORE POP POP POP JUMPDEST POP POP POP POP POP POP JUMP JUMPDEST PUSH0 PUSH1 0x40 DUP3 ADD SWAP1 POP PUSH2 0x8DA PUSH0 DUP4 ADD DUP6 PUSH2 0x344 JUMP JUMPDEST DUP2 DUP2 SUB PUSH1 0x20 DUP4 ADD MSTORE PUSH2 0x8EC DUP2 DUP5 PUSH2 0x517 JUMP JUMPDEST SWAP1 POP SWAP4 SWAP3 POP POP POP JUMP JUMPDEST PUSH32 0x4E487B7100000000000000000000000000000000000000000000000000000000 PUSH0 MSTORE PUSH1 0x11 PUSH1 0x4 MSTORE PUSH1 0x24 PUSH0 REVERT JUMPDEST PUSH0 PUSH2 0x92C DUP3 PUSH2 0x2E6 JUMP JUMPDEST SWAP2 POP PUSH32 0xFFFFFFFFFFFFFFFFFFFFFFFFFFFFFFFFFFFFFFFFFFFFFFFFFFFFFFFFFFFFFFFF DUP3 SUB PUSH2 0x95E JUMPI PUSH2 0x95D PUSH2 0x8F5 JUMP JUMPDEST JUMPDEST PUSH1 0x1 DUP3 ADD SWAP1 POP SWAP2 SWAP1 POP JUMP INVALID LOG2 PUSH5 0x6970667358 0x22 SLT KECCAK256 SWAP15 0x2E DUP3 0x2C 0xED POP ISZERO PUSH23 0x1A36C2FBC134285C9A83CDB6FD1A4C0B0DD1D3E457166A 0xAF PUSH5 0x736F6C6343 STOP ADDMOD BYTE STOP CALLER "
				},
				"gasEstimates": {
					"creation": {
						"codeDepositCost": "492600",
						"executionCost": "22628",
						"totalCost": "515228"
					},
					"external": {
						"addTodo(string)": "infinite",
						"nextId()": "2425",
						"todoIds(uint256)": "infinite",
						"todos(uint256)": "infinite"
					}
				},
				"methodIdentifiers": {
					"addTodo(string)": "95ffebf5",
					"nextId()": "61b8ce8c",
					"todoIds(uint256)": "03c5c31f",
					"todos(uint256)": "bc8bc2b4"
				}
			},
			"storageLayout": {
				"storage": [
					{
						"astId": 18,
						"contract": "contracts/TodoList.sol:TodoList",
						"label": "todos",
						"offset": 0,
						"slot": "0",
						"type": "t_mapping(t_uint256,t_struct(Todo)13_storage)"
					},
					{
						"astId": 21,
						"contract": "contracts/TodoList.sol:TodoList",
						"label": "todoIds",
						"offset": 0,
						"slot": "1",
						"type": "t_array(t_uint256)dyn_storage"
					},
					{
						"astId": 24,
						"contract": "contracts/TodoList.sol:TodoList",
						"label": "nextId",
						"offset": 0,
						"slot": "2",
						"type": "t_uint256"
					}
				],
				"types": {
					"t_array(t_uint256)dyn_storage": {
						"base": "t_uint256",
						"encoding": "dynamic_array",
						"label": "uint256[]",
						"numberOfBytes": "32"
					},
					"t_enum(Status)5": {
						"encoding": "inplace",
						"label": "enum TodoList.Status",
						"numberOfBytes": "1"
					},
					"t_mapping(t_uint256,t_struct(Todo)13_storage)": {
						"encoding": "mapping",
						"key": "t_uint256",
						"label": "mapping(uint256 => struct TodoList.Todo)",
						"numberOfBytes": "32",
						"value": "t_struct(Todo)13_storage"
					},
					"t_string_storage": {
						"encoding": "bytes",
						"label": "string",
						"numberOfBytes": "32"
					},
					"t_struct(Todo)13_storage": {
						"encoding": "inplace",
						"label": "struct TodoList.Todo",
						"members": [
							{
								"astId": 7,
								"contract": "contracts/TodoList.sol:TodoList",
								"label": "id",
								"offset": 0,
								"slot": "0",
								"type": "t_uint256"
							},
							{
								"astId": 9,
								"contract": "contracts/TodoList.sol:TodoList",
								"label": "content",
								"offset": 0,
								"slot": "1",
								"type": "t_string_storage"
							},
							{
								"astId": 12,
								"contract": "contracts/TodoList.sol:TodoList",
								"label": "status",
								"offset": 0,
								"slot": "2",
								"type": "t_enum(Status)5"
							}
						],
						"numberOfBytes": "96"
					},
					"t_uint256": {
						"encoding": "inplace",
						"label": "uint256",
						"numberOfBytes": "32"
					}
				}
			},
			"userdoc": {
				"kind": "user",
				"methods": {},
				"version": 1
			}
		}
	}
}