{
	"contracts/Practice.sol": {
		"MyPractice": {
			"abi": [
				{
					"inputs": [
						{
							"internalType": "string",
							"name": "_name",
							"type": "string"
						}
					],
					"name": "addEmployee",
					"outputs": [],
					"stateMutability": "nonpayable",
					"type": "function"
				},
				{
					"inputs": [
						{
							"internalType": "uint256",
							"name": "",
							"type": "uint256"
						}
					],
					"name": "employees",
					"outputs": [
						{
							"internalType": "string",
							"name": "",
							"type": "string"
						}
					],
					"stateMutability": "view",
					"type": "function"
				},
				{
					"inputs": [
						{
							"internalType": "uint256",
							"name": "_index",
							"type": "uint256"
						}
					],
					"name": "getEmployee",
					"outputs": [
						{
							"internalType": "string",
							"name": "",
							"type": "string"
						}
					],
					"stateMutability": "view",
					"type": "function"
				}
			],
			"devdoc": {
				"kind": "dev",
				"methods": {},
				"version": 1
			},
			"evm": {
				"assembly": "    /* \"contracts/Practice.sol\":60:487  contract MyPractice {... */\n  mstore(0x40, 0x80)\n    /* \"contracts/Practice.sol\":166:224  string [] public employees = [\"nathan\", \"mariam\", \"chris\"] */\n  mload(0x40)\n  dup1\n  0x60\n  add\n  0x40\n  mstore\n  dup1\n  mload(0x40)\n  dup1\n  0x40\n  add\n  0x40\n  mstore\n  dup1\n  0x06\n  dup2\n  mstore\n  0x20\n  add\n  0x6e617468616e0000000000000000000000000000000000000000000000000000\n  dup2\n  mstore\n  pop\n  dup2\n  mstore\n  0x20\n  add\n  mload(0x40)\n  dup1\n  0x40\n  add\n  0x40\n  mstore\n  dup1\n  0x06\n  dup2\n  mstore\n  0x20\n  add\n  0x6d617269616d0000000000000000000000000000000000000000000000000000\n  dup2\n  mstore\n  pop\n  dup2\n  mstore\n  0x20\n  add\n  mload(0x40)\n  dup1\n  0x40\n  add\n  0x40\n  mstore\n  dup1\n  0x05\n  dup2\n  mstore\n  0x20\n  add\n  0x6368726973000000000000000000000000000000000000000000000000000000\n  dup2\n  mstore\n  pop\n  dup2\n  mstore\n  pop\n  0x00\n  swap1\n  0x03\n  tag_1\n  swap3\n  swap2\n  swap1\n  tag_2\n  jump\t// in\ntag_1:\n  pop\n    /* \"contracts/Practice.sol\":60:487  contract MyPractice {... */\n  callvalue\n  dup1\n  iszero\n  tag_3\n  jumpi\n  0x00\n  dup1\n  revert\ntag_3:\n  pop\n  jump(tag_4)\ntag_2:\n  dup3\n  dup1\n  sload\n  dup3\n  dup3\n  sstore\n  swap1\n  0x00\n  mstore\n  keccak256(0x00, 0x20)\n  swap1\n  dup2\n  add\n  swap3\n  dup3\n  iszero\n  tag_5\n  jumpi\n  swap2\n  0x20\n  mul\n  dup3\n  add\ntag_6:\n  dup3\n  dup2\n  gt\n  iszero\n  tag_7\n  jumpi\n  dup3\n  mload\n  dup3\n  swap1\n  dup2\n  tag_8\n  swap2\n  swap1\n  tag_9\n  jump\t// in\ntag_8:\n  pop\n  swap2\n  0x20\n  add\n  swap2\n  swap1\n  0x01\n  add\n  swap1\n  jump(tag_6)\ntag_7:\ntag_5:\n  pop\n  swap1\n  pop\n  tag_10\n  swap2\n  swap1\n  tag_11\n  jump\t// in\ntag_10:\n  pop\n  swap1\n  jump\t// out\ntag_11:\ntag_12:\n  dup1\n  dup3\n  gt\n  iszero\n  tag_13\n  jumpi\n  0x00\n  dup2\n  dup2\n  tag_14\n  swap2\n  swap1\n  tag_15\n  jump\t// in\ntag_14:\n  pop\n  0x01\n  add\n  jump(tag_12)\ntag_13:\n  pop\n  swap1\n  jump\t// out\ntag_15:\n  pop\n  dup1\n  sload\n  tag_16\n  swap1\n  tag_17\n  jump\t// in\ntag_16:\n  0x00\n  dup3\n  sstore\n  dup1\n  0x1f\n  lt\n  tag_19\n  jumpi\n  pop\n  jump(tag_18)\ntag_19:\n  0x1f\n  add\n  0x20\n  swap1\n  div\n  swap1\n  0x00\n  mstore\n  keccak256(0x00, 0x20)\n  swap1\n  dup2\n  add\n  swap1\n  tag_20\n  swap2\n  swap1\n  tag_21\n  jump\t// in\ntag_20:\ntag_18:\n  pop\n  jump\t// out\ntag_21:\ntag_22:\n  dup1\n  dup3\n  gt\n  iszero\n  tag_23\n  jumpi\n  0x00\n  dup2\n  0x00\n  swap1\n  sstore\n  pop\n  0x01\n  add\n  jump(tag_22)\ntag_23:\n  pop\n  swap1\n  jump\t// out\n    /* \"#utility.yul\":7:106   */\ntag_24:\n    /* \"#utility.yul\":59:65   */\n  0x00\n    /* \"#utility.yul\":93:98   */\n  dup2\n    /* \"#utility.yul\":87:99   */\n  mload\n    /* \"#utility.yul\":77:99   */\n  swap1\n  pop\n    /* \"#utility.yul\":7:106   */\n  swap2\n  swap1\n  pop\n  jump\t// out\n    /* \"#utility.yul\":112:292   */\ntag_25:\n    /* \"#utility.yul\":160:237   */\n  0x4e487b7100000000000000000000000000000000000000000000000000000000\n    /* \"#utility.yul\":157:158   */\n  0x00\n    /* \"#utility.yul\":150:238   */\n  mstore\n    /* \"#utility.yul\":257:261   */\n  0x41\n    /* \"#utility.yul\":254:255   */\n  0x04\n    /* \"#utility.yul\":247:262   */\n  mstore\n    /* \"#utility.yul\":281:285   */\n  0x24\n    /* \"#utility.yul\":278:279   */\n  0x00\n    /* \"#utility.yul\":271:286   */\n  revert\n    /* \"#utility.yul\":298:478   */\ntag_26:\n    /* \"#utility.yul\":346:423   */\n  0x4e487b7100000000000000000000000000000000000000000000000000000000\n    /* \"#utility.yul\":343:344   */\n  0x00\n    /* \"#utility.yul\":336:424   */\n  mstore\n    /* \"#utility.yul\":443:447   */\n  0x22\n    /* \"#utility.yul\":440:441   */\n  0x04\n    /* \"#utility.yul\":433:448   */\n  mstore\n    /* \"#utility.yul\":467:471   */\n  0x24\n    /* \"#utility.yul\":464:465   */\n  0x00\n    /* \"#utility.yul\":457:472   */\n  revert\n    /* \"#utility.yul\":484:804   */\ntag_17:\n    /* \"#utility.yul\":528:534   */\n  0x00\n    /* \"#utility.yul\":565:566   */\n  0x02\n    /* \"#utility.yul\":559:563   */\n  dup3\n    /* \"#utility.yul\":555:567   */\n  div\n    /* \"#utility.yul\":545:567   */\n  swap1\n  pop\n    /* \"#utility.yul\":612:613   */\n  0x01\n    /* \"#utility.yul\":606:610   */\n  dup3\n    /* \"#utility.yul\":602:614   */\n  and\n    /* \"#utility.yul\":633:651   */\n  dup1\n    /* \"#utility.yul\":623:704   */\n  tag_48\n  jumpi\n    /* \"#utility.yul\":689:693   */\n  0x7f\n    /* \"#utility.yul\":681:687   */\n  dup3\n    /* \"#utility.yul\":677:694   */\n  and\n    /* \"#utility.yul\":667:694   */\n  swap2\n  pop\n    /* \"#utility.yul\":623:704   */\ntag_48:\n    /* \"#utility.yul\":751:753   */\n  0x20\n    /* \"#utility.yul\":743:749   */\n  dup3\n    /* \"#utility.yul\":740:754   */\n  lt\n    /* \"#utility.yul\":720:738   */\n  dup2\n    /* \"#utility.yul\":717:755   */\n  sub\n    /* \"#utility.yul\":714:798   */\n  tag_49\n  jumpi\n    /* \"#utility.yul\":770:788   */\n  tag_50\n  tag_26\n  jump\t// in\ntag_50:\n    /* \"#utility.yul\":714:798   */\ntag_49:\n    /* \"#utility.yul\":535:804   */\n  pop\n    /* \"#utility.yul\":484:804   */\n  swap2\n  swap1\n  pop\n  jump\t// out\n    /* \"#utility.yul\":810:951   */\ntag_27:\n    /* \"#utility.yul\":859:863   */\n  0x00\n    /* \"#utility.yul\":882:885   */\n  dup2\n    /* \"#utility.yul\":874:885   */\n  swap1\n  pop\n    /* \"#utility.yul\":905:908   */\n  dup2\n    /* \"#utility.yul\":902:903   */\n  0x00\n    /* \"#utility.yul\":895:909   */\n  mstore\n    /* \"#utility.yul\":939:943   */\n  0x20\n    /* \"#utility.yul\":936:937   */\n  0x00\n    /* \"#utility.yul\":926:944   */\n  keccak256\n    /* \"#utility.yul\":918:944   */\n  swap1\n  pop\n    /* \"#utility.yul\":810:951   */\n  swap2\n  swap1\n  pop\n  jump\t// out\n    /* \"#utility.yul\":957:1050   */\ntag_28:\n    /* \"#utility.yul\":994:1000   */\n  0x00\n    /* \"#utility.yul\":1041:1043   */\n  0x20\n    /* \"#utility.yul\":1036:1038   */\n  0x1f\n    /* \"#utility.yul\":1029:1034   */\n  dup4\n    /* \"#utility.yul\":1025:1039   */\n  add\n    /* \"#utility.yul\":1021:1044   */\n  div\n    /* \"#utility.yul\":1011:1044   */\n  swap1\n  pop\n    /* \"#utility.yul\":957:1050   */\n  swap2\n  swap1\n  pop\n  jump\t// out\n    /* \"#utility.yul\":1056:1163   */\ntag_29:\n    /* \"#utility.yul\":1100:1108   */\n  0x00\n    /* \"#utility.yul\":1150:1155   */\n  dup3\n    /* \"#utility.yul\":1144:1148   */\n  dup3\n    /* \"#utility.yul\":1140:1156   */\n  shl\n    /* \"#utility.yul\":1119:1156   */\n  swap1\n  pop\n    /* \"#utility.yul\":1056:1163   */\n  swap3\n  swap2\n  pop\n  pop\n  jump\t// out\n    /* \"#utility.yul\":1169:1562   */\ntag_30:\n    /* \"#utility.yul\":1238:1244   */\n  0x00\n    /* \"#utility.yul\":1288:1289   */\n  0x08\n    /* \"#utility.yul\":1276:1286   */\n  dup4\n    /* \"#utility.yul\":1272:1290   */\n  mul\n    /* \"#utility.yul\":1311:1408   */\n  tag_55\n    /* \"#utility.yul\":1341:1407   */\n  0xffffffffffffffffffffffffffffffffffffffffffffffffffffffffffffffff\n    /* \"#utility.yul\":1330:1339   */\n  dup3\n    /* \"#utility.yul\":1311:1408   */\n  tag_29\n  jump\t// in\ntag_55:\n    /* \"#utility.yul\":1429:1468   */\n  tag_56\n    /* \"#utility.yul\":1459:1467   */\n  dup7\n    /* \"#utility.yul\":1448:1457   */\n  dup4\n    /* \"#utility.yul\":1429:1468   */\n  tag_29\n  jump\t// in\ntag_56:\n    /* \"#utility.yul\":1417:1468   */\n  swap6\n  pop\n    /* \"#utility.yul\":1501:1505   */\n  dup1\n    /* \"#utility.yul\":1497:1506   */\n  not\n    /* \"#utility.yul\":1490:1495   */\n  dup5\n    /* \"#utility.yul\":1486:1507   */\n  and\n    /* \"#utility.yul\":1477:1507   */\n  swap4\n  pop\n    /* \"#utility.yul\":1550:1554   */\n  dup1\n    /* \"#utility.yul\":1540:1548   */\n  dup7\n    /* \"#utility.yul\":1536:1555   */\n  and\n    /* \"#utility.yul\":1529:1534   */\n  dup5\n    /* \"#utility.yul\":1526:1556   */\n  or\n    /* \"#utility.yul\":1516:1556   */\n  swap3\n  pop\n    /* \"#utility.yul\":1245:1562   */\n  pop\n  pop\n    /* \"#utility.yul\":1169:1562   */\n  swap4\n  swap3\n  pop\n  pop\n  pop\n  jump\t// out\n    /* \"#utility.yul\":1568:1645   */\ntag_31:\n    /* \"#utility.yul\":1605:1612   */\n  0x00\n    /* \"#utility.yul\":1634:1639   */\n  dup2\n    /* \"#utility.yul\":1623:1639   */\n  swap1\n  pop\n    /* \"#utility.yul\":1568:1645   */\n  swap2\n  swap1\n  pop\n  jump\t// out\n    /* \"#utility.yul\":1651:1711   */\ntag_32:\n    /* \"#utility.yul\":1679:1682   */\n  0x00\n    /* \"#utility.yul\":1700:1705   */\n  dup2\n    /* \"#utility.yul\":1693:1705   */\n  swap1\n  pop\n    /* \"#utility.yul\":1651:1711   */\n  swap2\n  swap1\n  pop\n  jump\t// out\n    /* \"#utility.yul\":1717:1859   */\ntag_33:\n    /* \"#utility.yul\":1767:1776   */\n  0x00\n    /* \"#utility.yul\":1800:1853   */\n  tag_60\n    /* \"#utility.yul\":1818:1852   */\n  tag_61\n    /* \"#utility.yul\":1827:1851   */\n  tag_62\n    /* \"#utility.yul\":1845:1850   */\n  dup5\n    /* \"#utility.yul\":1827:1851   */\n  tag_31\n  jump\t// in\ntag_62:\n    /* \"#utility.yul\":1818:1852   */\n  tag_32\n  jump\t// in\ntag_61:\n    /* \"#utility.yul\":1800:1853   */\n  tag_31\n  jump\t// in\ntag_60:\n    /* \"#utility.yul\":1787:1853   */\n  swap1\n  pop\n    /* \"#utility.yul\":1717:1859   */\n  swap2\n  swap1\n  pop\n  jump\t// out\n    /* \"#utility.yul\":1865:1940   */\ntag_34:\n    /* \"#utility.yul\":1908:1911   */\n  0x00\n    /* \"#utility.yul\":1929:1934   */\n  dup2\n    /* \"#utility.yul\":1922:1934   */\n  swap1\n  pop\n    /* \"#utility.yul\":1865:1940   */\n  swap2\n  swap1\n  pop\n  jump\t// out\n    /* \"#utility.yul\":1946:2215   */\ntag_35:\n    /* \"#utility.yul\":2056:2095   */\n  tag_65\n    /* \"#utility.yul\":2087:2094   */\n  dup4\n    /* \"#utility.yul\":2056:2095   */\n  tag_33\n  jump\t// in\ntag_65:\n    /* \"#utility.yul\":2117:2208   */\n  tag_66\n    /* \"#utility.yul\":2166:2207   */\n  tag_67\n    /* \"#utility.yul\":2190:2206   */\n  dup3\n    /* \"#utility.yul\":2166:2207   */\n  tag_34\n  jump\t// in\ntag_67:\n    /* \"#utility.yul\":2158:2164   */\n  dup5\n    /* \"#utility.yul\":2151:2155   */\n  dup5\n    /* \"#utility.yul\":2145:2156   */\n  sload\n    /* \"#utility.yul\":2117:2208   */\n  tag_30\n  jump\t// in\ntag_66:\n    /* \"#utility.yul\":2111:2115   */\n  dup3\n    /* \"#utility.yul\":2104:2209   */\n  sstore\n    /* \"#utility.yul\":2022:2215   */\n  pop\n    /* \"#utility.yul\":1946:2215   */\n  pop\n  pop\n  pop\n  jump\t// out\n    /* \"#utility.yul\":2221:2294   */\ntag_36:\n    /* \"#utility.yul\":2266:2269   */\n  0x00\n    /* \"#utility.yul\":2221:2294   */\n  swap1\n  jump\t// out\n    /* \"#utility.yul\":2300:2489   */\ntag_37:\n    /* \"#utility.yul\":2377:2409   */\n  tag_70\n  tag_36\n  jump\t// in\ntag_70:\n    /* \"#utility.yul\":2418:2483   */\n  tag_71\n    /* \"#utility.yul\":2476:2482   */\n  dup2\n    /* \"#utility.yul\":2468:2474   */\n  dup5\n    /* \"#utility.yul\":2462:2466   */\n  dup5\n    /* \"#utility.yul\":2418:2483   */\n  tag_35\n  jump\t// in\ntag_71:\n    /* \"#utility.yul\":2353:2489   */\n  pop\n    /* \"#utility.yul\":2300:2489   */\n  pop\n  pop\n  jump\t// out\n    /* \"#utility.yul\":2495:2681   */\ntag_38:\n    /* \"#utility.yul\":2555:2675   */\ntag_73:\n    /* \"#utility.yul\":2572:2575   */\n  dup2\n    /* \"#utility.yul\":2565:2570   */\n  dup2\n    /* \"#utility.yul\":2562:2576   */\n  lt\n    /* \"#utility.yul\":2555:2675   */\n  iszero\n  tag_75\n  jumpi\n    /* \"#utility.yul\":2626:2665   */\n  tag_76\n    /* \"#utility.yul\":2663:2664   */\n  0x00\n    /* \"#utility.yul\":2656:2661   */\n  dup3\n    /* \"#utility.yul\":2626:2665   */\n  tag_37\n  jump\t// in\ntag_76:\n    /* \"#utility.yul\":2599:2600   */\n  0x01\n    /* \"#utility.yul\":2592:2597   */\n  dup2\n    /* \"#utility.yul\":2588:2601   */\n  add\n    /* \"#utility.yul\":2579:2601   */\n  swap1\n  pop\n    /* \"#utility.yul\":2555:2675   */\n  jump(tag_73)\ntag_75:\n    /* \"#utility.yul\":2495:2681   */\n  pop\n  pop\n  jump\t// out\n    /* \"#utility.yul\":2687:3230   */\ntag_39:\n    /* \"#utility.yul\":2788:2790   */\n  0x1f\n    /* \"#utility.yul\":2783:2786   */\n  dup3\n    /* \"#utility.yul\":2780:2791   */\n  gt\n    /* \"#utility.yul\":2777:3223   */\n  iszero\n  tag_78\n  jumpi\n    /* \"#utility.yul\":2822:2860   */\n  tag_79\n    /* \"#utility.yul\":2854:2859   */\n  dup2\n    /* \"#utility.yul\":2822:2860   */\n  tag_27\n  jump\t// in\ntag_79:\n    /* \"#utility.yul\":2906:2935   */\n  tag_80\n    /* \"#utility.yul\":2924:2934   */\n  dup5\n    /* \"#utility.yul\":2906:2935   */\n  tag_28\n  jump\t// in\ntag_80:\n    /* \"#utility.yul\":2896:2904   */\n  dup2\n    /* \"#utility.yul\":2892:2936   */\n  add\n    /* \"#utility.yul\":3089:3091   */\n  0x20\n    /* \"#utility.yul\":3077:3087   */\n  dup6\n    /* \"#utility.yul\":3074:3092   */\n  lt\n    /* \"#utility.yul\":3071:3120   */\n  iszero\n  tag_81\n  jumpi\n    /* \"#utility.yul\":3110:3118   */\n  dup2\n    /* \"#utility.yul\":3095:3118   */\n  swap1\n  pop\n    /* \"#utility.yul\":3071:3120   */\ntag_81:\n    /* \"#utility.yul\":3133:3213   */\n  tag_82\n    /* \"#utility.yul\":3189:3211   */\n  tag_83\n    /* \"#utility.yul\":3207:3210   */\n  dup6\n    /* \"#utility.yul\":3189:3211   */\n  tag_28\n  jump\t// in\ntag_83:\n    /* \"#utility.yul\":3179:3187   */\n  dup4\n    /* \"#utility.yul\":3175:3212   */\n  add\n    /* \"#utility.yul\":3162:3173   */\n  dup3\n    /* \"#utility.yul\":3133:3213   */\n  tag_38\n  jump\t// in\ntag_82:\n    /* \"#utility.yul\":2792:3223   */\n  pop\n  pop\n    /* \"#utility.yul\":2777:3223   */\ntag_78:\n    /* \"#utility.yul\":2687:3230   */\n  pop\n  pop\n  pop\n  jump\t// out\n    /* \"#utility.yul\":3236:3353   */\ntag_40:\n    /* \"#utility.yul\":3290:3298   */\n  0x00\n    /* \"#utility.yul\":3340:3345   */\n  dup3\n    /* \"#utility.yul\":3334:3338   */\n  dup3\n    /* \"#utility.yul\":3330:3346   */\n  shr\n    /* \"#utility.yul\":3309:3346   */\n  swap1\n  pop\n    /* \"#utility.yul\":3236:3353   */\n  swap3\n  swap2\n  pop\n  pop\n  jump\t// out\n    /* \"#utility.yul\":3359:3528   */\ntag_41:\n    /* \"#utility.yul\":3403:3409   */\n  0x00\n    /* \"#utility.yul\":3436:3487   */\n  tag_86\n    /* \"#utility.yul\":3484:3485   */\n  0x00\n    /* \"#utility.yul\":3480:3486   */\n  not\n    /* \"#utility.yul\":3472:3477   */\n  dup5\n    /* \"#utility.yul\":3469:3470   */\n  0x08\n    /* \"#utility.yul\":3465:3478   */\n  mul\n    /* \"#utility.yul\":3436:3487   */\n  tag_40\n  jump\t// in\ntag_86:\n    /* \"#utility.yul\":3432:3488   */\n  not\n    /* \"#utility.yul\":3517:3521   */\n  dup1\n    /* \"#utility.yul\":3511:3515   */\n  dup4\n    /* \"#utility.yul\":3507:3522   */\n  and\n    /* \"#utility.yul\":3497:3522   */\n  swap2\n  pop\n    /* \"#utility.yul\":3410:3528   */\n  pop\n    /* \"#utility.yul\":3359:3528   */\n  swap3\n  swap2\n  pop\n  pop\n  jump\t// out\n    /* \"#utility.yul\":3533:3828   */\ntag_42:\n    /* \"#utility.yul\":3609:3613   */\n  0x00\n    /* \"#utility.yul\":3755:3784   */\n  tag_88\n    /* \"#utility.yul\":3780:3783   */\n  dup4\n    /* \"#utility.yul\":3774:3778   */\n  dup4\n    /* \"#utility.yul\":3755:3784   */\n  tag_41\n  jump\t// in\ntag_88:\n    /* \"#utility.yul\":3747:3784   */\n  swap2\n  pop\n    /* \"#utility.yul\":3817:3820   */\n  dup3\n    /* \"#utility.yul\":3814:3815   */\n  0x02\n    /* \"#utility.yul\":3810:3821   */\n  mul\n    /* \"#utility.yul\":3804:3808   */\n  dup3\n    /* \"#utility.yul\":3801:3822   */\n  or\n    /* \"#utility.yul\":3793:3822   */\n  swap1\n  pop\n    /* \"#utility.yul\":3533:3828   */\n  swap3\n  swap2\n  pop\n  pop\n  jump\t// out\n    /* \"#utility.yul\":3833:5228   */\ntag_9:\n    /* \"#utility.yul\":3950:3987   */\n  tag_90\n    /* \"#utility.yul\":3983:3986   */\n  dup3\n    /* \"#utility.yul\":3950:3987   */\n  tag_24\n  jump\t// in\ntag_90:\n    /* \"#utility.yul\":4052:4070   */\n  0xffffffffffffffff\n    /* \"#utility.yul\":4044:4050   */\n  dup2\n    /* \"#utility.yul\":4041:4071   */\n  gt\n    /* \"#utility.yul\":4038:4094   */\n  iszero\n  tag_91\n  jumpi\n    /* \"#utility.yul\":4074:4092   */\n  tag_92\n  tag_25\n  jump\t// in\ntag_92:\n    /* \"#utility.yul\":4038:4094   */\ntag_91:\n    /* \"#utility.yul\":4118:4156   */\n  tag_93\n    /* \"#utility.yul\":4150:4154   */\n  dup3\n    /* \"#utility.yul\":4144:4155   */\n  sload\n    /* \"#utility.yul\":4118:4156   */\n  tag_17\n  jump\t// in\ntag_93:\n    /* \"#utility.yul\":4203:4270   */\n  tag_94\n    /* \"#utility.yul\":4263:4269   */\n  dup3\n    /* \"#utility.yul\":4255:4261   */\n  dup3\n    /* \"#utility.yul\":4249:4253   */\n  dup6\n    /* \"#utility.yul\":4203:4270   */\n  tag_39\n  jump\t// in\ntag_94:\n    /* \"#utility.yul\":4297:4298   */\n  0x00\n    /* \"#utility.yul\":4321:4325   */\n  0x20\n    /* \"#utility.yul\":4308:4325   */\n  swap1\n  pop\n    /* \"#utility.yul\":4353:4355   */\n  0x1f\n    /* \"#utility.yul\":4345:4351   */\n  dup4\n    /* \"#utility.yul\":4342:4356   */\n  gt\n    /* \"#utility.yul\":4370:4371   */\n  0x01\n    /* \"#utility.yul\":4365:4983   */\n  dup2\n  eq\n  tag_96\n  jumpi\n    /* \"#utility.yul\":5027:5028   */\n  0x00\n    /* \"#utility.yul\":5044:5050   */\n  dup5\n    /* \"#utility.yul\":5041:5118   */\n  iszero\n  tag_97\n  jumpi\n    /* \"#utility.yul\":5093:5102   */\n  dup3\n    /* \"#utility.yul\":5088:5091   */\n  dup8\n    /* \"#utility.yul\":5084:5103   */\n  add\n    /* \"#utility.yul\":5078:5104   */\n  mload\n    /* \"#utility.yul\":5069:5104   */\n  swap1\n  pop\n    /* \"#utility.yul\":5041:5118   */\ntag_97:\n    /* \"#utility.yul\":5144:5211   */\n  tag_98\n    /* \"#utility.yul\":5204:5210   */\n  dup6\n    /* \"#utility.yul\":5197:5202   */\n  dup3\n    /* \"#utility.yul\":5144:5211   */\n  tag_42\n  jump\t// in\ntag_98:\n    /* \"#utility.yul\":5138:5142   */\n  dup7\n    /* \"#utility.yul\":5131:5212   */\n  sstore\n    /* \"#utility.yul\":5000:5222   */\n  pop\n    /* \"#utility.yul\":4335:5222   */\n  jump(tag_95)\n    /* \"#utility.yul\":4365:4983   */\ntag_96:\n    /* \"#utility.yul\":4417:4421   */\n  0x1f\n    /* \"#utility.yul\":4413:4422   */\n  not\n    /* \"#utility.yul\":4405:4411   */\n  dup5\n    /* \"#utility.yul\":4401:4423   */\n  and\n    /* \"#utility.yul\":4451:4488   */\n  tag_99\n    /* \"#utility.yul\":4483:4487   */\n  dup7\n    /* \"#utility.yul\":4451:4488   */\n  tag_27\n  jump\t// in\ntag_99:\n    /* \"#utility.yul\":4510:4511   */\n  0x00\n    /* \"#utility.yul\":4524:4732   */\ntag_100:\n    /* \"#utility.yul\":4538:4545   */\n  dup3\n    /* \"#utility.yul\":4535:4536   */\n  dup2\n    /* \"#utility.yul\":4532:4546   */\n  lt\n    /* \"#utility.yul\":4524:4732   */\n  iszero\n  tag_102\n  jumpi\n    /* \"#utility.yul\":4617:4626   */\n  dup5\n    /* \"#utility.yul\":4612:4615   */\n  dup10\n    /* \"#utility.yul\":4608:4627   */\n  add\n    /* \"#utility.yul\":4602:4628   */\n  mload\n    /* \"#utility.yul\":4594:4600   */\n  dup3\n    /* \"#utility.yul\":4587:4629   */\n  sstore\n    /* \"#utility.yul\":4668:4669   */\n  0x01\n    /* \"#utility.yul\":4660:4666   */\n  dup3\n    /* \"#utility.yul\":4656:4670   */\n  add\n    /* \"#utility.yul\":4646:4670   */\n  swap2\n  pop\n    /* \"#utility.yul\":4715:4717   */\n  0x20\n    /* \"#utility.yul\":4704:4713   */\n  dup6\n    /* \"#utility.yul\":4700:4718   */\n  add\n    /* \"#utility.yul\":4687:4718   */\n  swap5\n  pop\n    /* \"#utility.yul\":4561:4565   */\n  0x20\n    /* \"#utility.yul\":4558:4559   */\n  dup2\n    /* \"#utility.yul\":4554:4566   */\n  add\n    /* \"#utility.yul\":4549:4566   */\n  swap1\n  pop\n    /* \"#utility.yul\":4524:4732   */\n  jump(tag_100)\ntag_102:\n    /* \"#utility.yul\":4760:4766   */\n  dup7\n    /* \"#utility.yul\":4751:4758   */\n  dup4\n    /* \"#utility.yul\":4748:4767   */\n  lt\n    /* \"#utility.yul\":4745:4924   */\n  iszero\n  tag_103\n  jumpi\n    /* \"#utility.yul\":4818:4827   */\n  dup5\n    /* \"#utility.yul\":4813:4816   */\n  dup10\n    /* \"#utility.yul\":4809:4828   */\n  add\n    /* \"#utility.yul\":4803:4829   */\n  mload\n    /* \"#utility.yul\":4861:4909   */\n  tag_104\n    /* \"#utility.yul\":4903:4907   */\n  0x1f\n    /* \"#utility.yul\":4895:4901   */\n  dup10\n    /* \"#utility.yul\":4891:4908   */\n  and\n    /* \"#utility.yul\":4880:4889   */\n  dup3\n    /* \"#utility.yul\":4861:4909   */\n  tag_41\n  jump\t// in\ntag_104:\n    /* \"#utility.yul\":4853:4859   */\n  dup4\n    /* \"#utility.yul\":4846:4910   */\n  sstore\n    /* \"#utility.yul\":4768:4924   */\n  pop\n    /* \"#utility.yul\":4745:4924   */\ntag_103:\n    /* \"#utility.yul\":4970:4971   */\n  0x01\n    /* \"#utility.yul\":4966:4967   */\n  0x02\n    /* \"#utility.yul\":4958:4964   */\n  dup9\n    /* \"#utility.yul\":4954:4968   */\n  mul\n    /* \"#utility.yul\":4950:4972   */\n  add\n    /* \"#utility.yul\":4944:4948   */\n  dup9\n    /* \"#utility.yul\":4937:4973   */\n  sstore\n    /* \"#utility.yul\":4372:4983   */\n  pop\n  pop\n  pop\n    /* \"#utility.yul\":4335:5222   */\ntag_95:\n  pop\n    /* \"#utility.yul\":3925:5228   */\n  pop\n  pop\n  pop\n    /* \"#utility.yul\":3833:5228   */\n  pop\n  pop\n  jump\t// out\n    /* \"contracts/Practice.sol\":60:487  contract MyPractice {... */\ntag_4:\n  dataSize(sub_0)\n  dup1\n  dataOffset(sub_0)\n  0x00\n  codecopy\n  0x00\n  return\nstop\n\nsub_0: assembly {\n        /* \"contracts/Practice.sol\":60:487  contract MyPractice {... */\n      mstore(0x40, 0x80)\n      callvalue\n      dup1\n      iszero\n      tag_1\n      jumpi\n      0x00\n      dup1\n      revert\n    tag_1:\n      pop\n      jumpi(tag_2, lt(calldatasize, 0x04))\n      shr(0xe0, calldataload(0x00))\n      dup1\n      0x2d2d03a6\n      eq\n      tag_3\n      jumpi\n      dup1\n      0x4739326b\n      eq\n      tag_4\n      jumpi\n      dup1\n      0xbca9a5c5\n      eq\n      tag_5\n      jumpi\n    tag_2:\n      0x00\n      dup1\n      revert\n        /* \"contracts/Practice.sol\":255:344  function addEmployee(string memory _name) public {... */\n    tag_3:\n      tag_6\n      0x04\n      dup1\n      calldatasize\n      sub\n      dup2\n      add\n      swap1\n      tag_7\n      swap2\n      swap1\n      tag_8\n      jump\t// in\n    tag_7:\n      tag_9\n      jump\t// in\n    tag_6:\n      stop\n        /* \"contracts/Practice.sol\":166:224  string [] public employees = [\"nathan\", \"mariam\", \"chris\"] */\n    tag_4:\n      tag_10\n      0x04\n      dup1\n      calldatasize\n      sub\n      dup2\n      add\n      swap1\n      tag_11\n      swap2\n      swap1\n      tag_12\n      jump\t// in\n    tag_11:\n      tag_13\n      jump\t// in\n    tag_10:\n      mload(0x40)\n      tag_14\n      swap2\n      swap1\n      tag_15\n      jump\t// in\n    tag_14:\n      mload(0x40)\n      dup1\n      swap2\n      sub\n      swap1\n      return\n        /* \"contracts/Practice.sol\":372:484  function getEmployee(uint _index) public view returns (string memory){... */\n    tag_5:\n      tag_16\n      0x04\n      dup1\n      calldatasize\n      sub\n      dup2\n      add\n      swap1\n      tag_17\n      swap2\n      swap1\n      tag_12\n      jump\t// in\n    tag_17:\n      tag_18\n      jump\t// in\n    tag_16:\n      mload(0x40)\n      tag_19\n      swap2\n      swap1\n      tag_15\n      jump\t// in\n    tag_19:\n      mload(0x40)\n      dup1\n      swap2\n      sub\n      swap1\n      return\n        /* \"contracts/Practice.sol\":255:344  function addEmployee(string memory _name) public {... */\n    tag_9:\n        /* \"contracts/Practice.sol\":315:324  employees */\n      0x00\n        /* \"contracts/Practice.sol\":330:335  _name */\n      dup2\n        /* \"contracts/Practice.sol\":315:336  employees.push(_name) */\n      swap1\n      dup1\n      0x01\n      dup2\n      sload\n      add\n      dup1\n      dup3\n      sstore\n      dup1\n      swap2\n      pop\n      pop\n      0x01\n      swap1\n      sub\n      swap1\n      0x00\n      mstore\n      keccak256(0x00, 0x20)\n      add\n      0x00\n      swap1\n      swap2\n      swap1\n      swap2\n      swap1\n      swap2\n      pop\n      swap1\n      dup2\n      tag_22\n      swap2\n      swap1\n      tag_23\n      jump\t// in\n    tag_22:\n      pop\n        /* \"contracts/Practice.sol\":255:344  function addEmployee(string memory _name) public {... */\n      pop\n      jump\t// out\n        /* \"contracts/Practice.sol\":166:224  string [] public employees = [\"nathan\", \"mariam\", \"chris\"] */\n    tag_13:\n      0x00\n      dup2\n      dup2\n      sload\n      dup2\n      lt\n      tag_24\n      jumpi\n      0x00\n      dup1\n      revert\n    tag_24:\n      swap1\n      0x00\n      mstore\n      keccak256(0x00, 0x20)\n      add\n      0x00\n      swap2\n      pop\n      swap1\n      pop\n      dup1\n      sload\n      tag_26\n      swap1\n      tag_27\n      jump\t// in\n    tag_26:\n      dup1\n      0x1f\n      add\n      0x20\n      dup1\n      swap2\n      div\n      mul\n      0x20\n      add\n      mload(0x40)\n      swap1\n      dup2\n      add\n      0x40\n      mstore\n      dup1\n      swap3\n      swap2\n      swap1\n      dup2\n      dup2\n      mstore\n      0x20\n      add\n      dup3\n      dup1\n      sload\n      tag_28\n      swap1\n      tag_27\n      jump\t// in\n    tag_28:\n      dup1\n      iszero\n      tag_29\n      jumpi\n      dup1\n      0x1f\n      lt\n      tag_30\n      jumpi\n      0x0100\n      dup1\n      dup4\n      sload\n      div\n      mul\n      dup4\n      mstore\n      swap2\n      0x20\n      add\n      swap2\n      jump(tag_29)\n    tag_30:\n      dup3\n      add\n      swap2\n      swap1\n      0x00\n      mstore\n      keccak256(0x00, 0x20)\n      swap1\n    tag_31:\n      dup2\n      sload\n      dup2\n      mstore\n      swap1\n      0x01\n      add\n      swap1\n      0x20\n      add\n      dup1\n      dup4\n      gt\n      tag_31\n      jumpi\n      dup3\n      swap1\n      sub\n      0x1f\n      and\n      dup3\n      add\n      swap2\n    tag_29:\n      pop\n      pop\n      pop\n      pop\n      pop\n      dup2\n      jump\t// out\n        /* \"contracts/Practice.sol\":372:484  function getEmployee(uint _index) public view returns (string memory){... */\n    tag_18:\n        /* \"contracts/Practice.sol\":427:440  string memory */\n      0x60\n        /* \"contracts/Practice.sol\":459:468  employees */\n      0x00\n        /* \"contracts/Practice.sol\":469:475  _index */\n      dup3\n        /* \"contracts/Practice.sol\":459:476  employees[_index] */\n      dup2\n      sload\n      dup2\n      lt\n      tag_33\n      jumpi\n      tag_34\n      tag_35\n      jump\t// in\n    tag_34:\n    tag_33:\n      swap1\n      0x00\n      mstore\n      keccak256(0x00, 0x20)\n      add\n        /* \"contracts/Practice.sol\":452:476  return employees[_index] */\n      dup1\n      sload\n      tag_37\n      swap1\n      tag_27\n      jump\t// in\n    tag_37:\n      dup1\n      0x1f\n      add\n      0x20\n      dup1\n      swap2\n      div\n      mul\n      0x20\n      add\n      mload(0x40)\n      swap1\n      dup2\n      add\n      0x40\n      mstore\n      dup1\n      swap3\n      swap2\n      swap1\n      dup2\n      dup2\n      mstore\n      0x20\n      add\n      dup3\n      dup1\n      sload\n      tag_38\n      swap1\n      tag_27\n      jump\t// in\n    tag_38:\n      dup1\n      iszero\n      tag_39\n      jumpi\n      dup1\n      0x1f\n      lt\n      tag_40\n      jumpi\n      0x0100\n      dup1\n      dup4\n      sload\n      div\n      mul\n      dup4\n      mstore\n      swap2\n      0x20\n      add\n      swap2\n      jump(tag_39)\n    tag_40:\n      dup3\n      add\n      swap2\n      swap1\n      0x00\n      mstore\n      keccak256(0x00, 0x20)\n      swap1\n    tag_41:\n      dup2\n      sload\n      dup2\n      mstore\n      swap1\n      0x01\n      add\n      swap1\n      0x20\n      add\n      dup1\n      dup4\n      gt\n      tag_41\n      jumpi\n      dup3\n      swap1\n      sub\n      0x1f\n      and\n      dup3\n      add\n      swap2\n    tag_39:\n      pop\n      pop\n      pop\n      pop\n      pop\n      swap1\n      pop\n        /* \"contracts/Practice.sol\":372:484  function getEmployee(uint _index) public view returns (string memory){... */\n      swap2\n      swap1\n      pop\n      jump\t// out\n        /* \"#utility.yul\":7:82   */\n    tag_42:\n        /* \"#utility.yul\":40:46   */\n      0x00\n        /* \"#utility.yul\":73:75   */\n      0x40\n        /* \"#utility.yul\":67:76   */\n      mload\n        /* \"#utility.yul\":57:76   */\n      swap1\n      pop\n        /* \"#utility.yul\":7:82   */\n      swap1\n      jump\t// out\n        /* \"#utility.yul\":88:205   */\n    tag_43:\n        /* \"#utility.yul\":197:198   */\n      0x00\n        /* \"#utility.yul\":194:195   */\n      dup1\n        /* \"#utility.yul\":187:199   */\n      revert\n        /* \"#utility.yul\":211:328   */\n    tag_44:\n        /* \"#utility.yul\":320:321   */\n      0x00\n        /* \"#utility.yul\":317:318   */\n      dup1\n        /* \"#utility.yul\":310:322   */\n      revert\n        /* \"#utility.yul\":334:451   */\n    tag_45:\n        /* \"#utility.yul\":443:444   */\n      0x00\n        /* \"#utility.yul\":440:441   */\n      dup1\n        /* \"#utility.yul\":433:445   */\n      revert\n        /* \"#utility.yul\":457:574   */\n    tag_46:\n        /* \"#utility.yul\":566:567   */\n      0x00\n        /* \"#utility.yul\":563:564   */\n      dup1\n        /* \"#utility.yul\":556:568   */\n      revert\n        /* \"#utility.yul\":580:682   */\n    tag_47:\n        /* \"#utility.yul\":621:627   */\n      0x00\n        /* \"#utility.yul\":672:674   */\n      0x1f\n        /* \"#utility.yul\":668:675   */\n      not\n        /* \"#utility.yul\":663:665   */\n      0x1f\n        /* \"#utility.yul\":656:661   */\n      dup4\n        /* \"#utility.yul\":652:666   */\n      add\n        /* \"#utility.yul\":648:676   */\n      and\n        /* \"#utility.yul\":638:676   */\n      swap1\n      pop\n        /* \"#utility.yul\":580:682   */\n      swap2\n      swap1\n      pop\n      jump\t// out\n        /* \"#utility.yul\":688:868   */\n    tag_48:\n        /* \"#utility.yul\":736:813   */\n      0x4e487b7100000000000000000000000000000000000000000000000000000000\n        /* \"#utility.yul\":733:734   */\n      0x00\n        /* \"#utility.yul\":726:814   */\n      mstore\n        /* \"#utility.yul\":833:837   */\n      0x41\n        /* \"#utility.yul\":830:831   */\n      0x04\n        /* \"#utility.yul\":823:838   */\n      mstore\n        /* \"#utility.yul\":857:861   */\n      0x24\n        /* \"#utility.yul\":854:855   */\n      0x00\n        /* \"#utility.yul\":847:862   */\n      revert\n        /* \"#utility.yul\":874:1155   */\n    tag_49:\n        /* \"#utility.yul\":957:984   */\n      tag_87\n        /* \"#utility.yul\":979:983   */\n      dup3\n        /* \"#utility.yul\":957:984   */\n      tag_47\n      jump\t// in\n    tag_87:\n        /* \"#utility.yul\":949:955   */\n      dup2\n        /* \"#utility.yul\":945:985   */\n      add\n        /* \"#utility.yul\":1087:1093   */\n      dup2\n        /* \"#utility.yul\":1075:1085   */\n      dup2\n        /* \"#utility.yul\":1072:1094   */\n      lt\n        /* \"#utility.yul\":1051:1069   */\n      0xffffffffffffffff\n        /* \"#utility.yul\":1039:1049   */\n      dup3\n        /* \"#utility.yul\":1036:1070   */\n      gt\n        /* \"#utility.yul\":1033:1095   */\n      or\n        /* \"#utility.yul\":1030:1118   */\n      iszero\n      tag_88\n      jumpi\n        /* \"#utility.yul\":1098:1116   */\n      tag_89\n      tag_48\n      jump\t// in\n    tag_89:\n        /* \"#utility.yul\":1030:1118   */\n    tag_88:\n        /* \"#utility.yul\":1138:1148   */\n      dup1\n        /* \"#utility.yul\":1134:1136   */\n      0x40\n        /* \"#utility.yul\":1127:1149   */\n      mstore\n        /* \"#utility.yul\":917:1155   */\n      pop\n        /* \"#utility.yul\":874:1155   */\n      pop\n      pop\n      jump\t// out\n        /* \"#utility.yul\":1161:1290   */\n    tag_50:\n        /* \"#utility.yul\":1195:1201   */\n      0x00\n        /* \"#utility.yul\":1222:1242   */\n      tag_91\n      tag_42\n      jump\t// in\n    tag_91:\n        /* \"#utility.yul\":1212:1242   */\n      swap1\n      pop\n        /* \"#utility.yul\":1251:1284   */\n      tag_92\n        /* \"#utility.yul\":1279:1283   */\n      dup3\n        /* \"#utility.yul\":1271:1277   */\n      dup3\n        /* \"#utility.yul\":1251:1284   */\n      tag_49\n      jump\t// in\n    tag_92:\n        /* \"#utility.yul\":1161:1290   */\n      swap2\n      swap1\n      pop\n      jump\t// out\n        /* \"#utility.yul\":1296:1604   */\n    tag_51:\n        /* \"#utility.yul\":1358:1362   */\n      0x00\n        /* \"#utility.yul\":1448:1466   */\n      0xffffffffffffffff\n        /* \"#utility.yul\":1440:1446   */\n      dup3\n        /* \"#utility.yul\":1437:1467   */\n      gt\n        /* \"#utility.yul\":1434:1490   */\n      iszero\n      tag_94\n      jumpi\n        /* \"#utility.yul\":1470:1488   */\n      tag_95\n      tag_48\n      jump\t// in\n    tag_95:\n        /* \"#utility.yul\":1434:1490   */\n    tag_94:\n        /* \"#utility.yul\":1508:1537   */\n      tag_96\n        /* \"#utility.yul\":1530:1536   */\n      dup3\n        /* \"#utility.yul\":1508:1537   */\n      tag_47\n      jump\t// in\n    tag_96:\n        /* \"#utility.yul\":1500:1537   */\n      swap1\n      pop\n        /* \"#utility.yul\":1592:1596   */\n      0x20\n        /* \"#utility.yul\":1586:1590   */\n      dup2\n        /* \"#utility.yul\":1582:1597   */\n      add\n        /* \"#utility.yul\":1574:1597   */\n      swap1\n      pop\n        /* \"#utility.yul\":1296:1604   */\n      swap2\n      swap1\n      pop\n      jump\t// out\n        /* \"#utility.yul\":1610:1758   */\n    tag_52:\n        /* \"#utility.yul\":1708:1714   */\n      dup3\n        /* \"#utility.yul\":1703:1706   */\n      dup2\n        /* \"#utility.yul\":1698:1701   */\n      dup4\n        /* \"#utility.yul\":1685:1715   */\n      calldatacopy\n        /* \"#utility.yul\":1749:1750   */\n      0x00\n        /* \"#utility.yul\":1740:1746   */\n      dup4\n        /* \"#utility.yul\":1735:1738   */\n      dup4\n        /* \"#utility.yul\":1731:1747   */\n      add\n        /* \"#utility.yul\":1724:1751   */\n      mstore\n        /* \"#utility.yul\":1610:1758   */\n      pop\n      pop\n      pop\n      jump\t// out\n        /* \"#utility.yul\":1764:2189   */\n    tag_53:\n        /* \"#utility.yul\":1842:1847   */\n      0x00\n        /* \"#utility.yul\":1867:1933   */\n      tag_99\n        /* \"#utility.yul\":1883:1932   */\n      tag_100\n        /* \"#utility.yul\":1925:1931   */\n      dup5\n        /* \"#utility.yul\":1883:1932   */\n      tag_51\n      jump\t// in\n    tag_100:\n        /* \"#utility.yul\":1867:1933   */\n      tag_50\n      jump\t// in\n    tag_99:\n        /* \"#utility.yul\":1858:1933   */\n      swap1\n      pop\n        /* \"#utility.yul\":1956:1962   */\n      dup3\n        /* \"#utility.yul\":1949:1954   */\n      dup2\n        /* \"#utility.yul\":1942:1963   */\n      mstore\n        /* \"#utility.yul\":1994:1998   */\n      0x20\n        /* \"#utility.yul\":1987:1992   */\n      dup2\n        /* \"#utility.yul\":1983:1999   */\n      add\n        /* \"#utility.yul\":2032:2035   */\n      dup5\n        /* \"#utility.yul\":2023:2029   */\n      dup5\n        /* \"#utility.yul\":2018:2021   */\n      dup5\n        /* \"#utility.yul\":2014:2030   */\n      add\n        /* \"#utility.yul\":2011:2036   */\n      gt\n        /* \"#utility.yul\":2008:2120   */\n      iszero\n      tag_101\n      jumpi\n        /* \"#utility.yul\":2039:2118   */\n      tag_102\n      tag_46\n      jump\t// in\n    tag_102:\n        /* \"#utility.yul\":2008:2120   */\n    tag_101:\n        /* \"#utility.yul\":2129:2183   */\n      tag_103\n        /* \"#utility.yul\":2176:2182   */\n      dup5\n        /* \"#utility.yul\":2171:2174   */\n      dup3\n        /* \"#utility.yul\":2166:2169   */\n      dup6\n        /* \"#utility.yul\":2129:2183   */\n      tag_52\n      jump\t// in\n    tag_103:\n        /* \"#utility.yul\":1848:2189   */\n      pop\n        /* \"#utility.yul\":1764:2189   */\n      swap4\n      swap3\n      pop\n      pop\n      pop\n      jump\t// out\n        /* \"#utility.yul\":2209:2549   */\n    tag_54:\n        /* \"#utility.yul\":2265:2270   */\n      0x00\n        /* \"#utility.yul\":2314:2317   */\n      dup3\n        /* \"#utility.yul\":2307:2311   */\n      0x1f\n        /* \"#utility.yul\":2299:2305   */\n      dup4\n        /* \"#utility.yul\":2295:2312   */\n      add\n        /* \"#utility.yul\":2291:2318   */\n      slt\n        /* \"#utility.yul\":2281:2403   */\n      tag_105\n      jumpi\n        /* \"#utility.yul\":2322:2401   */\n      tag_106\n      tag_45\n      jump\t// in\n    tag_106:\n        /* \"#utility.yul\":2281:2403   */\n    tag_105:\n        /* \"#utility.yul\":2439:2445   */\n      dup2\n        /* \"#utility.yul\":2426:2446   */\n      calldataload\n        /* \"#utility.yul\":2464:2543   */\n      tag_107\n        /* \"#utility.yul\":2539:2542   */\n      dup5\n        /* \"#utility.yul\":2531:2537   */\n      dup3\n        /* \"#utility.yul\":2524:2528   */\n      0x20\n        /* \"#utility.yul\":2516:2522   */\n      dup7\n        /* \"#utility.yul\":2512:2529   */\n      add\n        /* \"#utility.yul\":2464:2543   */\n      tag_53\n      jump\t// in\n    tag_107:\n        /* \"#utility.yul\":2455:2543   */\n      swap2\n      pop\n        /* \"#utility.yul\":2271:2549   */\n      pop\n        /* \"#utility.yul\":2209:2549   */\n      swap3\n      swap2\n      pop\n      pop\n      jump\t// out\n        /* \"#utility.yul\":2555:3064   */\n    tag_8:\n        /* \"#utility.yul\":2624:2630   */\n      0x00\n        /* \"#utility.yul\":2673:2675   */\n      0x20\n        /* \"#utility.yul\":2661:2670   */\n      dup3\n        /* \"#utility.yul\":2652:2659   */\n      dup5\n        /* \"#utility.yul\":2648:2671   */\n      sub\n        /* \"#utility.yul\":2644:2676   */\n      slt\n        /* \"#utility.yul\":2641:2760   */\n      iszero\n      tag_109\n      jumpi\n        /* \"#utility.yul\":2679:2758   */\n      tag_110\n      tag_43\n      jump\t// in\n    tag_110:\n        /* \"#utility.yul\":2641:2760   */\n    tag_109:\n        /* \"#utility.yul\":2827:2828   */\n      0x00\n        /* \"#utility.yul\":2816:2825   */\n      dup3\n        /* \"#utility.yul\":2812:2829   */\n      add\n        /* \"#utility.yul\":2799:2830   */\n      calldataload\n        /* \"#utility.yul\":2857:2875   */\n      0xffffffffffffffff\n        /* \"#utility.yul\":2849:2855   */\n      dup2\n        /* \"#utility.yul\":2846:2876   */\n      gt\n        /* \"#utility.yul\":2843:2960   */\n      iszero\n      tag_111\n      jumpi\n        /* \"#utility.yul\":2879:2958   */\n      tag_112\n      tag_44\n      jump\t// in\n    tag_112:\n        /* \"#utility.yul\":2843:2960   */\n    tag_111:\n        /* \"#utility.yul\":2984:3047   */\n      tag_113\n        /* \"#utility.yul\":3039:3046   */\n      dup5\n        /* \"#utility.yul\":3030:3036   */\n      dup3\n        /* \"#utility.yul\":3019:3028   */\n      dup6\n        /* \"#utility.yul\":3015:3037   */\n      add\n        /* \"#utility.yul\":2984:3047   */\n      tag_54\n      jump\t// in\n    tag_113:\n        /* \"#utility.yul\":2974:3047   */\n      swap2\n      pop\n        /* \"#utility.yul\":2770:3057   */\n      pop\n        /* \"#utility.yul\":2555:3064   */\n      swap3\n      swap2\n      pop\n      pop\n      jump\t// out\n        /* \"#utility.yul\":3070:3147   */\n    tag_55:\n        /* \"#utility.yul\":3107:3114   */\n      0x00\n        /* \"#utility.yul\":3136:3141   */\n      dup2\n        /* \"#utility.yul\":3125:3141   */\n      swap1\n      pop\n        /* \"#utility.yul\":3070:3147   */\n      swap2\n      swap1\n      pop\n      jump\t// out\n        /* \"#utility.yul\":3153:3275   */\n    tag_56:\n        /* \"#utility.yul\":3226:3250   */\n      tag_116\n        /* \"#utility.yul\":3244:3249   */\n      dup2\n        /* \"#utility.yul\":3226:3250   */\n      tag_55\n      jump\t// in\n    tag_116:\n        /* \"#utility.yul\":3219:3224   */\n      dup2\n        /* \"#utility.yul\":3216:3251   */\n      eq\n        /* \"#utility.yul\":3206:3269   */\n      tag_117\n      jumpi\n        /* \"#utility.yul\":3265:3266   */\n      0x00\n        /* \"#utility.yul\":3262:3263   */\n      dup1\n        /* \"#utility.yul\":3255:3267   */\n      revert\n        /* \"#utility.yul\":3206:3269   */\n    tag_117:\n        /* \"#utility.yul\":3153:3275   */\n      pop\n      jump\t// out\n        /* \"#utility.yul\":3281:3420   */\n    tag_57:\n        /* \"#utility.yul\":3327:3332   */\n      0x00\n        /* \"#utility.yul\":3365:3371   */\n      dup2\n        /* \"#utility.yul\":3352:3372   */\n      calldataload\n        /* \"#utility.yul\":3343:3372   */\n      swap1\n      pop\n        /* \"#utility.yul\":3381:3414   */\n      tag_119\n        /* \"#utility.yul\":3408:3413   */\n      dup2\n        /* \"#utility.yul\":3381:3414   */\n      tag_56\n      jump\t// in\n    tag_119:\n        /* \"#utility.yul\":3281:3420   */\n      swap3\n      swap2\n      pop\n      pop\n      jump\t// out\n        /* \"#utility.yul\":3426:3755   */\n    tag_12:\n        /* \"#utility.yul\":3485:3491   */\n      0x00\n        /* \"#utility.yul\":3534:3536   */\n      0x20\n        /* \"#utility.yul\":3522:3531   */\n      dup3\n        /* \"#utility.yul\":3513:3520   */\n      dup5\n        /* \"#utility.yul\":3509:3532   */\n      sub\n        /* \"#utility.yul\":3505:3537   */\n      slt\n        /* \"#utility.yul\":3502:3621   */\n      iszero\n      tag_121\n      jumpi\n        /* \"#utility.yul\":3540:3619   */\n      tag_122\n      tag_43\n      jump\t// in\n    tag_122:\n        /* \"#utility.yul\":3502:3621   */\n    tag_121:\n        /* \"#utility.yul\":3660:3661   */\n      0x00\n        /* \"#utility.yul\":3685:3738   */\n      tag_123\n        /* \"#utility.yul\":3730:3737   */\n      dup5\n        /* \"#utility.yul\":3721:3727   */\n      dup3\n        /* \"#utility.yul\":3710:3719   */\n      dup6\n        /* \"#utility.yul\":3706:3728   */\n      add\n        /* \"#utility.yul\":3685:3738   */\n      tag_57\n      jump\t// in\n    tag_123:\n        /* \"#utility.yul\":3675:3738   */\n      swap2\n      pop\n        /* \"#utility.yul\":3631:3748   */\n      pop\n        /* \"#utility.yul\":3426:3755   */\n      swap3\n      swap2\n      pop\n      pop\n      jump\t// out\n        /* \"#utility.yul\":3761:3860   */\n    tag_58:\n        /* \"#utility.yul\":3813:3819   */\n      0x00\n        /* \"#utility.yul\":3847:3852   */\n      dup2\n        /* \"#utility.yul\":3841:3853   */\n      mload\n        /* \"#utility.yul\":3831:3853   */\n      swap1\n      pop\n        /* \"#utility.yul\":3761:3860   */\n      swap2\n      swap1\n      pop\n      jump\t// out\n        /* \"#utility.yul\":3866:4035   */\n    tag_59:\n        /* \"#utility.yul\":3950:3961   */\n      0x00\n        /* \"#utility.yul\":3984:3990   */\n      dup3\n        /* \"#utility.yul\":3979:3982   */\n      dup3\n        /* \"#utility.yul\":3972:3991   */\n      mstore\n        /* \"#utility.yul\":4024:4028   */\n      0x20\n        /* \"#utility.yul\":4019:4022   */\n      dup3\n        /* \"#utility.yul\":4015:4029   */\n      add\n        /* \"#utility.yul\":4000:4029   */\n      swap1\n      pop\n        /* \"#utility.yul\":3866:4035   */\n      swap3\n      swap2\n      pop\n      pop\n      jump\t// out\n        /* \"#utility.yul\":4041:4180   */\n    tag_60:\n        /* \"#utility.yul\":4130:4136   */\n      dup3\n        /* \"#utility.yul\":4125:4128   */\n      dup2\n        /* \"#utility.yul\":4120:4123   */\n      dup4\n        /* \"#utility.yul\":4114:4137   */\n      mcopy\n        /* \"#utility.yul\":4171:4172   */\n      0x00\n        /* \"#utility.yul\":4162:4168   */\n      dup4\n        /* \"#utility.yul\":4157:4160   */\n      dup4\n        /* \"#utility.yul\":4153:4169   */\n      add\n        /* \"#utility.yul\":4146:4173   */\n      mstore\n        /* \"#utility.yul\":4041:4180   */\n      pop\n      pop\n      pop\n      jump\t// out\n        /* \"#utility.yul\":4186:4563   */\n    tag_61:\n        /* \"#utility.yul\":4274:4277   */\n      0x00\n        /* \"#utility.yul\":4302:4341   */\n      tag_128\n        /* \"#utility.yul\":4335:4340   */\n      dup3\n        /* \"#utility.yul\":4302:4341   */\n      tag_58\n      jump\t// in\n    tag_128:\n        /* \"#utility.yul\":4357:4428   */\n      tag_129\n        /* \"#utility.yul\":4421:4427   */\n      dup2\n        /* \"#utility.yul\":4416:4419   */\n      dup6\n        /* \"#utility.yul\":4357:4428   */\n      tag_59\n      jump\t// in\n    tag_129:\n        /* \"#utility.yul\":4350:4428   */\n      swap4\n      pop\n        /* \"#utility.yul\":4437:4502   */\n      tag_130\n        /* \"#utility.yul\":4495:4501   */\n      dup2\n        /* \"#utility.yul\":4490:4493   */\n      dup6\n        /* \"#utility.yul\":4483:4487   */\n      0x20\n        /* \"#utility.yul\":4476:4481   */\n      dup7\n        /* \"#utility.yul\":4472:4488   */\n      add\n        /* \"#utility.yul\":4437:4502   */\n      tag_60\n      jump\t// in\n    tag_130:\n        /* \"#utility.yul\":4527:4556   */\n      tag_131\n        /* \"#utility.yul\":4549:4555   */\n      dup2\n        /* \"#utility.yul\":4527:4556   */\n      tag_47\n      jump\t// in\n    tag_131:\n        /* \"#utility.yul\":4522:4525   */\n      dup5\n        /* \"#utility.yul\":4518:4557   */\n      add\n        /* \"#utility.yul\":4511:4557   */\n      swap2\n      pop\n        /* \"#utility.yul\":4278:4563   */\n      pop\n        /* \"#utility.yul\":4186:4563   */\n      swap3\n      swap2\n      pop\n      pop\n      jump\t// out\n        /* \"#utility.yul\":4569:4882   */\n    tag_15:\n        /* \"#utility.yul\":4682:4686   */\n      0x00\n        /* \"#utility.yul\":4720:4722   */\n      0x20\n        /* \"#utility.yul\":4709:4718   */\n      dup3\n        /* \"#utility.yul\":4705:4723   */\n      add\n        /* \"#utility.yul\":4697:4723   */\n      swap1\n      pop\n        /* \"#utility.yul\":4769:4778   */\n      dup2\n        /* \"#utility.yul\":4763:4767   */\n      dup2\n        /* \"#utility.yul\":4759:4779   */\n      sub\n        /* \"#utility.yul\":4755:4756   */\n      0x00\n        /* \"#utility.yul\":4744:4753   */\n      dup4\n        /* \"#utility.yul\":4740:4757   */\n      add\n        /* \"#utility.yul\":4733:4780   */\n      mstore\n        /* \"#utility.yul\":4797:4875   */\n      tag_133\n        /* \"#utility.yul\":4870:4874   */\n      dup2\n        /* \"#utility.yul\":4861:4867   */\n      dup5\n        /* \"#utility.yul\":4797:4875   */\n      tag_61\n      jump\t// in\n    tag_133:\n        /* \"#utility.yul\":4789:4875   */\n      swap1\n      pop\n        /* \"#utility.yul\":4569:4882   */\n      swap3\n      swap2\n      pop\n      pop\n      jump\t// out\n        /* \"#utility.yul\":4888:5068   */\n    tag_62:\n        /* \"#utility.yul\":4936:5013   */\n      0x4e487b7100000000000000000000000000000000000000000000000000000000\n        /* \"#utility.yul\":4933:4934   */\n      0x00\n        /* \"#utility.yul\":4926:5014   */\n      mstore\n        /* \"#utility.yul\":5033:5037   */\n      0x22\n        /* \"#utility.yul\":5030:5031   */\n      0x04\n        /* \"#utility.yul\":5023:5038   */\n      mstore\n        /* \"#utility.yul\":5057:5061   */\n      0x24\n        /* \"#utility.yul\":5054:5055   */\n      0x00\n        /* \"#utility.yul\":5047:5062   */\n      revert\n        /* \"#utility.yul\":5074:5394   */\n    tag_27:\n        /* \"#utility.yul\":5118:5124   */\n      0x00\n        /* \"#utility.yul\":5155:5156   */\n      0x02\n        /* \"#utility.yul\":5149:5153   */\n      dup3\n        /* \"#utility.yul\":5145:5157   */\n      div\n        /* \"#utility.yul\":5135:5157   */\n      swap1\n      pop\n        /* \"#utility.yul\":5202:5203   */\n      0x01\n        /* \"#utility.yul\":5196:5200   */\n      dup3\n        /* \"#utility.yul\":5192:5204   */\n      and\n        /* \"#utility.yul\":5223:5241   */\n      dup1\n        /* \"#utility.yul\":5213:5294   */\n      tag_136\n      jumpi\n        /* \"#utility.yul\":5279:5283   */\n      0x7f\n        /* \"#utility.yul\":5271:5277   */\n      dup3\n        /* \"#utility.yul\":5267:5284   */\n      and\n        /* \"#utility.yul\":5257:5284   */\n      swap2\n      pop\n        /* \"#utility.yul\":5213:5294   */\n    tag_136:\n        /* \"#utility.yul\":5341:5343   */\n      0x20\n        /* \"#utility.yul\":5333:5339   */\n      dup3\n        /* \"#utility.yul\":5330:5344   */\n      lt\n        /* \"#utility.yul\":5310:5328   */\n      dup2\n        /* \"#utility.yul\":5307:5345   */\n      sub\n        /* \"#utility.yul\":5304:5388   */\n      tag_137\n      jumpi\n        /* \"#utility.yul\":5360:5378   */\n      tag_138\n      tag_62\n      jump\t// in\n    tag_138:\n        /* \"#utility.yul\":5304:5388   */\n    tag_137:\n        /* \"#utility.yul\":5125:5394   */\n      pop\n        /* \"#utility.yul\":5074:5394   */\n      swap2\n      swap1\n      pop\n      jump\t// out\n        /* \"#utility.yul\":5400:5541   */\n    tag_63:\n        /* \"#utility.yul\":5449:5453   */\n      0x00\n        /* \"#utility.yul\":5472:5475   */\n      dup2\n        /* \"#utility.yul\":5464:5475   */\n      swap1\n      pop\n        /* \"#utility.yul\":5495:5498   */\n      dup2\n        /* \"#utility.yul\":5492:5493   */\n      0x00\n        /* \"#utility.yul\":5485:5499   */\n      mstore\n        /* \"#utility.yul\":5529:5533   */\n      0x20\n        /* \"#utility.yul\":5526:5527   */\n      0x00\n        /* \"#utility.yul\":5516:5534   */\n      keccak256\n        /* \"#utility.yul\":5508:5534   */\n      swap1\n      pop\n        /* \"#utility.yul\":5400:5541   */\n      swap2\n      swap1\n      pop\n      jump\t// out\n        /* \"#utility.yul\":5547:5640   */\n    tag_64:\n        /* \"#utility.yul\":5584:5590   */\n      0x00\n        /* \"#utility.yul\":5631:5633   */\n      0x20\n        /* \"#utility.yul\":5626:5628   */\n      0x1f\n        /* \"#utility.yul\":5619:5624   */\n      dup4\n        /* \"#utility.yul\":5615:5629   */\n      add\n        /* \"#utility.yul\":5611:5634   */\n      div\n        /* \"#utility.yul\":5601:5634   */\n      swap1\n      pop\n        /* \"#utility.yul\":5547:5640   */\n      swap2\n      swap1\n      pop\n      jump\t// out\n        /* \"#utility.yul\":5646:5753   */\n    tag_65:\n        /* \"#utility.yul\":5690:5698   */\n      0x00\n        /* \"#utility.yul\":5740:5745   */\n      dup3\n        /* \"#utility.yul\":5734:5738   */\n      dup3\n        /* \"#utility.yul\":5730:5746   */\n      shl\n        /* \"#utility.yul\":5709:5746   */\n      swap1\n      pop\n        /* \"#utility.yul\":5646:5753   */\n      swap3\n      swap2\n      pop\n      pop\n      jump\t// out\n        /* \"#utility.yul\":5759:6152   */\n    tag_66:\n        /* \"#utility.yul\":5828:5834   */\n      0x00\n        /* \"#utility.yul\":5878:5879   */\n      0x08\n        /* \"#utility.yul\":5866:5876   */\n      dup4\n        /* \"#utility.yul\":5862:5880   */\n      mul\n        /* \"#utility.yul\":5901:5998   */\n      tag_143\n        /* \"#utility.yul\":5931:5997   */\n      0xffffffffffffffffffffffffffffffffffffffffffffffffffffffffffffffff\n        /* \"#utility.yul\":5920:5929   */\n      dup3\n        /* \"#utility.yul\":5901:5998   */\n      tag_65\n      jump\t// in\n    tag_143:\n        /* \"#utility.yul\":6019:6058   */\n      tag_144\n        /* \"#utility.yul\":6049:6057   */\n      dup7\n        /* \"#utility.yul\":6038:6047   */\n      dup4\n        /* \"#utility.yul\":6019:6058   */\n      tag_65\n      jump\t// in\n    tag_144:\n        /* \"#utility.yul\":6007:6058   */\n      swap6\n      pop\n        /* \"#utility.yul\":6091:6095   */\n      dup1\n        /* \"#utility.yul\":6087:6096   */\n      not\n        /* \"#utility.yul\":6080:6085   */\n      dup5\n        /* \"#utility.yul\":6076:6097   */\n      and\n        /* \"#utility.yul\":6067:6097   */\n      swap4\n      pop\n        /* \"#utility.yul\":6140:6144   */\n      dup1\n        /* \"#utility.yul\":6130:6138   */\n      dup7\n        /* \"#utility.yul\":6126:6145   */\n      and\n        /* \"#utility.yul\":6119:6124   */\n      dup5\n        /* \"#utility.yul\":6116:6146   */\n      or\n        /* \"#utility.yul\":6106:6146   */\n      swap3\n      pop\n        /* \"#utility.yul\":5835:6152   */\n      pop\n      pop\n        /* \"#utility.yul\":5759:6152   */\n      swap4\n      swap3\n      pop\n      pop\n      pop\n      jump\t// out\n        /* \"#utility.yul\":6158:6218   */\n    tag_67:\n        /* \"#utility.yul\":6186:6189   */\n      0x00\n        /* \"#utility.yul\":6207:6212   */\n      dup2\n        /* \"#utility.yul\":6200:6212   */\n      swap1\n      pop\n        /* \"#utility.yul\":6158:6218   */\n      swap2\n      swap1\n      pop\n      jump\t// out\n        /* \"#utility.yul\":6224:6366   */\n    tag_68:\n        /* \"#utility.yul\":6274:6283   */\n      0x00\n        /* \"#utility.yul\":6307:6360   */\n      tag_147\n        /* \"#utility.yul\":6325:6359   */\n      tag_148\n        /* \"#utility.yul\":6334:6358   */\n      tag_149\n        /* \"#utility.yul\":6352:6357   */\n      dup5\n        /* \"#utility.yul\":6334:6358   */\n      tag_55\n      jump\t// in\n    tag_149:\n        /* \"#utility.yul\":6325:6359   */\n      tag_67\n      jump\t// in\n    tag_148:\n        /* \"#utility.yul\":6307:6360   */\n      tag_55\n      jump\t// in\n    tag_147:\n        /* \"#utility.yul\":6294:6360   */\n      swap1\n      pop\n        /* \"#utility.yul\":6224:6366   */\n      swap2\n      swap1\n      pop\n      jump\t// out\n        /* \"#utility.yul\":6372:6447   */\n    tag_69:\n        /* \"#utility.yul\":6415:6418   */\n      0x00\n        /* \"#utility.yul\":6436:6441   */\n      dup2\n        /* \"#utility.yul\":6429:6441   */\n      swap1\n      pop\n        /* \"#utility.yul\":6372:6447   */\n      swap2\n      swap1\n      pop\n      jump\t// out\n        /* \"#utility.yul\":6453:6722   */\n    tag_70:\n        /* \"#utility.yul\":6563:6602   */\n      tag_152\n        /* \"#utility.yul\":6594:6601   */\n      dup4\n        /* \"#utility.yul\":6563:6602   */\n      tag_68\n      jump\t// in\n    tag_152:\n        /* \"#utility.yul\":6624:6715   */\n      tag_153\n        /* \"#utility.yul\":6673:6714   */\n      tag_154\n        /* \"#utility.yul\":6697:6713   */\n      dup3\n        /* \"#utility.yul\":6673:6714   */\n      tag_69\n      jump\t// in\n    tag_154:\n        /* \"#utility.yul\":6665:6671   */\n      dup5\n        /* \"#utility.yul\":6658:6662   */\n      dup5\n        /* \"#utility.yul\":6652:6663   */\n      sload\n        /* \"#utility.yul\":6624:6715   */\n      tag_66\n      jump\t// in\n    tag_153:\n        /* \"#utility.yul\":6618:6622   */\n      dup3\n        /* \"#utility.yul\":6611:6716   */\n      sstore\n        /* \"#utility.yul\":6529:6722   */\n      pop\n        /* \"#utility.yul\":6453:6722   */\n      pop\n      pop\n      pop\n      jump\t// out\n        /* \"#utility.yul\":6728:6801   */\n    tag_71:\n        /* \"#utility.yul\":6773:6776   */\n      0x00\n        /* \"#utility.yul\":6728:6801   */\n      swap1\n      jump\t// out\n        /* \"#utility.yul\":6807:6996   */\n    tag_72:\n        /* \"#utility.yul\":6884:6916   */\n      tag_157\n      tag_71\n      jump\t// in\n    tag_157:\n        /* \"#utility.yul\":6925:6990   */\n      tag_158\n        /* \"#utility.yul\":6983:6989   */\n      dup2\n        /* \"#utility.yul\":6975:6981   */\n      dup5\n        /* \"#utility.yul\":6969:6973   */\n      dup5\n        /* \"#utility.yul\":6925:6990   */\n      tag_70\n      jump\t// in\n    tag_158:\n        /* \"#utility.yul\":6860:6996   */\n      pop\n        /* \"#utility.yul\":6807:6996   */\n      pop\n      pop\n      jump\t// out\n        /* \"#utility.yul\":7002:7188   */\n    tag_73:\n        /* \"#utility.yul\":7062:7182   */\n    tag_160:\n        /* \"#utility.yul\":7079:7082   */\n      dup2\n        /* \"#utility.yul\":7072:7077   */\n      dup2\n        /* \"#utility.yul\":7069:7083   */\n      lt\n        /* \"#utility.yul\":7062:7182   */\n      iszero\n      tag_162\n      jumpi\n        /* \"#utility.yul\":7133:7172   */\n      tag_163\n        /* \"#utility.yul\":7170:7171   */\n      0x00\n        /* \"#utility.yul\":7163:7168   */\n      dup3\n        /* \"#utility.yul\":7133:7172   */\n      tag_72\n      jump\t// in\n    tag_163:\n        /* \"#utility.yul\":7106:7107   */\n      0x01\n        /* \"#utility.yul\":7099:7104   */\n      dup2\n        /* \"#utility.yul\":7095:7108   */\n      add\n        /* \"#utility.yul\":7086:7108   */\n      swap1\n      pop\n        /* \"#utility.yul\":7062:7182   */\n      jump(tag_160)\n    tag_162:\n        /* \"#utility.yul\":7002:7188   */\n      pop\n      pop\n      jump\t// out\n        /* \"#utility.yul\":7194:7737   */\n    tag_74:\n        /* \"#utility.yul\":7295:7297   */\n      0x1f\n        /* \"#utility.yul\":7290:7293   */\n      dup3\n        /* \"#utility.yul\":7287:7298   */\n      gt\n        /* \"#utility.yul\":7284:7730   */\n      iszero\n      tag_165\n      jumpi\n        /* \"#utility.yul\":7329:7367   */\n      tag_166\n        /* \"#utility.yul\":7361:7366   */\n      dup2\n        /* \"#utility.yul\":7329:7367   */\n      tag_63\n      jump\t// in\n    tag_166:\n        /* \"#utility.yul\":7413:7442   */\n      tag_167\n        /* \"#utility.yul\":7431:7441   */\n      dup5\n        /* \"#utility.yul\":7413:7442   */\n      tag_64\n      jump\t// in\n    tag_167:\n        /* \"#utility.yul\":7403:7411   */\n      dup2\n        /* \"#utility.yul\":7399:7443   */\n      add\n        /* \"#utility.yul\":7596:7598   */\n      0x20\n        /* \"#utility.yul\":7584:7594   */\n      dup6\n        /* \"#utility.yul\":7581:7599   */\n      lt\n        /* \"#utility.yul\":7578:7627   */\n      iszero\n      tag_168\n      jumpi\n        /* \"#utility.yul\":7617:7625   */\n      dup2\n        /* \"#utility.yul\":7602:7625   */\n      swap1\n      pop\n        /* \"#utility.yul\":7578:7627   */\n    tag_168:\n        /* \"#utility.yul\":7640:7720   */\n      tag_169\n        /* \"#utility.yul\":7696:7718   */\n      tag_170\n        /* \"#utility.yul\":7714:7717   */\n      dup6\n        /* \"#utility.yul\":7696:7718   */\n      tag_64\n      jump\t// in\n    tag_170:\n        /* \"#utility.yul\":7686:7694   */\n      dup4\n        /* \"#utility.yul\":7682:7719   */\n      add\n        /* \"#utility.yul\":7669:7680   */\n      dup3\n        /* \"#utility.yul\":7640:7720   */\n      tag_73\n      jump\t// in\n    tag_169:\n        /* \"#utility.yul\":7299:7730   */\n      pop\n      pop\n        /* \"#utility.yul\":7284:7730   */\n    tag_165:\n        /* \"#utility.yul\":7194:7737   */\n      pop\n      pop\n      pop\n      jump\t// out\n        /* \"#utility.yul\":7743:7860   */\n    tag_75:\n        /* \"#utility.yul\":7797:7805   */\n      0x00\n        /* \"#utility.yul\":7847:7852   */\n      dup3\n        /* \"#utility.yul\":7841:7845   */\n      dup3\n        /* \"#utility.yul\":7837:7853   */\n      shr\n        /* \"#utility.yul\":7816:7853   */\n      swap1\n      pop\n        /* \"#utility.yul\":7743:7860   */\n      swap3\n      swap2\n      pop\n      pop\n      jump\t// out\n        /* \"#utility.yul\":7866:8035   */\n    tag_76:\n        /* \"#utility.yul\":7910:7916   */\n      0x00\n        /* \"#utility.yul\":7943:7994   */\n      tag_173\n        /* \"#utility.yul\":7991:7992   */\n      0x00\n        /* \"#utility.yul\":7987:7993   */\n      not\n        /* \"#utility.yul\":7979:7984   */\n      dup5\n        /* \"#utility.yul\":7976:7977   */\n      0x08\n        /* \"#utility.yul\":7972:7985   */\n      mul\n        /* \"#utility.yul\":7943:7994   */\n      tag_75\n      jump\t// in\n    tag_173:\n        /* \"#utility.yul\":7939:7995   */\n      not\n        /* \"#utility.yul\":8024:8028   */\n      dup1\n        /* \"#utility.yul\":8018:8022   */\n      dup4\n        /* \"#utility.yul\":8014:8029   */\n      and\n        /* \"#utility.yul\":8004:8029   */\n      swap2\n      pop\n        /* \"#utility.yul\":7917:8035   */\n      pop\n        /* \"#utility.yul\":7866:8035   */\n      swap3\n      swap2\n      pop\n      pop\n      jump\t// out\n        /* \"#utility.yul\":8040:8335   */\n    tag_77:\n        /* \"#utility.yul\":8116:8120   */\n      0x00\n        /* \"#utility.yul\":8262:8291   */\n      tag_175\n        /* \"#utility.yul\":8287:8290   */\n      dup4\n        /* \"#utility.yul\":8281:8285   */\n      dup4\n        /* \"#utility.yul\":8262:8291   */\n      tag_76\n      jump\t// in\n    tag_175:\n        /* \"#utility.yul\":8254:8291   */\n      swap2\n      pop\n        /* \"#utility.yul\":8324:8327   */\n      dup3\n        /* \"#utility.yul\":8321:8322   */\n      0x02\n        /* \"#utility.yul\":8317:8328   */\n      mul\n        /* \"#utility.yul\":8311:8315   */\n      dup3\n        /* \"#utility.yul\":8308:8329   */\n      or\n        /* \"#utility.yul\":8300:8329   */\n      swap1\n      pop\n        /* \"#utility.yul\":8040:8335   */\n      swap3\n      swap2\n      pop\n      pop\n      jump\t// out\n        /* \"#utility.yul\":8340:9735   */\n    tag_23:\n        /* \"#utility.yul\":8457:8494   */\n      tag_177\n        /* \"#utility.yul\":8490:8493   */\n      dup3\n        /* \"#utility.yul\":8457:8494   */\n      tag_58\n      jump\t// in\n    tag_177:\n        /* \"#utility.yul\":8559:8577   */\n      0xffffffffffffffff\n        /* \"#utility.yul\":8551:8557   */\n      dup2\n        /* \"#utility.yul\":8548:8578   */\n      gt\n        /* \"#utility.yul\":8545:8601   */\n      iszero\n      tag_178\n      jumpi\n        /* \"#utility.yul\":8581:8599   */\n      tag_179\n      tag_48\n      jump\t// in\n    tag_179:\n        /* \"#utility.yul\":8545:8601   */\n    tag_178:\n        /* \"#utility.yul\":8625:8663   */\n      tag_180\n        /* \"#utility.yul\":8657:8661   */\n      dup3\n        /* \"#utility.yul\":8651:8662   */\n      sload\n        /* \"#utility.yul\":8625:8663   */\n      tag_27\n      jump\t// in\n    tag_180:\n        /* \"#utility.yul\":8710:8777   */\n      tag_181\n        /* \"#utility.yul\":8770:8776   */\n      dup3\n        /* \"#utility.yul\":8762:8768   */\n      dup3\n        /* \"#utility.yul\":8756:8760   */\n      dup6\n        /* \"#utility.yul\":8710:8777   */\n      tag_74\n      jump\t// in\n    tag_181:\n        /* \"#utility.yul\":8804:8805   */\n      0x00\n        /* \"#utility.yul\":8828:8832   */\n      0x20\n        /* \"#utility.yul\":8815:8832   */\n      swap1\n      pop\n        /* \"#utility.yul\":8860:8862   */\n      0x1f\n        /* \"#utility.yul\":8852:8858   */\n      dup4\n        /* \"#utility.yul\":8849:8863   */\n      gt\n        /* \"#utility.yul\":8877:8878   */\n      0x01\n        /* \"#utility.yul\":8872:9490   */\n      dup2\n      eq\n      tag_183\n      jumpi\n        /* \"#utility.yul\":9534:9535   */\n      0x00\n        /* \"#utility.yul\":9551:9557   */\n      dup5\n        /* \"#utility.yul\":9548:9625   */\n      iszero\n      tag_184\n      jumpi\n        /* \"#utility.yul\":9600:9609   */\n      dup3\n        /* \"#utility.yul\":9595:9598   */\n      dup8\n        /* \"#utility.yul\":9591:9610   */\n      add\n        /* \"#utility.yul\":9585:9611   */\n      mload\n        /* \"#utility.yul\":9576:9611   */\n      swap1\n      pop\n        /* \"#utility.yul\":9548:9625   */\n    tag_184:\n        /* \"#utility.yul\":9651:9718   */\n      tag_185\n        /* \"#utility.yul\":9711:9717   */\n      dup6\n        /* \"#utility.yul\":9704:9709   */\n      dup3\n        /* \"#utility.yul\":9651:9718   */\n      tag_77\n      jump\t// in\n    tag_185:\n        /* \"#utility.yul\":9645:9649   */\n      dup7\n        /* \"#utility.yul\":9638:9719   */\n      sstore\n        /* \"#utility.yul\":9507:9729   */\n      pop\n        /* \"#utility.yul\":8842:9729   */\n      jump(tag_182)\n        /* \"#utility.yul\":8872:9490   */\n    tag_183:\n        /* \"#utility.yul\":8924:8928   */\n      0x1f\n        /* \"#utility.yul\":8920:8929   */\n      not\n        /* \"#utility.yul\":8912:8918   */\n      dup5\n        /* \"#utility.yul\":8908:8930   */\n      and\n        /* \"#utility.yul\":8958:8995   */\n      tag_186\n        /* \"#utility.yul\":8990:8994   */\n      dup7\n        /* \"#utility.yul\":8958:8995   */\n      tag_63\n      jump\t// in\n    tag_186:\n        /* \"#utility.yul\":9017:9018   */\n      0x00\n        /* \"#utility.yul\":9031:9239   */\n    tag_187:\n        /* \"#utility.yul\":9045:9052   */\n      dup3\n        /* \"#utility.yul\":9042:9043   */\n      dup2\n        /* \"#utility.yul\":9039:9053   */\n      lt\n        /* \"#utility.yul\":9031:9239   */\n      iszero\n      tag_189\n      jumpi\n        /* \"#utility.yul\":9124:9133   */\n      dup5\n        /* \"#utility.yul\":9119:9122   */\n      dup10\n        /* \"#utility.yul\":9115:9134   */\n      add\n        /* \"#utility.yul\":9109:9135   */\n      mload\n        /* \"#utility.yul\":9101:9107   */\n      dup3\n        /* \"#utility.yul\":9094:9136   */\n      sstore\n        /* \"#utility.yul\":9175:9176   */\n      0x01\n        /* \"#utility.yul\":9167:9173   */\n      dup3\n        /* \"#utility.yul\":9163:9177   */\n      add\n        /* \"#utility.yul\":9153:9177   */\n      swap2\n      pop\n        /* \"#utility.yul\":9222:9224   */\n      0x20\n        /* \"#utility.yul\":9211:9220   */\n      dup6\n        /* \"#utility.yul\":9207:9225   */\n      add\n        /* \"#utility.yul\":9194:9225   */\n      swap5\n      pop\n        /* \"#utility.yul\":9068:9072   */\n      0x20\n        /* \"#utility.yul\":9065:9066   */\n      dup2\n        /* \"#utility.yul\":9061:9073   */\n      add\n        /* \"#utility.yul\":9056:9073   */\n      swap1\n      pop\n        /* \"#utility.yul\":9031:9239   */\n      jump(tag_187)\n    tag_189:\n        /* \"#utility.yul\":9267:9273   */\n      dup7\n        /* \"#utility.yul\":9258:9265   */\n      dup4\n        /* \"#utility.yul\":9255:9274   */\n      lt\n        /* \"#utility.yul\":9252:9431   */\n      iszero\n      tag_190\n      jumpi\n        /* \"#utility.yul\":9325:9334   */\n      dup5\n        /* \"#utility.yul\":9320:9323   */\n      dup10\n        /* \"#utility.yul\":9316:9335   */\n      add\n        /* \"#utility.yul\":9310:9336   */\n      mload\n        /* \"#utility.yul\":9368:9416   */\n      tag_191\n        /* \"#utility.yul\":9410:9414   */\n      0x1f\n        /* \"#utility.yul\":9402:9408   */\n      dup10\n        /* \"#utility.yul\":9398:9415   */\n      and\n        /* \"#utility.yul\":9387:9396   */\n      dup3\n        /* \"#utility.yul\":9368:9416   */\n      tag_76\n      jump\t// in\n    tag_191:\n        /* \"#utility.yul\":9360:9366   */\n      dup4\n        /* \"#utility.yul\":9353:9417   */\n      sstore\n        /* \"#utility.yul\":9275:9431   */\n      pop\n        /* \"#utility.yul\":9252:9431   */\n    tag_190:\n        /* \"#utility.yul\":9477:9478   */\n      0x01\n        /* \"#utility.yul\":9473:9474   */\n      0x02\n        /* \"#utility.yul\":9465:9471   */\n      dup9\n        /* \"#utility.yul\":9461:9475   */\n      mul\n        /* \"#utility.yul\":9457:9479   */\n      add\n        /* \"#utility.yul\":9451:9455   */\n      dup9\n        /* \"#utility.yul\":9444:9480   */\n      sstore\n        /* \"#utility.yul\":8879:9490   */\n      pop\n      pop\n      pop\n        /* \"#utility.yul\":8842:9729   */\n    tag_182:\n      pop\n        /* \"#utility.yul\":8432:9735   */\n      pop\n      pop\n      pop\n        /* \"#utility.yul\":8340:9735   */\n      pop\n      pop\n      jump\t// out\n        /* \"#utility.yul\":9741:9921   */\n    tag_35:\n        /* \"#utility.yul\":9789:9866   */\n      0x4e487b7100000000000000000000000000000000000000000000000000000000\n        /* \"#utility.yul\":9786:9787   */\n      0x00\n        /* \"#utility.yul\":9779:9867   */\n      mstore\n        /* \"#utility.yul\":9886:9890   */\n      0x32\n        /* \"#utility.yul\":9883:9884   */\n      0x04\n        /* \"#utility.yul\":9876:9891   */\n      mstore\n        /* \"#utility.yul\":9910:9914   */\n      0x24\n        /* \"#utility.yul\":9907:9908   */\n      0x00\n        /* \"#utility.yul\":9900:9915   */\n      revert\n\n    auxdata: 0xa2646970667358221220dc897bba1d5037a5d9792cd11c8d5311df6bba08cfafc9c727f7cb9cd5d7ad1f64736f6c634300081a0033\n}\n",
				"bytecode": {
					"linkReferences": {},
					"object": "608060405260405180606001604052806040518060400160405280600681526020017f6e617468616e000000000000000000000000000000000000000000000000000081525081526020016040518060400160405280600681526020017f6d617269616d000000000000000000000000000000000000000000000000000081525081526020016040518060400160405280600581526020017f63687269730000000000000000000000000000000000000000000000000000008152508152505f9060036100cd9291906100df565b503480156100d9575f80fd5b506104ba565b828054828255905f5260205f20908101928215610125579160200282015b8281111561012457825182908161011491906103eb565b50916020019190600101906100fd565b5b5090506101329190610136565b5090565b5b80821115610155575f818161014c9190610159565b50600101610137565b5090565b50805461016590610215565b5f825580601f106101765750610193565b601f0160209004905f5260205f20908101906101929190610196565b5b50565b5b808211156101ad575f815f905550600101610197565b5090565b5f81519050919050565b7f4e487b71000000000000000000000000000000000000000000000000000000005f52604160045260245ffd5b7f4e487b71000000000000000000000000000000000000000000000000000000005f52602260045260245ffd5b5f600282049050600182168061022c57607f821691505b60208210810361023f5761023e6101e8565b5b50919050565b5f819050815f5260205f209050919050565b5f6020601f8301049050919050565b5f82821b905092915050565b5f600883026102a17fffffffffffffffffffffffffffffffffffffffffffffffffffffffffffffffff82610266565b6102ab8683610266565b95508019841693508086168417925050509392505050565b5f819050919050565b5f819050919050565b5f6102ef6102ea6102e5846102c3565b6102cc565b6102c3565b9050919050565b5f819050919050565b610308836102d5565b61031c610314826102f6565b848454610272565b825550505050565b5f90565b610330610324565b61033b8184846102ff565b505050565b5b8181101561035e576103535f82610328565b600181019050610341565b5050565b601f8211156103a35761037481610245565b61037d84610257565b8101602085101561038c578190505b6103a061039885610257565b830182610340565b50505b505050565b5f82821c905092915050565b5f6103c35f19846008026103a8565b1980831691505092915050565b5f6103db83836103b4565b9150826002028217905092915050565b6103f4826101b1565b67ffffffffffffffff81111561040d5761040c6101bb565b5b6104178254610215565b610422828285610362565b5f60209050601f831160018114610453575f8415610441578287015190505b61044b85826103d0565b8655506104b2565b601f19841661046186610245565b5f5b8281101561048857848901518255600182019150602085019450602081019050610463565b868310156104a557848901516104a1601f8916826103b4565b8355505b6001600288020188555050505b505050505050565b6107e1806104c75f395ff3fe608060405234801561000f575f80fd5b506004361061003f575f3560e01c80632d2d03a6146100435780634739326b1461005f578063bca9a5c51461008f575b5f80fd5b61005d60048036038101906100589190610390565b6100bf565b005b6100796004803603810190610074919061040a565b6100f3565b6040516100869190610495565b60405180910390f35b6100a960048036038101906100a4919061040a565b610198565b6040516100b69190610495565b60405180910390f35b5f81908060018154018082558091505060019003905f5260205f20015f9091909190915090816100ef91906106af565b5050565b5f8181548110610101575f80fd5b905f5260205f20015f915090508054610119906104e2565b80601f0160208091040260200160405190810160405280929190818152602001828054610145906104e2565b80156101905780601f1061016757610100808354040283529160200191610190565b820191905f5260205f20905b81548152906001019060200180831161017357829003601f168201915b505050505081565b60605f82815481106101ad576101ac61077e565b5b905f5260205f200180546101c0906104e2565b80601f01602080910402602001604051908101604052809291908181526020018280546101ec906104e2565b80156102375780601f1061020e57610100808354040283529160200191610237565b820191905f5260205f20905b81548152906001019060200180831161021a57829003601f168201915b50505050509050919050565b5f604051905090565b5f80fd5b5f80fd5b5f80fd5b5f80fd5b5f601f19601f8301169050919050565b7f4e487b71000000000000000000000000000000000000000000000000000000005f52604160045260245ffd5b6102a28261025c565b810181811067ffffffffffffffff821117156102c1576102c061026c565b5b80604052505050565b5f6102d3610243565b90506102df8282610299565b919050565b5f67ffffffffffffffff8211156102fe576102fd61026c565b5b6103078261025c565b9050602081019050919050565b828183375f83830152505050565b5f61033461032f846102e4565b6102ca565b9050828152602081018484840111156103505761034f610258565b5b61035b848285610314565b509392505050565b5f82601f83011261037757610376610254565b5b8135610387848260208601610322565b91505092915050565b5f602082840312156103a5576103a461024c565b5b5f82013567ffffffffffffffff8111156103c2576103c1610250565b5b6103ce84828501610363565b91505092915050565b5f819050919050565b6103e9816103d7565b81146103f3575f80fd5b50565b5f81359050610404816103e0565b92915050565b5f6020828403121561041f5761041e61024c565b5b5f61042c848285016103f6565b91505092915050565b5f81519050919050565b5f82825260208201905092915050565b8281835e5f83830152505050565b5f61046782610435565b610471818561043f565b935061048181856020860161044f565b61048a8161025c565b840191505092915050565b5f6020820190508181035f8301526104ad818461045d565b905092915050565b7f4e487b71000000000000000000000000000000000000000000000000000000005f52602260045260245ffd5b5f60028204905060018216806104f957607f821691505b60208210810361050c5761050b6104b5565b5b50919050565b5f819050815f5260205f209050919050565b5f6020601f8301049050919050565b5f82821b905092915050565b5f6008830261056e7fffffffffffffffffffffffffffffffffffffffffffffffffffffffffffffffff82610533565b6105788683610533565b95508019841693508086168417925050509392505050565b5f819050919050565b5f6105b36105ae6105a9846103d7565b610590565b6103d7565b9050919050565b5f819050919050565b6105cc83610599565b6105e06105d8826105ba565b84845461053f565b825550505050565b5f90565b6105f46105e8565b6105ff8184846105c3565b505050565b5b81811015610622576106175f826105ec565b600181019050610605565b5050565b601f8211156106675761063881610512565b61064184610524565b81016020851015610650578190505b61066461065c85610524565b830182610604565b50505b505050565b5f82821c905092915050565b5f6106875f198460080261066c565b1980831691505092915050565b5f61069f8383610678565b9150826002028217905092915050565b6106b882610435565b67ffffffffffffffff8111156106d1576106d061026c565b5b6106db82546104e2565b6106e6828285610626565b5f60209050601f831160018114610717575f8415610705578287015190505b61070f8582610694565b865550610776565b601f19841661072586610512565b5f5b8281101561074c57848901518255600182019150602085019450602081019050610727565b868310156107695784890151610765601f891682610678565b8355505b6001600288020188555050505b505050505050565b7f4e487b71000000000000000000000000000000000000000000000000000000005f52603260045260245ffdfea2646970667358221220dc897bba1d5037a5d9792cd11c8d5311df6bba08cfafc9c727f7cb9cd5d7ad1f64736f6c634300081a0033",
					"opcodes": "PUSH1 0x80 PUSH1 0x40 MSTORE PUSH1 0x40 MLOAD DUP1 PUSH1 0x60 ADD PUSH1 0x40 MSTORE DUP1 PUSH1 0x40 MLOAD DUP1 PUSH1 0x40 ADD PUSH1 0x40 MSTORE DUP1 PUSH1 0x6 DUP2 MSTORE PUSH1 0x20 ADD PUSH32 0x6E617468616E0000000000000000000000000000000000000000000000000000 DUP2 MSTORE POP DUP2 MSTORE PUSH1 0x20 ADD PUSH1 0x40 MLOAD DUP1 PUSH1 0x40 ADD PUSH1 0x40 MSTORE DUP1 PUSH1 0x6 DUP2 MSTORE PUSH1 0x20 ADD PUSH32 0x6D617269616D0000000000000000000000000000000000000000000000000000 DUP2 MSTORE POP DUP2 MSTORE PUSH1 0x20 ADD PUSH1 0x40 MLOAD DUP1 PUSH1 0x40 ADD PUSH1 0x40 MSTORE DUP1 PUSH1 0x5 DUP2 MSTORE PUSH1 0x20 ADD PUSH32 0x6368726973000000000000000000000000000000000000000000000000000000 DUP2 MSTORE POP DUP2 MSTORE POP PUSH0 SWAP1 PUSH1 0x3 PUSH2 0xCD SWAP3 SWAP2 SWAP1 PUSH2 0xDF JUMP JUMPDEST POP CALLVALUE DUP1 ISZERO PUSH2 0xD9 JUMPI PUSH0 DUP1 REVERT JUMPDEST POP PUSH2 0x4BA JUMP JUMPDEST DUP3 DUP1 SLOAD DUP3 DUP3 SSTORE SWAP1 PUSH0 MSTORE PUSH1 0x20 PUSH0 KECCAK256 SWAP1 DUP2 ADD SWAP3 DUP3 ISZERO PUSH2 0x125 JUMPI SWAP2 PUSH1 0x20 MUL DUP3 ADD JUMPDEST DUP3 DUP2 GT ISZERO PUSH2 0x124 JUMPI DUP3 MLOAD DUP3 SWAP1 DUP2 PUSH2 0x114 SWAP2 SWAP1 PUSH2 0x3EB JUMP JUMPDEST POP SWAP2 PUSH1 0x20 ADD SWAP2 SWAP1 PUSH1 0x1 ADD SWAP1 PUSH2 0xFD JUMP JUMPDEST JUMPDEST POP SWAP1 POP PUSH2 0x132 SWAP2 SWAP1 PUSH2 0x136 JUMP JUMPDEST POP SWAP1 JUMP JUMPDEST JUMPDEST DUP1 DUP3 GT ISZERO PUSH2 0x155 JUMPI PUSH0 DUP2 DUP2 PUSH2 0x14C SWAP2 SWAP1 PUSH2 0x159 JUMP JUMPDEST POP PUSH1 0x1 ADD PUSH2 0x137 JUMP JUMPDEST POP SWAP1 JUMP JUMPDEST POP DUP1 SLOAD PUSH2 0x165 SWAP1 PUSH2 0x215 JUMP JUMPDEST PUSH0 DUP3 SSTORE DUP1 PUSH1 0x1F LT PUSH2 0x176 JUMPI POP PUSH2 0x193 JUMP JUMPDEST PUSH1 0x1F ADD PUSH1 0x20 SWAP1 DIV SWAP1 PUSH0 MSTORE PUSH1 0x20 PUSH0 KECCAK256 SWAP1 DUP2 ADD SWAP1 PUSH2 0x192 SWAP2 SWAP1 PUSH2 0x196 JUMP JUMPDEST JUMPDEST POP JUMP JUMPDEST JUMPDEST DUP1 DUP3 GT ISZERO PUSH2 0x1AD JUMPI PUSH0 DUP2 PUSH0 SWAP1 SSTORE POP PUSH1 0x1 ADD PUSH2 0x197 JUMP JUMPDEST POP SWAP1 JUMP JUMPDEST PUSH0 DUP2 MLOAD SWAP1 POP SWAP2 SWAP1 POP JUMP JUMPDEST PUSH32 0x4E487B7100000000000000000000000000000000000000000000000000000000 PUSH0 MSTORE PUSH1 0x41 PUSH1 0x4 MSTORE PUSH1 0x24 PUSH0 REVERT JUMPDEST PUSH32 0x4E487B7100000000000000000000000000000000000000000000000000000000 PUSH0 MSTORE PUSH1 0x22 PUSH1 0x4 MSTORE PUSH1 0x24 PUSH0 REVERT JUMPDEST PUSH0 PUSH1 0x2 DUP3 DIV SWAP1 POP PUSH1 0x1 DUP3 AND DUP1 PUSH2 0x22C JUMPI PUSH1 0x7F DUP3 AND SWAP2 POP JUMPDEST PUSH1 0x20 DUP3 LT DUP2 SUB PUSH2 0x23F JUMPI PUSH2 0x23E PUSH2 0x1E8 JUMP JUMPDEST JUMPDEST POP SWAP2 SWAP1 POP JUMP JUMPDEST PUSH0 DUP2 SWAP1 POP DUP2 PUSH0 MSTORE PUSH1 0x20 PUSH0 KECCAK256 SWAP1 POP SWAP2 SWAP1 POP JUMP JUMPDEST PUSH0 PUSH1 0x20 PUSH1 0x1F DUP4 ADD DIV SWAP1 POP SWAP2 SWAP1 POP JUMP JUMPDEST PUSH0 DUP3 DUP3 SHL SWAP1 POP SWAP3 SWAP2 POP POP JUMP JUMPDEST PUSH0 PUSH1 0x8 DUP4 MUL PUSH2 0x2A1 PUSH32 0xFFFFFFFFFFFFFFFFFFFFFFFFFFFFFFFFFFFFFFFFFFFFFFFFFFFFFFFFFFFFFFFF DUP3 PUSH2 0x266 JUMP JUMPDEST PUSH2 0x2AB DUP7 DUP4 PUSH2 0x266 JUMP JUMPDEST SWAP6 POP DUP1 NOT DUP5 AND SWAP4 POP DUP1 DUP7 AND DUP5 OR SWAP3 POP POP POP SWAP4 SWAP3 POP POP POP JUMP JUMPDEST PUSH0 DUP2 SWAP1 POP SWAP2 SWAP1 POP JUMP JUMPDEST PUSH0 DUP2 SWAP1 POP SWAP2 SWAP1 POP JUMP JUMPDEST PUSH0 PUSH2 0x2EF PUSH2 0x2EA PUSH2 0x2E5 DUP5 PUSH2 0x2C3 JUMP JUMPDEST PUSH2 0x2CC JUMP JUMPDEST PUSH2 0x2C3 JUMP JUMPDEST SWAP1 POP SWAP2 SWAP1 POP JUMP JUMPDEST PUSH0 DUP2 SWAP1 POP SWAP2 SWAP1 POP JUMP JUMPDEST PUSH2 0x308 DUP4 PUSH2 0x2D5 JUMP JUMPDEST PUSH2 0x31C PUSH2 0x314 DUP3 PUSH2 0x2F6 JUMP JUMPDEST DUP5 DUP5 SLOAD PUSH2 0x272 JUMP JUMPDEST DUP3 SSTORE POP POP POP POP JUMP JUMPDEST PUSH0 SWAP1 JUMP JUMPDEST PUSH2 0x330 PUSH2 0x324 JUMP JUMPDEST PUSH2 0x33B DUP2 DUP5 DUP5 PUSH2 0x2FF JUMP JUMPDEST POP POP POP JUMP JUMPDEST JUMPDEST DUP2 DUP2 LT ISZERO PUSH2 0x35E JUMPI PUSH2 0x353 PUSH0 DUP3 PUSH2 0x328 JUMP JUMPDEST PUSH1 0x1 DUP2 ADD SWAP1 POP PUSH2 0x341 JUMP JUMPDEST POP POP JUMP JUMPDEST PUSH1 0x1F DUP3 GT ISZERO PUSH2 0x3A3 JUMPI PUSH2 0x374 DUP2 PUSH2 0x245 JUMP JUMPDEST PUSH2 0x37D DUP5 PUSH2 0x257 JUMP JUMPDEST DUP2 ADD PUSH1 0x20 DUP6 LT ISZERO PUSH2 0x38C JUMPI DUP2 SWAP1 POP JUMPDEST PUSH2 0x3A0 PUSH2 0x398 DUP6 PUSH2 0x257 JUMP JUMPDEST DUP4 ADD DUP3 PUSH2 0x340 JUMP JUMPDEST POP POP JUMPDEST POP POP POP JUMP JUMPDEST PUSH0 DUP3 DUP3 SHR SWAP1 POP SWAP3 SWAP2 POP POP JUMP JUMPDEST PUSH0 PUSH2 0x3C3 PUSH0 NOT DUP5 PUSH1 0x8 MUL PUSH2 0x3A8 JUMP JUMPDEST NOT DUP1 DUP4 AND SWAP2 POP POP SWAP3 SWAP2 POP POP JUMP JUMPDEST PUSH0 PUSH2 0x3DB DUP4 DUP4 PUSH2 0x3B4 JUMP JUMPDEST SWAP2 POP DUP3 PUSH1 0x2 MUL DUP3 OR SWAP1 POP SWAP3 SWAP2 POP POP JUMP JUMPDEST PUSH2 0x3F4 DUP3 PUSH2 0x1B1 JUMP JUMPDEST PUSH8 0xFFFFFFFFFFFFFFFF DUP2 GT ISZERO PUSH2 0x40D JUMPI PUSH2 0x40C PUSH2 0x1BB JUMP JUMPDEST JUMPDEST PUSH2 0x417 DUP3 SLOAD PUSH2 0x215 JUMP JUMPDEST PUSH2 0x422 DUP3 DUP3 DUP6 PUSH2 0x362 JUMP JUMPDEST PUSH0 PUSH1 0x20 SWAP1 POP PUSH1 0x1F DUP4 GT PUSH1 0x1 DUP2 EQ PUSH2 0x453 JUMPI PUSH0 DUP5 ISZERO PUSH2 0x441 JUMPI DUP3 DUP8 ADD MLOAD SWAP1 POP JUMPDEST PUSH2 0x44B DUP6 DUP3 PUSH2 0x3D0 JUMP JUMPDEST DUP7 SSTORE POP PUSH2 0x4B2 JUMP JUMPDEST PUSH1 0x1F NOT DUP5 AND PUSH2 0x461 DUP7 PUSH2 0x245 JUMP JUMPDEST PUSH0 JUMPDEST DUP3 DUP2 LT ISZERO PUSH2 0x488 JUMPI DUP5 DUP10 ADD MLOAD DUP3 SSTORE PUSH1 0x1 DUP3 ADD SWAP2 POP PUSH1 0x20 DUP6 ADD SWAP5 POP PUSH1 0x20 DUP2 ADD SWAP1 POP PUSH2 0x463 JUMP JUMPDEST DUP7 DUP4 LT ISZERO PUSH2 0x4A5 JUMPI DUP5 DUP10 ADD MLOAD PUSH2 0x4A1 PUSH1 0x1F DUP10 AND DUP3 PUSH2 0x3B4 JUMP JUMPDEST DUP4 SSTORE POP JUMPDEST PUSH1 0x1 PUSH1 0x2 DUP9 MUL ADD DUP9 SSTORE POP POP POP JUMPDEST POP POP POP POP POP POP JUMP JUMPDEST PUSH2 0x7E1 DUP1 PUSH2 0x4C7 PUSH0 CODECOPY PUSH0 RETURN INVALID PUSH1 0x80 PUSH1 0x40 MSTORE CALLVALUE DUP1 ISZERO PUSH2 0xF JUMPI PUSH0 DUP1 REVERT JUMPDEST POP PUSH1 0x4 CALLDATASIZE LT PUSH2 0x3F JUMPI PUSH0 CALLDATALOAD PUSH1 0xE0 SHR DUP1 PUSH4 0x2D2D03A6 EQ PUSH2 0x43 JUMPI DUP1 PUSH4 0x4739326B EQ PUSH2 0x5F JUMPI DUP1 PUSH4 0xBCA9A5C5 EQ PUSH2 0x8F JUMPI JUMPDEST PUSH0 DUP1 REVERT JUMPDEST PUSH2 0x5D PUSH1 0x4 DUP1 CALLDATASIZE SUB DUP2 ADD SWAP1 PUSH2 0x58 SWAP2 SWAP1 PUSH2 0x390 JUMP JUMPDEST PUSH2 0xBF JUMP JUMPDEST STOP JUMPDEST PUSH2 0x79 PUSH1 0x4 DUP1 CALLDATASIZE SUB DUP2 ADD SWAP1 PUSH2 0x74 SWAP2 SWAP1 PUSH2 0x40A JUMP JUMPDEST PUSH2 0xF3 JUMP JUMPDEST PUSH1 0x40 MLOAD PUSH2 0x86 SWAP2 SWAP1 PUSH2 0x495 JUMP JUMPDEST PUSH1 0x40 MLOAD DUP1 SWAP2 SUB SWAP1 RETURN JUMPDEST PUSH2 0xA9 PUSH1 0x4 DUP1 CALLDATASIZE SUB DUP2 ADD SWAP1 PUSH2 0xA4 SWAP2 SWAP1 PUSH2 0x40A JUMP JUMPDEST PUSH2 0x198 JUMP JUMPDEST PUSH1 0x40 MLOAD PUSH2 0xB6 SWAP2 SWAP1 PUSH2 0x495 JUMP JUMPDEST PUSH1 0x40 MLOAD DUP1 SWAP2 SUB SWAP1 RETURN JUMPDEST PUSH0 DUP2 SWAP1 DUP1 PUSH1 0x1 DUP2 SLOAD ADD DUP1 DUP3 SSTORE DUP1 SWAP2 POP POP PUSH1 0x1 SWAP1 SUB SWAP1 PUSH0 MSTORE PUSH1 0x20 PUSH0 KECCAK256 ADD PUSH0 SWAP1 SWAP2 SWAP1 SWAP2 SWAP1 SWAP2 POP SWAP1 DUP2 PUSH2 0xEF SWAP2 SWAP1 PUSH2 0x6AF JUMP JUMPDEST POP POP JUMP JUMPDEST PUSH0 DUP2 DUP2 SLOAD DUP2 LT PUSH2 0x101 JUMPI PUSH0 DUP1 REVERT JUMPDEST SWAP1 PUSH0 MSTORE PUSH1 0x20 PUSH0 KECCAK256 ADD PUSH0 SWAP2 POP SWAP1 POP DUP1 SLOAD PUSH2 0x119 SWAP1 PUSH2 0x4E2 JUMP JUMPDEST DUP1 PUSH1 0x1F ADD PUSH1 0x20 DUP1 SWAP2 DIV MUL PUSH1 0x20 ADD PUSH1 0x40 MLOAD SWAP1 DUP2 ADD PUSH1 0x40 MSTORE DUP1 SWAP3 SWAP2 SWAP1 DUP2 DUP2 MSTORE PUSH1 0x20 ADD DUP3 DUP1 SLOAD PUSH2 0x145 SWAP1 PUSH2 0x4E2 JUMP JUMPDEST DUP1 ISZERO PUSH2 0x190 JUMPI DUP1 PUSH1 0x1F LT PUSH2 0x167 JUMPI PUSH2 0x100 DUP1 DUP4 SLOAD DIV MUL DUP4 MSTORE SWAP2 PUSH1 0x20 ADD SWAP2 PUSH2 0x190 JUMP JUMPDEST DUP3 ADD SWAP2 SWAP1 PUSH0 MSTORE PUSH1 0x20 PUSH0 KECCAK256 SWAP1 JUMPDEST DUP2 SLOAD DUP2 MSTORE SWAP1 PUSH1 0x1 ADD SWAP1 PUSH1 0x20 ADD DUP1 DUP4 GT PUSH2 0x173 JUMPI DUP3 SWAP1 SUB PUSH1 0x1F AND DUP3 ADD SWAP2 JUMPDEST POP POP POP POP POP DUP2 JUMP JUMPDEST PUSH1 0x60 PUSH0 DUP3 DUP2 SLOAD DUP2 LT PUSH2 0x1AD JUMPI PUSH2 0x1AC PUSH2 0x77E JUMP JUMPDEST JUMPDEST SWAP1 PUSH0 MSTORE PUSH1 0x20 PUSH0 KECCAK256 ADD DUP1 SLOAD PUSH2 0x1C0 SWAP1 PUSH2 0x4E2 JUMP JUMPDEST DUP1 PUSH1 0x1F ADD PUSH1 0x20 DUP1 SWAP2 DIV MUL PUSH1 0x20 ADD PUSH1 0x40 MLOAD SWAP1 DUP2 ADD PUSH1 0x40 MSTORE DUP1 SWAP3 SWAP2 SWAP1 DUP2 DUP2 MSTORE PUSH1 0x20 ADD DUP3 DUP1 SLOAD PUSH2 0x1EC SWAP1 PUSH2 0x4E2 JUMP JUMPDEST DUP1 ISZERO PUSH2 0x237 JUMPI DUP1 PUSH1 0x1F LT PUSH2 0x20E JUMPI PUSH2 0x100 DUP1 DUP4 SLOAD DIV MUL DUP4 MSTORE SWAP2 PUSH1 0x20 ADD SWAP2 PUSH2 0x237 JUMP JUMPDEST DUP3 ADD SWAP2 SWAP1 PUSH0 MSTORE PUSH1 0x20 PUSH0 KECCAK256 SWAP1 JUMPDEST DUP2 SLOAD DUP2 MSTORE SWAP1 PUSH1 0x1 ADD SWAP1 PUSH1 0x20 ADD DUP1 DUP4 GT PUSH2 0x21A JUMPI DUP3 SWAP1 SUB PUSH1 0x1F AND DUP3 ADD SWAP2 JUMPDEST POP POP POP POP POP SWAP1 POP SWAP2 SWAP1 POP JUMP JUMPDEST PUSH0 PUSH1 0x40 MLOAD SWAP1 POP SWAP1 JUMP JUMPDEST PUSH0 DUP1 REVERT JUMPDEST PUSH0 DUP1 REVERT JUMPDEST PUSH0 DUP1 REVERT JUMPDEST PUSH0 DUP1 REVERT JUMPDEST PUSH0 PUSH1 0x1F NOT PUSH1 0x1F DUP4 ADD AND SWAP1 POP SWAP2 SWAP1 POP JUMP JUMPDEST PUSH32 0x4E487B7100000000000000000000000000000000000000000000000000000000 PUSH0 MSTORE PUSH1 0x41 PUSH1 0x4 MSTORE PUSH1 0x24 PUSH0 REVERT JUMPDEST PUSH2 0x2A2 DUP3 PUSH2 0x25C JUMP JUMPDEST DUP2 ADD DUP2 DUP2 LT PUSH8 0xFFFFFFFFFFFFFFFF DUP3 GT OR ISZERO PUSH2 0x2C1 JUMPI PUSH2 0x2C0 PUSH2 0x26C JUMP JUMPDEST JUMPDEST DUP1 PUSH1 0x40 MSTORE POP POP POP JUMP JUMPDEST PUSH0 PUSH2 0x2D3 PUSH2 0x243 JUMP JUMPDEST SWAP1 POP PUSH2 0x2DF DUP3 DUP3 PUSH2 0x299 JUMP JUMPDEST SWAP2 SWAP1 POP JUMP JUMPDEST PUSH0 PUSH8 0xFFFFFFFFFFFFFFFF DUP3 GT ISZERO PUSH2 0x2FE JUMPI PUSH2 0x2FD PUSH2 0x26C JUMP JUMPDEST JUMPDEST PUSH2 0x307 DUP3 PUSH2 0x25C JUMP JUMPDEST SWAP1 POP PUSH1 0x20 DUP2 ADD SWAP1 POP SWAP2 SWAP1 POP JUMP JUMPDEST DUP3 DUP2 DUP4 CALLDATACOPY PUSH0 DUP4 DUP4 ADD MSTORE POP POP POP JUMP JUMPDEST PUSH0 PUSH2 0x334 PUSH2 0x32F DUP5 PUSH2 0x2E4 JUMP JUMPDEST PUSH2 0x2CA JUMP JUMPDEST SWAP1 POP DUP3 DUP2 MSTORE PUSH1 0x20 DUP2 ADD DUP5 DUP5 DUP5 ADD GT ISZERO PUSH2 0x350 JUMPI PUSH2 0x34F PUSH2 0x258 JUMP JUMPDEST JUMPDEST PUSH2 0x35B DUP5 DUP3 DUP6 PUSH2 0x314 JUMP JUMPDEST POP SWAP4 SWAP3 POP POP POP JUMP JUMPDEST PUSH0 DUP3 PUSH1 0x1F DUP4 ADD SLT PUSH2 0x377 JUMPI PUSH2 0x376 PUSH2 0x254 JUMP JUMPDEST JUMPDEST DUP2 CALLDATALOAD PUSH2 0x387 DUP5 DUP3 PUSH1 0x20 DUP7 ADD PUSH2 0x322 JUMP JUMPDEST SWAP2 POP POP SWAP3 SWAP2 POP POP JUMP JUMPDEST PUSH0 PUSH1 0x20 DUP3 DUP5 SUB SLT ISZERO PUSH2 0x3A5 JUMPI PUSH2 0x3A4 PUSH2 0x24C JUMP JUMPDEST JUMPDEST PUSH0 DUP3 ADD CALLDATALOAD PUSH8 0xFFFFFFFFFFFFFFFF DUP2 GT ISZERO PUSH2 0x3C2 JUMPI PUSH2 0x3C1 PUSH2 0x250 JUMP JUMPDEST JUMPDEST PUSH2 0x3CE DUP5 DUP3 DUP6 ADD PUSH2 0x363 JUMP JUMPDEST SWAP2 POP POP SWAP3 SWAP2 POP POP JUMP JUMPDEST PUSH0 DUP2 SWAP1 POP SWAP2 SWAP1 POP JUMP JUMPDEST PUSH2 0x3E9 DUP2 PUSH2 0x3D7 JUMP JUMPDEST DUP2 EQ PUSH2 0x3F3 JUMPI PUSH0 DUP1 REVERT JUMPDEST POP JUMP JUMPDEST PUSH0 DUP2 CALLDATALOAD SWAP1 POP PUSH2 0x404 DUP2 PUSH2 0x3E0 JUMP JUMPDEST SWAP3 SWAP2 POP POP JUMP JUMPDEST PUSH0 PUSH1 0x20 DUP3 DUP5 SUB SLT ISZERO PUSH2 0x41F JUMPI PUSH2 0x41E PUSH2 0x24C JUMP JUMPDEST JUMPDEST PUSH0 PUSH2 0x42C DUP5 DUP3 DUP6 ADD PUSH2 0x3F6 JUMP JUMPDEST SWAP2 POP POP SWAP3 SWAP2 POP POP JUMP JUMPDEST PUSH0 DUP2 MLOAD SWAP1 POP SWAP2 SWAP1 POP JUMP JUMPDEST PUSH0 DUP3 DUP3 MSTORE PUSH1 0x20 DUP3 ADD SWAP1 POP SWAP3 SWAP2 POP POP JUMP JUMPDEST DUP3 DUP2 DUP4 MCOPY PUSH0 DUP4 DUP4 ADD MSTORE POP POP POP JUMP JUMPDEST PUSH0 PUSH2 0x467 DUP3 PUSH2 0x435 JUMP JUMPDEST PUSH2 0x471 DUP2 DUP6 PUSH2 0x43F JUMP JUMPDEST SWAP4 POP PUSH2 0x481 DUP2 DUP6 PUSH1 0x20 DUP7 ADD PUSH2 0x44F JUMP JUMPDEST PUSH2 0x48A DUP2 PUSH2 0x25C JUMP JUMPDEST DUP5 ADD SWAP2 POP POP SWAP3 SWAP2 POP POP JUMP JUMPDEST PUSH0 PUSH1 0x20 DUP3 ADD SWAP1 POP DUP2 DUP2 SUB PUSH0 DUP4 ADD MSTORE PUSH2 0x4AD DUP2 DUP5 PUSH2 0x45D JUMP JUMPDEST SWAP1 POP SWAP3 SWAP2 POP POP JUMP JUMPDEST PUSH32 0x4E487B7100000000000000000000000000000000000000000000000000000000 PUSH0 MSTORE PUSH1 0x22 PUSH1 0x4 MSTORE PUSH1 0x24 PUSH0 REVERT JUMPDEST PUSH0 PUSH1 0x2 DUP3 DIV SWAP1 POP PUSH1 0x1 DUP3 AND DUP1 PUSH2 0x4F9 JUMPI PUSH1 0x7F DUP3 AND SWAP2 POP JUMPDEST PUSH1 0x20 DUP3 LT DUP2 SUB PUSH2 0x50C JUMPI PUSH2 0x50B PUSH2 0x4B5 JUMP JUMPDEST JUMPDEST POP SWAP2 SWAP1 POP JUMP JUMPDEST PUSH0 DUP2 SWAP1 POP DUP2 PUSH0 MSTORE PUSH1 0x20 PUSH0 KECCAK256 SWAP1 POP SWAP2 SWAP1 POP JUMP JUMPDEST PUSH0 PUSH1 0x20 PUSH1 0x1F DUP4 ADD DIV SWAP1 POP SWAP2 SWAP1 POP JUMP JUMPDEST PUSH0 DUP3 DUP3 SHL SWAP1 POP SWAP3 SWAP2 POP POP JUMP JUMPDEST PUSH0 PUSH1 0x8 DUP4 MUL PUSH2 0x56E PUSH32 0xFFFFFFFFFFFFFFFFFFFFFFFFFFFFFFFFFFFFFFFFFFFFFFFFFFFFFFFFFFFFFFFF DUP3 PUSH2 0x533 JUMP JUMPDEST PUSH2 0x578 DUP7 DUP4 PUSH2 0x533 JUMP JUMPDEST SWAP6 POP DUP1 NOT DUP5 AND SWAP4 POP DUP1 DUP7 AND DUP5 OR SWAP3 POP POP POP SWAP4 SWAP3 POP POP POP JUMP JUMPDEST PUSH0 DUP2 SWAP1 POP SWAP2 SWAP1 POP JUMP JUMPDEST PUSH0 PUSH2 0x5B3 PUSH2 0x5AE PUSH2 0x5A9 DUP5 PUSH2 0x3D7 JUMP JUMPDEST PUSH2 0x590 JUMP JUMPDEST PUSH2 0x3D7 JUMP JUMPDEST SWAP1 POP SWAP2 SWAP1 POP JUMP JUMPDEST PUSH0 DUP2 SWAP1 POP SWAP2 SWAP1 POP JUMP JUMPDEST PUSH2 0x5CC DUP4 PUSH2 0x599 JUMP JUMPDEST PUSH2 0x5E0 PUSH2 0x5D8 DUP3 PUSH2 0x5BA JUMP JUMPDEST DUP5 DUP5 SLOAD PUSH2 0x53F JUMP JUMPDEST DUP3 SSTORE POP POP POP POP JUMP JUMPDEST PUSH0 SWAP1 JUMP JUMPDEST PUSH2 0x5F4 PUSH2 0x5E8 JUMP JUMPDEST PUSH2 0x5FF DUP2 DUP5 DUP5 PUSH2 0x5C3 JUMP JUMPDEST POP POP POP JUMP JUMPDEST JUMPDEST DUP2 DUP2 LT ISZERO PUSH2 0x622 JUMPI PUSH2 0x617 PUSH0 DUP3 PUSH2 0x5EC JUMP JUMPDEST PUSH1 0x1 DUP2 ADD SWAP1 POP PUSH2 0x605 JUMP JUMPDEST POP POP JUMP JUMPDEST PUSH1 0x1F DUP3 GT ISZERO PUSH2 0x667 JUMPI PUSH2 0x638 DUP2 PUSH2 0x512 JUMP JUMPDEST PUSH2 0x641 DUP5 PUSH2 0x524 JUMP JUMPDEST DUP2 ADD PUSH1 0x20 DUP6 LT ISZERO PUSH2 0x650 JUMPI DUP2 SWAP1 POP JUMPDEST PUSH2 0x664 PUSH2 0x65C DUP6 PUSH2 0x524 JUMP JUMPDEST DUP4 ADD DUP3 PUSH2 0x604 JUMP JUMPDEST POP POP JUMPDEST POP POP POP JUMP JUMPDEST PUSH0 DUP3 DUP3 SHR SWAP1 POP SWAP3 SWAP2 POP POP JUMP JUMPDEST PUSH0 PUSH2 0x687 PUSH0 NOT DUP5 PUSH1 0x8 MUL PUSH2 0x66C JUMP JUMPDEST NOT DUP1 DUP4 AND SWAP2 POP POP SWAP3 SWAP2 POP POP JUMP JUMPDEST PUSH0 PUSH2 0x69F DUP4 DUP4 PUSH2 0x678 JUMP JUMPDEST SWAP2 POP DUP3 PUSH1 0x2 MUL DUP3 OR SWAP1 POP SWAP3 SWAP2 POP POP JUMP JUMPDEST PUSH2 0x6B8 DUP3 PUSH2 0x435 JUMP JUMPDEST PUSH8 0xFFFFFFFFFFFFFFFF DUP2 GT ISZERO PUSH2 0x6D1 JUMPI PUSH2 0x6D0 PUSH2 0x26C JUMP JUMPDEST JUMPDEST PUSH2 0x6DB DUP3 SLOAD PUSH2 0x4E2 JUMP JUMPDEST PUSH2 0x6E6 DUP3 DUP3 DUP6 PUSH2 0x626 JUMP JUMPDEST PUSH0 PUSH1 0x20 SWAP1 POP PUSH1 0x1F DUP4 GT PUSH1 0x1 DUP2 EQ PUSH2 0x717 JUMPI PUSH0 DUP5 ISZERO PUSH2 0x705 JUMPI DUP3 DUP8 ADD MLOAD SWAP1 POP JUMPDEST PUSH2 0x70F DUP6 DUP3 PUSH2 0x694 JUMP JUMPDEST DUP7 SSTORE POP PUSH2 0x776 JUMP JUMPDEST PUSH1 0x1F NOT DUP5 AND PUSH2 0x725 DUP7 PUSH2 0x512 JUMP JUMPDEST PUSH0 JUMPDEST DUP3 DUP2 LT ISZERO PUSH2 0x74C JUMPI DUP5 DUP10 ADD MLOAD DUP3 SSTORE PUSH1 0x1 DUP3 ADD SWAP2 POP PUSH1 0x20 DUP6 ADD SWAP5 POP PUSH1 0x20 DUP2 ADD SWAP1 POP PUSH2 0x727 JUMP JUMPDEST DUP7 DUP4 LT ISZERO PUSH2 0x769 JUMPI DUP5 DUP10 ADD MLOAD PUSH2 0x765 PUSH1 0x1F DUP10 AND DUP3 PUSH2 0x678 JUMP JUMPDEST DUP4 SSTORE POP JUMPDEST PUSH1 0x1 PUSH1 0x2 DUP9 MUL ADD DUP9 SSTORE POP POP POP JUMPDEST POP POP POP POP POP POP JUMP JUMPDEST PUSH32 0x4E487B7100000000000000000000000000000000000000000000000000000000 PUSH0 MSTORE PUSH1 0x32 PUSH1 0x4 MSTORE PUSH1 0x24 PUSH0 REVERT INVALID LOG2 PUSH5 0x6970667358 0x22 SLT KECCAK256 0xDC DUP10 PUSH28 0xBA1D5037A5D9792CD11C8D5311DF6BBA08CFAFC9C727F7CB9CD5D7AD 0x1F PUSH5 0x736F6C6343 STOP ADDMOD BYTE STOP CALLER "
				},
				"gasEstimates": {
					"creation": {
						"codeDepositCost": "403400",
						"executionCost": "infinite",
						"totalCost": "infinite"
					},
					"external": {
						"addEmployee(string)": "infinite",
						"employees(uint256)": "infinite",
						"getEmployee(uint256)": "infinite"
					}
				},
				"methodIdentifiers": {
					"addEmployee(string)": "2d2d03a6",
					"employees(uint256)": "4739326b",
					"getEmployee(uint256)": "bca9a5c5"
				}
			},
			"storageLayout": {
				"storage": [
					{
						"astId": 8,
						"contract": "contracts/Practice.sol:MyPractice",
						"label": "employees",
						"offset": 0,
						"slot": "0",
						"type": "t_array(t_string_storage)dyn_storage"
					}
				],
				"types": {
					"t_array(t_string_storage)dyn_storage": {
						"base": "t_string_storage",
						"encoding": "dynamic_array",
						"label": "string[]",
						"numberOfBytes": "32"
					},
					"t_string_storage": {
						"encoding": "bytes",
						"label": "string",
						"numberOfBytes": "32"
					}
				}
			},
			"userdoc": {
				"kind": "user",
				"methods": {},
				"version": 1
			}
		}
	}
}