{
	"contracts/rockPaper.sol": {
		"RockPaperScissors": {
			"abi": [
				{
					"inputs": [],
					"name": "gameEnded",
					"outputs": [
						{
							"internalType": "bool",
							"name": "",
							"type": "bool"
						}
					],
					"stateMutability": "view",
					"type": "function"
				},
				{
					"inputs": [],
					"name": "owner",
					"outputs": [
						{
							"internalType": "address",
							"name": "",
							"type": "address"
						}
					],
					"stateMutability": "view",
					"type": "function"
				},
				{
					"inputs": [],
					"name": "player1",
					"outputs": [
						{
							"internalType": "address",
							"name": "playerAddress",
							"type": "address"
						},
						{
							"internalType": "enum RockPaperScissors.Choice",
							"name": "choice",
							"type": "uint8"
						},
						{
							"internalType": "bool",
							"name": "hasPlayed",
							"type": "bool"
						}
					],
					"stateMutability": "view",
					"type": "function"
				},
				{
					"inputs": [],
					"name": "player2",
					"outputs": [
						{
							"internalType": "address",
							"name": "playerAddress",
							"type": "address"
						},
						{
							"internalType": "enum RockPaperScissors.Choice",
							"name": "choice",
							"type": "uint8"
						},
						{
							"internalType": "bool",
							"name": "hasPlayed",
							"type": "bool"
						}
					],
					"stateMutability": "view",
					"type": "function"
				},
				{
					"inputs": [],
					"name": "winner",
					"outputs": [
						{
							"internalType": "address",
							"name": "",
							"type": "address"
						}
					],
					"stateMutability": "view",
					"type": "function"
				}
			],
			"devdoc": {
				"kind": "dev",
				"methods": {},
				"version": 1
			},
			"evm": {
				"assembly": "    /* \"contracts/rockPaper.sol\":60:760  contract RockPaperScissors {... */\n  mstore(0x40, 0x80)\n  callvalue\n  dup1\n  iszero\n  tag_1\n  jumpi\n  0x00\n  dup1\n  revert\ntag_1:\n  pop\n  dataSize(sub_0)\n  dup1\n  dataOffset(sub_0)\n  0x00\n  codecopy\n  0x00\n  return\nstop\n\nsub_0: assembly {\n        /* \"contracts/rockPaper.sol\":60:760  contract RockPaperScissors {... */\n      mstore(0x40, 0x80)\n      callvalue\n      dup1\n      iszero\n      tag_1\n      jumpi\n      0x00\n      dup1\n      revert\n    tag_1:\n      pop\n      jumpi(tag_2, lt(calldatasize, 0x04))\n      shr(0xe0, calldataload(0x00))\n      dup1\n      0x2f6fe396\n      eq\n      tag_3\n      jumpi\n      dup1\n      0x59a5f12d\n      eq\n      tag_4\n      jumpi\n      dup1\n      0x8da5cb5b\n      eq\n      tag_5\n      jumpi\n      dup1\n      0xd30895e4\n      eq\n      tag_6\n      jumpi\n      dup1\n      0xdfbf53ae\n      eq\n      tag_7\n      jumpi\n    tag_2:\n      0x00\n      dup1\n      revert\n        /* \"contracts/rockPaper.sol\":701:722  bool public gameEnded */\n    tag_3:\n      tag_8\n      tag_9\n      jump\t// in\n    tag_8:\n      mload(0x40)\n      tag_10\n      swap2\n      swap1\n      tag_11\n      jump\t// in\n    tag_10:\n      mload(0x40)\n      dup1\n      swap2\n      sub\n      swap1\n      return\n        /* \"contracts/rockPaper.sol\":644:665  Player public player2 */\n    tag_4:\n      tag_12\n      tag_13\n      jump\t// in\n    tag_12:\n      mload(0x40)\n      tag_14\n      swap4\n      swap3\n      swap2\n      swap1\n      tag_15\n      jump\t// in\n    tag_14:\n      mload(0x40)\n      dup1\n      swap2\n      sub\n      swap1\n      return\n        /* \"contracts/rockPaper.sol\":674:694  address public owner */\n    tag_5:\n      tag_16\n      tag_17\n      jump\t// in\n    tag_16:\n      mload(0x40)\n      tag_18\n      swap2\n      swap1\n      tag_19\n      jump\t// in\n    tag_18:\n      mload(0x40)\n      dup1\n      swap2\n      sub\n      swap1\n      return\n        /* \"contracts/rockPaper.sol\":616:637  Player public player1 */\n    tag_6:\n      tag_20\n      tag_21\n      jump\t// in\n    tag_20:\n      mload(0x40)\n      tag_22\n      swap4\n      swap3\n      swap2\n      swap1\n      tag_15\n      jump\t// in\n    tag_22:\n      mload(0x40)\n      dup1\n      swap2\n      sub\n      swap1\n      return\n        /* \"contracts/rockPaper.sol\":729:750  address public winner */\n    tag_7:\n      tag_23\n      tag_24\n      jump\t// in\n    tag_23:\n      mload(0x40)\n      tag_25\n      swap2\n      swap1\n      tag_19\n      jump\t// in\n    tag_25:\n      mload(0x40)\n      dup1\n      swap2\n      sub\n      swap1\n      return\n        /* \"contracts/rockPaper.sol\":701:722  bool public gameEnded */\n    tag_9:\n      0x02\n      0x14\n      swap1\n      sload\n      swap1\n      0x0100\n      exp\n      swap1\n      div\n      0xff\n      and\n      dup2\n      jump\t// out\n        /* \"contracts/rockPaper.sol\":644:665  Player public player2 */\n    tag_13:\n      0x01\n      dup1\n      0x00\n      add\n      0x00\n      swap1\n      sload\n      swap1\n      0x0100\n      exp\n      swap1\n      div\n      0xffffffffffffffffffffffffffffffffffffffff\n      and\n      swap1\n      dup1\n      0x00\n      add\n      0x14\n      swap1\n      sload\n      swap1\n      0x0100\n      exp\n      swap1\n      div\n      0xff\n      and\n      swap1\n      dup1\n      0x00\n      add\n      0x15\n      swap1\n      sload\n      swap1\n      0x0100\n      exp\n      swap1\n      div\n      0xff\n      and\n      swap1\n      pop\n      dup4\n      jump\t// out\n        /* \"contracts/rockPaper.sol\":674:694  address public owner */\n    tag_17:\n      0x02\n      0x00\n      swap1\n      sload\n      swap1\n      0x0100\n      exp\n      swap1\n      div\n      0xffffffffffffffffffffffffffffffffffffffff\n      and\n      dup2\n      jump\t// out\n        /* \"contracts/rockPaper.sol\":616:637  Player public player1 */\n    tag_21:\n      0x00\n      dup1\n      0x00\n      add\n      0x00\n      swap1\n      sload\n      swap1\n      0x0100\n      exp\n      swap1\n      div\n      0xffffffffffffffffffffffffffffffffffffffff\n      and\n      swap1\n      dup1\n      0x00\n      add\n      0x14\n      swap1\n      sload\n      swap1\n      0x0100\n      exp\n      swap1\n      div\n      0xff\n      and\n      swap1\n      dup1\n      0x00\n      add\n      0x15\n      swap1\n      sload\n      swap1\n      0x0100\n      exp\n      swap1\n      div\n      0xff\n      and\n      swap1\n      pop\n      dup4\n      jump\t// out\n        /* \"contracts/rockPaper.sol\":729:750  address public winner */\n    tag_24:\n      0x03\n      0x00\n      swap1\n      sload\n      swap1\n      0x0100\n      exp\n      swap1\n      div\n      0xffffffffffffffffffffffffffffffffffffffff\n      and\n      dup2\n      jump\t// out\n        /* \"#utility.yul\":7:97   */\n    tag_26:\n        /* \"#utility.yul\":41:48   */\n      0x00\n        /* \"#utility.yul\":84:89   */\n      dup2\n        /* \"#utility.yul\":77:90   */\n      iszero\n        /* \"#utility.yul\":70:91   */\n      iszero\n        /* \"#utility.yul\":59:91   */\n      swap1\n      pop\n        /* \"#utility.yul\":7:97   */\n      swap2\n      swap1\n      pop\n      jump\t// out\n        /* \"#utility.yul\":103:212   */\n    tag_27:\n        /* \"#utility.yul\":184:205   */\n      tag_39\n        /* \"#utility.yul\":199:204   */\n      dup2\n        /* \"#utility.yul\":184:205   */\n      tag_26\n      jump\t// in\n    tag_39:\n        /* \"#utility.yul\":179:182   */\n      dup3\n        /* \"#utility.yul\":172:206   */\n      mstore\n        /* \"#utility.yul\":103:212   */\n      pop\n      pop\n      jump\t// out\n        /* \"#utility.yul\":218:428   */\n    tag_11:\n        /* \"#utility.yul\":305:309   */\n      0x00\n        /* \"#utility.yul\":343:345   */\n      0x20\n        /* \"#utility.yul\":332:341   */\n      dup3\n        /* \"#utility.yul\":328:346   */\n      add\n        /* \"#utility.yul\":320:346   */\n      swap1\n      pop\n        /* \"#utility.yul\":356:421   */\n      tag_41\n        /* \"#utility.yul\":418:419   */\n      0x00\n        /* \"#utility.yul\":407:416   */\n      dup4\n        /* \"#utility.yul\":403:420   */\n      add\n        /* \"#utility.yul\":394:400   */\n      dup5\n        /* \"#utility.yul\":356:421   */\n      tag_27\n      jump\t// in\n    tag_41:\n        /* \"#utility.yul\":218:428   */\n      swap3\n      swap2\n      pop\n      pop\n      jump\t// out\n        /* \"#utility.yul\":434:560   */\n    tag_28:\n        /* \"#utility.yul\":471:478   */\n      0x00\n        /* \"#utility.yul\":511:553   */\n      0xffffffffffffffffffffffffffffffffffffffff\n        /* \"#utility.yul\":504:509   */\n      dup3\n        /* \"#utility.yul\":500:554   */\n      and\n        /* \"#utility.yul\":489:554   */\n      swap1\n      pop\n        /* \"#utility.yul\":434:560   */\n      swap2\n      swap1\n      pop\n      jump\t// out\n        /* \"#utility.yul\":566:662   */\n    tag_29:\n        /* \"#utility.yul\":603:610   */\n      0x00\n        /* \"#utility.yul\":632:656   */\n      tag_44\n        /* \"#utility.yul\":650:655   */\n      dup3\n        /* \"#utility.yul\":632:656   */\n      tag_28\n      jump\t// in\n    tag_44:\n        /* \"#utility.yul\":621:656   */\n      swap1\n      pop\n        /* \"#utility.yul\":566:662   */\n      swap2\n      swap1\n      pop\n      jump\t// out\n        /* \"#utility.yul\":668:786   */\n    tag_30:\n        /* \"#utility.yul\":755:779   */\n      tag_46\n        /* \"#utility.yul\":773:778   */\n      dup2\n        /* \"#utility.yul\":755:779   */\n      tag_29\n      jump\t// in\n    tag_46:\n        /* \"#utility.yul\":750:753   */\n      dup3\n        /* \"#utility.yul\":743:780   */\n      mstore\n        /* \"#utility.yul\":668:786   */\n      pop\n      pop\n      jump\t// out\n        /* \"#utility.yul\":792:972   */\n    tag_31:\n        /* \"#utility.yul\":840:917   */\n      0x4e487b7100000000000000000000000000000000000000000000000000000000\n        /* \"#utility.yul\":837:838   */\n      0x00\n        /* \"#utility.yul\":830:918   */\n      mstore\n        /* \"#utility.yul\":937:941   */\n      0x21\n        /* \"#utility.yul\":934:935   */\n      0x04\n        /* \"#utility.yul\":927:942   */\n      mstore\n        /* \"#utility.yul\":961:965   */\n      0x24\n        /* \"#utility.yul\":958:959   */\n      0x00\n        /* \"#utility.yul\":951:966   */\n      revert\n        /* \"#utility.yul\":978:1091   */\n    tag_32:\n        /* \"#utility.yul\":1059:1060   */\n      0x04\n        /* \"#utility.yul\":1052:1057   */\n      dup2\n        /* \"#utility.yul\":1049:1061   */\n      lt\n        /* \"#utility.yul\":1039:1085   */\n      tag_49\n      jumpi\n        /* \"#utility.yul\":1065:1083   */\n      tag_50\n      tag_31\n      jump\t// in\n    tag_50:\n        /* \"#utility.yul\":1039:1085   */\n    tag_49:\n        /* \"#utility.yul\":978:1091   */\n      pop\n      jump\t// out\n        /* \"#utility.yul\":1097:1224   */\n    tag_33:\n        /* \"#utility.yul\":1142:1149   */\n      0x00\n        /* \"#utility.yul\":1171:1176   */\n      dup2\n        /* \"#utility.yul\":1160:1176   */\n      swap1\n      pop\n        /* \"#utility.yul\":1177:1218   */\n      tag_52\n        /* \"#utility.yul\":1212:1217   */\n      dup3\n        /* \"#utility.yul\":1177:1218   */\n      tag_32\n      jump\t// in\n    tag_52:\n        /* \"#utility.yul\":1097:1224   */\n      swap2\n      swap1\n      pop\n      jump\t// out\n        /* \"#utility.yul\":1230:1357   */\n    tag_34:\n        /* \"#utility.yul\":1286:1295   */\n      0x00\n        /* \"#utility.yul\":1319:1351   */\n      tag_54\n        /* \"#utility.yul\":1345:1350   */\n      dup3\n        /* \"#utility.yul\":1319:1351   */\n      tag_33\n      jump\t// in\n    tag_54:\n        /* \"#utility.yul\":1306:1351   */\n      swap1\n      pop\n        /* \"#utility.yul\":1230:1357   */\n      swap2\n      swap1\n      pop\n      jump\t// out\n        /* \"#utility.yul\":1363:1506   */\n    tag_35:\n        /* \"#utility.yul\":1456:1499   */\n      tag_56\n        /* \"#utility.yul\":1493:1498   */\n      dup2\n        /* \"#utility.yul\":1456:1499   */\n      tag_34\n      jump\t// in\n    tag_56:\n        /* \"#utility.yul\":1451:1454   */\n      dup3\n        /* \"#utility.yul\":1444:1500   */\n      mstore\n        /* \"#utility.yul\":1363:1506   */\n      pop\n      pop\n      jump\t// out\n        /* \"#utility.yul\":1512:1954   */\n    tag_15:\n        /* \"#utility.yul\":1661:1665   */\n      0x00\n        /* \"#utility.yul\":1699:1701   */\n      0x60\n        /* \"#utility.yul\":1688:1697   */\n      dup3\n        /* \"#utility.yul\":1684:1702   */\n      add\n        /* \"#utility.yul\":1676:1702   */\n      swap1\n      pop\n        /* \"#utility.yul\":1712:1783   */\n      tag_58\n        /* \"#utility.yul\":1780:1781   */\n      0x00\n        /* \"#utility.yul\":1769:1778   */\n      dup4\n        /* \"#utility.yul\":1765:1782   */\n      add\n        /* \"#utility.yul\":1756:1762   */\n      dup7\n        /* \"#utility.yul\":1712:1783   */\n      tag_30\n      jump\t// in\n    tag_58:\n        /* \"#utility.yul\":1793:1871   */\n      tag_59\n        /* \"#utility.yul\":1867:1869   */\n      0x20\n        /* \"#utility.yul\":1856:1865   */\n      dup4\n        /* \"#utility.yul\":1852:1870   */\n      add\n        /* \"#utility.yul\":1843:1849   */\n      dup6\n        /* \"#utility.yul\":1793:1871   */\n      tag_35\n      jump\t// in\n    tag_59:\n        /* \"#utility.yul\":1881:1947   */\n      tag_60\n        /* \"#utility.yul\":1943:1945   */\n      0x40\n        /* \"#utility.yul\":1932:1941   */\n      dup4\n        /* \"#utility.yul\":1928:1946   */\n      add\n        /* \"#utility.yul\":1919:1925   */\n      dup5\n        /* \"#utility.yul\":1881:1947   */\n      tag_27\n      jump\t// in\n    tag_60:\n        /* \"#utility.yul\":1512:1954   */\n      swap5\n      swap4\n      pop\n      pop\n      pop\n      pop\n      jump\t// out\n        /* \"#utility.yul\":1960:2182   */\n    tag_19:\n        /* \"#utility.yul\":2053:2057   */\n      0x00\n        /* \"#utility.yul\":2091:2093   */\n      0x20\n        /* \"#utility.yul\":2080:2089   */\n      dup3\n        /* \"#utility.yul\":2076:2094   */\n      add\n        /* \"#utility.yul\":2068:2094   */\n      swap1\n      pop\n        /* \"#utility.yul\":2104:2175   */\n      tag_62\n        /* \"#utility.yul\":2172:2173   */\n      0x00\n        /* \"#utility.yul\":2161:2170   */\n      dup4\n        /* \"#utility.yul\":2157:2174   */\n      add\n        /* \"#utility.yul\":2148:2154   */\n      dup5\n        /* \"#utility.yul\":2104:2175   */\n      tag_30\n      jump\t// in\n    tag_62:\n        /* \"#utility.yul\":1960:2182   */\n      swap3\n      swap2\n      pop\n      pop\n      jump\t// out\n\n    auxdata: 0xa2646970667358221220edde6228ed05c165a2738f71e1db8a9f6c260068588b7991cbb2f658fadc1f1e64736f6c634300081a0033\n}\n",
				"bytecode": {
					"linkReferences": {},
					"object": "6080604052348015600e575f80fd5b506103548061001c5f395ff3fe608060405234801561000f575f80fd5b5060043610610055575f3560e01c80632f6fe3961461005957806359a5f12d146100775780638da5cb5b14610097578063d30895e4146100b5578063dfbf53ae146100d5575b5f80fd5b6100616100f3565b60405161006e9190610205565b60405180910390f35b61007f610106565b60405161008e939291906102d0565b60405180910390f35b61009f610154565b6040516100ac9190610305565b60405180910390f35b6100bd610179565b6040516100cc939291906102d0565b60405180910390f35b6100dd6101c6565b6040516100ea9190610305565b60405180910390f35b600260149054906101000a900460ff1681565b6001805f015f9054906101000a900473ffffffffffffffffffffffffffffffffffffffff1690805f0160149054906101000a900460ff1690805f0160159054906101000a900460ff16905083565b60025f9054906101000a900473ffffffffffffffffffffffffffffffffffffffff1681565b5f805f015f9054906101000a900473ffffffffffffffffffffffffffffffffffffffff1690805f0160149054906101000a900460ff1690805f0160159054906101000a900460ff16905083565b60035f9054906101000a900473ffffffffffffffffffffffffffffffffffffffff1681565b5f8115159050919050565b6101ff816101eb565b82525050565b5f6020820190506102185f8301846101f6565b92915050565b5f73ffffffffffffffffffffffffffffffffffffffff82169050919050565b5f6102478261021e565b9050919050565b6102578161023d565b82525050565b7f4e487b71000000000000000000000000000000000000000000000000000000005f52602160045260245ffd5b6004811061029b5761029a61025d565b5b50565b5f8190506102ab8261028a565b919050565b5f6102ba8261029e565b9050919050565b6102ca816102b0565b82525050565b5f6060820190506102e35f83018661024e565b6102f060208301856102c1565b6102fd60408301846101f6565b949350505050565b5f6020820190506103185f83018461024e565b9291505056fea2646970667358221220edde6228ed05c165a2738f71e1db8a9f6c260068588b7991cbb2f658fadc1f1e64736f6c634300081a0033",
					"opcodes": "PUSH1 0x80 PUSH1 0x40 MSTORE CALLVALUE DUP1 ISZERO PUSH1 0xE JUMPI PUSH0 DUP1 REVERT JUMPDEST POP PUSH2 0x354 DUP1 PUSH2 0x1C PUSH0 CODECOPY PUSH0 RETURN INVALID PUSH1 0x80 PUSH1 0x40 MSTORE CALLVALUE DUP1 ISZERO PUSH2 0xF JUMPI PUSH0 DUP1 REVERT JUMPDEST POP PUSH1 0x4 CALLDATASIZE LT PUSH2 0x55 JUMPI PUSH0 CALLDATALOAD PUSH1 0xE0 SHR DUP1 PUSH4 0x2F6FE396 EQ PUSH2 0x59 JUMPI DUP1 PUSH4 0x59A5F12D EQ PUSH2 0x77 JUMPI DUP1 PUSH4 0x8DA5CB5B EQ PUSH2 0x97 JUMPI DUP1 PUSH4 0xD30895E4 EQ PUSH2 0xB5 JUMPI DUP1 PUSH4 0xDFBF53AE EQ PUSH2 0xD5 JUMPI JUMPDEST PUSH0 DUP1 REVERT JUMPDEST PUSH2 0x61 PUSH2 0xF3 JUMP JUMPDEST PUSH1 0x40 MLOAD PUSH2 0x6E SWAP2 SWAP1 PUSH2 0x205 JUMP JUMPDEST PUSH1 0x40 MLOAD DUP1 SWAP2 SUB SWAP1 RETURN JUMPDEST PUSH2 0x7F PUSH2 0x106 JUMP JUMPDEST PUSH1 0x40 MLOAD PUSH2 0x8E SWAP4 SWAP3 SWAP2 SWAP1 PUSH2 0x2D0 JUMP JUMPDEST PUSH1 0x40 MLOAD DUP1 SWAP2 SUB SWAP1 RETURN JUMPDEST PUSH2 0x9F PUSH2 0x154 JUMP JUMPDEST PUSH1 0x40 MLOAD PUSH2 0xAC SWAP2 SWAP1 PUSH2 0x305 JUMP JUMPDEST PUSH1 0x40 MLOAD DUP1 SWAP2 SUB SWAP1 RETURN JUMPDEST PUSH2 0xBD PUSH2 0x179 JUMP JUMPDEST PUSH1 0x40 MLOAD PUSH2 0xCC SWAP4 SWAP3 SWAP2 SWAP1 PUSH2 0x2D0 JUMP JUMPDEST PUSH1 0x40 MLOAD DUP1 SWAP2 SUB SWAP1 RETURN JUMPDEST PUSH2 0xDD PUSH2 0x1C6 JUMP JUMPDEST PUSH1 0x40 MLOAD PUSH2 0xEA SWAP2 SWAP1 PUSH2 0x305 JUMP JUMPDEST PUSH1 0x40 MLOAD DUP1 SWAP2 SUB SWAP1 RETURN JUMPDEST PUSH1 0x2 PUSH1 0x14 SWAP1 SLOAD SWAP1 PUSH2 0x100 EXP SWAP1 DIV PUSH1 0xFF AND DUP2 JUMP JUMPDEST PUSH1 0x1 DUP1 PUSH0 ADD PUSH0 SWAP1 SLOAD SWAP1 PUSH2 0x100 EXP SWAP1 DIV PUSH20 0xFFFFFFFFFFFFFFFFFFFFFFFFFFFFFFFFFFFFFFFF AND SWAP1 DUP1 PUSH0 ADD PUSH1 0x14 SWAP1 SLOAD SWAP1 PUSH2 0x100 EXP SWAP1 DIV PUSH1 0xFF AND SWAP1 DUP1 PUSH0 ADD PUSH1 0x15 SWAP1 SLOAD SWAP1 PUSH2 0x100 EXP SWAP1 DIV PUSH1 0xFF AND SWAP1 POP DUP4 JUMP JUMPDEST PUSH1 0x2 PUSH0 SWAP1 SLOAD SWAP1 PUSH2 0x100 EXP SWAP1 DIV PUSH20 0xFFFFFFFFFFFFFFFFFFFFFFFFFFFFFFFFFFFFFFFF AND DUP2 JUMP JUMPDEST PUSH0 DUP1 PUSH0 ADD PUSH0 SWAP1 SLOAD SWAP1 PUSH2 0x100 EXP SWAP1 DIV PUSH20 0xFFFFFFFFFFFFFFFFFFFFFFFFFFFFFFFFFFFFFFFF AND SWAP1 DUP1 PUSH0 ADD PUSH1 0x14 SWAP1 SLOAD SWAP1 PUSH2 0x100 EXP SWAP1 DIV PUSH1 0xFF AND SWAP1 DUP1 PUSH0 ADD PUSH1 0x15 SWAP1 SLOAD SWAP1 PUSH2 0x100 EXP SWAP1 DIV PUSH1 0xFF AND SWAP1 POP DUP4 JUMP JUMPDEST PUSH1 0x3 PUSH0 SWAP1 SLOAD SWAP1 PUSH2 0x100 EXP SWAP1 DIV PUSH20 0xFFFFFFFFFFFFFFFFFFFFFFFFFFFFFFFFFFFFFFFF AND DUP2 JUMP JUMPDEST PUSH0 DUP2 ISZERO ISZERO SWAP1 POP SWAP2 SWAP1 POP JUMP JUMPDEST PUSH2 0x1FF DUP2 PUSH2 0x1EB JUMP JUMPDEST DUP3 MSTORE POP POP JUMP JUMPDEST PUSH0 PUSH1 0x20 DUP3 ADD SWAP1 POP PUSH2 0x218 PUSH0 DUP4 ADD DUP5 PUSH2 0x1F6 JUMP JUMPDEST SWAP3 SWAP2 POP POP JUMP JUMPDEST PUSH0 PUSH20 0xFFFFFFFFFFFFFFFFFFFFFFFFFFFFFFFFFFFFFFFF DUP3 AND SWAP1 POP SWAP2 SWAP1 POP JUMP JUMPDEST PUSH0 PUSH2 0x247 DUP3 PUSH2 0x21E JUMP JUMPDEST SWAP1 POP SWAP2 SWAP1 POP JUMP JUMPDEST PUSH2 0x257 DUP2 PUSH2 0x23D JUMP JUMPDEST DUP3 MSTORE POP POP JUMP JUMPDEST PUSH32 0x4E487B7100000000000000000000000000000000000000000000000000000000 PUSH0 MSTORE PUSH1 0x21 PUSH1 0x4 MSTORE PUSH1 0x24 PUSH0 REVERT JUMPDEST PUSH1 0x4 DUP2 LT PUSH2 0x29B JUMPI PUSH2 0x29A PUSH2 0x25D JUMP JUMPDEST JUMPDEST POP JUMP JUMPDEST PUSH0 DUP2 SWAP1 POP PUSH2 0x2AB DUP3 PUSH2 0x28A JUMP JUMPDEST SWAP2 SWAP1 POP JUMP JUMPDEST PUSH0 PUSH2 0x2BA DUP3 PUSH2 0x29E JUMP JUMPDEST SWAP1 POP SWAP2 SWAP1 POP JUMP JUMPDEST PUSH2 0x2CA DUP2 PUSH2 0x2B0 JUMP JUMPDEST DUP3 MSTORE POP POP JUMP JUMPDEST PUSH0 PUSH1 0x60 DUP3 ADD SWAP1 POP PUSH2 0x2E3 PUSH0 DUP4 ADD DUP7 PUSH2 0x24E JUMP JUMPDEST PUSH2 0x2F0 PUSH1 0x20 DUP4 ADD DUP6 PUSH2 0x2C1 JUMP JUMPDEST PUSH2 0x2FD PUSH1 0x40 DUP4 ADD DUP5 PUSH2 0x1F6 JUMP JUMPDEST SWAP5 SWAP4 POP POP POP POP JUMP JUMPDEST PUSH0 PUSH1 0x20 DUP3 ADD SWAP1 POP PUSH2 0x318 PUSH0 DUP4 ADD DUP5 PUSH2 0x24E JUMP JUMPDEST SWAP3 SWAP2 POP POP JUMP INVALID LOG2 PUSH5 0x6970667358 0x22 SLT KECCAK256 0xED 0xDE PUSH3 0x28ED05 0xC1 PUSH6 0xA2738F71E1DB DUP11 SWAP16 PUSH13 0x260068588B7991CBB2F658FADC 0x1F 0x1E PUSH5 0x736F6C6343 STOP ADDMOD BYTE STOP CALLER "
				},
				"gasEstimates": {
					"creation": {
						"codeDepositCost": "170400",
						"executionCost": "212",
						"totalCost": "170612"
					},
					"external": {
						"gameEnded()": "2495",
						"owner()": "2530",
						"player1()": "7256",
						"player2()": "7213",
						"winner()": "2574"
					}
				},
				"methodIdentifiers": {
					"gameEnded()": "2f6fe396",
					"owner()": "8da5cb5b",
					"player1()": "d30895e4",
					"player2()": "59a5f12d",
					"winner()": "dfbf53ae"
				}
			},
			"storageLayout": {
				"storage": [
					{
						"astId": 17,
						"contract": "contracts/rockPaper.sol:RockPaperScissors",
						"label": "player1",
						"offset": 0,
						"slot": "0",
						"type": "t_struct(Player)14_storage"
					},
					{
						"astId": 20,
						"contract": "contracts/rockPaper.sol:RockPaperScissors",
						"label": "player2",
						"offset": 0,
						"slot": "1",
						"type": "t_struct(Player)14_storage"
					},
					{
						"astId": 22,
						"contract": "contracts/rockPaper.sol:RockPaperScissors",
						"label": "owner",
						"offset": 0,
						"slot": "2",
						"type": "t_address"
					},
					{
						"astId": 24,
						"contract": "contracts/rockPaper.sol:RockPaperScissors",
						"label": "gameEnded",
						"offset": 20,
						"slot": "2",
						"type": "t_bool"
					},
					{
						"astId": 26,
						"contract": "contracts/rockPaper.sol:RockPaperScissors",
						"label": "winner",
						"offset": 0,
						"slot": "3",
						"type": "t_address"
					}
				],
				"types": {
					"t_address": {
						"encoding": "inplace",
						"label": "address",
						"numberOfBytes": "20"
					},
					"t_bool": {
						"encoding": "inplace",
						"label": "bool",
						"numberOfBytes": "1"
					},
					"t_enum(Choice)6": {
						"encoding": "inplace",
						"label": "enum RockPaperScissors.Choice",
						"numberOfBytes": "1"
					},
					"t_struct(Player)14_storage": {
						"encoding": "inplace",
						"label": "struct RockPaperScissors.Player",
						"members": [
							{
								"astId": 8,
								"contract": "contracts/rockPaper.sol:RockPaperScissors",
								"label": "playerAddress",
								"offset": 0,
								"slot": "0",
								"type": "t_address"
							},
							{
								"astId": 11,
								"contract": "contracts/rockPaper.sol:RockPaperScissors",
								"label": "choice",
								"offset": 20,
								"slot": "0",
								"type": "t_enum(Choice)6"
							},
							{
								"astId": 13,
								"contract": "contracts/rockPaper.sol:RockPaperScissors",
								"label": "hasPlayed",
								"offset": 21,
								"slot": "0",
								"type": "t_bool"
							}
						],
						"numberOfBytes": "32"
					}
				}
			},
			"userdoc": {
				"kind": "user",
				"methods": {},
				"version": 1
			}
		}
	}
}