{
	"contracts/Todo.sol": {
		"TodoList": {
			"abi": [
				{
					"anonymous": false,
					"inputs": [
						{
							"indexed": false,
							"internalType": "uint256",
							"name": "id",
							"type": "uint256"
						},
						{
							"indexed": false,
							"internalType": "string",
							"name": "content",
							"type": "string"
						}
					],
					"name": "TodoAdded",
					"type": "event"
				},
				{
					"inputs": [
						{
							"internalType": "string",
							"name": "_content",
							"type": "string"
						}
					],
					"name": "addTodo",
					"outputs": [],
					"stateMutability": "nonpayable",
					"type": "function"
				},
				{
					"inputs": [
						{
							"internalType": "uint256",
							"name": "_id",
							"type": "uint256"
						}
					],
					"name": "getTodo",
					"outputs": [
						{
							"internalType": "uint256",
							"name": "",
							"type": "uint256"
						},
						{
							"internalType": "string",
							"name": "",
							"type": "string"
						},
						{
							"internalType": "enum TodoList.Status",
							"name": "",
							"type": "uint8"
						}
					],
					"stateMutability": "view",
					"type": "function"
				},
				{
					"inputs": [],
					"name": "nextId",
					"outputs": [
						{
							"internalType": "uint256",
							"name": "",
							"type": "uint256"
						}
					],
					"stateMutability": "view",
					"type": "function"
				},
				{
					"inputs": [
						{
							"internalType": "uint256",
							"name": "",
							"type": "uint256"
						}
					],
					"name": "todoIds",
					"outputs": [
						{
							"internalType": "uint256",
							"name": "",
							"type": "uint256"
						}
					],
					"stateMutability": "view",
					"type": "function"
				},
				{
					"inputs": [
						{
							"internalType": "uint256",
							"name": "",
							"type": "uint256"
						}
					],
					"name": "todos",
					"outputs": [
						{
							"internalType": "uint256",
							"name": "id",
							"type": "uint256"
						},
						{
							"internalType": "string",
							"name": "content",
							"type": "string"
						},
						{
							"internalType": "enum TodoList.Status",
							"name": "status",
							"type": "uint8"
						}
					],
					"stateMutability": "view",
					"type": "function"
				},
				{
					"inputs": [
						{
							"internalType": "uint256",
							"name": "_id",
							"type": "uint256"
						},
						{
							"internalType": "enum TodoList.Status",
							"name": "_status",
							"type": "uint8"
						}
					],
					"name": "updateStatus",
					"outputs": [],
					"stateMutability": "nonpayable",
					"type": "function"
				}
			],
			"devdoc": {
				"kind": "dev",
				"methods": {},
				"version": 1
			},
			"evm": {
				"assembly": "    /* \"contracts/Todo.sol\":61:1343  contract TodoList {... */\n  mstore(0x40, 0x80)\n    /* \"contracts/Todo.sol\":446:447  1 */\n  0x01\n    /* \"contracts/Todo.sol\":425:447  uint public nextId = 1 */\n  0x02\n  sstore\n    /* \"contracts/Todo.sol\":61:1343  contract TodoList {... */\n  callvalue\n  dup1\n  iszero\n  tag_1\n  jumpi\n  0x00\n  dup1\n  revert\ntag_1:\n  pop\n  dataSize(sub_0)\n  dup1\n  dataOffset(sub_0)\n  0x00\n  codecopy\n  0x00\n  return\nstop\n\nsub_0: assembly {\n        /* \"contracts/Todo.sol\":61:1343  contract TodoList {... */\n      mstore(0x40, 0x80)\n      callvalue\n      dup1\n      iszero\n      tag_1\n      jumpi\n      0x00\n      dup1\n      revert\n    tag_1:\n      pop\n      jumpi(tag_2, lt(calldatasize, 0x04))\n      shr(0xe0, calldataload(0x00))\n      dup1\n      0x03c5c31f\n      eq\n      tag_3\n      jumpi\n      dup1\n      0x3a1b3d31\n      eq\n      tag_4\n      jumpi\n      dup1\n      0x61b8ce8c\n      eq\n      tag_5\n      jumpi\n      dup1\n      0x95ffebf5\n      eq\n      tag_6\n      jumpi\n      dup1\n      0xbc8bc2b4\n      eq\n      tag_7\n      jumpi\n      dup1\n      0xdd68afb6\n      eq\n      tag_8\n      jumpi\n    tag_2:\n      0x00\n      dup1\n      revert\n        /* \"contracts/Todo.sol\":397:418  uint[] public todoIds */\n    tag_3:\n      tag_9\n      0x04\n      dup1\n      calldatasize\n      sub\n      dup2\n      add\n      swap1\n      tag_10\n      swap2\n      swap1\n      tag_11\n      jump\t// in\n    tag_10:\n      tag_12\n      jump\t// in\n    tag_9:\n      mload(0x40)\n      tag_13\n      swap2\n      swap1\n      tag_14\n      jump\t// in\n    tag_13:\n      mload(0x40)\n      dup1\n      swap2\n      sub\n      swap1\n      return\n        /* \"contracts/Todo.sol\":852:1033  function updateStatus(uint _id, Status _status) public {... */\n    tag_4:\n      tag_15\n      0x04\n      dup1\n      calldatasize\n      sub\n      dup2\n      add\n      swap1\n      tag_16\n      swap2\n      swap1\n      tag_17\n      jump\t// in\n    tag_16:\n      tag_18\n      jump\t// in\n    tag_15:\n      stop\n        /* \"contracts/Todo.sol\":425:447  uint public nextId = 1 */\n    tag_5:\n      tag_19\n      tag_20\n      jump\t// in\n    tag_19:\n      mload(0x40)\n      tag_21\n      swap2\n      swap1\n      tag_14\n      jump\t// in\n    tag_21:\n      mload(0x40)\n      dup1\n      swap2\n      sub\n      swap1\n      return\n        /* \"contracts/Todo.sol\":582:796  function addTodo(string memory _content) public {... */\n    tag_6:\n      tag_22\n      0x04\n      dup1\n      calldatasize\n      sub\n      dup2\n      add\n      swap1\n      tag_23\n      swap2\n      swap1\n      tag_24\n      jump\t// in\n    tag_23:\n      tag_25\n      jump\t// in\n    tag_22:\n      stop\n        /* \"contracts/Todo.sol\":318:352  mapping(uint => Todo) public todos */\n    tag_7:\n      tag_26\n      0x04\n      dup1\n      calldatasize\n      sub\n      dup2\n      add\n      swap1\n      tag_27\n      swap2\n      swap1\n      tag_11\n      jump\t// in\n    tag_27:\n      tag_28\n      jump\t// in\n    tag_26:\n      mload(0x40)\n      tag_29\n      swap4\n      swap3\n      swap2\n      swap1\n      tag_30\n      jump\t// in\n    tag_29:\n      mload(0x40)\n      dup1\n      swap2\n      sub\n      swap1\n      return\n        /* \"contracts/Todo.sol\":1081:1340  function getTodo(uint _id) public view returns (uint, string memory, Status) {... */\n    tag_8:\n      tag_31\n      0x04\n      dup1\n      calldatasize\n      sub\n      dup2\n      add\n      swap1\n      tag_32\n      swap2\n      swap1\n      tag_11\n      jump\t// in\n    tag_32:\n      tag_33\n      jump\t// in\n    tag_31:\n      mload(0x40)\n      tag_34\n      swap4\n      swap3\n      swap2\n      swap1\n      tag_30\n      jump\t// in\n    tag_34:\n      mload(0x40)\n      dup1\n      swap2\n      sub\n      swap1\n      return\n        /* \"contracts/Todo.sol\":397:418  uint[] public todoIds */\n    tag_12:\n      0x01\n      dup2\n      dup2\n      sload\n      dup2\n      lt\n      tag_35\n      jumpi\n      0x00\n      dup1\n      revert\n    tag_35:\n      swap1\n      0x00\n      mstore\n      keccak256(0x00, 0x20)\n      add\n      0x00\n      swap2\n      pop\n      swap1\n      pop\n      sload\n      dup2\n      jump\t// out\n        /* \"contracts/Todo.sol\":852:1033  function updateStatus(uint _id, Status _status) public {... */\n    tag_18:\n        /* \"contracts/Todo.sol\":961:962  0 */\n      0x00\n        /* \"contracts/Todo.sol\":932:937  todos */\n      dup1\n        /* \"contracts/Todo.sol\":932:942  todos[_id] */\n      0x00\n        /* \"contracts/Todo.sol\":938:941  _id */\n      dup5\n        /* \"contracts/Todo.sol\":932:942  todos[_id] */\n      dup2\n      mstore\n      0x20\n      add\n      swap1\n      dup2\n      mstore\n      0x20\n      add\n      0x00\n      keccak256\n        /* \"contracts/Todo.sol\":932:950  todos[_id].content */\n      0x01\n      add\n        /* \"contracts/Todo.sol\":926:958  bytes(todos[_id].content).length */\n      dup1\n      sload\n      tag_38\n      swap1\n      tag_39\n      jump\t// in\n    tag_38:\n      swap1\n      pop\n        /* \"contracts/Todo.sol\":926:962  bytes(todos[_id].content).length > 0 */\n      gt\n        /* \"contracts/Todo.sol\":918:987  require(bytes(todos[_id].content).length > 0, \"Todo does not exist.\") */\n      tag_40\n      jumpi\n      mload(0x40)\n      0x08c379a000000000000000000000000000000000000000000000000000000000\n      dup2\n      mstore\n      0x04\n      add\n      tag_41\n      swap1\n      tag_42\n      jump\t// in\n    tag_41:\n      mload(0x40)\n      dup1\n      swap2\n      sub\n      swap1\n      revert\n    tag_40:\n        /* \"contracts/Todo.sol\":1018:1025  _status */\n      dup1\n        /* \"contracts/Todo.sol\":998:1003  todos */\n      0x00\n        /* \"contracts/Todo.sol\":998:1008  todos[_id] */\n      dup1\n        /* \"contracts/Todo.sol\":1004:1007  _id */\n      dup5\n        /* \"contracts/Todo.sol\":998:1008  todos[_id] */\n      dup2\n      mstore\n      0x20\n      add\n      swap1\n      dup2\n      mstore\n      0x20\n      add\n      0x00\n      keccak256\n        /* \"contracts/Todo.sol\":998:1015  todos[_id].status */\n      0x02\n      add\n      0x00\n        /* \"contracts/Todo.sol\":998:1025  todos[_id].status = _status */\n      0x0100\n      exp\n      dup2\n      sload\n      dup2\n      0xff\n      mul\n      not\n      and\n      swap1\n      dup4\n      0x02\n      dup2\n      gt\n      iszero\n      tag_43\n      jumpi\n      tag_44\n      tag_45\n      jump\t// in\n    tag_44:\n    tag_43:\n      mul\n      or\n      swap1\n      sstore\n      pop\n        /* \"contracts/Todo.sol\":852:1033  function updateStatus(uint _id, Status _status) public {... */\n      pop\n      pop\n      jump\t// out\n        /* \"contracts/Todo.sol\":425:447  uint public nextId = 1 */\n    tag_20:\n      sload(0x02)\n      dup2\n      jump\t// out\n        /* \"contracts/Todo.sol\":582:796  function addTodo(string memory _content) public {... */\n    tag_25:\n        /* \"contracts/Todo.sol\":657:695  Todo(nextId, _content, Status.Pending) */\n      mload(0x40)\n      dup1\n      0x60\n      add\n      0x40\n      mstore\n      dup1\n        /* \"contracts/Todo.sol\":662:668  nextId */\n      sload(0x02)\n        /* \"contracts/Todo.sol\":657:695  Todo(nextId, _content, Status.Pending) */\n      dup2\n      mstore\n      0x20\n      add\n        /* \"contracts/Todo.sol\":670:678  _content */\n      dup3\n        /* \"contracts/Todo.sol\":657:695  Todo(nextId, _content, Status.Pending) */\n      dup2\n      mstore\n      0x20\n      add\n        /* \"contracts/Todo.sol\":680:694  Status.Pending */\n      0x00\n        /* \"contracts/Todo.sol\":657:695  Todo(nextId, _content, Status.Pending) */\n      0x02\n      dup2\n      gt\n      iszero\n      tag_47\n      jumpi\n      tag_48\n      tag_45\n      jump\t// in\n    tag_48:\n    tag_47:\n      dup2\n      mstore\n      pop\n        /* \"contracts/Todo.sol\":641:646  todos */\n      0x00\n        /* \"contracts/Todo.sol\":641:654  todos[nextId] */\n      dup1\n        /* \"contracts/Todo.sol\":647:653  nextId */\n      sload(0x02)\n        /* \"contracts/Todo.sol\":641:654  todos[nextId] */\n      dup2\n      mstore\n      0x20\n      add\n      swap1\n      dup2\n      mstore\n      0x20\n      add\n      0x00\n      keccak256\n        /* \"contracts/Todo.sol\":641:695  todos[nextId] = Todo(nextId, _content, Status.Pending) */\n      0x00\n      dup3\n      add\n      mload\n      dup2\n      0x00\n      add\n      sstore\n      0x20\n      dup3\n      add\n      mload\n      dup2\n      0x01\n      add\n      swap1\n      dup2\n      tag_49\n      swap2\n      swap1\n      tag_50\n      jump\t// in\n    tag_49:\n      pop\n      0x40\n      dup3\n      add\n      mload\n      dup2\n      0x02\n      add\n      exp(0x0100, 0x00)\n      dup2\n      sload\n      dup2\n      0xff\n      mul\n      not\n      and\n      swap1\n      dup4\n      0x02\n      dup2\n      gt\n      iszero\n      tag_51\n      jumpi\n      tag_52\n      tag_45\n      jump\t// in\n    tag_52:\n    tag_51:\n      mul\n      or\n      swap1\n      sstore\n      pop\n      swap1\n      pop\n      pop\n        /* \"contracts/Todo.sol\":706:713  todoIds */\n      0x01\n        /* \"contracts/Todo.sol\":719:725  nextId */\n      sload(0x02)\n        /* \"contracts/Todo.sol\":706:726  todoIds.push(nextId) */\n      swap1\n      dup1\n      0x01\n      dup2\n      sload\n      add\n      dup1\n      dup3\n      sstore\n      dup1\n      swap2\n      pop\n      pop\n      0x01\n      swap1\n      sub\n      swap1\n      0x00\n      mstore\n      keccak256(0x00, 0x20)\n      add\n      0x00\n      swap1\n      swap2\n      swap1\n      swap2\n      swap1\n      swap2\n      pop\n      sstore\n        /* \"contracts/Todo.sol\":742:769  TodoAdded(nextId, _content) */\n      0x606222d2d9b2ffe82e59c226d772a363312cfce0027119e88e27c4db155e882d\n        /* \"contracts/Todo.sol\":752:758  nextId */\n      sload(0x02)\n        /* \"contracts/Todo.sol\":760:768  _content */\n      dup3\n        /* \"contracts/Todo.sol\":742:769  TodoAdded(nextId, _content) */\n      mload(0x40)\n      tag_54\n      swap3\n      swap2\n      swap1\n      tag_55\n      jump\t// in\n    tag_54:\n      mload(0x40)\n      dup1\n      swap2\n      sub\n      swap1\n      log1\n        /* \"contracts/Todo.sol\":780:786  nextId */\n      0x02\n      0x00\n        /* \"contracts/Todo.sol\":780:788  nextId++ */\n      dup2\n      sload\n      dup1\n      swap3\n      swap2\n      swap1\n      tag_56\n      swap1\n      tag_57\n      jump\t// in\n    tag_56:\n      swap2\n      swap1\n      pop\n      sstore\n      pop\n        /* \"contracts/Todo.sol\":582:796  function addTodo(string memory _content) public {... */\n      pop\n      jump\t// out\n        /* \"contracts/Todo.sol\":318:352  mapping(uint => Todo) public todos */\n    tag_28:\n      mstore(0x20, 0x00)\n      dup1\n      0x00\n      mstore\n      keccak256(0x00, 0x40)\n      0x00\n      swap2\n      pop\n      swap1\n      pop\n      dup1\n      0x00\n      add\n      sload\n      swap1\n      dup1\n      0x01\n      add\n      dup1\n      sload\n      tag_58\n      swap1\n      tag_39\n      jump\t// in\n    tag_58:\n      dup1\n      0x1f\n      add\n      0x20\n      dup1\n      swap2\n      div\n      mul\n      0x20\n      add\n      mload(0x40)\n      swap1\n      dup2\n      add\n      0x40\n      mstore\n      dup1\n      swap3\n      swap2\n      swap1\n      dup2\n      dup2\n      mstore\n      0x20\n      add\n      dup3\n      dup1\n      sload\n      tag_59\n      swap1\n      tag_39\n      jump\t// in\n    tag_59:\n      dup1\n      iszero\n      tag_60\n      jumpi\n      dup1\n      0x1f\n      lt\n      tag_61\n      jumpi\n      0x0100\n      dup1\n      dup4\n      sload\n      div\n      mul\n      dup4\n      mstore\n      swap2\n      0x20\n      add\n      swap2\n      jump(tag_60)\n    tag_61:\n      dup3\n      add\n      swap2\n      swap1\n      0x00\n      mstore\n      keccak256(0x00, 0x20)\n      swap1\n    tag_62:\n      dup2\n      sload\n      dup2\n      mstore\n      swap1\n      0x01\n      add\n      swap1\n      0x20\n      add\n      dup1\n      dup4\n      gt\n      tag_62\n      jumpi\n      dup3\n      swap1\n      sub\n      0x1f\n      and\n      dup3\n      add\n      swap2\n    tag_60:\n      pop\n      pop\n      pop\n      pop\n      pop\n      swap1\n      dup1\n      0x02\n      add\n      0x00\n      swap1\n      sload\n      swap1\n      0x0100\n      exp\n      swap1\n      div\n      0xff\n      and\n      swap1\n      pop\n      dup4\n      jump\t// out\n        /* \"contracts/Todo.sol\":1081:1340  function getTodo(uint _id) public view returns (uint, string memory, Status) {... */\n    tag_33:\n        /* \"contracts/Todo.sol\":1129:1133  uint */\n      0x00\n        /* \"contracts/Todo.sol\":1135:1148  string memory */\n      0x60\n        /* \"contracts/Todo.sol\":1150:1156  Status */\n      0x00\n        /* \"contracts/Todo.sol\":1212:1213  0 */\n      dup1\n        /* \"contracts/Todo.sol\":1183:1188  todos */\n      0x00\n        /* \"contracts/Todo.sol\":1183:1193  todos[_id] */\n      dup1\n        /* \"contracts/Todo.sol\":1189:1192  _id */\n      dup7\n        /* \"contracts/Todo.sol\":1183:1193  todos[_id] */\n      dup2\n      mstore\n      0x20\n      add\n      swap1\n      dup2\n      mstore\n      0x20\n      add\n      0x00\n      keccak256\n        /* \"contracts/Todo.sol\":1183:1201  todos[_id].content */\n      0x01\n      add\n        /* \"contracts/Todo.sol\":1177:1209  bytes(todos[_id].content).length */\n      dup1\n      sload\n      tag_64\n      swap1\n      tag_39\n      jump\t// in\n    tag_64:\n      swap1\n      pop\n        /* \"contracts/Todo.sol\":1177:1213  bytes(todos[_id].content).length > 0 */\n      gt\n        /* \"contracts/Todo.sol\":1169:1238  require(bytes(todos[_id].content).length > 0, \"Todo does not exist.\") */\n      tag_65\n      jumpi\n      mload(0x40)\n      0x08c379a000000000000000000000000000000000000000000000000000000000\n      dup2\n      mstore\n      0x04\n      add\n      tag_66\n      swap1\n      tag_42\n      jump\t// in\n    tag_66:\n      mload(0x40)\n      dup1\n      swap2\n      sub\n      swap1\n      revert\n    tag_65:\n        /* \"contracts/Todo.sol\":1249:1265  Todo memory todo */\n      0x00\n        /* \"contracts/Todo.sol\":1268:1273  todos */\n      dup1\n        /* \"contracts/Todo.sol\":1268:1278  todos[_id] */\n      0x00\n        /* \"contracts/Todo.sol\":1274:1277  _id */\n      dup7\n        /* \"contracts/Todo.sol\":1268:1278  todos[_id] */\n      dup2\n      mstore\n      0x20\n      add\n      swap1\n      dup2\n      mstore\n      0x20\n      add\n      0x00\n      keccak256\n        /* \"contracts/Todo.sol\":1249:1278  Todo memory todo = todos[_id] */\n      mload(0x40)\n      dup1\n      0x60\n      add\n      0x40\n      mstore\n      swap1\n      dup2\n      0x00\n      dup3\n      add\n      sload\n      dup2\n      mstore\n      0x20\n      add\n      0x01\n      dup3\n      add\n      dup1\n      sload\n      tag_67\n      swap1\n      tag_39\n      jump\t// in\n    tag_67:\n      dup1\n      0x1f\n      add\n      0x20\n      dup1\n      swap2\n      div\n      mul\n      0x20\n      add\n      mload(0x40)\n      swap1\n      dup2\n      add\n      0x40\n      mstore\n      dup1\n      swap3\n      swap2\n      swap1\n      dup2\n      dup2\n      mstore\n      0x20\n      add\n      dup3\n      dup1\n      sload\n      tag_68\n      swap1\n      tag_39\n      jump\t// in\n    tag_68:\n      dup1\n      iszero\n      tag_69\n      jumpi\n      dup1\n      0x1f\n      lt\n      tag_70\n      jumpi\n      0x0100\n      dup1\n      dup4\n      sload\n      div\n      mul\n      dup4\n      mstore\n      swap2\n      0x20\n      add\n      swap2\n      jump(tag_69)\n    tag_70:\n      dup3\n      add\n      swap2\n      swap1\n      0x00\n      mstore\n      keccak256(0x00, 0x20)\n      swap1\n    tag_71:\n      dup2\n      sload\n      dup2\n      mstore\n      swap1\n      0x01\n      add\n      swap1\n      0x20\n      add\n      dup1\n      dup4\n      gt\n      tag_71\n      jumpi\n      dup3\n      swap1\n      sub\n      0x1f\n      and\n      dup3\n      add\n      swap2\n    tag_69:\n      pop\n      pop\n      pop\n      pop\n      pop\n      dup2\n      mstore\n      0x20\n      add\n      0x02\n      dup3\n      add\n      0x00\n      swap1\n      sload\n      swap1\n      0x0100\n      exp\n      swap1\n      div\n      0xff\n      and\n      0x02\n      dup2\n      gt\n      iszero\n      tag_72\n      jumpi\n      tag_73\n      tag_45\n      jump\t// in\n    tag_73:\n    tag_72:\n      0x02\n      dup2\n      gt\n      iszero\n      tag_74\n      jumpi\n      tag_75\n      tag_45\n      jump\t// in\n    tag_75:\n    tag_74:\n      dup2\n      mstore\n      pop\n      pop\n      swap1\n      pop\n        /* \"contracts/Todo.sol\":1297:1301  todo */\n      dup1\n        /* \"contracts/Todo.sol\":1297:1304  todo.id */\n      0x00\n      add\n      mload\n        /* \"contracts/Todo.sol\":1306:1310  todo */\n      dup2\n        /* \"contracts/Todo.sol\":1306:1318  todo.content */\n      0x20\n      add\n      mload\n        /* \"contracts/Todo.sol\":1320:1324  todo */\n      dup3\n        /* \"contracts/Todo.sol\":1320:1331  todo.status */\n      0x40\n      add\n      mload\n        /* \"contracts/Todo.sol\":1289:1332  return (todo.id, todo.content, todo.status) */\n      swap4\n      pop\n      swap4\n      pop\n      swap4\n      pop\n      pop\n        /* \"contracts/Todo.sol\":1081:1340  function getTodo(uint _id) public view returns (uint, string memory, Status) {... */\n      swap2\n      swap4\n      swap1\n      swap3\n      pop\n      jump\t// out\n        /* \"#utility.yul\":7:82   */\n    tag_76:\n        /* \"#utility.yul\":40:46   */\n      0x00\n        /* \"#utility.yul\":73:75   */\n      0x40\n        /* \"#utility.yul\":67:76   */\n      mload\n        /* \"#utility.yul\":57:76   */\n      swap1\n      pop\n        /* \"#utility.yul\":7:82   */\n      swap1\n      jump\t// out\n        /* \"#utility.yul\":88:205   */\n    tag_77:\n        /* \"#utility.yul\":197:198   */\n      0x00\n        /* \"#utility.yul\":194:195   */\n      dup1\n        /* \"#utility.yul\":187:199   */\n      revert\n        /* \"#utility.yul\":211:328   */\n    tag_78:\n        /* \"#utility.yul\":320:321   */\n      0x00\n        /* \"#utility.yul\":317:318   */\n      dup1\n        /* \"#utility.yul\":310:322   */\n      revert\n        /* \"#utility.yul\":334:411   */\n    tag_79:\n        /* \"#utility.yul\":371:378   */\n      0x00\n        /* \"#utility.yul\":400:405   */\n      dup2\n        /* \"#utility.yul\":389:405   */\n      swap1\n      pop\n        /* \"#utility.yul\":334:411   */\n      swap2\n      swap1\n      pop\n      jump\t// out\n        /* \"#utility.yul\":417:539   */\n    tag_80:\n        /* \"#utility.yul\":490:514   */\n      tag_128\n        /* \"#utility.yul\":508:513   */\n      dup2\n        /* \"#utility.yul\":490:514   */\n      tag_79\n      jump\t// in\n    tag_128:\n        /* \"#utility.yul\":483:488   */\n      dup2\n        /* \"#utility.yul\":480:515   */\n      eq\n        /* \"#utility.yul\":470:533   */\n      tag_129\n      jumpi\n        /* \"#utility.yul\":529:530   */\n      0x00\n        /* \"#utility.yul\":526:527   */\n      dup1\n        /* \"#utility.yul\":519:531   */\n      revert\n        /* \"#utility.yul\":470:533   */\n    tag_129:\n        /* \"#utility.yul\":417:539   */\n      pop\n      jump\t// out\n        /* \"#utility.yul\":545:684   */\n    tag_81:\n        /* \"#utility.yul\":591:596   */\n      0x00\n        /* \"#utility.yul\":629:635   */\n      dup2\n        /* \"#utility.yul\":616:636   */\n      calldataload\n        /* \"#utility.yul\":607:636   */\n      swap1\n      pop\n        /* \"#utility.yul\":645:678   */\n      tag_131\n        /* \"#utility.yul\":672:677   */\n      dup2\n        /* \"#utility.yul\":645:678   */\n      tag_80\n      jump\t// in\n    tag_131:\n        /* \"#utility.yul\":545:684   */\n      swap3\n      swap2\n      pop\n      pop\n      jump\t// out\n        /* \"#utility.yul\":690:1019   */\n    tag_11:\n        /* \"#utility.yul\":749:755   */\n      0x00\n        /* \"#utility.yul\":798:800   */\n      0x20\n        /* \"#utility.yul\":786:795   */\n      dup3\n        /* \"#utility.yul\":777:784   */\n      dup5\n        /* \"#utility.yul\":773:796   */\n      sub\n        /* \"#utility.yul\":769:801   */\n      slt\n        /* \"#utility.yul\":766:885   */\n      iszero\n      tag_133\n      jumpi\n        /* \"#utility.yul\":804:883   */\n      tag_134\n      tag_77\n      jump\t// in\n    tag_134:\n        /* \"#utility.yul\":766:885   */\n    tag_133:\n        /* \"#utility.yul\":924:925   */\n      0x00\n        /* \"#utility.yul\":949:1002   */\n      tag_135\n        /* \"#utility.yul\":994:1001   */\n      dup5\n        /* \"#utility.yul\":985:991   */\n      dup3\n        /* \"#utility.yul\":974:983   */\n      dup6\n        /* \"#utility.yul\":970:992   */\n      add\n        /* \"#utility.yul\":949:1002   */\n      tag_81\n      jump\t// in\n    tag_135:\n        /* \"#utility.yul\":939:1002   */\n      swap2\n      pop\n        /* \"#utility.yul\":895:1012   */\n      pop\n        /* \"#utility.yul\":690:1019   */\n      swap3\n      swap2\n      pop\n      pop\n      jump\t// out\n        /* \"#utility.yul\":1025:1143   */\n    tag_82:\n        /* \"#utility.yul\":1112:1136   */\n      tag_137\n        /* \"#utility.yul\":1130:1135   */\n      dup2\n        /* \"#utility.yul\":1112:1136   */\n      tag_79\n      jump\t// in\n    tag_137:\n        /* \"#utility.yul\":1107:1110   */\n      dup3\n        /* \"#utility.yul\":1100:1137   */\n      mstore\n        /* \"#utility.yul\":1025:1143   */\n      pop\n      pop\n      jump\t// out\n        /* \"#utility.yul\":1149:1371   */\n    tag_14:\n        /* \"#utility.yul\":1242:1246   */\n      0x00\n        /* \"#utility.yul\":1280:1282   */\n      0x20\n        /* \"#utility.yul\":1269:1278   */\n      dup3\n        /* \"#utility.yul\":1265:1283   */\n      add\n        /* \"#utility.yul\":1257:1283   */\n      swap1\n      pop\n        /* \"#utility.yul\":1293:1364   */\n      tag_139\n        /* \"#utility.yul\":1361:1362   */\n      0x00\n        /* \"#utility.yul\":1350:1359   */\n      dup4\n        /* \"#utility.yul\":1346:1363   */\n      add\n        /* \"#utility.yul\":1337:1343   */\n      dup5\n        /* \"#utility.yul\":1293:1364   */\n      tag_82\n      jump\t// in\n    tag_139:\n        /* \"#utility.yul\":1149:1371   */\n      swap3\n      swap2\n      pop\n      pop\n      jump\t// out\n        /* \"#utility.yul\":1377:1484   */\n    tag_83:\n        /* \"#utility.yul\":1458:1459   */\n      0x03\n        /* \"#utility.yul\":1451:1456   */\n      dup2\n        /* \"#utility.yul\":1448:1460   */\n      lt\n        /* \"#utility.yul\":1438:1478   */\n      tag_141\n      jumpi\n        /* \"#utility.yul\":1474:1475   */\n      0x00\n        /* \"#utility.yul\":1471:1472   */\n      dup1\n        /* \"#utility.yul\":1464:1476   */\n      revert\n        /* \"#utility.yul\":1438:1478   */\n    tag_141:\n        /* \"#utility.yul\":1377:1484   */\n      pop\n      jump\t// out\n        /* \"#utility.yul\":1490:1645   */\n    tag_84:\n        /* \"#utility.yul\":1544:1549   */\n      0x00\n        /* \"#utility.yul\":1582:1588   */\n      dup2\n        /* \"#utility.yul\":1569:1589   */\n      calldataload\n        /* \"#utility.yul\":1560:1589   */\n      swap1\n      pop\n        /* \"#utility.yul\":1598:1639   */\n      tag_143\n        /* \"#utility.yul\":1633:1638   */\n      dup2\n        /* \"#utility.yul\":1598:1639   */\n      tag_83\n      jump\t// in\n    tag_143:\n        /* \"#utility.yul\":1490:1645   */\n      swap3\n      swap2\n      pop\n      pop\n      jump\t// out\n        /* \"#utility.yul\":1651:2141   */\n    tag_17:\n        /* \"#utility.yul\":1727:1733   */\n      0x00\n        /* \"#utility.yul\":1735:1741   */\n      dup1\n        /* \"#utility.yul\":1784:1786   */\n      0x40\n        /* \"#utility.yul\":1772:1781   */\n      dup4\n        /* \"#utility.yul\":1763:1770   */\n      dup6\n        /* \"#utility.yul\":1759:1782   */\n      sub\n        /* \"#utility.yul\":1755:1787   */\n      slt\n        /* \"#utility.yul\":1752:1871   */\n      iszero\n      tag_145\n      jumpi\n        /* \"#utility.yul\":1790:1869   */\n      tag_146\n      tag_77\n      jump\t// in\n    tag_146:\n        /* \"#utility.yul\":1752:1871   */\n    tag_145:\n        /* \"#utility.yul\":1910:1911   */\n      0x00\n        /* \"#utility.yul\":1935:1988   */\n      tag_147\n        /* \"#utility.yul\":1980:1987   */\n      dup6\n        /* \"#utility.yul\":1971:1977   */\n      dup3\n        /* \"#utility.yul\":1960:1969   */\n      dup7\n        /* \"#utility.yul\":1956:1978   */\n      add\n        /* \"#utility.yul\":1935:1988   */\n      tag_81\n      jump\t// in\n    tag_147:\n        /* \"#utility.yul\":1925:1988   */\n      swap3\n      pop\n        /* \"#utility.yul\":1881:1998   */\n      pop\n        /* \"#utility.yul\":2037:2039   */\n      0x20\n        /* \"#utility.yul\":2063:2124   */\n      tag_148\n        /* \"#utility.yul\":2116:2123   */\n      dup6\n        /* \"#utility.yul\":2107:2113   */\n      dup3\n        /* \"#utility.yul\":2096:2105   */\n      dup7\n        /* \"#utility.yul\":2092:2114   */\n      add\n        /* \"#utility.yul\":2063:2124   */\n      tag_84\n      jump\t// in\n    tag_148:\n        /* \"#utility.yul\":2053:2124   */\n      swap2\n      pop\n        /* \"#utility.yul\":2008:2134   */\n      pop\n        /* \"#utility.yul\":1651:2141   */\n      swap3\n      pop\n      swap3\n      swap1\n      pop\n      jump\t// out\n        /* \"#utility.yul\":2147:2264   */\n    tag_85:\n        /* \"#utility.yul\":2256:2257   */\n      0x00\n        /* \"#utility.yul\":2253:2254   */\n      dup1\n        /* \"#utility.yul\":2246:2258   */\n      revert\n        /* \"#utility.yul\":2270:2387   */\n    tag_86:\n        /* \"#utility.yul\":2379:2380   */\n      0x00\n        /* \"#utility.yul\":2376:2377   */\n      dup1\n        /* \"#utility.yul\":2369:2381   */\n      revert\n        /* \"#utility.yul\":2393:2495   */\n    tag_87:\n        /* \"#utility.yul\":2434:2440   */\n      0x00\n        /* \"#utility.yul\":2485:2487   */\n      0x1f\n        /* \"#utility.yul\":2481:2488   */\n      not\n        /* \"#utility.yul\":2476:2478   */\n      0x1f\n        /* \"#utility.yul\":2469:2474   */\n      dup4\n        /* \"#utility.yul\":2465:2479   */\n      add\n        /* \"#utility.yul\":2461:2489   */\n      and\n        /* \"#utility.yul\":2451:2489   */\n      swap1\n      pop\n        /* \"#utility.yul\":2393:2495   */\n      swap2\n      swap1\n      pop\n      jump\t// out\n        /* \"#utility.yul\":2501:2681   */\n    tag_88:\n        /* \"#utility.yul\":2549:2626   */\n      0x4e487b7100000000000000000000000000000000000000000000000000000000\n        /* \"#utility.yul\":2546:2547   */\n      0x00\n        /* \"#utility.yul\":2539:2627   */\n      mstore\n        /* \"#utility.yul\":2646:2650   */\n      0x41\n        /* \"#utility.yul\":2643:2644   */\n      0x04\n        /* \"#utility.yul\":2636:2651   */\n      mstore\n        /* \"#utility.yul\":2670:2674   */\n      0x24\n        /* \"#utility.yul\":2667:2668   */\n      0x00\n        /* \"#utility.yul\":2660:2675   */\n      revert\n        /* \"#utility.yul\":2687:2968   */\n    tag_89:\n        /* \"#utility.yul\":2770:2797   */\n      tag_154\n        /* \"#utility.yul\":2792:2796   */\n      dup3\n        /* \"#utility.yul\":2770:2797   */\n      tag_87\n      jump\t// in\n    tag_154:\n        /* \"#utility.yul\":2762:2768   */\n      dup2\n        /* \"#utility.yul\":2758:2798   */\n      add\n        /* \"#utility.yul\":2900:2906   */\n      dup2\n        /* \"#utility.yul\":2888:2898   */\n      dup2\n        /* \"#utility.yul\":2885:2907   */\n      lt\n        /* \"#utility.yul\":2864:2882   */\n      0xffffffffffffffff\n        /* \"#utility.yul\":2852:2862   */\n      dup3\n        /* \"#utility.yul\":2849:2883   */\n      gt\n        /* \"#utility.yul\":2846:2908   */\n      or\n        /* \"#utility.yul\":2843:2931   */\n      iszero\n      tag_155\n      jumpi\n        /* \"#utility.yul\":2911:2929   */\n      tag_156\n      tag_88\n      jump\t// in\n    tag_156:\n        /* \"#utility.yul\":2843:2931   */\n    tag_155:\n        /* \"#utility.yul\":2951:2961   */\n      dup1\n        /* \"#utility.yul\":2947:2949   */\n      0x40\n        /* \"#utility.yul\":2940:2962   */\n      mstore\n        /* \"#utility.yul\":2730:2968   */\n      pop\n        /* \"#utility.yul\":2687:2968   */\n      pop\n      pop\n      jump\t// out\n        /* \"#utility.yul\":2974:3103   */\n    tag_90:\n        /* \"#utility.yul\":3008:3014   */\n      0x00\n        /* \"#utility.yul\":3035:3055   */\n      tag_158\n      tag_76\n      jump\t// in\n    tag_158:\n        /* \"#utility.yul\":3025:3055   */\n      swap1\n      pop\n        /* \"#utility.yul\":3064:3097   */\n      tag_159\n        /* \"#utility.yul\":3092:3096   */\n      dup3\n        /* \"#utility.yul\":3084:3090   */\n      dup3\n        /* \"#utility.yul\":3064:3097   */\n      tag_89\n      jump\t// in\n    tag_159:\n        /* \"#utility.yul\":2974:3103   */\n      swap2\n      swap1\n      pop\n      jump\t// out\n        /* \"#utility.yul\":3109:3417   */\n    tag_91:\n        /* \"#utility.yul\":3171:3175   */\n      0x00\n        /* \"#utility.yul\":3261:3279   */\n      0xffffffffffffffff\n        /* \"#utility.yul\":3253:3259   */\n      dup3\n        /* \"#utility.yul\":3250:3280   */\n      gt\n        /* \"#utility.yul\":3247:3303   */\n      iszero\n      tag_161\n      jumpi\n        /* \"#utility.yul\":3283:3301   */\n      tag_162\n      tag_88\n      jump\t// in\n    tag_162:\n        /* \"#utility.yul\":3247:3303   */\n    tag_161:\n        /* \"#utility.yul\":3321:3350   */\n      tag_163\n        /* \"#utility.yul\":3343:3349   */\n      dup3\n        /* \"#utility.yul\":3321:3350   */\n      tag_87\n      jump\t// in\n    tag_163:\n        /* \"#utility.yul\":3313:3350   */\n      swap1\n      pop\n        /* \"#utility.yul\":3405:3409   */\n      0x20\n        /* \"#utility.yul\":3399:3403   */\n      dup2\n        /* \"#utility.yul\":3395:3410   */\n      add\n        /* \"#utility.yul\":3387:3410   */\n      swap1\n      pop\n        /* \"#utility.yul\":3109:3417   */\n      swap2\n      swap1\n      pop\n      jump\t// out\n        /* \"#utility.yul\":3423:3571   */\n    tag_92:\n        /* \"#utility.yul\":3521:3527   */\n      dup3\n        /* \"#utility.yul\":3516:3519   */\n      dup2\n        /* \"#utility.yul\":3511:3514   */\n      dup4\n        /* \"#utility.yul\":3498:3528   */\n      calldatacopy\n        /* \"#utility.yul\":3562:3563   */\n      0x00\n        /* \"#utility.yul\":3553:3559   */\n      dup4\n        /* \"#utility.yul\":3548:3551   */\n      dup4\n        /* \"#utility.yul\":3544:3560   */\n      add\n        /* \"#utility.yul\":3537:3564   */\n      mstore\n        /* \"#utility.yul\":3423:3571   */\n      pop\n      pop\n      pop\n      jump\t// out\n        /* \"#utility.yul\":3577:4002   */\n    tag_93:\n        /* \"#utility.yul\":3655:3660   */\n      0x00\n        /* \"#utility.yul\":3680:3746   */\n      tag_166\n        /* \"#utility.yul\":3696:3745   */\n      tag_167\n        /* \"#utility.yul\":3738:3744   */\n      dup5\n        /* \"#utility.yul\":3696:3745   */\n      tag_91\n      jump\t// in\n    tag_167:\n        /* \"#utility.yul\":3680:3746   */\n      tag_90\n      jump\t// in\n    tag_166:\n        /* \"#utility.yul\":3671:3746   */\n      swap1\n      pop\n        /* \"#utility.yul\":3769:3775   */\n      dup3\n        /* \"#utility.yul\":3762:3767   */\n      dup2\n        /* \"#utility.yul\":3755:3776   */\n      mstore\n        /* \"#utility.yul\":3807:3811   */\n      0x20\n        /* \"#utility.yul\":3800:3805   */\n      dup2\n        /* \"#utility.yul\":3796:3812   */\n      add\n        /* \"#utility.yul\":3845:3848   */\n      dup5\n        /* \"#utility.yul\":3836:3842   */\n      dup5\n        /* \"#utility.yul\":3831:3834   */\n      dup5\n        /* \"#utility.yul\":3827:3843   */\n      add\n        /* \"#utility.yul\":3824:3849   */\n      gt\n        /* \"#utility.yul\":3821:3933   */\n      iszero\n      tag_168\n      jumpi\n        /* \"#utility.yul\":3852:3931   */\n      tag_169\n      tag_86\n      jump\t// in\n    tag_169:\n        /* \"#utility.yul\":3821:3933   */\n    tag_168:\n        /* \"#utility.yul\":3942:3996   */\n      tag_170\n        /* \"#utility.yul\":3989:3995   */\n      dup5\n        /* \"#utility.yul\":3984:3987   */\n      dup3\n        /* \"#utility.yul\":3979:3982   */\n      dup6\n        /* \"#utility.yul\":3942:3996   */\n      tag_92\n      jump\t// in\n    tag_170:\n        /* \"#utility.yul\":3661:4002   */\n      pop\n        /* \"#utility.yul\":3577:4002   */\n      swap4\n      swap3\n      pop\n      pop\n      pop\n      jump\t// out\n        /* \"#utility.yul\":4022:4362   */\n    tag_94:\n        /* \"#utility.yul\":4078:4083   */\n      0x00\n        /* \"#utility.yul\":4127:4130   */\n      dup3\n        /* \"#utility.yul\":4120:4124   */\n      0x1f\n        /* \"#utility.yul\":4112:4118   */\n      dup4\n        /* \"#utility.yul\":4108:4125   */\n      add\n        /* \"#utility.yul\":4104:4131   */\n      slt\n        /* \"#utility.yul\":4094:4216   */\n      tag_172\n      jumpi\n        /* \"#utility.yul\":4135:4214   */\n      tag_173\n      tag_85\n      jump\t// in\n    tag_173:\n        /* \"#utility.yul\":4094:4216   */\n    tag_172:\n        /* \"#utility.yul\":4252:4258   */\n      dup2\n        /* \"#utility.yul\":4239:4259   */\n      calldataload\n        /* \"#utility.yul\":4277:4356   */\n      tag_174\n        /* \"#utility.yul\":4352:4355   */\n      dup5\n        /* \"#utility.yul\":4344:4350   */\n      dup3\n        /* \"#utility.yul\":4337:4341   */\n      0x20\n        /* \"#utility.yul\":4329:4335   */\n      dup7\n        /* \"#utility.yul\":4325:4342   */\n      add\n        /* \"#utility.yul\":4277:4356   */\n      tag_93\n      jump\t// in\n    tag_174:\n        /* \"#utility.yul\":4268:4356   */\n      swap2\n      pop\n        /* \"#utility.yul\":4084:4362   */\n      pop\n        /* \"#utility.yul\":4022:4362   */\n      swap3\n      swap2\n      pop\n      pop\n      jump\t// out\n        /* \"#utility.yul\":4368:4877   */\n    tag_24:\n        /* \"#utility.yul\":4437:4443   */\n      0x00\n        /* \"#utility.yul\":4486:4488   */\n      0x20\n        /* \"#utility.yul\":4474:4483   */\n      dup3\n        /* \"#utility.yul\":4465:4472   */\n      dup5\n        /* \"#utility.yul\":4461:4484   */\n      sub\n        /* \"#utility.yul\":4457:4489   */\n      slt\n        /* \"#utility.yul\":4454:4573   */\n      iszero\n      tag_176\n      jumpi\n        /* \"#utility.yul\":4492:4571   */\n      tag_177\n      tag_77\n      jump\t// in\n    tag_177:\n        /* \"#utility.yul\":4454:4573   */\n    tag_176:\n        /* \"#utility.yul\":4640:4641   */\n      0x00\n        /* \"#utility.yul\":4629:4638   */\n      dup3\n        /* \"#utility.yul\":4625:4642   */\n      add\n        /* \"#utility.yul\":4612:4643   */\n      calldataload\n        /* \"#utility.yul\":4670:4688   */\n      0xffffffffffffffff\n        /* \"#utility.yul\":4662:4668   */\n      dup2\n        /* \"#utility.yul\":4659:4689   */\n      gt\n        /* \"#utility.yul\":4656:4773   */\n      iszero\n      tag_178\n      jumpi\n        /* \"#utility.yul\":4692:4771   */\n      tag_179\n      tag_78\n      jump\t// in\n    tag_179:\n        /* \"#utility.yul\":4656:4773   */\n    tag_178:\n        /* \"#utility.yul\":4797:4860   */\n      tag_180\n        /* \"#utility.yul\":4852:4859   */\n      dup5\n        /* \"#utility.yul\":4843:4849   */\n      dup3\n        /* \"#utility.yul\":4832:4841   */\n      dup6\n        /* \"#utility.yul\":4828:4850   */\n      add\n        /* \"#utility.yul\":4797:4860   */\n      tag_94\n      jump\t// in\n    tag_180:\n        /* \"#utility.yul\":4787:4860   */\n      swap2\n      pop\n        /* \"#utility.yul\":4583:4870   */\n      pop\n        /* \"#utility.yul\":4368:4877   */\n      swap3\n      swap2\n      pop\n      pop\n      jump\t// out\n        /* \"#utility.yul\":4883:4982   */\n    tag_95:\n        /* \"#utility.yul\":4935:4941   */\n      0x00\n        /* \"#utility.yul\":4969:4974   */\n      dup2\n        /* \"#utility.yul\":4963:4975   */\n      mload\n        /* \"#utility.yul\":4953:4975   */\n      swap1\n      pop\n        /* \"#utility.yul\":4883:4982   */\n      swap2\n      swap1\n      pop\n      jump\t// out\n        /* \"#utility.yul\":4988:5157   */\n    tag_96:\n        /* \"#utility.yul\":5072:5083   */\n      0x00\n        /* \"#utility.yul\":5106:5112   */\n      dup3\n        /* \"#utility.yul\":5101:5104   */\n      dup3\n        /* \"#utility.yul\":5094:5113   */\n      mstore\n        /* \"#utility.yul\":5146:5150   */\n      0x20\n        /* \"#utility.yul\":5141:5144   */\n      dup3\n        /* \"#utility.yul\":5137:5151   */\n      add\n        /* \"#utility.yul\":5122:5151   */\n      swap1\n      pop\n        /* \"#utility.yul\":4988:5157   */\n      swap3\n      swap2\n      pop\n      pop\n      jump\t// out\n        /* \"#utility.yul\":5163:5302   */\n    tag_97:\n        /* \"#utility.yul\":5252:5258   */\n      dup3\n        /* \"#utility.yul\":5247:5250   */\n      dup2\n        /* \"#utility.yul\":5242:5245   */\n      dup4\n        /* \"#utility.yul\":5236:5259   */\n      mcopy\n        /* \"#utility.yul\":5293:5294   */\n      0x00\n        /* \"#utility.yul\":5284:5290   */\n      dup4\n        /* \"#utility.yul\":5279:5282   */\n      dup4\n        /* \"#utility.yul\":5275:5291   */\n      add\n        /* \"#utility.yul\":5268:5295   */\n      mstore\n        /* \"#utility.yul\":5163:5302   */\n      pop\n      pop\n      pop\n      jump\t// out\n        /* \"#utility.yul\":5308:5685   */\n    tag_98:\n        /* \"#utility.yul\":5396:5399   */\n      0x00\n        /* \"#utility.yul\":5424:5463   */\n      tag_185\n        /* \"#utility.yul\":5457:5462   */\n      dup3\n        /* \"#utility.yul\":5424:5463   */\n      tag_95\n      jump\t// in\n    tag_185:\n        /* \"#utility.yul\":5479:5550   */\n      tag_186\n        /* \"#utility.yul\":5543:5549   */\n      dup2\n        /* \"#utility.yul\":5538:5541   */\n      dup6\n        /* \"#utility.yul\":5479:5550   */\n      tag_96\n      jump\t// in\n    tag_186:\n        /* \"#utility.yul\":5472:5550   */\n      swap4\n      pop\n        /* \"#utility.yul\":5559:5624   */\n      tag_187\n        /* \"#utility.yul\":5617:5623   */\n      dup2\n        /* \"#utility.yul\":5612:5615   */\n      dup6\n        /* \"#utility.yul\":5605:5609   */\n      0x20\n        /* \"#utility.yul\":5598:5603   */\n      dup7\n        /* \"#utility.yul\":5594:5610   */\n      add\n        /* \"#utility.yul\":5559:5624   */\n      tag_97\n      jump\t// in\n    tag_187:\n        /* \"#utility.yul\":5649:5678   */\n      tag_188\n        /* \"#utility.yul\":5671:5677   */\n      dup2\n        /* \"#utility.yul\":5649:5678   */\n      tag_87\n      jump\t// in\n    tag_188:\n        /* \"#utility.yul\":5644:5647   */\n      dup5\n        /* \"#utility.yul\":5640:5679   */\n      add\n        /* \"#utility.yul\":5633:5679   */\n      swap2\n      pop\n        /* \"#utility.yul\":5400:5685   */\n      pop\n        /* \"#utility.yul\":5308:5685   */\n      swap3\n      swap2\n      pop\n      pop\n      jump\t// out\n        /* \"#utility.yul\":5691:5871   */\n    tag_45:\n        /* \"#utility.yul\":5739:5816   */\n      0x4e487b7100000000000000000000000000000000000000000000000000000000\n        /* \"#utility.yul\":5736:5737   */\n      0x00\n        /* \"#utility.yul\":5729:5817   */\n      mstore\n        /* \"#utility.yul\":5836:5840   */\n      0x21\n        /* \"#utility.yul\":5833:5834   */\n      0x04\n        /* \"#utility.yul\":5826:5841   */\n      mstore\n        /* \"#utility.yul\":5860:5864   */\n      0x24\n        /* \"#utility.yul\":5857:5858   */\n      0x00\n        /* \"#utility.yul\":5850:5865   */\n      revert\n        /* \"#utility.yul\":5877:5990   */\n    tag_99:\n        /* \"#utility.yul\":5958:5959   */\n      0x03\n        /* \"#utility.yul\":5951:5956   */\n      dup2\n        /* \"#utility.yul\":5948:5960   */\n      lt\n        /* \"#utility.yul\":5938:5984   */\n      tag_191\n      jumpi\n        /* \"#utility.yul\":5964:5982   */\n      tag_192\n      tag_45\n      jump\t// in\n    tag_192:\n        /* \"#utility.yul\":5938:5984   */\n    tag_191:\n        /* \"#utility.yul\":5877:5990   */\n      pop\n      jump\t// out\n        /* \"#utility.yul\":5996:6123   */\n    tag_100:\n        /* \"#utility.yul\":6041:6048   */\n      0x00\n        /* \"#utility.yul\":6070:6075   */\n      dup2\n        /* \"#utility.yul\":6059:6075   */\n      swap1\n      pop\n        /* \"#utility.yul\":6076:6117   */\n      tag_194\n        /* \"#utility.yul\":6111:6116   */\n      dup3\n        /* \"#utility.yul\":6076:6117   */\n      tag_99\n      jump\t// in\n    tag_194:\n        /* \"#utility.yul\":5996:6123   */\n      swap2\n      swap1\n      pop\n      jump\t// out\n        /* \"#utility.yul\":6129:6256   */\n    tag_101:\n        /* \"#utility.yul\":6185:6194   */\n      0x00\n        /* \"#utility.yul\":6218:6250   */\n      tag_196\n        /* \"#utility.yul\":6244:6249   */\n      dup3\n        /* \"#utility.yul\":6218:6250   */\n      tag_100\n      jump\t// in\n    tag_196:\n        /* \"#utility.yul\":6205:6250   */\n      swap1\n      pop\n        /* \"#utility.yul\":6129:6256   */\n      swap2\n      swap1\n      pop\n      jump\t// out\n        /* \"#utility.yul\":6262:6405   */\n    tag_102:\n        /* \"#utility.yul\":6355:6398   */\n      tag_198\n        /* \"#utility.yul\":6392:6397   */\n      dup2\n        /* \"#utility.yul\":6355:6398   */\n      tag_101\n      jump\t// in\n    tag_198:\n        /* \"#utility.yul\":6350:6353   */\n      dup3\n        /* \"#utility.yul\":6343:6399   */\n      mstore\n        /* \"#utility.yul\":6262:6405   */\n      pop\n      pop\n      jump\t// out\n        /* \"#utility.yul\":6411:6956   */\n    tag_30:\n        /* \"#utility.yul\":6586:6590   */\n      0x00\n        /* \"#utility.yul\":6624:6626   */\n      0x60\n        /* \"#utility.yul\":6613:6622   */\n      dup3\n        /* \"#utility.yul\":6609:6627   */\n      add\n        /* \"#utility.yul\":6601:6627   */\n      swap1\n      pop\n        /* \"#utility.yul\":6637:6708   */\n      tag_200\n        /* \"#utility.yul\":6705:6706   */\n      0x00\n        /* \"#utility.yul\":6694:6703   */\n      dup4\n        /* \"#utility.yul\":6690:6707   */\n      add\n        /* \"#utility.yul\":6681:6687   */\n      dup7\n        /* \"#utility.yul\":6637:6708   */\n      tag_82\n      jump\t// in\n    tag_200:\n        /* \"#utility.yul\":6755:6764   */\n      dup2\n        /* \"#utility.yul\":6749:6753   */\n      dup2\n        /* \"#utility.yul\":6745:6765   */\n      sub\n        /* \"#utility.yul\":6740:6742   */\n      0x20\n        /* \"#utility.yul\":6729:6738   */\n      dup4\n        /* \"#utility.yul\":6725:6743   */\n      add\n        /* \"#utility.yul\":6718:6766   */\n      mstore\n        /* \"#utility.yul\":6783:6861   */\n      tag_201\n        /* \"#utility.yul\":6856:6860   */\n      dup2\n        /* \"#utility.yul\":6847:6853   */\n      dup6\n        /* \"#utility.yul\":6783:6861   */\n      tag_98\n      jump\t// in\n    tag_201:\n        /* \"#utility.yul\":6775:6861   */\n      swap1\n      pop\n        /* \"#utility.yul\":6871:6949   */\n      tag_202\n        /* \"#utility.yul\":6945:6947   */\n      0x40\n        /* \"#utility.yul\":6934:6943   */\n      dup4\n        /* \"#utility.yul\":6930:6948   */\n      add\n        /* \"#utility.yul\":6921:6927   */\n      dup5\n        /* \"#utility.yul\":6871:6949   */\n      tag_102\n      jump\t// in\n    tag_202:\n        /* \"#utility.yul\":6411:6956   */\n      swap5\n      swap4\n      pop\n      pop\n      pop\n      pop\n      jump\t// out\n        /* \"#utility.yul\":6962:7142   */\n    tag_103:\n        /* \"#utility.yul\":7010:7087   */\n      0x4e487b7100000000000000000000000000000000000000000000000000000000\n        /* \"#utility.yul\":7007:7008   */\n      0x00\n        /* \"#utility.yul\":7000:7088   */\n      mstore\n        /* \"#utility.yul\":7107:7111   */\n      0x22\n        /* \"#utility.yul\":7104:7105   */\n      0x04\n        /* \"#utility.yul\":7097:7112   */\n      mstore\n        /* \"#utility.yul\":7131:7135   */\n      0x24\n        /* \"#utility.yul\":7128:7129   */\n      0x00\n        /* \"#utility.yul\":7121:7136   */\n      revert\n        /* \"#utility.yul\":7148:7468   */\n    tag_39:\n        /* \"#utility.yul\":7192:7198   */\n      0x00\n        /* \"#utility.yul\":7229:7230   */\n      0x02\n        /* \"#utility.yul\":7223:7227   */\n      dup3\n        /* \"#utility.yul\":7219:7231   */\n      div\n        /* \"#utility.yul\":7209:7231   */\n      swap1\n      pop\n        /* \"#utility.yul\":7276:7277   */\n      0x01\n        /* \"#utility.yul\":7270:7274   */\n      dup3\n        /* \"#utility.yul\":7266:7278   */\n      and\n        /* \"#utility.yul\":7297:7315   */\n      dup1\n        /* \"#utility.yul\":7287:7368   */\n      tag_205\n      jumpi\n        /* \"#utility.yul\":7353:7357   */\n      0x7f\n        /* \"#utility.yul\":7345:7351   */\n      dup3\n        /* \"#utility.yul\":7341:7358   */\n      and\n        /* \"#utility.yul\":7331:7358   */\n      swap2\n      pop\n        /* \"#utility.yul\":7287:7368   */\n    tag_205:\n        /* \"#utility.yul\":7415:7417   */\n      0x20\n        /* \"#utility.yul\":7407:7413   */\n      dup3\n        /* \"#utility.yul\":7404:7418   */\n      lt\n        /* \"#utility.yul\":7384:7402   */\n      dup2\n        /* \"#utility.yul\":7381:7419   */\n      sub\n        /* \"#utility.yul\":7378:7462   */\n      tag_206\n      jumpi\n        /* \"#utility.yul\":7434:7452   */\n      tag_207\n      tag_103\n      jump\t// in\n    tag_207:\n        /* \"#utility.yul\":7378:7462   */\n    tag_206:\n        /* \"#utility.yul\":7199:7468   */\n      pop\n        /* \"#utility.yul\":7148:7468   */\n      swap2\n      swap1\n      pop\n      jump\t// out\n        /* \"#utility.yul\":7474:7644   */\n    tag_104:\n        /* \"#utility.yul\":7614:7636   */\n      0x546f646f20646f6573206e6f742065786973742e000000000000000000000000\n        /* \"#utility.yul\":7610:7611   */\n      0x00\n        /* \"#utility.yul\":7602:7608   */\n      dup3\n        /* \"#utility.yul\":7598:7612   */\n      add\n        /* \"#utility.yul\":7591:7637   */\n      mstore\n        /* \"#utility.yul\":7474:7644   */\n      pop\n      jump\t// out\n        /* \"#utility.yul\":7650:8016   */\n    tag_105:\n        /* \"#utility.yul\":7792:7795   */\n      0x00\n        /* \"#utility.yul\":7813:7880   */\n      tag_210\n        /* \"#utility.yul\":7877:7879   */\n      0x14\n        /* \"#utility.yul\":7872:7875   */\n      dup4\n        /* \"#utility.yul\":7813:7880   */\n      tag_96\n      jump\t// in\n    tag_210:\n        /* \"#utility.yul\":7806:7880   */\n      swap2\n      pop\n        /* \"#utility.yul\":7889:7982   */\n      tag_211\n        /* \"#utility.yul\":7978:7981   */\n      dup3\n        /* \"#utility.yul\":7889:7982   */\n      tag_104\n      jump\t// in\n    tag_211:\n        /* \"#utility.yul\":8007:8009   */\n      0x20\n        /* \"#utility.yul\":8002:8005   */\n      dup3\n        /* \"#utility.yul\":7998:8010   */\n      add\n        /* \"#utility.yul\":7991:8010   */\n      swap1\n      pop\n        /* \"#utility.yul\":7650:8016   */\n      swap2\n      swap1\n      pop\n      jump\t// out\n        /* \"#utility.yul\":8022:8441   */\n    tag_42:\n        /* \"#utility.yul\":8188:8192   */\n      0x00\n        /* \"#utility.yul\":8226:8228   */\n      0x20\n        /* \"#utility.yul\":8215:8224   */\n      dup3\n        /* \"#utility.yul\":8211:8229   */\n      add\n        /* \"#utility.yul\":8203:8229   */\n      swap1\n      pop\n        /* \"#utility.yul\":8275:8284   */\n      dup2\n        /* \"#utility.yul\":8269:8273   */\n      dup2\n        /* \"#utility.yul\":8265:8285   */\n      sub\n        /* \"#utility.yul\":8261:8262   */\n      0x00\n        /* \"#utility.yul\":8250:8259   */\n      dup4\n        /* \"#utility.yul\":8246:8263   */\n      add\n        /* \"#utility.yul\":8239:8286   */\n      mstore\n        /* \"#utility.yul\":8303:8434   */\n      tag_213\n        /* \"#utility.yul\":8429:8433   */\n      dup2\n        /* \"#utility.yul\":8303:8434   */\n      tag_105\n      jump\t// in\n    tag_213:\n        /* \"#utility.yul\":8295:8434   */\n      swap1\n      pop\n        /* \"#utility.yul\":8022:8441   */\n      swap2\n      swap1\n      pop\n      jump\t// out\n        /* \"#utility.yul\":8447:8588   */\n    tag_106:\n        /* \"#utility.yul\":8496:8500   */\n      0x00\n        /* \"#utility.yul\":8519:8522   */\n      dup2\n        /* \"#utility.yul\":8511:8522   */\n      swap1\n      pop\n        /* \"#utility.yul\":8542:8545   */\n      dup2\n        /* \"#utility.yul\":8539:8540   */\n      0x00\n        /* \"#utility.yul\":8532:8546   */\n      mstore\n        /* \"#utility.yul\":8576:8580   */\n      0x20\n        /* \"#utility.yul\":8573:8574   */\n      0x00\n        /* \"#utility.yul\":8563:8581   */\n      keccak256\n        /* \"#utility.yul\":8555:8581   */\n      swap1\n      pop\n        /* \"#utility.yul\":8447:8588   */\n      swap2\n      swap1\n      pop\n      jump\t// out\n        /* \"#utility.yul\":8594:8687   */\n    tag_107:\n        /* \"#utility.yul\":8631:8637   */\n      0x00\n        /* \"#utility.yul\":8678:8680   */\n      0x20\n        /* \"#utility.yul\":8673:8675   */\n      0x1f\n        /* \"#utility.yul\":8666:8671   */\n      dup4\n        /* \"#utility.yul\":8662:8676   */\n      add\n        /* \"#utility.yul\":8658:8681   */\n      div\n        /* \"#utility.yul\":8648:8681   */\n      swap1\n      pop\n        /* \"#utility.yul\":8594:8687   */\n      swap2\n      swap1\n      pop\n      jump\t// out\n        /* \"#utility.yul\":8693:8800   */\n    tag_108:\n        /* \"#utility.yul\":8737:8745   */\n      0x00\n        /* \"#utility.yul\":8787:8792   */\n      dup3\n        /* \"#utility.yul\":8781:8785   */\n      dup3\n        /* \"#utility.yul\":8777:8793   */\n      shl\n        /* \"#utility.yul\":8756:8793   */\n      swap1\n      pop\n        /* \"#utility.yul\":8693:8800   */\n      swap3\n      swap2\n      pop\n      pop\n      jump\t// out\n        /* \"#utility.yul\":8806:9199   */\n    tag_109:\n        /* \"#utility.yul\":8875:8881   */\n      0x00\n        /* \"#utility.yul\":8925:8926   */\n      0x08\n        /* \"#utility.yul\":8913:8923   */\n      dup4\n        /* \"#utility.yul\":8909:8927   */\n      mul\n        /* \"#utility.yul\":8948:9045   */\n      tag_218\n        /* \"#utility.yul\":8978:9044   */\n      0xffffffffffffffffffffffffffffffffffffffffffffffffffffffffffffffff\n        /* \"#utility.yul\":8967:8976   */\n      dup3\n        /* \"#utility.yul\":8948:9045   */\n      tag_108\n      jump\t// in\n    tag_218:\n        /* \"#utility.yul\":9066:9105   */\n      tag_219\n        /* \"#utility.yul\":9096:9104   */\n      dup7\n        /* \"#utility.yul\":9085:9094   */\n      dup4\n        /* \"#utility.yul\":9066:9105   */\n      tag_108\n      jump\t// in\n    tag_219:\n        /* \"#utility.yul\":9054:9105   */\n      swap6\n      pop\n        /* \"#utility.yul\":9138:9142   */\n      dup1\n        /* \"#utility.yul\":9134:9143   */\n      not\n        /* \"#utility.yul\":9127:9132   */\n      dup5\n        /* \"#utility.yul\":9123:9144   */\n      and\n        /* \"#utility.yul\":9114:9144   */\n      swap4\n      pop\n        /* \"#utility.yul\":9187:9191   */\n      dup1\n        /* \"#utility.yul\":9177:9185   */\n      dup7\n        /* \"#utility.yul\":9173:9192   */\n      and\n        /* \"#utility.yul\":9166:9171   */\n      dup5\n        /* \"#utility.yul\":9163:9193   */\n      or\n        /* \"#utility.yul\":9153:9193   */\n      swap3\n      pop\n        /* \"#utility.yul\":8882:9199   */\n      pop\n      pop\n        /* \"#utility.yul\":8806:9199   */\n      swap4\n      swap3\n      pop\n      pop\n      pop\n      jump\t// out\n        /* \"#utility.yul\":9205:9265   */\n    tag_110:\n        /* \"#utility.yul\":9233:9236   */\n      0x00\n        /* \"#utility.yul\":9254:9259   */\n      dup2\n        /* \"#utility.yul\":9247:9259   */\n      swap1\n      pop\n        /* \"#utility.yul\":9205:9265   */\n      swap2\n      swap1\n      pop\n      jump\t// out\n        /* \"#utility.yul\":9271:9413   */\n    tag_111:\n        /* \"#utility.yul\":9321:9330   */\n      0x00\n        /* \"#utility.yul\":9354:9407   */\n      tag_222\n        /* \"#utility.yul\":9372:9406   */\n      tag_223\n        /* \"#utility.yul\":9381:9405   */\n      tag_224\n        /* \"#utility.yul\":9399:9404   */\n      dup5\n        /* \"#utility.yul\":9381:9405   */\n      tag_79\n      jump\t// in\n    tag_224:\n        /* \"#utility.yul\":9372:9406   */\n      tag_110\n      jump\t// in\n    tag_223:\n        /* \"#utility.yul\":9354:9407   */\n      tag_79\n      jump\t// in\n    tag_222:\n        /* \"#utility.yul\":9341:9407   */\n      swap1\n      pop\n        /* \"#utility.yul\":9271:9413   */\n      swap2\n      swap1\n      pop\n      jump\t// out\n        /* \"#utility.yul\":9419:9494   */\n    tag_112:\n        /* \"#utility.yul\":9462:9465   */\n      0x00\n        /* \"#utility.yul\":9483:9488   */\n      dup2\n        /* \"#utility.yul\":9476:9488   */\n      swap1\n      pop\n        /* \"#utility.yul\":9419:9494   */\n      swap2\n      swap1\n      pop\n      jump\t// out\n        /* \"#utility.yul\":9500:9769   */\n    tag_113:\n        /* \"#utility.yul\":9610:9649   */\n      tag_227\n        /* \"#utility.yul\":9641:9648   */\n      dup4\n        /* \"#utility.yul\":9610:9649   */\n      tag_111\n      jump\t// in\n    tag_227:\n        /* \"#utility.yul\":9671:9762   */\n      tag_228\n        /* \"#utility.yul\":9720:9761   */\n      tag_229\n        /* \"#utility.yul\":9744:9760   */\n      dup3\n        /* \"#utility.yul\":9720:9761   */\n      tag_112\n      jump\t// in\n    tag_229:\n        /* \"#utility.yul\":9712:9718   */\n      dup5\n        /* \"#utility.yul\":9705:9709   */\n      dup5\n        /* \"#utility.yul\":9699:9710   */\n      sload\n        /* \"#utility.yul\":9671:9762   */\n      tag_109\n      jump\t// in\n    tag_228:\n        /* \"#utility.yul\":9665:9669   */\n      dup3\n        /* \"#utility.yul\":9658:9763   */\n      sstore\n        /* \"#utility.yul\":9576:9769   */\n      pop\n        /* \"#utility.yul\":9500:9769   */\n      pop\n      pop\n      pop\n      jump\t// out\n        /* \"#utility.yul\":9775:9848   */\n    tag_114:\n        /* \"#utility.yul\":9820:9823   */\n      0x00\n        /* \"#utility.yul\":9775:9848   */\n      swap1\n      jump\t// out\n        /* \"#utility.yul\":9854:10043   */\n    tag_115:\n        /* \"#utility.yul\":9931:9963   */\n      tag_232\n      tag_114\n      jump\t// in\n    tag_232:\n        /* \"#utility.yul\":9972:10037   */\n      tag_233\n        /* \"#utility.yul\":10030:10036   */\n      dup2\n        /* \"#utility.yul\":10022:10028   */\n      dup5\n        /* \"#utility.yul\":10016:10020   */\n      dup5\n        /* \"#utility.yul\":9972:10037   */\n      tag_113\n      jump\t// in\n    tag_233:\n        /* \"#utility.yul\":9907:10043   */\n      pop\n        /* \"#utility.yul\":9854:10043   */\n      pop\n      pop\n      jump\t// out\n        /* \"#utility.yul\":10049:10235   */\n    tag_116:\n        /* \"#utility.yul\":10109:10229   */\n    tag_235:\n        /* \"#utility.yul\":10126:10129   */\n      dup2\n        /* \"#utility.yul\":10119:10124   */\n      dup2\n        /* \"#utility.yul\":10116:10130   */\n      lt\n        /* \"#utility.yul\":10109:10229   */\n      iszero\n      tag_237\n      jumpi\n        /* \"#utility.yul\":10180:10219   */\n      tag_238\n        /* \"#utility.yul\":10217:10218   */\n      0x00\n        /* \"#utility.yul\":10210:10215   */\n      dup3\n        /* \"#utility.yul\":10180:10219   */\n      tag_115\n      jump\t// in\n    tag_238:\n        /* \"#utility.yul\":10153:10154   */\n      0x01\n        /* \"#utility.yul\":10146:10151   */\n      dup2\n        /* \"#utility.yul\":10142:10155   */\n      add\n        /* \"#utility.yul\":10133:10155   */\n      swap1\n      pop\n        /* \"#utility.yul\":10109:10229   */\n      jump(tag_235)\n    tag_237:\n        /* \"#utility.yul\":10049:10235   */\n      pop\n      pop\n      jump\t// out\n        /* \"#utility.yul\":10241:10784   */\n    tag_117:\n        /* \"#utility.yul\":10342:10344   */\n      0x1f\n        /* \"#utility.yul\":10337:10340   */\n      dup3\n        /* \"#utility.yul\":10334:10345   */\n      gt\n        /* \"#utility.yul\":10331:10777   */\n      iszero\n      tag_240\n      jumpi\n        /* \"#utility.yul\":10376:10414   */\n      tag_241\n        /* \"#utility.yul\":10408:10413   */\n      dup2\n        /* \"#utility.yul\":10376:10414   */\n      tag_106\n      jump\t// in\n    tag_241:\n        /* \"#utility.yul\":10460:10489   */\n      tag_242\n        /* \"#utility.yul\":10478:10488   */\n      dup5\n        /* \"#utility.yul\":10460:10489   */\n      tag_107\n      jump\t// in\n    tag_242:\n        /* \"#utility.yul\":10450:10458   */\n      dup2\n        /* \"#utility.yul\":10446:10490   */\n      add\n        /* \"#utility.yul\":10643:10645   */\n      0x20\n        /* \"#utility.yul\":10631:10641   */\n      dup6\n        /* \"#utility.yul\":10628:10646   */\n      lt\n        /* \"#utility.yul\":10625:10674   */\n      iszero\n      tag_243\n      jumpi\n        /* \"#utility.yul\":10664:10672   */\n      dup2\n        /* \"#utility.yul\":10649:10672   */\n      swap1\n      pop\n        /* \"#utility.yul\":10625:10674   */\n    tag_243:\n        /* \"#utility.yul\":10687:10767   */\n      tag_244\n        /* \"#utility.yul\":10743:10765   */\n      tag_245\n        /* \"#utility.yul\":10761:10764   */\n      dup6\n        /* \"#utility.yul\":10743:10765   */\n      tag_107\n      jump\t// in\n    tag_245:\n        /* \"#utility.yul\":10733:10741   */\n      dup4\n        /* \"#utility.yul\":10729:10766   */\n      add\n        /* \"#utility.yul\":10716:10727   */\n      dup3\n        /* \"#utility.yul\":10687:10767   */\n      tag_116\n      jump\t// in\n    tag_244:\n        /* \"#utility.yul\":10346:10777   */\n      pop\n      pop\n        /* \"#utility.yul\":10331:10777   */\n    tag_240:\n        /* \"#utility.yul\":10241:10784   */\n      pop\n      pop\n      pop\n      jump\t// out\n        /* \"#utility.yul\":10790:10907   */\n    tag_118:\n        /* \"#utility.yul\":10844:10852   */\n      0x00\n        /* \"#utility.yul\":10894:10899   */\n      dup3\n        /* \"#utility.yul\":10888:10892   */\n      dup3\n        /* \"#utility.yul\":10884:10900   */\n      shr\n        /* \"#utility.yul\":10863:10900   */\n      swap1\n      pop\n        /* \"#utility.yul\":10790:10907   */\n      swap3\n      swap2\n      pop\n      pop\n      jump\t// out\n        /* \"#utility.yul\":10913:11082   */\n    tag_119:\n        /* \"#utility.yul\":10957:10963   */\n      0x00\n        /* \"#utility.yul\":10990:11041   */\n      tag_248\n        /* \"#utility.yul\":11038:11039   */\n      0x00\n        /* \"#utility.yul\":11034:11040   */\n      not\n        /* \"#utility.yul\":11026:11031   */\n      dup5\n        /* \"#utility.yul\":11023:11024   */\n      0x08\n        /* \"#utility.yul\":11019:11032   */\n      mul\n        /* \"#utility.yul\":10990:11041   */\n      tag_118\n      jump\t// in\n    tag_248:\n        /* \"#utility.yul\":10986:11042   */\n      not\n        /* \"#utility.yul\":11071:11075   */\n      dup1\n        /* \"#utility.yul\":11065:11069   */\n      dup4\n        /* \"#utility.yul\":11061:11076   */\n      and\n        /* \"#utility.yul\":11051:11076   */\n      swap2\n      pop\n        /* \"#utility.yul\":10964:11082   */\n      pop\n        /* \"#utility.yul\":10913:11082   */\n      swap3\n      swap2\n      pop\n      pop\n      jump\t// out\n        /* \"#utility.yul\":11087:11382   */\n    tag_120:\n        /* \"#utility.yul\":11163:11167   */\n      0x00\n        /* \"#utility.yul\":11309:11338   */\n      tag_250\n        /* \"#utility.yul\":11334:11337   */\n      dup4\n        /* \"#utility.yul\":11328:11332   */\n      dup4\n        /* \"#utility.yul\":11309:11338   */\n      tag_119\n      jump\t// in\n    tag_250:\n        /* \"#utility.yul\":11301:11338   */\n      swap2\n      pop\n        /* \"#utility.yul\":11371:11374   */\n      dup3\n        /* \"#utility.yul\":11368:11369   */\n      0x02\n        /* \"#utility.yul\":11364:11375   */\n      mul\n        /* \"#utility.yul\":11358:11362   */\n      dup3\n        /* \"#utility.yul\":11355:11376   */\n      or\n        /* \"#utility.yul\":11347:11376   */\n      swap1\n      pop\n        /* \"#utility.yul\":11087:11382   */\n      swap3\n      swap2\n      pop\n      pop\n      jump\t// out\n        /* \"#utility.yul\":11387:12782   */\n    tag_50:\n        /* \"#utility.yul\":11504:11541   */\n      tag_252\n        /* \"#utility.yul\":11537:11540   */\n      dup3\n        /* \"#utility.yul\":11504:11541   */\n      tag_95\n      jump\t// in\n    tag_252:\n        /* \"#utility.yul\":11606:11624   */\n      0xffffffffffffffff\n        /* \"#utility.yul\":11598:11604   */\n      dup2\n        /* \"#utility.yul\":11595:11625   */\n      gt\n        /* \"#utility.yul\":11592:11648   */\n      iszero\n      tag_253\n      jumpi\n        /* \"#utility.yul\":11628:11646   */\n      tag_254\n      tag_88\n      jump\t// in\n    tag_254:\n        /* \"#utility.yul\":11592:11648   */\n    tag_253:\n        /* \"#utility.yul\":11672:11710   */\n      tag_255\n        /* \"#utility.yul\":11704:11708   */\n      dup3\n        /* \"#utility.yul\":11698:11709   */\n      sload\n        /* \"#utility.yul\":11672:11710   */\n      tag_39\n      jump\t// in\n    tag_255:\n        /* \"#utility.yul\":11757:11824   */\n      tag_256\n        /* \"#utility.yul\":11817:11823   */\n      dup3\n        /* \"#utility.yul\":11809:11815   */\n      dup3\n        /* \"#utility.yul\":11803:11807   */\n      dup6\n        /* \"#utility.yul\":11757:11824   */\n      tag_117\n      jump\t// in\n    tag_256:\n        /* \"#utility.yul\":11851:11852   */\n      0x00\n        /* \"#utility.yul\":11875:11879   */\n      0x20\n        /* \"#utility.yul\":11862:11879   */\n      swap1\n      pop\n        /* \"#utility.yul\":11907:11909   */\n      0x1f\n        /* \"#utility.yul\":11899:11905   */\n      dup4\n        /* \"#utility.yul\":11896:11910   */\n      gt\n        /* \"#utility.yul\":11924:11925   */\n      0x01\n        /* \"#utility.yul\":11919:12537   */\n      dup2\n      eq\n      tag_258\n      jumpi\n        /* \"#utility.yul\":12581:12582   */\n      0x00\n        /* \"#utility.yul\":12598:12604   */\n      dup5\n        /* \"#utility.yul\":12595:12672   */\n      iszero\n      tag_259\n      jumpi\n        /* \"#utility.yul\":12647:12656   */\n      dup3\n        /* \"#utility.yul\":12642:12645   */\n      dup8\n        /* \"#utility.yul\":12638:12657   */\n      add\n        /* \"#utility.yul\":12632:12658   */\n      mload\n        /* \"#utility.yul\":12623:12658   */\n      swap1\n      pop\n        /* \"#utility.yul\":12595:12672   */\n    tag_259:\n        /* \"#utility.yul\":12698:12765   */\n      tag_260\n        /* \"#utility.yul\":12758:12764   */\n      dup6\n        /* \"#utility.yul\":12751:12756   */\n      dup3\n        /* \"#utility.yul\":12698:12765   */\n      tag_120\n      jump\t// in\n    tag_260:\n        /* \"#utility.yul\":12692:12696   */\n      dup7\n        /* \"#utility.yul\":12685:12766   */\n      sstore\n        /* \"#utility.yul\":12554:12776   */\n      pop\n        /* \"#utility.yul\":11889:12776   */\n      jump(tag_257)\n        /* \"#utility.yul\":11919:12537   */\n    tag_258:\n        /* \"#utility.yul\":11971:11975   */\n      0x1f\n        /* \"#utility.yul\":11967:11976   */\n      not\n        /* \"#utility.yul\":11959:11965   */\n      dup5\n        /* \"#utility.yul\":11955:11977   */\n      and\n        /* \"#utility.yul\":12005:12042   */\n      tag_261\n        /* \"#utility.yul\":12037:12041   */\n      dup7\n        /* \"#utility.yul\":12005:12042   */\n      tag_106\n      jump\t// in\n    tag_261:\n        /* \"#utility.yul\":12064:12065   */\n      0x00\n        /* \"#utility.yul\":12078:12286   */\n    tag_262:\n        /* \"#utility.yul\":12092:12099   */\n      dup3\n        /* \"#utility.yul\":12089:12090   */\n      dup2\n        /* \"#utility.yul\":12086:12100   */\n      lt\n        /* \"#utility.yul\":12078:12286   */\n      iszero\n      tag_264\n      jumpi\n        /* \"#utility.yul\":12171:12180   */\n      dup5\n        /* \"#utility.yul\":12166:12169   */\n      dup10\n        /* \"#utility.yul\":12162:12181   */\n      add\n        /* \"#utility.yul\":12156:12182   */\n      mload\n        /* \"#utility.yul\":12148:12154   */\n      dup3\n        /* \"#utility.yul\":12141:12183   */\n      sstore\n        /* \"#utility.yul\":12222:12223   */\n      0x01\n        /* \"#utility.yul\":12214:12220   */\n      dup3\n        /* \"#utility.yul\":12210:12224   */\n      add\n        /* \"#utility.yul\":12200:12224   */\n      swap2\n      pop\n        /* \"#utility.yul\":12269:12271   */\n      0x20\n        /* \"#utility.yul\":12258:12267   */\n      dup6\n        /* \"#utility.yul\":12254:12272   */\n      add\n        /* \"#utility.yul\":12241:12272   */\n      swap5\n      pop\n        /* \"#utility.yul\":12115:12119   */\n      0x20\n        /* \"#utility.yul\":12112:12113   */\n      dup2\n        /* \"#utility.yul\":12108:12120   */\n      add\n        /* \"#utility.yul\":12103:12120   */\n      swap1\n      pop\n        /* \"#utility.yul\":12078:12286   */\n      jump(tag_262)\n    tag_264:\n        /* \"#utility.yul\":12314:12320   */\n      dup7\n        /* \"#utility.yul\":12305:12312   */\n      dup4\n        /* \"#utility.yul\":12302:12321   */\n      lt\n        /* \"#utility.yul\":12299:12478   */\n      iszero\n      tag_265\n      jumpi\n        /* \"#utility.yul\":12372:12381   */\n      dup5\n        /* \"#utility.yul\":12367:12370   */\n      dup10\n        /* \"#utility.yul\":12363:12382   */\n      add\n        /* \"#utility.yul\":12357:12383   */\n      mload\n        /* \"#utility.yul\":12415:12463   */\n      tag_266\n        /* \"#utility.yul\":12457:12461   */\n      0x1f\n        /* \"#utility.yul\":12449:12455   */\n      dup10\n        /* \"#utility.yul\":12445:12462   */\n      and\n        /* \"#utility.yul\":12434:12443   */\n      dup3\n        /* \"#utility.yul\":12415:12463   */\n      tag_119\n      jump\t// in\n    tag_266:\n        /* \"#utility.yul\":12407:12413   */\n      dup4\n        /* \"#utility.yul\":12400:12464   */\n      sstore\n        /* \"#utility.yul\":12322:12478   */\n      pop\n        /* \"#utility.yul\":12299:12478   */\n    tag_265:\n        /* \"#utility.yul\":12524:12525   */\n      0x01\n        /* \"#utility.yul\":12520:12521   */\n      0x02\n        /* \"#utility.yul\":12512:12518   */\n      dup9\n        /* \"#utility.yul\":12508:12522   */\n      mul\n        /* \"#utility.yul\":12504:12526   */\n      add\n        /* \"#utility.yul\":12498:12502   */\n      dup9\n        /* \"#utility.yul\":12491:12527   */\n      sstore\n        /* \"#utility.yul\":11926:12537   */\n      pop\n      pop\n      pop\n        /* \"#utility.yul\":11889:12776   */\n    tag_257:\n      pop\n        /* \"#utility.yul\":11479:12782   */\n      pop\n      pop\n      pop\n        /* \"#utility.yul\":11387:12782   */\n      pop\n      pop\n      jump\t// out\n        /* \"#utility.yul\":12788:13211   */\n    tag_55:\n        /* \"#utility.yul\":12929:12933   */\n      0x00\n        /* \"#utility.yul\":12967:12969   */\n      0x40\n        /* \"#utility.yul\":12956:12965   */\n      dup3\n        /* \"#utility.yul\":12952:12970   */\n      add\n        /* \"#utility.yul\":12944:12970   */\n      swap1\n      pop\n        /* \"#utility.yul\":12980:13051   */\n      tag_268\n        /* \"#utility.yul\":13048:13049   */\n      0x00\n        /* \"#utility.yul\":13037:13046   */\n      dup4\n        /* \"#utility.yul\":13033:13050   */\n      add\n        /* \"#utility.yul\":13024:13030   */\n      dup6\n        /* \"#utility.yul\":12980:13051   */\n      tag_82\n      jump\t// in\n    tag_268:\n        /* \"#utility.yul\":13098:13107   */\n      dup2\n        /* \"#utility.yul\":13092:13096   */\n      dup2\n        /* \"#utility.yul\":13088:13108   */\n      sub\n        /* \"#utility.yul\":13083:13085   */\n      0x20\n        /* \"#utility.yul\":13072:13081   */\n      dup4\n        /* \"#utility.yul\":13068:13086   */\n      add\n        /* \"#utility.yul\":13061:13109   */\n      mstore\n        /* \"#utility.yul\":13126:13204   */\n      tag_269\n        /* \"#utility.yul\":13199:13203   */\n      dup2\n        /* \"#utility.yul\":13190:13196   */\n      dup5\n        /* \"#utility.yul\":13126:13204   */\n      tag_98\n      jump\t// in\n    tag_269:\n        /* \"#utility.yul\":13118:13204   */\n      swap1\n      pop\n        /* \"#utility.yul\":12788:13211   */\n      swap4\n      swap3\n      pop\n      pop\n      pop\n      jump\t// out\n        /* \"#utility.yul\":13217:13397   */\n    tag_121:\n        /* \"#utility.yul\":13265:13342   */\n      0x4e487b7100000000000000000000000000000000000000000000000000000000\n        /* \"#utility.yul\":13262:13263   */\n      0x00\n        /* \"#utility.yul\":13255:13343   */\n      mstore\n        /* \"#utility.yul\":13362:13366   */\n      0x11\n        /* \"#utility.yul\":13359:13360   */\n      0x04\n        /* \"#utility.yul\":13352:13367   */\n      mstore\n        /* \"#utility.yul\":13386:13390   */\n      0x24\n        /* \"#utility.yul\":13383:13384   */\n      0x00\n        /* \"#utility.yul\":13376:13391   */\n      revert\n        /* \"#utility.yul\":13403:13636   */\n    tag_57:\n        /* \"#utility.yul\":13442:13445   */\n      0x00\n        /* \"#utility.yul\":13465:13489   */\n      tag_272\n        /* \"#utility.yul\":13483:13488   */\n      dup3\n        /* \"#utility.yul\":13465:13489   */\n      tag_79\n      jump\t// in\n    tag_272:\n        /* \"#utility.yul\":13456:13489   */\n      swap2\n      pop\n        /* \"#utility.yul\":13511:13577   */\n      0xffffffffffffffffffffffffffffffffffffffffffffffffffffffffffffffff\n        /* \"#utility.yul\":13504:13509   */\n      dup3\n        /* \"#utility.yul\":13501:13578   */\n      sub\n        /* \"#utility.yul\":13498:13601   */\n      tag_273\n      jumpi\n        /* \"#utility.yul\":13581:13599   */\n      tag_274\n      tag_121\n      jump\t// in\n    tag_274:\n        /* \"#utility.yul\":13498:13601   */\n    tag_273:\n        /* \"#utility.yul\":13628:13629   */\n      0x01\n        /* \"#utility.yul\":13621:13626   */\n      dup3\n        /* \"#utility.yul\":13617:13630   */\n      add\n        /* \"#utility.yul\":13610:13630   */\n      swap1\n      pop\n        /* \"#utility.yul\":13403:13636   */\n      swap2\n      swap1\n      pop\n      jump\t// out\n\n    auxdata: 0xa2646970667358221220cf76ae9b8a3288b6c0c0a4ce16872a49986d36f848173fae04cd3d69508d451864736f6c634300081a0033\n}\n",
				"bytecode": {
					"linkReferences": {},
					"object": "608060405260016002553480156013575f80fd5b50610cdd806100215f395ff3fe608060405234801561000f575f80fd5b5060043610610060575f3560e01c806303c5c31f146100645780633a1b3d311461009457806361b8ce8c146100b057806395ffebf5146100ce578063bc8bc2b4146100ea578063dd68afb61461011c575b5f80fd5b61007e6004803603810190610079919061058e565b61014e565b60405161008b91906105c8565b60405180910390f35b6100ae60048036038101906100a99190610604565b61016e565b005b6100b861020d565b6040516100c591906105c8565b60405180910390f35b6100e860048036038101906100e3919061077e565b610213565b005b61010460048036038101906100ff919061058e565b610321565b60405161011393929190610898565b60405180910390f35b6101366004803603810190610131919061058e565b6103d8565b60405161014593929190610898565b60405180910390f35b6001818154811061015d575f80fd5b905f5260205f20015f915090505481565b5f805f8481526020019081526020015f20600101805461018d90610901565b9050116101cf576040517f08c379a00000000000000000000000000000000000000000000000000000000081526004016101c69061097b565b60405180910390fd5b805f808481526020019081526020015f206002015f6101000a81548160ff0219169083600281111561020457610203610825565b5b02179055505050565b60025481565b604051806060016040528060025481526020018281526020015f600281111561023f5761023e610825565b5b8152505f8060025481526020019081526020015f205f820151815f015560208201518160010190816102719190610b36565b506040820151816002015f6101000a81548160ff0219169083600281111561029c5761029b610825565b5b02179055509050506001600254908060018154018082558091505060019003905f5260205f20015f90919091909150557f606222d2d9b2ffe82e59c226d772a363312cfce0027119e88e27c4db155e882d600254826040516102ff929190610c05565b60405180910390a160025f81548092919061031990610c60565b919050555050565b5f602052805f5260405f205f91509050805f01549080600101805461034590610901565b80601f016020809104026020016040519081016040528092919081815260200182805461037190610901565b80156103bc5780601f10610393576101008083540402835291602001916103bc565b820191905f5260205f20905b81548152906001019060200180831161039f57829003601f168201915b505050505090806002015f9054906101000a900460ff16905083565b5f60605f805f808681526020019081526020015f2060010180546103fb90610901565b90501161043d576040517f08c379a00000000000000000000000000000000000000000000000000000000081526004016104349061097b565b60405180910390fd5b5f805f8681526020019081526020015f206040518060600160405290815f820154815260200160018201805461047290610901565b80601f016020809104026020016040519081016040528092919081815260200182805461049e90610901565b80156104e95780601f106104c0576101008083540402835291602001916104e9565b820191905f5260205f20905b8154815290600101906020018083116104cc57829003601f168201915b50505050508152602001600282015f9054906101000a900460ff16600281111561051657610515610825565b5b600281111561052857610527610825565b5b815250509050805f015181602001518260400151935093509350509193909250565b5f604051905090565b5f80fd5b5f80fd5b5f819050919050565b61056d8161055b565b8114610577575f80fd5b50565b5f8135905061058881610564565b92915050565b5f602082840312156105a3576105a2610553565b5b5f6105b08482850161057a565b91505092915050565b6105c28161055b565b82525050565b5f6020820190506105db5f8301846105b9565b92915050565b600381106105ed575f80fd5b50565b5f813590506105fe816105e1565b92915050565b5f806040838503121561061a57610619610553565b5b5f6106278582860161057a565b9250506020610638858286016105f0565b9150509250929050565b5f80fd5b5f80fd5b5f601f19601f8301169050919050565b7f4e487b71000000000000000000000000000000000000000000000000000000005f52604160045260245ffd5b6106908261064a565b810181811067ffffffffffffffff821117156106af576106ae61065a565b5b80604052505050565b5f6106c161054a565b90506106cd8282610687565b919050565b5f67ffffffffffffffff8211156106ec576106eb61065a565b5b6106f58261064a565b9050602081019050919050565b828183375f83830152505050565b5f61072261071d846106d2565b6106b8565b90508281526020810184848401111561073e5761073d610646565b5b610749848285610702565b509392505050565b5f82601f83011261076557610764610642565b5b8135610775848260208601610710565b91505092915050565b5f6020828403121561079357610792610553565b5b5f82013567ffffffffffffffff8111156107b0576107af610557565b5b6107bc84828501610751565b91505092915050565b5f81519050919050565b5f82825260208201905092915050565b8281835e5f83830152505050565b5f6107f7826107c5565b61080181856107cf565b93506108118185602086016107df565b61081a8161064a565b840191505092915050565b7f4e487b71000000000000000000000000000000000000000000000000000000005f52602160045260245ffd5b6003811061086357610862610825565b5b50565b5f81905061087382610852565b919050565b5f61088282610866565b9050919050565b61089281610878565b82525050565b5f6060820190506108ab5f8301866105b9565b81810360208301526108bd81856107ed565b90506108cc6040830184610889565b949350505050565b7f4e487b71000000000000000000000000000000000000000000000000000000005f52602260045260245ffd5b5f600282049050600182168061091857607f821691505b60208210810361092b5761092a6108d4565b5b50919050565b7f546f646f20646f6573206e6f742065786973742e0000000000000000000000005f82015250565b5f6109656014836107cf565b915061097082610931565b602082019050919050565b5f6020820190508181035f83015261099281610959565b9050919050565b5f819050815f5260205f209050919050565b5f6020601f8301049050919050565b5f82821b905092915050565b5f600883026109f57fffffffffffffffffffffffffffffffffffffffffffffffffffffffffffffffff826109ba565b6109ff86836109ba565b95508019841693508086168417925050509392505050565b5f819050919050565b5f610a3a610a35610a308461055b565b610a17565b61055b565b9050919050565b5f819050919050565b610a5383610a20565b610a67610a5f82610a41565b8484546109c6565b825550505050565b5f90565b610a7b610a6f565b610a86818484610a4a565b505050565b5b81811015610aa957610a9e5f82610a73565b600181019050610a8c565b5050565b601f821115610aee57610abf81610999565b610ac8846109ab565b81016020851015610ad7578190505b610aeb610ae3856109ab565b830182610a8b565b50505b505050565b5f82821c905092915050565b5f610b0e5f1984600802610af3565b1980831691505092915050565b5f610b268383610aff565b9150826002028217905092915050565b610b3f826107c5565b67ffffffffffffffff811115610b5857610b5761065a565b5b610b628254610901565b610b6d828285610aad565b5f60209050601f831160018114610b9e575f8415610b8c578287015190505b610b968582610b1b565b865550610bfd565b601f198416610bac86610999565b5f5b82811015610bd357848901518255600182019150602085019450602081019050610bae565b86831015610bf05784890151610bec601f891682610aff565b8355505b6001600288020188555050505b505050505050565b5f604082019050610c185f8301856105b9565b8181036020830152610c2a81846107ed565b90509392505050565b7f4e487b71000000000000000000000000000000000000000000000000000000005f52601160045260245ffd5b5f610c6a8261055b565b91507fffffffffffffffffffffffffffffffffffffffffffffffffffffffffffffffff8203610c9c57610c9b610c33565b5b60018201905091905056fea2646970667358221220cf76ae9b8a3288b6c0c0a4ce16872a49986d36f848173fae04cd3d69508d451864736f6c634300081a0033",
					"opcodes": "PUSH1 0x80 PUSH1 0x40 MSTORE PUSH1 0x1 PUSH1 0x2 SSTORE CALLVALUE DUP1 ISZERO PUSH1 0x13 JUMPI PUSH0 DUP1 REVERT JUMPDEST POP PUSH2 0xCDD DUP1 PUSH2 0x21 PUSH0 CODECOPY PUSH0 RETURN INVALID PUSH1 0x80 PUSH1 0x40 MSTORE CALLVALUE DUP1 ISZERO PUSH2 0xF JUMPI PUSH0 DUP1 REVERT JUMPDEST POP PUSH1 0x4 CALLDATASIZE LT PUSH2 0x60 JUMPI PUSH0 CALLDATALOAD PUSH1 0xE0 SHR DUP1 PUSH4 0x3C5C31F EQ PUSH2 0x64 JUMPI DUP1 PUSH4 0x3A1B3D31 EQ PUSH2 0x94 JUMPI DUP1 PUSH4 0x61B8CE8C EQ PUSH2 0xB0 JUMPI DUP1 PUSH4 0x95FFEBF5 EQ PUSH2 0xCE JUMPI DUP1 PUSH4 0xBC8BC2B4 EQ PUSH2 0xEA JUMPI DUP1 PUSH4 0xDD68AFB6 EQ PUSH2 0x11C JUMPI JUMPDEST PUSH0 DUP1 REVERT JUMPDEST PUSH2 0x7E PUSH1 0x4 DUP1 CALLDATASIZE SUB DUP2 ADD SWAP1 PUSH2 0x79 SWAP2 SWAP1 PUSH2 0x58E JUMP JUMPDEST PUSH2 0x14E JUMP JUMPDEST PUSH1 0x40 MLOAD PUSH2 0x8B SWAP2 SWAP1 PUSH2 0x5C8 JUMP JUMPDEST PUSH1 0x40 MLOAD DUP1 SWAP2 SUB SWAP1 RETURN JUMPDEST PUSH2 0xAE PUSH1 0x4 DUP1 CALLDATASIZE SUB DUP2 ADD SWAP1 PUSH2 0xA9 SWAP2 SWAP1 PUSH2 0x604 JUMP JUMPDEST PUSH2 0x16E JUMP JUMPDEST STOP JUMPDEST PUSH2 0xB8 PUSH2 0x20D JUMP JUMPDEST PUSH1 0x40 MLOAD PUSH2 0xC5 SWAP2 SWAP1 PUSH2 0x5C8 JUMP JUMPDEST PUSH1 0x40 MLOAD DUP1 SWAP2 SUB SWAP1 RETURN JUMPDEST PUSH2 0xE8 PUSH1 0x4 DUP1 CALLDATASIZE SUB DUP2 ADD SWAP1 PUSH2 0xE3 SWAP2 SWAP1 PUSH2 0x77E JUMP JUMPDEST PUSH2 0x213 JUMP JUMPDEST STOP JUMPDEST PUSH2 0x104 PUSH1 0x4 DUP1 CALLDATASIZE SUB DUP2 ADD SWAP1 PUSH2 0xFF SWAP2 SWAP1 PUSH2 0x58E JUMP JUMPDEST PUSH2 0x321 JUMP JUMPDEST PUSH1 0x40 MLOAD PUSH2 0x113 SWAP4 SWAP3 SWAP2 SWAP1 PUSH2 0x898 JUMP JUMPDEST PUSH1 0x40 MLOAD DUP1 SWAP2 SUB SWAP1 RETURN JUMPDEST PUSH2 0x136 PUSH1 0x4 DUP1 CALLDATASIZE SUB DUP2 ADD SWAP1 PUSH2 0x131 SWAP2 SWAP1 PUSH2 0x58E JUMP JUMPDEST PUSH2 0x3D8 JUMP JUMPDEST PUSH1 0x40 MLOAD PUSH2 0x145 SWAP4 SWAP3 SWAP2 SWAP1 PUSH2 0x898 JUMP JUMPDEST PUSH1 0x40 MLOAD DUP1 SWAP2 SUB SWAP1 RETURN JUMPDEST PUSH1 0x1 DUP2 DUP2 SLOAD DUP2 LT PUSH2 0x15D JUMPI PUSH0 DUP1 REVERT JUMPDEST SWAP1 PUSH0 MSTORE PUSH1 0x20 PUSH0 KECCAK256 ADD PUSH0 SWAP2 POP SWAP1 POP SLOAD DUP2 JUMP JUMPDEST PUSH0 DUP1 PUSH0 DUP5 DUP2 MSTORE PUSH1 0x20 ADD SWAP1 DUP2 MSTORE PUSH1 0x20 ADD PUSH0 KECCAK256 PUSH1 0x1 ADD DUP1 SLOAD PUSH2 0x18D SWAP1 PUSH2 0x901 JUMP JUMPDEST SWAP1 POP GT PUSH2 0x1CF JUMPI PUSH1 0x40 MLOAD PUSH32 0x8C379A000000000000000000000000000000000000000000000000000000000 DUP2 MSTORE PUSH1 0x4 ADD PUSH2 0x1C6 SWAP1 PUSH2 0x97B JUMP JUMPDEST PUSH1 0x40 MLOAD DUP1 SWAP2 SUB SWAP1 REVERT JUMPDEST DUP1 PUSH0 DUP1 DUP5 DUP2 MSTORE PUSH1 0x20 ADD SWAP1 DUP2 MSTORE PUSH1 0x20 ADD PUSH0 KECCAK256 PUSH1 0x2 ADD PUSH0 PUSH2 0x100 EXP DUP2 SLOAD DUP2 PUSH1 0xFF MUL NOT AND SWAP1 DUP4 PUSH1 0x2 DUP2 GT ISZERO PUSH2 0x204 JUMPI PUSH2 0x203 PUSH2 0x825 JUMP JUMPDEST JUMPDEST MUL OR SWAP1 SSTORE POP POP POP JUMP JUMPDEST PUSH1 0x2 SLOAD DUP2 JUMP JUMPDEST PUSH1 0x40 MLOAD DUP1 PUSH1 0x60 ADD PUSH1 0x40 MSTORE DUP1 PUSH1 0x2 SLOAD DUP2 MSTORE PUSH1 0x20 ADD DUP3 DUP2 MSTORE PUSH1 0x20 ADD PUSH0 PUSH1 0x2 DUP2 GT ISZERO PUSH2 0x23F JUMPI PUSH2 0x23E PUSH2 0x825 JUMP JUMPDEST JUMPDEST DUP2 MSTORE POP PUSH0 DUP1 PUSH1 0x2 SLOAD DUP2 MSTORE PUSH1 0x20 ADD SWAP1 DUP2 MSTORE PUSH1 0x20 ADD PUSH0 KECCAK256 PUSH0 DUP3 ADD MLOAD DUP2 PUSH0 ADD SSTORE PUSH1 0x20 DUP3 ADD MLOAD DUP2 PUSH1 0x1 ADD SWAP1 DUP2 PUSH2 0x271 SWAP2 SWAP1 PUSH2 0xB36 JUMP JUMPDEST POP PUSH1 0x40 DUP3 ADD MLOAD DUP2 PUSH1 0x2 ADD PUSH0 PUSH2 0x100 EXP DUP2 SLOAD DUP2 PUSH1 0xFF MUL NOT AND SWAP1 DUP4 PUSH1 0x2 DUP2 GT ISZERO PUSH2 0x29C JUMPI PUSH2 0x29B PUSH2 0x825 JUMP JUMPDEST JUMPDEST MUL OR SWAP1 SSTORE POP SWAP1 POP POP PUSH1 0x1 PUSH1 0x2 SLOAD SWAP1 DUP1 PUSH1 0x1 DUP2 SLOAD ADD DUP1 DUP3 SSTORE DUP1 SWAP2 POP POP PUSH1 0x1 SWAP1 SUB SWAP1 PUSH0 MSTORE PUSH1 0x20 PUSH0 KECCAK256 ADD PUSH0 SWAP1 SWAP2 SWAP1 SWAP2 SWAP1 SWAP2 POP SSTORE PUSH32 0x606222D2D9B2FFE82E59C226D772A363312CFCE0027119E88E27C4DB155E882D PUSH1 0x2 SLOAD DUP3 PUSH1 0x40 MLOAD PUSH2 0x2FF SWAP3 SWAP2 SWAP1 PUSH2 0xC05 JUMP JUMPDEST PUSH1 0x40 MLOAD DUP1 SWAP2 SUB SWAP1 LOG1 PUSH1 0x2 PUSH0 DUP2 SLOAD DUP1 SWAP3 SWAP2 SWAP1 PUSH2 0x319 SWAP1 PUSH2 0xC60 JUMP JUMPDEST SWAP2 SWAP1 POP SSTORE POP POP JUMP JUMPDEST PUSH0 PUSH1 0x20 MSTORE DUP1 PUSH0 MSTORE PUSH1 0x40 PUSH0 KECCAK256 PUSH0 SWAP2 POP SWAP1 POP DUP1 PUSH0 ADD SLOAD SWAP1 DUP1 PUSH1 0x1 ADD DUP1 SLOAD PUSH2 0x345 SWAP1 PUSH2 0x901 JUMP JUMPDEST DUP1 PUSH1 0x1F ADD PUSH1 0x20 DUP1 SWAP2 DIV MUL PUSH1 0x20 ADD PUSH1 0x40 MLOAD SWAP1 DUP2 ADD PUSH1 0x40 MSTORE DUP1 SWAP3 SWAP2 SWAP1 DUP2 DUP2 MSTORE PUSH1 0x20 ADD DUP3 DUP1 SLOAD PUSH2 0x371 SWAP1 PUSH2 0x901 JUMP JUMPDEST DUP1 ISZERO PUSH2 0x3BC JUMPI DUP1 PUSH1 0x1F LT PUSH2 0x393 JUMPI PUSH2 0x100 DUP1 DUP4 SLOAD DIV MUL DUP4 MSTORE SWAP2 PUSH1 0x20 ADD SWAP2 PUSH2 0x3BC JUMP JUMPDEST DUP3 ADD SWAP2 SWAP1 PUSH0 MSTORE PUSH1 0x20 PUSH0 KECCAK256 SWAP1 JUMPDEST DUP2 SLOAD DUP2 MSTORE SWAP1 PUSH1 0x1 ADD SWAP1 PUSH1 0x20 ADD DUP1 DUP4 GT PUSH2 0x39F JUMPI DUP3 SWAP1 SUB PUSH1 0x1F AND DUP3 ADD SWAP2 JUMPDEST POP POP POP POP POP SWAP1 DUP1 PUSH1 0x2 ADD PUSH0 SWAP1 SLOAD SWAP1 PUSH2 0x100 EXP SWAP1 DIV PUSH1 0xFF AND SWAP1 POP DUP4 JUMP JUMPDEST PUSH0 PUSH1 0x60 PUSH0 DUP1 PUSH0 DUP1 DUP7 DUP2 MSTORE PUSH1 0x20 ADD SWAP1 DUP2 MSTORE PUSH1 0x20 ADD PUSH0 KECCAK256 PUSH1 0x1 ADD DUP1 SLOAD PUSH2 0x3FB SWAP1 PUSH2 0x901 JUMP JUMPDEST SWAP1 POP GT PUSH2 0x43D JUMPI PUSH1 0x40 MLOAD PUSH32 0x8C379A000000000000000000000000000000000000000000000000000000000 DUP2 MSTORE PUSH1 0x4 ADD PUSH2 0x434 SWAP1 PUSH2 0x97B JUMP JUMPDEST PUSH1 0x40 MLOAD DUP1 SWAP2 SUB SWAP1 REVERT JUMPDEST PUSH0 DUP1 PUSH0 DUP7 DUP2 MSTORE PUSH1 0x20 ADD SWAP1 DUP2 MSTORE PUSH1 0x20 ADD PUSH0 KECCAK256 PUSH1 0x40 MLOAD DUP1 PUSH1 0x60 ADD PUSH1 0x40 MSTORE SWAP1 DUP2 PUSH0 DUP3 ADD SLOAD DUP2 MSTORE PUSH1 0x20 ADD PUSH1 0x1 DUP3 ADD DUP1 SLOAD PUSH2 0x472 SWAP1 PUSH2 0x901 JUMP JUMPDEST DUP1 PUSH1 0x1F ADD PUSH1 0x20 DUP1 SWAP2 DIV MUL PUSH1 0x20 ADD PUSH1 0x40 MLOAD SWAP1 DUP2 ADD PUSH1 0x40 MSTORE DUP1 SWAP3 SWAP2 SWAP1 DUP2 DUP2 MSTORE PUSH1 0x20 ADD DUP3 DUP1 SLOAD PUSH2 0x49E SWAP1 PUSH2 0x901 JUMP JUMPDEST DUP1 ISZERO PUSH2 0x4E9 JUMPI DUP1 PUSH1 0x1F LT PUSH2 0x4C0 JUMPI PUSH2 0x100 DUP1 DUP4 SLOAD DIV MUL DUP4 MSTORE SWAP2 PUSH1 0x20 ADD SWAP2 PUSH2 0x4E9 JUMP JUMPDEST DUP3 ADD SWAP2 SWAP1 PUSH0 MSTORE PUSH1 0x20 PUSH0 KECCAK256 SWAP1 JUMPDEST DUP2 SLOAD DUP2 MSTORE SWAP1 PUSH1 0x1 ADD SWAP1 PUSH1 0x20 ADD DUP1 DUP4 GT PUSH2 0x4CC JUMPI DUP3 SWAP1 SUB PUSH1 0x1F AND DUP3 ADD SWAP2 JUMPDEST POP POP POP POP POP DUP2 MSTORE PUSH1 0x20 ADD PUSH1 0x2 DUP3 ADD PUSH0 SWAP1 SLOAD SWAP1 PUSH2 0x100 EXP SWAP1 DIV PUSH1 0xFF AND PUSH1 0x2 DUP2 GT ISZERO PUSH2 0x516 JUMPI PUSH2 0x515 PUSH2 0x825 JUMP JUMPDEST JUMPDEST PUSH1 0x2 DUP2 GT ISZERO PUSH2 0x528 JUMPI PUSH2 0x527 PUSH2 0x825 JUMP JUMPDEST JUMPDEST DUP2 MSTORE POP POP SWAP1 POP DUP1 PUSH0 ADD MLOAD DUP2 PUSH1 0x20 ADD MLOAD DUP3 PUSH1 0x40 ADD MLOAD SWAP4 POP SWAP4 POP SWAP4 POP POP SWAP2 SWAP4 SWAP1 SWAP3 POP JUMP JUMPDEST PUSH0 PUSH1 0x40 MLOAD SWAP1 POP SWAP1 JUMP JUMPDEST PUSH0 DUP1 REVERT JUMPDEST PUSH0 DUP1 REVERT JUMPDEST PUSH0 DUP2 SWAP1 POP SWAP2 SWAP1 POP JUMP JUMPDEST PUSH2 0x56D DUP2 PUSH2 0x55B JUMP JUMPDEST DUP2 EQ PUSH2 0x577 JUMPI PUSH0 DUP1 REVERT JUMPDEST POP JUMP JUMPDEST PUSH0 DUP2 CALLDATALOAD SWAP1 POP PUSH2 0x588 DUP2 PUSH2 0x564 JUMP JUMPDEST SWAP3 SWAP2 POP POP JUMP JUMPDEST PUSH0 PUSH1 0x20 DUP3 DUP5 SUB SLT ISZERO PUSH2 0x5A3 JUMPI PUSH2 0x5A2 PUSH2 0x553 JUMP JUMPDEST JUMPDEST PUSH0 PUSH2 0x5B0 DUP5 DUP3 DUP6 ADD PUSH2 0x57A JUMP JUMPDEST SWAP2 POP POP SWAP3 SWAP2 POP POP JUMP JUMPDEST PUSH2 0x5C2 DUP2 PUSH2 0x55B JUMP JUMPDEST DUP3 MSTORE POP POP JUMP JUMPDEST PUSH0 PUSH1 0x20 DUP3 ADD SWAP1 POP PUSH2 0x5DB PUSH0 DUP4 ADD DUP5 PUSH2 0x5B9 JUMP JUMPDEST SWAP3 SWAP2 POP POP JUMP JUMPDEST PUSH1 0x3 DUP2 LT PUSH2 0x5ED JUMPI PUSH0 DUP1 REVERT JUMPDEST POP JUMP JUMPDEST PUSH0 DUP2 CALLDATALOAD SWAP1 POP PUSH2 0x5FE DUP2 PUSH2 0x5E1 JUMP JUMPDEST SWAP3 SWAP2 POP POP JUMP JUMPDEST PUSH0 DUP1 PUSH1 0x40 DUP4 DUP6 SUB SLT ISZERO PUSH2 0x61A JUMPI PUSH2 0x619 PUSH2 0x553 JUMP JUMPDEST JUMPDEST PUSH0 PUSH2 0x627 DUP6 DUP3 DUP7 ADD PUSH2 0x57A JUMP JUMPDEST SWAP3 POP POP PUSH1 0x20 PUSH2 0x638 DUP6 DUP3 DUP7 ADD PUSH2 0x5F0 JUMP JUMPDEST SWAP2 POP POP SWAP3 POP SWAP3 SWAP1 POP JUMP JUMPDEST PUSH0 DUP1 REVERT JUMPDEST PUSH0 DUP1 REVERT JUMPDEST PUSH0 PUSH1 0x1F NOT PUSH1 0x1F DUP4 ADD AND SWAP1 POP SWAP2 SWAP1 POP JUMP JUMPDEST PUSH32 0x4E487B7100000000000000000000000000000000000000000000000000000000 PUSH0 MSTORE PUSH1 0x41 PUSH1 0x4 MSTORE PUSH1 0x24 PUSH0 REVERT JUMPDEST PUSH2 0x690 DUP3 PUSH2 0x64A JUMP JUMPDEST DUP2 ADD DUP2 DUP2 LT PUSH8 0xFFFFFFFFFFFFFFFF DUP3 GT OR ISZERO PUSH2 0x6AF JUMPI PUSH2 0x6AE PUSH2 0x65A JUMP JUMPDEST JUMPDEST DUP1 PUSH1 0x40 MSTORE POP POP POP JUMP JUMPDEST PUSH0 PUSH2 0x6C1 PUSH2 0x54A JUMP JUMPDEST SWAP1 POP PUSH2 0x6CD DUP3 DUP3 PUSH2 0x687 JUMP JUMPDEST SWAP2 SWAP1 POP JUMP JUMPDEST PUSH0 PUSH8 0xFFFFFFFFFFFFFFFF DUP3 GT ISZERO PUSH2 0x6EC JUMPI PUSH2 0x6EB PUSH2 0x65A JUMP JUMPDEST JUMPDEST PUSH2 0x6F5 DUP3 PUSH2 0x64A JUMP JUMPDEST SWAP1 POP PUSH1 0x20 DUP2 ADD SWAP1 POP SWAP2 SWAP1 POP JUMP JUMPDEST DUP3 DUP2 DUP4 CALLDATACOPY PUSH0 DUP4 DUP4 ADD MSTORE POP POP POP JUMP JUMPDEST PUSH0 PUSH2 0x722 PUSH2 0x71D DUP5 PUSH2 0x6D2 JUMP JUMPDEST PUSH2 0x6B8 JUMP JUMPDEST SWAP1 POP DUP3 DUP2 MSTORE PUSH1 0x20 DUP2 ADD DUP5 DUP5 DUP5 ADD GT ISZERO PUSH2 0x73E JUMPI PUSH2 0x73D PUSH2 0x646 JUMP JUMPDEST JUMPDEST PUSH2 0x749 DUP5 DUP3 DUP6 PUSH2 0x702 JUMP JUMPDEST POP SWAP4 SWAP3 POP POP POP JUMP JUMPDEST PUSH0 DUP3 PUSH1 0x1F DUP4 ADD SLT PUSH2 0x765 JUMPI PUSH2 0x764 PUSH2 0x642 JUMP JUMPDEST JUMPDEST DUP2 CALLDATALOAD PUSH2 0x775 DUP5 DUP3 PUSH1 0x20 DUP7 ADD PUSH2 0x710 JUMP JUMPDEST SWAP2 POP POP SWAP3 SWAP2 POP POP JUMP JUMPDEST PUSH0 PUSH1 0x20 DUP3 DUP5 SUB SLT ISZERO PUSH2 0x793 JUMPI PUSH2 0x792 PUSH2 0x553 JUMP JUMPDEST JUMPDEST PUSH0 DUP3 ADD CALLDATALOAD PUSH8 0xFFFFFFFFFFFFFFFF DUP2 GT ISZERO PUSH2 0x7B0 JUMPI PUSH2 0x7AF PUSH2 0x557 JUMP JUMPDEST JUMPDEST PUSH2 0x7BC DUP5 DUP3 DUP6 ADD PUSH2 0x751 JUMP JUMPDEST SWAP2 POP POP SWAP3 SWAP2 POP POP JUMP JUMPDEST PUSH0 DUP2 MLOAD SWAP1 POP SWAP2 SWAP1 POP JUMP JUMPDEST PUSH0 DUP3 DUP3 MSTORE PUSH1 0x20 DUP3 ADD SWAP1 POP SWAP3 SWAP2 POP POP JUMP JUMPDEST DUP3 DUP2 DUP4 MCOPY PUSH0 DUP4 DUP4 ADD MSTORE POP POP POP JUMP JUMPDEST PUSH0 PUSH2 0x7F7 DUP3 PUSH2 0x7C5 JUMP JUMPDEST PUSH2 0x801 DUP2 DUP6 PUSH2 0x7CF JUMP JUMPDEST SWAP4 POP PUSH2 0x811 DUP2 DUP6 PUSH1 0x20 DUP7 ADD PUSH2 0x7DF JUMP JUMPDEST PUSH2 0x81A DUP2 PUSH2 0x64A JUMP JUMPDEST DUP5 ADD SWAP2 POP POP SWAP3 SWAP2 POP POP JUMP JUMPDEST PUSH32 0x4E487B7100000000000000000000000000000000000000000000000000000000 PUSH0 MSTORE PUSH1 0x21 PUSH1 0x4 MSTORE PUSH1 0x24 PUSH0 REVERT JUMPDEST PUSH1 0x3 DUP2 LT PUSH2 0x863 JUMPI PUSH2 0x862 PUSH2 0x825 JUMP JUMPDEST JUMPDEST POP JUMP JUMPDEST PUSH0 DUP2 SWAP1 POP PUSH2 0x873 DUP3 PUSH2 0x852 JUMP JUMPDEST SWAP2 SWAP1 POP JUMP JUMPDEST PUSH0 PUSH2 0x882 DUP3 PUSH2 0x866 JUMP JUMPDEST SWAP1 POP SWAP2 SWAP1 POP JUMP JUMPDEST PUSH2 0x892 DUP2 PUSH2 0x878 JUMP JUMPDEST DUP3 MSTORE POP POP JUMP JUMPDEST PUSH0 PUSH1 0x60 DUP3 ADD SWAP1 POP PUSH2 0x8AB PUSH0 DUP4 ADD DUP7 PUSH2 0x5B9 JUMP JUMPDEST DUP2 DUP2 SUB PUSH1 0x20 DUP4 ADD MSTORE PUSH2 0x8BD DUP2 DUP6 PUSH2 0x7ED JUMP JUMPDEST SWAP1 POP PUSH2 0x8CC PUSH1 0x40 DUP4 ADD DUP5 PUSH2 0x889 JUMP JUMPDEST SWAP5 SWAP4 POP POP POP POP JUMP JUMPDEST PUSH32 0x4E487B7100000000000000000000000000000000000000000000000000000000 PUSH0 MSTORE PUSH1 0x22 PUSH1 0x4 MSTORE PUSH1 0x24 PUSH0 REVERT JUMPDEST PUSH0 PUSH1 0x2 DUP3 DIV SWAP1 POP PUSH1 0x1 DUP3 AND DUP1 PUSH2 0x918 JUMPI PUSH1 0x7F DUP3 AND SWAP2 POP JUMPDEST PUSH1 0x20 DUP3 LT DUP2 SUB PUSH2 0x92B JUMPI PUSH2 0x92A PUSH2 0x8D4 JUMP JUMPDEST JUMPDEST POP SWAP2 SWAP1 POP JUMP JUMPDEST PUSH32 0x546F646F20646F6573206E6F742065786973742E000000000000000000000000 PUSH0 DUP3 ADD MSTORE POP JUMP JUMPDEST PUSH0 PUSH2 0x965 PUSH1 0x14 DUP4 PUSH2 0x7CF JUMP JUMPDEST SWAP2 POP PUSH2 0x970 DUP3 PUSH2 0x931 JUMP JUMPDEST PUSH1 0x20 DUP3 ADD SWAP1 POP SWAP2 SWAP1 POP JUMP JUMPDEST PUSH0 PUSH1 0x20 DUP3 ADD SWAP1 POP DUP2 DUP2 SUB PUSH0 DUP4 ADD MSTORE PUSH2 0x992 DUP2 PUSH2 0x959 JUMP JUMPDEST SWAP1 POP SWAP2 SWAP1 POP JUMP JUMPDEST PUSH0 DUP2 SWAP1 POP DUP2 PUSH0 MSTORE PUSH1 0x20 PUSH0 KECCAK256 SWAP1 POP SWAP2 SWAP1 POP JUMP JUMPDEST PUSH0 PUSH1 0x20 PUSH1 0x1F DUP4 ADD DIV SWAP1 POP SWAP2 SWAP1 POP JUMP JUMPDEST PUSH0 DUP3 DUP3 SHL SWAP1 POP SWAP3 SWAP2 POP POP JUMP JUMPDEST PUSH0 PUSH1 0x8 DUP4 MUL PUSH2 0x9F5 PUSH32 0xFFFFFFFFFFFFFFFFFFFFFFFFFFFFFFFFFFFFFFFFFFFFFFFFFFFFFFFFFFFFFFFF DUP3 PUSH2 0x9BA JUMP JUMPDEST PUSH2 0x9FF DUP7 DUP4 PUSH2 0x9BA JUMP JUMPDEST SWAP6 POP DUP1 NOT DUP5 AND SWAP4 POP DUP1 DUP7 AND DUP5 OR SWAP3 POP POP POP SWAP4 SWAP3 POP POP POP JUMP JUMPDEST PUSH0 DUP2 SWAP1 POP SWAP2 SWAP1 POP JUMP JUMPDEST PUSH0 PUSH2 0xA3A PUSH2 0xA35 PUSH2 0xA30 DUP5 PUSH2 0x55B JUMP JUMPDEST PUSH2 0xA17 JUMP JUMPDEST PUSH2 0x55B JUMP JUMPDEST SWAP1 POP SWAP2 SWAP1 POP JUMP JUMPDEST PUSH0 DUP2 SWAP1 POP SWAP2 SWAP1 POP JUMP JUMPDEST PUSH2 0xA53 DUP4 PUSH2 0xA20 JUMP JUMPDEST PUSH2 0xA67 PUSH2 0xA5F DUP3 PUSH2 0xA41 JUMP JUMPDEST DUP5 DUP5 SLOAD PUSH2 0x9C6 JUMP JUMPDEST DUP3 SSTORE POP POP POP POP JUMP JUMPDEST PUSH0 SWAP1 JUMP JUMPDEST PUSH2 0xA7B PUSH2 0xA6F JUMP JUMPDEST PUSH2 0xA86 DUP2 DUP5 DUP5 PUSH2 0xA4A JUMP JUMPDEST POP POP POP JUMP JUMPDEST JUMPDEST DUP2 DUP2 LT ISZERO PUSH2 0xAA9 JUMPI PUSH2 0xA9E PUSH0 DUP3 PUSH2 0xA73 JUMP JUMPDEST PUSH1 0x1 DUP2 ADD SWAP1 POP PUSH2 0xA8C JUMP JUMPDEST POP POP JUMP JUMPDEST PUSH1 0x1F DUP3 GT ISZERO PUSH2 0xAEE JUMPI PUSH2 0xABF DUP2 PUSH2 0x999 JUMP JUMPDEST PUSH2 0xAC8 DUP5 PUSH2 0x9AB JUMP JUMPDEST DUP2 ADD PUSH1 0x20 DUP6 LT ISZERO PUSH2 0xAD7 JUMPI DUP2 SWAP1 POP JUMPDEST PUSH2 0xAEB PUSH2 0xAE3 DUP6 PUSH2 0x9AB JUMP JUMPDEST DUP4 ADD DUP3 PUSH2 0xA8B JUMP JUMPDEST POP POP JUMPDEST POP POP POP JUMP JUMPDEST PUSH0 DUP3 DUP3 SHR SWAP1 POP SWAP3 SWAP2 POP POP JUMP JUMPDEST PUSH0 PUSH2 0xB0E PUSH0 NOT DUP5 PUSH1 0x8 MUL PUSH2 0xAF3 JUMP JUMPDEST NOT DUP1 DUP4 AND SWAP2 POP POP SWAP3 SWAP2 POP POP JUMP JUMPDEST PUSH0 PUSH2 0xB26 DUP4 DUP4 PUSH2 0xAFF JUMP JUMPDEST SWAP2 POP DUP3 PUSH1 0x2 MUL DUP3 OR SWAP1 POP SWAP3 SWAP2 POP POP JUMP JUMPDEST PUSH2 0xB3F DUP3 PUSH2 0x7C5 JUMP JUMPDEST PUSH8 0xFFFFFFFFFFFFFFFF DUP2 GT ISZERO PUSH2 0xB58 JUMPI PUSH2 0xB57 PUSH2 0x65A JUMP JUMPDEST JUMPDEST PUSH2 0xB62 DUP3 SLOAD PUSH2 0x901 JUMP JUMPDEST PUSH2 0xB6D DUP3 DUP3 DUP6 PUSH2 0xAAD JUMP JUMPDEST PUSH0 PUSH1 0x20 SWAP1 POP PUSH1 0x1F DUP4 GT PUSH1 0x1 DUP2 EQ PUSH2 0xB9E JUMPI PUSH0 DUP5 ISZERO PUSH2 0xB8C JUMPI DUP3 DUP8 ADD MLOAD SWAP1 POP JUMPDEST PUSH2 0xB96 DUP6 DUP3 PUSH2 0xB1B JUMP JUMPDEST DUP7 SSTORE POP PUSH2 0xBFD JUMP JUMPDEST PUSH1 0x1F NOT DUP5 AND PUSH2 0xBAC DUP7 PUSH2 0x999 JUMP JUMPDEST PUSH0 JUMPDEST DUP3 DUP2 LT ISZERO PUSH2 0xBD3 JUMPI DUP5 DUP10 ADD MLOAD DUP3 SSTORE PUSH1 0x1 DUP3 ADD SWAP2 POP PUSH1 0x20 DUP6 ADD SWAP5 POP PUSH1 0x20 DUP2 ADD SWAP1 POP PUSH2 0xBAE JUMP JUMPDEST DUP7 DUP4 LT ISZERO PUSH2 0xBF0 JUMPI DUP5 DUP10 ADD MLOAD PUSH2 0xBEC PUSH1 0x1F DUP10 AND DUP3 PUSH2 0xAFF JUMP JUMPDEST DUP4 SSTORE POP JUMPDEST PUSH1 0x1 PUSH1 0x2 DUP9 MUL ADD DUP9 SSTORE POP POP POP JUMPDEST POP POP POP POP POP POP JUMP JUMPDEST PUSH0 PUSH1 0x40 DUP3 ADD SWAP1 POP PUSH2 0xC18 PUSH0 DUP4 ADD DUP6 PUSH2 0x5B9 JUMP JUMPDEST DUP2 DUP2 SUB PUSH1 0x20 DUP4 ADD MSTORE PUSH2 0xC2A DUP2 DUP5 PUSH2 0x7ED JUMP JUMPDEST SWAP1 POP SWAP4 SWAP3 POP POP POP JUMP JUMPDEST PUSH32 0x4E487B7100000000000000000000000000000000000000000000000000000000 PUSH0 MSTORE PUSH1 0x11 PUSH1 0x4 MSTORE PUSH1 0x24 PUSH0 REVERT JUMPDEST PUSH0 PUSH2 0xC6A DUP3 PUSH2 0x55B JUMP JUMPDEST SWAP2 POP PUSH32 0xFFFFFFFFFFFFFFFFFFFFFFFFFFFFFFFFFFFFFFFFFFFFFFFFFFFFFFFFFFFFFFFF DUP3 SUB PUSH2 0xC9C JUMPI PUSH2 0xC9B PUSH2 0xC33 JUMP JUMPDEST JUMPDEST PUSH1 0x1 DUP3 ADD SWAP1 POP SWAP2 SWAP1 POP JUMP INVALID LOG2 PUSH5 0x6970667358 0x22 SLT KECCAK256 0xCF PUSH23 0xAE9B8A3288B6C0C0A4CE16872A49986D36F848173FAE04 0xCD RETURNDATASIZE PUSH10 0x508D451864736F6C6343 STOP ADDMOD BYTE STOP CALLER "
				},
				"gasEstimates": {
					"creation": {
						"codeDepositCost": "658600",
						"executionCost": "22793",
						"totalCost": "681393"
					},
					"external": {
						"addTodo(string)": "infinite",
						"getTodo(uint256)": "infinite",
						"nextId()": "2447",
						"todoIds(uint256)": "infinite",
						"todos(uint256)": "infinite",
						"updateStatus(uint256,uint8)": "27234"
					}
				},
				"methodIdentifiers": {
					"addTodo(string)": "95ffebf5",
					"getTodo(uint256)": "dd68afb6",
					"nextId()": "61b8ce8c",
					"todoIds(uint256)": "03c5c31f",
					"todos(uint256)": "bc8bc2b4",
					"updateStatus(uint256,uint8)": "3a1b3d31"
				}
			},
			"storageLayout": {
				"storage": [
					{
						"astId": 18,
						"contract": "contracts/Todo.sol:TodoList",
						"label": "todos",
						"offset": 0,
						"slot": "0",
						"type": "t_mapping(t_uint256,t_struct(Todo)13_storage)"
					},
					{
						"astId": 21,
						"contract": "contracts/Todo.sol:TodoList",
						"label": "todoIds",
						"offset": 0,
						"slot": "1",
						"type": "t_array(t_uint256)dyn_storage"
					},
					{
						"astId": 24,
						"contract": "contracts/Todo.sol:TodoList",
						"label": "nextId",
						"offset": 0,
						"slot": "2",
						"type": "t_uint256"
					}
				],
				"types": {
					"t_array(t_uint256)dyn_storage": {
						"base": "t_uint256",
						"encoding": "dynamic_array",
						"label": "uint256[]",
						"numberOfBytes": "32"
					},
					"t_enum(Status)5": {
						"encoding": "inplace",
						"label": "enum TodoList.Status",
						"numberOfBytes": "1"
					},
					"t_mapping(t_uint256,t_struct(Todo)13_storage)": {
						"encoding": "mapping",
						"key": "t_uint256",
						"label": "mapping(uint256 => struct TodoList.Todo)",
						"numberOfBytes": "32",
						"value": "t_struct(Todo)13_storage"
					},
					"t_string_storage": {
						"encoding": "bytes",
						"label": "string",
						"numberOfBytes": "32"
					},
					"t_struct(Todo)13_storage": {
						"encoding": "inplace",
						"label": "struct TodoList.Todo",
						"members": [
							{
								"astId": 7,
								"contract": "contracts/Todo.sol:TodoList",
								"label": "id",
								"offset": 0,
								"slot": "0",
								"type": "t_uint256"
							},
							{
								"astId": 9,
								"contract": "contracts/Todo.sol:TodoList",
								"label": "content",
								"offset": 0,
								"slot": "1",
								"type": "t_string_storage"
							},
							{
								"astId": 12,
								"contract": "contracts/Todo.sol:TodoList",
								"label": "status",
								"offset": 0,
								"slot": "2",
								"type": "t_enum(Status)5"
							}
						],
						"numberOfBytes": "96"
					},
					"t_uint256": {
						"encoding": "inplace",
						"label": "uint256",
						"numberOfBytes": "32"
					}
				}
			},
			"userdoc": {
				"kind": "user",
				"methods": {},
				"version": 1
			}
		}
	}
}