{
	"contracts/week3.sol": {
		"Tutorials": {
			"abi": [
				{
					"inputs": [
						{
							"internalType": "string",
							"name": "_name",
							"type": "string"
						},
						{
							"internalType": "uint256",
							"name": "_age",
							"type": "uint256"
						},
						{
							"internalType": "bool",
							"name": "_enrolled",
							"type": "bool"
						}
					],
					"name": "addStudent",
					"outputs": [],
					"stateMutability": "nonpayable",
					"type": "function"
				},
				{
					"inputs": [
						{
							"internalType": "address",
							"name": "",
							"type": "address"
						}
					],
					"name": "balances",
					"outputs": [
						{
							"internalType": "uint256",
							"name": "",
							"type": "uint256"
						}
					],
					"stateMutability": "view",
					"type": "function"
				},
				{
					"inputs": [],
					"name": "checkBalance",
					"outputs": [
						{
							"internalType": "uint256",
							"name": "",
							"type": "uint256"
						}
					],
					"stateMutability": "view",
					"type": "function"
				},
				{
					"inputs": [
						{
							"internalType": "uint256",
							"name": "_amount",
							"type": "uint256"
						}
					],
					"name": "deposit",
					"outputs": [],
					"stateMutability": "nonpayable",
					"type": "function"
				},
				{
					"inputs": [
						{
							"internalType": "string",
							"name": "_token",
							"type": "string"
						}
					],
					"name": "getTokenBalance",
					"outputs": [
						{
							"internalType": "uint256",
							"name": "",
							"type": "uint256"
						}
					],
					"stateMutability": "view",
					"type": "function"
				},
				{
					"inputs": [
						{
							"internalType": "string",
							"name": "_name",
							"type": "string"
						},
						{
							"internalType": "uint256",
							"name": "_age",
							"type": "uint256"
						},
						{
							"internalType": "bool",
							"name": "_enrolled",
							"type": "bool"
						}
					],
					"name": "setStudent",
					"outputs": [],
					"stateMutability": "nonpayable",
					"type": "function"
				},
				{
					"inputs": [
						{
							"internalType": "string",
							"name": "_token",
							"type": "string"
						},
						{
							"internalType": "uint256",
							"name": "_amount",
							"type": "uint256"
						}
					],
					"name": "setTokenBalance",
					"outputs": [],
					"stateMutability": "nonpayable",
					"type": "function"
				},
				{
					"inputs": [],
					"name": "student",
					"outputs": [
						{
							"internalType": "string",
							"name": "name",
							"type": "string"
						},
						{
							"internalType": "uint256",
							"name": "age",
							"type": "uint256"
						},
						{
							"internalType": "bool",
							"name": "enrolled",
							"type": "bool"
						}
					],
					"stateMutability": "view",
					"type": "function"
				},
				{
					"inputs": [
						{
							"internalType": "uint256",
							"name": "",
							"type": "uint256"
						}
					],
					"name": "students",
					"outputs": [
						{
							"internalType": "string",
							"name": "name",
							"type": "string"
						},
						{
							"internalType": "uint256",
							"name": "age",
							"type": "uint256"
						},
						{
							"internalType": "bool",
							"name": "enrolled",
							"type": "bool"
						}
					],
					"stateMutability": "view",
					"type": "function"
				},
				{
					"inputs": [
						{
							"internalType": "address",
							"name": "",
							"type": "address"
						},
						{
							"internalType": "string",
							"name": "",
							"type": "string"
						}
					],
					"name": "tokenBalances",
					"outputs": [
						{
							"internalType": "uint256",
							"name": "",
							"type": "uint256"
						}
					],
					"stateMutability": "view",
					"type": "function"
				}
			],
			"devdoc": {
				"kind": "dev",
				"methods": {},
				"version": 1
			},
			"evm": {
				"assembly": "    /* \"contracts/week3.sol\":64:1190  contract Tutorials {... */\n  mstore(0x40, 0x80)\n  callvalue\n  dup1\n  iszero\n  tag_1\n  jumpi\n  0x00\n  dup1\n  revert\ntag_1:\n  pop\n  dataSize(sub_0)\n  dup1\n  dataOffset(sub_0)\n  0x00\n  codecopy\n  0x00\n  return\nstop\n\nsub_0: assembly {\n        /* \"contracts/week3.sol\":64:1190  contract Tutorials {... */\n      mstore(0x40, 0x80)\n      callvalue\n      dup1\n      iszero\n      tag_1\n      jumpi\n      0x00\n      dup1\n      revert\n    tag_1:\n      pop\n      jumpi(tag_2, lt(calldatasize, 0x04))\n      shr(0xe0, calldataload(0x00))\n      dup1\n      0x3b2bbadb\n      gt\n      tag_13\n      jumpi\n      dup1\n      0x3b2bbadb\n      eq\n      tag_8\n      jumpi\n      dup1\n      0x3d48ab81\n      eq\n      tag_9\n      jumpi\n      dup1\n      0x699450e8\n      eq\n      tag_10\n      jumpi\n      dup1\n      0xb6b55f25\n      eq\n      tag_11\n      jumpi\n      dup1\n      0xc71daccb\n      eq\n      tag_12\n      jumpi\n      jump(tag_2)\n    tag_13:\n      dup1\n      0x025abd58\n      eq\n      tag_3\n      jumpi\n      dup1\n      0x06ead22e\n      eq\n      tag_4\n      jumpi\n      dup1\n      0x19044f07\n      eq\n      tag_5\n      jumpi\n      dup1\n      0x1dfc2962\n      eq\n      tag_6\n      jumpi\n      dup1\n      0x27e235e3\n      eq\n      tag_7\n      jumpi\n    tag_2:\n      0x00\n      dup1\n      revert\n        /* \"contracts/week3.sol\":1060:1185  function getTokenBalance(string memory _token) public view returns (uint) {... */\n    tag_3:\n      tag_14\n      0x04\n      dup1\n      calldatasize\n      sub\n      dup2\n      add\n      swap1\n      tag_15\n      swap2\n      swap1\n      tag_16\n      jump\t// in\n    tag_15:\n      tag_17\n      jump\t// in\n    tag_14:\n      mload(0x40)\n      tag_18\n      swap2\n      swap1\n      tag_19\n      jump\t// in\n    tag_18:\n      mload(0x40)\n      dup1\n      swap2\n      sub\n      swap1\n      return\n        /* \"contracts/week3.sol\":342:367  Student[] public students */\n    tag_4:\n      tag_20\n      0x04\n      dup1\n      calldatasize\n      sub\n      dup2\n      add\n      swap1\n      tag_21\n      swap2\n      swap1\n      tag_22\n      jump\t// in\n    tag_21:\n      tag_23\n      jump\t// in\n    tag_20:\n      mload(0x40)\n      tag_24\n      swap4\n      swap3\n      swap2\n      swap1\n      tag_25\n      jump\t// in\n    tag_24:\n      mload(0x40)\n      dup1\n      swap2\n      sub\n      swap1\n      return\n        /* \"contracts/week3.sol\":189:312  function setStudent(string memory _name, uint _age, bool _enrolled) public {... */\n    tag_5:\n      tag_26\n      0x04\n      dup1\n      calldatasize\n      sub\n      dup2\n      add\n      swap1\n      tag_27\n      swap2\n      swap1\n      tag_28\n      jump\t// in\n    tag_27:\n      tag_29\n      jump\t// in\n    tag_26:\n      stop\n        /* \"contracts/week3.sol\":370:498  function addStudent(string memory _name, uint _age, bool _enrolled) public {... */\n    tag_6:\n      tag_30\n      0x04\n      dup1\n      calldatasize\n      sub\n      dup2\n      add\n      swap1\n      tag_31\n      swap2\n      swap1\n      tag_28\n      jump\t// in\n    tag_31:\n      tag_32\n      jump\t// in\n    tag_30:\n      stop\n        /* \"contracts/week3.sol\":573:613  mapping(address => uint) public balances */\n    tag_7:\n      tag_33\n      0x04\n      dup1\n      calldatasize\n      sub\n      dup2\n      add\n      swap1\n      tag_34\n      swap2\n      swap1\n      tag_35\n      jump\t// in\n    tag_34:\n      tag_36\n      jump\t// in\n    tag_33:\n      mload(0x40)\n      tag_37\n      swap2\n      swap1\n      tag_19\n      jump\t// in\n    tag_37:\n      mload(0x40)\n      dup1\n      swap2\n      sub\n      swap1\n      return\n        /* \"contracts/week3.sol\":865:929  mapping(address => mapping(string => uint)) public tokenBalances */\n    tag_8:\n      tag_38\n      0x04\n      dup1\n      calldatasize\n      sub\n      dup2\n      add\n      swap1\n      tag_39\n      swap2\n      swap1\n      tag_40\n      jump\t// in\n    tag_39:\n      tag_41\n      jump\t// in\n    tag_38:\n      mload(0x40)\n      tag_42\n      swap2\n      swap1\n      tag_19\n      jump\t// in\n    tag_42:\n      mload(0x40)\n      dup1\n      swap2\n      sub\n      swap1\n      return\n        /* \"contracts/week3.sol\":934:1056  function setTokenBalance(string memory _token, uint _amount) public {... */\n    tag_9:\n      tag_43\n      0x04\n      dup1\n      calldatasize\n      sub\n      dup2\n      add\n      swap1\n      tag_44\n      swap2\n      swap1\n      tag_45\n      jump\t// in\n    tag_44:\n      tag_46\n      jump\t// in\n    tag_43:\n      stop\n        /* \"contracts/week3.sol\":164:186  Student public student */\n    tag_10:\n      tag_47\n      tag_48\n      jump\t// in\n    tag_47:\n      mload(0x40)\n      tag_49\n      swap4\n      swap3\n      swap2\n      swap1\n      tag_25\n      jump\t// in\n    tag_49:\n      mload(0x40)\n      dup1\n      swap2\n      sub\n      swap1\n      return\n        /* \"contracts/week3.sol\":616:692  function deposit(uint _amount) public {... */\n    tag_11:\n      tag_50\n      0x04\n      dup1\n      calldatasize\n      sub\n      dup2\n      add\n      swap1\n      tag_51\n      swap2\n      swap1\n      tag_22\n      jump\t// in\n    tag_51:\n      tag_52\n      jump\t// in\n    tag_50:\n      stop\n        /* \"contracts/week3.sol\":725:810  function checkBalance() public view returns (uint) {... */\n    tag_12:\n      tag_53\n      tag_54\n      jump\t// in\n    tag_53:\n      mload(0x40)\n      tag_55\n      swap2\n      swap1\n      tag_19\n      jump\t// in\n    tag_55:\n      mload(0x40)\n      dup1\n      swap2\n      sub\n      swap1\n      return\n        /* \"contracts/week3.sol\":1060:1185  function getTokenBalance(string memory _token) public view returns (uint) {... */\n    tag_17:\n        /* \"contracts/week3.sol\":1128:1132  uint */\n      0x00\n        /* \"contracts/week3.sol\":1148:1161  tokenBalances */\n      0x05\n        /* \"contracts/week3.sol\":1148:1173  tokenBalances[msg.sender] */\n      0x00\n        /* \"contracts/week3.sol\":1162:1172  msg.sender */\n      caller\n        /* \"contracts/week3.sol\":1148:1173  tokenBalances[msg.sender] */\n      0xffffffffffffffffffffffffffffffffffffffff\n      and\n      0xffffffffffffffffffffffffffffffffffffffff\n      and\n      dup2\n      mstore\n      0x20\n      add\n      swap1\n      dup2\n      mstore\n      0x20\n      add\n      0x00\n      keccak256\n        /* \"contracts/week3.sol\":1174:1180  _token */\n      dup3\n        /* \"contracts/week3.sol\":1148:1181  tokenBalances[msg.sender][_token] */\n      mload(0x40)\n      tag_57\n      swap2\n      swap1\n      tag_58\n      jump\t// in\n    tag_57:\n      swap1\n      dup2\n      mstore\n      0x20\n      add\n      mload(0x40)\n      dup1\n      swap2\n      sub\n      swap1\n      keccak256\n      sload\n        /* \"contracts/week3.sol\":1141:1181  return tokenBalances[msg.sender][_token] */\n      swap1\n      pop\n        /* \"contracts/week3.sol\":1060:1185  function getTokenBalance(string memory _token) public view returns (uint) {... */\n      swap2\n      swap1\n      pop\n      jump\t// out\n        /* \"contracts/week3.sol\":342:367  Student[] public students */\n    tag_23:\n      0x03\n      dup2\n      dup2\n      sload\n      dup2\n      lt\n      tag_59\n      jumpi\n      0x00\n      dup1\n      revert\n    tag_59:\n      swap1\n      0x00\n      mstore\n      keccak256(0x00, 0x20)\n      swap1\n      0x03\n      mul\n      add\n      0x00\n      swap2\n      pop\n      swap1\n      pop\n      dup1\n      0x00\n      add\n      dup1\n      sload\n      tag_61\n      swap1\n      tag_62\n      jump\t// in\n    tag_61:\n      dup1\n      0x1f\n      add\n      0x20\n      dup1\n      swap2\n      div\n      mul\n      0x20\n      add\n      mload(0x40)\n      swap1\n      dup2\n      add\n      0x40\n      mstore\n      dup1\n      swap3\n      swap2\n      swap1\n      dup2\n      dup2\n      mstore\n      0x20\n      add\n      dup3\n      dup1\n      sload\n      tag_63\n      swap1\n      tag_62\n      jump\t// in\n    tag_63:\n      dup1\n      iszero\n      tag_64\n      jumpi\n      dup1\n      0x1f\n      lt\n      tag_65\n      jumpi\n      0x0100\n      dup1\n      dup4\n      sload\n      div\n      mul\n      dup4\n      mstore\n      swap2\n      0x20\n      add\n      swap2\n      jump(tag_64)\n    tag_65:\n      dup3\n      add\n      swap2\n      swap1\n      0x00\n      mstore\n      keccak256(0x00, 0x20)\n      swap1\n    tag_66:\n      dup2\n      sload\n      dup2\n      mstore\n      swap1\n      0x01\n      add\n      swap1\n      0x20\n      add\n      dup1\n      dup4\n      gt\n      tag_66\n      jumpi\n      dup3\n      swap1\n      sub\n      0x1f\n      and\n      dup3\n      add\n      swap2\n    tag_64:\n      pop\n      pop\n      pop\n      pop\n      pop\n      swap1\n      dup1\n      0x01\n      add\n      sload\n      swap1\n      dup1\n      0x02\n      add\n      0x00\n      swap1\n      sload\n      swap1\n      0x0100\n      exp\n      swap1\n      div\n      0xff\n      and\n      swap1\n      pop\n      dup4\n      jump\t// out\n        /* \"contracts/week3.sol\":189:312  function setStudent(string memory _name, uint _age, bool _enrolled) public {... */\n    tag_29:\n        /* \"contracts/week3.sol\":277:308  Student(_name, _age, _enrolled) */\n      mload(0x40)\n      dup1\n      0x60\n      add\n      0x40\n      mstore\n      dup1\n        /* \"contracts/week3.sol\":285:290  _name */\n      dup5\n        /* \"contracts/week3.sol\":277:308  Student(_name, _age, _enrolled) */\n      dup2\n      mstore\n      0x20\n      add\n        /* \"contracts/week3.sol\":292:296  _age */\n      dup4\n        /* \"contracts/week3.sol\":277:308  Student(_name, _age, _enrolled) */\n      dup2\n      mstore\n      0x20\n      add\n        /* \"contracts/week3.sol\":298:307  _enrolled */\n      dup3\n        /* \"contracts/week3.sol\":277:308  Student(_name, _age, _enrolled) */\n      iszero\n      iszero\n      dup2\n      mstore\n      pop\n        /* \"contracts/week3.sol\":267:274  student */\n      0x00\n        /* \"contracts/week3.sol\":267:308  student = Student(_name, _age, _enrolled) */\n      dup1\n      dup3\n      add\n      mload\n      dup2\n      0x00\n      add\n      swap1\n      dup2\n      tag_68\n      swap2\n      swap1\n      tag_69\n      jump\t// in\n    tag_68:\n      pop\n      0x20\n      dup3\n      add\n      mload\n      dup2\n      0x01\n      add\n      sstore\n      0x40\n      dup3\n      add\n      mload\n      dup2\n      0x02\n      add\n      exp(0x0100, 0x00)\n      dup2\n      sload\n      dup2\n      0xff\n      mul\n      not\n      and\n      swap1\n      dup4\n      iszero\n      iszero\n      mul\n      or\n      swap1\n      sstore\n      pop\n      swap1\n      pop\n      pop\n        /* \"contracts/week3.sol\":189:312  function setStudent(string memory _name, uint _age, bool _enrolled) public {... */\n      pop\n      pop\n      pop\n      jump\t// out\n        /* \"contracts/week3.sol\":370:498  function addStudent(string memory _name, uint _age, bool _enrolled) public {... */\n    tag_32:\n        /* \"contracts/week3.sol\":448:456  students */\n      0x03\n        /* \"contracts/week3.sol\":462:493  Student(_name, _age, _enrolled) */\n      mload(0x40)\n      dup1\n      0x60\n      add\n      0x40\n      mstore\n      dup1\n        /* \"contracts/week3.sol\":470:475  _name */\n      dup6\n        /* \"contracts/week3.sol\":462:493  Student(_name, _age, _enrolled) */\n      dup2\n      mstore\n      0x20\n      add\n        /* \"contracts/week3.sol\":477:481  _age */\n      dup5\n        /* \"contracts/week3.sol\":462:493  Student(_name, _age, _enrolled) */\n      dup2\n      mstore\n      0x20\n      add\n        /* \"contracts/week3.sol\":483:492  _enrolled */\n      dup4\n        /* \"contracts/week3.sol\":462:493  Student(_name, _age, _enrolled) */\n      iszero\n      iszero\n      dup2\n      mstore\n      pop\n        /* \"contracts/week3.sol\":448:494  students.push(Student(_name, _age, _enrolled)) */\n      swap1\n      dup1\n      0x01\n      dup2\n      sload\n      add\n      dup1\n      dup3\n      sstore\n      dup1\n      swap2\n      pop\n      pop\n      0x01\n      swap1\n      sub\n      swap1\n      0x00\n      mstore\n      keccak256(0x00, 0x20)\n      swap1\n      0x03\n      mul\n      add\n      0x00\n      swap1\n      swap2\n      swap1\n      swap2\n      swap1\n      swap2\n      pop\n      0x00\n      dup3\n      add\n      mload\n      dup2\n      0x00\n      add\n      swap1\n      dup2\n      tag_72\n      swap2\n      swap1\n      tag_69\n      jump\t// in\n    tag_72:\n      pop\n      0x20\n      dup3\n      add\n      mload\n      dup2\n      0x01\n      add\n      sstore\n      0x40\n      dup3\n      add\n      mload\n      dup2\n      0x02\n      add\n      exp(0x0100, 0x00)\n      dup2\n      sload\n      dup2\n      0xff\n      mul\n      not\n      and\n      swap1\n      dup4\n      iszero\n      iszero\n      mul\n      or\n      swap1\n      sstore\n      pop\n      pop\n      pop\n        /* \"contracts/week3.sol\":370:498  function addStudent(string memory _name, uint _age, bool _enrolled) public {... */\n      pop\n      pop\n      pop\n      jump\t// out\n        /* \"contracts/week3.sol\":573:613  mapping(address => uint) public balances */\n    tag_36:\n      mstore(0x20, 0x04)\n      dup1\n      0x00\n      mstore\n      keccak256(0x00, 0x40)\n      0x00\n      swap2\n      pop\n      swap1\n      pop\n      sload\n      dup2\n      jump\t// out\n        /* \"contracts/week3.sol\":865:929  mapping(address => mapping(string => uint)) public tokenBalances */\n    tag_41:\n      mstore(0x20, 0x05)\n      dup2\n      0x00\n      mstore\n      keccak256(0x00, 0x40)\n      dup2\n      dup1\n      mload\n      0x20\n      dup2\n      add\n      dup3\n      add\n      dup1\n      mload\n      dup5\n      dup3\n      mstore\n      0x20\n      dup4\n      add\n      0x20\n      dup6\n      add\n      keccak256\n      dup2\n      dup4\n      mstore\n      dup1\n      swap6\n      pop\n      pop\n      pop\n      pop\n      pop\n      pop\n      0x00\n      swap2\n      pop\n      swap2\n      pop\n      pop\n      sload\n      dup2\n      jump\t// out\n        /* \"contracts/week3.sol\":934:1056  function setTokenBalance(string memory _token, uint _amount) public {... */\n    tag_46:\n        /* \"contracts/week3.sol\":1045:1052  _amount */\n      dup1\n        /* \"contracts/week3.sol\":1009:1022  tokenBalances */\n      0x05\n        /* \"contracts/week3.sol\":1009:1034  tokenBalances[msg.sender] */\n      0x00\n        /* \"contracts/week3.sol\":1023:1033  msg.sender */\n      caller\n        /* \"contracts/week3.sol\":1009:1034  tokenBalances[msg.sender] */\n      0xffffffffffffffffffffffffffffffffffffffff\n      and\n      0xffffffffffffffffffffffffffffffffffffffff\n      and\n      dup2\n      mstore\n      0x20\n      add\n      swap1\n      dup2\n      mstore\n      0x20\n      add\n      0x00\n      keccak256\n        /* \"contracts/week3.sol\":1035:1041  _token */\n      dup4\n        /* \"contracts/week3.sol\":1009:1042  tokenBalances[msg.sender][_token] */\n      mload(0x40)\n      tag_74\n      swap2\n      swap1\n      tag_58\n      jump\t// in\n    tag_74:\n      swap1\n      dup2\n      mstore\n      0x20\n      add\n      mload(0x40)\n      dup1\n      swap2\n      sub\n      swap1\n      keccak256\n        /* \"contracts/week3.sol\":1009:1052  tokenBalances[msg.sender][_token] = _amount */\n      dup2\n      swap1\n      sstore\n      pop\n        /* \"contracts/week3.sol\":934:1056  function setTokenBalance(string memory _token, uint _amount) public {... */\n      pop\n      pop\n      jump\t// out\n        /* \"contracts/week3.sol\":164:186  Student public student */\n    tag_48:\n      0x00\n      dup1\n      0x00\n      add\n      dup1\n      sload\n      tag_75\n      swap1\n      tag_62\n      jump\t// in\n    tag_75:\n      dup1\n      0x1f\n      add\n      0x20\n      dup1\n      swap2\n      div\n      mul\n      0x20\n      add\n      mload(0x40)\n      swap1\n      dup2\n      add\n      0x40\n      mstore\n      dup1\n      swap3\n      swap2\n      swap1\n      dup2\n      dup2\n      mstore\n      0x20\n      add\n      dup3\n      dup1\n      sload\n      tag_76\n      swap1\n      tag_62\n      jump\t// in\n    tag_76:\n      dup1\n      iszero\n      tag_77\n      jumpi\n      dup1\n      0x1f\n      lt\n      tag_78\n      jumpi\n      0x0100\n      dup1\n      dup4\n      sload\n      div\n      mul\n      dup4\n      mstore\n      swap2\n      0x20\n      add\n      swap2\n      jump(tag_77)\n    tag_78:\n      dup3\n      add\n      swap2\n      swap1\n      0x00\n      mstore\n      keccak256(0x00, 0x20)\n      swap1\n    tag_79:\n      dup2\n      sload\n      dup2\n      mstore\n      swap1\n      0x01\n      add\n      swap1\n      0x20\n      add\n      dup1\n      dup4\n      gt\n      tag_79\n      jumpi\n      dup3\n      swap1\n      sub\n      0x1f\n      and\n      dup3\n      add\n      swap2\n    tag_77:\n      pop\n      pop\n      pop\n      pop\n      pop\n      swap1\n      dup1\n      0x01\n      add\n      sload\n      swap1\n      dup1\n      0x02\n      add\n      0x00\n      swap1\n      sload\n      swap1\n      0x0100\n      exp\n      swap1\n      div\n      0xff\n      and\n      swap1\n      pop\n      dup4\n      jump\t// out\n        /* \"contracts/week3.sol\":616:692  function deposit(uint _amount) public {... */\n    tag_52:\n        /* \"contracts/week3.sol\":681:688  _amount */\n      dup1\n        /* \"contracts/week3.sol\":657:665  balances */\n      0x04\n        /* \"contracts/week3.sol\":657:677  balances[msg.sender] */\n      0x00\n        /* \"contracts/week3.sol\":666:676  msg.sender */\n      caller\n        /* \"contracts/week3.sol\":657:677  balances[msg.sender] */\n      0xffffffffffffffffffffffffffffffffffffffff\n      and\n      0xffffffffffffffffffffffffffffffffffffffff\n      and\n      dup2\n      mstore\n      0x20\n      add\n      swap1\n      dup2\n      mstore\n      0x20\n      add\n      0x00\n      keccak256\n      0x00\n        /* \"contracts/week3.sol\":657:688  balances[msg.sender] += _amount */\n      dup3\n      dup3\n      sload\n      tag_81\n      swap2\n      swap1\n      tag_82\n      jump\t// in\n    tag_81:\n      swap3\n      pop\n      pop\n      dup2\n      swap1\n      sstore\n      pop\n        /* \"contracts/week3.sol\":616:692  function deposit(uint _amount) public {... */\n      pop\n      jump\t// out\n        /* \"contracts/week3.sol\":725:810  function checkBalance() public view returns (uint) {... */\n    tag_54:\n        /* \"contracts/week3.sol\":770:774  uint */\n      0x00\n        /* \"contracts/week3.sol\":786:794  balances */\n      0x04\n        /* \"contracts/week3.sol\":786:806  balances[msg.sender] */\n      0x00\n        /* \"contracts/week3.sol\":795:805  msg.sender */\n      caller\n        /* \"contracts/week3.sol\":786:806  balances[msg.sender] */\n      0xffffffffffffffffffffffffffffffffffffffff\n      and\n      0xffffffffffffffffffffffffffffffffffffffff\n      and\n      dup2\n      mstore\n      0x20\n      add\n      swap1\n      dup2\n      mstore\n      0x20\n      add\n      0x00\n      keccak256\n      sload\n        /* \"contracts/week3.sol\":779:806  return balances[msg.sender] */\n      swap1\n      pop\n        /* \"contracts/week3.sol\":725:810  function checkBalance() public view returns (uint) {... */\n      swap1\n      jump\t// out\n        /* \"#utility.yul\":7:82   */\n    tag_84:\n        /* \"#utility.yul\":40:46   */\n      0x00\n        /* \"#utility.yul\":73:75   */\n      0x40\n        /* \"#utility.yul\":67:76   */\n      mload\n        /* \"#utility.yul\":57:76   */\n      swap1\n      pop\n        /* \"#utility.yul\":7:82   */\n      swap1\n      jump\t// out\n        /* \"#utility.yul\":88:205   */\n    tag_85:\n        /* \"#utility.yul\":197:198   */\n      0x00\n        /* \"#utility.yul\":194:195   */\n      dup1\n        /* \"#utility.yul\":187:199   */\n      revert\n        /* \"#utility.yul\":211:328   */\n    tag_86:\n        /* \"#utility.yul\":320:321   */\n      0x00\n        /* \"#utility.yul\":317:318   */\n      dup1\n        /* \"#utility.yul\":310:322   */\n      revert\n        /* \"#utility.yul\":334:451   */\n    tag_87:\n        /* \"#utility.yul\":443:444   */\n      0x00\n        /* \"#utility.yul\":440:441   */\n      dup1\n        /* \"#utility.yul\":433:445   */\n      revert\n        /* \"#utility.yul\":457:574   */\n    tag_88:\n        /* \"#utility.yul\":566:567   */\n      0x00\n        /* \"#utility.yul\":563:564   */\n      dup1\n        /* \"#utility.yul\":556:568   */\n      revert\n        /* \"#utility.yul\":580:682   */\n    tag_89:\n        /* \"#utility.yul\":621:627   */\n      0x00\n        /* \"#utility.yul\":672:674   */\n      0x1f\n        /* \"#utility.yul\":668:675   */\n      not\n        /* \"#utility.yul\":663:665   */\n      0x1f\n        /* \"#utility.yul\":656:661   */\n      dup4\n        /* \"#utility.yul\":652:666   */\n      add\n        /* \"#utility.yul\":648:676   */\n      and\n        /* \"#utility.yul\":638:676   */\n      swap1\n      pop\n        /* \"#utility.yul\":580:682   */\n      swap2\n      swap1\n      pop\n      jump\t// out\n        /* \"#utility.yul\":688:868   */\n    tag_90:\n        /* \"#utility.yul\":736:813   */\n      0x4e487b7100000000000000000000000000000000000000000000000000000000\n        /* \"#utility.yul\":733:734   */\n      0x00\n        /* \"#utility.yul\":726:814   */\n      mstore\n        /* \"#utility.yul\":833:837   */\n      0x41\n        /* \"#utility.yul\":830:831   */\n      0x04\n        /* \"#utility.yul\":823:838   */\n      mstore\n        /* \"#utility.yul\":857:861   */\n      0x24\n        /* \"#utility.yul\":854:855   */\n      0x00\n        /* \"#utility.yul\":847:862   */\n      revert\n        /* \"#utility.yul\":874:1155   */\n    tag_91:\n        /* \"#utility.yul\":957:984   */\n      tag_141\n        /* \"#utility.yul\":979:983   */\n      dup3\n        /* \"#utility.yul\":957:984   */\n      tag_89\n      jump\t// in\n    tag_141:\n        /* \"#utility.yul\":949:955   */\n      dup2\n        /* \"#utility.yul\":945:985   */\n      add\n        /* \"#utility.yul\":1087:1093   */\n      dup2\n        /* \"#utility.yul\":1075:1085   */\n      dup2\n        /* \"#utility.yul\":1072:1094   */\n      lt\n        /* \"#utility.yul\":1051:1069   */\n      0xffffffffffffffff\n        /* \"#utility.yul\":1039:1049   */\n      dup3\n        /* \"#utility.yul\":1036:1070   */\n      gt\n        /* \"#utility.yul\":1033:1095   */\n      or\n        /* \"#utility.yul\":1030:1118   */\n      iszero\n      tag_142\n      jumpi\n        /* \"#utility.yul\":1098:1116   */\n      tag_143\n      tag_90\n      jump\t// in\n    tag_143:\n        /* \"#utility.yul\":1030:1118   */\n    tag_142:\n        /* \"#utility.yul\":1138:1148   */\n      dup1\n        /* \"#utility.yul\":1134:1136   */\n      0x40\n        /* \"#utility.yul\":1127:1149   */\n      mstore\n        /* \"#utility.yul\":917:1155   */\n      pop\n        /* \"#utility.yul\":874:1155   */\n      pop\n      pop\n      jump\t// out\n        /* \"#utility.yul\":1161:1290   */\n    tag_92:\n        /* \"#utility.yul\":1195:1201   */\n      0x00\n        /* \"#utility.yul\":1222:1242   */\n      tag_145\n      tag_84\n      jump\t// in\n    tag_145:\n        /* \"#utility.yul\":1212:1242   */\n      swap1\n      pop\n        /* \"#utility.yul\":1251:1284   */\n      tag_146\n        /* \"#utility.yul\":1279:1283   */\n      dup3\n        /* \"#utility.yul\":1271:1277   */\n      dup3\n        /* \"#utility.yul\":1251:1284   */\n      tag_91\n      jump\t// in\n    tag_146:\n        /* \"#utility.yul\":1161:1290   */\n      swap2\n      swap1\n      pop\n      jump\t// out\n        /* \"#utility.yul\":1296:1604   */\n    tag_93:\n        /* \"#utility.yul\":1358:1362   */\n      0x00\n        /* \"#utility.yul\":1448:1466   */\n      0xffffffffffffffff\n        /* \"#utility.yul\":1440:1446   */\n      dup3\n        /* \"#utility.yul\":1437:1467   */\n      gt\n        /* \"#utility.yul\":1434:1490   */\n      iszero\n      tag_148\n      jumpi\n        /* \"#utility.yul\":1470:1488   */\n      tag_149\n      tag_90\n      jump\t// in\n    tag_149:\n        /* \"#utility.yul\":1434:1490   */\n    tag_148:\n        /* \"#utility.yul\":1508:1537   */\n      tag_150\n        /* \"#utility.yul\":1530:1536   */\n      dup3\n        /* \"#utility.yul\":1508:1537   */\n      tag_89\n      jump\t// in\n    tag_150:\n        /* \"#utility.yul\":1500:1537   */\n      swap1\n      pop\n        /* \"#utility.yul\":1592:1596   */\n      0x20\n        /* \"#utility.yul\":1586:1590   */\n      dup2\n        /* \"#utility.yul\":1582:1597   */\n      add\n        /* \"#utility.yul\":1574:1597   */\n      swap1\n      pop\n        /* \"#utility.yul\":1296:1604   */\n      swap2\n      swap1\n      pop\n      jump\t// out\n        /* \"#utility.yul\":1610:1758   */\n    tag_94:\n        /* \"#utility.yul\":1708:1714   */\n      dup3\n        /* \"#utility.yul\":1703:1706   */\n      dup2\n        /* \"#utility.yul\":1698:1701   */\n      dup4\n        /* \"#utility.yul\":1685:1715   */\n      calldatacopy\n        /* \"#utility.yul\":1749:1750   */\n      0x00\n        /* \"#utility.yul\":1740:1746   */\n      dup4\n        /* \"#utility.yul\":1735:1738   */\n      dup4\n        /* \"#utility.yul\":1731:1747   */\n      add\n        /* \"#utility.yul\":1724:1751   */\n      mstore\n        /* \"#utility.yul\":1610:1758   */\n      pop\n      pop\n      pop\n      jump\t// out\n        /* \"#utility.yul\":1764:2189   */\n    tag_95:\n        /* \"#utility.yul\":1842:1847   */\n      0x00\n        /* \"#utility.yul\":1867:1933   */\n      tag_153\n        /* \"#utility.yul\":1883:1932   */\n      tag_154\n        /* \"#utility.yul\":1925:1931   */\n      dup5\n        /* \"#utility.yul\":1883:1932   */\n      tag_93\n      jump\t// in\n    tag_154:\n        /* \"#utility.yul\":1867:1933   */\n      tag_92\n      jump\t// in\n    tag_153:\n        /* \"#utility.yul\":1858:1933   */\n      swap1\n      pop\n        /* \"#utility.yul\":1956:1962   */\n      dup3\n        /* \"#utility.yul\":1949:1954   */\n      dup2\n        /* \"#utility.yul\":1942:1963   */\n      mstore\n        /* \"#utility.yul\":1994:1998   */\n      0x20\n        /* \"#utility.yul\":1987:1992   */\n      dup2\n        /* \"#utility.yul\":1983:1999   */\n      add\n        /* \"#utility.yul\":2032:2035   */\n      dup5\n        /* \"#utility.yul\":2023:2029   */\n      dup5\n        /* \"#utility.yul\":2018:2021   */\n      dup5\n        /* \"#utility.yul\":2014:2030   */\n      add\n        /* \"#utility.yul\":2011:2036   */\n      gt\n        /* \"#utility.yul\":2008:2120   */\n      iszero\n      tag_155\n      jumpi\n        /* \"#utility.yul\":2039:2118   */\n      tag_156\n      tag_88\n      jump\t// in\n    tag_156:\n        /* \"#utility.yul\":2008:2120   */\n    tag_155:\n        /* \"#utility.yul\":2129:2183   */\n      tag_157\n        /* \"#utility.yul\":2176:2182   */\n      dup5\n        /* \"#utility.yul\":2171:2174   */\n      dup3\n        /* \"#utility.yul\":2166:2169   */\n      dup6\n        /* \"#utility.yul\":2129:2183   */\n      tag_94\n      jump\t// in\n    tag_157:\n        /* \"#utility.yul\":1848:2189   */\n      pop\n        /* \"#utility.yul\":1764:2189   */\n      swap4\n      swap3\n      pop\n      pop\n      pop\n      jump\t// out\n        /* \"#utility.yul\":2209:2549   */\n    tag_96:\n        /* \"#utility.yul\":2265:2270   */\n      0x00\n        /* \"#utility.yul\":2314:2317   */\n      dup3\n        /* \"#utility.yul\":2307:2311   */\n      0x1f\n        /* \"#utility.yul\":2299:2305   */\n      dup4\n        /* \"#utility.yul\":2295:2312   */\n      add\n        /* \"#utility.yul\":2291:2318   */\n      slt\n        /* \"#utility.yul\":2281:2403   */\n      tag_159\n      jumpi\n        /* \"#utility.yul\":2322:2401   */\n      tag_160\n      tag_87\n      jump\t// in\n    tag_160:\n        /* \"#utility.yul\":2281:2403   */\n    tag_159:\n        /* \"#utility.yul\":2439:2445   */\n      dup2\n        /* \"#utility.yul\":2426:2446   */\n      calldataload\n        /* \"#utility.yul\":2464:2543   */\n      tag_161\n        /* \"#utility.yul\":2539:2542   */\n      dup5\n        /* \"#utility.yul\":2531:2537   */\n      dup3\n        /* \"#utility.yul\":2524:2528   */\n      0x20\n        /* \"#utility.yul\":2516:2522   */\n      dup7\n        /* \"#utility.yul\":2512:2529   */\n      add\n        /* \"#utility.yul\":2464:2543   */\n      tag_95\n      jump\t// in\n    tag_161:\n        /* \"#utility.yul\":2455:2543   */\n      swap2\n      pop\n        /* \"#utility.yul\":2271:2549   */\n      pop\n        /* \"#utility.yul\":2209:2549   */\n      swap3\n      swap2\n      pop\n      pop\n      jump\t// out\n        /* \"#utility.yul\":2555:3064   */\n    tag_16:\n        /* \"#utility.yul\":2624:2630   */\n      0x00\n        /* \"#utility.yul\":2673:2675   */\n      0x20\n        /* \"#utility.yul\":2661:2670   */\n      dup3\n        /* \"#utility.yul\":2652:2659   */\n      dup5\n        /* \"#utility.yul\":2648:2671   */\n      sub\n        /* \"#utility.yul\":2644:2676   */\n      slt\n        /* \"#utility.yul\":2641:2760   */\n      iszero\n      tag_163\n      jumpi\n        /* \"#utility.yul\":2679:2758   */\n      tag_164\n      tag_85\n      jump\t// in\n    tag_164:\n        /* \"#utility.yul\":2641:2760   */\n    tag_163:\n        /* \"#utility.yul\":2827:2828   */\n      0x00\n        /* \"#utility.yul\":2816:2825   */\n      dup3\n        /* \"#utility.yul\":2812:2829   */\n      add\n        /* \"#utility.yul\":2799:2830   */\n      calldataload\n        /* \"#utility.yul\":2857:2875   */\n      0xffffffffffffffff\n        /* \"#utility.yul\":2849:2855   */\n      dup2\n        /* \"#utility.yul\":2846:2876   */\n      gt\n        /* \"#utility.yul\":2843:2960   */\n      iszero\n      tag_165\n      jumpi\n        /* \"#utility.yul\":2879:2958   */\n      tag_166\n      tag_86\n      jump\t// in\n    tag_166:\n        /* \"#utility.yul\":2843:2960   */\n    tag_165:\n        /* \"#utility.yul\":2984:3047   */\n      tag_167\n        /* \"#utility.yul\":3039:3046   */\n      dup5\n        /* \"#utility.yul\":3030:3036   */\n      dup3\n        /* \"#utility.yul\":3019:3028   */\n      dup6\n        /* \"#utility.yul\":3015:3037   */\n      add\n        /* \"#utility.yul\":2984:3047   */\n      tag_96\n      jump\t// in\n    tag_167:\n        /* \"#utility.yul\":2974:3047   */\n      swap2\n      pop\n        /* \"#utility.yul\":2770:3057   */\n      pop\n        /* \"#utility.yul\":2555:3064   */\n      swap3\n      swap2\n      pop\n      pop\n      jump\t// out\n        /* \"#utility.yul\":3070:3147   */\n    tag_97:\n        /* \"#utility.yul\":3107:3114   */\n      0x00\n        /* \"#utility.yul\":3136:3141   */\n      dup2\n        /* \"#utility.yul\":3125:3141   */\n      swap1\n      pop\n        /* \"#utility.yul\":3070:3147   */\n      swap2\n      swap1\n      pop\n      jump\t// out\n        /* \"#utility.yul\":3153:3271   */\n    tag_98:\n        /* \"#utility.yul\":3240:3264   */\n      tag_170\n        /* \"#utility.yul\":3258:3263   */\n      dup2\n        /* \"#utility.yul\":3240:3264   */\n      tag_97\n      jump\t// in\n    tag_170:\n        /* \"#utility.yul\":3235:3238   */\n      dup3\n        /* \"#utility.yul\":3228:3265   */\n      mstore\n        /* \"#utility.yul\":3153:3271   */\n      pop\n      pop\n      jump\t// out\n        /* \"#utility.yul\":3277:3499   */\n    tag_19:\n        /* \"#utility.yul\":3370:3374   */\n      0x00\n        /* \"#utility.yul\":3408:3410   */\n      0x20\n        /* \"#utility.yul\":3397:3406   */\n      dup3\n        /* \"#utility.yul\":3393:3411   */\n      add\n        /* \"#utility.yul\":3385:3411   */\n      swap1\n      pop\n        /* \"#utility.yul\":3421:3492   */\n      tag_172\n        /* \"#utility.yul\":3489:3490   */\n      0x00\n        /* \"#utility.yul\":3478:3487   */\n      dup4\n        /* \"#utility.yul\":3474:3491   */\n      add\n        /* \"#utility.yul\":3465:3471   */\n      dup5\n        /* \"#utility.yul\":3421:3492   */\n      tag_98\n      jump\t// in\n    tag_172:\n        /* \"#utility.yul\":3277:3499   */\n      swap3\n      swap2\n      pop\n      pop\n      jump\t// out\n        /* \"#utility.yul\":3505:3627   */\n    tag_99:\n        /* \"#utility.yul\":3578:3602   */\n      tag_174\n        /* \"#utility.yul\":3596:3601   */\n      dup2\n        /* \"#utility.yul\":3578:3602   */\n      tag_97\n      jump\t// in\n    tag_174:\n        /* \"#utility.yul\":3571:3576   */\n      dup2\n        /* \"#utility.yul\":3568:3603   */\n      eq\n        /* \"#utility.yul\":3558:3621   */\n      tag_175\n      jumpi\n        /* \"#utility.yul\":3617:3618   */\n      0x00\n        /* \"#utility.yul\":3614:3615   */\n      dup1\n        /* \"#utility.yul\":3607:3619   */\n      revert\n        /* \"#utility.yul\":3558:3621   */\n    tag_175:\n        /* \"#utility.yul\":3505:3627   */\n      pop\n      jump\t// out\n        /* \"#utility.yul\":3633:3772   */\n    tag_100:\n        /* \"#utility.yul\":3679:3684   */\n      0x00\n        /* \"#utility.yul\":3717:3723   */\n      dup2\n        /* \"#utility.yul\":3704:3724   */\n      calldataload\n        /* \"#utility.yul\":3695:3724   */\n      swap1\n      pop\n        /* \"#utility.yul\":3733:3766   */\n      tag_177\n        /* \"#utility.yul\":3760:3765   */\n      dup2\n        /* \"#utility.yul\":3733:3766   */\n      tag_99\n      jump\t// in\n    tag_177:\n        /* \"#utility.yul\":3633:3772   */\n      swap3\n      swap2\n      pop\n      pop\n      jump\t// out\n        /* \"#utility.yul\":3778:4107   */\n    tag_22:\n        /* \"#utility.yul\":3837:3843   */\n      0x00\n        /* \"#utility.yul\":3886:3888   */\n      0x20\n        /* \"#utility.yul\":3874:3883   */\n      dup3\n        /* \"#utility.yul\":3865:3872   */\n      dup5\n        /* \"#utility.yul\":3861:3884   */\n      sub\n        /* \"#utility.yul\":3857:3889   */\n      slt\n        /* \"#utility.yul\":3854:3973   */\n      iszero\n      tag_179\n      jumpi\n        /* \"#utility.yul\":3892:3971   */\n      tag_180\n      tag_85\n      jump\t// in\n    tag_180:\n        /* \"#utility.yul\":3854:3973   */\n    tag_179:\n        /* \"#utility.yul\":4012:4013   */\n      0x00\n        /* \"#utility.yul\":4037:4090   */\n      tag_181\n        /* \"#utility.yul\":4082:4089   */\n      dup5\n        /* \"#utility.yul\":4073:4079   */\n      dup3\n        /* \"#utility.yul\":4062:4071   */\n      dup6\n        /* \"#utility.yul\":4058:4080   */\n      add\n        /* \"#utility.yul\":4037:4090   */\n      tag_100\n      jump\t// in\n    tag_181:\n        /* \"#utility.yul\":4027:4090   */\n      swap2\n      pop\n        /* \"#utility.yul\":3983:4100   */\n      pop\n        /* \"#utility.yul\":3778:4107   */\n      swap3\n      swap2\n      pop\n      pop\n      jump\t// out\n        /* \"#utility.yul\":4113:4212   */\n    tag_101:\n        /* \"#utility.yul\":4165:4171   */\n      0x00\n        /* \"#utility.yul\":4199:4204   */\n      dup2\n        /* \"#utility.yul\":4193:4205   */\n      mload\n        /* \"#utility.yul\":4183:4205   */\n      swap1\n      pop\n        /* \"#utility.yul\":4113:4212   */\n      swap2\n      swap1\n      pop\n      jump\t// out\n        /* \"#utility.yul\":4218:4387   */\n    tag_102:\n        /* \"#utility.yul\":4302:4313   */\n      0x00\n        /* \"#utility.yul\":4336:4342   */\n      dup3\n        /* \"#utility.yul\":4331:4334   */\n      dup3\n        /* \"#utility.yul\":4324:4343   */\n      mstore\n        /* \"#utility.yul\":4376:4380   */\n      0x20\n        /* \"#utility.yul\":4371:4374   */\n      dup3\n        /* \"#utility.yul\":4367:4381   */\n      add\n        /* \"#utility.yul\":4352:4381   */\n      swap1\n      pop\n        /* \"#utility.yul\":4218:4387   */\n      swap3\n      swap2\n      pop\n      pop\n      jump\t// out\n        /* \"#utility.yul\":4393:4532   */\n    tag_103:\n        /* \"#utility.yul\":4482:4488   */\n      dup3\n        /* \"#utility.yul\":4477:4480   */\n      dup2\n        /* \"#utility.yul\":4472:4475   */\n      dup4\n        /* \"#utility.yul\":4466:4489   */\n      mcopy\n        /* \"#utility.yul\":4523:4524   */\n      0x00\n        /* \"#utility.yul\":4514:4520   */\n      dup4\n        /* \"#utility.yul\":4509:4512   */\n      dup4\n        /* \"#utility.yul\":4505:4521   */\n      add\n        /* \"#utility.yul\":4498:4525   */\n      mstore\n        /* \"#utility.yul\":4393:4532   */\n      pop\n      pop\n      pop\n      jump\t// out\n        /* \"#utility.yul\":4538:4915   */\n    tag_104:\n        /* \"#utility.yul\":4626:4629   */\n      0x00\n        /* \"#utility.yul\":4654:4693   */\n      tag_186\n        /* \"#utility.yul\":4687:4692   */\n      dup3\n        /* \"#utility.yul\":4654:4693   */\n      tag_101\n      jump\t// in\n    tag_186:\n        /* \"#utility.yul\":4709:4780   */\n      tag_187\n        /* \"#utility.yul\":4773:4779   */\n      dup2\n        /* \"#utility.yul\":4768:4771   */\n      dup6\n        /* \"#utility.yul\":4709:4780   */\n      tag_102\n      jump\t// in\n    tag_187:\n        /* \"#utility.yul\":4702:4780   */\n      swap4\n      pop\n        /* \"#utility.yul\":4789:4854   */\n      tag_188\n        /* \"#utility.yul\":4847:4853   */\n      dup2\n        /* \"#utility.yul\":4842:4845   */\n      dup6\n        /* \"#utility.yul\":4835:4839   */\n      0x20\n        /* \"#utility.yul\":4828:4833   */\n      dup7\n        /* \"#utility.yul\":4824:4840   */\n      add\n        /* \"#utility.yul\":4789:4854   */\n      tag_103\n      jump\t// in\n    tag_188:\n        /* \"#utility.yul\":4879:4908   */\n      tag_189\n        /* \"#utility.yul\":4901:4907   */\n      dup2\n        /* \"#utility.yul\":4879:4908   */\n      tag_89\n      jump\t// in\n    tag_189:\n        /* \"#utility.yul\":4874:4877   */\n      dup5\n        /* \"#utility.yul\":4870:4909   */\n      add\n        /* \"#utility.yul\":4863:4909   */\n      swap2\n      pop\n        /* \"#utility.yul\":4630:4915   */\n      pop\n        /* \"#utility.yul\":4538:4915   */\n      swap3\n      swap2\n      pop\n      pop\n      jump\t// out\n        /* \"#utility.yul\":4921:5011   */\n    tag_105:\n        /* \"#utility.yul\":4955:4962   */\n      0x00\n        /* \"#utility.yul\":4998:5003   */\n      dup2\n        /* \"#utility.yul\":4991:5004   */\n      iszero\n        /* \"#utility.yul\":4984:5005   */\n      iszero\n        /* \"#utility.yul\":4973:5005   */\n      swap1\n      pop\n        /* \"#utility.yul\":4921:5011   */\n      swap2\n      swap1\n      pop\n      jump\t// out\n        /* \"#utility.yul\":5017:5126   */\n    tag_106:\n        /* \"#utility.yul\":5098:5119   */\n      tag_192\n        /* \"#utility.yul\":5113:5118   */\n      dup2\n        /* \"#utility.yul\":5098:5119   */\n      tag_105\n      jump\t// in\n    tag_192:\n        /* \"#utility.yul\":5093:5096   */\n      dup3\n        /* \"#utility.yul\":5086:5120   */\n      mstore\n        /* \"#utility.yul\":5017:5126   */\n      pop\n      pop\n      jump\t// out\n        /* \"#utility.yul\":5132:5653   */\n    tag_25:\n        /* \"#utility.yul\":5295:5299   */\n      0x00\n        /* \"#utility.yul\":5333:5335   */\n      0x60\n        /* \"#utility.yul\":5322:5331   */\n      dup3\n        /* \"#utility.yul\":5318:5336   */\n      add\n        /* \"#utility.yul\":5310:5336   */\n      swap1\n      pop\n        /* \"#utility.yul\":5382:5391   */\n      dup2\n        /* \"#utility.yul\":5376:5380   */\n      dup2\n        /* \"#utility.yul\":5372:5392   */\n      sub\n        /* \"#utility.yul\":5368:5369   */\n      0x00\n        /* \"#utility.yul\":5357:5366   */\n      dup4\n        /* \"#utility.yul\":5353:5370   */\n      add\n        /* \"#utility.yul\":5346:5393   */\n      mstore\n        /* \"#utility.yul\":5410:5488   */\n      tag_194\n        /* \"#utility.yul\":5483:5487   */\n      dup2\n        /* \"#utility.yul\":5474:5480   */\n      dup7\n        /* \"#utility.yul\":5410:5488   */\n      tag_104\n      jump\t// in\n    tag_194:\n        /* \"#utility.yul\":5402:5488   */\n      swap1\n      pop\n        /* \"#utility.yul\":5498:5570   */\n      tag_195\n        /* \"#utility.yul\":5566:5568   */\n      0x20\n        /* \"#utility.yul\":5555:5564   */\n      dup4\n        /* \"#utility.yul\":5551:5569   */\n      add\n        /* \"#utility.yul\":5542:5548   */\n      dup6\n        /* \"#utility.yul\":5498:5570   */\n      tag_98\n      jump\t// in\n    tag_195:\n        /* \"#utility.yul\":5580:5646   */\n      tag_196\n        /* \"#utility.yul\":5642:5644   */\n      0x40\n        /* \"#utility.yul\":5631:5640   */\n      dup4\n        /* \"#utility.yul\":5627:5645   */\n      add\n        /* \"#utility.yul\":5618:5624   */\n      dup5\n        /* \"#utility.yul\":5580:5646   */\n      tag_106\n      jump\t// in\n    tag_196:\n        /* \"#utility.yul\":5132:5653   */\n      swap5\n      swap4\n      pop\n      pop\n      pop\n      pop\n      jump\t// out\n        /* \"#utility.yul\":5659:5775   */\n    tag_107:\n        /* \"#utility.yul\":5729:5750   */\n      tag_198\n        /* \"#utility.yul\":5744:5749   */\n      dup2\n        /* \"#utility.yul\":5729:5750   */\n      tag_105\n      jump\t// in\n    tag_198:\n        /* \"#utility.yul\":5722:5727   */\n      dup2\n        /* \"#utility.yul\":5719:5751   */\n      eq\n        /* \"#utility.yul\":5709:5769   */\n      tag_199\n      jumpi\n        /* \"#utility.yul\":5765:5766   */\n      0x00\n        /* \"#utility.yul\":5762:5763   */\n      dup1\n        /* \"#utility.yul\":5755:5767   */\n      revert\n        /* \"#utility.yul\":5709:5769   */\n    tag_199:\n        /* \"#utility.yul\":5659:5775   */\n      pop\n      jump\t// out\n        /* \"#utility.yul\":5781:5914   */\n    tag_108:\n        /* \"#utility.yul\":5824:5829   */\n      0x00\n        /* \"#utility.yul\":5862:5868   */\n      dup2\n        /* \"#utility.yul\":5849:5869   */\n      calldataload\n        /* \"#utility.yul\":5840:5869   */\n      swap1\n      pop\n        /* \"#utility.yul\":5878:5908   */\n      tag_201\n        /* \"#utility.yul\":5902:5907   */\n      dup2\n        /* \"#utility.yul\":5878:5908   */\n      tag_107\n      jump\t// in\n    tag_201:\n        /* \"#utility.yul\":5781:5914   */\n      swap3\n      swap2\n      pop\n      pop\n      jump\t// out\n        /* \"#utility.yul\":5920:6713   */\n    tag_28:\n        /* \"#utility.yul\":6004:6010   */\n      0x00\n        /* \"#utility.yul\":6012:6018   */\n      dup1\n        /* \"#utility.yul\":6020:6026   */\n      0x00\n        /* \"#utility.yul\":6069:6071   */\n      0x60\n        /* \"#utility.yul\":6057:6066   */\n      dup5\n        /* \"#utility.yul\":6048:6055   */\n      dup7\n        /* \"#utility.yul\":6044:6067   */\n      sub\n        /* \"#utility.yul\":6040:6072   */\n      slt\n        /* \"#utility.yul\":6037:6156   */\n      iszero\n      tag_203\n      jumpi\n        /* \"#utility.yul\":6075:6154   */\n      tag_204\n      tag_85\n      jump\t// in\n    tag_204:\n        /* \"#utility.yul\":6037:6156   */\n    tag_203:\n        /* \"#utility.yul\":6223:6224   */\n      0x00\n        /* \"#utility.yul\":6212:6221   */\n      dup5\n        /* \"#utility.yul\":6208:6225   */\n      add\n        /* \"#utility.yul\":6195:6226   */\n      calldataload\n        /* \"#utility.yul\":6253:6271   */\n      0xffffffffffffffff\n        /* \"#utility.yul\":6245:6251   */\n      dup2\n        /* \"#utility.yul\":6242:6272   */\n      gt\n        /* \"#utility.yul\":6239:6356   */\n      iszero\n      tag_205\n      jumpi\n        /* \"#utility.yul\":6275:6354   */\n      tag_206\n      tag_86\n      jump\t// in\n    tag_206:\n        /* \"#utility.yul\":6239:6356   */\n    tag_205:\n        /* \"#utility.yul\":6380:6443   */\n      tag_207\n        /* \"#utility.yul\":6435:6442   */\n      dup7\n        /* \"#utility.yul\":6426:6432   */\n      dup3\n        /* \"#utility.yul\":6415:6424   */\n      dup8\n        /* \"#utility.yul\":6411:6433   */\n      add\n        /* \"#utility.yul\":6380:6443   */\n      tag_96\n      jump\t// in\n    tag_207:\n        /* \"#utility.yul\":6370:6443   */\n      swap4\n      pop\n        /* \"#utility.yul\":6166:6453   */\n      pop\n        /* \"#utility.yul\":6492:6494   */\n      0x20\n        /* \"#utility.yul\":6518:6571   */\n      tag_208\n        /* \"#utility.yul\":6563:6570   */\n      dup7\n        /* \"#utility.yul\":6554:6560   */\n      dup3\n        /* \"#utility.yul\":6543:6552   */\n      dup8\n        /* \"#utility.yul\":6539:6561   */\n      add\n        /* \"#utility.yul\":6518:6571   */\n      tag_100\n      jump\t// in\n    tag_208:\n        /* \"#utility.yul\":6508:6571   */\n      swap3\n      pop\n        /* \"#utility.yul\":6463:6581   */\n      pop\n        /* \"#utility.yul\":6620:6622   */\n      0x40\n        /* \"#utility.yul\":6646:6696   */\n      tag_209\n        /* \"#utility.yul\":6688:6695   */\n      dup7\n        /* \"#utility.yul\":6679:6685   */\n      dup3\n        /* \"#utility.yul\":6668:6677   */\n      dup8\n        /* \"#utility.yul\":6664:6686   */\n      add\n        /* \"#utility.yul\":6646:6696   */\n      tag_108\n      jump\t// in\n    tag_209:\n        /* \"#utility.yul\":6636:6696   */\n      swap2\n      pop\n        /* \"#utility.yul\":6591:6706   */\n      pop\n        /* \"#utility.yul\":5920:6713   */\n      swap3\n      pop\n      swap3\n      pop\n      swap3\n      jump\t// out\n        /* \"#utility.yul\":6719:6845   */\n    tag_109:\n        /* \"#utility.yul\":6756:6763   */\n      0x00\n        /* \"#utility.yul\":6796:6838   */\n      0xffffffffffffffffffffffffffffffffffffffff\n        /* \"#utility.yul\":6789:6794   */\n      dup3\n        /* \"#utility.yul\":6785:6839   */\n      and\n        /* \"#utility.yul\":6774:6839   */\n      swap1\n      pop\n        /* \"#utility.yul\":6719:6845   */\n      swap2\n      swap1\n      pop\n      jump\t// out\n        /* \"#utility.yul\":6851:6947   */\n    tag_110:\n        /* \"#utility.yul\":6888:6895   */\n      0x00\n        /* \"#utility.yul\":6917:6941   */\n      tag_212\n        /* \"#utility.yul\":6935:6940   */\n      dup3\n        /* \"#utility.yul\":6917:6941   */\n      tag_109\n      jump\t// in\n    tag_212:\n        /* \"#utility.yul\":6906:6941   */\n      swap1\n      pop\n        /* \"#utility.yul\":6851:6947   */\n      swap2\n      swap1\n      pop\n      jump\t// out\n        /* \"#utility.yul\":6953:7075   */\n    tag_111:\n        /* \"#utility.yul\":7026:7050   */\n      tag_214\n        /* \"#utility.yul\":7044:7049   */\n      dup2\n        /* \"#utility.yul\":7026:7050   */\n      tag_110\n      jump\t// in\n    tag_214:\n        /* \"#utility.yul\":7019:7024   */\n      dup2\n        /* \"#utility.yul\":7016:7051   */\n      eq\n        /* \"#utility.yul\":7006:7069   */\n      tag_215\n      jumpi\n        /* \"#utility.yul\":7065:7066   */\n      0x00\n        /* \"#utility.yul\":7062:7063   */\n      dup1\n        /* \"#utility.yul\":7055:7067   */\n      revert\n        /* \"#utility.yul\":7006:7069   */\n    tag_215:\n        /* \"#utility.yul\":6953:7075   */\n      pop\n      jump\t// out\n        /* \"#utility.yul\":7081:7220   */\n    tag_112:\n        /* \"#utility.yul\":7127:7132   */\n      0x00\n        /* \"#utility.yul\":7165:7171   */\n      dup2\n        /* \"#utility.yul\":7152:7172   */\n      calldataload\n        /* \"#utility.yul\":7143:7172   */\n      swap1\n      pop\n        /* \"#utility.yul\":7181:7214   */\n      tag_217\n        /* \"#utility.yul\":7208:7213   */\n      dup2\n        /* \"#utility.yul\":7181:7214   */\n      tag_111\n      jump\t// in\n    tag_217:\n        /* \"#utility.yul\":7081:7220   */\n      swap3\n      swap2\n      pop\n      pop\n      jump\t// out\n        /* \"#utility.yul\":7226:7555   */\n    tag_35:\n        /* \"#utility.yul\":7285:7291   */\n      0x00\n        /* \"#utility.yul\":7334:7336   */\n      0x20\n        /* \"#utility.yul\":7322:7331   */\n      dup3\n        /* \"#utility.yul\":7313:7320   */\n      dup5\n        /* \"#utility.yul\":7309:7332   */\n      sub\n        /* \"#utility.yul\":7305:7337   */\n      slt\n        /* \"#utility.yul\":7302:7421   */\n      iszero\n      tag_219\n      jumpi\n        /* \"#utility.yul\":7340:7419   */\n      tag_220\n      tag_85\n      jump\t// in\n    tag_220:\n        /* \"#utility.yul\":7302:7421   */\n    tag_219:\n        /* \"#utility.yul\":7460:7461   */\n      0x00\n        /* \"#utility.yul\":7485:7538   */\n      tag_221\n        /* \"#utility.yul\":7530:7537   */\n      dup5\n        /* \"#utility.yul\":7521:7527   */\n      dup3\n        /* \"#utility.yul\":7510:7519   */\n      dup6\n        /* \"#utility.yul\":7506:7528   */\n      add\n        /* \"#utility.yul\":7485:7538   */\n      tag_112\n      jump\t// in\n    tag_221:\n        /* \"#utility.yul\":7475:7538   */\n      swap2\n      pop\n        /* \"#utility.yul\":7431:7548   */\n      pop\n        /* \"#utility.yul\":7226:7555   */\n      swap3\n      swap2\n      pop\n      pop\n      jump\t// out\n        /* \"#utility.yul\":7561:8215   */\n    tag_40:\n        /* \"#utility.yul\":7639:7645   */\n      0x00\n        /* \"#utility.yul\":7647:7653   */\n      dup1\n        /* \"#utility.yul\":7696:7698   */\n      0x40\n        /* \"#utility.yul\":7684:7693   */\n      dup4\n        /* \"#utility.yul\":7675:7682   */\n      dup6\n        /* \"#utility.yul\":7671:7694   */\n      sub\n        /* \"#utility.yul\":7667:7699   */\n      slt\n        /* \"#utility.yul\":7664:7783   */\n      iszero\n      tag_223\n      jumpi\n        /* \"#utility.yul\":7702:7781   */\n      tag_224\n      tag_85\n      jump\t// in\n    tag_224:\n        /* \"#utility.yul\":7664:7783   */\n    tag_223:\n        /* \"#utility.yul\":7822:7823   */\n      0x00\n        /* \"#utility.yul\":7847:7900   */\n      tag_225\n        /* \"#utility.yul\":7892:7899   */\n      dup6\n        /* \"#utility.yul\":7883:7889   */\n      dup3\n        /* \"#utility.yul\":7872:7881   */\n      dup7\n        /* \"#utility.yul\":7868:7890   */\n      add\n        /* \"#utility.yul\":7847:7900   */\n      tag_112\n      jump\t// in\n    tag_225:\n        /* \"#utility.yul\":7837:7900   */\n      swap3\n      pop\n        /* \"#utility.yul\":7793:7910   */\n      pop\n        /* \"#utility.yul\":7977:7979   */\n      0x20\n        /* \"#utility.yul\":7966:7975   */\n      dup4\n        /* \"#utility.yul\":7962:7980   */\n      add\n        /* \"#utility.yul\":7949:7981   */\n      calldataload\n        /* \"#utility.yul\":8008:8026   */\n      0xffffffffffffffff\n        /* \"#utility.yul\":8000:8006   */\n      dup2\n        /* \"#utility.yul\":7997:8027   */\n      gt\n        /* \"#utility.yul\":7994:8111   */\n      iszero\n      tag_226\n      jumpi\n        /* \"#utility.yul\":8030:8109   */\n      tag_227\n      tag_86\n      jump\t// in\n    tag_227:\n        /* \"#utility.yul\":7994:8111   */\n    tag_226:\n        /* \"#utility.yul\":8135:8198   */\n      tag_228\n        /* \"#utility.yul\":8190:8197   */\n      dup6\n        /* \"#utility.yul\":8181:8187   */\n      dup3\n        /* \"#utility.yul\":8170:8179   */\n      dup7\n        /* \"#utility.yul\":8166:8188   */\n      add\n        /* \"#utility.yul\":8135:8198   */\n      tag_96\n      jump\t// in\n    tag_228:\n        /* \"#utility.yul\":8125:8198   */\n      swap2\n      pop\n        /* \"#utility.yul\":7920:8208   */\n      pop\n        /* \"#utility.yul\":7561:8215   */\n      swap3\n      pop\n      swap3\n      swap1\n      pop\n      jump\t// out\n        /* \"#utility.yul\":8221:8875   */\n    tag_45:\n        /* \"#utility.yul\":8299:8305   */\n      0x00\n        /* \"#utility.yul\":8307:8313   */\n      dup1\n        /* \"#utility.yul\":8356:8358   */\n      0x40\n        /* \"#utility.yul\":8344:8353   */\n      dup4\n        /* \"#utility.yul\":8335:8342   */\n      dup6\n        /* \"#utility.yul\":8331:8354   */\n      sub\n        /* \"#utility.yul\":8327:8359   */\n      slt\n        /* \"#utility.yul\":8324:8443   */\n      iszero\n      tag_230\n      jumpi\n        /* \"#utility.yul\":8362:8441   */\n      tag_231\n      tag_85\n      jump\t// in\n    tag_231:\n        /* \"#utility.yul\":8324:8443   */\n    tag_230:\n        /* \"#utility.yul\":8510:8511   */\n      0x00\n        /* \"#utility.yul\":8499:8508   */\n      dup4\n        /* \"#utility.yul\":8495:8512   */\n      add\n        /* \"#utility.yul\":8482:8513   */\n      calldataload\n        /* \"#utility.yul\":8540:8558   */\n      0xffffffffffffffff\n        /* \"#utility.yul\":8532:8538   */\n      dup2\n        /* \"#utility.yul\":8529:8559   */\n      gt\n        /* \"#utility.yul\":8526:8643   */\n      iszero\n      tag_232\n      jumpi\n        /* \"#utility.yul\":8562:8641   */\n      tag_233\n      tag_86\n      jump\t// in\n    tag_233:\n        /* \"#utility.yul\":8526:8643   */\n    tag_232:\n        /* \"#utility.yul\":8667:8730   */\n      tag_234\n        /* \"#utility.yul\":8722:8729   */\n      dup6\n        /* \"#utility.yul\":8713:8719   */\n      dup3\n        /* \"#utility.yul\":8702:8711   */\n      dup7\n        /* \"#utility.yul\":8698:8720   */\n      add\n        /* \"#utility.yul\":8667:8730   */\n      tag_96\n      jump\t// in\n    tag_234:\n        /* \"#utility.yul\":8657:8730   */\n      swap3\n      pop\n        /* \"#utility.yul\":8453:8740   */\n      pop\n        /* \"#utility.yul\":8779:8781   */\n      0x20\n        /* \"#utility.yul\":8805:8858   */\n      tag_235\n        /* \"#utility.yul\":8850:8857   */\n      dup6\n        /* \"#utility.yul\":8841:8847   */\n      dup3\n        /* \"#utility.yul\":8830:8839   */\n      dup7\n        /* \"#utility.yul\":8826:8848   */\n      add\n        /* \"#utility.yul\":8805:8858   */\n      tag_100\n      jump\t// in\n    tag_235:\n        /* \"#utility.yul\":8795:8858   */\n      swap2\n      pop\n        /* \"#utility.yul\":8750:8868   */\n      pop\n        /* \"#utility.yul\":8221:8875   */\n      swap3\n      pop\n      swap3\n      swap1\n      pop\n      jump\t// out\n        /* \"#utility.yul\":8881:9029   */\n    tag_113:\n        /* \"#utility.yul\":8983:8994   */\n      0x00\n        /* \"#utility.yul\":9020:9023   */\n      dup2\n        /* \"#utility.yul\":9005:9023   */\n      swap1\n      pop\n        /* \"#utility.yul\":8881:9029   */\n      swap3\n      swap2\n      pop\n      pop\n      jump\t// out\n        /* \"#utility.yul\":9035:9425   */\n    tag_114:\n        /* \"#utility.yul\":9141:9144   */\n      0x00\n        /* \"#utility.yul\":9169:9208   */\n      tag_238\n        /* \"#utility.yul\":9202:9207   */\n      dup3\n        /* \"#utility.yul\":9169:9208   */\n      tag_101\n      jump\t// in\n    tag_238:\n        /* \"#utility.yul\":9224:9313   */\n      tag_239\n        /* \"#utility.yul\":9306:9312   */\n      dup2\n        /* \"#utility.yul\":9301:9304   */\n      dup6\n        /* \"#utility.yul\":9224:9313   */\n      tag_113\n      jump\t// in\n    tag_239:\n        /* \"#utility.yul\":9217:9313   */\n      swap4\n      pop\n        /* \"#utility.yul\":9322:9387   */\n      tag_240\n        /* \"#utility.yul\":9380:9386   */\n      dup2\n        /* \"#utility.yul\":9375:9378   */\n      dup6\n        /* \"#utility.yul\":9368:9372   */\n      0x20\n        /* \"#utility.yul\":9361:9366   */\n      dup7\n        /* \"#utility.yul\":9357:9373   */\n      add\n        /* \"#utility.yul\":9322:9387   */\n      tag_103\n      jump\t// in\n    tag_240:\n        /* \"#utility.yul\":9412:9418   */\n      dup1\n        /* \"#utility.yul\":9407:9410   */\n      dup5\n        /* \"#utility.yul\":9403:9419   */\n      add\n        /* \"#utility.yul\":9396:9419   */\n      swap2\n      pop\n        /* \"#utility.yul\":9145:9425   */\n      pop\n        /* \"#utility.yul\":9035:9425   */\n      swap3\n      swap2\n      pop\n      pop\n      jump\t// out\n        /* \"#utility.yul\":9431:9706   */\n    tag_58:\n        /* \"#utility.yul\":9563:9566   */\n      0x00\n        /* \"#utility.yul\":9585:9680   */\n      tag_242\n        /* \"#utility.yul\":9676:9679   */\n      dup3\n        /* \"#utility.yul\":9667:9673   */\n      dup5\n        /* \"#utility.yul\":9585:9680   */\n      tag_114\n      jump\t// in\n    tag_242:\n        /* \"#utility.yul\":9578:9680   */\n      swap2\n      pop\n        /* \"#utility.yul\":9697:9700   */\n      dup2\n        /* \"#utility.yul\":9690:9700   */\n      swap1\n      pop\n        /* \"#utility.yul\":9431:9706   */\n      swap3\n      swap2\n      pop\n      pop\n      jump\t// out\n        /* \"#utility.yul\":9712:9892   */\n    tag_115:\n        /* \"#utility.yul\":9760:9837   */\n      0x4e487b7100000000000000000000000000000000000000000000000000000000\n        /* \"#utility.yul\":9757:9758   */\n      0x00\n        /* \"#utility.yul\":9750:9838   */\n      mstore\n        /* \"#utility.yul\":9857:9861   */\n      0x22\n        /* \"#utility.yul\":9854:9855   */\n      0x04\n        /* \"#utility.yul\":9847:9862   */\n      mstore\n        /* \"#utility.yul\":9881:9885   */\n      0x24\n        /* \"#utility.yul\":9878:9879   */\n      0x00\n        /* \"#utility.yul\":9871:9886   */\n      revert\n        /* \"#utility.yul\":9898:10218   */\n    tag_62:\n        /* \"#utility.yul\":9942:9948   */\n      0x00\n        /* \"#utility.yul\":9979:9980   */\n      0x02\n        /* \"#utility.yul\":9973:9977   */\n      dup3\n        /* \"#utility.yul\":9969:9981   */\n      div\n        /* \"#utility.yul\":9959:9981   */\n      swap1\n      pop\n        /* \"#utility.yul\":10026:10027   */\n      0x01\n        /* \"#utility.yul\":10020:10024   */\n      dup3\n        /* \"#utility.yul\":10016:10028   */\n      and\n        /* \"#utility.yul\":10047:10065   */\n      dup1\n        /* \"#utility.yul\":10037:10118   */\n      tag_245\n      jumpi\n        /* \"#utility.yul\":10103:10107   */\n      0x7f\n        /* \"#utility.yul\":10095:10101   */\n      dup3\n        /* \"#utility.yul\":10091:10108   */\n      and\n        /* \"#utility.yul\":10081:10108   */\n      swap2\n      pop\n        /* \"#utility.yul\":10037:10118   */\n    tag_245:\n        /* \"#utility.yul\":10165:10167   */\n      0x20\n        /* \"#utility.yul\":10157:10163   */\n      dup3\n        /* \"#utility.yul\":10154:10168   */\n      lt\n        /* \"#utility.yul\":10134:10152   */\n      dup2\n        /* \"#utility.yul\":10131:10169   */\n      sub\n        /* \"#utility.yul\":10128:10212   */\n      tag_246\n      jumpi\n        /* \"#utility.yul\":10184:10202   */\n      tag_247\n      tag_115\n      jump\t// in\n    tag_247:\n        /* \"#utility.yul\":10128:10212   */\n    tag_246:\n        /* \"#utility.yul\":9949:10218   */\n      pop\n        /* \"#utility.yul\":9898:10218   */\n      swap2\n      swap1\n      pop\n      jump\t// out\n        /* \"#utility.yul\":10224:10365   */\n    tag_116:\n        /* \"#utility.yul\":10273:10277   */\n      0x00\n        /* \"#utility.yul\":10296:10299   */\n      dup2\n        /* \"#utility.yul\":10288:10299   */\n      swap1\n      pop\n        /* \"#utility.yul\":10319:10322   */\n      dup2\n        /* \"#utility.yul\":10316:10317   */\n      0x00\n        /* \"#utility.yul\":10309:10323   */\n      mstore\n        /* \"#utility.yul\":10353:10357   */\n      0x20\n        /* \"#utility.yul\":10350:10351   */\n      0x00\n        /* \"#utility.yul\":10340:10358   */\n      keccak256\n        /* \"#utility.yul\":10332:10358   */\n      swap1\n      pop\n        /* \"#utility.yul\":10224:10365   */\n      swap2\n      swap1\n      pop\n      jump\t// out\n        /* \"#utility.yul\":10371:10464   */\n    tag_117:\n        /* \"#utility.yul\":10408:10414   */\n      0x00\n        /* \"#utility.yul\":10455:10457   */\n      0x20\n        /* \"#utility.yul\":10450:10452   */\n      0x1f\n        /* \"#utility.yul\":10443:10448   */\n      dup4\n        /* \"#utility.yul\":10439:10453   */\n      add\n        /* \"#utility.yul\":10435:10458   */\n      div\n        /* \"#utility.yul\":10425:10458   */\n      swap1\n      pop\n        /* \"#utility.yul\":10371:10464   */\n      swap2\n      swap1\n      pop\n      jump\t// out\n        /* \"#utility.yul\":10470:10577   */\n    tag_118:\n        /* \"#utility.yul\":10514:10522   */\n      0x00\n        /* \"#utility.yul\":10564:10569   */\n      dup3\n        /* \"#utility.yul\":10558:10562   */\n      dup3\n        /* \"#utility.yul\":10554:10570   */\n      shl\n        /* \"#utility.yul\":10533:10570   */\n      swap1\n      pop\n        /* \"#utility.yul\":10470:10577   */\n      swap3\n      swap2\n      pop\n      pop\n      jump\t// out\n        /* \"#utility.yul\":10583:10976   */\n    tag_119:\n        /* \"#utility.yul\":10652:10658   */\n      0x00\n        /* \"#utility.yul\":10702:10703   */\n      0x08\n        /* \"#utility.yul\":10690:10700   */\n      dup4\n        /* \"#utility.yul\":10686:10704   */\n      mul\n        /* \"#utility.yul\":10725:10822   */\n      tag_252\n        /* \"#utility.yul\":10755:10821   */\n      0xffffffffffffffffffffffffffffffffffffffffffffffffffffffffffffffff\n        /* \"#utility.yul\":10744:10753   */\n      dup3\n        /* \"#utility.yul\":10725:10822   */\n      tag_118\n      jump\t// in\n    tag_252:\n        /* \"#utility.yul\":10843:10882   */\n      tag_253\n        /* \"#utility.yul\":10873:10881   */\n      dup7\n        /* \"#utility.yul\":10862:10871   */\n      dup4\n        /* \"#utility.yul\":10843:10882   */\n      tag_118\n      jump\t// in\n    tag_253:\n        /* \"#utility.yul\":10831:10882   */\n      swap6\n      pop\n        /* \"#utility.yul\":10915:10919   */\n      dup1\n        /* \"#utility.yul\":10911:10920   */\n      not\n        /* \"#utility.yul\":10904:10909   */\n      dup5\n        /* \"#utility.yul\":10900:10921   */\n      and\n        /* \"#utility.yul\":10891:10921   */\n      swap4\n      pop\n        /* \"#utility.yul\":10964:10968   */\n      dup1\n        /* \"#utility.yul\":10954:10962   */\n      dup7\n        /* \"#utility.yul\":10950:10969   */\n      and\n        /* \"#utility.yul\":10943:10948   */\n      dup5\n        /* \"#utility.yul\":10940:10970   */\n      or\n        /* \"#utility.yul\":10930:10970   */\n      swap3\n      pop\n        /* \"#utility.yul\":10659:10976   */\n      pop\n      pop\n        /* \"#utility.yul\":10583:10976   */\n      swap4\n      swap3\n      pop\n      pop\n      pop\n      jump\t// out\n        /* \"#utility.yul\":10982:11042   */\n    tag_120:\n        /* \"#utility.yul\":11010:11013   */\n      0x00\n        /* \"#utility.yul\":11031:11036   */\n      dup2\n        /* \"#utility.yul\":11024:11036   */\n      swap1\n      pop\n        /* \"#utility.yul\":10982:11042   */\n      swap2\n      swap1\n      pop\n      jump\t// out\n        /* \"#utility.yul\":11048:11190   */\n    tag_121:\n        /* \"#utility.yul\":11098:11107   */\n      0x00\n        /* \"#utility.yul\":11131:11184   */\n      tag_256\n        /* \"#utility.yul\":11149:11183   */\n      tag_257\n        /* \"#utility.yul\":11158:11182   */\n      tag_258\n        /* \"#utility.yul\":11176:11181   */\n      dup5\n        /* \"#utility.yul\":11158:11182   */\n      tag_97\n      jump\t// in\n    tag_258:\n        /* \"#utility.yul\":11149:11183   */\n      tag_120\n      jump\t// in\n    tag_257:\n        /* \"#utility.yul\":11131:11184   */\n      tag_97\n      jump\t// in\n    tag_256:\n        /* \"#utility.yul\":11118:11184   */\n      swap1\n      pop\n        /* \"#utility.yul\":11048:11190   */\n      swap2\n      swap1\n      pop\n      jump\t// out\n        /* \"#utility.yul\":11196:11271   */\n    tag_122:\n        /* \"#utility.yul\":11239:11242   */\n      0x00\n        /* \"#utility.yul\":11260:11265   */\n      dup2\n        /* \"#utility.yul\":11253:11265   */\n      swap1\n      pop\n        /* \"#utility.yul\":11196:11271   */\n      swap2\n      swap1\n      pop\n      jump\t// out\n        /* \"#utility.yul\":11277:11546   */\n    tag_123:\n        /* \"#utility.yul\":11387:11426   */\n      tag_261\n        /* \"#utility.yul\":11418:11425   */\n      dup4\n        /* \"#utility.yul\":11387:11426   */\n      tag_121\n      jump\t// in\n    tag_261:\n        /* \"#utility.yul\":11448:11539   */\n      tag_262\n        /* \"#utility.yul\":11497:11538   */\n      tag_263\n        /* \"#utility.yul\":11521:11537   */\n      dup3\n        /* \"#utility.yul\":11497:11538   */\n      tag_122\n      jump\t// in\n    tag_263:\n        /* \"#utility.yul\":11489:11495   */\n      dup5\n        /* \"#utility.yul\":11482:11486   */\n      dup5\n        /* \"#utility.yul\":11476:11487   */\n      sload\n        /* \"#utility.yul\":11448:11539   */\n      tag_119\n      jump\t// in\n    tag_262:\n        /* \"#utility.yul\":11442:11446   */\n      dup3\n        /* \"#utility.yul\":11435:11540   */\n      sstore\n        /* \"#utility.yul\":11353:11546   */\n      pop\n        /* \"#utility.yul\":11277:11546   */\n      pop\n      pop\n      pop\n      jump\t// out\n        /* \"#utility.yul\":11552:11625   */\n    tag_124:\n        /* \"#utility.yul\":11597:11600   */\n      0x00\n        /* \"#utility.yul\":11552:11625   */\n      swap1\n      jump\t// out\n        /* \"#utility.yul\":11631:11820   */\n    tag_125:\n        /* \"#utility.yul\":11708:11740   */\n      tag_266\n      tag_124\n      jump\t// in\n    tag_266:\n        /* \"#utility.yul\":11749:11814   */\n      tag_267\n        /* \"#utility.yul\":11807:11813   */\n      dup2\n        /* \"#utility.yul\":11799:11805   */\n      dup5\n        /* \"#utility.yul\":11793:11797   */\n      dup5\n        /* \"#utility.yul\":11749:11814   */\n      tag_123\n      jump\t// in\n    tag_267:\n        /* \"#utility.yul\":11684:11820   */\n      pop\n        /* \"#utility.yul\":11631:11820   */\n      pop\n      pop\n      jump\t// out\n        /* \"#utility.yul\":11826:12012   */\n    tag_126:\n        /* \"#utility.yul\":11886:12006   */\n    tag_269:\n        /* \"#utility.yul\":11903:11906   */\n      dup2\n        /* \"#utility.yul\":11896:11901   */\n      dup2\n        /* \"#utility.yul\":11893:11907   */\n      lt\n        /* \"#utility.yul\":11886:12006   */\n      iszero\n      tag_271\n      jumpi\n        /* \"#utility.yul\":11957:11996   */\n      tag_272\n        /* \"#utility.yul\":11994:11995   */\n      0x00\n        /* \"#utility.yul\":11987:11992   */\n      dup3\n        /* \"#utility.yul\":11957:11996   */\n      tag_125\n      jump\t// in\n    tag_272:\n        /* \"#utility.yul\":11930:11931   */\n      0x01\n        /* \"#utility.yul\":11923:11928   */\n      dup2\n        /* \"#utility.yul\":11919:11932   */\n      add\n        /* \"#utility.yul\":11910:11932   */\n      swap1\n      pop\n        /* \"#utility.yul\":11886:12006   */\n      jump(tag_269)\n    tag_271:\n        /* \"#utility.yul\":11826:12012   */\n      pop\n      pop\n      jump\t// out\n        /* \"#utility.yul\":12018:12561   */\n    tag_127:\n        /* \"#utility.yul\":12119:12121   */\n      0x1f\n        /* \"#utility.yul\":12114:12117   */\n      dup3\n        /* \"#utility.yul\":12111:12122   */\n      gt\n        /* \"#utility.yul\":12108:12554   */\n      iszero\n      tag_274\n      jumpi\n        /* \"#utility.yul\":12153:12191   */\n      tag_275\n        /* \"#utility.yul\":12185:12190   */\n      dup2\n        /* \"#utility.yul\":12153:12191   */\n      tag_116\n      jump\t// in\n    tag_275:\n        /* \"#utility.yul\":12237:12266   */\n      tag_276\n        /* \"#utility.yul\":12255:12265   */\n      dup5\n        /* \"#utility.yul\":12237:12266   */\n      tag_117\n      jump\t// in\n    tag_276:\n        /* \"#utility.yul\":12227:12235   */\n      dup2\n        /* \"#utility.yul\":12223:12267   */\n      add\n        /* \"#utility.yul\":12420:12422   */\n      0x20\n        /* \"#utility.yul\":12408:12418   */\n      dup6\n        /* \"#utility.yul\":12405:12423   */\n      lt\n        /* \"#utility.yul\":12402:12451   */\n      iszero\n      tag_277\n      jumpi\n        /* \"#utility.yul\":12441:12449   */\n      dup2\n        /* \"#utility.yul\":12426:12449   */\n      swap1\n      pop\n        /* \"#utility.yul\":12402:12451   */\n    tag_277:\n        /* \"#utility.yul\":12464:12544   */\n      tag_278\n        /* \"#utility.yul\":12520:12542   */\n      tag_279\n        /* \"#utility.yul\":12538:12541   */\n      dup6\n        /* \"#utility.yul\":12520:12542   */\n      tag_117\n      jump\t// in\n    tag_279:\n        /* \"#utility.yul\":12510:12518   */\n      dup4\n        /* \"#utility.yul\":12506:12543   */\n      add\n        /* \"#utility.yul\":12493:12504   */\n      dup3\n        /* \"#utility.yul\":12464:12544   */\n      tag_126\n      jump\t// in\n    tag_278:\n        /* \"#utility.yul\":12123:12554   */\n      pop\n      pop\n        /* \"#utility.yul\":12108:12554   */\n    tag_274:\n        /* \"#utility.yul\":12018:12561   */\n      pop\n      pop\n      pop\n      jump\t// out\n        /* \"#utility.yul\":12567:12684   */\n    tag_128:\n        /* \"#utility.yul\":12621:12629   */\n      0x00\n        /* \"#utility.yul\":12671:12676   */\n      dup3\n        /* \"#utility.yul\":12665:12669   */\n      dup3\n        /* \"#utility.yul\":12661:12677   */\n      shr\n        /* \"#utility.yul\":12640:12677   */\n      swap1\n      pop\n        /* \"#utility.yul\":12567:12684   */\n      swap3\n      swap2\n      pop\n      pop\n      jump\t// out\n        /* \"#utility.yul\":12690:12859   */\n    tag_129:\n        /* \"#utility.yul\":12734:12740   */\n      0x00\n        /* \"#utility.yul\":12767:12818   */\n      tag_282\n        /* \"#utility.yul\":12815:12816   */\n      0x00\n        /* \"#utility.yul\":12811:12817   */\n      not\n        /* \"#utility.yul\":12803:12808   */\n      dup5\n        /* \"#utility.yul\":12800:12801   */\n      0x08\n        /* \"#utility.yul\":12796:12809   */\n      mul\n        /* \"#utility.yul\":12767:12818   */\n      tag_128\n      jump\t// in\n    tag_282:\n        /* \"#utility.yul\":12763:12819   */\n      not\n        /* \"#utility.yul\":12848:12852   */\n      dup1\n        /* \"#utility.yul\":12842:12846   */\n      dup4\n        /* \"#utility.yul\":12838:12853   */\n      and\n        /* \"#utility.yul\":12828:12853   */\n      swap2\n      pop\n        /* \"#utility.yul\":12741:12859   */\n      pop\n        /* \"#utility.yul\":12690:12859   */\n      swap3\n      swap2\n      pop\n      pop\n      jump\t// out\n        /* \"#utility.yul\":12864:13159   */\n    tag_130:\n        /* \"#utility.yul\":12940:12944   */\n      0x00\n        /* \"#utility.yul\":13086:13115   */\n      tag_284\n        /* \"#utility.yul\":13111:13114   */\n      dup4\n        /* \"#utility.yul\":13105:13109   */\n      dup4\n        /* \"#utility.yul\":13086:13115   */\n      tag_129\n      jump\t// in\n    tag_284:\n        /* \"#utility.yul\":13078:13115   */\n      swap2\n      pop\n        /* \"#utility.yul\":13148:13151   */\n      dup3\n        /* \"#utility.yul\":13145:13146   */\n      0x02\n        /* \"#utility.yul\":13141:13152   */\n      mul\n        /* \"#utility.yul\":13135:13139   */\n      dup3\n        /* \"#utility.yul\":13132:13153   */\n      or\n        /* \"#utility.yul\":13124:13153   */\n      swap1\n      pop\n        /* \"#utility.yul\":12864:13159   */\n      swap3\n      swap2\n      pop\n      pop\n      jump\t// out\n        /* \"#utility.yul\":13164:14559   */\n    tag_69:\n        /* \"#utility.yul\":13281:13318   */\n      tag_286\n        /* \"#utility.yul\":13314:13317   */\n      dup3\n        /* \"#utility.yul\":13281:13318   */\n      tag_101\n      jump\t// in\n    tag_286:\n        /* \"#utility.yul\":13383:13401   */\n      0xffffffffffffffff\n        /* \"#utility.yul\":13375:13381   */\n      dup2\n        /* \"#utility.yul\":13372:13402   */\n      gt\n        /* \"#utility.yul\":13369:13425   */\n      iszero\n      tag_287\n      jumpi\n        /* \"#utility.yul\":13405:13423   */\n      tag_288\n      tag_90\n      jump\t// in\n    tag_288:\n        /* \"#utility.yul\":13369:13425   */\n    tag_287:\n        /* \"#utility.yul\":13449:13487   */\n      tag_289\n        /* \"#utility.yul\":13481:13485   */\n      dup3\n        /* \"#utility.yul\":13475:13486   */\n      sload\n        /* \"#utility.yul\":13449:13487   */\n      tag_62\n      jump\t// in\n    tag_289:\n        /* \"#utility.yul\":13534:13601   */\n      tag_290\n        /* \"#utility.yul\":13594:13600   */\n      dup3\n        /* \"#utility.yul\":13586:13592   */\n      dup3\n        /* \"#utility.yul\":13580:13584   */\n      dup6\n        /* \"#utility.yul\":13534:13601   */\n      tag_127\n      jump\t// in\n    tag_290:\n        /* \"#utility.yul\":13628:13629   */\n      0x00\n        /* \"#utility.yul\":13652:13656   */\n      0x20\n        /* \"#utility.yul\":13639:13656   */\n      swap1\n      pop\n        /* \"#utility.yul\":13684:13686   */\n      0x1f\n        /* \"#utility.yul\":13676:13682   */\n      dup4\n        /* \"#utility.yul\":13673:13687   */\n      gt\n        /* \"#utility.yul\":13701:13702   */\n      0x01\n        /* \"#utility.yul\":13696:14314   */\n      dup2\n      eq\n      tag_292\n      jumpi\n        /* \"#utility.yul\":14358:14359   */\n      0x00\n        /* \"#utility.yul\":14375:14381   */\n      dup5\n        /* \"#utility.yul\":14372:14449   */\n      iszero\n      tag_293\n      jumpi\n        /* \"#utility.yul\":14424:14433   */\n      dup3\n        /* \"#utility.yul\":14419:14422   */\n      dup8\n        /* \"#utility.yul\":14415:14434   */\n      add\n        /* \"#utility.yul\":14409:14435   */\n      mload\n        /* \"#utility.yul\":14400:14435   */\n      swap1\n      pop\n        /* \"#utility.yul\":14372:14449   */\n    tag_293:\n        /* \"#utility.yul\":14475:14542   */\n      tag_294\n        /* \"#utility.yul\":14535:14541   */\n      dup6\n        /* \"#utility.yul\":14528:14533   */\n      dup3\n        /* \"#utility.yul\":14475:14542   */\n      tag_130\n      jump\t// in\n    tag_294:\n        /* \"#utility.yul\":14469:14473   */\n      dup7\n        /* \"#utility.yul\":14462:14543   */\n      sstore\n        /* \"#utility.yul\":14331:14553   */\n      pop\n        /* \"#utility.yul\":13666:14553   */\n      jump(tag_291)\n        /* \"#utility.yul\":13696:14314   */\n    tag_292:\n        /* \"#utility.yul\":13748:13752   */\n      0x1f\n        /* \"#utility.yul\":13744:13753   */\n      not\n        /* \"#utility.yul\":13736:13742   */\n      dup5\n        /* \"#utility.yul\":13732:13754   */\n      and\n        /* \"#utility.yul\":13782:13819   */\n      tag_295\n        /* \"#utility.yul\":13814:13818   */\n      dup7\n        /* \"#utility.yul\":13782:13819   */\n      tag_116\n      jump\t// in\n    tag_295:\n        /* \"#utility.yul\":13841:13842   */\n      0x00\n        /* \"#utility.yul\":13855:14063   */\n    tag_296:\n        /* \"#utility.yul\":13869:13876   */\n      dup3\n        /* \"#utility.yul\":13866:13867   */\n      dup2\n        /* \"#utility.yul\":13863:13877   */\n      lt\n        /* \"#utility.yul\":13855:14063   */\n      iszero\n      tag_298\n      jumpi\n        /* \"#utility.yul\":13948:13957   */\n      dup5\n        /* \"#utility.yul\":13943:13946   */\n      dup10\n        /* \"#utility.yul\":13939:13958   */\n      add\n        /* \"#utility.yul\":13933:13959   */\n      mload\n        /* \"#utility.yul\":13925:13931   */\n      dup3\n        /* \"#utility.yul\":13918:13960   */\n      sstore\n        /* \"#utility.yul\":13999:14000   */\n      0x01\n        /* \"#utility.yul\":13991:13997   */\n      dup3\n        /* \"#utility.yul\":13987:14001   */\n      add\n        /* \"#utility.yul\":13977:14001   */\n      swap2\n      pop\n        /* \"#utility.yul\":14046:14048   */\n      0x20\n        /* \"#utility.yul\":14035:14044   */\n      dup6\n        /* \"#utility.yul\":14031:14049   */\n      add\n        /* \"#utility.yul\":14018:14049   */\n      swap5\n      pop\n        /* \"#utility.yul\":13892:13896   */\n      0x20\n        /* \"#utility.yul\":13889:13890   */\n      dup2\n        /* \"#utility.yul\":13885:13897   */\n      add\n        /* \"#utility.yul\":13880:13897   */\n      swap1\n      pop\n        /* \"#utility.yul\":13855:14063   */\n      jump(tag_296)\n    tag_298:\n        /* \"#utility.yul\":14091:14097   */\n      dup7\n        /* \"#utility.yul\":14082:14089   */\n      dup4\n        /* \"#utility.yul\":14079:14098   */\n      lt\n        /* \"#utility.yul\":14076:14255   */\n      iszero\n      tag_299\n      jumpi\n        /* \"#utility.yul\":14149:14158   */\n      dup5\n        /* \"#utility.yul\":14144:14147   */\n      dup10\n        /* \"#utility.yul\":14140:14159   */\n      add\n        /* \"#utility.yul\":14134:14160   */\n      mload\n        /* \"#utility.yul\":14192:14240   */\n      tag_300\n        /* \"#utility.yul\":14234:14238   */\n      0x1f\n        /* \"#utility.yul\":14226:14232   */\n      dup10\n        /* \"#utility.yul\":14222:14239   */\n      and\n        /* \"#utility.yul\":14211:14220   */\n      dup3\n        /* \"#utility.yul\":14192:14240   */\n      tag_129\n      jump\t// in\n    tag_300:\n        /* \"#utility.yul\":14184:14190   */\n      dup4\n        /* \"#utility.yul\":14177:14241   */\n      sstore\n        /* \"#utility.yul\":14099:14255   */\n      pop\n        /* \"#utility.yul\":14076:14255   */\n    tag_299:\n        /* \"#utility.yul\":14301:14302   */\n      0x01\n        /* \"#utility.yul\":14297:14298   */\n      0x02\n        /* \"#utility.yul\":14289:14295   */\n      dup9\n        /* \"#utility.yul\":14285:14299   */\n      mul\n        /* \"#utility.yul\":14281:14303   */\n      add\n        /* \"#utility.yul\":14275:14279   */\n      dup9\n        /* \"#utility.yul\":14268:14304   */\n      sstore\n        /* \"#utility.yul\":13703:14314   */\n      pop\n      pop\n      pop\n        /* \"#utility.yul\":13666:14553   */\n    tag_291:\n      pop\n        /* \"#utility.yul\":13256:14559   */\n      pop\n      pop\n      pop\n        /* \"#utility.yul\":13164:14559   */\n      pop\n      pop\n      jump\t// out\n        /* \"#utility.yul\":14565:14745   */\n    tag_131:\n        /* \"#utility.yul\":14613:14690   */\n      0x4e487b7100000000000000000000000000000000000000000000000000000000\n        /* \"#utility.yul\":14610:14611   */\n      0x00\n        /* \"#utility.yul\":14603:14691   */\n      mstore\n        /* \"#utility.yul\":14710:14714   */\n      0x11\n        /* \"#utility.yul\":14707:14708   */\n      0x04\n        /* \"#utility.yul\":14700:14715   */\n      mstore\n        /* \"#utility.yul\":14734:14738   */\n      0x24\n        /* \"#utility.yul\":14731:14732   */\n      0x00\n        /* \"#utility.yul\":14724:14739   */\n      revert\n        /* \"#utility.yul\":14751:14942   */\n    tag_82:\n        /* \"#utility.yul\":14791:14794   */\n      0x00\n        /* \"#utility.yul\":14810:14830   */\n      tag_303\n        /* \"#utility.yul\":14828:14829   */\n      dup3\n        /* \"#utility.yul\":14810:14830   */\n      tag_97\n      jump\t// in\n    tag_303:\n        /* \"#utility.yul\":14805:14830   */\n      swap2\n      pop\n        /* \"#utility.yul\":14844:14864   */\n      tag_304\n        /* \"#utility.yul\":14862:14863   */\n      dup4\n        /* \"#utility.yul\":14844:14864   */\n      tag_97\n      jump\t// in\n    tag_304:\n        /* \"#utility.yul\":14839:14864   */\n      swap3\n      pop\n        /* \"#utility.yul\":14887:14888   */\n      dup3\n        /* \"#utility.yul\":14884:14885   */\n      dup3\n        /* \"#utility.yul\":14880:14889   */\n      add\n        /* \"#utility.yul\":14873:14889   */\n      swap1\n      pop\n        /* \"#utility.yul\":14908:14911   */\n      dup1\n        /* \"#utility.yul\":14905:14906   */\n      dup3\n        /* \"#utility.yul\":14902:14912   */\n      gt\n        /* \"#utility.yul\":14899:14935   */\n      iszero\n      tag_305\n      jumpi\n        /* \"#utility.yul\":14915:14933   */\n      tag_306\n      tag_131\n      jump\t// in\n    tag_306:\n        /* \"#utility.yul\":14899:14935   */\n    tag_305:\n        /* \"#utility.yul\":14751:14942   */\n      swap3\n      swap2\n      pop\n      pop\n      jump\t// out\n\n    auxdata: 0xa2646970667358221220bfe5e17cf6bdf2d4a29df290a23849a325d6d11ff34968474d0e38c7035d9b9564736f6c634300081a0033\n}\n",
				"bytecode": {
					"linkReferences": {},
					"object": "6080604052348015600e575f80fd5b50610e648061001c5f395ff3fe608060405234801561000f575f80fd5b506004361061009c575f3560e01c80633b2bbadb116100645780633b2bbadb1461016a5780633d48ab811461019a578063699450e8146101b6578063b6b55f25146101d6578063c71daccb146101f25761009c565b8063025abd58146100a057806306ead22e146100d057806319044f07146101025780631dfc29621461011e57806327e235e31461013a575b5f80fd5b6100ba60048036038101906100b59190610763565b610210565b6040516100c791906107c2565b60405180910390f35b6100ea60048036038101906100e59190610805565b610272565b6040516100f9939291906108aa565b60405180910390f35b61011c60048036038101906101179190610910565b610339565b005b61013860048036038101906101339190610910565b61039c565b005b610154600480360381019061014f91906109d6565b610425565b60405161016191906107c2565b60405180910390f35b610184600480360381019061017f9190610a01565b61043a565b60405161019191906107c2565b60405180910390f35b6101b460048036038101906101af9190610a5b565b610472565b005b6101be6104d4565b6040516101cd939291906108aa565b60405180910390f35b6101f060048036038101906101eb9190610805565b61057c565b005b6101fa6105d2565b60405161020791906107c2565b60405180910390f35b5f60055f3373ffffffffffffffffffffffffffffffffffffffff1673ffffffffffffffffffffffffffffffffffffffff1681526020019081526020015f208260405161025c9190610aef565b9081526020016040518091039020549050919050565b60038181548110610281575f80fd5b905f5260205f2090600302015f91509050805f0180546102a090610b32565b80601f01602080910402602001604051908101604052809291908181526020018280546102cc90610b32565b80156103175780601f106102ee57610100808354040283529160200191610317565b820191905f5260205f20905b8154815290600101906020018083116102fa57829003601f168201915b505050505090806001015490806002015f9054906101000a900460ff16905083565b60405180606001604052808481526020018381526020018215158152505f80820151815f01908161036a9190610cff565b50602082015181600101556040820151816002015f6101000a81548160ff021916908315150217905550905050505050565b60036040518060600160405280858152602001848152602001831515815250908060018154018082558091505060019003905f5260205f2090600302015f909190919091505f820151815f0190816103f49190610cff565b50602082015181600101556040820151816002015f6101000a81548160ff0219169083151502179055505050505050565b6004602052805f5260405f205f915090505481565b6005602052815f5260405f20818051602081018201805184825260208301602085012081835280955050505050505f91509150505481565b8060055f3373ffffffffffffffffffffffffffffffffffffffff1673ffffffffffffffffffffffffffffffffffffffff1681526020019081526020015f20836040516104be9190610aef565b9081526020016040518091039020819055505050565b5f805f0180546104e390610b32565b80601f016020809104026020016040519081016040528092919081815260200182805461050f90610b32565b801561055a5780601f106105315761010080835404028352916020019161055a565b820191905f5260205f20905b81548152906001019060200180831161053d57829003601f168201915b505050505090806001015490806002015f9054906101000a900460ff16905083565b8060045f3373ffffffffffffffffffffffffffffffffffffffff1673ffffffffffffffffffffffffffffffffffffffff1681526020019081526020015f205f8282546105c89190610dfb565b9250508190555050565b5f60045f3373ffffffffffffffffffffffffffffffffffffffff1673ffffffffffffffffffffffffffffffffffffffff1681526020019081526020015f2054905090565b5f604051905090565b5f80fd5b5f80fd5b5f80fd5b5f80fd5b5f601f19601f8301169050919050565b7f4e487b71000000000000000000000000000000000000000000000000000000005f52604160045260245ffd5b6106758261062f565b810181811067ffffffffffffffff821117156106945761069361063f565b5b80604052505050565b5f6106a6610616565b90506106b2828261066c565b919050565b5f67ffffffffffffffff8211156106d1576106d061063f565b5b6106da8261062f565b9050602081019050919050565b828183375f83830152505050565b5f610707610702846106b7565b61069d565b9050828152602081018484840111156107235761072261062b565b5b61072e8482856106e7565b509392505050565b5f82601f83011261074a57610749610627565b5b813561075a8482602086016106f5565b91505092915050565b5f602082840312156107785761077761061f565b5b5f82013567ffffffffffffffff81111561079557610794610623565b5b6107a184828501610736565b91505092915050565b5f819050919050565b6107bc816107aa565b82525050565b5f6020820190506107d55f8301846107b3565b92915050565b6107e4816107aa565b81146107ee575f80fd5b50565b5f813590506107ff816107db565b92915050565b5f6020828403121561081a5761081961061f565b5b5f610827848285016107f1565b91505092915050565b5f81519050919050565b5f82825260208201905092915050565b8281835e5f83830152505050565b5f61086282610830565b61086c818561083a565b935061087c81856020860161084a565b6108858161062f565b840191505092915050565b5f8115159050919050565b6108a481610890565b82525050565b5f6060820190508181035f8301526108c28186610858565b90506108d160208301856107b3565b6108de604083018461089b565b949350505050565b6108ef81610890565b81146108f9575f80fd5b50565b5f8135905061090a816108e6565b92915050565b5f805f606084860312156109275761092661061f565b5b5f84013567ffffffffffffffff81111561094457610943610623565b5b61095086828701610736565b9350506020610961868287016107f1565b9250506040610972868287016108fc565b9150509250925092565b5f73ffffffffffffffffffffffffffffffffffffffff82169050919050565b5f6109a58261097c565b9050919050565b6109b58161099b565b81146109bf575f80fd5b50565b5f813590506109d0816109ac565b92915050565b5f602082840312156109eb576109ea61061f565b5b5f6109f8848285016109c2565b91505092915050565b5f8060408385031215610a1757610a1661061f565b5b5f610a24858286016109c2565b925050602083013567ffffffffffffffff811115610a4557610a44610623565b5b610a5185828601610736565b9150509250929050565b5f8060408385031215610a7157610a7061061f565b5b5f83013567ffffffffffffffff811115610a8e57610a8d610623565b5b610a9a85828601610736565b9250506020610aab858286016107f1565b9150509250929050565b5f81905092915050565b5f610ac982610830565b610ad38185610ab5565b9350610ae381856020860161084a565b80840191505092915050565b5f610afa8284610abf565b915081905092915050565b7f4e487b71000000000000000000000000000000000000000000000000000000005f52602260045260245ffd5b5f6002820490506001821680610b4957607f821691505b602082108103610b5c57610b5b610b05565b5b50919050565b5f819050815f5260205f209050919050565b5f6020601f8301049050919050565b5f82821b905092915050565b5f60088302610bbe7fffffffffffffffffffffffffffffffffffffffffffffffffffffffffffffffff82610b83565b610bc88683610b83565b95508019841693508086168417925050509392505050565b5f819050919050565b5f610c03610bfe610bf9846107aa565b610be0565b6107aa565b9050919050565b5f819050919050565b610c1c83610be9565b610c30610c2882610c0a565b848454610b8f565b825550505050565b5f90565b610c44610c38565b610c4f818484610c13565b505050565b5b81811015610c7257610c675f82610c3c565b600181019050610c55565b5050565b601f821115610cb757610c8881610b62565b610c9184610b74565b81016020851015610ca0578190505b610cb4610cac85610b74565b830182610c54565b50505b505050565b5f82821c905092915050565b5f610cd75f1984600802610cbc565b1980831691505092915050565b5f610cef8383610cc8565b9150826002028217905092915050565b610d0882610830565b67ffffffffffffffff811115610d2157610d2061063f565b5b610d2b8254610b32565b610d36828285610c76565b5f60209050601f831160018114610d67575f8415610d55578287015190505b610d5f8582610ce4565b865550610dc6565b601f198416610d7586610b62565b5f5b82811015610d9c57848901518255600182019150602085019450602081019050610d77565b86831015610db95784890151610db5601f891682610cc8565b8355505b6001600288020188555050505b505050505050565b7f4e487b71000000000000000000000000000000000000000000000000000000005f52601160045260245ffd5b5f610e05826107aa565b9150610e10836107aa565b9250828201905080821115610e2857610e27610dce565b5b9291505056fea2646970667358221220bfe5e17cf6bdf2d4a29df290a23849a325d6d11ff34968474d0e38c7035d9b9564736f6c634300081a0033",
					"opcodes": "PUSH1 0x80 PUSH1 0x40 MSTORE CALLVALUE DUP1 ISZERO PUSH1 0xE JUMPI PUSH0 DUP1 REVERT JUMPDEST POP PUSH2 0xE64 DUP1 PUSH2 0x1C PUSH0 CODECOPY PUSH0 RETURN INVALID PUSH1 0x80 PUSH1 0x40 MSTORE CALLVALUE DUP1 ISZERO PUSH2 0xF JUMPI PUSH0 DUP1 REVERT JUMPDEST POP PUSH1 0x4 CALLDATASIZE LT PUSH2 0x9C JUMPI PUSH0 CALLDATALOAD PUSH1 0xE0 SHR DUP1 PUSH4 0x3B2BBADB GT PUSH2 0x64 JUMPI DUP1 PUSH4 0x3B2BBADB EQ PUSH2 0x16A JUMPI DUP1 PUSH4 0x3D48AB81 EQ PUSH2 0x19A JUMPI DUP1 PUSH4 0x699450E8 EQ PUSH2 0x1B6 JUMPI DUP1 PUSH4 0xB6B55F25 EQ PUSH2 0x1D6 JUMPI DUP1 PUSH4 0xC71DACCB EQ PUSH2 0x1F2 JUMPI PUSH2 0x9C JUMP JUMPDEST DUP1 PUSH4 0x25ABD58 EQ PUSH2 0xA0 JUMPI DUP1 PUSH4 0x6EAD22E EQ PUSH2 0xD0 JUMPI DUP1 PUSH4 0x19044F07 EQ PUSH2 0x102 JUMPI DUP1 PUSH4 0x1DFC2962 EQ PUSH2 0x11E JUMPI DUP1 PUSH4 0x27E235E3 EQ PUSH2 0x13A JUMPI JUMPDEST PUSH0 DUP1 REVERT JUMPDEST PUSH2 0xBA PUSH1 0x4 DUP1 CALLDATASIZE SUB DUP2 ADD SWAP1 PUSH2 0xB5 SWAP2 SWAP1 PUSH2 0x763 JUMP JUMPDEST PUSH2 0x210 JUMP JUMPDEST PUSH1 0x40 MLOAD PUSH2 0xC7 SWAP2 SWAP1 PUSH2 0x7C2 JUMP JUMPDEST PUSH1 0x40 MLOAD DUP1 SWAP2 SUB SWAP1 RETURN JUMPDEST PUSH2 0xEA PUSH1 0x4 DUP1 CALLDATASIZE SUB DUP2 ADD SWAP1 PUSH2 0xE5 SWAP2 SWAP1 PUSH2 0x805 JUMP JUMPDEST PUSH2 0x272 JUMP JUMPDEST PUSH1 0x40 MLOAD PUSH2 0xF9 SWAP4 SWAP3 SWAP2 SWAP1 PUSH2 0x8AA JUMP JUMPDEST PUSH1 0x40 MLOAD DUP1 SWAP2 SUB SWAP1 RETURN JUMPDEST PUSH2 0x11C PUSH1 0x4 DUP1 CALLDATASIZE SUB DUP2 ADD SWAP1 PUSH2 0x117 SWAP2 SWAP1 PUSH2 0x910 JUMP JUMPDEST PUSH2 0x339 JUMP JUMPDEST STOP JUMPDEST PUSH2 0x138 PUSH1 0x4 DUP1 CALLDATASIZE SUB DUP2 ADD SWAP1 PUSH2 0x133 SWAP2 SWAP1 PUSH2 0x910 JUMP JUMPDEST PUSH2 0x39C JUMP JUMPDEST STOP JUMPDEST PUSH2 0x154 PUSH1 0x4 DUP1 CALLDATASIZE SUB DUP2 ADD SWAP1 PUSH2 0x14F SWAP2 SWAP1 PUSH2 0x9D6 JUMP JUMPDEST PUSH2 0x425 JUMP JUMPDEST PUSH1 0x40 MLOAD PUSH2 0x161 SWAP2 SWAP1 PUSH2 0x7C2 JUMP JUMPDEST PUSH1 0x40 MLOAD DUP1 SWAP2 SUB SWAP1 RETURN JUMPDEST PUSH2 0x184 PUSH1 0x4 DUP1 CALLDATASIZE SUB DUP2 ADD SWAP1 PUSH2 0x17F SWAP2 SWAP1 PUSH2 0xA01 JUMP JUMPDEST PUSH2 0x43A JUMP JUMPDEST PUSH1 0x40 MLOAD PUSH2 0x191 SWAP2 SWAP1 PUSH2 0x7C2 JUMP JUMPDEST PUSH1 0x40 MLOAD DUP1 SWAP2 SUB SWAP1 RETURN JUMPDEST PUSH2 0x1B4 PUSH1 0x4 DUP1 CALLDATASIZE SUB DUP2 ADD SWAP1 PUSH2 0x1AF SWAP2 SWAP1 PUSH2 0xA5B JUMP JUMPDEST PUSH2 0x472 JUMP JUMPDEST STOP JUMPDEST PUSH2 0x1BE PUSH2 0x4D4 JUMP JUMPDEST PUSH1 0x40 MLOAD PUSH2 0x1CD SWAP4 SWAP3 SWAP2 SWAP1 PUSH2 0x8AA JUMP JUMPDEST PUSH1 0x40 MLOAD DUP1 SWAP2 SUB SWAP1 RETURN JUMPDEST PUSH2 0x1F0 PUSH1 0x4 DUP1 CALLDATASIZE SUB DUP2 ADD SWAP1 PUSH2 0x1EB SWAP2 SWAP1 PUSH2 0x805 JUMP JUMPDEST PUSH2 0x57C JUMP JUMPDEST STOP JUMPDEST PUSH2 0x1FA PUSH2 0x5D2 JUMP JUMPDEST PUSH1 0x40 MLOAD PUSH2 0x207 SWAP2 SWAP1 PUSH2 0x7C2 JUMP JUMPDEST PUSH1 0x40 MLOAD DUP1 SWAP2 SUB SWAP1 RETURN JUMPDEST PUSH0 PUSH1 0x5 PUSH0 CALLER PUSH20 0xFFFFFFFFFFFFFFFFFFFFFFFFFFFFFFFFFFFFFFFF AND PUSH20 0xFFFFFFFFFFFFFFFFFFFFFFFFFFFFFFFFFFFFFFFF AND DUP2 MSTORE PUSH1 0x20 ADD SWAP1 DUP2 MSTORE PUSH1 0x20 ADD PUSH0 KECCAK256 DUP3 PUSH1 0x40 MLOAD PUSH2 0x25C SWAP2 SWAP1 PUSH2 0xAEF JUMP JUMPDEST SWAP1 DUP2 MSTORE PUSH1 0x20 ADD PUSH1 0x40 MLOAD DUP1 SWAP2 SUB SWAP1 KECCAK256 SLOAD SWAP1 POP SWAP2 SWAP1 POP JUMP JUMPDEST PUSH1 0x3 DUP2 DUP2 SLOAD DUP2 LT PUSH2 0x281 JUMPI PUSH0 DUP1 REVERT JUMPDEST SWAP1 PUSH0 MSTORE PUSH1 0x20 PUSH0 KECCAK256 SWAP1 PUSH1 0x3 MUL ADD PUSH0 SWAP2 POP SWAP1 POP DUP1 PUSH0 ADD DUP1 SLOAD PUSH2 0x2A0 SWAP1 PUSH2 0xB32 JUMP JUMPDEST DUP1 PUSH1 0x1F ADD PUSH1 0x20 DUP1 SWAP2 DIV MUL PUSH1 0x20 ADD PUSH1 0x40 MLOAD SWAP1 DUP2 ADD PUSH1 0x40 MSTORE DUP1 SWAP3 SWAP2 SWAP1 DUP2 DUP2 MSTORE PUSH1 0x20 ADD DUP3 DUP1 SLOAD PUSH2 0x2CC SWAP1 PUSH2 0xB32 JUMP JUMPDEST DUP1 ISZERO PUSH2 0x317 JUMPI DUP1 PUSH1 0x1F LT PUSH2 0x2EE JUMPI PUSH2 0x100 DUP1 DUP4 SLOAD DIV MUL DUP4 MSTORE SWAP2 PUSH1 0x20 ADD SWAP2 PUSH2 0x317 JUMP JUMPDEST DUP3 ADD SWAP2 SWAP1 PUSH0 MSTORE PUSH1 0x20 PUSH0 KECCAK256 SWAP1 JUMPDEST DUP2 SLOAD DUP2 MSTORE SWAP1 PUSH1 0x1 ADD SWAP1 PUSH1 0x20 ADD DUP1 DUP4 GT PUSH2 0x2FA JUMPI DUP3 SWAP1 SUB PUSH1 0x1F AND DUP3 ADD SWAP2 JUMPDEST POP POP POP POP POP SWAP1 DUP1 PUSH1 0x1 ADD SLOAD SWAP1 DUP1 PUSH1 0x2 ADD PUSH0 SWAP1 SLOAD SWAP1 PUSH2 0x100 EXP SWAP1 DIV PUSH1 0xFF AND SWAP1 POP DUP4 JUMP JUMPDEST PUSH1 0x40 MLOAD DUP1 PUSH1 0x60 ADD PUSH1 0x40 MSTORE DUP1 DUP5 DUP2 MSTORE PUSH1 0x20 ADD DUP4 DUP2 MSTORE PUSH1 0x20 ADD DUP3 ISZERO ISZERO DUP2 MSTORE POP PUSH0 DUP1 DUP3 ADD MLOAD DUP2 PUSH0 ADD SWAP1 DUP2 PUSH2 0x36A SWAP2 SWAP1 PUSH2 0xCFF JUMP JUMPDEST POP PUSH1 0x20 DUP3 ADD MLOAD DUP2 PUSH1 0x1 ADD SSTORE PUSH1 0x40 DUP3 ADD MLOAD DUP2 PUSH1 0x2 ADD PUSH0 PUSH2 0x100 EXP DUP2 SLOAD DUP2 PUSH1 0xFF MUL NOT AND SWAP1 DUP4 ISZERO ISZERO MUL OR SWAP1 SSTORE POP SWAP1 POP POP POP POP POP JUMP JUMPDEST PUSH1 0x3 PUSH1 0x40 MLOAD DUP1 PUSH1 0x60 ADD PUSH1 0x40 MSTORE DUP1 DUP6 DUP2 MSTORE PUSH1 0x20 ADD DUP5 DUP2 MSTORE PUSH1 0x20 ADD DUP4 ISZERO ISZERO DUP2 MSTORE POP SWAP1 DUP1 PUSH1 0x1 DUP2 SLOAD ADD DUP1 DUP3 SSTORE DUP1 SWAP2 POP POP PUSH1 0x1 SWAP1 SUB SWAP1 PUSH0 MSTORE PUSH1 0x20 PUSH0 KECCAK256 SWAP1 PUSH1 0x3 MUL ADD PUSH0 SWAP1 SWAP2 SWAP1 SWAP2 SWAP1 SWAP2 POP PUSH0 DUP3 ADD MLOAD DUP2 PUSH0 ADD SWAP1 DUP2 PUSH2 0x3F4 SWAP2 SWAP1 PUSH2 0xCFF JUMP JUMPDEST POP PUSH1 0x20 DUP3 ADD MLOAD DUP2 PUSH1 0x1 ADD SSTORE PUSH1 0x40 DUP3 ADD MLOAD DUP2 PUSH1 0x2 ADD PUSH0 PUSH2 0x100 EXP DUP2 SLOAD DUP2 PUSH1 0xFF MUL NOT AND SWAP1 DUP4 ISZERO ISZERO MUL OR SWAP1 SSTORE POP POP POP POP POP POP JUMP JUMPDEST PUSH1 0x4 PUSH1 0x20 MSTORE DUP1 PUSH0 MSTORE PUSH1 0x40 PUSH0 KECCAK256 PUSH0 SWAP2 POP SWAP1 POP SLOAD DUP2 JUMP JUMPDEST PUSH1 0x5 PUSH1 0x20 MSTORE DUP2 PUSH0 MSTORE PUSH1 0x40 PUSH0 KECCAK256 DUP2 DUP1 MLOAD PUSH1 0x20 DUP2 ADD DUP3 ADD DUP1 MLOAD DUP5 DUP3 MSTORE PUSH1 0x20 DUP4 ADD PUSH1 0x20 DUP6 ADD KECCAK256 DUP2 DUP4 MSTORE DUP1 SWAP6 POP POP POP POP POP POP PUSH0 SWAP2 POP SWAP2 POP POP SLOAD DUP2 JUMP JUMPDEST DUP1 PUSH1 0x5 PUSH0 CALLER PUSH20 0xFFFFFFFFFFFFFFFFFFFFFFFFFFFFFFFFFFFFFFFF AND PUSH20 0xFFFFFFFFFFFFFFFFFFFFFFFFFFFFFFFFFFFFFFFF AND DUP2 MSTORE PUSH1 0x20 ADD SWAP1 DUP2 MSTORE PUSH1 0x20 ADD PUSH0 KECCAK256 DUP4 PUSH1 0x40 MLOAD PUSH2 0x4BE SWAP2 SWAP1 PUSH2 0xAEF JUMP JUMPDEST SWAP1 DUP2 MSTORE PUSH1 0x20 ADD PUSH1 0x40 MLOAD DUP1 SWAP2 SUB SWAP1 KECCAK256 DUP2 SWAP1 SSTORE POP POP POP JUMP JUMPDEST PUSH0 DUP1 PUSH0 ADD DUP1 SLOAD PUSH2 0x4E3 SWAP1 PUSH2 0xB32 JUMP JUMPDEST DUP1 PUSH1 0x1F ADD PUSH1 0x20 DUP1 SWAP2 DIV MUL PUSH1 0x20 ADD PUSH1 0x40 MLOAD SWAP1 DUP2 ADD PUSH1 0x40 MSTORE DUP1 SWAP3 SWAP2 SWAP1 DUP2 DUP2 MSTORE PUSH1 0x20 ADD DUP3 DUP1 SLOAD PUSH2 0x50F SWAP1 PUSH2 0xB32 JUMP JUMPDEST DUP1 ISZERO PUSH2 0x55A JUMPI DUP1 PUSH1 0x1F LT PUSH2 0x531 JUMPI PUSH2 0x100 DUP1 DUP4 SLOAD DIV MUL DUP4 MSTORE SWAP2 PUSH1 0x20 ADD SWAP2 PUSH2 0x55A JUMP JUMPDEST DUP3 ADD SWAP2 SWAP1 PUSH0 MSTORE PUSH1 0x20 PUSH0 KECCAK256 SWAP1 JUMPDEST DUP2 SLOAD DUP2 MSTORE SWAP1 PUSH1 0x1 ADD SWAP1 PUSH1 0x20 ADD DUP1 DUP4 GT PUSH2 0x53D JUMPI DUP3 SWAP1 SUB PUSH1 0x1F AND DUP3 ADD SWAP2 JUMPDEST POP POP POP POP POP SWAP1 DUP1 PUSH1 0x1 ADD SLOAD SWAP1 DUP1 PUSH1 0x2 ADD PUSH0 SWAP1 SLOAD SWAP1 PUSH2 0x100 EXP SWAP1 DIV PUSH1 0xFF AND SWAP1 POP DUP4 JUMP JUMPDEST DUP1 PUSH1 0x4 PUSH0 CALLER PUSH20 0xFFFFFFFFFFFFFFFFFFFFFFFFFFFFFFFFFFFFFFFF AND PUSH20 0xFFFFFFFFFFFFFFFFFFFFFFFFFFFFFFFFFFFFFFFF AND DUP2 MSTORE PUSH1 0x20 ADD SWAP1 DUP2 MSTORE PUSH1 0x20 ADD PUSH0 KECCAK256 PUSH0 DUP3 DUP3 SLOAD PUSH2 0x5C8 SWAP2 SWAP1 PUSH2 0xDFB JUMP JUMPDEST SWAP3 POP POP DUP2 SWAP1 SSTORE POP POP JUMP JUMPDEST PUSH0 PUSH1 0x4 PUSH0 CALLER PUSH20 0xFFFFFFFFFFFFFFFFFFFFFFFFFFFFFFFFFFFFFFFF AND PUSH20 0xFFFFFFFFFFFFFFFFFFFFFFFFFFFFFFFFFFFFFFFF AND DUP2 MSTORE PUSH1 0x20 ADD SWAP1 DUP2 MSTORE PUSH1 0x20 ADD PUSH0 KECCAK256 SLOAD SWAP1 POP SWAP1 JUMP JUMPDEST PUSH0 PUSH1 0x40 MLOAD SWAP1 POP SWAP1 JUMP JUMPDEST PUSH0 DUP1 REVERT JUMPDEST PUSH0 DUP1 REVERT JUMPDEST PUSH0 DUP1 REVERT JUMPDEST PUSH0 DUP1 REVERT JUMPDEST PUSH0 PUSH1 0x1F NOT PUSH1 0x1F DUP4 ADD AND SWAP1 POP SWAP2 SWAP1 POP JUMP JUMPDEST PUSH32 0x4E487B7100000000000000000000000000000000000000000000000000000000 PUSH0 MSTORE PUSH1 0x41 PUSH1 0x4 MSTORE PUSH1 0x24 PUSH0 REVERT JUMPDEST PUSH2 0x675 DUP3 PUSH2 0x62F JUMP JUMPDEST DUP2 ADD DUP2 DUP2 LT PUSH8 0xFFFFFFFFFFFFFFFF DUP3 GT OR ISZERO PUSH2 0x694 JUMPI PUSH2 0x693 PUSH2 0x63F JUMP JUMPDEST JUMPDEST DUP1 PUSH1 0x40 MSTORE POP POP POP JUMP JUMPDEST PUSH0 PUSH2 0x6A6 PUSH2 0x616 JUMP JUMPDEST SWAP1 POP PUSH2 0x6B2 DUP3 DUP3 PUSH2 0x66C JUMP JUMPDEST SWAP2 SWAP1 POP JUMP JUMPDEST PUSH0 PUSH8 0xFFFFFFFFFFFFFFFF DUP3 GT ISZERO PUSH2 0x6D1 JUMPI PUSH2 0x6D0 PUSH2 0x63F JUMP JUMPDEST JUMPDEST PUSH2 0x6DA DUP3 PUSH2 0x62F JUMP JUMPDEST SWAP1 POP PUSH1 0x20 DUP2 ADD SWAP1 POP SWAP2 SWAP1 POP JUMP JUMPDEST DUP3 DUP2 DUP4 CALLDATACOPY PUSH0 DUP4 DUP4 ADD MSTORE POP POP POP JUMP JUMPDEST PUSH0 PUSH2 0x707 PUSH2 0x702 DUP5 PUSH2 0x6B7 JUMP JUMPDEST PUSH2 0x69D JUMP JUMPDEST SWAP1 POP DUP3 DUP2 MSTORE PUSH1 0x20 DUP2 ADD DUP5 DUP5 DUP5 ADD GT ISZERO PUSH2 0x723 JUMPI PUSH2 0x722 PUSH2 0x62B JUMP JUMPDEST JUMPDEST PUSH2 0x72E DUP5 DUP3 DUP6 PUSH2 0x6E7 JUMP JUMPDEST POP SWAP4 SWAP3 POP POP POP JUMP JUMPDEST PUSH0 DUP3 PUSH1 0x1F DUP4 ADD SLT PUSH2 0x74A JUMPI PUSH2 0x749 PUSH2 0x627 JUMP JUMPDEST JUMPDEST DUP2 CALLDATALOAD PUSH2 0x75A DUP5 DUP3 PUSH1 0x20 DUP7 ADD PUSH2 0x6F5 JUMP JUMPDEST SWAP2 POP POP SWAP3 SWAP2 POP POP JUMP JUMPDEST PUSH0 PUSH1 0x20 DUP3 DUP5 SUB SLT ISZERO PUSH2 0x778 JUMPI PUSH2 0x777 PUSH2 0x61F JUMP JUMPDEST JUMPDEST PUSH0 DUP3 ADD CALLDATALOAD PUSH8 0xFFFFFFFFFFFFFFFF DUP2 GT ISZERO PUSH2 0x795 JUMPI PUSH2 0x794 PUSH2 0x623 JUMP JUMPDEST JUMPDEST PUSH2 0x7A1 DUP5 DUP3 DUP6 ADD PUSH2 0x736 JUMP JUMPDEST SWAP2 POP POP SWAP3 SWAP2 POP POP JUMP JUMPDEST PUSH0 DUP2 SWAP1 POP SWAP2 SWAP1 POP JUMP JUMPDEST PUSH2 0x7BC DUP2 PUSH2 0x7AA JUMP JUMPDEST DUP3 MSTORE POP POP JUMP JUMPDEST PUSH0 PUSH1 0x20 DUP3 ADD SWAP1 POP PUSH2 0x7D5 PUSH0 DUP4 ADD DUP5 PUSH2 0x7B3 JUMP JUMPDEST SWAP3 SWAP2 POP POP JUMP JUMPDEST PUSH2 0x7E4 DUP2 PUSH2 0x7AA JUMP JUMPDEST DUP2 EQ PUSH2 0x7EE JUMPI PUSH0 DUP1 REVERT JUMPDEST POP JUMP JUMPDEST PUSH0 DUP2 CALLDATALOAD SWAP1 POP PUSH2 0x7FF DUP2 PUSH2 0x7DB JUMP JUMPDEST SWAP3 SWAP2 POP POP JUMP JUMPDEST PUSH0 PUSH1 0x20 DUP3 DUP5 SUB SLT ISZERO PUSH2 0x81A JUMPI PUSH2 0x819 PUSH2 0x61F JUMP JUMPDEST JUMPDEST PUSH0 PUSH2 0x827 DUP5 DUP3 DUP6 ADD PUSH2 0x7F1 JUMP JUMPDEST SWAP2 POP POP SWAP3 SWAP2 POP POP JUMP JUMPDEST PUSH0 DUP2 MLOAD SWAP1 POP SWAP2 SWAP1 POP JUMP JUMPDEST PUSH0 DUP3 DUP3 MSTORE PUSH1 0x20 DUP3 ADD SWAP1 POP SWAP3 SWAP2 POP POP JUMP JUMPDEST DUP3 DUP2 DUP4 MCOPY PUSH0 DUP4 DUP4 ADD MSTORE POP POP POP JUMP JUMPDEST PUSH0 PUSH2 0x862 DUP3 PUSH2 0x830 JUMP JUMPDEST PUSH2 0x86C DUP2 DUP6 PUSH2 0x83A JUMP JUMPDEST SWAP4 POP PUSH2 0x87C DUP2 DUP6 PUSH1 0x20 DUP7 ADD PUSH2 0x84A JUMP JUMPDEST PUSH2 0x885 DUP2 PUSH2 0x62F JUMP JUMPDEST DUP5 ADD SWAP2 POP POP SWAP3 SWAP2 POP POP JUMP JUMPDEST PUSH0 DUP2 ISZERO ISZERO SWAP1 POP SWAP2 SWAP1 POP JUMP JUMPDEST PUSH2 0x8A4 DUP2 PUSH2 0x890 JUMP JUMPDEST DUP3 MSTORE POP POP JUMP JUMPDEST PUSH0 PUSH1 0x60 DUP3 ADD SWAP1 POP DUP2 DUP2 SUB PUSH0 DUP4 ADD MSTORE PUSH2 0x8C2 DUP2 DUP7 PUSH2 0x858 JUMP JUMPDEST SWAP1 POP PUSH2 0x8D1 PUSH1 0x20 DUP4 ADD DUP6 PUSH2 0x7B3 JUMP JUMPDEST PUSH2 0x8DE PUSH1 0x40 DUP4 ADD DUP5 PUSH2 0x89B JUMP JUMPDEST SWAP5 SWAP4 POP POP POP POP JUMP JUMPDEST PUSH2 0x8EF DUP2 PUSH2 0x890 JUMP JUMPDEST DUP2 EQ PUSH2 0x8F9 JUMPI PUSH0 DUP1 REVERT JUMPDEST POP JUMP JUMPDEST PUSH0 DUP2 CALLDATALOAD SWAP1 POP PUSH2 0x90A DUP2 PUSH2 0x8E6 JUMP JUMPDEST SWAP3 SWAP2 POP POP JUMP JUMPDEST PUSH0 DUP1 PUSH0 PUSH1 0x60 DUP5 DUP7 SUB SLT ISZERO PUSH2 0x927 JUMPI PUSH2 0x926 PUSH2 0x61F JUMP JUMPDEST JUMPDEST PUSH0 DUP5 ADD CALLDATALOAD PUSH8 0xFFFFFFFFFFFFFFFF DUP2 GT ISZERO PUSH2 0x944 JUMPI PUSH2 0x943 PUSH2 0x623 JUMP JUMPDEST JUMPDEST PUSH2 0x950 DUP7 DUP3 DUP8 ADD PUSH2 0x736 JUMP JUMPDEST SWAP4 POP POP PUSH1 0x20 PUSH2 0x961 DUP7 DUP3 DUP8 ADD PUSH2 0x7F1 JUMP JUMPDEST SWAP3 POP POP PUSH1 0x40 PUSH2 0x972 DUP7 DUP3 DUP8 ADD PUSH2 0x8FC JUMP JUMPDEST SWAP2 POP POP SWAP3 POP SWAP3 POP SWAP3 JUMP JUMPDEST PUSH0 PUSH20 0xFFFFFFFFFFFFFFFFFFFFFFFFFFFFFFFFFFFFFFFF DUP3 AND SWAP1 POP SWAP2 SWAP1 POP JUMP JUMPDEST PUSH0 PUSH2 0x9A5 DUP3 PUSH2 0x97C JUMP JUMPDEST SWAP1 POP SWAP2 SWAP1 POP JUMP JUMPDEST PUSH2 0x9B5 DUP2 PUSH2 0x99B JUMP JUMPDEST DUP2 EQ PUSH2 0x9BF JUMPI PUSH0 DUP1 REVERT JUMPDEST POP JUMP JUMPDEST PUSH0 DUP2 CALLDATALOAD SWAP1 POP PUSH2 0x9D0 DUP2 PUSH2 0x9AC JUMP JUMPDEST SWAP3 SWAP2 POP POP JUMP JUMPDEST PUSH0 PUSH1 0x20 DUP3 DUP5 SUB SLT ISZERO PUSH2 0x9EB JUMPI PUSH2 0x9EA PUSH2 0x61F JUMP JUMPDEST JUMPDEST PUSH0 PUSH2 0x9F8 DUP5 DUP3 DUP6 ADD PUSH2 0x9C2 JUMP JUMPDEST SWAP2 POP POP SWAP3 SWAP2 POP POP JUMP JUMPDEST PUSH0 DUP1 PUSH1 0x40 DUP4 DUP6 SUB SLT ISZERO PUSH2 0xA17 JUMPI PUSH2 0xA16 PUSH2 0x61F JUMP JUMPDEST JUMPDEST PUSH0 PUSH2 0xA24 DUP6 DUP3 DUP7 ADD PUSH2 0x9C2 JUMP JUMPDEST SWAP3 POP POP PUSH1 0x20 DUP4 ADD CALLDATALOAD PUSH8 0xFFFFFFFFFFFFFFFF DUP2 GT ISZERO PUSH2 0xA45 JUMPI PUSH2 0xA44 PUSH2 0x623 JUMP JUMPDEST JUMPDEST PUSH2 0xA51 DUP6 DUP3 DUP7 ADD PUSH2 0x736 JUMP JUMPDEST SWAP2 POP POP SWAP3 POP SWAP3 SWAP1 POP JUMP JUMPDEST PUSH0 DUP1 PUSH1 0x40 DUP4 DUP6 SUB SLT ISZERO PUSH2 0xA71 JUMPI PUSH2 0xA70 PUSH2 0x61F JUMP JUMPDEST JUMPDEST PUSH0 DUP4 ADD CALLDATALOAD PUSH8 0xFFFFFFFFFFFFFFFF DUP2 GT ISZERO PUSH2 0xA8E JUMPI PUSH2 0xA8D PUSH2 0x623 JUMP JUMPDEST JUMPDEST PUSH2 0xA9A DUP6 DUP3 DUP7 ADD PUSH2 0x736 JUMP JUMPDEST SWAP3 POP POP PUSH1 0x20 PUSH2 0xAAB DUP6 DUP3 DUP7 ADD PUSH2 0x7F1 JUMP JUMPDEST SWAP2 POP POP SWAP3 POP SWAP3 SWAP1 POP JUMP JUMPDEST PUSH0 DUP2 SWAP1 POP SWAP3 SWAP2 POP POP JUMP JUMPDEST PUSH0 PUSH2 0xAC9 DUP3 PUSH2 0x830 JUMP JUMPDEST PUSH2 0xAD3 DUP2 DUP6 PUSH2 0xAB5 JUMP JUMPDEST SWAP4 POP PUSH2 0xAE3 DUP2 DUP6 PUSH1 0x20 DUP7 ADD PUSH2 0x84A JUMP JUMPDEST DUP1 DUP5 ADD SWAP2 POP POP SWAP3 SWAP2 POP POP JUMP JUMPDEST PUSH0 PUSH2 0xAFA DUP3 DUP5 PUSH2 0xABF JUMP JUMPDEST SWAP2 POP DUP2 SWAP1 POP SWAP3 SWAP2 POP POP JUMP JUMPDEST PUSH32 0x4E487B7100000000000000000000000000000000000000000000000000000000 PUSH0 MSTORE PUSH1 0x22 PUSH1 0x4 MSTORE PUSH1 0x24 PUSH0 REVERT JUMPDEST PUSH0 PUSH1 0x2 DUP3 DIV SWAP1 POP PUSH1 0x1 DUP3 AND DUP1 PUSH2 0xB49 JUMPI PUSH1 0x7F DUP3 AND SWAP2 POP JUMPDEST PUSH1 0x20 DUP3 LT DUP2 SUB PUSH2 0xB5C JUMPI PUSH2 0xB5B PUSH2 0xB05 JUMP JUMPDEST JUMPDEST POP SWAP2 SWAP1 POP JUMP JUMPDEST PUSH0 DUP2 SWAP1 POP DUP2 PUSH0 MSTORE PUSH1 0x20 PUSH0 KECCAK256 SWAP1 POP SWAP2 SWAP1 POP JUMP JUMPDEST PUSH0 PUSH1 0x20 PUSH1 0x1F DUP4 ADD DIV SWAP1 POP SWAP2 SWAP1 POP JUMP JUMPDEST PUSH0 DUP3 DUP3 SHL SWAP1 POP SWAP3 SWAP2 POP POP JUMP JUMPDEST PUSH0 PUSH1 0x8 DUP4 MUL PUSH2 0xBBE PUSH32 0xFFFFFFFFFFFFFFFFFFFFFFFFFFFFFFFFFFFFFFFFFFFFFFFFFFFFFFFFFFFFFFFF DUP3 PUSH2 0xB83 JUMP JUMPDEST PUSH2 0xBC8 DUP7 DUP4 PUSH2 0xB83 JUMP JUMPDEST SWAP6 POP DUP1 NOT DUP5 AND SWAP4 POP DUP1 DUP7 AND DUP5 OR SWAP3 POP POP POP SWAP4 SWAP3 POP POP POP JUMP JUMPDEST PUSH0 DUP2 SWAP1 POP SWAP2 SWAP1 POP JUMP JUMPDEST PUSH0 PUSH2 0xC03 PUSH2 0xBFE PUSH2 0xBF9 DUP5 PUSH2 0x7AA JUMP JUMPDEST PUSH2 0xBE0 JUMP JUMPDEST PUSH2 0x7AA JUMP JUMPDEST SWAP1 POP SWAP2 SWAP1 POP JUMP JUMPDEST PUSH0 DUP2 SWAP1 POP SWAP2 SWAP1 POP JUMP JUMPDEST PUSH2 0xC1C DUP4 PUSH2 0xBE9 JUMP JUMPDEST PUSH2 0xC30 PUSH2 0xC28 DUP3 PUSH2 0xC0A JUMP JUMPDEST DUP5 DUP5 SLOAD PUSH2 0xB8F JUMP JUMPDEST DUP3 SSTORE POP POP POP POP JUMP JUMPDEST PUSH0 SWAP1 JUMP JUMPDEST PUSH2 0xC44 PUSH2 0xC38 JUMP JUMPDEST PUSH2 0xC4F DUP2 DUP5 DUP5 PUSH2 0xC13 JUMP JUMPDEST POP POP POP JUMP JUMPDEST JUMPDEST DUP2 DUP2 LT ISZERO PUSH2 0xC72 JUMPI PUSH2 0xC67 PUSH0 DUP3 PUSH2 0xC3C JUMP JUMPDEST PUSH1 0x1 DUP2 ADD SWAP1 POP PUSH2 0xC55 JUMP JUMPDEST POP POP JUMP JUMPDEST PUSH1 0x1F DUP3 GT ISZERO PUSH2 0xCB7 JUMPI PUSH2 0xC88 DUP2 PUSH2 0xB62 JUMP JUMPDEST PUSH2 0xC91 DUP5 PUSH2 0xB74 JUMP JUMPDEST DUP2 ADD PUSH1 0x20 DUP6 LT ISZERO PUSH2 0xCA0 JUMPI DUP2 SWAP1 POP JUMPDEST PUSH2 0xCB4 PUSH2 0xCAC DUP6 PUSH2 0xB74 JUMP JUMPDEST DUP4 ADD DUP3 PUSH2 0xC54 JUMP JUMPDEST POP POP JUMPDEST POP POP POP JUMP JUMPDEST PUSH0 DUP3 DUP3 SHR SWAP1 POP SWAP3 SWAP2 POP POP JUMP JUMPDEST PUSH0 PUSH2 0xCD7 PUSH0 NOT DUP5 PUSH1 0x8 MUL PUSH2 0xCBC JUMP JUMPDEST NOT DUP1 DUP4 AND SWAP2 POP POP SWAP3 SWAP2 POP POP JUMP JUMPDEST PUSH0 PUSH2 0xCEF DUP4 DUP4 PUSH2 0xCC8 JUMP JUMPDEST SWAP2 POP DUP3 PUSH1 0x2 MUL DUP3 OR SWAP1 POP SWAP3 SWAP2 POP POP JUMP JUMPDEST PUSH2 0xD08 DUP3 PUSH2 0x830 JUMP JUMPDEST PUSH8 0xFFFFFFFFFFFFFFFF DUP2 GT ISZERO PUSH2 0xD21 JUMPI PUSH2 0xD20 PUSH2 0x63F JUMP JUMPDEST JUMPDEST PUSH2 0xD2B DUP3 SLOAD PUSH2 0xB32 JUMP JUMPDEST PUSH2 0xD36 DUP3 DUP3 DUP6 PUSH2 0xC76 JUMP JUMPDEST PUSH0 PUSH1 0x20 SWAP1 POP PUSH1 0x1F DUP4 GT PUSH1 0x1 DUP2 EQ PUSH2 0xD67 JUMPI PUSH0 DUP5 ISZERO PUSH2 0xD55 JUMPI DUP3 DUP8 ADD MLOAD SWAP1 POP JUMPDEST PUSH2 0xD5F DUP6 DUP3 PUSH2 0xCE4 JUMP JUMPDEST DUP7 SSTORE POP PUSH2 0xDC6 JUMP JUMPDEST PUSH1 0x1F NOT DUP5 AND PUSH2 0xD75 DUP7 PUSH2 0xB62 JUMP JUMPDEST PUSH0 JUMPDEST DUP3 DUP2 LT ISZERO PUSH2 0xD9C JUMPI DUP5 DUP10 ADD MLOAD DUP3 SSTORE PUSH1 0x1 DUP3 ADD SWAP2 POP PUSH1 0x20 DUP6 ADD SWAP5 POP PUSH1 0x20 DUP2 ADD SWAP1 POP PUSH2 0xD77 JUMP JUMPDEST DUP7 DUP4 LT ISZERO PUSH2 0xDB9 JUMPI DUP5 DUP10 ADD MLOAD PUSH2 0xDB5 PUSH1 0x1F DUP10 AND DUP3 PUSH2 0xCC8 JUMP JUMPDEST DUP4 SSTORE POP JUMPDEST PUSH1 0x1 PUSH1 0x2 DUP9 MUL ADD DUP9 SSTORE POP POP POP JUMPDEST POP POP POP POP POP POP JUMP JUMPDEST PUSH32 0x4E487B7100000000000000000000000000000000000000000000000000000000 PUSH0 MSTORE PUSH1 0x11 PUSH1 0x4 MSTORE PUSH1 0x24 PUSH0 REVERT JUMPDEST PUSH0 PUSH2 0xE05 DUP3 PUSH2 0x7AA JUMP JUMPDEST SWAP2 POP PUSH2 0xE10 DUP4 PUSH2 0x7AA JUMP JUMPDEST SWAP3 POP DUP3 DUP3 ADD SWAP1 POP DUP1 DUP3 GT ISZERO PUSH2 0xE28 JUMPI PUSH2 0xE27 PUSH2 0xDCE JUMP JUMPDEST JUMPDEST SWAP3 SWAP2 POP POP JUMP INVALID LOG2 PUSH5 0x6970667358 0x22 SLT KECCAK256 0xBF 0xE5 0xE1 PUSH29 0xF6BDF2D4A29DF290A23849A325D6D11FF34968474D0E38C7035D9B9564 PUSH20 0x6F6C634300081A00330000000000000000000000 "
				},
				"gasEstimates": {
					"creation": {
						"codeDepositCost": "736800",
						"executionCost": "771",
						"totalCost": "737571"
					},
					"external": {
						"addStudent(string,uint256,bool)": "infinite",
						"balances(address)": "2891",
						"checkBalance()": "2607",
						"deposit(uint256)": "infinite",
						"getTokenBalance(string)": "infinite",
						"setStudent(string,uint256,bool)": "infinite",
						"setTokenBalance(string,uint256)": "infinite",
						"student()": "infinite",
						"students(uint256)": "infinite",
						"tokenBalances(address,string)": "infinite"
					}
				},
				"methodIdentifiers": {
					"addStudent(string,uint256,bool)": "1dfc2962",
					"balances(address)": "27e235e3",
					"checkBalance()": "c71daccb",
					"deposit(uint256)": "b6b55f25",
					"getTokenBalance(string)": "025abd58",
					"setStudent(string,uint256,bool)": "19044f07",
					"setTokenBalance(string,uint256)": "3d48ab81",
					"student()": "699450e8",
					"students(uint256)": "06ead22e",
					"tokenBalances(address,string)": "3b2bbadb"
				}
			},
			"storageLayout": {
				"storage": [
					{
						"astId": 11,
						"contract": "contracts/week3.sol:Tutorials",
						"label": "student",
						"offset": 0,
						"slot": "0",
						"type": "t_struct(Student)8_storage"
					},
					{
						"astId": 33,
						"contract": "contracts/week3.sol:Tutorials",
						"label": "students",
						"offset": 0,
						"slot": "3",
						"type": "t_array(t_struct(Student)8_storage)dyn_storage"
					},
					{
						"astId": 57,
						"contract": "contracts/week3.sol:Tutorials",
						"label": "balances",
						"offset": 0,
						"slot": "4",
						"type": "t_mapping(t_address,t_uint256)"
					},
					{
						"astId": 87,
						"contract": "contracts/week3.sol:Tutorials",
						"label": "tokenBalances",
						"offset": 0,
						"slot": "5",
						"type": "t_mapping(t_address,t_mapping(t_string_memory_ptr,t_uint256))"
					}
				],
				"types": {
					"t_address": {
						"encoding": "inplace",
						"label": "address",
						"numberOfBytes": "20"
					},
					"t_array(t_struct(Student)8_storage)dyn_storage": {
						"base": "t_struct(Student)8_storage",
						"encoding": "dynamic_array",
						"label": "struct Tutorials.Student[]",
						"numberOfBytes": "32"
					},
					"t_bool": {
						"encoding": "inplace",
						"label": "bool",
						"numberOfBytes": "1"
					},
					"t_mapping(t_address,t_mapping(t_string_memory_ptr,t_uint256))": {
						"encoding": "mapping",
						"key": "t_address",
						"label": "mapping(address => mapping(string => uint256))",
						"numberOfBytes": "32",
						"value": "t_mapping(t_string_memory_ptr,t_uint256)"
					},
					"t_mapping(t_address,t_uint256)": {
						"encoding": "mapping",
						"key": "t_address",
						"label": "mapping(address => uint256)",
						"numberOfBytes": "32",
						"value": "t_uint256"
					},
					"t_mapping(t_string_memory_ptr,t_uint256)": {
						"encoding": "mapping",
						"key": "t_string_memory_ptr",
						"label": "mapping(string => uint256)",
						"numberOfBytes": "32",
						"value": "t_uint256"
					},
					"t_string_memory_ptr": {
						"encoding": "bytes",
						"label": "string",
						"numberOfBytes": "32"
					},
					"t_string_storage": {
						"encoding": "bytes",
						"label": "string",
						"numberOfBytes": "32"
					},
					"t_struct(Student)8_storage": {
						"encoding": "inplace",
						"label": "struct Tutorials.Student",
						"members": [
							{
								"astId": 3,
								"contract": "contracts/week3.sol:Tutorials",
								"label": "name",
								"offset": 0,
								"slot": "0",
								"type": "t_string_storage"
							},
							{
								"astId": 5,
								"contract": "contracts/week3.sol:Tutorials",
								"label": "age",
								"offset": 0,
								"slot": "1",
								"type": "t_uint256"
							},
							{
								"astId": 7,
								"contract": "contracts/week3.sol:Tutorials",
								"label": "enrolled",
								"offset": 0,
								"slot": "2",
								"type": "t_bool"
							}
						],
						"numberOfBytes": "96"
					},
					"t_uint256": {
						"encoding": "inplace",
						"label": "uint256",
						"numberOfBytes": "32"
					}
				}
			},
			"userdoc": {
				"kind": "user",
				"methods": {},
				"version": 1
			}
		}
	}
}