{
	"contracts/Vote.sol": {
		"Vote": {
			"abi": [
				{
					"anonymous": false,
					"inputs": [
						{
							"indexed": false,
							"internalType": "uint256",
							"name": "id",
							"type": "uint256"
						},
						{
							"indexed": false,
							"internalType": "string",
							"name": "name",
							"type": "string"
						},
						{
							"indexed": false,
							"internalType": "string",
							"name": "group",
							"type": "string"
						}
					],
					"name": "NomineeAdded",
					"type": "event"
				},
				{
					"anonymous": false,
					"inputs": [
						{
							"indexed": true,
							"internalType": "address",
							"name": "voter",
							"type": "address"
						},
						{
							"indexed": false,
							"internalType": "uint256",
							"name": "nomineeId",
							"type": "uint256"
						}
					],
					"name": "VoteCast",
					"type": "event"
				},
				{
					"inputs": [
						{
							"internalType": "string",
							"name": "_name",
							"type": "string"
						},
						{
							"internalType": "string",
							"name": "_group",
							"type": "string"
						}
					],
					"name": "addNominee",
					"outputs": [
						{
							"internalType": "uint256",
							"name": "",
							"type": "uint256"
						}
					],
					"stateMutability": "nonpayable",
					"type": "function"
				},
				{
					"inputs": [],
					"name": "checkVote",
					"outputs": [
						{
							"internalType": "bool",
							"name": "",
							"type": "bool"
						}
					],
					"stateMutability": "view",
					"type": "function"
				},
				{
					"inputs": [],
					"name": "countNominees",
					"outputs": [
						{
							"internalType": "uint256",
							"name": "",
							"type": "uint256"
						}
					],
					"stateMutability": "view",
					"type": "function"
				},
				{
					"inputs": [],
					"name": "getCountNominee",
					"outputs": [
						{
							"internalType": "uint256",
							"name": "",
							"type": "uint256"
						}
					],
					"stateMutability": "view",
					"type": "function"
				},
				{
					"inputs": [
						{
							"internalType": "uint256",
							"name": "nomineeId",
							"type": "uint256"
						}
					],
					"name": "getNominee",
					"outputs": [
						{
							"internalType": "uint256",
							"name": "",
							"type": "uint256"
						},
						{
							"internalType": "string",
							"name": "",
							"type": "string"
						},
						{
							"internalType": "string",
							"name": "",
							"type": "string"
						},
						{
							"internalType": "uint256",
							"name": "",
							"type": "uint256"
						}
					],
					"stateMutability": "view",
					"type": "function"
				},
				{
					"inputs": [
						{
							"internalType": "uint256",
							"name": "",
							"type": "uint256"
						}
					],
					"name": "nominees",
					"outputs": [
						{
							"internalType": "uint256",
							"name": "id",
							"type": "uint256"
						},
						{
							"internalType": "string",
							"name": "name",
							"type": "string"
						},
						{
							"internalType": "string",
							"name": "group",
							"type": "string"
						},
						{
							"internalType": "uint256",
							"name": "voteCount",
							"type": "uint256"
						}
					],
					"stateMutability": "view",
					"type": "function"
				},
				{
					"inputs": [
						{
							"internalType": "uint256",
							"name": "_votingBegin",
							"type": "uint256"
						},
						{
							"internalType": "uint256",
							"name": "_votingClose",
							"type": "uint256"
						}
					],
					"name": "setVotingPeriod",
					"outputs": [],
					"stateMutability": "nonpayable",
					"type": "function"
				},
				{
					"inputs": [
						{
							"internalType": "uint256",
							"name": "nomineeId",
							"type": "uint256"
						}
					],
					"name": "vote",
					"outputs": [],
					"stateMutability": "nonpayable",
					"type": "function"
				},
				{
					"inputs": [
						{
							"internalType": "address",
							"name": "",
							"type": "address"
						}
					],
					"name": "voters",
					"outputs": [
						{
							"internalType": "bool",
							"name": "",
							"type": "bool"
						}
					],
					"stateMutability": "view",
					"type": "function"
				},
				{
					"inputs": [],
					"name": "votingBegin",
					"outputs": [
						{
							"internalType": "uint256",
							"name": "",
							"type": "uint256"
						}
					],
					"stateMutability": "view",
					"type": "function"
				},
				{
					"inputs": [],
					"name": "votingClose",
					"outputs": [
						{
							"internalType": "uint256",
							"name": "",
							"type": "uint256"
						}
					],
					"stateMutability": "view",
					"type": "function"
				}
			],
			"devdoc": {
				"kind": "dev",
				"methods": {},
				"version": 1
			},
			"evm": {
				"assembly": "    /* \"contracts/Vote.sol\":60:2278  contract Vote {... */\n  mstore(0x40, 0x80)\n  callvalue\n  dup1\n  iszero\n  tag_1\n  jumpi\n  0x00\n  dup1\n  revert\ntag_1:\n  pop\n  dataSize(sub_0)\n  dup1\n  dataOffset(sub_0)\n  0x00\n  codecopy\n  0x00\n  return\nstop\n\nsub_0: assembly {\n        /* \"contracts/Vote.sol\":60:2278  contract Vote {... */\n      mstore(0x40, 0x80)\n      callvalue\n      dup1\n      iszero\n      tag_1\n      jumpi\n      0x00\n      dup1\n      revert\n    tag_1:\n      pop\n      jumpi(tag_2, lt(calldatasize, 0x04))\n      shr(0xe0, calldataload(0x00))\n      dup1\n      0xa15a36c7\n      gt\n      tag_14\n      jumpi\n      dup1\n      0xa15a36c7\n      eq\n      tag_8\n      jumpi\n      dup1\n      0xa3ec138d\n      eq\n      tag_9\n      jumpi\n      dup1\n      0xb0417e98\n      eq\n      tag_10\n      jumpi\n      dup1\n      0xb04e55ed\n      eq\n      tag_11\n      jumpi\n      dup1\n      0xc5e7e32b\n      eq\n      tag_12\n      jumpi\n      dup1\n      0xeec6b91e\n      eq\n      tag_13\n      jumpi\n      jump(tag_2)\n    tag_14:\n      dup1\n      0x0121b93f\n      eq\n      tag_3\n      jumpi\n      dup1\n      0x27ebf531\n      eq\n      tag_4\n      jumpi\n      dup1\n      0x3554fd8f\n      eq\n      tag_5\n      jumpi\n      dup1\n      0x36b8ddd3\n      eq\n      tag_6\n      jumpi\n      dup1\n      0x592b41d1\n      eq\n      tag_7\n      jumpi\n    tag_2:\n      0x00\n      dup1\n      revert\n        /* \"contracts/Vote.sol\":1210:1819  function vote(uint256 nomineeId) public {... */\n    tag_3:\n      tag_15\n      0x04\n      dup1\n      calldatasize\n      sub\n      dup2\n      add\n      swap1\n      tag_16\n      swap2\n      swap1\n      tag_17\n      jump\t// in\n    tag_16:\n      tag_18\n      jump\t// in\n    tag_15:\n      stop\n        /* \"contracts/Vote.sol\":2036:2275  function getNominee(uint nomineeId) public view returns ... */\n    tag_4:\n      tag_19\n      0x04\n      dup1\n      calldatasize\n      sub\n      dup2\n      add\n      swap1\n      tag_20\n      swap2\n      swap1\n      tag_17\n      jump\t// in\n    tag_20:\n      tag_21\n      jump\t// in\n    tag_19:\n      mload(0x40)\n      tag_22\n      swap5\n      swap4\n      swap3\n      swap2\n      swap1\n      tag_23\n      jump\t// in\n    tag_22:\n      mload(0x40)\n      dup1\n      swap2\n      sub\n      swap1\n      return\n        /* \"contracts/Vote.sol\":381:407  uint256 public votingBegin */\n    tag_5:\n      tag_24\n      tag_25\n      jump\t// in\n    tag_24:\n      mload(0x40)\n      tag_26\n      swap2\n      swap1\n      tag_27\n      jump\t// in\n    tag_26:\n      mload(0x40)\n      dup1\n      swap2\n      sub\n      swap1\n      return\n        /* \"contracts/Vote.sol\":348:374  uint256 public votingClose */\n    tag_6:\n      tag_28\n      tag_29\n      jump\t// in\n    tag_28:\n      mload(0x40)\n      tag_30\n      swap2\n      swap1\n      tag_27\n      jump\t// in\n    tag_30:\n      mload(0x40)\n      dup1\n      swap2\n      sub\n      swap1\n      return\n        /* \"contracts/Vote.sol\":1930:2030  function getCountNominee() public view returns(uint256)... */\n    tag_7:\n      tag_31\n      tag_32\n      jump\t// in\n    tag_31:\n      mload(0x40)\n      tag_33\n      swap2\n      swap1\n      tag_27\n      jump\t// in\n    tag_33:\n      mload(0x40)\n      dup1\n      swap2\n      sub\n      swap1\n      return\n        /* \"contracts/Vote.sol\":587:793  function setVotingPeriod(uint256 _votingBegin, uint256 _votingClose) public {... */\n    tag_8:\n      tag_34\n      0x04\n      dup1\n      calldatasize\n      sub\n      dup2\n      add\n      swap1\n      tag_35\n      swap2\n      swap1\n      tag_36\n      jump\t// in\n    tag_35:\n      tag_37\n      jump\t// in\n    tag_34:\n      stop\n        /* \"contracts/Vote.sol\":261:299  mapping(address => bool) public voters */\n    tag_9:\n      tag_38\n      0x04\n      dup1\n      calldatasize\n      sub\n      dup2\n      add\n      swap1\n      tag_39\n      swap2\n      swap1\n      tag_40\n      jump\t// in\n    tag_39:\n      tag_41\n      jump\t// in\n    tag_38:\n      mload(0x40)\n      tag_42\n      swap2\n      swap1\n      tag_43\n      jump\t// in\n    tag_42:\n      mload(0x40)\n      dup1\n      swap2\n      sub\n      swap1\n      return\n        /* \"contracts/Vote.sol\":1825:1924  function checkVote() public view returns (bool)... */\n    tag_10:\n      tag_44\n      tag_45\n      jump\t// in\n    tag_44:\n      mload(0x40)\n      tag_46\n      swap2\n      swap1\n      tag_43\n      jump\t// in\n    tag_46:\n      mload(0x40)\n      dup1\n      swap2\n      sub\n      swap1\n      return\n        /* \"contracts/Vote.sol\":313:341  uint256 public countNominees */\n    tag_11:\n      tag_47\n      tag_48\n      jump\t// in\n    tag_47:\n      mload(0x40)\n      tag_49\n      swap2\n      swap1\n      tag_27\n      jump\t// in\n    tag_49:\n      mload(0x40)\n      dup1\n      swap2\n      sub\n      swap1\n      return\n        /* \"contracts/Vote.sol\":801:1202  function addNominee(string memory _name, string memory _group) ... */\n    tag_12:\n      tag_50\n      0x04\n      dup1\n      calldatasize\n      sub\n      dup2\n      add\n      swap1\n      tag_51\n      swap2\n      swap1\n      tag_52\n      jump\t// in\n    tag_51:\n      tag_53\n      jump\t// in\n    tag_50:\n      mload(0x40)\n      tag_54\n      swap2\n      swap1\n      tag_27\n      jump\t// in\n    tag_54:\n      mload(0x40)\n      dup1\n      swap2\n      sub\n      swap1\n      return\n        /* \"contracts/Vote.sol\":210:254  mapping (uint256 => Nominee) public nominees */\n    tag_13:\n      tag_55\n      0x04\n      dup1\n      calldatasize\n      sub\n      dup2\n      add\n      swap1\n      tag_56\n      swap2\n      swap1\n      tag_17\n      jump\t// in\n    tag_56:\n      tag_57\n      jump\t// in\n    tag_55:\n      mload(0x40)\n      tag_58\n      swap5\n      swap4\n      swap3\n      swap2\n      swap1\n      tag_23\n      jump\t// in\n    tag_58:\n      mload(0x40)\n      dup1\n      swap2\n      sub\n      swap1\n      return\n        /* \"contracts/Vote.sol\":1210:1819  function vote(uint256 nomineeId) public {... */\n    tag_18:\n        /* \"contracts/Vote.sol\":1288:1299  votingBegin */\n      sload(0x04)\n        /* \"contracts/Vote.sol\":1269:1284  block.timestamp */\n      timestamp\n        /* \"contracts/Vote.sol\":1269:1299  block.timestamp >= votingBegin */\n      lt\n      iszero\n        /* \"contracts/Vote.sol\":1261:1330  require(block.timestamp >= votingBegin, \"Voting has not started yet\") */\n      tag_60\n      jumpi\n      mload(0x40)\n      0x08c379a000000000000000000000000000000000000000000000000000000000\n      dup2\n      mstore\n      0x04\n      add\n      tag_61\n      swap1\n      tag_62\n      jump\t// in\n    tag_61:\n      mload(0x40)\n      dup1\n      swap2\n      sub\n      swap1\n      revert\n    tag_60:\n        /* \"contracts/Vote.sol\":1368:1379  votingClose */\n      sload(0x03)\n        /* \"contracts/Vote.sol\":1349:1364  block.timestamp */\n      timestamp\n        /* \"contracts/Vote.sol\":1349:1379  block.timestamp <= votingClose */\n      gt\n      iszero\n        /* \"contracts/Vote.sol\":1341:1395  require(block.timestamp <= votingClose, \"Vote Closed\") */\n      tag_63\n      jumpi\n      mload(0x40)\n      0x08c379a000000000000000000000000000000000000000000000000000000000\n      dup2\n      mstore\n      0x04\n      add\n      tag_64\n      swap1\n      tag_65\n      jump\t// in\n    tag_64:\n      mload(0x40)\n      dup1\n      swap2\n      sub\n      swap1\n      revert\n    tag_63:\n        /* \"contracts/Vote.sol\":1426:1427  0 */\n      0x00\n        /* \"contracts/Vote.sol\":1414:1423  nomineeId */\n      dup2\n        /* \"contracts/Vote.sol\":1414:1427  nomineeId > 0 */\n      gt\n        /* \"contracts/Vote.sol\":1414:1457  nomineeId > 0 && nomineeId <= countNominees */\n      dup1\n      iszero\n      tag_66\n      jumpi\n      pop\n        /* \"contracts/Vote.sol\":1444:1457  countNominees */\n      sload(0x02)\n        /* \"contracts/Vote.sol\":1431:1440  nomineeId */\n      dup2\n        /* \"contracts/Vote.sol\":1431:1457  nomineeId <= countNominees */\n      gt\n      iszero\n        /* \"contracts/Vote.sol\":1414:1457  nomineeId > 0 && nomineeId <= countNominees */\n    tag_66:\n        /* \"contracts/Vote.sol\":1406:1480  require(nomineeId > 0 && nomineeId <= countNominees, \"Invalid nominee ID\") */\n      tag_67\n      jumpi\n      mload(0x40)\n      0x08c379a000000000000000000000000000000000000000000000000000000000\n      dup2\n      mstore\n      0x04\n      add\n      tag_68\n      swap1\n      tag_69\n      jump\t// in\n    tag_68:\n      mload(0x40)\n      dup1\n      swap2\n      sub\n      swap1\n      revert\n    tag_67:\n        /* \"contracts/Vote.sol\":1500:1506  voters */\n      0x01\n        /* \"contracts/Vote.sol\":1500:1518  voters[msg.sender] */\n      0x00\n        /* \"contracts/Vote.sol\":1507:1517  msg.sender */\n      caller\n        /* \"contracts/Vote.sol\":1500:1518  voters[msg.sender] */\n      0xffffffffffffffffffffffffffffffffffffffff\n      and\n      0xffffffffffffffffffffffffffffffffffffffff\n      and\n      dup2\n      mstore\n      0x20\n      add\n      swap1\n      dup2\n      mstore\n      0x20\n      add\n      0x00\n      keccak256\n      0x00\n      swap1\n      sload\n      swap1\n      0x0100\n      exp\n      swap1\n      div\n      0xff\n      and\n        /* \"contracts/Vote.sol\":1499:1518  !voters[msg.sender] */\n      iszero\n        /* \"contracts/Vote.sol\":1491:1545  require(!voters[msg.sender], \"You have already voted\") */\n      tag_70\n      jumpi\n      mload(0x40)\n      0x08c379a000000000000000000000000000000000000000000000000000000000\n      dup2\n      mstore\n      0x04\n      add\n      tag_71\n      swap1\n      tag_72\n      jump\t// in\n    tag_71:\n      mload(0x40)\n      dup1\n      swap2\n      sub\n      swap1\n      revert\n    tag_70:\n        /* \"contracts/Vote.sol\":1622:1626  true */\n      0x01\n        /* \"contracts/Vote.sol\":1601:1607  voters */\n      dup1\n        /* \"contracts/Vote.sol\":1601:1619  voters[msg.sender] */\n      0x00\n        /* \"contracts/Vote.sol\":1608:1618  msg.sender */\n      caller\n        /* \"contracts/Vote.sol\":1601:1619  voters[msg.sender] */\n      0xffffffffffffffffffffffffffffffffffffffff\n      and\n      0xffffffffffffffffffffffffffffffffffffffff\n      and\n      dup2\n      mstore\n      0x20\n      add\n      swap1\n      dup2\n      mstore\n      0x20\n      add\n      0x00\n      keccak256\n      0x00\n        /* \"contracts/Vote.sol\":1601:1626  voters[msg.sender] = true */\n      0x0100\n      exp\n      dup2\n      sload\n      dup2\n      0xff\n      mul\n      not\n      and\n      swap1\n      dup4\n      iszero\n      iszero\n      mul\n      or\n      swap1\n      sstore\n      pop\n        /* \"contracts/Vote.sol\":1692:1700  nominees */\n      0x00\n        /* \"contracts/Vote.sol\":1692:1711  nominees[nomineeId] */\n      dup1\n        /* \"contracts/Vote.sol\":1701:1710  nomineeId */\n      dup3\n        /* \"contracts/Vote.sol\":1692:1711  nominees[nomineeId] */\n      dup2\n      mstore\n      0x20\n      add\n      swap1\n      dup2\n      mstore\n      0x20\n      add\n      0x00\n      keccak256\n        /* \"contracts/Vote.sol\":1692:1721  nominees[nomineeId].voteCount */\n      0x03\n      add\n      0x00\n        /* \"contracts/Vote.sol\":1692:1723  nominees[nomineeId].voteCount++ */\n      dup2\n      sload\n      dup1\n      swap3\n      swap2\n      swap1\n      tag_73\n      swap1\n      tag_74\n      jump\t// in\n    tag_73:\n      swap2\n      swap1\n      pop\n      sstore\n      pop\n        /* \"contracts/Vote.sol\":1789:1799  msg.sender */\n      caller\n        /* \"contracts/Vote.sol\":1780:1811  VoteCast(msg.sender, nomineeId) */\n      0xffffffffffffffffffffffffffffffffffffffff\n      and\n      0xa36cc2bebb74db33e9f88110a07ef56e1b31b24b4c4f51b54b1664266e29f45b\n        /* \"contracts/Vote.sol\":1801:1810  nomineeId */\n      dup3\n        /* \"contracts/Vote.sol\":1780:1811  VoteCast(msg.sender, nomineeId) */\n      mload(0x40)\n      tag_75\n      swap2\n      swap1\n      tag_27\n      jump\t// in\n    tag_75:\n      mload(0x40)\n      dup1\n      swap2\n      sub\n      swap1\n      log2\n        /* \"contracts/Vote.sol\":1210:1819  function vote(uint256 nomineeId) public {... */\n      pop\n      jump\t// out\n        /* \"contracts/Vote.sol\":2036:2275  function getNominee(uint nomineeId) public view returns ... */\n    tag_21:\n        /* \"contracts/Vote.sol\":2099:2103  uint */\n      0x00\n        /* \"contracts/Vote.sol\":2105:2118  string memory */\n      0x60\n        /* \"contracts/Vote.sol\":2120:2133  string memory */\n      dup1\n        /* \"contracts/Vote.sol\":2135:2139  uint */\n      0x00\n        /* \"contracts/Vote.sol\":2160:2168  nominees */\n      dup1\n        /* \"contracts/Vote.sol\":2160:2179  nominees[nomineeId] */\n      0x00\n        /* \"contracts/Vote.sol\":2169:2178  nomineeId */\n      dup7\n        /* \"contracts/Vote.sol\":2160:2179  nominees[nomineeId] */\n      dup2\n      mstore\n      0x20\n      add\n      swap1\n      dup2\n      mstore\n      0x20\n      add\n      0x00\n      keccak256\n        /* \"contracts/Vote.sol\":2160:2182  nominees[nomineeId].id */\n      0x00\n      add\n      sload\n        /* \"contracts/Vote.sol\":2184:2192  nominees */\n      0x00\n        /* \"contracts/Vote.sol\":2184:2203  nominees[nomineeId] */\n      dup1\n        /* \"contracts/Vote.sol\":2193:2202  nomineeId */\n      dup8\n        /* \"contracts/Vote.sol\":2184:2203  nominees[nomineeId] */\n      dup2\n      mstore\n      0x20\n      add\n      swap1\n      dup2\n      mstore\n      0x20\n      add\n      0x00\n      keccak256\n        /* \"contracts/Vote.sol\":2184:2208  nominees[nomineeId].name */\n      0x01\n      add\n        /* \"contracts/Vote.sol\":2210:2218  nominees */\n      0x00\n        /* \"contracts/Vote.sol\":2210:2229  nominees[nomineeId] */\n      dup1\n        /* \"contracts/Vote.sol\":2219:2228  nomineeId */\n      dup9\n        /* \"contracts/Vote.sol\":2210:2229  nominees[nomineeId] */\n      dup2\n      mstore\n      0x20\n      add\n      swap1\n      dup2\n      mstore\n      0x20\n      add\n      0x00\n      keccak256\n        /* \"contracts/Vote.sol\":2210:2235  nominees[nomineeId].group */\n      0x02\n      add\n        /* \"contracts/Vote.sol\":2237:2245  nominees */\n      0x00\n        /* \"contracts/Vote.sol\":2237:2256  nominees[nomineeId] */\n      dup1\n        /* \"contracts/Vote.sol\":2246:2255  nomineeId */\n      dup10\n        /* \"contracts/Vote.sol\":2237:2256  nominees[nomineeId] */\n      dup2\n      mstore\n      0x20\n      add\n      swap1\n      dup2\n      mstore\n      0x20\n      add\n      0x00\n      keccak256\n        /* \"contracts/Vote.sol\":2237:2266  nominees[nomineeId].voteCount */\n      0x03\n      add\n      sload\n        /* \"contracts/Vote.sol\":2152:2267  return (nominees[nomineeId].id, nominees[nomineeId].name, nominees[nomineeId].group, nominees[nomineeId].voteCount) */\n      dup3\n      dup1\n      sload\n      tag_77\n      swap1\n      tag_78\n      jump\t// in\n    tag_77:\n      dup1\n      0x1f\n      add\n      0x20\n      dup1\n      swap2\n      div\n      mul\n      0x20\n      add\n      mload(0x40)\n      swap1\n      dup2\n      add\n      0x40\n      mstore\n      dup1\n      swap3\n      swap2\n      swap1\n      dup2\n      dup2\n      mstore\n      0x20\n      add\n      dup3\n      dup1\n      sload\n      tag_79\n      swap1\n      tag_78\n      jump\t// in\n    tag_79:\n      dup1\n      iszero\n      tag_80\n      jumpi\n      dup1\n      0x1f\n      lt\n      tag_81\n      jumpi\n      0x0100\n      dup1\n      dup4\n      sload\n      div\n      mul\n      dup4\n      mstore\n      swap2\n      0x20\n      add\n      swap2\n      jump(tag_80)\n    tag_81:\n      dup3\n      add\n      swap2\n      swap1\n      0x00\n      mstore\n      keccak256(0x00, 0x20)\n      swap1\n    tag_82:\n      dup2\n      sload\n      dup2\n      mstore\n      swap1\n      0x01\n      add\n      swap1\n      0x20\n      add\n      dup1\n      dup4\n      gt\n      tag_82\n      jumpi\n      dup3\n      swap1\n      sub\n      0x1f\n      and\n      dup3\n      add\n      swap2\n    tag_80:\n      pop\n      pop\n      pop\n      pop\n      pop\n      swap3\n      pop\n      dup2\n      dup1\n      sload\n      tag_83\n      swap1\n      tag_78\n      jump\t// in\n    tag_83:\n      dup1\n      0x1f\n      add\n      0x20\n      dup1\n      swap2\n      div\n      mul\n      0x20\n      add\n      mload(0x40)\n      swap1\n      dup2\n      add\n      0x40\n      mstore\n      dup1\n      swap3\n      swap2\n      swap1\n      dup2\n      dup2\n      mstore\n      0x20\n      add\n      dup3\n      dup1\n      sload\n      tag_84\n      swap1\n      tag_78\n      jump\t// in\n    tag_84:\n      dup1\n      iszero\n      tag_85\n      jumpi\n      dup1\n      0x1f\n      lt\n      tag_86\n      jumpi\n      0x0100\n      dup1\n      dup4\n      sload\n      div\n      mul\n      dup4\n      mstore\n      swap2\n      0x20\n      add\n      swap2\n      jump(tag_85)\n    tag_86:\n      dup3\n      add\n      swap2\n      swap1\n      0x00\n      mstore\n      keccak256(0x00, 0x20)\n      swap1\n    tag_87:\n      dup2\n      sload\n      dup2\n      mstore\n      swap1\n      0x01\n      add\n      swap1\n      0x20\n      add\n      dup1\n      dup4\n      gt\n      tag_87\n      jumpi\n      dup3\n      swap1\n      sub\n      0x1f\n      and\n      dup3\n      add\n      swap2\n    tag_85:\n      pop\n      pop\n      pop\n      pop\n      pop\n      swap2\n      pop\n      swap4\n      pop\n      swap4\n      pop\n      swap4\n      pop\n      swap4\n      pop\n        /* \"contracts/Vote.sol\":2036:2275  function getNominee(uint nomineeId) public view returns ... */\n      swap2\n      swap4\n      pop\n      swap2\n      swap4\n      jump\t// out\n        /* \"contracts/Vote.sol\":381:407  uint256 public votingBegin */\n    tag_25:\n      sload(0x04)\n      dup2\n      jump\t// out\n        /* \"contracts/Vote.sol\":348:374  uint256 public votingClose */\n    tag_29:\n      sload(0x03)\n      dup2\n      jump\t// out\n        /* \"contracts/Vote.sol\":1930:2030  function getCountNominee() public view returns(uint256)... */\n    tag_32:\n        /* \"contracts/Vote.sol\":1977:1984  uint256 */\n      0x00\n        /* \"contracts/Vote.sol\":2009:2022  countNominees */\n      sload(0x02)\n        /* \"contracts/Vote.sol\":2002:2022  return countNominees */\n      swap1\n      pop\n        /* \"contracts/Vote.sol\":1930:2030  function getCountNominee() public view returns(uint256)... */\n      swap1\n      jump\t// out\n        /* \"contracts/Vote.sol\":587:793  function setVotingPeriod(uint256 _votingBegin, uint256 _votingClose) public {... */\n    tag_37:\n        /* \"contracts/Vote.sol\":736:748  _votingBegin */\n      dup2\n        /* \"contracts/Vote.sol\":722:733  votingBegin */\n      0x04\n        /* \"contracts/Vote.sol\":722:748  votingBegin = _votingBegin */\n      dup2\n      swap1\n      sstore\n      pop\n        /* \"contracts/Vote.sol\":773:785  _votingClose */\n      dup1\n        /* \"contracts/Vote.sol\":759:770  votingClose */\n      0x03\n        /* \"contracts/Vote.sol\":759:785  votingClose = _votingClose */\n      dup2\n      swap1\n      sstore\n      pop\n        /* \"contracts/Vote.sol\":587:793  function setVotingPeriod(uint256 _votingBegin, uint256 _votingClose) public {... */\n      pop\n      pop\n      jump\t// out\n        /* \"contracts/Vote.sol\":261:299  mapping(address => bool) public voters */\n    tag_41:\n      mstore(0x20, 0x01)\n      dup1\n      0x00\n      mstore\n      keccak256(0x00, 0x40)\n      0x00\n      swap2\n      pop\n      sload\n      swap1\n      0x0100\n      exp\n      swap1\n      div\n      0xff\n      and\n      dup2\n      jump\t// out\n        /* \"contracts/Vote.sol\":1825:1924  function checkVote() public view returns (bool)... */\n    tag_45:\n        /* \"contracts/Vote.sol\":1867:1871  bool */\n      0x00\n        /* \"contracts/Vote.sol\":1898:1904  voters */\n      0x01\n        /* \"contracts/Vote.sol\":1898:1916  voters[msg.sender] */\n      0x00\n        /* \"contracts/Vote.sol\":1905:1915  msg.sender */\n      caller\n        /* \"contracts/Vote.sol\":1898:1916  voters[msg.sender] */\n      0xffffffffffffffffffffffffffffffffffffffff\n      and\n      0xffffffffffffffffffffffffffffffffffffffff\n      and\n      dup2\n      mstore\n      0x20\n      add\n      swap1\n      dup2\n      mstore\n      0x20\n      add\n      0x00\n      keccak256\n      0x00\n      swap1\n      sload\n      swap1\n      0x0100\n      exp\n      swap1\n      div\n      0xff\n      and\n        /* \"contracts/Vote.sol\":1891:1916  return voters[msg.sender] */\n      swap1\n      pop\n        /* \"contracts/Vote.sol\":1825:1924  function checkVote() public view returns (bool)... */\n      swap1\n      jump\t// out\n        /* \"contracts/Vote.sol\":313:341  uint256 public countNominees */\n    tag_48:\n      sload(0x02)\n      dup2\n      jump\t// out\n        /* \"contracts/Vote.sol\":801:1202  function addNominee(string memory _name, string memory _group) ... */\n    tag_53:\n        /* \"contracts/Vote.sol\":890:897  uint256 */\n      0x00\n        /* \"contracts/Vote.sol\":916:929  countNominees */\n      0x02\n      0x00\n        /* \"contracts/Vote.sol\":916:931  countNominees++ */\n      dup2\n      sload\n      dup1\n      swap3\n      swap2\n      swap1\n      tag_92\n      swap1\n      tag_74\n      jump\t// in\n    tag_92:\n      swap2\n      swap1\n      pop\n      sstore\n      pop\n        /* \"contracts/Vote.sol\":968:1103  Nominee({... */\n      mload(0x40)\n      dup1\n      0x80\n      add\n      0x40\n      mstore\n      dup1\n        /* \"contracts/Vote.sol\":995:1008  countNominees */\n      sload(0x02)\n        /* \"contracts/Vote.sol\":968:1103  Nominee({... */\n      dup2\n      mstore\n      0x20\n      add\n        /* \"contracts/Vote.sol\":1029:1034  _name */\n      dup5\n        /* \"contracts/Vote.sol\":968:1103  Nominee({... */\n      dup2\n      mstore\n      0x20\n      add\n        /* \"contracts/Vote.sol\":1057:1063  _group */\n      dup4\n        /* \"contracts/Vote.sol\":968:1103  Nominee({... */\n      dup2\n      mstore\n      0x20\n      add\n        /* \"contracts/Vote.sol\":1089:1090  0 */\n      0x00\n        /* \"contracts/Vote.sol\":968:1103  Nominee({... */\n      dup2\n      mstore\n      pop\n        /* \"contracts/Vote.sol\":942:950  nominees */\n      0x00\n        /* \"contracts/Vote.sol\":942:965  nominees[countNominees] */\n      dup1\n        /* \"contracts/Vote.sol\":951:964  countNominees */\n      sload(0x02)\n        /* \"contracts/Vote.sol\":942:965  nominees[countNominees] */\n      dup2\n      mstore\n      0x20\n      add\n      swap1\n      dup2\n      mstore\n      0x20\n      add\n      0x00\n      keccak256\n        /* \"contracts/Vote.sol\":942:1103  nominees[countNominees] = Nominee({... */\n      0x00\n      dup3\n      add\n      mload\n      dup2\n      0x00\n      add\n      sstore\n      0x20\n      dup3\n      add\n      mload\n      dup2\n      0x01\n      add\n      swap1\n      dup2\n      tag_93\n      swap2\n      swap1\n      tag_94\n      jump\t// in\n    tag_93:\n      pop\n      0x40\n      dup3\n      add\n      mload\n      dup2\n      0x02\n      add\n      swap1\n      dup2\n      tag_95\n      swap2\n      swap1\n      tag_94\n      jump\t// in\n    tag_95:\n      pop\n      0x60\n      dup3\n      add\n      mload\n      dup2\n      0x03\n      add\n      sstore\n      swap1\n      pop\n      pop\n        /* \"contracts/Vote.sol\":1121:1163  NomineeAdded(countNominees, _name, _group) */\n      0x77b4dcb988abb2c1590106152ea1343570a0dc2311b55af21e6a5eb6bd02278a\n        /* \"contracts/Vote.sol\":1134:1147  countNominees */\n      sload(0x02)\n        /* \"contracts/Vote.sol\":1149:1154  _name */\n      dup5\n        /* \"contracts/Vote.sol\":1156:1162  _group */\n      dup5\n        /* \"contracts/Vote.sol\":1121:1163  NomineeAdded(countNominees, _name, _group) */\n      mload(0x40)\n      tag_96\n      swap4\n      swap3\n      swap2\n      swap1\n      tag_97\n      jump\t// in\n    tag_96:\n      mload(0x40)\n      dup1\n      swap2\n      sub\n      swap1\n      log1\n        /* \"contracts/Vote.sol\":1181:1194  countNominees */\n      sload(0x02)\n        /* \"contracts/Vote.sol\":1174:1194  return countNominees */\n      swap1\n      pop\n        /* \"contracts/Vote.sol\":801:1202  function addNominee(string memory _name, string memory _group) ... */\n      swap3\n      swap2\n      pop\n      pop\n      jump\t// out\n        /* \"contracts/Vote.sol\":210:254  mapping (uint256 => Nominee) public nominees */\n    tag_57:\n      mstore(0x20, 0x00)\n      dup1\n      0x00\n      mstore\n      keccak256(0x00, 0x40)\n      0x00\n      swap2\n      pop\n      swap1\n      pop\n      dup1\n      0x00\n      add\n      sload\n      swap1\n      dup1\n      0x01\n      add\n      dup1\n      sload\n      tag_98\n      swap1\n      tag_78\n      jump\t// in\n    tag_98:\n      dup1\n      0x1f\n      add\n      0x20\n      dup1\n      swap2\n      div\n      mul\n      0x20\n      add\n      mload(0x40)\n      swap1\n      dup2\n      add\n      0x40\n      mstore\n      dup1\n      swap3\n      swap2\n      swap1\n      dup2\n      dup2\n      mstore\n      0x20\n      add\n      dup3\n      dup1\n      sload\n      tag_99\n      swap1\n      tag_78\n      jump\t// in\n    tag_99:\n      dup1\n      iszero\n      tag_100\n      jumpi\n      dup1\n      0x1f\n      lt\n      tag_101\n      jumpi\n      0x0100\n      dup1\n      dup4\n      sload\n      div\n      mul\n      dup4\n      mstore\n      swap2\n      0x20\n      add\n      swap2\n      jump(tag_100)\n    tag_101:\n      dup3\n      add\n      swap2\n      swap1\n      0x00\n      mstore\n      keccak256(0x00, 0x20)\n      swap1\n    tag_102:\n      dup2\n      sload\n      dup2\n      mstore\n      swap1\n      0x01\n      add\n      swap1\n      0x20\n      add\n      dup1\n      dup4\n      gt\n      tag_102\n      jumpi\n      dup3\n      swap1\n      sub\n      0x1f\n      and\n      dup3\n      add\n      swap2\n    tag_100:\n      pop\n      pop\n      pop\n      pop\n      pop\n      swap1\n      dup1\n      0x02\n      add\n      dup1\n      sload\n      tag_103\n      swap1\n      tag_78\n      jump\t// in\n    tag_103:\n      dup1\n      0x1f\n      add\n      0x20\n      dup1\n      swap2\n      div\n      mul\n      0x20\n      add\n      mload(0x40)\n      swap1\n      dup2\n      add\n      0x40\n      mstore\n      dup1\n      swap3\n      swap2\n      swap1\n      dup2\n      dup2\n      mstore\n      0x20\n      add\n      dup3\n      dup1\n      sload\n      tag_104\n      swap1\n      tag_78\n      jump\t// in\n    tag_104:\n      dup1\n      iszero\n      tag_105\n      jumpi\n      dup1\n      0x1f\n      lt\n      tag_106\n      jumpi\n      0x0100\n      dup1\n      dup4\n      sload\n      div\n      mul\n      dup4\n      mstore\n      swap2\n      0x20\n      add\n      swap2\n      jump(tag_105)\n    tag_106:\n      dup3\n      add\n      swap2\n      swap1\n      0x00\n      mstore\n      keccak256(0x00, 0x20)\n      swap1\n    tag_107:\n      dup2\n      sload\n      dup2\n      mstore\n      swap1\n      0x01\n      add\n      swap1\n      0x20\n      add\n      dup1\n      dup4\n      gt\n      tag_107\n      jumpi\n      dup3\n      swap1\n      sub\n      0x1f\n      and\n      dup3\n      add\n      swap2\n    tag_105:\n      pop\n      pop\n      pop\n      pop\n      pop\n      swap1\n      dup1\n      0x03\n      add\n      sload\n      swap1\n      pop\n      dup5\n      jump\t// out\n        /* \"#utility.yul\":7:82   */\n    tag_108:\n        /* \"#utility.yul\":40:46   */\n      0x00\n        /* \"#utility.yul\":73:75   */\n      0x40\n        /* \"#utility.yul\":67:76   */\n      mload\n        /* \"#utility.yul\":57:76   */\n      swap1\n      pop\n        /* \"#utility.yul\":7:82   */\n      swap1\n      jump\t// out\n        /* \"#utility.yul\":88:205   */\n    tag_109:\n        /* \"#utility.yul\":197:198   */\n      0x00\n        /* \"#utility.yul\":194:195   */\n      dup1\n        /* \"#utility.yul\":187:199   */\n      revert\n        /* \"#utility.yul\":211:328   */\n    tag_110:\n        /* \"#utility.yul\":320:321   */\n      0x00\n        /* \"#utility.yul\":317:318   */\n      dup1\n        /* \"#utility.yul\":310:322   */\n      revert\n        /* \"#utility.yul\":334:411   */\n    tag_111:\n        /* \"#utility.yul\":371:378   */\n      0x00\n        /* \"#utility.yul\":400:405   */\n      dup2\n        /* \"#utility.yul\":389:405   */\n      swap1\n      pop\n        /* \"#utility.yul\":334:411   */\n      swap2\n      swap1\n      pop\n      jump\t// out\n        /* \"#utility.yul\":417:539   */\n    tag_112:\n        /* \"#utility.yul\":490:514   */\n      tag_166\n        /* \"#utility.yul\":508:513   */\n      dup2\n        /* \"#utility.yul\":490:514   */\n      tag_111\n      jump\t// in\n    tag_166:\n        /* \"#utility.yul\":483:488   */\n      dup2\n        /* \"#utility.yul\":480:515   */\n      eq\n        /* \"#utility.yul\":470:533   */\n      tag_167\n      jumpi\n        /* \"#utility.yul\":529:530   */\n      0x00\n        /* \"#utility.yul\":526:527   */\n      dup1\n        /* \"#utility.yul\":519:531   */\n      revert\n        /* \"#utility.yul\":470:533   */\n    tag_167:\n        /* \"#utility.yul\":417:539   */\n      pop\n      jump\t// out\n        /* \"#utility.yul\":545:684   */\n    tag_113:\n        /* \"#utility.yul\":591:596   */\n      0x00\n        /* \"#utility.yul\":629:635   */\n      dup2\n        /* \"#utility.yul\":616:636   */\n      calldataload\n        /* \"#utility.yul\":607:636   */\n      swap1\n      pop\n        /* \"#utility.yul\":645:678   */\n      tag_169\n        /* \"#utility.yul\":672:677   */\n      dup2\n        /* \"#utility.yul\":645:678   */\n      tag_112\n      jump\t// in\n    tag_169:\n        /* \"#utility.yul\":545:684   */\n      swap3\n      swap2\n      pop\n      pop\n      jump\t// out\n        /* \"#utility.yul\":690:1019   */\n    tag_17:\n        /* \"#utility.yul\":749:755   */\n      0x00\n        /* \"#utility.yul\":798:800   */\n      0x20\n        /* \"#utility.yul\":786:795   */\n      dup3\n        /* \"#utility.yul\":777:784   */\n      dup5\n        /* \"#utility.yul\":773:796   */\n      sub\n        /* \"#utility.yul\":769:801   */\n      slt\n        /* \"#utility.yul\":766:885   */\n      iszero\n      tag_171\n      jumpi\n        /* \"#utility.yul\":804:883   */\n      tag_172\n      tag_109\n      jump\t// in\n    tag_172:\n        /* \"#utility.yul\":766:885   */\n    tag_171:\n        /* \"#utility.yul\":924:925   */\n      0x00\n        /* \"#utility.yul\":949:1002   */\n      tag_173\n        /* \"#utility.yul\":994:1001   */\n      dup5\n        /* \"#utility.yul\":985:991   */\n      dup3\n        /* \"#utility.yul\":974:983   */\n      dup6\n        /* \"#utility.yul\":970:992   */\n      add\n        /* \"#utility.yul\":949:1002   */\n      tag_113\n      jump\t// in\n    tag_173:\n        /* \"#utility.yul\":939:1002   */\n      swap2\n      pop\n        /* \"#utility.yul\":895:1012   */\n      pop\n        /* \"#utility.yul\":690:1019   */\n      swap3\n      swap2\n      pop\n      pop\n      jump\t// out\n        /* \"#utility.yul\":1025:1143   */\n    tag_114:\n        /* \"#utility.yul\":1112:1136   */\n      tag_175\n        /* \"#utility.yul\":1130:1135   */\n      dup2\n        /* \"#utility.yul\":1112:1136   */\n      tag_111\n      jump\t// in\n    tag_175:\n        /* \"#utility.yul\":1107:1110   */\n      dup3\n        /* \"#utility.yul\":1100:1137   */\n      mstore\n        /* \"#utility.yul\":1025:1143   */\n      pop\n      pop\n      jump\t// out\n        /* \"#utility.yul\":1149:1248   */\n    tag_115:\n        /* \"#utility.yul\":1201:1207   */\n      0x00\n        /* \"#utility.yul\":1235:1240   */\n      dup2\n        /* \"#utility.yul\":1229:1241   */\n      mload\n        /* \"#utility.yul\":1219:1241   */\n      swap1\n      pop\n        /* \"#utility.yul\":1149:1248   */\n      swap2\n      swap1\n      pop\n      jump\t// out\n        /* \"#utility.yul\":1254:1423   */\n    tag_116:\n        /* \"#utility.yul\":1338:1349   */\n      0x00\n        /* \"#utility.yul\":1372:1378   */\n      dup3\n        /* \"#utility.yul\":1367:1370   */\n      dup3\n        /* \"#utility.yul\":1360:1379   */\n      mstore\n        /* \"#utility.yul\":1412:1416   */\n      0x20\n        /* \"#utility.yul\":1407:1410   */\n      dup3\n        /* \"#utility.yul\":1403:1417   */\n      add\n        /* \"#utility.yul\":1388:1417   */\n      swap1\n      pop\n        /* \"#utility.yul\":1254:1423   */\n      swap3\n      swap2\n      pop\n      pop\n      jump\t// out\n        /* \"#utility.yul\":1429:1568   */\n    tag_117:\n        /* \"#utility.yul\":1518:1524   */\n      dup3\n        /* \"#utility.yul\":1513:1516   */\n      dup2\n        /* \"#utility.yul\":1508:1511   */\n      dup4\n        /* \"#utility.yul\":1502:1525   */\n      mcopy\n        /* \"#utility.yul\":1559:1560   */\n      0x00\n        /* \"#utility.yul\":1550:1556   */\n      dup4\n        /* \"#utility.yul\":1545:1548   */\n      dup4\n        /* \"#utility.yul\":1541:1557   */\n      add\n        /* \"#utility.yul\":1534:1561   */\n      mstore\n        /* \"#utility.yul\":1429:1568   */\n      pop\n      pop\n      pop\n      jump\t// out\n        /* \"#utility.yul\":1574:1676   */\n    tag_118:\n        /* \"#utility.yul\":1615:1621   */\n      0x00\n        /* \"#utility.yul\":1666:1668   */\n      0x1f\n        /* \"#utility.yul\":1662:1669   */\n      not\n        /* \"#utility.yul\":1657:1659   */\n      0x1f\n        /* \"#utility.yul\":1650:1655   */\n      dup4\n        /* \"#utility.yul\":1646:1660   */\n      add\n        /* \"#utility.yul\":1642:1670   */\n      and\n        /* \"#utility.yul\":1632:1670   */\n      swap1\n      pop\n        /* \"#utility.yul\":1574:1676   */\n      swap2\n      swap1\n      pop\n      jump\t// out\n        /* \"#utility.yul\":1682:2059   */\n    tag_119:\n        /* \"#utility.yul\":1770:1773   */\n      0x00\n        /* \"#utility.yul\":1798:1837   */\n      tag_181\n        /* \"#utility.yul\":1831:1836   */\n      dup3\n        /* \"#utility.yul\":1798:1837   */\n      tag_115\n      jump\t// in\n    tag_181:\n        /* \"#utility.yul\":1853:1924   */\n      tag_182\n        /* \"#utility.yul\":1917:1923   */\n      dup2\n        /* \"#utility.yul\":1912:1915   */\n      dup6\n        /* \"#utility.yul\":1853:1924   */\n      tag_116\n      jump\t// in\n    tag_182:\n        /* \"#utility.yul\":1846:1924   */\n      swap4\n      pop\n        /* \"#utility.yul\":1933:1998   */\n      tag_183\n        /* \"#utility.yul\":1991:1997   */\n      dup2\n        /* \"#utility.yul\":1986:1989   */\n      dup6\n        /* \"#utility.yul\":1979:1983   */\n      0x20\n        /* \"#utility.yul\":1972:1977   */\n      dup7\n        /* \"#utility.yul\":1968:1984   */\n      add\n        /* \"#utility.yul\":1933:1998   */\n      tag_117\n      jump\t// in\n    tag_183:\n        /* \"#utility.yul\":2023:2052   */\n      tag_184\n        /* \"#utility.yul\":2045:2051   */\n      dup2\n        /* \"#utility.yul\":2023:2052   */\n      tag_118\n      jump\t// in\n    tag_184:\n        /* \"#utility.yul\":2018:2021   */\n      dup5\n        /* \"#utility.yul\":2014:2053   */\n      add\n        /* \"#utility.yul\":2007:2053   */\n      swap2\n      pop\n        /* \"#utility.yul\":1774:2059   */\n      pop\n        /* \"#utility.yul\":1682:2059   */\n      swap3\n      swap2\n      pop\n      pop\n      jump\t// out\n        /* \"#utility.yul\":2065:2800   */\n    tag_23:\n        /* \"#utility.yul\":2282:2286   */\n      0x00\n        /* \"#utility.yul\":2320:2323   */\n      0x80\n        /* \"#utility.yul\":2309:2318   */\n      dup3\n        /* \"#utility.yul\":2305:2324   */\n      add\n        /* \"#utility.yul\":2297:2324   */\n      swap1\n      pop\n        /* \"#utility.yul\":2334:2405   */\n      tag_186\n        /* \"#utility.yul\":2402:2403   */\n      0x00\n        /* \"#utility.yul\":2391:2400   */\n      dup4\n        /* \"#utility.yul\":2387:2404   */\n      add\n        /* \"#utility.yul\":2378:2384   */\n      dup8\n        /* \"#utility.yul\":2334:2405   */\n      tag_114\n      jump\t// in\n    tag_186:\n        /* \"#utility.yul\":2452:2461   */\n      dup2\n        /* \"#utility.yul\":2446:2450   */\n      dup2\n        /* \"#utility.yul\":2442:2462   */\n      sub\n        /* \"#utility.yul\":2437:2439   */\n      0x20\n        /* \"#utility.yul\":2426:2435   */\n      dup4\n        /* \"#utility.yul\":2422:2440   */\n      add\n        /* \"#utility.yul\":2415:2463   */\n      mstore\n        /* \"#utility.yul\":2480:2558   */\n      tag_187\n        /* \"#utility.yul\":2553:2557   */\n      dup2\n        /* \"#utility.yul\":2544:2550   */\n      dup7\n        /* \"#utility.yul\":2480:2558   */\n      tag_119\n      jump\t// in\n    tag_187:\n        /* \"#utility.yul\":2472:2558   */\n      swap1\n      pop\n        /* \"#utility.yul\":2605:2614   */\n      dup2\n        /* \"#utility.yul\":2599:2603   */\n      dup2\n        /* \"#utility.yul\":2595:2615   */\n      sub\n        /* \"#utility.yul\":2590:2592   */\n      0x40\n        /* \"#utility.yul\":2579:2588   */\n      dup4\n        /* \"#utility.yul\":2575:2593   */\n      add\n        /* \"#utility.yul\":2568:2616   */\n      mstore\n        /* \"#utility.yul\":2633:2711   */\n      tag_188\n        /* \"#utility.yul\":2706:2710   */\n      dup2\n        /* \"#utility.yul\":2697:2703   */\n      dup6\n        /* \"#utility.yul\":2633:2711   */\n      tag_119\n      jump\t// in\n    tag_188:\n        /* \"#utility.yul\":2625:2711   */\n      swap1\n      pop\n        /* \"#utility.yul\":2721:2793   */\n      tag_189\n        /* \"#utility.yul\":2789:2791   */\n      0x60\n        /* \"#utility.yul\":2778:2787   */\n      dup4\n        /* \"#utility.yul\":2774:2792   */\n      add\n        /* \"#utility.yul\":2765:2771   */\n      dup5\n        /* \"#utility.yul\":2721:2793   */\n      tag_114\n      jump\t// in\n    tag_189:\n        /* \"#utility.yul\":2065:2800   */\n      swap6\n      swap5\n      pop\n      pop\n      pop\n      pop\n      pop\n      jump\t// out\n        /* \"#utility.yul\":2806:3028   */\n    tag_27:\n        /* \"#utility.yul\":2899:2903   */\n      0x00\n        /* \"#utility.yul\":2937:2939   */\n      0x20\n        /* \"#utility.yul\":2926:2935   */\n      dup3\n        /* \"#utility.yul\":2922:2940   */\n      add\n        /* \"#utility.yul\":2914:2940   */\n      swap1\n      pop\n        /* \"#utility.yul\":2950:3021   */\n      tag_191\n        /* \"#utility.yul\":3018:3019   */\n      0x00\n        /* \"#utility.yul\":3007:3016   */\n      dup4\n        /* \"#utility.yul\":3003:3020   */\n      add\n        /* \"#utility.yul\":2994:3000   */\n      dup5\n        /* \"#utility.yul\":2950:3021   */\n      tag_114\n      jump\t// in\n    tag_191:\n        /* \"#utility.yul\":2806:3028   */\n      swap3\n      swap2\n      pop\n      pop\n      jump\t// out\n        /* \"#utility.yul\":3034:3508   */\n    tag_36:\n        /* \"#utility.yul\":3102:3108   */\n      0x00\n        /* \"#utility.yul\":3110:3116   */\n      dup1\n        /* \"#utility.yul\":3159:3161   */\n      0x40\n        /* \"#utility.yul\":3147:3156   */\n      dup4\n        /* \"#utility.yul\":3138:3145   */\n      dup6\n        /* \"#utility.yul\":3134:3157   */\n      sub\n        /* \"#utility.yul\":3130:3162   */\n      slt\n        /* \"#utility.yul\":3127:3246   */\n      iszero\n      tag_193\n      jumpi\n        /* \"#utility.yul\":3165:3244   */\n      tag_194\n      tag_109\n      jump\t// in\n    tag_194:\n        /* \"#utility.yul\":3127:3246   */\n    tag_193:\n        /* \"#utility.yul\":3285:3286   */\n      0x00\n        /* \"#utility.yul\":3310:3363   */\n      tag_195\n        /* \"#utility.yul\":3355:3362   */\n      dup6\n        /* \"#utility.yul\":3346:3352   */\n      dup3\n        /* \"#utility.yul\":3335:3344   */\n      dup7\n        /* \"#utility.yul\":3331:3353   */\n      add\n        /* \"#utility.yul\":3310:3363   */\n      tag_113\n      jump\t// in\n    tag_195:\n        /* \"#utility.yul\":3300:3363   */\n      swap3\n      pop\n        /* \"#utility.yul\":3256:3373   */\n      pop\n        /* \"#utility.yul\":3412:3414   */\n      0x20\n        /* \"#utility.yul\":3438:3491   */\n      tag_196\n        /* \"#utility.yul\":3483:3490   */\n      dup6\n        /* \"#utility.yul\":3474:3480   */\n      dup3\n        /* \"#utility.yul\":3463:3472   */\n      dup7\n        /* \"#utility.yul\":3459:3481   */\n      add\n        /* \"#utility.yul\":3438:3491   */\n      tag_113\n      jump\t// in\n    tag_196:\n        /* \"#utility.yul\":3428:3491   */\n      swap2\n      pop\n        /* \"#utility.yul\":3383:3501   */\n      pop\n        /* \"#utility.yul\":3034:3508   */\n      swap3\n      pop\n      swap3\n      swap1\n      pop\n      jump\t// out\n        /* \"#utility.yul\":3514:3640   */\n    tag_120:\n        /* \"#utility.yul\":3551:3558   */\n      0x00\n        /* \"#utility.yul\":3591:3633   */\n      0xffffffffffffffffffffffffffffffffffffffff\n        /* \"#utility.yul\":3584:3589   */\n      dup3\n        /* \"#utility.yul\":3580:3634   */\n      and\n        /* \"#utility.yul\":3569:3634   */\n      swap1\n      pop\n        /* \"#utility.yul\":3514:3640   */\n      swap2\n      swap1\n      pop\n      jump\t// out\n        /* \"#utility.yul\":3646:3742   */\n    tag_121:\n        /* \"#utility.yul\":3683:3690   */\n      0x00\n        /* \"#utility.yul\":3712:3736   */\n      tag_199\n        /* \"#utility.yul\":3730:3735   */\n      dup3\n        /* \"#utility.yul\":3712:3736   */\n      tag_120\n      jump\t// in\n    tag_199:\n        /* \"#utility.yul\":3701:3736   */\n      swap1\n      pop\n        /* \"#utility.yul\":3646:3742   */\n      swap2\n      swap1\n      pop\n      jump\t// out\n        /* \"#utility.yul\":3748:3870   */\n    tag_122:\n        /* \"#utility.yul\":3821:3845   */\n      tag_201\n        /* \"#utility.yul\":3839:3844   */\n      dup2\n        /* \"#utility.yul\":3821:3845   */\n      tag_121\n      jump\t// in\n    tag_201:\n        /* \"#utility.yul\":3814:3819   */\n      dup2\n        /* \"#utility.yul\":3811:3846   */\n      eq\n        /* \"#utility.yul\":3801:3864   */\n      tag_202\n      jumpi\n        /* \"#utility.yul\":3860:3861   */\n      0x00\n        /* \"#utility.yul\":3857:3858   */\n      dup1\n        /* \"#utility.yul\":3850:3862   */\n      revert\n        /* \"#utility.yul\":3801:3864   */\n    tag_202:\n        /* \"#utility.yul\":3748:3870   */\n      pop\n      jump\t// out\n        /* \"#utility.yul\":3876:4015   */\n    tag_123:\n        /* \"#utility.yul\":3922:3927   */\n      0x00\n        /* \"#utility.yul\":3960:3966   */\n      dup2\n        /* \"#utility.yul\":3947:3967   */\n      calldataload\n        /* \"#utility.yul\":3938:3967   */\n      swap1\n      pop\n        /* \"#utility.yul\":3976:4009   */\n      tag_204\n        /* \"#utility.yul\":4003:4008   */\n      dup2\n        /* \"#utility.yul\":3976:4009   */\n      tag_122\n      jump\t// in\n    tag_204:\n        /* \"#utility.yul\":3876:4015   */\n      swap3\n      swap2\n      pop\n      pop\n      jump\t// out\n        /* \"#utility.yul\":4021:4350   */\n    tag_40:\n        /* \"#utility.yul\":4080:4086   */\n      0x00\n        /* \"#utility.yul\":4129:4131   */\n      0x20\n        /* \"#utility.yul\":4117:4126   */\n      dup3\n        /* \"#utility.yul\":4108:4115   */\n      dup5\n        /* \"#utility.yul\":4104:4127   */\n      sub\n        /* \"#utility.yul\":4100:4132   */\n      slt\n        /* \"#utility.yul\":4097:4216   */\n      iszero\n      tag_206\n      jumpi\n        /* \"#utility.yul\":4135:4214   */\n      tag_207\n      tag_109\n      jump\t// in\n    tag_207:\n        /* \"#utility.yul\":4097:4216   */\n    tag_206:\n        /* \"#utility.yul\":4255:4256   */\n      0x00\n        /* \"#utility.yul\":4280:4333   */\n      tag_208\n        /* \"#utility.yul\":4325:4332   */\n      dup5\n        /* \"#utility.yul\":4316:4322   */\n      dup3\n        /* \"#utility.yul\":4305:4314   */\n      dup6\n        /* \"#utility.yul\":4301:4323   */\n      add\n        /* \"#utility.yul\":4280:4333   */\n      tag_123\n      jump\t// in\n    tag_208:\n        /* \"#utility.yul\":4270:4333   */\n      swap2\n      pop\n        /* \"#utility.yul\":4226:4343   */\n      pop\n        /* \"#utility.yul\":4021:4350   */\n      swap3\n      swap2\n      pop\n      pop\n      jump\t// out\n        /* \"#utility.yul\":4356:4446   */\n    tag_124:\n        /* \"#utility.yul\":4390:4397   */\n      0x00\n        /* \"#utility.yul\":4433:4438   */\n      dup2\n        /* \"#utility.yul\":4426:4439   */\n      iszero\n        /* \"#utility.yul\":4419:4440   */\n      iszero\n        /* \"#utility.yul\":4408:4440   */\n      swap1\n      pop\n        /* \"#utility.yul\":4356:4446   */\n      swap2\n      swap1\n      pop\n      jump\t// out\n        /* \"#utility.yul\":4452:4561   */\n    tag_125:\n        /* \"#utility.yul\":4533:4554   */\n      tag_211\n        /* \"#utility.yul\":4548:4553   */\n      dup2\n        /* \"#utility.yul\":4533:4554   */\n      tag_124\n      jump\t// in\n    tag_211:\n        /* \"#utility.yul\":4528:4531   */\n      dup3\n        /* \"#utility.yul\":4521:4555   */\n      mstore\n        /* \"#utility.yul\":4452:4561   */\n      pop\n      pop\n      jump\t// out\n        /* \"#utility.yul\":4567:4777   */\n    tag_43:\n        /* \"#utility.yul\":4654:4658   */\n      0x00\n        /* \"#utility.yul\":4692:4694   */\n      0x20\n        /* \"#utility.yul\":4681:4690   */\n      dup3\n        /* \"#utility.yul\":4677:4695   */\n      add\n        /* \"#utility.yul\":4669:4695   */\n      swap1\n      pop\n        /* \"#utility.yul\":4705:4770   */\n      tag_213\n        /* \"#utility.yul\":4767:4768   */\n      0x00\n        /* \"#utility.yul\":4756:4765   */\n      dup4\n        /* \"#utility.yul\":4752:4769   */\n      add\n        /* \"#utility.yul\":4743:4749   */\n      dup5\n        /* \"#utility.yul\":4705:4770   */\n      tag_125\n      jump\t// in\n    tag_213:\n        /* \"#utility.yul\":4567:4777   */\n      swap3\n      swap2\n      pop\n      pop\n      jump\t// out\n        /* \"#utility.yul\":4783:4900   */\n    tag_126:\n        /* \"#utility.yul\":4892:4893   */\n      0x00\n        /* \"#utility.yul\":4889:4890   */\n      dup1\n        /* \"#utility.yul\":4882:4894   */\n      revert\n        /* \"#utility.yul\":4906:5023   */\n    tag_127:\n        /* \"#utility.yul\":5015:5016   */\n      0x00\n        /* \"#utility.yul\":5012:5013   */\n      dup1\n        /* \"#utility.yul\":5005:5017   */\n      revert\n        /* \"#utility.yul\":5029:5209   */\n    tag_128:\n        /* \"#utility.yul\":5077:5154   */\n      0x4e487b7100000000000000000000000000000000000000000000000000000000\n        /* \"#utility.yul\":5074:5075   */\n      0x00\n        /* \"#utility.yul\":5067:5155   */\n      mstore\n        /* \"#utility.yul\":5174:5178   */\n      0x41\n        /* \"#utility.yul\":5171:5172   */\n      0x04\n        /* \"#utility.yul\":5164:5179   */\n      mstore\n        /* \"#utility.yul\":5198:5202   */\n      0x24\n        /* \"#utility.yul\":5195:5196   */\n      0x00\n        /* \"#utility.yul\":5188:5203   */\n      revert\n        /* \"#utility.yul\":5215:5496   */\n    tag_129:\n        /* \"#utility.yul\":5298:5325   */\n      tag_218\n        /* \"#utility.yul\":5320:5324   */\n      dup3\n        /* \"#utility.yul\":5298:5325   */\n      tag_118\n      jump\t// in\n    tag_218:\n        /* \"#utility.yul\":5290:5296   */\n      dup2\n        /* \"#utility.yul\":5286:5326   */\n      add\n        /* \"#utility.yul\":5428:5434   */\n      dup2\n        /* \"#utility.yul\":5416:5426   */\n      dup2\n        /* \"#utility.yul\":5413:5435   */\n      lt\n        /* \"#utility.yul\":5392:5410   */\n      0xffffffffffffffff\n        /* \"#utility.yul\":5380:5390   */\n      dup3\n        /* \"#utility.yul\":5377:5411   */\n      gt\n        /* \"#utility.yul\":5374:5436   */\n      or\n        /* \"#utility.yul\":5371:5459   */\n      iszero\n      tag_219\n      jumpi\n        /* \"#utility.yul\":5439:5457   */\n      tag_220\n      tag_128\n      jump\t// in\n    tag_220:\n        /* \"#utility.yul\":5371:5459   */\n    tag_219:\n        /* \"#utility.yul\":5479:5489   */\n      dup1\n        /* \"#utility.yul\":5475:5477   */\n      0x40\n        /* \"#utility.yul\":5468:5490   */\n      mstore\n        /* \"#utility.yul\":5258:5496   */\n      pop\n        /* \"#utility.yul\":5215:5496   */\n      pop\n      pop\n      jump\t// out\n        /* \"#utility.yul\":5502:5631   */\n    tag_130:\n        /* \"#utility.yul\":5536:5542   */\n      0x00\n        /* \"#utility.yul\":5563:5583   */\n      tag_222\n      tag_108\n      jump\t// in\n    tag_222:\n        /* \"#utility.yul\":5553:5583   */\n      swap1\n      pop\n        /* \"#utility.yul\":5592:5625   */\n      tag_223\n        /* \"#utility.yul\":5620:5624   */\n      dup3\n        /* \"#utility.yul\":5612:5618   */\n      dup3\n        /* \"#utility.yul\":5592:5625   */\n      tag_129\n      jump\t// in\n    tag_223:\n        /* \"#utility.yul\":5502:5631   */\n      swap2\n      swap1\n      pop\n      jump\t// out\n        /* \"#utility.yul\":5637:5945   */\n    tag_131:\n        /* \"#utility.yul\":5699:5703   */\n      0x00\n        /* \"#utility.yul\":5789:5807   */\n      0xffffffffffffffff\n        /* \"#utility.yul\":5781:5787   */\n      dup3\n        /* \"#utility.yul\":5778:5808   */\n      gt\n        /* \"#utility.yul\":5775:5831   */\n      iszero\n      tag_225\n      jumpi\n        /* \"#utility.yul\":5811:5829   */\n      tag_226\n      tag_128\n      jump\t// in\n    tag_226:\n        /* \"#utility.yul\":5775:5831   */\n    tag_225:\n        /* \"#utility.yul\":5849:5878   */\n      tag_227\n        /* \"#utility.yul\":5871:5877   */\n      dup3\n        /* \"#utility.yul\":5849:5878   */\n      tag_118\n      jump\t// in\n    tag_227:\n        /* \"#utility.yul\":5841:5878   */\n      swap1\n      pop\n        /* \"#utility.yul\":5933:5937   */\n      0x20\n        /* \"#utility.yul\":5927:5931   */\n      dup2\n        /* \"#utility.yul\":5923:5938   */\n      add\n        /* \"#utility.yul\":5915:5938   */\n      swap1\n      pop\n        /* \"#utility.yul\":5637:5945   */\n      swap2\n      swap1\n      pop\n      jump\t// out\n        /* \"#utility.yul\":5951:6099   */\n    tag_132:\n        /* \"#utility.yul\":6049:6055   */\n      dup3\n        /* \"#utility.yul\":6044:6047   */\n      dup2\n        /* \"#utility.yul\":6039:6042   */\n      dup4\n        /* \"#utility.yul\":6026:6056   */\n      calldatacopy\n        /* \"#utility.yul\":6090:6091   */\n      0x00\n        /* \"#utility.yul\":6081:6087   */\n      dup4\n        /* \"#utility.yul\":6076:6079   */\n      dup4\n        /* \"#utility.yul\":6072:6088   */\n      add\n        /* \"#utility.yul\":6065:6092   */\n      mstore\n        /* \"#utility.yul\":5951:6099   */\n      pop\n      pop\n      pop\n      jump\t// out\n        /* \"#utility.yul\":6105:6530   */\n    tag_133:\n        /* \"#utility.yul\":6183:6188   */\n      0x00\n        /* \"#utility.yul\":6208:6274   */\n      tag_230\n        /* \"#utility.yul\":6224:6273   */\n      tag_231\n        /* \"#utility.yul\":6266:6272   */\n      dup5\n        /* \"#utility.yul\":6224:6273   */\n      tag_131\n      jump\t// in\n    tag_231:\n        /* \"#utility.yul\":6208:6274   */\n      tag_130\n      jump\t// in\n    tag_230:\n        /* \"#utility.yul\":6199:6274   */\n      swap1\n      pop\n        /* \"#utility.yul\":6297:6303   */\n      dup3\n        /* \"#utility.yul\":6290:6295   */\n      dup2\n        /* \"#utility.yul\":6283:6304   */\n      mstore\n        /* \"#utility.yul\":6335:6339   */\n      0x20\n        /* \"#utility.yul\":6328:6333   */\n      dup2\n        /* \"#utility.yul\":6324:6340   */\n      add\n        /* \"#utility.yul\":6373:6376   */\n      dup5\n        /* \"#utility.yul\":6364:6370   */\n      dup5\n        /* \"#utility.yul\":6359:6362   */\n      dup5\n        /* \"#utility.yul\":6355:6371   */\n      add\n        /* \"#utility.yul\":6352:6377   */\n      gt\n        /* \"#utility.yul\":6349:6461   */\n      iszero\n      tag_232\n      jumpi\n        /* \"#utility.yul\":6380:6459   */\n      tag_233\n      tag_127\n      jump\t// in\n    tag_233:\n        /* \"#utility.yul\":6349:6461   */\n    tag_232:\n        /* \"#utility.yul\":6470:6524   */\n      tag_234\n        /* \"#utility.yul\":6517:6523   */\n      dup5\n        /* \"#utility.yul\":6512:6515   */\n      dup3\n        /* \"#utility.yul\":6507:6510   */\n      dup6\n        /* \"#utility.yul\":6470:6524   */\n      tag_132\n      jump\t// in\n    tag_234:\n        /* \"#utility.yul\":6189:6530   */\n      pop\n        /* \"#utility.yul\":6105:6530   */\n      swap4\n      swap3\n      pop\n      pop\n      pop\n      jump\t// out\n        /* \"#utility.yul\":6550:6890   */\n    tag_134:\n        /* \"#utility.yul\":6606:6611   */\n      0x00\n        /* \"#utility.yul\":6655:6658   */\n      dup3\n        /* \"#utility.yul\":6648:6652   */\n      0x1f\n        /* \"#utility.yul\":6640:6646   */\n      dup4\n        /* \"#utility.yul\":6636:6653   */\n      add\n        /* \"#utility.yul\":6632:6659   */\n      slt\n        /* \"#utility.yul\":6622:6744   */\n      tag_236\n      jumpi\n        /* \"#utility.yul\":6663:6742   */\n      tag_237\n      tag_126\n      jump\t// in\n    tag_237:\n        /* \"#utility.yul\":6622:6744   */\n    tag_236:\n        /* \"#utility.yul\":6780:6786   */\n      dup2\n        /* \"#utility.yul\":6767:6787   */\n      calldataload\n        /* \"#utility.yul\":6805:6884   */\n      tag_238\n        /* \"#utility.yul\":6880:6883   */\n      dup5\n        /* \"#utility.yul\":6872:6878   */\n      dup3\n        /* \"#utility.yul\":6865:6869   */\n      0x20\n        /* \"#utility.yul\":6857:6863   */\n      dup7\n        /* \"#utility.yul\":6853:6870   */\n      add\n        /* \"#utility.yul\":6805:6884   */\n      tag_133\n      jump\t// in\n    tag_238:\n        /* \"#utility.yul\":6796:6884   */\n      swap2\n      pop\n        /* \"#utility.yul\":6612:6890   */\n      pop\n        /* \"#utility.yul\":6550:6890   */\n      swap3\n      swap2\n      pop\n      pop\n      jump\t// out\n        /* \"#utility.yul\":6896:7730   */\n    tag_52:\n        /* \"#utility.yul\":6984:6990   */\n      0x00\n        /* \"#utility.yul\":6992:6998   */\n      dup1\n        /* \"#utility.yul\":7041:7043   */\n      0x40\n        /* \"#utility.yul\":7029:7038   */\n      dup4\n        /* \"#utility.yul\":7020:7027   */\n      dup6\n        /* \"#utility.yul\":7016:7039   */\n      sub\n        /* \"#utility.yul\":7012:7044   */\n      slt\n        /* \"#utility.yul\":7009:7128   */\n      iszero\n      tag_240\n      jumpi\n        /* \"#utility.yul\":7047:7126   */\n      tag_241\n      tag_109\n      jump\t// in\n    tag_241:\n        /* \"#utility.yul\":7009:7128   */\n    tag_240:\n        /* \"#utility.yul\":7195:7196   */\n      0x00\n        /* \"#utility.yul\":7184:7193   */\n      dup4\n        /* \"#utility.yul\":7180:7197   */\n      add\n        /* \"#utility.yul\":7167:7198   */\n      calldataload\n        /* \"#utility.yul\":7225:7243   */\n      0xffffffffffffffff\n        /* \"#utility.yul\":7217:7223   */\n      dup2\n        /* \"#utility.yul\":7214:7244   */\n      gt\n        /* \"#utility.yul\":7211:7328   */\n      iszero\n      tag_242\n      jumpi\n        /* \"#utility.yul\":7247:7326   */\n      tag_243\n      tag_110\n      jump\t// in\n    tag_243:\n        /* \"#utility.yul\":7211:7328   */\n    tag_242:\n        /* \"#utility.yul\":7352:7415   */\n      tag_244\n        /* \"#utility.yul\":7407:7414   */\n      dup6\n        /* \"#utility.yul\":7398:7404   */\n      dup3\n        /* \"#utility.yul\":7387:7396   */\n      dup7\n        /* \"#utility.yul\":7383:7405   */\n      add\n        /* \"#utility.yul\":7352:7415   */\n      tag_134\n      jump\t// in\n    tag_244:\n        /* \"#utility.yul\":7342:7415   */\n      swap3\n      pop\n        /* \"#utility.yul\":7138:7425   */\n      pop\n        /* \"#utility.yul\":7492:7494   */\n      0x20\n        /* \"#utility.yul\":7481:7490   */\n      dup4\n        /* \"#utility.yul\":7477:7495   */\n      add\n        /* \"#utility.yul\":7464:7496   */\n      calldataload\n        /* \"#utility.yul\":7523:7541   */\n      0xffffffffffffffff\n        /* \"#utility.yul\":7515:7521   */\n      dup2\n        /* \"#utility.yul\":7512:7542   */\n      gt\n        /* \"#utility.yul\":7509:7626   */\n      iszero\n      tag_245\n      jumpi\n        /* \"#utility.yul\":7545:7624   */\n      tag_246\n      tag_110\n      jump\t// in\n    tag_246:\n        /* \"#utility.yul\":7509:7626   */\n    tag_245:\n        /* \"#utility.yul\":7650:7713   */\n      tag_247\n        /* \"#utility.yul\":7705:7712   */\n      dup6\n        /* \"#utility.yul\":7696:7702   */\n      dup3\n        /* \"#utility.yul\":7685:7694   */\n      dup7\n        /* \"#utility.yul\":7681:7703   */\n      add\n        /* \"#utility.yul\":7650:7713   */\n      tag_134\n      jump\t// in\n    tag_247:\n        /* \"#utility.yul\":7640:7713   */\n      swap2\n      pop\n        /* \"#utility.yul\":7435:7723   */\n      pop\n        /* \"#utility.yul\":6896:7730   */\n      swap3\n      pop\n      swap3\n      swap1\n      pop\n      jump\t// out\n        /* \"#utility.yul\":7736:7912   */\n    tag_135:\n        /* \"#utility.yul\":7876:7904   */\n      0x566f74696e6720686173206e6f74207374617274656420796574000000000000\n        /* \"#utility.yul\":7872:7873   */\n      0x00\n        /* \"#utility.yul\":7864:7870   */\n      dup3\n        /* \"#utility.yul\":7860:7874   */\n      add\n        /* \"#utility.yul\":7853:7905   */\n      mstore\n        /* \"#utility.yul\":7736:7912   */\n      pop\n      jump\t// out\n        /* \"#utility.yul\":7918:8284   */\n    tag_136:\n        /* \"#utility.yul\":8060:8063   */\n      0x00\n        /* \"#utility.yul\":8081:8148   */\n      tag_250\n        /* \"#utility.yul\":8145:8147   */\n      0x1a\n        /* \"#utility.yul\":8140:8143   */\n      dup4\n        /* \"#utility.yul\":8081:8148   */\n      tag_116\n      jump\t// in\n    tag_250:\n        /* \"#utility.yul\":8074:8148   */\n      swap2\n      pop\n        /* \"#utility.yul\":8157:8250   */\n      tag_251\n        /* \"#utility.yul\":8246:8249   */\n      dup3\n        /* \"#utility.yul\":8157:8250   */\n      tag_135\n      jump\t// in\n    tag_251:\n        /* \"#utility.yul\":8275:8277   */\n      0x20\n        /* \"#utility.yul\":8270:8273   */\n      dup3\n        /* \"#utility.yul\":8266:8278   */\n      add\n        /* \"#utility.yul\":8259:8278   */\n      swap1\n      pop\n        /* \"#utility.yul\":7918:8284   */\n      swap2\n      swap1\n      pop\n      jump\t// out\n        /* \"#utility.yul\":8290:8709   */\n    tag_62:\n        /* \"#utility.yul\":8456:8460   */\n      0x00\n        /* \"#utility.yul\":8494:8496   */\n      0x20\n        /* \"#utility.yul\":8483:8492   */\n      dup3\n        /* \"#utility.yul\":8479:8497   */\n      add\n        /* \"#utility.yul\":8471:8497   */\n      swap1\n      pop\n        /* \"#utility.yul\":8543:8552   */\n      dup2\n        /* \"#utility.yul\":8537:8541   */\n      dup2\n        /* \"#utility.yul\":8533:8553   */\n      sub\n        /* \"#utility.yul\":8529:8530   */\n      0x00\n        /* \"#utility.yul\":8518:8527   */\n      dup4\n        /* \"#utility.yul\":8514:8531   */\n      add\n        /* \"#utility.yul\":8507:8554   */\n      mstore\n        /* \"#utility.yul\":8571:8702   */\n      tag_253\n        /* \"#utility.yul\":8697:8701   */\n      dup2\n        /* \"#utility.yul\":8571:8702   */\n      tag_136\n      jump\t// in\n    tag_253:\n        /* \"#utility.yul\":8563:8702   */\n      swap1\n      pop\n        /* \"#utility.yul\":8290:8709   */\n      swap2\n      swap1\n      pop\n      jump\t// out\n        /* \"#utility.yul\":8715:8876   */\n    tag_137:\n        /* \"#utility.yul\":8855:8868   */\n      0x566f746520436c6f736564000000000000000000000000000000000000000000\n        /* \"#utility.yul\":8851:8852   */\n      0x00\n        /* \"#utility.yul\":8843:8849   */\n      dup3\n        /* \"#utility.yul\":8839:8853   */\n      add\n        /* \"#utility.yul\":8832:8869   */\n      mstore\n        /* \"#utility.yul\":8715:8876   */\n      pop\n      jump\t// out\n        /* \"#utility.yul\":8882:9248   */\n    tag_138:\n        /* \"#utility.yul\":9024:9027   */\n      0x00\n        /* \"#utility.yul\":9045:9112   */\n      tag_256\n        /* \"#utility.yul\":9109:9111   */\n      0x0b\n        /* \"#utility.yul\":9104:9107   */\n      dup4\n        /* \"#utility.yul\":9045:9112   */\n      tag_116\n      jump\t// in\n    tag_256:\n        /* \"#utility.yul\":9038:9112   */\n      swap2\n      pop\n        /* \"#utility.yul\":9121:9214   */\n      tag_257\n        /* \"#utility.yul\":9210:9213   */\n      dup3\n        /* \"#utility.yul\":9121:9214   */\n      tag_137\n      jump\t// in\n    tag_257:\n        /* \"#utility.yul\":9239:9241   */\n      0x20\n        /* \"#utility.yul\":9234:9237   */\n      dup3\n        /* \"#utility.yul\":9230:9242   */\n      add\n        /* \"#utility.yul\":9223:9242   */\n      swap1\n      pop\n        /* \"#utility.yul\":8882:9248   */\n      swap2\n      swap1\n      pop\n      jump\t// out\n        /* \"#utility.yul\":9254:9673   */\n    tag_65:\n        /* \"#utility.yul\":9420:9424   */\n      0x00\n        /* \"#utility.yul\":9458:9460   */\n      0x20\n        /* \"#utility.yul\":9447:9456   */\n      dup3\n        /* \"#utility.yul\":9443:9461   */\n      add\n        /* \"#utility.yul\":9435:9461   */\n      swap1\n      pop\n        /* \"#utility.yul\":9507:9516   */\n      dup2\n        /* \"#utility.yul\":9501:9505   */\n      dup2\n        /* \"#utility.yul\":9497:9517   */\n      sub\n        /* \"#utility.yul\":9493:9494   */\n      0x00\n        /* \"#utility.yul\":9482:9491   */\n      dup4\n        /* \"#utility.yul\":9478:9495   */\n      add\n        /* \"#utility.yul\":9471:9518   */\n      mstore\n        /* \"#utility.yul\":9535:9666   */\n      tag_259\n        /* \"#utility.yul\":9661:9665   */\n      dup2\n        /* \"#utility.yul\":9535:9666   */\n      tag_138\n      jump\t// in\n    tag_259:\n        /* \"#utility.yul\":9527:9666   */\n      swap1\n      pop\n        /* \"#utility.yul\":9254:9673   */\n      swap2\n      swap1\n      pop\n      jump\t// out\n        /* \"#utility.yul\":9679:9847   */\n    tag_139:\n        /* \"#utility.yul\":9819:9839   */\n      0x496e76616c6964206e6f6d696e65652049440000000000000000000000000000\n        /* \"#utility.yul\":9815:9816   */\n      0x00\n        /* \"#utility.yul\":9807:9813   */\n      dup3\n        /* \"#utility.yul\":9803:9817   */\n      add\n        /* \"#utility.yul\":9796:9840   */\n      mstore\n        /* \"#utility.yul\":9679:9847   */\n      pop\n      jump\t// out\n        /* \"#utility.yul\":9853:10219   */\n    tag_140:\n        /* \"#utility.yul\":9995:9998   */\n      0x00\n        /* \"#utility.yul\":10016:10083   */\n      tag_262\n        /* \"#utility.yul\":10080:10082   */\n      0x12\n        /* \"#utility.yul\":10075:10078   */\n      dup4\n        /* \"#utility.yul\":10016:10083   */\n      tag_116\n      jump\t// in\n    tag_262:\n        /* \"#utility.yul\":10009:10083   */\n      swap2\n      pop\n        /* \"#utility.yul\":10092:10185   */\n      tag_263\n        /* \"#utility.yul\":10181:10184   */\n      dup3\n        /* \"#utility.yul\":10092:10185   */\n      tag_139\n      jump\t// in\n    tag_263:\n        /* \"#utility.yul\":10210:10212   */\n      0x20\n        /* \"#utility.yul\":10205:10208   */\n      dup3\n        /* \"#utility.yul\":10201:10213   */\n      add\n        /* \"#utility.yul\":10194:10213   */\n      swap1\n      pop\n        /* \"#utility.yul\":9853:10219   */\n      swap2\n      swap1\n      pop\n      jump\t// out\n        /* \"#utility.yul\":10225:10644   */\n    tag_69:\n        /* \"#utility.yul\":10391:10395   */\n      0x00\n        /* \"#utility.yul\":10429:10431   */\n      0x20\n        /* \"#utility.yul\":10418:10427   */\n      dup3\n        /* \"#utility.yul\":10414:10432   */\n      add\n        /* \"#utility.yul\":10406:10432   */\n      swap1\n      pop\n        /* \"#utility.yul\":10478:10487   */\n      dup2\n        /* \"#utility.yul\":10472:10476   */\n      dup2\n        /* \"#utility.yul\":10468:10488   */\n      sub\n        /* \"#utility.yul\":10464:10465   */\n      0x00\n        /* \"#utility.yul\":10453:10462   */\n      dup4\n        /* \"#utility.yul\":10449:10466   */\n      add\n        /* \"#utility.yul\":10442:10489   */\n      mstore\n        /* \"#utility.yul\":10506:10637   */\n      tag_265\n        /* \"#utility.yul\":10632:10636   */\n      dup2\n        /* \"#utility.yul\":10506:10637   */\n      tag_140\n      jump\t// in\n    tag_265:\n        /* \"#utility.yul\":10498:10637   */\n      swap1\n      pop\n        /* \"#utility.yul\":10225:10644   */\n      swap2\n      swap1\n      pop\n      jump\t// out\n        /* \"#utility.yul\":10650:10822   */\n    tag_141:\n        /* \"#utility.yul\":10790:10814   */\n      0x596f75206861766520616c726561647920766f74656400000000000000000000\n        /* \"#utility.yul\":10786:10787   */\n      0x00\n        /* \"#utility.yul\":10778:10784   */\n      dup3\n        /* \"#utility.yul\":10774:10788   */\n      add\n        /* \"#utility.yul\":10767:10815   */\n      mstore\n        /* \"#utility.yul\":10650:10822   */\n      pop\n      jump\t// out\n        /* \"#utility.yul\":10828:11194   */\n    tag_142:\n        /* \"#utility.yul\":10970:10973   */\n      0x00\n        /* \"#utility.yul\":10991:11058   */\n      tag_268\n        /* \"#utility.yul\":11055:11057   */\n      0x16\n        /* \"#utility.yul\":11050:11053   */\n      dup4\n        /* \"#utility.yul\":10991:11058   */\n      tag_116\n      jump\t// in\n    tag_268:\n        /* \"#utility.yul\":10984:11058   */\n      swap2\n      pop\n        /* \"#utility.yul\":11067:11160   */\n      tag_269\n        /* \"#utility.yul\":11156:11159   */\n      dup3\n        /* \"#utility.yul\":11067:11160   */\n      tag_141\n      jump\t// in\n    tag_269:\n        /* \"#utility.yul\":11185:11187   */\n      0x20\n        /* \"#utility.yul\":11180:11183   */\n      dup3\n        /* \"#utility.yul\":11176:11188   */\n      add\n        /* \"#utility.yul\":11169:11188   */\n      swap1\n      pop\n        /* \"#utility.yul\":10828:11194   */\n      swap2\n      swap1\n      pop\n      jump\t// out\n        /* \"#utility.yul\":11200:11619   */\n    tag_72:\n        /* \"#utility.yul\":11366:11370   */\n      0x00\n        /* \"#utility.yul\":11404:11406   */\n      0x20\n        /* \"#utility.yul\":11393:11402   */\n      dup3\n        /* \"#utility.yul\":11389:11407   */\n      add\n        /* \"#utility.yul\":11381:11407   */\n      swap1\n      pop\n        /* \"#utility.yul\":11453:11462   */\n      dup2\n        /* \"#utility.yul\":11447:11451   */\n      dup2\n        /* \"#utility.yul\":11443:11463   */\n      sub\n        /* \"#utility.yul\":11439:11440   */\n      0x00\n        /* \"#utility.yul\":11428:11437   */\n      dup4\n        /* \"#utility.yul\":11424:11441   */\n      add\n        /* \"#utility.yul\":11417:11464   */\n      mstore\n        /* \"#utility.yul\":11481:11612   */\n      tag_271\n        /* \"#utility.yul\":11607:11611   */\n      dup2\n        /* \"#utility.yul\":11481:11612   */\n      tag_142\n      jump\t// in\n    tag_271:\n        /* \"#utility.yul\":11473:11612   */\n      swap1\n      pop\n        /* \"#utility.yul\":11200:11619   */\n      swap2\n      swap1\n      pop\n      jump\t// out\n        /* \"#utility.yul\":11625:11805   */\n    tag_143:\n        /* \"#utility.yul\":11673:11750   */\n      0x4e487b7100000000000000000000000000000000000000000000000000000000\n        /* \"#utility.yul\":11670:11671   */\n      0x00\n        /* \"#utility.yul\":11663:11751   */\n      mstore\n        /* \"#utility.yul\":11770:11774   */\n      0x11\n        /* \"#utility.yul\":11767:11768   */\n      0x04\n        /* \"#utility.yul\":11760:11775   */\n      mstore\n        /* \"#utility.yul\":11794:11798   */\n      0x24\n        /* \"#utility.yul\":11791:11792   */\n      0x00\n        /* \"#utility.yul\":11784:11799   */\n      revert\n        /* \"#utility.yul\":11811:12044   */\n    tag_74:\n        /* \"#utility.yul\":11850:11853   */\n      0x00\n        /* \"#utility.yul\":11873:11897   */\n      tag_274\n        /* \"#utility.yul\":11891:11896   */\n      dup3\n        /* \"#utility.yul\":11873:11897   */\n      tag_111\n      jump\t// in\n    tag_274:\n        /* \"#utility.yul\":11864:11897   */\n      swap2\n      pop\n        /* \"#utility.yul\":11919:11985   */\n      0xffffffffffffffffffffffffffffffffffffffffffffffffffffffffffffffff\n        /* \"#utility.yul\":11912:11917   */\n      dup3\n        /* \"#utility.yul\":11909:11986   */\n      sub\n        /* \"#utility.yul\":11906:12009   */\n      tag_275\n      jumpi\n        /* \"#utility.yul\":11989:12007   */\n      tag_276\n      tag_143\n      jump\t// in\n    tag_276:\n        /* \"#utility.yul\":11906:12009   */\n    tag_275:\n        /* \"#utility.yul\":12036:12037   */\n      0x01\n        /* \"#utility.yul\":12029:12034   */\n      dup3\n        /* \"#utility.yul\":12025:12038   */\n      add\n        /* \"#utility.yul\":12018:12038   */\n      swap1\n      pop\n        /* \"#utility.yul\":11811:12044   */\n      swap2\n      swap1\n      pop\n      jump\t// out\n        /* \"#utility.yul\":12050:12230   */\n    tag_144:\n        /* \"#utility.yul\":12098:12175   */\n      0x4e487b7100000000000000000000000000000000000000000000000000000000\n        /* \"#utility.yul\":12095:12096   */\n      0x00\n        /* \"#utility.yul\":12088:12176   */\n      mstore\n        /* \"#utility.yul\":12195:12199   */\n      0x22\n        /* \"#utility.yul\":12192:12193   */\n      0x04\n        /* \"#utility.yul\":12185:12200   */\n      mstore\n        /* \"#utility.yul\":12219:12223   */\n      0x24\n        /* \"#utility.yul\":12216:12217   */\n      0x00\n        /* \"#utility.yul\":12209:12224   */\n      revert\n        /* \"#utility.yul\":12236:12556   */\n    tag_78:\n        /* \"#utility.yul\":12280:12286   */\n      0x00\n        /* \"#utility.yul\":12317:12318   */\n      0x02\n        /* \"#utility.yul\":12311:12315   */\n      dup3\n        /* \"#utility.yul\":12307:12319   */\n      div\n        /* \"#utility.yul\":12297:12319   */\n      swap1\n      pop\n        /* \"#utility.yul\":12364:12365   */\n      0x01\n        /* \"#utility.yul\":12358:12362   */\n      dup3\n        /* \"#utility.yul\":12354:12366   */\n      and\n        /* \"#utility.yul\":12385:12403   */\n      dup1\n        /* \"#utility.yul\":12375:12456   */\n      tag_279\n      jumpi\n        /* \"#utility.yul\":12441:12445   */\n      0x7f\n        /* \"#utility.yul\":12433:12439   */\n      dup3\n        /* \"#utility.yul\":12429:12446   */\n      and\n        /* \"#utility.yul\":12419:12446   */\n      swap2\n      pop\n        /* \"#utility.yul\":12375:12456   */\n    tag_279:\n        /* \"#utility.yul\":12503:12505   */\n      0x20\n        /* \"#utility.yul\":12495:12501   */\n      dup3\n        /* \"#utility.yul\":12492:12506   */\n      lt\n        /* \"#utility.yul\":12472:12490   */\n      dup2\n        /* \"#utility.yul\":12469:12507   */\n      sub\n        /* \"#utility.yul\":12466:12550   */\n      tag_280\n      jumpi\n        /* \"#utility.yul\":12522:12540   */\n      tag_281\n      tag_144\n      jump\t// in\n    tag_281:\n        /* \"#utility.yul\":12466:12550   */\n    tag_280:\n        /* \"#utility.yul\":12287:12556   */\n      pop\n        /* \"#utility.yul\":12236:12556   */\n      swap2\n      swap1\n      pop\n      jump\t// out\n        /* \"#utility.yul\":12562:12703   */\n    tag_145:\n        /* \"#utility.yul\":12611:12615   */\n      0x00\n        /* \"#utility.yul\":12634:12637   */\n      dup2\n        /* \"#utility.yul\":12626:12637   */\n      swap1\n      pop\n        /* \"#utility.yul\":12657:12660   */\n      dup2\n        /* \"#utility.yul\":12654:12655   */\n      0x00\n        /* \"#utility.yul\":12647:12661   */\n      mstore\n        /* \"#utility.yul\":12691:12695   */\n      0x20\n        /* \"#utility.yul\":12688:12689   */\n      0x00\n        /* \"#utility.yul\":12678:12696   */\n      keccak256\n        /* \"#utility.yul\":12670:12696   */\n      swap1\n      pop\n        /* \"#utility.yul\":12562:12703   */\n      swap2\n      swap1\n      pop\n      jump\t// out\n        /* \"#utility.yul\":12709:12802   */\n    tag_146:\n        /* \"#utility.yul\":12746:12752   */\n      0x00\n        /* \"#utility.yul\":12793:12795   */\n      0x20\n        /* \"#utility.yul\":12788:12790   */\n      0x1f\n        /* \"#utility.yul\":12781:12786   */\n      dup4\n        /* \"#utility.yul\":12777:12791   */\n      add\n        /* \"#utility.yul\":12773:12796   */\n      div\n        /* \"#utility.yul\":12763:12796   */\n      swap1\n      pop\n        /* \"#utility.yul\":12709:12802   */\n      swap2\n      swap1\n      pop\n      jump\t// out\n        /* \"#utility.yul\":12808:12915   */\n    tag_147:\n        /* \"#utility.yul\":12852:12860   */\n      0x00\n        /* \"#utility.yul\":12902:12907   */\n      dup3\n        /* \"#utility.yul\":12896:12900   */\n      dup3\n        /* \"#utility.yul\":12892:12908   */\n      shl\n        /* \"#utility.yul\":12871:12908   */\n      swap1\n      pop\n        /* \"#utility.yul\":12808:12915   */\n      swap3\n      swap2\n      pop\n      pop\n      jump\t// out\n        /* \"#utility.yul\":12921:13314   */\n    tag_148:\n        /* \"#utility.yul\":12990:12996   */\n      0x00\n        /* \"#utility.yul\":13040:13041   */\n      0x08\n        /* \"#utility.yul\":13028:13038   */\n      dup4\n        /* \"#utility.yul\":13024:13042   */\n      mul\n        /* \"#utility.yul\":13063:13160   */\n      tag_286\n        /* \"#utility.yul\":13093:13159   */\n      0xffffffffffffffffffffffffffffffffffffffffffffffffffffffffffffffff\n        /* \"#utility.yul\":13082:13091   */\n      dup3\n        /* \"#utility.yul\":13063:13160   */\n      tag_147\n      jump\t// in\n    tag_286:\n        /* \"#utility.yul\":13181:13220   */\n      tag_287\n        /* \"#utility.yul\":13211:13219   */\n      dup7\n        /* \"#utility.yul\":13200:13209   */\n      dup4\n        /* \"#utility.yul\":13181:13220   */\n      tag_147\n      jump\t// in\n    tag_287:\n        /* \"#utility.yul\":13169:13220   */\n      swap6\n      pop\n        /* \"#utility.yul\":13253:13257   */\n      dup1\n        /* \"#utility.yul\":13249:13258   */\n      not\n        /* \"#utility.yul\":13242:13247   */\n      dup5\n        /* \"#utility.yul\":13238:13259   */\n      and\n        /* \"#utility.yul\":13229:13259   */\n      swap4\n      pop\n        /* \"#utility.yul\":13302:13306   */\n      dup1\n        /* \"#utility.yul\":13292:13300   */\n      dup7\n        /* \"#utility.yul\":13288:13307   */\n      and\n        /* \"#utility.yul\":13281:13286   */\n      dup5\n        /* \"#utility.yul\":13278:13308   */\n      or\n        /* \"#utility.yul\":13268:13308   */\n      swap3\n      pop\n        /* \"#utility.yul\":12997:13314   */\n      pop\n      pop\n        /* \"#utility.yul\":12921:13314   */\n      swap4\n      swap3\n      pop\n      pop\n      pop\n      jump\t// out\n        /* \"#utility.yul\":13320:13380   */\n    tag_149:\n        /* \"#utility.yul\":13348:13351   */\n      0x00\n        /* \"#utility.yul\":13369:13374   */\n      dup2\n        /* \"#utility.yul\":13362:13374   */\n      swap1\n      pop\n        /* \"#utility.yul\":13320:13380   */\n      swap2\n      swap1\n      pop\n      jump\t// out\n        /* \"#utility.yul\":13386:13528   */\n    tag_150:\n        /* \"#utility.yul\":13436:13445   */\n      0x00\n        /* \"#utility.yul\":13469:13522   */\n      tag_290\n        /* \"#utility.yul\":13487:13521   */\n      tag_291\n        /* \"#utility.yul\":13496:13520   */\n      tag_292\n        /* \"#utility.yul\":13514:13519   */\n      dup5\n        /* \"#utility.yul\":13496:13520   */\n      tag_111\n      jump\t// in\n    tag_292:\n        /* \"#utility.yul\":13487:13521   */\n      tag_149\n      jump\t// in\n    tag_291:\n        /* \"#utility.yul\":13469:13522   */\n      tag_111\n      jump\t// in\n    tag_290:\n        /* \"#utility.yul\":13456:13522   */\n      swap1\n      pop\n        /* \"#utility.yul\":13386:13528   */\n      swap2\n      swap1\n      pop\n      jump\t// out\n        /* \"#utility.yul\":13534:13609   */\n    tag_151:\n        /* \"#utility.yul\":13577:13580   */\n      0x00\n        /* \"#utility.yul\":13598:13603   */\n      dup2\n        /* \"#utility.yul\":13591:13603   */\n      swap1\n      pop\n        /* \"#utility.yul\":13534:13609   */\n      swap2\n      swap1\n      pop\n      jump\t// out\n        /* \"#utility.yul\":13615:13884   */\n    tag_152:\n        /* \"#utility.yul\":13725:13764   */\n      tag_295\n        /* \"#utility.yul\":13756:13763   */\n      dup4\n        /* \"#utility.yul\":13725:13764   */\n      tag_150\n      jump\t// in\n    tag_295:\n        /* \"#utility.yul\":13786:13877   */\n      tag_296\n        /* \"#utility.yul\":13835:13876   */\n      tag_297\n        /* \"#utility.yul\":13859:13875   */\n      dup3\n        /* \"#utility.yul\":13835:13876   */\n      tag_151\n      jump\t// in\n    tag_297:\n        /* \"#utility.yul\":13827:13833   */\n      dup5\n        /* \"#utility.yul\":13820:13824   */\n      dup5\n        /* \"#utility.yul\":13814:13825   */\n      sload\n        /* \"#utility.yul\":13786:13877   */\n      tag_148\n      jump\t// in\n    tag_296:\n        /* \"#utility.yul\":13780:13784   */\n      dup3\n        /* \"#utility.yul\":13773:13878   */\n      sstore\n        /* \"#utility.yul\":13691:13884   */\n      pop\n        /* \"#utility.yul\":13615:13884   */\n      pop\n      pop\n      pop\n      jump\t// out\n        /* \"#utility.yul\":13890:13963   */\n    tag_153:\n        /* \"#utility.yul\":13935:13938   */\n      0x00\n        /* \"#utility.yul\":13890:13963   */\n      swap1\n      jump\t// out\n        /* \"#utility.yul\":13969:14158   */\n    tag_154:\n        /* \"#utility.yul\":14046:14078   */\n      tag_300\n      tag_153\n      jump\t// in\n    tag_300:\n        /* \"#utility.yul\":14087:14152   */\n      tag_301\n        /* \"#utility.yul\":14145:14151   */\n      dup2\n        /* \"#utility.yul\":14137:14143   */\n      dup5\n        /* \"#utility.yul\":14131:14135   */\n      dup5\n        /* \"#utility.yul\":14087:14152   */\n      tag_152\n      jump\t// in\n    tag_301:\n        /* \"#utility.yul\":14022:14158   */\n      pop\n        /* \"#utility.yul\":13969:14158   */\n      pop\n      pop\n      jump\t// out\n        /* \"#utility.yul\":14164:14350   */\n    tag_155:\n        /* \"#utility.yul\":14224:14344   */\n    tag_303:\n        /* \"#utility.yul\":14241:14244   */\n      dup2\n        /* \"#utility.yul\":14234:14239   */\n      dup2\n        /* \"#utility.yul\":14231:14245   */\n      lt\n        /* \"#utility.yul\":14224:14344   */\n      iszero\n      tag_305\n      jumpi\n        /* \"#utility.yul\":14295:14334   */\n      tag_306\n        /* \"#utility.yul\":14332:14333   */\n      0x00\n        /* \"#utility.yul\":14325:14330   */\n      dup3\n        /* \"#utility.yul\":14295:14334   */\n      tag_154\n      jump\t// in\n    tag_306:\n        /* \"#utility.yul\":14268:14269   */\n      0x01\n        /* \"#utility.yul\":14261:14266   */\n      dup2\n        /* \"#utility.yul\":14257:14270   */\n      add\n        /* \"#utility.yul\":14248:14270   */\n      swap1\n      pop\n        /* \"#utility.yul\":14224:14344   */\n      jump(tag_303)\n    tag_305:\n        /* \"#utility.yul\":14164:14350   */\n      pop\n      pop\n      jump\t// out\n        /* \"#utility.yul\":14356:14899   */\n    tag_156:\n        /* \"#utility.yul\":14457:14459   */\n      0x1f\n        /* \"#utility.yul\":14452:14455   */\n      dup3\n        /* \"#utility.yul\":14449:14460   */\n      gt\n        /* \"#utility.yul\":14446:14892   */\n      iszero\n      tag_308\n      jumpi\n        /* \"#utility.yul\":14491:14529   */\n      tag_309\n        /* \"#utility.yul\":14523:14528   */\n      dup2\n        /* \"#utility.yul\":14491:14529   */\n      tag_145\n      jump\t// in\n    tag_309:\n        /* \"#utility.yul\":14575:14604   */\n      tag_310\n        /* \"#utility.yul\":14593:14603   */\n      dup5\n        /* \"#utility.yul\":14575:14604   */\n      tag_146\n      jump\t// in\n    tag_310:\n        /* \"#utility.yul\":14565:14573   */\n      dup2\n        /* \"#utility.yul\":14561:14605   */\n      add\n        /* \"#utility.yul\":14758:14760   */\n      0x20\n        /* \"#utility.yul\":14746:14756   */\n      dup6\n        /* \"#utility.yul\":14743:14761   */\n      lt\n        /* \"#utility.yul\":14740:14789   */\n      iszero\n      tag_311\n      jumpi\n        /* \"#utility.yul\":14779:14787   */\n      dup2\n        /* \"#utility.yul\":14764:14787   */\n      swap1\n      pop\n        /* \"#utility.yul\":14740:14789   */\n    tag_311:\n        /* \"#utility.yul\":14802:14882   */\n      tag_312\n        /* \"#utility.yul\":14858:14880   */\n      tag_313\n        /* \"#utility.yul\":14876:14879   */\n      dup6\n        /* \"#utility.yul\":14858:14880   */\n      tag_146\n      jump\t// in\n    tag_313:\n        /* \"#utility.yul\":14848:14856   */\n      dup4\n        /* \"#utility.yul\":14844:14881   */\n      add\n        /* \"#utility.yul\":14831:14842   */\n      dup3\n        /* \"#utility.yul\":14802:14882   */\n      tag_155\n      jump\t// in\n    tag_312:\n        /* \"#utility.yul\":14461:14892   */\n      pop\n      pop\n        /* \"#utility.yul\":14446:14892   */\n    tag_308:\n        /* \"#utility.yul\":14356:14899   */\n      pop\n      pop\n      pop\n      jump\t// out\n        /* \"#utility.yul\":14905:15022   */\n    tag_157:\n        /* \"#utility.yul\":14959:14967   */\n      0x00\n        /* \"#utility.yul\":15009:15014   */\n      dup3\n        /* \"#utility.yul\":15003:15007   */\n      dup3\n        /* \"#utility.yul\":14999:15015   */\n      shr\n        /* \"#utility.yul\":14978:15015   */\n      swap1\n      pop\n        /* \"#utility.yul\":14905:15022   */\n      swap3\n      swap2\n      pop\n      pop\n      jump\t// out\n        /* \"#utility.yul\":15028:15197   */\n    tag_158:\n        /* \"#utility.yul\":15072:15078   */\n      0x00\n        /* \"#utility.yul\":15105:15156   */\n      tag_316\n        /* \"#utility.yul\":15153:15154   */\n      0x00\n        /* \"#utility.yul\":15149:15155   */\n      not\n        /* \"#utility.yul\":15141:15146   */\n      dup5\n        /* \"#utility.yul\":15138:15139   */\n      0x08\n        /* \"#utility.yul\":15134:15147   */\n      mul\n        /* \"#utility.yul\":15105:15156   */\n      tag_157\n      jump\t// in\n    tag_316:\n        /* \"#utility.yul\":15101:15157   */\n      not\n        /* \"#utility.yul\":15186:15190   */\n      dup1\n        /* \"#utility.yul\":15180:15184   */\n      dup4\n        /* \"#utility.yul\":15176:15191   */\n      and\n        /* \"#utility.yul\":15166:15191   */\n      swap2\n      pop\n        /* \"#utility.yul\":15079:15197   */\n      pop\n        /* \"#utility.yul\":15028:15197   */\n      swap3\n      swap2\n      pop\n      pop\n      jump\t// out\n        /* \"#utility.yul\":15202:15497   */\n    tag_159:\n        /* \"#utility.yul\":15278:15282   */\n      0x00\n        /* \"#utility.yul\":15424:15453   */\n      tag_318\n        /* \"#utility.yul\":15449:15452   */\n      dup4\n        /* \"#utility.yul\":15443:15447   */\n      dup4\n        /* \"#utility.yul\":15424:15453   */\n      tag_158\n      jump\t// in\n    tag_318:\n        /* \"#utility.yul\":15416:15453   */\n      swap2\n      pop\n        /* \"#utility.yul\":15486:15489   */\n      dup3\n        /* \"#utility.yul\":15483:15484   */\n      0x02\n        /* \"#utility.yul\":15479:15490   */\n      mul\n        /* \"#utility.yul\":15473:15477   */\n      dup3\n        /* \"#utility.yul\":15470:15491   */\n      or\n        /* \"#utility.yul\":15462:15491   */\n      swap1\n      pop\n        /* \"#utility.yul\":15202:15497   */\n      swap3\n      swap2\n      pop\n      pop\n      jump\t// out\n        /* \"#utility.yul\":15502:16897   */\n    tag_94:\n        /* \"#utility.yul\":15619:15656   */\n      tag_320\n        /* \"#utility.yul\":15652:15655   */\n      dup3\n        /* \"#utility.yul\":15619:15656   */\n      tag_115\n      jump\t// in\n    tag_320:\n        /* \"#utility.yul\":15721:15739   */\n      0xffffffffffffffff\n        /* \"#utility.yul\":15713:15719   */\n      dup2\n        /* \"#utility.yul\":15710:15740   */\n      gt\n        /* \"#utility.yul\":15707:15763   */\n      iszero\n      tag_321\n      jumpi\n        /* \"#utility.yul\":15743:15761   */\n      tag_322\n      tag_128\n      jump\t// in\n    tag_322:\n        /* \"#utility.yul\":15707:15763   */\n    tag_321:\n        /* \"#utility.yul\":15787:15825   */\n      tag_323\n        /* \"#utility.yul\":15819:15823   */\n      dup3\n        /* \"#utility.yul\":15813:15824   */\n      sload\n        /* \"#utility.yul\":15787:15825   */\n      tag_78\n      jump\t// in\n    tag_323:\n        /* \"#utility.yul\":15872:15939   */\n      tag_324\n        /* \"#utility.yul\":15932:15938   */\n      dup3\n        /* \"#utility.yul\":15924:15930   */\n      dup3\n        /* \"#utility.yul\":15918:15922   */\n      dup6\n        /* \"#utility.yul\":15872:15939   */\n      tag_156\n      jump\t// in\n    tag_324:\n        /* \"#utility.yul\":15966:15967   */\n      0x00\n        /* \"#utility.yul\":15990:15994   */\n      0x20\n        /* \"#utility.yul\":15977:15994   */\n      swap1\n      pop\n        /* \"#utility.yul\":16022:16024   */\n      0x1f\n        /* \"#utility.yul\":16014:16020   */\n      dup4\n        /* \"#utility.yul\":16011:16025   */\n      gt\n        /* \"#utility.yul\":16039:16040   */\n      0x01\n        /* \"#utility.yul\":16034:16652   */\n      dup2\n      eq\n      tag_326\n      jumpi\n        /* \"#utility.yul\":16696:16697   */\n      0x00\n        /* \"#utility.yul\":16713:16719   */\n      dup5\n        /* \"#utility.yul\":16710:16787   */\n      iszero\n      tag_327\n      jumpi\n        /* \"#utility.yul\":16762:16771   */\n      dup3\n        /* \"#utility.yul\":16757:16760   */\n      dup8\n        /* \"#utility.yul\":16753:16772   */\n      add\n        /* \"#utility.yul\":16747:16773   */\n      mload\n        /* \"#utility.yul\":16738:16773   */\n      swap1\n      pop\n        /* \"#utility.yul\":16710:16787   */\n    tag_327:\n        /* \"#utility.yul\":16813:16880   */\n      tag_328\n        /* \"#utility.yul\":16873:16879   */\n      dup6\n        /* \"#utility.yul\":16866:16871   */\n      dup3\n        /* \"#utility.yul\":16813:16880   */\n      tag_159\n      jump\t// in\n    tag_328:\n        /* \"#utility.yul\":16807:16811   */\n      dup7\n        /* \"#utility.yul\":16800:16881   */\n      sstore\n        /* \"#utility.yul\":16669:16891   */\n      pop\n        /* \"#utility.yul\":16004:16891   */\n      jump(tag_325)\n        /* \"#utility.yul\":16034:16652   */\n    tag_326:\n        /* \"#utility.yul\":16086:16090   */\n      0x1f\n        /* \"#utility.yul\":16082:16091   */\n      not\n        /* \"#utility.yul\":16074:16080   */\n      dup5\n        /* \"#utility.yul\":16070:16092   */\n      and\n        /* \"#utility.yul\":16120:16157   */\n      tag_329\n        /* \"#utility.yul\":16152:16156   */\n      dup7\n        /* \"#utility.yul\":16120:16157   */\n      tag_145\n      jump\t// in\n    tag_329:\n        /* \"#utility.yul\":16179:16180   */\n      0x00\n        /* \"#utility.yul\":16193:16401   */\n    tag_330:\n        /* \"#utility.yul\":16207:16214   */\n      dup3\n        /* \"#utility.yul\":16204:16205   */\n      dup2\n        /* \"#utility.yul\":16201:16215   */\n      lt\n        /* \"#utility.yul\":16193:16401   */\n      iszero\n      tag_332\n      jumpi\n        /* \"#utility.yul\":16286:16295   */\n      dup5\n        /* \"#utility.yul\":16281:16284   */\n      dup10\n        /* \"#utility.yul\":16277:16296   */\n      add\n        /* \"#utility.yul\":16271:16297   */\n      mload\n        /* \"#utility.yul\":16263:16269   */\n      dup3\n        /* \"#utility.yul\":16256:16298   */\n      sstore\n        /* \"#utility.yul\":16337:16338   */\n      0x01\n        /* \"#utility.yul\":16329:16335   */\n      dup3\n        /* \"#utility.yul\":16325:16339   */\n      add\n        /* \"#utility.yul\":16315:16339   */\n      swap2\n      pop\n        /* \"#utility.yul\":16384:16386   */\n      0x20\n        /* \"#utility.yul\":16373:16382   */\n      dup6\n        /* \"#utility.yul\":16369:16387   */\n      add\n        /* \"#utility.yul\":16356:16387   */\n      swap5\n      pop\n        /* \"#utility.yul\":16230:16234   */\n      0x20\n        /* \"#utility.yul\":16227:16228   */\n      dup2\n        /* \"#utility.yul\":16223:16235   */\n      add\n        /* \"#utility.yul\":16218:16235   */\n      swap1\n      pop\n        /* \"#utility.yul\":16193:16401   */\n      jump(tag_330)\n    tag_332:\n        /* \"#utility.yul\":16429:16435   */\n      dup7\n        /* \"#utility.yul\":16420:16427   */\n      dup4\n        /* \"#utility.yul\":16417:16436   */\n      lt\n        /* \"#utility.yul\":16414:16593   */\n      iszero\n      tag_333\n      jumpi\n        /* \"#utility.yul\":16487:16496   */\n      dup5\n        /* \"#utility.yul\":16482:16485   */\n      dup10\n        /* \"#utility.yul\":16478:16497   */\n      add\n        /* \"#utility.yul\":16472:16498   */\n      mload\n        /* \"#utility.yul\":16530:16578   */\n      tag_334\n        /* \"#utility.yul\":16572:16576   */\n      0x1f\n        /* \"#utility.yul\":16564:16570   */\n      dup10\n        /* \"#utility.yul\":16560:16577   */\n      and\n        /* \"#utility.yul\":16549:16558   */\n      dup3\n        /* \"#utility.yul\":16530:16578   */\n      tag_158\n      jump\t// in\n    tag_334:\n        /* \"#utility.yul\":16522:16528   */\n      dup4\n        /* \"#utility.yul\":16515:16579   */\n      sstore\n        /* \"#utility.yul\":16437:16593   */\n      pop\n        /* \"#utility.yul\":16414:16593   */\n    tag_333:\n        /* \"#utility.yul\":16639:16640   */\n      0x01\n        /* \"#utility.yul\":16635:16636   */\n      0x02\n        /* \"#utility.yul\":16627:16633   */\n      dup9\n        /* \"#utility.yul\":16623:16637   */\n      mul\n        /* \"#utility.yul\":16619:16641   */\n      add\n        /* \"#utility.yul\":16613:16617   */\n      dup9\n        /* \"#utility.yul\":16606:16642   */\n      sstore\n        /* \"#utility.yul\":16041:16652   */\n      pop\n      pop\n      pop\n        /* \"#utility.yul\":16004:16891   */\n    tag_325:\n      pop\n        /* \"#utility.yul\":15594:16897   */\n      pop\n      pop\n      pop\n        /* \"#utility.yul\":15502:16897   */\n      pop\n      pop\n      jump\t// out\n        /* \"#utility.yul\":16903:17527   */\n    tag_97:\n        /* \"#utility.yul\":17092:17096   */\n      0x00\n        /* \"#utility.yul\":17130:17132   */\n      0x60\n        /* \"#utility.yul\":17119:17128   */\n      dup3\n        /* \"#utility.yul\":17115:17133   */\n      add\n        /* \"#utility.yul\":17107:17133   */\n      swap1\n      pop\n        /* \"#utility.yul\":17143:17214   */\n      tag_336\n        /* \"#utility.yul\":17211:17212   */\n      0x00\n        /* \"#utility.yul\":17200:17209   */\n      dup4\n        /* \"#utility.yul\":17196:17213   */\n      add\n        /* \"#utility.yul\":17187:17193   */\n      dup7\n        /* \"#utility.yul\":17143:17214   */\n      tag_114\n      jump\t// in\n    tag_336:\n        /* \"#utility.yul\":17261:17270   */\n      dup2\n        /* \"#utility.yul\":17255:17259   */\n      dup2\n        /* \"#utility.yul\":17251:17271   */\n      sub\n        /* \"#utility.yul\":17246:17248   */\n      0x20\n        /* \"#utility.yul\":17235:17244   */\n      dup4\n        /* \"#utility.yul\":17231:17249   */\n      add\n        /* \"#utility.yul\":17224:17272   */\n      mstore\n        /* \"#utility.yul\":17289:17367   */\n      tag_337\n        /* \"#utility.yul\":17362:17366   */\n      dup2\n        /* \"#utility.yul\":17353:17359   */\n      dup6\n        /* \"#utility.yul\":17289:17367   */\n      tag_119\n      jump\t// in\n    tag_337:\n        /* \"#utility.yul\":17281:17367   */\n      swap1\n      pop\n        /* \"#utility.yul\":17414:17423   */\n      dup2\n        /* \"#utility.yul\":17408:17412   */\n      dup2\n        /* \"#utility.yul\":17404:17424   */\n      sub\n        /* \"#utility.yul\":17399:17401   */\n      0x40\n        /* \"#utility.yul\":17388:17397   */\n      dup4\n        /* \"#utility.yul\":17384:17402   */\n      add\n        /* \"#utility.yul\":17377:17425   */\n      mstore\n        /* \"#utility.yul\":17442:17520   */\n      tag_338\n        /* \"#utility.yul\":17515:17519   */\n      dup2\n        /* \"#utility.yul\":17506:17512   */\n      dup5\n        /* \"#utility.yul\":17442:17520   */\n      tag_119\n      jump\t// in\n    tag_338:\n        /* \"#utility.yul\":17434:17520   */\n      swap1\n      pop\n        /* \"#utility.yul\":16903:17527   */\n      swap5\n      swap4\n      pop\n      pop\n      pop\n      pop\n      jump\t// out\n\n    auxdata: 0xa2646970667358221220bdcfa20d0176c80c365fb4cf42ccf44763c740661f820513ff9c8dbbabfef87364736f6c634300081a0033\n}\n",
				"bytecode": {
					"linkReferences": {},
					"object": "6080604052348015600e575f80fd5b506111d28061001c5f395ff3fe608060405234801561000f575f80fd5b50600436106100a7575f3560e01c8063a15a36c71161006f578063a15a36c714610154578063a3ec138d14610170578063b0417e98146101a0578063b04e55ed146101be578063c5e7e32b146101dc578063eec6b91e1461020c576100a7565b80630121b93f146100ab57806327ebf531146100c75780633554fd8f146100fa57806336b8ddd314610118578063592b41d114610136575b5f80fd5b6100c560048036038101906100c091906108d0565b61023f565b005b6100e160048036038101906100dc91906108d0565b610470565b6040516100f1949392919061097a565b60405180910390f35b6101026105e5565b60405161010f91906109cb565b60405180910390f35b6101206105eb565b60405161012d91906109cb565b60405180910390f35b61013e6105f1565b60405161014b91906109cb565b60405180910390f35b61016e600480360381019061016991906109e4565b6105fa565b005b61018a60048036038101906101859190610a7c565b61060c565b6040516101979190610ac1565b60405180910390f35b6101a8610629565b6040516101b59190610ac1565b60405180910390f35b6101c6610679565b6040516101d391906109cb565b60405180910390f35b6101f660048036038101906101f19190610c06565b61067f565b60405161020391906109cb565b60405180910390f35b610226600480360381019061022191906108d0565b610755565b604051610236949392919061097a565b60405180910390f35b600454421015610284576040517f08c379a000000000000000000000000000000000000000000000000000000000815260040161027b90610cc6565b60405180910390fd5b6003544211156102c9576040517f08c379a00000000000000000000000000000000000000000000000000000000081526004016102c090610d2e565b60405180910390fd5b5f811180156102da57506002548111155b610319576040517f08c379a000000000000000000000000000000000000000000000000000000000815260040161031090610d96565b60405180910390fd5b60015f3373ffffffffffffffffffffffffffffffffffffffff1673ffffffffffffffffffffffffffffffffffffffff1681526020019081526020015f205f9054906101000a900460ff16156103a3576040517f08c379a000000000000000000000000000000000000000000000000000000000815260040161039a90610dfe565b60405180910390fd5b6001805f3373ffffffffffffffffffffffffffffffffffffffff1673ffffffffffffffffffffffffffffffffffffffff1681526020019081526020015f205f6101000a81548160ff0219169083151502179055505f808281526020019081526020015f206003015f81548092919061041a90610e49565b91905055503373ffffffffffffffffffffffffffffffffffffffff167fa36cc2bebb74db33e9f88110a07ef56e1b31b24b4c4f51b54b1664266e29f45b8260405161046591906109cb565b60405180910390a250565b5f6060805f805f8681526020019081526020015f205f01545f808781526020019081526020015f206001015f808881526020019081526020015f206002015f808981526020019081526020015f20600301548280546104ce90610ebd565b80601f01602080910402602001604051908101604052809291908181526020018280546104fa90610ebd565b80156105455780601f1061051c57610100808354040283529160200191610545565b820191905f5260205f20905b81548152906001019060200180831161052857829003601f168201915b5050505050925081805461055890610ebd565b80601f016020809104026020016040519081016040528092919081815260200182805461058490610ebd565b80156105cf5780601f106105a6576101008083540402835291602001916105cf565b820191905f5260205f20905b8154815290600101906020018083116105b257829003601f168201915b5050505050915093509350935093509193509193565b60045481565b60035481565b5f600254905090565b81600481905550806003819055505050565b6001602052805f5260405f205f915054906101000a900460ff1681565b5f60015f3373ffffffffffffffffffffffffffffffffffffffff1673ffffffffffffffffffffffffffffffffffffffff1681526020019081526020015f205f9054906101000a900460ff16905090565b60025481565b5f60025f81548092919061069290610e49565b9190505550604051806080016040528060025481526020018481526020018381526020015f8152505f8060025481526020019081526020015f205f820151815f015560208201518160010190816106e9919061108a565b5060408201518160020190816106ff919061108a565b50606082015181600301559050507f77b4dcb988abb2c1590106152ea1343570a0dc2311b55af21e6a5eb6bd02278a600254848460405161074293929190611159565b60405180910390a1600254905092915050565b5f602052805f5260405f205f91509050805f01549080600101805461077990610ebd565b80601f01602080910402602001604051908101604052809291908181526020018280546107a590610ebd565b80156107f05780601f106107c7576101008083540402835291602001916107f0565b820191905f5260205f20905b8154815290600101906020018083116107d357829003601f168201915b50505050509080600201805461080590610ebd565b80601f016020809104026020016040519081016040528092919081815260200182805461083190610ebd565b801561087c5780601f106108535761010080835404028352916020019161087c565b820191905f5260205f20905b81548152906001019060200180831161085f57829003601f168201915b5050505050908060030154905084565b5f604051905090565b5f80fd5b5f80fd5b5f819050919050565b6108af8161089d565b81146108b9575f80fd5b50565b5f813590506108ca816108a6565b92915050565b5f602082840312156108e5576108e4610895565b5b5f6108f2848285016108bc565b91505092915050565b6109048161089d565b82525050565b5f81519050919050565b5f82825260208201905092915050565b8281835e5f83830152505050565b5f601f19601f8301169050919050565b5f61094c8261090a565b6109568185610914565b9350610966818560208601610924565b61096f81610932565b840191505092915050565b5f60808201905061098d5f8301876108fb565b818103602083015261099f8186610942565b905081810360408301526109b38185610942565b90506109c260608301846108fb565b95945050505050565b5f6020820190506109de5f8301846108fb565b92915050565b5f80604083850312156109fa576109f9610895565b5b5f610a07858286016108bc565b9250506020610a18858286016108bc565b9150509250929050565b5f73ffffffffffffffffffffffffffffffffffffffff82169050919050565b5f610a4b82610a22565b9050919050565b610a5b81610a41565b8114610a65575f80fd5b50565b5f81359050610a7681610a52565b92915050565b5f60208284031215610a9157610a90610895565b5b5f610a9e84828501610a68565b91505092915050565b5f8115159050919050565b610abb81610aa7565b82525050565b5f602082019050610ad45f830184610ab2565b92915050565b5f80fd5b5f80fd5b7f4e487b71000000000000000000000000000000000000000000000000000000005f52604160045260245ffd5b610b1882610932565b810181811067ffffffffffffffff82111715610b3757610b36610ae2565b5b80604052505050565b5f610b4961088c565b9050610b558282610b0f565b919050565b5f67ffffffffffffffff821115610b7457610b73610ae2565b5b610b7d82610932565b9050602081019050919050565b828183375f83830152505050565b5f610baa610ba584610b5a565b610b40565b905082815260208101848484011115610bc657610bc5610ade565b5b610bd1848285610b8a565b509392505050565b5f82601f830112610bed57610bec610ada565b5b8135610bfd848260208601610b98565b91505092915050565b5f8060408385031215610c1c57610c1b610895565b5b5f83013567ffffffffffffffff811115610c3957610c38610899565b5b610c4585828601610bd9565b925050602083013567ffffffffffffffff811115610c6657610c65610899565b5b610c7285828601610bd9565b9150509250929050565b7f566f74696e6720686173206e6f742073746172746564207965740000000000005f82015250565b5f610cb0601a83610914565b9150610cbb82610c7c565b602082019050919050565b5f6020820190508181035f830152610cdd81610ca4565b9050919050565b7f566f746520436c6f7365640000000000000000000000000000000000000000005f82015250565b5f610d18600b83610914565b9150610d2382610ce4565b602082019050919050565b5f6020820190508181035f830152610d4581610d0c565b9050919050565b7f496e76616c6964206e6f6d696e656520494400000000000000000000000000005f82015250565b5f610d80601283610914565b9150610d8b82610d4c565b602082019050919050565b5f6020820190508181035f830152610dad81610d74565b9050919050565b7f596f75206861766520616c726561647920766f746564000000000000000000005f82015250565b5f610de8601683610914565b9150610df382610db4565b602082019050919050565b5f6020820190508181035f830152610e1581610ddc565b9050919050565b7f4e487b71000000000000000000000000000000000000000000000000000000005f52601160045260245ffd5b5f610e538261089d565b91507fffffffffffffffffffffffffffffffffffffffffffffffffffffffffffffffff8203610e8557610e84610e1c565b5b600182019050919050565b7f4e487b71000000000000000000000000000000000000000000000000000000005f52602260045260245ffd5b5f6002820490506001821680610ed457607f821691505b602082108103610ee757610ee6610e90565b5b50919050565b5f819050815f5260205f209050919050565b5f6020601f8301049050919050565b5f82821b905092915050565b5f60088302610f497fffffffffffffffffffffffffffffffffffffffffffffffffffffffffffffffff82610f0e565b610f538683610f0e565b95508019841693508086168417925050509392505050565b5f819050919050565b5f610f8e610f89610f848461089d565b610f6b565b61089d565b9050919050565b5f819050919050565b610fa783610f74565b610fbb610fb382610f95565b848454610f1a565b825550505050565b5f90565b610fcf610fc3565b610fda818484610f9e565b505050565b5b81811015610ffd57610ff25f82610fc7565b600181019050610fe0565b5050565b601f8211156110425761101381610eed565b61101c84610eff565b8101602085101561102b578190505b61103f61103785610eff565b830182610fdf565b50505b505050565b5f82821c905092915050565b5f6110625f1984600802611047565b1980831691505092915050565b5f61107a8383611053565b9150826002028217905092915050565b6110938261090a565b67ffffffffffffffff8111156110ac576110ab610ae2565b5b6110b68254610ebd565b6110c1828285611001565b5f60209050601f8311600181146110f2575f84156110e0578287015190505b6110ea858261106f565b865550611151565b601f19841661110086610eed565b5f5b8281101561112757848901518255600182019150602085019450602081019050611102565b868310156111445784890151611140601f891682611053565b8355505b6001600288020188555050505b505050505050565b5f60608201905061116c5f8301866108fb565b818103602083015261117e8185610942565b905081810360408301526111928184610942565b905094935050505056fea2646970667358221220bdcfa20d0176c80c365fb4cf42ccf44763c740661f820513ff9c8dbbabfef87364736f6c634300081a0033",
					"opcodes": "PUSH1 0x80 PUSH1 0x40 MSTORE CALLVALUE DUP1 ISZERO PUSH1 0xE JUMPI PUSH0 DUP1 REVERT JUMPDEST POP PUSH2 0x11D2 DUP1 PUSH2 0x1C PUSH0 CODECOPY PUSH0 RETURN INVALID PUSH1 0x80 PUSH1 0x40 MSTORE CALLVALUE DUP1 ISZERO PUSH2 0xF JUMPI PUSH0 DUP1 REVERT JUMPDEST POP PUSH1 0x4 CALLDATASIZE LT PUSH2 0xA7 JUMPI PUSH0 CALLDATALOAD PUSH1 0xE0 SHR DUP1 PUSH4 0xA15A36C7 GT PUSH2 0x6F JUMPI DUP1 PUSH4 0xA15A36C7 EQ PUSH2 0x154 JUMPI DUP1 PUSH4 0xA3EC138D EQ PUSH2 0x170 JUMPI DUP1 PUSH4 0xB0417E98 EQ PUSH2 0x1A0 JUMPI DUP1 PUSH4 0xB04E55ED EQ PUSH2 0x1BE JUMPI DUP1 PUSH4 0xC5E7E32B EQ PUSH2 0x1DC JUMPI DUP1 PUSH4 0xEEC6B91E EQ PUSH2 0x20C JUMPI PUSH2 0xA7 JUMP JUMPDEST DUP1 PUSH4 0x121B93F EQ PUSH2 0xAB JUMPI DUP1 PUSH4 0x27EBF531 EQ PUSH2 0xC7 JUMPI DUP1 PUSH4 0x3554FD8F EQ PUSH2 0xFA JUMPI DUP1 PUSH4 0x36B8DDD3 EQ PUSH2 0x118 JUMPI DUP1 PUSH4 0x592B41D1 EQ PUSH2 0x136 JUMPI JUMPDEST PUSH0 DUP1 REVERT JUMPDEST PUSH2 0xC5 PUSH1 0x4 DUP1 CALLDATASIZE SUB DUP2 ADD SWAP1 PUSH2 0xC0 SWAP2 SWAP1 PUSH2 0x8D0 JUMP JUMPDEST PUSH2 0x23F JUMP JUMPDEST STOP JUMPDEST PUSH2 0xE1 PUSH1 0x4 DUP1 CALLDATASIZE SUB DUP2 ADD SWAP1 PUSH2 0xDC SWAP2 SWAP1 PUSH2 0x8D0 JUMP JUMPDEST PUSH2 0x470 JUMP JUMPDEST PUSH1 0x40 MLOAD PUSH2 0xF1 SWAP5 SWAP4 SWAP3 SWAP2 SWAP1 PUSH2 0x97A JUMP JUMPDEST PUSH1 0x40 MLOAD DUP1 SWAP2 SUB SWAP1 RETURN JUMPDEST PUSH2 0x102 PUSH2 0x5E5 JUMP JUMPDEST PUSH1 0x40 MLOAD PUSH2 0x10F SWAP2 SWAP1 PUSH2 0x9CB JUMP JUMPDEST PUSH1 0x40 MLOAD DUP1 SWAP2 SUB SWAP1 RETURN JUMPDEST PUSH2 0x120 PUSH2 0x5EB JUMP JUMPDEST PUSH1 0x40 MLOAD PUSH2 0x12D SWAP2 SWAP1 PUSH2 0x9CB JUMP JUMPDEST PUSH1 0x40 MLOAD DUP1 SWAP2 SUB SWAP1 RETURN JUMPDEST PUSH2 0x13E PUSH2 0x5F1 JUMP JUMPDEST PUSH1 0x40 MLOAD PUSH2 0x14B SWAP2 SWAP1 PUSH2 0x9CB JUMP JUMPDEST PUSH1 0x40 MLOAD DUP1 SWAP2 SUB SWAP1 RETURN JUMPDEST PUSH2 0x16E PUSH1 0x4 DUP1 CALLDATASIZE SUB DUP2 ADD SWAP1 PUSH2 0x169 SWAP2 SWAP1 PUSH2 0x9E4 JUMP JUMPDEST PUSH2 0x5FA JUMP JUMPDEST STOP JUMPDEST PUSH2 0x18A PUSH1 0x4 DUP1 CALLDATASIZE SUB DUP2 ADD SWAP1 PUSH2 0x185 SWAP2 SWAP1 PUSH2 0xA7C JUMP JUMPDEST PUSH2 0x60C JUMP JUMPDEST PUSH1 0x40 MLOAD PUSH2 0x197 SWAP2 SWAP1 PUSH2 0xAC1 JUMP JUMPDEST PUSH1 0x40 MLOAD DUP1 SWAP2 SUB SWAP1 RETURN JUMPDEST PUSH2 0x1A8 PUSH2 0x629 JUMP JUMPDEST PUSH1 0x40 MLOAD PUSH2 0x1B5 SWAP2 SWAP1 PUSH2 0xAC1 JUMP JUMPDEST PUSH1 0x40 MLOAD DUP1 SWAP2 SUB SWAP1 RETURN JUMPDEST PUSH2 0x1C6 PUSH2 0x679 JUMP JUMPDEST PUSH1 0x40 MLOAD PUSH2 0x1D3 SWAP2 SWAP1 PUSH2 0x9CB JUMP JUMPDEST PUSH1 0x40 MLOAD DUP1 SWAP2 SUB SWAP1 RETURN JUMPDEST PUSH2 0x1F6 PUSH1 0x4 DUP1 CALLDATASIZE SUB DUP2 ADD SWAP1 PUSH2 0x1F1 SWAP2 SWAP1 PUSH2 0xC06 JUMP JUMPDEST PUSH2 0x67F JUMP JUMPDEST PUSH1 0x40 MLOAD PUSH2 0x203 SWAP2 SWAP1 PUSH2 0x9CB JUMP JUMPDEST PUSH1 0x40 MLOAD DUP1 SWAP2 SUB SWAP1 RETURN JUMPDEST PUSH2 0x226 PUSH1 0x4 DUP1 CALLDATASIZE SUB DUP2 ADD SWAP1 PUSH2 0x221 SWAP2 SWAP1 PUSH2 0x8D0 JUMP JUMPDEST PUSH2 0x755 JUMP JUMPDEST PUSH1 0x40 MLOAD PUSH2 0x236 SWAP5 SWAP4 SWAP3 SWAP2 SWAP1 PUSH2 0x97A JUMP JUMPDEST PUSH1 0x40 MLOAD DUP1 SWAP2 SUB SWAP1 RETURN JUMPDEST PUSH1 0x4 SLOAD TIMESTAMP LT ISZERO PUSH2 0x284 JUMPI PUSH1 0x40 MLOAD PUSH32 0x8C379A000000000000000000000000000000000000000000000000000000000 DUP2 MSTORE PUSH1 0x4 ADD PUSH2 0x27B SWAP1 PUSH2 0xCC6 JUMP JUMPDEST PUSH1 0x40 MLOAD DUP1 SWAP2 SUB SWAP1 REVERT JUMPDEST PUSH1 0x3 SLOAD TIMESTAMP GT ISZERO PUSH2 0x2C9 JUMPI PUSH1 0x40 MLOAD PUSH32 0x8C379A000000000000000000000000000000000000000000000000000000000 DUP2 MSTORE PUSH1 0x4 ADD PUSH2 0x2C0 SWAP1 PUSH2 0xD2E JUMP JUMPDEST PUSH1 0x40 MLOAD DUP1 SWAP2 SUB SWAP1 REVERT JUMPDEST PUSH0 DUP2 GT DUP1 ISZERO PUSH2 0x2DA JUMPI POP PUSH1 0x2 SLOAD DUP2 GT ISZERO JUMPDEST PUSH2 0x319 JUMPI PUSH1 0x40 MLOAD PUSH32 0x8C379A000000000000000000000000000000000000000000000000000000000 DUP2 MSTORE PUSH1 0x4 ADD PUSH2 0x310 SWAP1 PUSH2 0xD96 JUMP JUMPDEST PUSH1 0x40 MLOAD DUP1 SWAP2 SUB SWAP1 REVERT JUMPDEST PUSH1 0x1 PUSH0 CALLER PUSH20 0xFFFFFFFFFFFFFFFFFFFFFFFFFFFFFFFFFFFFFFFF AND PUSH20 0xFFFFFFFFFFFFFFFFFFFFFFFFFFFFFFFFFFFFFFFF AND DUP2 MSTORE PUSH1 0x20 ADD SWAP1 DUP2 MSTORE PUSH1 0x20 ADD PUSH0 KECCAK256 PUSH0 SWAP1 SLOAD SWAP1 PUSH2 0x100 EXP SWAP1 DIV PUSH1 0xFF AND ISZERO PUSH2 0x3A3 JUMPI PUSH1 0x40 MLOAD PUSH32 0x8C379A000000000000000000000000000000000000000000000000000000000 DUP2 MSTORE PUSH1 0x4 ADD PUSH2 0x39A SWAP1 PUSH2 0xDFE JUMP JUMPDEST PUSH1 0x40 MLOAD DUP1 SWAP2 SUB SWAP1 REVERT JUMPDEST PUSH1 0x1 DUP1 PUSH0 CALLER PUSH20 0xFFFFFFFFFFFFFFFFFFFFFFFFFFFFFFFFFFFFFFFF AND PUSH20 0xFFFFFFFFFFFFFFFFFFFFFFFFFFFFFFFFFFFFFFFF AND DUP2 MSTORE PUSH1 0x20 ADD SWAP1 DUP2 MSTORE PUSH1 0x20 ADD PUSH0 KECCAK256 PUSH0 PUSH2 0x100 EXP DUP2 SLOAD DUP2 PUSH1 0xFF MUL NOT AND SWAP1 DUP4 ISZERO ISZERO MUL OR SWAP1 SSTORE POP PUSH0 DUP1 DUP3 DUP2 MSTORE PUSH1 0x20 ADD SWAP1 DUP2 MSTORE PUSH1 0x20 ADD PUSH0 KECCAK256 PUSH1 0x3 ADD PUSH0 DUP2 SLOAD DUP1 SWAP3 SWAP2 SWAP1 PUSH2 0x41A SWAP1 PUSH2 0xE49 JUMP JUMPDEST SWAP2 SWAP1 POP SSTORE POP CALLER PUSH20 0xFFFFFFFFFFFFFFFFFFFFFFFFFFFFFFFFFFFFFFFF AND PUSH32 0xA36CC2BEBB74DB33E9F88110A07EF56E1B31B24B4C4F51B54B1664266E29F45B DUP3 PUSH1 0x40 MLOAD PUSH2 0x465 SWAP2 SWAP1 PUSH2 0x9CB JUMP JUMPDEST PUSH1 0x40 MLOAD DUP1 SWAP2 SUB SWAP1 LOG2 POP JUMP JUMPDEST PUSH0 PUSH1 0x60 DUP1 PUSH0 DUP1 PUSH0 DUP7 DUP2 MSTORE PUSH1 0x20 ADD SWAP1 DUP2 MSTORE PUSH1 0x20 ADD PUSH0 KECCAK256 PUSH0 ADD SLOAD PUSH0 DUP1 DUP8 DUP2 MSTORE PUSH1 0x20 ADD SWAP1 DUP2 MSTORE PUSH1 0x20 ADD PUSH0 KECCAK256 PUSH1 0x1 ADD PUSH0 DUP1 DUP9 DUP2 MSTORE PUSH1 0x20 ADD SWAP1 DUP2 MSTORE PUSH1 0x20 ADD PUSH0 KECCAK256 PUSH1 0x2 ADD PUSH0 DUP1 DUP10 DUP2 MSTORE PUSH1 0x20 ADD SWAP1 DUP2 MSTORE PUSH1 0x20 ADD PUSH0 KECCAK256 PUSH1 0x3 ADD SLOAD DUP3 DUP1 SLOAD PUSH2 0x4CE SWAP1 PUSH2 0xEBD JUMP JUMPDEST DUP1 PUSH1 0x1F ADD PUSH1 0x20 DUP1 SWAP2 DIV MUL PUSH1 0x20 ADD PUSH1 0x40 MLOAD SWAP1 DUP2 ADD PUSH1 0x40 MSTORE DUP1 SWAP3 SWAP2 SWAP1 DUP2 DUP2 MSTORE PUSH1 0x20 ADD DUP3 DUP1 SLOAD PUSH2 0x4FA SWAP1 PUSH2 0xEBD JUMP JUMPDEST DUP1 ISZERO PUSH2 0x545 JUMPI DUP1 PUSH1 0x1F LT PUSH2 0x51C JUMPI PUSH2 0x100 DUP1 DUP4 SLOAD DIV MUL DUP4 MSTORE SWAP2 PUSH1 0x20 ADD SWAP2 PUSH2 0x545 JUMP JUMPDEST DUP3 ADD SWAP2 SWAP1 PUSH0 MSTORE PUSH1 0x20 PUSH0 KECCAK256 SWAP1 JUMPDEST DUP2 SLOAD DUP2 MSTORE SWAP1 PUSH1 0x1 ADD SWAP1 PUSH1 0x20 ADD DUP1 DUP4 GT PUSH2 0x528 JUMPI DUP3 SWAP1 SUB PUSH1 0x1F AND DUP3 ADD SWAP2 JUMPDEST POP POP POP POP POP SWAP3 POP DUP2 DUP1 SLOAD PUSH2 0x558 SWAP1 PUSH2 0xEBD JUMP JUMPDEST DUP1 PUSH1 0x1F ADD PUSH1 0x20 DUP1 SWAP2 DIV MUL PUSH1 0x20 ADD PUSH1 0x40 MLOAD SWAP1 DUP2 ADD PUSH1 0x40 MSTORE DUP1 SWAP3 SWAP2 SWAP1 DUP2 DUP2 MSTORE PUSH1 0x20 ADD DUP3 DUP1 SLOAD PUSH2 0x584 SWAP1 PUSH2 0xEBD JUMP JUMPDEST DUP1 ISZERO PUSH2 0x5CF JUMPI DUP1 PUSH1 0x1F LT PUSH2 0x5A6 JUMPI PUSH2 0x100 DUP1 DUP4 SLOAD DIV MUL DUP4 MSTORE SWAP2 PUSH1 0x20 ADD SWAP2 PUSH2 0x5CF JUMP JUMPDEST DUP3 ADD SWAP2 SWAP1 PUSH0 MSTORE PUSH1 0x20 PUSH0 KECCAK256 SWAP1 JUMPDEST DUP2 SLOAD DUP2 MSTORE SWAP1 PUSH1 0x1 ADD SWAP1 PUSH1 0x20 ADD DUP1 DUP4 GT PUSH2 0x5B2 JUMPI DUP3 SWAP1 SUB PUSH1 0x1F AND DUP3 ADD SWAP2 JUMPDEST POP POP POP POP POP SWAP2 POP SWAP4 POP SWAP4 POP SWAP4 POP SWAP4 POP SWAP2 SWAP4 POP SWAP2 SWAP4 JUMP JUMPDEST PUSH1 0x4 SLOAD DUP2 JUMP JUMPDEST PUSH1 0x3 SLOAD DUP2 JUMP JUMPDEST PUSH0 PUSH1 0x2 SLOAD SWAP1 POP SWAP1 JUMP JUMPDEST DUP2 PUSH1 0x4 DUP2 SWAP1 SSTORE POP DUP1 PUSH1 0x3 DUP2 SWAP1 SSTORE POP POP POP JUMP JUMPDEST PUSH1 0x1 PUSH1 0x20 MSTORE DUP1 PUSH0 MSTORE PUSH1 0x40 PUSH0 KECCAK256 PUSH0 SWAP2 POP SLOAD SWAP1 PUSH2 0x100 EXP SWAP1 DIV PUSH1 0xFF AND DUP2 JUMP JUMPDEST PUSH0 PUSH1 0x1 PUSH0 CALLER PUSH20 0xFFFFFFFFFFFFFFFFFFFFFFFFFFFFFFFFFFFFFFFF AND PUSH20 0xFFFFFFFFFFFFFFFFFFFFFFFFFFFFFFFFFFFFFFFF AND DUP2 MSTORE PUSH1 0x20 ADD SWAP1 DUP2 MSTORE PUSH1 0x20 ADD PUSH0 KECCAK256 PUSH0 SWAP1 SLOAD SWAP1 PUSH2 0x100 EXP SWAP1 DIV PUSH1 0xFF AND SWAP1 POP SWAP1 JUMP JUMPDEST PUSH1 0x2 SLOAD DUP2 JUMP JUMPDEST PUSH0 PUSH1 0x2 PUSH0 DUP2 SLOAD DUP1 SWAP3 SWAP2 SWAP1 PUSH2 0x692 SWAP1 PUSH2 0xE49 JUMP JUMPDEST SWAP2 SWAP1 POP SSTORE POP PUSH1 0x40 MLOAD DUP1 PUSH1 0x80 ADD PUSH1 0x40 MSTORE DUP1 PUSH1 0x2 SLOAD DUP2 MSTORE PUSH1 0x20 ADD DUP5 DUP2 MSTORE PUSH1 0x20 ADD DUP4 DUP2 MSTORE PUSH1 0x20 ADD PUSH0 DUP2 MSTORE POP PUSH0 DUP1 PUSH1 0x2 SLOAD DUP2 MSTORE PUSH1 0x20 ADD SWAP1 DUP2 MSTORE PUSH1 0x20 ADD PUSH0 KECCAK256 PUSH0 DUP3 ADD MLOAD DUP2 PUSH0 ADD SSTORE PUSH1 0x20 DUP3 ADD MLOAD DUP2 PUSH1 0x1 ADD SWAP1 DUP2 PUSH2 0x6E9 SWAP2 SWAP1 PUSH2 0x108A JUMP JUMPDEST POP PUSH1 0x40 DUP3 ADD MLOAD DUP2 PUSH1 0x2 ADD SWAP1 DUP2 PUSH2 0x6FF SWAP2 SWAP1 PUSH2 0x108A JUMP JUMPDEST POP PUSH1 0x60 DUP3 ADD MLOAD DUP2 PUSH1 0x3 ADD SSTORE SWAP1 POP POP PUSH32 0x77B4DCB988ABB2C1590106152EA1343570A0DC2311B55AF21E6A5EB6BD02278A PUSH1 0x2 SLOAD DUP5 DUP5 PUSH1 0x40 MLOAD PUSH2 0x742 SWAP4 SWAP3 SWAP2 SWAP1 PUSH2 0x1159 JUMP JUMPDEST PUSH1 0x40 MLOAD DUP1 SWAP2 SUB SWAP1 LOG1 PUSH1 0x2 SLOAD SWAP1 POP SWAP3 SWAP2 POP POP JUMP JUMPDEST PUSH0 PUSH1 0x20 MSTORE DUP1 PUSH0 MSTORE PUSH1 0x40 PUSH0 KECCAK256 PUSH0 SWAP2 POP SWAP1 POP DUP1 PUSH0 ADD SLOAD SWAP1 DUP1 PUSH1 0x1 ADD DUP1 SLOAD PUSH2 0x779 SWAP1 PUSH2 0xEBD JUMP JUMPDEST DUP1 PUSH1 0x1F ADD PUSH1 0x20 DUP1 SWAP2 DIV MUL PUSH1 0x20 ADD PUSH1 0x40 MLOAD SWAP1 DUP2 ADD PUSH1 0x40 MSTORE DUP1 SWAP3 SWAP2 SWAP1 DUP2 DUP2 MSTORE PUSH1 0x20 ADD DUP3 DUP1 SLOAD PUSH2 0x7A5 SWAP1 PUSH2 0xEBD JUMP JUMPDEST DUP1 ISZERO PUSH2 0x7F0 JUMPI DUP1 PUSH1 0x1F LT PUSH2 0x7C7 JUMPI PUSH2 0x100 DUP1 DUP4 SLOAD DIV MUL DUP4 MSTORE SWAP2 PUSH1 0x20 ADD SWAP2 PUSH2 0x7F0 JUMP JUMPDEST DUP3 ADD SWAP2 SWAP1 PUSH0 MSTORE PUSH1 0x20 PUSH0 KECCAK256 SWAP1 JUMPDEST DUP2 SLOAD DUP2 MSTORE SWAP1 PUSH1 0x1 ADD SWAP1 PUSH1 0x20 ADD DUP1 DUP4 GT PUSH2 0x7D3 JUMPI DUP3 SWAP1 SUB PUSH1 0x1F AND DUP3 ADD SWAP2 JUMPDEST POP POP POP POP POP SWAP1 DUP1 PUSH1 0x2 ADD DUP1 SLOAD PUSH2 0x805 SWAP1 PUSH2 0xEBD JUMP JUMPDEST DUP1 PUSH1 0x1F ADD PUSH1 0x20 DUP1 SWAP2 DIV MUL PUSH1 0x20 ADD PUSH1 0x40 MLOAD SWAP1 DUP2 ADD PUSH1 0x40 MSTORE DUP1 SWAP3 SWAP2 SWAP1 DUP2 DUP2 MSTORE PUSH1 0x20 ADD DUP3 DUP1 SLOAD PUSH2 0x831 SWAP1 PUSH2 0xEBD JUMP JUMPDEST DUP1 ISZERO PUSH2 0x87C JUMPI DUP1 PUSH1 0x1F LT PUSH2 0x853 JUMPI PUSH2 0x100 DUP1 DUP4 SLOAD DIV MUL DUP4 MSTORE SWAP2 PUSH1 0x20 ADD SWAP2 PUSH2 0x87C JUMP JUMPDEST DUP3 ADD SWAP2 SWAP1 PUSH0 MSTORE PUSH1 0x20 PUSH0 KECCAK256 SWAP1 JUMPDEST DUP2 SLOAD DUP2 MSTORE SWAP1 PUSH1 0x1 ADD SWAP1 PUSH1 0x20 ADD DUP1 DUP4 GT PUSH2 0x85F JUMPI DUP3 SWAP1 SUB PUSH1 0x1F AND DUP3 ADD SWAP2 JUMPDEST POP POP POP POP POP SWAP1 DUP1 PUSH1 0x3 ADD SLOAD SWAP1 POP DUP5 JUMP JUMPDEST PUSH0 PUSH1 0x40 MLOAD SWAP1 POP SWAP1 JUMP JUMPDEST PUSH0 DUP1 REVERT JUMPDEST PUSH0 DUP1 REVERT JUMPDEST PUSH0 DUP2 SWAP1 POP SWAP2 SWAP1 POP JUMP JUMPDEST PUSH2 0x8AF DUP2 PUSH2 0x89D JUMP JUMPDEST DUP2 EQ PUSH2 0x8B9 JUMPI PUSH0 DUP1 REVERT JUMPDEST POP JUMP JUMPDEST PUSH0 DUP2 CALLDATALOAD SWAP1 POP PUSH2 0x8CA DUP2 PUSH2 0x8A6 JUMP JUMPDEST SWAP3 SWAP2 POP POP JUMP JUMPDEST PUSH0 PUSH1 0x20 DUP3 DUP5 SUB SLT ISZERO PUSH2 0x8E5 JUMPI PUSH2 0x8E4 PUSH2 0x895 JUMP JUMPDEST JUMPDEST PUSH0 PUSH2 0x8F2 DUP5 DUP3 DUP6 ADD PUSH2 0x8BC JUMP JUMPDEST SWAP2 POP POP SWAP3 SWAP2 POP POP JUMP JUMPDEST PUSH2 0x904 DUP2 PUSH2 0x89D JUMP JUMPDEST DUP3 MSTORE POP POP JUMP JUMPDEST PUSH0 DUP2 MLOAD SWAP1 POP SWAP2 SWAP1 POP JUMP JUMPDEST PUSH0 DUP3 DUP3 MSTORE PUSH1 0x20 DUP3 ADD SWAP1 POP SWAP3 SWAP2 POP POP JUMP JUMPDEST DUP3 DUP2 DUP4 MCOPY PUSH0 DUP4 DUP4 ADD MSTORE POP POP POP JUMP JUMPDEST PUSH0 PUSH1 0x1F NOT PUSH1 0x1F DUP4 ADD AND SWAP1 POP SWAP2 SWAP1 POP JUMP JUMPDEST PUSH0 PUSH2 0x94C DUP3 PUSH2 0x90A JUMP JUMPDEST PUSH2 0x956 DUP2 DUP6 PUSH2 0x914 JUMP JUMPDEST SWAP4 POP PUSH2 0x966 DUP2 DUP6 PUSH1 0x20 DUP7 ADD PUSH2 0x924 JUMP JUMPDEST PUSH2 0x96F DUP2 PUSH2 0x932 JUMP JUMPDEST DUP5 ADD SWAP2 POP POP SWAP3 SWAP2 POP POP JUMP JUMPDEST PUSH0 PUSH1 0x80 DUP3 ADD SWAP1 POP PUSH2 0x98D PUSH0 DUP4 ADD DUP8 PUSH2 0x8FB JUMP JUMPDEST DUP2 DUP2 SUB PUSH1 0x20 DUP4 ADD MSTORE PUSH2 0x99F DUP2 DUP7 PUSH2 0x942 JUMP JUMPDEST SWAP1 POP DUP2 DUP2 SUB PUSH1 0x40 DUP4 ADD MSTORE PUSH2 0x9B3 DUP2 DUP6 PUSH2 0x942 JUMP JUMPDEST SWAP1 POP PUSH2 0x9C2 PUSH1 0x60 DUP4 ADD DUP5 PUSH2 0x8FB JUMP JUMPDEST SWAP6 SWAP5 POP POP POP POP POP JUMP JUMPDEST PUSH0 PUSH1 0x20 DUP3 ADD SWAP1 POP PUSH2 0x9DE PUSH0 DUP4 ADD DUP5 PUSH2 0x8FB JUMP JUMPDEST SWAP3 SWAP2 POP POP JUMP JUMPDEST PUSH0 DUP1 PUSH1 0x40 DUP4 DUP6 SUB SLT ISZERO PUSH2 0x9FA JUMPI PUSH2 0x9F9 PUSH2 0x895 JUMP JUMPDEST JUMPDEST PUSH0 PUSH2 0xA07 DUP6 DUP3 DUP7 ADD PUSH2 0x8BC JUMP JUMPDEST SWAP3 POP POP PUSH1 0x20 PUSH2 0xA18 DUP6 DUP3 DUP7 ADD PUSH2 0x8BC JUMP JUMPDEST SWAP2 POP POP SWAP3 POP SWAP3 SWAP1 POP JUMP JUMPDEST PUSH0 PUSH20 0xFFFFFFFFFFFFFFFFFFFFFFFFFFFFFFFFFFFFFFFF DUP3 AND SWAP1 POP SWAP2 SWAP1 POP JUMP JUMPDEST PUSH0 PUSH2 0xA4B DUP3 PUSH2 0xA22 JUMP JUMPDEST SWAP1 POP SWAP2 SWAP1 POP JUMP JUMPDEST PUSH2 0xA5B DUP2 PUSH2 0xA41 JUMP JUMPDEST DUP2 EQ PUSH2 0xA65 JUMPI PUSH0 DUP1 REVERT JUMPDEST POP JUMP JUMPDEST PUSH0 DUP2 CALLDATALOAD SWAP1 POP PUSH2 0xA76 DUP2 PUSH2 0xA52 JUMP JUMPDEST SWAP3 SWAP2 POP POP JUMP JUMPDEST PUSH0 PUSH1 0x20 DUP3 DUP5 SUB SLT ISZERO PUSH2 0xA91 JUMPI PUSH2 0xA90 PUSH2 0x895 JUMP JUMPDEST JUMPDEST PUSH0 PUSH2 0xA9E DUP5 DUP3 DUP6 ADD PUSH2 0xA68 JUMP JUMPDEST SWAP2 POP POP SWAP3 SWAP2 POP POP JUMP JUMPDEST PUSH0 DUP2 ISZERO ISZERO SWAP1 POP SWAP2 SWAP1 POP JUMP JUMPDEST PUSH2 0xABB DUP2 PUSH2 0xAA7 JUMP JUMPDEST DUP3 MSTORE POP POP JUMP JUMPDEST PUSH0 PUSH1 0x20 DUP3 ADD SWAP1 POP PUSH2 0xAD4 PUSH0 DUP4 ADD DUP5 PUSH2 0xAB2 JUMP JUMPDEST SWAP3 SWAP2 POP POP JUMP JUMPDEST PUSH0 DUP1 REVERT JUMPDEST PUSH0 DUP1 REVERT JUMPDEST PUSH32 0x4E487B7100000000000000000000000000000000000000000000000000000000 PUSH0 MSTORE PUSH1 0x41 PUSH1 0x4 MSTORE PUSH1 0x24 PUSH0 REVERT JUMPDEST PUSH2 0xB18 DUP3 PUSH2 0x932 JUMP JUMPDEST DUP2 ADD DUP2 DUP2 LT PUSH8 0xFFFFFFFFFFFFFFFF DUP3 GT OR ISZERO PUSH2 0xB37 JUMPI PUSH2 0xB36 PUSH2 0xAE2 JUMP JUMPDEST JUMPDEST DUP1 PUSH1 0x40 MSTORE POP POP POP JUMP JUMPDEST PUSH0 PUSH2 0xB49 PUSH2 0x88C JUMP JUMPDEST SWAP1 POP PUSH2 0xB55 DUP3 DUP3 PUSH2 0xB0F JUMP JUMPDEST SWAP2 SWAP1 POP JUMP JUMPDEST PUSH0 PUSH8 0xFFFFFFFFFFFFFFFF DUP3 GT ISZERO PUSH2 0xB74 JUMPI PUSH2 0xB73 PUSH2 0xAE2 JUMP JUMPDEST JUMPDEST PUSH2 0xB7D DUP3 PUSH2 0x932 JUMP JUMPDEST SWAP1 POP PUSH1 0x20 DUP2 ADD SWAP1 POP SWAP2 SWAP1 POP JUMP JUMPDEST DUP3 DUP2 DUP4 CALLDATACOPY PUSH0 DUP4 DUP4 ADD MSTORE POP POP POP JUMP JUMPDEST PUSH0 PUSH2 0xBAA PUSH2 0xBA5 DUP5 PUSH2 0xB5A JUMP JUMPDEST PUSH2 0xB40 JUMP JUMPDEST SWAP1 POP DUP3 DUP2 MSTORE PUSH1 0x20 DUP2 ADD DUP5 DUP5 DUP5 ADD GT ISZERO PUSH2 0xBC6 JUMPI PUSH2 0xBC5 PUSH2 0xADE JUMP JUMPDEST JUMPDEST PUSH2 0xBD1 DUP5 DUP3 DUP6 PUSH2 0xB8A JUMP JUMPDEST POP SWAP4 SWAP3 POP POP POP JUMP JUMPDEST PUSH0 DUP3 PUSH1 0x1F DUP4 ADD SLT PUSH2 0xBED JUMPI PUSH2 0xBEC PUSH2 0xADA JUMP JUMPDEST JUMPDEST DUP2 CALLDATALOAD PUSH2 0xBFD DUP5 DUP3 PUSH1 0x20 DUP7 ADD PUSH2 0xB98 JUMP JUMPDEST SWAP2 POP POP SWAP3 SWAP2 POP POP JUMP JUMPDEST PUSH0 DUP1 PUSH1 0x40 DUP4 DUP6 SUB SLT ISZERO PUSH2 0xC1C JUMPI PUSH2 0xC1B PUSH2 0x895 JUMP JUMPDEST JUMPDEST PUSH0 DUP4 ADD CALLDATALOAD PUSH8 0xFFFFFFFFFFFFFFFF DUP2 GT ISZERO PUSH2 0xC39 JUMPI PUSH2 0xC38 PUSH2 0x899 JUMP JUMPDEST JUMPDEST PUSH2 0xC45 DUP6 DUP3 DUP7 ADD PUSH2 0xBD9 JUMP JUMPDEST SWAP3 POP POP PUSH1 0x20 DUP4 ADD CALLDATALOAD PUSH8 0xFFFFFFFFFFFFFFFF DUP2 GT ISZERO PUSH2 0xC66 JUMPI PUSH2 0xC65 PUSH2 0x899 JUMP JUMPDEST JUMPDEST PUSH2 0xC72 DUP6 DUP3 DUP7 ADD PUSH2 0xBD9 JUMP JUMPDEST SWAP2 POP POP SWAP3 POP SWAP3 SWAP1 POP JUMP JUMPDEST PUSH32 0x566F74696E6720686173206E6F74207374617274656420796574000000000000 PUSH0 DUP3 ADD MSTORE POP JUMP JUMPDEST PUSH0 PUSH2 0xCB0 PUSH1 0x1A DUP4 PUSH2 0x914 JUMP JUMPDEST SWAP2 POP PUSH2 0xCBB DUP3 PUSH2 0xC7C JUMP JUMPDEST PUSH1 0x20 DUP3 ADD SWAP1 POP SWAP2 SWAP1 POP JUMP JUMPDEST PUSH0 PUSH1 0x20 DUP3 ADD SWAP1 POP DUP2 DUP2 SUB PUSH0 DUP4 ADD MSTORE PUSH2 0xCDD DUP2 PUSH2 0xCA4 JUMP JUMPDEST SWAP1 POP SWAP2 SWAP1 POP JUMP JUMPDEST PUSH32 0x566F746520436C6F736564000000000000000000000000000000000000000000 PUSH0 DUP3 ADD MSTORE POP JUMP JUMPDEST PUSH0 PUSH2 0xD18 PUSH1 0xB DUP4 PUSH2 0x914 JUMP JUMPDEST SWAP2 POP PUSH2 0xD23 DUP3 PUSH2 0xCE4 JUMP JUMPDEST PUSH1 0x20 DUP3 ADD SWAP1 POP SWAP2 SWAP1 POP JUMP JUMPDEST PUSH0 PUSH1 0x20 DUP3 ADD SWAP1 POP DUP2 DUP2 SUB PUSH0 DUP4 ADD MSTORE PUSH2 0xD45 DUP2 PUSH2 0xD0C JUMP JUMPDEST SWAP1 POP SWAP2 SWAP1 POP JUMP JUMPDEST PUSH32 0x496E76616C6964206E6F6D696E65652049440000000000000000000000000000 PUSH0 DUP3 ADD MSTORE POP JUMP JUMPDEST PUSH0 PUSH2 0xD80 PUSH1 0x12 DUP4 PUSH2 0x914 JUMP JUMPDEST SWAP2 POP PUSH2 0xD8B DUP3 PUSH2 0xD4C JUMP JUMPDEST PUSH1 0x20 DUP3 ADD SWAP1 POP SWAP2 SWAP1 POP JUMP JUMPDEST PUSH0 PUSH1 0x20 DUP3 ADD SWAP1 POP DUP2 DUP2 SUB PUSH0 DUP4 ADD MSTORE PUSH2 0xDAD DUP2 PUSH2 0xD74 JUMP JUMPDEST SWAP1 POP SWAP2 SWAP1 POP JUMP JUMPDEST PUSH32 0x596F75206861766520616C726561647920766F74656400000000000000000000 PUSH0 DUP3 ADD MSTORE POP JUMP JUMPDEST PUSH0 PUSH2 0xDE8 PUSH1 0x16 DUP4 PUSH2 0x914 JUMP JUMPDEST SWAP2 POP PUSH2 0xDF3 DUP3 PUSH2 0xDB4 JUMP JUMPDEST PUSH1 0x20 DUP3 ADD SWAP1 POP SWAP2 SWAP1 POP JUMP JUMPDEST PUSH0 PUSH1 0x20 DUP3 ADD SWAP1 POP DUP2 DUP2 SUB PUSH0 DUP4 ADD MSTORE PUSH2 0xE15 DUP2 PUSH2 0xDDC JUMP JUMPDEST SWAP1 POP SWAP2 SWAP1 POP JUMP JUMPDEST PUSH32 0x4E487B7100000000000000000000000000000000000000000000000000000000 PUSH0 MSTORE PUSH1 0x11 PUSH1 0x4 MSTORE PUSH1 0x24 PUSH0 REVERT JUMPDEST PUSH0 PUSH2 0xE53 DUP3 PUSH2 0x89D JUMP JUMPDEST SWAP2 POP PUSH32 0xFFFFFFFFFFFFFFFFFFFFFFFFFFFFFFFFFFFFFFFFFFFFFFFFFFFFFFFFFFFFFFFF DUP3 SUB PUSH2 0xE85 JUMPI PUSH2 0xE84 PUSH2 0xE1C JUMP JUMPDEST JUMPDEST PUSH1 0x1 DUP3 ADD SWAP1 POP SWAP2 SWAP1 POP JUMP JUMPDEST PUSH32 0x4E487B7100000000000000000000000000000000000000000000000000000000 PUSH0 MSTORE PUSH1 0x22 PUSH1 0x4 MSTORE PUSH1 0x24 PUSH0 REVERT JUMPDEST PUSH0 PUSH1 0x2 DUP3 DIV SWAP1 POP PUSH1 0x1 DUP3 AND DUP1 PUSH2 0xED4 JUMPI PUSH1 0x7F DUP3 AND SWAP2 POP JUMPDEST PUSH1 0x20 DUP3 LT DUP2 SUB PUSH2 0xEE7 JUMPI PUSH2 0xEE6 PUSH2 0xE90 JUMP JUMPDEST JUMPDEST POP SWAP2 SWAP1 POP JUMP JUMPDEST PUSH0 DUP2 SWAP1 POP DUP2 PUSH0 MSTORE PUSH1 0x20 PUSH0 KECCAK256 SWAP1 POP SWAP2 SWAP1 POP JUMP JUMPDEST PUSH0 PUSH1 0x20 PUSH1 0x1F DUP4 ADD DIV SWAP1 POP SWAP2 SWAP1 POP JUMP JUMPDEST PUSH0 DUP3 DUP3 SHL SWAP1 POP SWAP3 SWAP2 POP POP JUMP JUMPDEST PUSH0 PUSH1 0x8 DUP4 MUL PUSH2 0xF49 PUSH32 0xFFFFFFFFFFFFFFFFFFFFFFFFFFFFFFFFFFFFFFFFFFFFFFFFFFFFFFFFFFFFFFFF DUP3 PUSH2 0xF0E JUMP JUMPDEST PUSH2 0xF53 DUP7 DUP4 PUSH2 0xF0E JUMP JUMPDEST SWAP6 POP DUP1 NOT DUP5 AND SWAP4 POP DUP1 DUP7 AND DUP5 OR SWAP3 POP POP POP SWAP4 SWAP3 POP POP POP JUMP JUMPDEST PUSH0 DUP2 SWAP1 POP SWAP2 SWAP1 POP JUMP JUMPDEST PUSH0 PUSH2 0xF8E PUSH2 0xF89 PUSH2 0xF84 DUP5 PUSH2 0x89D JUMP JUMPDEST PUSH2 0xF6B JUMP JUMPDEST PUSH2 0x89D JUMP JUMPDEST SWAP1 POP SWAP2 SWAP1 POP JUMP JUMPDEST PUSH0 DUP2 SWAP1 POP SWAP2 SWAP1 POP JUMP JUMPDEST PUSH2 0xFA7 DUP4 PUSH2 0xF74 JUMP JUMPDEST PUSH2 0xFBB PUSH2 0xFB3 DUP3 PUSH2 0xF95 JUMP JUMPDEST DUP5 DUP5 SLOAD PUSH2 0xF1A JUMP JUMPDEST DUP3 SSTORE POP POP POP POP JUMP JUMPDEST PUSH0 SWAP1 JUMP JUMPDEST PUSH2 0xFCF PUSH2 0xFC3 JUMP JUMPDEST PUSH2 0xFDA DUP2 DUP5 DUP5 PUSH2 0xF9E JUMP JUMPDEST POP POP POP JUMP JUMPDEST JUMPDEST DUP2 DUP2 LT ISZERO PUSH2 0xFFD JUMPI PUSH2 0xFF2 PUSH0 DUP3 PUSH2 0xFC7 JUMP JUMPDEST PUSH1 0x1 DUP2 ADD SWAP1 POP PUSH2 0xFE0 JUMP JUMPDEST POP POP JUMP JUMPDEST PUSH1 0x1F DUP3 GT ISZERO PUSH2 0x1042 JUMPI PUSH2 0x1013 DUP2 PUSH2 0xEED JUMP JUMPDEST PUSH2 0x101C DUP5 PUSH2 0xEFF JUMP JUMPDEST DUP2 ADD PUSH1 0x20 DUP6 LT ISZERO PUSH2 0x102B JUMPI DUP2 SWAP1 POP JUMPDEST PUSH2 0x103F PUSH2 0x1037 DUP6 PUSH2 0xEFF JUMP JUMPDEST DUP4 ADD DUP3 PUSH2 0xFDF JUMP JUMPDEST POP POP JUMPDEST POP POP POP JUMP JUMPDEST PUSH0 DUP3 DUP3 SHR SWAP1 POP SWAP3 SWAP2 POP POP JUMP JUMPDEST PUSH0 PUSH2 0x1062 PUSH0 NOT DUP5 PUSH1 0x8 MUL PUSH2 0x1047 JUMP JUMPDEST NOT DUP1 DUP4 AND SWAP2 POP POP SWAP3 SWAP2 POP POP JUMP JUMPDEST PUSH0 PUSH2 0x107A DUP4 DUP4 PUSH2 0x1053 JUMP JUMPDEST SWAP2 POP DUP3 PUSH1 0x2 MUL DUP3 OR SWAP1 POP SWAP3 SWAP2 POP POP JUMP JUMPDEST PUSH2 0x1093 DUP3 PUSH2 0x90A JUMP JUMPDEST PUSH8 0xFFFFFFFFFFFFFFFF DUP2 GT ISZERO PUSH2 0x10AC JUMPI PUSH2 0x10AB PUSH2 0xAE2 JUMP JUMPDEST JUMPDEST PUSH2 0x10B6 DUP3 SLOAD PUSH2 0xEBD JUMP JUMPDEST PUSH2 0x10C1 DUP3 DUP3 DUP6 PUSH2 0x1001 JUMP JUMPDEST PUSH0 PUSH1 0x20 SWAP1 POP PUSH1 0x1F DUP4 GT PUSH1 0x1 DUP2 EQ PUSH2 0x10F2 JUMPI PUSH0 DUP5 ISZERO PUSH2 0x10E0 JUMPI DUP3 DUP8 ADD MLOAD SWAP1 POP JUMPDEST PUSH2 0x10EA DUP6 DUP3 PUSH2 0x106F JUMP JUMPDEST DUP7 SSTORE POP PUSH2 0x1151 JUMP JUMPDEST PUSH1 0x1F NOT DUP5 AND PUSH2 0x1100 DUP7 PUSH2 0xEED JUMP JUMPDEST PUSH0 JUMPDEST DUP3 DUP2 LT ISZERO PUSH2 0x1127 JUMPI DUP5 DUP10 ADD MLOAD DUP3 SSTORE PUSH1 0x1 DUP3 ADD SWAP2 POP PUSH1 0x20 DUP6 ADD SWAP5 POP PUSH1 0x20 DUP2 ADD SWAP1 POP PUSH2 0x1102 JUMP JUMPDEST DUP7 DUP4 LT ISZERO PUSH2 0x1144 JUMPI DUP5 DUP10 ADD MLOAD PUSH2 0x1140 PUSH1 0x1F DUP10 AND DUP3 PUSH2 0x1053 JUMP JUMPDEST DUP4 SSTORE POP JUMPDEST PUSH1 0x1 PUSH1 0x2 DUP9 MUL ADD DUP9 SSTORE POP POP POP JUMPDEST POP POP POP POP POP POP JUMP JUMPDEST PUSH0 PUSH1 0x60 DUP3 ADD SWAP1 POP PUSH2 0x116C PUSH0 DUP4 ADD DUP7 PUSH2 0x8FB JUMP JUMPDEST DUP2 DUP2 SUB PUSH1 0x20 DUP4 ADD MSTORE PUSH2 0x117E DUP2 DUP6 PUSH2 0x942 JUMP JUMPDEST SWAP1 POP DUP2 DUP2 SUB PUSH1 0x40 DUP4 ADD MSTORE PUSH2 0x1192 DUP2 DUP5 PUSH2 0x942 JUMP JUMPDEST SWAP1 POP SWAP5 SWAP4 POP POP POP POP JUMP INVALID LOG2 PUSH5 0x6970667358 0x22 SLT KECCAK256 0xBD 0xCF LOG2 0xD ADD PUSH23 0xC80C365FB4CF42CCF44763C740661F820513FF9C8DBBAB INVALID 0xF8 PUSH20 0x64736F6C634300081A0033000000000000000000 "
				},
				"gasEstimates": {
					"creation": {
						"codeDepositCost": "912400",
						"executionCost": "946",
						"totalCost": "913346"
					},
					"external": {
						"addNominee(string,string)": "infinite",
						"checkVote()": "2604",
						"countNominees()": "2491",
						"getCountNominee()": "2521",
						"getNominee(uint256)": "infinite",
						"nominees(uint256)": "infinite",
						"setVotingPeriod(uint256,uint256)": "infinite",
						"vote(uint256)": "infinite",
						"voters(address)": "2855",
						"votingBegin()": "2470",
						"votingClose()": "2492"
					}
				},
				"methodIdentifiers": {
					"addNominee(string,string)": "c5e7e32b",
					"checkVote()": "b0417e98",
					"countNominees()": "b04e55ed",
					"getCountNominee()": "592b41d1",
					"getNominee(uint256)": "27ebf531",
					"nominees(uint256)": "eec6b91e",
					"setVotingPeriod(uint256,uint256)": "a15a36c7",
					"vote(uint256)": "0121b93f",
					"voters(address)": "a3ec138d",
					"votingBegin()": "3554fd8f",
					"votingClose()": "36b8ddd3"
				}
			},
			"storageLayout": {
				"storage": [
					{
						"astId": 15,
						"contract": "contracts/Vote.sol:Vote",
						"label": "nominees",
						"offset": 0,
						"slot": "0",
						"type": "t_mapping(t_uint256,t_struct(Nominee)10_storage)"
					},
					{
						"astId": 19,
						"contract": "contracts/Vote.sol:Vote",
						"label": "voters",
						"offset": 0,
						"slot": "1",
						"type": "t_mapping(t_address,t_bool)"
					},
					{
						"astId": 21,
						"contract": "contracts/Vote.sol:Vote",
						"label": "countNominees",
						"offset": 0,
						"slot": "2",
						"type": "t_uint256"
					},
					{
						"astId": 23,
						"contract": "contracts/Vote.sol:Vote",
						"label": "votingClose",
						"offset": 0,
						"slot": "3",
						"type": "t_uint256"
					},
					{
						"astId": 25,
						"contract": "contracts/Vote.sol:Vote",
						"label": "votingBegin",
						"offset": 0,
						"slot": "4",
						"type": "t_uint256"
					}
				],
				"types": {
					"t_address": {
						"encoding": "inplace",
						"label": "address",
						"numberOfBytes": "20"
					},
					"t_bool": {
						"encoding": "inplace",
						"label": "bool",
						"numberOfBytes": "1"
					},
					"t_mapping(t_address,t_bool)": {
						"encoding": "mapping",
						"key": "t_address",
						"label": "mapping(address => bool)",
						"numberOfBytes": "32",
						"value": "t_bool"
					},
					"t_mapping(t_uint256,t_struct(Nominee)10_storage)": {
						"encoding": "mapping",
						"key": "t_uint256",
						"label": "mapping(uint256 => struct Vote.Nominee)",
						"numberOfBytes": "32",
						"value": "t_struct(Nominee)10_storage"
					},
					"t_string_storage": {
						"encoding": "bytes",
						"label": "string",
						"numberOfBytes": "32"
					},
					"t_struct(Nominee)10_storage": {
						"encoding": "inplace",
						"label": "struct Vote.Nominee",
						"members": [
							{
								"astId": 3,
								"contract": "contracts/Vote.sol:Vote",
								"label": "id",
								"offset": 0,
								"slot": "0",
								"type": "t_uint256"
							},
							{
								"astId": 5,
								"contract": "contracts/Vote.sol:Vote",
								"label": "name",
								"offset": 0,
								"slot": "1",
								"type": "t_string_storage"
							},
							{
								"astId": 7,
								"contract": "contracts/Vote.sol:Vote",
								"label": "group",
								"offset": 0,
								"slot": "2",
								"type": "t_string_storage"
							},
							{
								"astId": 9,
								"contract": "contracts/Vote.sol:Vote",
								"label": "voteCount",
								"offset": 0,
								"slot": "3",
								"type": "t_uint256"
							}
						],
						"numberOfBytes": "128"
					},
					"t_uint256": {
						"encoding": "inplace",
						"label": "uint256",
						"numberOfBytes": "32"
					}
				}
			},
			"userdoc": {
				"kind": "user",
				"methods": {},
				"version": 1
			}
		}
	}
}