{
	"contracts/Counter.sol": {
		"Counter": {
			"abi": [
				{
					"inputs": [],
					"name": "count",
					"outputs": [
						{
							"internalType": "uint256",
							"name": "",
							"type": "uint256"
						}
					],
					"stateMutability": "view",
					"type": "function"
				},
				{
					"inputs": [],
					"name": "dec",
					"outputs": [],
					"stateMutability": "nonpayable",
					"type": "function"
				},
				{
					"inputs": [],
					"name": "get",
					"outputs": [
						{
							"internalType": "uint256",
							"name": "",
							"type": "uint256"
						}
					],
					"stateMutability": "view",
					"type": "function"
				},
				{
					"inputs": [],
					"name": "inc",
					"outputs": [],
					"stateMutability": "nonpayable",
					"type": "function"
				},
				{
					"inputs": [],
					"name": "reset",
					"outputs": [],
					"stateMutability": "nonpayable",
					"type": "function"
				}
			],
			"devdoc": {
				"kind": "dev",
				"methods": {},
				"version": 1
			},
			"evm": {
				"assembly": "    /* \"contracts/Counter.sol\":60:633  contract Counter {... */\n  mstore(0x40, 0x80)\n  callvalue\n  dup1\n  iszero\n  tag_1\n  jumpi\n  0x00\n  dup1\n  revert\ntag_1:\n  pop\n  dataSize(sub_0)\n  dup1\n  dataOffset(sub_0)\n  0x00\n  codecopy\n  0x00\n  return\nstop\n\nsub_0: assembly {\n        /* \"contracts/Counter.sol\":60:633  contract Counter {... */\n      mstore(0x40, 0x80)\n      callvalue\n      dup1\n      iszero\n      tag_1\n      jumpi\n      0x00\n      dup1\n      revert\n    tag_1:\n      pop\n      jumpi(tag_2, lt(calldatasize, 0x04))\n      shr(0xe0, calldataload(0x00))\n      dup1\n      0x06661abd\n      eq\n      tag_3\n      jumpi\n      dup1\n      0x371303c0\n      eq\n      tag_4\n      jumpi\n      dup1\n      0x6d4ce63c\n      eq\n      tag_5\n      jumpi\n      dup1\n      0xb3bcfa82\n      eq\n      tag_6\n      jumpi\n      dup1\n      0xd826f88f\n      eq\n      tag_7\n      jumpi\n    tag_2:\n      0x00\n      dup1\n      revert\n        /* \"contracts/Counter.sol\":84:104  uint256 public count */\n    tag_3:\n      tag_8\n      tag_9\n      jump\t// in\n    tag_8:\n      mload(0x40)\n      tag_10\n      swap2\n      swap1\n      tag_11\n      jump\t// in\n    tag_10:\n      mload(0x40)\n      dup1\n      swap2\n      sub\n      swap1\n      return\n        /* \"contracts/Counter.sol\":280:331  function inc() public {... */\n    tag_4:\n      tag_12\n      tag_13\n      jump\t// in\n    tag_12:\n      stop\n        /* \"contracts/Counter.sol\":155:231  function get() public view returns (uint256) {... */\n    tag_5:\n      tag_14\n      tag_15\n      jump\t// in\n    tag_14:\n      mload(0x40)\n      tag_16\n      swap2\n      swap1\n      tag_11\n      jump\t// in\n    tag_16:\n      mload(0x40)\n      dup1\n      swap2\n      sub\n      swap1\n      return\n        /* \"contracts/Counter.sol\":380:530  function dec() public {... */\n    tag_6:\n      tag_17\n      tag_18\n      jump\t// in\n    tag_17:\n      stop\n        /* \"contracts/Counter.sol\":578:630  function reset() public {... */\n    tag_7:\n      tag_19\n      tag_20\n      jump\t// in\n    tag_19:\n      stop\n        /* \"contracts/Counter.sol\":84:104  uint256 public count */\n    tag_9:\n      sload(0x00)\n      dup2\n      jump\t// out\n        /* \"contracts/Counter.sol\":280:331  function inc() public {... */\n    tag_13:\n        /* \"contracts/Counter.sol\":322:323  1 */\n      0x01\n        /* \"contracts/Counter.sol\":313:318  count */\n      0x00\n      dup1\n        /* \"contracts/Counter.sol\":313:323  count += 1 */\n      dup3\n      dup3\n      sload\n      tag_22\n      swap2\n      swap1\n      tag_23\n      jump\t// in\n    tag_22:\n      swap3\n      pop\n      pop\n      dup2\n      swap1\n      sstore\n      pop\n        /* \"contracts/Counter.sol\":280:331  function inc() public {... */\n      jump\t// out\n        /* \"contracts/Counter.sol\":155:231  function get() public view returns (uint256) {... */\n    tag_15:\n        /* \"contracts/Counter.sol\":191:198  uint256 */\n      0x00\n        /* \"contracts/Counter.sol\":218:223  count */\n      dup1\n      sload\n        /* \"contracts/Counter.sol\":211:223  return count */\n      swap1\n      pop\n        /* \"contracts/Counter.sol\":155:231  function get() public view returns (uint256) {... */\n      swap1\n      jump\t// out\n        /* \"contracts/Counter.sol\":380:530  function dec() public {... */\n    tag_18:\n        /* \"contracts/Counter.sol\":459:460  0 */\n      0x00\n        /* \"contracts/Counter.sol\":451:456  count */\n      dup1\n      sload\n        /* \"contracts/Counter.sol\":451:460  count > 0 */\n      gt\n        /* \"contracts/Counter.sol\":443:501  require(count > 0, \"Counter: cannot decrement below zero\") */\n      tag_26\n      jumpi\n      mload(0x40)\n      0x08c379a000000000000000000000000000000000000000000000000000000000\n      dup2\n      mstore\n      0x04\n      add\n      tag_27\n      swap1\n      tag_28\n      jump\t// in\n    tag_27:\n      mload(0x40)\n      dup1\n      swap2\n      sub\n      swap1\n      revert\n    tag_26:\n        /* \"contracts/Counter.sol\":521:522  1 */\n      0x01\n        /* \"contracts/Counter.sol\":512:517  count */\n      0x00\n      dup1\n        /* \"contracts/Counter.sol\":512:522  count -= 1 */\n      dup3\n      dup3\n      sload\n      tag_29\n      swap2\n      swap1\n      tag_30\n      jump\t// in\n    tag_29:\n      swap3\n      pop\n      pop\n      dup2\n      swap1\n      sstore\n      pop\n        /* \"contracts/Counter.sol\":380:530  function dec() public {... */\n      jump\t// out\n        /* \"contracts/Counter.sol\":578:630  function reset() public {... */\n    tag_20:\n        /* \"contracts/Counter.sol\":621:622  0 */\n      0x00\n        /* \"contracts/Counter.sol\":613:618  count */\n      dup1\n        /* \"contracts/Counter.sol\":613:622  count = 0 */\n      dup2\n      swap1\n      sstore\n      pop\n        /* \"contracts/Counter.sol\":578:630  function reset() public {... */\n      jump\t// out\n        /* \"#utility.yul\":7:84   */\n    tag_32:\n        /* \"#utility.yul\":44:51   */\n      0x00\n        /* \"#utility.yul\":73:78   */\n      dup2\n        /* \"#utility.yul\":62:78   */\n      swap1\n      pop\n        /* \"#utility.yul\":7:84   */\n      swap2\n      swap1\n      pop\n      jump\t// out\n        /* \"#utility.yul\":90:208   */\n    tag_33:\n        /* \"#utility.yul\":177:201   */\n      tag_41\n        /* \"#utility.yul\":195:200   */\n      dup2\n        /* \"#utility.yul\":177:201   */\n      tag_32\n      jump\t// in\n    tag_41:\n        /* \"#utility.yul\":172:175   */\n      dup3\n        /* \"#utility.yul\":165:202   */\n      mstore\n        /* \"#utility.yul\":90:208   */\n      pop\n      pop\n      jump\t// out\n        /* \"#utility.yul\":214:436   */\n    tag_11:\n        /* \"#utility.yul\":307:311   */\n      0x00\n        /* \"#utility.yul\":345:347   */\n      0x20\n        /* \"#utility.yul\":334:343   */\n      dup3\n        /* \"#utility.yul\":330:348   */\n      add\n        /* \"#utility.yul\":322:348   */\n      swap1\n      pop\n        /* \"#utility.yul\":358:429   */\n      tag_43\n        /* \"#utility.yul\":426:427   */\n      0x00\n        /* \"#utility.yul\":415:424   */\n      dup4\n        /* \"#utility.yul\":411:428   */\n      add\n        /* \"#utility.yul\":402:408   */\n      dup5\n        /* \"#utility.yul\":358:429   */\n      tag_33\n      jump\t// in\n    tag_43:\n        /* \"#utility.yul\":214:436   */\n      swap3\n      swap2\n      pop\n      pop\n      jump\t// out\n        /* \"#utility.yul\":442:622   */\n    tag_34:\n        /* \"#utility.yul\":490:567   */\n      0x4e487b7100000000000000000000000000000000000000000000000000000000\n        /* \"#utility.yul\":487:488   */\n      0x00\n        /* \"#utility.yul\":480:568   */\n      mstore\n        /* \"#utility.yul\":587:591   */\n      0x11\n        /* \"#utility.yul\":584:585   */\n      0x04\n        /* \"#utility.yul\":577:592   */\n      mstore\n        /* \"#utility.yul\":611:615   */\n      0x24\n        /* \"#utility.yul\":608:609   */\n      0x00\n        /* \"#utility.yul\":601:616   */\n      revert\n        /* \"#utility.yul\":628:819   */\n    tag_23:\n        /* \"#utility.yul\":668:671   */\n      0x00\n        /* \"#utility.yul\":687:707   */\n      tag_46\n        /* \"#utility.yul\":705:706   */\n      dup3\n        /* \"#utility.yul\":687:707   */\n      tag_32\n      jump\t// in\n    tag_46:\n        /* \"#utility.yul\":682:707   */\n      swap2\n      pop\n        /* \"#utility.yul\":721:741   */\n      tag_47\n        /* \"#utility.yul\":739:740   */\n      dup4\n        /* \"#utility.yul\":721:741   */\n      tag_32\n      jump\t// in\n    tag_47:\n        /* \"#utility.yul\":716:741   */\n      swap3\n      pop\n        /* \"#utility.yul\":764:765   */\n      dup3\n        /* \"#utility.yul\":761:762   */\n      dup3\n        /* \"#utility.yul\":757:766   */\n      add\n        /* \"#utility.yul\":750:766   */\n      swap1\n      pop\n        /* \"#utility.yul\":785:788   */\n      dup1\n        /* \"#utility.yul\":782:783   */\n      dup3\n        /* \"#utility.yul\":779:789   */\n      gt\n        /* \"#utility.yul\":776:812   */\n      iszero\n      tag_48\n      jumpi\n        /* \"#utility.yul\":792:810   */\n      tag_49\n      tag_34\n      jump\t// in\n    tag_49:\n        /* \"#utility.yul\":776:812   */\n    tag_48:\n        /* \"#utility.yul\":628:819   */\n      swap3\n      swap2\n      pop\n      pop\n      jump\t// out\n        /* \"#utility.yul\":825:994   */\n    tag_35:\n        /* \"#utility.yul\":909:920   */\n      0x00\n        /* \"#utility.yul\":943:949   */\n      dup3\n        /* \"#utility.yul\":938:941   */\n      dup3\n        /* \"#utility.yul\":931:950   */\n      mstore\n        /* \"#utility.yul\":983:987   */\n      0x20\n        /* \"#utility.yul\":978:981   */\n      dup3\n        /* \"#utility.yul\":974:988   */\n      add\n        /* \"#utility.yul\":959:988   */\n      swap1\n      pop\n        /* \"#utility.yul\":825:994   */\n      swap3\n      swap2\n      pop\n      pop\n      jump\t// out\n        /* \"#utility.yul\":1000:1223   */\n    tag_36:\n        /* \"#utility.yul\":1140:1174   */\n      0x436f756e7465723a2063616e6e6f742064656372656d656e742062656c6f7720\n        /* \"#utility.yul\":1136:1137   */\n      0x00\n        /* \"#utility.yul\":1128:1134   */\n      dup3\n        /* \"#utility.yul\":1124:1138   */\n      add\n        /* \"#utility.yul\":1117:1175   */\n      mstore\n        /* \"#utility.yul\":1209:1215   */\n      0x7a65726f00000000000000000000000000000000000000000000000000000000\n        /* \"#utility.yul\":1204:1206   */\n      0x20\n        /* \"#utility.yul\":1196:1202   */\n      dup3\n        /* \"#utility.yul\":1192:1207   */\n      add\n        /* \"#utility.yul\":1185:1216   */\n      mstore\n        /* \"#utility.yul\":1000:1223   */\n      pop\n      jump\t// out\n        /* \"#utility.yul\":1229:1595   */\n    tag_37:\n        /* \"#utility.yul\":1371:1374   */\n      0x00\n        /* \"#utility.yul\":1392:1459   */\n      tag_53\n        /* \"#utility.yul\":1456:1458   */\n      0x24\n        /* \"#utility.yul\":1451:1454   */\n      dup4\n        /* \"#utility.yul\":1392:1459   */\n      tag_35\n      jump\t// in\n    tag_53:\n        /* \"#utility.yul\":1385:1459   */\n      swap2\n      pop\n        /* \"#utility.yul\":1468:1561   */\n      tag_54\n        /* \"#utility.yul\":1557:1560   */\n      dup3\n        /* \"#utility.yul\":1468:1561   */\n      tag_36\n      jump\t// in\n    tag_54:\n        /* \"#utility.yul\":1586:1588   */\n      0x40\n        /* \"#utility.yul\":1581:1584   */\n      dup3\n        /* \"#utility.yul\":1577:1589   */\n      add\n        /* \"#utility.yul\":1570:1589   */\n      swap1\n      pop\n        /* \"#utility.yul\":1229:1595   */\n      swap2\n      swap1\n      pop\n      jump\t// out\n        /* \"#utility.yul\":1601:2020   */\n    tag_28:\n        /* \"#utility.yul\":1767:1771   */\n      0x00\n        /* \"#utility.yul\":1805:1807   */\n      0x20\n        /* \"#utility.yul\":1794:1803   */\n      dup3\n        /* \"#utility.yul\":1790:1808   */\n      add\n        /* \"#utility.yul\":1782:1808   */\n      swap1\n      pop\n        /* \"#utility.yul\":1854:1863   */\n      dup2\n        /* \"#utility.yul\":1848:1852   */\n      dup2\n        /* \"#utility.yul\":1844:1864   */\n      sub\n        /* \"#utility.yul\":1840:1841   */\n      0x00\n        /* \"#utility.yul\":1829:1838   */\n      dup4\n        /* \"#utility.yul\":1825:1842   */\n      add\n        /* \"#utility.yul\":1818:1865   */\n      mstore\n        /* \"#utility.yul\":1882:2013   */\n      tag_56\n        /* \"#utility.yul\":2008:2012   */\n      dup2\n        /* \"#utility.yul\":1882:2013   */\n      tag_37\n      jump\t// in\n    tag_56:\n        /* \"#utility.yul\":1874:2013   */\n      swap1\n      pop\n        /* \"#utility.yul\":1601:2020   */\n      swap2\n      swap1\n      pop\n      jump\t// out\n        /* \"#utility.yul\":2026:2220   */\n    tag_30:\n        /* \"#utility.yul\":2066:2070   */\n      0x00\n        /* \"#utility.yul\":2086:2106   */\n      tag_58\n        /* \"#utility.yul\":2104:2105   */\n      dup3\n        /* \"#utility.yul\":2086:2106   */\n      tag_32\n      jump\t// in\n    tag_58:\n        /* \"#utility.yul\":2081:2106   */\n      swap2\n      pop\n        /* \"#utility.yul\":2120:2140   */\n      tag_59\n        /* \"#utility.yul\":2138:2139   */\n      dup4\n        /* \"#utility.yul\":2120:2140   */\n      tag_32\n      jump\t// in\n    tag_59:\n        /* \"#utility.yul\":2115:2140   */\n      swap3\n      pop\n        /* \"#utility.yul\":2164:2165   */\n      dup3\n        /* \"#utility.yul\":2161:2162   */\n      dup3\n        /* \"#utility.yul\":2157:2166   */\n      sub\n        /* \"#utility.yul\":2149:2166   */\n      swap1\n      pop\n        /* \"#utility.yul\":2188:2189   */\n      dup2\n        /* \"#utility.yul\":2182:2186   */\n      dup2\n        /* \"#utility.yul\":2179:2190   */\n      gt\n        /* \"#utility.yul\":2176:2213   */\n      iszero\n      tag_60\n      jumpi\n        /* \"#utility.yul\":2193:2211   */\n      tag_61\n      tag_34\n      jump\t// in\n    tag_61:\n        /* \"#utility.yul\":2176:2213   */\n    tag_60:\n        /* \"#utility.yul\":2026:2220   */\n      swap3\n      swap2\n      pop\n      pop\n      jump\t// out\n\n    auxdata: 0xa2646970667358221220358dc871a6674333a0f3ee3bf45735012f42f46bd4132fc7920d8e64403a584764736f6c634300081a0033\n}\n",
				"bytecode": {
					"linkReferences": {},
					"object": "6080604052348015600e575f80fd5b506102d78061001c5f395ff3fe608060405234801561000f575f80fd5b5060043610610055575f3560e01c806306661abd14610059578063371303c0146100775780636d4ce63c14610081578063b3bcfa821461009f578063d826f88f146100a9575b5f80fd5b6100616100b3565b60405161006e9190610157565b60405180910390f35b61007f6100b8565b005b6100896100d2565b6040516100969190610157565b60405180910390f35b6100a76100da565b005b6100b1610137565b005b5f5481565b60015f808282546100c9919061019d565b92505081905550565b5f8054905090565b5f80541161011d576040517f08c379a000000000000000000000000000000000000000000000000000000000815260040161011490610250565b60405180910390fd5b60015f8082825461012e919061026e565b92505081905550565b5f8081905550565b5f819050919050565b6101518161013f565b82525050565b5f60208201905061016a5f830184610148565b92915050565b7f4e487b71000000000000000000000000000000000000000000000000000000005f52601160045260245ffd5b5f6101a78261013f565b91506101b28361013f565b92508282019050808211156101ca576101c9610170565b5b92915050565b5f82825260208201905092915050565b7f436f756e7465723a2063616e6e6f742064656372656d656e742062656c6f77205f8201527f7a65726f00000000000000000000000000000000000000000000000000000000602082015250565b5f61023a6024836101d0565b9150610245826101e0565b604082019050919050565b5f6020820190508181035f8301526102678161022e565b9050919050565b5f6102788261013f565b91506102838361013f565b925082820390508181111561029b5761029a610170565b5b9291505056fea2646970667358221220358dc871a6674333a0f3ee3bf45735012f42f46bd4132fc7920d8e64403a584764736f6c634300081a0033",
					"opcodes": "PUSH1 0x80 PUSH1 0x40 MSTORE CALLVALUE DUP1 ISZERO PUSH1 0xE JUMPI PUSH0 DUP1 REVERT JUMPDEST POP PUSH2 0x2D7 DUP1 PUSH2 0x1C PUSH0 CODECOPY PUSH0 RETURN INVALID PUSH1 0x80 PUSH1 0x40 MSTORE CALLVALUE DUP1 ISZERO PUSH2 0xF JUMPI PUSH0 DUP1 REVERT JUMPDEST POP PUSH1 0x4 CALLDATASIZE LT PUSH2 0x55 JUMPI PUSH0 CALLDATALOAD PUSH1 0xE0 SHR DUP1 PUSH4 0x6661ABD EQ PUSH2 0x59 JUMPI DUP1 PUSH4 0x371303C0 EQ PUSH2 0x77 JUMPI DUP1 PUSH4 0x6D4CE63C EQ PUSH2 0x81 JUMPI DUP1 PUSH4 0xB3BCFA82 EQ PUSH2 0x9F JUMPI DUP1 PUSH4 0xD826F88F EQ PUSH2 0xA9 JUMPI JUMPDEST PUSH0 DUP1 REVERT JUMPDEST PUSH2 0x61 PUSH2 0xB3 JUMP JUMPDEST PUSH1 0x40 MLOAD PUSH2 0x6E SWAP2 SWAP1 PUSH2 0x157 JUMP JUMPDEST PUSH1 0x40 MLOAD DUP1 SWAP2 SUB SWAP1 RETURN JUMPDEST PUSH2 0x7F PUSH2 0xB8 JUMP JUMPDEST STOP JUMPDEST PUSH2 0x89 PUSH2 0xD2 JUMP JUMPDEST PUSH1 0x40 MLOAD PUSH2 0x96 SWAP2 SWAP1 PUSH2 0x157 JUMP JUMPDEST PUSH1 0x40 MLOAD DUP1 SWAP2 SUB SWAP1 RETURN JUMPDEST PUSH2 0xA7 PUSH2 0xDA JUMP JUMPDEST STOP JUMPDEST PUSH2 0xB1 PUSH2 0x137 JUMP JUMPDEST STOP JUMPDEST PUSH0 SLOAD DUP2 JUMP JUMPDEST PUSH1 0x1 PUSH0 DUP1 DUP3 DUP3 SLOAD PUSH2 0xC9 SWAP2 SWAP1 PUSH2 0x19D JUMP JUMPDEST SWAP3 POP POP DUP2 SWAP1 SSTORE POP JUMP JUMPDEST PUSH0 DUP1 SLOAD SWAP1 POP SWAP1 JUMP JUMPDEST PUSH0 DUP1 SLOAD GT PUSH2 0x11D JUMPI PUSH1 0x40 MLOAD PUSH32 0x8C379A000000000000000000000000000000000000000000000000000000000 DUP2 MSTORE PUSH1 0x4 ADD PUSH2 0x114 SWAP1 PUSH2 0x250 JUMP JUMPDEST PUSH1 0x40 MLOAD DUP1 SWAP2 SUB SWAP1 REVERT JUMPDEST PUSH1 0x1 PUSH0 DUP1 DUP3 DUP3 SLOAD PUSH2 0x12E SWAP2 SWAP1 PUSH2 0x26E JUMP JUMPDEST SWAP3 POP POP DUP2 SWAP1 SSTORE POP JUMP JUMPDEST PUSH0 DUP1 DUP2 SWAP1 SSTORE POP JUMP JUMPDEST PUSH0 DUP2 SWAP1 POP SWAP2 SWAP1 POP JUMP JUMPDEST PUSH2 0x151 DUP2 PUSH2 0x13F JUMP JUMPDEST DUP3 MSTORE POP POP JUMP JUMPDEST PUSH0 PUSH1 0x20 DUP3 ADD SWAP1 POP PUSH2 0x16A PUSH0 DUP4 ADD DUP5 PUSH2 0x148 JUMP JUMPDEST SWAP3 SWAP2 POP POP JUMP JUMPDEST PUSH32 0x4E487B7100000000000000000000000000000000000000000000000000000000 PUSH0 MSTORE PUSH1 0x11 PUSH1 0x4 MSTORE PUSH1 0x24 PUSH0 REVERT JUMPDEST PUSH0 PUSH2 0x1A7 DUP3 PUSH2 0x13F JUMP JUMPDEST SWAP2 POP PUSH2 0x1B2 DUP4 PUSH2 0x13F JUMP JUMPDEST SWAP3 POP DUP3 DUP3 ADD SWAP1 POP DUP1 DUP3 GT ISZERO PUSH2 0x1CA JUMPI PUSH2 0x1C9 PUSH2 0x170 JUMP JUMPDEST JUMPDEST SWAP3 SWAP2 POP POP JUMP JUMPDEST PUSH0 DUP3 DUP3 MSTORE PUSH1 0x20 DUP3 ADD SWAP1 POP SWAP3 SWAP2 POP POP JUMP JUMPDEST PUSH32 0x436F756E7465723A2063616E6E6F742064656372656D656E742062656C6F7720 PUSH0 DUP3 ADD MSTORE PUSH32 0x7A65726F00000000000000000000000000000000000000000000000000000000 PUSH1 0x20 DUP3 ADD MSTORE POP JUMP JUMPDEST PUSH0 PUSH2 0x23A PUSH1 0x24 DUP4 PUSH2 0x1D0 JUMP JUMPDEST SWAP2 POP PUSH2 0x245 DUP3 PUSH2 0x1E0 JUMP JUMPDEST PUSH1 0x40 DUP3 ADD SWAP1 POP SWAP2 SWAP1 POP JUMP JUMPDEST PUSH0 PUSH1 0x20 DUP3 ADD SWAP1 POP DUP2 DUP2 SUB PUSH0 DUP4 ADD MSTORE PUSH2 0x267 DUP2 PUSH2 0x22E JUMP JUMPDEST SWAP1 POP SWAP2 SWAP1 POP JUMP JUMPDEST PUSH0 PUSH2 0x278 DUP3 PUSH2 0x13F JUMP JUMPDEST SWAP2 POP PUSH2 0x283 DUP4 PUSH2 0x13F JUMP JUMPDEST SWAP3 POP DUP3 DUP3 SUB SWAP1 POP DUP2 DUP2 GT ISZERO PUSH2 0x29B JUMPI PUSH2 0x29A PUSH2 0x170 JUMP JUMPDEST JUMPDEST SWAP3 SWAP2 POP POP JUMP INVALID LOG2 PUSH5 0x6970667358 0x22 SLT KECCAK256 CALLDATALOAD DUP14 0xC8 PUSH18 0xA6674333A0F3EE3BF45735012F42F46BD413 0x2F 0xC7 SWAP3 0xD DUP15 PUSH5 0x403A584764 PUSH20 0x6F6C634300081A00330000000000000000000000 "
				},
				"gasEstimates": {
					"creation": {
						"codeDepositCost": "145400",
						"executionCost": "188",
						"totalCost": "145588"
					},
					"external": {
						"count()": "2402",
						"dec()": "infinite",
						"get()": "2454",
						"inc()": "infinite",
						"reset()": "5222"
					}
				},
				"methodIdentifiers": {
					"count()": "06661abd",
					"dec()": "b3bcfa82",
					"get()": "6d4ce63c",
					"inc()": "371303c0",
					"reset()": "d826f88f"
				}
			},
			"storageLayout": {
				"storage": [
					{
						"astId": 3,
						"contract": "contracts/Counter.sol:Counter",
						"label": "count",
						"offset": 0,
						"slot": "0",
						"type": "t_uint256"
					}
				],
				"types": {
					"t_uint256": {
						"encoding": "inplace",
						"label": "uint256",
						"numberOfBytes": "32"
					}
				}
			},
			"userdoc": {
				"kind": "user",
				"methods": {},
				"version": 1
			}
		}
	}
}