{
	"contracts/carSales.sol": {
		"CarLeasingAndSales": {
			"abi": [
				{
					"inputs": [],
					"stateMutability": "nonpayable",
					"type": "constructor"
				},
				{
					"anonymous": false,
					"inputs": [
						{
							"indexed": true,
							"internalType": "address",
							"name": "buyer",
							"type": "address"
						},
						{
							"indexed": false,
							"internalType": "uint256",
							"name": "price",
							"type": "uint256"
						}
					],
					"name": "CarBought",
					"type": "event"
				},
				{
					"anonymous": false,
					"inputs": [
						{
							"indexed": true,
							"internalType": "address",
							"name": "lessee",
							"type": "address"
						},
						{
							"indexed": false,
							"internalType": "uint256",
							"name": "leaseEnd",
							"type": "uint256"
						}
					],
					"name": "CarLeased",
					"type": "event"
				},
				{
					"anonymous": false,
					"inputs": [
						{
							"indexed": true,
							"internalType": "address",
							"name": "owner",
							"type": "address"
						},
						{
							"indexed": false,
							"internalType": "uint256",
							"name": "price",
							"type": "uint256"
						},
						{
							"indexed": false,
							"internalType": "uint256",
							"name": "deposit",
							"type": "uint256"
						},
						{
							"indexed": false,
							"internalType": "uint256",
							"name": "leaseTerm",
							"type": "uint256"
						}
					],
					"name": "CarRegistered",
					"type": "event"
				},
				{
					"inputs": [
						{
							"internalType": "address",
							"name": "_carOwner",
							"type": "address"
						}
					],
					"name": "buyCar",
					"outputs": [],
					"stateMutability": "payable",
					"type": "function"
				},
				{
					"inputs": [],
					"name": "carCount",
					"outputs": [
						{
							"internalType": "uint256",
							"name": "",
							"type": "uint256"
						}
					],
					"stateMutability": "view",
					"type": "function"
				},
				{
					"inputs": [
						{
							"internalType": "address",
							"name": "",
							"type": "address"
						}
					],
					"name": "cars",
					"outputs": [
						{
							"internalType": "address",
							"name": "owner",
							"type": "address"
						},
						{
							"internalType": "uint256",
							"name": "price",
							"type": "uint256"
						},
						{
							"internalType": "uint256",
							"name": "deposit",
							"type": "uint256"
						},
						{
							"internalType": "uint256",
							"name": "leaseTerm",
							"type": "uint256"
						},
						{
							"internalType": "uint256",
							"name": "leaseEnd",
							"type": "uint256"
						},
						{
							"internalType": "bool",
							"name": "isLeased",
							"type": "bool"
						}
					],
					"stateMutability": "view",
					"type": "function"
				},
				{
					"inputs": [
						{
							"internalType": "address",
							"name": "_carOwner",
							"type": "address"
						}
					],
					"name": "leaseCar",
					"outputs": [],
					"stateMutability": "payable",
					"type": "function"
				},
				{
					"inputs": [
						{
							"internalType": "uint256",
							"name": "_price",
							"type": "uint256"
						},
						{
							"internalType": "uint256",
							"name": "_deposit",
							"type": "uint256"
						},
						{
							"internalType": "uint256",
							"name": "_leaseTerm",
							"type": "uint256"
						}
					],
					"name": "registerCar",
					"outputs": [],
					"stateMutability": "nonpayable",
					"type": "function"
				}
			],
			"devdoc": {
				"kind": "dev",
				"methods": {},
				"version": 1
			},
			"evm": {
				"assembly": "    /* \"contracts/carSales.sol\":61:2559  contract CarLeasingAndSales {... */\n  mstore(0x40, 0x80)\n    /* \"contracts/carSales.sol\":576:621  constructor() {... */\n  callvalue\n  dup1\n  iszero\n  tag_1\n  jumpi\n  0x00\n  dup1\n  revert\ntag_1:\n  pop\n    /* \"contracts/carSales.sol\":612:613  0 */\n  0x00\n    /* \"contracts/carSales.sol\":601:609  carCount */\n  0x01\n    /* \"contracts/carSales.sol\":601:613  carCount = 0 */\n  dup2\n  swap1\n  sstore\n  pop\n    /* \"contracts/carSales.sol\":61:2559  contract CarLeasingAndSales {... */\n  dataSize(sub_0)\n  dup1\n  dataOffset(sub_0)\n  0x00\n  codecopy\n  0x00\n  return\nstop\n\nsub_0: assembly {\n        /* \"contracts/carSales.sol\":61:2559  contract CarLeasingAndSales {... */\n      mstore(0x40, 0x80)\n      jumpi(tag_1, lt(calldatasize, 0x04))\n      shr(0xe0, calldataload(0x00))\n      dup1\n      0x297a1f56\n      eq\n      tag_2\n      jumpi\n      dup1\n      0x39faf3ae\n      eq\n      tag_3\n      jumpi\n      dup1\n      0x5e624a2a\n      eq\n      tag_4\n      jumpi\n      dup1\n      0xafd79cbd\n      eq\n      tag_5\n      jumpi\n      dup1\n      0xeae3c03f\n      eq\n      tag_6\n      jumpi\n    tag_1:\n      0x00\n      dup1\n      revert\n        /* \"contracts/carSales.sol\":318:341  uint256 public carCount */\n    tag_2:\n      callvalue\n      dup1\n      iszero\n      tag_7\n      jumpi\n      0x00\n      dup1\n      revert\n    tag_7:\n      pop\n      tag_8\n      tag_9\n      jump\t// in\n    tag_8:\n      mload(0x40)\n      tag_10\n      swap2\n      swap1\n      tag_11\n      jump\t// in\n    tag_10:\n      mload(0x40)\n      dup1\n      swap2\n      sub\n      swap1\n      return\n        /* \"contracts/carSales.sol\":1907:2548  function buyCar(address _carOwner) public payable {... */\n    tag_3:\n      tag_12\n      0x04\n      dup1\n      calldatasize\n      sub\n      dup2\n      add\n      swap1\n      tag_13\n      swap2\n      swap1\n      tag_14\n      jump\t// in\n    tag_13:\n      tag_15\n      jump\t// in\n    tag_12:\n      stop\n        /* \"contracts/carSales.sol\":1319:1899  function leaseCar(address _carOwner) public payable {... */\n    tag_4:\n      tag_16\n      0x04\n      dup1\n      calldatasize\n      sub\n      dup2\n      add\n      swap1\n      tag_17\n      swap2\n      swap1\n      tag_14\n      jump\t// in\n    tag_17:\n      tag_18\n      jump\t// in\n    tag_16:\n      stop\n        /* \"contracts/carSales.sol\":276:311  mapping(address => Car) public cars */\n    tag_5:\n      callvalue\n      dup1\n      iszero\n      tag_19\n      jumpi\n      0x00\n      dup1\n      revert\n    tag_19:\n      pop\n      tag_20\n      0x04\n      dup1\n      calldatasize\n      sub\n      dup2\n      add\n      swap1\n      tag_21\n      swap2\n      swap1\n      tag_14\n      jump\t// in\n    tag_21:\n      tag_22\n      jump\t// in\n    tag_20:\n      mload(0x40)\n      tag_23\n      swap7\n      swap6\n      swap5\n      swap4\n      swap3\n      swap2\n      swap1\n      tag_24\n      jump\t// in\n    tag_23:\n      mload(0x40)\n      dup1\n      swap2\n      sub\n      swap1\n      return\n        /* \"contracts/carSales.sol\":796:1311  function registerCar(uint256 _price, uint256 _deposit, uint256 _leaseTerm) public {... */\n    tag_6:\n      callvalue\n      dup1\n      iszero\n      tag_25\n      jumpi\n      0x00\n      dup1\n      revert\n    tag_25:\n      pop\n      tag_26\n      0x04\n      dup1\n      calldatasize\n      sub\n      dup2\n      add\n      swap1\n      tag_27\n      swap2\n      swap1\n      tag_28\n      jump\t// in\n    tag_27:\n      tag_29\n      jump\t// in\n    tag_26:\n      stop\n        /* \"contracts/carSales.sol\":318:341  uint256 public carCount */\n    tag_9:\n      sload(0x01)\n      dup2\n      jump\t// out\n        /* \"contracts/carSales.sol\":1907:2548  function buyCar(address _carOwner) public payable {... */\n    tag_15:\n        /* \"contracts/carSales.sol\":1968:1983  Car storage car */\n      0x00\n        /* \"contracts/carSales.sol\":1986:1990  cars */\n      dup1\n        /* \"contracts/carSales.sol\":1986:2001  cars[_carOwner] */\n      0x00\n        /* \"contracts/carSales.sol\":1991:2000  _carOwner */\n      dup4\n        /* \"contracts/carSales.sol\":1986:2001  cars[_carOwner] */\n      0xffffffffffffffffffffffffffffffffffffffff\n      and\n      0xffffffffffffffffffffffffffffffffffffffff\n      and\n      dup2\n      mstore\n      0x20\n      add\n      swap1\n      dup2\n      mstore\n      0x20\n      add\n      0x00\n      keccak256\n        /* \"contracts/carSales.sol\":1968:2001  Car storage car = cars[_carOwner] */\n      swap1\n      pop\n        /* \"contracts/carSales.sol\":2043:2044  0 */\n      0x00\n        /* \"contracts/carSales.sol\":2022:2045  car.owner != address(0) */\n      0xffffffffffffffffffffffffffffffffffffffff\n      and\n        /* \"contracts/carSales.sol\":2022:2025  car */\n      dup2\n        /* \"contracts/carSales.sol\":2022:2031  car.owner */\n      0x00\n      add\n      0x00\n      swap1\n      sload\n      swap1\n      0x0100\n      exp\n      swap1\n      div\n      0xffffffffffffffffffffffffffffffffffffffff\n      and\n        /* \"contracts/carSales.sol\":2022:2045  car.owner != address(0) */\n      0xffffffffffffffffffffffffffffffffffffffff\n      and\n      sub\n        /* \"contracts/carSales.sol\":2014:2070  require(car.owner != address(0), \"Car owner not found.\") */\n      tag_31\n      jumpi\n      mload(0x40)\n      0x08c379a000000000000000000000000000000000000000000000000000000000\n      dup2\n      mstore\n      0x04\n      add\n      tag_32\n      swap1\n      tag_33\n      jump\t// in\n    tag_32:\n      mload(0x40)\n      dup1\n      swap2\n      sub\n      swap1\n      revert\n    tag_31:\n        /* \"contracts/carSales.sol\":2090:2093  car */\n      dup1\n        /* \"contracts/carSales.sol\":2090:2102  car.isLeased */\n      0x05\n      add\n      0x00\n      swap1\n      sload\n      swap1\n      0x0100\n      exp\n      swap1\n      div\n      0xff\n      and\n        /* \"contracts/carSales.sol\":2089:2102  !car.isLeased */\n      iszero\n        /* \"contracts/carSales.sol\":2081:2131  require(!car.isLeased, \"Car is currently leased.\") */\n      tag_34\n      jumpi\n      mload(0x40)\n      0x08c379a000000000000000000000000000000000000000000000000000000000\n      dup2\n      mstore\n      0x04\n      add\n      tag_35\n      swap1\n      tag_36\n      jump\t// in\n    tag_35:\n      mload(0x40)\n      dup1\n      swap2\n      sub\n      swap1\n      revert\n    tag_34:\n        /* \"contracts/carSales.sol\":2163:2166  car */\n      dup1\n        /* \"contracts/carSales.sol\":2163:2172  car.price */\n      0x01\n      add\n      sload\n        /* \"contracts/carSales.sol\":2150:2159  msg.value */\n      callvalue\n        /* \"contracts/carSales.sol\":2150:2172  msg.value == car.price */\n      eq\n        /* \"contracts/carSales.sol\":2142:2216  require(msg.value == car.price, \"Sent amount must be equal to car price.\") */\n      tag_37\n      jumpi\n      mload(0x40)\n      0x08c379a000000000000000000000000000000000000000000000000000000000\n      dup2\n      mstore\n      0x04\n      add\n      tag_38\n      swap1\n      tag_39\n      jump\t// in\n    tag_38:\n      mload(0x40)\n      dup1\n      swap2\n      sub\n      swap1\n      revert\n    tag_37:\n        /* \"contracts/carSales.sol\":2285:2288  car */\n      dup1\n        /* \"contracts/carSales.sol\":2285:2294  car.owner */\n      0x00\n      add\n      0x00\n      swap1\n      sload\n      swap1\n      0x0100\n      exp\n      swap1\n      div\n      0xffffffffffffffffffffffffffffffffffffffff\n      and\n        /* \"contracts/carSales.sol\":2277:2304  payable(car.owner).transfer */\n      0xffffffffffffffffffffffffffffffffffffffff\n      and\n        /* \"contracts/carSales.sol\":2277:2315  payable(car.owner).transfer(car.price) */\n      0x08fc\n        /* \"contracts/carSales.sol\":2305:2308  car */\n      dup3\n        /* \"contracts/carSales.sol\":2305:2314  car.price */\n      0x01\n      add\n      sload\n        /* \"contracts/carSales.sol\":2277:2315  payable(car.owner).transfer(car.price) */\n      swap1\n      dup2\n      iszero\n      mul\n      swap1\n      mload(0x40)\n      0x00\n      mload(0x40)\n      dup1\n      dup4\n      sub\n      dup2\n      dup6\n      dup9\n      dup9\n      call\n      swap4\n      pop\n      pop\n      pop\n      pop\n      iszero\n      dup1\n      iszero\n      tag_41\n      jumpi\n      returndatasize\n      0x00\n      dup1\n      returndatacopy\n      revert(0x00, returndatasize)\n    tag_41:\n      pop\n        /* \"contracts/carSales.sol\":2371:2381  msg.sender */\n      caller\n        /* \"contracts/carSales.sol\":2359:2362  car */\n      dup2\n        /* \"contracts/carSales.sol\":2359:2368  car.owner */\n      0x00\n      add\n      0x00\n        /* \"contracts/carSales.sol\":2359:2381  car.owner = msg.sender */\n      0x0100\n      exp\n      dup2\n      sload\n      dup2\n      0xffffffffffffffffffffffffffffffffffffffff\n      mul\n      not\n      and\n      swap1\n      dup4\n      0xffffffffffffffffffffffffffffffffffffffff\n      and\n      mul\n      or\n      swap1\n      sstore\n      pop\n        /* \"contracts/carSales.sol\":2407:2412  false */\n      0x00\n        /* \"contracts/carSales.sol\":2392:2395  car */\n      dup2\n        /* \"contracts/carSales.sol\":2392:2404  car.isLeased */\n      0x05\n      add\n      0x00\n        /* \"contracts/carSales.sol\":2392:2412  car.isLeased = false */\n      0x0100\n      exp\n      dup2\n      sload\n      dup2\n      0xff\n      mul\n      not\n      and\n      swap1\n      dup4\n      iszero\n      iszero\n      mul\n      or\n      swap1\n      sstore\n      pop\n        /* \"contracts/carSales.sol\":2459:2460  0 */\n      0x00\n        /* \"contracts/carSales.sol\":2445:2448  car */\n      dup2\n        /* \"contracts/carSales.sol\":2445:2456  car.deposit */\n      0x02\n      add\n        /* \"contracts/carSales.sol\":2445:2460  car.deposit = 0 */\n      dup2\n      swap1\n      sstore\n      pop\n        /* \"contracts/carSales.sol\":2518:2528  msg.sender */\n      caller\n        /* \"contracts/carSales.sol\":2508:2540  CarBought(msg.sender, car.price) */\n      0xffffffffffffffffffffffffffffffffffffffff\n      and\n      0x7f6d8fc3a134404ed5833fb36b035431b384ed1faecf6cb9b58827c40e71969d\n        /* \"contracts/carSales.sol\":2530:2533  car */\n      dup3\n        /* \"contracts/carSales.sol\":2530:2539  car.price */\n      0x01\n      add\n      sload\n        /* \"contracts/carSales.sol\":2508:2540  CarBought(msg.sender, car.price) */\n      mload(0x40)\n      tag_42\n      swap2\n      swap1\n      tag_11\n      jump\t// in\n    tag_42:\n      mload(0x40)\n      dup1\n      swap2\n      sub\n      swap1\n      log2\n        /* \"contracts/carSales.sol\":1957:2548  {... */\n      pop\n        /* \"contracts/carSales.sol\":1907:2548  function buyCar(address _carOwner) public payable {... */\n      pop\n      jump\t// out\n        /* \"contracts/carSales.sol\":1319:1899  function leaseCar(address _carOwner) public payable {... */\n    tag_18:\n        /* \"contracts/carSales.sol\":1382:1397  Car storage car */\n      0x00\n        /* \"contracts/carSales.sol\":1400:1404  cars */\n      dup1\n        /* \"contracts/carSales.sol\":1400:1415  cars[_carOwner] */\n      0x00\n        /* \"contracts/carSales.sol\":1405:1414  _carOwner */\n      dup4\n        /* \"contracts/carSales.sol\":1400:1415  cars[_carOwner] */\n      0xffffffffffffffffffffffffffffffffffffffff\n      and\n      0xffffffffffffffffffffffffffffffffffffffff\n      and\n      dup2\n      mstore\n      0x20\n      add\n      swap1\n      dup2\n      mstore\n      0x20\n      add\n      0x00\n      keccak256\n        /* \"contracts/carSales.sol\":1382:1415  Car storage car = cars[_carOwner] */\n      swap1\n      pop\n        /* \"contracts/carSales.sol\":1457:1458  0 */\n      0x00\n        /* \"contracts/carSales.sol\":1436:1459  car.owner != address(0) */\n      0xffffffffffffffffffffffffffffffffffffffff\n      and\n        /* \"contracts/carSales.sol\":1436:1439  car */\n      dup2\n        /* \"contracts/carSales.sol\":1436:1445  car.owner */\n      0x00\n      add\n      0x00\n      swap1\n      sload\n      swap1\n      0x0100\n      exp\n      swap1\n      div\n      0xffffffffffffffffffffffffffffffffffffffff\n      and\n        /* \"contracts/carSales.sol\":1436:1459  car.owner != address(0) */\n      0xffffffffffffffffffffffffffffffffffffffff\n      and\n      sub\n        /* \"contracts/carSales.sol\":1428:1484  require(car.owner != address(0), \"Car owner not found.\") */\n      tag_44\n      jumpi\n      mload(0x40)\n      0x08c379a000000000000000000000000000000000000000000000000000000000\n      dup2\n      mstore\n      0x04\n      add\n      tag_45\n      swap1\n      tag_33\n      jump\t// in\n    tag_45:\n      mload(0x40)\n      dup1\n      swap2\n      sub\n      swap1\n      revert\n    tag_44:\n        /* \"contracts/carSales.sol\":1504:1507  car */\n      dup1\n        /* \"contracts/carSales.sol\":1504:1516  car.isLeased */\n      0x05\n      add\n      0x00\n      swap1\n      sload\n      swap1\n      0x0100\n      exp\n      swap1\n      div\n      0xff\n      and\n        /* \"contracts/carSales.sol\":1503:1516  !car.isLeased */\n      iszero\n        /* \"contracts/carSales.sol\":1495:1543  require(!car.isLeased, \"Car is already leased.\") */\n      tag_46\n      jumpi\n      mload(0x40)\n      0x08c379a000000000000000000000000000000000000000000000000000000000\n      dup2\n      mstore\n      0x04\n      add\n      tag_47\n      swap1\n      tag_48\n      jump\t// in\n    tag_47:\n      mload(0x40)\n      dup1\n      swap2\n      sub\n      swap1\n      revert\n    tag_46:\n        /* \"contracts/carSales.sol\":1575:1578  car */\n      dup1\n        /* \"contracts/carSales.sol\":1575:1586  car.deposit */\n      0x02\n      add\n      sload\n        /* \"contracts/carSales.sol\":1562:1571  msg.value */\n      callvalue\n        /* \"contracts/carSales.sol\":1562:1586  msg.value == car.deposit */\n      eq\n        /* \"contracts/carSales.sol\":1554:1635  require(msg.value == car.deposit, \"Sent amount must be equal to deposit amount.\") */\n      tag_49\n      jumpi\n      mload(0x40)\n      0x08c379a000000000000000000000000000000000000000000000000000000000\n      dup2\n      mstore\n      0x04\n      add\n      tag_50\n      swap1\n      tag_51\n      jump\t// in\n    tag_50:\n      mload(0x40)\n      dup1\n      swap2\n      sub\n      swap1\n      revert\n    tag_49:\n        /* \"contracts/carSales.sol\":1663:1667  true */\n      0x01\n        /* \"contracts/carSales.sol\":1648:1651  car */\n      dup2\n        /* \"contracts/carSales.sol\":1648:1660  car.isLeased */\n      0x05\n      add\n      0x00\n        /* \"contracts/carSales.sol\":1648:1667  car.isLeased = true */\n      0x0100\n      exp\n      dup2\n      sload\n      dup2\n      0xff\n      mul\n      not\n      and\n      swap1\n      dup4\n      iszero\n      iszero\n      mul\n      or\n      swap1\n      sstore\n      pop\n        /* \"contracts/carSales.sol\":1728:1734  1 days */\n      0x015180\n        /* \"contracts/carSales.sol\":1712:1715  car */\n      dup2\n        /* \"contracts/carSales.sol\":1712:1725  car.leaseTerm */\n      0x03\n      add\n      sload\n        /* \"contracts/carSales.sol\":1712:1734  car.leaseTerm * 1 days */\n      tag_52\n      swap2\n      swap1\n      tag_53\n      jump\t// in\n    tag_52:\n        /* \"contracts/carSales.sol\":1693:1708  block.timestamp */\n      timestamp\n        /* \"contracts/carSales.sol\":1693:1735  block.timestamp + (car.leaseTerm * 1 days) */\n      tag_54\n      swap2\n      swap1\n      tag_55\n      jump\t// in\n    tag_54:\n        /* \"contracts/carSales.sol\":1678:1681  car */\n      dup2\n        /* \"contracts/carSales.sol\":1678:1690  car.leaseEnd */\n      0x04\n      add\n        /* \"contracts/carSales.sol\":1678:1735  car.leaseEnd = block.timestamp + (car.leaseTerm * 1 days) */\n      dup2\n      swap1\n      sstore\n      pop\n        /* \"contracts/carSales.sol\":1806:1809  car */\n      dup1\n        /* \"contracts/carSales.sol\":1806:1815  car.owner */\n      0x00\n      add\n      0x00\n      swap1\n      sload\n      swap1\n      0x0100\n      exp\n      swap1\n      div\n      0xffffffffffffffffffffffffffffffffffffffff\n      and\n        /* \"contracts/carSales.sol\":1798:1825  payable(car.owner).transfer */\n      0xffffffffffffffffffffffffffffffffffffffff\n      and\n        /* \"contracts/carSales.sol\":1798:1838  payable(car.owner).transfer(car.deposit) */\n      0x08fc\n        /* \"contracts/carSales.sol\":1826:1829  car */\n      dup3\n        /* \"contracts/carSales.sol\":1826:1837  car.deposit */\n      0x02\n      add\n      sload\n        /* \"contracts/carSales.sol\":1798:1838  payable(car.owner).transfer(car.deposit) */\n      swap1\n      dup2\n      iszero\n      mul\n      swap1\n      mload(0x40)\n      0x00\n      mload(0x40)\n      dup1\n      dup4\n      sub\n      dup2\n      dup6\n      dup9\n      dup9\n      call\n      swap4\n      pop\n      pop\n      pop\n      pop\n      iszero\n      dup1\n      iszero\n      tag_57\n      jumpi\n      returndatasize\n      0x00\n      dup1\n      returndatacopy\n      revert(0x00, returndatasize)\n    tag_57:\n      pop\n        /* \"contracts/carSales.sol\":1866:1876  msg.sender */\n      caller\n        /* \"contracts/carSales.sol\":1856:1891  CarLeased(msg.sender, car.leaseEnd) */\n      0xffffffffffffffffffffffffffffffffffffffff\n      and\n      0x805ecc0a8a5bd3a06d7274608b789b709dfcbcaa69d2a525fa668d2ecd9efd87\n        /* \"contracts/carSales.sol\":1878:1881  car */\n      dup3\n        /* \"contracts/carSales.sol\":1878:1890  car.leaseEnd */\n      0x04\n      add\n      sload\n        /* \"contracts/carSales.sol\":1856:1891  CarLeased(msg.sender, car.leaseEnd) */\n      mload(0x40)\n      tag_58\n      swap2\n      swap1\n      tag_11\n      jump\t// in\n    tag_58:\n      mload(0x40)\n      dup1\n      swap2\n      sub\n      swap1\n      log2\n        /* \"contracts/carSales.sol\":1371:1899  {... */\n      pop\n        /* \"contracts/carSales.sol\":1319:1899  function leaseCar(address _carOwner) public payable {... */\n      pop\n      jump\t// out\n        /* \"contracts/carSales.sol\":276:311  mapping(address => Car) public cars */\n    tag_22:\n      mstore(0x20, 0x00)\n      dup1\n      0x00\n      mstore\n      keccak256(0x00, 0x40)\n      0x00\n      swap2\n      pop\n      swap1\n      pop\n      dup1\n      0x00\n      add\n      0x00\n      swap1\n      sload\n      swap1\n      0x0100\n      exp\n      swap1\n      div\n      0xffffffffffffffffffffffffffffffffffffffff\n      and\n      swap1\n      dup1\n      0x01\n      add\n      sload\n      swap1\n      dup1\n      0x02\n      add\n      sload\n      swap1\n      dup1\n      0x03\n      add\n      sload\n      swap1\n      dup1\n      0x04\n      add\n      sload\n      swap1\n      dup1\n      0x05\n      add\n      0x00\n      swap1\n      sload\n      swap1\n      0x0100\n      exp\n      swap1\n      div\n      0xff\n      and\n      swap1\n      pop\n      dup7\n      jump\t// out\n        /* \"contracts/carSales.sol\":796:1311  function registerCar(uint256 _price, uint256 _deposit, uint256 _leaseTerm) public {... */\n    tag_29:\n        /* \"contracts/carSales.sol\":906:907  0 */\n      0x00\n        /* \"contracts/carSales.sol\":897:903  _price */\n      dup4\n        /* \"contracts/carSales.sol\":897:907  _price > 0 */\n      gt\n        /* \"contracts/carSales.sol\":889:944  require(_price > 0, \"Price must be greater than zero.\") */\n      tag_60\n      jumpi\n      mload(0x40)\n      0x08c379a000000000000000000000000000000000000000000000000000000000\n      dup2\n      mstore\n      0x04\n      add\n      tag_61\n      swap1\n      tag_62\n      jump\t// in\n    tag_61:\n      mload(0x40)\n      dup1\n      swap2\n      sub\n      swap1\n      revert\n    tag_60:\n        /* \"contracts/carSales.sol\":974:975  0 */\n      0x00\n        /* \"contracts/carSales.sol\":963:971  _deposit */\n      dup3\n        /* \"contracts/carSales.sol\":963:975  _deposit > 0 */\n      gt\n        /* \"contracts/carSales.sol\":955:1014  require(_deposit > 0, \"Deposit must be greater than zero.\") */\n      tag_63\n      jumpi\n      mload(0x40)\n      0x08c379a000000000000000000000000000000000000000000000000000000000\n      dup2\n      mstore\n      0x04\n      add\n      tag_64\n      swap1\n      tag_65\n      jump\t// in\n    tag_64:\n      mload(0x40)\n      dup1\n      swap2\n      sub\n      swap1\n      revert\n    tag_63:\n        /* \"contracts/carSales.sol\":1046:1047  0 */\n      0x00\n        /* \"contracts/carSales.sol\":1033:1043  _leaseTerm */\n      dup2\n        /* \"contracts/carSales.sol\":1033:1047  _leaseTerm > 0 */\n      gt\n        /* \"contracts/carSales.sol\":1025:1089  require(_leaseTerm > 0, \"Lease term must be greater than zero.\") */\n      tag_66\n      jumpi\n      mload(0x40)\n      0x08c379a000000000000000000000000000000000000000000000000000000000\n      dup2\n      mstore\n      0x04\n      add\n      tag_67\n      swap1\n      tag_68\n      jump\t// in\n    tag_67:\n      mload(0x40)\n      dup1\n      swap2\n      sub\n      swap1\n      revert\n    tag_66:\n        /* \"contracts/carSales.sol\":1102:1116  Car memory car */\n      0x00\n        /* \"contracts/carSales.sol\":1119:1174  Car(msg.sender, _price, _deposit, _leaseTerm, 0, false) */\n      mload(0x40)\n      dup1\n      0xc0\n      add\n      0x40\n      mstore\n      dup1\n        /* \"contracts/carSales.sol\":1123:1133  msg.sender */\n      caller\n        /* \"contracts/carSales.sol\":1119:1174  Car(msg.sender, _price, _deposit, _leaseTerm, 0, false) */\n      0xffffffffffffffffffffffffffffffffffffffff\n      and\n      dup2\n      mstore\n      0x20\n      add\n        /* \"contracts/carSales.sol\":1135:1141  _price */\n      dup6\n        /* \"contracts/carSales.sol\":1119:1174  Car(msg.sender, _price, _deposit, _leaseTerm, 0, false) */\n      dup2\n      mstore\n      0x20\n      add\n        /* \"contracts/carSales.sol\":1143:1151  _deposit */\n      dup5\n        /* \"contracts/carSales.sol\":1119:1174  Car(msg.sender, _price, _deposit, _leaseTerm, 0, false) */\n      dup2\n      mstore\n      0x20\n      add\n        /* \"contracts/carSales.sol\":1153:1163  _leaseTerm */\n      dup4\n        /* \"contracts/carSales.sol\":1119:1174  Car(msg.sender, _price, _deposit, _leaseTerm, 0, false) */\n      dup2\n      mstore\n      0x20\n      add\n        /* \"contracts/carSales.sol\":1165:1166  0 */\n      0x00\n        /* \"contracts/carSales.sol\":1119:1174  Car(msg.sender, _price, _deposit, _leaseTerm, 0, false) */\n      dup2\n      mstore\n      0x20\n      add\n        /* \"contracts/carSales.sol\":1168:1173  false */\n      0x00\n        /* \"contracts/carSales.sol\":1119:1174  Car(msg.sender, _price, _deposit, _leaseTerm, 0, false) */\n      iszero\n      iszero\n      dup2\n      mstore\n      pop\n        /* \"contracts/carSales.sol\":1102:1174  Car memory car = Car(msg.sender, _price, _deposit, _leaseTerm, 0, false) */\n      swap1\n      pop\n        /* \"contracts/carSales.sol\":1206:1209  car */\n      dup1\n        /* \"contracts/carSales.sol\":1187:1191  cars */\n      0x00\n        /* \"contracts/carSales.sol\":1187:1203  cars[msg.sender] */\n      dup1\n        /* \"contracts/carSales.sol\":1192:1202  msg.sender */\n      caller\n        /* \"contracts/carSales.sol\":1187:1203  cars[msg.sender] */\n      0xffffffffffffffffffffffffffffffffffffffff\n      and\n      0xffffffffffffffffffffffffffffffffffffffff\n      and\n      dup2\n      mstore\n      0x20\n      add\n      swap1\n      dup2\n      mstore\n      0x20\n      add\n      0x00\n      keccak256\n        /* \"contracts/carSales.sol\":1187:1209  cars[msg.sender] = car */\n      0x00\n      dup3\n      add\n      mload\n      dup2\n      0x00\n      add\n      exp(0x0100, 0x00)\n      dup2\n      sload\n      dup2\n      0xffffffffffffffffffffffffffffffffffffffff\n      mul\n      not\n      and\n      swap1\n      dup4\n      0xffffffffffffffffffffffffffffffffffffffff\n      and\n      mul\n      or\n      swap1\n      sstore\n      pop\n      0x20\n      dup3\n      add\n      mload\n      dup2\n      0x01\n      add\n      sstore\n      0x40\n      dup3\n      add\n      mload\n      dup2\n      0x02\n      add\n      sstore\n      0x60\n      dup3\n      add\n      mload\n      dup2\n      0x03\n      add\n      sstore\n      0x80\n      dup3\n      add\n      mload\n      dup2\n      0x04\n      add\n      sstore\n      0xa0\n      dup3\n      add\n      mload\n      dup2\n      0x05\n      add\n      exp(0x0100, 0x00)\n      dup2\n      sload\n      dup2\n      0xff\n      mul\n      not\n      and\n      swap1\n      dup4\n      iszero\n      iszero\n      mul\n      or\n      swap1\n      sstore\n      pop\n      swap1\n      pop\n      pop\n        /* \"contracts/carSales.sol\":1220:1228  carCount */\n      0x01\n      0x00\n        /* \"contracts/carSales.sol\":1220:1230  carCount++ */\n      dup2\n      sload\n      dup1\n      swap3\n      swap2\n      swap1\n      tag_69\n      swap1\n      tag_70\n      jump\t// in\n    tag_69:\n      swap2\n      swap1\n      pop\n      sstore\n      pop\n        /* \"contracts/carSales.sol\":1262:1272  msg.sender */\n      caller\n        /* \"contracts/carSales.sol\":1248:1303  CarRegistered(msg.sender, _price, _deposit, _leaseTerm) */\n      0xffffffffffffffffffffffffffffffffffffffff\n      and\n      0xa4dba689200e85ed3727de0f7e1e96b62560814e131e21c85c7b93981f6afb05\n        /* \"contracts/carSales.sol\":1274:1280  _price */\n      dup6\n        /* \"contracts/carSales.sol\":1282:1290  _deposit */\n      dup6\n        /* \"contracts/carSales.sol\":1292:1302  _leaseTerm */\n      dup6\n        /* \"contracts/carSales.sol\":1248:1303  CarRegistered(msg.sender, _price, _deposit, _leaseTerm) */\n      mload(0x40)\n      tag_71\n      swap4\n      swap3\n      swap2\n      swap1\n      tag_72\n      jump\t// in\n    tag_71:\n      mload(0x40)\n      dup1\n      swap2\n      sub\n      swap1\n      log2\n        /* \"contracts/carSales.sol\":878:1311  {... */\n      pop\n        /* \"contracts/carSales.sol\":796:1311  function registerCar(uint256 _price, uint256 _deposit, uint256 _leaseTerm) public {... */\n      pop\n      pop\n      pop\n      jump\t// out\n        /* \"#utility.yul\":7:84   */\n    tag_73:\n        /* \"#utility.yul\":44:51   */\n      0x00\n        /* \"#utility.yul\":73:78   */\n      dup2\n        /* \"#utility.yul\":62:78   */\n      swap1\n      pop\n        /* \"#utility.yul\":7:84   */\n      swap2\n      swap1\n      pop\n      jump\t// out\n        /* \"#utility.yul\":90:208   */\n    tag_74:\n        /* \"#utility.yul\":177:201   */\n      tag_108\n        /* \"#utility.yul\":195:200   */\n      dup2\n        /* \"#utility.yul\":177:201   */\n      tag_73\n      jump\t// in\n    tag_108:\n        /* \"#utility.yul\":172:175   */\n      dup3\n        /* \"#utility.yul\":165:202   */\n      mstore\n        /* \"#utility.yul\":90:208   */\n      pop\n      pop\n      jump\t// out\n        /* \"#utility.yul\":214:436   */\n    tag_11:\n        /* \"#utility.yul\":307:311   */\n      0x00\n        /* \"#utility.yul\":345:347   */\n      0x20\n        /* \"#utility.yul\":334:343   */\n      dup3\n        /* \"#utility.yul\":330:348   */\n      add\n        /* \"#utility.yul\":322:348   */\n      swap1\n      pop\n        /* \"#utility.yul\":358:429   */\n      tag_110\n        /* \"#utility.yul\":426:427   */\n      0x00\n        /* \"#utility.yul\":415:424   */\n      dup4\n        /* \"#utility.yul\":411:428   */\n      add\n        /* \"#utility.yul\":402:408   */\n      dup5\n        /* \"#utility.yul\":358:429   */\n      tag_74\n      jump\t// in\n    tag_110:\n        /* \"#utility.yul\":214:436   */\n      swap3\n      swap2\n      pop\n      pop\n      jump\t// out\n        /* \"#utility.yul\":523:640   */\n    tag_76:\n        /* \"#utility.yul\":632:633   */\n      0x00\n        /* \"#utility.yul\":629:630   */\n      dup1\n        /* \"#utility.yul\":622:634   */\n      revert\n        /* \"#utility.yul\":769:895   */\n    tag_78:\n        /* \"#utility.yul\":806:813   */\n      0x00\n        /* \"#utility.yul\":846:888   */\n      0xffffffffffffffffffffffffffffffffffffffff\n        /* \"#utility.yul\":839:844   */\n      dup3\n        /* \"#utility.yul\":835:889   */\n      and\n        /* \"#utility.yul\":824:889   */\n      swap1\n      pop\n        /* \"#utility.yul\":769:895   */\n      swap2\n      swap1\n      pop\n      jump\t// out\n        /* \"#utility.yul\":901:997   */\n    tag_79:\n        /* \"#utility.yul\":938:945   */\n      0x00\n        /* \"#utility.yul\":967:991   */\n      tag_116\n        /* \"#utility.yul\":985:990   */\n      dup3\n        /* \"#utility.yul\":967:991   */\n      tag_78\n      jump\t// in\n    tag_116:\n        /* \"#utility.yul\":956:991   */\n      swap1\n      pop\n        /* \"#utility.yul\":901:997   */\n      swap2\n      swap1\n      pop\n      jump\t// out\n        /* \"#utility.yul\":1003:1125   */\n    tag_80:\n        /* \"#utility.yul\":1076:1100   */\n      tag_118\n        /* \"#utility.yul\":1094:1099   */\n      dup2\n        /* \"#utility.yul\":1076:1100   */\n      tag_79\n      jump\t// in\n    tag_118:\n        /* \"#utility.yul\":1069:1074   */\n      dup2\n        /* \"#utility.yul\":1066:1101   */\n      eq\n        /* \"#utility.yul\":1056:1119   */\n      tag_119\n      jumpi\n        /* \"#utility.yul\":1115:1116   */\n      0x00\n        /* \"#utility.yul\":1112:1113   */\n      dup1\n        /* \"#utility.yul\":1105:1117   */\n      revert\n        /* \"#utility.yul\":1056:1119   */\n    tag_119:\n        /* \"#utility.yul\":1003:1125   */\n      pop\n      jump\t// out\n        /* \"#utility.yul\":1131:1270   */\n    tag_81:\n        /* \"#utility.yul\":1177:1182   */\n      0x00\n        /* \"#utility.yul\":1215:1221   */\n      dup2\n        /* \"#utility.yul\":1202:1222   */\n      calldataload\n        /* \"#utility.yul\":1193:1222   */\n      swap1\n      pop\n        /* \"#utility.yul\":1231:1264   */\n      tag_121\n        /* \"#utility.yul\":1258:1263   */\n      dup2\n        /* \"#utility.yul\":1231:1264   */\n      tag_80\n      jump\t// in\n    tag_121:\n        /* \"#utility.yul\":1131:1270   */\n      swap3\n      swap2\n      pop\n      pop\n      jump\t// out\n        /* \"#utility.yul\":1276:1605   */\n    tag_14:\n        /* \"#utility.yul\":1335:1341   */\n      0x00\n        /* \"#utility.yul\":1384:1386   */\n      0x20\n        /* \"#utility.yul\":1372:1381   */\n      dup3\n        /* \"#utility.yul\":1363:1370   */\n      dup5\n        /* \"#utility.yul\":1359:1382   */\n      sub\n        /* \"#utility.yul\":1355:1387   */\n      slt\n        /* \"#utility.yul\":1352:1471   */\n      iszero\n      tag_123\n      jumpi\n        /* \"#utility.yul\":1390:1469   */\n      tag_124\n      tag_76\n      jump\t// in\n    tag_124:\n        /* \"#utility.yul\":1352:1471   */\n    tag_123:\n        /* \"#utility.yul\":1510:1511   */\n      0x00\n        /* \"#utility.yul\":1535:1588   */\n      tag_125\n        /* \"#utility.yul\":1580:1587   */\n      dup5\n        /* \"#utility.yul\":1571:1577   */\n      dup3\n        /* \"#utility.yul\":1560:1569   */\n      dup6\n        /* \"#utility.yul\":1556:1578   */\n      add\n        /* \"#utility.yul\":1535:1588   */\n      tag_81\n      jump\t// in\n    tag_125:\n        /* \"#utility.yul\":1525:1588   */\n      swap2\n      pop\n        /* \"#utility.yul\":1481:1598   */\n      pop\n        /* \"#utility.yul\":1276:1605   */\n      swap3\n      swap2\n      pop\n      pop\n      jump\t// out\n        /* \"#utility.yul\":1611:1729   */\n    tag_82:\n        /* \"#utility.yul\":1698:1722   */\n      tag_127\n        /* \"#utility.yul\":1716:1721   */\n      dup2\n        /* \"#utility.yul\":1698:1722   */\n      tag_79\n      jump\t// in\n    tag_127:\n        /* \"#utility.yul\":1693:1696   */\n      dup3\n        /* \"#utility.yul\":1686:1723   */\n      mstore\n        /* \"#utility.yul\":1611:1729   */\n      pop\n      pop\n      jump\t// out\n        /* \"#utility.yul\":1735:1825   */\n    tag_83:\n        /* \"#utility.yul\":1769:1776   */\n      0x00\n        /* \"#utility.yul\":1812:1817   */\n      dup2\n        /* \"#utility.yul\":1805:1818   */\n      iszero\n        /* \"#utility.yul\":1798:1819   */\n      iszero\n        /* \"#utility.yul\":1787:1819   */\n      swap1\n      pop\n        /* \"#utility.yul\":1735:1825   */\n      swap2\n      swap1\n      pop\n      jump\t// out\n        /* \"#utility.yul\":1831:1940   */\n    tag_84:\n        /* \"#utility.yul\":1912:1933   */\n      tag_130\n        /* \"#utility.yul\":1927:1932   */\n      dup2\n        /* \"#utility.yul\":1912:1933   */\n      tag_83\n      jump\t// in\n    tag_130:\n        /* \"#utility.yul\":1907:1910   */\n      dup3\n        /* \"#utility.yul\":1900:1934   */\n      mstore\n        /* \"#utility.yul\":1831:1940   */\n      pop\n      pop\n      jump\t// out\n        /* \"#utility.yul\":1946:2709   */\n    tag_24:\n        /* \"#utility.yul\":2173:2177   */\n      0x00\n        /* \"#utility.yul\":2211:2214   */\n      0xc0\n        /* \"#utility.yul\":2200:2209   */\n      dup3\n        /* \"#utility.yul\":2196:2215   */\n      add\n        /* \"#utility.yul\":2188:2215   */\n      swap1\n      pop\n        /* \"#utility.yul\":2225:2296   */\n      tag_132\n        /* \"#utility.yul\":2293:2294   */\n      0x00\n        /* \"#utility.yul\":2282:2291   */\n      dup4\n        /* \"#utility.yul\":2278:2295   */\n      add\n        /* \"#utility.yul\":2269:2275   */\n      dup10\n        /* \"#utility.yul\":2225:2296   */\n      tag_82\n      jump\t// in\n    tag_132:\n        /* \"#utility.yul\":2306:2378   */\n      tag_133\n        /* \"#utility.yul\":2374:2376   */\n      0x20\n        /* \"#utility.yul\":2363:2372   */\n      dup4\n        /* \"#utility.yul\":2359:2377   */\n      add\n        /* \"#utility.yul\":2350:2356   */\n      dup9\n        /* \"#utility.yul\":2306:2378   */\n      tag_74\n      jump\t// in\n    tag_133:\n        /* \"#utility.yul\":2388:2460   */\n      tag_134\n        /* \"#utility.yul\":2456:2458   */\n      0x40\n        /* \"#utility.yul\":2445:2454   */\n      dup4\n        /* \"#utility.yul\":2441:2459   */\n      add\n        /* \"#utility.yul\":2432:2438   */\n      dup8\n        /* \"#utility.yul\":2388:2460   */\n      tag_74\n      jump\t// in\n    tag_134:\n        /* \"#utility.yul\":2470:2542   */\n      tag_135\n        /* \"#utility.yul\":2538:2540   */\n      0x60\n        /* \"#utility.yul\":2527:2536   */\n      dup4\n        /* \"#utility.yul\":2523:2541   */\n      add\n        /* \"#utility.yul\":2514:2520   */\n      dup7\n        /* \"#utility.yul\":2470:2542   */\n      tag_74\n      jump\t// in\n    tag_135:\n        /* \"#utility.yul\":2552:2625   */\n      tag_136\n        /* \"#utility.yul\":2620:2623   */\n      0x80\n        /* \"#utility.yul\":2609:2618   */\n      dup4\n        /* \"#utility.yul\":2605:2624   */\n      add\n        /* \"#utility.yul\":2596:2602   */\n      dup6\n        /* \"#utility.yul\":2552:2625   */\n      tag_74\n      jump\t// in\n    tag_136:\n        /* \"#utility.yul\":2635:2702   */\n      tag_137\n        /* \"#utility.yul\":2697:2700   */\n      0xa0\n        /* \"#utility.yul\":2686:2695   */\n      dup4\n        /* \"#utility.yul\":2682:2701   */\n      add\n        /* \"#utility.yul\":2673:2679   */\n      dup5\n        /* \"#utility.yul\":2635:2702   */\n      tag_84\n      jump\t// in\n    tag_137:\n        /* \"#utility.yul\":1946:2709   */\n      swap8\n      swap7\n      pop\n      pop\n      pop\n      pop\n      pop\n      pop\n      pop\n      jump\t// out\n        /* \"#utility.yul\":2715:2837   */\n    tag_85:\n        /* \"#utility.yul\":2788:2812   */\n      tag_139\n        /* \"#utility.yul\":2806:2811   */\n      dup2\n        /* \"#utility.yul\":2788:2812   */\n      tag_73\n      jump\t// in\n    tag_139:\n        /* \"#utility.yul\":2781:2786   */\n      dup2\n        /* \"#utility.yul\":2778:2813   */\n      eq\n        /* \"#utility.yul\":2768:2831   */\n      tag_140\n      jumpi\n        /* \"#utility.yul\":2827:2828   */\n      0x00\n        /* \"#utility.yul\":2824:2825   */\n      dup1\n        /* \"#utility.yul\":2817:2829   */\n      revert\n        /* \"#utility.yul\":2768:2831   */\n    tag_140:\n        /* \"#utility.yul\":2715:2837   */\n      pop\n      jump\t// out\n        /* \"#utility.yul\":2843:2982   */\n    tag_86:\n        /* \"#utility.yul\":2889:2894   */\n      0x00\n        /* \"#utility.yul\":2927:2933   */\n      dup2\n        /* \"#utility.yul\":2914:2934   */\n      calldataload\n        /* \"#utility.yul\":2905:2934   */\n      swap1\n      pop\n        /* \"#utility.yul\":2943:2976   */\n      tag_142\n        /* \"#utility.yul\":2970:2975   */\n      dup2\n        /* \"#utility.yul\":2943:2976   */\n      tag_85\n      jump\t// in\n    tag_142:\n        /* \"#utility.yul\":2843:2982   */\n      swap3\n      swap2\n      pop\n      pop\n      jump\t// out\n        /* \"#utility.yul\":2988:3607   */\n    tag_28:\n        /* \"#utility.yul\":3065:3071   */\n      0x00\n        /* \"#utility.yul\":3073:3079   */\n      dup1\n        /* \"#utility.yul\":3081:3087   */\n      0x00\n        /* \"#utility.yul\":3130:3132   */\n      0x60\n        /* \"#utility.yul\":3118:3127   */\n      dup5\n        /* \"#utility.yul\":3109:3116   */\n      dup7\n        /* \"#utility.yul\":3105:3128   */\n      sub\n        /* \"#utility.yul\":3101:3133   */\n      slt\n        /* \"#utility.yul\":3098:3217   */\n      iszero\n      tag_144\n      jumpi\n        /* \"#utility.yul\":3136:3215   */\n      tag_145\n      tag_76\n      jump\t// in\n    tag_145:\n        /* \"#utility.yul\":3098:3217   */\n    tag_144:\n        /* \"#utility.yul\":3256:3257   */\n      0x00\n        /* \"#utility.yul\":3281:3334   */\n      tag_146\n        /* \"#utility.yul\":3326:3333   */\n      dup7\n        /* \"#utility.yul\":3317:3323   */\n      dup3\n        /* \"#utility.yul\":3306:3315   */\n      dup8\n        /* \"#utility.yul\":3302:3324   */\n      add\n        /* \"#utility.yul\":3281:3334   */\n      tag_86\n      jump\t// in\n    tag_146:\n        /* \"#utility.yul\":3271:3334   */\n      swap4\n      pop\n        /* \"#utility.yul\":3227:3344   */\n      pop\n        /* \"#utility.yul\":3383:3385   */\n      0x20\n        /* \"#utility.yul\":3409:3462   */\n      tag_147\n        /* \"#utility.yul\":3454:3461   */\n      dup7\n        /* \"#utility.yul\":3445:3451   */\n      dup3\n        /* \"#utility.yul\":3434:3443   */\n      dup8\n        /* \"#utility.yul\":3430:3452   */\n      add\n        /* \"#utility.yul\":3409:3462   */\n      tag_86\n      jump\t// in\n    tag_147:\n        /* \"#utility.yul\":3399:3462   */\n      swap3\n      pop\n        /* \"#utility.yul\":3354:3472   */\n      pop\n        /* \"#utility.yul\":3511:3513   */\n      0x40\n        /* \"#utility.yul\":3537:3590   */\n      tag_148\n        /* \"#utility.yul\":3582:3589   */\n      dup7\n        /* \"#utility.yul\":3573:3579   */\n      dup3\n        /* \"#utility.yul\":3562:3571   */\n      dup8\n        /* \"#utility.yul\":3558:3580   */\n      add\n        /* \"#utility.yul\":3537:3590   */\n      tag_86\n      jump\t// in\n    tag_148:\n        /* \"#utility.yul\":3527:3590   */\n      swap2\n      pop\n        /* \"#utility.yul\":3482:3600   */\n      pop\n        /* \"#utility.yul\":2988:3607   */\n      swap3\n      pop\n      swap3\n      pop\n      swap3\n      jump\t// out\n        /* \"#utility.yul\":3613:3782   */\n    tag_87:\n        /* \"#utility.yul\":3697:3708   */\n      0x00\n        /* \"#utility.yul\":3731:3737   */\n      dup3\n        /* \"#utility.yul\":3726:3729   */\n      dup3\n        /* \"#utility.yul\":3719:3738   */\n      mstore\n        /* \"#utility.yul\":3771:3775   */\n      0x20\n        /* \"#utility.yul\":3766:3769   */\n      dup3\n        /* \"#utility.yul\":3762:3776   */\n      add\n        /* \"#utility.yul\":3747:3776   */\n      swap1\n      pop\n        /* \"#utility.yul\":3613:3782   */\n      swap3\n      swap2\n      pop\n      pop\n      jump\t// out\n        /* \"#utility.yul\":3788:3958   */\n    tag_88:\n        /* \"#utility.yul\":3928:3950   */\n      0x436172206f776e6572206e6f7420666f756e642e000000000000000000000000\n        /* \"#utility.yul\":3924:3925   */\n      0x00\n        /* \"#utility.yul\":3916:3922   */\n      dup3\n        /* \"#utility.yul\":3912:3926   */\n      add\n        /* \"#utility.yul\":3905:3951   */\n      mstore\n        /* \"#utility.yul\":3788:3958   */\n      pop\n      jump\t// out\n        /* \"#utility.yul\":3964:4330   */\n    tag_89:\n        /* \"#utility.yul\":4106:4109   */\n      0x00\n        /* \"#utility.yul\":4127:4194   */\n      tag_152\n        /* \"#utility.yul\":4191:4193   */\n      0x14\n        /* \"#utility.yul\":4186:4189   */\n      dup4\n        /* \"#utility.yul\":4127:4194   */\n      tag_87\n      jump\t// in\n    tag_152:\n        /* \"#utility.yul\":4120:4194   */\n      swap2\n      pop\n        /* \"#utility.yul\":4203:4296   */\n      tag_153\n        /* \"#utility.yul\":4292:4295   */\n      dup3\n        /* \"#utility.yul\":4203:4296   */\n      tag_88\n      jump\t// in\n    tag_153:\n        /* \"#utility.yul\":4321:4323   */\n      0x20\n        /* \"#utility.yul\":4316:4319   */\n      dup3\n        /* \"#utility.yul\":4312:4324   */\n      add\n        /* \"#utility.yul\":4305:4324   */\n      swap1\n      pop\n        /* \"#utility.yul\":3964:4330   */\n      swap2\n      swap1\n      pop\n      jump\t// out\n        /* \"#utility.yul\":4336:4755   */\n    tag_33:\n        /* \"#utility.yul\":4502:4506   */\n      0x00\n        /* \"#utility.yul\":4540:4542   */\n      0x20\n        /* \"#utility.yul\":4529:4538   */\n      dup3\n        /* \"#utility.yul\":4525:4543   */\n      add\n        /* \"#utility.yul\":4517:4543   */\n      swap1\n      pop\n        /* \"#utility.yul\":4589:4598   */\n      dup2\n        /* \"#utility.yul\":4583:4587   */\n      dup2\n        /* \"#utility.yul\":4579:4599   */\n      sub\n        /* \"#utility.yul\":4575:4576   */\n      0x00\n        /* \"#utility.yul\":4564:4573   */\n      dup4\n        /* \"#utility.yul\":4560:4577   */\n      add\n        /* \"#utility.yul\":4553:4600   */\n      mstore\n        /* \"#utility.yul\":4617:4748   */\n      tag_155\n        /* \"#utility.yul\":4743:4747   */\n      dup2\n        /* \"#utility.yul\":4617:4748   */\n      tag_89\n      jump\t// in\n    tag_155:\n        /* \"#utility.yul\":4609:4748   */\n      swap1\n      pop\n        /* \"#utility.yul\":4336:4755   */\n      swap2\n      swap1\n      pop\n      jump\t// out\n        /* \"#utility.yul\":4761:4935   */\n    tag_90:\n        /* \"#utility.yul\":4901:4927   */\n      0x4361722069732063757272656e746c79206c65617365642e0000000000000000\n        /* \"#utility.yul\":4897:4898   */\n      0x00\n        /* \"#utility.yul\":4889:4895   */\n      dup3\n        /* \"#utility.yul\":4885:4899   */\n      add\n        /* \"#utility.yul\":4878:4928   */\n      mstore\n        /* \"#utility.yul\":4761:4935   */\n      pop\n      jump\t// out\n        /* \"#utility.yul\":4941:5307   */\n    tag_91:\n        /* \"#utility.yul\":5083:5086   */\n      0x00\n        /* \"#utility.yul\":5104:5171   */\n      tag_158\n        /* \"#utility.yul\":5168:5170   */\n      0x18\n        /* \"#utility.yul\":5163:5166   */\n      dup4\n        /* \"#utility.yul\":5104:5171   */\n      tag_87\n      jump\t// in\n    tag_158:\n        /* \"#utility.yul\":5097:5171   */\n      swap2\n      pop\n        /* \"#utility.yul\":5180:5273   */\n      tag_159\n        /* \"#utility.yul\":5269:5272   */\n      dup3\n        /* \"#utility.yul\":5180:5273   */\n      tag_90\n      jump\t// in\n    tag_159:\n        /* \"#utility.yul\":5298:5300   */\n      0x20\n        /* \"#utility.yul\":5293:5296   */\n      dup3\n        /* \"#utility.yul\":5289:5301   */\n      add\n        /* \"#utility.yul\":5282:5301   */\n      swap1\n      pop\n        /* \"#utility.yul\":4941:5307   */\n      swap2\n      swap1\n      pop\n      jump\t// out\n        /* \"#utility.yul\":5313:5732   */\n    tag_36:\n        /* \"#utility.yul\":5479:5483   */\n      0x00\n        /* \"#utility.yul\":5517:5519   */\n      0x20\n        /* \"#utility.yul\":5506:5515   */\n      dup3\n        /* \"#utility.yul\":5502:5520   */\n      add\n        /* \"#utility.yul\":5494:5520   */\n      swap1\n      pop\n        /* \"#utility.yul\":5566:5575   */\n      dup2\n        /* \"#utility.yul\":5560:5564   */\n      dup2\n        /* \"#utility.yul\":5556:5576   */\n      sub\n        /* \"#utility.yul\":5552:5553   */\n      0x00\n        /* \"#utility.yul\":5541:5550   */\n      dup4\n        /* \"#utility.yul\":5537:5554   */\n      add\n        /* \"#utility.yul\":5530:5577   */\n      mstore\n        /* \"#utility.yul\":5594:5725   */\n      tag_161\n        /* \"#utility.yul\":5720:5724   */\n      dup2\n        /* \"#utility.yul\":5594:5725   */\n      tag_91\n      jump\t// in\n    tag_161:\n        /* \"#utility.yul\":5586:5725   */\n      swap1\n      pop\n        /* \"#utility.yul\":5313:5732   */\n      swap2\n      swap1\n      pop\n      jump\t// out\n        /* \"#utility.yul\":5738:5964   */\n    tag_92:\n        /* \"#utility.yul\":5878:5912   */\n      0x53656e7420616d6f756e74206d75737420626520657175616c20746f20636172\n        /* \"#utility.yul\":5874:5875   */\n      0x00\n        /* \"#utility.yul\":5866:5872   */\n      dup3\n        /* \"#utility.yul\":5862:5876   */\n      add\n        /* \"#utility.yul\":5855:5913   */\n      mstore\n        /* \"#utility.yul\":5947:5956   */\n      0x2070726963652e00000000000000000000000000000000000000000000000000\n        /* \"#utility.yul\":5942:5944   */\n      0x20\n        /* \"#utility.yul\":5934:5940   */\n      dup3\n        /* \"#utility.yul\":5930:5945   */\n      add\n        /* \"#utility.yul\":5923:5957   */\n      mstore\n        /* \"#utility.yul\":5738:5964   */\n      pop\n      jump\t// out\n        /* \"#utility.yul\":5970:6336   */\n    tag_93:\n        /* \"#utility.yul\":6112:6115   */\n      0x00\n        /* \"#utility.yul\":6133:6200   */\n      tag_164\n        /* \"#utility.yul\":6197:6199   */\n      0x27\n        /* \"#utility.yul\":6192:6195   */\n      dup4\n        /* \"#utility.yul\":6133:6200   */\n      tag_87\n      jump\t// in\n    tag_164:\n        /* \"#utility.yul\":6126:6200   */\n      swap2\n      pop\n        /* \"#utility.yul\":6209:6302   */\n      tag_165\n        /* \"#utility.yul\":6298:6301   */\n      dup3\n        /* \"#utility.yul\":6209:6302   */\n      tag_92\n      jump\t// in\n    tag_165:\n        /* \"#utility.yul\":6327:6329   */\n      0x40\n        /* \"#utility.yul\":6322:6325   */\n      dup3\n        /* \"#utility.yul\":6318:6330   */\n      add\n        /* \"#utility.yul\":6311:6330   */\n      swap1\n      pop\n        /* \"#utility.yul\":5970:6336   */\n      swap2\n      swap1\n      pop\n      jump\t// out\n        /* \"#utility.yul\":6342:6761   */\n    tag_39:\n        /* \"#utility.yul\":6508:6512   */\n      0x00\n        /* \"#utility.yul\":6546:6548   */\n      0x20\n        /* \"#utility.yul\":6535:6544   */\n      dup3\n        /* \"#utility.yul\":6531:6549   */\n      add\n        /* \"#utility.yul\":6523:6549   */\n      swap1\n      pop\n        /* \"#utility.yul\":6595:6604   */\n      dup2\n        /* \"#utility.yul\":6589:6593   */\n      dup2\n        /* \"#utility.yul\":6585:6605   */\n      sub\n        /* \"#utility.yul\":6581:6582   */\n      0x00\n        /* \"#utility.yul\":6570:6579   */\n      dup4\n        /* \"#utility.yul\":6566:6583   */\n      add\n        /* \"#utility.yul\":6559:6606   */\n      mstore\n        /* \"#utility.yul\":6623:6754   */\n      tag_167\n        /* \"#utility.yul\":6749:6753   */\n      dup2\n        /* \"#utility.yul\":6623:6754   */\n      tag_93\n      jump\t// in\n    tag_167:\n        /* \"#utility.yul\":6615:6754   */\n      swap1\n      pop\n        /* \"#utility.yul\":6342:6761   */\n      swap2\n      swap1\n      pop\n      jump\t// out\n        /* \"#utility.yul\":6767:6939   */\n    tag_94:\n        /* \"#utility.yul\":6907:6931   */\n      0x43617220697320616c7265616479206c65617365642e00000000000000000000\n        /* \"#utility.yul\":6903:6904   */\n      0x00\n        /* \"#utility.yul\":6895:6901   */\n      dup3\n        /* \"#utility.yul\":6891:6905   */\n      add\n        /* \"#utility.yul\":6884:6932   */\n      mstore\n        /* \"#utility.yul\":6767:6939   */\n      pop\n      jump\t// out\n        /* \"#utility.yul\":6945:7311   */\n    tag_95:\n        /* \"#utility.yul\":7087:7090   */\n      0x00\n        /* \"#utility.yul\":7108:7175   */\n      tag_170\n        /* \"#utility.yul\":7172:7174   */\n      0x16\n        /* \"#utility.yul\":7167:7170   */\n      dup4\n        /* \"#utility.yul\":7108:7175   */\n      tag_87\n      jump\t// in\n    tag_170:\n        /* \"#utility.yul\":7101:7175   */\n      swap2\n      pop\n        /* \"#utility.yul\":7184:7277   */\n      tag_171\n        /* \"#utility.yul\":7273:7276   */\n      dup3\n        /* \"#utility.yul\":7184:7277   */\n      tag_94\n      jump\t// in\n    tag_171:\n        /* \"#utility.yul\":7302:7304   */\n      0x20\n        /* \"#utility.yul\":7297:7300   */\n      dup3\n        /* \"#utility.yul\":7293:7305   */\n      add\n        /* \"#utility.yul\":7286:7305   */\n      swap1\n      pop\n        /* \"#utility.yul\":6945:7311   */\n      swap2\n      swap1\n      pop\n      jump\t// out\n        /* \"#utility.yul\":7317:7736   */\n    tag_48:\n        /* \"#utility.yul\":7483:7487   */\n      0x00\n        /* \"#utility.yul\":7521:7523   */\n      0x20\n        /* \"#utility.yul\":7510:7519   */\n      dup3\n        /* \"#utility.yul\":7506:7524   */\n      add\n        /* \"#utility.yul\":7498:7524   */\n      swap1\n      pop\n        /* \"#utility.yul\":7570:7579   */\n      dup2\n        /* \"#utility.yul\":7564:7568   */\n      dup2\n        /* \"#utility.yul\":7560:7580   */\n      sub\n        /* \"#utility.yul\":7556:7557   */\n      0x00\n        /* \"#utility.yul\":7545:7554   */\n      dup4\n        /* \"#utility.yul\":7541:7558   */\n      add\n        /* \"#utility.yul\":7534:7581   */\n      mstore\n        /* \"#utility.yul\":7598:7729   */\n      tag_173\n        /* \"#utility.yul\":7724:7728   */\n      dup2\n        /* \"#utility.yul\":7598:7729   */\n      tag_95\n      jump\t// in\n    tag_173:\n        /* \"#utility.yul\":7590:7729   */\n      swap1\n      pop\n        /* \"#utility.yul\":7317:7736   */\n      swap2\n      swap1\n      pop\n      jump\t// out\n        /* \"#utility.yul\":7742:7973   */\n    tag_96:\n        /* \"#utility.yul\":7882:7916   */\n      0x53656e7420616d6f756e74206d75737420626520657175616c20746f20646570\n        /* \"#utility.yul\":7878:7879   */\n      0x00\n        /* \"#utility.yul\":7870:7876   */\n      dup3\n        /* \"#utility.yul\":7866:7880   */\n      add\n        /* \"#utility.yul\":7859:7917   */\n      mstore\n        /* \"#utility.yul\":7951:7965   */\n      0x6f73697420616d6f756e742e0000000000000000000000000000000000000000\n        /* \"#utility.yul\":7946:7948   */\n      0x20\n        /* \"#utility.yul\":7938:7944   */\n      dup3\n        /* \"#utility.yul\":7934:7949   */\n      add\n        /* \"#utility.yul\":7927:7966   */\n      mstore\n        /* \"#utility.yul\":7742:7973   */\n      pop\n      jump\t// out\n        /* \"#utility.yul\":7979:8345   */\n    tag_97:\n        /* \"#utility.yul\":8121:8124   */\n      0x00\n        /* \"#utility.yul\":8142:8209   */\n      tag_176\n        /* \"#utility.yul\":8206:8208   */\n      0x2c\n        /* \"#utility.yul\":8201:8204   */\n      dup4\n        /* \"#utility.yul\":8142:8209   */\n      tag_87\n      jump\t// in\n    tag_176:\n        /* \"#utility.yul\":8135:8209   */\n      swap2\n      pop\n        /* \"#utility.yul\":8218:8311   */\n      tag_177\n        /* \"#utility.yul\":8307:8310   */\n      dup3\n        /* \"#utility.yul\":8218:8311   */\n      tag_96\n      jump\t// in\n    tag_177:\n        /* \"#utility.yul\":8336:8338   */\n      0x40\n        /* \"#utility.yul\":8331:8334   */\n      dup3\n        /* \"#utility.yul\":8327:8339   */\n      add\n        /* \"#utility.yul\":8320:8339   */\n      swap1\n      pop\n        /* \"#utility.yul\":7979:8345   */\n      swap2\n      swap1\n      pop\n      jump\t// out\n        /* \"#utility.yul\":8351:8770   */\n    tag_51:\n        /* \"#utility.yul\":8517:8521   */\n      0x00\n        /* \"#utility.yul\":8555:8557   */\n      0x20\n        /* \"#utility.yul\":8544:8553   */\n      dup3\n        /* \"#utility.yul\":8540:8558   */\n      add\n        /* \"#utility.yul\":8532:8558   */\n      swap1\n      pop\n        /* \"#utility.yul\":8604:8613   */\n      dup2\n        /* \"#utility.yul\":8598:8602   */\n      dup2\n        /* \"#utility.yul\":8594:8614   */\n      sub\n        /* \"#utility.yul\":8590:8591   */\n      0x00\n        /* \"#utility.yul\":8579:8588   */\n      dup4\n        /* \"#utility.yul\":8575:8592   */\n      add\n        /* \"#utility.yul\":8568:8615   */\n      mstore\n        /* \"#utility.yul\":8632:8763   */\n      tag_179\n        /* \"#utility.yul\":8758:8762   */\n      dup2\n        /* \"#utility.yul\":8632:8763   */\n      tag_97\n      jump\t// in\n    tag_179:\n        /* \"#utility.yul\":8624:8763   */\n      swap1\n      pop\n        /* \"#utility.yul\":8351:8770   */\n      swap2\n      swap1\n      pop\n      jump\t// out\n        /* \"#utility.yul\":8776:8956   */\n    tag_98:\n        /* \"#utility.yul\":8824:8901   */\n      0x4e487b7100000000000000000000000000000000000000000000000000000000\n        /* \"#utility.yul\":8821:8822   */\n      0x00\n        /* \"#utility.yul\":8814:8902   */\n      mstore\n        /* \"#utility.yul\":8921:8925   */\n      0x11\n        /* \"#utility.yul\":8918:8919   */\n      0x04\n        /* \"#utility.yul\":8911:8926   */\n      mstore\n        /* \"#utility.yul\":8945:8949   */\n      0x24\n        /* \"#utility.yul\":8942:8943   */\n      0x00\n        /* \"#utility.yul\":8935:8950   */\n      revert\n        /* \"#utility.yul\":8962:9372   */\n    tag_53:\n        /* \"#utility.yul\":9002:9009   */\n      0x00\n        /* \"#utility.yul\":9025:9045   */\n      tag_182\n        /* \"#utility.yul\":9043:9044   */\n      dup3\n        /* \"#utility.yul\":9025:9045   */\n      tag_73\n      jump\t// in\n    tag_182:\n        /* \"#utility.yul\":9020:9045   */\n      swap2\n      pop\n        /* \"#utility.yul\":9059:9079   */\n      tag_183\n        /* \"#utility.yul\":9077:9078   */\n      dup4\n        /* \"#utility.yul\":9059:9079   */\n      tag_73\n      jump\t// in\n    tag_183:\n        /* \"#utility.yul\":9054:9079   */\n      swap3\n      pop\n        /* \"#utility.yul\":9114:9115   */\n      dup3\n        /* \"#utility.yul\":9111:9112   */\n      dup3\n        /* \"#utility.yul\":9107:9116   */\n      mul\n        /* \"#utility.yul\":9136:9166   */\n      tag_184\n        /* \"#utility.yul\":9154:9165   */\n      dup2\n        /* \"#utility.yul\":9136:9166   */\n      tag_73\n      jump\t// in\n    tag_184:\n        /* \"#utility.yul\":9125:9166   */\n      swap2\n      pop\n        /* \"#utility.yul\":9315:9316   */\n      dup3\n        /* \"#utility.yul\":9306:9313   */\n      dup3\n        /* \"#utility.yul\":9302:9317   */\n      div\n        /* \"#utility.yul\":9299:9300   */\n      dup5\n        /* \"#utility.yul\":9296:9318   */\n      eq\n        /* \"#utility.yul\":9276:9277   */\n      dup4\n        /* \"#utility.yul\":9269:9278   */\n      iszero\n        /* \"#utility.yul\":9249:9332   */\n      or\n        /* \"#utility.yul\":9226:9365   */\n      tag_185\n      jumpi\n        /* \"#utility.yul\":9345:9363   */\n      tag_186\n      tag_98\n      jump\t// in\n    tag_186:\n        /* \"#utility.yul\":9226:9365   */\n    tag_185:\n        /* \"#utility.yul\":9010:9372   */\n      pop\n        /* \"#utility.yul\":8962:9372   */\n      swap3\n      swap2\n      pop\n      pop\n      jump\t// out\n        /* \"#utility.yul\":9378:9569   */\n    tag_55:\n        /* \"#utility.yul\":9418:9421   */\n      0x00\n        /* \"#utility.yul\":9437:9457   */\n      tag_188\n        /* \"#utility.yul\":9455:9456   */\n      dup3\n        /* \"#utility.yul\":9437:9457   */\n      tag_73\n      jump\t// in\n    tag_188:\n        /* \"#utility.yul\":9432:9457   */\n      swap2\n      pop\n        /* \"#utility.yul\":9471:9491   */\n      tag_189\n        /* \"#utility.yul\":9489:9490   */\n      dup4\n        /* \"#utility.yul\":9471:9491   */\n      tag_73\n      jump\t// in\n    tag_189:\n        /* \"#utility.yul\":9466:9491   */\n      swap3\n      pop\n        /* \"#utility.yul\":9514:9515   */\n      dup3\n        /* \"#utility.yul\":9511:9512   */\n      dup3\n        /* \"#utility.yul\":9507:9516   */\n      add\n        /* \"#utility.yul\":9500:9516   */\n      swap1\n      pop\n        /* \"#utility.yul\":9535:9538   */\n      dup1\n        /* \"#utility.yul\":9532:9533   */\n      dup3\n        /* \"#utility.yul\":9529:9539   */\n      gt\n        /* \"#utility.yul\":9526:9562   */\n      iszero\n      tag_190\n      jumpi\n        /* \"#utility.yul\":9542:9560   */\n      tag_191\n      tag_98\n      jump\t// in\n    tag_191:\n        /* \"#utility.yul\":9526:9562   */\n    tag_190:\n        /* \"#utility.yul\":9378:9569   */\n      swap3\n      swap2\n      pop\n      pop\n      jump\t// out\n        /* \"#utility.yul\":9575:9757   */\n    tag_99:\n        /* \"#utility.yul\":9715:9749   */\n      0x5072696365206d7573742062652067726561746572207468616e207a65726f2e\n        /* \"#utility.yul\":9711:9712   */\n      0x00\n        /* \"#utility.yul\":9703:9709   */\n      dup3\n        /* \"#utility.yul\":9699:9713   */\n      add\n        /* \"#utility.yul\":9692:9750   */\n      mstore\n        /* \"#utility.yul\":9575:9757   */\n      pop\n      jump\t// out\n        /* \"#utility.yul\":9763:10129   */\n    tag_100:\n        /* \"#utility.yul\":9905:9908   */\n      0x00\n        /* \"#utility.yul\":9926:9993   */\n      tag_194\n        /* \"#utility.yul\":9990:9992   */\n      0x20\n        /* \"#utility.yul\":9985:9988   */\n      dup4\n        /* \"#utility.yul\":9926:9993   */\n      tag_87\n      jump\t// in\n    tag_194:\n        /* \"#utility.yul\":9919:9993   */\n      swap2\n      pop\n        /* \"#utility.yul\":10002:10095   */\n      tag_195\n        /* \"#utility.yul\":10091:10094   */\n      dup3\n        /* \"#utility.yul\":10002:10095   */\n      tag_99\n      jump\t// in\n    tag_195:\n        /* \"#utility.yul\":10120:10122   */\n      0x20\n        /* \"#utility.yul\":10115:10118   */\n      dup3\n        /* \"#utility.yul\":10111:10123   */\n      add\n        /* \"#utility.yul\":10104:10123   */\n      swap1\n      pop\n        /* \"#utility.yul\":9763:10129   */\n      swap2\n      swap1\n      pop\n      jump\t// out\n        /* \"#utility.yul\":10135:10554   */\n    tag_62:\n        /* \"#utility.yul\":10301:10305   */\n      0x00\n        /* \"#utility.yul\":10339:10341   */\n      0x20\n        /* \"#utility.yul\":10328:10337   */\n      dup3\n        /* \"#utility.yul\":10324:10342   */\n      add\n        /* \"#utility.yul\":10316:10342   */\n      swap1\n      pop\n        /* \"#utility.yul\":10388:10397   */\n      dup2\n        /* \"#utility.yul\":10382:10386   */\n      dup2\n        /* \"#utility.yul\":10378:10398   */\n      sub\n        /* \"#utility.yul\":10374:10375   */\n      0x00\n        /* \"#utility.yul\":10363:10372   */\n      dup4\n        /* \"#utility.yul\":10359:10376   */\n      add\n        /* \"#utility.yul\":10352:10399   */\n      mstore\n        /* \"#utility.yul\":10416:10547   */\n      tag_197\n        /* \"#utility.yul\":10542:10546   */\n      dup2\n        /* \"#utility.yul\":10416:10547   */\n      tag_100\n      jump\t// in\n    tag_197:\n        /* \"#utility.yul\":10408:10547   */\n      swap1\n      pop\n        /* \"#utility.yul\":10135:10554   */\n      swap2\n      swap1\n      pop\n      jump\t// out\n        /* \"#utility.yul\":10560:10781   */\n    tag_101:\n        /* \"#utility.yul\":10700:10734   */\n      0x4465706f736974206d7573742062652067726561746572207468616e207a6572\n        /* \"#utility.yul\":10696:10697   */\n      0x00\n        /* \"#utility.yul\":10688:10694   */\n      dup3\n        /* \"#utility.yul\":10684:10698   */\n      add\n        /* \"#utility.yul\":10677:10735   */\n      mstore\n        /* \"#utility.yul\":10769:10773   */\n      0x6f2e000000000000000000000000000000000000000000000000000000000000\n        /* \"#utility.yul\":10764:10766   */\n      0x20\n        /* \"#utility.yul\":10756:10762   */\n      dup3\n        /* \"#utility.yul\":10752:10767   */\n      add\n        /* \"#utility.yul\":10745:10774   */\n      mstore\n        /* \"#utility.yul\":10560:10781   */\n      pop\n      jump\t// out\n        /* \"#utility.yul\":10787:11153   */\n    tag_102:\n        /* \"#utility.yul\":10929:10932   */\n      0x00\n        /* \"#utility.yul\":10950:11017   */\n      tag_200\n        /* \"#utility.yul\":11014:11016   */\n      0x22\n        /* \"#utility.yul\":11009:11012   */\n      dup4\n        /* \"#utility.yul\":10950:11017   */\n      tag_87\n      jump\t// in\n    tag_200:\n        /* \"#utility.yul\":10943:11017   */\n      swap2\n      pop\n        /* \"#utility.yul\":11026:11119   */\n      tag_201\n        /* \"#utility.yul\":11115:11118   */\n      dup3\n        /* \"#utility.yul\":11026:11119   */\n      tag_101\n      jump\t// in\n    tag_201:\n        /* \"#utility.yul\":11144:11146   */\n      0x40\n        /* \"#utility.yul\":11139:11142   */\n      dup3\n        /* \"#utility.yul\":11135:11147   */\n      add\n        /* \"#utility.yul\":11128:11147   */\n      swap1\n      pop\n        /* \"#utility.yul\":10787:11153   */\n      swap2\n      swap1\n      pop\n      jump\t// out\n        /* \"#utility.yul\":11159:11578   */\n    tag_65:\n        /* \"#utility.yul\":11325:11329   */\n      0x00\n        /* \"#utility.yul\":11363:11365   */\n      0x20\n        /* \"#utility.yul\":11352:11361   */\n      dup3\n        /* \"#utility.yul\":11348:11366   */\n      add\n        /* \"#utility.yul\":11340:11366   */\n      swap1\n      pop\n        /* \"#utility.yul\":11412:11421   */\n      dup2\n        /* \"#utility.yul\":11406:11410   */\n      dup2\n        /* \"#utility.yul\":11402:11422   */\n      sub\n        /* \"#utility.yul\":11398:11399   */\n      0x00\n        /* \"#utility.yul\":11387:11396   */\n      dup4\n        /* \"#utility.yul\":11383:11400   */\n      add\n        /* \"#utility.yul\":11376:11423   */\n      mstore\n        /* \"#utility.yul\":11440:11571   */\n      tag_203\n        /* \"#utility.yul\":11566:11570   */\n      dup2\n        /* \"#utility.yul\":11440:11571   */\n      tag_102\n      jump\t// in\n    tag_203:\n        /* \"#utility.yul\":11432:11571   */\n      swap1\n      pop\n        /* \"#utility.yul\":11159:11578   */\n      swap2\n      swap1\n      pop\n      jump\t// out\n        /* \"#utility.yul\":11584:11808   */\n    tag_103:\n        /* \"#utility.yul\":11724:11758   */\n      0x4c65617365207465726d206d7573742062652067726561746572207468616e20\n        /* \"#utility.yul\":11720:11721   */\n      0x00\n        /* \"#utility.yul\":11712:11718   */\n      dup3\n        /* \"#utility.yul\":11708:11722   */\n      add\n        /* \"#utility.yul\":11701:11759   */\n      mstore\n        /* \"#utility.yul\":11793:11800   */\n      0x7a65726f2e000000000000000000000000000000000000000000000000000000\n        /* \"#utility.yul\":11788:11790   */\n      0x20\n        /* \"#utility.yul\":11780:11786   */\n      dup3\n        /* \"#utility.yul\":11776:11791   */\n      add\n        /* \"#utility.yul\":11769:11801   */\n      mstore\n        /* \"#utility.yul\":11584:11808   */\n      pop\n      jump\t// out\n        /* \"#utility.yul\":11814:12180   */\n    tag_104:\n        /* \"#utility.yul\":11956:11959   */\n      0x00\n        /* \"#utility.yul\":11977:12044   */\n      tag_206\n        /* \"#utility.yul\":12041:12043   */\n      0x25\n        /* \"#utility.yul\":12036:12039   */\n      dup4\n        /* \"#utility.yul\":11977:12044   */\n      tag_87\n      jump\t// in\n    tag_206:\n        /* \"#utility.yul\":11970:12044   */\n      swap2\n      pop\n        /* \"#utility.yul\":12053:12146   */\n      tag_207\n        /* \"#utility.yul\":12142:12145   */\n      dup3\n        /* \"#utility.yul\":12053:12146   */\n      tag_103\n      jump\t// in\n    tag_207:\n        /* \"#utility.yul\":12171:12173   */\n      0x40\n        /* \"#utility.yul\":12166:12169   */\n      dup3\n        /* \"#utility.yul\":12162:12174   */\n      add\n        /* \"#utility.yul\":12155:12174   */\n      swap1\n      pop\n        /* \"#utility.yul\":11814:12180   */\n      swap2\n      swap1\n      pop\n      jump\t// out\n        /* \"#utility.yul\":12186:12605   */\n    tag_68:\n        /* \"#utility.yul\":12352:12356   */\n      0x00\n        /* \"#utility.yul\":12390:12392   */\n      0x20\n        /* \"#utility.yul\":12379:12388   */\n      dup3\n        /* \"#utility.yul\":12375:12393   */\n      add\n        /* \"#utility.yul\":12367:12393   */\n      swap1\n      pop\n        /* \"#utility.yul\":12439:12448   */\n      dup2\n        /* \"#utility.yul\":12433:12437   */\n      dup2\n        /* \"#utility.yul\":12429:12449   */\n      sub\n        /* \"#utility.yul\":12425:12426   */\n      0x00\n        /* \"#utility.yul\":12414:12423   */\n      dup4\n        /* \"#utility.yul\":12410:12427   */\n      add\n        /* \"#utility.yul\":12403:12450   */\n      mstore\n        /* \"#utility.yul\":12467:12598   */\n      tag_209\n        /* \"#utility.yul\":12593:12597   */\n      dup2\n        /* \"#utility.yul\":12467:12598   */\n      tag_104\n      jump\t// in\n    tag_209:\n        /* \"#utility.yul\":12459:12598   */\n      swap1\n      pop\n        /* \"#utility.yul\":12186:12605   */\n      swap2\n      swap1\n      pop\n      jump\t// out\n        /* \"#utility.yul\":12611:12844   */\n    tag_70:\n        /* \"#utility.yul\":12650:12653   */\n      0x00\n        /* \"#utility.yul\":12673:12697   */\n      tag_211\n        /* \"#utility.yul\":12691:12696   */\n      dup3\n        /* \"#utility.yul\":12673:12697   */\n      tag_73\n      jump\t// in\n    tag_211:\n        /* \"#utility.yul\":12664:12697   */\n      swap2\n      pop\n        /* \"#utility.yul\":12719:12785   */\n      0xffffffffffffffffffffffffffffffffffffffffffffffffffffffffffffffff\n        /* \"#utility.yul\":12712:12717   */\n      dup3\n        /* \"#utility.yul\":12709:12786   */\n      sub\n        /* \"#utility.yul\":12706:12809   */\n      tag_212\n      jumpi\n        /* \"#utility.yul\":12789:12807   */\n      tag_213\n      tag_98\n      jump\t// in\n    tag_213:\n        /* \"#utility.yul\":12706:12809   */\n    tag_212:\n        /* \"#utility.yul\":12836:12837   */\n      0x01\n        /* \"#utility.yul\":12829:12834   */\n      dup3\n        /* \"#utility.yul\":12825:12838   */\n      add\n        /* \"#utility.yul\":12818:12838   */\n      swap1\n      pop\n        /* \"#utility.yul\":12611:12844   */\n      swap2\n      swap1\n      pop\n      jump\t// out\n        /* \"#utility.yul\":12850:13292   */\n    tag_72:\n        /* \"#utility.yul\":12999:13003   */\n      0x00\n        /* \"#utility.yul\":13037:13039   */\n      0x60\n        /* \"#utility.yul\":13026:13035   */\n      dup3\n        /* \"#utility.yul\":13022:13040   */\n      add\n        /* \"#utility.yul\":13014:13040   */\n      swap1\n      pop\n        /* \"#utility.yul\":13050:13121   */\n      tag_215\n        /* \"#utility.yul\":13118:13119   */\n      0x00\n        /* \"#utility.yul\":13107:13116   */\n      dup4\n        /* \"#utility.yul\":13103:13120   */\n      add\n        /* \"#utility.yul\":13094:13100   */\n      dup7\n        /* \"#utility.yul\":13050:13121   */\n      tag_74\n      jump\t// in\n    tag_215:\n        /* \"#utility.yul\":13131:13203   */\n      tag_216\n        /* \"#utility.yul\":13199:13201   */\n      0x20\n        /* \"#utility.yul\":13188:13197   */\n      dup4\n        /* \"#utility.yul\":13184:13202   */\n      add\n        /* \"#utility.yul\":13175:13181   */\n      dup6\n        /* \"#utility.yul\":13131:13203   */\n      tag_74\n      jump\t// in\n    tag_216:\n        /* \"#utility.yul\":13213:13285   */\n      tag_217\n        /* \"#utility.yul\":13281:13283   */\n      0x40\n        /* \"#utility.yul\":13270:13279   */\n      dup4\n        /* \"#utility.yul\":13266:13284   */\n      add\n        /* \"#utility.yul\":13257:13263   */\n      dup5\n        /* \"#utility.yul\":13213:13285   */\n      tag_74\n      jump\t// in\n    tag_217:\n        /* \"#utility.yul\":12850:13292   */\n      swap5\n      swap4\n      pop\n      pop\n      pop\n      pop\n      jump\t// out\n\n    auxdata: 0xa26469706673582212202d4954c2c7255533d0c3cccd50825ecc132834df3794990a96826e6a4f65979964736f6c634300081a0033\n}\n",
				"bytecode": {
					"linkReferences": {},
					"object": "6080604052348015600e575f80fd5b505f600181905550610fb2806100235f395ff3fe608060405260043610610049575f3560e01c8063297a1f561461004d57806339faf3ae146100775780635e624a2a14610093578063afd79cbd146100af578063eae3c03f146100f0575b5f80fd5b348015610058575f80fd5b50610061610118565b60405161006e91906108d3565b60405180910390f35b610091600480360381019061008c919061094a565b61011e565b005b6100ad60048036038101906100a8919061094a565b6103a9565b005b3480156100ba575f80fd5b506100d560048036038101906100d0919061094a565b610611565b6040516100e79695949392919061099e565b60405180910390f35b3480156100fb575f80fd5b5061011660048036038101906101119190610a27565b610673565b005b60015481565b5f805f8373ffffffffffffffffffffffffffffffffffffffff1673ffffffffffffffffffffffffffffffffffffffff1681526020019081526020015f2090505f73ffffffffffffffffffffffffffffffffffffffff16815f015f9054906101000a900473ffffffffffffffffffffffffffffffffffffffff1673ffffffffffffffffffffffffffffffffffffffff16036101ed576040517f08c379a00000000000000000000000000000000000000000000000000000000081526004016101e490610ad1565b60405180910390fd5b806005015f9054906101000a900460ff161561023e576040517f08c379a000000000000000000000000000000000000000000000000000000000815260040161023590610b39565b60405180910390fd5b80600101543414610284576040517f08c379a000000000000000000000000000000000000000000000000000000000815260040161027b90610bc7565b60405180910390fd5b805f015f9054906101000a900473ffffffffffffffffffffffffffffffffffffffff1673ffffffffffffffffffffffffffffffffffffffff166108fc826001015490811502906040515f60405180830381858888f193505050501580156102ed573d5f803e3d5ffd5b5033815f015f6101000a81548173ffffffffffffffffffffffffffffffffffffffff021916908373ffffffffffffffffffffffffffffffffffffffff1602179055505f816005015f6101000a81548160ff0219169083151502179055505f81600201819055503373ffffffffffffffffffffffffffffffffffffffff167f7f6d8fc3a134404ed5833fb36b035431b384ed1faecf6cb9b58827c40e71969d826001015460405161039d91906108d3565b60405180910390a25050565b5f805f8373ffffffffffffffffffffffffffffffffffffffff1673ffffffffffffffffffffffffffffffffffffffff1681526020019081526020015f2090505f73ffffffffffffffffffffffffffffffffffffffff16815f015f9054906101000a900473ffffffffffffffffffffffffffffffffffffffff1673ffffffffffffffffffffffffffffffffffffffff1603610478576040517f08c379a000000000000000000000000000000000000000000000000000000000815260040161046f90610ad1565b60405180910390fd5b806005015f9054906101000a900460ff16156104c9576040517f08c379a00000000000000000000000000000000000000000000000000000000081526004016104c090610c2f565b60405180910390fd5b8060020154341461050f576040517f08c379a000000000000000000000000000000000000000000000000000000000815260040161050690610cbd565b60405180910390fd5b6001816005015f6101000a81548160ff02191690831515021790555062015180816003015461053e9190610d08565b426105499190610d49565b8160040181905550805f015f9054906101000a900473ffffffffffffffffffffffffffffffffffffffff1673ffffffffffffffffffffffffffffffffffffffff166108fc826002015490811502906040515f60405180830381858888f193505050501580156105ba573d5f803e3d5ffd5b503373ffffffffffffffffffffffffffffffffffffffff167f805ecc0a8a5bd3a06d7274608b789b709dfcbcaa69d2a525fa668d2ecd9efd87826004015460405161060591906108d3565b60405180910390a25050565b5f602052805f5260405f205f91509050805f015f9054906101000a900473ffffffffffffffffffffffffffffffffffffffff1690806001015490806002015490806003015490806004015490806005015f9054906101000a900460ff16905086565b5f83116106b5576040517f08c379a00000000000000000000000000000000000000000000000000000000081526004016106ac90610dc6565b60405180910390fd5b5f82116106f7576040517f08c379a00000000000000000000000000000000000000000000000000000000081526004016106ee90610e54565b60405180910390fd5b5f8111610739576040517f08c379a000000000000000000000000000000000000000000000000000000000815260040161073090610ee2565b60405180910390fd5b5f6040518060c001604052803373ffffffffffffffffffffffffffffffffffffffff1681526020018581526020018481526020018381526020015f81526020015f15158152509050805f803373ffffffffffffffffffffffffffffffffffffffff1673ffffffffffffffffffffffffffffffffffffffff1681526020019081526020015f205f820151815f015f6101000a81548173ffffffffffffffffffffffffffffffffffffffff021916908373ffffffffffffffffffffffffffffffffffffffff1602179055506020820151816001015560408201518160020155606082015181600301556080820151816004015560a0820151816005015f6101000a81548160ff02191690831515021790555090505060015f81548092919061085e90610f00565b91905055503373ffffffffffffffffffffffffffffffffffffffff167fa4dba689200e85ed3727de0f7e1e96b62560814e131e21c85c7b93981f6afb058585856040516108ad93929190610f47565b60405180910390a250505050565b5f819050919050565b6108cd816108bb565b82525050565b5f6020820190506108e65f8301846108c4565b92915050565b5f80fd5b5f73ffffffffffffffffffffffffffffffffffffffff82169050919050565b5f610919826108f0565b9050919050565b6109298161090f565b8114610933575f80fd5b50565b5f8135905061094481610920565b92915050565b5f6020828403121561095f5761095e6108ec565b5b5f61096c84828501610936565b91505092915050565b61097e8161090f565b82525050565b5f8115159050919050565b61099881610984565b82525050565b5f60c0820190506109b15f830189610975565b6109be60208301886108c4565b6109cb60408301876108c4565b6109d860608301866108c4565b6109e560808301856108c4565b6109f260a083018461098f565b979650505050505050565b610a06816108bb565b8114610a10575f80fd5b50565b5f81359050610a21816109fd565b92915050565b5f805f60608486031215610a3e57610a3d6108ec565b5b5f610a4b86828701610a13565b9350506020610a5c86828701610a13565b9250506040610a6d86828701610a13565b9150509250925092565b5f82825260208201905092915050565b7f436172206f776e6572206e6f7420666f756e642e0000000000000000000000005f82015250565b5f610abb601483610a77565b9150610ac682610a87565b602082019050919050565b5f6020820190508181035f830152610ae881610aaf565b9050919050565b7f4361722069732063757272656e746c79206c65617365642e00000000000000005f82015250565b5f610b23601883610a77565b9150610b2e82610aef565b602082019050919050565b5f6020820190508181035f830152610b5081610b17565b9050919050565b7f53656e7420616d6f756e74206d75737420626520657175616c20746f206361725f8201527f2070726963652e00000000000000000000000000000000000000000000000000602082015250565b5f610bb1602783610a77565b9150610bbc82610b57565b604082019050919050565b5f6020820190508181035f830152610bde81610ba5565b9050919050565b7f43617220697320616c7265616479206c65617365642e000000000000000000005f82015250565b5f610c19601683610a77565b9150610c2482610be5565b602082019050919050565b5f6020820190508181035f830152610c4681610c0d565b9050919050565b7f53656e7420616d6f756e74206d75737420626520657175616c20746f206465705f8201527f6f73697420616d6f756e742e0000000000000000000000000000000000000000602082015250565b5f610ca7602c83610a77565b9150610cb282610c4d565b604082019050919050565b5f6020820190508181035f830152610cd481610c9b565b9050919050565b7f4e487b71000000000000000000000000000000000000000000000000000000005f52601160045260245ffd5b5f610d12826108bb565b9150610d1d836108bb565b9250828202610d2b816108bb565b91508282048414831517610d4257610d41610cdb565b5b5092915050565b5f610d53826108bb565b9150610d5e836108bb565b9250828201905080821115610d7657610d75610cdb565b5b92915050565b7f5072696365206d7573742062652067726561746572207468616e207a65726f2e5f82015250565b5f610db0602083610a77565b9150610dbb82610d7c565b602082019050919050565b5f6020820190508181035f830152610ddd81610da4565b9050919050565b7f4465706f736974206d7573742062652067726561746572207468616e207a65725f8201527f6f2e000000000000000000000000000000000000000000000000000000000000602082015250565b5f610e3e602283610a77565b9150610e4982610de4565b604082019050919050565b5f6020820190508181035f830152610e6b81610e32565b9050919050565b7f4c65617365207465726d206d7573742062652067726561746572207468616e205f8201527f7a65726f2e000000000000000000000000000000000000000000000000000000602082015250565b5f610ecc602583610a77565b9150610ed782610e72565b604082019050919050565b5f6020820190508181035f830152610ef981610ec0565b9050919050565b5f610f0a826108bb565b91507fffffffffffffffffffffffffffffffffffffffffffffffffffffffffffffffff8203610f3c57610f3b610cdb565b5b600182019050919050565b5f606082019050610f5a5f8301866108c4565b610f6760208301856108c4565b610f7460408301846108c4565b94935050505056fea26469706673582212202d4954c2c7255533d0c3cccd50825ecc132834df3794990a96826e6a4f65979964736f6c634300081a0033",
					"opcodes": "PUSH1 0x80 PUSH1 0x40 MSTORE CALLVALUE DUP1 ISZERO PUSH1 0xE JUMPI PUSH0 DUP1 REVERT JUMPDEST POP PUSH0 PUSH1 0x1 DUP2 SWAP1 SSTORE POP PUSH2 0xFB2 DUP1 PUSH2 0x23 PUSH0 CODECOPY PUSH0 RETURN INVALID PUSH1 0x80 PUSH1 0x40 MSTORE PUSH1 0x4 CALLDATASIZE LT PUSH2 0x49 JUMPI PUSH0 CALLDATALOAD PUSH1 0xE0 SHR DUP1 PUSH4 0x297A1F56 EQ PUSH2 0x4D JUMPI DUP1 PUSH4 0x39FAF3AE EQ PUSH2 0x77 JUMPI DUP1 PUSH4 0x5E624A2A EQ PUSH2 0x93 JUMPI DUP1 PUSH4 0xAFD79CBD EQ PUSH2 0xAF JUMPI DUP1 PUSH4 0xEAE3C03F EQ PUSH2 0xF0 JUMPI JUMPDEST PUSH0 DUP1 REVERT JUMPDEST CALLVALUE DUP1 ISZERO PUSH2 0x58 JUMPI PUSH0 DUP1 REVERT JUMPDEST POP PUSH2 0x61 PUSH2 0x118 JUMP JUMPDEST PUSH1 0x40 MLOAD PUSH2 0x6E SWAP2 SWAP1 PUSH2 0x8D3 JUMP JUMPDEST PUSH1 0x40 MLOAD DUP1 SWAP2 SUB SWAP1 RETURN JUMPDEST PUSH2 0x91 PUSH1 0x4 DUP1 CALLDATASIZE SUB DUP2 ADD SWAP1 PUSH2 0x8C SWAP2 SWAP1 PUSH2 0x94A JUMP JUMPDEST PUSH2 0x11E JUMP JUMPDEST STOP JUMPDEST PUSH2 0xAD PUSH1 0x4 DUP1 CALLDATASIZE SUB DUP2 ADD SWAP1 PUSH2 0xA8 SWAP2 SWAP1 PUSH2 0x94A JUMP JUMPDEST PUSH2 0x3A9 JUMP JUMPDEST STOP JUMPDEST CALLVALUE DUP1 ISZERO PUSH2 0xBA JUMPI PUSH0 DUP1 REVERT JUMPDEST POP PUSH2 0xD5 PUSH1 0x4 DUP1 CALLDATASIZE SUB DUP2 ADD SWAP1 PUSH2 0xD0 SWAP2 SWAP1 PUSH2 0x94A JUMP JUMPDEST PUSH2 0x611 JUMP JUMPDEST PUSH1 0x40 MLOAD PUSH2 0xE7 SWAP7 SWAP6 SWAP5 SWAP4 SWAP3 SWAP2 SWAP1 PUSH2 0x99E JUMP JUMPDEST PUSH1 0x40 MLOAD DUP1 SWAP2 SUB SWAP1 RETURN JUMPDEST CALLVALUE DUP1 ISZERO PUSH2 0xFB JUMPI PUSH0 DUP1 REVERT JUMPDEST POP PUSH2 0x116 PUSH1 0x4 DUP1 CALLDATASIZE SUB DUP2 ADD SWAP1 PUSH2 0x111 SWAP2 SWAP1 PUSH2 0xA27 JUMP JUMPDEST PUSH2 0x673 JUMP JUMPDEST STOP JUMPDEST PUSH1 0x1 SLOAD DUP2 JUMP JUMPDEST PUSH0 DUP1 PUSH0 DUP4 PUSH20 0xFFFFFFFFFFFFFFFFFFFFFFFFFFFFFFFFFFFFFFFF AND PUSH20 0xFFFFFFFFFFFFFFFFFFFFFFFFFFFFFFFFFFFFFFFF AND DUP2 MSTORE PUSH1 0x20 ADD SWAP1 DUP2 MSTORE PUSH1 0x20 ADD PUSH0 KECCAK256 SWAP1 POP PUSH0 PUSH20 0xFFFFFFFFFFFFFFFFFFFFFFFFFFFFFFFFFFFFFFFF AND DUP2 PUSH0 ADD PUSH0 SWAP1 SLOAD SWAP1 PUSH2 0x100 EXP SWAP1 DIV PUSH20 0xFFFFFFFFFFFFFFFFFFFFFFFFFFFFFFFFFFFFFFFF AND PUSH20 0xFFFFFFFFFFFFFFFFFFFFFFFFFFFFFFFFFFFFFFFF AND SUB PUSH2 0x1ED JUMPI PUSH1 0x40 MLOAD PUSH32 0x8C379A000000000000000000000000000000000000000000000000000000000 DUP2 MSTORE PUSH1 0x4 ADD PUSH2 0x1E4 SWAP1 PUSH2 0xAD1 JUMP JUMPDEST PUSH1 0x40 MLOAD DUP1 SWAP2 SUB SWAP1 REVERT JUMPDEST DUP1 PUSH1 0x5 ADD PUSH0 SWAP1 SLOAD SWAP1 PUSH2 0x100 EXP SWAP1 DIV PUSH1 0xFF AND ISZERO PUSH2 0x23E JUMPI PUSH1 0x40 MLOAD PUSH32 0x8C379A000000000000000000000000000000000000000000000000000000000 DUP2 MSTORE PUSH1 0x4 ADD PUSH2 0x235 SWAP1 PUSH2 0xB39 JUMP JUMPDEST PUSH1 0x40 MLOAD DUP1 SWAP2 SUB SWAP1 REVERT JUMPDEST DUP1 PUSH1 0x1 ADD SLOAD CALLVALUE EQ PUSH2 0x284 JUMPI PUSH1 0x40 MLOAD PUSH32 0x8C379A000000000000000000000000000000000000000000000000000000000 DUP2 MSTORE PUSH1 0x4 ADD PUSH2 0x27B SWAP1 PUSH2 0xBC7 JUMP JUMPDEST PUSH1 0x40 MLOAD DUP1 SWAP2 SUB SWAP1 REVERT JUMPDEST DUP1 PUSH0 ADD PUSH0 SWAP1 SLOAD SWAP1 PUSH2 0x100 EXP SWAP1 DIV PUSH20 0xFFFFFFFFFFFFFFFFFFFFFFFFFFFFFFFFFFFFFFFF AND PUSH20 0xFFFFFFFFFFFFFFFFFFFFFFFFFFFFFFFFFFFFFFFF AND PUSH2 0x8FC DUP3 PUSH1 0x1 ADD SLOAD SWAP1 DUP2 ISZERO MUL SWAP1 PUSH1 0x40 MLOAD PUSH0 PUSH1 0x40 MLOAD DUP1 DUP4 SUB DUP2 DUP6 DUP9 DUP9 CALL SWAP4 POP POP POP POP ISZERO DUP1 ISZERO PUSH2 0x2ED JUMPI RETURNDATASIZE PUSH0 DUP1 RETURNDATACOPY RETURNDATASIZE PUSH0 REVERT JUMPDEST POP CALLER DUP2 PUSH0 ADD PUSH0 PUSH2 0x100 EXP DUP2 SLOAD DUP2 PUSH20 0xFFFFFFFFFFFFFFFFFFFFFFFFFFFFFFFFFFFFFFFF MUL NOT AND SWAP1 DUP4 PUSH20 0xFFFFFFFFFFFFFFFFFFFFFFFFFFFFFFFFFFFFFFFF AND MUL OR SWAP1 SSTORE POP PUSH0 DUP2 PUSH1 0x5 ADD PUSH0 PUSH2 0x100 EXP DUP2 SLOAD DUP2 PUSH1 0xFF MUL NOT AND SWAP1 DUP4 ISZERO ISZERO MUL OR SWAP1 SSTORE POP PUSH0 DUP2 PUSH1 0x2 ADD DUP2 SWAP1 SSTORE POP CALLER PUSH20 0xFFFFFFFFFFFFFFFFFFFFFFFFFFFFFFFFFFFFFFFF AND PUSH32 0x7F6D8FC3A134404ED5833FB36B035431B384ED1FAECF6CB9B58827C40E71969D DUP3 PUSH1 0x1 ADD SLOAD PUSH1 0x40 MLOAD PUSH2 0x39D SWAP2 SWAP1 PUSH2 0x8D3 JUMP JUMPDEST PUSH1 0x40 MLOAD DUP1 SWAP2 SUB SWAP1 LOG2 POP POP JUMP JUMPDEST PUSH0 DUP1 PUSH0 DUP4 PUSH20 0xFFFFFFFFFFFFFFFFFFFFFFFFFFFFFFFFFFFFFFFF AND PUSH20 0xFFFFFFFFFFFFFFFFFFFFFFFFFFFFFFFFFFFFFFFF AND DUP2 MSTORE PUSH1 0x20 ADD SWAP1 DUP2 MSTORE PUSH1 0x20 ADD PUSH0 KECCAK256 SWAP1 POP PUSH0 PUSH20 0xFFFFFFFFFFFFFFFFFFFFFFFFFFFFFFFFFFFFFFFF AND DUP2 PUSH0 ADD PUSH0 SWAP1 SLOAD SWAP1 PUSH2 0x100 EXP SWAP1 DIV PUSH20 0xFFFFFFFFFFFFFFFFFFFFFFFFFFFFFFFFFFFFFFFF AND PUSH20 0xFFFFFFFFFFFFFFFFFFFFFFFFFFFFFFFFFFFFFFFF AND SUB PUSH2 0x478 JUMPI PUSH1 0x40 MLOAD PUSH32 0x8C379A000000000000000000000000000000000000000000000000000000000 DUP2 MSTORE PUSH1 0x4 ADD PUSH2 0x46F SWAP1 PUSH2 0xAD1 JUMP JUMPDEST PUSH1 0x40 MLOAD DUP1 SWAP2 SUB SWAP1 REVERT JUMPDEST DUP1 PUSH1 0x5 ADD PUSH0 SWAP1 SLOAD SWAP1 PUSH2 0x100 EXP SWAP1 DIV PUSH1 0xFF AND ISZERO PUSH2 0x4C9 JUMPI PUSH1 0x40 MLOAD PUSH32 0x8C379A000000000000000000000000000000000000000000000000000000000 DUP2 MSTORE PUSH1 0x4 ADD PUSH2 0x4C0 SWAP1 PUSH2 0xC2F JUMP JUMPDEST PUSH1 0x40 MLOAD DUP1 SWAP2 SUB SWAP1 REVERT JUMPDEST DUP1 PUSH1 0x2 ADD SLOAD CALLVALUE EQ PUSH2 0x50F JUMPI PUSH1 0x40 MLOAD PUSH32 0x8C379A000000000000000000000000000000000000000000000000000000000 DUP2 MSTORE PUSH1 0x4 ADD PUSH2 0x506 SWAP1 PUSH2 0xCBD JUMP JUMPDEST PUSH1 0x40 MLOAD DUP1 SWAP2 SUB SWAP1 REVERT JUMPDEST PUSH1 0x1 DUP2 PUSH1 0x5 ADD PUSH0 PUSH2 0x100 EXP DUP2 SLOAD DUP2 PUSH1 0xFF MUL NOT AND SWAP1 DUP4 ISZERO ISZERO MUL OR SWAP1 SSTORE POP PUSH3 0x15180 DUP2 PUSH1 0x3 ADD SLOAD PUSH2 0x53E SWAP2 SWAP1 PUSH2 0xD08 JUMP JUMPDEST TIMESTAMP PUSH2 0x549 SWAP2 SWAP1 PUSH2 0xD49 JUMP JUMPDEST DUP2 PUSH1 0x4 ADD DUP2 SWAP1 SSTORE POP DUP1 PUSH0 ADD PUSH0 SWAP1 SLOAD SWAP1 PUSH2 0x100 EXP SWAP1 DIV PUSH20 0xFFFFFFFFFFFFFFFFFFFFFFFFFFFFFFFFFFFFFFFF AND PUSH20 0xFFFFFFFFFFFFFFFFFFFFFFFFFFFFFFFFFFFFFFFF AND PUSH2 0x8FC DUP3 PUSH1 0x2 ADD SLOAD SWAP1 DUP2 ISZERO MUL SWAP1 PUSH1 0x40 MLOAD PUSH0 PUSH1 0x40 MLOAD DUP1 DUP4 SUB DUP2 DUP6 DUP9 DUP9 CALL SWAP4 POP POP POP POP ISZERO DUP1 ISZERO PUSH2 0x5BA JUMPI RETURNDATASIZE PUSH0 DUP1 RETURNDATACOPY RETURNDATASIZE PUSH0 REVERT JUMPDEST POP CALLER PUSH20 0xFFFFFFFFFFFFFFFFFFFFFFFFFFFFFFFFFFFFFFFF AND PUSH32 0x805ECC0A8A5BD3A06D7274608B789B709DFCBCAA69D2A525FA668D2ECD9EFD87 DUP3 PUSH1 0x4 ADD SLOAD PUSH1 0x40 MLOAD PUSH2 0x605 SWAP2 SWAP1 PUSH2 0x8D3 JUMP JUMPDEST PUSH1 0x40 MLOAD DUP1 SWAP2 SUB SWAP1 LOG2 POP POP JUMP JUMPDEST PUSH0 PUSH1 0x20 MSTORE DUP1 PUSH0 MSTORE PUSH1 0x40 PUSH0 KECCAK256 PUSH0 SWAP2 POP SWAP1 POP DUP1 PUSH0 ADD PUSH0 SWAP1 SLOAD SWAP1 PUSH2 0x100 EXP SWAP1 DIV PUSH20 0xFFFFFFFFFFFFFFFFFFFFFFFFFFFFFFFFFFFFFFFF AND SWAP1 DUP1 PUSH1 0x1 ADD SLOAD SWAP1 DUP1 PUSH1 0x2 ADD SLOAD SWAP1 DUP1 PUSH1 0x3 ADD SLOAD SWAP1 DUP1 PUSH1 0x4 ADD SLOAD SWAP1 DUP1 PUSH1 0x5 ADD PUSH0 SWAP1 SLOAD SWAP1 PUSH2 0x100 EXP SWAP1 DIV PUSH1 0xFF AND SWAP1 POP DUP7 JUMP JUMPDEST PUSH0 DUP4 GT PUSH2 0x6B5 JUMPI PUSH1 0x40 MLOAD PUSH32 0x8C379A000000000000000000000000000000000000000000000000000000000 DUP2 MSTORE PUSH1 0x4 ADD PUSH2 0x6AC SWAP1 PUSH2 0xDC6 JUMP JUMPDEST PUSH1 0x40 MLOAD DUP1 SWAP2 SUB SWAP1 REVERT JUMPDEST PUSH0 DUP3 GT PUSH2 0x6F7 JUMPI PUSH1 0x40 MLOAD PUSH32 0x8C379A000000000000000000000000000000000000000000000000000000000 DUP2 MSTORE PUSH1 0x4 ADD PUSH2 0x6EE SWAP1 PUSH2 0xE54 JUMP JUMPDEST PUSH1 0x40 MLOAD DUP1 SWAP2 SUB SWAP1 REVERT JUMPDEST PUSH0 DUP2 GT PUSH2 0x739 JUMPI PUSH1 0x40 MLOAD PUSH32 0x8C379A000000000000000000000000000000000000000000000000000000000 DUP2 MSTORE PUSH1 0x4 ADD PUSH2 0x730 SWAP1 PUSH2 0xEE2 JUMP JUMPDEST PUSH1 0x40 MLOAD DUP1 SWAP2 SUB SWAP1 REVERT JUMPDEST PUSH0 PUSH1 0x40 MLOAD DUP1 PUSH1 0xC0 ADD PUSH1 0x40 MSTORE DUP1 CALLER PUSH20 0xFFFFFFFFFFFFFFFFFFFFFFFFFFFFFFFFFFFFFFFF AND DUP2 MSTORE PUSH1 0x20 ADD DUP6 DUP2 MSTORE PUSH1 0x20 ADD DUP5 DUP2 MSTORE PUSH1 0x20 ADD DUP4 DUP2 MSTORE PUSH1 0x20 ADD PUSH0 DUP2 MSTORE PUSH1 0x20 ADD PUSH0 ISZERO ISZERO DUP2 MSTORE POP SWAP1 POP DUP1 PUSH0 DUP1 CALLER PUSH20 0xFFFFFFFFFFFFFFFFFFFFFFFFFFFFFFFFFFFFFFFF AND PUSH20 0xFFFFFFFFFFFFFFFFFFFFFFFFFFFFFFFFFFFFFFFF AND DUP2 MSTORE PUSH1 0x20 ADD SWAP1 DUP2 MSTORE PUSH1 0x20 ADD PUSH0 KECCAK256 PUSH0 DUP3 ADD MLOAD DUP2 PUSH0 ADD PUSH0 PUSH2 0x100 EXP DUP2 SLOAD DUP2 PUSH20 0xFFFFFFFFFFFFFFFFFFFFFFFFFFFFFFFFFFFFFFFF MUL NOT AND SWAP1 DUP4 PUSH20 0xFFFFFFFFFFFFFFFFFFFFFFFFFFFFFFFFFFFFFFFF AND MUL OR SWAP1 SSTORE POP PUSH1 0x20 DUP3 ADD MLOAD DUP2 PUSH1 0x1 ADD SSTORE PUSH1 0x40 DUP3 ADD MLOAD DUP2 PUSH1 0x2 ADD SSTORE PUSH1 0x60 DUP3 ADD MLOAD DUP2 PUSH1 0x3 ADD SSTORE PUSH1 0x80 DUP3 ADD MLOAD DUP2 PUSH1 0x4 ADD SSTORE PUSH1 0xA0 DUP3 ADD MLOAD DUP2 PUSH1 0x5 ADD PUSH0 PUSH2 0x100 EXP DUP2 SLOAD DUP2 PUSH1 0xFF MUL NOT AND SWAP1 DUP4 ISZERO ISZERO MUL OR SWAP1 SSTORE POP SWAP1 POP POP PUSH1 0x1 PUSH0 DUP2 SLOAD DUP1 SWAP3 SWAP2 SWAP1 PUSH2 0x85E SWAP1 PUSH2 0xF00 JUMP JUMPDEST SWAP2 SWAP1 POP SSTORE POP CALLER PUSH20 0xFFFFFFFFFFFFFFFFFFFFFFFFFFFFFFFFFFFFFFFF AND PUSH32 0xA4DBA689200E85ED3727DE0F7E1E96B62560814E131E21C85C7B93981F6AFB05 DUP6 DUP6 DUP6 PUSH1 0x40 MLOAD PUSH2 0x8AD SWAP4 SWAP3 SWAP2 SWAP1 PUSH2 0xF47 JUMP JUMPDEST PUSH1 0x40 MLOAD DUP1 SWAP2 SUB SWAP1 LOG2 POP POP POP POP JUMP JUMPDEST PUSH0 DUP2 SWAP1 POP SWAP2 SWAP1 POP JUMP JUMPDEST PUSH2 0x8CD DUP2 PUSH2 0x8BB JUMP JUMPDEST DUP3 MSTORE POP POP JUMP JUMPDEST PUSH0 PUSH1 0x20 DUP3 ADD SWAP1 POP PUSH2 0x8E6 PUSH0 DUP4 ADD DUP5 PUSH2 0x8C4 JUMP JUMPDEST SWAP3 SWAP2 POP POP JUMP JUMPDEST PUSH0 DUP1 REVERT JUMPDEST PUSH0 PUSH20 0xFFFFFFFFFFFFFFFFFFFFFFFFFFFFFFFFFFFFFFFF DUP3 AND SWAP1 POP SWAP2 SWAP1 POP JUMP JUMPDEST PUSH0 PUSH2 0x919 DUP3 PUSH2 0x8F0 JUMP JUMPDEST SWAP1 POP SWAP2 SWAP1 POP JUMP JUMPDEST PUSH2 0x929 DUP2 PUSH2 0x90F JUMP JUMPDEST DUP2 EQ PUSH2 0x933 JUMPI PUSH0 DUP1 REVERT JUMPDEST POP JUMP JUMPDEST PUSH0 DUP2 CALLDATALOAD SWAP1 POP PUSH2 0x944 DUP2 PUSH2 0x920 JUMP JUMPDEST SWAP3 SWAP2 POP POP JUMP JUMPDEST PUSH0 PUSH1 0x20 DUP3 DUP5 SUB SLT ISZERO PUSH2 0x95F JUMPI PUSH2 0x95E PUSH2 0x8EC JUMP JUMPDEST JUMPDEST PUSH0 PUSH2 0x96C DUP5 DUP3 DUP6 ADD PUSH2 0x936 JUMP JUMPDEST SWAP2 POP POP SWAP3 SWAP2 POP POP JUMP JUMPDEST PUSH2 0x97E DUP2 PUSH2 0x90F JUMP JUMPDEST DUP3 MSTORE POP POP JUMP JUMPDEST PUSH0 DUP2 ISZERO ISZERO SWAP1 POP SWAP2 SWAP1 POP JUMP JUMPDEST PUSH2 0x998 DUP2 PUSH2 0x984 JUMP JUMPDEST DUP3 MSTORE POP POP JUMP JUMPDEST PUSH0 PUSH1 0xC0 DUP3 ADD SWAP1 POP PUSH2 0x9B1 PUSH0 DUP4 ADD DUP10 PUSH2 0x975 JUMP JUMPDEST PUSH2 0x9BE PUSH1 0x20 DUP4 ADD DUP9 PUSH2 0x8C4 JUMP JUMPDEST PUSH2 0x9CB PUSH1 0x40 DUP4 ADD DUP8 PUSH2 0x8C4 JUMP JUMPDEST PUSH2 0x9D8 PUSH1 0x60 DUP4 ADD DUP7 PUSH2 0x8C4 JUMP JUMPDEST PUSH2 0x9E5 PUSH1 0x80 DUP4 ADD DUP6 PUSH2 0x8C4 JUMP JUMPDEST PUSH2 0x9F2 PUSH1 0xA0 DUP4 ADD DUP5 PUSH2 0x98F JUMP JUMPDEST SWAP8 SWAP7 POP POP POP POP POP POP POP JUMP JUMPDEST PUSH2 0xA06 DUP2 PUSH2 0x8BB JUMP JUMPDEST DUP2 EQ PUSH2 0xA10 JUMPI PUSH0 DUP1 REVERT JUMPDEST POP JUMP JUMPDEST PUSH0 DUP2 CALLDATALOAD SWAP1 POP PUSH2 0xA21 DUP2 PUSH2 0x9FD JUMP JUMPDEST SWAP3 SWAP2 POP POP JUMP JUMPDEST PUSH0 DUP1 PUSH0 PUSH1 0x60 DUP5 DUP7 SUB SLT ISZERO PUSH2 0xA3E JUMPI PUSH2 0xA3D PUSH2 0x8EC JUMP JUMPDEST JUMPDEST PUSH0 PUSH2 0xA4B DUP7 DUP3 DUP8 ADD PUSH2 0xA13 JUMP JUMPDEST SWAP4 POP POP PUSH1 0x20 PUSH2 0xA5C DUP7 DUP3 DUP8 ADD PUSH2 0xA13 JUMP JUMPDEST SWAP3 POP POP PUSH1 0x40 PUSH2 0xA6D DUP7 DUP3 DUP8 ADD PUSH2 0xA13 JUMP JUMPDEST SWAP2 POP POP SWAP3 POP SWAP3 POP SWAP3 JUMP JUMPDEST PUSH0 DUP3 DUP3 MSTORE PUSH1 0x20 DUP3 ADD SWAP1 POP SWAP3 SWAP2 POP POP JUMP JUMPDEST PUSH32 0x436172206F776E6572206E6F7420666F756E642E000000000000000000000000 PUSH0 DUP3 ADD MSTORE POP JUMP JUMPDEST PUSH0 PUSH2 0xABB PUSH1 0x14 DUP4 PUSH2 0xA77 JUMP JUMPDEST SWAP2 POP PUSH2 0xAC6 DUP3 PUSH2 0xA87 JUMP JUMPDEST PUSH1 0x20 DUP3 ADD SWAP1 POP SWAP2 SWAP1 POP JUMP JUMPDEST PUSH0 PUSH1 0x20 DUP3 ADD SWAP1 POP DUP2 DUP2 SUB PUSH0 DUP4 ADD MSTORE PUSH2 0xAE8 DUP2 PUSH2 0xAAF JUMP JUMPDEST SWAP1 POP SWAP2 SWAP1 POP JUMP JUMPDEST PUSH32 0x4361722069732063757272656E746C79206C65617365642E0000000000000000 PUSH0 DUP3 ADD MSTORE POP JUMP JUMPDEST PUSH0 PUSH2 0xB23 PUSH1 0x18 DUP4 PUSH2 0xA77 JUMP JUMPDEST SWAP2 POP PUSH2 0xB2E DUP3 PUSH2 0xAEF JUMP JUMPDEST PUSH1 0x20 DUP3 ADD SWAP1 POP SWAP2 SWAP1 POP JUMP JUMPDEST PUSH0 PUSH1 0x20 DUP3 ADD SWAP1 POP DUP2 DUP2 SUB PUSH0 DUP4 ADD MSTORE PUSH2 0xB50 DUP2 PUSH2 0xB17 JUMP JUMPDEST SWAP1 POP SWAP2 SWAP1 POP JUMP JUMPDEST PUSH32 0x53656E7420616D6F756E74206D75737420626520657175616C20746F20636172 PUSH0 DUP3 ADD MSTORE PUSH32 0x2070726963652E00000000000000000000000000000000000000000000000000 PUSH1 0x20 DUP3 ADD MSTORE POP JUMP JUMPDEST PUSH0 PUSH2 0xBB1 PUSH1 0x27 DUP4 PUSH2 0xA77 JUMP JUMPDEST SWAP2 POP PUSH2 0xBBC DUP3 PUSH2 0xB57 JUMP JUMPDEST PUSH1 0x40 DUP3 ADD SWAP1 POP SWAP2 SWAP1 POP JUMP JUMPDEST PUSH0 PUSH1 0x20 DUP3 ADD SWAP1 POP DUP2 DUP2 SUB PUSH0 DUP4 ADD MSTORE PUSH2 0xBDE DUP2 PUSH2 0xBA5 JUMP JUMPDEST SWAP1 POP SWAP2 SWAP1 POP JUMP JUMPDEST PUSH32 0x43617220697320616C7265616479206C65617365642E00000000000000000000 PUSH0 DUP3 ADD MSTORE POP JUMP JUMPDEST PUSH0 PUSH2 0xC19 PUSH1 0x16 DUP4 PUSH2 0xA77 JUMP JUMPDEST SWAP2 POP PUSH2 0xC24 DUP3 PUSH2 0xBE5 JUMP JUMPDEST PUSH1 0x20 DUP3 ADD SWAP1 POP SWAP2 SWAP1 POP JUMP JUMPDEST PUSH0 PUSH1 0x20 DUP3 ADD SWAP1 POP DUP2 DUP2 SUB PUSH0 DUP4 ADD MSTORE PUSH2 0xC46 DUP2 PUSH2 0xC0D JUMP JUMPDEST SWAP1 POP SWAP2 SWAP1 POP JUMP JUMPDEST PUSH32 0x53656E7420616D6F756E74206D75737420626520657175616C20746F20646570 PUSH0 DUP3 ADD MSTORE PUSH32 0x6F73697420616D6F756E742E0000000000000000000000000000000000000000 PUSH1 0x20 DUP3 ADD MSTORE POP JUMP JUMPDEST PUSH0 PUSH2 0xCA7 PUSH1 0x2C DUP4 PUSH2 0xA77 JUMP JUMPDEST SWAP2 POP PUSH2 0xCB2 DUP3 PUSH2 0xC4D JUMP JUMPDEST PUSH1 0x40 DUP3 ADD SWAP1 POP SWAP2 SWAP1 POP JUMP JUMPDEST PUSH0 PUSH1 0x20 DUP3 ADD SWAP1 POP DUP2 DUP2 SUB PUSH0 DUP4 ADD MSTORE PUSH2 0xCD4 DUP2 PUSH2 0xC9B JUMP JUMPDEST SWAP1 POP SWAP2 SWAP1 POP JUMP JUMPDEST PUSH32 0x4E487B7100000000000000000000000000000000000000000000000000000000 PUSH0 MSTORE PUSH1 0x11 PUSH1 0x4 MSTORE PUSH1 0x24 PUSH0 REVERT JUMPDEST PUSH0 PUSH2 0xD12 DUP3 PUSH2 0x8BB JUMP JUMPDEST SWAP2 POP PUSH2 0xD1D DUP4 PUSH2 0x8BB JUMP JUMPDEST SWAP3 POP DUP3 DUP3 MUL PUSH2 0xD2B DUP2 PUSH2 0x8BB JUMP JUMPDEST SWAP2 POP DUP3 DUP3 DIV DUP5 EQ DUP4 ISZERO OR PUSH2 0xD42 JUMPI PUSH2 0xD41 PUSH2 0xCDB JUMP JUMPDEST JUMPDEST POP SWAP3 SWAP2 POP POP JUMP JUMPDEST PUSH0 PUSH2 0xD53 DUP3 PUSH2 0x8BB JUMP JUMPDEST SWAP2 POP PUSH2 0xD5E DUP4 PUSH2 0x8BB JUMP JUMPDEST SWAP3 POP DUP3 DUP3 ADD SWAP1 POP DUP1 DUP3 GT ISZERO PUSH2 0xD76 JUMPI PUSH2 0xD75 PUSH2 0xCDB JUMP JUMPDEST JUMPDEST SWAP3 SWAP2 POP POP JUMP JUMPDEST PUSH32 0x5072696365206D7573742062652067726561746572207468616E207A65726F2E PUSH0 DUP3 ADD MSTORE POP JUMP JUMPDEST PUSH0 PUSH2 0xDB0 PUSH1 0x20 DUP4 PUSH2 0xA77 JUMP JUMPDEST SWAP2 POP PUSH2 0xDBB DUP3 PUSH2 0xD7C JUMP JUMPDEST PUSH1 0x20 DUP3 ADD SWAP1 POP SWAP2 SWAP1 POP JUMP JUMPDEST PUSH0 PUSH1 0x20 DUP3 ADD SWAP1 POP DUP2 DUP2 SUB PUSH0 DUP4 ADD MSTORE PUSH2 0xDDD DUP2 PUSH2 0xDA4 JUMP JUMPDEST SWAP1 POP SWAP2 SWAP1 POP JUMP JUMPDEST PUSH32 0x4465706F736974206D7573742062652067726561746572207468616E207A6572 PUSH0 DUP3 ADD MSTORE PUSH32 0x6F2E000000000000000000000000000000000000000000000000000000000000 PUSH1 0x20 DUP3 ADD MSTORE POP JUMP JUMPDEST PUSH0 PUSH2 0xE3E PUSH1 0x22 DUP4 PUSH2 0xA77 JUMP JUMPDEST SWAP2 POP PUSH2 0xE49 DUP3 PUSH2 0xDE4 JUMP JUMPDEST PUSH1 0x40 DUP3 ADD SWAP1 POP SWAP2 SWAP1 POP JUMP JUMPDEST PUSH0 PUSH1 0x20 DUP3 ADD SWAP1 POP DUP2 DUP2 SUB PUSH0 DUP4 ADD MSTORE PUSH2 0xE6B DUP2 PUSH2 0xE32 JUMP JUMPDEST SWAP1 POP SWAP2 SWAP1 POP JUMP JUMPDEST PUSH32 0x4C65617365207465726D206D7573742062652067726561746572207468616E20 PUSH0 DUP3 ADD MSTORE PUSH32 0x7A65726F2E000000000000000000000000000000000000000000000000000000 PUSH1 0x20 DUP3 ADD MSTORE POP JUMP JUMPDEST PUSH0 PUSH2 0xECC PUSH1 0x25 DUP4 PUSH2 0xA77 JUMP JUMPDEST SWAP2 POP PUSH2 0xED7 DUP3 PUSH2 0xE72 JUMP JUMPDEST PUSH1 0x40 DUP3 ADD SWAP1 POP SWAP2 SWAP1 POP JUMP JUMPDEST PUSH0 PUSH1 0x20 DUP3 ADD SWAP1 POP DUP2 DUP2 SUB PUSH0 DUP4 ADD MSTORE PUSH2 0xEF9 DUP2 PUSH2 0xEC0 JUMP JUMPDEST SWAP1 POP SWAP2 SWAP1 POP JUMP JUMPDEST PUSH0 PUSH2 0xF0A DUP3 PUSH2 0x8BB JUMP JUMPDEST SWAP2 POP PUSH32 0xFFFFFFFFFFFFFFFFFFFFFFFFFFFFFFFFFFFFFFFFFFFFFFFFFFFFFFFFFFFFFFFF DUP3 SUB PUSH2 0xF3C JUMPI PUSH2 0xF3B PUSH2 0xCDB JUMP JUMPDEST JUMPDEST PUSH1 0x1 DUP3 ADD SWAP1 POP SWAP2 SWAP1 POP JUMP JUMPDEST PUSH0 PUSH1 0x60 DUP3 ADD SWAP1 POP PUSH2 0xF5A PUSH0 DUP4 ADD DUP7 PUSH2 0x8C4 JUMP JUMPDEST PUSH2 0xF67 PUSH1 0x20 DUP4 ADD DUP6 PUSH2 0x8C4 JUMP JUMPDEST PUSH2 0xF74 PUSH1 0x40 DUP4 ADD DUP5 PUSH2 0x8C4 JUMP JUMPDEST SWAP5 SWAP4 POP POP POP POP JUMP INVALID LOG2 PUSH5 0x6970667358 0x22 SLT KECCAK256 0x2D BLOBHASH SLOAD 0xC2 0xC7 0x25 SSTORE CALLER 0xD0 0xC3 0xCC 0xCD POP DUP3 MCOPY 0xCC SGT 0x28 CALLVALUE 0xDF CALLDATACOPY SWAP5 SWAP10 EXP SWAP7 DUP3 PUSH15 0x6A4F65979964736F6C634300081A00 CALLER "
				},
				"gasEstimates": {
					"creation": {
						"codeDepositCost": "803600",
						"executionCost": "5849",
						"totalCost": "809449"
					},
					"external": {
						"buyCar(address)": "infinite",
						"carCount()": "2403",
						"cars(address)": "infinite",
						"leaseCar(address)": "infinite",
						"registerCar(uint256,uint256,uint256)": "infinite"
					}
				},
				"methodIdentifiers": {
					"buyCar(address)": "39faf3ae",
					"carCount()": "297a1f56",
					"cars(address)": "afd79cbd",
					"leaseCar(address)": "5e624a2a",
					"registerCar(uint256,uint256,uint256)": "eae3c03f"
				}
			},
			"storageLayout": {
				"storage": [
					{
						"astId": 19,
						"contract": "contracts/carSales.sol:CarLeasingAndSales",
						"label": "cars",
						"offset": 0,
						"slot": "0",
						"type": "t_mapping(t_address,t_struct(Car)14_storage)"
					},
					{
						"astId": 21,
						"contract": "contracts/carSales.sol:CarLeasingAndSales",
						"label": "carCount",
						"offset": 0,
						"slot": "1",
						"type": "t_uint256"
					}
				],
				"types": {
					"t_address": {
						"encoding": "inplace",
						"label": "address",
						"numberOfBytes": "20"
					},
					"t_bool": {
						"encoding": "inplace",
						"label": "bool",
						"numberOfBytes": "1"
					},
					"t_mapping(t_address,t_struct(Car)14_storage)": {
						"encoding": "mapping",
						"key": "t_address",
						"label": "mapping(address => struct CarLeasingAndSales.Car)",
						"numberOfBytes": "32",
						"value": "t_struct(Car)14_storage"
					},
					"t_struct(Car)14_storage": {
						"encoding": "inplace",
						"label": "struct CarLeasingAndSales.Car",
						"members": [
							{
								"astId": 3,
								"contract": "contracts/carSales.sol:CarLeasingAndSales",
								"label": "owner",
								"offset": 0,
								"slot": "0",
								"type": "t_address"
							},
							{
								"astId": 5,
								"contract": "contracts/carSales.sol:CarLeasingAndSales",
								"label": "price",
								"offset": 0,
								"slot": "1",
								"type": "t_uint256"
							},
							{
								"astId": 7,
								"contract": "contracts/carSales.sol:CarLeasingAndSales",
								"label": "deposit",
								"offset": 0,
								"slot": "2",
								"type": "t_uint256"
							},
							{
								"astId": 9,
								"contract": "contracts/carSales.sol:CarLeasingAndSales",
								"label": "leaseTerm",
								"offset": 0,
								"slot": "3",
								"type": "t_uint256"
							},
							{
								"astId": 11,
								"contract": "contracts/carSales.sol:CarLeasingAndSales",
								"label": "leaseEnd",
								"offset": 0,
								"slot": "4",
								"type": "t_uint256"
							},
							{
								"astId": 13,
								"contract": "contracts/carSales.sol:CarLeasingAndSales",
								"label": "isLeased",
								"offset": 0,
								"slot": "5",
								"type": "t_bool"
							}
						],
						"numberOfBytes": "192"
					},
					"t_uint256": {
						"encoding": "inplace",
						"label": "uint256",
						"numberOfBytes": "32"
					}
				}
			},
			"userdoc": {
				"kind": "user",
				"methods": {},
				"version": 1
			}
		}
	}
}