{
	"contracts/charityDonation.sol": {
		"CharityDonation": {
			"abi": [
				{
					"inputs": [],
					"stateMutability": "nonpayable",
					"type": "constructor"
				},
				{
					"inputs": [
						{
							"internalType": "uint256",
							"name": "amount",
							"type": "uint256"
						}
					],
					"name": "donate",
					"outputs": [],
					"stateMutability": "nonpayable",
					"type": "function"
				},
				{
					"inputs": [
						{
							"internalType": "address",
							"name": "",
							"type": "address"
						}
					],
					"name": "donations",
					"outputs": [
						{
							"internalType": "uint256",
							"name": "",
							"type": "uint256"
						}
					],
					"stateMutability": "view",
					"type": "function"
				},
				{
					"inputs": [],
					"name": "owner",
					"outputs": [
						{
							"internalType": "address",
							"name": "",
							"type": "address"
						}
					],
					"stateMutability": "view",
					"type": "function"
				}
			],
			"devdoc": {
				"kind": "dev",
				"methods": {},
				"version": 1
			},
			"evm": {
				"assembly": "    /* \"contracts/charityDonation.sol\":59:679  contract CharityDonation {... */\n  mstore(0x40, 0x80)\n    /* \"contracts/charityDonation.sol\":172:223  constructor() {... */\n  callvalue\n  dup1\n  iszero\n  tag_1\n  jumpi\n  0x00\n  dup1\n  revert\ntag_1:\n  pop\n    /* \"contracts/charityDonation.sol\":205:215  msg.sender */\n  caller\n    /* \"contracts/charityDonation.sol\":197:202  owner */\n  0x00\n  dup1\n    /* \"contracts/charityDonation.sol\":197:215  owner = msg.sender */\n  0x0100\n  exp\n  dup2\n  sload\n  dup2\n  0xffffffffffffffffffffffffffffffffffffffff\n  mul\n  not\n  and\n  swap1\n  dup4\n  0xffffffffffffffffffffffffffffffffffffffff\n  and\n  mul\n  or\n  swap1\n  sstore\n  pop\n    /* \"contracts/charityDonation.sol\":59:679  contract CharityDonation {... */\n  dataSize(sub_0)\n  dup1\n  dataOffset(sub_0)\n  0x00\n  codecopy\n  0x00\n  return\nstop\n\nsub_0: assembly {\n        /* \"contracts/charityDonation.sol\":59:679  contract CharityDonation {... */\n      mstore(0x40, 0x80)\n      callvalue\n      dup1\n      iszero\n      tag_1\n      jumpi\n      0x00\n      dup1\n      revert\n    tag_1:\n      pop\n      jumpi(tag_2, lt(calldatasize, 0x04))\n      shr(0xe0, calldataload(0x00))\n      dup1\n      0x8da5cb5b\n      eq\n      tag_3\n      jumpi\n      dup1\n      0xcc6cb19a\n      eq\n      tag_4\n      jumpi\n      dup1\n      0xf14faf6f\n      eq\n      tag_5\n      jumpi\n    tag_2:\n      0x00\n      dup1\n      revert\n        /* \"contracts/charityDonation.sol\":91:111  address public owner */\n    tag_3:\n      tag_6\n      tag_7\n      jump\t// in\n    tag_6:\n      mload(0x40)\n      tag_8\n      swap2\n      swap1\n      tag_9\n      jump\t// in\n    tag_8:\n      mload(0x40)\n      dup1\n      swap2\n      sub\n      swap1\n      return\n        /* \"contracts/charityDonation.sol\":118:163  mapping (address => uint256) public donations */\n    tag_4:\n      tag_10\n      0x04\n      dup1\n      calldatasize\n      sub\n      dup2\n      add\n      swap1\n      tag_11\n      swap2\n      swap1\n      tag_12\n      jump\t// in\n    tag_11:\n      tag_13\n      jump\t// in\n    tag_10:\n      mload(0x40)\n      tag_14\n      swap2\n      swap1\n      tag_15\n      jump\t// in\n    tag_14:\n      mload(0x40)\n      dup1\n      swap2\n      sub\n      swap1\n      return\n        /* \"contracts/charityDonation.sol\":231:543  function donate(uint256 amount) public {... */\n    tag_5:\n      tag_16\n      0x04\n      dup1\n      calldatasize\n      sub\n      dup2\n      add\n      swap1\n      tag_17\n      swap2\n      swap1\n      tag_18\n      jump\t// in\n    tag_17:\n      tag_19\n      jump\t// in\n    tag_16:\n      stop\n        /* \"contracts/charityDonation.sol\":91:111  address public owner */\n    tag_7:\n      0x00\n      dup1\n      sload\n      swap1\n      0x0100\n      exp\n      swap1\n      div\n      0xffffffffffffffffffffffffffffffffffffffff\n      and\n      dup2\n      jump\t// out\n        /* \"contracts/charityDonation.sol\":118:163  mapping (address => uint256) public donations */\n    tag_13:\n      mstore(0x20, 0x01)\n      dup1\n      0x00\n      mstore\n      keccak256(0x00, 0x40)\n      0x00\n      swap2\n      pop\n      swap1\n      pop\n      sload\n      dup2\n      jump\t// out\n        /* \"contracts/charityDonation.sol\":231:543  function donate(uint256 amount) public {... */\n    tag_19:\n        /* \"contracts/charityDonation.sol\":348:349  0 */\n      0x00\n        /* \"contracts/charityDonation.sol\":339:345  amount */\n      dup2\n        /* \"contracts/charityDonation.sol\":339:349  amount > 0 */\n      gt\n        /* \"contracts/charityDonation.sol\":331:377  require(amount > 0, \"Invalid donation amount\") */\n      tag_21\n      jumpi\n      mload(0x40)\n      0x08c379a000000000000000000000000000000000000000000000000000000000\n      dup2\n      mstore\n      0x04\n      add\n      tag_22\n      swap1\n      tag_23\n      jump\t// in\n    tag_22:\n      mload(0x40)\n      dup1\n      swap2\n      sub\n      swap1\n      revert\n    tag_21:\n        /* \"contracts/charityDonation.sol\":454:460  amount */\n      dup1\n        /* \"contracts/charityDonation.sol\":429:438  donations */\n      0x01\n        /* \"contracts/charityDonation.sol\":429:450  donations[msg.sender] */\n      0x00\n        /* \"contracts/charityDonation.sol\":439:449  msg.sender */\n      caller\n        /* \"contracts/charityDonation.sol\":429:450  donations[msg.sender] */\n      0xffffffffffffffffffffffffffffffffffffffff\n      and\n      0xffffffffffffffffffffffffffffffffffffffff\n      and\n      dup2\n      mstore\n      0x20\n      add\n      swap1\n      dup2\n      mstore\n      0x20\n      add\n      0x00\n      keccak256\n      0x00\n        /* \"contracts/charityDonation.sol\":429:460  donations[msg.sender] += amount */\n      dup3\n      dup3\n      sload\n      tag_24\n      swap2\n      swap1\n      tag_25\n      jump\t// in\n    tag_24:\n      swap3\n      pop\n      pop\n      dup2\n      swap1\n      sstore\n      pop\n        /* \"contracts/charityDonation.sol\":514:535  rewardNFT(msg.sender) */\n      tag_26\n        /* \"contracts/charityDonation.sol\":524:534  msg.sender */\n      caller\n        /* \"contracts/charityDonation.sol\":514:523  rewardNFT */\n      tag_27\n        /* \"contracts/charityDonation.sol\":514:535  rewardNFT(msg.sender) */\n      jump\t// in\n    tag_26:\n        /* \"contracts/charityDonation.sol\":231:543  function donate(uint256 amount) public {... */\n      pop\n      jump\t// out\n        /* \"contracts/charityDonation.sol\":551:676  function rewardNFT(address donor) internal {... */\n    tag_27:\n      pop\n      jump\t// out\n        /* \"#utility.yul\":7:133   */\n    tag_29:\n        /* \"#utility.yul\":44:51   */\n      0x00\n        /* \"#utility.yul\":84:126   */\n      0xffffffffffffffffffffffffffffffffffffffff\n        /* \"#utility.yul\":77:82   */\n      dup3\n        /* \"#utility.yul\":73:127   */\n      and\n        /* \"#utility.yul\":62:127   */\n      swap1\n      pop\n        /* \"#utility.yul\":7:133   */\n      swap2\n      swap1\n      pop\n      jump\t// out\n        /* \"#utility.yul\":139:235   */\n    tag_30:\n        /* \"#utility.yul\":176:183   */\n      0x00\n        /* \"#utility.yul\":205:229   */\n      tag_48\n        /* \"#utility.yul\":223:228   */\n      dup3\n        /* \"#utility.yul\":205:229   */\n      tag_29\n      jump\t// in\n    tag_48:\n        /* \"#utility.yul\":194:229   */\n      swap1\n      pop\n        /* \"#utility.yul\":139:235   */\n      swap2\n      swap1\n      pop\n      jump\t// out\n        /* \"#utility.yul\":241:359   */\n    tag_31:\n        /* \"#utility.yul\":328:352   */\n      tag_50\n        /* \"#utility.yul\":346:351   */\n      dup2\n        /* \"#utility.yul\":328:352   */\n      tag_30\n      jump\t// in\n    tag_50:\n        /* \"#utility.yul\":323:326   */\n      dup3\n        /* \"#utility.yul\":316:353   */\n      mstore\n        /* \"#utility.yul\":241:359   */\n      pop\n      pop\n      jump\t// out\n        /* \"#utility.yul\":365:587   */\n    tag_9:\n        /* \"#utility.yul\":458:462   */\n      0x00\n        /* \"#utility.yul\":496:498   */\n      0x20\n        /* \"#utility.yul\":485:494   */\n      dup3\n        /* \"#utility.yul\":481:499   */\n      add\n        /* \"#utility.yul\":473:499   */\n      swap1\n      pop\n        /* \"#utility.yul\":509:580   */\n      tag_52\n        /* \"#utility.yul\":577:578   */\n      0x00\n        /* \"#utility.yul\":566:575   */\n      dup4\n        /* \"#utility.yul\":562:579   */\n      add\n        /* \"#utility.yul\":553:559   */\n      dup5\n        /* \"#utility.yul\":509:580   */\n      tag_31\n      jump\t// in\n    tag_52:\n        /* \"#utility.yul\":365:587   */\n      swap3\n      swap2\n      pop\n      pop\n      jump\t// out\n        /* \"#utility.yul\":674:791   */\n    tag_33:\n        /* \"#utility.yul\":783:784   */\n      0x00\n        /* \"#utility.yul\":780:781   */\n      dup1\n        /* \"#utility.yul\":773:785   */\n      revert\n        /* \"#utility.yul\":920:1042   */\n    tag_35:\n        /* \"#utility.yul\":993:1017   */\n      tag_57\n        /* \"#utility.yul\":1011:1016   */\n      dup2\n        /* \"#utility.yul\":993:1017   */\n      tag_30\n      jump\t// in\n    tag_57:\n        /* \"#utility.yul\":986:991   */\n      dup2\n        /* \"#utility.yul\":983:1018   */\n      eq\n        /* \"#utility.yul\":973:1036   */\n      tag_58\n      jumpi\n        /* \"#utility.yul\":1032:1033   */\n      0x00\n        /* \"#utility.yul\":1029:1030   */\n      dup1\n        /* \"#utility.yul\":1022:1034   */\n      revert\n        /* \"#utility.yul\":973:1036   */\n    tag_58:\n        /* \"#utility.yul\":920:1042   */\n      pop\n      jump\t// out\n        /* \"#utility.yul\":1048:1187   */\n    tag_36:\n        /* \"#utility.yul\":1094:1099   */\n      0x00\n        /* \"#utility.yul\":1132:1138   */\n      dup2\n        /* \"#utility.yul\":1119:1139   */\n      calldataload\n        /* \"#utility.yul\":1110:1139   */\n      swap1\n      pop\n        /* \"#utility.yul\":1148:1181   */\n      tag_60\n        /* \"#utility.yul\":1175:1180   */\n      dup2\n        /* \"#utility.yul\":1148:1181   */\n      tag_35\n      jump\t// in\n    tag_60:\n        /* \"#utility.yul\":1048:1187   */\n      swap3\n      swap2\n      pop\n      pop\n      jump\t// out\n        /* \"#utility.yul\":1193:1522   */\n    tag_12:\n        /* \"#utility.yul\":1252:1258   */\n      0x00\n        /* \"#utility.yul\":1301:1303   */\n      0x20\n        /* \"#utility.yul\":1289:1298   */\n      dup3\n        /* \"#utility.yul\":1280:1287   */\n      dup5\n        /* \"#utility.yul\":1276:1299   */\n      sub\n        /* \"#utility.yul\":1272:1304   */\n      slt\n        /* \"#utility.yul\":1269:1388   */\n      iszero\n      tag_62\n      jumpi\n        /* \"#utility.yul\":1307:1386   */\n      tag_63\n      tag_33\n      jump\t// in\n    tag_63:\n        /* \"#utility.yul\":1269:1388   */\n    tag_62:\n        /* \"#utility.yul\":1427:1428   */\n      0x00\n        /* \"#utility.yul\":1452:1505   */\n      tag_64\n        /* \"#utility.yul\":1497:1504   */\n      dup5\n        /* \"#utility.yul\":1488:1494   */\n      dup3\n        /* \"#utility.yul\":1477:1486   */\n      dup6\n        /* \"#utility.yul\":1473:1495   */\n      add\n        /* \"#utility.yul\":1452:1505   */\n      tag_36\n      jump\t// in\n    tag_64:\n        /* \"#utility.yul\":1442:1505   */\n      swap2\n      pop\n        /* \"#utility.yul\":1398:1515   */\n      pop\n        /* \"#utility.yul\":1193:1522   */\n      swap3\n      swap2\n      pop\n      pop\n      jump\t// out\n        /* \"#utility.yul\":1528:1605   */\n    tag_37:\n        /* \"#utility.yul\":1565:1572   */\n      0x00\n        /* \"#utility.yul\":1594:1599   */\n      dup2\n        /* \"#utility.yul\":1583:1599   */\n      swap1\n      pop\n        /* \"#utility.yul\":1528:1605   */\n      swap2\n      swap1\n      pop\n      jump\t// out\n        /* \"#utility.yul\":1611:1729   */\n    tag_38:\n        /* \"#utility.yul\":1698:1722   */\n      tag_67\n        /* \"#utility.yul\":1716:1721   */\n      dup2\n        /* \"#utility.yul\":1698:1722   */\n      tag_37\n      jump\t// in\n    tag_67:\n        /* \"#utility.yul\":1693:1696   */\n      dup3\n        /* \"#utility.yul\":1686:1723   */\n      mstore\n        /* \"#utility.yul\":1611:1729   */\n      pop\n      pop\n      jump\t// out\n        /* \"#utility.yul\":1735:1957   */\n    tag_15:\n        /* \"#utility.yul\":1828:1832   */\n      0x00\n        /* \"#utility.yul\":1866:1868   */\n      0x20\n        /* \"#utility.yul\":1855:1864   */\n      dup3\n        /* \"#utility.yul\":1851:1869   */\n      add\n        /* \"#utility.yul\":1843:1869   */\n      swap1\n      pop\n        /* \"#utility.yul\":1879:1950   */\n      tag_69\n        /* \"#utility.yul\":1947:1948   */\n      0x00\n        /* \"#utility.yul\":1936:1945   */\n      dup4\n        /* \"#utility.yul\":1932:1949   */\n      add\n        /* \"#utility.yul\":1923:1929   */\n      dup5\n        /* \"#utility.yul\":1879:1950   */\n      tag_38\n      jump\t// in\n    tag_69:\n        /* \"#utility.yul\":1735:1957   */\n      swap3\n      swap2\n      pop\n      pop\n      jump\t// out\n        /* \"#utility.yul\":1963:2085   */\n    tag_39:\n        /* \"#utility.yul\":2036:2060   */\n      tag_71\n        /* \"#utility.yul\":2054:2059   */\n      dup2\n        /* \"#utility.yul\":2036:2060   */\n      tag_37\n      jump\t// in\n    tag_71:\n        /* \"#utility.yul\":2029:2034   */\n      dup2\n        /* \"#utility.yul\":2026:2061   */\n      eq\n        /* \"#utility.yul\":2016:2079   */\n      tag_72\n      jumpi\n        /* \"#utility.yul\":2075:2076   */\n      0x00\n        /* \"#utility.yul\":2072:2073   */\n      dup1\n        /* \"#utility.yul\":2065:2077   */\n      revert\n        /* \"#utility.yul\":2016:2079   */\n    tag_72:\n        /* \"#utility.yul\":1963:2085   */\n      pop\n      jump\t// out\n        /* \"#utility.yul\":2091:2230   */\n    tag_40:\n        /* \"#utility.yul\":2137:2142   */\n      0x00\n        /* \"#utility.yul\":2175:2181   */\n      dup2\n        /* \"#utility.yul\":2162:2182   */\n      calldataload\n        /* \"#utility.yul\":2153:2182   */\n      swap1\n      pop\n        /* \"#utility.yul\":2191:2224   */\n      tag_74\n        /* \"#utility.yul\":2218:2223   */\n      dup2\n        /* \"#utility.yul\":2191:2224   */\n      tag_39\n      jump\t// in\n    tag_74:\n        /* \"#utility.yul\":2091:2230   */\n      swap3\n      swap2\n      pop\n      pop\n      jump\t// out\n        /* \"#utility.yul\":2236:2565   */\n    tag_18:\n        /* \"#utility.yul\":2295:2301   */\n      0x00\n        /* \"#utility.yul\":2344:2346   */\n      0x20\n        /* \"#utility.yul\":2332:2341   */\n      dup3\n        /* \"#utility.yul\":2323:2330   */\n      dup5\n        /* \"#utility.yul\":2319:2342   */\n      sub\n        /* \"#utility.yul\":2315:2347   */\n      slt\n        /* \"#utility.yul\":2312:2431   */\n      iszero\n      tag_76\n      jumpi\n        /* \"#utility.yul\":2350:2429   */\n      tag_77\n      tag_33\n      jump\t// in\n    tag_77:\n        /* \"#utility.yul\":2312:2431   */\n    tag_76:\n        /* \"#utility.yul\":2470:2471   */\n      0x00\n        /* \"#utility.yul\":2495:2548   */\n      tag_78\n        /* \"#utility.yul\":2540:2547   */\n      dup5\n        /* \"#utility.yul\":2531:2537   */\n      dup3\n        /* \"#utility.yul\":2520:2529   */\n      dup6\n        /* \"#utility.yul\":2516:2538   */\n      add\n        /* \"#utility.yul\":2495:2548   */\n      tag_40\n      jump\t// in\n    tag_78:\n        /* \"#utility.yul\":2485:2548   */\n      swap2\n      pop\n        /* \"#utility.yul\":2441:2558   */\n      pop\n        /* \"#utility.yul\":2236:2565   */\n      swap3\n      swap2\n      pop\n      pop\n      jump\t// out\n        /* \"#utility.yul\":2571:2740   */\n    tag_41:\n        /* \"#utility.yul\":2655:2666   */\n      0x00\n        /* \"#utility.yul\":2689:2695   */\n      dup3\n        /* \"#utility.yul\":2684:2687   */\n      dup3\n        /* \"#utility.yul\":2677:2696   */\n      mstore\n        /* \"#utility.yul\":2729:2733   */\n      0x20\n        /* \"#utility.yul\":2724:2727   */\n      dup3\n        /* \"#utility.yul\":2720:2734   */\n      add\n        /* \"#utility.yul\":2705:2734   */\n      swap1\n      pop\n        /* \"#utility.yul\":2571:2740   */\n      swap3\n      swap2\n      pop\n      pop\n      jump\t// out\n        /* \"#utility.yul\":2746:2919   */\n    tag_42:\n        /* \"#utility.yul\":2886:2911   */\n      0x496e76616c696420646f6e6174696f6e20616d6f756e74000000000000000000\n        /* \"#utility.yul\":2882:2883   */\n      0x00\n        /* \"#utility.yul\":2874:2880   */\n      dup3\n        /* \"#utility.yul\":2870:2884   */\n      add\n        /* \"#utility.yul\":2863:2912   */\n      mstore\n        /* \"#utility.yul\":2746:2919   */\n      pop\n      jump\t// out\n        /* \"#utility.yul\":2925:3291   */\n    tag_43:\n        /* \"#utility.yul\":3067:3070   */\n      0x00\n        /* \"#utility.yul\":3088:3155   */\n      tag_82\n        /* \"#utility.yul\":3152:3154   */\n      0x17\n        /* \"#utility.yul\":3147:3150   */\n      dup4\n        /* \"#utility.yul\":3088:3155   */\n      tag_41\n      jump\t// in\n    tag_82:\n        /* \"#utility.yul\":3081:3155   */\n      swap2\n      pop\n        /* \"#utility.yul\":3164:3257   */\n      tag_83\n        /* \"#utility.yul\":3253:3256   */\n      dup3\n        /* \"#utility.yul\":3164:3257   */\n      tag_42\n      jump\t// in\n    tag_83:\n        /* \"#utility.yul\":3282:3284   */\n      0x20\n        /* \"#utility.yul\":3277:3280   */\n      dup3\n        /* \"#utility.yul\":3273:3285   */\n      add\n        /* \"#utility.yul\":3266:3285   */\n      swap1\n      pop\n        /* \"#utility.yul\":2925:3291   */\n      swap2\n      swap1\n      pop\n      jump\t// out\n        /* \"#utility.yul\":3297:3716   */\n    tag_23:\n        /* \"#utility.yul\":3463:3467   */\n      0x00\n        /* \"#utility.yul\":3501:3503   */\n      0x20\n        /* \"#utility.yul\":3490:3499   */\n      dup3\n        /* \"#utility.yul\":3486:3504   */\n      add\n        /* \"#utility.yul\":3478:3504   */\n      swap1\n      pop\n        /* \"#utility.yul\":3550:3559   */\n      dup2\n        /* \"#utility.yul\":3544:3548   */\n      dup2\n        /* \"#utility.yul\":3540:3560   */\n      sub\n        /* \"#utility.yul\":3536:3537   */\n      0x00\n        /* \"#utility.yul\":3525:3534   */\n      dup4\n        /* \"#utility.yul\":3521:3538   */\n      add\n        /* \"#utility.yul\":3514:3561   */\n      mstore\n        /* \"#utility.yul\":3578:3709   */\n      tag_85\n        /* \"#utility.yul\":3704:3708   */\n      dup2\n        /* \"#utility.yul\":3578:3709   */\n      tag_43\n      jump\t// in\n    tag_85:\n        /* \"#utility.yul\":3570:3709   */\n      swap1\n      pop\n        /* \"#utility.yul\":3297:3716   */\n      swap2\n      swap1\n      pop\n      jump\t// out\n        /* \"#utility.yul\":3722:3902   */\n    tag_44:\n        /* \"#utility.yul\":3770:3847   */\n      0x4e487b7100000000000000000000000000000000000000000000000000000000\n        /* \"#utility.yul\":3767:3768   */\n      0x00\n        /* \"#utility.yul\":3760:3848   */\n      mstore\n        /* \"#utility.yul\":3867:3871   */\n      0x11\n        /* \"#utility.yul\":3864:3865   */\n      0x04\n        /* \"#utility.yul\":3857:3872   */\n      mstore\n        /* \"#utility.yul\":3891:3895   */\n      0x24\n        /* \"#utility.yul\":3888:3889   */\n      0x00\n        /* \"#utility.yul\":3881:3896   */\n      revert\n        /* \"#utility.yul\":3908:4099   */\n    tag_25:\n        /* \"#utility.yul\":3948:3951   */\n      0x00\n        /* \"#utility.yul\":3967:3987   */\n      tag_88\n        /* \"#utility.yul\":3985:3986   */\n      dup3\n        /* \"#utility.yul\":3967:3987   */\n      tag_37\n      jump\t// in\n    tag_88:\n        /* \"#utility.yul\":3962:3987   */\n      swap2\n      pop\n        /* \"#utility.yul\":4001:4021   */\n      tag_89\n        /* \"#utility.yul\":4019:4020   */\n      dup4\n        /* \"#utility.yul\":4001:4021   */\n      tag_37\n      jump\t// in\n    tag_89:\n        /* \"#utility.yul\":3996:4021   */\n      swap3\n      pop\n        /* \"#utility.yul\":4044:4045   */\n      dup3\n        /* \"#utility.yul\":4041:4042   */\n      dup3\n        /* \"#utility.yul\":4037:4046   */\n      add\n        /* \"#utility.yul\":4030:4046   */\n      swap1\n      pop\n        /* \"#utility.yul\":4065:4068   */\n      dup1\n        /* \"#utility.yul\":4062:4063   */\n      dup3\n        /* \"#utility.yul\":4059:4069   */\n      gt\n        /* \"#utility.yul\":4056:4092   */\n      iszero\n      tag_90\n      jumpi\n        /* \"#utility.yul\":4072:4090   */\n      tag_91\n      tag_44\n      jump\t// in\n    tag_91:\n        /* \"#utility.yul\":4056:4092   */\n    tag_90:\n        /* \"#utility.yul\":3908:4099   */\n      swap3\n      swap2\n      pop\n      pop\n      jump\t// out\n\n    auxdata: 0xa2646970667358221220494cf35a64f757c49375ca58259833c4a9270bbb8f5fdce873d3b91cb80e20ad64736f6c634300081a0033\n}\n",
				"bytecode": {
					"linkReferences": {},
					"object": "6080604052348015600e575f80fd5b50335f806101000a81548173ffffffffffffffffffffffffffffffffffffffff021916908373ffffffffffffffffffffffffffffffffffffffff1602179055506103ce8061005b5f395ff3fe608060405234801561000f575f80fd5b506004361061003f575f3560e01c80638da5cb5b14610043578063cc6cb19a14610061578063f14faf6f14610091575b5f80fd5b61004b6100ad565b60405161005891906101c8565b60405180910390f35b61007b6004803603810190610076919061020f565b6100d0565b6040516100889190610252565b60405180910390f35b6100ab60048036038101906100a69190610295565b6100e5565b005b5f8054906101000a900473ffffffffffffffffffffffffffffffffffffffff1681565b6001602052805f5260405f205f915090505481565b5f8111610127576040517f08c379a000000000000000000000000000000000000000000000000000000000815260040161011e9061031a565b60405180910390fd5b8060015f3373ffffffffffffffffffffffffffffffffffffffff1673ffffffffffffffffffffffffffffffffffffffff1681526020019081526020015f205f8282546101739190610365565b9250508190555061018333610186565b50565b50565b5f73ffffffffffffffffffffffffffffffffffffffff82169050919050565b5f6101b282610189565b9050919050565b6101c2816101a8565b82525050565b5f6020820190506101db5f8301846101b9565b92915050565b5f80fd5b6101ee816101a8565b81146101f8575f80fd5b50565b5f81359050610209816101e5565b92915050565b5f60208284031215610224576102236101e1565b5b5f610231848285016101fb565b91505092915050565b5f819050919050565b61024c8161023a565b82525050565b5f6020820190506102655f830184610243565b92915050565b6102748161023a565b811461027e575f80fd5b50565b5f8135905061028f8161026b565b92915050565b5f602082840312156102aa576102a96101e1565b5b5f6102b784828501610281565b91505092915050565b5f82825260208201905092915050565b7f496e76616c696420646f6e6174696f6e20616d6f756e740000000000000000005f82015250565b5f6103046017836102c0565b915061030f826102d0565b602082019050919050565b5f6020820190508181035f830152610331816102f8565b9050919050565b7f4e487b71000000000000000000000000000000000000000000000000000000005f52601160045260245ffd5b5f61036f8261023a565b915061037a8361023a565b925082820190508082111561039257610391610338565b5b9291505056fea2646970667358221220494cf35a64f757c49375ca58259833c4a9270bbb8f5fdce873d3b91cb80e20ad64736f6c634300081a0033",
					"opcodes": "PUSH1 0x80 PUSH1 0x40 MSTORE CALLVALUE DUP1 ISZERO PUSH1 0xE JUMPI PUSH0 DUP1 REVERT JUMPDEST POP CALLER PUSH0 DUP1 PUSH2 0x100 EXP DUP2 SLOAD DUP2 PUSH20 0xFFFFFFFFFFFFFFFFFFFFFFFFFFFFFFFFFFFFFFFF MUL NOT AND SWAP1 DUP4 PUSH20 0xFFFFFFFFFFFFFFFFFFFFFFFFFFFFFFFFFFFFFFFF AND MUL OR SWAP1 SSTORE POP PUSH2 0x3CE DUP1 PUSH2 0x5B PUSH0 CODECOPY PUSH0 RETURN INVALID PUSH1 0x80 PUSH1 0x40 MSTORE CALLVALUE DUP1 ISZERO PUSH2 0xF JUMPI PUSH0 DUP1 REVERT JUMPDEST POP PUSH1 0x4 CALLDATASIZE LT PUSH2 0x3F JUMPI PUSH0 CALLDATALOAD PUSH1 0xE0 SHR DUP1 PUSH4 0x8DA5CB5B EQ PUSH2 0x43 JUMPI DUP1 PUSH4 0xCC6CB19A EQ PUSH2 0x61 JUMPI DUP1 PUSH4 0xF14FAF6F EQ PUSH2 0x91 JUMPI JUMPDEST PUSH0 DUP1 REVERT JUMPDEST PUSH2 0x4B PUSH2 0xAD JUMP JUMPDEST PUSH1 0x40 MLOAD PUSH2 0x58 SWAP2 SWAP1 PUSH2 0x1C8 JUMP JUMPDEST PUSH1 0x40 MLOAD DUP1 SWAP2 SUB SWAP1 RETURN JUMPDEST PUSH2 0x7B PUSH1 0x4 DUP1 CALLDATASIZE SUB DUP2 ADD SWAP1 PUSH2 0x76 SWAP2 SWAP1 PUSH2 0x20F JUMP JUMPDEST PUSH2 0xD0 JUMP JUMPDEST PUSH1 0x40 MLOAD PUSH2 0x88 SWAP2 SWAP1 PUSH2 0x252 JUMP JUMPDEST PUSH1 0x40 MLOAD DUP1 SWAP2 SUB SWAP1 RETURN JUMPDEST PUSH2 0xAB PUSH1 0x4 DUP1 CALLDATASIZE SUB DUP2 ADD SWAP1 PUSH2 0xA6 SWAP2 SWAP1 PUSH2 0x295 JUMP JUMPDEST PUSH2 0xE5 JUMP JUMPDEST STOP JUMPDEST PUSH0 DUP1 SLOAD SWAP1 PUSH2 0x100 EXP SWAP1 DIV PUSH20 0xFFFFFFFFFFFFFFFFFFFFFFFFFFFFFFFFFFFFFFFF AND DUP2 JUMP JUMPDEST PUSH1 0x1 PUSH1 0x20 MSTORE DUP1 PUSH0 MSTORE PUSH1 0x40 PUSH0 KECCAK256 PUSH0 SWAP2 POP SWAP1 POP SLOAD DUP2 JUMP JUMPDEST PUSH0 DUP2 GT PUSH2 0x127 JUMPI PUSH1 0x40 MLOAD PUSH32 0x8C379A000000000000000000000000000000000000000000000000000000000 DUP2 MSTORE PUSH1 0x4 ADD PUSH2 0x11E SWAP1 PUSH2 0x31A JUMP JUMPDEST PUSH1 0x40 MLOAD DUP1 SWAP2 SUB SWAP1 REVERT JUMPDEST DUP1 PUSH1 0x1 PUSH0 CALLER PUSH20 0xFFFFFFFFFFFFFFFFFFFFFFFFFFFFFFFFFFFFFFFF AND PUSH20 0xFFFFFFFFFFFFFFFFFFFFFFFFFFFFFFFFFFFFFFFF AND DUP2 MSTORE PUSH1 0x20 ADD SWAP1 DUP2 MSTORE PUSH1 0x20 ADD PUSH0 KECCAK256 PUSH0 DUP3 DUP3 SLOAD PUSH2 0x173 SWAP2 SWAP1 PUSH2 0x365 JUMP JUMPDEST SWAP3 POP POP DUP2 SWAP1 SSTORE POP PUSH2 0x183 CALLER PUSH2 0x186 JUMP JUMPDEST POP JUMP JUMPDEST POP JUMP JUMPDEST PUSH0 PUSH20 0xFFFFFFFFFFFFFFFFFFFFFFFFFFFFFFFFFFFFFFFF DUP3 AND SWAP1 POP SWAP2 SWAP1 POP JUMP JUMPDEST PUSH0 PUSH2 0x1B2 DUP3 PUSH2 0x189 JUMP JUMPDEST SWAP1 POP SWAP2 SWAP1 POP JUMP JUMPDEST PUSH2 0x1C2 DUP2 PUSH2 0x1A8 JUMP JUMPDEST DUP3 MSTORE POP POP JUMP JUMPDEST PUSH0 PUSH1 0x20 DUP3 ADD SWAP1 POP PUSH2 0x1DB PUSH0 DUP4 ADD DUP5 PUSH2 0x1B9 JUMP JUMPDEST SWAP3 SWAP2 POP POP JUMP JUMPDEST PUSH0 DUP1 REVERT JUMPDEST PUSH2 0x1EE DUP2 PUSH2 0x1A8 JUMP JUMPDEST DUP2 EQ PUSH2 0x1F8 JUMPI PUSH0 DUP1 REVERT JUMPDEST POP JUMP JUMPDEST PUSH0 DUP2 CALLDATALOAD SWAP1 POP PUSH2 0x209 DUP2 PUSH2 0x1E5 JUMP JUMPDEST SWAP3 SWAP2 POP POP JUMP JUMPDEST PUSH0 PUSH1 0x20 DUP3 DUP5 SUB SLT ISZERO PUSH2 0x224 JUMPI PUSH2 0x223 PUSH2 0x1E1 JUMP JUMPDEST JUMPDEST PUSH0 PUSH2 0x231 DUP5 DUP3 DUP6 ADD PUSH2 0x1FB JUMP JUMPDEST SWAP2 POP POP SWAP3 SWAP2 POP POP JUMP JUMPDEST PUSH0 DUP2 SWAP1 POP SWAP2 SWAP1 POP JUMP JUMPDEST PUSH2 0x24C DUP2 PUSH2 0x23A JUMP JUMPDEST DUP3 MSTORE POP POP JUMP JUMPDEST PUSH0 PUSH1 0x20 DUP3 ADD SWAP1 POP PUSH2 0x265 PUSH0 DUP4 ADD DUP5 PUSH2 0x243 JUMP JUMPDEST SWAP3 SWAP2 POP POP JUMP JUMPDEST PUSH2 0x274 DUP2 PUSH2 0x23A JUMP JUMPDEST DUP2 EQ PUSH2 0x27E JUMPI PUSH0 DUP1 REVERT JUMPDEST POP JUMP JUMPDEST PUSH0 DUP2 CALLDATALOAD SWAP1 POP PUSH2 0x28F DUP2 PUSH2 0x26B JUMP JUMPDEST SWAP3 SWAP2 POP POP JUMP JUMPDEST PUSH0 PUSH1 0x20 DUP3 DUP5 SUB SLT ISZERO PUSH2 0x2AA JUMPI PUSH2 0x2A9 PUSH2 0x1E1 JUMP JUMPDEST JUMPDEST PUSH0 PUSH2 0x2B7 DUP5 DUP3 DUP6 ADD PUSH2 0x281 JUMP JUMPDEST SWAP2 POP POP SWAP3 SWAP2 POP POP JUMP JUMPDEST PUSH0 DUP3 DUP3 MSTORE PUSH1 0x20 DUP3 ADD SWAP1 POP SWAP3 SWAP2 POP POP JUMP JUMPDEST PUSH32 0x496E76616C696420646F6E6174696F6E20616D6F756E74000000000000000000 PUSH0 DUP3 ADD MSTORE POP JUMP JUMPDEST PUSH0 PUSH2 0x304 PUSH1 0x17 DUP4 PUSH2 0x2C0 JUMP JUMPDEST SWAP2 POP PUSH2 0x30F DUP3 PUSH2 0x2D0 JUMP JUMPDEST PUSH1 0x20 DUP3 ADD SWAP1 POP SWAP2 SWAP1 POP JUMP JUMPDEST PUSH0 PUSH1 0x20 DUP3 ADD SWAP1 POP DUP2 DUP2 SUB PUSH0 DUP4 ADD MSTORE PUSH2 0x331 DUP2 PUSH2 0x2F8 JUMP JUMPDEST SWAP1 POP SWAP2 SWAP1 POP JUMP JUMPDEST PUSH32 0x4E487B7100000000000000000000000000000000000000000000000000000000 PUSH0 MSTORE PUSH1 0x11 PUSH1 0x4 MSTORE PUSH1 0x24 PUSH0 REVERT JUMPDEST PUSH0 PUSH2 0x36F DUP3 PUSH2 0x23A JUMP JUMPDEST SWAP2 POP PUSH2 0x37A DUP4 PUSH2 0x23A JUMP JUMPDEST SWAP3 POP DUP3 DUP3 ADD SWAP1 POP DUP1 DUP3 GT ISZERO PUSH2 0x392 JUMPI PUSH2 0x391 PUSH2 0x338 JUMP JUMPDEST JUMPDEST SWAP3 SWAP2 POP POP JUMP INVALID LOG2 PUSH5 0x6970667358 0x22 SLT KECCAK256 BLOBHASH 0x4C RETURN GAS PUSH5 0xF757C49375 0xCA PC 0x25 SWAP9 CALLER 0xC4 0xA9 0x27 SIGNEXTEND 0xBB DUP16 PUSH0 0xDC 0xE8 PUSH20 0xD3B91CB80E20AD64736F6C634300081A00330000 "
				},
				"gasEstimates": {
					"creation": {
						"codeDepositCost": "194800",
						"executionCost": "24501",
						"totalCost": "219301"
					},
					"external": {
						"donate(uint256)": "infinite",
						"donations(address)": "2802",
						"owner()": "2483"
					},
					"internal": {
						"rewardNFT(address)": "11"
					}
				},
				"methodIdentifiers": {
					"donate(uint256)": "f14faf6f",
					"donations(address)": "cc6cb19a",
					"owner()": "8da5cb5b"
				}
			},
			"storageLayout": {
				"storage": [
					{
						"astId": 3,
						"contract": "contracts/charityDonation.sol:CharityDonation",
						"label": "owner",
						"offset": 0,
						"slot": "0",
						"type": "t_address"
					},
					{
						"astId": 7,
						"contract": "contracts/charityDonation.sol:CharityDonation",
						"label": "donations",
						"offset": 0,
						"slot": "1",
						"type": "t_mapping(t_address,t_uint256)"
					}
				],
				"types": {
					"t_address": {
						"encoding": "inplace",
						"label": "address",
						"numberOfBytes": "20"
					},
					"t_mapping(t_address,t_uint256)": {
						"encoding": "mapping",
						"key": "t_address",
						"label": "mapping(address => uint256)",
						"numberOfBytes": "32",
						"value": "t_uint256"
					},
					"t_uint256": {
						"encoding": "inplace",
						"label": "uint256",
						"numberOfBytes": "32"
					}
				}
			},
			"userdoc": {
				"kind": "user",
				"methods": {},
				"version": 1
			}
		}
	}
}