{
	"contracts/Twitter.sol": {
		"Twitter": {
			"abi": [
				{
					"inputs": [],
					"stateMutability": "nonpayable",
					"type": "constructor"
				},
				{
					"anonymous": false,
					"inputs": [
						{
							"indexed": false,
							"internalType": "uint256",
							"name": "id",
							"type": "uint256"
						},
						{
							"indexed": false,
							"internalType": "address",
							"name": "author",
							"type": "address"
						},
						{
							"indexed": false,
							"internalType": "string",
							"name": "content",
							"type": "string"
						},
						{
							"indexed": false,
							"internalType": "uint256",
							"name": "timestamp",
							"type": "uint256"
						}
					],
					"name": "TweetCreated",
					"type": "event"
				},
				{
					"anonymous": false,
					"inputs": [
						{
							"indexed": false,
							"internalType": "address",
							"name": "liker",
							"type": "address"
						},
						{
							"indexed": false,
							"internalType": "address",
							"name": "tweetAuthor",
							"type": "address"
						},
						{
							"indexed": false,
							"internalType": "uint256",
							"name": "tweetId",
							"type": "uint256"
						},
						{
							"indexed": false,
							"internalType": "uint256",
							"name": "newLikeCount",
							"type": "uint256"
						}
					],
					"name": "TweetLiked",
					"type": "event"
				},
				{
					"anonymous": false,
					"inputs": [
						{
							"indexed": false,
							"internalType": "address",
							"name": "unliker",
							"type": "address"
						},
						{
							"indexed": false,
							"internalType": "address",
							"name": "tweetAuthor",
							"type": "address"
						},
						{
							"indexed": false,
							"internalType": "uint256",
							"name": "tweetId",
							"type": "uint256"
						},
						{
							"indexed": false,
							"internalType": "uint256",
							"name": "unLikedCount",
							"type": "uint256"
						}
					],
					"name": "TweetUnLiked",
					"type": "event"
				},
				{
					"inputs": [],
					"name": "MAX_TWEET_LENGTH",
					"outputs": [
						{
							"internalType": "uint16",
							"name": "",
							"type": "uint16"
						}
					],
					"stateMutability": "view",
					"type": "function"
				},
				{
					"inputs": [
						{
							"internalType": "uint16",
							"name": "newTweetLength",
							"type": "uint16"
						}
					],
					"name": "changeTweet",
					"outputs": [],
					"stateMutability": "nonpayable",
					"type": "function"
				},
				{
					"inputs": [
						{
							"internalType": "string",
							"name": "_tweet",
							"type": "string"
						}
					],
					"name": "createTweet",
					"outputs": [],
					"stateMutability": "nonpayable",
					"type": "function"
				},
				{
					"inputs": [
						{
							"internalType": "address",
							"name": "_owner",
							"type": "address"
						}
					],
					"name": "getAlltweets",
					"outputs": [
						{
							"components": [
								{
									"internalType": "uint256",
									"name": "id",
									"type": "uint256"
								},
								{
									"internalType": "address",
									"name": "author",
									"type": "address"
								},
								{
									"internalType": "string",
									"name": "content",
									"type": "string"
								},
								{
									"internalType": "uint256",
									"name": "timestamp",
									"type": "uint256"
								},
								{
									"internalType": "uint256",
									"name": "likes",
									"type": "uint256"
								}
							],
							"internalType": "struct Twitter.Tweet[]",
							"name": "",
							"type": "tuple[]"
						}
					],
					"stateMutability": "view",
					"type": "function"
				},
				{
					"inputs": [
						{
							"internalType": "uint256",
							"name": "_i",
							"type": "uint256"
						}
					],
					"name": "getTweet",
					"outputs": [
						{
							"components": [
								{
									"internalType": "uint256",
									"name": "id",
									"type": "uint256"
								},
								{
									"internalType": "address",
									"name": "author",
									"type": "address"
								},
								{
									"internalType": "string",
									"name": "content",
									"type": "string"
								},
								{
									"internalType": "uint256",
									"name": "timestamp",
									"type": "uint256"
								},
								{
									"internalType": "uint256",
									"name": "likes",
									"type": "uint256"
								}
							],
							"internalType": "struct Twitter.Tweet",
							"name": "",
							"type": "tuple"
						}
					],
					"stateMutability": "view",
					"type": "function"
				},
				{
					"inputs": [
						{
							"internalType": "address",
							"name": "author",
							"type": "address"
						},
						{
							"internalType": "uint256",
							"name": "id",
							"type": "uint256"
						}
					],
					"name": "likeTweet",
					"outputs": [],
					"stateMutability": "nonpayable",
					"type": "function"
				},
				{
					"inputs": [],
					"name": "owner",
					"outputs": [
						{
							"internalType": "address",
							"name": "",
							"type": "address"
						}
					],
					"stateMutability": "view",
					"type": "function"
				},
				{
					"inputs": [
						{
							"internalType": "address",
							"name": "",
							"type": "address"
						},
						{
							"internalType": "uint256",
							"name": "",
							"type": "uint256"
						}
					],
					"name": "tweets",
					"outputs": [
						{
							"internalType": "uint256",
							"name": "id",
							"type": "uint256"
						},
						{
							"internalType": "address",
							"name": "author",
							"type": "address"
						},
						{
							"internalType": "string",
							"name": "content",
							"type": "string"
						},
						{
							"internalType": "uint256",
							"name": "timestamp",
							"type": "uint256"
						},
						{
							"internalType": "uint256",
							"name": "likes",
							"type": "uint256"
						}
					],
					"stateMutability": "view",
					"type": "function"
				},
				{
					"inputs": [
						{
							"internalType": "address",
							"name": "author",
							"type": "address"
						},
						{
							"internalType": "uint256",
							"name": "id",
							"type": "uint256"
						}
					],
					"name": "unlikeTweet",
					"outputs": [],
					"stateMutability": "nonpayable",
					"type": "function"
				}
			],
			"devdoc": {
				"kind": "dev",
				"methods": {},
				"version": 1
			},
			"evm": {
				"assembly": "    /* \"contracts/Twitter.sol\":63:3187  contract Twitter {... */\n  mstore(0x40, 0x80)\n    /* \"contracts/Twitter.sol\":152:155  280 */\n  0x0118\n    /* \"contracts/Twitter.sol\":119:155  uint16 public MAX_TWEET_LENGTH = 280 */\n  0x00\n  dup1\n  0x0100\n  exp\n  dup2\n  sload\n  dup2\n  0xffff\n  mul\n  not\n  and\n  swap1\n  dup4\n  0xffff\n  and\n  mul\n  or\n  swap1\n  sstore\n  pop\n    /* \"contracts/Twitter.sol\":1062:1113  constructor() {... */\n  callvalue\n  dup1\n  iszero\n  tag_1\n  jumpi\n  0x00\n  dup1\n  revert\ntag_1:\n  pop\n    /* \"contracts/Twitter.sol\":1095:1105  msg.sender */\n  caller\n    /* \"contracts/Twitter.sol\":1087:1092  owner */\n  0x02\n  0x00\n    /* \"contracts/Twitter.sol\":1087:1105  owner = msg.sender */\n  0x0100\n  exp\n  dup2\n  sload\n  dup2\n  0xffffffffffffffffffffffffffffffffffffffff\n  mul\n  not\n  and\n  swap1\n  dup4\n  0xffffffffffffffffffffffffffffffffffffffff\n  and\n  mul\n  or\n  swap1\n  sstore\n  pop\n    /* \"contracts/Twitter.sol\":63:3187  contract Twitter {... */\n  dataSize(sub_0)\n  dup1\n  dataOffset(sub_0)\n  0x00\n  codecopy\n  0x00\n  return\nstop\n\nsub_0: assembly {\n        /* \"contracts/Twitter.sol\":63:3187  contract Twitter {... */\n      mstore(0x40, 0x80)\n      callvalue\n      dup1\n      iszero\n      tag_1\n      jumpi\n      0x00\n      dup1\n      revert\n    tag_1:\n      pop\n      jumpi(tag_2, lt(calldatasize, 0x04))\n      shr(0xe0, calldataload(0x00))\n      dup1\n      0x6eb10797\n      gt\n      tag_12\n      jumpi\n      dup1\n      0x6eb10797\n      eq\n      tag_7\n      jumpi\n      dup1\n      0x7c9cd2bc\n      eq\n      tag_8\n      jumpi\n      dup1\n      0x8da5cb5b\n      eq\n      tag_9\n      jumpi\n      dup1\n      0x9fedc6aa\n      eq\n      tag_10\n      jumpi\n      dup1\n      0xc3ad5ecb\n      eq\n      tag_11\n      jumpi\n      jump(tag_2)\n    tag_12:\n      dup1\n      0x05a1b4a9\n      eq\n      tag_3\n      jumpi\n      dup1\n      0x1b02495b\n      eq\n      tag_4\n      jumpi\n      dup1\n      0x3d9b569f\n      eq\n      tag_5\n      jumpi\n      dup1\n      0x63378216\n      eq\n      tag_6\n      jumpi\n    tag_2:\n      0x00\n      dup1\n      revert\n        /* \"contracts/Twitter.sol\":468:510  mapping(address => Tweet[ ]) public tweets */\n    tag_3:\n      tag_13\n      0x04\n      dup1\n      calldatasize\n      sub\n      dup2\n      add\n      swap1\n      tag_14\n      swap2\n      swap1\n      tag_15\n      jump\t// in\n    tag_14:\n      tag_16\n      jump\t// in\n    tag_13:\n      mload(0x40)\n      tag_17\n      swap6\n      swap5\n      swap4\n      swap3\n      swap2\n      swap1\n      tag_18\n      jump\t// in\n    tag_17:\n      mload(0x40)\n      dup1\n      swap2\n      sub\n      swap1\n      return\n        /* \"contracts/Twitter.sol\":1284:1397  function changeTweet(uint16 newTweetLength) public onlyOwner {... */\n    tag_4:\n      tag_19\n      0x04\n      dup1\n      calldatasize\n      sub\n      dup2\n      add\n      swap1\n      tag_20\n      swap2\n      swap1\n      tag_21\n      jump\t// in\n    tag_20:\n      tag_22\n      jump\t// in\n    tag_19:\n      stop\n        /* \"contracts/Twitter.sol\":2430:2864  function unlikeTweet(address author, uint256 id) external {... */\n    tag_5:\n      tag_23\n      0x04\n      dup1\n      calldatasize\n      sub\n      dup2\n      add\n      swap1\n      tag_24\n      swap2\n      swap1\n      tag_15\n      jump\t// in\n    tag_24:\n      tag_25\n      jump\t// in\n    tag_23:\n      stop\n        /* \"contracts/Twitter.sol\":2103:2390  function likeTweet(address author, uint256 id) external  {... */\n    tag_6:\n      tag_26\n      0x04\n      dup1\n      calldatasize\n      sub\n      dup2\n      add\n      swap1\n      tag_27\n      swap2\n      swap1\n      tag_15\n      jump\t// in\n    tag_27:\n      tag_28\n      jump\t// in\n    tag_26:\n      stop\n        /* \"contracts/Twitter.sol\":119:155  uint16 public MAX_TWEET_LENGTH = 280 */\n    tag_7:\n      tag_29\n      tag_30\n      jump\t// in\n    tag_29:\n      mload(0x40)\n      tag_31\n      swap2\n      swap1\n      tag_32\n      jump\t// in\n    tag_31:\n      mload(0x40)\n      dup1\n      swap2\n      sub\n      swap1\n      return\n        /* \"contracts/Twitter.sol\":1407:2063  function createTweet(string memory  _tweet) public  {... */\n    tag_8:\n      tag_33\n      0x04\n      dup1\n      calldatasize\n      sub\n      dup2\n      add\n      swap1\n      tag_34\n      swap2\n      swap1\n      tag_35\n      jump\t// in\n    tag_34:\n      tag_36\n      jump\t// in\n    tag_33:\n      stop\n        /* \"contracts/Twitter.sol\":517:537  address public owner */\n    tag_9:\n      tag_37\n      tag_38\n      jump\t// in\n    tag_37:\n      mload(0x40)\n      tag_39\n      swap2\n      swap1\n      tag_40\n      jump\t// in\n    tag_39:\n      mload(0x40)\n      dup1\n      swap2\n      sub\n      swap1\n      return\n        /* \"contracts/Twitter.sol\":3069:3184  function getAlltweets(address _owner) public view returns (Tweet[] memory) {... */\n    tag_10:\n      tag_41\n      0x04\n      dup1\n      calldatasize\n      sub\n      dup2\n      add\n      swap1\n      tag_42\n      swap2\n      swap1\n      tag_43\n      jump\t// in\n    tag_42:\n      tag_44\n      jump\t// in\n    tag_41:\n      mload(0x40)\n      tag_45\n      swap2\n      swap1\n      tag_46\n      jump\t// in\n    tag_45:\n      mload(0x40)\n      dup1\n      swap2\n      sub\n      swap1\n      return\n        /* \"contracts/Twitter.sol\":2912:3025  function getTweet( uint _i) public view returns (Tweet memory) {... */\n    tag_11:\n      tag_47\n      0x04\n      dup1\n      calldatasize\n      sub\n      dup2\n      add\n      swap1\n      tag_48\n      swap2\n      swap1\n      tag_49\n      jump\t// in\n    tag_48:\n      tag_50\n      jump\t// in\n    tag_47:\n      mload(0x40)\n      tag_51\n      swap2\n      swap1\n      tag_52\n      jump\t// in\n    tag_51:\n      mload(0x40)\n      dup1\n      swap2\n      sub\n      swap1\n      return\n        /* \"contracts/Twitter.sol\":468:510  mapping(address => Tweet[ ]) public tweets */\n    tag_16:\n      mstore(0x20, 0x01)\n      dup2\n      0x00\n      mstore\n      keccak256(0x00, 0x40)\n      dup2\n      dup2\n      sload\n      dup2\n      lt\n      tag_53\n      jumpi\n      0x00\n      dup1\n      revert\n    tag_53:\n      swap1\n      0x00\n      mstore\n      keccak256(0x00, 0x20)\n      swap1\n      0x05\n      mul\n      add\n      0x00\n      swap2\n      pop\n      swap2\n      pop\n      pop\n      dup1\n      0x00\n      add\n      sload\n      swap1\n      dup1\n      0x01\n      add\n      0x00\n      swap1\n      sload\n      swap1\n      0x0100\n      exp\n      swap1\n      div\n      0xffffffffffffffffffffffffffffffffffffffff\n      and\n      swap1\n      dup1\n      0x02\n      add\n      dup1\n      sload\n      tag_55\n      swap1\n      tag_56\n      jump\t// in\n    tag_55:\n      dup1\n      0x1f\n      add\n      0x20\n      dup1\n      swap2\n      div\n      mul\n      0x20\n      add\n      mload(0x40)\n      swap1\n      dup2\n      add\n      0x40\n      mstore\n      dup1\n      swap3\n      swap2\n      swap1\n      dup2\n      dup2\n      mstore\n      0x20\n      add\n      dup3\n      dup1\n      sload\n      tag_57\n      swap1\n      tag_56\n      jump\t// in\n    tag_57:\n      dup1\n      iszero\n      tag_58\n      jumpi\n      dup1\n      0x1f\n      lt\n      tag_59\n      jumpi\n      0x0100\n      dup1\n      dup4\n      sload\n      div\n      mul\n      dup4\n      mstore\n      swap2\n      0x20\n      add\n      swap2\n      jump(tag_58)\n    tag_59:\n      dup3\n      add\n      swap2\n      swap1\n      0x00\n      mstore\n      keccak256(0x00, 0x20)\n      swap1\n    tag_60:\n      dup2\n      sload\n      dup2\n      mstore\n      swap1\n      0x01\n      add\n      swap1\n      0x20\n      add\n      dup1\n      dup4\n      gt\n      tag_60\n      jumpi\n      dup3\n      swap1\n      sub\n      0x1f\n      and\n      dup3\n      add\n      swap2\n    tag_58:\n      pop\n      pop\n      pop\n      pop\n      pop\n      swap1\n      dup1\n      0x03\n      add\n      sload\n      swap1\n      dup1\n      0x04\n      add\n      sload\n      swap1\n      pop\n      dup6\n      jump\t// out\n        /* \"contracts/Twitter.sol\":1284:1397  function changeTweet(uint16 newTweetLength) public onlyOwner {... */\n    tag_22:\n        /* \"contracts/Twitter.sol\":1224:1229  owner */\n      0x02\n      0x00\n      swap1\n      sload\n      swap1\n      0x0100\n      exp\n      swap1\n      div\n      0xffffffffffffffffffffffffffffffffffffffff\n      and\n        /* \"contracts/Twitter.sol\":1211:1229  msg.sender ==owner */\n      0xffffffffffffffffffffffffffffffffffffffff\n      and\n        /* \"contracts/Twitter.sol\":1211:1221  msg.sender */\n      caller\n        /* \"contracts/Twitter.sol\":1211:1229  msg.sender ==owner */\n      0xffffffffffffffffffffffffffffffffffffffff\n      and\n      eq\n        /* \"contracts/Twitter.sol\":1203:1256  require(msg.sender ==owner, \"YOU ARE NOT THE OWNER!\") */\n      tag_62\n      jumpi\n      mload(0x40)\n      0x08c379a000000000000000000000000000000000000000000000000000000000\n      dup2\n      mstore\n      0x04\n      add\n      tag_63\n      swap1\n      tag_64\n      jump\t// in\n    tag_63:\n      mload(0x40)\n      dup1\n      swap2\n      sub\n      swap1\n      revert\n    tag_62:\n        /* \"contracts/Twitter.sol\":1375:1389  newTweetLength */\n      dup1\n        /* \"contracts/Twitter.sol\":1356:1372  MAX_TWEET_LENGTH */\n      0x00\n      dup1\n        /* \"contracts/Twitter.sol\":1356:1389  MAX_TWEET_LENGTH = newTweetLength */\n      0x0100\n      exp\n      dup2\n      sload\n      dup2\n      0xffff\n      mul\n      not\n      and\n      swap1\n      dup4\n      0xffff\n      and\n      mul\n      or\n      swap1\n      sstore\n      pop\n        /* \"contracts/Twitter.sol\":1284:1397  function changeTweet(uint16 newTweetLength) public onlyOwner {... */\n      pop\n      jump\t// out\n        /* \"contracts/Twitter.sol\":2430:2864  function unlikeTweet(address author, uint256 id) external {... */\n    tag_25:\n        /* \"contracts/Twitter.sol\":2532:2534  id */\n      dup1\n        /* \"contracts/Twitter.sol\":2507:2513  tweets */\n      0x01\n        /* \"contracts/Twitter.sol\":2507:2521  tweets[author] */\n      0x00\n        /* \"contracts/Twitter.sol\":2514:2520  author */\n      dup5\n        /* \"contracts/Twitter.sol\":2507:2521  tweets[author] */\n      0xffffffffffffffffffffffffffffffffffffffff\n      and\n      0xffffffffffffffffffffffffffffffffffffffff\n      and\n      dup2\n      mstore\n      0x20\n      add\n      swap1\n      dup2\n      mstore\n      0x20\n      add\n      0x00\n      keccak256\n        /* \"contracts/Twitter.sol\":2522:2524  id */\n      dup3\n        /* \"contracts/Twitter.sol\":2507:2525  tweets[author][id] */\n      dup2\n      sload\n      dup2\n      lt\n      tag_67\n      jumpi\n      tag_68\n      tag_69\n      jump\t// in\n    tag_68:\n    tag_67:\n      swap1\n      0x00\n      mstore\n      keccak256(0x00, 0x20)\n      swap1\n      0x05\n      mul\n      add\n        /* \"contracts/Twitter.sol\":2507:2528  tweets[author][id].id */\n      0x00\n      add\n      sload\n        /* \"contracts/Twitter.sol\":2507:2534  tweets[author][id].id == id */\n      eq\n        /* \"contracts/Twitter.sol\":2499:2559  require(tweets[author][id].id == id, \"TWEET DOES NOT EXIST\") */\n      tag_71\n      jumpi\n      mload(0x40)\n      0x08c379a000000000000000000000000000000000000000000000000000000000\n      dup2\n      mstore\n      0x04\n      add\n      tag_72\n      swap1\n      tag_73\n      jump\t// in\n    tag_72:\n      mload(0x40)\n      dup1\n      swap2\n      sub\n      swap1\n      revert\n    tag_71:\n        /* \"contracts/Twitter.sol\":2675:2676  0 */\n      0x00\n        /* \"contracts/Twitter.sol\":2648:2654  tweets */\n      0x01\n        /* \"contracts/Twitter.sol\":2648:2662  tweets[author] */\n      0x00\n        /* \"contracts/Twitter.sol\":2655:2661  author */\n      dup5\n        /* \"contracts/Twitter.sol\":2648:2662  tweets[author] */\n      0xffffffffffffffffffffffffffffffffffffffff\n      and\n      0xffffffffffffffffffffffffffffffffffffffff\n      and\n      dup2\n      mstore\n      0x20\n      add\n      swap1\n      dup2\n      mstore\n      0x20\n      add\n      0x00\n      keccak256\n        /* \"contracts/Twitter.sol\":2663:2665  id */\n      dup3\n        /* \"contracts/Twitter.sol\":2648:2666  tweets[author][id] */\n      dup2\n      sload\n      dup2\n      lt\n      tag_74\n      jumpi\n      tag_75\n      tag_69\n      jump\t// in\n    tag_75:\n    tag_74:\n      swap1\n      0x00\n      mstore\n      keccak256(0x00, 0x20)\n      swap1\n      0x05\n      mul\n      add\n        /* \"contracts/Twitter.sol\":2648:2672  tweets[author][id].likes */\n      0x04\n      add\n      sload\n        /* \"contracts/Twitter.sol\":2648:2676  tweets[author][id].likes > 0 */\n      gt\n        /* \"contracts/Twitter.sol\":2640:2699  require(tweets[author][id].likes > 0, \"TWEET HAS NO LIKES\") */\n      tag_77\n      jumpi\n      mload(0x40)\n      0x08c379a000000000000000000000000000000000000000000000000000000000\n      dup2\n      mstore\n      0x04\n      add\n      tag_78\n      swap1\n      tag_79\n      jump\t// in\n    tag_78:\n      mload(0x40)\n      dup1\n      swap2\n      sub\n      swap1\n      revert\n    tag_77:\n        /* \"contracts/Twitter.sol\":2712:2718  tweets */\n      0x01\n        /* \"contracts/Twitter.sol\":2712:2726  tweets[author] */\n      0x00\n        /* \"contracts/Twitter.sol\":2719:2725  author */\n      dup4\n        /* \"contracts/Twitter.sol\":2712:2726  tweets[author] */\n      0xffffffffffffffffffffffffffffffffffffffff\n      and\n      0xffffffffffffffffffffffffffffffffffffffff\n      and\n      dup2\n      mstore\n      0x20\n      add\n      swap1\n      dup2\n      mstore\n      0x20\n      add\n      0x00\n      keccak256\n        /* \"contracts/Twitter.sol\":2727:2729  id */\n      dup2\n        /* \"contracts/Twitter.sol\":2712:2730  tweets[author][id] */\n      dup2\n      sload\n      dup2\n      lt\n      tag_80\n      jumpi\n      tag_81\n      tag_69\n      jump\t// in\n    tag_81:\n    tag_80:\n      swap1\n      0x00\n      mstore\n      keccak256(0x00, 0x20)\n      swap1\n      0x05\n      mul\n      add\n        /* \"contracts/Twitter.sol\":2712:2736  tweets[author][id].likes */\n      0x04\n      add\n      0x00\n        /* \"contracts/Twitter.sol\":2712:2738  tweets[author][id].likes-- */\n      dup2\n      sload\n      dup1\n      swap3\n      swap2\n      swap1\n      tag_83\n      swap1\n      tag_84\n      jump\t// in\n    tag_83:\n      swap2\n      swap1\n      pop\n      sstore\n      pop\n        /* \"contracts/Twitter.sol\":2794:2856  TweetUnLiked(msg.sender, author, id, tweets[author][id].likes) */\n      0x273883c252143c4abce776697615e41ca9bc1aac5968c585d1c8ba8ffaa8b3c1\n        /* \"contracts/Twitter.sol\":2807:2817  msg.sender */\n      caller\n        /* \"contracts/Twitter.sol\":2819:2825  author */\n      dup4\n        /* \"contracts/Twitter.sol\":2827:2829  id */\n      dup4\n        /* \"contracts/Twitter.sol\":2831:2837  tweets */\n      0x01\n        /* \"contracts/Twitter.sol\":2831:2845  tweets[author] */\n      0x00\n        /* \"contracts/Twitter.sol\":2838:2844  author */\n      dup8\n        /* \"contracts/Twitter.sol\":2831:2845  tweets[author] */\n      0xffffffffffffffffffffffffffffffffffffffff\n      and\n      0xffffffffffffffffffffffffffffffffffffffff\n      and\n      dup2\n      mstore\n      0x20\n      add\n      swap1\n      dup2\n      mstore\n      0x20\n      add\n      0x00\n      keccak256\n        /* \"contracts/Twitter.sol\":2846:2848  id */\n      dup6\n        /* \"contracts/Twitter.sol\":2831:2849  tweets[author][id] */\n      dup2\n      sload\n      dup2\n      lt\n      tag_85\n      jumpi\n      tag_86\n      tag_69\n      jump\t// in\n    tag_86:\n    tag_85:\n      swap1\n      0x00\n      mstore\n      keccak256(0x00, 0x20)\n      swap1\n      0x05\n      mul\n      add\n        /* \"contracts/Twitter.sol\":2831:2855  tweets[author][id].likes */\n      0x04\n      add\n      sload\n        /* \"contracts/Twitter.sol\":2794:2856  TweetUnLiked(msg.sender, author, id, tweets[author][id].likes) */\n      mload(0x40)\n      tag_88\n      swap5\n      swap4\n      swap3\n      swap2\n      swap1\n      tag_89\n      jump\t// in\n    tag_88:\n      mload(0x40)\n      dup1\n      swap2\n      sub\n      swap1\n      log1\n        /* \"contracts/Twitter.sol\":2430:2864  function unlikeTweet(address author, uint256 id) external {... */\n      pop\n      pop\n      jump\t// out\n        /* \"contracts/Twitter.sol\":2103:2390  function likeTweet(address author, uint256 id) external  {... */\n    tag_28:\n        /* \"contracts/Twitter.sol\":2203:2205  id */\n      dup1\n        /* \"contracts/Twitter.sol\":2179:2185  tweets */\n      0x01\n        /* \"contracts/Twitter.sol\":2179:2193  tweets[author] */\n      0x00\n        /* \"contracts/Twitter.sol\":2186:2192  author */\n      dup5\n        /* \"contracts/Twitter.sol\":2179:2193  tweets[author] */\n      0xffffffffffffffffffffffffffffffffffffffff\n      and\n      0xffffffffffffffffffffffffffffffffffffffff\n      and\n      dup2\n      mstore\n      0x20\n      add\n      swap1\n      dup2\n      mstore\n      0x20\n      add\n      0x00\n      keccak256\n        /* \"contracts/Twitter.sol\":2194:2196  id */\n      dup3\n        /* \"contracts/Twitter.sol\":2179:2197  tweets[author][id] */\n      dup2\n      sload\n      dup2\n      lt\n      tag_91\n      jumpi\n      tag_92\n      tag_69\n      jump\t// in\n    tag_92:\n    tag_91:\n      swap1\n      0x00\n      mstore\n      keccak256(0x00, 0x20)\n      swap1\n      0x05\n      mul\n      add\n        /* \"contracts/Twitter.sol\":2179:2200  tweets[author][id].id */\n      0x00\n      add\n      sload\n        /* \"contracts/Twitter.sol\":2179:2205  tweets[author][id].id ==id */\n      eq\n        /* \"contracts/Twitter.sol\":2171:2230  require(tweets[author][id].id ==id, \"TWEET DOES NOT EXIST\") */\n      tag_94\n      jumpi\n      mload(0x40)\n      0x08c379a000000000000000000000000000000000000000000000000000000000\n      dup2\n      mstore\n      0x04\n      add\n      tag_95\n      swap1\n      tag_73\n      jump\t// in\n    tag_95:\n      mload(0x40)\n      dup1\n      swap2\n      sub\n      swap1\n      revert\n    tag_94:\n        /* \"contracts/Twitter.sol\":2241:2247  tweets */\n      0x01\n        /* \"contracts/Twitter.sol\":2241:2255  tweets[author] */\n      0x00\n        /* \"contracts/Twitter.sol\":2248:2254  author */\n      dup4\n        /* \"contracts/Twitter.sol\":2241:2255  tweets[author] */\n      0xffffffffffffffffffffffffffffffffffffffff\n      and\n      0xffffffffffffffffffffffffffffffffffffffff\n      and\n      dup2\n      mstore\n      0x20\n      add\n      swap1\n      dup2\n      mstore\n      0x20\n      add\n      0x00\n      keccak256\n        /* \"contracts/Twitter.sol\":2256:2258  id */\n      dup2\n        /* \"contracts/Twitter.sol\":2241:2259  tweets[author][id] */\n      dup2\n      sload\n      dup2\n      lt\n      tag_96\n      jumpi\n      tag_97\n      tag_69\n      jump\t// in\n    tag_97:\n    tag_96:\n      swap1\n      0x00\n      mstore\n      keccak256(0x00, 0x20)\n      swap1\n      0x05\n      mul\n      add\n        /* \"contracts/Twitter.sol\":2241:2265  tweets[author][id].likes */\n      0x04\n      add\n      0x00\n        /* \"contracts/Twitter.sol\":2241:2267  tweets[author][id].likes++ */\n      dup2\n      sload\n      dup1\n      swap3\n      swap2\n      swap1\n      tag_99\n      swap1\n      tag_100\n      jump\t// in\n    tag_99:\n      swap2\n      swap1\n      pop\n      sstore\n      pop\n        /* \"contracts/Twitter.sol\":2322:2382  TweetLiked(msg.sender, author, id, tweets[author][id].likes) */\n      0xe8a76fc0f16d11a00d1e93b689b63d76cf60af914dd3d915375dc41d01a0c3c8\n        /* \"contracts/Twitter.sol\":2333:2343  msg.sender */\n      caller\n        /* \"contracts/Twitter.sol\":2345:2351  author */\n      dup4\n        /* \"contracts/Twitter.sol\":2353:2355  id */\n      dup4\n        /* \"contracts/Twitter.sol\":2357:2363  tweets */\n      0x01\n        /* \"contracts/Twitter.sol\":2357:2371  tweets[author] */\n      0x00\n        /* \"contracts/Twitter.sol\":2364:2370  author */\n      dup8\n        /* \"contracts/Twitter.sol\":2357:2371  tweets[author] */\n      0xffffffffffffffffffffffffffffffffffffffff\n      and\n      0xffffffffffffffffffffffffffffffffffffffff\n      and\n      dup2\n      mstore\n      0x20\n      add\n      swap1\n      dup2\n      mstore\n      0x20\n      add\n      0x00\n      keccak256\n        /* \"contracts/Twitter.sol\":2372:2374  id */\n      dup6\n        /* \"contracts/Twitter.sol\":2357:2375  tweets[author][id] */\n      dup2\n      sload\n      dup2\n      lt\n      tag_101\n      jumpi\n      tag_102\n      tag_69\n      jump\t// in\n    tag_102:\n    tag_101:\n      swap1\n      0x00\n      mstore\n      keccak256(0x00, 0x20)\n      swap1\n      0x05\n      mul\n      add\n        /* \"contracts/Twitter.sol\":2357:2381  tweets[author][id].likes */\n      0x04\n      add\n      sload\n        /* \"contracts/Twitter.sol\":2322:2382  TweetLiked(msg.sender, author, id, tweets[author][id].likes) */\n      mload(0x40)\n      tag_104\n      swap5\n      swap4\n      swap3\n      swap2\n      swap1\n      tag_89\n      jump\t// in\n    tag_104:\n      mload(0x40)\n      dup1\n      swap2\n      sub\n      swap1\n      log1\n        /* \"contracts/Twitter.sol\":2103:2390  function likeTweet(address author, uint256 id) external  {... */\n      pop\n      pop\n      jump\t// out\n        /* \"contracts/Twitter.sol\":119:155  uint16 public MAX_TWEET_LENGTH = 280 */\n    tag_30:\n      0x00\n      dup1\n      sload\n      swap1\n      0x0100\n      exp\n      swap1\n      div\n      0xffff\n      and\n      dup2\n      jump\t// out\n        /* \"contracts/Twitter.sol\":1407:2063  function createTweet(string memory  _tweet) public  {... */\n    tag_36:\n        /* \"contracts/Twitter.sol\":1596:1612  MAX_TWEET_LENGTH */\n      0x00\n      dup1\n      sload\n      swap1\n      0x0100\n      exp\n      swap1\n      div\n      0xffff\n      and\n        /* \"contracts/Twitter.sol\":1572:1612  bytes(_tweet).length <= MAX_TWEET_LENGTH */\n      0xffff\n      and\n        /* \"contracts/Twitter.sol\":1578:1584  _tweet */\n      dup2\n        /* \"contracts/Twitter.sol\":1572:1592  bytes(_tweet).length */\n      mload\n        /* \"contracts/Twitter.sol\":1572:1612  bytes(_tweet).length <= MAX_TWEET_LENGTH */\n      gt\n      iszero\n        /* \"contracts/Twitter.sol\":1564:1640  require(bytes(_tweet).length <= MAX_TWEET_LENGTH, \"Tweet is too long bru!\" ) */\n      tag_106\n      jumpi\n      mload(0x40)\n      0x08c379a000000000000000000000000000000000000000000000000000000000\n      dup2\n      mstore\n      0x04\n      add\n      tag_107\n      swap1\n      tag_108\n      jump\t// in\n    tag_107:\n      mload(0x40)\n      dup1\n      swap2\n      sub\n      swap1\n      revert\n    tag_106:\n        /* \"contracts/Twitter.sol\":1653:1674  Tweet memory newTweet */\n      0x00\n        /* \"contracts/Twitter.sol\":1677:1866  Tweet({... */\n      mload(0x40)\n      dup1\n      0xa0\n      add\n      0x40\n      mstore\n      dup1\n        /* \"contracts/Twitter.sol\":1702:1708  tweets */\n      0x01\n        /* \"contracts/Twitter.sol\":1702:1720  tweets[msg.sender] */\n      0x00\n        /* \"contracts/Twitter.sol\":1709:1719  msg.sender */\n      caller\n        /* \"contracts/Twitter.sol\":1702:1720  tweets[msg.sender] */\n      0xffffffffffffffffffffffffffffffffffffffff\n      and\n      0xffffffffffffffffffffffffffffffffffffffff\n      and\n      dup2\n      mstore\n      0x20\n      add\n      swap1\n      dup2\n      mstore\n      0x20\n      add\n      0x00\n      keccak256\n        /* \"contracts/Twitter.sol\":1702:1727  tweets[msg.sender].length */\n      dup1\n      sload\n      swap1\n      pop\n        /* \"contracts/Twitter.sol\":1677:1866  Tweet({... */\n      dup2\n      mstore\n      0x20\n      add\n        /* \"contracts/Twitter.sol\":1750:1760  msg.sender */\n      caller\n        /* \"contracts/Twitter.sol\":1677:1866  Tweet({... */\n      0xffffffffffffffffffffffffffffffffffffffff\n      and\n      dup2\n      mstore\n      0x20\n      add\n        /* \"contracts/Twitter.sol\":1784:1790  _tweet */\n      dup4\n        /* \"contracts/Twitter.sol\":1677:1866  Tweet({... */\n      dup2\n      mstore\n      0x20\n      add\n        /* \"contracts/Twitter.sol\":1816:1831  block.timestamp */\n      timestamp\n        /* \"contracts/Twitter.sol\":1677:1866  Tweet({... */\n      dup2\n      mstore\n      0x20\n      add\n        /* \"contracts/Twitter.sol\":1853:1854  0 */\n      0x00\n        /* \"contracts/Twitter.sol\":1677:1866  Tweet({... */\n      dup2\n      mstore\n      pop\n        /* \"contracts/Twitter.sol\":1653:1866  Tweet memory newTweet = Tweet({... */\n      swap1\n      pop\n        /* \"contracts/Twitter.sol\":1879:1885  tweets */\n      0x01\n        /* \"contracts/Twitter.sol\":1879:1897  tweets[msg.sender] */\n      0x00\n        /* \"contracts/Twitter.sol\":1886:1896  msg.sender */\n      caller\n        /* \"contracts/Twitter.sol\":1879:1897  tweets[msg.sender] */\n      0xffffffffffffffffffffffffffffffffffffffff\n      and\n      0xffffffffffffffffffffffffffffffffffffffff\n      and\n      dup2\n      mstore\n      0x20\n      add\n      swap1\n      dup2\n      mstore\n      0x20\n      add\n      0x00\n      keccak256\n        /* \"contracts/Twitter.sol\":1903:1911  newTweet */\n      dup2\n        /* \"contracts/Twitter.sol\":1879:1912  tweets[msg.sender].push(newTweet) */\n      swap1\n      dup1\n      0x01\n      dup2\n      sload\n      add\n      dup1\n      dup3\n      sstore\n      dup1\n      swap2\n      pop\n      pop\n      0x01\n      swap1\n      sub\n      swap1\n      0x00\n      mstore\n      keccak256(0x00, 0x20)\n      swap1\n      0x05\n      mul\n      add\n      0x00\n      swap1\n      swap2\n      swap1\n      swap2\n      swap1\n      swap2\n      pop\n      0x00\n      dup3\n      add\n      mload\n      dup2\n      0x00\n      add\n      sstore\n      0x20\n      dup3\n      add\n      mload\n      dup2\n      0x01\n      add\n      exp(0x0100, 0x00)\n      dup2\n      sload\n      dup2\n      0xffffffffffffffffffffffffffffffffffffffff\n      mul\n      not\n      and\n      swap1\n      dup4\n      0xffffffffffffffffffffffffffffffffffffffff\n      and\n      mul\n      or\n      swap1\n      sstore\n      pop\n      0x40\n      dup3\n      add\n      mload\n      dup2\n      0x02\n      add\n      swap1\n      dup2\n      tag_110\n      swap2\n      swap1\n      tag_111\n      jump\t// in\n    tag_110:\n      pop\n      0x60\n      dup3\n      add\n      mload\n      dup2\n      0x03\n      add\n      sstore\n      0x80\n      dup3\n      add\n      mload\n      dup2\n      0x04\n      add\n      sstore\n      pop\n      pop\n        /* \"contracts/Twitter.sol\":1975:2055  TweetCreated(newTweet.id, newTweet.author, newTweet.content, newTweet.timestamp) */\n      0x16fd3c13e9d46923e0a8bce11c7b473ec508a72e6c96cd2404b29ce972afc29e\n        /* \"contracts/Twitter.sol\":1988:1996  newTweet */\n      dup2\n        /* \"contracts/Twitter.sol\":1988:1999  newTweet.id */\n      0x00\n      add\n      mload\n        /* \"contracts/Twitter.sol\":2001:2009  newTweet */\n      dup3\n        /* \"contracts/Twitter.sol\":2001:2016  newTweet.author */\n      0x20\n      add\n      mload\n        /* \"contracts/Twitter.sol\":2018:2026  newTweet */\n      dup4\n        /* \"contracts/Twitter.sol\":2018:2034  newTweet.content */\n      0x40\n      add\n      mload\n        /* \"contracts/Twitter.sol\":2036:2044  newTweet */\n      dup5\n        /* \"contracts/Twitter.sol\":2036:2054  newTweet.timestamp */\n      0x60\n      add\n      mload\n        /* \"contracts/Twitter.sol\":1975:2055  TweetCreated(newTweet.id, newTweet.author, newTweet.content, newTweet.timestamp) */\n      mload(0x40)\n      tag_112\n      swap5\n      swap4\n      swap3\n      swap2\n      swap1\n      tag_113\n      jump\t// in\n    tag_112:\n      mload(0x40)\n      dup1\n      swap2\n      sub\n      swap1\n      log1\n        /* \"contracts/Twitter.sol\":1459:2063  {... */\n      pop\n        /* \"contracts/Twitter.sol\":1407:2063  function createTweet(string memory  _tweet) public  {... */\n      pop\n      jump\t// out\n        /* \"contracts/Twitter.sol\":517:537  address public owner */\n    tag_38:\n      0x02\n      0x00\n      swap1\n      sload\n      swap1\n      0x0100\n      exp\n      swap1\n      div\n      0xffffffffffffffffffffffffffffffffffffffff\n      and\n      dup2\n      jump\t// out\n        /* \"contracts/Twitter.sol\":3069:3184  function getAlltweets(address _owner) public view returns (Tweet[] memory) {... */\n    tag_44:\n        /* \"contracts/Twitter.sol\":3128:3142  Tweet[] memory */\n      0x60\n        /* \"contracts/Twitter.sol\":3162:3168  tweets */\n      0x01\n        /* \"contracts/Twitter.sol\":3162:3176  tweets[_owner] */\n      0x00\n        /* \"contracts/Twitter.sol\":3169:3175  _owner */\n      dup4\n        /* \"contracts/Twitter.sol\":3162:3176  tweets[_owner] */\n      0xffffffffffffffffffffffffffffffffffffffff\n      and\n      0xffffffffffffffffffffffffffffffffffffffff\n      and\n      dup2\n      mstore\n      0x20\n      add\n      swap1\n      dup2\n      mstore\n      0x20\n      add\n      0x00\n      keccak256\n        /* \"contracts/Twitter.sol\":3155:3176  return tweets[_owner] */\n      dup1\n      sload\n      dup1\n      0x20\n      mul\n      0x20\n      add\n      mload(0x40)\n      swap1\n      dup2\n      add\n      0x40\n      mstore\n      dup1\n      swap3\n      swap2\n      swap1\n      dup2\n      dup2\n      mstore\n      0x20\n      add\n      0x00\n      swap1\n    tag_115:\n      dup3\n      dup3\n      lt\n      iszero\n      tag_116\n      jumpi\n      dup4\n      dup3\n      swap1\n      0x00\n      mstore\n      keccak256(0x00, 0x20)\n      swap1\n      0x05\n      mul\n      add\n      mload(0x40)\n      dup1\n      0xa0\n      add\n      0x40\n      mstore\n      swap1\n      dup2\n      0x00\n      dup3\n      add\n      sload\n      dup2\n      mstore\n      0x20\n      add\n      0x01\n      dup3\n      add\n      0x00\n      swap1\n      sload\n      swap1\n      0x0100\n      exp\n      swap1\n      div\n      0xffffffffffffffffffffffffffffffffffffffff\n      and\n      0xffffffffffffffffffffffffffffffffffffffff\n      and\n      0xffffffffffffffffffffffffffffffffffffffff\n      and\n      dup2\n      mstore\n      0x20\n      add\n      0x02\n      dup3\n      add\n      dup1\n      sload\n      tag_118\n      swap1\n      tag_56\n      jump\t// in\n    tag_118:\n      dup1\n      0x1f\n      add\n      0x20\n      dup1\n      swap2\n      div\n      mul\n      0x20\n      add\n      mload(0x40)\n      swap1\n      dup2\n      add\n      0x40\n      mstore\n      dup1\n      swap3\n      swap2\n      swap1\n      dup2\n      dup2\n      mstore\n      0x20\n      add\n      dup3\n      dup1\n      sload\n      tag_119\n      swap1\n      tag_56\n      jump\t// in\n    tag_119:\n      dup1\n      iszero\n      tag_120\n      jumpi\n      dup1\n      0x1f\n      lt\n      tag_121\n      jumpi\n      0x0100\n      dup1\n      dup4\n      sload\n      div\n      mul\n      dup4\n      mstore\n      swap2\n      0x20\n      add\n      swap2\n      jump(tag_120)\n    tag_121:\n      dup3\n      add\n      swap2\n      swap1\n      0x00\n      mstore\n      keccak256(0x00, 0x20)\n      swap1\n    tag_122:\n      dup2\n      sload\n      dup2\n      mstore\n      swap1\n      0x01\n      add\n      swap1\n      0x20\n      add\n      dup1\n      dup4\n      gt\n      tag_122\n      jumpi\n      dup3\n      swap1\n      sub\n      0x1f\n      and\n      dup3\n      add\n      swap2\n    tag_120:\n      pop\n      pop\n      pop\n      pop\n      pop\n      dup2\n      mstore\n      0x20\n      add\n      0x03\n      dup3\n      add\n      sload\n      dup2\n      mstore\n      0x20\n      add\n      0x04\n      dup3\n      add\n      sload\n      dup2\n      mstore\n      pop\n      pop\n      dup2\n      mstore\n      0x20\n      add\n      swap1\n      0x01\n      add\n      swap1\n      jump(tag_115)\n    tag_116:\n      pop\n      pop\n      pop\n      pop\n      swap1\n      pop\n        /* \"contracts/Twitter.sol\":3069:3184  function getAlltweets(address _owner) public view returns (Tweet[] memory) {... */\n      swap2\n      swap1\n      pop\n      jump\t// out\n        /* \"contracts/Twitter.sol\":2912:3025  function getTweet( uint _i) public view returns (Tweet memory) {... */\n    tag_50:\n        /* \"contracts/Twitter.sol\":2961:2973  Tweet memory */\n      tag_123\n      tag_124\n      jump\t// in\n    tag_123:\n        /* \"contracts/Twitter.sol\":2995:3001  tweets */\n      0x01\n        /* \"contracts/Twitter.sol\":2995:3013  tweets[msg.sender] */\n      0x00\n        /* \"contracts/Twitter.sol\":3002:3012  msg.sender */\n      caller\n        /* \"contracts/Twitter.sol\":2995:3013  tweets[msg.sender] */\n      0xffffffffffffffffffffffffffffffffffffffff\n      and\n      0xffffffffffffffffffffffffffffffffffffffff\n      and\n      dup2\n      mstore\n      0x20\n      add\n      swap1\n      dup2\n      mstore\n      0x20\n      add\n      0x00\n      keccak256\n        /* \"contracts/Twitter.sol\":3014:3016  _i */\n      dup3\n        /* \"contracts/Twitter.sol\":2995:3017  tweets[msg.sender][_i] */\n      dup2\n      sload\n      dup2\n      lt\n      tag_126\n      jumpi\n      tag_127\n      tag_69\n      jump\t// in\n    tag_127:\n    tag_126:\n      swap1\n      0x00\n      mstore\n      keccak256(0x00, 0x20)\n      swap1\n      0x05\n      mul\n      add\n        /* \"contracts/Twitter.sol\":2988:3017  return tweets[msg.sender][_i] */\n      mload(0x40)\n      dup1\n      0xa0\n      add\n      0x40\n      mstore\n      swap1\n      dup2\n      0x00\n      dup3\n      add\n      sload\n      dup2\n      mstore\n      0x20\n      add\n      0x01\n      dup3\n      add\n      0x00\n      swap1\n      sload\n      swap1\n      0x0100\n      exp\n      swap1\n      div\n      0xffffffffffffffffffffffffffffffffffffffff\n      and\n      0xffffffffffffffffffffffffffffffffffffffff\n      and\n      0xffffffffffffffffffffffffffffffffffffffff\n      and\n      dup2\n      mstore\n      0x20\n      add\n      0x02\n      dup3\n      add\n      dup1\n      sload\n      tag_129\n      swap1\n      tag_56\n      jump\t// in\n    tag_129:\n      dup1\n      0x1f\n      add\n      0x20\n      dup1\n      swap2\n      div\n      mul\n      0x20\n      add\n      mload(0x40)\n      swap1\n      dup2\n      add\n      0x40\n      mstore\n      dup1\n      swap3\n      swap2\n      swap1\n      dup2\n      dup2\n      mstore\n      0x20\n      add\n      dup3\n      dup1\n      sload\n      tag_130\n      swap1\n      tag_56\n      jump\t// in\n    tag_130:\n      dup1\n      iszero\n      tag_131\n      jumpi\n      dup1\n      0x1f\n      lt\n      tag_132\n      jumpi\n      0x0100\n      dup1\n      dup4\n      sload\n      div\n      mul\n      dup4\n      mstore\n      swap2\n      0x20\n      add\n      swap2\n      jump(tag_131)\n    tag_132:\n      dup3\n      add\n      swap2\n      swap1\n      0x00\n      mstore\n      keccak256(0x00, 0x20)\n      swap1\n    tag_133:\n      dup2\n      sload\n      dup2\n      mstore\n      swap1\n      0x01\n      add\n      swap1\n      0x20\n      add\n      dup1\n      dup4\n      gt\n      tag_133\n      jumpi\n      dup3\n      swap1\n      sub\n      0x1f\n      and\n      dup3\n      add\n      swap2\n    tag_131:\n      pop\n      pop\n      pop\n      pop\n      pop\n      dup2\n      mstore\n      0x20\n      add\n      0x03\n      dup3\n      add\n      sload\n      dup2\n      mstore\n      0x20\n      add\n      0x04\n      dup3\n      add\n      sload\n      dup2\n      mstore\n      pop\n      pop\n      swap1\n      pop\n        /* \"contracts/Twitter.sol\":2912:3025  function getTweet( uint _i) public view returns (Tweet memory) {... */\n      swap2\n      swap1\n      pop\n      jump\t// out\n    tag_124:\n      mload(0x40)\n      dup1\n      0xa0\n      add\n      0x40\n      mstore\n      dup1\n      0x00\n      dup2\n      mstore\n      0x20\n      add\n      and(0xffffffffffffffffffffffffffffffffffffffff, 0x00)\n      dup2\n      mstore\n      0x20\n      add\n      0x60\n      dup2\n      mstore\n      0x20\n      add\n      0x00\n      dup2\n      mstore\n      0x20\n      add\n      0x00\n      dup2\n      mstore\n      pop\n      swap1\n      jump\t// out\n        /* \"#utility.yul\":7:82   */\n    tag_134:\n        /* \"#utility.yul\":40:46   */\n      0x00\n        /* \"#utility.yul\":73:75   */\n      0x40\n        /* \"#utility.yul\":67:76   */\n      mload\n        /* \"#utility.yul\":57:76   */\n      swap1\n      pop\n        /* \"#utility.yul\":7:82   */\n      swap1\n      jump\t// out\n        /* \"#utility.yul\":88:205   */\n    tag_135:\n        /* \"#utility.yul\":197:198   */\n      0x00\n        /* \"#utility.yul\":194:195   */\n      dup1\n        /* \"#utility.yul\":187:199   */\n      revert\n        /* \"#utility.yul\":211:328   */\n    tag_136:\n        /* \"#utility.yul\":320:321   */\n      0x00\n        /* \"#utility.yul\":317:318   */\n      dup1\n        /* \"#utility.yul\":310:322   */\n      revert\n        /* \"#utility.yul\":334:460   */\n    tag_137:\n        /* \"#utility.yul\":371:378   */\n      0x00\n        /* \"#utility.yul\":411:453   */\n      0xffffffffffffffffffffffffffffffffffffffff\n        /* \"#utility.yul\":404:409   */\n      dup3\n        /* \"#utility.yul\":400:454   */\n      and\n        /* \"#utility.yul\":389:454   */\n      swap1\n      pop\n        /* \"#utility.yul\":334:460   */\n      swap2\n      swap1\n      pop\n      jump\t// out\n        /* \"#utility.yul\":466:562   */\n    tag_138:\n        /* \"#utility.yul\":503:510   */\n      0x00\n        /* \"#utility.yul\":532:556   */\n      tag_207\n        /* \"#utility.yul\":550:555   */\n      dup3\n        /* \"#utility.yul\":532:556   */\n      tag_137\n      jump\t// in\n    tag_207:\n        /* \"#utility.yul\":521:556   */\n      swap1\n      pop\n        /* \"#utility.yul\":466:562   */\n      swap2\n      swap1\n      pop\n      jump\t// out\n        /* \"#utility.yul\":568:690   */\n    tag_139:\n        /* \"#utility.yul\":641:665   */\n      tag_209\n        /* \"#utility.yul\":659:664   */\n      dup2\n        /* \"#utility.yul\":641:665   */\n      tag_138\n      jump\t// in\n    tag_209:\n        /* \"#utility.yul\":634:639   */\n      dup2\n        /* \"#utility.yul\":631:666   */\n      eq\n        /* \"#utility.yul\":621:684   */\n      tag_210\n      jumpi\n        /* \"#utility.yul\":680:681   */\n      0x00\n        /* \"#utility.yul\":677:678   */\n      dup1\n        /* \"#utility.yul\":670:682   */\n      revert\n        /* \"#utility.yul\":621:684   */\n    tag_210:\n        /* \"#utility.yul\":568:690   */\n      pop\n      jump\t// out\n        /* \"#utility.yul\":696:835   */\n    tag_140:\n        /* \"#utility.yul\":742:747   */\n      0x00\n        /* \"#utility.yul\":780:786   */\n      dup2\n        /* \"#utility.yul\":767:787   */\n      calldataload\n        /* \"#utility.yul\":758:787   */\n      swap1\n      pop\n        /* \"#utility.yul\":796:829   */\n      tag_212\n        /* \"#utility.yul\":823:828   */\n      dup2\n        /* \"#utility.yul\":796:829   */\n      tag_139\n      jump\t// in\n    tag_212:\n        /* \"#utility.yul\":696:835   */\n      swap3\n      swap2\n      pop\n      pop\n      jump\t// out\n        /* \"#utility.yul\":841:918   */\n    tag_141:\n        /* \"#utility.yul\":878:885   */\n      0x00\n        /* \"#utility.yul\":907:912   */\n      dup2\n        /* \"#utility.yul\":896:912   */\n      swap1\n      pop\n        /* \"#utility.yul\":841:918   */\n      swap2\n      swap1\n      pop\n      jump\t// out\n        /* \"#utility.yul\":924:1046   */\n    tag_142:\n        /* \"#utility.yul\":997:1021   */\n      tag_215\n        /* \"#utility.yul\":1015:1020   */\n      dup2\n        /* \"#utility.yul\":997:1021   */\n      tag_141\n      jump\t// in\n    tag_215:\n        /* \"#utility.yul\":990:995   */\n      dup2\n        /* \"#utility.yul\":987:1022   */\n      eq\n        /* \"#utility.yul\":977:1040   */\n      tag_216\n      jumpi\n        /* \"#utility.yul\":1036:1037   */\n      0x00\n        /* \"#utility.yul\":1033:1034   */\n      dup1\n        /* \"#utility.yul\":1026:1038   */\n      revert\n        /* \"#utility.yul\":977:1040   */\n    tag_216:\n        /* \"#utility.yul\":924:1046   */\n      pop\n      jump\t// out\n        /* \"#utility.yul\":1052:1191   */\n    tag_143:\n        /* \"#utility.yul\":1098:1103   */\n      0x00\n        /* \"#utility.yul\":1136:1142   */\n      dup2\n        /* \"#utility.yul\":1123:1143   */\n      calldataload\n        /* \"#utility.yul\":1114:1143   */\n      swap1\n      pop\n        /* \"#utility.yul\":1152:1185   */\n      tag_218\n        /* \"#utility.yul\":1179:1184   */\n      dup2\n        /* \"#utility.yul\":1152:1185   */\n      tag_142\n      jump\t// in\n    tag_218:\n        /* \"#utility.yul\":1052:1191   */\n      swap3\n      swap2\n      pop\n      pop\n      jump\t// out\n        /* \"#utility.yul\":1197:1671   */\n    tag_15:\n        /* \"#utility.yul\":1265:1271   */\n      0x00\n        /* \"#utility.yul\":1273:1279   */\n      dup1\n        /* \"#utility.yul\":1322:1324   */\n      0x40\n        /* \"#utility.yul\":1310:1319   */\n      dup4\n        /* \"#utility.yul\":1301:1308   */\n      dup6\n        /* \"#utility.yul\":1297:1320   */\n      sub\n        /* \"#utility.yul\":1293:1325   */\n      slt\n        /* \"#utility.yul\":1290:1409   */\n      iszero\n      tag_220\n      jumpi\n        /* \"#utility.yul\":1328:1407   */\n      tag_221\n      tag_135\n      jump\t// in\n    tag_221:\n        /* \"#utility.yul\":1290:1409   */\n    tag_220:\n        /* \"#utility.yul\":1448:1449   */\n      0x00\n        /* \"#utility.yul\":1473:1526   */\n      tag_222\n        /* \"#utility.yul\":1518:1525   */\n      dup6\n        /* \"#utility.yul\":1509:1515   */\n      dup3\n        /* \"#utility.yul\":1498:1507   */\n      dup7\n        /* \"#utility.yul\":1494:1516   */\n      add\n        /* \"#utility.yul\":1473:1526   */\n      tag_140\n      jump\t// in\n    tag_222:\n        /* \"#utility.yul\":1463:1526   */\n      swap3\n      pop\n        /* \"#utility.yul\":1419:1536   */\n      pop\n        /* \"#utility.yul\":1575:1577   */\n      0x20\n        /* \"#utility.yul\":1601:1654   */\n      tag_223\n        /* \"#utility.yul\":1646:1653   */\n      dup6\n        /* \"#utility.yul\":1637:1643   */\n      dup3\n        /* \"#utility.yul\":1626:1635   */\n      dup7\n        /* \"#utility.yul\":1622:1644   */\n      add\n        /* \"#utility.yul\":1601:1654   */\n      tag_143\n      jump\t// in\n    tag_223:\n        /* \"#utility.yul\":1591:1654   */\n      swap2\n      pop\n        /* \"#utility.yul\":1546:1664   */\n      pop\n        /* \"#utility.yul\":1197:1671   */\n      swap3\n      pop\n      swap3\n      swap1\n      pop\n      jump\t// out\n        /* \"#utility.yul\":1677:1795   */\n    tag_144:\n        /* \"#utility.yul\":1764:1788   */\n      tag_225\n        /* \"#utility.yul\":1782:1787   */\n      dup2\n        /* \"#utility.yul\":1764:1788   */\n      tag_141\n      jump\t// in\n    tag_225:\n        /* \"#utility.yul\":1759:1762   */\n      dup3\n        /* \"#utility.yul\":1752:1789   */\n      mstore\n        /* \"#utility.yul\":1677:1795   */\n      pop\n      pop\n      jump\t// out\n        /* \"#utility.yul\":1801:1919   */\n    tag_145:\n        /* \"#utility.yul\":1888:1912   */\n      tag_227\n        /* \"#utility.yul\":1906:1911   */\n      dup2\n        /* \"#utility.yul\":1888:1912   */\n      tag_138\n      jump\t// in\n    tag_227:\n        /* \"#utility.yul\":1883:1886   */\n      dup3\n        /* \"#utility.yul\":1876:1913   */\n      mstore\n        /* \"#utility.yul\":1801:1919   */\n      pop\n      pop\n      jump\t// out\n        /* \"#utility.yul\":1925:2024   */\n    tag_146:\n        /* \"#utility.yul\":1977:1983   */\n      0x00\n        /* \"#utility.yul\":2011:2016   */\n      dup2\n        /* \"#utility.yul\":2005:2017   */\n      mload\n        /* \"#utility.yul\":1995:2017   */\n      swap1\n      pop\n        /* \"#utility.yul\":1925:2024   */\n      swap2\n      swap1\n      pop\n      jump\t// out\n        /* \"#utility.yul\":2030:2199   */\n    tag_147:\n        /* \"#utility.yul\":2114:2125   */\n      0x00\n        /* \"#utility.yul\":2148:2154   */\n      dup3\n        /* \"#utility.yul\":2143:2146   */\n      dup3\n        /* \"#utility.yul\":2136:2155   */\n      mstore\n        /* \"#utility.yul\":2188:2192   */\n      0x20\n        /* \"#utility.yul\":2183:2186   */\n      dup3\n        /* \"#utility.yul\":2179:2193   */\n      add\n        /* \"#utility.yul\":2164:2193   */\n      swap1\n      pop\n        /* \"#utility.yul\":2030:2199   */\n      swap3\n      swap2\n      pop\n      pop\n      jump\t// out\n        /* \"#utility.yul\":2205:2344   */\n    tag_148:\n        /* \"#utility.yul\":2294:2300   */\n      dup3\n        /* \"#utility.yul\":2289:2292   */\n      dup2\n        /* \"#utility.yul\":2284:2287   */\n      dup4\n        /* \"#utility.yul\":2278:2301   */\n      mcopy\n        /* \"#utility.yul\":2335:2336   */\n      0x00\n        /* \"#utility.yul\":2326:2332   */\n      dup4\n        /* \"#utility.yul\":2321:2324   */\n      dup4\n        /* \"#utility.yul\":2317:2333   */\n      add\n        /* \"#utility.yul\":2310:2337   */\n      mstore\n        /* \"#utility.yul\":2205:2344   */\n      pop\n      pop\n      pop\n      jump\t// out\n        /* \"#utility.yul\":2350:2452   */\n    tag_149:\n        /* \"#utility.yul\":2391:2397   */\n      0x00\n        /* \"#utility.yul\":2442:2444   */\n      0x1f\n        /* \"#utility.yul\":2438:2445   */\n      not\n        /* \"#utility.yul\":2433:2435   */\n      0x1f\n        /* \"#utility.yul\":2426:2431   */\n      dup4\n        /* \"#utility.yul\":2422:2436   */\n      add\n        /* \"#utility.yul\":2418:2446   */\n      and\n        /* \"#utility.yul\":2408:2446   */\n      swap1\n      pop\n        /* \"#utility.yul\":2350:2452   */\n      swap2\n      swap1\n      pop\n      jump\t// out\n        /* \"#utility.yul\":2458:2835   */\n    tag_150:\n        /* \"#utility.yul\":2546:2549   */\n      0x00\n        /* \"#utility.yul\":2574:2613   */\n      tag_233\n        /* \"#utility.yul\":2607:2612   */\n      dup3\n        /* \"#utility.yul\":2574:2613   */\n      tag_146\n      jump\t// in\n    tag_233:\n        /* \"#utility.yul\":2629:2700   */\n      tag_234\n        /* \"#utility.yul\":2693:2699   */\n      dup2\n        /* \"#utility.yul\":2688:2691   */\n      dup6\n        /* \"#utility.yul\":2629:2700   */\n      tag_147\n      jump\t// in\n    tag_234:\n        /* \"#utility.yul\":2622:2700   */\n      swap4\n      pop\n        /* \"#utility.yul\":2709:2774   */\n      tag_235\n        /* \"#utility.yul\":2767:2773   */\n      dup2\n        /* \"#utility.yul\":2762:2765   */\n      dup6\n        /* \"#utility.yul\":2755:2759   */\n      0x20\n        /* \"#utility.yul\":2748:2753   */\n      dup7\n        /* \"#utility.yul\":2744:2760   */\n      add\n        /* \"#utility.yul\":2709:2774   */\n      tag_148\n      jump\t// in\n    tag_235:\n        /* \"#utility.yul\":2799:2828   */\n      tag_236\n        /* \"#utility.yul\":2821:2827   */\n      dup2\n        /* \"#utility.yul\":2799:2828   */\n      tag_149\n      jump\t// in\n    tag_236:\n        /* \"#utility.yul\":2794:2797   */\n      dup5\n        /* \"#utility.yul\":2790:2829   */\n      add\n        /* \"#utility.yul\":2783:2829   */\n      swap2\n      pop\n        /* \"#utility.yul\":2550:2835   */\n      pop\n        /* \"#utility.yul\":2458:2835   */\n      swap3\n      swap2\n      pop\n      pop\n      jump\t// out\n        /* \"#utility.yul\":2841:3596   */\n    tag_18:\n        /* \"#utility.yul\":3066:3070   */\n      0x00\n        /* \"#utility.yul\":3104:3107   */\n      0xa0\n        /* \"#utility.yul\":3093:3102   */\n      dup3\n        /* \"#utility.yul\":3089:3108   */\n      add\n        /* \"#utility.yul\":3081:3108   */\n      swap1\n      pop\n        /* \"#utility.yul\":3118:3189   */\n      tag_238\n        /* \"#utility.yul\":3186:3187   */\n      0x00\n        /* \"#utility.yul\":3175:3184   */\n      dup4\n        /* \"#utility.yul\":3171:3188   */\n      add\n        /* \"#utility.yul\":3162:3168   */\n      dup9\n        /* \"#utility.yul\":3118:3189   */\n      tag_144\n      jump\t// in\n    tag_238:\n        /* \"#utility.yul\":3199:3271   */\n      tag_239\n        /* \"#utility.yul\":3267:3269   */\n      0x20\n        /* \"#utility.yul\":3256:3265   */\n      dup4\n        /* \"#utility.yul\":3252:3270   */\n      add\n        /* \"#utility.yul\":3243:3249   */\n      dup8\n        /* \"#utility.yul\":3199:3271   */\n      tag_145\n      jump\t// in\n    tag_239:\n        /* \"#utility.yul\":3318:3327   */\n      dup2\n        /* \"#utility.yul\":3312:3316   */\n      dup2\n        /* \"#utility.yul\":3308:3328   */\n      sub\n        /* \"#utility.yul\":3303:3305   */\n      0x40\n        /* \"#utility.yul\":3292:3301   */\n      dup4\n        /* \"#utility.yul\":3288:3306   */\n      add\n        /* \"#utility.yul\":3281:3329   */\n      mstore\n        /* \"#utility.yul\":3346:3424   */\n      tag_240\n        /* \"#utility.yul\":3419:3423   */\n      dup2\n        /* \"#utility.yul\":3410:3416   */\n      dup7\n        /* \"#utility.yul\":3346:3424   */\n      tag_150\n      jump\t// in\n    tag_240:\n        /* \"#utility.yul\":3338:3424   */\n      swap1\n      pop\n        /* \"#utility.yul\":3434:3506   */\n      tag_241\n        /* \"#utility.yul\":3502:3504   */\n      0x60\n        /* \"#utility.yul\":3491:3500   */\n      dup4\n        /* \"#utility.yul\":3487:3505   */\n      add\n        /* \"#utility.yul\":3478:3484   */\n      dup6\n        /* \"#utility.yul\":3434:3506   */\n      tag_144\n      jump\t// in\n    tag_241:\n        /* \"#utility.yul\":3516:3589   */\n      tag_242\n        /* \"#utility.yul\":3584:3587   */\n      0x80\n        /* \"#utility.yul\":3573:3582   */\n      dup4\n        /* \"#utility.yul\":3569:3588   */\n      add\n        /* \"#utility.yul\":3560:3566   */\n      dup5\n        /* \"#utility.yul\":3516:3589   */\n      tag_144\n      jump\t// in\n    tag_242:\n        /* \"#utility.yul\":2841:3596   */\n      swap7\n      swap6\n      pop\n      pop\n      pop\n      pop\n      pop\n      pop\n      jump\t// out\n        /* \"#utility.yul\":3602:3691   */\n    tag_151:\n        /* \"#utility.yul\":3638:3645   */\n      0x00\n        /* \"#utility.yul\":3678:3684   */\n      0xffff\n        /* \"#utility.yul\":3671:3676   */\n      dup3\n        /* \"#utility.yul\":3667:3685   */\n      and\n        /* \"#utility.yul\":3656:3685   */\n      swap1\n      pop\n        /* \"#utility.yul\":3602:3691   */\n      swap2\n      swap1\n      pop\n      jump\t// out\n        /* \"#utility.yul\":3697:3817   */\n    tag_152:\n        /* \"#utility.yul\":3769:3792   */\n      tag_245\n        /* \"#utility.yul\":3786:3791   */\n      dup2\n        /* \"#utility.yul\":3769:3792   */\n      tag_151\n      jump\t// in\n    tag_245:\n        /* \"#utility.yul\":3762:3767   */\n      dup2\n        /* \"#utility.yul\":3759:3793   */\n      eq\n        /* \"#utility.yul\":3749:3811   */\n      tag_246\n      jumpi\n        /* \"#utility.yul\":3807:3808   */\n      0x00\n        /* \"#utility.yul\":3804:3805   */\n      dup1\n        /* \"#utility.yul\":3797:3809   */\n      revert\n        /* \"#utility.yul\":3749:3811   */\n    tag_246:\n        /* \"#utility.yul\":3697:3817   */\n      pop\n      jump\t// out\n        /* \"#utility.yul\":3823:3960   */\n    tag_153:\n        /* \"#utility.yul\":3868:3873   */\n      0x00\n        /* \"#utility.yul\":3906:3912   */\n      dup2\n        /* \"#utility.yul\":3893:3913   */\n      calldataload\n        /* \"#utility.yul\":3884:3913   */\n      swap1\n      pop\n        /* \"#utility.yul\":3922:3954   */\n      tag_248\n        /* \"#utility.yul\":3948:3953   */\n      dup2\n        /* \"#utility.yul\":3922:3954   */\n      tag_152\n      jump\t// in\n    tag_248:\n        /* \"#utility.yul\":3823:3960   */\n      swap3\n      swap2\n      pop\n      pop\n      jump\t// out\n        /* \"#utility.yul\":3966:4293   */\n    tag_21:\n        /* \"#utility.yul\":4024:4030   */\n      0x00\n        /* \"#utility.yul\":4073:4075   */\n      0x20\n        /* \"#utility.yul\":4061:4070   */\n      dup3\n        /* \"#utility.yul\":4052:4059   */\n      dup5\n        /* \"#utility.yul\":4048:4071   */\n      sub\n        /* \"#utility.yul\":4044:4076   */\n      slt\n        /* \"#utility.yul\":4041:4160   */\n      iszero\n      tag_250\n      jumpi\n        /* \"#utility.yul\":4079:4158   */\n      tag_251\n      tag_135\n      jump\t// in\n    tag_251:\n        /* \"#utility.yul\":4041:4160   */\n    tag_250:\n        /* \"#utility.yul\":4199:4200   */\n      0x00\n        /* \"#utility.yul\":4224:4276   */\n      tag_252\n        /* \"#utility.yul\":4268:4275   */\n      dup5\n        /* \"#utility.yul\":4259:4265   */\n      dup3\n        /* \"#utility.yul\":4248:4257   */\n      dup6\n        /* \"#utility.yul\":4244:4266   */\n      add\n        /* \"#utility.yul\":4224:4276   */\n      tag_153\n      jump\t// in\n    tag_252:\n        /* \"#utility.yul\":4214:4276   */\n      swap2\n      pop\n        /* \"#utility.yul\":4170:4286   */\n      pop\n        /* \"#utility.yul\":3966:4293   */\n      swap3\n      swap2\n      pop\n      pop\n      jump\t// out\n        /* \"#utility.yul\":4299:4414   */\n    tag_154:\n        /* \"#utility.yul\":4384:4407   */\n      tag_254\n        /* \"#utility.yul\":4401:4406   */\n      dup2\n        /* \"#utility.yul\":4384:4407   */\n      tag_151\n      jump\t// in\n    tag_254:\n        /* \"#utility.yul\":4379:4382   */\n      dup3\n        /* \"#utility.yul\":4372:4408   */\n      mstore\n        /* \"#utility.yul\":4299:4414   */\n      pop\n      pop\n      jump\t// out\n        /* \"#utility.yul\":4420:4638   */\n    tag_32:\n        /* \"#utility.yul\":4511:4515   */\n      0x00\n        /* \"#utility.yul\":4549:4551   */\n      0x20\n        /* \"#utility.yul\":4538:4547   */\n      dup3\n        /* \"#utility.yul\":4534:4552   */\n      add\n        /* \"#utility.yul\":4526:4552   */\n      swap1\n      pop\n        /* \"#utility.yul\":4562:4631   */\n      tag_256\n        /* \"#utility.yul\":4628:4629   */\n      0x00\n        /* \"#utility.yul\":4617:4626   */\n      dup4\n        /* \"#utility.yul\":4613:4630   */\n      add\n        /* \"#utility.yul\":4604:4610   */\n      dup5\n        /* \"#utility.yul\":4562:4631   */\n      tag_154\n      jump\t// in\n    tag_256:\n        /* \"#utility.yul\":4420:4638   */\n      swap3\n      swap2\n      pop\n      pop\n      jump\t// out\n        /* \"#utility.yul\":4644:4761   */\n    tag_155:\n        /* \"#utility.yul\":4753:4754   */\n      0x00\n        /* \"#utility.yul\":4750:4751   */\n      dup1\n        /* \"#utility.yul\":4743:4755   */\n      revert\n        /* \"#utility.yul\":4767:4884   */\n    tag_156:\n        /* \"#utility.yul\":4876:4877   */\n      0x00\n        /* \"#utility.yul\":4873:4874   */\n      dup1\n        /* \"#utility.yul\":4866:4878   */\n      revert\n        /* \"#utility.yul\":4890:5070   */\n    tag_157:\n        /* \"#utility.yul\":4938:5015   */\n      0x4e487b7100000000000000000000000000000000000000000000000000000000\n        /* \"#utility.yul\":4935:4936   */\n      0x00\n        /* \"#utility.yul\":4928:5016   */\n      mstore\n        /* \"#utility.yul\":5035:5039   */\n      0x41\n        /* \"#utility.yul\":5032:5033   */\n      0x04\n        /* \"#utility.yul\":5025:5040   */\n      mstore\n        /* \"#utility.yul\":5059:5063   */\n      0x24\n        /* \"#utility.yul\":5056:5057   */\n      0x00\n        /* \"#utility.yul\":5049:5064   */\n      revert\n        /* \"#utility.yul\":5076:5357   */\n    tag_158:\n        /* \"#utility.yul\":5159:5186   */\n      tag_261\n        /* \"#utility.yul\":5181:5185   */\n      dup3\n        /* \"#utility.yul\":5159:5186   */\n      tag_149\n      jump\t// in\n    tag_261:\n        /* \"#utility.yul\":5151:5157   */\n      dup2\n        /* \"#utility.yul\":5147:5187   */\n      add\n        /* \"#utility.yul\":5289:5295   */\n      dup2\n        /* \"#utility.yul\":5277:5287   */\n      dup2\n        /* \"#utility.yul\":5274:5296   */\n      lt\n        /* \"#utility.yul\":5253:5271   */\n      0xffffffffffffffff\n        /* \"#utility.yul\":5241:5251   */\n      dup3\n        /* \"#utility.yul\":5238:5272   */\n      gt\n        /* \"#utility.yul\":5235:5297   */\n      or\n        /* \"#utility.yul\":5232:5320   */\n      iszero\n      tag_262\n      jumpi\n        /* \"#utility.yul\":5300:5318   */\n      tag_263\n      tag_157\n      jump\t// in\n    tag_263:\n        /* \"#utility.yul\":5232:5320   */\n    tag_262:\n        /* \"#utility.yul\":5340:5350   */\n      dup1\n        /* \"#utility.yul\":5336:5338   */\n      0x40\n        /* \"#utility.yul\":5329:5351   */\n      mstore\n        /* \"#utility.yul\":5119:5357   */\n      pop\n        /* \"#utility.yul\":5076:5357   */\n      pop\n      pop\n      jump\t// out\n        /* \"#utility.yul\":5363:5492   */\n    tag_159:\n        /* \"#utility.yul\":5397:5403   */\n      0x00\n        /* \"#utility.yul\":5424:5444   */\n      tag_265\n      tag_134\n      jump\t// in\n    tag_265:\n        /* \"#utility.yul\":5414:5444   */\n      swap1\n      pop\n        /* \"#utility.yul\":5453:5486   */\n      tag_266\n        /* \"#utility.yul\":5481:5485   */\n      dup3\n        /* \"#utility.yul\":5473:5479   */\n      dup3\n        /* \"#utility.yul\":5453:5486   */\n      tag_158\n      jump\t// in\n    tag_266:\n        /* \"#utility.yul\":5363:5492   */\n      swap2\n      swap1\n      pop\n      jump\t// out\n        /* \"#utility.yul\":5498:5806   */\n    tag_160:\n        /* \"#utility.yul\":5560:5564   */\n      0x00\n        /* \"#utility.yul\":5650:5668   */\n      0xffffffffffffffff\n        /* \"#utility.yul\":5642:5648   */\n      dup3\n        /* \"#utility.yul\":5639:5669   */\n      gt\n        /* \"#utility.yul\":5636:5692   */\n      iszero\n      tag_268\n      jumpi\n        /* \"#utility.yul\":5672:5690   */\n      tag_269\n      tag_157\n      jump\t// in\n    tag_269:\n        /* \"#utility.yul\":5636:5692   */\n    tag_268:\n        /* \"#utility.yul\":5710:5739   */\n      tag_270\n        /* \"#utility.yul\":5732:5738   */\n      dup3\n        /* \"#utility.yul\":5710:5739   */\n      tag_149\n      jump\t// in\n    tag_270:\n        /* \"#utility.yul\":5702:5739   */\n      swap1\n      pop\n        /* \"#utility.yul\":5794:5798   */\n      0x20\n        /* \"#utility.yul\":5788:5792   */\n      dup2\n        /* \"#utility.yul\":5784:5799   */\n      add\n        /* \"#utility.yul\":5776:5799   */\n      swap1\n      pop\n        /* \"#utility.yul\":5498:5806   */\n      swap2\n      swap1\n      pop\n      jump\t// out\n        /* \"#utility.yul\":5812:5960   */\n    tag_161:\n        /* \"#utility.yul\":5910:5916   */\n      dup3\n        /* \"#utility.yul\":5905:5908   */\n      dup2\n        /* \"#utility.yul\":5900:5903   */\n      dup4\n        /* \"#utility.yul\":5887:5917   */\n      calldatacopy\n        /* \"#utility.yul\":5951:5952   */\n      0x00\n        /* \"#utility.yul\":5942:5948   */\n      dup4\n        /* \"#utility.yul\":5937:5940   */\n      dup4\n        /* \"#utility.yul\":5933:5949   */\n      add\n        /* \"#utility.yul\":5926:5953   */\n      mstore\n        /* \"#utility.yul\":5812:5960   */\n      pop\n      pop\n      pop\n      jump\t// out\n        /* \"#utility.yul\":5966:6391   */\n    tag_162:\n        /* \"#utility.yul\":6044:6049   */\n      0x00\n        /* \"#utility.yul\":6069:6135   */\n      tag_273\n        /* \"#utility.yul\":6085:6134   */\n      tag_274\n        /* \"#utility.yul\":6127:6133   */\n      dup5\n        /* \"#utility.yul\":6085:6134   */\n      tag_160\n      jump\t// in\n    tag_274:\n        /* \"#utility.yul\":6069:6135   */\n      tag_159\n      jump\t// in\n    tag_273:\n        /* \"#utility.yul\":6060:6135   */\n      swap1\n      pop\n        /* \"#utility.yul\":6158:6164   */\n      dup3\n        /* \"#utility.yul\":6151:6156   */\n      dup2\n        /* \"#utility.yul\":6144:6165   */\n      mstore\n        /* \"#utility.yul\":6196:6200   */\n      0x20\n        /* \"#utility.yul\":6189:6194   */\n      dup2\n        /* \"#utility.yul\":6185:6201   */\n      add\n        /* \"#utility.yul\":6234:6237   */\n      dup5\n        /* \"#utility.yul\":6225:6231   */\n      dup5\n        /* \"#utility.yul\":6220:6223   */\n      dup5\n        /* \"#utility.yul\":6216:6232   */\n      add\n        /* \"#utility.yul\":6213:6238   */\n      gt\n        /* \"#utility.yul\":6210:6322   */\n      iszero\n      tag_275\n      jumpi\n        /* \"#utility.yul\":6241:6320   */\n      tag_276\n      tag_156\n      jump\t// in\n    tag_276:\n        /* \"#utility.yul\":6210:6322   */\n    tag_275:\n        /* \"#utility.yul\":6331:6385   */\n      tag_277\n        /* \"#utility.yul\":6378:6384   */\n      dup5\n        /* \"#utility.yul\":6373:6376   */\n      dup3\n        /* \"#utility.yul\":6368:6371   */\n      dup6\n        /* \"#utility.yul\":6331:6385   */\n      tag_161\n      jump\t// in\n    tag_277:\n        /* \"#utility.yul\":6050:6391   */\n      pop\n        /* \"#utility.yul\":5966:6391   */\n      swap4\n      swap3\n      pop\n      pop\n      pop\n      jump\t// out\n        /* \"#utility.yul\":6411:6751   */\n    tag_163:\n        /* \"#utility.yul\":6467:6472   */\n      0x00\n        /* \"#utility.yul\":6516:6519   */\n      dup3\n        /* \"#utility.yul\":6509:6513   */\n      0x1f\n        /* \"#utility.yul\":6501:6507   */\n      dup4\n        /* \"#utility.yul\":6497:6514   */\n      add\n        /* \"#utility.yul\":6493:6520   */\n      slt\n        /* \"#utility.yul\":6483:6605   */\n      tag_279\n      jumpi\n        /* \"#utility.yul\":6524:6603   */\n      tag_280\n      tag_155\n      jump\t// in\n    tag_280:\n        /* \"#utility.yul\":6483:6605   */\n    tag_279:\n        /* \"#utility.yul\":6641:6647   */\n      dup2\n        /* \"#utility.yul\":6628:6648   */\n      calldataload\n        /* \"#utility.yul\":6666:6745   */\n      tag_281\n        /* \"#utility.yul\":6741:6744   */\n      dup5\n        /* \"#utility.yul\":6733:6739   */\n      dup3\n        /* \"#utility.yul\":6726:6730   */\n      0x20\n        /* \"#utility.yul\":6718:6724   */\n      dup7\n        /* \"#utility.yul\":6714:6731   */\n      add\n        /* \"#utility.yul\":6666:6745   */\n      tag_162\n      jump\t// in\n    tag_281:\n        /* \"#utility.yul\":6657:6745   */\n      swap2\n      pop\n        /* \"#utility.yul\":6473:6751   */\n      pop\n        /* \"#utility.yul\":6411:6751   */\n      swap3\n      swap2\n      pop\n      pop\n      jump\t// out\n        /* \"#utility.yul\":6757:7266   */\n    tag_35:\n        /* \"#utility.yul\":6826:6832   */\n      0x00\n        /* \"#utility.yul\":6875:6877   */\n      0x20\n        /* \"#utility.yul\":6863:6872   */\n      dup3\n        /* \"#utility.yul\":6854:6861   */\n      dup5\n        /* \"#utility.yul\":6850:6873   */\n      sub\n        /* \"#utility.yul\":6846:6878   */\n      slt\n        /* \"#utility.yul\":6843:6962   */\n      iszero\n      tag_283\n      jumpi\n        /* \"#utility.yul\":6881:6960   */\n      tag_284\n      tag_135\n      jump\t// in\n    tag_284:\n        /* \"#utility.yul\":6843:6962   */\n    tag_283:\n        /* \"#utility.yul\":7029:7030   */\n      0x00\n        /* \"#utility.yul\":7018:7027   */\n      dup3\n        /* \"#utility.yul\":7014:7031   */\n      add\n        /* \"#utility.yul\":7001:7032   */\n      calldataload\n        /* \"#utility.yul\":7059:7077   */\n      0xffffffffffffffff\n        /* \"#utility.yul\":7051:7057   */\n      dup2\n        /* \"#utility.yul\":7048:7078   */\n      gt\n        /* \"#utility.yul\":7045:7162   */\n      iszero\n      tag_285\n      jumpi\n        /* \"#utility.yul\":7081:7160   */\n      tag_286\n      tag_136\n      jump\t// in\n    tag_286:\n        /* \"#utility.yul\":7045:7162   */\n    tag_285:\n        /* \"#utility.yul\":7186:7249   */\n      tag_287\n        /* \"#utility.yul\":7241:7248   */\n      dup5\n        /* \"#utility.yul\":7232:7238   */\n      dup3\n        /* \"#utility.yul\":7221:7230   */\n      dup6\n        /* \"#utility.yul\":7217:7239   */\n      add\n        /* \"#utility.yul\":7186:7249   */\n      tag_163\n      jump\t// in\n    tag_287:\n        /* \"#utility.yul\":7176:7249   */\n      swap2\n      pop\n        /* \"#utility.yul\":6972:7259   */\n      pop\n        /* \"#utility.yul\":6757:7266   */\n      swap3\n      swap2\n      pop\n      pop\n      jump\t// out\n        /* \"#utility.yul\":7272:7494   */\n    tag_40:\n        /* \"#utility.yul\":7365:7369   */\n      0x00\n        /* \"#utility.yul\":7403:7405   */\n      0x20\n        /* \"#utility.yul\":7392:7401   */\n      dup3\n        /* \"#utility.yul\":7388:7406   */\n      add\n        /* \"#utility.yul\":7380:7406   */\n      swap1\n      pop\n        /* \"#utility.yul\":7416:7487   */\n      tag_289\n        /* \"#utility.yul\":7484:7485   */\n      0x00\n        /* \"#utility.yul\":7473:7482   */\n      dup4\n        /* \"#utility.yul\":7469:7486   */\n      add\n        /* \"#utility.yul\":7460:7466   */\n      dup5\n        /* \"#utility.yul\":7416:7487   */\n      tag_145\n      jump\t// in\n    tag_289:\n        /* \"#utility.yul\":7272:7494   */\n      swap3\n      swap2\n      pop\n      pop\n      jump\t// out\n        /* \"#utility.yul\":7500:7829   */\n    tag_43:\n        /* \"#utility.yul\":7559:7565   */\n      0x00\n        /* \"#utility.yul\":7608:7610   */\n      0x20\n        /* \"#utility.yul\":7596:7605   */\n      dup3\n        /* \"#utility.yul\":7587:7594   */\n      dup5\n        /* \"#utility.yul\":7583:7606   */\n      sub\n        /* \"#utility.yul\":7579:7611   */\n      slt\n        /* \"#utility.yul\":7576:7695   */\n      iszero\n      tag_291\n      jumpi\n        /* \"#utility.yul\":7614:7693   */\n      tag_292\n      tag_135\n      jump\t// in\n    tag_292:\n        /* \"#utility.yul\":7576:7695   */\n    tag_291:\n        /* \"#utility.yul\":7734:7735   */\n      0x00\n        /* \"#utility.yul\":7759:7812   */\n      tag_293\n        /* \"#utility.yul\":7804:7811   */\n      dup5\n        /* \"#utility.yul\":7795:7801   */\n      dup3\n        /* \"#utility.yul\":7784:7793   */\n      dup6\n        /* \"#utility.yul\":7780:7802   */\n      add\n        /* \"#utility.yul\":7759:7812   */\n      tag_140\n      jump\t// in\n    tag_293:\n        /* \"#utility.yul\":7749:7812   */\n      swap2\n      pop\n        /* \"#utility.yul\":7705:7822   */\n      pop\n        /* \"#utility.yul\":7500:7829   */\n      swap3\n      swap2\n      pop\n      pop\n      jump\t// out\n        /* \"#utility.yul\":7835:7970   */\n    tag_164:\n        /* \"#utility.yul\":7923:7929   */\n      0x00\n        /* \"#utility.yul\":7957:7962   */\n      dup2\n        /* \"#utility.yul\":7951:7963   */\n      mload\n        /* \"#utility.yul\":7941:7963   */\n      swap1\n      pop\n        /* \"#utility.yul\":7835:7970   */\n      swap2\n      swap1\n      pop\n      jump\t// out\n        /* \"#utility.yul\":7976:8181   */\n    tag_165:\n        /* \"#utility.yul\":8096:8107   */\n      0x00\n        /* \"#utility.yul\":8130:8136   */\n      dup3\n        /* \"#utility.yul\":8125:8128   */\n      dup3\n        /* \"#utility.yul\":8118:8137   */\n      mstore\n        /* \"#utility.yul\":8170:8174   */\n      0x20\n        /* \"#utility.yul\":8165:8168   */\n      dup3\n        /* \"#utility.yul\":8161:8175   */\n      add\n        /* \"#utility.yul\":8146:8175   */\n      swap1\n      pop\n        /* \"#utility.yul\":7976:8181   */\n      swap3\n      swap2\n      pop\n      pop\n      jump\t// out\n        /* \"#utility.yul\":8187:8340   */\n    tag_166:\n        /* \"#utility.yul\":8275:8279   */\n      0x00\n        /* \"#utility.yul\":8298:8301   */\n      dup2\n        /* \"#utility.yul\":8290:8301   */\n      swap1\n      pop\n        /* \"#utility.yul\":8328:8332   */\n      0x20\n        /* \"#utility.yul\":8323:8326   */\n      dup3\n        /* \"#utility.yul\":8319:8333   */\n      add\n        /* \"#utility.yul\":8311:8333   */\n      swap1\n      pop\n        /* \"#utility.yul\":8187:8340   */\n      swap2\n      swap1\n      pop\n      jump\t// out\n        /* \"#utility.yul\":8346:8454   */\n    tag_167:\n        /* \"#utility.yul\":8423:8447   */\n      tag_298\n        /* \"#utility.yul\":8441:8446   */\n      dup2\n        /* \"#utility.yul\":8423:8447   */\n      tag_141\n      jump\t// in\n    tag_298:\n        /* \"#utility.yul\":8418:8421   */\n      dup3\n        /* \"#utility.yul\":8411:8448   */\n      mstore\n        /* \"#utility.yul\":8346:8454   */\n      pop\n      pop\n      jump\t// out\n        /* \"#utility.yul\":8460:8568   */\n    tag_168:\n        /* \"#utility.yul\":8537:8561   */\n      tag_300\n        /* \"#utility.yul\":8555:8560   */\n      dup2\n        /* \"#utility.yul\":8537:8561   */\n      tag_138\n      jump\t// in\n    tag_300:\n        /* \"#utility.yul\":8532:8535   */\n      dup3\n        /* \"#utility.yul\":8525:8562   */\n      mstore\n        /* \"#utility.yul\":8460:8568   */\n      pop\n      pop\n      jump\t// out\n        /* \"#utility.yul\":8574:8733   */\n    tag_169:\n        /* \"#utility.yul\":8648:8659   */\n      0x00\n        /* \"#utility.yul\":8682:8688   */\n      dup3\n        /* \"#utility.yul\":8677:8680   */\n      dup3\n        /* \"#utility.yul\":8670:8689   */\n      mstore\n        /* \"#utility.yul\":8722:8726   */\n      0x20\n        /* \"#utility.yul\":8717:8720   */\n      dup3\n        /* \"#utility.yul\":8713:8727   */\n      add\n        /* \"#utility.yul\":8698:8727   */\n      swap1\n      pop\n        /* \"#utility.yul\":8574:8733   */\n      swap3\n      swap2\n      pop\n      pop\n      jump\t// out\n        /* \"#utility.yul\":8739:9096   */\n    tag_170:\n        /* \"#utility.yul\":8817:8820   */\n      0x00\n        /* \"#utility.yul\":8845:8884   */\n      tag_303\n        /* \"#utility.yul\":8878:8883   */\n      dup3\n        /* \"#utility.yul\":8845:8884   */\n      tag_146\n      jump\t// in\n    tag_303:\n        /* \"#utility.yul\":8900:8961   */\n      tag_304\n        /* \"#utility.yul\":8954:8960   */\n      dup2\n        /* \"#utility.yul\":8949:8952   */\n      dup6\n        /* \"#utility.yul\":8900:8961   */\n      tag_169\n      jump\t// in\n    tag_304:\n        /* \"#utility.yul\":8893:8961   */\n      swap4\n      pop\n        /* \"#utility.yul\":8970:9035   */\n      tag_305\n        /* \"#utility.yul\":9028:9034   */\n      dup2\n        /* \"#utility.yul\":9023:9026   */\n      dup6\n        /* \"#utility.yul\":9016:9020   */\n      0x20\n        /* \"#utility.yul\":9009:9014   */\n      dup7\n        /* \"#utility.yul\":9005:9021   */\n      add\n        /* \"#utility.yul\":8970:9035   */\n      tag_148\n      jump\t// in\n    tag_305:\n        /* \"#utility.yul\":9060:9089   */\n      tag_306\n        /* \"#utility.yul\":9082:9088   */\n      dup2\n        /* \"#utility.yul\":9060:9089   */\n      tag_149\n      jump\t// in\n    tag_306:\n        /* \"#utility.yul\":9055:9058   */\n      dup5\n        /* \"#utility.yul\":9051:9090   */\n      add\n        /* \"#utility.yul\":9044:9090   */\n      swap2\n      pop\n        /* \"#utility.yul\":8821:9096   */\n      pop\n        /* \"#utility.yul\":8739:9096   */\n      swap3\n      swap2\n      pop\n      pop\n      jump\t// out\n        /* \"#utility.yul\":9154:10273   */\n    tag_171:\n        /* \"#utility.yul\":9255:9258   */\n      0x00\n        /* \"#utility.yul\":9291:9295   */\n      0xa0\n        /* \"#utility.yul\":9286:9289   */\n      dup4\n        /* \"#utility.yul\":9282:9296   */\n      add\n        /* \"#utility.yul\":9376:9380   */\n      0x00\n        /* \"#utility.yul\":9369:9374   */\n      dup4\n        /* \"#utility.yul\":9365:9381   */\n      add\n        /* \"#utility.yul\":9359:9382   */\n      mload\n        /* \"#utility.yul\":9395:9458   */\n      tag_308\n        /* \"#utility.yul\":9452:9456   */\n      0x00\n        /* \"#utility.yul\":9447:9450   */\n      dup7\n        /* \"#utility.yul\":9443:9457   */\n      add\n        /* \"#utility.yul\":9429:9441   */\n      dup3\n        /* \"#utility.yul\":9395:9458   */\n      tag_167\n      jump\t// in\n    tag_308:\n        /* \"#utility.yul\":9306:9468   */\n      pop\n        /* \"#utility.yul\":9552:9556   */\n      0x20\n        /* \"#utility.yul\":9545:9550   */\n      dup4\n        /* \"#utility.yul\":9541:9557   */\n      add\n        /* \"#utility.yul\":9535:9558   */\n      mload\n        /* \"#utility.yul\":9571:9634   */\n      tag_309\n        /* \"#utility.yul\":9628:9632   */\n      0x20\n        /* \"#utility.yul\":9623:9626   */\n      dup7\n        /* \"#utility.yul\":9619:9633   */\n      add\n        /* \"#utility.yul\":9605:9617   */\n      dup3\n        /* \"#utility.yul\":9571:9634   */\n      tag_168\n      jump\t// in\n    tag_309:\n        /* \"#utility.yul\":9478:9644   */\n      pop\n        /* \"#utility.yul\":9729:9733   */\n      0x40\n        /* \"#utility.yul\":9722:9727   */\n      dup4\n        /* \"#utility.yul\":9718:9734   */\n      add\n        /* \"#utility.yul\":9712:9735   */\n      mload\n        /* \"#utility.yul\":9782:9785   */\n      dup5\n        /* \"#utility.yul\":9776:9780   */\n      dup3\n        /* \"#utility.yul\":9772:9786   */\n      sub\n        /* \"#utility.yul\":9765:9769   */\n      0x40\n        /* \"#utility.yul\":9760:9763   */\n      dup7\n        /* \"#utility.yul\":9756:9770   */\n      add\n        /* \"#utility.yul\":9749:9787   */\n      mstore\n        /* \"#utility.yul\":9808:9881   */\n      tag_310\n        /* \"#utility.yul\":9876:9880   */\n      dup3\n        /* \"#utility.yul\":9862:9874   */\n      dup3\n        /* \"#utility.yul\":9808:9881   */\n      tag_170\n      jump\t// in\n    tag_310:\n        /* \"#utility.yul\":9800:9881   */\n      swap2\n      pop\n        /* \"#utility.yul\":9654:9892   */\n      pop\n        /* \"#utility.yul\":9979:9983   */\n      0x60\n        /* \"#utility.yul\":9972:9977   */\n      dup4\n        /* \"#utility.yul\":9968:9984   */\n      add\n        /* \"#utility.yul\":9962:9985   */\n      mload\n        /* \"#utility.yul\":9998:10061   */\n      tag_311\n        /* \"#utility.yul\":10055:10059   */\n      0x60\n        /* \"#utility.yul\":10050:10053   */\n      dup7\n        /* \"#utility.yul\":10046:10060   */\n      add\n        /* \"#utility.yul\":10032:10044   */\n      dup3\n        /* \"#utility.yul\":9998:10061   */\n      tag_167\n      jump\t// in\n    tag_311:\n        /* \"#utility.yul\":9902:10071   */\n      pop\n        /* \"#utility.yul\":10154:10158   */\n      0x80\n        /* \"#utility.yul\":10147:10152   */\n      dup4\n        /* \"#utility.yul\":10143:10159   */\n      add\n        /* \"#utility.yul\":10137:10160   */\n      mload\n        /* \"#utility.yul\":10173:10236   */\n      tag_312\n        /* \"#utility.yul\":10230:10234   */\n      0x80\n        /* \"#utility.yul\":10225:10228   */\n      dup7\n        /* \"#utility.yul\":10221:10235   */\n      add\n        /* \"#utility.yul\":10207:10219   */\n      dup3\n        /* \"#utility.yul\":10173:10236   */\n      tag_167\n      jump\t// in\n    tag_312:\n        /* \"#utility.yul\":10081:10246   */\n      pop\n        /* \"#utility.yul\":10263:10267   */\n      dup1\n        /* \"#utility.yul\":10256:10267   */\n      swap2\n      pop\n        /* \"#utility.yul\":9260:10273   */\n      pop\n        /* \"#utility.yul\":9154:10273   */\n      swap3\n      swap2\n      pop\n      pop\n      jump\t// out\n        /* \"#utility.yul\":10279:10519   */\n    tag_172:\n        /* \"#utility.yul\":10390:10400   */\n      0x00\n        /* \"#utility.yul\":10425:10513   */\n      tag_314\n        /* \"#utility.yul\":10509:10512   */\n      dup4\n        /* \"#utility.yul\":10501:10507   */\n      dup4\n        /* \"#utility.yul\":10425:10513   */\n      tag_171\n      jump\t// in\n    tag_314:\n        /* \"#utility.yul\":10411:10513   */\n      swap1\n      pop\n        /* \"#utility.yul\":10279:10519   */\n      swap3\n      swap2\n      pop\n      pop\n      jump\t// out\n        /* \"#utility.yul\":10525:10659   */\n    tag_173:\n        /* \"#utility.yul\":10616:10620   */\n      0x00\n        /* \"#utility.yul\":10648:10652   */\n      0x20\n        /* \"#utility.yul\":10643:10646   */\n      dup3\n        /* \"#utility.yul\":10639:10653   */\n      add\n        /* \"#utility.yul\":10631:10653   */\n      swap1\n      pop\n        /* \"#utility.yul\":10525:10659   */\n      swap2\n      swap1\n      pop\n      jump\t// out\n        /* \"#utility.yul\":10721:11800   */\n    tag_174:\n        /* \"#utility.yul\":10882:10885   */\n      0x00\n        /* \"#utility.yul\":10911:10986   */\n      tag_317\n        /* \"#utility.yul\":10980:10985   */\n      dup3\n        /* \"#utility.yul\":10911:10986   */\n      tag_164\n      jump\t// in\n    tag_317:\n        /* \"#utility.yul\":11002:11109   */\n      tag_318\n        /* \"#utility.yul\":11102:11108   */\n      dup2\n        /* \"#utility.yul\":11097:11100   */\n      dup6\n        /* \"#utility.yul\":11002:11109   */\n      tag_165\n      jump\t// in\n    tag_318:\n        /* \"#utility.yul\":10995:11109   */\n      swap4\n      pop\n        /* \"#utility.yul\":11135:11138   */\n      dup4\n        /* \"#utility.yul\":11180:11184   */\n      0x20\n        /* \"#utility.yul\":11172:11178   */\n      dup3\n        /* \"#utility.yul\":11168:11185   */\n      mul\n        /* \"#utility.yul\":11163:11166   */\n      dup6\n        /* \"#utility.yul\":11159:11186   */\n      add\n        /* \"#utility.yul\":11210:11287   */\n      tag_319\n        /* \"#utility.yul\":11281:11286   */\n      dup6\n        /* \"#utility.yul\":11210:11287   */\n      tag_166\n      jump\t// in\n    tag_319:\n        /* \"#utility.yul\":11310:11317   */\n      dup1\n        /* \"#utility.yul\":11341:11342   */\n      0x00\n        /* \"#utility.yul\":11326:11755   */\n    tag_320:\n        /* \"#utility.yul\":11351:11357   */\n      dup6\n        /* \"#utility.yul\":11348:11349   */\n      dup2\n        /* \"#utility.yul\":11345:11358   */\n      lt\n        /* \"#utility.yul\":11326:11755   */\n      iszero\n      tag_322\n      jumpi\n        /* \"#utility.yul\":11422:11431   */\n      dup5\n        /* \"#utility.yul\":11416:11420   */\n      dup5\n        /* \"#utility.yul\":11412:11432   */\n      sub\n        /* \"#utility.yul\":11407:11410   */\n      dup10\n        /* \"#utility.yul\":11400:11433   */\n      mstore\n        /* \"#utility.yul\":11473:11479   */\n      dup2\n        /* \"#utility.yul\":11467:11480   */\n      mload\n        /* \"#utility.yul\":11501:11607   */\n      tag_323\n        /* \"#utility.yul\":11602:11606   */\n      dup6\n        /* \"#utility.yul\":11587:11600   */\n      dup3\n        /* \"#utility.yul\":11501:11607   */\n      tag_172\n      jump\t// in\n    tag_323:\n        /* \"#utility.yul\":11493:11607   */\n      swap5\n      pop\n        /* \"#utility.yul\":11630:11711   */\n      tag_324\n        /* \"#utility.yul\":11704:11710   */\n      dup4\n        /* \"#utility.yul\":11630:11711   */\n      tag_173\n      jump\t// in\n    tag_324:\n        /* \"#utility.yul\":11620:11711   */\n      swap3\n      pop\n        /* \"#utility.yul\":11740:11744   */\n      0x20\n        /* \"#utility.yul\":11735:11738   */\n      dup11\n        /* \"#utility.yul\":11731:11745   */\n      add\n        /* \"#utility.yul\":11724:11745   */\n      swap10\n      pop\n        /* \"#utility.yul\":11386:11755   */\n      pop\n        /* \"#utility.yul\":11373:11374   */\n      0x01\n        /* \"#utility.yul\":11370:11371   */\n      dup2\n        /* \"#utility.yul\":11366:11375   */\n      add\n        /* \"#utility.yul\":11361:11375   */\n      swap1\n      pop\n        /* \"#utility.yul\":11326:11755   */\n      jump(tag_320)\n    tag_322:\n        /* \"#utility.yul\":11330:11344   */\n      pop\n        /* \"#utility.yul\":11771:11775   */\n      dup3\n        /* \"#utility.yul\":11764:11775   */\n      swap8\n      pop\n        /* \"#utility.yul\":11791:11794   */\n      dup8\n        /* \"#utility.yul\":11784:11794   */\n      swap6\n      pop\n        /* \"#utility.yul\":10887:11800   */\n      pop\n      pop\n      pop\n      pop\n      pop\n        /* \"#utility.yul\":10721:11800   */\n      swap3\n      swap2\n      pop\n      pop\n      jump\t// out\n        /* \"#utility.yul\":11806:12263   */\n    tag_46:\n        /* \"#utility.yul\":11991:11995   */\n      0x00\n        /* \"#utility.yul\":12029:12031   */\n      0x20\n        /* \"#utility.yul\":12018:12027   */\n      dup3\n        /* \"#utility.yul\":12014:12032   */\n      add\n        /* \"#utility.yul\":12006:12032   */\n      swap1\n      pop\n        /* \"#utility.yul\":12078:12087   */\n      dup2\n        /* \"#utility.yul\":12072:12076   */\n      dup2\n        /* \"#utility.yul\":12068:12088   */\n      sub\n        /* \"#utility.yul\":12064:12065   */\n      0x00\n        /* \"#utility.yul\":12053:12062   */\n      dup4\n        /* \"#utility.yul\":12049:12066   */\n      add\n        /* \"#utility.yul\":12042:12089   */\n      mstore\n        /* \"#utility.yul\":12106:12256   */\n      tag_326\n        /* \"#utility.yul\":12251:12255   */\n      dup2\n        /* \"#utility.yul\":12242:12248   */\n      dup5\n        /* \"#utility.yul\":12106:12256   */\n      tag_174\n      jump\t// in\n    tag_326:\n        /* \"#utility.yul\":12098:12256   */\n      swap1\n      pop\n        /* \"#utility.yul\":11806:12263   */\n      swap3\n      swap2\n      pop\n      pop\n      jump\t// out\n        /* \"#utility.yul\":12269:12598   */\n    tag_49:\n        /* \"#utility.yul\":12328:12334   */\n      0x00\n        /* \"#utility.yul\":12377:12379   */\n      0x20\n        /* \"#utility.yul\":12365:12374   */\n      dup3\n        /* \"#utility.yul\":12356:12363   */\n      dup5\n        /* \"#utility.yul\":12352:12375   */\n      sub\n        /* \"#utility.yul\":12348:12380   */\n      slt\n        /* \"#utility.yul\":12345:12464   */\n      iszero\n      tag_328\n      jumpi\n        /* \"#utility.yul\":12383:12462   */\n      tag_329\n      tag_135\n      jump\t// in\n    tag_329:\n        /* \"#utility.yul\":12345:12464   */\n    tag_328:\n        /* \"#utility.yul\":12503:12504   */\n      0x00\n        /* \"#utility.yul\":12528:12581   */\n      tag_330\n        /* \"#utility.yul\":12573:12580   */\n      dup5\n        /* \"#utility.yul\":12564:12570   */\n      dup3\n        /* \"#utility.yul\":12553:12562   */\n      dup6\n        /* \"#utility.yul\":12549:12571   */\n      add\n        /* \"#utility.yul\":12528:12581   */\n      tag_143\n      jump\t// in\n    tag_330:\n        /* \"#utility.yul\":12518:12581   */\n      swap2\n      pop\n        /* \"#utility.yul\":12474:12591   */\n      pop\n        /* \"#utility.yul\":12269:12598   */\n      swap3\n      swap2\n      pop\n      pop\n      jump\t// out\n        /* \"#utility.yul\":12656:13785   */\n    tag_175:\n        /* \"#utility.yul\":12767:12770   */\n      0x00\n        /* \"#utility.yul\":12803:12807   */\n      0xa0\n        /* \"#utility.yul\":12798:12801   */\n      dup4\n        /* \"#utility.yul\":12794:12808   */\n      add\n        /* \"#utility.yul\":12888:12892   */\n      0x00\n        /* \"#utility.yul\":12881:12886   */\n      dup4\n        /* \"#utility.yul\":12877:12893   */\n      add\n        /* \"#utility.yul\":12871:12894   */\n      mload\n        /* \"#utility.yul\":12907:12970   */\n      tag_332\n        /* \"#utility.yul\":12964:12968   */\n      0x00\n        /* \"#utility.yul\":12959:12962   */\n      dup7\n        /* \"#utility.yul\":12955:12969   */\n      add\n        /* \"#utility.yul\":12941:12953   */\n      dup3\n        /* \"#utility.yul\":12907:12970   */\n      tag_167\n      jump\t// in\n    tag_332:\n        /* \"#utility.yul\":12818:12980   */\n      pop\n        /* \"#utility.yul\":13064:13068   */\n      0x20\n        /* \"#utility.yul\":13057:13062   */\n      dup4\n        /* \"#utility.yul\":13053:13069   */\n      add\n        /* \"#utility.yul\":13047:13070   */\n      mload\n        /* \"#utility.yul\":13083:13146   */\n      tag_333\n        /* \"#utility.yul\":13140:13144   */\n      0x20\n        /* \"#utility.yul\":13135:13138   */\n      dup7\n        /* \"#utility.yul\":13131:13145   */\n      add\n        /* \"#utility.yul\":13117:13129   */\n      dup3\n        /* \"#utility.yul\":13083:13146   */\n      tag_168\n      jump\t// in\n    tag_333:\n        /* \"#utility.yul\":12990:13156   */\n      pop\n        /* \"#utility.yul\":13241:13245   */\n      0x40\n        /* \"#utility.yul\":13234:13239   */\n      dup4\n        /* \"#utility.yul\":13230:13246   */\n      add\n        /* \"#utility.yul\":13224:13247   */\n      mload\n        /* \"#utility.yul\":13294:13297   */\n      dup5\n        /* \"#utility.yul\":13288:13292   */\n      dup3\n        /* \"#utility.yul\":13284:13298   */\n      sub\n        /* \"#utility.yul\":13277:13281   */\n      0x40\n        /* \"#utility.yul\":13272:13275   */\n      dup7\n        /* \"#utility.yul\":13268:13282   */\n      add\n        /* \"#utility.yul\":13261:13299   */\n      mstore\n        /* \"#utility.yul\":13320:13393   */\n      tag_334\n        /* \"#utility.yul\":13388:13392   */\n      dup3\n        /* \"#utility.yul\":13374:13386   */\n      dup3\n        /* \"#utility.yul\":13320:13393   */\n      tag_170\n      jump\t// in\n    tag_334:\n        /* \"#utility.yul\":13312:13393   */\n      swap2\n      pop\n        /* \"#utility.yul\":13166:13404   */\n      pop\n        /* \"#utility.yul\":13491:13495   */\n      0x60\n        /* \"#utility.yul\":13484:13489   */\n      dup4\n        /* \"#utility.yul\":13480:13496   */\n      add\n        /* \"#utility.yul\":13474:13497   */\n      mload\n        /* \"#utility.yul\":13510:13573   */\n      tag_335\n        /* \"#utility.yul\":13567:13571   */\n      0x60\n        /* \"#utility.yul\":13562:13565   */\n      dup7\n        /* \"#utility.yul\":13558:13572   */\n      add\n        /* \"#utility.yul\":13544:13556   */\n      dup3\n        /* \"#utility.yul\":13510:13573   */\n      tag_167\n      jump\t// in\n    tag_335:\n        /* \"#utility.yul\":13414:13583   */\n      pop\n        /* \"#utility.yul\":13666:13670   */\n      0x80\n        /* \"#utility.yul\":13659:13664   */\n      dup4\n        /* \"#utility.yul\":13655:13671   */\n      add\n        /* \"#utility.yul\":13649:13672   */\n      mload\n        /* \"#utility.yul\":13685:13748   */\n      tag_336\n        /* \"#utility.yul\":13742:13746   */\n      0x80\n        /* \"#utility.yul\":13737:13740   */\n      dup7\n        /* \"#utility.yul\":13733:13747   */\n      add\n        /* \"#utility.yul\":13719:13731   */\n      dup3\n        /* \"#utility.yul\":13685:13748   */\n      tag_167\n      jump\t// in\n    tag_336:\n        /* \"#utility.yul\":13593:13758   */\n      pop\n        /* \"#utility.yul\":13775:13779   */\n      dup1\n        /* \"#utility.yul\":13768:13779   */\n      swap2\n      pop\n        /* \"#utility.yul\":12772:13785   */\n      pop\n        /* \"#utility.yul\":12656:13785   */\n      swap3\n      swap2\n      pop\n      pop\n      jump\t// out\n        /* \"#utility.yul\":13791:14148   */\n    tag_52:\n        /* \"#utility.yul\":13926:13930   */\n      0x00\n        /* \"#utility.yul\":13964:13966   */\n      0x20\n        /* \"#utility.yul\":13953:13962   */\n      dup3\n        /* \"#utility.yul\":13949:13967   */\n      add\n        /* \"#utility.yul\":13941:13967   */\n      swap1\n      pop\n        /* \"#utility.yul\":14013:14022   */\n      dup2\n        /* \"#utility.yul\":14007:14011   */\n      dup2\n        /* \"#utility.yul\":14003:14023   */\n      sub\n        /* \"#utility.yul\":13999:14000   */\n      0x00\n        /* \"#utility.yul\":13988:13997   */\n      dup4\n        /* \"#utility.yul\":13984:14001   */\n      add\n        /* \"#utility.yul\":13977:14024   */\n      mstore\n        /* \"#utility.yul\":14041:14141   */\n      tag_338\n        /* \"#utility.yul\":14136:14140   */\n      dup2\n        /* \"#utility.yul\":14127:14133   */\n      dup5\n        /* \"#utility.yul\":14041:14141   */\n      tag_175\n      jump\t// in\n    tag_338:\n        /* \"#utility.yul\":14033:14141   */\n      swap1\n      pop\n        /* \"#utility.yul\":13791:14148   */\n      swap3\n      swap2\n      pop\n      pop\n      jump\t// out\n        /* \"#utility.yul\":14154:14334   */\n    tag_176:\n        /* \"#utility.yul\":14202:14279   */\n      0x4e487b7100000000000000000000000000000000000000000000000000000000\n        /* \"#utility.yul\":14199:14200   */\n      0x00\n        /* \"#utility.yul\":14192:14280   */\n      mstore\n        /* \"#utility.yul\":14299:14303   */\n      0x22\n        /* \"#utility.yul\":14296:14297   */\n      0x04\n        /* \"#utility.yul\":14289:14304   */\n      mstore\n        /* \"#utility.yul\":14323:14327   */\n      0x24\n        /* \"#utility.yul\":14320:14321   */\n      0x00\n        /* \"#utility.yul\":14313:14328   */\n      revert\n        /* \"#utility.yul\":14340:14660   */\n    tag_56:\n        /* \"#utility.yul\":14384:14390   */\n      0x00\n        /* \"#utility.yul\":14421:14422   */\n      0x02\n        /* \"#utility.yul\":14415:14419   */\n      dup3\n        /* \"#utility.yul\":14411:14423   */\n      div\n        /* \"#utility.yul\":14401:14423   */\n      swap1\n      pop\n        /* \"#utility.yul\":14468:14469   */\n      0x01\n        /* \"#utility.yul\":14462:14466   */\n      dup3\n        /* \"#utility.yul\":14458:14470   */\n      and\n        /* \"#utility.yul\":14489:14507   */\n      dup1\n        /* \"#utility.yul\":14479:14560   */\n      tag_341\n      jumpi\n        /* \"#utility.yul\":14545:14549   */\n      0x7f\n        /* \"#utility.yul\":14537:14543   */\n      dup3\n        /* \"#utility.yul\":14533:14550   */\n      and\n        /* \"#utility.yul\":14523:14550   */\n      swap2\n      pop\n        /* \"#utility.yul\":14479:14560   */\n    tag_341:\n        /* \"#utility.yul\":14607:14609   */\n      0x20\n        /* \"#utility.yul\":14599:14605   */\n      dup3\n        /* \"#utility.yul\":14596:14610   */\n      lt\n        /* \"#utility.yul\":14576:14594   */\n      dup2\n        /* \"#utility.yul\":14573:14611   */\n      sub\n        /* \"#utility.yul\":14570:14654   */\n      tag_342\n      jumpi\n        /* \"#utility.yul\":14626:14644   */\n      tag_343\n      tag_176\n      jump\t// in\n    tag_343:\n        /* \"#utility.yul\":14570:14654   */\n    tag_342:\n        /* \"#utility.yul\":14391:14660   */\n      pop\n        /* \"#utility.yul\":14340:14660   */\n      swap2\n      swap1\n      pop\n      jump\t// out\n        /* \"#utility.yul\":14666:14838   */\n    tag_177:\n        /* \"#utility.yul\":14806:14830   */\n      0x594f5520415245204e4f5420544845204f574e45522100000000000000000000\n        /* \"#utility.yul\":14802:14803   */\n      0x00\n        /* \"#utility.yul\":14794:14800   */\n      dup3\n        /* \"#utility.yul\":14790:14804   */\n      add\n        /* \"#utility.yul\":14783:14831   */\n      mstore\n        /* \"#utility.yul\":14666:14838   */\n      pop\n      jump\t// out\n        /* \"#utility.yul\":14844:15210   */\n    tag_178:\n        /* \"#utility.yul\":14986:14989   */\n      0x00\n        /* \"#utility.yul\":15007:15074   */\n      tag_346\n        /* \"#utility.yul\":15071:15073   */\n      0x16\n        /* \"#utility.yul\":15066:15069   */\n      dup4\n        /* \"#utility.yul\":15007:15074   */\n      tag_147\n      jump\t// in\n    tag_346:\n        /* \"#utility.yul\":15000:15074   */\n      swap2\n      pop\n        /* \"#utility.yul\":15083:15176   */\n      tag_347\n        /* \"#utility.yul\":15172:15175   */\n      dup3\n        /* \"#utility.yul\":15083:15176   */\n      tag_177\n      jump\t// in\n    tag_347:\n        /* \"#utility.yul\":15201:15203   */\n      0x20\n        /* \"#utility.yul\":15196:15199   */\n      dup3\n        /* \"#utility.yul\":15192:15204   */\n      add\n        /* \"#utility.yul\":15185:15204   */\n      swap1\n      pop\n        /* \"#utility.yul\":14844:15210   */\n      swap2\n      swap1\n      pop\n      jump\t// out\n        /* \"#utility.yul\":15216:15635   */\n    tag_64:\n        /* \"#utility.yul\":15382:15386   */\n      0x00\n        /* \"#utility.yul\":15420:15422   */\n      0x20\n        /* \"#utility.yul\":15409:15418   */\n      dup3\n        /* \"#utility.yul\":15405:15423   */\n      add\n        /* \"#utility.yul\":15397:15423   */\n      swap1\n      pop\n        /* \"#utility.yul\":15469:15478   */\n      dup2\n        /* \"#utility.yul\":15463:15467   */\n      dup2\n        /* \"#utility.yul\":15459:15479   */\n      sub\n        /* \"#utility.yul\":15455:15456   */\n      0x00\n        /* \"#utility.yul\":15444:15453   */\n      dup4\n        /* \"#utility.yul\":15440:15457   */\n      add\n        /* \"#utility.yul\":15433:15480   */\n      mstore\n        /* \"#utility.yul\":15497:15628   */\n      tag_349\n        /* \"#utility.yul\":15623:15627   */\n      dup2\n        /* \"#utility.yul\":15497:15628   */\n      tag_178\n      jump\t// in\n    tag_349:\n        /* \"#utility.yul\":15489:15628   */\n      swap1\n      pop\n        /* \"#utility.yul\":15216:15635   */\n      swap2\n      swap1\n      pop\n      jump\t// out\n        /* \"#utility.yul\":15641:15821   */\n    tag_69:\n        /* \"#utility.yul\":15689:15766   */\n      0x4e487b7100000000000000000000000000000000000000000000000000000000\n        /* \"#utility.yul\":15686:15687   */\n      0x00\n        /* \"#utility.yul\":15679:15767   */\n      mstore\n        /* \"#utility.yul\":15786:15790   */\n      0x32\n        /* \"#utility.yul\":15783:15784   */\n      0x04\n        /* \"#utility.yul\":15776:15791   */\n      mstore\n        /* \"#utility.yul\":15810:15814   */\n      0x24\n        /* \"#utility.yul\":15807:15808   */\n      0x00\n        /* \"#utility.yul\":15800:15815   */\n      revert\n        /* \"#utility.yul\":15827:15997   */\n    tag_179:\n        /* \"#utility.yul\":15967:15989   */\n      0x545745455420444f4553204e4f54204558495354000000000000000000000000\n        /* \"#utility.yul\":15963:15964   */\n      0x00\n        /* \"#utility.yul\":15955:15961   */\n      dup3\n        /* \"#utility.yul\":15951:15965   */\n      add\n        /* \"#utility.yul\":15944:15990   */\n      mstore\n        /* \"#utility.yul\":15827:15997   */\n      pop\n      jump\t// out\n        /* \"#utility.yul\":16003:16369   */\n    tag_180:\n        /* \"#utility.yul\":16145:16148   */\n      0x00\n        /* \"#utility.yul\":16166:16233   */\n      tag_353\n        /* \"#utility.yul\":16230:16232   */\n      0x14\n        /* \"#utility.yul\":16225:16228   */\n      dup4\n        /* \"#utility.yul\":16166:16233   */\n      tag_147\n      jump\t// in\n    tag_353:\n        /* \"#utility.yul\":16159:16233   */\n      swap2\n      pop\n        /* \"#utility.yul\":16242:16335   */\n      tag_354\n        /* \"#utility.yul\":16331:16334   */\n      dup3\n        /* \"#utility.yul\":16242:16335   */\n      tag_179\n      jump\t// in\n    tag_354:\n        /* \"#utility.yul\":16360:16362   */\n      0x20\n        /* \"#utility.yul\":16355:16358   */\n      dup3\n        /* \"#utility.yul\":16351:16363   */\n      add\n        /* \"#utility.yul\":16344:16363   */\n      swap1\n      pop\n        /* \"#utility.yul\":16003:16369   */\n      swap2\n      swap1\n      pop\n      jump\t// out\n        /* \"#utility.yul\":16375:16794   */\n    tag_73:\n        /* \"#utility.yul\":16541:16545   */\n      0x00\n        /* \"#utility.yul\":16579:16581   */\n      0x20\n        /* \"#utility.yul\":16568:16577   */\n      dup3\n        /* \"#utility.yul\":16564:16582   */\n      add\n        /* \"#utility.yul\":16556:16582   */\n      swap1\n      pop\n        /* \"#utility.yul\":16628:16637   */\n      dup2\n        /* \"#utility.yul\":16622:16626   */\n      dup2\n        /* \"#utility.yul\":16618:16638   */\n      sub\n        /* \"#utility.yul\":16614:16615   */\n      0x00\n        /* \"#utility.yul\":16603:16612   */\n      dup4\n        /* \"#utility.yul\":16599:16616   */\n      add\n        /* \"#utility.yul\":16592:16639   */\n      mstore\n        /* \"#utility.yul\":16656:16787   */\n      tag_356\n        /* \"#utility.yul\":16782:16786   */\n      dup2\n        /* \"#utility.yul\":16656:16787   */\n      tag_180\n      jump\t// in\n    tag_356:\n        /* \"#utility.yul\":16648:16787   */\n      swap1\n      pop\n        /* \"#utility.yul\":16375:16794   */\n      swap2\n      swap1\n      pop\n      jump\t// out\n        /* \"#utility.yul\":16800:16968   */\n    tag_181:\n        /* \"#utility.yul\":16940:16960   */\n      0x545745455420484153204e4f204c494b45530000000000000000000000000000\n        /* \"#utility.yul\":16936:16937   */\n      0x00\n        /* \"#utility.yul\":16928:16934   */\n      dup3\n        /* \"#utility.yul\":16924:16938   */\n      add\n        /* \"#utility.yul\":16917:16961   */\n      mstore\n        /* \"#utility.yul\":16800:16968   */\n      pop\n      jump\t// out\n        /* \"#utility.yul\":16974:17340   */\n    tag_182:\n        /* \"#utility.yul\":17116:17119   */\n      0x00\n        /* \"#utility.yul\":17137:17204   */\n      tag_359\n        /* \"#utility.yul\":17201:17203   */\n      0x12\n        /* \"#utility.yul\":17196:17199   */\n      dup4\n        /* \"#utility.yul\":17137:17204   */\n      tag_147\n      jump\t// in\n    tag_359:\n        /* \"#utility.yul\":17130:17204   */\n      swap2\n      pop\n        /* \"#utility.yul\":17213:17306   */\n      tag_360\n        /* \"#utility.yul\":17302:17305   */\n      dup3\n        /* \"#utility.yul\":17213:17306   */\n      tag_181\n      jump\t// in\n    tag_360:\n        /* \"#utility.yul\":17331:17333   */\n      0x20\n        /* \"#utility.yul\":17326:17329   */\n      dup3\n        /* \"#utility.yul\":17322:17334   */\n      add\n        /* \"#utility.yul\":17315:17334   */\n      swap1\n      pop\n        /* \"#utility.yul\":16974:17340   */\n      swap2\n      swap1\n      pop\n      jump\t// out\n        /* \"#utility.yul\":17346:17765   */\n    tag_79:\n        /* \"#utility.yul\":17512:17516   */\n      0x00\n        /* \"#utility.yul\":17550:17552   */\n      0x20\n        /* \"#utility.yul\":17539:17548   */\n      dup3\n        /* \"#utility.yul\":17535:17553   */\n      add\n        /* \"#utility.yul\":17527:17553   */\n      swap1\n      pop\n        /* \"#utility.yul\":17599:17608   */\n      dup2\n        /* \"#utility.yul\":17593:17597   */\n      dup2\n        /* \"#utility.yul\":17589:17609   */\n      sub\n        /* \"#utility.yul\":17585:17586   */\n      0x00\n        /* \"#utility.yul\":17574:17583   */\n      dup4\n        /* \"#utility.yul\":17570:17587   */\n      add\n        /* \"#utility.yul\":17563:17610   */\n      mstore\n        /* \"#utility.yul\":17627:17758   */\n      tag_362\n        /* \"#utility.yul\":17753:17757   */\n      dup2\n        /* \"#utility.yul\":17627:17758   */\n      tag_182\n      jump\t// in\n    tag_362:\n        /* \"#utility.yul\":17619:17758   */\n      swap1\n      pop\n        /* \"#utility.yul\":17346:17765   */\n      swap2\n      swap1\n      pop\n      jump\t// out\n        /* \"#utility.yul\":17771:17951   */\n    tag_183:\n        /* \"#utility.yul\":17819:17896   */\n      0x4e487b7100000000000000000000000000000000000000000000000000000000\n        /* \"#utility.yul\":17816:17817   */\n      0x00\n        /* \"#utility.yul\":17809:17897   */\n      mstore\n        /* \"#utility.yul\":17916:17920   */\n      0x11\n        /* \"#utility.yul\":17913:17914   */\n      0x04\n        /* \"#utility.yul\":17906:17921   */\n      mstore\n        /* \"#utility.yul\":17940:17944   */\n      0x24\n        /* \"#utility.yul\":17937:17938   */\n      0x00\n        /* \"#utility.yul\":17930:17945   */\n      revert\n        /* \"#utility.yul\":17957:18128   */\n    tag_84:\n        /* \"#utility.yul\":17996:17999   */\n      0x00\n        /* \"#utility.yul\":18019:18043   */\n      tag_365\n        /* \"#utility.yul\":18037:18042   */\n      dup3\n        /* \"#utility.yul\":18019:18043   */\n      tag_141\n      jump\t// in\n    tag_365:\n        /* \"#utility.yul\":18010:18043   */\n      swap2\n      pop\n        /* \"#utility.yul\":18065:18069   */\n      0x00\n        /* \"#utility.yul\":18058:18063   */\n      dup3\n        /* \"#utility.yul\":18055:18070   */\n      sub\n        /* \"#utility.yul\":18052:18093   */\n      tag_366\n      jumpi\n        /* \"#utility.yul\":18073:18091   */\n      tag_367\n      tag_183\n      jump\t// in\n    tag_367:\n        /* \"#utility.yul\":18052:18093   */\n    tag_366:\n        /* \"#utility.yul\":18120:18121   */\n      0x01\n        /* \"#utility.yul\":18113:18118   */\n      dup3\n        /* \"#utility.yul\":18109:18122   */\n      sub\n        /* \"#utility.yul\":18102:18122   */\n      swap1\n      pop\n        /* \"#utility.yul\":17957:18128   */\n      swap2\n      swap1\n      pop\n      jump\t// out\n        /* \"#utility.yul\":18134:18687   */\n    tag_89:\n        /* \"#utility.yul\":18311:18315   */\n      0x00\n        /* \"#utility.yul\":18349:18352   */\n      0x80\n        /* \"#utility.yul\":18338:18347   */\n      dup3\n        /* \"#utility.yul\":18334:18353   */\n      add\n        /* \"#utility.yul\":18326:18353   */\n      swap1\n      pop\n        /* \"#utility.yul\":18363:18434   */\n      tag_369\n        /* \"#utility.yul\":18431:18432   */\n      0x00\n        /* \"#utility.yul\":18420:18429   */\n      dup4\n        /* \"#utility.yul\":18416:18433   */\n      add\n        /* \"#utility.yul\":18407:18413   */\n      dup8\n        /* \"#utility.yul\":18363:18434   */\n      tag_145\n      jump\t// in\n    tag_369:\n        /* \"#utility.yul\":18444:18516   */\n      tag_370\n        /* \"#utility.yul\":18512:18514   */\n      0x20\n        /* \"#utility.yul\":18501:18510   */\n      dup4\n        /* \"#utility.yul\":18497:18515   */\n      add\n        /* \"#utility.yul\":18488:18494   */\n      dup7\n        /* \"#utility.yul\":18444:18516   */\n      tag_145\n      jump\t// in\n    tag_370:\n        /* \"#utility.yul\":18526:18598   */\n      tag_371\n        /* \"#utility.yul\":18594:18596   */\n      0x40\n        /* \"#utility.yul\":18583:18592   */\n      dup4\n        /* \"#utility.yul\":18579:18597   */\n      add\n        /* \"#utility.yul\":18570:18576   */\n      dup6\n        /* \"#utility.yul\":18526:18598   */\n      tag_144\n      jump\t// in\n    tag_371:\n        /* \"#utility.yul\":18608:18680   */\n      tag_372\n        /* \"#utility.yul\":18676:18678   */\n      0x60\n        /* \"#utility.yul\":18665:18674   */\n      dup4\n        /* \"#utility.yul\":18661:18679   */\n      add\n        /* \"#utility.yul\":18652:18658   */\n      dup5\n        /* \"#utility.yul\":18608:18680   */\n      tag_144\n      jump\t// in\n    tag_372:\n        /* \"#utility.yul\":18134:18687   */\n      swap6\n      swap5\n      pop\n      pop\n      pop\n      pop\n      pop\n      jump\t// out\n        /* \"#utility.yul\":18693:18926   */\n    tag_100:\n        /* \"#utility.yul\":18732:18735   */\n      0x00\n        /* \"#utility.yul\":18755:18779   */\n      tag_374\n        /* \"#utility.yul\":18773:18778   */\n      dup3\n        /* \"#utility.yul\":18755:18779   */\n      tag_141\n      jump\t// in\n    tag_374:\n        /* \"#utility.yul\":18746:18779   */\n      swap2\n      pop\n        /* \"#utility.yul\":18801:18867   */\n      0xffffffffffffffffffffffffffffffffffffffffffffffffffffffffffffffff\n        /* \"#utility.yul\":18794:18799   */\n      dup3\n        /* \"#utility.yul\":18791:18868   */\n      sub\n        /* \"#utility.yul\":18788:18891   */\n      tag_375\n      jumpi\n        /* \"#utility.yul\":18871:18889   */\n      tag_376\n      tag_183\n      jump\t// in\n    tag_376:\n        /* \"#utility.yul\":18788:18891   */\n    tag_375:\n        /* \"#utility.yul\":18918:18919   */\n      0x01\n        /* \"#utility.yul\":18911:18916   */\n      dup3\n        /* \"#utility.yul\":18907:18920   */\n      add\n        /* \"#utility.yul\":18900:18920   */\n      swap1\n      pop\n        /* \"#utility.yul\":18693:18926   */\n      swap2\n      swap1\n      pop\n      jump\t// out\n        /* \"#utility.yul\":18932:19104   */\n    tag_184:\n        /* \"#utility.yul\":19072:19096   */\n      0x547765657420697320746f6f206c6f6e67206272752100000000000000000000\n        /* \"#utility.yul\":19068:19069   */\n      0x00\n        /* \"#utility.yul\":19060:19066   */\n      dup3\n        /* \"#utility.yul\":19056:19070   */\n      add\n        /* \"#utility.yul\":19049:19097   */\n      mstore\n        /* \"#utility.yul\":18932:19104   */\n      pop\n      jump\t// out\n        /* \"#utility.yul\":19110:19476   */\n    tag_185:\n        /* \"#utility.yul\":19252:19255   */\n      0x00\n        /* \"#utility.yul\":19273:19340   */\n      tag_379\n        /* \"#utility.yul\":19337:19339   */\n      0x16\n        /* \"#utility.yul\":19332:19335   */\n      dup4\n        /* \"#utility.yul\":19273:19340   */\n      tag_147\n      jump\t// in\n    tag_379:\n        /* \"#utility.yul\":19266:19340   */\n      swap2\n      pop\n        /* \"#utility.yul\":19349:19442   */\n      tag_380\n        /* \"#utility.yul\":19438:19441   */\n      dup3\n        /* \"#utility.yul\":19349:19442   */\n      tag_184\n      jump\t// in\n    tag_380:\n        /* \"#utility.yul\":19467:19469   */\n      0x20\n        /* \"#utility.yul\":19462:19465   */\n      dup3\n        /* \"#utility.yul\":19458:19470   */\n      add\n        /* \"#utility.yul\":19451:19470   */\n      swap1\n      pop\n        /* \"#utility.yul\":19110:19476   */\n      swap2\n      swap1\n      pop\n      jump\t// out\n        /* \"#utility.yul\":19482:19901   */\n    tag_108:\n        /* \"#utility.yul\":19648:19652   */\n      0x00\n        /* \"#utility.yul\":19686:19688   */\n      0x20\n        /* \"#utility.yul\":19675:19684   */\n      dup3\n        /* \"#utility.yul\":19671:19689   */\n      add\n        /* \"#utility.yul\":19663:19689   */\n      swap1\n      pop\n        /* \"#utility.yul\":19735:19744   */\n      dup2\n        /* \"#utility.yul\":19729:19733   */\n      dup2\n        /* \"#utility.yul\":19725:19745   */\n      sub\n        /* \"#utility.yul\":19721:19722   */\n      0x00\n        /* \"#utility.yul\":19710:19719   */\n      dup4\n        /* \"#utility.yul\":19706:19723   */\n      add\n        /* \"#utility.yul\":19699:19746   */\n      mstore\n        /* \"#utility.yul\":19763:19894   */\n      tag_382\n        /* \"#utility.yul\":19889:19893   */\n      dup2\n        /* \"#utility.yul\":19763:19894   */\n      tag_185\n      jump\t// in\n    tag_382:\n        /* \"#utility.yul\":19755:19894   */\n      swap1\n      pop\n        /* \"#utility.yul\":19482:19901   */\n      swap2\n      swap1\n      pop\n      jump\t// out\n        /* \"#utility.yul\":19907:20048   */\n    tag_186:\n        /* \"#utility.yul\":19956:19960   */\n      0x00\n        /* \"#utility.yul\":19979:19982   */\n      dup2\n        /* \"#utility.yul\":19971:19982   */\n      swap1\n      pop\n        /* \"#utility.yul\":20002:20005   */\n      dup2\n        /* \"#utility.yul\":19999:20000   */\n      0x00\n        /* \"#utility.yul\":19992:20006   */\n      mstore\n        /* \"#utility.yul\":20036:20040   */\n      0x20\n        /* \"#utility.yul\":20033:20034   */\n      0x00\n        /* \"#utility.yul\":20023:20041   */\n      keccak256\n        /* \"#utility.yul\":20015:20041   */\n      swap1\n      pop\n        /* \"#utility.yul\":19907:20048   */\n      swap2\n      swap1\n      pop\n      jump\t// out\n        /* \"#utility.yul\":20054:20147   */\n    tag_187:\n        /* \"#utility.yul\":20091:20097   */\n      0x00\n        /* \"#utility.yul\":20138:20140   */\n      0x20\n        /* \"#utility.yul\":20133:20135   */\n      0x1f\n        /* \"#utility.yul\":20126:20131   */\n      dup4\n        /* \"#utility.yul\":20122:20136   */\n      add\n        /* \"#utility.yul\":20118:20141   */\n      div\n        /* \"#utility.yul\":20108:20141   */\n      swap1\n      pop\n        /* \"#utility.yul\":20054:20147   */\n      swap2\n      swap1\n      pop\n      jump\t// out\n        /* \"#utility.yul\":20153:20260   */\n    tag_188:\n        /* \"#utility.yul\":20197:20205   */\n      0x00\n        /* \"#utility.yul\":20247:20252   */\n      dup3\n        /* \"#utility.yul\":20241:20245   */\n      dup3\n        /* \"#utility.yul\":20237:20253   */\n      shl\n        /* \"#utility.yul\":20216:20253   */\n      swap1\n      pop\n        /* \"#utility.yul\":20153:20260   */\n      swap3\n      swap2\n      pop\n      pop\n      jump\t// out\n        /* \"#utility.yul\":20266:20659   */\n    tag_189:\n        /* \"#utility.yul\":20335:20341   */\n      0x00\n        /* \"#utility.yul\":20385:20386   */\n      0x08\n        /* \"#utility.yul\":20373:20383   */\n      dup4\n        /* \"#utility.yul\":20369:20387   */\n      mul\n        /* \"#utility.yul\":20408:20505   */\n      tag_387\n        /* \"#utility.yul\":20438:20504   */\n      0xffffffffffffffffffffffffffffffffffffffffffffffffffffffffffffffff\n        /* \"#utility.yul\":20427:20436   */\n      dup3\n        /* \"#utility.yul\":20408:20505   */\n      tag_188\n      jump\t// in\n    tag_387:\n        /* \"#utility.yul\":20526:20565   */\n      tag_388\n        /* \"#utility.yul\":20556:20564   */\n      dup7\n        /* \"#utility.yul\":20545:20554   */\n      dup4\n        /* \"#utility.yul\":20526:20565   */\n      tag_188\n      jump\t// in\n    tag_388:\n        /* \"#utility.yul\":20514:20565   */\n      swap6\n      pop\n        /* \"#utility.yul\":20598:20602   */\n      dup1\n        /* \"#utility.yul\":20594:20603   */\n      not\n        /* \"#utility.yul\":20587:20592   */\n      dup5\n        /* \"#utility.yul\":20583:20604   */\n      and\n        /* \"#utility.yul\":20574:20604   */\n      swap4\n      pop\n        /* \"#utility.yul\":20647:20651   */\n      dup1\n        /* \"#utility.yul\":20637:20645   */\n      dup7\n        /* \"#utility.yul\":20633:20652   */\n      and\n        /* \"#utility.yul\":20626:20631   */\n      dup5\n        /* \"#utility.yul\":20623:20653   */\n      or\n        /* \"#utility.yul\":20613:20653   */\n      swap3\n      pop\n        /* \"#utility.yul\":20342:20659   */\n      pop\n      pop\n        /* \"#utility.yul\":20266:20659   */\n      swap4\n      swap3\n      pop\n      pop\n      pop\n      jump\t// out\n        /* \"#utility.yul\":20665:20725   */\n    tag_190:\n        /* \"#utility.yul\":20693:20696   */\n      0x00\n        /* \"#utility.yul\":20714:20719   */\n      dup2\n        /* \"#utility.yul\":20707:20719   */\n      swap1\n      pop\n        /* \"#utility.yul\":20665:20725   */\n      swap2\n      swap1\n      pop\n      jump\t// out\n        /* \"#utility.yul\":20731:20873   */\n    tag_191:\n        /* \"#utility.yul\":20781:20790   */\n      0x00\n        /* \"#utility.yul\":20814:20867   */\n      tag_391\n        /* \"#utility.yul\":20832:20866   */\n      tag_392\n        /* \"#utility.yul\":20841:20865   */\n      tag_393\n        /* \"#utility.yul\":20859:20864   */\n      dup5\n        /* \"#utility.yul\":20841:20865   */\n      tag_141\n      jump\t// in\n    tag_393:\n        /* \"#utility.yul\":20832:20866   */\n      tag_190\n      jump\t// in\n    tag_392:\n        /* \"#utility.yul\":20814:20867   */\n      tag_141\n      jump\t// in\n    tag_391:\n        /* \"#utility.yul\":20801:20867   */\n      swap1\n      pop\n        /* \"#utility.yul\":20731:20873   */\n      swap2\n      swap1\n      pop\n      jump\t// out\n        /* \"#utility.yul\":20879:20954   */\n    tag_192:\n        /* \"#utility.yul\":20922:20925   */\n      0x00\n        /* \"#utility.yul\":20943:20948   */\n      dup2\n        /* \"#utility.yul\":20936:20948   */\n      swap1\n      pop\n        /* \"#utility.yul\":20879:20954   */\n      swap2\n      swap1\n      pop\n      jump\t// out\n        /* \"#utility.yul\":20960:21229   */\n    tag_193:\n        /* \"#utility.yul\":21070:21109   */\n      tag_396\n        /* \"#utility.yul\":21101:21108   */\n      dup4\n        /* \"#utility.yul\":21070:21109   */\n      tag_191\n      jump\t// in\n    tag_396:\n        /* \"#utility.yul\":21131:21222   */\n      tag_397\n        /* \"#utility.yul\":21180:21221   */\n      tag_398\n        /* \"#utility.yul\":21204:21220   */\n      dup3\n        /* \"#utility.yul\":21180:21221   */\n      tag_192\n      jump\t// in\n    tag_398:\n        /* \"#utility.yul\":21172:21178   */\n      dup5\n        /* \"#utility.yul\":21165:21169   */\n      dup5\n        /* \"#utility.yul\":21159:21170   */\n      sload\n        /* \"#utility.yul\":21131:21222   */\n      tag_189\n      jump\t// in\n    tag_397:\n        /* \"#utility.yul\":21125:21129   */\n      dup3\n        /* \"#utility.yul\":21118:21223   */\n      sstore\n        /* \"#utility.yul\":21036:21229   */\n      pop\n        /* \"#utility.yul\":20960:21229   */\n      pop\n      pop\n      pop\n      jump\t// out\n        /* \"#utility.yul\":21235:21308   */\n    tag_194:\n        /* \"#utility.yul\":21280:21283   */\n      0x00\n        /* \"#utility.yul\":21235:21308   */\n      swap1\n      jump\t// out\n        /* \"#utility.yul\":21314:21503   */\n    tag_195:\n        /* \"#utility.yul\":21391:21423   */\n      tag_401\n      tag_194\n      jump\t// in\n    tag_401:\n        /* \"#utility.yul\":21432:21497   */\n      tag_402\n        /* \"#utility.yul\":21490:21496   */\n      dup2\n        /* \"#utility.yul\":21482:21488   */\n      dup5\n        /* \"#utility.yul\":21476:21480   */\n      dup5\n        /* \"#utility.yul\":21432:21497   */\n      tag_193\n      jump\t// in\n    tag_402:\n        /* \"#utility.yul\":21367:21503   */\n      pop\n        /* \"#utility.yul\":21314:21503   */\n      pop\n      pop\n      jump\t// out\n        /* \"#utility.yul\":21509:21695   */\n    tag_196:\n        /* \"#utility.yul\":21569:21689   */\n    tag_404:\n        /* \"#utility.yul\":21586:21589   */\n      dup2\n        /* \"#utility.yul\":21579:21584   */\n      dup2\n        /* \"#utility.yul\":21576:21590   */\n      lt\n        /* \"#utility.yul\":21569:21689   */\n      iszero\n      tag_406\n      jumpi\n        /* \"#utility.yul\":21640:21679   */\n      tag_407\n        /* \"#utility.yul\":21677:21678   */\n      0x00\n        /* \"#utility.yul\":21670:21675   */\n      dup3\n        /* \"#utility.yul\":21640:21679   */\n      tag_195\n      jump\t// in\n    tag_407:\n        /* \"#utility.yul\":21613:21614   */\n      0x01\n        /* \"#utility.yul\":21606:21611   */\n      dup2\n        /* \"#utility.yul\":21602:21615   */\n      add\n        /* \"#utility.yul\":21593:21615   */\n      swap1\n      pop\n        /* \"#utility.yul\":21569:21689   */\n      jump(tag_404)\n    tag_406:\n        /* \"#utility.yul\":21509:21695   */\n      pop\n      pop\n      jump\t// out\n        /* \"#utility.yul\":21701:22244   */\n    tag_197:\n        /* \"#utility.yul\":21802:21804   */\n      0x1f\n        /* \"#utility.yul\":21797:21800   */\n      dup3\n        /* \"#utility.yul\":21794:21805   */\n      gt\n        /* \"#utility.yul\":21791:22237   */\n      iszero\n      tag_409\n      jumpi\n        /* \"#utility.yul\":21836:21874   */\n      tag_410\n        /* \"#utility.yul\":21868:21873   */\n      dup2\n        /* \"#utility.yul\":21836:21874   */\n      tag_186\n      jump\t// in\n    tag_410:\n        /* \"#utility.yul\":21920:21949   */\n      tag_411\n        /* \"#utility.yul\":21938:21948   */\n      dup5\n        /* \"#utility.yul\":21920:21949   */\n      tag_187\n      jump\t// in\n    tag_411:\n        /* \"#utility.yul\":21910:21918   */\n      dup2\n        /* \"#utility.yul\":21906:21950   */\n      add\n        /* \"#utility.yul\":22103:22105   */\n      0x20\n        /* \"#utility.yul\":22091:22101   */\n      dup6\n        /* \"#utility.yul\":22088:22106   */\n      lt\n        /* \"#utility.yul\":22085:22134   */\n      iszero\n      tag_412\n      jumpi\n        /* \"#utility.yul\":22124:22132   */\n      dup2\n        /* \"#utility.yul\":22109:22132   */\n      swap1\n      pop\n        /* \"#utility.yul\":22085:22134   */\n    tag_412:\n        /* \"#utility.yul\":22147:22227   */\n      tag_413\n        /* \"#utility.yul\":22203:22225   */\n      tag_414\n        /* \"#utility.yul\":22221:22224   */\n      dup6\n        /* \"#utility.yul\":22203:22225   */\n      tag_187\n      jump\t// in\n    tag_414:\n        /* \"#utility.yul\":22193:22201   */\n      dup4\n        /* \"#utility.yul\":22189:22226   */\n      add\n        /* \"#utility.yul\":22176:22187   */\n      dup3\n        /* \"#utility.yul\":22147:22227   */\n      tag_196\n      jump\t// in\n    tag_413:\n        /* \"#utility.yul\":21806:22237   */\n      pop\n      pop\n        /* \"#utility.yul\":21791:22237   */\n    tag_409:\n        /* \"#utility.yul\":21701:22244   */\n      pop\n      pop\n      pop\n      jump\t// out\n        /* \"#utility.yul\":22250:22367   */\n    tag_198:\n        /* \"#utility.yul\":22304:22312   */\n      0x00\n        /* \"#utility.yul\":22354:22359   */\n      dup3\n        /* \"#utility.yul\":22348:22352   */\n      dup3\n        /* \"#utility.yul\":22344:22360   */\n      shr\n        /* \"#utility.yul\":22323:22360   */\n      swap1\n      pop\n        /* \"#utility.yul\":22250:22367   */\n      swap3\n      swap2\n      pop\n      pop\n      jump\t// out\n        /* \"#utility.yul\":22373:22542   */\n    tag_199:\n        /* \"#utility.yul\":22417:22423   */\n      0x00\n        /* \"#utility.yul\":22450:22501   */\n      tag_417\n        /* \"#utility.yul\":22498:22499   */\n      0x00\n        /* \"#utility.yul\":22494:22500   */\n      not\n        /* \"#utility.yul\":22486:22491   */\n      dup5\n        /* \"#utility.yul\":22483:22484   */\n      0x08\n        /* \"#utility.yul\":22479:22492   */\n      mul\n        /* \"#utility.yul\":22450:22501   */\n      tag_198\n      jump\t// in\n    tag_417:\n        /* \"#utility.yul\":22446:22502   */\n      not\n        /* \"#utility.yul\":22531:22535   */\n      dup1\n        /* \"#utility.yul\":22525:22529   */\n      dup4\n        /* \"#utility.yul\":22521:22536   */\n      and\n        /* \"#utility.yul\":22511:22536   */\n      swap2\n      pop\n        /* \"#utility.yul\":22424:22542   */\n      pop\n        /* \"#utility.yul\":22373:22542   */\n      swap3\n      swap2\n      pop\n      pop\n      jump\t// out\n        /* \"#utility.yul\":22547:22842   */\n    tag_200:\n        /* \"#utility.yul\":22623:22627   */\n      0x00\n        /* \"#utility.yul\":22769:22798   */\n      tag_419\n        /* \"#utility.yul\":22794:22797   */\n      dup4\n        /* \"#utility.yul\":22788:22792   */\n      dup4\n        /* \"#utility.yul\":22769:22798   */\n      tag_199\n      jump\t// in\n    tag_419:\n        /* \"#utility.yul\":22761:22798   */\n      swap2\n      pop\n        /* \"#utility.yul\":22831:22834   */\n      dup3\n        /* \"#utility.yul\":22828:22829   */\n      0x02\n        /* \"#utility.yul\":22824:22835   */\n      mul\n        /* \"#utility.yul\":22818:22822   */\n      dup3\n        /* \"#utility.yul\":22815:22836   */\n      or\n        /* \"#utility.yul\":22807:22836   */\n      swap1\n      pop\n        /* \"#utility.yul\":22547:22842   */\n      swap3\n      swap2\n      pop\n      pop\n      jump\t// out\n        /* \"#utility.yul\":22847:24242   */\n    tag_111:\n        /* \"#utility.yul\":22964:23001   */\n      tag_421\n        /* \"#utility.yul\":22997:23000   */\n      dup3\n        /* \"#utility.yul\":22964:23001   */\n      tag_146\n      jump\t// in\n    tag_421:\n        /* \"#utility.yul\":23066:23084   */\n      0xffffffffffffffff\n        /* \"#utility.yul\":23058:23064   */\n      dup2\n        /* \"#utility.yul\":23055:23085   */\n      gt\n        /* \"#utility.yul\":23052:23108   */\n      iszero\n      tag_422\n      jumpi\n        /* \"#utility.yul\":23088:23106   */\n      tag_423\n      tag_157\n      jump\t// in\n    tag_423:\n        /* \"#utility.yul\":23052:23108   */\n    tag_422:\n        /* \"#utility.yul\":23132:23170   */\n      tag_424\n        /* \"#utility.yul\":23164:23168   */\n      dup3\n        /* \"#utility.yul\":23158:23169   */\n      sload\n        /* \"#utility.yul\":23132:23170   */\n      tag_56\n      jump\t// in\n    tag_424:\n        /* \"#utility.yul\":23217:23284   */\n      tag_425\n        /* \"#utility.yul\":23277:23283   */\n      dup3\n        /* \"#utility.yul\":23269:23275   */\n      dup3\n        /* \"#utility.yul\":23263:23267   */\n      dup6\n        /* \"#utility.yul\":23217:23284   */\n      tag_197\n      jump\t// in\n    tag_425:\n        /* \"#utility.yul\":23311:23312   */\n      0x00\n        /* \"#utility.yul\":23335:23339   */\n      0x20\n        /* \"#utility.yul\":23322:23339   */\n      swap1\n      pop\n        /* \"#utility.yul\":23367:23369   */\n      0x1f\n        /* \"#utility.yul\":23359:23365   */\n      dup4\n        /* \"#utility.yul\":23356:23370   */\n      gt\n        /* \"#utility.yul\":23384:23385   */\n      0x01\n        /* \"#utility.yul\":23379:23997   */\n      dup2\n      eq\n      tag_427\n      jumpi\n        /* \"#utility.yul\":24041:24042   */\n      0x00\n        /* \"#utility.yul\":24058:24064   */\n      dup5\n        /* \"#utility.yul\":24055:24132   */\n      iszero\n      tag_428\n      jumpi\n        /* \"#utility.yul\":24107:24116   */\n      dup3\n        /* \"#utility.yul\":24102:24105   */\n      dup8\n        /* \"#utility.yul\":24098:24117   */\n      add\n        /* \"#utility.yul\":24092:24118   */\n      mload\n        /* \"#utility.yul\":24083:24118   */\n      swap1\n      pop\n        /* \"#utility.yul\":24055:24132   */\n    tag_428:\n        /* \"#utility.yul\":24158:24225   */\n      tag_429\n        /* \"#utility.yul\":24218:24224   */\n      dup6\n        /* \"#utility.yul\":24211:24216   */\n      dup3\n        /* \"#utility.yul\":24158:24225   */\n      tag_200\n      jump\t// in\n    tag_429:\n        /* \"#utility.yul\":24152:24156   */\n      dup7\n        /* \"#utility.yul\":24145:24226   */\n      sstore\n        /* \"#utility.yul\":24014:24236   */\n      pop\n        /* \"#utility.yul\":23349:24236   */\n      jump(tag_426)\n        /* \"#utility.yul\":23379:23997   */\n    tag_427:\n        /* \"#utility.yul\":23431:23435   */\n      0x1f\n        /* \"#utility.yul\":23427:23436   */\n      not\n        /* \"#utility.yul\":23419:23425   */\n      dup5\n        /* \"#utility.yul\":23415:23437   */\n      and\n        /* \"#utility.yul\":23465:23502   */\n      tag_430\n        /* \"#utility.yul\":23497:23501   */\n      dup7\n        /* \"#utility.yul\":23465:23502   */\n      tag_186\n      jump\t// in\n    tag_430:\n        /* \"#utility.yul\":23524:23525   */\n      0x00\n        /* \"#utility.yul\":23538:23746   */\n    tag_431:\n        /* \"#utility.yul\":23552:23559   */\n      dup3\n        /* \"#utility.yul\":23549:23550   */\n      dup2\n        /* \"#utility.yul\":23546:23560   */\n      lt\n        /* \"#utility.yul\":23538:23746   */\n      iszero\n      tag_433\n      jumpi\n        /* \"#utility.yul\":23631:23640   */\n      dup5\n        /* \"#utility.yul\":23626:23629   */\n      dup10\n        /* \"#utility.yul\":23622:23641   */\n      add\n        /* \"#utility.yul\":23616:23642   */\n      mload\n        /* \"#utility.yul\":23608:23614   */\n      dup3\n        /* \"#utility.yul\":23601:23643   */\n      sstore\n        /* \"#utility.yul\":23682:23683   */\n      0x01\n        /* \"#utility.yul\":23674:23680   */\n      dup3\n        /* \"#utility.yul\":23670:23684   */\n      add\n        /* \"#utility.yul\":23660:23684   */\n      swap2\n      pop\n        /* \"#utility.yul\":23729:23731   */\n      0x20\n        /* \"#utility.yul\":23718:23727   */\n      dup6\n        /* \"#utility.yul\":23714:23732   */\n      add\n        /* \"#utility.yul\":23701:23732   */\n      swap5\n      pop\n        /* \"#utility.yul\":23575:23579   */\n      0x20\n        /* \"#utility.yul\":23572:23573   */\n      dup2\n        /* \"#utility.yul\":23568:23580   */\n      add\n        /* \"#utility.yul\":23563:23580   */\n      swap1\n      pop\n        /* \"#utility.yul\":23538:23746   */\n      jump(tag_431)\n    tag_433:\n        /* \"#utility.yul\":23774:23780   */\n      dup7\n        /* \"#utility.yul\":23765:23772   */\n      dup4\n        /* \"#utility.yul\":23762:23781   */\n      lt\n        /* \"#utility.yul\":23759:23938   */\n      iszero\n      tag_434\n      jumpi\n        /* \"#utility.yul\":23832:23841   */\n      dup5\n        /* \"#utility.yul\":23827:23830   */\n      dup10\n        /* \"#utility.yul\":23823:23842   */\n      add\n        /* \"#utility.yul\":23817:23843   */\n      mload\n        /* \"#utility.yul\":23875:23923   */\n      tag_435\n        /* \"#utility.yul\":23917:23921   */\n      0x1f\n        /* \"#utility.yul\":23909:23915   */\n      dup10\n        /* \"#utility.yul\":23905:23922   */\n      and\n        /* \"#utility.yul\":23894:23903   */\n      dup3\n        /* \"#utility.yul\":23875:23923   */\n      tag_199\n      jump\t// in\n    tag_435:\n        /* \"#utility.yul\":23867:23873   */\n      dup4\n        /* \"#utility.yul\":23860:23924   */\n      sstore\n        /* \"#utility.yul\":23782:23938   */\n      pop\n        /* \"#utility.yul\":23759:23938   */\n    tag_434:\n        /* \"#utility.yul\":23984:23985   */\n      0x01\n        /* \"#utility.yul\":23980:23981   */\n      0x02\n        /* \"#utility.yul\":23972:23978   */\n      dup9\n        /* \"#utility.yul\":23968:23982   */\n      mul\n        /* \"#utility.yul\":23964:23986   */\n      add\n        /* \"#utility.yul\":23958:23962   */\n      dup9\n        /* \"#utility.yul\":23951:23987   */\n      sstore\n        /* \"#utility.yul\":23386:23997   */\n      pop\n      pop\n      pop\n        /* \"#utility.yul\":23349:24236   */\n    tag_426:\n      pop\n        /* \"#utility.yul\":22939:24242   */\n      pop\n      pop\n      pop\n        /* \"#utility.yul\":22847:24242   */\n      pop\n      pop\n      jump\t// out\n        /* \"#utility.yul\":24248:24892   */\n    tag_113:\n        /* \"#utility.yul\":24445:24449   */\n      0x00\n        /* \"#utility.yul\":24483:24486   */\n      0x80\n        /* \"#utility.yul\":24472:24481   */\n      dup3\n        /* \"#utility.yul\":24468:24487   */\n      add\n        /* \"#utility.yul\":24460:24487   */\n      swap1\n      pop\n        /* \"#utility.yul\":24497:24568   */\n      tag_437\n        /* \"#utility.yul\":24565:24566   */\n      0x00\n        /* \"#utility.yul\":24554:24563   */\n      dup4\n        /* \"#utility.yul\":24550:24567   */\n      add\n        /* \"#utility.yul\":24541:24547   */\n      dup8\n        /* \"#utility.yul\":24497:24568   */\n      tag_144\n      jump\t// in\n    tag_437:\n        /* \"#utility.yul\":24578:24650   */\n      tag_438\n        /* \"#utility.yul\":24646:24648   */\n      0x20\n        /* \"#utility.yul\":24635:24644   */\n      dup4\n        /* \"#utility.yul\":24631:24649   */\n      add\n        /* \"#utility.yul\":24622:24628   */\n      dup7\n        /* \"#utility.yul\":24578:24650   */\n      tag_145\n      jump\t// in\n    tag_438:\n        /* \"#utility.yul\":24697:24706   */\n      dup2\n        /* \"#utility.yul\":24691:24695   */\n      dup2\n        /* \"#utility.yul\":24687:24707   */\n      sub\n        /* \"#utility.yul\":24682:24684   */\n      0x40\n        /* \"#utility.yul\":24671:24680   */\n      dup4\n        /* \"#utility.yul\":24667:24685   */\n      add\n        /* \"#utility.yul\":24660:24708   */\n      mstore\n        /* \"#utility.yul\":24725:24803   */\n      tag_439\n        /* \"#utility.yul\":24798:24802   */\n      dup2\n        /* \"#utility.yul\":24789:24795   */\n      dup6\n        /* \"#utility.yul\":24725:24803   */\n      tag_150\n      jump\t// in\n    tag_439:\n        /* \"#utility.yul\":24717:24803   */\n      swap1\n      pop\n        /* \"#utility.yul\":24813:24885   */\n      tag_440\n        /* \"#utility.yul\":24881:24883   */\n      0x60\n        /* \"#utility.yul\":24870:24879   */\n      dup4\n        /* \"#utility.yul\":24866:24884   */\n      add\n        /* \"#utility.yul\":24857:24863   */\n      dup5\n        /* \"#utility.yul\":24813:24885   */\n      tag_144\n      jump\t// in\n    tag_440:\n        /* \"#utility.yul\":24248:24892   */\n      swap6\n      swap5\n      pop\n      pop\n      pop\n      pop\n      pop\n      jump\t// out\n\n    auxdata: 0xa2646970667358221220c45f4d016df335407e6227f66044ad21d39c9d42c58cd7049f7c07327bff3e8764736f6c634300081a0033\n}\n",
				"bytecode": {
					"linkReferences": {},
					"object": "60806040526101185f806101000a81548161ffff021916908361ffff160217905550348015602b575f80fd5b503360025f6101000a81548173ffffffffffffffffffffffffffffffffffffffff021916908373ffffffffffffffffffffffffffffffffffffffff16021790555061196a806100795f395ff3fe608060405234801561000f575f80fd5b5060043610610091575f3560e01c80636eb10797116100645780636eb107971461011d5780637c9cd2bc1461013b5780638da5cb5b146101575780639fedc6aa14610175578063c3ad5ecb146101a557610091565b806305a1b4a9146100955780631b02495b146100c95780633d9b569f146100e55780636337821614610101575b5f80fd5b6100af60048036038101906100aa9190610d9f565b6101d5565b6040516100c0959493929190610e6b565b60405180910390f35b6100e360048036038101906100de9190610efa565b6102c6565b005b6100ff60048036038101906100fa9190610d9f565b610373565b005b61011b60048036038101906101169190610d9f565b6105c4565b005b610125610775565b6040516101329190610f34565b60405180910390f35b61015560048036038101906101509190611079565b610786565b005b61015f610989565b60405161016c91906110c0565b60405180910390f35b61018f600480360381019061018a91906110d9565b6109ae565b60405161019c9190611298565b60405180910390f35b6101bf60048036038101906101ba91906112b8565b610b49565b6040516101cc9190611356565b60405180910390f35b6001602052815f5260405f2081815481106101ee575f80fd5b905f5260205f2090600502015f9150915050805f015490806001015f9054906101000a900473ffffffffffffffffffffffffffffffffffffffff1690806002018054610239906113a3565b80601f0160208091040260200160405190810160405280929190818152602001828054610265906113a3565b80156102b05780601f10610287576101008083540402835291602001916102b0565b820191905f5260205f20905b81548152906001019060200180831161029357829003601f168201915b5050505050908060030154908060040154905085565b60025f9054906101000a900473ffffffffffffffffffffffffffffffffffffffff1673ffffffffffffffffffffffffffffffffffffffff163373ffffffffffffffffffffffffffffffffffffffff1614610355576040517f08c379a000000000000000000000000000000000000000000000000000000000815260040161034c9061141d565b60405180910390fd5b805f806101000a81548161ffff021916908361ffff16021790555050565b8060015f8473ffffffffffffffffffffffffffffffffffffffff1673ffffffffffffffffffffffffffffffffffffffff1681526020019081526020015f2082815481106103c3576103c261143b565b5b905f5260205f2090600502015f015414610412576040517f08c379a0000000000000000000000000000000000000000000000000000000008152600401610409906114b2565b60405180910390fd5b5f60015f8473ffffffffffffffffffffffffffffffffffffffff1673ffffffffffffffffffffffffffffffffffffffff1681526020019081526020015f2082815481106104625761046161143b565b5b905f5260205f20906005020160040154116104b2576040517f08c379a00000000000000000000000000000000000000000000000000000000081526004016104a99061151a565b60405180910390fd5b60015f8373ffffffffffffffffffffffffffffffffffffffff1673ffffffffffffffffffffffffffffffffffffffff1681526020019081526020015f2081815481106105015761050061143b565b5b905f5260205f2090600502016004015f81548092919061052090611565565b91905055507f273883c252143c4abce776697615e41ca9bc1aac5968c585d1c8ba8ffaa8b3c133838360015f8773ffffffffffffffffffffffffffffffffffffffff1673ffffffffffffffffffffffffffffffffffffffff1681526020019081526020015f2085815481106105985761059761143b565b5b905f5260205f209060050201600401546040516105b8949392919061158c565b60405180910390a15050565b8060015f8473ffffffffffffffffffffffffffffffffffffffff1673ffffffffffffffffffffffffffffffffffffffff1681526020019081526020015f2082815481106106145761061361143b565b5b905f5260205f2090600502015f015414610663576040517f08c379a000000000000000000000000000000000000000000000000000000000815260040161065a906114b2565b60405180910390fd5b60015f8373ffffffffffffffffffffffffffffffffffffffff1673ffffffffffffffffffffffffffffffffffffffff1681526020019081526020015f2081815481106106b2576106b161143b565b5b905f5260205f2090600502016004015f8154809291906106d1906115cf565b91905055507fe8a76fc0f16d11a00d1e93b689b63d76cf60af914dd3d915375dc41d01a0c3c833838360015f8773ffffffffffffffffffffffffffffffffffffffff1673ffffffffffffffffffffffffffffffffffffffff1681526020019081526020015f2085815481106107495761074861143b565b5b905f5260205f20906005020160040154604051610769949392919061158c565b60405180910390a15050565b5f8054906101000a900461ffff1681565b5f8054906101000a900461ffff1661ffff16815111156107db576040517f08c379a00000000000000000000000000000000000000000000000000000000081526004016107d290611660565b60405180910390fd5b5f6040518060a0016040528060015f3373ffffffffffffffffffffffffffffffffffffffff1673ffffffffffffffffffffffffffffffffffffffff1681526020019081526020015f208054905081526020013373ffffffffffffffffffffffffffffffffffffffff1681526020018381526020014281526020015f815250905060015f3373ffffffffffffffffffffffffffffffffffffffff1673ffffffffffffffffffffffffffffffffffffffff1681526020019081526020015f2081908060018154018082558091505060019003905f5260205f2090600502015f909190919091505f820151815f01556020820151816001015f6101000a81548173ffffffffffffffffffffffffffffffffffffffff021916908373ffffffffffffffffffffffffffffffffffffffff1602179055506040820151816002019081610922919061181b565b50606082015181600301556080820151816004015550507f16fd3c13e9d46923e0a8bce11c7b473ec508a72e6c96cd2404b29ce972afc29e815f015182602001518360400151846060015160405161097d94939291906118ea565b60405180910390a15050565b60025f9054906101000a900473ffffffffffffffffffffffffffffffffffffffff1681565b606060015f8373ffffffffffffffffffffffffffffffffffffffff1673ffffffffffffffffffffffffffffffffffffffff1681526020019081526020015f20805480602002602001604051908101604052809291908181526020015f905b82821015610b3e578382905f5260205f2090600502016040518060a00160405290815f8201548152602001600182015f9054906101000a900473ffffffffffffffffffffffffffffffffffffffff1673ffffffffffffffffffffffffffffffffffffffff1673ffffffffffffffffffffffffffffffffffffffff168152602001600282018054610a9b906113a3565b80601f0160208091040260200160405190810160405280929190818152602001828054610ac7906113a3565b8015610b125780601f10610ae957610100808354040283529160200191610b12565b820191905f5260205f20905b815481529060010190602001808311610af557829003601f168201915b505050505081526020016003820154815260200160048201548152505081526020019060010190610a0c565b505050509050919050565b610b51610cc0565b60015f3373ffffffffffffffffffffffffffffffffffffffff1673ffffffffffffffffffffffffffffffffffffffff1681526020019081526020015f208281548110610ba057610b9f61143b565b5b905f5260205f2090600502016040518060a00160405290815f8201548152602001600182015f9054906101000a900473ffffffffffffffffffffffffffffffffffffffff1673ffffffffffffffffffffffffffffffffffffffff1673ffffffffffffffffffffffffffffffffffffffff168152602001600282018054610c25906113a3565b80601f0160208091040260200160405190810160405280929190818152602001828054610c51906113a3565b8015610c9c5780601f10610c7357610100808354040283529160200191610c9c565b820191905f5260205f20905b815481529060010190602001808311610c7f57829003601f168201915b50505050508152602001600382015481526020016004820154815250509050919050565b6040518060a001604052805f81526020015f73ffffffffffffffffffffffffffffffffffffffff168152602001606081526020015f81526020015f81525090565b5f604051905090565b5f80fd5b5f80fd5b5f73ffffffffffffffffffffffffffffffffffffffff82169050919050565b5f610d3b82610d12565b9050919050565b610d4b81610d31565b8114610d55575f80fd5b50565b5f81359050610d6681610d42565b92915050565b5f819050919050565b610d7e81610d6c565b8114610d88575f80fd5b50565b5f81359050610d9981610d75565b92915050565b5f8060408385031215610db557610db4610d0a565b5b5f610dc285828601610d58565b9250506020610dd385828601610d8b565b9150509250929050565b610de681610d6c565b82525050565b610df581610d31565b82525050565b5f81519050919050565b5f82825260208201905092915050565b8281835e5f83830152505050565b5f601f19601f8301169050919050565b5f610e3d82610dfb565b610e478185610e05565b9350610e57818560208601610e15565b610e6081610e23565b840191505092915050565b5f60a082019050610e7e5f830188610ddd565b610e8b6020830187610dec565b8181036040830152610e9d8186610e33565b9050610eac6060830185610ddd565b610eb96080830184610ddd565b9695505050505050565b5f61ffff82169050919050565b610ed981610ec3565b8114610ee3575f80fd5b50565b5f81359050610ef481610ed0565b92915050565b5f60208284031215610f0f57610f0e610d0a565b5b5f610f1c84828501610ee6565b91505092915050565b610f2e81610ec3565b82525050565b5f602082019050610f475f830184610f25565b92915050565b5f80fd5b5f80fd5b7f4e487b71000000000000000000000000000000000000000000000000000000005f52604160045260245ffd5b610f8b82610e23565b810181811067ffffffffffffffff82111715610faa57610fa9610f55565b5b80604052505050565b5f610fbc610d01565b9050610fc88282610f82565b919050565b5f67ffffffffffffffff821115610fe757610fe6610f55565b5b610ff082610e23565b9050602081019050919050565b828183375f83830152505050565b5f61101d61101884610fcd565b610fb3565b90508281526020810184848401111561103957611038610f51565b5b611044848285610ffd565b509392505050565b5f82601f8301126110605761105f610f4d565b5b813561107084826020860161100b565b91505092915050565b5f6020828403121561108e5761108d610d0a565b5b5f82013567ffffffffffffffff8111156110ab576110aa610d0e565b5b6110b78482850161104c565b91505092915050565b5f6020820190506110d35f830184610dec565b92915050565b5f602082840312156110ee576110ed610d0a565b5b5f6110fb84828501610d58565b91505092915050565b5f81519050919050565b5f82825260208201905092915050565b5f819050602082019050919050565b61113681610d6c565b82525050565b61114581610d31565b82525050565b5f82825260208201905092915050565b5f61116582610dfb565b61116f818561114b565b935061117f818560208601610e15565b61118881610e23565b840191505092915050565b5f60a083015f8301516111a85f86018261112d565b5060208301516111bb602086018261113c565b50604083015184820360408601526111d3828261115b565b91505060608301516111e8606086018261112d565b5060808301516111fb608086018261112d565b508091505092915050565b5f6112118383611193565b905092915050565b5f602082019050919050565b5f61122f82611104565b611239818561110e565b93508360208202850161124b8561111e565b805f5b8581101561128657848403895281516112678582611206565b945061127283611219565b925060208a0199505060018101905061124e565b50829750879550505050505092915050565b5f6020820190508181035f8301526112b08184611225565b905092915050565b5f602082840312156112cd576112cc610d0a565b5b5f6112da84828501610d8b565b91505092915050565b5f60a083015f8301516112f85f86018261112d565b50602083015161130b602086018261113c565b5060408301518482036040860152611323828261115b565b9150506060830151611338606086018261112d565b50608083015161134b608086018261112d565b508091505092915050565b5f6020820190508181035f83015261136e81846112e3565b905092915050565b7f4e487b71000000000000000000000000000000000000000000000000000000005f52602260045260245ffd5b5f60028204905060018216806113ba57607f821691505b6020821081036113cd576113cc611376565b5b50919050565b7f594f5520415245204e4f5420544845204f574e455221000000000000000000005f82015250565b5f611407601683610e05565b9150611412826113d3565b602082019050919050565b5f6020820190508181035f830152611434816113fb565b9050919050565b7f4e487b71000000000000000000000000000000000000000000000000000000005f52603260045260245ffd5b7f545745455420444f4553204e4f542045584953540000000000000000000000005f82015250565b5f61149c601483610e05565b91506114a782611468565b602082019050919050565b5f6020820190508181035f8301526114c981611490565b9050919050565b7f545745455420484153204e4f204c494b455300000000000000000000000000005f82015250565b5f611504601283610e05565b915061150f826114d0565b602082019050919050565b5f6020820190508181035f830152611531816114f8565b9050919050565b7f4e487b71000000000000000000000000000000000000000000000000000000005f52601160045260245ffd5b5f61156f82610d6c565b91505f820361158157611580611538565b5b600182039050919050565b5f60808201905061159f5f830187610dec565b6115ac6020830186610dec565b6115b96040830185610ddd565b6115c66060830184610ddd565b95945050505050565b5f6115d982610d6c565b91507fffffffffffffffffffffffffffffffffffffffffffffffffffffffffffffffff820361160b5761160a611538565b5b600182019050919050565b7f547765657420697320746f6f206c6f6e672062727521000000000000000000005f82015250565b5f61164a601683610e05565b915061165582611616565b602082019050919050565b5f6020820190508181035f8301526116778161163e565b9050919050565b5f819050815f5260205f209050919050565b5f6020601f8301049050919050565b5f82821b905092915050565b5f600883026116da7fffffffffffffffffffffffffffffffffffffffffffffffffffffffffffffffff8261169f565b6116e4868361169f565b95508019841693508086168417925050509392505050565b5f819050919050565b5f61171f61171a61171584610d6c565b6116fc565b610d6c565b9050919050565b5f819050919050565b61173883611705565b61174c61174482611726565b8484546116ab565b825550505050565b5f90565b611760611754565b61176b81848461172f565b505050565b5b8181101561178e576117835f82611758565b600181019050611771565b5050565b601f8211156117d3576117a48161167e565b6117ad84611690565b810160208510156117bc578190505b6117d06117c885611690565b830182611770565b50505b505050565b5f82821c905092915050565b5f6117f35f19846008026117d8565b1980831691505092915050565b5f61180b83836117e4565b9150826002028217905092915050565b61182482610dfb565b67ffffffffffffffff81111561183d5761183c610f55565b5b61184782546113a3565b611852828285611792565b5f60209050601f831160018114611883575f8415611871578287015190505b61187b8582611800565b8655506118e2565b601f1984166118918661167e565b5f5b828110156118b857848901518255600182019150602085019450602081019050611893565b868310156118d557848901516118d1601f8916826117e4565b8355505b6001600288020188555050505b505050505050565b5f6080820190506118fd5f830187610ddd565b61190a6020830186610dec565b818103604083015261191c8185610e33565b905061192b6060830184610ddd565b9594505050505056fea2646970667358221220c45f4d016df335407e6227f66044ad21d39c9d42c58cd7049f7c07327bff3e8764736f6c634300081a0033",
					"opcodes": "PUSH1 0x80 PUSH1 0x40 MSTORE PUSH2 0x118 PUSH0 DUP1 PUSH2 0x100 EXP DUP2 SLOAD DUP2 PUSH2 0xFFFF MUL NOT AND SWAP1 DUP4 PUSH2 0xFFFF AND MUL OR SWAP1 SSTORE POP CALLVALUE DUP1 ISZERO PUSH1 0x2B JUMPI PUSH0 DUP1 REVERT JUMPDEST POP CALLER PUSH1 0x2 PUSH0 PUSH2 0x100 EXP DUP2 SLOAD DUP2 PUSH20 0xFFFFFFFFFFFFFFFFFFFFFFFFFFFFFFFFFFFFFFFF MUL NOT AND SWAP1 DUP4 PUSH20 0xFFFFFFFFFFFFFFFFFFFFFFFFFFFFFFFFFFFFFFFF AND MUL OR SWAP1 SSTORE POP PUSH2 0x196A DUP1 PUSH2 0x79 PUSH0 CODECOPY PUSH0 RETURN INVALID PUSH1 0x80 PUSH1 0x40 MSTORE CALLVALUE DUP1 ISZERO PUSH2 0xF JUMPI PUSH0 DUP1 REVERT JUMPDEST POP PUSH1 0x4 CALLDATASIZE LT PUSH2 0x91 JUMPI PUSH0 CALLDATALOAD PUSH1 0xE0 SHR DUP1 PUSH4 0x6EB10797 GT PUSH2 0x64 JUMPI DUP1 PUSH4 0x6EB10797 EQ PUSH2 0x11D JUMPI DUP1 PUSH4 0x7C9CD2BC EQ PUSH2 0x13B JUMPI DUP1 PUSH4 0x8DA5CB5B EQ PUSH2 0x157 JUMPI DUP1 PUSH4 0x9FEDC6AA EQ PUSH2 0x175 JUMPI DUP1 PUSH4 0xC3AD5ECB EQ PUSH2 0x1A5 JUMPI PUSH2 0x91 JUMP JUMPDEST DUP1 PUSH4 0x5A1B4A9 EQ PUSH2 0x95 JUMPI DUP1 PUSH4 0x1B02495B EQ PUSH2 0xC9 JUMPI DUP1 PUSH4 0x3D9B569F EQ PUSH2 0xE5 JUMPI DUP1 PUSH4 0x63378216 EQ PUSH2 0x101 JUMPI JUMPDEST PUSH0 DUP1 REVERT JUMPDEST PUSH2 0xAF PUSH1 0x4 DUP1 CALLDATASIZE SUB DUP2 ADD SWAP1 PUSH2 0xAA SWAP2 SWAP1 PUSH2 0xD9F JUMP JUMPDEST PUSH2 0x1D5 JUMP JUMPDEST PUSH1 0x40 MLOAD PUSH2 0xC0 SWAP6 SWAP5 SWAP4 SWAP3 SWAP2 SWAP1 PUSH2 0xE6B JUMP JUMPDEST PUSH1 0x40 MLOAD DUP1 SWAP2 SUB SWAP1 RETURN JUMPDEST PUSH2 0xE3 PUSH1 0x4 DUP1 CALLDATASIZE SUB DUP2 ADD SWAP1 PUSH2 0xDE SWAP2 SWAP1 PUSH2 0xEFA JUMP JUMPDEST PUSH2 0x2C6 JUMP JUMPDEST STOP JUMPDEST PUSH2 0xFF PUSH1 0x4 DUP1 CALLDATASIZE SUB DUP2 ADD SWAP1 PUSH2 0xFA SWAP2 SWAP1 PUSH2 0xD9F JUMP JUMPDEST PUSH2 0x373 JUMP JUMPDEST STOP JUMPDEST PUSH2 0x11B PUSH1 0x4 DUP1 CALLDATASIZE SUB DUP2 ADD SWAP1 PUSH2 0x116 SWAP2 SWAP1 PUSH2 0xD9F JUMP JUMPDEST PUSH2 0x5C4 JUMP JUMPDEST STOP JUMPDEST PUSH2 0x125 PUSH2 0x775 JUMP JUMPDEST PUSH1 0x40 MLOAD PUSH2 0x132 SWAP2 SWAP1 PUSH2 0xF34 JUMP JUMPDEST PUSH1 0x40 MLOAD DUP1 SWAP2 SUB SWAP1 RETURN JUMPDEST PUSH2 0x155 PUSH1 0x4 DUP1 CALLDATASIZE SUB DUP2 ADD SWAP1 PUSH2 0x150 SWAP2 SWAP1 PUSH2 0x1079 JUMP JUMPDEST PUSH2 0x786 JUMP JUMPDEST STOP JUMPDEST PUSH2 0x15F PUSH2 0x989 JUMP JUMPDEST PUSH1 0x40 MLOAD PUSH2 0x16C SWAP2 SWAP1 PUSH2 0x10C0 JUMP JUMPDEST PUSH1 0x40 MLOAD DUP1 SWAP2 SUB SWAP1 RETURN JUMPDEST PUSH2 0x18F PUSH1 0x4 DUP1 CALLDATASIZE SUB DUP2 ADD SWAP1 PUSH2 0x18A SWAP2 SWAP1 PUSH2 0x10D9 JUMP JUMPDEST PUSH2 0x9AE JUMP JUMPDEST PUSH1 0x40 MLOAD PUSH2 0x19C SWAP2 SWAP1 PUSH2 0x1298 JUMP JUMPDEST PUSH1 0x40 MLOAD DUP1 SWAP2 SUB SWAP1 RETURN JUMPDEST PUSH2 0x1BF PUSH1 0x4 DUP1 CALLDATASIZE SUB DUP2 ADD SWAP1 PUSH2 0x1BA SWAP2 SWAP1 PUSH2 0x12B8 JUMP JUMPDEST PUSH2 0xB49 JUMP JUMPDEST PUSH1 0x40 MLOAD PUSH2 0x1CC SWAP2 SWAP1 PUSH2 0x1356 JUMP JUMPDEST PUSH1 0x40 MLOAD DUP1 SWAP2 SUB SWAP1 RETURN JUMPDEST PUSH1 0x1 PUSH1 0x20 MSTORE DUP2 PUSH0 MSTORE PUSH1 0x40 PUSH0 KECCAK256 DUP2 DUP2 SLOAD DUP2 LT PUSH2 0x1EE JUMPI PUSH0 DUP1 REVERT JUMPDEST SWAP1 PUSH0 MSTORE PUSH1 0x20 PUSH0 KECCAK256 SWAP1 PUSH1 0x5 MUL ADD PUSH0 SWAP2 POP SWAP2 POP POP DUP1 PUSH0 ADD SLOAD SWAP1 DUP1 PUSH1 0x1 ADD PUSH0 SWAP1 SLOAD SWAP1 PUSH2 0x100 EXP SWAP1 DIV PUSH20 0xFFFFFFFFFFFFFFFFFFFFFFFFFFFFFFFFFFFFFFFF AND SWAP1 DUP1 PUSH1 0x2 ADD DUP1 SLOAD PUSH2 0x239 SWAP1 PUSH2 0x13A3 JUMP JUMPDEST DUP1 PUSH1 0x1F ADD PUSH1 0x20 DUP1 SWAP2 DIV MUL PUSH1 0x20 ADD PUSH1 0x40 MLOAD SWAP1 DUP2 ADD PUSH1 0x40 MSTORE DUP1 SWAP3 SWAP2 SWAP1 DUP2 DUP2 MSTORE PUSH1 0x20 ADD DUP3 DUP1 SLOAD PUSH2 0x265 SWAP1 PUSH2 0x13A3 JUMP JUMPDEST DUP1 ISZERO PUSH2 0x2B0 JUMPI DUP1 PUSH1 0x1F LT PUSH2 0x287 JUMPI PUSH2 0x100 DUP1 DUP4 SLOAD DIV MUL DUP4 MSTORE SWAP2 PUSH1 0x20 ADD SWAP2 PUSH2 0x2B0 JUMP JUMPDEST DUP3 ADD SWAP2 SWAP1 PUSH0 MSTORE PUSH1 0x20 PUSH0 KECCAK256 SWAP1 JUMPDEST DUP2 SLOAD DUP2 MSTORE SWAP1 PUSH1 0x1 ADD SWAP1 PUSH1 0x20 ADD DUP1 DUP4 GT PUSH2 0x293 JUMPI DUP3 SWAP1 SUB PUSH1 0x1F AND DUP3 ADD SWAP2 JUMPDEST POP POP POP POP POP SWAP1 DUP1 PUSH1 0x3 ADD SLOAD SWAP1 DUP1 PUSH1 0x4 ADD SLOAD SWAP1 POP DUP6 JUMP JUMPDEST PUSH1 0x2 PUSH0 SWAP1 SLOAD SWAP1 PUSH2 0x100 EXP SWAP1 DIV PUSH20 0xFFFFFFFFFFFFFFFFFFFFFFFFFFFFFFFFFFFFFFFF AND PUSH20 0xFFFFFFFFFFFFFFFFFFFFFFFFFFFFFFFFFFFFFFFF AND CALLER PUSH20 0xFFFFFFFFFFFFFFFFFFFFFFFFFFFFFFFFFFFFFFFF AND EQ PUSH2 0x355 JUMPI PUSH1 0x40 MLOAD PUSH32 0x8C379A000000000000000000000000000000000000000000000000000000000 DUP2 MSTORE PUSH1 0x4 ADD PUSH2 0x34C SWAP1 PUSH2 0x141D JUMP JUMPDEST PUSH1 0x40 MLOAD DUP1 SWAP2 SUB SWAP1 REVERT JUMPDEST DUP1 PUSH0 DUP1 PUSH2 0x100 EXP DUP2 SLOAD DUP2 PUSH2 0xFFFF MUL NOT AND SWAP1 DUP4 PUSH2 0xFFFF AND MUL OR SWAP1 SSTORE POP POP JUMP JUMPDEST DUP1 PUSH1 0x1 PUSH0 DUP5 PUSH20 0xFFFFFFFFFFFFFFFFFFFFFFFFFFFFFFFFFFFFFFFF AND PUSH20 0xFFFFFFFFFFFFFFFFFFFFFFFFFFFFFFFFFFFFFFFF AND DUP2 MSTORE PUSH1 0x20 ADD SWAP1 DUP2 MSTORE PUSH1 0x20 ADD PUSH0 KECCAK256 DUP3 DUP2 SLOAD DUP2 LT PUSH2 0x3C3 JUMPI PUSH2 0x3C2 PUSH2 0x143B JUMP JUMPDEST JUMPDEST SWAP1 PUSH0 MSTORE PUSH1 0x20 PUSH0 KECCAK256 SWAP1 PUSH1 0x5 MUL ADD PUSH0 ADD SLOAD EQ PUSH2 0x412 JUMPI PUSH1 0x40 MLOAD PUSH32 0x8C379A000000000000000000000000000000000000000000000000000000000 DUP2 MSTORE PUSH1 0x4 ADD PUSH2 0x409 SWAP1 PUSH2 0x14B2 JUMP JUMPDEST PUSH1 0x40 MLOAD DUP1 SWAP2 SUB SWAP1 REVERT JUMPDEST PUSH0 PUSH1 0x1 PUSH0 DUP5 PUSH20 0xFFFFFFFFFFFFFFFFFFFFFFFFFFFFFFFFFFFFFFFF AND PUSH20 0xFFFFFFFFFFFFFFFFFFFFFFFFFFFFFFFFFFFFFFFF AND DUP2 MSTORE PUSH1 0x20 ADD SWAP1 DUP2 MSTORE PUSH1 0x20 ADD PUSH0 KECCAK256 DUP3 DUP2 SLOAD DUP2 LT PUSH2 0x462 JUMPI PUSH2 0x461 PUSH2 0x143B JUMP JUMPDEST JUMPDEST SWAP1 PUSH0 MSTORE PUSH1 0x20 PUSH0 KECCAK256 SWAP1 PUSH1 0x5 MUL ADD PUSH1 0x4 ADD SLOAD GT PUSH2 0x4B2 JUMPI PUSH1 0x40 MLOAD PUSH32 0x8C379A000000000000000000000000000000000000000000000000000000000 DUP2 MSTORE PUSH1 0x4 ADD PUSH2 0x4A9 SWAP1 PUSH2 0x151A JUMP JUMPDEST PUSH1 0x40 MLOAD DUP1 SWAP2 SUB SWAP1 REVERT JUMPDEST PUSH1 0x1 PUSH0 DUP4 PUSH20 0xFFFFFFFFFFFFFFFFFFFFFFFFFFFFFFFFFFFFFFFF AND PUSH20 0xFFFFFFFFFFFFFFFFFFFFFFFFFFFFFFFFFFFFFFFF AND DUP2 MSTORE PUSH1 0x20 ADD SWAP1 DUP2 MSTORE PUSH1 0x20 ADD PUSH0 KECCAK256 DUP2 DUP2 SLOAD DUP2 LT PUSH2 0x501 JUMPI PUSH2 0x500 PUSH2 0x143B JUMP JUMPDEST JUMPDEST SWAP1 PUSH0 MSTORE PUSH1 0x20 PUSH0 KECCAK256 SWAP1 PUSH1 0x5 MUL ADD PUSH1 0x4 ADD PUSH0 DUP2 SLOAD DUP1 SWAP3 SWAP2 SWAP1 PUSH2 0x520 SWAP1 PUSH2 0x1565 JUMP JUMPDEST SWAP2 SWAP1 POP SSTORE POP PUSH32 0x273883C252143C4ABCE776697615E41CA9BC1AAC5968C585D1C8BA8FFAA8B3C1 CALLER DUP4 DUP4 PUSH1 0x1 PUSH0 DUP8 PUSH20 0xFFFFFFFFFFFFFFFFFFFFFFFFFFFFFFFFFFFFFFFF AND PUSH20 0xFFFFFFFFFFFFFFFFFFFFFFFFFFFFFFFFFFFFFFFF AND DUP2 MSTORE PUSH1 0x20 ADD SWAP1 DUP2 MSTORE PUSH1 0x20 ADD PUSH0 KECCAK256 DUP6 DUP2 SLOAD DUP2 LT PUSH2 0x598 JUMPI PUSH2 0x597 PUSH2 0x143B JUMP JUMPDEST JUMPDEST SWAP1 PUSH0 MSTORE PUSH1 0x20 PUSH0 KECCAK256 SWAP1 PUSH1 0x5 MUL ADD PUSH1 0x4 ADD SLOAD PUSH1 0x40 MLOAD PUSH2 0x5B8 SWAP5 SWAP4 SWAP3 SWAP2 SWAP1 PUSH2 0x158C JUMP JUMPDEST PUSH1 0x40 MLOAD DUP1 SWAP2 SUB SWAP1 LOG1 POP POP JUMP JUMPDEST DUP1 PUSH1 0x1 PUSH0 DUP5 PUSH20 0xFFFFFFFFFFFFFFFFFFFFFFFFFFFFFFFFFFFFFFFF AND PUSH20 0xFFFFFFFFFFFFFFFFFFFFFFFFFFFFFFFFFFFFFFFF AND DUP2 MSTORE PUSH1 0x20 ADD SWAP1 DUP2 MSTORE PUSH1 0x20 ADD PUSH0 KECCAK256 DUP3 DUP2 SLOAD DUP2 LT PUSH2 0x614 JUMPI PUSH2 0x613 PUSH2 0x143B JUMP JUMPDEST JUMPDEST SWAP1 PUSH0 MSTORE PUSH1 0x20 PUSH0 KECCAK256 SWAP1 PUSH1 0x5 MUL ADD PUSH0 ADD SLOAD EQ PUSH2 0x663 JUMPI PUSH1 0x40 MLOAD PUSH32 0x8C379A000000000000000000000000000000000000000000000000000000000 DUP2 MSTORE PUSH1 0x4 ADD PUSH2 0x65A SWAP1 PUSH2 0x14B2 JUMP JUMPDEST PUSH1 0x40 MLOAD DUP1 SWAP2 SUB SWAP1 REVERT JUMPDEST PUSH1 0x1 PUSH0 DUP4 PUSH20 0xFFFFFFFFFFFFFFFFFFFFFFFFFFFFFFFFFFFFFFFF AND PUSH20 0xFFFFFFFFFFFFFFFFFFFFFFFFFFFFFFFFFFFFFFFF AND DUP2 MSTORE PUSH1 0x20 ADD SWAP1 DUP2 MSTORE PUSH1 0x20 ADD PUSH0 KECCAK256 DUP2 DUP2 SLOAD DUP2 LT PUSH2 0x6B2 JUMPI PUSH2 0x6B1 PUSH2 0x143B JUMP JUMPDEST JUMPDEST SWAP1 PUSH0 MSTORE PUSH1 0x20 PUSH0 KECCAK256 SWAP1 PUSH1 0x5 MUL ADD PUSH1 0x4 ADD PUSH0 DUP2 SLOAD DUP1 SWAP3 SWAP2 SWAP1 PUSH2 0x6D1 SWAP1 PUSH2 0x15CF JUMP JUMPDEST SWAP2 SWAP1 POP SSTORE POP PUSH32 0xE8A76FC0F16D11A00D1E93B689B63D76CF60AF914DD3D915375DC41D01A0C3C8 CALLER DUP4 DUP4 PUSH1 0x1 PUSH0 DUP8 PUSH20 0xFFFFFFFFFFFFFFFFFFFFFFFFFFFFFFFFFFFFFFFF AND PUSH20 0xFFFFFFFFFFFFFFFFFFFFFFFFFFFFFFFFFFFFFFFF AND DUP2 MSTORE PUSH1 0x20 ADD SWAP1 DUP2 MSTORE PUSH1 0x20 ADD PUSH0 KECCAK256 DUP6 DUP2 SLOAD DUP2 LT PUSH2 0x749 JUMPI PUSH2 0x748 PUSH2 0x143B JUMP JUMPDEST JUMPDEST SWAP1 PUSH0 MSTORE PUSH1 0x20 PUSH0 KECCAK256 SWAP1 PUSH1 0x5 MUL ADD PUSH1 0x4 ADD SLOAD PUSH1 0x40 MLOAD PUSH2 0x769 SWAP5 SWAP4 SWAP3 SWAP2 SWAP1 PUSH2 0x158C JUMP JUMPDEST PUSH1 0x40 MLOAD DUP1 SWAP2 SUB SWAP1 LOG1 POP POP JUMP JUMPDEST PUSH0 DUP1 SLOAD SWAP1 PUSH2 0x100 EXP SWAP1 DIV PUSH2 0xFFFF AND DUP2 JUMP JUMPDEST PUSH0 DUP1 SLOAD SWAP1 PUSH2 0x100 EXP SWAP1 DIV PUSH2 0xFFFF AND PUSH2 0xFFFF AND DUP2 MLOAD GT ISZERO PUSH2 0x7DB JUMPI PUSH1 0x40 MLOAD PUSH32 0x8C379A000000000000000000000000000000000000000000000000000000000 DUP2 MSTORE PUSH1 0x4 ADD PUSH2 0x7D2 SWAP1 PUSH2 0x1660 JUMP JUMPDEST PUSH1 0x40 MLOAD DUP1 SWAP2 SUB SWAP1 REVERT JUMPDEST PUSH0 PUSH1 0x40 MLOAD DUP1 PUSH1 0xA0 ADD PUSH1 0x40 MSTORE DUP1 PUSH1 0x1 PUSH0 CALLER PUSH20 0xFFFFFFFFFFFFFFFFFFFFFFFFFFFFFFFFFFFFFFFF AND PUSH20 0xFFFFFFFFFFFFFFFFFFFFFFFFFFFFFFFFFFFFFFFF AND DUP2 MSTORE PUSH1 0x20 ADD SWAP1 DUP2 MSTORE PUSH1 0x20 ADD PUSH0 KECCAK256 DUP1 SLOAD SWAP1 POP DUP2 MSTORE PUSH1 0x20 ADD CALLER PUSH20 0xFFFFFFFFFFFFFFFFFFFFFFFFFFFFFFFFFFFFFFFF AND DUP2 MSTORE PUSH1 0x20 ADD DUP4 DUP2 MSTORE PUSH1 0x20 ADD TIMESTAMP DUP2 MSTORE PUSH1 0x20 ADD PUSH0 DUP2 MSTORE POP SWAP1 POP PUSH1 0x1 PUSH0 CALLER PUSH20 0xFFFFFFFFFFFFFFFFFFFFFFFFFFFFFFFFFFFFFFFF AND PUSH20 0xFFFFFFFFFFFFFFFFFFFFFFFFFFFFFFFFFFFFFFFF AND DUP2 MSTORE PUSH1 0x20 ADD SWAP1 DUP2 MSTORE PUSH1 0x20 ADD PUSH0 KECCAK256 DUP2 SWAP1 DUP1 PUSH1 0x1 DUP2 SLOAD ADD DUP1 DUP3 SSTORE DUP1 SWAP2 POP POP PUSH1 0x1 SWAP1 SUB SWAP1 PUSH0 MSTORE PUSH1 0x20 PUSH0 KECCAK256 SWAP1 PUSH1 0x5 MUL ADD PUSH0 SWAP1 SWAP2 SWAP1 SWAP2 SWAP1 SWAP2 POP PUSH0 DUP3 ADD MLOAD DUP2 PUSH0 ADD SSTORE PUSH1 0x20 DUP3 ADD MLOAD DUP2 PUSH1 0x1 ADD PUSH0 PUSH2 0x100 EXP DUP2 SLOAD DUP2 PUSH20 0xFFFFFFFFFFFFFFFFFFFFFFFFFFFFFFFFFFFFFFFF MUL NOT AND SWAP1 DUP4 PUSH20 0xFFFFFFFFFFFFFFFFFFFFFFFFFFFFFFFFFFFFFFFF AND MUL OR SWAP1 SSTORE POP PUSH1 0x40 DUP3 ADD MLOAD DUP2 PUSH1 0x2 ADD SWAP1 DUP2 PUSH2 0x922 SWAP2 SWAP1 PUSH2 0x181B JUMP JUMPDEST POP PUSH1 0x60 DUP3 ADD MLOAD DUP2 PUSH1 0x3 ADD SSTORE PUSH1 0x80 DUP3 ADD MLOAD DUP2 PUSH1 0x4 ADD SSTORE POP POP PUSH32 0x16FD3C13E9D46923E0A8BCE11C7B473EC508A72E6C96CD2404B29CE972AFC29E DUP2 PUSH0 ADD MLOAD DUP3 PUSH1 0x20 ADD MLOAD DUP4 PUSH1 0x40 ADD MLOAD DUP5 PUSH1 0x60 ADD MLOAD PUSH1 0x40 MLOAD PUSH2 0x97D SWAP5 SWAP4 SWAP3 SWAP2 SWAP1 PUSH2 0x18EA JUMP JUMPDEST PUSH1 0x40 MLOAD DUP1 SWAP2 SUB SWAP1 LOG1 POP POP JUMP JUMPDEST PUSH1 0x2 PUSH0 SWAP1 SLOAD SWAP1 PUSH2 0x100 EXP SWAP1 DIV PUSH20 0xFFFFFFFFFFFFFFFFFFFFFFFFFFFFFFFFFFFFFFFF AND DUP2 JUMP JUMPDEST PUSH1 0x60 PUSH1 0x1 PUSH0 DUP4 PUSH20 0xFFFFFFFFFFFFFFFFFFFFFFFFFFFFFFFFFFFFFFFF AND PUSH20 0xFFFFFFFFFFFFFFFFFFFFFFFFFFFFFFFFFFFFFFFF AND DUP2 MSTORE PUSH1 0x20 ADD SWAP1 DUP2 MSTORE PUSH1 0x20 ADD PUSH0 KECCAK256 DUP1 SLOAD DUP1 PUSH1 0x20 MUL PUSH1 0x20 ADD PUSH1 0x40 MLOAD SWAP1 DUP2 ADD PUSH1 0x40 MSTORE DUP1 SWAP3 SWAP2 SWAP1 DUP2 DUP2 MSTORE PUSH1 0x20 ADD PUSH0 SWAP1 JUMPDEST DUP3 DUP3 LT ISZERO PUSH2 0xB3E JUMPI DUP4 DUP3 SWAP1 PUSH0 MSTORE PUSH1 0x20 PUSH0 KECCAK256 SWAP1 PUSH1 0x5 MUL ADD PUSH1 0x40 MLOAD DUP1 PUSH1 0xA0 ADD PUSH1 0x40 MSTORE SWAP1 DUP2 PUSH0 DUP3 ADD SLOAD DUP2 MSTORE PUSH1 0x20 ADD PUSH1 0x1 DUP3 ADD PUSH0 SWAP1 SLOAD SWAP1 PUSH2 0x100 EXP SWAP1 DIV PUSH20 0xFFFFFFFFFFFFFFFFFFFFFFFFFFFFFFFFFFFFFFFF AND PUSH20 0xFFFFFFFFFFFFFFFFFFFFFFFFFFFFFFFFFFFFFFFF AND PUSH20 0xFFFFFFFFFFFFFFFFFFFFFFFFFFFFFFFFFFFFFFFF AND DUP2 MSTORE PUSH1 0x20 ADD PUSH1 0x2 DUP3 ADD DUP1 SLOAD PUSH2 0xA9B SWAP1 PUSH2 0x13A3 JUMP JUMPDEST DUP1 PUSH1 0x1F ADD PUSH1 0x20 DUP1 SWAP2 DIV MUL PUSH1 0x20 ADD PUSH1 0x40 MLOAD SWAP1 DUP2 ADD PUSH1 0x40 MSTORE DUP1 SWAP3 SWAP2 SWAP1 DUP2 DUP2 MSTORE PUSH1 0x20 ADD DUP3 DUP1 SLOAD PUSH2 0xAC7 SWAP1 PUSH2 0x13A3 JUMP JUMPDEST DUP1 ISZERO PUSH2 0xB12 JUMPI DUP1 PUSH1 0x1F LT PUSH2 0xAE9 JUMPI PUSH2 0x100 DUP1 DUP4 SLOAD DIV MUL DUP4 MSTORE SWAP2 PUSH1 0x20 ADD SWAP2 PUSH2 0xB12 JUMP JUMPDEST DUP3 ADD SWAP2 SWAP1 PUSH0 MSTORE PUSH1 0x20 PUSH0 KECCAK256 SWAP1 JUMPDEST DUP2 SLOAD DUP2 MSTORE SWAP1 PUSH1 0x1 ADD SWAP1 PUSH1 0x20 ADD DUP1 DUP4 GT PUSH2 0xAF5 JUMPI DUP3 SWAP1 SUB PUSH1 0x1F AND DUP3 ADD SWAP2 JUMPDEST POP POP POP POP POP DUP2 MSTORE PUSH1 0x20 ADD PUSH1 0x3 DUP3 ADD SLOAD DUP2 MSTORE PUSH1 0x20 ADD PUSH1 0x4 DUP3 ADD SLOAD DUP2 MSTORE POP POP DUP2 MSTORE PUSH1 0x20 ADD SWAP1 PUSH1 0x1 ADD SWAP1 PUSH2 0xA0C JUMP JUMPDEST POP POP POP POP SWAP1 POP SWAP2 SWAP1 POP JUMP JUMPDEST PUSH2 0xB51 PUSH2 0xCC0 JUMP JUMPDEST PUSH1 0x1 PUSH0 CALLER PUSH20 0xFFFFFFFFFFFFFFFFFFFFFFFFFFFFFFFFFFFFFFFF AND PUSH20 0xFFFFFFFFFFFFFFFFFFFFFFFFFFFFFFFFFFFFFFFF AND DUP2 MSTORE PUSH1 0x20 ADD SWAP1 DUP2 MSTORE PUSH1 0x20 ADD PUSH0 KECCAK256 DUP3 DUP2 SLOAD DUP2 LT PUSH2 0xBA0 JUMPI PUSH2 0xB9F PUSH2 0x143B JUMP JUMPDEST JUMPDEST SWAP1 PUSH0 MSTORE PUSH1 0x20 PUSH0 KECCAK256 SWAP1 PUSH1 0x5 MUL ADD PUSH1 0x40 MLOAD DUP1 PUSH1 0xA0 ADD PUSH1 0x40 MSTORE SWAP1 DUP2 PUSH0 DUP3 ADD SLOAD DUP2 MSTORE PUSH1 0x20 ADD PUSH1 0x1 DUP3 ADD PUSH0 SWAP1 SLOAD SWAP1 PUSH2 0x100 EXP SWAP1 DIV PUSH20 0xFFFFFFFFFFFFFFFFFFFFFFFFFFFFFFFFFFFFFFFF AND PUSH20 0xFFFFFFFFFFFFFFFFFFFFFFFFFFFFFFFFFFFFFFFF AND PUSH20 0xFFFFFFFFFFFFFFFFFFFFFFFFFFFFFFFFFFFFFFFF AND DUP2 MSTORE PUSH1 0x20 ADD PUSH1 0x2 DUP3 ADD DUP1 SLOAD PUSH2 0xC25 SWAP1 PUSH2 0x13A3 JUMP JUMPDEST DUP1 PUSH1 0x1F ADD PUSH1 0x20 DUP1 SWAP2 DIV MUL PUSH1 0x20 ADD PUSH1 0x40 MLOAD SWAP1 DUP2 ADD PUSH1 0x40 MSTORE DUP1 SWAP3 SWAP2 SWAP1 DUP2 DUP2 MSTORE PUSH1 0x20 ADD DUP3 DUP1 SLOAD PUSH2 0xC51 SWAP1 PUSH2 0x13A3 JUMP JUMPDEST DUP1 ISZERO PUSH2 0xC9C JUMPI DUP1 PUSH1 0x1F LT PUSH2 0xC73 JUMPI PUSH2 0x100 DUP1 DUP4 SLOAD DIV MUL DUP4 MSTORE SWAP2 PUSH1 0x20 ADD SWAP2 PUSH2 0xC9C JUMP JUMPDEST DUP3 ADD SWAP2 SWAP1 PUSH0 MSTORE PUSH1 0x20 PUSH0 KECCAK256 SWAP1 JUMPDEST DUP2 SLOAD DUP2 MSTORE SWAP1 PUSH1 0x1 ADD SWAP1 PUSH1 0x20 ADD DUP1 DUP4 GT PUSH2 0xC7F JUMPI DUP3 SWAP1 SUB PUSH1 0x1F AND DUP3 ADD SWAP2 JUMPDEST POP POP POP POP POP DUP2 MSTORE PUSH1 0x20 ADD PUSH1 0x3 DUP3 ADD SLOAD DUP2 MSTORE PUSH1 0x20 ADD PUSH1 0x4 DUP3 ADD SLOAD DUP2 MSTORE POP POP SWAP1 POP SWAP2 SWAP1 POP JUMP JUMPDEST PUSH1 0x40 MLOAD DUP1 PUSH1 0xA0 ADD PUSH1 0x40 MSTORE DUP1 PUSH0 DUP2 MSTORE PUSH1 0x20 ADD PUSH0 PUSH20 0xFFFFFFFFFFFFFFFFFFFFFFFFFFFFFFFFFFFFFFFF AND DUP2 MSTORE PUSH1 0x20 ADD PUSH1 0x60 DUP2 MSTORE PUSH1 0x20 ADD PUSH0 DUP2 MSTORE PUSH1 0x20 ADD PUSH0 DUP2 MSTORE POP SWAP1 JUMP JUMPDEST PUSH0 PUSH1 0x40 MLOAD SWAP1 POP SWAP1 JUMP JUMPDEST PUSH0 DUP1 REVERT JUMPDEST PUSH0 DUP1 REVERT JUMPDEST PUSH0 PUSH20 0xFFFFFFFFFFFFFFFFFFFFFFFFFFFFFFFFFFFFFFFF DUP3 AND SWAP1 POP SWAP2 SWAP1 POP JUMP JUMPDEST PUSH0 PUSH2 0xD3B DUP3 PUSH2 0xD12 JUMP JUMPDEST SWAP1 POP SWAP2 SWAP1 POP JUMP JUMPDEST PUSH2 0xD4B DUP2 PUSH2 0xD31 JUMP JUMPDEST DUP2 EQ PUSH2 0xD55 JUMPI PUSH0 DUP1 REVERT JUMPDEST POP JUMP JUMPDEST PUSH0 DUP2 CALLDATALOAD SWAP1 POP PUSH2 0xD66 DUP2 PUSH2 0xD42 JUMP JUMPDEST SWAP3 SWAP2 POP POP JUMP JUMPDEST PUSH0 DUP2 SWAP1 POP SWAP2 SWAP1 POP JUMP JUMPDEST PUSH2 0xD7E DUP2 PUSH2 0xD6C JUMP JUMPDEST DUP2 EQ PUSH2 0xD88 JUMPI PUSH0 DUP1 REVERT JUMPDEST POP JUMP JUMPDEST PUSH0 DUP2 CALLDATALOAD SWAP1 POP PUSH2 0xD99 DUP2 PUSH2 0xD75 JUMP JUMPDEST SWAP3 SWAP2 POP POP JUMP JUMPDEST PUSH0 DUP1 PUSH1 0x40 DUP4 DUP6 SUB SLT ISZERO PUSH2 0xDB5 JUMPI PUSH2 0xDB4 PUSH2 0xD0A JUMP JUMPDEST JUMPDEST PUSH0 PUSH2 0xDC2 DUP6 DUP3 DUP7 ADD PUSH2 0xD58 JUMP JUMPDEST SWAP3 POP POP PUSH1 0x20 PUSH2 0xDD3 DUP6 DUP3 DUP7 ADD PUSH2 0xD8B JUMP JUMPDEST SWAP2 POP POP SWAP3 POP SWAP3 SWAP1 POP JUMP JUMPDEST PUSH2 0xDE6 DUP2 PUSH2 0xD6C JUMP JUMPDEST DUP3 MSTORE POP POP JUMP JUMPDEST PUSH2 0xDF5 DUP2 PUSH2 0xD31 JUMP JUMPDEST DUP3 MSTORE POP POP JUMP JUMPDEST PUSH0 DUP2 MLOAD SWAP1 POP SWAP2 SWAP1 POP JUMP JUMPDEST PUSH0 DUP3 DUP3 MSTORE PUSH1 0x20 DUP3 ADD SWAP1 POP SWAP3 SWAP2 POP POP JUMP JUMPDEST DUP3 DUP2 DUP4 MCOPY PUSH0 DUP4 DUP4 ADD MSTORE POP POP POP JUMP JUMPDEST PUSH0 PUSH1 0x1F NOT PUSH1 0x1F DUP4 ADD AND SWAP1 POP SWAP2 SWAP1 POP JUMP JUMPDEST PUSH0 PUSH2 0xE3D DUP3 PUSH2 0xDFB JUMP JUMPDEST PUSH2 0xE47 DUP2 DUP6 PUSH2 0xE05 JUMP JUMPDEST SWAP4 POP PUSH2 0xE57 DUP2 DUP6 PUSH1 0x20 DUP7 ADD PUSH2 0xE15 JUMP JUMPDEST PUSH2 0xE60 DUP2 PUSH2 0xE23 JUMP JUMPDEST DUP5 ADD SWAP2 POP POP SWAP3 SWAP2 POP POP JUMP JUMPDEST PUSH0 PUSH1 0xA0 DUP3 ADD SWAP1 POP PUSH2 0xE7E PUSH0 DUP4 ADD DUP9 PUSH2 0xDDD JUMP JUMPDEST PUSH2 0xE8B PUSH1 0x20 DUP4 ADD DUP8 PUSH2 0xDEC JUMP JUMPDEST DUP2 DUP2 SUB PUSH1 0x40 DUP4 ADD MSTORE PUSH2 0xE9D DUP2 DUP7 PUSH2 0xE33 JUMP JUMPDEST SWAP1 POP PUSH2 0xEAC PUSH1 0x60 DUP4 ADD DUP6 PUSH2 0xDDD JUMP JUMPDEST PUSH2 0xEB9 PUSH1 0x80 DUP4 ADD DUP5 PUSH2 0xDDD JUMP JUMPDEST SWAP7 SWAP6 POP POP POP POP POP POP JUMP JUMPDEST PUSH0 PUSH2 0xFFFF DUP3 AND SWAP1 POP SWAP2 SWAP1 POP JUMP JUMPDEST PUSH2 0xED9 DUP2 PUSH2 0xEC3 JUMP JUMPDEST DUP2 EQ PUSH2 0xEE3 JUMPI PUSH0 DUP1 REVERT JUMPDEST POP JUMP JUMPDEST PUSH0 DUP2 CALLDATALOAD SWAP1 POP PUSH2 0xEF4 DUP2 PUSH2 0xED0 JUMP JUMPDEST SWAP3 SWAP2 POP POP JUMP JUMPDEST PUSH0 PUSH1 0x20 DUP3 DUP5 SUB SLT ISZERO PUSH2 0xF0F JUMPI PUSH2 0xF0E PUSH2 0xD0A JUMP JUMPDEST JUMPDEST PUSH0 PUSH2 0xF1C DUP5 DUP3 DUP6 ADD PUSH2 0xEE6 JUMP JUMPDEST SWAP2 POP POP SWAP3 SWAP2 POP POP JUMP JUMPDEST PUSH2 0xF2E DUP2 PUSH2 0xEC3 JUMP JUMPDEST DUP3 MSTORE POP POP JUMP JUMPDEST PUSH0 PUSH1 0x20 DUP3 ADD SWAP1 POP PUSH2 0xF47 PUSH0 DUP4 ADD DUP5 PUSH2 0xF25 JUMP JUMPDEST SWAP3 SWAP2 POP POP JUMP JUMPDEST PUSH0 DUP1 REVERT JUMPDEST PUSH0 DUP1 REVERT JUMPDEST PUSH32 0x4E487B7100000000000000000000000000000000000000000000000000000000 PUSH0 MSTORE PUSH1 0x41 PUSH1 0x4 MSTORE PUSH1 0x24 PUSH0 REVERT JUMPDEST PUSH2 0xF8B DUP3 PUSH2 0xE23 JUMP JUMPDEST DUP2 ADD DUP2 DUP2 LT PUSH8 0xFFFFFFFFFFFFFFFF DUP3 GT OR ISZERO PUSH2 0xFAA JUMPI PUSH2 0xFA9 PUSH2 0xF55 JUMP JUMPDEST JUMPDEST DUP1 PUSH1 0x40 MSTORE POP POP POP JUMP JUMPDEST PUSH0 PUSH2 0xFBC PUSH2 0xD01 JUMP JUMPDEST SWAP1 POP PUSH2 0xFC8 DUP3 DUP3 PUSH2 0xF82 JUMP JUMPDEST SWAP2 SWAP1 POP JUMP JUMPDEST PUSH0 PUSH8 0xFFFFFFFFFFFFFFFF DUP3 GT ISZERO PUSH2 0xFE7 JUMPI PUSH2 0xFE6 PUSH2 0xF55 JUMP JUMPDEST JUMPDEST PUSH2 0xFF0 DUP3 PUSH2 0xE23 JUMP JUMPDEST SWAP1 POP PUSH1 0x20 DUP2 ADD SWAP1 POP SWAP2 SWAP1 POP JUMP JUMPDEST DUP3 DUP2 DUP4 CALLDATACOPY PUSH0 DUP4 DUP4 ADD MSTORE POP POP POP JUMP JUMPDEST PUSH0 PUSH2 0x101D PUSH2 0x1018 DUP5 PUSH2 0xFCD JUMP JUMPDEST PUSH2 0xFB3 JUMP JUMPDEST SWAP1 POP DUP3 DUP2 MSTORE PUSH1 0x20 DUP2 ADD DUP5 DUP5 DUP5 ADD GT ISZERO PUSH2 0x1039 JUMPI PUSH2 0x1038 PUSH2 0xF51 JUMP JUMPDEST JUMPDEST PUSH2 0x1044 DUP5 DUP3 DUP6 PUSH2 0xFFD JUMP JUMPDEST POP SWAP4 SWAP3 POP POP POP JUMP JUMPDEST PUSH0 DUP3 PUSH1 0x1F DUP4 ADD SLT PUSH2 0x1060 JUMPI PUSH2 0x105F PUSH2 0xF4D JUMP JUMPDEST JUMPDEST DUP2 CALLDATALOAD PUSH2 0x1070 DUP5 DUP3 PUSH1 0x20 DUP7 ADD PUSH2 0x100B JUMP JUMPDEST SWAP2 POP POP SWAP3 SWAP2 POP POP JUMP JUMPDEST PUSH0 PUSH1 0x20 DUP3 DUP5 SUB SLT ISZERO PUSH2 0x108E JUMPI PUSH2 0x108D PUSH2 0xD0A JUMP JUMPDEST JUMPDEST PUSH0 DUP3 ADD CALLDATALOAD PUSH8 0xFFFFFFFFFFFFFFFF DUP2 GT ISZERO PUSH2 0x10AB JUMPI PUSH2 0x10AA PUSH2 0xD0E JUMP JUMPDEST JUMPDEST PUSH2 0x10B7 DUP5 DUP3 DUP6 ADD PUSH2 0x104C JUMP JUMPDEST SWAP2 POP POP SWAP3 SWAP2 POP POP JUMP JUMPDEST PUSH0 PUSH1 0x20 DUP3 ADD SWAP1 POP PUSH2 0x10D3 PUSH0 DUP4 ADD DUP5 PUSH2 0xDEC JUMP JUMPDEST SWAP3 SWAP2 POP POP JUMP JUMPDEST PUSH0 PUSH1 0x20 DUP3 DUP5 SUB SLT ISZERO PUSH2 0x10EE JUMPI PUSH2 0x10ED PUSH2 0xD0A JUMP JUMPDEST JUMPDEST PUSH0 PUSH2 0x10FB DUP5 DUP3 DUP6 ADD PUSH2 0xD58 JUMP JUMPDEST SWAP2 POP POP SWAP3 SWAP2 POP POP JUMP JUMPDEST PUSH0 DUP2 MLOAD SWAP1 POP SWAP2 SWAP1 POP JUMP JUMPDEST PUSH0 DUP3 DUP3 MSTORE PUSH1 0x20 DUP3 ADD SWAP1 POP SWAP3 SWAP2 POP POP JUMP JUMPDEST PUSH0 DUP2 SWAP1 POP PUSH1 0x20 DUP3 ADD SWAP1 POP SWAP2 SWAP1 POP JUMP JUMPDEST PUSH2 0x1136 DUP2 PUSH2 0xD6C JUMP JUMPDEST DUP3 MSTORE POP POP JUMP JUMPDEST PUSH2 0x1145 DUP2 PUSH2 0xD31 JUMP JUMPDEST DUP3 MSTORE POP POP JUMP JUMPDEST PUSH0 DUP3 DUP3 MSTORE PUSH1 0x20 DUP3 ADD SWAP1 POP SWAP3 SWAP2 POP POP JUMP JUMPDEST PUSH0 PUSH2 0x1165 DUP3 PUSH2 0xDFB JUMP JUMPDEST PUSH2 0x116F DUP2 DUP6 PUSH2 0x114B JUMP JUMPDEST SWAP4 POP PUSH2 0x117F DUP2 DUP6 PUSH1 0x20 DUP7 ADD PUSH2 0xE15 JUMP JUMPDEST PUSH2 0x1188 DUP2 PUSH2 0xE23 JUMP JUMPDEST DUP5 ADD SWAP2 POP POP SWAP3 SWAP2 POP POP JUMP JUMPDEST PUSH0 PUSH1 0xA0 DUP4 ADD PUSH0 DUP4 ADD MLOAD PUSH2 0x11A8 PUSH0 DUP7 ADD DUP3 PUSH2 0x112D JUMP JUMPDEST POP PUSH1 0x20 DUP4 ADD MLOAD PUSH2 0x11BB PUSH1 0x20 DUP7 ADD DUP3 PUSH2 0x113C JUMP JUMPDEST POP PUSH1 0x40 DUP4 ADD MLOAD DUP5 DUP3 SUB PUSH1 0x40 DUP7 ADD MSTORE PUSH2 0x11D3 DUP3 DUP3 PUSH2 0x115B JUMP JUMPDEST SWAP2 POP POP PUSH1 0x60 DUP4 ADD MLOAD PUSH2 0x11E8 PUSH1 0x60 DUP7 ADD DUP3 PUSH2 0x112D JUMP JUMPDEST POP PUSH1 0x80 DUP4 ADD MLOAD PUSH2 0x11FB PUSH1 0x80 DUP7 ADD DUP3 PUSH2 0x112D JUMP JUMPDEST POP DUP1 SWAP2 POP POP SWAP3 SWAP2 POP POP JUMP JUMPDEST PUSH0 PUSH2 0x1211 DUP4 DUP4 PUSH2 0x1193 JUMP JUMPDEST SWAP1 POP SWAP3 SWAP2 POP POP JUMP JUMPDEST PUSH0 PUSH1 0x20 DUP3 ADD SWAP1 POP SWAP2 SWAP1 POP JUMP JUMPDEST PUSH0 PUSH2 0x122F DUP3 PUSH2 0x1104 JUMP JUMPDEST PUSH2 0x1239 DUP2 DUP6 PUSH2 0x110E JUMP JUMPDEST SWAP4 POP DUP4 PUSH1 0x20 DUP3 MUL DUP6 ADD PUSH2 0x124B DUP6 PUSH2 0x111E JUMP JUMPDEST DUP1 PUSH0 JUMPDEST DUP6 DUP2 LT ISZERO PUSH2 0x1286 JUMPI DUP5 DUP5 SUB DUP10 MSTORE DUP2 MLOAD PUSH2 0x1267 DUP6 DUP3 PUSH2 0x1206 JUMP JUMPDEST SWAP5 POP PUSH2 0x1272 DUP4 PUSH2 0x1219 JUMP JUMPDEST SWAP3 POP PUSH1 0x20 DUP11 ADD SWAP10 POP POP PUSH1 0x1 DUP2 ADD SWAP1 POP PUSH2 0x124E JUMP JUMPDEST POP DUP3 SWAP8 POP DUP8 SWAP6 POP POP POP POP POP POP SWAP3 SWAP2 POP POP JUMP JUMPDEST PUSH0 PUSH1 0x20 DUP3 ADD SWAP1 POP DUP2 DUP2 SUB PUSH0 DUP4 ADD MSTORE PUSH2 0x12B0 DUP2 DUP5 PUSH2 0x1225 JUMP JUMPDEST SWAP1 POP SWAP3 SWAP2 POP POP JUMP JUMPDEST PUSH0 PUSH1 0x20 DUP3 DUP5 SUB SLT ISZERO PUSH2 0x12CD JUMPI PUSH2 0x12CC PUSH2 0xD0A JUMP JUMPDEST JUMPDEST PUSH0 PUSH2 0x12DA DUP5 DUP3 DUP6 ADD PUSH2 0xD8B JUMP JUMPDEST SWAP2 POP POP SWAP3 SWAP2 POP POP JUMP JUMPDEST PUSH0 PUSH1 0xA0 DUP4 ADD PUSH0 DUP4 ADD MLOAD PUSH2 0x12F8 PUSH0 DUP7 ADD DUP3 PUSH2 0x112D JUMP JUMPDEST POP PUSH1 0x20 DUP4 ADD MLOAD PUSH2 0x130B PUSH1 0x20 DUP7 ADD DUP3 PUSH2 0x113C JUMP JUMPDEST POP PUSH1 0x40 DUP4 ADD MLOAD DUP5 DUP3 SUB PUSH1 0x40 DUP7 ADD MSTORE PUSH2 0x1323 DUP3 DUP3 PUSH2 0x115B JUMP JUMPDEST SWAP2 POP POP PUSH1 0x60 DUP4 ADD MLOAD PUSH2 0x1338 PUSH1 0x60 DUP7 ADD DUP3 PUSH2 0x112D JUMP JUMPDEST POP PUSH1 0x80 DUP4 ADD MLOAD PUSH2 0x134B PUSH1 0x80 DUP7 ADD DUP3 PUSH2 0x112D JUMP JUMPDEST POP DUP1 SWAP2 POP POP SWAP3 SWAP2 POP POP JUMP JUMPDEST PUSH0 PUSH1 0x20 DUP3 ADD SWAP1 POP DUP2 DUP2 SUB PUSH0 DUP4 ADD MSTORE PUSH2 0x136E DUP2 DUP5 PUSH2 0x12E3 JUMP JUMPDEST SWAP1 POP SWAP3 SWAP2 POP POP JUMP JUMPDEST PUSH32 0x4E487B7100000000000000000000000000000000000000000000000000000000 PUSH0 MSTORE PUSH1 0x22 PUSH1 0x4 MSTORE PUSH1 0x24 PUSH0 REVERT JUMPDEST PUSH0 PUSH1 0x2 DUP3 DIV SWAP1 POP PUSH1 0x1 DUP3 AND DUP1 PUSH2 0x13BA JUMPI PUSH1 0x7F DUP3 AND SWAP2 POP JUMPDEST PUSH1 0x20 DUP3 LT DUP2 SUB PUSH2 0x13CD JUMPI PUSH2 0x13CC PUSH2 0x1376 JUMP JUMPDEST JUMPDEST POP SWAP2 SWAP1 POP JUMP JUMPDEST PUSH32 0x594F5520415245204E4F5420544845204F574E45522100000000000000000000 PUSH0 DUP3 ADD MSTORE POP JUMP JUMPDEST PUSH0 PUSH2 0x1407 PUSH1 0x16 DUP4 PUSH2 0xE05 JUMP JUMPDEST SWAP2 POP PUSH2 0x1412 DUP3 PUSH2 0x13D3 JUMP JUMPDEST PUSH1 0x20 DUP3 ADD SWAP1 POP SWAP2 SWAP1 POP JUMP JUMPDEST PUSH0 PUSH1 0x20 DUP3 ADD SWAP1 POP DUP2 DUP2 SUB PUSH0 DUP4 ADD MSTORE PUSH2 0x1434 DUP2 PUSH2 0x13FB JUMP JUMPDEST SWAP1 POP SWAP2 SWAP1 POP JUMP JUMPDEST PUSH32 0x4E487B7100000000000000000000000000000000000000000000000000000000 PUSH0 MSTORE PUSH1 0x32 PUSH1 0x4 MSTORE PUSH1 0x24 PUSH0 REVERT JUMPDEST PUSH32 0x545745455420444F4553204E4F54204558495354000000000000000000000000 PUSH0 DUP3 ADD MSTORE POP JUMP JUMPDEST PUSH0 PUSH2 0x149C PUSH1 0x14 DUP4 PUSH2 0xE05 JUMP JUMPDEST SWAP2 POP PUSH2 0x14A7 DUP3 PUSH2 0x1468 JUMP JUMPDEST PUSH1 0x20 DUP3 ADD SWAP1 POP SWAP2 SWAP1 POP JUMP JUMPDEST PUSH0 PUSH1 0x20 DUP3 ADD SWAP1 POP DUP2 DUP2 SUB PUSH0 DUP4 ADD MSTORE PUSH2 0x14C9 DUP2 PUSH2 0x1490 JUMP JUMPDEST SWAP1 POP SWAP2 SWAP1 POP JUMP JUMPDEST PUSH32 0x545745455420484153204E4F204C494B45530000000000000000000000000000 PUSH0 DUP3 ADD MSTORE POP JUMP JUMPDEST PUSH0 PUSH2 0x1504 PUSH1 0x12 DUP4 PUSH2 0xE05 JUMP JUMPDEST SWAP2 POP PUSH2 0x150F DUP3 PUSH2 0x14D0 JUMP JUMPDEST PUSH1 0x20 DUP3 ADD SWAP1 POP SWAP2 SWAP1 POP JUMP JUMPDEST PUSH0 PUSH1 0x20 DUP3 ADD SWAP1 POP DUP2 DUP2 SUB PUSH0 DUP4 ADD MSTORE PUSH2 0x1531 DUP2 PUSH2 0x14F8 JUMP JUMPDEST SWAP1 POP SWAP2 SWAP1 POP JUMP JUMPDEST PUSH32 0x4E487B7100000000000000000000000000000000000000000000000000000000 PUSH0 MSTORE PUSH1 0x11 PUSH1 0x4 MSTORE PUSH1 0x24 PUSH0 REVERT JUMPDEST PUSH0 PUSH2 0x156F DUP3 PUSH2 0xD6C JUMP JUMPDEST SWAP2 POP PUSH0 DUP3 SUB PUSH2 0x1581 JUMPI PUSH2 0x1580 PUSH2 0x1538 JUMP JUMPDEST JUMPDEST PUSH1 0x1 DUP3 SUB SWAP1 POP SWAP2 SWAP1 POP JUMP JUMPDEST PUSH0 PUSH1 0x80 DUP3 ADD SWAP1 POP PUSH2 0x159F PUSH0 DUP4 ADD DUP8 PUSH2 0xDEC JUMP JUMPDEST PUSH2 0x15AC PUSH1 0x20 DUP4 ADD DUP7 PUSH2 0xDEC JUMP JUMPDEST PUSH2 0x15B9 PUSH1 0x40 DUP4 ADD DUP6 PUSH2 0xDDD JUMP JUMPDEST PUSH2 0x15C6 PUSH1 0x60 DUP4 ADD DUP5 PUSH2 0xDDD JUMP JUMPDEST SWAP6 SWAP5 POP POP POP POP POP JUMP JUMPDEST PUSH0 PUSH2 0x15D9 DUP3 PUSH2 0xD6C JUMP JUMPDEST SWAP2 POP PUSH32 0xFFFFFFFFFFFFFFFFFFFFFFFFFFFFFFFFFFFFFFFFFFFFFFFFFFFFFFFFFFFFFFFF DUP3 SUB PUSH2 0x160B JUMPI PUSH2 0x160A PUSH2 0x1538 JUMP JUMPDEST JUMPDEST PUSH1 0x1 DUP3 ADD SWAP1 POP SWAP2 SWAP1 POP JUMP JUMPDEST PUSH32 0x547765657420697320746F6F206C6F6E67206272752100000000000000000000 PUSH0 DUP3 ADD MSTORE POP JUMP JUMPDEST PUSH0 PUSH2 0x164A PUSH1 0x16 DUP4 PUSH2 0xE05 JUMP JUMPDEST SWAP2 POP PUSH2 0x1655 DUP3 PUSH2 0x1616 JUMP JUMPDEST PUSH1 0x20 DUP3 ADD SWAP1 POP SWAP2 SWAP1 POP JUMP JUMPDEST PUSH0 PUSH1 0x20 DUP3 ADD SWAP1 POP DUP2 DUP2 SUB PUSH0 DUP4 ADD MSTORE PUSH2 0x1677 DUP2 PUSH2 0x163E JUMP JUMPDEST SWAP1 POP SWAP2 SWAP1 POP JUMP JUMPDEST PUSH0 DUP2 SWAP1 POP DUP2 PUSH0 MSTORE PUSH1 0x20 PUSH0 KECCAK256 SWAP1 POP SWAP2 SWAP1 POP JUMP JUMPDEST PUSH0 PUSH1 0x20 PUSH1 0x1F DUP4 ADD DIV SWAP1 POP SWAP2 SWAP1 POP JUMP JUMPDEST PUSH0 DUP3 DUP3 SHL SWAP1 POP SWAP3 SWAP2 POP POP JUMP JUMPDEST PUSH0 PUSH1 0x8 DUP4 MUL PUSH2 0x16DA PUSH32 0xFFFFFFFFFFFFFFFFFFFFFFFFFFFFFFFFFFFFFFFFFFFFFFFFFFFFFFFFFFFFFFFF DUP3 PUSH2 0x169F JUMP JUMPDEST PUSH2 0x16E4 DUP7 DUP4 PUSH2 0x169F JUMP JUMPDEST SWAP6 POP DUP1 NOT DUP5 AND SWAP4 POP DUP1 DUP7 AND DUP5 OR SWAP3 POP POP POP SWAP4 SWAP3 POP POP POP JUMP JUMPDEST PUSH0 DUP2 SWAP1 POP SWAP2 SWAP1 POP JUMP JUMPDEST PUSH0 PUSH2 0x171F PUSH2 0x171A PUSH2 0x1715 DUP5 PUSH2 0xD6C JUMP JUMPDEST PUSH2 0x16FC JUMP JUMPDEST PUSH2 0xD6C JUMP JUMPDEST SWAP1 POP SWAP2 SWAP1 POP JUMP JUMPDEST PUSH0 DUP2 SWAP1 POP SWAP2 SWAP1 POP JUMP JUMPDEST PUSH2 0x1738 DUP4 PUSH2 0x1705 JUMP JUMPDEST PUSH2 0x174C PUSH2 0x1744 DUP3 PUSH2 0x1726 JUMP JUMPDEST DUP5 DUP5 SLOAD PUSH2 0x16AB JUMP JUMPDEST DUP3 SSTORE POP POP POP POP JUMP JUMPDEST PUSH0 SWAP1 JUMP JUMPDEST PUSH2 0x1760 PUSH2 0x1754 JUMP JUMPDEST PUSH2 0x176B DUP2 DUP5 DUP5 PUSH2 0x172F JUMP JUMPDEST POP POP POP JUMP JUMPDEST JUMPDEST DUP2 DUP2 LT ISZERO PUSH2 0x178E JUMPI PUSH2 0x1783 PUSH0 DUP3 PUSH2 0x1758 JUMP JUMPDEST PUSH1 0x1 DUP2 ADD SWAP1 POP PUSH2 0x1771 JUMP JUMPDEST POP POP JUMP JUMPDEST PUSH1 0x1F DUP3 GT ISZERO PUSH2 0x17D3 JUMPI PUSH2 0x17A4 DUP2 PUSH2 0x167E JUMP JUMPDEST PUSH2 0x17AD DUP5 PUSH2 0x1690 JUMP JUMPDEST DUP2 ADD PUSH1 0x20 DUP6 LT ISZERO PUSH2 0x17BC JUMPI DUP2 SWAP1 POP JUMPDEST PUSH2 0x17D0 PUSH2 0x17C8 DUP6 PUSH2 0x1690 JUMP JUMPDEST DUP4 ADD DUP3 PUSH2 0x1770 JUMP JUMPDEST POP POP JUMPDEST POP POP POP JUMP JUMPDEST PUSH0 DUP3 DUP3 SHR SWAP1 POP SWAP3 SWAP2 POP POP JUMP JUMPDEST PUSH0 PUSH2 0x17F3 PUSH0 NOT DUP5 PUSH1 0x8 MUL PUSH2 0x17D8 JUMP JUMPDEST NOT DUP1 DUP4 AND SWAP2 POP POP SWAP3 SWAP2 POP POP JUMP JUMPDEST PUSH0 PUSH2 0x180B DUP4 DUP4 PUSH2 0x17E4 JUMP JUMPDEST SWAP2 POP DUP3 PUSH1 0x2 MUL DUP3 OR SWAP1 POP SWAP3 SWAP2 POP POP JUMP JUMPDEST PUSH2 0x1824 DUP3 PUSH2 0xDFB JUMP JUMPDEST PUSH8 0xFFFFFFFFFFFFFFFF DUP2 GT ISZERO PUSH2 0x183D JUMPI PUSH2 0x183C PUSH2 0xF55 JUMP JUMPDEST JUMPDEST PUSH2 0x1847 DUP3 SLOAD PUSH2 0x13A3 JUMP JUMPDEST PUSH2 0x1852 DUP3 DUP3 DUP6 PUSH2 0x1792 JUMP JUMPDEST PUSH0 PUSH1 0x20 SWAP1 POP PUSH1 0x1F DUP4 GT PUSH1 0x1 DUP2 EQ PUSH2 0x1883 JUMPI PUSH0 DUP5 ISZERO PUSH2 0x1871 JUMPI DUP3 DUP8 ADD MLOAD SWAP1 POP JUMPDEST PUSH2 0x187B DUP6 DUP3 PUSH2 0x1800 JUMP JUMPDEST DUP7 SSTORE POP PUSH2 0x18E2 JUMP JUMPDEST PUSH1 0x1F NOT DUP5 AND PUSH2 0x1891 DUP7 PUSH2 0x167E JUMP JUMPDEST PUSH0 JUMPDEST DUP3 DUP2 LT ISZERO PUSH2 0x18B8 JUMPI DUP5 DUP10 ADD MLOAD DUP3 SSTORE PUSH1 0x1 DUP3 ADD SWAP2 POP PUSH1 0x20 DUP6 ADD SWAP5 POP PUSH1 0x20 DUP2 ADD SWAP1 POP PUSH2 0x1893 JUMP JUMPDEST DUP7 DUP4 LT ISZERO PUSH2 0x18D5 JUMPI DUP5 DUP10 ADD MLOAD PUSH2 0x18D1 PUSH1 0x1F DUP10 AND DUP3 PUSH2 0x17E4 JUMP JUMPDEST DUP4 SSTORE POP JUMPDEST PUSH1 0x1 PUSH1 0x2 DUP9 MUL ADD DUP9 SSTORE POP POP POP JUMPDEST POP POP POP POP POP POP JUMP JUMPDEST PUSH0 PUSH1 0x80 DUP3 ADD SWAP1 POP PUSH2 0x18FD PUSH0 DUP4 ADD DUP8 PUSH2 0xDDD JUMP JUMPDEST PUSH2 0x190A PUSH1 0x20 DUP4 ADD DUP7 PUSH2 0xDEC JUMP JUMPDEST DUP2 DUP2 SUB PUSH1 0x40 DUP4 ADD MSTORE PUSH2 0x191C DUP2 DUP6 PUSH2 0xE33 JUMP JUMPDEST SWAP1 POP PUSH2 0x192B PUSH1 0x60 DUP4 ADD DUP5 PUSH2 0xDDD JUMP JUMPDEST SWAP6 SWAP5 POP POP POP POP POP JUMP INVALID LOG2 PUSH5 0x6970667358 0x22 SLT KECCAK256 0xC4 PUSH0 0x4D ADD PUSH14 0xF335407E6227F66044AD21D39C9D TIMESTAMP 0xC5 DUP13 0xD7 DIV SWAP16 PUSH29 0x7327BFF3E8764736F6C634300081A0033000000000000000000000000 "
				},
				"gasEstimates": {
					"creation": {
						"codeDepositCost": "1301200",
						"executionCost": "49885",
						"totalCost": "1351085"
					},
					"external": {
						"MAX_TWEET_LENGTH()": "2463",
						"changeTweet(uint16)": "26865",
						"createTweet(string)": "infinite",
						"getAlltweets(address)": "infinite",
						"getTweet(uint256)": "infinite",
						"likeTweet(address,uint256)": "infinite",
						"owner()": "2552",
						"tweets(address,uint256)": "infinite",
						"unlikeTweet(address,uint256)": "infinite"
					}
				},
				"methodIdentifiers": {
					"MAX_TWEET_LENGTH()": "6eb10797",
					"changeTweet(uint16)": "1b02495b",
					"createTweet(string)": "7c9cd2bc",
					"getAlltweets(address)": "9fedc6aa",
					"getTweet(uint256)": "c3ad5ecb",
					"likeTweet(address,uint256)": "63378216",
					"owner()": "8da5cb5b",
					"tweets(address,uint256)": "05a1b4a9",
					"unlikeTweet(address,uint256)": "3d9b569f"
				}
			},
			"storageLayout": {
				"storage": [
					{
						"astId": 4,
						"contract": "contracts/Twitter.sol:Twitter",
						"label": "MAX_TWEET_LENGTH",
						"offset": 0,
						"slot": "0",
						"type": "t_uint16"
					},
					{
						"astId": 21,
						"contract": "contracts/Twitter.sol:Twitter",
						"label": "tweets",
						"offset": 0,
						"slot": "1",
						"type": "t_mapping(t_address,t_array(t_struct(Tweet)15_storage)dyn_storage)"
					},
					{
						"astId": 23,
						"contract": "contracts/Twitter.sol:Twitter",
						"label": "owner",
						"offset": 0,
						"slot": "2",
						"type": "t_address"
					}
				],
				"types": {
					"t_address": {
						"encoding": "inplace",
						"label": "address",
						"numberOfBytes": "20"
					},
					"t_array(t_struct(Tweet)15_storage)dyn_storage": {
						"base": "t_struct(Tweet)15_storage",
						"encoding": "dynamic_array",
						"label": "struct Twitter.Tweet[]",
						"numberOfBytes": "32"
					},
					"t_mapping(t_address,t_array(t_struct(Tweet)15_storage)dyn_storage)": {
						"encoding": "mapping",
						"key": "t_address",
						"label": "mapping(address => struct Twitter.Tweet[])",
						"numberOfBytes": "32",
						"value": "t_array(t_struct(Tweet)15_storage)dyn_storage"
					},
					"t_string_storage": {
						"encoding": "bytes",
						"label": "string",
						"numberOfBytes": "32"
					},
					"t_struct(Tweet)15_storage": {
						"encoding": "inplace",
						"label": "struct Twitter.Tweet",
						"members": [
							{
								"astId": 6,
								"contract": "contracts/Twitter.sol:Twitter",
								"label": "id",
								"offset": 0,
								"slot": "0",
								"type": "t_uint256"
							},
							{
								"astId": 8,
								"contract": "contracts/Twitter.sol:Twitter",
								"label": "author",
								"offset": 0,
								"slot": "1",
								"type": "t_address"
							},
							{
								"astId": 10,
								"contract": "contracts/Twitter.sol:Twitter",
								"label": "content",
								"offset": 0,
								"slot": "2",
								"type": "t_string_storage"
							},
							{
								"astId": 12,
								"contract": "contracts/Twitter.sol:Twitter",
								"label": "timestamp",
								"offset": 0,
								"slot": "3",
								"type": "t_uint256"
							},
							{
								"astId": 14,
								"contract": "contracts/Twitter.sol:Twitter",
								"label": "likes",
								"offset": 0,
								"slot": "4",
								"type": "t_uint256"
							}
						],
						"numberOfBytes": "160"
					},
					"t_uint16": {
						"encoding": "inplace",
						"label": "uint16",
						"numberOfBytes": "2"
					},
					"t_uint256": {
						"encoding": "inplace",
						"label": "uint256",
						"numberOfBytes": "32"
					}
				}
			},
			"userdoc": {
				"kind": "user",
				"methods": {},
				"version": 1
			}
		}
	}
}