{
	"data": {
		"bytecode": {
			"linkReferences": {},
			"object": "6080604052348015600e575f80fd5b506104398061001c5f395ff3fe608060405234801561000f575f80fd5b5060043610610034575f3560e01c806313a8e6e7146100385780636537214714610054575b5f80fd5b610052600480360381019061004d91906101e2565b610072565b005b61005c61011c565b6040516100699190610241565b60405180910390f35b5f8160ff160361008b576100868383610121565b610117565b60018160ff16036100a5576100a08383610136565b610116565b60028160ff16036100bf576100ba838361014b565b610115565b60038160ff16036100d9576100d48383610160565b610114565b6040517f08c379a000000000000000000000000000000000000000000000000000000000815260040161010b906102b4565b60405180910390fd5b5b5b5b505050565b5f5481565b808261012d91906102ff565b5f819055505050565b80826101429190610332565b5f819055505050565b80826101579190610365565b5f819055505050565b808261016c91906103d3565b5f819055505050565b5f80fd5b5f819050919050565b61018b81610179565b8114610195575f80fd5b50565b5f813590506101a681610182565b92915050565b5f60ff82169050919050565b6101c1816101ac565b81146101cb575f80fd5b50565b5f813590506101dc816101b8565b92915050565b5f805f606084860312156101f9576101f8610175565b5b5f61020686828701610198565b935050602061021786828701610198565b9250506040610228868287016101ce565b9150509250925092565b61023b81610179565b82525050565b5f6020820190506102545f830184610232565b92915050565b5f82825260208201905092915050565b7f496e76616c6964206f7065726174696f6e0000000000000000000000000000005f82015250565b5f61029e60118361025a565b91506102a98261026a565b602082019050919050565b5f6020820190508181035f8301526102cb81610292565b9050919050565b7f4e487b71000000000000000000000000000000000000000000000000000000005f52601160045260245ffd5b5f61030982610179565b915061031483610179565b925082820190508082111561032c5761032b6102d2565b5b92915050565b5f61033c82610179565b915061034783610179565b925082820390508181111561035f5761035e6102d2565b5b92915050565b5f61036f82610179565b915061037a83610179565b925082820261038881610179565b9150828204841483151761039f5761039e6102d2565b5b5092915050565b7f4e487b71000000000000000000000000000000000000000000000000000000005f52601260045260245ffd5b5f6103dd82610179565b91506103e883610179565b9250826103f8576103f76103a6565b5b82820490509291505056fea26469706673582212203bf4f2467f6de17c0c0a195fbe07eb3f6e37aff728d3ee24c789bd505020d86264736f6c634300081a0033",
			"opcodes": "PUSH1 0x80 PUSH1 0x40 MSTORE CALLVALUE DUP1 ISZERO PUSH1 0xE JUMPI PUSH0 DUP1 REVERT JUMPDEST POP PUSH2 0x439 DUP1 PUSH2 0x1C PUSH0 CODECOPY PUSH0 RETURN INVALID PUSH1 0x80 PUSH1 0x40 MSTORE CALLVALUE DUP1 ISZERO PUSH2 0xF JUMPI PUSH0 DUP1 REVERT JUMPDEST POP PUSH1 0x4 CALLDATASIZE LT PUSH2 0x34 JUMPI PUSH0 CALLDATALOAD PUSH1 0xE0 SHR DUP1 PUSH4 0x13A8E6E7 EQ PUSH2 0x38 JUMPI DUP1 PUSH4 0x65372147 EQ PUSH2 0x54 JUMPI JUMPDEST PUSH0 DUP1 REVERT JUMPDEST PUSH2 0x52 PUSH1 0x4 DUP1 CALLDATASIZE SUB DUP2 ADD SWAP1 PUSH2 0x4D SWAP2 SWAP1 PUSH2 0x1E2 JUMP JUMPDEST PUSH2 0x72 JUMP JUMPDEST STOP JUMPDEST PUSH2 0x5C PUSH2 0x11C JUMP JUMPDEST PUSH1 0x40 MLOAD PUSH2 0x69 SWAP2 SWAP1 PUSH2 0x241 JUMP JUMPDEST PUSH1 0x40 MLOAD DUP1 SWAP2 SUB SWAP1 RETURN JUMPDEST PUSH0 DUP2 PUSH1 0xFF AND SUB PUSH2 0x8B JUMPI PUSH2 0x86 DUP4 DUP4 PUSH2 0x121 JUMP JUMPDEST PUSH2 0x117 JUMP JUMPDEST PUSH1 0x1 DUP2 PUSH1 0xFF AND SUB PUSH2 0xA5 JUMPI PUSH2 0xA0 DUP4 DUP4 PUSH2 0x136 JUMP JUMPDEST PUSH2 0x116 JUMP JUMPDEST PUSH1 0x2 DUP2 PUSH1 0xFF AND SUB PUSH2 0xBF JUMPI PUSH2 0xBA DUP4 DUP4 PUSH2 0x14B JUMP JUMPDEST PUSH2 0x115 JUMP JUMPDEST PUSH1 0x3 DUP2 PUSH1 0xFF AND SUB PUSH2 0xD9 JUMPI PUSH2 0xD4 DUP4 DUP4 PUSH2 0x160 JUMP JUMPDEST PUSH2 0x114 JUMP JUMPDEST PUSH1 0x40 MLOAD PUSH32 0x8C379A000000000000000000000000000000000000000000000000000000000 DUP2 MSTORE PUSH1 0x4 ADD PUSH2 0x10B SWAP1 PUSH2 0x2B4 JUMP JUMPDEST PUSH1 0x40 MLOAD DUP1 SWAP2 SUB SWAP1 REVERT JUMPDEST JUMPDEST JUMPDEST JUMPDEST POP POP POP JUMP JUMPDEST PUSH0 SLOAD DUP2 JUMP JUMPDEST DUP1 DUP3 PUSH2 0x12D SWAP2 SWAP1 PUSH2 0x2FF JUMP JUMPDEST PUSH0 DUP2 SWAP1 SSTORE POP POP POP JUMP JUMPDEST DUP1 DUP3 PUSH2 0x142 SWAP2 SWAP1 PUSH2 0x332 JUMP JUMPDEST PUSH0 DUP2 SWAP1 SSTORE POP POP POP JUMP JUMPDEST DUP1 DUP3 PUSH2 0x157 SWAP2 SWAP1 PUSH2 0x365 JUMP JUMPDEST PUSH0 DUP2 SWAP1 SSTORE POP POP POP JUMP JUMPDEST DUP1 DUP3 PUSH2 0x16C SWAP2 SWAP1 PUSH2 0x3D3 JUMP JUMPDEST PUSH0 DUP2 SWAP1 SSTORE POP POP POP JUMP JUMPDEST PUSH0 DUP1 REVERT JUMPDEST PUSH0 DUP2 SWAP1 POP SWAP2 SWAP1 POP JUMP JUMPDEST PUSH2 0x18B DUP2 PUSH2 0x179 JUMP JUMPDEST DUP2 EQ PUSH2 0x195 JUMPI PUSH0 DUP1 REVERT JUMPDEST POP JUMP JUMPDEST PUSH0 DUP2 CALLDATALOAD SWAP1 POP PUSH2 0x1A6 DUP2 PUSH2 0x182 JUMP JUMPDEST SWAP3 SWAP2 POP POP JUMP JUMPDEST PUSH0 PUSH1 0xFF DUP3 AND SWAP1 POP SWAP2 SWAP1 POP JUMP JUMPDEST PUSH2 0x1C1 DUP2 PUSH2 0x1AC JUMP JUMPDEST DUP2 EQ PUSH2 0x1CB JUMPI PUSH0 DUP1 REVERT JUMPDEST POP JUMP JUMPDEST PUSH0 DUP2 CALLDATALOAD SWAP1 POP PUSH2 0x1DC DUP2 PUSH2 0x1B8 JUMP JUMPDEST SWAP3 SWAP2 POP POP JUMP JUMPDEST PUSH0 DUP1 PUSH0 PUSH1 0x60 DUP5 DUP7 SUB SLT ISZERO PUSH2 0x1F9 JUMPI PUSH2 0x1F8 PUSH2 0x175 JUMP JUMPDEST JUMPDEST PUSH0 PUSH2 0x206 DUP7 DUP3 DUP8 ADD PUSH2 0x198 JUMP JUMPDEST SWAP4 POP POP PUSH1 0x20 PUSH2 0x217 DUP7 DUP3 DUP8 ADD PUSH2 0x198 JUMP JUMPDEST SWAP3 POP POP PUSH1 0x40 PUSH2 0x228 DUP7 DUP3 DUP8 ADD PUSH2 0x1CE JUMP JUMPDEST SWAP2 POP POP SWAP3 POP SWAP3 POP SWAP3 JUMP JUMPDEST PUSH2 0x23B DUP2 PUSH2 0x179 JUMP JUMPDEST DUP3 MSTORE POP POP JUMP JUMPDEST PUSH0 PUSH1 0x20 DUP3 ADD SWAP1 POP PUSH2 0x254 PUSH0 DUP4 ADD DUP5 PUSH2 0x232 JUMP JUMPDEST SWAP3 SWAP2 POP POP JUMP JUMPDEST PUSH0 DUP3 DUP3 MSTORE PUSH1 0x20 DUP3 ADD SWAP1 POP SWAP3 SWAP2 POP POP JUMP JUMPDEST PUSH32 0x496E76616C6964206F7065726174696F6E000000000000000000000000000000 PUSH0 DUP3 ADD MSTORE POP JUMP JUMPDEST PUSH0 PUSH2 0x29E PUSH1 0x11 DUP4 PUSH2 0x25A JUMP JUMPDEST SWAP2 POP PUSH2 0x2A9 DUP3 PUSH2 0x26A JUMP JUMPDEST PUSH1 0x20 DUP3 ADD SWAP1 POP SWAP2 SWAP1 POP JUMP JUMPDEST PUSH0 PUSH1 0x20 DUP3 ADD SWAP1 POP DUP2 DUP2 SUB PUSH0 DUP4 ADD MSTORE PUSH2 0x2CB DUP2 PUSH2 0x292 JUMP JUMPDEST SWAP1 POP SWAP2 SWAP1 POP JUMP JUMPDEST PUSH32 0x4E487B7100000000000000000000000000000000000000000000000000000000 PUSH0 MSTORE PUSH1 0x11 PUSH1 0x4 MSTORE PUSH1 0x24 PUSH0 REVERT JUMPDEST PUSH0 PUSH2 0x309 DUP3 PUSH2 0x179 JUMP JUMPDEST SWAP2 POP PUSH2 0x314 DUP4 PUSH2 0x179 JUMP JUMPDEST SWAP3 POP DUP3 DUP3 ADD SWAP1 POP DUP1 DUP3 GT ISZERO PUSH2 0x32C JUMPI PUSH2 0x32B PUSH2 0x2D2 JUMP JUMPDEST JUMPDEST SWAP3 SWAP2 POP POP JUMP JUMPDEST PUSH0 PUSH2 0x33C DUP3 PUSH2 0x179 JUMP JUMPDEST SWAP2 POP PUSH2 0x347 DUP4 PUSH2 0x179 JUMP JUMPDEST SWAP3 POP DUP3 DUP3 SUB SWAP1 POP DUP2 DUP2 GT ISZERO PUSH2 0x35F JUMPI PUSH2 0x35E PUSH2 0x2D2 JUMP JUMPDEST JUMPDEST SWAP3 SWAP2 POP POP JUMP JUMPDEST PUSH0 PUSH2 0x36F DUP3 PUSH2 0x179 JUMP JUMPDEST SWAP2 POP PUSH2 0x37A DUP4 PUSH2 0x179 JUMP JUMPDEST SWAP3 POP DUP3 DUP3 MUL PUSH2 0x388 DUP2 PUSH2 0x179 JUMP JUMPDEST SWAP2 POP DUP3 DUP3 DIV DUP5 EQ DUP4 ISZERO OR PUSH2 0x39F JUMPI PUSH2 0x39E PUSH2 0x2D2 JUMP JUMPDEST JUMPDEST POP SWAP3 SWAP2 POP POP JUMP JUMPDEST PUSH32 0x4E487B7100000000000000000000000000000000000000000000000000000000 PUSH0 MSTORE PUSH1 0x12 PUSH1 0x4 MSTORE PUSH1 0x24 PUSH0 REVERT JUMPDEST PUSH0 PUSH2 0x3DD DUP3 PUSH2 0x179 JUMP JUMPDEST SWAP2 POP PUSH2 0x3E8 DUP4 PUSH2 0x179 JUMP JUMPDEST SWAP3 POP DUP3 PUSH2 0x3F8 JUMPI PUSH2 0x3F7 PUSH2 0x3A6 JUMP JUMPDEST JUMPDEST DUP3 DUP3 DIV SWAP1 POP SWAP3 SWAP2 POP POP JUMP INVALID LOG2 PUSH5 0x6970667358 0x22 SLT KECCAK256 EXTCODESIZE DELEGATECALL CALLCODE CHAINID PUSH32 0x6DE17C0C0A195FBE07EB3F6E37AFF728D3EE24C789BD505020D86264736F6C63 NUMBER STOP ADDMOD BYTE STOP CALLER "
		},
		"gasEstimates": {
			"creation": {
				"codeDepositCost": "216200",
				"executionCost": "255",
				"totalCost": "216455"
			},
			"external": {
				"performOperations(uint256,uint256,uint8)": "infinite",
				"result()": "2424"
			},
			"internal": {
				"divide(uint256,uint256)": "infinite",
				"multiply(uint256,uint256)": "infinite"
			}
		},
		"methodIdentifiers": {
			"performOperations(uint256,uint256,uint8)": "13a8e6e7",
			"result()": "65372147"
		}
	},
	"abi": [
		{
			"inputs": [
				{
					"internalType": "uint256",
					"name": "a",
					"type": "uint256"
				},
				{
					"internalType": "uint256",
					"name": "b",
					"type": "uint256"
				},
				{
					"internalType": "uint8",
					"name": "operation",
					"type": "uint8"
				}
			],
			"name": "performOperations",
			"outputs": [],
			"stateMutability": "nonpayable",
			"type": "function"
		},
		{
			"inputs": [],
			"name": "result",
			"outputs": [
				{
					"internalType": "uint256",
					"name": "",
					"type": "uint256"
				}
			],
			"stateMutability": "view",
			"type": "function"
		}
	]
}