{
	"data": {
		"bytecode": {
			"linkReferences": {},
			"object": "6080604052348015600e575f80fd5b505f600181905550610fb2806100235f395ff3fe608060405260043610610049575f3560e01c8063297a1f561461004d57806339faf3ae146100775780635e624a2a14610093578063afd79cbd146100af578063eae3c03f146100f0575b5f80fd5b348015610058575f80fd5b50610061610118565b60405161006e91906108d3565b60405180910390f35b610091600480360381019061008c919061094a565b61011e565b005b6100ad60048036038101906100a8919061094a565b6103a9565b005b3480156100ba575f80fd5b506100d560048036038101906100d0919061094a565b610611565b6040516100e79695949392919061099e565b60405180910390f35b3480156100fb575f80fd5b5061011660048036038101906101119190610a27565b610673565b005b60015481565b5f805f8373ffffffffffffffffffffffffffffffffffffffff1673ffffffffffffffffffffffffffffffffffffffff1681526020019081526020015f2090505f73ffffffffffffffffffffffffffffffffffffffff16815f015f9054906101000a900473ffffffffffffffffffffffffffffffffffffffff1673ffffffffffffffffffffffffffffffffffffffff16036101ed576040517f08c379a00000000000000000000000000000000000000000000000000000000081526004016101e490610ad1565b60405180910390fd5b806005015f9054906101000a900460ff161561023e576040517f08c379a000000000000000000000000000000000000000000000000000000000815260040161023590610b39565b60405180910390fd5b80600101543414610284576040517f08c379a000000000000000000000000000000000000000000000000000000000815260040161027b90610bc7565b60405180910390fd5b805f015f9054906101000a900473ffffffffffffffffffffffffffffffffffffffff1673ffffffffffffffffffffffffffffffffffffffff166108fc826001015490811502906040515f60405180830381858888f193505050501580156102ed573d5f803e3d5ffd5b5033815f015f6101000a81548173ffffffffffffffffffffffffffffffffffffffff021916908373ffffffffffffffffffffffffffffffffffffffff1602179055505f816005015f6101000a81548160ff0219169083151502179055505f81600201819055503373ffffffffffffffffffffffffffffffffffffffff167f7f6d8fc3a134404ed5833fb36b035431b384ed1faecf6cb9b58827c40e71969d826001015460405161039d91906108d3565b60405180910390a25050565b5f805f8373ffffffffffffffffffffffffffffffffffffffff1673ffffffffffffffffffffffffffffffffffffffff1681526020019081526020015f2090505f73ffffffffffffffffffffffffffffffffffffffff16815f015f9054906101000a900473ffffffffffffffffffffffffffffffffffffffff1673ffffffffffffffffffffffffffffffffffffffff1603610478576040517f08c379a000000000000000000000000000000000000000000000000000000000815260040161046f90610ad1565b60405180910390fd5b806005015f9054906101000a900460ff16156104c9576040517f08c379a00000000000000000000000000000000000000000000000000000000081526004016104c090610c2f565b60405180910390fd5b8060020154341461050f576040517f08c379a000000000000000000000000000000000000000000000000000000000815260040161050690610cbd565b60405180910390fd5b6001816005015f6101000a81548160ff02191690831515021790555062015180816003015461053e9190610d08565b426105499190610d49565b8160040181905550805f015f9054906101000a900473ffffffffffffffffffffffffffffffffffffffff1673ffffffffffffffffffffffffffffffffffffffff166108fc826002015490811502906040515f60405180830381858888f193505050501580156105ba573d5f803e3d5ffd5b503373ffffffffffffffffffffffffffffffffffffffff167f805ecc0a8a5bd3a06d7274608b789b709dfcbcaa69d2a525fa668d2ecd9efd87826004015460405161060591906108d3565b60405180910390a25050565b5f602052805f5260405f205f91509050805f015f9054906101000a900473ffffffffffffffffffffffffffffffffffffffff1690806001015490806002015490806003015490806004015490806005015f9054906101000a900460ff16905086565b5f83116106b5576040517f08c379a00000000000000000000000000000000000000000000000000000000081526004016106ac90610dc6565b60405180910390fd5b5f82116106f7576040517f08c379a00000000000000000000000000000000000000000000000000000000081526004016106ee90610e54565b60405180910390fd5b5f8111610739576040517f08c379a000000000000000000000000000000000000000000000000000000000815260040161073090610ee2565b60405180910390fd5b5f6040518060c001604052803373ffffffffffffffffffffffffffffffffffffffff1681526020018581526020018481526020018381526020015f81526020015f15158152509050805f803373ffffffffffffffffffffffffffffffffffffffff1673ffffffffffffffffffffffffffffffffffffffff1681526020019081526020015f205f820151815f015f6101000a81548173ffffffffffffffffffffffffffffffffffffffff021916908373ffffffffffffffffffffffffffffffffffffffff1602179055506020820151816001015560408201518160020155606082015181600301556080820151816004015560a0820151816005015f6101000a81548160ff02191690831515021790555090505060015f81548092919061085e90610f00565b91905055503373ffffffffffffffffffffffffffffffffffffffff167fa4dba689200e85ed3727de0f7e1e96b62560814e131e21c85c7b93981f6afb058585856040516108ad93929190610f47565b60405180910390a250505050565b5f819050919050565b6108cd816108bb565b82525050565b5f6020820190506108e65f8301846108c4565b92915050565b5f80fd5b5f73ffffffffffffffffffffffffffffffffffffffff82169050919050565b5f610919826108f0565b9050919050565b6109298161090f565b8114610933575f80fd5b50565b5f8135905061094481610920565b92915050565b5f6020828403121561095f5761095e6108ec565b5b5f61096c84828501610936565b91505092915050565b61097e8161090f565b82525050565b5f8115159050919050565b61099881610984565b82525050565b5f60c0820190506109b15f830189610975565b6109be60208301886108c4565b6109cb60408301876108c4565b6109d860608301866108c4565b6109e560808301856108c4565b6109f260a083018461098f565b979650505050505050565b610a06816108bb565b8114610a10575f80fd5b50565b5f81359050610a21816109fd565b92915050565b5f805f60608486031215610a3e57610a3d6108ec565b5b5f610a4b86828701610a13565b9350506020610a5c86828701610a13565b9250506040610a6d86828701610a13565b9150509250925092565b5f82825260208201905092915050565b7f436172206f776e6572206e6f7420666f756e642e0000000000000000000000005f82015250565b5f610abb601483610a77565b9150610ac682610a87565b602082019050919050565b5f6020820190508181035f830152610ae881610aaf565b9050919050565b7f4361722069732063757272656e746c79206c65617365642e00000000000000005f82015250565b5f610b23601883610a77565b9150610b2e82610aef565b602082019050919050565b5f6020820190508181035f830152610b5081610b17565b9050919050565b7f53656e7420616d6f756e74206d75737420626520657175616c20746f206361725f8201527f2070726963652e00000000000000000000000000000000000000000000000000602082015250565b5f610bb1602783610a77565b9150610bbc82610b57565b604082019050919050565b5f6020820190508181035f830152610bde81610ba5565b9050919050565b7f43617220697320616c7265616479206c65617365642e000000000000000000005f82015250565b5f610c19601683610a77565b9150610c2482610be5565b602082019050919050565b5f6020820190508181035f830152610c4681610c0d565b9050919050565b7f53656e7420616d6f756e74206d75737420626520657175616c20746f206465705f8201527f6f73697420616d6f756e742e0000000000000000000000000000000000000000602082015250565b5f610ca7602c83610a77565b9150610cb282610c4d565b604082019050919050565b5f6020820190508181035f830152610cd481610c9b565b9050919050565b7f4e487b71000000000000000000000000000000000000000000000000000000005f52601160045260245ffd5b5f610d12826108bb565b9150610d1d836108bb565b9250828202610d2b816108bb565b91508282048414831517610d4257610d41610cdb565b5b5092915050565b5f610d53826108bb565b9150610d5e836108bb565b9250828201905080821115610d7657610d75610cdb565b5b92915050565b7f5072696365206d7573742062652067726561746572207468616e207a65726f2e5f82015250565b5f610db0602083610a77565b9150610dbb82610d7c565b602082019050919050565b5f6020820190508181035f830152610ddd81610da4565b9050919050565b7f4465706f736974206d7573742062652067726561746572207468616e207a65725f8201527f6f2e000000000000000000000000000000000000000000000000000000000000602082015250565b5f610e3e602283610a77565b9150610e4982610de4565b604082019050919050565b5f6020820190508181035f830152610e6b81610e32565b9050919050565b7f4c65617365207465726d206d7573742062652067726561746572207468616e205f8201527f7a65726f2e000000000000000000000000000000000000000000000000000000602082015250565b5f610ecc602583610a77565b9150610ed782610e72565b604082019050919050565b5f6020820190508181035f830152610ef981610ec0565b9050919050565b5f610f0a826108bb565b91507fffffffffffffffffffffffffffffffffffffffffffffffffffffffffffffffff8203610f3c57610f3b610cdb565b5b600182019050919050565b5f606082019050610f5a5f8301866108c4565b610f6760208301856108c4565b610f7460408301846108c4565b94935050505056fea26469706673582212202d4954c2c7255533d0c3cccd50825ecc132834df3794990a96826e6a4f65979964736f6c634300081a0033",
			"opcodes": "PUSH1 0x80 PUSH1 0x40 MSTORE CALLVALUE DUP1 ISZERO PUSH1 0xE JUMPI PUSH0 DUP1 REVERT JUMPDEST POP PUSH0 PUSH1 0x1 DUP2 SWAP1 SSTORE POP PUSH2 0xFB2 DUP1 PUSH2 0x23 PUSH0 CODECOPY PUSH0 RETURN INVALID PUSH1 0x80 PUSH1 0x40 MSTORE PUSH1 0x4 CALLDATASIZE LT PUSH2 0x49 JUMPI PUSH0 CALLDATALOAD PUSH1 0xE0 SHR DUP1 PUSH4 0x297A1F56 EQ PUSH2 0x4D JUMPI DUP1 PUSH4 0x39FAF3AE EQ PUSH2 0x77 JUMPI DUP1 PUSH4 0x5E624A2A EQ PUSH2 0x93 JUMPI DUP1 PUSH4 0xAFD79CBD EQ PUSH2 0xAF JUMPI DUP1 PUSH4 0xEAE3C03F EQ PUSH2 0xF0 JUMPI JUMPDEST PUSH0 DUP1 REVERT JUMPDEST CALLVALUE DUP1 ISZERO PUSH2 0x58 JUMPI PUSH0 DUP1 REVERT JUMPDEST POP PUSH2 0x61 PUSH2 0x118 JUMP JUMPDEST PUSH1 0x40 MLOAD PUSH2 0x6E SWAP2 SWAP1 PUSH2 0x8D3 JUMP JUMPDEST PUSH1 0x40 MLOAD DUP1 SWAP2 SUB SWAP1 RETURN JUMPDEST PUSH2 0x91 PUSH1 0x4 DUP1 CALLDATASIZE SUB DUP2 ADD SWAP1 PUSH2 0x8C SWAP2 SWAP1 PUSH2 0x94A JUMP JUMPDEST PUSH2 0x11E JUMP JUMPDEST STOP JUMPDEST PUSH2 0xAD PUSH1 0x4 DUP1 CALLDATASIZE SUB DUP2 ADD SWAP1 PUSH2 0xA8 SWAP2 SWAP1 PUSH2 0x94A JUMP JUMPDEST PUSH2 0x3A9 JUMP JUMPDEST STOP JUMPDEST CALLVALUE DUP1 ISZERO PUSH2 0xBA JUMPI PUSH0 DUP1 REVERT JUMPDEST POP PUSH2 0xD5 PUSH1 0x4 DUP1 CALLDATASIZE SUB DUP2 ADD SWAP1 PUSH2 0xD0 SWAP2 SWAP1 PUSH2 0x94A JUMP JUMPDEST PUSH2 0x611 JUMP JUMPDEST PUSH1 0x40 MLOAD PUSH2 0xE7 SWAP7 SWAP6 SWAP5 SWAP4 SWAP3 SWAP2 SWAP1 PUSH2 0x99E JUMP JUMPDEST PUSH1 0x40 MLOAD DUP1 SWAP2 SUB SWAP1 RETURN JUMPDEST CALLVALUE DUP1 ISZERO PUSH2 0xFB JUMPI PUSH0 DUP1 REVERT JUMPDEST POP PUSH2 0x116 PUSH1 0x4 DUP1 CALLDATASIZE SUB DUP2 ADD SWAP1 PUSH2 0x111 SWAP2 SWAP1 PUSH2 0xA27 JUMP JUMPDEST PUSH2 0x673 JUMP JUMPDEST STOP JUMPDEST PUSH1 0x1 SLOAD DUP2 JUMP JUMPDEST PUSH0 DUP1 PUSH0 DUP4 PUSH20 0xFFFFFFFFFFFFFFFFFFFFFFFFFFFFFFFFFFFFFFFF AND PUSH20 0xFFFFFFFFFFFFFFFFFFFFFFFFFFFFFFFFFFFFFFFF AND DUP2 MSTORE PUSH1 0x20 ADD SWAP1 DUP2 MSTORE PUSH1 0x20 ADD PUSH0 KECCAK256 SWAP1 POP PUSH0 PUSH20 0xFFFFFFFFFFFFFFFFFFFFFFFFFFFFFFFFFFFFFFFF AND DUP2 PUSH0 ADD PUSH0 SWAP1 SLOAD SWAP1 PUSH2 0x100 EXP SWAP1 DIV PUSH20 0xFFFFFFFFFFFFFFFFFFFFFFFFFFFFFFFFFFFFFFFF AND PUSH20 0xFFFFFFFFFFFFFFFFFFFFFFFFFFFFFFFFFFFFFFFF AND SUB PUSH2 0x1ED JUMPI PUSH1 0x40 MLOAD PUSH32 0x8C379A000000000000000000000000000000000000000000000000000000000 DUP2 MSTORE PUSH1 0x4 ADD PUSH2 0x1E4 SWAP1 PUSH2 0xAD1 JUMP JUMPDEST PUSH1 0x40 MLOAD DUP1 SWAP2 SUB SWAP1 REVERT JUMPDEST DUP1 PUSH1 0x5 ADD PUSH0 SWAP1 SLOAD SWAP1 PUSH2 0x100 EXP SWAP1 DIV PUSH1 0xFF AND ISZERO PUSH2 0x23E JUMPI PUSH1 0x40 MLOAD PUSH32 0x8C379A000000000000000000000000000000000000000000000000000000000 DUP2 MSTORE PUSH1 0x4 ADD PUSH2 0x235 SWAP1 PUSH2 0xB39 JUMP JUMPDEST PUSH1 0x40 MLOAD DUP1 SWAP2 SUB SWAP1 REVERT JUMPDEST DUP1 PUSH1 0x1 ADD SLOAD CALLVALUE EQ PUSH2 0x284 JUMPI PUSH1 0x40 MLOAD PUSH32 0x8C379A000000000000000000000000000000000000000000000000000000000 DUP2 MSTORE PUSH1 0x4 ADD PUSH2 0x27B SWAP1 PUSH2 0xBC7 JUMP JUMPDEST PUSH1 0x40 MLOAD DUP1 SWAP2 SUB SWAP1 REVERT JUMPDEST DUP1 PUSH0 ADD PUSH0 SWAP1 SLOAD SWAP1 PUSH2 0x100 EXP SWAP1 DIV PUSH20 0xFFFFFFFFFFFFFFFFFFFFFFFFFFFFFFFFFFFFFFFF AND PUSH20 0xFFFFFFFFFFFFFFFFFFFFFFFFFFFFFFFFFFFFFFFF AND PUSH2 0x8FC DUP3 PUSH1 0x1 ADD SLOAD SWAP1 DUP2 ISZERO MUL SWAP1 PUSH1 0x40 MLOAD PUSH0 PUSH1 0x40 MLOAD DUP1 DUP4 SUB DUP2 DUP6 DUP9 DUP9 CALL SWAP4 POP POP POP POP ISZERO DUP1 ISZERO PUSH2 0x2ED JUMPI RETURNDATASIZE PUSH0 DUP1 RETURNDATACOPY RETURNDATASIZE PUSH0 REVERT JUMPDEST POP CALLER DUP2 PUSH0 ADD PUSH0 PUSH2 0x100 EXP DUP2 SLOAD DUP2 PUSH20 0xFFFFFFFFFFFFFFFFFFFFFFFFFFFFFFFFFFFFFFFF MUL NOT AND SWAP1 DUP4 PUSH20 0xFFFFFFFFFFFFFFFFFFFFFFFFFFFFFFFFFFFFFFFF AND MUL OR SWAP1 SSTORE POP PUSH0 DUP2 PUSH1 0x5 ADD PUSH0 PUSH2 0x100 EXP DUP2 SLOAD DUP2 PUSH1 0xFF MUL NOT AND SWAP1 DUP4 ISZERO ISZERO MUL OR SWAP1 SSTORE POP PUSH0 DUP2 PUSH1 0x2 ADD DUP2 SWAP1 SSTORE POP CALLER PUSH20 0xFFFFFFFFFFFFFFFFFFFFFFFFFFFFFFFFFFFFFFFF AND PUSH32 0x7F6D8FC3A134404ED5833FB36B035431B384ED1FAECF6CB9B58827C40E71969D DUP3 PUSH1 0x1 ADD SLOAD PUSH1 0x40 MLOAD PUSH2 0x39D SWAP2 SWAP1 PUSH2 0x8D3 JUMP JUMPDEST PUSH1 0x40 MLOAD DUP1 SWAP2 SUB SWAP1 LOG2 POP POP JUMP JUMPDEST PUSH0 DUP1 PUSH0 DUP4 PUSH20 0xFFFFFFFFFFFFFFFFFFFFFFFFFFFFFFFFFFFFFFFF AND PUSH20 0xFFFFFFFFFFFFFFFFFFFFFFFFFFFFFFFFFFFFFFFF AND DUP2 MSTORE PUSH1 0x20 ADD SWAP1 DUP2 MSTORE PUSH1 0x20 ADD PUSH0 KECCAK256 SWAP1 POP PUSH0 PUSH20 0xFFFFFFFFFFFFFFFFFFFFFFFFFFFFFFFFFFFFFFFF AND DUP2 PUSH0 ADD PUSH0 SWAP1 SLOAD SWAP1 PUSH2 0x100 EXP SWAP1 DIV PUSH20 0xFFFFFFFFFFFFFFFFFFFFFFFFFFFFFFFFFFFFFFFF AND PUSH20 0xFFFFFFFFFFFFFFFFFFFFFFFFFFFFFFFFFFFFFFFF AND SUB PUSH2 0x478 JUMPI PUSH1 0x40 MLOAD PUSH32 0x8C379A000000000000000000000000000000000000000000000000000000000 DUP2 MSTORE PUSH1 0x4 ADD PUSH2 0x46F SWAP1 PUSH2 0xAD1 JUMP JUMPDEST PUSH1 0x40 MLOAD DUP1 SWAP2 SUB SWAP1 REVERT JUMPDEST DUP1 PUSH1 0x5 ADD PUSH0 SWAP1 SLOAD SWAP1 PUSH2 0x100 EXP SWAP1 DIV PUSH1 0xFF AND ISZERO PUSH2 0x4C9 JUMPI PUSH1 0x40 MLOAD PUSH32 0x8C379A000000000000000000000000000000000000000000000000000000000 DUP2 MSTORE PUSH1 0x4 ADD PUSH2 0x4C0 SWAP1 PUSH2 0xC2F JUMP JUMPDEST PUSH1 0x40 MLOAD DUP1 SWAP2 SUB SWAP1 REVERT JUMPDEST DUP1 PUSH1 0x2 ADD SLOAD CALLVALUE EQ PUSH2 0x50F JUMPI PUSH1 0x40 MLOAD PUSH32 0x8C379A000000000000000000000000000000000000000000000000000000000 DUP2 MSTORE PUSH1 0x4 ADD PUSH2 0x506 SWAP1 PUSH2 0xCBD JUMP JUMPDEST PUSH1 0x40 MLOAD DUP1 SWAP2 SUB SWAP1 REVERT JUMPDEST PUSH1 0x1 DUP2 PUSH1 0x5 ADD PUSH0 PUSH2 0x100 EXP DUP2 SLOAD DUP2 PUSH1 0xFF MUL NOT AND SWAP1 DUP4 ISZERO ISZERO MUL OR SWAP1 SSTORE POP PUSH3 0x15180 DUP2 PUSH1 0x3 ADD SLOAD PUSH2 0x53E SWAP2 SWAP1 PUSH2 0xD08 JUMP JUMPDEST TIMESTAMP PUSH2 0x549 SWAP2 SWAP1 PUSH2 0xD49 JUMP JUMPDEST DUP2 PUSH1 0x4 ADD DUP2 SWAP1 SSTORE POP DUP1 PUSH0 ADD PUSH0 SWAP1 SLOAD SWAP1 PUSH2 0x100 EXP SWAP1 DIV PUSH20 0xFFFFFFFFFFFFFFFFFFFFFFFFFFFFFFFFFFFFFFFF AND PUSH20 0xFFFFFFFFFFFFFFFFFFFFFFFFFFFFFFFFFFFFFFFF AND PUSH2 0x8FC DUP3 PUSH1 0x2 ADD SLOAD SWAP1 DUP2 ISZERO MUL SWAP1 PUSH1 0x40 MLOAD PUSH0 PUSH1 0x40 MLOAD DUP1 DUP4 SUB DUP2 DUP6 DUP9 DUP9 CALL SWAP4 POP POP POP POP ISZERO DUP1 ISZERO PUSH2 0x5BA JUMPI RETURNDATASIZE PUSH0 DUP1 RETURNDATACOPY RETURNDATASIZE PUSH0 REVERT JUMPDEST POP CALLER PUSH20 0xFFFFFFFFFFFFFFFFFFFFFFFFFFFFFFFFFFFFFFFF AND PUSH32 0x805ECC0A8A5BD3A06D7274608B789B709DFCBCAA69D2A525FA668D2ECD9EFD87 DUP3 PUSH1 0x4 ADD SLOAD PUSH1 0x40 MLOAD PUSH2 0x605 SWAP2 SWAP1 PUSH2 0x8D3 JUMP JUMPDEST PUSH1 0x40 MLOAD DUP1 SWAP2 SUB SWAP1 LOG2 POP POP JUMP JUMPDEST PUSH0 PUSH1 0x20 MSTORE DUP1 PUSH0 MSTORE PUSH1 0x40 PUSH0 KECCAK256 PUSH0 SWAP2 POP SWAP1 POP DUP1 PUSH0 ADD PUSH0 SWAP1 SLOAD SWAP1 PUSH2 0x100 EXP SWAP1 DIV PUSH20 0xFFFFFFFFFFFFFFFFFFFFFFFFFFFFFFFFFFFFFFFF AND SWAP1 DUP1 PUSH1 0x1 ADD SLOAD SWAP1 DUP1 PUSH1 0x2 ADD SLOAD SWAP1 DUP1 PUSH1 0x3 ADD SLOAD SWAP1 DUP1 PUSH1 0x4 ADD SLOAD SWAP1 DUP1 PUSH1 0x5 ADD PUSH0 SWAP1 SLOAD SWAP1 PUSH2 0x100 EXP SWAP1 DIV PUSH1 0xFF AND SWAP1 POP DUP7 JUMP JUMPDEST PUSH0 DUP4 GT PUSH2 0x6B5 JUMPI PUSH1 0x40 MLOAD PUSH32 0x8C379A000000000000000000000000000000000000000000000000000000000 DUP2 MSTORE PUSH1 0x4 ADD PUSH2 0x6AC SWAP1 PUSH2 0xDC6 JUMP JUMPDEST PUSH1 0x40 MLOAD DUP1 SWAP2 SUB SWAP1 REVERT JUMPDEST PUSH0 DUP3 GT PUSH2 0x6F7 JUMPI PUSH1 0x40 MLOAD PUSH32 0x8C379A000000000000000000000000000000000000000000000000000000000 DUP2 MSTORE PUSH1 0x4 ADD PUSH2 0x6EE SWAP1 PUSH2 0xE54 JUMP JUMPDEST PUSH1 0x40 MLOAD DUP1 SWAP2 SUB SWAP1 REVERT JUMPDEST PUSH0 DUP2 GT PUSH2 0x739 JUMPI PUSH1 0x40 MLOAD PUSH32 0x8C379A000000000000000000000000000000000000000000000000000000000 DUP2 MSTORE PUSH1 0x4 ADD PUSH2 0x730 SWAP1 PUSH2 0xEE2 JUMP JUMPDEST PUSH1 0x40 MLOAD DUP1 SWAP2 SUB SWAP1 REVERT JUMPDEST PUSH0 PUSH1 0x40 MLOAD DUP1 PUSH1 0xC0 ADD PUSH1 0x40 MSTORE DUP1 CALLER PUSH20 0xFFFFFFFFFFFFFFFFFFFFFFFFFFFFFFFFFFFFFFFF AND DUP2 MSTORE PUSH1 0x20 ADD DUP6 DUP2 MSTORE PUSH1 0x20 ADD DUP5 DUP2 MSTORE PUSH1 0x20 ADD DUP4 DUP2 MSTORE PUSH1 0x20 ADD PUSH0 DUP2 MSTORE PUSH1 0x20 ADD PUSH0 ISZERO ISZERO DUP2 MSTORE POP SWAP1 POP DUP1 PUSH0 DUP1 CALLER PUSH20 0xFFFFFFFFFFFFFFFFFFFFFFFFFFFFFFFFFFFFFFFF AND PUSH20 0xFFFFFFFFFFFFFFFFFFFFFFFFFFFFFFFFFFFFFFFF AND DUP2 MSTORE PUSH1 0x20 ADD SWAP1 DUP2 MSTORE PUSH1 0x20 ADD PUSH0 KECCAK256 PUSH0 DUP3 ADD MLOAD DUP2 PUSH0 ADD PUSH0 PUSH2 0x100 EXP DUP2 SLOAD DUP2 PUSH20 0xFFFFFFFFFFFFFFFFFFFFFFFFFFFFFFFFFFFFFFFF MUL NOT AND SWAP1 DUP4 PUSH20 0xFFFFFFFFFFFFFFFFFFFFFFFFFFFFFFFFFFFFFFFF AND MUL OR SWAP1 SSTORE POP PUSH1 0x20 DUP3 ADD MLOAD DUP2 PUSH1 0x1 ADD SSTORE PUSH1 0x40 DUP3 ADD MLOAD DUP2 PUSH1 0x2 ADD SSTORE PUSH1 0x60 DUP3 ADD MLOAD DUP2 PUSH1 0x3 ADD SSTORE PUSH1 0x80 DUP3 ADD MLOAD DUP2 PUSH1 0x4 ADD SSTORE PUSH1 0xA0 DUP3 ADD MLOAD DUP2 PUSH1 0x5 ADD PUSH0 PUSH2 0x100 EXP DUP2 SLOAD DUP2 PUSH1 0xFF MUL NOT AND SWAP1 DUP4 ISZERO ISZERO MUL OR SWAP1 SSTORE POP SWAP1 POP POP PUSH1 0x1 PUSH0 DUP2 SLOAD DUP1 SWAP3 SWAP2 SWAP1 PUSH2 0x85E SWAP1 PUSH2 0xF00 JUMP JUMPDEST SWAP2 SWAP1 POP SSTORE POP CALLER PUSH20 0xFFFFFFFFFFFFFFFFFFFFFFFFFFFFFFFFFFFFFFFF AND PUSH32 0xA4DBA689200E85ED3727DE0F7E1E96B62560814E131E21C85C7B93981F6AFB05 DUP6 DUP6 DUP6 PUSH1 0x40 MLOAD PUSH2 0x8AD SWAP4 SWAP3 SWAP2 SWAP1 PUSH2 0xF47 JUMP JUMPDEST PUSH1 0x40 MLOAD DUP1 SWAP2 SUB SWAP1 LOG2 POP POP POP POP JUMP JUMPDEST PUSH0 DUP2 SWAP1 POP SWAP2 SWAP1 POP JUMP JUMPDEST PUSH2 0x8CD DUP2 PUSH2 0x8BB JUMP JUMPDEST DUP3 MSTORE POP POP JUMP JUMPDEST PUSH0 PUSH1 0x20 DUP3 ADD SWAP1 POP PUSH2 0x8E6 PUSH0 DUP4 ADD DUP5 PUSH2 0x8C4 JUMP JUMPDEST SWAP3 SWAP2 POP POP JUMP JUMPDEST PUSH0 DUP1 REVERT JUMPDEST PUSH0 PUSH20 0xFFFFFFFFFFFFFFFFFFFFFFFFFFFFFFFFFFFFFFFF DUP3 AND SWAP1 POP SWAP2 SWAP1 POP JUMP JUMPDEST PUSH0 PUSH2 0x919 DUP3 PUSH2 0x8F0 JUMP JUMPDEST SWAP1 POP SWAP2 SWAP1 POP JUMP JUMPDEST PUSH2 0x929 DUP2 PUSH2 0x90F JUMP JUMPDEST DUP2 EQ PUSH2 0x933 JUMPI PUSH0 DUP1 REVERT JUMPDEST POP JUMP JUMPDEST PUSH0 DUP2 CALLDATALOAD SWAP1 POP PUSH2 0x944 DUP2 PUSH2 0x920 JUMP JUMPDEST SWAP3 SWAP2 POP POP JUMP JUMPDEST PUSH0 PUSH1 0x20 DUP3 DUP5 SUB SLT ISZERO PUSH2 0x95F JUMPI PUSH2 0x95E PUSH2 0x8EC JUMP JUMPDEST JUMPDEST PUSH0 PUSH2 0x96C DUP5 DUP3 DUP6 ADD PUSH2 0x936 JUMP JUMPDEST SWAP2 POP POP SWAP3 SWAP2 POP POP JUMP JUMPDEST PUSH2 0x97E DUP2 PUSH2 0x90F JUMP JUMPDEST DUP3 MSTORE POP POP JUMP JUMPDEST PUSH0 DUP2 ISZERO ISZERO SWAP1 POP SWAP2 SWAP1 POP JUMP JUMPDEST PUSH2 0x998 DUP2 PUSH2 0x984 JUMP JUMPDEST DUP3 MSTORE POP POP JUMP JUMPDEST PUSH0 PUSH1 0xC0 DUP3 ADD SWAP1 POP PUSH2 0x9B1 PUSH0 DUP4 ADD DUP10 PUSH2 0x975 JUMP JUMPDEST PUSH2 0x9BE PUSH1 0x20 DUP4 ADD DUP9 PUSH2 0x8C4 JUMP JUMPDEST PUSH2 0x9CB PUSH1 0x40 DUP4 ADD DUP8 PUSH2 0x8C4 JUMP JUMPDEST PUSH2 0x9D8 PUSH1 0x60 DUP4 ADD DUP7 PUSH2 0x8C4 JUMP JUMPDEST PUSH2 0x9E5 PUSH1 0x80 DUP4 ADD DUP6 PUSH2 0x8C4 JUMP JUMPDEST PUSH2 0x9F2 PUSH1 0xA0 DUP4 ADD DUP5 PUSH2 0x98F JUMP JUMPDEST SWAP8 SWAP7 POP POP POP POP POP POP POP JUMP JUMPDEST PUSH2 0xA06 DUP2 PUSH2 0x8BB JUMP JUMPDEST DUP2 EQ PUSH2 0xA10 JUMPI PUSH0 DUP1 REVERT JUMPDEST POP JUMP JUMPDEST PUSH0 DUP2 CALLDATALOAD SWAP1 POP PUSH2 0xA21 DUP2 PUSH2 0x9FD JUMP JUMPDEST SWAP3 SWAP2 POP POP JUMP JUMPDEST PUSH0 DUP1 PUSH0 PUSH1 0x60 DUP5 DUP7 SUB SLT ISZERO PUSH2 0xA3E JUMPI PUSH2 0xA3D PUSH2 0x8EC JUMP JUMPDEST JUMPDEST PUSH0 PUSH2 0xA4B DUP7 DUP3 DUP8 ADD PUSH2 0xA13 JUMP JUMPDEST SWAP4 POP POP PUSH1 0x20 PUSH2 0xA5C DUP7 DUP3 DUP8 ADD PUSH2 0xA13 JUMP JUMPDEST SWAP3 POP POP PUSH1 0x40 PUSH2 0xA6D DUP7 DUP3 DUP8 ADD PUSH2 0xA13 JUMP JUMPDEST SWAP2 POP POP SWAP3 POP SWAP3 POP SWAP3 JUMP JUMPDEST PUSH0 DUP3 DUP3 MSTORE PUSH1 0x20 DUP3 ADD SWAP1 POP SWAP3 SWAP2 POP POP JUMP JUMPDEST PUSH32 0x436172206F776E6572206E6F7420666F756E642E000000000000000000000000 PUSH0 DUP3 ADD MSTORE POP JUMP JUMPDEST PUSH0 PUSH2 0xABB PUSH1 0x14 DUP4 PUSH2 0xA77 JUMP JUMPDEST SWAP2 POP PUSH2 0xAC6 DUP3 PUSH2 0xA87 JUMP JUMPDEST PUSH1 0x20 DUP3 ADD SWAP1 POP SWAP2 SWAP1 POP JUMP JUMPDEST PUSH0 PUSH1 0x20 DUP3 ADD SWAP1 POP DUP2 DUP2 SUB PUSH0 DUP4 ADD MSTORE PUSH2 0xAE8 DUP2 PUSH2 0xAAF JUMP JUMPDEST SWAP1 POP SWAP2 SWAP1 POP JUMP JUMPDEST PUSH32 0x4361722069732063757272656E746C79206C65617365642E0000000000000000 PUSH0 DUP3 ADD MSTORE POP JUMP JUMPDEST PUSH0 PUSH2 0xB23 PUSH1 0x18 DUP4 PUSH2 0xA77 JUMP JUMPDEST SWAP2 POP PUSH2 0xB2E DUP3 PUSH2 0xAEF JUMP JUMPDEST PUSH1 0x20 DUP3 ADD SWAP1 POP SWAP2 SWAP1 POP JUMP JUMPDEST PUSH0 PUSH1 0x20 DUP3 ADD SWAP1 POP DUP2 DUP2 SUB PUSH0 DUP4 ADD MSTORE PUSH2 0xB50 DUP2 PUSH2 0xB17 JUMP JUMPDEST SWAP1 POP SWAP2 SWAP1 POP JUMP JUMPDEST PUSH32 0x53656E7420616D6F756E74206D75737420626520657175616C20746F20636172 PUSH0 DUP3 ADD MSTORE PUSH32 0x2070726963652E00000000000000000000000000000000000000000000000000 PUSH1 0x20 DUP3 ADD MSTORE POP JUMP JUMPDEST PUSH0 PUSH2 0xBB1 PUSH1 0x27 DUP4 PUSH2 0xA77 JUMP JUMPDEST SWAP2 POP PUSH2 0xBBC DUP3 PUSH2 0xB57 JUMP JUMPDEST PUSH1 0x40 DUP3 ADD SWAP1 POP SWAP2 SWAP1 POP JUMP JUMPDEST PUSH0 PUSH1 0x20 DUP3 ADD SWAP1 POP DUP2 DUP2 SUB PUSH0 DUP4 ADD MSTORE PUSH2 0xBDE DUP2 PUSH2 0xBA5 JUMP JUMPDEST SWAP1 POP SWAP2 SWAP1 POP JUMP JUMPDEST PUSH32 0x43617220697320616C7265616479206C65617365642E00000000000000000000 PUSH0 DUP3 ADD MSTORE POP JUMP JUMPDEST PUSH0 PUSH2 0xC19 PUSH1 0x16 DUP4 PUSH2 0xA77 JUMP JUMPDEST SWAP2 POP PUSH2 0xC24 DUP3 PUSH2 0xBE5 JUMP JUMPDEST PUSH1 0x20 DUP3 ADD SWAP1 POP SWAP2 SWAP1 POP JUMP JUMPDEST PUSH0 PUSH1 0x20 DUP3 ADD SWAP1 POP DUP2 DUP2 SUB PUSH0 DUP4 ADD MSTORE PUSH2 0xC46 DUP2 PUSH2 0xC0D JUMP JUMPDEST SWAP1 POP SWAP2 SWAP1 POP JUMP JUMPDEST PUSH32 0x53656E7420616D6F756E74206D75737420626520657175616C20746F20646570 PUSH0 DUP3 ADD MSTORE PUSH32 0x6F73697420616D6F756E742E0000000000000000000000000000000000000000 PUSH1 0x20 DUP3 ADD MSTORE POP JUMP JUMPDEST PUSH0 PUSH2 0xCA7 PUSH1 0x2C DUP4 PUSH2 0xA77 JUMP JUMPDEST SWAP2 POP PUSH2 0xCB2 DUP3 PUSH2 0xC4D JUMP JUMPDEST PUSH1 0x40 DUP3 ADD SWAP1 POP SWAP2 SWAP1 POP JUMP JUMPDEST PUSH0 PUSH1 0x20 DUP3 ADD SWAP1 POP DUP2 DUP2 SUB PUSH0 DUP4 ADD MSTORE PUSH2 0xCD4 DUP2 PUSH2 0xC9B JUMP JUMPDEST SWAP1 POP SWAP2 SWAP1 POP JUMP JUMPDEST PUSH32 0x4E487B7100000000000000000000000000000000000000000000000000000000 PUSH0 MSTORE PUSH1 0x11 PUSH1 0x4 MSTORE PUSH1 0x24 PUSH0 REVERT JUMPDEST PUSH0 PUSH2 0xD12 DUP3 PUSH2 0x8BB JUMP JUMPDEST SWAP2 POP PUSH2 0xD1D DUP4 PUSH2 0x8BB JUMP JUMPDEST SWAP3 POP DUP3 DUP3 MUL PUSH2 0xD2B DUP2 PUSH2 0x8BB JUMP JUMPDEST SWAP2 POP DUP3 DUP3 DIV DUP5 EQ DUP4 ISZERO OR PUSH2 0xD42 JUMPI PUSH2 0xD41 PUSH2 0xCDB JUMP JUMPDEST JUMPDEST POP SWAP3 SWAP2 POP POP JUMP JUMPDEST PUSH0 PUSH2 0xD53 DUP3 PUSH2 0x8BB JUMP JUMPDEST SWAP2 POP PUSH2 0xD5E DUP4 PUSH2 0x8BB JUMP JUMPDEST SWAP3 POP DUP3 DUP3 ADD SWAP1 POP DUP1 DUP3 GT ISZERO PUSH2 0xD76 JUMPI PUSH2 0xD75 PUSH2 0xCDB JUMP JUMPDEST JUMPDEST SWAP3 SWAP2 POP POP JUMP JUMPDEST PUSH32 0x5072696365206D7573742062652067726561746572207468616E207A65726F2E PUSH0 DUP3 ADD MSTORE POP JUMP JUMPDEST PUSH0 PUSH2 0xDB0 PUSH1 0x20 DUP4 PUSH2 0xA77 JUMP JUMPDEST SWAP2 POP PUSH2 0xDBB DUP3 PUSH2 0xD7C JUMP JUMPDEST PUSH1 0x20 DUP3 ADD SWAP1 POP SWAP2 SWAP1 POP JUMP JUMPDEST PUSH0 PUSH1 0x20 DUP3 ADD SWAP1 POP DUP2 DUP2 SUB PUSH0 DUP4 ADD MSTORE PUSH2 0xDDD DUP2 PUSH2 0xDA4 JUMP JUMPDEST SWAP1 POP SWAP2 SWAP1 POP JUMP JUMPDEST PUSH32 0x4465706F736974206D7573742062652067726561746572207468616E207A6572 PUSH0 DUP3 ADD MSTORE PUSH32 0x6F2E000000000000000000000000000000000000000000000000000000000000 PUSH1 0x20 DUP3 ADD MSTORE POP JUMP JUMPDEST PUSH0 PUSH2 0xE3E PUSH1 0x22 DUP4 PUSH2 0xA77 JUMP JUMPDEST SWAP2 POP PUSH2 0xE49 DUP3 PUSH2 0xDE4 JUMP JUMPDEST PUSH1 0x40 DUP3 ADD SWAP1 POP SWAP2 SWAP1 POP JUMP JUMPDEST PUSH0 PUSH1 0x20 DUP3 ADD SWAP1 POP DUP2 DUP2 SUB PUSH0 DUP4 ADD MSTORE PUSH2 0xE6B DUP2 PUSH2 0xE32 JUMP JUMPDEST SWAP1 POP SWAP2 SWAP1 POP JUMP JUMPDEST PUSH32 0x4C65617365207465726D206D7573742062652067726561746572207468616E20 PUSH0 DUP3 ADD MSTORE PUSH32 0x7A65726F2E000000000000000000000000000000000000000000000000000000 PUSH1 0x20 DUP3 ADD MSTORE POP JUMP JUMPDEST PUSH0 PUSH2 0xECC PUSH1 0x25 DUP4 PUSH2 0xA77 JUMP JUMPDEST SWAP2 POP PUSH2 0xED7 DUP3 PUSH2 0xE72 JUMP JUMPDEST PUSH1 0x40 DUP3 ADD SWAP1 POP SWAP2 SWAP1 POP JUMP JUMPDEST PUSH0 PUSH1 0x20 DUP3 ADD SWAP1 POP DUP2 DUP2 SUB PUSH0 DUP4 ADD MSTORE PUSH2 0xEF9 DUP2 PUSH2 0xEC0 JUMP JUMPDEST SWAP1 POP SWAP2 SWAP1 POP JUMP JUMPDEST PUSH0 PUSH2 0xF0A DUP3 PUSH2 0x8BB JUMP JUMPDEST SWAP2 POP PUSH32 0xFFFFFFFFFFFFFFFFFFFFFFFFFFFFFFFFFFFFFFFFFFFFFFFFFFFFFFFFFFFFFFFF DUP3 SUB PUSH2 0xF3C JUMPI PUSH2 0xF3B PUSH2 0xCDB JUMP JUMPDEST JUMPDEST PUSH1 0x1 DUP3 ADD SWAP1 POP SWAP2 SWAP1 POP JUMP JUMPDEST PUSH0 PUSH1 0x60 DUP3 ADD SWAP1 POP PUSH2 0xF5A PUSH0 DUP4 ADD DUP7 PUSH2 0x8C4 JUMP JUMPDEST PUSH2 0xF67 PUSH1 0x20 DUP4 ADD DUP6 PUSH2 0x8C4 JUMP JUMPDEST PUSH2 0xF74 PUSH1 0x40 DUP4 ADD DUP5 PUSH2 0x8C4 JUMP JUMPDEST SWAP5 SWAP4 POP POP POP POP JUMP INVALID LOG2 PUSH5 0x6970667358 0x22 SLT KECCAK256 0x2D BLOBHASH SLOAD 0xC2 0xC7 0x25 SSTORE CALLER 0xD0 0xC3 0xCC 0xCD POP DUP3 MCOPY 0xCC SGT 0x28 CALLVALUE 0xDF CALLDATACOPY SWAP5 SWAP10 EXP SWAP7 DUP3 PUSH15 0x6A4F65979964736F6C634300081A00 CALLER "
		},
		"gasEstimates": {
			"creation": {
				"codeDepositCost": "803600",
				"executionCost": "5849",
				"totalCost": "809449"
			},
			"external": {
				"buyCar(address)": "infinite",
				"carCount()": "2403",
				"cars(address)": "infinite",
				"leaseCar(address)": "infinite",
				"registerCar(uint256,uint256,uint256)": "infinite"
			}
		},
		"methodIdentifiers": {
			"buyCar(address)": "39faf3ae",
			"carCount()": "297a1f56",
			"cars(address)": "afd79cbd",
			"leaseCar(address)": "5e624a2a",
			"registerCar(uint256,uint256,uint256)": "eae3c03f"
		}
	},
	"abi": [
		{
			"inputs": [],
			"stateMutability": "nonpayable",
			"type": "constructor"
		},
		{
			"anonymous": false,
			"inputs": [
				{
					"indexed": true,
					"internalType": "address",
					"name": "buyer",
					"type": "address"
				},
				{
					"indexed": false,
					"internalType": "uint256",
					"name": "price",
					"type": "uint256"
				}
			],
			"name": "CarBought",
			"type": "event"
		},
		{
			"anonymous": false,
			"inputs": [
				{
					"indexed": true,
					"internalType": "address",
					"name": "lessee",
					"type": "address"
				},
				{
					"indexed": false,
					"internalType": "uint256",
					"name": "leaseEnd",
					"type": "uint256"
				}
			],
			"name": "CarLeased",
			"type": "event"
		},
		{
			"anonymous": false,
			"inputs": [
				{
					"indexed": true,
					"internalType": "address",
					"name": "owner",
					"type": "address"
				},
				{
					"indexed": false,
					"internalType": "uint256",
					"name": "price",
					"type": "uint256"
				},
				{
					"indexed": false,
					"internalType": "uint256",
					"name": "deposit",
					"type": "uint256"
				},
				{
					"indexed": false,
					"internalType": "uint256",
					"name": "leaseTerm",
					"type": "uint256"
				}
			],
			"name": "CarRegistered",
			"type": "event"
		},
		{
			"inputs": [
				{
					"internalType": "address",
					"name": "_carOwner",
					"type": "address"
				}
			],
			"name": "buyCar",
			"outputs": [],
			"stateMutability": "payable",
			"type": "function"
		},
		{
			"inputs": [],
			"name": "carCount",
			"outputs": [
				{
					"internalType": "uint256",
					"name": "",
					"type": "uint256"
				}
			],
			"stateMutability": "view",
			"type": "function"
		},
		{
			"inputs": [
				{
					"internalType": "address",
					"name": "",
					"type": "address"
				}
			],
			"name": "cars",
			"outputs": [
				{
					"internalType": "address",
					"name": "owner",
					"type": "address"
				},
				{
					"internalType": "uint256",
					"name": "price",
					"type": "uint256"
				},
				{
					"internalType": "uint256",
					"name": "deposit",
					"type": "uint256"
				},
				{
					"internalType": "uint256",
					"name": "leaseTerm",
					"type": "uint256"
				},
				{
					"internalType": "uint256",
					"name": "leaseEnd",
					"type": "uint256"
				},
				{
					"internalType": "bool",
					"name": "isLeased",
					"type": "bool"
				}
			],
			"stateMutability": "view",
			"type": "function"
		},
		{
			"inputs": [
				{
					"internalType": "address",
					"name": "_carOwner",
					"type": "address"
				}
			],
			"name": "leaseCar",
			"outputs": [],
			"stateMutability": "payable",
			"type": "function"
		},
		{
			"inputs": [
				{
					"internalType": "uint256",
					"name": "_price",
					"type": "uint256"
				},
				{
					"internalType": "uint256",
					"name": "_deposit",
					"type": "uint256"
				},
				{
					"internalType": "uint256",
					"name": "_leaseTerm",
					"type": "uint256"
				}
			],
			"name": "registerCar",
			"outputs": [],
			"stateMutability": "nonpayable",
			"type": "function"
		}
	]
}