{
	"data": {
		"bytecode": {
			"linkReferences": {},
			"object": "6080604052348015600e575f80fd5b506107f18061001c5f395ff3fe608060405234801561000f575f80fd5b5060043610610034575f3560e01c8063a87430ba14610038578063d395100214610069575b5f80fd5b610052600480360381019061004d9190610241565b610085565b6040516100609291906102f4565b60405180910390f35b610083600480360381019061007e9190610478565b61012a565b005b5f602052805f5260405f205f91509050805f0180546100a3906104ff565b80601f01602080910402602001604051908101604052809291908181526020018280546100cf906104ff565b801561011a5780601f106100f15761010080835404028352916020019161011a565b820191905f5260205f20905b8154815290600101906020018083116100fd57829003601f168201915b5050505050908060010154905082565b5f805f3373ffffffffffffffffffffffffffffffffffffffff1673ffffffffffffffffffffffffffffffffffffffff1681526020019081526020015f20905082815f01908161017991906106cc565b508181600101819055503373ffffffffffffffffffffffffffffffffffffffff167f1d2b3529f3edbf84c2fbf46a16fa81880bd170f19142f18267f113903389a6dc846040516101c9919061079b565b60405180910390a2505050565b5f604051905090565b5f80fd5b5f80fd5b5f73ffffffffffffffffffffffffffffffffffffffff82169050919050565b5f610210826101e7565b9050919050565b61022081610206565b811461022a575f80fd5b50565b5f8135905061023b81610217565b92915050565b5f60208284031215610256576102556101df565b5b5f6102638482850161022d565b91505092915050565b5f81519050919050565b5f82825260208201905092915050565b8281835e5f83830152505050565b5f601f19601f8301169050919050565b5f6102ae8261026c565b6102b88185610276565b93506102c8818560208601610286565b6102d181610294565b840191505092915050565b5f819050919050565b6102ee816102dc565b82525050565b5f6040820190508181035f83015261030c81856102a4565b905061031b60208301846102e5565b9392505050565b5f80fd5b5f80fd5b7f4e487b71000000000000000000000000000000000000000000000000000000005f52604160045260245ffd5b61036082610294565b810181811067ffffffffffffffff8211171561037f5761037e61032a565b5b80604052505050565b5f6103916101d6565b905061039d8282610357565b919050565b5f67ffffffffffffffff8211156103bc576103bb61032a565b5b6103c582610294565b9050602081019050919050565b828183375f83830152505050565b5f6103f26103ed846103a2565b610388565b90508281526020810184848401111561040e5761040d610326565b5b6104198482856103d2565b509392505050565b5f82601f83011261043557610434610322565b5b81356104458482602086016103e0565b91505092915050565b610457816102dc565b8114610461575f80fd5b50565b5f813590506104728161044e565b92915050565b5f806040838503121561048e5761048d6101df565b5b5f83013567ffffffffffffffff8111156104ab576104aa6101e3565b5b6104b785828601610421565b92505060206104c885828601610464565b9150509250929050565b7f4e487b71000000000000000000000000000000000000000000000000000000005f52602260045260245ffd5b5f600282049050600182168061051657607f821691505b602082108103610529576105286104d2565b5b50919050565b5f819050815f5260205f209050919050565b5f6020601f8301049050919050565b5f82821b905092915050565b5f6008830261058b7fffffffffffffffffffffffffffffffffffffffffffffffffffffffffffffffff82610550565b6105958683610550565b95508019841693508086168417925050509392505050565b5f819050919050565b5f6105d06105cb6105c6846102dc565b6105ad565b6102dc565b9050919050565b5f819050919050565b6105e9836105b6565b6105fd6105f5826105d7565b84845461055c565b825550505050565b5f90565b610611610605565b61061c8184846105e0565b505050565b5b8181101561063f576106345f82610609565b600181019050610622565b5050565b601f821115610684576106558161052f565b61065e84610541565b8101602085101561066d578190505b61068161067985610541565b830182610621565b50505b505050565b5f82821c905092915050565b5f6106a45f1984600802610689565b1980831691505092915050565b5f6106bc8383610695565b9150826002028217905092915050565b6106d58261026c565b67ffffffffffffffff8111156106ee576106ed61032a565b5b6106f882546104ff565b610703828285610643565b5f60209050601f831160018114610734575f8415610722578287015190505b61072c85826106b1565b865550610793565b601f1984166107428661052f565b5f5b8281101561076957848901518255600182019150602085019450602081019050610744565b868310156107865784890151610782601f891682610695565b8355505b6001600288020188555050505b505050505050565b5f6020820190508181035f8301526107b381846102a4565b90509291505056fea264697066735822122097b69250bb7efa12ef08b79b7f9d08de8570552e5125b81e78782674538b3dcc64736f6c634300081a0033",
			"opcodes": "PUSH1 0x80 PUSH1 0x40 MSTORE CALLVALUE DUP1 ISZERO PUSH1 0xE JUMPI PUSH0 DUP1 REVERT JUMPDEST POP PUSH2 0x7F1 DUP1 PUSH2 0x1C PUSH0 CODECOPY PUSH0 RETURN INVALID PUSH1 0x80 PUSH1 0x40 MSTORE CALLVALUE DUP1 ISZERO PUSH2 0xF JUMPI PUSH0 DUP1 REVERT JUMPDEST POP PUSH1 0x4 CALLDATASIZE LT PUSH2 0x34 JUMPI PUSH0 CALLDATALOAD PUSH1 0xE0 SHR DUP1 PUSH4 0xA87430BA EQ PUSH2 0x38 JUMPI DUP1 PUSH4 0xD3951002 EQ PUSH2 0x69 JUMPI JUMPDEST PUSH0 DUP1 REVERT JUMPDEST PUSH2 0x52 PUSH1 0x4 DUP1 CALLDATASIZE SUB DUP2 ADD SWAP1 PUSH2 0x4D SWAP2 SWAP1 PUSH2 0x241 JUMP JUMPDEST PUSH2 0x85 JUMP JUMPDEST PUSH1 0x40 MLOAD PUSH2 0x60 SWAP3 SWAP2 SWAP1 PUSH2 0x2F4 JUMP JUMPDEST PUSH1 0x40 MLOAD DUP1 SWAP2 SUB SWAP1 RETURN JUMPDEST PUSH2 0x83 PUSH1 0x4 DUP1 CALLDATASIZE SUB DUP2 ADD SWAP1 PUSH2 0x7E SWAP2 SWAP1 PUSH2 0x478 JUMP JUMPDEST PUSH2 0x12A JUMP JUMPDEST STOP JUMPDEST PUSH0 PUSH1 0x20 MSTORE DUP1 PUSH0 MSTORE PUSH1 0x40 PUSH0 KECCAK256 PUSH0 SWAP2 POP SWAP1 POP DUP1 PUSH0 ADD DUP1 SLOAD PUSH2 0xA3 SWAP1 PUSH2 0x4FF JUMP JUMPDEST DUP1 PUSH1 0x1F ADD PUSH1 0x20 DUP1 SWAP2 DIV MUL PUSH1 0x20 ADD PUSH1 0x40 MLOAD SWAP1 DUP2 ADD PUSH1 0x40 MSTORE DUP1 SWAP3 SWAP2 SWAP1 DUP2 DUP2 MSTORE PUSH1 0x20 ADD DUP3 DUP1 SLOAD PUSH2 0xCF SWAP1 PUSH2 0x4FF JUMP JUMPDEST DUP1 ISZERO PUSH2 0x11A JUMPI DUP1 PUSH1 0x1F LT PUSH2 0xF1 JUMPI PUSH2 0x100 DUP1 DUP4 SLOAD DIV MUL DUP4 MSTORE SWAP2 PUSH1 0x20 ADD SWAP2 PUSH2 0x11A JUMP JUMPDEST DUP3 ADD SWAP2 SWAP1 PUSH0 MSTORE PUSH1 0x20 PUSH0 KECCAK256 SWAP1 JUMPDEST DUP2 SLOAD DUP2 MSTORE SWAP1 PUSH1 0x1 ADD SWAP1 PUSH1 0x20 ADD DUP1 DUP4 GT PUSH2 0xFD JUMPI DUP3 SWAP1 SUB PUSH1 0x1F AND DUP3 ADD SWAP2 JUMPDEST POP POP POP POP POP SWAP1 DUP1 PUSH1 0x1 ADD SLOAD SWAP1 POP DUP3 JUMP JUMPDEST PUSH0 DUP1 PUSH0 CALLER PUSH20 0xFFFFFFFFFFFFFFFFFFFFFFFFFFFFFFFFFFFFFFFF AND PUSH20 0xFFFFFFFFFFFFFFFFFFFFFFFFFFFFFFFFFFFFFFFF AND DUP2 MSTORE PUSH1 0x20 ADD SWAP1 DUP2 MSTORE PUSH1 0x20 ADD PUSH0 KECCAK256 SWAP1 POP DUP3 DUP2 PUSH0 ADD SWAP1 DUP2 PUSH2 0x179 SWAP2 SWAP1 PUSH2 0x6CC JUMP JUMPDEST POP DUP2 DUP2 PUSH1 0x1 ADD DUP2 SWAP1 SSTORE POP CALLER PUSH20 0xFFFFFFFFFFFFFFFFFFFFFFFFFFFFFFFFFFFFFFFF AND PUSH32 0x1D2B3529F3EDBF84C2FBF46A16FA81880BD170F19142F18267F113903389A6DC DUP5 PUSH1 0x40 MLOAD PUSH2 0x1C9 SWAP2 SWAP1 PUSH2 0x79B JUMP JUMPDEST PUSH1 0x40 MLOAD DUP1 SWAP2 SUB SWAP1 LOG2 POP POP POP JUMP JUMPDEST PUSH0 PUSH1 0x40 MLOAD SWAP1 POP SWAP1 JUMP JUMPDEST PUSH0 DUP1 REVERT JUMPDEST PUSH0 DUP1 REVERT JUMPDEST PUSH0 PUSH20 0xFFFFFFFFFFFFFFFFFFFFFFFFFFFFFFFFFFFFFFFF DUP3 AND SWAP1 POP SWAP2 SWAP1 POP JUMP JUMPDEST PUSH0 PUSH2 0x210 DUP3 PUSH2 0x1E7 JUMP JUMPDEST SWAP1 POP SWAP2 SWAP1 POP JUMP JUMPDEST PUSH2 0x220 DUP2 PUSH2 0x206 JUMP JUMPDEST DUP2 EQ PUSH2 0x22A JUMPI PUSH0 DUP1 REVERT JUMPDEST POP JUMP JUMPDEST PUSH0 DUP2 CALLDATALOAD SWAP1 POP PUSH2 0x23B DUP2 PUSH2 0x217 JUMP JUMPDEST SWAP3 SWAP2 POP POP JUMP JUMPDEST PUSH0 PUSH1 0x20 DUP3 DUP5 SUB SLT ISZERO PUSH2 0x256 JUMPI PUSH2 0x255 PUSH2 0x1DF JUMP JUMPDEST JUMPDEST PUSH0 PUSH2 0x263 DUP5 DUP3 DUP6 ADD PUSH2 0x22D JUMP JUMPDEST SWAP2 POP POP SWAP3 SWAP2 POP POP JUMP JUMPDEST PUSH0 DUP2 MLOAD SWAP1 POP SWAP2 SWAP1 POP JUMP JUMPDEST PUSH0 DUP3 DUP3 MSTORE PUSH1 0x20 DUP3 ADD SWAP1 POP SWAP3 SWAP2 POP POP JUMP JUMPDEST DUP3 DUP2 DUP4 MCOPY PUSH0 DUP4 DUP4 ADD MSTORE POP POP POP JUMP JUMPDEST PUSH0 PUSH1 0x1F NOT PUSH1 0x1F DUP4 ADD AND SWAP1 POP SWAP2 SWAP1 POP JUMP JUMPDEST PUSH0 PUSH2 0x2AE DUP3 PUSH2 0x26C JUMP JUMPDEST PUSH2 0x2B8 DUP2 DUP6 PUSH2 0x276 JUMP JUMPDEST SWAP4 POP PUSH2 0x2C8 DUP2 DUP6 PUSH1 0x20 DUP7 ADD PUSH2 0x286 JUMP JUMPDEST PUSH2 0x2D1 DUP2 PUSH2 0x294 JUMP JUMPDEST DUP5 ADD SWAP2 POP POP SWAP3 SWAP2 POP POP JUMP JUMPDEST PUSH0 DUP2 SWAP1 POP SWAP2 SWAP1 POP JUMP JUMPDEST PUSH2 0x2EE DUP2 PUSH2 0x2DC JUMP JUMPDEST DUP3 MSTORE POP POP JUMP JUMPDEST PUSH0 PUSH1 0x40 DUP3 ADD SWAP1 POP DUP2 DUP2 SUB PUSH0 DUP4 ADD MSTORE PUSH2 0x30C DUP2 DUP6 PUSH2 0x2A4 JUMP JUMPDEST SWAP1 POP PUSH2 0x31B PUSH1 0x20 DUP4 ADD DUP5 PUSH2 0x2E5 JUMP JUMPDEST SWAP4 SWAP3 POP POP POP JUMP JUMPDEST PUSH0 DUP1 REVERT JUMPDEST PUSH0 DUP1 REVERT JUMPDEST PUSH32 0x4E487B7100000000000000000000000000000000000000000000000000000000 PUSH0 MSTORE PUSH1 0x41 PUSH1 0x4 MSTORE PUSH1 0x24 PUSH0 REVERT JUMPDEST PUSH2 0x360 DUP3 PUSH2 0x294 JUMP JUMPDEST DUP2 ADD DUP2 DUP2 LT PUSH8 0xFFFFFFFFFFFFFFFF DUP3 GT OR ISZERO PUSH2 0x37F JUMPI PUSH2 0x37E PUSH2 0x32A JUMP JUMPDEST JUMPDEST DUP1 PUSH1 0x40 MSTORE POP POP POP JUMP JUMPDEST PUSH0 PUSH2 0x391 PUSH2 0x1D6 JUMP JUMPDEST SWAP1 POP PUSH2 0x39D DUP3 DUP3 PUSH2 0x357 JUMP JUMPDEST SWAP2 SWAP1 POP JUMP JUMPDEST PUSH0 PUSH8 0xFFFFFFFFFFFFFFFF DUP3 GT ISZERO PUSH2 0x3BC JUMPI PUSH2 0x3BB PUSH2 0x32A JUMP JUMPDEST JUMPDEST PUSH2 0x3C5 DUP3 PUSH2 0x294 JUMP JUMPDEST SWAP1 POP PUSH1 0x20 DUP2 ADD SWAP1 POP SWAP2 SWAP1 POP JUMP JUMPDEST DUP3 DUP2 DUP4 CALLDATACOPY PUSH0 DUP4 DUP4 ADD MSTORE POP POP POP JUMP JUMPDEST PUSH0 PUSH2 0x3F2 PUSH2 0x3ED DUP5 PUSH2 0x3A2 JUMP JUMPDEST PUSH2 0x388 JUMP JUMPDEST SWAP1 POP DUP3 DUP2 MSTORE PUSH1 0x20 DUP2 ADD DUP5 DUP5 DUP5 ADD GT ISZERO PUSH2 0x40E JUMPI PUSH2 0x40D PUSH2 0x326 JUMP JUMPDEST JUMPDEST PUSH2 0x419 DUP5 DUP3 DUP6 PUSH2 0x3D2 JUMP JUMPDEST POP SWAP4 SWAP3 POP POP POP JUMP JUMPDEST PUSH0 DUP3 PUSH1 0x1F DUP4 ADD SLT PUSH2 0x435 JUMPI PUSH2 0x434 PUSH2 0x322 JUMP JUMPDEST JUMPDEST DUP2 CALLDATALOAD PUSH2 0x445 DUP5 DUP3 PUSH1 0x20 DUP7 ADD PUSH2 0x3E0 JUMP JUMPDEST SWAP2 POP POP SWAP3 SWAP2 POP POP JUMP JUMPDEST PUSH2 0x457 DUP2 PUSH2 0x2DC JUMP JUMPDEST DUP2 EQ PUSH2 0x461 JUMPI PUSH0 DUP1 REVERT JUMPDEST POP JUMP JUMPDEST PUSH0 DUP2 CALLDATALOAD SWAP1 POP PUSH2 0x472 DUP2 PUSH2 0x44E JUMP JUMPDEST SWAP3 SWAP2 POP POP JUMP JUMPDEST PUSH0 DUP1 PUSH1 0x40 DUP4 DUP6 SUB SLT ISZERO PUSH2 0x48E JUMPI PUSH2 0x48D PUSH2 0x1DF JUMP JUMPDEST JUMPDEST PUSH0 DUP4 ADD CALLDATALOAD PUSH8 0xFFFFFFFFFFFFFFFF DUP2 GT ISZERO PUSH2 0x4AB JUMPI PUSH2 0x4AA PUSH2 0x1E3 JUMP JUMPDEST JUMPDEST PUSH2 0x4B7 DUP6 DUP3 DUP7 ADD PUSH2 0x421 JUMP JUMPDEST SWAP3 POP POP PUSH1 0x20 PUSH2 0x4C8 DUP6 DUP3 DUP7 ADD PUSH2 0x464 JUMP JUMPDEST SWAP2 POP POP SWAP3 POP SWAP3 SWAP1 POP JUMP JUMPDEST PUSH32 0x4E487B7100000000000000000000000000000000000000000000000000000000 PUSH0 MSTORE PUSH1 0x22 PUSH1 0x4 MSTORE PUSH1 0x24 PUSH0 REVERT JUMPDEST PUSH0 PUSH1 0x2 DUP3 DIV SWAP1 POP PUSH1 0x1 DUP3 AND DUP1 PUSH2 0x516 JUMPI PUSH1 0x7F DUP3 AND SWAP2 POP JUMPDEST PUSH1 0x20 DUP3 LT DUP2 SUB PUSH2 0x529 JUMPI PUSH2 0x528 PUSH2 0x4D2 JUMP JUMPDEST JUMPDEST POP SWAP2 SWAP1 POP JUMP JUMPDEST PUSH0 DUP2 SWAP1 POP DUP2 PUSH0 MSTORE PUSH1 0x20 PUSH0 KECCAK256 SWAP1 POP SWAP2 SWAP1 POP JUMP JUMPDEST PUSH0 PUSH1 0x20 PUSH1 0x1F DUP4 ADD DIV SWAP1 POP SWAP2 SWAP1 POP JUMP JUMPDEST PUSH0 DUP3 DUP3 SHL SWAP1 POP SWAP3 SWAP2 POP POP JUMP JUMPDEST PUSH0 PUSH1 0x8 DUP4 MUL PUSH2 0x58B PUSH32 0xFFFFFFFFFFFFFFFFFFFFFFFFFFFFFFFFFFFFFFFFFFFFFFFFFFFFFFFFFFFFFFFF DUP3 PUSH2 0x550 JUMP JUMPDEST PUSH2 0x595 DUP7 DUP4 PUSH2 0x550 JUMP JUMPDEST SWAP6 POP DUP1 NOT DUP5 AND SWAP4 POP DUP1 DUP7 AND DUP5 OR SWAP3 POP POP POP SWAP4 SWAP3 POP POP POP JUMP JUMPDEST PUSH0 DUP2 SWAP1 POP SWAP2 SWAP1 POP JUMP JUMPDEST PUSH0 PUSH2 0x5D0 PUSH2 0x5CB PUSH2 0x5C6 DUP5 PUSH2 0x2DC JUMP JUMPDEST PUSH2 0x5AD JUMP JUMPDEST PUSH2 0x2DC JUMP JUMPDEST SWAP1 POP SWAP2 SWAP1 POP JUMP JUMPDEST PUSH0 DUP2 SWAP1 POP SWAP2 SWAP1 POP JUMP JUMPDEST PUSH2 0x5E9 DUP4 PUSH2 0x5B6 JUMP JUMPDEST PUSH2 0x5FD PUSH2 0x5F5 DUP3 PUSH2 0x5D7 JUMP JUMPDEST DUP5 DUP5 SLOAD PUSH2 0x55C JUMP JUMPDEST DUP3 SSTORE POP POP POP POP JUMP JUMPDEST PUSH0 SWAP1 JUMP JUMPDEST PUSH2 0x611 PUSH2 0x605 JUMP JUMPDEST PUSH2 0x61C DUP2 DUP5 DUP5 PUSH2 0x5E0 JUMP JUMPDEST POP POP POP JUMP JUMPDEST JUMPDEST DUP2 DUP2 LT ISZERO PUSH2 0x63F JUMPI PUSH2 0x634 PUSH0 DUP3 PUSH2 0x609 JUMP JUMPDEST PUSH1 0x1 DUP2 ADD SWAP1 POP PUSH2 0x622 JUMP JUMPDEST POP POP JUMP JUMPDEST PUSH1 0x1F DUP3 GT ISZERO PUSH2 0x684 JUMPI PUSH2 0x655 DUP2 PUSH2 0x52F JUMP JUMPDEST PUSH2 0x65E DUP5 PUSH2 0x541 JUMP JUMPDEST DUP2 ADD PUSH1 0x20 DUP6 LT ISZERO PUSH2 0x66D JUMPI DUP2 SWAP1 POP JUMPDEST PUSH2 0x681 PUSH2 0x679 DUP6 PUSH2 0x541 JUMP JUMPDEST DUP4 ADD DUP3 PUSH2 0x621 JUMP JUMPDEST POP POP JUMPDEST POP POP POP JUMP JUMPDEST PUSH0 DUP3 DUP3 SHR SWAP1 POP SWAP3 SWAP2 POP POP JUMP JUMPDEST PUSH0 PUSH2 0x6A4 PUSH0 NOT DUP5 PUSH1 0x8 MUL PUSH2 0x689 JUMP JUMPDEST NOT DUP1 DUP4 AND SWAP2 POP POP SWAP3 SWAP2 POP POP JUMP JUMPDEST PUSH0 PUSH2 0x6BC DUP4 DUP4 PUSH2 0x695 JUMP JUMPDEST SWAP2 POP DUP3 PUSH1 0x2 MUL DUP3 OR SWAP1 POP SWAP3 SWAP2 POP POP JUMP JUMPDEST PUSH2 0x6D5 DUP3 PUSH2 0x26C JUMP JUMPDEST PUSH8 0xFFFFFFFFFFFFFFFF DUP2 GT ISZERO PUSH2 0x6EE JUMPI PUSH2 0x6ED PUSH2 0x32A JUMP JUMPDEST JUMPDEST PUSH2 0x6F8 DUP3 SLOAD PUSH2 0x4FF JUMP JUMPDEST PUSH2 0x703 DUP3 DUP3 DUP6 PUSH2 0x643 JUMP JUMPDEST PUSH0 PUSH1 0x20 SWAP1 POP PUSH1 0x1F DUP4 GT PUSH1 0x1 DUP2 EQ PUSH2 0x734 JUMPI PUSH0 DUP5 ISZERO PUSH2 0x722 JUMPI DUP3 DUP8 ADD MLOAD SWAP1 POP JUMPDEST PUSH2 0x72C DUP6 DUP3 PUSH2 0x6B1 JUMP JUMPDEST DUP7 SSTORE POP PUSH2 0x793 JUMP JUMPDEST PUSH1 0x1F NOT DUP5 AND PUSH2 0x742 DUP7 PUSH2 0x52F JUMP JUMPDEST PUSH0 JUMPDEST DUP3 DUP2 LT ISZERO PUSH2 0x769 JUMPI DUP5 DUP10 ADD MLOAD DUP3 SSTORE PUSH1 0x1 DUP3 ADD SWAP2 POP PUSH1 0x20 DUP6 ADD SWAP5 POP PUSH1 0x20 DUP2 ADD SWAP1 POP PUSH2 0x744 JUMP JUMPDEST DUP7 DUP4 LT ISZERO PUSH2 0x786 JUMPI DUP5 DUP10 ADD MLOAD PUSH2 0x782 PUSH1 0x1F DUP10 AND DUP3 PUSH2 0x695 JUMP JUMPDEST DUP4 SSTORE POP JUMPDEST PUSH1 0x1 PUSH1 0x2 DUP9 MUL ADD DUP9 SSTORE POP POP POP JUMPDEST POP POP POP POP POP POP JUMP JUMPDEST PUSH0 PUSH1 0x20 DUP3 ADD SWAP1 POP DUP2 DUP2 SUB PUSH0 DUP4 ADD MSTORE PUSH2 0x7B3 DUP2 DUP5 PUSH2 0x2A4 JUMP JUMPDEST SWAP1 POP SWAP3 SWAP2 POP POP JUMP INVALID LOG2 PUSH5 0x6970667358 0x22 SLT KECCAK256 SWAP8 0xB6 SWAP3 POP 0xBB PUSH31 0xFA12EF08B79B7F9D08DE8570552E5125B81E78782674538B3DCC64736F6C63 NUMBER STOP ADDMOD BYTE STOP CALLER "
		},
		"gasEstimates": {
			"creation": {
				"codeDepositCost": "406600",
				"executionCost": "441",
				"totalCost": "407041"
			},
			"external": {
				"registerUser(string,uint256)": "infinite",
				"users(address)": "infinite"
			}
		},
		"methodIdentifiers": {
			"registerUser(string,uint256)": "d3951002",
			"users(address)": "a87430ba"
		}
	},
	"abi": [
		{
			"anonymous": false,
			"inputs": [
				{
					"indexed": true,
					"internalType": "address",
					"name": "user",
					"type": "address"
				},
				{
					"indexed": false,
					"internalType": "string",
					"name": "username",
					"type": "string"
				}
			],
			"name": "NewUserRegistered",
			"type": "event"
		},
		{
			"inputs": [
				{
					"internalType": "string",
					"name": "_username",
					"type": "string"
				},
				{
					"internalType": "uint256",
					"name": "_age",
					"type": "uint256"
				}
			],
			"name": "registerUser",
			"outputs": [],
			"stateMutability": "nonpayable",
			"type": "function"
		},
		{
			"inputs": [
				{
					"internalType": "address",
					"name": "",
					"type": "address"
				}
			],
			"name": "users",
			"outputs": [
				{
					"internalType": "string",
					"name": "username",
					"type": "string"
				},
				{
					"internalType": "uint256",
					"name": "age",
					"type": "uint256"
				}
			],
			"stateMutability": "view",
			"type": "function"
		}
	]
}