{
	"data": {
		"bytecode": {
			"linkReferences": {},
			"object": "608060405234801561000f575f80fd5b5060405161094f38038061094f8339818101604052810190610031919061019b565b806001908161004091906103ef565b505f600281905550506104be565b5f604051905090565b5f80fd5b5f80fd5b5f80fd5b5f80fd5b5f601f19601f8301169050919050565b7f4e487b71000000000000000000000000000000000000000000000000000000005f52604160045260245ffd5b6100ad82610067565b810181811067ffffffffffffffff821117156100cc576100cb610077565b5b80604052505050565b5f6100de61004e565b90506100ea82826100a4565b919050565b5f67ffffffffffffffff82111561010957610108610077565b5b61011282610067565b9050602081019050919050565b8281835e5f83830152505050565b5f61013f61013a846100ef565b6100d5565b90508281526020810184848401111561015b5761015a610063565b5b61016684828561011f565b509392505050565b5f82601f8301126101825761018161005f565b5b815161019284826020860161012d565b91505092915050565b5f602082840312156101b0576101af610057565b5b5f82015167ffffffffffffffff8111156101cd576101cc61005b565b5b6101d98482850161016e565b91505092915050565b5f81519050919050565b7f4e487b71000000000000000000000000000000000000000000000000000000005f52602260045260245ffd5b5f600282049050600182168061023057607f821691505b602082108103610243576102426101ec565b5b50919050565b5f819050815f5260205f209050919050565b5f6020601f8301049050919050565b5f82821b905092915050565b5f600883026102a57fffffffffffffffffffffffffffffffffffffffffffffffffffffffffffffffff8261026a565b6102af868361026a565b95508019841693508086168417925050509392505050565b5f819050919050565b5f819050919050565b5f6102f36102ee6102e9846102c7565b6102d0565b6102c7565b9050919050565b5f819050919050565b61030c836102d9565b610320610318826102fa565b848454610276565b825550505050565b5f90565b610334610328565b61033f818484610303565b505050565b5b81811015610362576103575f8261032c565b600181019050610345565b5050565b601f8211156103a75761037881610249565b6103818461025b565b81016020851015610390578190505b6103a461039c8561025b565b830182610344565b50505b505050565b5f82821c905092915050565b5f6103c75f19846008026103ac565b1980831691505092915050565b5f6103df83836103b8565b9150826002028217905092915050565b6103f8826101e2565b67ffffffffffffffff81111561041157610410610077565b5b61041b8254610219565b610426828285610366565b5f60209050601f831160018114610457575f8415610445578287015190505b61044f85826103d4565b8655506104b6565b601f19841661046586610249565b5f5b8281101561048c57848901518255600182019150602085019450602081019050610467565b868310156104a957848901516104a5601f8916826103b8565b8355505b6001600288020188555050505b505050505050565b610484806104cb5f395ff3fe608060405234801561000f575f80fd5b5060043610610055575f3560e01c8063302bcc5714610059578063473bc22314610077578063d4f77b1c14610095578063d65ab5f21461009f578063e2eb41ff146100a9575b5f80fd5b6100616100d9565b60405161006e9190610218565b60405180910390f35b61007f6100df565b60405161008c91906102a1565b60405180910390f35b61009d61016b565b005b6100a761018c565b005b6100c360048036038101906100be919061031f565b61018e565b6040516100d09190610364565b60405180910390f35b60025481565b600180546100ec906103aa565b80601f0160208091040260200160405190810160405280929190818152602001828054610118906103aa565b80156101635780601f1061013a57610100808354040283529160200191610163565b820191905f5260205f20905b81548152906001019060200180831161014657829003601f168201915b505050505081565b6101736101aa565b60025f81548092919061018590610407565b9190505550565b565b5f602052805f5260405f205f915054906101000a900460ff1681565b60015f803373ffffffffffffffffffffffffffffffffffffffff1673ffffffffffffffffffffffffffffffffffffffff1681526020019081526020015f205f6101000a81548160ff021916908315150217905550565b5f819050919050565b61021281610200565b82525050565b5f60208201905061022b5f830184610209565b92915050565b5f81519050919050565b5f82825260208201905092915050565b8281835e5f83830152505050565b5f601f19601f8301169050919050565b5f61027382610231565b61027d818561023b565b935061028d81856020860161024b565b61029681610259565b840191505092915050565b5f6020820190508181035f8301526102b98184610269565b905092915050565b5f80fd5b5f73ffffffffffffffffffffffffffffffffffffffff82169050919050565b5f6102ee826102c5565b9050919050565b6102fe816102e4565b8114610308575f80fd5b50565b5f81359050610319816102f5565b92915050565b5f60208284031215610334576103336102c1565b5b5f6103418482850161030b565b91505092915050565b5f8115159050919050565b61035e8161034a565b82525050565b5f6020820190506103775f830184610355565b92915050565b7f4e487b71000000000000000000000000000000000000000000000000000000005f52602260045260245ffd5b5f60028204905060018216806103c157607f821691505b6020821081036103d4576103d361037d565b5b50919050565b7f4e487b71000000000000000000000000000000000000000000000000000000005f52601160045260245ffd5b5f61041182610200565b91507fffffffffffffffffffffffffffffffffffffffffffffffffffffffffffffffff8203610443576104426103da565b5b60018201905091905056fea264697066735822122014d5ac88befd4d63fca253ff92c2c70d4562be75556869931223faa47b33409764736f6c634300081a0033",
			"opcodes": "PUSH1 0x80 PUSH1 0x40 MSTORE CALLVALUE DUP1 ISZERO PUSH2 0xF JUMPI PUSH0 DUP1 REVERT JUMPDEST POP PUSH1 0x40 MLOAD PUSH2 0x94F CODESIZE SUB DUP1 PUSH2 0x94F DUP4 CODECOPY DUP2 DUP2 ADD PUSH1 0x40 MSTORE DUP2 ADD SWAP1 PUSH2 0x31 SWAP2 SWAP1 PUSH2 0x19B JUMP JUMPDEST DUP1 PUSH1 0x1 SWAP1 DUP2 PUSH2 0x40 SWAP2 SWAP1 PUSH2 0x3EF JUMP JUMPDEST POP PUSH0 PUSH1 0x2 DUP2 SWAP1 SSTORE POP POP PUSH2 0x4BE JUMP JUMPDEST PUSH0 PUSH1 0x40 MLOAD SWAP1 POP SWAP1 JUMP JUMPDEST PUSH0 DUP1 REVERT JUMPDEST PUSH0 DUP1 REVERT JUMPDEST PUSH0 DUP1 REVERT JUMPDEST PUSH0 DUP1 REVERT JUMPDEST PUSH0 PUSH1 0x1F NOT PUSH1 0x1F DUP4 ADD AND SWAP1 POP SWAP2 SWAP1 POP JUMP JUMPDEST PUSH32 0x4E487B7100000000000000000000000000000000000000000000000000000000 PUSH0 MSTORE PUSH1 0x41 PUSH1 0x4 MSTORE PUSH1 0x24 PUSH0 REVERT JUMPDEST PUSH2 0xAD DUP3 PUSH2 0x67 JUMP JUMPDEST DUP2 ADD DUP2 DUP2 LT PUSH8 0xFFFFFFFFFFFFFFFF DUP3 GT OR ISZERO PUSH2 0xCC JUMPI PUSH2 0xCB PUSH2 0x77 JUMP JUMPDEST JUMPDEST DUP1 PUSH1 0x40 MSTORE POP POP POP JUMP JUMPDEST PUSH0 PUSH2 0xDE PUSH2 0x4E JUMP JUMPDEST SWAP1 POP PUSH2 0xEA DUP3 DUP3 PUSH2 0xA4 JUMP JUMPDEST SWAP2 SWAP1 POP JUMP JUMPDEST PUSH0 PUSH8 0xFFFFFFFFFFFFFFFF DUP3 GT ISZERO PUSH2 0x109 JUMPI PUSH2 0x108 PUSH2 0x77 JUMP JUMPDEST JUMPDEST PUSH2 0x112 DUP3 PUSH2 0x67 JUMP JUMPDEST SWAP1 POP PUSH1 0x20 DUP2 ADD SWAP1 POP SWAP2 SWAP1 POP JUMP JUMPDEST DUP3 DUP2 DUP4 MCOPY PUSH0 DUP4 DUP4 ADD MSTORE POP POP POP JUMP JUMPDEST PUSH0 PUSH2 0x13F PUSH2 0x13A DUP5 PUSH2 0xEF JUMP JUMPDEST PUSH2 0xD5 JUMP JUMPDEST SWAP1 POP DUP3 DUP2 MSTORE PUSH1 0x20 DUP2 ADD DUP5 DUP5 DUP5 ADD GT ISZERO PUSH2 0x15B JUMPI PUSH2 0x15A PUSH2 0x63 JUMP JUMPDEST JUMPDEST PUSH2 0x166 DUP5 DUP3 DUP6 PUSH2 0x11F JUMP JUMPDEST POP SWAP4 SWAP3 POP POP POP JUMP JUMPDEST PUSH0 DUP3 PUSH1 0x1F DUP4 ADD SLT PUSH2 0x182 JUMPI PUSH2 0x181 PUSH2 0x5F JUMP JUMPDEST JUMPDEST DUP2 MLOAD PUSH2 0x192 DUP5 DUP3 PUSH1 0x20 DUP7 ADD PUSH2 0x12D JUMP JUMPDEST SWAP2 POP POP SWAP3 SWAP2 POP POP JUMP JUMPDEST PUSH0 PUSH1 0x20 DUP3 DUP5 SUB SLT ISZERO PUSH2 0x1B0 JUMPI PUSH2 0x1AF PUSH2 0x57 JUMP JUMPDEST JUMPDEST PUSH0 DUP3 ADD MLOAD PUSH8 0xFFFFFFFFFFFFFFFF DUP2 GT ISZERO PUSH2 0x1CD JUMPI PUSH2 0x1CC PUSH2 0x5B JUMP JUMPDEST JUMPDEST PUSH2 0x1D9 DUP5 DUP3 DUP6 ADD PUSH2 0x16E JUMP JUMPDEST SWAP2 POP POP SWAP3 SWAP2 POP POP JUMP JUMPDEST PUSH0 DUP2 MLOAD SWAP1 POP SWAP2 SWAP1 POP JUMP JUMPDEST PUSH32 0x4E487B7100000000000000000000000000000000000000000000000000000000 PUSH0 MSTORE PUSH1 0x22 PUSH1 0x4 MSTORE PUSH1 0x24 PUSH0 REVERT JUMPDEST PUSH0 PUSH1 0x2 DUP3 DIV SWAP1 POP PUSH1 0x1 DUP3 AND DUP1 PUSH2 0x230 JUMPI PUSH1 0x7F DUP3 AND SWAP2 POP JUMPDEST PUSH1 0x20 DUP3 LT DUP2 SUB PUSH2 0x243 JUMPI PUSH2 0x242 PUSH2 0x1EC JUMP JUMPDEST JUMPDEST POP SWAP2 SWAP1 POP JUMP JUMPDEST PUSH0 DUP2 SWAP1 POP DUP2 PUSH0 MSTORE PUSH1 0x20 PUSH0 KECCAK256 SWAP1 POP SWAP2 SWAP1 POP JUMP JUMPDEST PUSH0 PUSH1 0x20 PUSH1 0x1F DUP4 ADD DIV SWAP1 POP SWAP2 SWAP1 POP JUMP JUMPDEST PUSH0 DUP3 DUP3 SHL SWAP1 POP SWAP3 SWAP2 POP POP JUMP JUMPDEST PUSH0 PUSH1 0x8 DUP4 MUL PUSH2 0x2A5 PUSH32 0xFFFFFFFFFFFFFFFFFFFFFFFFFFFFFFFFFFFFFFFFFFFFFFFFFFFFFFFFFFFFFFFF DUP3 PUSH2 0x26A JUMP JUMPDEST PUSH2 0x2AF DUP7 DUP4 PUSH2 0x26A JUMP JUMPDEST SWAP6 POP DUP1 NOT DUP5 AND SWAP4 POP DUP1 DUP7 AND DUP5 OR SWAP3 POP POP POP SWAP4 SWAP3 POP POP POP JUMP JUMPDEST PUSH0 DUP2 SWAP1 POP SWAP2 SWAP1 POP JUMP JUMPDEST PUSH0 DUP2 SWAP1 POP SWAP2 SWAP1 POP JUMP JUMPDEST PUSH0 PUSH2 0x2F3 PUSH2 0x2EE PUSH2 0x2E9 DUP5 PUSH2 0x2C7 JUMP JUMPDEST PUSH2 0x2D0 JUMP JUMPDEST PUSH2 0x2C7 JUMP JUMPDEST SWAP1 POP SWAP2 SWAP1 POP JUMP JUMPDEST PUSH0 DUP2 SWAP1 POP SWAP2 SWAP1 POP JUMP JUMPDEST PUSH2 0x30C DUP4 PUSH2 0x2D9 JUMP JUMPDEST PUSH2 0x320 PUSH2 0x318 DUP3 PUSH2 0x2FA JUMP JUMPDEST DUP5 DUP5 SLOAD PUSH2 0x276 JUMP JUMPDEST DUP3 SSTORE POP POP POP POP JUMP JUMPDEST PUSH0 SWAP1 JUMP JUMPDEST PUSH2 0x334 PUSH2 0x328 JUMP JUMPDEST PUSH2 0x33F DUP2 DUP5 DUP5 PUSH2 0x303 JUMP JUMPDEST POP POP POP JUMP JUMPDEST JUMPDEST DUP2 DUP2 LT ISZERO PUSH2 0x362 JUMPI PUSH2 0x357 PUSH0 DUP3 PUSH2 0x32C JUMP JUMPDEST PUSH1 0x1 DUP2 ADD SWAP1 POP PUSH2 0x345 JUMP JUMPDEST POP POP JUMP JUMPDEST PUSH1 0x1F DUP3 GT ISZERO PUSH2 0x3A7 JUMPI PUSH2 0x378 DUP2 PUSH2 0x249 JUMP JUMPDEST PUSH2 0x381 DUP5 PUSH2 0x25B JUMP JUMPDEST DUP2 ADD PUSH1 0x20 DUP6 LT ISZERO PUSH2 0x390 JUMPI DUP2 SWAP1 POP JUMPDEST PUSH2 0x3A4 PUSH2 0x39C DUP6 PUSH2 0x25B JUMP JUMPDEST DUP4 ADD DUP3 PUSH2 0x344 JUMP JUMPDEST POP POP JUMPDEST POP POP POP JUMP JUMPDEST PUSH0 DUP3 DUP3 SHR SWAP1 POP SWAP3 SWAP2 POP POP JUMP JUMPDEST PUSH0 PUSH2 0x3C7 PUSH0 NOT DUP5 PUSH1 0x8 MUL PUSH2 0x3AC JUMP JUMPDEST NOT DUP1 DUP4 AND SWAP2 POP POP SWAP3 SWAP2 POP POP JUMP JUMPDEST PUSH0 PUSH2 0x3DF DUP4 DUP4 PUSH2 0x3B8 JUMP JUMPDEST SWAP2 POP DUP3 PUSH1 0x2 MUL DUP3 OR SWAP1 POP SWAP3 SWAP2 POP POP JUMP JUMPDEST PUSH2 0x3F8 DUP3 PUSH2 0x1E2 JUMP JUMPDEST PUSH8 0xFFFFFFFFFFFFFFFF DUP2 GT ISZERO PUSH2 0x411 JUMPI PUSH2 0x410 PUSH2 0x77 JUMP JUMPDEST JUMPDEST PUSH2 0x41B DUP3 SLOAD PUSH2 0x219 JUMP JUMPDEST PUSH2 0x426 DUP3 DUP3 DUP6 PUSH2 0x366 JUMP JUMPDEST PUSH0 PUSH1 0x20 SWAP1 POP PUSH1 0x1F DUP4 GT PUSH1 0x1 DUP2 EQ PUSH2 0x457 JUMPI PUSH0 DUP5 ISZERO PUSH2 0x445 JUMPI DUP3 DUP8 ADD MLOAD SWAP1 POP JUMPDEST PUSH2 0x44F DUP6 DUP3 PUSH2 0x3D4 JUMP JUMPDEST DUP7 SSTORE POP PUSH2 0x4B6 JUMP JUMPDEST PUSH1 0x1F NOT DUP5 AND PUSH2 0x465 DUP7 PUSH2 0x249 JUMP JUMPDEST PUSH0 JUMPDEST DUP3 DUP2 LT ISZERO PUSH2 0x48C JUMPI DUP5 DUP10 ADD MLOAD DUP3 SSTORE PUSH1 0x1 DUP3 ADD SWAP2 POP PUSH1 0x20 DUP6 ADD SWAP5 POP PUSH1 0x20 DUP2 ADD SWAP1 POP PUSH2 0x467 JUMP JUMPDEST DUP7 DUP4 LT ISZERO PUSH2 0x4A9 JUMPI DUP5 DUP10 ADD MLOAD PUSH2 0x4A5 PUSH1 0x1F DUP10 AND DUP3 PUSH2 0x3B8 JUMP JUMPDEST DUP4 SSTORE POP JUMPDEST PUSH1 0x1 PUSH1 0x2 DUP9 MUL ADD DUP9 SSTORE POP POP POP JUMPDEST POP POP POP POP POP POP JUMP JUMPDEST PUSH2 0x484 DUP1 PUSH2 0x4CB PUSH0 CODECOPY PUSH0 RETURN INVALID PUSH1 0x80 PUSH1 0x40 MSTORE CALLVALUE DUP1 ISZERO PUSH2 0xF JUMPI PUSH0 DUP1 REVERT JUMPDEST POP PUSH1 0x4 CALLDATASIZE LT PUSH2 0x55 JUMPI PUSH0 CALLDATALOAD PUSH1 0xE0 SHR DUP1 PUSH4 0x302BCC57 EQ PUSH2 0x59 JUMPI DUP1 PUSH4 0x473BC223 EQ PUSH2 0x77 JUMPI DUP1 PUSH4 0xD4F77B1C EQ PUSH2 0x95 JUMPI DUP1 PUSH4 0xD65AB5F2 EQ PUSH2 0x9F JUMPI DUP1 PUSH4 0xE2EB41FF EQ PUSH2 0xA9 JUMPI JUMPDEST PUSH0 DUP1 REVERT JUMPDEST PUSH2 0x61 PUSH2 0xD9 JUMP JUMPDEST PUSH1 0x40 MLOAD PUSH2 0x6E SWAP2 SWAP1 PUSH2 0x218 JUMP JUMPDEST PUSH1 0x40 MLOAD DUP1 SWAP2 SUB SWAP1 RETURN JUMPDEST PUSH2 0x7F PUSH2 0xDF JUMP JUMPDEST PUSH1 0x40 MLOAD PUSH2 0x8C SWAP2 SWAP1 PUSH2 0x2A1 JUMP JUMPDEST PUSH1 0x40 MLOAD DUP1 SWAP2 SUB SWAP1 RETURN JUMPDEST PUSH2 0x9D PUSH2 0x16B JUMP JUMPDEST STOP JUMPDEST PUSH2 0xA7 PUSH2 0x18C JUMP JUMPDEST STOP JUMPDEST PUSH2 0xC3 PUSH1 0x4 DUP1 CALLDATASIZE SUB DUP2 ADD SWAP1 PUSH2 0xBE SWAP2 SWAP1 PUSH2 0x31F JUMP JUMPDEST PUSH2 0x18E JUMP JUMPDEST PUSH1 0x40 MLOAD PUSH2 0xD0 SWAP2 SWAP1 PUSH2 0x364 JUMP JUMPDEST PUSH1 0x40 MLOAD DUP1 SWAP2 SUB SWAP1 RETURN JUMPDEST PUSH1 0x2 SLOAD DUP2 JUMP JUMPDEST PUSH1 0x1 DUP1 SLOAD PUSH2 0xEC SWAP1 PUSH2 0x3AA JUMP JUMPDEST DUP1 PUSH1 0x1F ADD PUSH1 0x20 DUP1 SWAP2 DIV MUL PUSH1 0x20 ADD PUSH1 0x40 MLOAD SWAP1 DUP2 ADD PUSH1 0x40 MSTORE DUP1 SWAP3 SWAP2 SWAP1 DUP2 DUP2 MSTORE PUSH1 0x20 ADD DUP3 DUP1 SLOAD PUSH2 0x118 SWAP1 PUSH2 0x3AA JUMP JUMPDEST DUP1 ISZERO PUSH2 0x163 JUMPI DUP1 PUSH1 0x1F LT PUSH2 0x13A JUMPI PUSH2 0x100 DUP1 DUP4 SLOAD DIV MUL DUP4 MSTORE SWAP2 PUSH1 0x20 ADD SWAP2 PUSH2 0x163 JUMP JUMPDEST DUP3 ADD SWAP2 SWAP1 PUSH0 MSTORE PUSH1 0x20 PUSH0 KECCAK256 SWAP1 JUMPDEST DUP2 SLOAD DUP2 MSTORE SWAP1 PUSH1 0x1 ADD SWAP1 PUSH1 0x20 ADD DUP1 DUP4 GT PUSH2 0x146 JUMPI DUP3 SWAP1 SUB PUSH1 0x1F AND DUP3 ADD SWAP2 JUMPDEST POP POP POP POP POP DUP2 JUMP JUMPDEST PUSH2 0x173 PUSH2 0x1AA JUMP JUMPDEST PUSH1 0x2 PUSH0 DUP2 SLOAD DUP1 SWAP3 SWAP2 SWAP1 PUSH2 0x185 SWAP1 PUSH2 0x407 JUMP JUMPDEST SWAP2 SWAP1 POP SSTORE POP JUMP JUMPDEST JUMP JUMPDEST PUSH0 PUSH1 0x20 MSTORE DUP1 PUSH0 MSTORE PUSH1 0x40 PUSH0 KECCAK256 PUSH0 SWAP2 POP SLOAD SWAP1 PUSH2 0x100 EXP SWAP1 DIV PUSH1 0xFF AND DUP2 JUMP JUMPDEST PUSH1 0x1 PUSH0 DUP1 CALLER PUSH20 0xFFFFFFFFFFFFFFFFFFFFFFFFFFFFFFFFFFFFFFFF AND PUSH20 0xFFFFFFFFFFFFFFFFFFFFFFFFFFFFFFFFFFFFFFFF AND DUP2 MSTORE PUSH1 0x20 ADD SWAP1 DUP2 MSTORE PUSH1 0x20 ADD PUSH0 KECCAK256 PUSH0 PUSH2 0x100 EXP DUP2 SLOAD DUP2 PUSH1 0xFF MUL NOT AND SWAP1 DUP4 ISZERO ISZERO MUL OR SWAP1 SSTORE POP JUMP JUMPDEST PUSH0 DUP2 SWAP1 POP SWAP2 SWAP1 POP JUMP JUMPDEST PUSH2 0x212 DUP2 PUSH2 0x200 JUMP JUMPDEST DUP3 MSTORE POP POP JUMP JUMPDEST PUSH0 PUSH1 0x20 DUP3 ADD SWAP1 POP PUSH2 0x22B PUSH0 DUP4 ADD DUP5 PUSH2 0x209 JUMP JUMPDEST SWAP3 SWAP2 POP POP JUMP JUMPDEST PUSH0 DUP2 MLOAD SWAP1 POP SWAP2 SWAP1 POP JUMP JUMPDEST PUSH0 DUP3 DUP3 MSTORE PUSH1 0x20 DUP3 ADD SWAP1 POP SWAP3 SWAP2 POP POP JUMP JUMPDEST DUP3 DUP2 DUP4 MCOPY PUSH0 DUP4 DUP4 ADD MSTORE POP POP POP JUMP JUMPDEST PUSH0 PUSH1 0x1F NOT PUSH1 0x1F DUP4 ADD AND SWAP1 POP SWAP2 SWAP1 POP JUMP JUMPDEST PUSH0 PUSH2 0x273 DUP3 PUSH2 0x231 JUMP JUMPDEST PUSH2 0x27D DUP2 DUP6 PUSH2 0x23B JUMP JUMPDEST SWAP4 POP PUSH2 0x28D DUP2 DUP6 PUSH1 0x20 DUP7 ADD PUSH2 0x24B JUMP JUMPDEST PUSH2 0x296 DUP2 PUSH2 0x259 JUMP JUMPDEST DUP5 ADD SWAP2 POP POP SWAP3 SWAP2 POP POP JUMP JUMPDEST PUSH0 PUSH1 0x20 DUP3 ADD SWAP1 POP DUP2 DUP2 SUB PUSH0 DUP4 ADD MSTORE PUSH2 0x2B9 DUP2 DUP5 PUSH2 0x269 JUMP JUMPDEST SWAP1 POP SWAP3 SWAP2 POP POP JUMP JUMPDEST PUSH0 DUP1 REVERT JUMPDEST PUSH0 PUSH20 0xFFFFFFFFFFFFFFFFFFFFFFFFFFFFFFFFFFFFFFFF DUP3 AND SWAP1 POP SWAP2 SWAP1 POP JUMP JUMPDEST PUSH0 PUSH2 0x2EE DUP3 PUSH2 0x2C5 JUMP JUMPDEST SWAP1 POP SWAP2 SWAP1 POP JUMP JUMPDEST PUSH2 0x2FE DUP2 PUSH2 0x2E4 JUMP JUMPDEST DUP2 EQ PUSH2 0x308 JUMPI PUSH0 DUP1 REVERT JUMPDEST POP JUMP JUMPDEST PUSH0 DUP2 CALLDATALOAD SWAP1 POP PUSH2 0x319 DUP2 PUSH2 0x2F5 JUMP JUMPDEST SWAP3 SWAP2 POP POP JUMP JUMPDEST PUSH0 PUSH1 0x20 DUP3 DUP5 SUB SLT ISZERO PUSH2 0x334 JUMPI PUSH2 0x333 PUSH2 0x2C1 JUMP JUMPDEST JUMPDEST PUSH0 PUSH2 0x341 DUP5 DUP3 DUP6 ADD PUSH2 0x30B JUMP JUMPDEST SWAP2 POP POP SWAP3 SWAP2 POP POP JUMP JUMPDEST PUSH0 DUP2 ISZERO ISZERO SWAP1 POP SWAP2 SWAP1 POP JUMP JUMPDEST PUSH2 0x35E DUP2 PUSH2 0x34A JUMP JUMPDEST DUP3 MSTORE POP POP JUMP JUMPDEST PUSH0 PUSH1 0x20 DUP3 ADD SWAP1 POP PUSH2 0x377 PUSH0 DUP4 ADD DUP5 PUSH2 0x355 JUMP JUMPDEST SWAP3 SWAP2 POP POP JUMP JUMPDEST PUSH32 0x4E487B7100000000000000000000000000000000000000000000000000000000 PUSH0 MSTORE PUSH1 0x22 PUSH1 0x4 MSTORE PUSH1 0x24 PUSH0 REVERT JUMPDEST PUSH0 PUSH1 0x2 DUP3 DIV SWAP1 POP PUSH1 0x1 DUP3 AND DUP1 PUSH2 0x3C1 JUMPI PUSH1 0x7F DUP3 AND SWAP2 POP JUMPDEST PUSH1 0x20 DUP3 LT DUP2 SUB PUSH2 0x3D4 JUMPI PUSH2 0x3D3 PUSH2 0x37D JUMP JUMPDEST JUMPDEST POP SWAP2 SWAP1 POP JUMP JUMPDEST PUSH32 0x4E487B7100000000000000000000000000000000000000000000000000000000 PUSH0 MSTORE PUSH1 0x11 PUSH1 0x4 MSTORE PUSH1 0x24 PUSH0 REVERT JUMPDEST PUSH0 PUSH2 0x411 DUP3 PUSH2 0x200 JUMP JUMPDEST SWAP2 POP PUSH32 0xFFFFFFFFFFFFFFFFFFFFFFFFFFFFFFFFFFFFFFFFFFFFFFFFFFFFFFFFFFFFFFFF DUP3 SUB PUSH2 0x443 JUMPI PUSH2 0x442 PUSH2 0x3DA JUMP JUMPDEST JUMPDEST PUSH1 0x1 DUP3 ADD SWAP1 POP SWAP2 SWAP1 POP JUMP INVALID LOG2 PUSH5 0x6970667358 0x22 SLT KECCAK256 EQ 0xD5 0xAC DUP9 0xBE REVERT 0x4D PUSH4 0xFCA253FF SWAP3 0xC2 0xC7 0xD GASLIMIT PUSH3 0xBE7555 PUSH9 0x69931223FAA47B3340 SWAP8 PUSH5 0x736F6C6343 STOP ADDMOD BYTE STOP CALLER "
		},
		"gasEstimates": {
			"creation": {
				"codeDepositCost": "231200",
				"executionCost": "infinite",
				"totalCost": "infinite"
			},
			"external": {
				"gameName()": "infinite",
				"joinGame()": "48896",
				"playerCount()": "2403",
				"players(address)": "2898",
				"startGame()": "187"
			}
		},
		"methodIdentifiers": {
			"gameName()": "473bc223",
			"joinGame()": "d4f77b1c",
			"playerCount()": "302bcc57",
			"players(address)": "e2eb41ff",
			"startGame()": "d65ab5f2"
		}
	},
	"abi": [
		{
			"inputs": [
				{
					"internalType": "string",
					"name": "_gameName",
					"type": "string"
				}
			],
			"stateMutability": "nonpayable",
			"type": "constructor"
		},
		{
			"inputs": [],
			"name": "gameName",
			"outputs": [
				{
					"internalType": "string",
					"name": "",
					"type": "string"
				}
			],
			"stateMutability": "view",
			"type": "function"
		},
		{
			"inputs": [],
			"name": "joinGame",
			"outputs": [],
			"stateMutability": "nonpayable",
			"type": "function"
		},
		{
			"inputs": [],
			"name": "playerCount",
			"outputs": [
				{
					"internalType": "uint256",
					"name": "",
					"type": "uint256"
				}
			],
			"stateMutability": "view",
			"type": "function"
		},
		{
			"inputs": [
				{
					"internalType": "address",
					"name": "",
					"type": "address"
				}
			],
			"name": "players",
			"outputs": [
				{
					"internalType": "bool",
					"name": "",
					"type": "bool"
				}
			],
			"stateMutability": "view",
			"type": "function"
		},
		{
			"inputs": [],
			"name": "startGame",
			"outputs": [],
			"stateMutability": "nonpayable",
			"type": "function"
		}
	]
}