{
	"data": {
		"bytecode": {
			"linkReferences": {},
			"object": "6080604052348015600e575f80fd5b506102238061001c5f395ff3fe608060405234801561000f575f80fd5b5060043610610029575f3560e01c8063b411ee941461002d575b5f80fd5b610047600480360381019061004291906101a6565b610049565b005b80805190602001205f8190555050565b5f604051905090565b5f80fd5b5f80fd5b5f80fd5b5f80fd5b5f601f19601f8301169050919050565b7f4e487b71000000000000000000000000000000000000000000000000000000005f52604160045260245ffd5b6100b882610072565b810181811067ffffffffffffffff821117156100d7576100d6610082565b5b80604052505050565b5f6100e9610059565b90506100f582826100af565b919050565b5f67ffffffffffffffff82111561011457610113610082565b5b61011d82610072565b9050602081019050919050565b828183375f83830152505050565b5f61014a610145846100fa565b6100e0565b9050828152602081018484840111156101665761016561006e565b5b61017184828561012a565b509392505050565b5f82601f83011261018d5761018c61006a565b5b813561019d848260208601610138565b91505092915050565b5f602082840312156101bb576101ba610062565b5b5f82013567ffffffffffffffff8111156101d8576101d7610066565b5b6101e484828501610179565b9150509291505056fea2646970667358221220064cd32def699a3b821631d7f06715b767166339520e980d8c6f2f61f2d5c73564736f6c634300081a0033",
			"opcodes": "PUSH1 0x80 PUSH1 0x40 MSTORE CALLVALUE DUP1 ISZERO PUSH1 0xE JUMPI PUSH0 DUP1 REVERT JUMPDEST POP PUSH2 0x223 DUP1 PUSH2 0x1C PUSH0 CODECOPY PUSH0 RETURN INVALID PUSH1 0x80 PUSH1 0x40 MSTORE CALLVALUE DUP1 ISZERO PUSH2 0xF JUMPI PUSH0 DUP1 REVERT JUMPDEST POP PUSH1 0x4 CALLDATASIZE LT PUSH2 0x29 JUMPI PUSH0 CALLDATALOAD PUSH1 0xE0 SHR DUP1 PUSH4 0xB411EE94 EQ PUSH2 0x2D JUMPI JUMPDEST PUSH0 DUP1 REVERT JUMPDEST PUSH2 0x47 PUSH1 0x4 DUP1 CALLDATASIZE SUB DUP2 ADD SWAP1 PUSH2 0x42 SWAP2 SWAP1 PUSH2 0x1A6 JUMP JUMPDEST PUSH2 0x49 JUMP JUMPDEST STOP JUMPDEST DUP1 DUP1 MLOAD SWAP1 PUSH1 0x20 ADD KECCAK256 PUSH0 DUP2 SWAP1 SSTORE POP POP JUMP JUMPDEST PUSH0 PUSH1 0x40 MLOAD SWAP1 POP SWAP1 JUMP JUMPDEST PUSH0 DUP1 REVERT JUMPDEST PUSH0 DUP1 REVERT JUMPDEST PUSH0 DUP1 REVERT JUMPDEST PUSH0 DUP1 REVERT JUMPDEST PUSH0 PUSH1 0x1F NOT PUSH1 0x1F DUP4 ADD AND SWAP1 POP SWAP2 SWAP1 POP JUMP JUMPDEST PUSH32 0x4E487B7100000000000000000000000000000000000000000000000000000000 PUSH0 MSTORE PUSH1 0x41 PUSH1 0x4 MSTORE PUSH1 0x24 PUSH0 REVERT JUMPDEST PUSH2 0xB8 DUP3 PUSH2 0x72 JUMP JUMPDEST DUP2 ADD DUP2 DUP2 LT PUSH8 0xFFFFFFFFFFFFFFFF DUP3 GT OR ISZERO PUSH2 0xD7 JUMPI PUSH2 0xD6 PUSH2 0x82 JUMP JUMPDEST JUMPDEST DUP1 PUSH1 0x40 MSTORE POP POP POP JUMP JUMPDEST PUSH0 PUSH2 0xE9 PUSH2 0x59 JUMP JUMPDEST SWAP1 POP PUSH2 0xF5 DUP3 DUP3 PUSH2 0xAF JUMP JUMPDEST SWAP2 SWAP1 POP JUMP JUMPDEST PUSH0 PUSH8 0xFFFFFFFFFFFFFFFF DUP3 GT ISZERO PUSH2 0x114 JUMPI PUSH2 0x113 PUSH2 0x82 JUMP JUMPDEST JUMPDEST PUSH2 0x11D DUP3 PUSH2 0x72 JUMP JUMPDEST SWAP1 POP PUSH1 0x20 DUP2 ADD SWAP1 POP SWAP2 SWAP1 POP JUMP JUMPDEST DUP3 DUP2 DUP4 CALLDATACOPY PUSH0 DUP4 DUP4 ADD MSTORE POP POP POP JUMP JUMPDEST PUSH0 PUSH2 0x14A PUSH2 0x145 DUP5 PUSH2 0xFA JUMP JUMPDEST PUSH2 0xE0 JUMP JUMPDEST SWAP1 POP DUP3 DUP2 MSTORE PUSH1 0x20 DUP2 ADD DUP5 DUP5 DUP5 ADD GT ISZERO PUSH2 0x166 JUMPI PUSH2 0x165 PUSH2 0x6E JUMP JUMPDEST JUMPDEST PUSH2 0x171 DUP5 DUP3 DUP6 PUSH2 0x12A JUMP JUMPDEST POP SWAP4 SWAP3 POP POP POP JUMP JUMPDEST PUSH0 DUP3 PUSH1 0x1F DUP4 ADD SLT PUSH2 0x18D JUMPI PUSH2 0x18C PUSH2 0x6A JUMP JUMPDEST JUMPDEST DUP2 CALLDATALOAD PUSH2 0x19D DUP5 DUP3 PUSH1 0x20 DUP7 ADD PUSH2 0x138 JUMP JUMPDEST SWAP2 POP POP SWAP3 SWAP2 POP POP JUMP JUMPDEST PUSH0 PUSH1 0x20 DUP3 DUP5 SUB SLT ISZERO PUSH2 0x1BB JUMPI PUSH2 0x1BA PUSH2 0x62 JUMP JUMPDEST JUMPDEST PUSH0 DUP3 ADD CALLDATALOAD PUSH8 0xFFFFFFFFFFFFFFFF DUP2 GT ISZERO PUSH2 0x1D8 JUMPI PUSH2 0x1D7 PUSH2 0x66 JUMP JUMPDEST JUMPDEST PUSH2 0x1E4 DUP5 DUP3 DUP6 ADD PUSH2 0x179 JUMP JUMPDEST SWAP2 POP POP SWAP3 SWAP2 POP POP JUMP INVALID LOG2 PUSH5 0x6970667358 0x22 SLT KECCAK256 MOD 0x4C 0xD3 0x2D 0xEF PUSH10 0x9A3B821631D7F06715B7 PUSH8 0x166339520E980D8C PUSH16 0x2F61F2D5C73564736F6C634300081A00 CALLER "
		},
		"gasEstimates": {
			"creation": {
				"codeDepositCost": "109400",
				"executionCost": "157",
				"totalCost": "109557"
			},
			"external": {
				"hash(string)": "infinite"
			}
		},
		"methodIdentifiers": {
			"hash(string)": "b411ee94"
		}
	},
	"abi": [
		{
			"inputs": [
				{
					"internalType": "string",
					"name": "_message",
					"type": "string"
				}
			],
			"name": "hash",
			"outputs": [],
			"stateMutability": "nonpayable",
			"type": "function"
		}
	]
}