{
	"data": {
		"bytecode": {
			"linkReferences": {},
			"object": "608060405260015f553480156012575f80fd5b50610d40806100205f395ff3fe608060405234801561000f575f80fd5b506004361061005f575f3560e01c8062d5c47714610063578063111002aa1461007f5780631d65e77e1461009b578063560f3192146100cd57806361b8ce8c146100e95780638d97767214610107575b5f80fd5b61007d60048036038101906100789190610786565b610139565b005b610099600480360381019061009491906107f2565b610210565b005b6100b560048036038101906100b09190610839565b6102d3565b6040516100c4939291906108e2565b60405180910390f35b6100e760048036038101906100e29190610839565b6103f1565b005b6100f16104bc565b6040516100fe919061091e565b60405180910390f35b610121600480360381019061011c9190610839565b6104c1565b604051610130939291906108e2565b60405180910390f35b5f60015f8581526020019081526020015f205f01540361018e576040517f08c379a000000000000000000000000000000000000000000000000000000000815260040161018590610981565b60405180910390fd5b5f60015f8581526020019081526020015f209050828160010190816101b39190610b99565b5081816002015f6101000a81548160ff0219169083151502179055507f731243b94fd6f4071f6ac97a26cb4cff681428631c877c64cdea5371290b01c1848484604051610202939291906108e2565b60405180910390a150505050565b60405180606001604052805f5481526020018281526020015f151581525060015f805481526020019081526020015f205f820151815f0155602082015181600101908161025d9190610b99565b506040820151816002015f6101000a81548160ff0219169083151502179055509050507fa5ed9e6226c584326505694539c95cb0e3238ae09bcda5a65c00bbfdab1c66625f54826040516102b2929190610c68565b60405180910390a15f808154809291906102cb90610cc3565b919050555050565b5f60605f8060015f8681526020019081526020015f205f01540361032c576040517f08c379a000000000000000000000000000000000000000000000000000000000815260040161032390610981565b60405180910390fd5b5f60015f8681526020019081526020015f209050805f015481600101826002015f9054906101000a900460ff16818054610365906109cc565b80601f0160208091040260200160405190810160405280929190818152602001828054610391906109cc565b80156103dc5780601f106103b3576101008083540402835291602001916103dc565b820191905f5260205f20905b8154815290600101906020018083116103bf57829003601f168201915b50505050509150935093509350509193909250565b5f60015f8381526020019081526020015f205f015403610446576040517f08c379a000000000000000000000000000000000000000000000000000000000815260040161043d90610981565b60405180910390fd5b60015f8281526020019081526020015f205f8082015f9055600182015f61046d9190610579565b600282015f6101000a81549060ff021916905550507fd078b251d950cc55c44340be1db732337ef4939a76e1367ee271ad2cb19c46af816040516104b1919061091e565b60405180910390a150565b5f5481565b6001602052805f5260405f205f91509050805f0154908060010180546104e6906109cc565b80601f0160208091040260200160405190810160405280929190818152602001828054610512906109cc565b801561055d5780601f106105345761010080835404028352916020019161055d565b820191905f5260205f20905b81548152906001019060200180831161054057829003601f168201915b505050505090806002015f9054906101000a900460ff16905083565b508054610585906109cc565b5f825580601f1061059657506105b3565b601f0160209004905f5260205f20908101906105b291906105b6565b5b50565b5b808211156105cd575f815f9055506001016105b7565b5090565b5f604051905090565b5f80fd5b5f80fd5b5f819050919050565b6105f4816105e2565b81146105fe575f80fd5b50565b5f8135905061060f816105eb565b92915050565b5f80fd5b5f80fd5b5f601f19601f8301169050919050565b7f4e487b71000000000000000000000000000000000000000000000000000000005f52604160045260245ffd5b6106638261061d565b810181811067ffffffffffffffff821117156106825761068161062d565b5b80604052505050565b5f6106946105d1565b90506106a0828261065a565b919050565b5f67ffffffffffffffff8211156106bf576106be61062d565b5b6106c88261061d565b9050602081019050919050565b828183375f83830152505050565b5f6106f56106f0846106a5565b61068b565b90508281526020810184848401111561071157610710610619565b5b61071c8482856106d5565b509392505050565b5f82601f83011261073857610737610615565b5b81356107488482602086016106e3565b91505092915050565b5f8115159050919050565b61076581610751565b811461076f575f80fd5b50565b5f813590506107808161075c565b92915050565b5f805f6060848603121561079d5761079c6105da565b5b5f6107aa86828701610601565b935050602084013567ffffffffffffffff8111156107cb576107ca6105de565b5b6107d786828701610724565b92505060406107e886828701610772565b9150509250925092565b5f60208284031215610807576108066105da565b5b5f82013567ffffffffffffffff811115610824576108236105de565b5b61083084828501610724565b91505092915050565b5f6020828403121561084e5761084d6105da565b5b5f61085b84828501610601565b91505092915050565b61086d816105e2565b82525050565b5f81519050919050565b5f82825260208201905092915050565b8281835e5f83830152505050565b5f6108a582610873565b6108af818561087d565b93506108bf81856020860161088d565b6108c88161061d565b840191505092915050565b6108dc81610751565b82525050565b5f6060820190506108f55f830186610864565b8181036020830152610907818561089b565b905061091660408301846108d3565b949350505050565b5f6020820190506109315f830184610864565b92915050565b7f5461736b206e6f7420666f756e640000000000000000000000000000000000005f82015250565b5f61096b600e8361087d565b915061097682610937565b602082019050919050565b5f6020820190508181035f8301526109988161095f565b9050919050565b7f4e487b71000000000000000000000000000000000000000000000000000000005f52602260045260245ffd5b5f60028204905060018216806109e357607f821691505b6020821081036109f6576109f561099f565b5b50919050565b5f819050815f5260205f209050919050565b5f6020601f8301049050919050565b5f82821b905092915050565b5f60088302610a587fffffffffffffffffffffffffffffffffffffffffffffffffffffffffffffffff82610a1d565b610a628683610a1d565b95508019841693508086168417925050509392505050565b5f819050919050565b5f610a9d610a98610a93846105e2565b610a7a565b6105e2565b9050919050565b5f819050919050565b610ab683610a83565b610aca610ac282610aa4565b848454610a29565b825550505050565b5f90565b610ade610ad2565b610ae9818484610aad565b505050565b5b81811015610b0c57610b015f82610ad6565b600181019050610aef565b5050565b601f821115610b5157610b22816109fc565b610b2b84610a0e565b81016020851015610b3a578190505b610b4e610b4685610a0e565b830182610aee565b50505b505050565b5f82821c905092915050565b5f610b715f1984600802610b56565b1980831691505092915050565b5f610b898383610b62565b9150826002028217905092915050565b610ba282610873565b67ffffffffffffffff811115610bbb57610bba61062d565b5b610bc582546109cc565b610bd0828285610b10565b5f60209050601f831160018114610c01575f8415610bef578287015190505b610bf98582610b7e565b865550610c60565b601f198416610c0f866109fc565b5f5b82811015610c3657848901518255600182019150602085019450602081019050610c11565b86831015610c535784890151610c4f601f891682610b62565b8355505b6001600288020188555050505b505050505050565b5f604082019050610c7b5f830185610864565b8181036020830152610c8d818461089b565b90509392505050565b7f4e487b71000000000000000000000000000000000000000000000000000000005f52601160045260245ffd5b5f610ccd826105e2565b91507fffffffffffffffffffffffffffffffffffffffffffffffffffffffffffffffff8203610cff57610cfe610c96565b5b60018201905091905056fea26469706673582212203adb97566791424fed390ae4c30bd279d332a215ba36dc41d5f7265e234a0b1c64736f6c634300081a0033",
			"opcodes": "PUSH1 0x80 PUSH1 0x40 MSTORE PUSH1 0x1 PUSH0 SSTORE CALLVALUE DUP1 ISZERO PUSH1 0x12 JUMPI PUSH0 DUP1 REVERT JUMPDEST POP PUSH2 0xD40 DUP1 PUSH2 0x20 PUSH0 CODECOPY PUSH0 RETURN INVALID PUSH1 0x80 PUSH1 0x40 MSTORE CALLVALUE DUP1 ISZERO PUSH2 0xF JUMPI PUSH0 DUP1 REVERT JUMPDEST POP PUSH1 0x4 CALLDATASIZE LT PUSH2 0x5F JUMPI PUSH0 CALLDATALOAD PUSH1 0xE0 SHR DUP1 PUSH3 0xD5C477 EQ PUSH2 0x63 JUMPI DUP1 PUSH4 0x111002AA EQ PUSH2 0x7F JUMPI DUP1 PUSH4 0x1D65E77E EQ PUSH2 0x9B JUMPI DUP1 PUSH4 0x560F3192 EQ PUSH2 0xCD JUMPI DUP1 PUSH4 0x61B8CE8C EQ PUSH2 0xE9 JUMPI DUP1 PUSH4 0x8D977672 EQ PUSH2 0x107 JUMPI JUMPDEST PUSH0 DUP1 REVERT JUMPDEST PUSH2 0x7D PUSH1 0x4 DUP1 CALLDATASIZE SUB DUP2 ADD SWAP1 PUSH2 0x78 SWAP2 SWAP1 PUSH2 0x786 JUMP JUMPDEST PUSH2 0x139 JUMP JUMPDEST STOP JUMPDEST PUSH2 0x99 PUSH1 0x4 DUP1 CALLDATASIZE SUB DUP2 ADD SWAP1 PUSH2 0x94 SWAP2 SWAP1 PUSH2 0x7F2 JUMP JUMPDEST PUSH2 0x210 JUMP JUMPDEST STOP JUMPDEST PUSH2 0xB5 PUSH1 0x4 DUP1 CALLDATASIZE SUB DUP2 ADD SWAP1 PUSH2 0xB0 SWAP2 SWAP1 PUSH2 0x839 JUMP JUMPDEST PUSH2 0x2D3 JUMP JUMPDEST PUSH1 0x40 MLOAD PUSH2 0xC4 SWAP4 SWAP3 SWAP2 SWAP1 PUSH2 0x8E2 JUMP JUMPDEST PUSH1 0x40 MLOAD DUP1 SWAP2 SUB SWAP1 RETURN JUMPDEST PUSH2 0xE7 PUSH1 0x4 DUP1 CALLDATASIZE SUB DUP2 ADD SWAP1 PUSH2 0xE2 SWAP2 SWAP1 PUSH2 0x839 JUMP JUMPDEST PUSH2 0x3F1 JUMP JUMPDEST STOP JUMPDEST PUSH2 0xF1 PUSH2 0x4BC JUMP JUMPDEST PUSH1 0x40 MLOAD PUSH2 0xFE SWAP2 SWAP1 PUSH2 0x91E JUMP JUMPDEST PUSH1 0x40 MLOAD DUP1 SWAP2 SUB SWAP1 RETURN JUMPDEST PUSH2 0x121 PUSH1 0x4 DUP1 CALLDATASIZE SUB DUP2 ADD SWAP1 PUSH2 0x11C SWAP2 SWAP1 PUSH2 0x839 JUMP JUMPDEST PUSH2 0x4C1 JUMP JUMPDEST PUSH1 0x40 MLOAD PUSH2 0x130 SWAP4 SWAP3 SWAP2 SWAP1 PUSH2 0x8E2 JUMP JUMPDEST PUSH1 0x40 MLOAD DUP1 SWAP2 SUB SWAP1 RETURN JUMPDEST PUSH0 PUSH1 0x1 PUSH0 DUP6 DUP2 MSTORE PUSH1 0x20 ADD SWAP1 DUP2 MSTORE PUSH1 0x20 ADD PUSH0 KECCAK256 PUSH0 ADD SLOAD SUB PUSH2 0x18E JUMPI PUSH1 0x40 MLOAD PUSH32 0x8C379A000000000000000000000000000000000000000000000000000000000 DUP2 MSTORE PUSH1 0x4 ADD PUSH2 0x185 SWAP1 PUSH2 0x981 JUMP JUMPDEST PUSH1 0x40 MLOAD DUP1 SWAP2 SUB SWAP1 REVERT JUMPDEST PUSH0 PUSH1 0x1 PUSH0 DUP6 DUP2 MSTORE PUSH1 0x20 ADD SWAP1 DUP2 MSTORE PUSH1 0x20 ADD PUSH0 KECCAK256 SWAP1 POP DUP3 DUP2 PUSH1 0x1 ADD SWAP1 DUP2 PUSH2 0x1B3 SWAP2 SWAP1 PUSH2 0xB99 JUMP JUMPDEST POP DUP2 DUP2 PUSH1 0x2 ADD PUSH0 PUSH2 0x100 EXP DUP2 SLOAD DUP2 PUSH1 0xFF MUL NOT AND SWAP1 DUP4 ISZERO ISZERO MUL OR SWAP1 SSTORE POP PUSH32 0x731243B94FD6F4071F6AC97A26CB4CFF681428631C877C64CDEA5371290B01C1 DUP5 DUP5 DUP5 PUSH1 0x40 MLOAD PUSH2 0x202 SWAP4 SWAP3 SWAP2 SWAP1 PUSH2 0x8E2 JUMP JUMPDEST PUSH1 0x40 MLOAD DUP1 SWAP2 SUB SWAP1 LOG1 POP POP POP POP JUMP JUMPDEST PUSH1 0x40 MLOAD DUP1 PUSH1 0x60 ADD PUSH1 0x40 MSTORE DUP1 PUSH0 SLOAD DUP2 MSTORE PUSH1 0x20 ADD DUP3 DUP2 MSTORE PUSH1 0x20 ADD PUSH0 ISZERO ISZERO DUP2 MSTORE POP PUSH1 0x1 PUSH0 DUP1 SLOAD DUP2 MSTORE PUSH1 0x20 ADD SWAP1 DUP2 MSTORE PUSH1 0x20 ADD PUSH0 KECCAK256 PUSH0 DUP3 ADD MLOAD DUP2 PUSH0 ADD SSTORE PUSH1 0x20 DUP3 ADD MLOAD DUP2 PUSH1 0x1 ADD SWAP1 DUP2 PUSH2 0x25D SWAP2 SWAP1 PUSH2 0xB99 JUMP JUMPDEST POP PUSH1 0x40 DUP3 ADD MLOAD DUP2 PUSH1 0x2 ADD PUSH0 PUSH2 0x100 EXP DUP2 SLOAD DUP2 PUSH1 0xFF MUL NOT AND SWAP1 DUP4 ISZERO ISZERO MUL OR SWAP1 SSTORE POP SWAP1 POP POP PUSH32 0xA5ED9E6226C584326505694539C95CB0E3238AE09BCDA5A65C00BBFDAB1C6662 PUSH0 SLOAD DUP3 PUSH1 0x40 MLOAD PUSH2 0x2B2 SWAP3 SWAP2 SWAP1 PUSH2 0xC68 JUMP JUMPDEST PUSH1 0x40 MLOAD DUP1 SWAP2 SUB SWAP1 LOG1 PUSH0 DUP1 DUP2 SLOAD DUP1 SWAP3 SWAP2 SWAP1 PUSH2 0x2CB SWAP1 PUSH2 0xCC3 JUMP JUMPDEST SWAP2 SWAP1 POP SSTORE POP POP JUMP JUMPDEST PUSH0 PUSH1 0x60 PUSH0 DUP1 PUSH1 0x1 PUSH0 DUP7 DUP2 MSTORE PUSH1 0x20 ADD SWAP1 DUP2 MSTORE PUSH1 0x20 ADD PUSH0 KECCAK256 PUSH0 ADD SLOAD SUB PUSH2 0x32C JUMPI PUSH1 0x40 MLOAD PUSH32 0x8C379A000000000000000000000000000000000000000000000000000000000 DUP2 MSTORE PUSH1 0x4 ADD PUSH2 0x323 SWAP1 PUSH2 0x981 JUMP JUMPDEST PUSH1 0x40 MLOAD DUP1 SWAP2 SUB SWAP1 REVERT JUMPDEST PUSH0 PUSH1 0x1 PUSH0 DUP7 DUP2 MSTORE PUSH1 0x20 ADD SWAP1 DUP2 MSTORE PUSH1 0x20 ADD PUSH0 KECCAK256 SWAP1 POP DUP1 PUSH0 ADD SLOAD DUP2 PUSH1 0x1 ADD DUP3 PUSH1 0x2 ADD PUSH0 SWAP1 SLOAD SWAP1 PUSH2 0x100 EXP SWAP1 DIV PUSH1 0xFF AND DUP2 DUP1 SLOAD PUSH2 0x365 SWAP1 PUSH2 0x9CC JUMP JUMPDEST DUP1 PUSH1 0x1F ADD PUSH1 0x20 DUP1 SWAP2 DIV MUL PUSH1 0x20 ADD PUSH1 0x40 MLOAD SWAP1 DUP2 ADD PUSH1 0x40 MSTORE DUP1 SWAP3 SWAP2 SWAP1 DUP2 DUP2 MSTORE PUSH1 0x20 ADD DUP3 DUP1 SLOAD PUSH2 0x391 SWAP1 PUSH2 0x9CC JUMP JUMPDEST DUP1 ISZERO PUSH2 0x3DC JUMPI DUP1 PUSH1 0x1F LT PUSH2 0x3B3 JUMPI PUSH2 0x100 DUP1 DUP4 SLOAD DIV MUL DUP4 MSTORE SWAP2 PUSH1 0x20 ADD SWAP2 PUSH2 0x3DC JUMP JUMPDEST DUP3 ADD SWAP2 SWAP1 PUSH0 MSTORE PUSH1 0x20 PUSH0 KECCAK256 SWAP1 JUMPDEST DUP2 SLOAD DUP2 MSTORE SWAP1 PUSH1 0x1 ADD SWAP1 PUSH1 0x20 ADD DUP1 DUP4 GT PUSH2 0x3BF JUMPI DUP3 SWAP1 SUB PUSH1 0x1F AND DUP3 ADD SWAP2 JUMPDEST POP POP POP POP POP SWAP2 POP SWAP4 POP SWAP4 POP SWAP4 POP POP SWAP2 SWAP4 SWAP1 SWAP3 POP JUMP JUMPDEST PUSH0 PUSH1 0x1 PUSH0 DUP4 DUP2 MSTORE PUSH1 0x20 ADD SWAP1 DUP2 MSTORE PUSH1 0x20 ADD PUSH0 KECCAK256 PUSH0 ADD SLOAD SUB PUSH2 0x446 JUMPI PUSH1 0x40 MLOAD PUSH32 0x8C379A000000000000000000000000000000000000000000000000000000000 DUP2 MSTORE PUSH1 0x4 ADD PUSH2 0x43D SWAP1 PUSH2 0x981 JUMP JUMPDEST PUSH1 0x40 MLOAD DUP1 SWAP2 SUB SWAP1 REVERT JUMPDEST PUSH1 0x1 PUSH0 DUP3 DUP2 MSTORE PUSH1 0x20 ADD SWAP1 DUP2 MSTORE PUSH1 0x20 ADD PUSH0 KECCAK256 PUSH0 DUP1 DUP3 ADD PUSH0 SWAP1 SSTORE PUSH1 0x1 DUP3 ADD PUSH0 PUSH2 0x46D SWAP2 SWAP1 PUSH2 0x579 JUMP JUMPDEST PUSH1 0x2 DUP3 ADD PUSH0 PUSH2 0x100 EXP DUP2 SLOAD SWAP1 PUSH1 0xFF MUL NOT AND SWAP1 SSTORE POP POP PUSH32 0xD078B251D950CC55C44340BE1DB732337EF4939A76E1367EE271AD2CB19C46AF DUP2 PUSH1 0x40 MLOAD PUSH2 0x4B1 SWAP2 SWAP1 PUSH2 0x91E JUMP JUMPDEST PUSH1 0x40 MLOAD DUP1 SWAP2 SUB SWAP1 LOG1 POP JUMP JUMPDEST PUSH0 SLOAD DUP2 JUMP JUMPDEST PUSH1 0x1 PUSH1 0x20 MSTORE DUP1 PUSH0 MSTORE PUSH1 0x40 PUSH0 KECCAK256 PUSH0 SWAP2 POP SWAP1 POP DUP1 PUSH0 ADD SLOAD SWAP1 DUP1 PUSH1 0x1 ADD DUP1 SLOAD PUSH2 0x4E6 SWAP1 PUSH2 0x9CC JUMP JUMPDEST DUP1 PUSH1 0x1F ADD PUSH1 0x20 DUP1 SWAP2 DIV MUL PUSH1 0x20 ADD PUSH1 0x40 MLOAD SWAP1 DUP2 ADD PUSH1 0x40 MSTORE DUP1 SWAP3 SWAP2 SWAP1 DUP2 DUP2 MSTORE PUSH1 0x20 ADD DUP3 DUP1 SLOAD PUSH2 0x512 SWAP1 PUSH2 0x9CC JUMP JUMPDEST DUP1 ISZERO PUSH2 0x55D JUMPI DUP1 PUSH1 0x1F LT PUSH2 0x534 JUMPI PUSH2 0x100 DUP1 DUP4 SLOAD DIV MUL DUP4 MSTORE SWAP2 PUSH1 0x20 ADD SWAP2 PUSH2 0x55D JUMP JUMPDEST DUP3 ADD SWAP2 SWAP1 PUSH0 MSTORE PUSH1 0x20 PUSH0 KECCAK256 SWAP1 JUMPDEST DUP2 SLOAD DUP2 MSTORE SWAP1 PUSH1 0x1 ADD SWAP1 PUSH1 0x20 ADD DUP1 DUP4 GT PUSH2 0x540 JUMPI DUP3 SWAP1 SUB PUSH1 0x1F AND DUP3 ADD SWAP2 JUMPDEST POP POP POP POP POP SWAP1 DUP1 PUSH1 0x2 ADD PUSH0 SWAP1 SLOAD SWAP1 PUSH2 0x100 EXP SWAP1 DIV PUSH1 0xFF AND SWAP1 POP DUP4 JUMP JUMPDEST POP DUP1 SLOAD PUSH2 0x585 SWAP1 PUSH2 0x9CC JUMP JUMPDEST PUSH0 DUP3 SSTORE DUP1 PUSH1 0x1F LT PUSH2 0x596 JUMPI POP PUSH2 0x5B3 JUMP JUMPDEST PUSH1 0x1F ADD PUSH1 0x20 SWAP1 DIV SWAP1 PUSH0 MSTORE PUSH1 0x20 PUSH0 KECCAK256 SWAP1 DUP2 ADD SWAP1 PUSH2 0x5B2 SWAP2 SWAP1 PUSH2 0x5B6 JUMP JUMPDEST JUMPDEST POP JUMP JUMPDEST JUMPDEST DUP1 DUP3 GT ISZERO PUSH2 0x5CD JUMPI PUSH0 DUP2 PUSH0 SWAP1 SSTORE POP PUSH1 0x1 ADD PUSH2 0x5B7 JUMP JUMPDEST POP SWAP1 JUMP JUMPDEST PUSH0 PUSH1 0x40 MLOAD SWAP1 POP SWAP1 JUMP JUMPDEST PUSH0 DUP1 REVERT JUMPDEST PUSH0 DUP1 REVERT JUMPDEST PUSH0 DUP2 SWAP1 POP SWAP2 SWAP1 POP JUMP JUMPDEST PUSH2 0x5F4 DUP2 PUSH2 0x5E2 JUMP JUMPDEST DUP2 EQ PUSH2 0x5FE JUMPI PUSH0 DUP1 REVERT JUMPDEST POP JUMP JUMPDEST PUSH0 DUP2 CALLDATALOAD SWAP1 POP PUSH2 0x60F DUP2 PUSH2 0x5EB JUMP JUMPDEST SWAP3 SWAP2 POP POP JUMP JUMPDEST PUSH0 DUP1 REVERT JUMPDEST PUSH0 DUP1 REVERT JUMPDEST PUSH0 PUSH1 0x1F NOT PUSH1 0x1F DUP4 ADD AND SWAP1 POP SWAP2 SWAP1 POP JUMP JUMPDEST PUSH32 0x4E487B7100000000000000000000000000000000000000000000000000000000 PUSH0 MSTORE PUSH1 0x41 PUSH1 0x4 MSTORE PUSH1 0x24 PUSH0 REVERT JUMPDEST PUSH2 0x663 DUP3 PUSH2 0x61D JUMP JUMPDEST DUP2 ADD DUP2 DUP2 LT PUSH8 0xFFFFFFFFFFFFFFFF DUP3 GT OR ISZERO PUSH2 0x682 JUMPI PUSH2 0x681 PUSH2 0x62D JUMP JUMPDEST JUMPDEST DUP1 PUSH1 0x40 MSTORE POP POP POP JUMP JUMPDEST PUSH0 PUSH2 0x694 PUSH2 0x5D1 JUMP JUMPDEST SWAP1 POP PUSH2 0x6A0 DUP3 DUP3 PUSH2 0x65A JUMP JUMPDEST SWAP2 SWAP1 POP JUMP JUMPDEST PUSH0 PUSH8 0xFFFFFFFFFFFFFFFF DUP3 GT ISZERO PUSH2 0x6BF JUMPI PUSH2 0x6BE PUSH2 0x62D JUMP JUMPDEST JUMPDEST PUSH2 0x6C8 DUP3 PUSH2 0x61D JUMP JUMPDEST SWAP1 POP PUSH1 0x20 DUP2 ADD SWAP1 POP SWAP2 SWAP1 POP JUMP JUMPDEST DUP3 DUP2 DUP4 CALLDATACOPY PUSH0 DUP4 DUP4 ADD MSTORE POP POP POP JUMP JUMPDEST PUSH0 PUSH2 0x6F5 PUSH2 0x6F0 DUP5 PUSH2 0x6A5 JUMP JUMPDEST PUSH2 0x68B JUMP JUMPDEST SWAP1 POP DUP3 DUP2 MSTORE PUSH1 0x20 DUP2 ADD DUP5 DUP5 DUP5 ADD GT ISZERO PUSH2 0x711 JUMPI PUSH2 0x710 PUSH2 0x619 JUMP JUMPDEST JUMPDEST PUSH2 0x71C DUP5 DUP3 DUP6 PUSH2 0x6D5 JUMP JUMPDEST POP SWAP4 SWAP3 POP POP POP JUMP JUMPDEST PUSH0 DUP3 PUSH1 0x1F DUP4 ADD SLT PUSH2 0x738 JUMPI PUSH2 0x737 PUSH2 0x615 JUMP JUMPDEST JUMPDEST DUP2 CALLDATALOAD PUSH2 0x748 DUP5 DUP3 PUSH1 0x20 DUP7 ADD PUSH2 0x6E3 JUMP JUMPDEST SWAP2 POP POP SWAP3 SWAP2 POP POP JUMP JUMPDEST PUSH0 DUP2 ISZERO ISZERO SWAP1 POP SWAP2 SWAP1 POP JUMP JUMPDEST PUSH2 0x765 DUP2 PUSH2 0x751 JUMP JUMPDEST DUP2 EQ PUSH2 0x76F JUMPI PUSH0 DUP1 REVERT JUMPDEST POP JUMP JUMPDEST PUSH0 DUP2 CALLDATALOAD SWAP1 POP PUSH2 0x780 DUP2 PUSH2 0x75C JUMP JUMPDEST SWAP3 SWAP2 POP POP JUMP JUMPDEST PUSH0 DUP1 PUSH0 PUSH1 0x60 DUP5 DUP7 SUB SLT ISZERO PUSH2 0x79D JUMPI PUSH2 0x79C PUSH2 0x5DA JUMP JUMPDEST JUMPDEST PUSH0 PUSH2 0x7AA DUP7 DUP3 DUP8 ADD PUSH2 0x601 JUMP JUMPDEST SWAP4 POP POP PUSH1 0x20 DUP5 ADD CALLDATALOAD PUSH8 0xFFFFFFFFFFFFFFFF DUP2 GT ISZERO PUSH2 0x7CB JUMPI PUSH2 0x7CA PUSH2 0x5DE JUMP JUMPDEST JUMPDEST PUSH2 0x7D7 DUP7 DUP3 DUP8 ADD PUSH2 0x724 JUMP JUMPDEST SWAP3 POP POP PUSH1 0x40 PUSH2 0x7E8 DUP7 DUP3 DUP8 ADD PUSH2 0x772 JUMP JUMPDEST SWAP2 POP POP SWAP3 POP SWAP3 POP SWAP3 JUMP JUMPDEST PUSH0 PUSH1 0x20 DUP3 DUP5 SUB SLT ISZERO PUSH2 0x807 JUMPI PUSH2 0x806 PUSH2 0x5DA JUMP JUMPDEST JUMPDEST PUSH0 DUP3 ADD CALLDATALOAD PUSH8 0xFFFFFFFFFFFFFFFF DUP2 GT ISZERO PUSH2 0x824 JUMPI PUSH2 0x823 PUSH2 0x5DE JUMP JUMPDEST JUMPDEST PUSH2 0x830 DUP5 DUP3 DUP6 ADD PUSH2 0x724 JUMP JUMPDEST SWAP2 POP POP SWAP3 SWAP2 POP POP JUMP JUMPDEST PUSH0 PUSH1 0x20 DUP3 DUP5 SUB SLT ISZERO PUSH2 0x84E JUMPI PUSH2 0x84D PUSH2 0x5DA JUMP JUMPDEST JUMPDEST PUSH0 PUSH2 0x85B DUP5 DUP3 DUP6 ADD PUSH2 0x601 JUMP JUMPDEST SWAP2 POP POP SWAP3 SWAP2 POP POP JUMP JUMPDEST PUSH2 0x86D DUP2 PUSH2 0x5E2 JUMP JUMPDEST DUP3 MSTORE POP POP JUMP JUMPDEST PUSH0 DUP2 MLOAD SWAP1 POP SWAP2 SWAP1 POP JUMP JUMPDEST PUSH0 DUP3 DUP3 MSTORE PUSH1 0x20 DUP3 ADD SWAP1 POP SWAP3 SWAP2 POP POP JUMP JUMPDEST DUP3 DUP2 DUP4 MCOPY PUSH0 DUP4 DUP4 ADD MSTORE POP POP POP JUMP JUMPDEST PUSH0 PUSH2 0x8A5 DUP3 PUSH2 0x873 JUMP JUMPDEST PUSH2 0x8AF DUP2 DUP6 PUSH2 0x87D JUMP JUMPDEST SWAP4 POP PUSH2 0x8BF DUP2 DUP6 PUSH1 0x20 DUP7 ADD PUSH2 0x88D JUMP JUMPDEST PUSH2 0x8C8 DUP2 PUSH2 0x61D JUMP JUMPDEST DUP5 ADD SWAP2 POP POP SWAP3 SWAP2 POP POP JUMP JUMPDEST PUSH2 0x8DC DUP2 PUSH2 0x751 JUMP JUMPDEST DUP3 MSTORE POP POP JUMP JUMPDEST PUSH0 PUSH1 0x60 DUP3 ADD SWAP1 POP PUSH2 0x8F5 PUSH0 DUP4 ADD DUP7 PUSH2 0x864 JUMP JUMPDEST DUP2 DUP2 SUB PUSH1 0x20 DUP4 ADD MSTORE PUSH2 0x907 DUP2 DUP6 PUSH2 0x89B JUMP JUMPDEST SWAP1 POP PUSH2 0x916 PUSH1 0x40 DUP4 ADD DUP5 PUSH2 0x8D3 JUMP JUMPDEST SWAP5 SWAP4 POP POP POP POP JUMP JUMPDEST PUSH0 PUSH1 0x20 DUP3 ADD SWAP1 POP PUSH2 0x931 PUSH0 DUP4 ADD DUP5 PUSH2 0x864 JUMP JUMPDEST SWAP3 SWAP2 POP POP JUMP JUMPDEST PUSH32 0x5461736B206E6F7420666F756E64000000000000000000000000000000000000 PUSH0 DUP3 ADD MSTORE POP JUMP JUMPDEST PUSH0 PUSH2 0x96B PUSH1 0xE DUP4 PUSH2 0x87D JUMP JUMPDEST SWAP2 POP PUSH2 0x976 DUP3 PUSH2 0x937 JUMP JUMPDEST PUSH1 0x20 DUP3 ADD SWAP1 POP SWAP2 SWAP1 POP JUMP JUMPDEST PUSH0 PUSH1 0x20 DUP3 ADD SWAP1 POP DUP2 DUP2 SUB PUSH0 DUP4 ADD MSTORE PUSH2 0x998 DUP2 PUSH2 0x95F JUMP JUMPDEST SWAP1 POP SWAP2 SWAP1 POP JUMP JUMPDEST PUSH32 0x4E487B7100000000000000000000000000000000000000000000000000000000 PUSH0 MSTORE PUSH1 0x22 PUSH1 0x4 MSTORE PUSH1 0x24 PUSH0 REVERT JUMPDEST PUSH0 PUSH1 0x2 DUP3 DIV SWAP1 POP PUSH1 0x1 DUP3 AND DUP1 PUSH2 0x9E3 JUMPI PUSH1 0x7F DUP3 AND SWAP2 POP JUMPDEST PUSH1 0x20 DUP3 LT DUP2 SUB PUSH2 0x9F6 JUMPI PUSH2 0x9F5 PUSH2 0x99F JUMP JUMPDEST JUMPDEST POP SWAP2 SWAP1 POP JUMP JUMPDEST PUSH0 DUP2 SWAP1 POP DUP2 PUSH0 MSTORE PUSH1 0x20 PUSH0 KECCAK256 SWAP1 POP SWAP2 SWAP1 POP JUMP JUMPDEST PUSH0 PUSH1 0x20 PUSH1 0x1F DUP4 ADD DIV SWAP1 POP SWAP2 SWAP1 POP JUMP JUMPDEST PUSH0 DUP3 DUP3 SHL SWAP1 POP SWAP3 SWAP2 POP POP JUMP JUMPDEST PUSH0 PUSH1 0x8 DUP4 MUL PUSH2 0xA58 PUSH32 0xFFFFFFFFFFFFFFFFFFFFFFFFFFFFFFFFFFFFFFFFFFFFFFFFFFFFFFFFFFFFFFFF DUP3 PUSH2 0xA1D JUMP JUMPDEST PUSH2 0xA62 DUP7 DUP4 PUSH2 0xA1D JUMP JUMPDEST SWAP6 POP DUP1 NOT DUP5 AND SWAP4 POP DUP1 DUP7 AND DUP5 OR SWAP3 POP POP POP SWAP4 SWAP3 POP POP POP JUMP JUMPDEST PUSH0 DUP2 SWAP1 POP SWAP2 SWAP1 POP JUMP JUMPDEST PUSH0 PUSH2 0xA9D PUSH2 0xA98 PUSH2 0xA93 DUP5 PUSH2 0x5E2 JUMP JUMPDEST PUSH2 0xA7A JUMP JUMPDEST PUSH2 0x5E2 JUMP JUMPDEST SWAP1 POP SWAP2 SWAP1 POP JUMP JUMPDEST PUSH0 DUP2 SWAP1 POP SWAP2 SWAP1 POP JUMP JUMPDEST PUSH2 0xAB6 DUP4 PUSH2 0xA83 JUMP JUMPDEST PUSH2 0xACA PUSH2 0xAC2 DUP3 PUSH2 0xAA4 JUMP JUMPDEST DUP5 DUP5 SLOAD PUSH2 0xA29 JUMP JUMPDEST DUP3 SSTORE POP POP POP POP JUMP JUMPDEST PUSH0 SWAP1 JUMP JUMPDEST PUSH2 0xADE PUSH2 0xAD2 JUMP JUMPDEST PUSH2 0xAE9 DUP2 DUP5 DUP5 PUSH2 0xAAD JUMP JUMPDEST POP POP POP JUMP JUMPDEST JUMPDEST DUP2 DUP2 LT ISZERO PUSH2 0xB0C JUMPI PUSH2 0xB01 PUSH0 DUP3 PUSH2 0xAD6 JUMP JUMPDEST PUSH1 0x1 DUP2 ADD SWAP1 POP PUSH2 0xAEF JUMP JUMPDEST POP POP JUMP JUMPDEST PUSH1 0x1F DUP3 GT ISZERO PUSH2 0xB51 JUMPI PUSH2 0xB22 DUP2 PUSH2 0x9FC JUMP JUMPDEST PUSH2 0xB2B DUP5 PUSH2 0xA0E JUMP JUMPDEST DUP2 ADD PUSH1 0x20 DUP6 LT ISZERO PUSH2 0xB3A JUMPI DUP2 SWAP1 POP JUMPDEST PUSH2 0xB4E PUSH2 0xB46 DUP6 PUSH2 0xA0E JUMP JUMPDEST DUP4 ADD DUP3 PUSH2 0xAEE JUMP JUMPDEST POP POP JUMPDEST POP POP POP JUMP JUMPDEST PUSH0 DUP3 DUP3 SHR SWAP1 POP SWAP3 SWAP2 POP POP JUMP JUMPDEST PUSH0 PUSH2 0xB71 PUSH0 NOT DUP5 PUSH1 0x8 MUL PUSH2 0xB56 JUMP JUMPDEST NOT DUP1 DUP4 AND SWAP2 POP POP SWAP3 SWAP2 POP POP JUMP JUMPDEST PUSH0 PUSH2 0xB89 DUP4 DUP4 PUSH2 0xB62 JUMP JUMPDEST SWAP2 POP DUP3 PUSH1 0x2 MUL DUP3 OR SWAP1 POP SWAP3 SWAP2 POP POP JUMP JUMPDEST PUSH2 0xBA2 DUP3 PUSH2 0x873 JUMP JUMPDEST PUSH8 0xFFFFFFFFFFFFFFFF DUP2 GT ISZERO PUSH2 0xBBB JUMPI PUSH2 0xBBA PUSH2 0x62D JUMP JUMPDEST JUMPDEST PUSH2 0xBC5 DUP3 SLOAD PUSH2 0x9CC JUMP JUMPDEST PUSH2 0xBD0 DUP3 DUP3 DUP6 PUSH2 0xB10 JUMP JUMPDEST PUSH0 PUSH1 0x20 SWAP1 POP PUSH1 0x1F DUP4 GT PUSH1 0x1 DUP2 EQ PUSH2 0xC01 JUMPI PUSH0 DUP5 ISZERO PUSH2 0xBEF JUMPI DUP3 DUP8 ADD MLOAD SWAP1 POP JUMPDEST PUSH2 0xBF9 DUP6 DUP3 PUSH2 0xB7E JUMP JUMPDEST DUP7 SSTORE POP PUSH2 0xC60 JUMP JUMPDEST PUSH1 0x1F NOT DUP5 AND PUSH2 0xC0F DUP7 PUSH2 0x9FC JUMP JUMPDEST PUSH0 JUMPDEST DUP3 DUP2 LT ISZERO PUSH2 0xC36 JUMPI DUP5 DUP10 ADD MLOAD DUP3 SSTORE PUSH1 0x1 DUP3 ADD SWAP2 POP PUSH1 0x20 DUP6 ADD SWAP5 POP PUSH1 0x20 DUP2 ADD SWAP1 POP PUSH2 0xC11 JUMP JUMPDEST DUP7 DUP4 LT ISZERO PUSH2 0xC53 JUMPI DUP5 DUP10 ADD MLOAD PUSH2 0xC4F PUSH1 0x1F DUP10 AND DUP3 PUSH2 0xB62 JUMP JUMPDEST DUP4 SSTORE POP JUMPDEST PUSH1 0x1 PUSH1 0x2 DUP9 MUL ADD DUP9 SSTORE POP POP POP JUMPDEST POP POP POP POP POP POP JUMP JUMPDEST PUSH0 PUSH1 0x40 DUP3 ADD SWAP1 POP PUSH2 0xC7B PUSH0 DUP4 ADD DUP6 PUSH2 0x864 JUMP JUMPDEST DUP2 DUP2 SUB PUSH1 0x20 DUP4 ADD MSTORE PUSH2 0xC8D DUP2 DUP5 PUSH2 0x89B JUMP JUMPDEST SWAP1 POP SWAP4 SWAP3 POP POP POP JUMP JUMPDEST PUSH32 0x4E487B7100000000000000000000000000000000000000000000000000000000 PUSH0 MSTORE PUSH1 0x11 PUSH1 0x4 MSTORE PUSH1 0x24 PUSH0 REVERT JUMPDEST PUSH0 PUSH2 0xCCD DUP3 PUSH2 0x5E2 JUMP JUMPDEST SWAP2 POP PUSH32 0xFFFFFFFFFFFFFFFFFFFFFFFFFFFFFFFFFFFFFFFFFFFFFFFFFFFFFFFFFFFFFFFF DUP3 SUB PUSH2 0xCFF JUMPI PUSH2 0xCFE PUSH2 0xC96 JUMP JUMPDEST JUMPDEST PUSH1 0x1 DUP3 ADD SWAP1 POP SWAP2 SWAP1 POP JUMP INVALID LOG2 PUSH5 0x6970667358 0x22 SLT KECCAK256 GASPRICE 0xDB SWAP8 JUMP PUSH8 0x91424FED390AE4C3 SIGNEXTEND 0xD2 PUSH26 0xD332A215BA36DC41D5F7265E234A0B1C64736F6C634300081A00 CALLER "
		},
		"gasEstimates": {
			"creation": {
				"codeDepositCost": "678400",
				"executionCost": "22811",
				"totalCost": "701211"
			},
			"external": {
				"createTask(string)": "infinite",
				"deleteTask(uint256)": "infinite",
				"getTask(uint256)": "infinite",
				"nextId()": "2490",
				"tasks(uint256)": "infinite",
				"updateTask(uint256,string,bool)": "infinite"
			}
		},
		"methodIdentifiers": {
			"createTask(string)": "111002aa",
			"deleteTask(uint256)": "560f3192",
			"getTask(uint256)": "1d65e77e",
			"nextId()": "61b8ce8c",
			"tasks(uint256)": "8d977672",
			"updateTask(uint256,string,bool)": "00d5c477"
		}
	},
	"abi": [
		{
			"anonymous": false,
			"inputs": [
				{
					"indexed": false,
					"internalType": "uint256",
					"name": "id",
					"type": "uint256"
				},
				{
					"indexed": false,
					"internalType": "string",
					"name": "content",
					"type": "string"
				}
			],
			"name": "TaskCreated",
			"type": "event"
		},
		{
			"anonymous": false,
			"inputs": [
				{
					"indexed": false,
					"internalType": "uint256",
					"name": "id",
					"type": "uint256"
				}
			],
			"name": "TaskDeleted",
			"type": "event"
		},
		{
			"anonymous": false,
			"inputs": [
				{
					"indexed": false,
					"internalType": "uint256",
					"name": "id",
					"type": "uint256"
				},
				{
					"indexed": false,
					"internalType": "string",
					"name": "content",
					"type": "string"
				},
				{
					"indexed": false,
					"internalType": "bool",
					"name": "completed",
					"type": "bool"
				}
			],
			"name": "TaskUpdated",
			"type": "event"
		},
		{
			"inputs": [
				{
					"internalType": "string",
					"name": "_content",
					"type": "string"
				}
			],
			"name": "createTask",
			"outputs": [],
			"stateMutability": "nonpayable",
			"type": "function"
		},
		{
			"inputs": [
				{
					"internalType": "uint256",
					"name": "_id",
					"type": "uint256"
				}
			],
			"name": "deleteTask",
			"outputs": [],
			"stateMutability": "nonpayable",
			"type": "function"
		},
		{
			"inputs": [
				{
					"internalType": "uint256",
					"name": "_id",
					"type": "uint256"
				}
			],
			"name": "getTask",
			"outputs": [
				{
					"internalType": "uint256",
					"name": "",
					"type": "uint256"
				},
				{
					"internalType": "string",
					"name": "",
					"type": "string"
				},
				{
					"internalType": "bool",
					"name": "",
					"type": "bool"
				}
			],
			"stateMutability": "view",
			"type": "function"
		},
		{
			"inputs": [],
			"name": "nextId",
			"outputs": [
				{
					"internalType": "uint256",
					"name": "",
					"type": "uint256"
				}
			],
			"stateMutability": "view",
			"type": "function"
		},
		{
			"inputs": [
				{
					"internalType": "uint256",
					"name": "",
					"type": "uint256"
				}
			],
			"name": "tasks",
			"outputs": [
				{
					"internalType": "uint256",
					"name": "id",
					"type": "uint256"
				},
				{
					"internalType": "string",
					"name": "content",
					"type": "string"
				},
				{
					"internalType": "bool",
					"name": "completed",
					"type": "bool"
				}
			],
			"stateMutability": "view",
			"type": "function"
		},
		{
			"inputs": [
				{
					"internalType": "uint256",
					"name": "_id",
					"type": "uint256"
				},
				{
					"internalType": "string",
					"name": "_content",
					"type": "string"
				},
				{
					"internalType": "bool",
					"name": "_completed",
					"type": "bool"
				}
			],
			"name": "updateTask",
			"outputs": [],
			"stateMutability": "nonpayable",
			"type": "function"
		}
	]
}