{
	"data": {
		"bytecode": {
			"linkReferences": {},
			"object": "6080604052348015600e575f80fd5b506109388061001c5f395ff3fe608060405234801561000f575f80fd5b506004361061004a575f3560e01c806306ead22e1461004e57806319044f07146100805780631dfc29621461009c578063699450e8146100b8575b5f80fd5b61006860048036038101906100639190610377565b6100d8565b6040516100779392919061043b565b60405180910390f35b61009a600480360381019061009591906105cd565b61019f565b005b6100b660048036038101906100b191906105cd565b610202565b005b6100c061028b565b6040516100cf9392919061043b565b60405180910390f35b600381815481106100e7575f80fd5b905f5260205f2090600302015f91509050805f01805461010690610666565b80601f016020809104026020016040519081016040528092919081815260200182805461013290610666565b801561017d5780601f106101545761010080835404028352916020019161017d565b820191905f5260205f20905b81548152906001019060200180831161016057829003601f168201915b505050505090806001015490806002015f9054906101000a900460ff16905083565b60405180606001604052808481526020018381526020018215158152505f80820151815f0190816101d09190610833565b50602082015181600101556040820151816002015f6101000a81548160ff021916908315150217905550905050505050565b60036040518060600160405280858152602001848152602001831515815250908060018154018082558091505060019003905f5260205f2090600302015f909190919091505f820151815f01908161025a9190610833565b50602082015181600101556040820151816002015f6101000a81548160ff0219169083151502179055505050505050565b5f805f01805461029a90610666565b80601f01602080910402602001604051908101604052809291908181526020018280546102c690610666565b80156103115780601f106102e857610100808354040283529160200191610311565b820191905f5260205f20905b8154815290600101906020018083116102f457829003601f168201915b505050505090806001015490806002015f9054906101000a900460ff16905083565b5f604051905090565b5f80fd5b5f80fd5b5f819050919050565b61035681610344565b8114610360575f80fd5b50565b5f813590506103718161034d565b92915050565b5f6020828403121561038c5761038b61033c565b5b5f61039984828501610363565b91505092915050565b5f81519050919050565b5f82825260208201905092915050565b8281835e5f83830152505050565b5f601f19601f8301169050919050565b5f6103e4826103a2565b6103ee81856103ac565b93506103fe8185602086016103bc565b610407816103ca565b840191505092915050565b61041b81610344565b82525050565b5f8115159050919050565b61043581610421565b82525050565b5f6060820190508181035f83015261045381866103da565b90506104626020830185610412565b61046f604083018461042c565b949350505050565b5f80fd5b5f80fd5b7f4e487b71000000000000000000000000000000000000000000000000000000005f52604160045260245ffd5b6104b5826103ca565b810181811067ffffffffffffffff821117156104d4576104d361047f565b5b80604052505050565b5f6104e6610333565b90506104f282826104ac565b919050565b5f67ffffffffffffffff8211156105115761051061047f565b5b61051a826103ca565b9050602081019050919050565b828183375f83830152505050565b5f610547610542846104f7565b6104dd565b9050828152602081018484840111156105635761056261047b565b5b61056e848285610527565b509392505050565b5f82601f83011261058a57610589610477565b5b813561059a848260208601610535565b91505092915050565b6105ac81610421565b81146105b6575f80fd5b50565b5f813590506105c7816105a3565b92915050565b5f805f606084860312156105e4576105e361033c565b5b5f84013567ffffffffffffffff81111561060157610600610340565b5b61060d86828701610576565b935050602061061e86828701610363565b925050604061062f868287016105b9565b9150509250925092565b7f4e487b71000000000000000000000000000000000000000000000000000000005f52602260045260245ffd5b5f600282049050600182168061067d57607f821691505b6020821081036106905761068f610639565b5b50919050565b5f819050815f5260205f209050919050565b5f6020601f8301049050919050565b5f82821b905092915050565b5f600883026106f27fffffffffffffffffffffffffffffffffffffffffffffffffffffffffffffffff826106b7565b6106fc86836106b7565b95508019841693508086168417925050509392505050565b5f819050919050565b5f61073761073261072d84610344565b610714565b610344565b9050919050565b5f819050919050565b6107508361071d565b61076461075c8261073e565b8484546106c3565b825550505050565b5f90565b61077861076c565b610783818484610747565b505050565b5b818110156107a65761079b5f82610770565b600181019050610789565b5050565b601f8211156107eb576107bc81610696565b6107c5846106a8565b810160208510156107d4578190505b6107e86107e0856106a8565b830182610788565b50505b505050565b5f82821c905092915050565b5f61080b5f19846008026107f0565b1980831691505092915050565b5f61082383836107fc565b9150826002028217905092915050565b61083c826103a2565b67ffffffffffffffff8111156108555761085461047f565b5b61085f8254610666565b61086a8282856107aa565b5f60209050601f83116001811461089b575f8415610889578287015190505b6108938582610818565b8655506108fa565b601f1984166108a986610696565b5f5b828110156108d0578489015182556001820191506020850194506020810190506108ab565b868310156108ed57848901516108e9601f8916826107fc565b8355505b6001600288020188555050505b50505050505056fea264697066735822122051307eb63efd9bac5e89c928f9bd3d043e9c1e1ce1a24903d0d98d7d52d196f964736f6c634300081a0033",
			"opcodes": "PUSH1 0x80 PUSH1 0x40 MSTORE CALLVALUE DUP1 ISZERO PUSH1 0xE JUMPI PUSH0 DUP1 REVERT JUMPDEST POP PUSH2 0x938 DUP1 PUSH2 0x1C PUSH0 CODECOPY PUSH0 RETURN INVALID PUSH1 0x80 PUSH1 0x40 MSTORE CALLVALUE DUP1 ISZERO PUSH2 0xF JUMPI PUSH0 DUP1 REVERT JUMPDEST POP PUSH1 0x4 CALLDATASIZE LT PUSH2 0x4A JUMPI PUSH0 CALLDATALOAD PUSH1 0xE0 SHR DUP1 PUSH4 0x6EAD22E EQ PUSH2 0x4E JUMPI DUP1 PUSH4 0x19044F07 EQ PUSH2 0x80 JUMPI DUP1 PUSH4 0x1DFC2962 EQ PUSH2 0x9C JUMPI DUP1 PUSH4 0x699450E8 EQ PUSH2 0xB8 JUMPI JUMPDEST PUSH0 DUP1 REVERT JUMPDEST PUSH2 0x68 PUSH1 0x4 DUP1 CALLDATASIZE SUB DUP2 ADD SWAP1 PUSH2 0x63 SWAP2 SWAP1 PUSH2 0x377 JUMP JUMPDEST PUSH2 0xD8 JUMP JUMPDEST PUSH1 0x40 MLOAD PUSH2 0x77 SWAP4 SWAP3 SWAP2 SWAP1 PUSH2 0x43B JUMP JUMPDEST PUSH1 0x40 MLOAD DUP1 SWAP2 SUB SWAP1 RETURN JUMPDEST PUSH2 0x9A PUSH1 0x4 DUP1 CALLDATASIZE SUB DUP2 ADD SWAP1 PUSH2 0x95 SWAP2 SWAP1 PUSH2 0x5CD JUMP JUMPDEST PUSH2 0x19F JUMP JUMPDEST STOP JUMPDEST PUSH2 0xB6 PUSH1 0x4 DUP1 CALLDATASIZE SUB DUP2 ADD SWAP1 PUSH2 0xB1 SWAP2 SWAP1 PUSH2 0x5CD JUMP JUMPDEST PUSH2 0x202 JUMP JUMPDEST STOP JUMPDEST PUSH2 0xC0 PUSH2 0x28B JUMP JUMPDEST PUSH1 0x40 MLOAD PUSH2 0xCF SWAP4 SWAP3 SWAP2 SWAP1 PUSH2 0x43B JUMP JUMPDEST PUSH1 0x40 MLOAD DUP1 SWAP2 SUB SWAP1 RETURN JUMPDEST PUSH1 0x3 DUP2 DUP2 SLOAD DUP2 LT PUSH2 0xE7 JUMPI PUSH0 DUP1 REVERT JUMPDEST SWAP1 PUSH0 MSTORE PUSH1 0x20 PUSH0 KECCAK256 SWAP1 PUSH1 0x3 MUL ADD PUSH0 SWAP2 POP SWAP1 POP DUP1 PUSH0 ADD DUP1 SLOAD PUSH2 0x106 SWAP1 PUSH2 0x666 JUMP JUMPDEST DUP1 PUSH1 0x1F ADD PUSH1 0x20 DUP1 SWAP2 DIV MUL PUSH1 0x20 ADD PUSH1 0x40 MLOAD SWAP1 DUP2 ADD PUSH1 0x40 MSTORE DUP1 SWAP3 SWAP2 SWAP1 DUP2 DUP2 MSTORE PUSH1 0x20 ADD DUP3 DUP1 SLOAD PUSH2 0x132 SWAP1 PUSH2 0x666 JUMP JUMPDEST DUP1 ISZERO PUSH2 0x17D JUMPI DUP1 PUSH1 0x1F LT PUSH2 0x154 JUMPI PUSH2 0x100 DUP1 DUP4 SLOAD DIV MUL DUP4 MSTORE SWAP2 PUSH1 0x20 ADD SWAP2 PUSH2 0x17D JUMP JUMPDEST DUP3 ADD SWAP2 SWAP1 PUSH0 MSTORE PUSH1 0x20 PUSH0 KECCAK256 SWAP1 JUMPDEST DUP2 SLOAD DUP2 MSTORE SWAP1 PUSH1 0x1 ADD SWAP1 PUSH1 0x20 ADD DUP1 DUP4 GT PUSH2 0x160 JUMPI DUP3 SWAP1 SUB PUSH1 0x1F AND DUP3 ADD SWAP2 JUMPDEST POP POP POP POP POP SWAP1 DUP1 PUSH1 0x1 ADD SLOAD SWAP1 DUP1 PUSH1 0x2 ADD PUSH0 SWAP1 SLOAD SWAP1 PUSH2 0x100 EXP SWAP1 DIV PUSH1 0xFF AND SWAP1 POP DUP4 JUMP JUMPDEST PUSH1 0x40 MLOAD DUP1 PUSH1 0x60 ADD PUSH1 0x40 MSTORE DUP1 DUP5 DUP2 MSTORE PUSH1 0x20 ADD DUP4 DUP2 MSTORE PUSH1 0x20 ADD DUP3 ISZERO ISZERO DUP2 MSTORE POP PUSH0 DUP1 DUP3 ADD MLOAD DUP2 PUSH0 ADD SWAP1 DUP2 PUSH2 0x1D0 SWAP2 SWAP1 PUSH2 0x833 JUMP JUMPDEST POP PUSH1 0x20 DUP3 ADD MLOAD DUP2 PUSH1 0x1 ADD SSTORE PUSH1 0x40 DUP3 ADD MLOAD DUP2 PUSH1 0x2 ADD PUSH0 PUSH2 0x100 EXP DUP2 SLOAD DUP2 PUSH1 0xFF MUL NOT AND SWAP1 DUP4 ISZERO ISZERO MUL OR SWAP1 SSTORE POP SWAP1 POP POP POP POP POP JUMP JUMPDEST PUSH1 0x3 PUSH1 0x40 MLOAD DUP1 PUSH1 0x60 ADD PUSH1 0x40 MSTORE DUP1 DUP6 DUP2 MSTORE PUSH1 0x20 ADD DUP5 DUP2 MSTORE PUSH1 0x20 ADD DUP4 ISZERO ISZERO DUP2 MSTORE POP SWAP1 DUP1 PUSH1 0x1 DUP2 SLOAD ADD DUP1 DUP3 SSTORE DUP1 SWAP2 POP POP PUSH1 0x1 SWAP1 SUB SWAP1 PUSH0 MSTORE PUSH1 0x20 PUSH0 KECCAK256 SWAP1 PUSH1 0x3 MUL ADD PUSH0 SWAP1 SWAP2 SWAP1 SWAP2 SWAP1 SWAP2 POP PUSH0 DUP3 ADD MLOAD DUP2 PUSH0 ADD SWAP1 DUP2 PUSH2 0x25A SWAP2 SWAP1 PUSH2 0x833 JUMP JUMPDEST POP PUSH1 0x20 DUP3 ADD MLOAD DUP2 PUSH1 0x1 ADD SSTORE PUSH1 0x40 DUP3 ADD MLOAD DUP2 PUSH1 0x2 ADD PUSH0 PUSH2 0x100 EXP DUP2 SLOAD DUP2 PUSH1 0xFF MUL NOT AND SWAP1 DUP4 ISZERO ISZERO MUL OR SWAP1 SSTORE POP POP POP POP POP POP JUMP JUMPDEST PUSH0 DUP1 PUSH0 ADD DUP1 SLOAD PUSH2 0x29A SWAP1 PUSH2 0x666 JUMP JUMPDEST DUP1 PUSH1 0x1F ADD PUSH1 0x20 DUP1 SWAP2 DIV MUL PUSH1 0x20 ADD PUSH1 0x40 MLOAD SWAP1 DUP2 ADD PUSH1 0x40 MSTORE DUP1 SWAP3 SWAP2 SWAP1 DUP2 DUP2 MSTORE PUSH1 0x20 ADD DUP3 DUP1 SLOAD PUSH2 0x2C6 SWAP1 PUSH2 0x666 JUMP JUMPDEST DUP1 ISZERO PUSH2 0x311 JUMPI DUP1 PUSH1 0x1F LT PUSH2 0x2E8 JUMPI PUSH2 0x100 DUP1 DUP4 SLOAD DIV MUL DUP4 MSTORE SWAP2 PUSH1 0x20 ADD SWAP2 PUSH2 0x311 JUMP JUMPDEST DUP3 ADD SWAP2 SWAP1 PUSH0 MSTORE PUSH1 0x20 PUSH0 KECCAK256 SWAP1 JUMPDEST DUP2 SLOAD DUP2 MSTORE SWAP1 PUSH1 0x1 ADD SWAP1 PUSH1 0x20 ADD DUP1 DUP4 GT PUSH2 0x2F4 JUMPI DUP3 SWAP1 SUB PUSH1 0x1F AND DUP3 ADD SWAP2 JUMPDEST POP POP POP POP POP SWAP1 DUP1 PUSH1 0x1 ADD SLOAD SWAP1 DUP1 PUSH1 0x2 ADD PUSH0 SWAP1 SLOAD SWAP1 PUSH2 0x100 EXP SWAP1 DIV PUSH1 0xFF AND SWAP1 POP DUP4 JUMP JUMPDEST PUSH0 PUSH1 0x40 MLOAD SWAP1 POP SWAP1 JUMP JUMPDEST PUSH0 DUP1 REVERT JUMPDEST PUSH0 DUP1 REVERT JUMPDEST PUSH0 DUP2 SWAP1 POP SWAP2 SWAP1 POP JUMP JUMPDEST PUSH2 0x356 DUP2 PUSH2 0x344 JUMP JUMPDEST DUP2 EQ PUSH2 0x360 JUMPI PUSH0 DUP1 REVERT JUMPDEST POP JUMP JUMPDEST PUSH0 DUP2 CALLDATALOAD SWAP1 POP PUSH2 0x371 DUP2 PUSH2 0x34D JUMP JUMPDEST SWAP3 SWAP2 POP POP JUMP JUMPDEST PUSH0 PUSH1 0x20 DUP3 DUP5 SUB SLT ISZERO PUSH2 0x38C JUMPI PUSH2 0x38B PUSH2 0x33C JUMP JUMPDEST JUMPDEST PUSH0 PUSH2 0x399 DUP5 DUP3 DUP6 ADD PUSH2 0x363 JUMP JUMPDEST SWAP2 POP POP SWAP3 SWAP2 POP POP JUMP JUMPDEST PUSH0 DUP2 MLOAD SWAP1 POP SWAP2 SWAP1 POP JUMP JUMPDEST PUSH0 DUP3 DUP3 MSTORE PUSH1 0x20 DUP3 ADD SWAP1 POP SWAP3 SWAP2 POP POP JUMP JUMPDEST DUP3 DUP2 DUP4 MCOPY PUSH0 DUP4 DUP4 ADD MSTORE POP POP POP JUMP JUMPDEST PUSH0 PUSH1 0x1F NOT PUSH1 0x1F DUP4 ADD AND SWAP1 POP SWAP2 SWAP1 POP JUMP JUMPDEST PUSH0 PUSH2 0x3E4 DUP3 PUSH2 0x3A2 JUMP JUMPDEST PUSH2 0x3EE DUP2 DUP6 PUSH2 0x3AC JUMP JUMPDEST SWAP4 POP PUSH2 0x3FE DUP2 DUP6 PUSH1 0x20 DUP7 ADD PUSH2 0x3BC JUMP JUMPDEST PUSH2 0x407 DUP2 PUSH2 0x3CA JUMP JUMPDEST DUP5 ADD SWAP2 POP POP SWAP3 SWAP2 POP POP JUMP JUMPDEST PUSH2 0x41B DUP2 PUSH2 0x344 JUMP JUMPDEST DUP3 MSTORE POP POP JUMP JUMPDEST PUSH0 DUP2 ISZERO ISZERO SWAP1 POP SWAP2 SWAP1 POP JUMP JUMPDEST PUSH2 0x435 DUP2 PUSH2 0x421 JUMP JUMPDEST DUP3 MSTORE POP POP JUMP JUMPDEST PUSH0 PUSH1 0x60 DUP3 ADD SWAP1 POP DUP2 DUP2 SUB PUSH0 DUP4 ADD MSTORE PUSH2 0x453 DUP2 DUP7 PUSH2 0x3DA JUMP JUMPDEST SWAP1 POP PUSH2 0x462 PUSH1 0x20 DUP4 ADD DUP6 PUSH2 0x412 JUMP JUMPDEST PUSH2 0x46F PUSH1 0x40 DUP4 ADD DUP5 PUSH2 0x42C JUMP JUMPDEST SWAP5 SWAP4 POP POP POP POP JUMP JUMPDEST PUSH0 DUP1 REVERT JUMPDEST PUSH0 DUP1 REVERT JUMPDEST PUSH32 0x4E487B7100000000000000000000000000000000000000000000000000000000 PUSH0 MSTORE PUSH1 0x41 PUSH1 0x4 MSTORE PUSH1 0x24 PUSH0 REVERT JUMPDEST PUSH2 0x4B5 DUP3 PUSH2 0x3CA JUMP JUMPDEST DUP2 ADD DUP2 DUP2 LT PUSH8 0xFFFFFFFFFFFFFFFF DUP3 GT OR ISZERO PUSH2 0x4D4 JUMPI PUSH2 0x4D3 PUSH2 0x47F JUMP JUMPDEST JUMPDEST DUP1 PUSH1 0x40 MSTORE POP POP POP JUMP JUMPDEST PUSH0 PUSH2 0x4E6 PUSH2 0x333 JUMP JUMPDEST SWAP1 POP PUSH2 0x4F2 DUP3 DUP3 PUSH2 0x4AC JUMP JUMPDEST SWAP2 SWAP1 POP JUMP JUMPDEST PUSH0 PUSH8 0xFFFFFFFFFFFFFFFF DUP3 GT ISZERO PUSH2 0x511 JUMPI PUSH2 0x510 PUSH2 0x47F JUMP JUMPDEST JUMPDEST PUSH2 0x51A DUP3 PUSH2 0x3CA JUMP JUMPDEST SWAP1 POP PUSH1 0x20 DUP2 ADD SWAP1 POP SWAP2 SWAP1 POP JUMP JUMPDEST DUP3 DUP2 DUP4 CALLDATACOPY PUSH0 DUP4 DUP4 ADD MSTORE POP POP POP JUMP JUMPDEST PUSH0 PUSH2 0x547 PUSH2 0x542 DUP5 PUSH2 0x4F7 JUMP JUMPDEST PUSH2 0x4DD JUMP JUMPDEST SWAP1 POP DUP3 DUP2 MSTORE PUSH1 0x20 DUP2 ADD DUP5 DUP5 DUP5 ADD GT ISZERO PUSH2 0x563 JUMPI PUSH2 0x562 PUSH2 0x47B JUMP JUMPDEST JUMPDEST PUSH2 0x56E DUP5 DUP3 DUP6 PUSH2 0x527 JUMP JUMPDEST POP SWAP4 SWAP3 POP POP POP JUMP JUMPDEST PUSH0 DUP3 PUSH1 0x1F DUP4 ADD SLT PUSH2 0x58A JUMPI PUSH2 0x589 PUSH2 0x477 JUMP JUMPDEST JUMPDEST DUP2 CALLDATALOAD PUSH2 0x59A DUP5 DUP3 PUSH1 0x20 DUP7 ADD PUSH2 0x535 JUMP JUMPDEST SWAP2 POP POP SWAP3 SWAP2 POP POP JUMP JUMPDEST PUSH2 0x5AC DUP2 PUSH2 0x421 JUMP JUMPDEST DUP2 EQ PUSH2 0x5B6 JUMPI PUSH0 DUP1 REVERT JUMPDEST POP JUMP JUMPDEST PUSH0 DUP2 CALLDATALOAD SWAP1 POP PUSH2 0x5C7 DUP2 PUSH2 0x5A3 JUMP JUMPDEST SWAP3 SWAP2 POP POP JUMP JUMPDEST PUSH0 DUP1 PUSH0 PUSH1 0x60 DUP5 DUP7 SUB SLT ISZERO PUSH2 0x5E4 JUMPI PUSH2 0x5E3 PUSH2 0x33C JUMP JUMPDEST JUMPDEST PUSH0 DUP5 ADD CALLDATALOAD PUSH8 0xFFFFFFFFFFFFFFFF DUP2 GT ISZERO PUSH2 0x601 JUMPI PUSH2 0x600 PUSH2 0x340 JUMP JUMPDEST JUMPDEST PUSH2 0x60D DUP7 DUP3 DUP8 ADD PUSH2 0x576 JUMP JUMPDEST SWAP4 POP POP PUSH1 0x20 PUSH2 0x61E DUP7 DUP3 DUP8 ADD PUSH2 0x363 JUMP JUMPDEST SWAP3 POP POP PUSH1 0x40 PUSH2 0x62F DUP7 DUP3 DUP8 ADD PUSH2 0x5B9 JUMP JUMPDEST SWAP2 POP POP SWAP3 POP SWAP3 POP SWAP3 JUMP JUMPDEST PUSH32 0x4E487B7100000000000000000000000000000000000000000000000000000000 PUSH0 MSTORE PUSH1 0x22 PUSH1 0x4 MSTORE PUSH1 0x24 PUSH0 REVERT JUMPDEST PUSH0 PUSH1 0x2 DUP3 DIV SWAP1 POP PUSH1 0x1 DUP3 AND DUP1 PUSH2 0x67D JUMPI PUSH1 0x7F DUP3 AND SWAP2 POP JUMPDEST PUSH1 0x20 DUP3 LT DUP2 SUB PUSH2 0x690 JUMPI PUSH2 0x68F PUSH2 0x639 JUMP JUMPDEST JUMPDEST POP SWAP2 SWAP1 POP JUMP JUMPDEST PUSH0 DUP2 SWAP1 POP DUP2 PUSH0 MSTORE PUSH1 0x20 PUSH0 KECCAK256 SWAP1 POP SWAP2 SWAP1 POP JUMP JUMPDEST PUSH0 PUSH1 0x20 PUSH1 0x1F DUP4 ADD DIV SWAP1 POP SWAP2 SWAP1 POP JUMP JUMPDEST PUSH0 DUP3 DUP3 SHL SWAP1 POP SWAP3 SWAP2 POP POP JUMP JUMPDEST PUSH0 PUSH1 0x8 DUP4 MUL PUSH2 0x6F2 PUSH32 0xFFFFFFFFFFFFFFFFFFFFFFFFFFFFFFFFFFFFFFFFFFFFFFFFFFFFFFFFFFFFFFFF DUP3 PUSH2 0x6B7 JUMP JUMPDEST PUSH2 0x6FC DUP7 DUP4 PUSH2 0x6B7 JUMP JUMPDEST SWAP6 POP DUP1 NOT DUP5 AND SWAP4 POP DUP1 DUP7 AND DUP5 OR SWAP3 POP POP POP SWAP4 SWAP3 POP POP POP JUMP JUMPDEST PUSH0 DUP2 SWAP1 POP SWAP2 SWAP1 POP JUMP JUMPDEST PUSH0 PUSH2 0x737 PUSH2 0x732 PUSH2 0x72D DUP5 PUSH2 0x344 JUMP JUMPDEST PUSH2 0x714 JUMP JUMPDEST PUSH2 0x344 JUMP JUMPDEST SWAP1 POP SWAP2 SWAP1 POP JUMP JUMPDEST PUSH0 DUP2 SWAP1 POP SWAP2 SWAP1 POP JUMP JUMPDEST PUSH2 0x750 DUP4 PUSH2 0x71D JUMP JUMPDEST PUSH2 0x764 PUSH2 0x75C DUP3 PUSH2 0x73E JUMP JUMPDEST DUP5 DUP5 SLOAD PUSH2 0x6C3 JUMP JUMPDEST DUP3 SSTORE POP POP POP POP JUMP JUMPDEST PUSH0 SWAP1 JUMP JUMPDEST PUSH2 0x778 PUSH2 0x76C JUMP JUMPDEST PUSH2 0x783 DUP2 DUP5 DUP5 PUSH2 0x747 JUMP JUMPDEST POP POP POP JUMP JUMPDEST JUMPDEST DUP2 DUP2 LT ISZERO PUSH2 0x7A6 JUMPI PUSH2 0x79B PUSH0 DUP3 PUSH2 0x770 JUMP JUMPDEST PUSH1 0x1 DUP2 ADD SWAP1 POP PUSH2 0x789 JUMP JUMPDEST POP POP JUMP JUMPDEST PUSH1 0x1F DUP3 GT ISZERO PUSH2 0x7EB JUMPI PUSH2 0x7BC DUP2 PUSH2 0x696 JUMP JUMPDEST PUSH2 0x7C5 DUP5 PUSH2 0x6A8 JUMP JUMPDEST DUP2 ADD PUSH1 0x20 DUP6 LT ISZERO PUSH2 0x7D4 JUMPI DUP2 SWAP1 POP JUMPDEST PUSH2 0x7E8 PUSH2 0x7E0 DUP6 PUSH2 0x6A8 JUMP JUMPDEST DUP4 ADD DUP3 PUSH2 0x788 JUMP JUMPDEST POP POP JUMPDEST POP POP POP JUMP JUMPDEST PUSH0 DUP3 DUP3 SHR SWAP1 POP SWAP3 SWAP2 POP POP JUMP JUMPDEST PUSH0 PUSH2 0x80B PUSH0 NOT DUP5 PUSH1 0x8 MUL PUSH2 0x7F0 JUMP JUMPDEST NOT DUP1 DUP4 AND SWAP2 POP POP SWAP3 SWAP2 POP POP JUMP JUMPDEST PUSH0 PUSH2 0x823 DUP4 DUP4 PUSH2 0x7FC JUMP JUMPDEST SWAP2 POP DUP3 PUSH1 0x2 MUL DUP3 OR SWAP1 POP SWAP3 SWAP2 POP POP JUMP JUMPDEST PUSH2 0x83C DUP3 PUSH2 0x3A2 JUMP JUMPDEST PUSH8 0xFFFFFFFFFFFFFFFF DUP2 GT ISZERO PUSH2 0x855 JUMPI PUSH2 0x854 PUSH2 0x47F JUMP JUMPDEST JUMPDEST PUSH2 0x85F DUP3 SLOAD PUSH2 0x666 JUMP JUMPDEST PUSH2 0x86A DUP3 DUP3 DUP6 PUSH2 0x7AA JUMP JUMPDEST PUSH0 PUSH1 0x20 SWAP1 POP PUSH1 0x1F DUP4 GT PUSH1 0x1 DUP2 EQ PUSH2 0x89B JUMPI PUSH0 DUP5 ISZERO PUSH2 0x889 JUMPI DUP3 DUP8 ADD MLOAD SWAP1 POP JUMPDEST PUSH2 0x893 DUP6 DUP3 PUSH2 0x818 JUMP JUMPDEST DUP7 SSTORE POP PUSH2 0x8FA JUMP JUMPDEST PUSH1 0x1F NOT DUP5 AND PUSH2 0x8A9 DUP7 PUSH2 0x696 JUMP JUMPDEST PUSH0 JUMPDEST DUP3 DUP2 LT ISZERO PUSH2 0x8D0 JUMPI DUP5 DUP10 ADD MLOAD DUP3 SSTORE PUSH1 0x1 DUP3 ADD SWAP2 POP PUSH1 0x20 DUP6 ADD SWAP5 POP PUSH1 0x20 DUP2 ADD SWAP1 POP PUSH2 0x8AB JUMP JUMPDEST DUP7 DUP4 LT ISZERO PUSH2 0x8ED JUMPI DUP5 DUP10 ADD MLOAD PUSH2 0x8E9 PUSH1 0x1F DUP10 AND DUP3 PUSH2 0x7FC JUMP JUMPDEST DUP4 SSTORE POP JUMPDEST PUSH1 0x1 PUSH1 0x2 DUP9 MUL ADD DUP9 SSTORE POP POP POP JUMPDEST POP POP POP POP POP POP JUMP INVALID LOG2 PUSH5 0x6970667358 0x22 SLT KECCAK256 MLOAD ADDRESS PUSH31 0xB63EFD9BAC5E89C928F9BD3D043E9C1E1CE1A24903D0D98D7D52D196F96473 PUSH16 0x6C634300081A00330000000000000000 "
		},
		"gasEstimates": {
			"creation": {
				"codeDepositCost": "472000",
				"executionCost": "503",
				"totalCost": "472503"
			},
			"external": {
				"addStudent(string,uint256,bool)": "infinite",
				"setStudent(string,uint256,bool)": "infinite",
				"student()": "infinite",
				"students(uint256)": "infinite"
			}
		},
		"methodIdentifiers": {
			"addStudent(string,uint256,bool)": "1dfc2962",
			"setStudent(string,uint256,bool)": "19044f07",
			"student()": "699450e8",
			"students(uint256)": "06ead22e"
		}
	},
	"abi": [
		{
			"inputs": [
				{
					"internalType": "string",
					"name": "_name",
					"type": "string"
				},
				{
					"internalType": "uint256",
					"name": "_age",
					"type": "uint256"
				},
				{
					"internalType": "bool",
					"name": "_enrolled",
					"type": "bool"
				}
			],
			"name": "addStudent",
			"outputs": [],
			"stateMutability": "nonpayable",
			"type": "function"
		},
		{
			"inputs": [
				{
					"internalType": "string",
					"name": "_name",
					"type": "string"
				},
				{
					"internalType": "uint256",
					"name": "_age",
					"type": "uint256"
				},
				{
					"internalType": "bool",
					"name": "_enrolled",
					"type": "bool"
				}
			],
			"name": "setStudent",
			"outputs": [],
			"stateMutability": "nonpayable",
			"type": "function"
		},
		{
			"inputs": [],
			"name": "student",
			"outputs": [
				{
					"internalType": "string",
					"name": "name",
					"type": "string"
				},
				{
					"internalType": "uint256",
					"name": "age",
					"type": "uint256"
				},
				{
					"internalType": "bool",
					"name": "enrolled",
					"type": "bool"
				}
			],
			"stateMutability": "view",
			"type": "function"
		},
		{
			"inputs": [
				{
					"internalType": "uint256",
					"name": "",
					"type": "uint256"
				}
			],
			"name": "students",
			"outputs": [
				{
					"internalType": "string",
					"name": "name",
					"type": "string"
				},
				{
					"internalType": "uint256",
					"name": "age",
					"type": "uint256"
				},
				{
					"internalType": "bool",
					"name": "enrolled",
					"type": "bool"
				}
			],
			"stateMutability": "view",
			"type": "function"
		}
	]
}