{
	"data": {
		"bytecode": {
			"linkReferences": {},
			"object": "6080604052348015600e575f5ffd5b50335f5f6101000a81548173ffffffffffffffffffffffffffffffffffffffff021916908373ffffffffffffffffffffffffffffffffffffffff160217905550610eb68061005b5f395ff3fe608060405234801561000f575f5ffd5b506004361061003f575f3560e01c806305ab39b71461004357806319b99e03146100785780638da5cb5b146100a8575b5f5ffd5b61005d60048036038101906100589190610568565b6100c6565b60405161006f96959493929190610635565b60405180910390f35b610092600480360381019061008d91906107ff565b61029c565b60405161009f91906108d9565b60405180910390f35b6100b0610500565b6040516100bd9190610931565b60405180910390f35b6001602052805f5260405f205f91509050805f0180546100e590610977565b80601f016020809104026020016040519081016040528092919081815260200182805461011190610977565b801561015c5780601f106101335761010080835404028352916020019161015c565b820191905f5260205f20905b81548152906001019060200180831161013f57829003601f168201915b50505050509080600101805461017190610977565b80601f016020809104026020016040519081016040528092919081815260200182805461019d90610977565b80156101e85780601f106101bf576101008083540402835291602001916101e8565b820191905f5260205f20905b8154815290600101906020018083116101cb57829003601f168201915b50505050509080600201549080600301549080600401805461020990610977565b80601f016020809104026020016040519081016040528092919081815260200182805461023590610977565b80156102805780601f1061025757610100808354040283529160200191610280565b820191905f5260205f20905b81548152906001019060200180831161026357829003601f168201915b505050505090806005015f9054906101000a900460ff16905086565b5f5f5f9054906101000a900473ffffffffffffffffffffffffffffffffffffffff1673ffffffffffffffffffffffffffffffffffffffff163373ffffffffffffffffffffffffffffffffffffffff161461032b576040517f08c379a0000000000000000000000000000000000000000000000000000000008152600401610322906109f1565b60405180910390fd5b81831061036d576040517f08c379a000000000000000000000000000000000000000000000000000000000815260040161036490610a59565b60405180910390fd5b5f868433426040516020016103859493929190610b16565b60405160208183030381529060405280519060200120905060015f8281526020019081526020015f206005015f9054906101000a900460ff16156103fe576040517f08c379a00000000000000000000000000000000000000000000000000000000081526004016103f590610ba9565b60405180910390fd5b6040518060c001604052808881526020018781526020018581526020018481526020018681526020016001151581525060015f8381526020019081526020015f205f820151815f0190816104529190610d67565b5060208201518160010190816104689190610d67565b50604082015181600201556060820151816003015560808201518160040190816104929190610d67565b5060a0820151816005015f6101000a81548160ff021916908315150217905550905050807f7388675a8cae9f5441f4839d99aa9013a2daf441d66dd0a6ab3f05fa6a4d7393888686336040516104eb9493929190610e36565b60405180910390a28091505095945050505050565b5f5f9054906101000a900473ffffffffffffffffffffffffffffffffffffffff1681565b5f604051905090565b5f5ffd5b5f5ffd5b5f819050919050565b61054781610535565b8114610551575f5ffd5b50565b5f813590506105628161053e565b92915050565b5f6020828403121561057d5761057c61052d565b5b5f61058a84828501610554565b91505092915050565b5f81519050919050565b5f82825260208201905092915050565b8281835e5f83830152505050565b5f601f19601f8301169050919050565b5f6105d582610593565b6105df818561059d565b93506105ef8185602086016105ad565b6105f8816105bb565b840191505092915050565b5f819050919050565b61061581610603565b82525050565b5f8115159050919050565b61062f8161061b565b82525050565b5f60c0820190508181035f83015261064d81896105cb565b9050818103602083015261066181886105cb565b9050610670604083018761060c565b61067d606083018661060c565b818103608083015261068f81856105cb565b905061069e60a0830184610626565b979650505050505050565b5f5ffd5b5f5ffd5b7f4e487b71000000000000000000000000000000000000000000000000000000005f52604160045260245ffd5b6106e7826105bb565b810181811067ffffffffffffffff82111715610706576107056106b1565b5b80604052505050565b5f610718610524565b905061072482826106de565b919050565b5f67ffffffffffffffff821115610743576107426106b1565b5b61074c826105bb565b9050602081019050919050565b828183375f83830152505050565b5f61077961077484610729565b61070f565b905082815260208101848484011115610795576107946106ad565b5b6107a0848285610759565b509392505050565b5f82601f8301126107bc576107bb6106a9565b5b81356107cc848260208601610767565b91505092915050565b6107de81610603565b81146107e8575f5ffd5b50565b5f813590506107f9816107d5565b92915050565b5f5f5f5f5f60a086880312156108185761081761052d565b5b5f86013567ffffffffffffffff81111561083557610834610531565b5b610841888289016107a8565b955050602086013567ffffffffffffffff81111561086257610861610531565b5b61086e888289016107a8565b945050604086013567ffffffffffffffff81111561088f5761088e610531565b5b61089b888289016107a8565b93505060606108ac888289016107eb565b92505060806108bd888289016107eb565b9150509295509295909350565b6108d381610535565b82525050565b5f6020820190506108ec5f8301846108ca565b92915050565b5f73ffffffffffffffffffffffffffffffffffffffff82169050919050565b5f61091b826108f2565b9050919050565b61092b81610911565b82525050565b5f6020820190506109445f830184610922565b92915050565b7f4e487b71000000000000000000000000000000000000000000000000000000005f52602260045260245ffd5b5f600282049050600182168061098e57607f821691505b6020821081036109a1576109a061094a565b5b50919050565b7f4f6e6c792061646d696e2063616e2063726561746520656c656374696f6e73005f82015250565b5f6109db601f8361059d565b91506109e6826109a7565b602082019050919050565b5f6020820190508181035f830152610a08816109cf565b9050919050565b7f496e76616c69642074696d656c696e65000000000000000000000000000000005f82015250565b5f610a4360108361059d565b9150610a4e82610a0f565b602082019050919050565b5f6020820190508181035f830152610a7081610a37565b9050919050565b5f81905092915050565b5f610a8b82610593565b610a958185610a77565b9350610aa58185602086016105ad565b80840191505092915050565b5f819050919050565b610acb610ac682610603565b610ab1565b82525050565b5f8160601b9050919050565b5f610ae782610ad1565b9050919050565b5f610af882610add565b9050919050565b610b10610b0b82610911565b610aee565b82525050565b5f610b218287610a81565b9150610b2d8286610aba565b602082019150610b3d8285610aff565b601482019150610b4d8284610aba565b60208201915081905095945050505050565b7f456c656374696f6e20616c7265616479206578697374730000000000000000005f82015250565b5f610b9360178361059d565b9150610b9e82610b5f565b602082019050919050565b5f6020820190508181035f830152610bc081610b87565b9050919050565b5f819050815f5260205f209050919050565b5f6020601f8301049050919050565b5f82821b905092915050565b5f60088302610c237fffffffffffffffffffffffffffffffffffffffffffffffffffffffffffffffff82610be8565b610c2d8683610be8565b95508019841693508086168417925050509392505050565b5f819050919050565b5f610c68610c63610c5e84610603565b610c45565b610603565b9050919050565b5f819050919050565b610c8183610c4e565b610c95610c8d82610c6f565b848454610bf4565b825550505050565b5f5f905090565b610cac610c9d565b610cb7818484610c78565b505050565b5b81811015610cda57610ccf5f82610ca4565b600181019050610cbd565b5050565b601f821115610d1f57610cf081610bc7565b610cf984610bd9565b81016020851015610d08578190505b610d1c610d1485610bd9565b830182610cbc565b50505b505050565b5f82821c905092915050565b5f610d3f5f1984600802610d24565b1980831691505092915050565b5f610d578383610d30565b9150826002028217905092915050565b610d7082610593565b67ffffffffffffffff811115610d8957610d886106b1565b5b610d938254610977565b610d9e828285610cde565b5f60209050601f831160018114610dcf575f8415610dbd578287015190505b610dc78582610d4c565b865550610e2e565b601f198416610ddd86610bc7565b5f5b82811015610e0457848901518255600182019150602085019450602081019050610ddf565b86831015610e215784890151610e1d601f891682610d30565b8355505b6001600288020188555050505b505050505050565b5f6080820190508181035f830152610e4e81876105cb565b9050610e5d602083018661060c565b610e6a604083018561060c565b610e776060830184610922565b9594505050505056fea264697066735822122020399d8af419a763b15bb3802d2c18eba5ffe4ce4a1462b7627f8300cfb1b67064736f6c634300081e0033",
			"opcodes": "PUSH1 0x80 PUSH1 0x40 MSTORE CALLVALUE DUP1 ISZERO PUSH1 0xE JUMPI PUSH0 PUSH0 REVERT JUMPDEST POP CALLER PUSH0 PUSH0 PUSH2 0x100 EXP DUP2 SLOAD DUP2 PUSH20 0xFFFFFFFFFFFFFFFFFFFFFFFFFFFFFFFFFFFFFFFF MUL NOT AND SWAP1 DUP4 PUSH20 0xFFFFFFFFFFFFFFFFFFFFFFFFFFFFFFFFFFFFFFFF AND MUL OR SWAP1 SSTORE POP PUSH2 0xEB6 DUP1 PUSH2 0x5B PUSH0 CODECOPY PUSH0 RETURN INVALID PUSH1 0x80 PUSH1 0x40 MSTORE CALLVALUE DUP1 ISZERO PUSH2 0xF JUMPI PUSH0 PUSH0 REVERT JUMPDEST POP PUSH1 0x4 CALLDATASIZE LT PUSH2 0x3F JUMPI PUSH0 CALLDATALOAD PUSH1 0xE0 SHR DUP1 PUSH4 0x5AB39B7 EQ PUSH2 0x43 JUMPI DUP1 PUSH4 0x19B99E03 EQ PUSH2 0x78 JUMPI DUP1 PUSH4 0x8DA5CB5B EQ PUSH2 0xA8 JUMPI JUMPDEST PUSH0 PUSH0 REVERT JUMPDEST PUSH2 0x5D PUSH1 0x4 DUP1 CALLDATASIZE SUB DUP2 ADD SWAP1 PUSH2 0x58 SWAP2 SWAP1 PUSH2 0x568 JUMP JUMPDEST PUSH2 0xC6 JUMP JUMPDEST PUSH1 0x40 MLOAD PUSH2 0x6F SWAP7 SWAP6 SWAP5 SWAP4 SWAP3 SWAP2 SWAP1 PUSH2 0x635 JUMP JUMPDEST PUSH1 0x40 MLOAD DUP1 SWAP2 SUB SWAP1 RETURN JUMPDEST PUSH2 0x92 PUSH1 0x4 DUP1 CALLDATASIZE SUB DUP2 ADD SWAP1 PUSH2 0x8D SWAP2 SWAP1 PUSH2 0x7FF JUMP JUMPDEST PUSH2 0x29C JUMP JUMPDEST PUSH1 0x40 MLOAD PUSH2 0x9F SWAP2 SWAP1 PUSH2 0x8D9 JUMP JUMPDEST PUSH1 0x40 MLOAD DUP1 SWAP2 SUB SWAP1 RETURN JUMPDEST PUSH2 0xB0 PUSH2 0x500 JUMP JUMPDEST PUSH1 0x40 MLOAD PUSH2 0xBD SWAP2 SWAP1 PUSH2 0x931 JUMP JUMPDEST PUSH1 0x40 MLOAD DUP1 SWAP2 SUB SWAP1 RETURN JUMPDEST PUSH1 0x1 PUSH1 0x20 MSTORE DUP1 PUSH0 MSTORE PUSH1 0x40 PUSH0 KECCAK256 PUSH0 SWAP2 POP SWAP1 POP DUP1 PUSH0 ADD DUP1 SLOAD PUSH2 0xE5 SWAP1 PUSH2 0x977 JUMP JUMPDEST DUP1 PUSH1 0x1F ADD PUSH1 0x20 DUP1 SWAP2 DIV MUL PUSH1 0x20 ADD PUSH1 0x40 MLOAD SWAP1 DUP2 ADD PUSH1 0x40 MSTORE DUP1 SWAP3 SWAP2 SWAP1 DUP2 DUP2 MSTORE PUSH1 0x20 ADD DUP3 DUP1 SLOAD PUSH2 0x111 SWAP1 PUSH2 0x977 JUMP JUMPDEST DUP1 ISZERO PUSH2 0x15C JUMPI DUP1 PUSH1 0x1F LT PUSH2 0x133 JUMPI PUSH2 0x100 DUP1 DUP4 SLOAD DIV MUL DUP4 MSTORE SWAP2 PUSH1 0x20 ADD SWAP2 PUSH2 0x15C JUMP JUMPDEST DUP3 ADD SWAP2 SWAP1 PUSH0 MSTORE PUSH1 0x20 PUSH0 KECCAK256 SWAP1 JUMPDEST DUP2 SLOAD DUP2 MSTORE SWAP1 PUSH1 0x1 ADD SWAP1 PUSH1 0x20 ADD DUP1 DUP4 GT PUSH2 0x13F JUMPI DUP3 SWAP1 SUB PUSH1 0x1F AND DUP3 ADD SWAP2 JUMPDEST POP POP POP POP POP SWAP1 DUP1 PUSH1 0x1 ADD DUP1 SLOAD PUSH2 0x171 SWAP1 PUSH2 0x977 JUMP JUMPDEST DUP1 PUSH1 0x1F ADD PUSH1 0x20 DUP1 SWAP2 DIV MUL PUSH1 0x20 ADD PUSH1 0x40 MLOAD SWAP1 DUP2 ADD PUSH1 0x40 MSTORE DUP1 SWAP3 SWAP2 SWAP1 DUP2 DUP2 MSTORE PUSH1 0x20 ADD DUP3 DUP1 SLOAD PUSH2 0x19D SWAP1 PUSH2 0x977 JUMP JUMPDEST DUP1 ISZERO PUSH2 0x1E8 JUMPI DUP1 PUSH1 0x1F LT PUSH2 0x1BF JUMPI PUSH2 0x100 DUP1 DUP4 SLOAD DIV MUL DUP4 MSTORE SWAP2 PUSH1 0x20 ADD SWAP2 PUSH2 0x1E8 JUMP JUMPDEST DUP3 ADD SWAP2 SWAP1 PUSH0 MSTORE PUSH1 0x20 PUSH0 KECCAK256 SWAP1 JUMPDEST DUP2 SLOAD DUP2 MSTORE SWAP1 PUSH1 0x1 ADD SWAP1 PUSH1 0x20 ADD DUP1 DUP4 GT PUSH2 0x1CB JUMPI DUP3 SWAP1 SUB PUSH1 0x1F AND DUP3 ADD SWAP2 JUMPDEST POP POP POP POP POP SWAP1 DUP1 PUSH1 0x2 ADD SLOAD SWAP1 DUP1 PUSH1 0x3 ADD SLOAD SWAP1 DUP1 PUSH1 0x4 ADD DUP1 SLOAD PUSH2 0x209 SWAP1 PUSH2 0x977 JUMP JUMPDEST DUP1 PUSH1 0x1F ADD PUSH1 0x20 DUP1 SWAP2 DIV MUL PUSH1 0x20 ADD PUSH1 0x40 MLOAD SWAP1 DUP2 ADD PUSH1 0x40 MSTORE DUP1 SWAP3 SWAP2 SWAP1 DUP2 DUP2 MSTORE PUSH1 0x20 ADD DUP3 DUP1 SLOAD PUSH2 0x235 SWAP1 PUSH2 0x977 JUMP JUMPDEST DUP1 ISZERO PUSH2 0x280 JUMPI DUP1 PUSH1 0x1F LT PUSH2 0x257 JUMPI PUSH2 0x100 DUP1 DUP4 SLOAD DIV MUL DUP4 MSTORE SWAP2 PUSH1 0x20 ADD SWAP2 PUSH2 0x280 JUMP JUMPDEST DUP3 ADD SWAP2 SWAP1 PUSH0 MSTORE PUSH1 0x20 PUSH0 KECCAK256 SWAP1 JUMPDEST DUP2 SLOAD DUP2 MSTORE SWAP1 PUSH1 0x1 ADD SWAP1 PUSH1 0x20 ADD DUP1 DUP4 GT PUSH2 0x263 JUMPI DUP3 SWAP1 SUB PUSH1 0x1F AND DUP3 ADD SWAP2 JUMPDEST POP POP POP POP POP SWAP1 DUP1 PUSH1 0x5 ADD PUSH0 SWAP1 SLOAD SWAP1 PUSH2 0x100 EXP SWAP1 DIV PUSH1 0xFF AND SWAP1 POP DUP7 JUMP JUMPDEST PUSH0 PUSH0 PUSH0 SWAP1 SLOAD SWAP1 PUSH2 0x100 EXP SWAP1 DIV PUSH20 0xFFFFFFFFFFFFFFFFFFFFFFFFFFFFFFFFFFFFFFFF AND PUSH20 0xFFFFFFFFFFFFFFFFFFFFFFFFFFFFFFFFFFFFFFFF AND CALLER PUSH20 0xFFFFFFFFFFFFFFFFFFFFFFFFFFFFFFFFFFFFFFFF AND EQ PUSH2 0x32B JUMPI PUSH1 0x40 MLOAD PUSH32 0x8C379A000000000000000000000000000000000000000000000000000000000 DUP2 MSTORE PUSH1 0x4 ADD PUSH2 0x322 SWAP1 PUSH2 0x9F1 JUMP JUMPDEST PUSH1 0x40 MLOAD DUP1 SWAP2 SUB SWAP1 REVERT JUMPDEST DUP2 DUP4 LT PUSH2 0x36D JUMPI PUSH1 0x40 MLOAD PUSH32 0x8C379A000000000000000000000000000000000000000000000000000000000 DUP2 MSTORE PUSH1 0x4 ADD PUSH2 0x364 SWAP1 PUSH2 0xA59 JUMP JUMPDEST PUSH1 0x40 MLOAD DUP1 SWAP2 SUB SWAP1 REVERT JUMPDEST PUSH0 DUP7 DUP5 CALLER TIMESTAMP PUSH1 0x40 MLOAD PUSH1 0x20 ADD PUSH2 0x385 SWAP5 SWAP4 SWAP3 SWAP2 SWAP1 PUSH2 0xB16 JUMP JUMPDEST PUSH1 0x40 MLOAD PUSH1 0x20 DUP2 DUP4 SUB SUB DUP2 MSTORE SWAP1 PUSH1 0x40 MSTORE DUP1 MLOAD SWAP1 PUSH1 0x20 ADD KECCAK256 SWAP1 POP PUSH1 0x1 PUSH0 DUP3 DUP2 MSTORE PUSH1 0x20 ADD SWAP1 DUP2 MSTORE PUSH1 0x20 ADD PUSH0 KECCAK256 PUSH1 0x5 ADD PUSH0 SWAP1 SLOAD SWAP1 PUSH2 0x100 EXP SWAP1 DIV PUSH1 0xFF AND ISZERO PUSH2 0x3FE JUMPI PUSH1 0x40 MLOAD PUSH32 0x8C379A000000000000000000000000000000000000000000000000000000000 DUP2 MSTORE PUSH1 0x4 ADD PUSH2 0x3F5 SWAP1 PUSH2 0xBA9 JUMP JUMPDEST PUSH1 0x40 MLOAD DUP1 SWAP2 SUB SWAP1 REVERT JUMPDEST PUSH1 0x40 MLOAD DUP1 PUSH1 0xC0 ADD PUSH1 0x40 MSTORE DUP1 DUP9 DUP2 MSTORE PUSH1 0x20 ADD DUP8 DUP2 MSTORE PUSH1 0x20 ADD DUP6 DUP2 MSTORE PUSH1 0x20 ADD DUP5 DUP2 MSTORE PUSH1 0x20 ADD DUP7 DUP2 MSTORE PUSH1 0x20 ADD PUSH1 0x1 ISZERO ISZERO DUP2 MSTORE POP PUSH1 0x1 PUSH0 DUP4 DUP2 MSTORE PUSH1 0x20 ADD SWAP1 DUP2 MSTORE PUSH1 0x20 ADD PUSH0 KECCAK256 PUSH0 DUP3 ADD MLOAD DUP2 PUSH0 ADD SWAP1 DUP2 PUSH2 0x452 SWAP2 SWAP1 PUSH2 0xD67 JUMP JUMPDEST POP PUSH1 0x20 DUP3 ADD MLOAD DUP2 PUSH1 0x1 ADD SWAP1 DUP2 PUSH2 0x468 SWAP2 SWAP1 PUSH2 0xD67 JUMP JUMPDEST POP PUSH1 0x40 DUP3 ADD MLOAD DUP2 PUSH1 0x2 ADD SSTORE PUSH1 0x60 DUP3 ADD MLOAD DUP2 PUSH1 0x3 ADD SSTORE PUSH1 0x80 DUP3 ADD MLOAD DUP2 PUSH1 0x4 ADD SWAP1 DUP2 PUSH2 0x492 SWAP2 SWAP1 PUSH2 0xD67 JUMP JUMPDEST POP PUSH1 0xA0 DUP3 ADD MLOAD DUP2 PUSH1 0x5 ADD PUSH0 PUSH2 0x100 EXP DUP2 SLOAD DUP2 PUSH1 0xFF MUL NOT AND SWAP1 DUP4 ISZERO ISZERO MUL OR SWAP1 SSTORE POP SWAP1 POP POP DUP1 PUSH32 0x7388675A8CAE9F5441F4839D99AA9013A2DAF441D66DD0A6AB3F05FA6A4D7393 DUP9 DUP7 DUP7 CALLER PUSH1 0x40 MLOAD PUSH2 0x4EB SWAP5 SWAP4 SWAP3 SWAP2 SWAP1 PUSH2 0xE36 JUMP JUMPDEST PUSH1 0x40 MLOAD DUP1 SWAP2 SUB SWAP1 LOG2 DUP1 SWAP2 POP POP SWAP6 SWAP5 POP POP POP POP POP JUMP JUMPDEST PUSH0 PUSH0 SWAP1 SLOAD SWAP1 PUSH2 0x100 EXP SWAP1 DIV PUSH20 0xFFFFFFFFFFFFFFFFFFFFFFFFFFFFFFFFFFFFFFFF AND DUP2 JUMP JUMPDEST PUSH0 PUSH1 0x40 MLOAD SWAP1 POP SWAP1 JUMP JUMPDEST PUSH0 PUSH0 REVERT JUMPDEST PUSH0 PUSH0 REVERT JUMPDEST PUSH0 DUP2 SWAP1 POP SWAP2 SWAP1 POP JUMP JUMPDEST PUSH2 0x547 DUP2 PUSH2 0x535 JUMP JUMPDEST DUP2 EQ PUSH2 0x551 JUMPI PUSH0 PUSH0 REVERT JUMPDEST POP JUMP JUMPDEST PUSH0 DUP2 CALLDATALOAD SWAP1 POP PUSH2 0x562 DUP2 PUSH2 0x53E JUMP JUMPDEST SWAP3 SWAP2 POP POP JUMP JUMPDEST PUSH0 PUSH1 0x20 DUP3 DUP5 SUB SLT ISZERO PUSH2 0x57D JUMPI PUSH2 0x57C PUSH2 0x52D JUMP JUMPDEST JUMPDEST PUSH0 PUSH2 0x58A DUP5 DUP3 DUP6 ADD PUSH2 0x554 JUMP JUMPDEST SWAP2 POP POP SWAP3 SWAP2 POP POP JUMP JUMPDEST PUSH0 DUP2 MLOAD SWAP1 POP SWAP2 SWAP1 POP JUMP JUMPDEST PUSH0 DUP3 DUP3 MSTORE PUSH1 0x20 DUP3 ADD SWAP1 POP SWAP3 SWAP2 POP POP JUMP JUMPDEST DUP3 DUP2 DUP4 MCOPY PUSH0 DUP4 DUP4 ADD MSTORE POP POP POP JUMP JUMPDEST PUSH0 PUSH1 0x1F NOT PUSH1 0x1F DUP4 ADD AND SWAP1 POP SWAP2 SWAP1 POP JUMP JUMPDEST PUSH0 PUSH2 0x5D5 DUP3 PUSH2 0x593 JUMP JUMPDEST PUSH2 0x5DF DUP2 DUP6 PUSH2 0x59D JUMP JUMPDEST SWAP4 POP PUSH2 0x5EF DUP2 DUP6 PUSH1 0x20 DUP7 ADD PUSH2 0x5AD JUMP JUMPDEST PUSH2 0x5F8 DUP2 PUSH2 0x5BB JUMP JUMPDEST DUP5 ADD SWAP2 POP POP SWAP3 SWAP2 POP POP JUMP JUMPDEST PUSH0 DUP2 SWAP1 POP SWAP2 SWAP1 POP JUMP JUMPDEST PUSH2 0x615 DUP2 PUSH2 0x603 JUMP JUMPDEST DUP3 MSTORE POP POP JUMP JUMPDEST PUSH0 DUP2 ISZERO ISZERO SWAP1 POP SWAP2 SWAP1 POP JUMP JUMPDEST PUSH2 0x62F DUP2 PUSH2 0x61B JUMP JUMPDEST DUP3 MSTORE POP POP JUMP JUMPDEST PUSH0 PUSH1 0xC0 DUP3 ADD SWAP1 POP DUP2 DUP2 SUB PUSH0 DUP4 ADD MSTORE PUSH2 0x64D DUP2 DUP10 PUSH2 0x5CB JUMP JUMPDEST SWAP1 POP DUP2 DUP2 SUB PUSH1 0x20 DUP4 ADD MSTORE PUSH2 0x661 DUP2 DUP9 PUSH2 0x5CB JUMP JUMPDEST SWAP1 POP PUSH2 0x670 PUSH1 0x40 DUP4 ADD DUP8 PUSH2 0x60C JUMP JUMPDEST PUSH2 0x67D PUSH1 0x60 DUP4 ADD DUP7 PUSH2 0x60C JUMP JUMPDEST DUP2 DUP2 SUB PUSH1 0x80 DUP4 ADD MSTORE PUSH2 0x68F DUP2 DUP6 PUSH2 0x5CB JUMP JUMPDEST SWAP1 POP PUSH2 0x69E PUSH1 0xA0 DUP4 ADD DUP5 PUSH2 0x626 JUMP JUMPDEST SWAP8 SWAP7 POP POP POP POP POP POP POP JUMP JUMPDEST PUSH0 PUSH0 REVERT JUMPDEST PUSH0 PUSH0 REVERT JUMPDEST PUSH32 0x4E487B7100000000000000000000000000000000000000000000000000000000 PUSH0 MSTORE PUSH1 0x41 PUSH1 0x4 MSTORE PUSH1 0x24 PUSH0 REVERT JUMPDEST PUSH2 0x6E7 DUP3 PUSH2 0x5BB JUMP JUMPDEST DUP2 ADD DUP2 DUP2 LT PUSH8 0xFFFFFFFFFFFFFFFF DUP3 GT OR ISZERO PUSH2 0x706 JUMPI PUSH2 0x705 PUSH2 0x6B1 JUMP JUMPDEST JUMPDEST DUP1 PUSH1 0x40 MSTORE POP POP POP JUMP JUMPDEST PUSH0 PUSH2 0x718 PUSH2 0x524 JUMP JUMPDEST SWAP1 POP PUSH2 0x724 DUP3 DUP3 PUSH2 0x6DE JUMP JUMPDEST SWAP2 SWAP1 POP JUMP JUMPDEST PUSH0 PUSH8 0xFFFFFFFFFFFFFFFF DUP3 GT ISZERO PUSH2 0x743 JUMPI PUSH2 0x742 PUSH2 0x6B1 JUMP JUMPDEST JUMPDEST PUSH2 0x74C DUP3 PUSH2 0x5BB JUMP JUMPDEST SWAP1 POP PUSH1 0x20 DUP2 ADD SWAP1 POP SWAP2 SWAP1 POP JUMP JUMPDEST DUP3 DUP2 DUP4 CALLDATACOPY PUSH0 DUP4 DUP4 ADD MSTORE POP POP POP JUMP JUMPDEST PUSH0 PUSH2 0x779 PUSH2 0x774 DUP5 PUSH2 0x729 JUMP JUMPDEST PUSH2 0x70F JUMP JUMPDEST SWAP1 POP DUP3 DUP2 MSTORE PUSH1 0x20 DUP2 ADD DUP5 DUP5 DUP5 ADD GT ISZERO PUSH2 0x795 JUMPI PUSH2 0x794 PUSH2 0x6AD JUMP JUMPDEST JUMPDEST PUSH2 0x7A0 DUP5 DUP3 DUP6 PUSH2 0x759 JUMP JUMPDEST POP SWAP4 SWAP3 POP POP POP JUMP JUMPDEST PUSH0 DUP3 PUSH1 0x1F DUP4 ADD SLT PUSH2 0x7BC JUMPI PUSH2 0x7BB PUSH2 0x6A9 JUMP JUMPDEST JUMPDEST DUP2 CALLDATALOAD PUSH2 0x7CC DUP5 DUP3 PUSH1 0x20 DUP7 ADD PUSH2 0x767 JUMP JUMPDEST SWAP2 POP POP SWAP3 SWAP2 POP POP JUMP JUMPDEST PUSH2 0x7DE DUP2 PUSH2 0x603 JUMP JUMPDEST DUP2 EQ PUSH2 0x7E8 JUMPI PUSH0 PUSH0 REVERT JUMPDEST POP JUMP JUMPDEST PUSH0 DUP2 CALLDATALOAD SWAP1 POP PUSH2 0x7F9 DUP2 PUSH2 0x7D5 JUMP JUMPDEST SWAP3 SWAP2 POP POP JUMP JUMPDEST PUSH0 PUSH0 PUSH0 PUSH0 PUSH0 PUSH1 0xA0 DUP7 DUP9 SUB SLT ISZERO PUSH2 0x818 JUMPI PUSH2 0x817 PUSH2 0x52D JUMP JUMPDEST JUMPDEST PUSH0 DUP7 ADD CALLDATALOAD PUSH8 0xFFFFFFFFFFFFFFFF DUP2 GT ISZERO PUSH2 0x835 JUMPI PUSH2 0x834 PUSH2 0x531 JUMP JUMPDEST JUMPDEST PUSH2 0x841 DUP9 DUP3 DUP10 ADD PUSH2 0x7A8 JUMP JUMPDEST SWAP6 POP POP PUSH1 0x20 DUP7 ADD CALLDATALOAD PUSH8 0xFFFFFFFFFFFFFFFF DUP2 GT ISZERO PUSH2 0x862 JUMPI PUSH2 0x861 PUSH2 0x531 JUMP JUMPDEST JUMPDEST PUSH2 0x86E DUP9 DUP3 DUP10 ADD PUSH2 0x7A8 JUMP JUMPDEST SWAP5 POP POP PUSH1 0x40 DUP7 ADD CALLDATALOAD PUSH8 0xFFFFFFFFFFFFFFFF DUP2 GT ISZERO PUSH2 0x88F JUMPI PUSH2 0x88E PUSH2 0x531 JUMP JUMPDEST JUMPDEST PUSH2 0x89B DUP9 DUP3 DUP10 ADD PUSH2 0x7A8 JUMP JUMPDEST SWAP4 POP POP PUSH1 0x60 PUSH2 0x8AC DUP9 DUP3 DUP10 ADD PUSH2 0x7EB JUMP JUMPDEST SWAP3 POP POP PUSH1 0x80 PUSH2 0x8BD DUP9 DUP3 DUP10 ADD PUSH2 0x7EB JUMP JUMPDEST SWAP2 POP POP SWAP3 SWAP6 POP SWAP3 SWAP6 SWAP1 SWAP4 POP JUMP JUMPDEST PUSH2 0x8D3 DUP2 PUSH2 0x535 JUMP JUMPDEST DUP3 MSTORE POP POP JUMP JUMPDEST PUSH0 PUSH1 0x20 DUP3 ADD SWAP1 POP PUSH2 0x8EC PUSH0 DUP4 ADD DUP5 PUSH2 0x8CA JUMP JUMPDEST SWAP3 SWAP2 POP POP JUMP JUMPDEST PUSH0 PUSH20 0xFFFFFFFFFFFFFFFFFFFFFFFFFFFFFFFFFFFFFFFF DUP3 AND SWAP1 POP SWAP2 SWAP1 POP JUMP JUMPDEST PUSH0 PUSH2 0x91B DUP3 PUSH2 0x8F2 JUMP JUMPDEST SWAP1 POP SWAP2 SWAP1 POP JUMP JUMPDEST PUSH2 0x92B DUP2 PUSH2 0x911 JUMP JUMPDEST DUP3 MSTORE POP POP JUMP JUMPDEST PUSH0 PUSH1 0x20 DUP3 ADD SWAP1 POP PUSH2 0x944 PUSH0 DUP4 ADD DUP5 PUSH2 0x922 JUMP JUMPDEST SWAP3 SWAP2 POP POP JUMP JUMPDEST PUSH32 0x4E487B7100000000000000000000000000000000000000000000000000000000 PUSH0 MSTORE PUSH1 0x22 PUSH1 0x4 MSTORE PUSH1 0x24 PUSH0 REVERT JUMPDEST PUSH0 PUSH1 0x2 DUP3 DIV SWAP1 POP PUSH1 0x1 DUP3 AND DUP1 PUSH2 0x98E JUMPI PUSH1 0x7F DUP3 AND SWAP2 POP JUMPDEST PUSH1 0x20 DUP3 LT DUP2 SUB PUSH2 0x9A1 JUMPI PUSH2 0x9A0 PUSH2 0x94A JUMP JUMPDEST JUMPDEST POP SWAP2 SWAP1 POP JUMP JUMPDEST PUSH32 0x4F6E6C792061646D696E2063616E2063726561746520656C656374696F6E7300 PUSH0 DUP3 ADD MSTORE POP JUMP JUMPDEST PUSH0 PUSH2 0x9DB PUSH1 0x1F DUP4 PUSH2 0x59D JUMP JUMPDEST SWAP2 POP PUSH2 0x9E6 DUP3 PUSH2 0x9A7 JUMP JUMPDEST PUSH1 0x20 DUP3 ADD SWAP1 POP SWAP2 SWAP1 POP JUMP JUMPDEST PUSH0 PUSH1 0x20 DUP3 ADD SWAP1 POP DUP2 DUP2 SUB PUSH0 DUP4 ADD MSTORE PUSH2 0xA08 DUP2 PUSH2 0x9CF JUMP JUMPDEST SWAP1 POP SWAP2 SWAP1 POP JUMP JUMPDEST PUSH32 0x496E76616C69642074696D656C696E6500000000000000000000000000000000 PUSH0 DUP3 ADD MSTORE POP JUMP JUMPDEST PUSH0 PUSH2 0xA43 PUSH1 0x10 DUP4 PUSH2 0x59D JUMP JUMPDEST SWAP2 POP PUSH2 0xA4E DUP3 PUSH2 0xA0F JUMP JUMPDEST PUSH1 0x20 DUP3 ADD SWAP1 POP SWAP2 SWAP1 POP JUMP JUMPDEST PUSH0 PUSH1 0x20 DUP3 ADD SWAP1 POP DUP2 DUP2 SUB PUSH0 DUP4 ADD MSTORE PUSH2 0xA70 DUP2 PUSH2 0xA37 JUMP JUMPDEST SWAP1 POP SWAP2 SWAP1 POP JUMP JUMPDEST PUSH0 DUP2 SWAP1 POP SWAP3 SWAP2 POP POP JUMP JUMPDEST PUSH0 PUSH2 0xA8B DUP3 PUSH2 0x593 JUMP JUMPDEST PUSH2 0xA95 DUP2 DUP6 PUSH2 0xA77 JUMP JUMPDEST SWAP4 POP PUSH2 0xAA5 DUP2 DUP6 PUSH1 0x20 DUP7 ADD PUSH2 0x5AD JUMP JUMPDEST DUP1 DUP5 ADD SWAP2 POP POP SWAP3 SWAP2 POP POP JUMP JUMPDEST PUSH0 DUP2 SWAP1 POP SWAP2 SWAP1 POP JUMP JUMPDEST PUSH2 0xACB PUSH2 0xAC6 DUP3 PUSH2 0x603 JUMP JUMPDEST PUSH2 0xAB1 JUMP JUMPDEST DUP3 MSTORE POP POP JUMP JUMPDEST PUSH0 DUP2 PUSH1 0x60 SHL SWAP1 POP SWAP2 SWAP1 POP JUMP JUMPDEST PUSH0 PUSH2 0xAE7 DUP3 PUSH2 0xAD1 JUMP JUMPDEST SWAP1 POP SWAP2 SWAP1 POP JUMP JUMPDEST PUSH0 PUSH2 0xAF8 DUP3 PUSH2 0xADD JUMP JUMPDEST SWAP1 POP SWAP2 SWAP1 POP JUMP JUMPDEST PUSH2 0xB10 PUSH2 0xB0B DUP3 PUSH2 0x911 JUMP JUMPDEST PUSH2 0xAEE JUMP JUMPDEST DUP3 MSTORE POP POP JUMP JUMPDEST PUSH0 PUSH2 0xB21 DUP3 DUP8 PUSH2 0xA81 JUMP JUMPDEST SWAP2 POP PUSH2 0xB2D DUP3 DUP7 PUSH2 0xABA JUMP JUMPDEST PUSH1 0x20 DUP3 ADD SWAP2 POP PUSH2 0xB3D DUP3 DUP6 PUSH2 0xAFF JUMP JUMPDEST PUSH1 0x14 DUP3 ADD SWAP2 POP PUSH2 0xB4D DUP3 DUP5 PUSH2 0xABA JUMP JUMPDEST PUSH1 0x20 DUP3 ADD SWAP2 POP DUP2 SWAP1 POP SWAP6 SWAP5 POP POP POP POP POP JUMP JUMPDEST PUSH32 0x456C656374696F6E20616C726561647920657869737473000000000000000000 PUSH0 DUP3 ADD MSTORE POP JUMP JUMPDEST PUSH0 PUSH2 0xB93 PUSH1 0x17 DUP4 PUSH2 0x59D JUMP JUMPDEST SWAP2 POP PUSH2 0xB9E DUP3 PUSH2 0xB5F JUMP JUMPDEST PUSH1 0x20 DUP3 ADD SWAP1 POP SWAP2 SWAP1 POP JUMP JUMPDEST PUSH0 PUSH1 0x20 DUP3 ADD SWAP1 POP DUP2 DUP2 SUB PUSH0 DUP4 ADD MSTORE PUSH2 0xBC0 DUP2 PUSH2 0xB87 JUMP JUMPDEST SWAP1 POP SWAP2 SWAP1 POP JUMP JUMPDEST PUSH0 DUP2 SWAP1 POP DUP2 PUSH0 MSTORE PUSH1 0x20 PUSH0 KECCAK256 SWAP1 POP SWAP2 SWAP1 POP JUMP JUMPDEST PUSH0 PUSH1 0x20 PUSH1 0x1F DUP4 ADD DIV SWAP1 POP SWAP2 SWAP1 POP JUMP JUMPDEST PUSH0 DUP3 DUP3 SHL SWAP1 POP SWAP3 SWAP2 POP POP JUMP JUMPDEST PUSH0 PUSH1 0x8 DUP4 MUL PUSH2 0xC23 PUSH32 0xFFFFFFFFFFFFFFFFFFFFFFFFFFFFFFFFFFFFFFFFFFFFFFFFFFFFFFFFFFFFFFFF DUP3 PUSH2 0xBE8 JUMP JUMPDEST PUSH2 0xC2D DUP7 DUP4 PUSH2 0xBE8 JUMP JUMPDEST SWAP6 POP DUP1 NOT DUP5 AND SWAP4 POP DUP1 DUP7 AND DUP5 OR SWAP3 POP POP POP SWAP4 SWAP3 POP POP POP JUMP JUMPDEST PUSH0 DUP2 SWAP1 POP SWAP2 SWAP1 POP JUMP JUMPDEST PUSH0 PUSH2 0xC68 PUSH2 0xC63 PUSH2 0xC5E DUP5 PUSH2 0x603 JUMP JUMPDEST PUSH2 0xC45 JUMP JUMPDEST PUSH2 0x603 JUMP JUMPDEST SWAP1 POP SWAP2 SWAP1 POP JUMP JUMPDEST PUSH0 DUP2 SWAP1 POP SWAP2 SWAP1 POP JUMP JUMPDEST PUSH2 0xC81 DUP4 PUSH2 0xC4E JUMP JUMPDEST PUSH2 0xC95 PUSH2 0xC8D DUP3 PUSH2 0xC6F JUMP JUMPDEST DUP5 DUP5 SLOAD PUSH2 0xBF4 JUMP JUMPDEST DUP3 SSTORE POP POP POP POP JUMP JUMPDEST PUSH0 PUSH0 SWAP1 POP SWAP1 JUMP JUMPDEST PUSH2 0xCAC PUSH2 0xC9D JUMP JUMPDEST PUSH2 0xCB7 DUP2 DUP5 DUP5 PUSH2 0xC78 JUMP JUMPDEST POP POP POP JUMP JUMPDEST JUMPDEST DUP2 DUP2 LT ISZERO PUSH2 0xCDA JUMPI PUSH2 0xCCF PUSH0 DUP3 PUSH2 0xCA4 JUMP JUMPDEST PUSH1 0x1 DUP2 ADD SWAP1 POP PUSH2 0xCBD JUMP JUMPDEST POP POP JUMP JUMPDEST PUSH1 0x1F DUP3 GT ISZERO PUSH2 0xD1F JUMPI PUSH2 0xCF0 DUP2 PUSH2 0xBC7 JUMP JUMPDEST PUSH2 0xCF9 DUP5 PUSH2 0xBD9 JUMP JUMPDEST DUP2 ADD PUSH1 0x20 DUP6 LT ISZERO PUSH2 0xD08 JUMPI DUP2 SWAP1 POP JUMPDEST PUSH2 0xD1C PUSH2 0xD14 DUP6 PUSH2 0xBD9 JUMP JUMPDEST DUP4 ADD DUP3 PUSH2 0xCBC JUMP JUMPDEST POP POP JUMPDEST POP POP POP JUMP JUMPDEST PUSH0 DUP3 DUP3 SHR SWAP1 POP SWAP3 SWAP2 POP POP JUMP JUMPDEST PUSH0 PUSH2 0xD3F PUSH0 NOT DUP5 PUSH1 0x8 MUL PUSH2 0xD24 JUMP JUMPDEST NOT DUP1 DUP4 AND SWAP2 POP POP SWAP3 SWAP2 POP POP JUMP JUMPDEST PUSH0 PUSH2 0xD57 DUP4 DUP4 PUSH2 0xD30 JUMP JUMPDEST SWAP2 POP DUP3 PUSH1 0x2 MUL DUP3 OR SWAP1 POP SWAP3 SWAP2 POP POP JUMP JUMPDEST PUSH2 0xD70 DUP3 PUSH2 0x593 JUMP JUMPDEST PUSH8 0xFFFFFFFFFFFFFFFF DUP2 GT ISZERO PUSH2 0xD89 JUMPI PUSH2 0xD88 PUSH2 0x6B1 JUMP JUMPDEST JUMPDEST PUSH2 0xD93 DUP3 SLOAD PUSH2 0x977 JUMP JUMPDEST PUSH2 0xD9E DUP3 DUP3 DUP6 PUSH2 0xCDE JUMP JUMPDEST PUSH0 PUSH1 0x20 SWAP1 POP PUSH1 0x1F DUP4 GT PUSH1 0x1 DUP2 EQ PUSH2 0xDCF JUMPI PUSH0 DUP5 ISZERO PUSH2 0xDBD JUMPI DUP3 DUP8 ADD MLOAD SWAP1 POP JUMPDEST PUSH2 0xDC7 DUP6 DUP3 PUSH2 0xD4C JUMP JUMPDEST DUP7 SSTORE POP PUSH2 0xE2E JUMP JUMPDEST PUSH1 0x1F NOT DUP5 AND PUSH2 0xDDD DUP7 PUSH2 0xBC7 JUMP JUMPDEST PUSH0 JUMPDEST DUP3 DUP2 LT ISZERO PUSH2 0xE04 JUMPI DUP5 DUP10 ADD MLOAD DUP3 SSTORE PUSH1 0x1 DUP3 ADD SWAP2 POP PUSH1 0x20 DUP6 ADD SWAP5 POP PUSH1 0x20 DUP2 ADD SWAP1 POP PUSH2 0xDDF JUMP JUMPDEST DUP7 DUP4 LT ISZERO PUSH2 0xE21 JUMPI DUP5 DUP10 ADD MLOAD PUSH2 0xE1D PUSH1 0x1F DUP10 AND DUP3 PUSH2 0xD30 JUMP JUMPDEST DUP4 SSTORE POP JUMPDEST PUSH1 0x1 PUSH1 0x2 DUP9 MUL ADD DUP9 SSTORE POP POP POP JUMPDEST POP POP POP POP POP POP JUMP JUMPDEST PUSH0 PUSH1 0x80 DUP3 ADD SWAP1 POP DUP2 DUP2 SUB PUSH0 DUP4 ADD MSTORE PUSH2 0xE4E DUP2 DUP8 PUSH2 0x5CB JUMP JUMPDEST SWAP1 POP PUSH2 0xE5D PUSH1 0x20 DUP4 ADD DUP7 PUSH2 0x60C JUMP JUMPDEST PUSH2 0xE6A PUSH1 0x40 DUP4 ADD DUP6 PUSH2 0x60C JUMP JUMPDEST PUSH2 0xE77 PUSH1 0x60 DUP4 ADD DUP5 PUSH2 0x922 JUMP JUMPDEST SWAP6 SWAP5 POP POP POP POP POP JUMP INVALID LOG2 PUSH5 0x6970667358 0x22 SLT KECCAK256 KECCAK256 CODECOPY SWAP14 DUP11 DELEGATECALL NOT 0xA7 PUSH4 0xB15BB380 0x2D 0x2C XOR 0xEB 0xA5 SELFDESTRUCT RETF 0xCE BLOBBASEFEE EQ PUSH3 0xB7627F DUP4 STOP 0xCF 0xB1 0xB6 PUSH17 0x64736F6C634300081E0033000000000000 "
		},
		"gasEstimates": {
			"creation": {
				"codeDepositCost": "753200",
				"executionCost": "25048",
				"totalCost": "778248"
			},
			"external": {
				"createElection(string,string,string,uint256,uint256)": "infinite",
				"elections(bytes32)": "infinite",
				"owner()": "2529"
			}
		},
		"methodIdentifiers": {
			"createElection(string,string,string,uint256,uint256)": "19b99e03",
			"elections(bytes32)": "05ab39b7",
			"owner()": "8da5cb5b"
		}
	},
	"abi": [
		{
			"inputs": [],
			"stateMutability": "nonpayable",
			"type": "constructor"
		},
		{
			"anonymous": false,
			"inputs": [
				{
					"indexed": true,
					"internalType": "bytes32",
					"name": "electionId",
					"type": "bytes32"
				},
				{
					"indexed": false,
					"internalType": "string",
					"name": "name",
					"type": "string"
				},
				{
					"indexed": false,
					"internalType": "uint256",
					"name": "startDate",
					"type": "uint256"
				},
				{
					"indexed": false,
					"internalType": "uint256",
					"name": "endDate",
					"type": "uint256"
				},
				{
					"indexed": false,
					"internalType": "address",
					"name": "createdBy",
					"type": "address"
				}
			],
			"name": "ElectionCreated",
			"type": "event"
		},
		{
			"inputs": [
				{
					"internalType": "string",
					"name": "_name",
					"type": "string"
				},
				{
					"internalType": "string",
					"name": "_description",
					"type": "string"
				},
				{
					"internalType": "string",
					"name": "_bannerUrl",
					"type": "string"
				},
				{
					"internalType": "uint256",
					"name": "_startDate",
					"type": "uint256"
				},
				{
					"internalType": "uint256",
					"name": "_endDate",
					"type": "uint256"
				}
			],
			"name": "createElection",
			"outputs": [
				{
					"internalType": "bytes32",
					"name": "",
					"type": "bytes32"
				}
			],
			"stateMutability": "nonpayable",
			"type": "function"
		},
		{
			"inputs": [
				{
					"internalType": "bytes32",
					"name": "",
					"type": "bytes32"
				}
			],
			"name": "elections",
			"outputs": [
				{
					"internalType": "string",
					"name": "name",
					"type": "string"
				},
				{
					"internalType": "string",
					"name": "description",
					"type": "string"
				},
				{
					"internalType": "uint256",
					"name": "startDate",
					"type": "uint256"
				},
				{
					"internalType": "uint256",
					"name": "endDate",
					"type": "uint256"
				},
				{
					"internalType": "string",
					"name": "bannerUrl",
					"type": "string"
				},
				{
					"internalType": "bool",
					"name": "exists",
					"type": "bool"
				}
			],
			"stateMutability": "view",
			"type": "function"
		},
		{
			"inputs": [],
			"name": "owner",
			"outputs": [
				{
					"internalType": "address",
					"name": "",
					"type": "address"
				}
			],
			"stateMutability": "view",
			"type": "function"
		}
	]
}